{
	"SmartConstitution.sol": {
		"SmartConstitution": {
			"abi": [
				{
					"inputs": [
						{
							"internalType": "address",
							"name": "_randomizer",
							"type": "address"
						},
						{
							"internalType": "string",
							"name": "_provisions",
							"type": "string"
						}
					],
					"stateMutability": "nonpayable",
					"type": "constructor"
				},
				{
					"inputs": [],
					"name": "N_MEMBERS",
					"outputs": [
						{
							"internalType": "uint8",
							"name": "",
							"type": "uint8"
						}
					],
					"stateMutability": "view",
					"type": "function"
				},
				{
					"inputs": [],
					"name": "RANDOM_VOTERS",
					"outputs": [
						{
							"internalType": "uint32",
							"name": "",
							"type": "uint32"
						}
					],
					"stateMutability": "view",
					"type": "function"
				},
				{
					"inputs": [],
					"name": "REG_TIME",
					"outputs": [
						{
							"internalType": "uint256",
							"name": "",
							"type": "uint256"
						}
					],
					"stateMutability": "view",
					"type": "function"
				},
				{
					"inputs": [
						{
							"internalType": "uint256",
							"name": "",
							"type": "uint256"
						}
					],
					"name": "bills",
					"outputs": [
						{
							"internalType": "address",
							"name": "proposer",
							"type": "address"
						},
						{
							"internalType": "string",
							"name": "provisions",
							"type": "string"
						},
						{
							"internalType": "uint256",
							"name": "proposedAt",
							"type": "uint256"
						},
						{
							"internalType": "uint256",
							"name": "executedAt",
							"type": "uint256"
						},
						{
							"internalType": "uint256",
							"name": "withdrawnAt",
							"type": "uint256"
						},
						{
							"internalType": "uint8",
							"name": "yesVotes",
							"type": "uint8"
						}
					],
					"stateMutability": "view",
					"type": "function"
				},
				{
					"inputs": [
						{
							"internalType": "address",
							"name": "",
							"type": "address"
						}
					],
					"name": "candidateInfo",
					"outputs": [
						{
							"internalType": "string",
							"name": "fullName",
							"type": "string"
						},
						{
							"internalType": "string",
							"name": "bio",
							"type": "string"
						},
						{
							"internalType": "string",
							"name": "website",
							"type": "string"
						},
						{
							"internalType": "uint256",
							"name": "registeredAt",
							"type": "uint256"
						},
						{
							"internalType": "uint256",
							"name": "voteCount",
							"type": "uint256"
						},
						{
							"internalType": "bool",
							"name": "electedMember",
							"type": "bool"
						},
						{
							"internalType": "uint256",
							"name": "leaderAt",
							"type": "uint256"
						}
					],
					"stateMutability": "view",
					"type": "function"
				},
				{
					"inputs": [
						{
							"internalType": "uint256",
							"name": "",
							"type": "uint256"
						}
					],
					"name": "candidateList",
					"outputs": [
						{
							"internalType": "address",
							"name": "",
							"type": "address"
						}
					],
					"stateMutability": "view",
					"type": "function"
				},
				{
					"inputs": [],
					"name": "electionEnd",
					"outputs": [
						{
							"internalType": "uint256",
							"name": "",
							"type": "uint256"
						}
					],
					"stateMutability": "view",
					"type": "function"
				},
				{
					"inputs": [],
					"name": "getCurrentPhase",
					"outputs": [
						{
							"internalType": "enum Phase",
							"name": "",
							"type": "uint8"
						}
					],
					"stateMutability": "nonpayable",
					"type": "function"
				},
				{
					"inputs": [],
					"name": "randomizer",
					"outputs": [
						{
							"internalType": "address",
							"name": "",
							"type": "address"
						}
					],
					"stateMutability": "view",
					"type": "function"
				},
				{
					"inputs": [],
					"name": "referendumEndTime",
					"outputs": [
						{
							"internalType": "uint256",
							"name": "",
							"type": "uint256"
						}
					],
					"stateMutability": "view",
					"type": "function"
				},
				{
					"inputs": [],
					"name": "startTime",
					"outputs": [
						{
							"internalType": "uint256",
							"name": "",
							"type": "uint256"
						}
					],
					"stateMutability": "view",
					"type": "function"
				}
			],
			"devdoc": {
				"kind": "dev",
				"methods": {},
				"version": 1
			},
			"evm": {
				"assembly": "    /* \"SmartConstitution.sol\":934:2822  contract SmartConstitution {... */\n  mstore(0x40, 0xa0)\n    /* \"SmartConstitution.sol\":1550:2000  constructor(address _randomizer, string memory _provisions) {... */\n  callvalue\n  dup1\n  iszero\n  tag_1\n  jumpi\n  0x00\n  dup1\n  revert\ntag_1:\n  pop\n  mload(0x40)\n  sub(codesize, bytecodeSize)\n  dup1\n  bytecodeSize\n  dup4\n  codecopy\n  dup2\n  dup2\n  add\n  0x40\n  mstore\n  dup2\n  add\n  swap1\n  tag_2\n  swap2\n  swap1\n  tag_3\n  jump\t// in\ntag_2:\n    /* \"SmartConstitution.sol\":1633:1644  _randomizer */\n  dup2\n    /* \"SmartConstitution.sol\":1620:1630  randomizer */\n  0x01\n  0x00\n    /* \"SmartConstitution.sol\":1620:1644  randomizer = _randomizer */\n  0x0100\n  exp\n  dup2\n  sload\n  dup2\n  0xffffffffffffffffffffffffffffffffffffffff\n  mul\n  not\n  and\n  swap1\n  dup4\n  0xffffffffffffffffffffffffffffffffffffffff\n  and\n  mul\n  or\n  swap1\n  sstore\n  pop\n    /* \"SmartConstitution.sol\":1666:1681  block.timestamp */\n  timestamp\n    /* \"SmartConstitution.sol\":1654:1681  startTime = block.timestamp */\n  0x80\n  dup2\n  dup2\n  mstore\n  pop\n  pop\n    /* \"SmartConstitution.sol\":1728:1729  1 */\n  0x01\n    /* \"SmartConstitution.sol\":1090:1097  2 weeks */\n  0x127500\n    /* \"SmartConstitution.sol\":1705:1714  startTime */\n  mload(0x80)\n    /* \"SmartConstitution.sol\":1705:1725  startTime + REG_TIME */\n  tag_6\n  swap2\n  swap1\n  tag_7\n  jump\t// in\ntag_6:\n    /* \"SmartConstitution.sol\":1705:1729  startTime + REG_TIME + 1 */\n  tag_8\n  swap2\n  swap1\n  tag_7\n  jump\t// in\ntag_8:\n    /* \"SmartConstitution.sol\":1691:1702  electionEnd */\n  0x00\n    /* \"SmartConstitution.sol\":1691:1729  electionEnd = startTime + REG_TIME + 1 */\n  dup2\n  swap1\n  sstore\n  pop\n    /* \"SmartConstitution.sol\":1739:1757  Bill storage _bill */\n  0x00\n    /* \"SmartConstitution.sol\":1760:1765  bills */\n  0x03\n    /* \"SmartConstitution.sol\":1760:1772  bills.push() */\n  0x01\n  dup2\n  0x01\n  dup2\n  sload\n  add\n  dup1\n  dup3\n  sstore\n  dup1\n  swap2\n  pop\n  pop\n  sub\n  swap1\n  0x00\n  mstore\n  keccak256(0x00, 0x20)\n  swap1\n  0x07\n  mul\n  add\n    /* \"SmartConstitution.sol\":1739:1772  Bill storage _bill = bills.push() */\n  swap1\n  pop\n    /* \"SmartConstitution.sol\":1800:1810  msg.sender */\n  caller\n    /* \"SmartConstitution.sol\":1783:1788  _bill */\n  dup2\n    /* \"SmartConstitution.sol\":1783:1797  _bill.proposer */\n  0x00\n  add\n  0x00\n    /* \"SmartConstitution.sol\":1783:1810  _bill.proposer = msg.sender */\n  0x0100\n  exp\n  dup2\n  sload\n  dup2\n  0xffffffffffffffffffffffffffffffffffffffff\n  mul\n  not\n  and\n  swap1\n  dup4\n  0xffffffffffffffffffffffffffffffffffffffff\n  and\n  mul\n  or\n  swap1\n  sstore\n  pop\n    /* \"SmartConstitution.sol\":1839:1850  _provisions */\n  dup2\n    /* \"SmartConstitution.sol\":1820:1825  _bill */\n  dup2\n    /* \"SmartConstitution.sol\":1820:1836  _bill.provisions */\n  0x01\n  add\n    /* \"SmartConstitution.sol\":1820:1850  _bill.provisions = _provisions */\n  swap1\n  dup2\n  tag_10\n  swap2\n  swap1\n  tag_11\n  jump\t// in\ntag_10:\n  pop\n    /* \"SmartConstitution.sol\":1879:1888  startTime */\n  mload(0x80)\n    /* \"SmartConstitution.sol\":1860:1865  _bill */\n  dup2\n    /* \"SmartConstitution.sol\":1860:1876  _bill.proposedAt */\n  0x02\n  add\n    /* \"SmartConstitution.sol\":1860:1888  _bill.proposedAt = startTime */\n  dup2\n  swap1\n  sstore\n  pop\n    /* \"SmartConstitution.sol\":1917:1926  startTime */\n  mload(0x80)\n    /* \"SmartConstitution.sol\":1898:1903  _bill */\n  dup2\n    /* \"SmartConstitution.sol\":1898:1914  _bill.executedAt */\n  0x03\n  add\n    /* \"SmartConstitution.sol\":1898:1926  _bill.executedAt = startTime */\n  dup2\n  swap1\n  sstore\n  pop\n    /* \"SmartConstitution.sol\":1956:1957  0 */\n  0x00\n    /* \"SmartConstitution.sol\":1936:1941  _bill */\n  dup2\n    /* \"SmartConstitution.sol\":1936:1953  _bill.withdrawnAt */\n  0x04\n  add\n    /* \"SmartConstitution.sol\":1936:1957  _bill.withdrawnAt = 0 */\n  dup2\n  swap1\n  sstore\n  pop\n    /* \"SmartConstitution.sol\":1137:1139  50 */\n  0x32\n    /* \"SmartConstitution.sol\":1967:1972  _bill */\n  dup2\n    /* \"SmartConstitution.sol\":1967:1981  _bill.yesVotes */\n  0x05\n  add\n  0x00\n    /* \"SmartConstitution.sol\":1967:1993  _bill.yesVotes = N_MEMBERS */\n  0x0100\n  exp\n  dup2\n  sload\n  dup2\n  0xff\n  mul\n  not\n  and\n  swap1\n  dup4\n  0xff\n  and\n  mul\n  or\n  swap1\n  sstore\n  pop\n    /* \"SmartConstitution.sol\":1610:2000  {... */\n  pop\n    /* \"SmartConstitution.sol\":1550:2000  constructor(address _randomizer, string memory _provisions) {... */\n  pop\n  pop\n    /* \"SmartConstitution.sol\":934:2822  contract SmartConstitution {... */\n  jump(tag_12)\n    /* \"#utility.yul\":7:82   */\ntag_13:\n    /* \"#utility.yul\":40:46   */\n  0x00\n    /* \"#utility.yul\":73:75   */\n  0x40\n    /* \"#utility.yul\":67:76   */\n  mload\n    /* \"#utility.yul\":57:76   */\n  swap1\n  pop\n    /* \"#utility.yul\":7:82   */\n  swap1\n  jump\t// out\n    /* \"#utility.yul\":88:205   */\ntag_14:\n    /* \"#utility.yul\":197:198   */\n  0x00\n    /* \"#utility.yul\":194:195   */\n  dup1\n    /* \"#utility.yul\":187:199   */\n  revert\n    /* \"#utility.yul\":211:328   */\ntag_15:\n    /* \"#utility.yul\":320:321   */\n  0x00\n    /* \"#utility.yul\":317:318   */\n  dup1\n    /* \"#utility.yul\":310:322   */\n  revert\n    /* \"#utility.yul\":334:460   */\ntag_16:\n    /* \"#utility.yul\":371:378   */\n  0x00\n    /* \"#utility.yul\":411:453   */\n  0xffffffffffffffffffffffffffffffffffffffff\n    /* \"#utility.yul\":404:409   */\n  dup3\n    /* \"#utility.yul\":400:454   */\n  and\n    /* \"#utility.yul\":389:454   */\n  swap1\n  pop\n    /* \"#utility.yul\":334:460   */\n  swap2\n  swap1\n  pop\n  jump\t// out\n    /* \"#utility.yul\":466:562   */\ntag_17:\n    /* \"#utility.yul\":503:510   */\n  0x00\n    /* \"#utility.yul\":532:556   */\n  tag_56\n    /* \"#utility.yul\":550:555   */\n  dup3\n    /* \"#utility.yul\":532:556   */\n  tag_16\n  jump\t// in\ntag_56:\n    /* \"#utility.yul\":521:556   */\n  swap1\n  pop\n    /* \"#utility.yul\":466:562   */\n  swap2\n  swap1\n  pop\n  jump\t// out\n    /* \"#utility.yul\":568:690   */\ntag_18:\n    /* \"#utility.yul\":641:665   */\n  tag_58\n    /* \"#utility.yul\":659:664   */\n  dup2\n    /* \"#utility.yul\":641:665   */\n  tag_17\n  jump\t// in\ntag_58:\n    /* \"#utility.yul\":634:639   */\n  dup2\n    /* \"#utility.yul\":631:666   */\n  eq\n    /* \"#utility.yul\":621:684   */\n  tag_59\n  jumpi\n    /* \"#utility.yul\":680:681   */\n  0x00\n    /* \"#utility.yul\":677:678   */\n  dup1\n    /* \"#utility.yul\":670:682   */\n  revert\n    /* \"#utility.yul\":621:684   */\ntag_59:\n    /* \"#utility.yul\":568:690   */\n  pop\n  jump\t// out\n    /* \"#utility.yul\":696:839   */\ntag_19:\n    /* \"#utility.yul\":753:758   */\n  0x00\n    /* \"#utility.yul\":784:790   */\n  dup2\n    /* \"#utility.yul\":778:791   */\n  mload\n    /* \"#utility.yul\":769:791   */\n  swap1\n  pop\n    /* \"#utility.yul\":800:833   */\n  tag_61\n    /* \"#utility.yul\":827:832   */\n  dup2\n    /* \"#utility.yul\":800:833   */\n  tag_18\n  jump\t// in\ntag_61:\n    /* \"#utility.yul\":696:839   */\n  swap3\n  swap2\n  pop\n  pop\n  jump\t// out\n    /* \"#utility.yul\":845:962   */\ntag_20:\n    /* \"#utility.yul\":954:955   */\n  0x00\n    /* \"#utility.yul\":951:952   */\n  dup1\n    /* \"#utility.yul\":944:956   */\n  revert\n    /* \"#utility.yul\":968:1085   */\ntag_21:\n    /* \"#utility.yul\":1077:1078   */\n  0x00\n    /* \"#utility.yul\":1074:1075   */\n  dup1\n    /* \"#utility.yul\":1067:1079   */\n  revert\n    /* \"#utility.yul\":1091:1193   */\ntag_22:\n    /* \"#utility.yul\":1132:1138   */\n  0x00\n    /* \"#utility.yul\":1183:1185   */\n  0x1f\n    /* \"#utility.yul\":1179:1186   */\n  not\n    /* \"#utility.yul\":1174:1176   */\n  0x1f\n    /* \"#utility.yul\":1167:1172   */\n  dup4\n    /* \"#utility.yul\":1163:1177   */\n  add\n    /* \"#utility.yul\":1159:1187   */\n  and\n    /* \"#utility.yul\":1149:1187   */\n  swap1\n  pop\n    /* \"#utility.yul\":1091:1193   */\n  swap2\n  swap1\n  pop\n  jump\t// out\n    /* \"#utility.yul\":1199:1379   */\ntag_23:\n    /* \"#utility.yul\":1247:1324   */\n  0x4e487b7100000000000000000000000000000000000000000000000000000000\n    /* \"#utility.yul\":1244:1245   */\n  0x00\n    /* \"#utility.yul\":1237:1325   */\n  mstore\n    /* \"#utility.yul\":1344:1348   */\n  0x41\n    /* \"#utility.yul\":1341:1342   */\n  0x04\n    /* \"#utility.yul\":1334:1349   */\n  mstore\n    /* \"#utility.yul\":1368:1372   */\n  0x24\n    /* \"#utility.yul\":1365:1366   */\n  0x00\n    /* \"#utility.yul\":1358:1373   */\n  revert\n    /* \"#utility.yul\":1385:1666   */\ntag_24:\n    /* \"#utility.yul\":1468:1495   */\n  tag_67\n    /* \"#utility.yul\":1490:1494   */\n  dup3\n    /* \"#utility.yul\":1468:1495   */\n  tag_22\n  jump\t// in\ntag_67:\n    /* \"#utility.yul\":1460:1466   */\n  dup2\n    /* \"#utility.yul\":1456:1496   */\n  add\n    /* \"#utility.yul\":1598:1604   */\n  dup2\n    /* \"#utility.yul\":1586:1596   */\n  dup2\n    /* \"#utility.yul\":1583:1605   */\n  lt\n    /* \"#utility.yul\":1562:1580   */\n  0xffffffffffffffff\n    /* \"#utility.yul\":1550:1560   */\n  dup3\n    /* \"#utility.yul\":1547:1581   */\n  gt\n    /* \"#utility.yul\":1544:1606   */\n  or\n    /* \"#utility.yul\":1541:1629   */\n  iszero\n  tag_68\n  jumpi\n    /* \"#utility.yul\":1609:1627   */\n  tag_69\n  tag_23\n  jump\t// in\ntag_69:\n    /* \"#utility.yul\":1541:1629   */\ntag_68:\n    /* \"#utility.yul\":1649:1659   */\n  dup1\n    /* \"#utility.yul\":1645:1647   */\n  0x40\n    /* \"#utility.yul\":1638:1660   */\n  mstore\n    /* \"#utility.yul\":1428:1666   */\n  pop\n    /* \"#utility.yul\":1385:1666   */\n  pop\n  pop\n  jump\t// out\n    /* \"#utility.yul\":1672:1801   */\ntag_25:\n    /* \"#utility.yul\":1706:1712   */\n  0x00\n    /* \"#utility.yul\":1733:1753   */\n  tag_71\n  tag_13\n  jump\t// in\ntag_71:\n    /* \"#utility.yul\":1723:1753   */\n  swap1\n  pop\n    /* \"#utility.yul\":1762:1795   */\n  tag_72\n    /* \"#utility.yul\":1790:1794   */\n  dup3\n    /* \"#utility.yul\":1782:1788   */\n  dup3\n    /* \"#utility.yul\":1762:1795   */\n  tag_24\n  jump\t// in\ntag_72:\n    /* \"#utility.yul\":1672:1801   */\n  swap2\n  swap1\n  pop\n  jump\t// out\n    /* \"#utility.yul\":1807:2115   */\ntag_26:\n    /* \"#utility.yul\":1869:1873   */\n  0x00\n    /* \"#utility.yul\":1959:1977   */\n  0xffffffffffffffff\n    /* \"#utility.yul\":1951:1957   */\n  dup3\n    /* \"#utility.yul\":1948:1978   */\n  gt\n    /* \"#utility.yul\":1945:2001   */\n  iszero\n  tag_74\n  jumpi\n    /* \"#utility.yul\":1981:1999   */\n  tag_75\n  tag_23\n  jump\t// in\ntag_75:\n    /* \"#utility.yul\":1945:2001   */\ntag_74:\n    /* \"#utility.yul\":2019:2048   */\n  tag_76\n    /* \"#utility.yul\":2041:2047   */\n  dup3\n    /* \"#utility.yul\":2019:2048   */\n  tag_22\n  jump\t// in\ntag_76:\n    /* \"#utility.yul\":2011:2048   */\n  swap1\n  pop\n    /* \"#utility.yul\":2103:2107   */\n  0x20\n    /* \"#utility.yul\":2097:2101   */\n  dup2\n    /* \"#utility.yul\":2093:2108   */\n  add\n    /* \"#utility.yul\":2085:2108   */\n  swap1\n  pop\n    /* \"#utility.yul\":1807:2115   */\n  swap2\n  swap1\n  pop\n  jump\t// out\n    /* \"#utility.yul\":2121:2260   */\ntag_27:\n    /* \"#utility.yul\":2210:2216   */\n  dup3\n    /* \"#utility.yul\":2205:2208   */\n  dup2\n    /* \"#utility.yul\":2200:2203   */\n  dup4\n    /* \"#utility.yul\":2194:2217   */\n  mcopy\n    /* \"#utility.yul\":2251:2252   */\n  0x00\n    /* \"#utility.yul\":2242:2248   */\n  dup4\n    /* \"#utility.yul\":2237:2240   */\n  dup4\n    /* \"#utility.yul\":2233:2249   */\n  add\n    /* \"#utility.yul\":2226:2253   */\n  mstore\n    /* \"#utility.yul\":2121:2260   */\n  pop\n  pop\n  pop\n  jump\t// out\n    /* \"#utility.yul\":2266:2700   */\ntag_28:\n    /* \"#utility.yul\":2355:2360   */\n  0x00\n    /* \"#utility.yul\":2380:2446   */\n  tag_79\n    /* \"#utility.yul\":2396:2445   */\n  tag_80\n    /* \"#utility.yul\":2438:2444   */\n  dup5\n    /* \"#utility.yul\":2396:2445   */\n  tag_26\n  jump\t// in\ntag_80:\n    /* \"#utility.yul\":2380:2446   */\n  tag_25\n  jump\t// in\ntag_79:\n    /* \"#utility.yul\":2371:2446   */\n  swap1\n  pop\n    /* \"#utility.yul\":2469:2475   */\n  dup3\n    /* \"#utility.yul\":2462:2467   */\n  dup2\n    /* \"#utility.yul\":2455:2476   */\n  mstore\n    /* \"#utility.yul\":2507:2511   */\n  0x20\n    /* \"#utility.yul\":2500:2505   */\n  dup2\n    /* \"#utility.yul\":2496:2512   */\n  add\n    /* \"#utility.yul\":2545:2548   */\n  dup5\n    /* \"#utility.yul\":2536:2542   */\n  dup5\n    /* \"#utility.yul\":2531:2534   */\n  dup5\n    /* \"#utility.yul\":2527:2543   */\n  add\n    /* \"#utility.yul\":2524:2549   */\n  gt\n    /* \"#utility.yul\":2521:2633   */\n  iszero\n  tag_81\n  jumpi\n    /* \"#utility.yul\":2552:2631   */\n  tag_82\n  tag_21\n  jump\t// in\ntag_82:\n    /* \"#utility.yul\":2521:2633   */\ntag_81:\n    /* \"#utility.yul\":2642:2694   */\n  tag_83\n    /* \"#utility.yul\":2687:2693   */\n  dup5\n    /* \"#utility.yul\":2682:2685   */\n  dup3\n    /* \"#utility.yul\":2677:2680   */\n  dup6\n    /* \"#utility.yul\":2642:2694   */\n  tag_27\n  jump\t// in\ntag_83:\n    /* \"#utility.yul\":2361:2700   */\n  pop\n    /* \"#utility.yul\":2266:2700   */\n  swap4\n  swap3\n  pop\n  pop\n  pop\n  jump\t// out\n    /* \"#utility.yul\":2720:3075   */\ntag_29:\n    /* \"#utility.yul\":2787:2792   */\n  0x00\n    /* \"#utility.yul\":2836:2839   */\n  dup3\n    /* \"#utility.yul\":2829:2833   */\n  0x1f\n    /* \"#utility.yul\":2821:2827   */\n  dup4\n    /* \"#utility.yul\":2817:2834   */\n  add\n    /* \"#utility.yul\":2813:2840   */\n  slt\n    /* \"#utility.yul\":2803:2925   */\n  tag_85\n  jumpi\n    /* \"#utility.yul\":2844:2923   */\n  tag_86\n  tag_20\n  jump\t// in\ntag_86:\n    /* \"#utility.yul\":2803:2925   */\ntag_85:\n    /* \"#utility.yul\":2954:2960   */\n  dup2\n    /* \"#utility.yul\":2948:2961   */\n  mload\n    /* \"#utility.yul\":2979:3069   */\n  tag_87\n    /* \"#utility.yul\":3065:3068   */\n  dup5\n    /* \"#utility.yul\":3057:3063   */\n  dup3\n    /* \"#utility.yul\":3050:3054   */\n  0x20\n    /* \"#utility.yul\":3042:3048   */\n  dup7\n    /* \"#utility.yul\":3038:3055   */\n  add\n    /* \"#utility.yul\":2979:3069   */\n  tag_28\n  jump\t// in\ntag_87:\n    /* \"#utility.yul\":2970:3069   */\n  swap2\n  pop\n    /* \"#utility.yul\":2793:3075   */\n  pop\n    /* \"#utility.yul\":2720:3075   */\n  swap3\n  swap2\n  pop\n  pop\n  jump\t// out\n    /* \"#utility.yul\":3081:3761   */\ntag_3:\n    /* \"#utility.yul\":3170:3176   */\n  0x00\n    /* \"#utility.yul\":3178:3184   */\n  dup1\n    /* \"#utility.yul\":3227:3229   */\n  0x40\n    /* \"#utility.yul\":3215:3224   */\n  dup4\n    /* \"#utility.yul\":3206:3213   */\n  dup6\n    /* \"#utility.yul\":3202:3225   */\n  sub\n    /* \"#utility.yul\":3198:3230   */\n  slt\n    /* \"#utility.yul\":3195:3314   */\n  iszero\n  tag_89\n  jumpi\n    /* \"#utility.yul\":3233:3312   */\n  tag_90\n  tag_14\n  jump\t// in\ntag_90:\n    /* \"#utility.yul\":3195:3314   */\ntag_89:\n    /* \"#utility.yul\":3353:3354   */\n  0x00\n    /* \"#utility.yul\":3378:3442   */\n  tag_91\n    /* \"#utility.yul\":3434:3441   */\n  dup6\n    /* \"#utility.yul\":3425:3431   */\n  dup3\n    /* \"#utility.yul\":3414:3423   */\n  dup7\n    /* \"#utility.yul\":3410:3432   */\n  add\n    /* \"#utility.yul\":3378:3442   */\n  tag_19\n  jump\t// in\ntag_91:\n    /* \"#utility.yul\":3368:3442   */\n  swap3\n  pop\n    /* \"#utility.yul\":3324:3452   */\n  pop\n    /* \"#utility.yul\":3512:3514   */\n  0x20\n    /* \"#utility.yul\":3501:3510   */\n  dup4\n    /* \"#utility.yul\":3497:3515   */\n  add\n    /* \"#utility.yul\":3491:3516   */\n  mload\n    /* \"#utility.yul\":3543:3561   */\n  0xffffffffffffffff\n    /* \"#utility.yul\":3535:3541   */\n  dup2\n    /* \"#utility.yul\":3532:3562   */\n  gt\n    /* \"#utility.yul\":3529:3646   */\n  iszero\n  tag_92\n  jumpi\n    /* \"#utility.yul\":3565:3644   */\n  tag_93\n  tag_15\n  jump\t// in\ntag_93:\n    /* \"#utility.yul\":3529:3646   */\ntag_92:\n    /* \"#utility.yul\":3670:3744   */\n  tag_94\n    /* \"#utility.yul\":3736:3743   */\n  dup6\n    /* \"#utility.yul\":3727:3733   */\n  dup3\n    /* \"#utility.yul\":3716:3725   */\n  dup7\n    /* \"#utility.yul\":3712:3734   */\n  add\n    /* \"#utility.yul\":3670:3744   */\n  tag_29\n  jump\t// in\ntag_94:\n    /* \"#utility.yul\":3660:3744   */\n  swap2\n  pop\n    /* \"#utility.yul\":3462:3754   */\n  pop\n    /* \"#utility.yul\":3081:3761   */\n  swap3\n  pop\n  swap3\n  swap1\n  pop\n  jump\t// out\n    /* \"#utility.yul\":3767:3844   */\ntag_30:\n    /* \"#utility.yul\":3804:3811   */\n  0x00\n    /* \"#utility.yul\":3833:3838   */\n  dup2\n    /* \"#utility.yul\":3822:3838   */\n  swap1\n  pop\n    /* \"#utility.yul\":3767:3844   */\n  swap2\n  swap1\n  pop\n  jump\t// out\n    /* \"#utility.yul\":3850:4030   */\ntag_31:\n    /* \"#utility.yul\":3898:3975   */\n  0x4e487b7100000000000000000000000000000000000000000000000000000000\n    /* \"#utility.yul\":3895:3896   */\n  0x00\n    /* \"#utility.yul\":3888:3976   */\n  mstore\n    /* \"#utility.yul\":3995:3999   */\n  0x11\n    /* \"#utility.yul\":3992:3993   */\n  0x04\n    /* \"#utility.yul\":3985:4000   */\n  mstore\n    /* \"#utility.yul\":4019:4023   */\n  0x24\n    /* \"#utility.yul\":4016:4017   */\n  0x00\n    /* \"#utility.yul\":4009:4024   */\n  revert\n    /* \"#utility.yul\":4036:4227   */\ntag_7:\n    /* \"#utility.yul\":4076:4079   */\n  0x00\n    /* \"#utility.yul\":4095:4115   */\n  tag_98\n    /* \"#utility.yul\":4113:4114   */\n  dup3\n    /* \"#utility.yul\":4095:4115   */\n  tag_30\n  jump\t// in\ntag_98:\n    /* \"#utility.yul\":4090:4115   */\n  swap2\n  pop\n    /* \"#utility.yul\":4129:4149   */\n  tag_99\n    /* \"#utility.yul\":4147:4148   */\n  dup4\n    /* \"#utility.yul\":4129:4149   */\n  tag_30\n  jump\t// in\ntag_99:\n    /* \"#utility.yul\":4124:4149   */\n  swap3\n  pop\n    /* \"#utility.yul\":4172:4173   */\n  dup3\n    /* \"#utility.yul\":4169:4170   */\n  dup3\n    /* \"#utility.yul\":4165:4174   */\n  add\n    /* \"#utility.yul\":4158:4174   */\n  swap1\n  pop\n    /* \"#utility.yul\":4193:4196   */\n  dup1\n    /* \"#utility.yul\":4190:4191   */\n  dup3\n    /* \"#utility.yul\":4187:4197   */\n  gt\n    /* \"#utility.yul\":4184:4220   */\n  iszero\n  tag_100\n  jumpi\n    /* \"#utility.yul\":4200:4218   */\n  tag_101\n  tag_31\n  jump\t// in\ntag_101:\n    /* \"#utility.yul\":4184:4220   */\ntag_100:\n    /* \"#utility.yul\":4036:4227   */\n  swap3\n  swap2\n  pop\n  pop\n  jump\t// out\n    /* \"#utility.yul\":4233:4332   */\ntag_32:\n    /* \"#utility.yul\":4285:4291   */\n  0x00\n    /* \"#utility.yul\":4319:4324   */\n  dup2\n    /* \"#utility.yul\":4313:4325   */\n  mload\n    /* \"#utility.yul\":4303:4325   */\n  swap1\n  pop\n    /* \"#utility.yul\":4233:4332   */\n  swap2\n  swap1\n  pop\n  jump\t// out\n    /* \"#utility.yul\":4338:4518   */\ntag_33:\n    /* \"#utility.yul\":4386:4463   */\n  0x4e487b7100000000000000000000000000000000000000000000000000000000\n    /* \"#utility.yul\":4383:4384   */\n  0x00\n    /* \"#utility.yul\":4376:4464   */\n  mstore\n    /* \"#utility.yul\":4483:4487   */\n  0x22\n    /* \"#utility.yul\":4480:4481   */\n  0x04\n    /* \"#utility.yul\":4473:4488   */\n  mstore\n    /* \"#utility.yul\":4507:4511   */\n  0x24\n    /* \"#utility.yul\":4504:4505   */\n  0x00\n    /* \"#utility.yul\":4497:4512   */\n  revert\n    /* \"#utility.yul\":4524:4844   */\ntag_34:\n    /* \"#utility.yul\":4568:4574   */\n  0x00\n    /* \"#utility.yul\":4605:4606   */\n  0x02\n    /* \"#utility.yul\":4599:4603   */\n  dup3\n    /* \"#utility.yul\":4595:4607   */\n  div\n    /* \"#utility.yul\":4585:4607   */\n  swap1\n  pop\n    /* \"#utility.yul\":4652:4653   */\n  0x01\n    /* \"#utility.yul\":4646:4650   */\n  dup3\n    /* \"#utility.yul\":4642:4654   */\n  and\n    /* \"#utility.yul\":4673:4691   */\n  dup1\n    /* \"#utility.yul\":4663:4744   */\n  tag_105\n  jumpi\n    /* \"#utility.yul\":4729:4733   */\n  0x7f\n    /* \"#utility.yul\":4721:4727   */\n  dup3\n    /* \"#utility.yul\":4717:4734   */\n  and\n    /* \"#utility.yul\":4707:4734   */\n  swap2\n  pop\n    /* \"#utility.yul\":4663:4744   */\ntag_105:\n    /* \"#utility.yul\":4791:4793   */\n  0x20\n    /* \"#utility.yul\":4783:4789   */\n  dup3\n    /* \"#utility.yul\":4780:4794   */\n  lt\n    /* \"#utility.yul\":4760:4778   */\n  dup2\n    /* \"#utility.yul\":4757:4795   */\n  sub\n    /* \"#utility.yul\":4754:4838   */\n  tag_106\n  jumpi\n    /* \"#utility.yul\":4810:4828   */\n  tag_107\n  tag_33\n  jump\t// in\ntag_107:\n    /* \"#utility.yul\":4754:4838   */\ntag_106:\n    /* \"#utility.yul\":4575:4844   */\n  pop\n    /* \"#utility.yul\":4524:4844   */\n  swap2\n  swap1\n  pop\n  jump\t// out\n    /* \"#utility.yul\":4850:4991   */\ntag_35:\n    /* \"#utility.yul\":4899:4903   */\n  0x00\n    /* \"#utility.yul\":4922:4925   */\n  dup2\n    /* \"#utility.yul\":4914:4925   */\n  swap1\n  pop\n    /* \"#utility.yul\":4945:4948   */\n  dup2\n    /* \"#utility.yul\":4942:4943   */\n  0x00\n    /* \"#utility.yul\":4935:4949   */\n  mstore\n    /* \"#utility.yul\":4979:4983   */\n  0x20\n    /* \"#utility.yul\":4976:4977   */\n  0x00\n    /* \"#utility.yul\":4966:4984   */\n  keccak256\n    /* \"#utility.yul\":4958:4984   */\n  swap1\n  pop\n    /* \"#utility.yul\":4850:4991   */\n  swap2\n  swap1\n  pop\n  jump\t// out\n    /* \"#utility.yul\":4997:5090   */\ntag_36:\n    /* \"#utility.yul\":5034:5040   */\n  0x00\n    /* \"#utility.yul\":5081:5083   */\n  0x20\n    /* \"#utility.yul\":5076:5078   */\n  0x1f\n    /* \"#utility.yul\":5069:5074   */\n  dup4\n    /* \"#utility.yul\":5065:5079   */\n  add\n    /* \"#utility.yul\":5061:5084   */\n  div\n    /* \"#utility.yul\":5051:5084   */\n  swap1\n  pop\n    /* \"#utility.yul\":4997:5090   */\n  swap2\n  swap1\n  pop\n  jump\t// out\n    /* \"#utility.yul\":5096:5203   */\ntag_37:\n    /* \"#utility.yul\":5140:5148   */\n  0x00\n    /* \"#utility.yul\":5190:5195   */\n  dup3\n    /* \"#utility.yul\":5184:5188   */\n  dup3\n    /* \"#utility.yul\":5180:5196   */\n  shl\n    /* \"#utility.yul\":5159:5196   */\n  swap1\n  pop\n    /* \"#utility.yul\":5096:5203   */\n  swap3\n  swap2\n  pop\n  pop\n  jump\t// out\n    /* \"#utility.yul\":5209:5602   */\ntag_38:\n    /* \"#utility.yul\":5278:5284   */\n  0x00\n    /* \"#utility.yul\":5328:5329   */\n  0x08\n    /* \"#utility.yul\":5316:5326   */\n  dup4\n    /* \"#utility.yul\":5312:5330   */\n  mul\n    /* \"#utility.yul\":5351:5448   */\n  tag_112\n    /* \"#utility.yul\":5381:5447   */\n  0xffffffffffffffffffffffffffffffffffffffffffffffffffffffffffffffff\n    /* \"#utility.yul\":5370:5379   */\n  dup3\n    /* \"#utility.yul\":5351:5448   */\n  tag_37\n  jump\t// in\ntag_112:\n    /* \"#utility.yul\":5469:5508   */\n  tag_113\n    /* \"#utility.yul\":5499:5507   */\n  dup7\n    /* \"#utility.yul\":5488:5497   */\n  dup4\n    /* \"#utility.yul\":5469:5508   */\n  tag_37\n  jump\t// in\ntag_113:\n    /* \"#utility.yul\":5457:5508   */\n  swap6\n  pop\n    /* \"#utility.yul\":5541:5545   */\n  dup1\n    /* \"#utility.yul\":5537:5546   */\n  not\n    /* \"#utility.yul\":5530:5535   */\n  dup5\n    /* \"#utility.yul\":5526:5547   */\n  and\n    /* \"#utility.yul\":5517:5547   */\n  swap4\n  pop\n    /* \"#utility.yul\":5590:5594   */\n  dup1\n    /* \"#utility.yul\":5580:5588   */\n  dup7\n    /* \"#utility.yul\":5576:5595   */\n  and\n    /* \"#utility.yul\":5569:5574   */\n  dup5\n    /* \"#utility.yul\":5566:5596   */\n  or\n    /* \"#utility.yul\":5556:5596   */\n  swap3\n  pop\n    /* \"#utility.yul\":5285:5602   */\n  pop\n  pop\n    /* \"#utility.yul\":5209:5602   */\n  swap4\n  swap3\n  pop\n  pop\n  pop\n  jump\t// out\n    /* \"#utility.yul\":5608:5668   */\ntag_39:\n    /* \"#utility.yul\":5636:5639   */\n  0x00\n    /* \"#utility.yul\":5657:5662   */\n  dup2\n    /* \"#utility.yul\":5650:5662   */\n  swap1\n  pop\n    /* \"#utility.yul\":5608:5668   */\n  swap2\n  swap1\n  pop\n  jump\t// out\n    /* \"#utility.yul\":5674:5816   */\ntag_40:\n    /* \"#utility.yul\":5724:5733   */\n  0x00\n    /* \"#utility.yul\":5757:5810   */\n  tag_116\n    /* \"#utility.yul\":5775:5809   */\n  tag_117\n    /* \"#utility.yul\":5784:5808   */\n  tag_118\n    /* \"#utility.yul\":5802:5807   */\n  dup5\n    /* \"#utility.yul\":5784:5808   */\n  tag_30\n  jump\t// in\ntag_118:\n    /* \"#utility.yul\":5775:5809   */\n  tag_39\n  jump\t// in\ntag_117:\n    /* \"#utility.yul\":5757:5810   */\n  tag_30\n  jump\t// in\ntag_116:\n    /* \"#utility.yul\":5744:5810   */\n  swap1\n  pop\n    /* \"#utility.yul\":5674:5816   */\n  swap2\n  swap1\n  pop\n  jump\t// out\n    /* \"#utility.yul\":5822:5897   */\ntag_41:\n    /* \"#utility.yul\":5865:5868   */\n  0x00\n    /* \"#utility.yul\":5886:5891   */\n  dup2\n    /* \"#utility.yul\":5879:5891   */\n  swap1\n  pop\n    /* \"#utility.yul\":5822:5897   */\n  swap2\n  swap1\n  pop\n  jump\t// out\n    /* \"#utility.yul\":5903:6172   */\ntag_42:\n    /* \"#utility.yul\":6013:6052   */\n  tag_121\n    /* \"#utility.yul\":6044:6051   */\n  dup4\n    /* \"#utility.yul\":6013:6052   */\n  tag_40\n  jump\t// in\ntag_121:\n    /* \"#utility.yul\":6074:6165   */\n  tag_122\n    /* \"#utility.yul\":6123:6164   */\n  tag_123\n    /* \"#utility.yul\":6147:6163   */\n  dup3\n    /* \"#utility.yul\":6123:6164   */\n  tag_41\n  jump\t// in\ntag_123:\n    /* \"#utility.yul\":6115:6121   */\n  dup5\n    /* \"#utility.yul\":6108:6112   */\n  dup5\n    /* \"#utility.yul\":6102:6113   */\n  sload\n    /* \"#utility.yul\":6074:6165   */\n  tag_38\n  jump\t// in\ntag_122:\n    /* \"#utility.yul\":6068:6072   */\n  dup3\n    /* \"#utility.yul\":6061:6166   */\n  sstore\n    /* \"#utility.yul\":5979:6172   */\n  pop\n    /* \"#utility.yul\":5903:6172   */\n  pop\n  pop\n  pop\n  jump\t// out\n    /* \"#utility.yul\":6178:6251   */\ntag_43:\n    /* \"#utility.yul\":6223:6226   */\n  0x00\n    /* \"#utility.yul\":6178:6251   */\n  swap1\n  jump\t// out\n    /* \"#utility.yul\":6257:6446   */\ntag_44:\n    /* \"#utility.yul\":6334:6366   */\n  tag_126\n  tag_43\n  jump\t// in\ntag_126:\n    /* \"#utility.yul\":6375:6440   */\n  tag_127\n    /* \"#utility.yul\":6433:6439   */\n  dup2\n    /* \"#utility.yul\":6425:6431   */\n  dup5\n    /* \"#utility.yul\":6419:6423   */\n  dup5\n    /* \"#utility.yul\":6375:6440   */\n  tag_42\n  jump\t// in\ntag_127:\n    /* \"#utility.yul\":6310:6446   */\n  pop\n    /* \"#utility.yul\":6257:6446   */\n  pop\n  pop\n  jump\t// out\n    /* \"#utility.yul\":6452:6638   */\ntag_45:\n    /* \"#utility.yul\":6512:6632   */\ntag_129:\n    /* \"#utility.yul\":6529:6532   */\n  dup2\n    /* \"#utility.yul\":6522:6527   */\n  dup2\n    /* \"#utility.yul\":6519:6533   */\n  lt\n    /* \"#utility.yul\":6512:6632   */\n  iszero\n  tag_131\n  jumpi\n    /* \"#utility.yul\":6583:6622   */\n  tag_132\n    /* \"#utility.yul\":6620:6621   */\n  0x00\n    /* \"#utility.yul\":6613:6618   */\n  dup3\n    /* \"#utility.yul\":6583:6622   */\n  tag_44\n  jump\t// in\ntag_132:\n    /* \"#utility.yul\":6556:6557   */\n  0x01\n    /* \"#utility.yul\":6549:6554   */\n  dup2\n    /* \"#utility.yul\":6545:6558   */\n  add\n    /* \"#utility.yul\":6536:6558   */\n  swap1\n  pop\n    /* \"#utility.yul\":6512:6632   */\n  jump(tag_129)\ntag_131:\n    /* \"#utility.yul\":6452:6638   */\n  pop\n  pop\n  jump\t// out\n    /* \"#utility.yul\":6644:7187   */\ntag_46:\n    /* \"#utility.yul\":6745:6747   */\n  0x1f\n    /* \"#utility.yul\":6740:6743   */\n  dup3\n    /* \"#utility.yul\":6737:6748   */\n  gt\n    /* \"#utility.yul\":6734:7180   */\n  iszero\n  tag_134\n  jumpi\n    /* \"#utility.yul\":6779:6817   */\n  tag_135\n    /* \"#utility.yul\":6811:6816   */\n  dup2\n    /* \"#utility.yul\":6779:6817   */\n  tag_35\n  jump\t// in\ntag_135:\n    /* \"#utility.yul\":6863:6892   */\n  tag_136\n    /* \"#utility.yul\":6881:6891   */\n  dup5\n    /* \"#utility.yul\":6863:6892   */\n  tag_36\n  jump\t// in\ntag_136:\n    /* \"#utility.yul\":6853:6861   */\n  dup2\n    /* \"#utility.yul\":6849:6893   */\n  add\n    /* \"#utility.yul\":7046:7048   */\n  0x20\n    /* \"#utility.yul\":7034:7044   */\n  dup6\n    /* \"#utility.yul\":7031:7049   */\n  lt\n    /* \"#utility.yul\":7028:7077   */\n  iszero\n  tag_137\n  jumpi\n    /* \"#utility.yul\":7067:7075   */\n  dup2\n    /* \"#utility.yul\":7052:7075   */\n  swap1\n  pop\n    /* \"#utility.yul\":7028:7077   */\ntag_137:\n    /* \"#utility.yul\":7090:7170   */\n  tag_138\n    /* \"#utility.yul\":7146:7168   */\n  tag_139\n    /* \"#utility.yul\":7164:7167   */\n  dup6\n    /* \"#utility.yul\":7146:7168   */\n  tag_36\n  jump\t// in\ntag_139:\n    /* \"#utility.yul\":7136:7144   */\n  dup4\n    /* \"#utility.yul\":7132:7169   */\n  add\n    /* \"#utility.yul\":7119:7130   */\n  dup3\n    /* \"#utility.yul\":7090:7170   */\n  tag_45\n  jump\t// in\ntag_138:\n    /* \"#utility.yul\":6749:7180   */\n  pop\n  pop\n    /* \"#utility.yul\":6734:7180   */\ntag_134:\n    /* \"#utility.yul\":6644:7187   */\n  pop\n  pop\n  pop\n  jump\t// out\n    /* \"#utility.yul\":7193:7310   */\ntag_47:\n    /* \"#utility.yul\":7247:7255   */\n  0x00\n    /* \"#utility.yul\":7297:7302   */\n  dup3\n    /* \"#utility.yul\":7291:7295   */\n  dup3\n    /* \"#utility.yul\":7287:7303   */\n  shr\n    /* \"#utility.yul\":7266:7303   */\n  swap1\n  pop\n    /* \"#utility.yul\":7193:7310   */\n  swap3\n  swap2\n  pop\n  pop\n  jump\t// out\n    /* \"#utility.yul\":7316:7485   */\ntag_48:\n    /* \"#utility.yul\":7360:7366   */\n  0x00\n    /* \"#utility.yul\":7393:7444   */\n  tag_142\n    /* \"#utility.yul\":7441:7442   */\n  0x00\n    /* \"#utility.yul\":7437:7443   */\n  not\n    /* \"#utility.yul\":7429:7434   */\n  dup5\n    /* \"#utility.yul\":7426:7427   */\n  0x08\n    /* \"#utility.yul\":7422:7435   */\n  mul\n    /* \"#utility.yul\":7393:7444   */\n  tag_47\n  jump\t// in\ntag_142:\n    /* \"#utility.yul\":7389:7445   */\n  not\n    /* \"#utility.yul\":7474:7478   */\n  dup1\n    /* \"#utility.yul\":7468:7472   */\n  dup4\n    /* \"#utility.yul\":7464:7479   */\n  and\n    /* \"#utility.yul\":7454:7479   */\n  swap2\n  pop\n    /* \"#utility.yul\":7367:7485   */\n  pop\n    /* \"#utility.yul\":7316:7485   */\n  swap3\n  swap2\n  pop\n  pop\n  jump\t// out\n    /* \"#utility.yul\":7490:7785   */\ntag_49:\n    /* \"#utility.yul\":7566:7570   */\n  0x00\n    /* \"#utility.yul\":7712:7741   */\n  tag_144\n    /* \"#utility.yul\":7737:7740   */\n  dup4\n    /* \"#utility.yul\":7731:7735   */\n  dup4\n    /* \"#utility.yul\":7712:7741   */\n  tag_48\n  jump\t// in\ntag_144:\n    /* \"#utility.yul\":7704:7741   */\n  swap2\n  pop\n    /* \"#utility.yul\":7774:7777   */\n  dup3\n    /* \"#utility.yul\":7771:7772   */\n  0x02\n    /* \"#utility.yul\":7767:7778   */\n  mul\n    /* \"#utility.yul\":7761:7765   */\n  dup3\n    /* \"#utility.yul\":7758:7779   */\n  or\n    /* \"#utility.yul\":7750:7779   */\n  swap1\n  pop\n    /* \"#utility.yul\":7490:7785   */\n  swap3\n  swap2\n  pop\n  pop\n  jump\t// out\n    /* \"#utility.yul\":7790:9185   */\ntag_11:\n    /* \"#utility.yul\":7907:7944   */\n  tag_146\n    /* \"#utility.yul\":7940:7943   */\n  dup3\n    /* \"#utility.yul\":7907:7944   */\n  tag_32\n  jump\t// in\ntag_146:\n    /* \"#utility.yul\":8009:8027   */\n  0xffffffffffffffff\n    /* \"#utility.yul\":8001:8007   */\n  dup2\n    /* \"#utility.yul\":7998:8028   */\n  gt\n    /* \"#utility.yul\":7995:8051   */\n  iszero\n  tag_147\n  jumpi\n    /* \"#utility.yul\":8031:8049   */\n  tag_148\n  tag_23\n  jump\t// in\ntag_148:\n    /* \"#utility.yul\":7995:8051   */\ntag_147:\n    /* \"#utility.yul\":8075:8113   */\n  tag_149\n    /* \"#utility.yul\":8107:8111   */\n  dup3\n    /* \"#utility.yul\":8101:8112   */\n  sload\n    /* \"#utility.yul\":8075:8113   */\n  tag_34\n  jump\t// in\ntag_149:\n    /* \"#utility.yul\":8160:8227   */\n  tag_150\n    /* \"#utility.yul\":8220:8226   */\n  dup3\n    /* \"#utility.yul\":8212:8218   */\n  dup3\n    /* \"#utility.yul\":8206:8210   */\n  dup6\n    /* \"#utility.yul\":8160:8227   */\n  tag_46\n  jump\t// in\ntag_150:\n    /* \"#utility.yul\":8254:8255   */\n  0x00\n    /* \"#utility.yul\":8278:8282   */\n  0x20\n    /* \"#utility.yul\":8265:8282   */\n  swap1\n  pop\n    /* \"#utility.yul\":8310:8312   */\n  0x1f\n    /* \"#utility.yul\":8302:8308   */\n  dup4\n    /* \"#utility.yul\":8299:8313   */\n  gt\n    /* \"#utility.yul\":8327:8328   */\n  0x01\n    /* \"#utility.yul\":8322:8940   */\n  dup2\n  eq\n  tag_152\n  jumpi\n    /* \"#utility.yul\":8984:8985   */\n  0x00\n    /* \"#utility.yul\":9001:9007   */\n  dup5\n    /* \"#utility.yul\":8998:9075   */\n  iszero\n  tag_153\n  jumpi\n    /* \"#utility.yul\":9050:9059   */\n  dup3\n    /* \"#utility.yul\":9045:9048   */\n  dup8\n    /* \"#utility.yul\":9041:9060   */\n  add\n    /* \"#utility.yul\":9035:9061   */\n  mload\n    /* \"#utility.yul\":9026:9061   */\n  swap1\n  pop\n    /* \"#utility.yul\":8998:9075   */\ntag_153:\n    /* \"#utility.yul\":9101:9168   */\n  tag_154\n    /* \"#utility.yul\":9161:9167   */\n  dup6\n    /* \"#utility.yul\":9154:9159   */\n  dup3\n    /* \"#utility.yul\":9101:9168   */\n  tag_49\n  jump\t// in\ntag_154:\n    /* \"#utility.yul\":9095:9099   */\n  dup7\n    /* \"#utility.yul\":9088:9169   */\n  sstore\n    /* \"#utility.yul\":8957:9179   */\n  pop\n    /* \"#utility.yul\":8292:9179   */\n  jump(tag_151)\n    /* \"#utility.yul\":8322:8940   */\ntag_152:\n    /* \"#utility.yul\":8374:8378   */\n  0x1f\n    /* \"#utility.yul\":8370:8379   */\n  not\n    /* \"#utility.yul\":8362:8368   */\n  dup5\n    /* \"#utility.yul\":8358:8380   */\n  and\n    /* \"#utility.yul\":8408:8445   */\n  tag_155\n    /* \"#utility.yul\":8440:8444   */\n  dup7\n    /* \"#utility.yul\":8408:8445   */\n  tag_35\n  jump\t// in\ntag_155:\n    /* \"#utility.yul\":8467:8468   */\n  0x00\n    /* \"#utility.yul\":8481:8689   */\ntag_156:\n    /* \"#utility.yul\":8495:8502   */\n  dup3\n    /* \"#utility.yul\":8492:8493   */\n  dup2\n    /* \"#utility.yul\":8489:8503   */\n  lt\n    /* \"#utility.yul\":8481:8689   */\n  iszero\n  tag_158\n  jumpi\n    /* \"#utility.yul\":8574:8583   */\n  dup5\n    /* \"#utility.yul\":8569:8572   */\n  dup10\n    /* \"#utility.yul\":8565:8584   */\n  add\n    /* \"#utility.yul\":8559:8585   */\n  mload\n    /* \"#utility.yul\":8551:8557   */\n  dup3\n    /* \"#utility.yul\":8544:8586   */\n  sstore\n    /* \"#utility.yul\":8625:8626   */\n  0x01\n    /* \"#utility.yul\":8617:8623   */\n  dup3\n    /* \"#utility.yul\":8613:8627   */\n  add\n    /* \"#utility.yul\":8603:8627   */\n  swap2\n  pop\n    /* \"#utility.yul\":8672:8674   */\n  0x20\n    /* \"#utility.yul\":8661:8670   */\n  dup6\n    /* \"#utility.yul\":8657:8675   */\n  add\n    /* \"#utility.yul\":8644:8675   */\n  swap5\n  pop\n    /* \"#utility.yul\":8518:8522   */\n  0x20\n    /* \"#utility.yul\":8515:8516   */\n  dup2\n    /* \"#utility.yul\":8511:8523   */\n  add\n    /* \"#utility.yul\":8506:8523   */\n  swap1\n  pop\n    /* \"#utility.yul\":8481:8689   */\n  jump(tag_156)\ntag_158:\n    /* \"#utility.yul\":8717:8723   */\n  dup7\n    /* \"#utility.yul\":8708:8715   */\n  dup4\n    /* \"#utility.yul\":8705:8724   */\n  lt\n    /* \"#utility.yul\":8702:8881   */\n  iszero\n  tag_159\n  jumpi\n    /* \"#utility.yul\":8775:8784   */\n  dup5\n    /* \"#utility.yul\":8770:8773   */\n  dup10\n    /* \"#utility.yul\":8766:8785   */\n  add\n    /* \"#utility.yul\":8760:8786   */\n  mload\n    /* \"#utility.yul\":8818:8866   */\n  tag_160\n    /* \"#utility.yul\":8860:8864   */\n  0x1f\n    /* \"#utility.yul\":8852:8858   */\n  dup10\n    /* \"#utility.yul\":8848:8865   */\n  and\n    /* \"#utility.yul\":8837:8846   */\n  dup3\n    /* \"#utility.yul\":8818:8866   */\n  tag_48\n  jump\t// in\ntag_160:\n    /* \"#utility.yul\":8810:8816   */\n  dup4\n    /* \"#utility.yul\":8803:8867   */\n  sstore\n    /* \"#utility.yul\":8725:8881   */\n  pop\n    /* \"#utility.yul\":8702:8881   */\ntag_159:\n    /* \"#utility.yul\":8927:8928   */\n  0x01\n    /* \"#utility.yul\":8923:8924   */\n  0x02\n    /* \"#utility.yul\":8915:8921   */\n  dup9\n    /* \"#utility.yul\":8911:8925   */\n  mul\n    /* \"#utility.yul\":8907:8929   */\n  add\n    /* \"#utility.yul\":8901:8905   */\n  dup9\n    /* \"#utility.yul\":8894:8930   */\n  sstore\n    /* \"#utility.yul\":8329:8940   */\n  pop\n  pop\n  pop\n    /* \"#utility.yul\":8292:9179   */\ntag_151:\n  pop\n    /* \"#utility.yul\":7882:9185   */\n  pop\n  pop\n  pop\n    /* \"#utility.yul\":7790:9185   */\n  pop\n  pop\n  jump\t// out\n    /* \"SmartConstitution.sol\":934:2822  contract SmartConstitution {... */\ntag_12:\n  mload(0x80)\n  codecopy(0x00, dataOffset(sub_0), dataSize(sub_0))\n  0x00\n  assignImmutable(\"0xe921da22f871c25c63f06c1365385cbb26397f64f79055cdbab32187a9377d16\")\n  return(0x00, dataSize(sub_0))\nstop\n\nsub_0: assembly {\n        /* \"SmartConstitution.sol\":934:2822  contract SmartConstitution {... */\n      mstore(0x40, 0x80)\n      callvalue\n      dup1\n      iszero\n      tag_1\n      jumpi\n      0x00\n      dup1\n      revert\n    tag_1:\n      pop\n      jumpi(tag_2, lt(calldatasize, 0x04))\n      shr(0xe0, calldataload(0x00))\n      dup1\n      0xb0feb260\n      gt\n      tag_14\n      jumpi\n      dup1\n      0xb0feb260\n      eq\n      tag_8\n      jumpi\n      dup1\n      0xb13c744b\n      eq\n      tag_9\n      jumpi\n      dup1\n      0xce7ea161\n      eq\n      tag_10\n      jumpi\n      dup1\n      0xe292bf16\n      eq\n      tag_11\n      jumpi\n      dup1\n      0xe965b7c9\n      eq\n      tag_12\n      jumpi\n      dup1\n      0xf10fb584\n      eq\n      tag_13\n      jumpi\n      jump(tag_2)\n    tag_14:\n      dup1\n      0x28bdcde8\n      eq\n      tag_3\n      jumpi\n      dup1\n      0x3def77b7\n      eq\n      tag_4\n      jumpi\n      dup1\n      0x47f7b722\n      eq\n      tag_5\n      jumpi\n      dup1\n      0x78e97925\n      eq\n      tag_6\n      jumpi\n      dup1\n      0xa3a40ea5\n      eq\n      tag_7\n      jumpi\n    tag_2:\n      0x00\n      dup1\n      revert\n        /* \"SmartConstitution.sol\":1383:1402  Bill[] public bills */\n    tag_3:\n      tag_15\n      0x04\n      dup1\n      calldatasize\n      sub\n      dup2\n      add\n      swap1\n      tag_16\n      swap2\n      swap1\n      tag_17\n      jump\t// in\n    tag_16:\n      tag_18\n      jump\t// in\n    tag_15:\n      mload(0x40)\n      tag_19\n      swap7\n      swap6\n      swap5\n      swap4\n      swap3\n      swap2\n      swap1\n      tag_20\n      jump\t// in\n    tag_19:\n      mload(0x40)\n      dup1\n      swap2\n      sub\n      swap1\n      return\n        /* \"SmartConstitution.sol\":967:1010  uint32 public constant RANDOM_VOTERS = 1000 */\n    tag_4:\n      tag_21\n      tag_22\n      jump\t// in\n    tag_21:\n      mload(0x40)\n      tag_23\n      swap2\n      swap1\n      tag_24\n      jump\t// in\n    tag_23:\n      mload(0x40)\n      dup1\n      swap2\n      sub\n      swap1\n      return\n        /* \"SmartConstitution.sol\":1055:1097  uint256 public constant REG_TIME = 2 weeks */\n    tag_5:\n      tag_25\n      tag_26\n      jump\t// in\n    tag_25:\n      mload(0x40)\n      tag_27\n      swap2\n      swap1\n      tag_28\n      jump\t// in\n    tag_27:\n      mload(0x40)\n      dup1\n      swap2\n      sub\n      swap1\n      return\n        /* \"SmartConstitution.sol\":1145:1179  uint256 public immutable startTime */\n    tag_6:\n      tag_29\n      tag_30\n      jump\t// in\n    tag_29:\n      mload(0x40)\n      tag_31\n      swap2\n      swap1\n      tag_28\n      jump\t// in\n    tag_31:\n      mload(0x40)\n      dup1\n      swap2\n      sub\n      swap1\n      return\n        /* \"SmartConstitution.sol\":2006:2820  function getCurrentPhase() public returns (Phase) {... */\n    tag_7:\n      tag_32\n      tag_33\n      jump\t// in\n    tag_32:\n      mload(0x40)\n      tag_34\n      swap2\n      swap1\n      tag_35\n      jump\t// in\n    tag_34:\n      mload(0x40)\n      dup1\n      swap2\n      sub\n      swap1\n      return\n        /* \"SmartConstitution.sol\":1454:1486  uint256 public referendumEndTime */\n    tag_8:\n      tag_36\n      tag_37\n      jump\t// in\n    tag_36:\n      mload(0x40)\n      tag_38\n      swap2\n      swap1\n      tag_28\n      jump\t// in\n    tag_38:\n      mload(0x40)\n      dup1\n      swap2\n      sub\n      swap1\n      return\n        /* \"SmartConstitution.sol\":1347:1377  address[] public candidateList */\n    tag_9:\n      tag_39\n      0x04\n      dup1\n      calldatasize\n      sub\n      dup2\n      add\n      swap1\n      tag_40\n      swap2\n      swap1\n      tag_17\n      jump\t// in\n    tag_40:\n      tag_41\n      jump\t// in\n    tag_39:\n      mload(0x40)\n      tag_42\n      swap2\n      swap1\n      tag_43\n      jump\t// in\n    tag_42:\n      mload(0x40)\n      dup1\n      swap2\n      sub\n      swap1\n      return\n        /* \"SmartConstitution.sol\":1185:1211  uint256 public electionEnd */\n    tag_10:\n      tag_44\n      tag_45\n      jump\t// in\n    tag_44:\n      mload(0x40)\n      tag_46\n      swap2\n      swap1\n      tag_28\n      jump\t// in\n    tag_46:\n      mload(0x40)\n      dup1\n      swap2\n      sub\n      swap1\n      return\n        /* \"SmartConstitution.sol\":1103:1139  uint8 public constant N_MEMBERS = 50 */\n    tag_11:\n      tag_47\n      tag_48\n      jump\t// in\n    tag_47:\n      mload(0x40)\n      tag_49\n      swap2\n      swap1\n      tag_50\n      jump\t// in\n    tag_49:\n      mload(0x40)\n      dup1\n      swap2\n      sub\n      swap1\n      return\n        /* \"SmartConstitution.sol\":1493:1543  mapping(address => Candidate) public candidateInfo */\n    tag_12:\n      tag_51\n      0x04\n      dup1\n      calldatasize\n      sub\n      dup2\n      add\n      swap1\n      tag_52\n      swap2\n      swap1\n      tag_53\n      jump\t// in\n    tag_52:\n      tag_54\n      jump\t// in\n    tag_51:\n      mload(0x40)\n      tag_55\n      swap8\n      swap7\n      swap6\n      swap5\n      swap4\n      swap3\n      swap2\n      swap1\n      tag_56\n      jump\t// in\n    tag_55:\n      mload(0x40)\n      dup1\n      swap2\n      sub\n      swap1\n      return\n        /* \"SmartConstitution.sol\":1217:1242  address public randomizer */\n    tag_13:\n      tag_57\n      tag_58\n      jump\t// in\n    tag_57:\n      mload(0x40)\n      tag_59\n      swap2\n      swap1\n      tag_43\n      jump\t// in\n    tag_59:\n      mload(0x40)\n      dup1\n      swap2\n      sub\n      swap1\n      return\n        /* \"SmartConstitution.sol\":1383:1402  Bill[] public bills */\n    tag_18:\n      0x03\n      dup2\n      dup2\n      sload\n      dup2\n      lt\n      tag_60\n      jumpi\n      0x00\n      dup1\n      revert\n    tag_60:\n      swap1\n      0x00\n      mstore\n      keccak256(0x00, 0x20)\n      swap1\n      0x07\n      mul\n      add\n      0x00\n      swap2\n      pop\n      swap1\n      pop\n      dup1\n      0x00\n      add\n      0x00\n      swap1\n      sload\n      swap1\n      0x0100\n      exp\n      swap1\n      div\n      0xffffffffffffffffffffffffffffffffffffffff\n      and\n      swap1\n      dup1\n      0x01\n      add\n      dup1\n      sload\n      tag_62\n      swap1\n      tag_63\n      jump\t// in\n    tag_62:\n      dup1\n      0x1f\n      add\n      0x20\n      dup1\n      swap2\n      div\n      mul\n      0x20\n      add\n      mload(0x40)\n      swap1\n      dup2\n      add\n      0x40\n      mstore\n      dup1\n      swap3\n      swap2\n      swap1\n      dup2\n      dup2\n      mstore\n      0x20\n      add\n      dup3\n      dup1\n      sload\n      tag_64\n      swap1\n      tag_63\n      jump\t// in\n    tag_64:\n      dup1\n      iszero\n      tag_65\n      jumpi\n      dup1\n      0x1f\n      lt\n      tag_66\n      jumpi\n      0x0100\n      dup1\n      dup4\n      sload\n      div\n      mul\n      dup4\n      mstore\n      swap2\n      0x20\n      add\n      swap2\n      jump(tag_65)\n    tag_66:\n      dup3\n      add\n      swap2\n      swap1\n      0x00\n      mstore\n      keccak256(0x00, 0x20)\n      swap1\n    tag_67:\n      dup2\n      sload\n      dup2\n      mstore\n      swap1\n      0x01\n      add\n      swap1\n      0x20\n      add\n      dup1\n      dup4\n      gt\n      tag_67\n      jumpi\n      dup3\n      swap1\n      sub\n      0x1f\n      and\n      dup3\n      add\n      swap2\n    tag_65:\n      pop\n      pop\n      pop\n      pop\n      pop\n      swap1\n      dup1\n      0x02\n      add\n      sload\n      swap1\n      dup1\n      0x03\n      add\n      sload\n      swap1\n      dup1\n      0x04\n      add\n      sload\n      swap1\n      dup1\n      0x05\n      add\n      0x00\n      swap1\n      sload\n      swap1\n      0x0100\n      exp\n      swap1\n      div\n      0xff\n      and\n      swap1\n      pop\n      dup7\n      jump\t// out\n        /* \"SmartConstitution.sol\":967:1010  uint32 public constant RANDOM_VOTERS = 1000 */\n    tag_22:\n        /* \"SmartConstitution.sol\":1006:1010  1000 */\n      0x03e8\n        /* \"SmartConstitution.sol\":967:1010  uint32 public constant RANDOM_VOTERS = 1000 */\n      dup2\n      jump\t// out\n        /* \"SmartConstitution.sol\":1055:1097  uint256 public constant REG_TIME = 2 weeks */\n    tag_26:\n        /* \"SmartConstitution.sol\":1090:1097  2 weeks */\n      0x127500\n        /* \"SmartConstitution.sol\":1055:1097  uint256 public constant REG_TIME = 2 weeks */\n      dup2\n      jump\t// out\n        /* \"SmartConstitution.sol\":1145:1179  uint256 public immutable startTime */\n    tag_30:\n      immutable(\"0xe921da22f871c25c63f06c1365385cbb26397f64f79055cdbab32187a9377d16\")\n      dup2\n      jump\t// out\n        /* \"SmartConstitution.sol\":2006:2820  function getCurrentPhase() public returns (Phase) {... */\n    tag_33:\n        /* \"SmartConstitution.sol\":2049:2054  Phase */\n      0x00\n        /* \"SmartConstitution.sol\":2102:2108  1 days */\n      0x015180\n        /* \"SmartConstitution.sol\":2088:2099  electionEnd */\n      sload(0x00)\n        /* \"SmartConstitution.sol\":2088:2108  electionEnd - 1 days */\n      tag_69\n      swap2\n      swap1\n      tag_70\n      jump\t// in\n    tag_69:\n        /* \"SmartConstitution.sol\":2070:2085  block.timestamp */\n      timestamp\n        /* \"SmartConstitution.sol\":2070:2108  block.timestamp < electionEnd - 1 days */\n      lt\n        /* \"SmartConstitution.sol\":2066:2776  if (block.timestamp < electionEnd - 1 days) return Phase.Registration;... */\n      iszero\n      tag_71\n      jumpi\n        /* \"SmartConstitution.sol\":2117:2135  Phase.Registration */\n      0x00\n        /* \"SmartConstitution.sol\":2110:2135  return Phase.Registration */\n      swap1\n      pop\n      jump(tag_68)\n        /* \"SmartConstitution.sol\":2066:2776  if (block.timestamp < electionEnd - 1 days) return Phase.Registration;... */\n    tag_71:\n        /* \"SmartConstitution.sol\":2172:2183  electionEnd */\n      sload(0x00)\n        /* \"SmartConstitution.sol\":2154:2169  block.timestamp */\n      timestamp\n        /* \"SmartConstitution.sol\":2154:2183  block.timestamp < electionEnd */\n      lt\n        /* \"SmartConstitution.sol\":2150:2776  if (block.timestamp < electionEnd)... */\n      iszero\n      tag_73\n      jumpi\n        /* \"SmartConstitution.sol\":1137:1139  50 */\n      0x32\n        /* \"SmartConstitution.sol\":2241:2242  2 */\n      0x02\n        /* \"SmartConstitution.sol\":2241:2254  2 * N_MEMBERS */\n      tag_74\n      swap2\n      swap1\n      tag_75\n      jump\t// in\n    tag_74:\n        /* \"SmartConstitution.sol\":2218:2254  candidateList.length < 2 * N_MEMBERS */\n      0xff\n      and\n        /* \"SmartConstitution.sol\":2218:2231  candidateList */\n      0x02\n        /* \"SmartConstitution.sol\":2218:2238  candidateList.length */\n      dup1\n      sload\n      swap1\n      pop\n        /* \"SmartConstitution.sol\":2218:2254  candidateList.length < 2 * N_MEMBERS */\n      lt\n        /* \"SmartConstitution.sol\":2218:2305  candidateList.length < 2 * N_MEMBERS ||... */\n      dup1\n      tag_76\n      jumpi\n      pop\n        /* \"SmartConstitution.sol\":1006:1010  1000 */\n      0x03e8\n        /* \"SmartConstitution.sol\":2274:2305  addedVoterCount < RANDOM_VOTERS */\n      0xffffffff\n      and\n        /* \"SmartConstitution.sol\":2274:2289  addedVoterCount */\n      0x01\n      0x14\n      swap1\n      sload\n      swap1\n      0x0100\n      exp\n      swap1\n      div\n      0xffffffff\n      and\n        /* \"SmartConstitution.sol\":2274:2305  addedVoterCount < RANDOM_VOTERS */\n      0xffffffff\n      and\n      lt\n        /* \"SmartConstitution.sol\":2218:2305  candidateList.length < 2 * N_MEMBERS ||... */\n    tag_76:\n        /* \"SmartConstitution.sol\":2197:2565  if (... */\n      iszero\n      tag_77\n      jumpi\n        /* \"SmartConstitution.sol\":1090:1097  2 weeks */\n      0x127500\n        /* \"SmartConstitution.sol\":2458:2469  electionEnd */\n      sload(0x00)\n        /* \"SmartConstitution.sol\":2458:2480  electionEnd + REG_TIME */\n      tag_78\n      swap2\n      swap1\n      tag_79\n      jump\t// in\n    tag_78:\n        /* \"SmartConstitution.sol\":2444:2455  electionEnd */\n      0x00\n        /* \"SmartConstitution.sol\":2444:2480  electionEnd = electionEnd + REG_TIME */\n      dup2\n      swap1\n      sstore\n      pop\n        /* \"SmartConstitution.sol\":2505:2523  Phase.Registration */\n      0x00\n        /* \"SmartConstitution.sol\":2498:2523  return Phase.Registration */\n      swap1\n      pop\n      jump(tag_68)\n        /* \"SmartConstitution.sol\":2197:2565  if (... */\n    tag_77:\n        /* \"SmartConstitution.sol\":2551:2565  Phase.Election */\n      0x01\n        /* \"SmartConstitution.sol\":2544:2565  return Phase.Election */\n      swap1\n      pop\n      jump(tag_68)\n        /* \"SmartConstitution.sol\":2150:2776  if (block.timestamp < electionEnd)... */\n    tag_73:\n        /* \"SmartConstitution.sol\":2605:2606  0 */\n      0x00\n        /* \"SmartConstitution.sol\":2584:2601  referendumEndTime */\n      sload(0x04)\n        /* \"SmartConstitution.sol\":2584:2606  referendumEndTime == 0 */\n      sub\n        /* \"SmartConstitution.sol\":2580:2776  if (referendumEndTime == 0) return Phase.Governance;... */\n      tag_82\n      jumpi\n        /* \"SmartConstitution.sol\":2615:2631  Phase.Governance */\n      0x02\n        /* \"SmartConstitution.sol\":2608:2631  return Phase.Governance */\n      swap1\n      pop\n      jump(tag_68)\n        /* \"SmartConstitution.sol\":2580:2776  if (referendumEndTime == 0) return Phase.Governance;... */\n    tag_82:\n        /* \"SmartConstitution.sol\":2694:2711  referendumEndTime */\n      sload(0x04)\n        /* \"SmartConstitution.sol\":2676:2691  block.timestamp */\n      timestamp\n        /* \"SmartConstitution.sol\":2676:2711  block.timestamp < referendumEndTime */\n      lt\n        /* \"SmartConstitution.sol\":2672:2776  if (block.timestamp < referendumEndTime) return Phase.Referendum;... */\n      iszero\n      tag_84\n      jumpi\n        /* \"SmartConstitution.sol\":2720:2736  Phase.Referendum */\n      0x03\n        /* \"SmartConstitution.sol\":2713:2736  return Phase.Referendum */\n      swap1\n      pop\n      jump(tag_68)\n        /* \"SmartConstitution.sol\":2672:2776  if (block.timestamp < referendumEndTime) return Phase.Referendum;... */\n    tag_84:\n        /* \"SmartConstitution.sol\":2758:2776  Phase.Ratification */\n      0x04\n        /* \"SmartConstitution.sol\":2751:2776  return Phase.Ratification */\n      swap1\n      pop\n        /* \"SmartConstitution.sol\":2006:2820  function getCurrentPhase() public returns (Phase) {... */\n    tag_68:\n      swap1\n      jump\t// out\n        /* \"SmartConstitution.sol\":1454:1486  uint256 public referendumEndTime */\n    tag_37:\n      sload(0x04)\n      dup2\n      jump\t// out\n        /* \"SmartConstitution.sol\":1347:1377  address[] public candidateList */\n    tag_41:\n      0x02\n      dup2\n      dup2\n      sload\n      dup2\n      lt\n      tag_86\n      jumpi\n      0x00\n      dup1\n      revert\n    tag_86:\n      swap1\n      0x00\n      mstore\n      keccak256(0x00, 0x20)\n      add\n      0x00\n      swap2\n      pop\n      sload\n      swap1\n      0x0100\n      exp\n      swap1\n      div\n      0xffffffffffffffffffffffffffffffffffffffff\n      and\n      dup2\n      jump\t// out\n        /* \"SmartConstitution.sol\":1185:1211  uint256 public electionEnd */\n    tag_45:\n      sload(0x00)\n      dup2\n      jump\t// out\n        /* \"SmartConstitution.sol\":1103:1139  uint8 public constant N_MEMBERS = 50 */\n    tag_48:\n        /* \"SmartConstitution.sol\":1137:1139  50 */\n      0x32\n        /* \"SmartConstitution.sol\":1103:1139  uint8 public constant N_MEMBERS = 50 */\n      dup2\n      jump\t// out\n        /* \"SmartConstitution.sol\":1493:1543  mapping(address => Candidate) public candidateInfo */\n    tag_54:\n      mstore(0x20, 0x05)\n      dup1\n      0x00\n      mstore\n      keccak256(0x00, 0x40)\n      0x00\n      swap2\n      pop\n      swap1\n      pop\n      dup1\n      0x00\n      add\n      dup1\n      sload\n      tag_88\n      swap1\n      tag_63\n      jump\t// in\n    tag_88:\n      dup1\n      0x1f\n      add\n      0x20\n      dup1\n      swap2\n      div\n      mul\n      0x20\n      add\n      mload(0x40)\n      swap1\n      dup2\n      add\n      0x40\n      mstore\n      dup1\n      swap3\n      swap2\n      swap1\n      dup2\n      dup2\n      mstore\n      0x20\n      add\n      dup3\n      dup1\n      sload\n      tag_89\n      swap1\n      tag_63\n      jump\t// in\n    tag_89:\n      dup1\n      iszero\n      tag_90\n      jumpi\n      dup1\n      0x1f\n      lt\n      tag_91\n      jumpi\n      0x0100\n      dup1\n      dup4\n      sload\n      div\n      mul\n      dup4\n      mstore\n      swap2\n      0x20\n      add\n      swap2\n      jump(tag_90)\n    tag_91:\n      dup3\n      add\n      swap2\n      swap1\n      0x00\n      mstore\n      keccak256(0x00, 0x20)\n      swap1\n    tag_92:\n      dup2\n      sload\n      dup2\n      mstore\n      swap1\n      0x01\n      add\n      swap1\n      0x20\n      add\n      dup1\n      dup4\n      gt\n      tag_92\n      jumpi\n      dup3\n      swap1\n      sub\n      0x1f\n      and\n      dup3\n      add\n      swap2\n    tag_90:\n      pop\n      pop\n      pop\n      pop\n      pop\n      swap1\n      dup1\n      0x01\n      add\n      dup1\n      sload\n      tag_93\n      swap1\n      tag_63\n      jump\t// in\n    tag_93:\n      dup1\n      0x1f\n      add\n      0x20\n      dup1\n      swap2\n      div\n      mul\n      0x20\n      add\n      mload(0x40)\n      swap1\n      dup2\n      add\n      0x40\n      mstore\n      dup1\n      swap3\n      swap2\n      swap1\n      dup2\n      dup2\n      mstore\n      0x20\n      add\n      dup3\n      dup1\n      sload\n      tag_94\n      swap1\n      tag_63\n      jump\t// in\n    tag_94:\n      dup1\n      iszero\n      tag_95\n      jumpi\n      dup1\n      0x1f\n      lt\n      tag_96\n      jumpi\n      0x0100\n      dup1\n      dup4\n      sload\n      div\n      mul\n      dup4\n      mstore\n      swap2\n      0x20\n      add\n      swap2\n      jump(tag_95)\n    tag_96:\n      dup3\n      add\n      swap2\n      swap1\n      0x00\n      mstore\n      keccak256(0x00, 0x20)\n      swap1\n    tag_97:\n      dup2\n      sload\n      dup2\n      mstore\n      swap1\n      0x01\n      add\n      swap1\n      0x20\n      add\n      dup1\n      dup4\n      gt\n      tag_97\n      jumpi\n      dup3\n      swap1\n      sub\n      0x1f\n      and\n      dup3\n      add\n      swap2\n    tag_95:\n      pop\n      pop\n      pop\n      pop\n      pop\n      swap1\n      dup1\n      0x02\n      add\n      dup1\n      sload\n      tag_98\n      swap1\n      tag_63\n      jump\t// in\n    tag_98:\n      dup1\n      0x1f\n      add\n      0x20\n      dup1\n      swap2\n      div\n      mul\n      0x20\n      add\n      mload(0x40)\n      swap1\n      dup2\n      add\n      0x40\n      mstore\n      dup1\n      swap3\n      swap2\n      swap1\n      dup2\n      dup2\n      mstore\n      0x20\n      add\n      dup3\n      dup1\n      sload\n      tag_99\n      swap1\n      tag_63\n      jump\t// in\n    tag_99:\n      dup1\n      iszero\n      tag_100\n      jumpi\n      dup1\n      0x1f\n      lt\n      tag_101\n      jumpi\n      0x0100\n      dup1\n      dup4\n      sload\n      div\n      mul\n      dup4\n      mstore\n      swap2\n      0x20\n      add\n      swap2\n      jump(tag_100)\n    tag_101:\n      dup3\n      add\n      swap2\n      swap1\n      0x00\n      mstore\n      keccak256(0x00, 0x20)\n      swap1\n    tag_102:\n      dup2\n      sload\n      dup2\n      mstore\n      swap1\n      0x01\n      add\n      swap1\n      0x20\n      add\n      dup1\n      dup4\n      gt\n      tag_102\n      jumpi\n      dup3\n      swap1\n      sub\n      0x1f\n      and\n      dup3\n      add\n      swap2\n    tag_100:\n      pop\n      pop\n      pop\n      pop\n      pop\n      swap1\n      dup1\n      0x03\n      add\n      sload\n      swap1\n      dup1\n      0x04\n      add\n      sload\n      swap1\n      dup1\n      0x05\n      add\n      0x00\n      swap1\n      sload\n      swap1\n      0x0100\n      exp\n      swap1\n      div\n      0xff\n      and\n      swap1\n      dup1\n      0x06\n      add\n      sload\n      swap1\n      pop\n      dup8\n      jump\t// out\n        /* \"SmartConstitution.sol\":1217:1242  address public randomizer */\n    tag_58:\n      0x01\n      0x00\n      swap1\n      sload\n      swap1\n      0x0100\n      exp\n      swap1\n      div\n      0xffffffffffffffffffffffffffffffffffffffff\n      and\n      dup2\n      jump\t// out\n        /* \"#utility.yul\":88:205   */\n    tag_104:\n        /* \"#utility.yul\":197:198   */\n      0x00\n        /* \"#utility.yul\":194:195   */\n      dup1\n        /* \"#utility.yul\":187:199   */\n      revert\n        /* \"#utility.yul\":334:411   */\n    tag_106:\n        /* \"#utility.yul\":371:378   */\n      0x00\n        /* \"#utility.yul\":400:405   */\n      dup2\n        /* \"#utility.yul\":389:405   */\n      swap1\n      pop\n        /* \"#utility.yul\":334:411   */\n      swap2\n      swap1\n      pop\n      jump\t// out\n        /* \"#utility.yul\":417:539   */\n    tag_107:\n        /* \"#utility.yul\":490:514   */\n      tag_139\n        /* \"#utility.yul\":508:513   */\n      dup2\n        /* \"#utility.yul\":490:514   */\n      tag_106\n      jump\t// in\n    tag_139:\n        /* \"#utility.yul\":483:488   */\n      dup2\n        /* \"#utility.yul\":480:515   */\n      eq\n        /* \"#utility.yul\":470:533   */\n      tag_140\n      jumpi\n        /* \"#utility.yul\":529:530   */\n      0x00\n        /* \"#utility.yul\":526:527   */\n      dup1\n        /* \"#utility.yul\":519:531   */\n      revert\n        /* \"#utility.yul\":470:533   */\n    tag_140:\n        /* \"#utility.yul\":417:539   */\n      pop\n      jump\t// out\n        /* \"#utility.yul\":545:684   */\n    tag_108:\n        /* \"#utility.yul\":591:596   */\n      0x00\n        /* \"#utility.yul\":629:635   */\n      dup2\n        /* \"#utility.yul\":616:636   */\n      calldataload\n        /* \"#utility.yul\":607:636   */\n      swap1\n      pop\n        /* \"#utility.yul\":645:678   */\n      tag_142\n        /* \"#utility.yul\":672:677   */\n      dup2\n        /* \"#utility.yul\":645:678   */\n      tag_107\n      jump\t// in\n    tag_142:\n        /* \"#utility.yul\":545:684   */\n      swap3\n      swap2\n      pop\n      pop\n      jump\t// out\n        /* \"#utility.yul\":690:1019   */\n    tag_17:\n        /* \"#utility.yul\":749:755   */\n      0x00\n        /* \"#utility.yul\":798:800   */\n      0x20\n        /* \"#utility.yul\":786:795   */\n      dup3\n        /* \"#utility.yul\":777:784   */\n      dup5\n        /* \"#utility.yul\":773:796   */\n      sub\n        /* \"#utility.yul\":769:801   */\n      slt\n        /* \"#utility.yul\":766:885   */\n      iszero\n      tag_144\n      jumpi\n        /* \"#utility.yul\":804:883   */\n      tag_145\n      tag_104\n      jump\t// in\n    tag_145:\n        /* \"#utility.yul\":766:885   */\n    tag_144:\n        /* \"#utility.yul\":924:925   */\n      0x00\n        /* \"#utility.yul\":949:1002   */\n      tag_146\n        /* \"#utility.yul\":994:1001   */\n      dup5\n        /* \"#utility.yul\":985:991   */\n      dup3\n        /* \"#utility.yul\":974:983   */\n      dup6\n        /* \"#utility.yul\":970:992   */\n      add\n        /* \"#utility.yul\":949:1002   */\n      tag_108\n      jump\t// in\n    tag_146:\n        /* \"#utility.yul\":939:1002   */\n      swap2\n      pop\n        /* \"#utility.yul\":895:1012   */\n      pop\n        /* \"#utility.yul\":690:1019   */\n      swap3\n      swap2\n      pop\n      pop\n      jump\t// out\n        /* \"#utility.yul\":1025:1151   */\n    tag_109:\n        /* \"#utility.yul\":1062:1069   */\n      0x00\n        /* \"#utility.yul\":1102:1144   */\n      0xffffffffffffffffffffffffffffffffffffffff\n        /* \"#utility.yul\":1095:1100   */\n      dup3\n        /* \"#utility.yul\":1091:1145   */\n      and\n        /* \"#utility.yul\":1080:1145   */\n      swap1\n      pop\n        /* \"#utility.yul\":1025:1151   */\n      swap2\n      swap1\n      pop\n      jump\t// out\n        /* \"#utility.yul\":1157:1253   */\n    tag_110:\n        /* \"#utility.yul\":1194:1201   */\n      0x00\n        /* \"#utility.yul\":1223:1247   */\n      tag_149\n        /* \"#utility.yul\":1241:1246   */\n      dup3\n        /* \"#utility.yul\":1223:1247   */\n      tag_109\n      jump\t// in\n    tag_149:\n        /* \"#utility.yul\":1212:1247   */\n      swap1\n      pop\n        /* \"#utility.yul\":1157:1253   */\n      swap2\n      swap1\n      pop\n      jump\t// out\n        /* \"#utility.yul\":1259:1377   */\n    tag_111:\n        /* \"#utility.yul\":1346:1370   */\n      tag_151\n        /* \"#utility.yul\":1364:1369   */\n      dup2\n        /* \"#utility.yul\":1346:1370   */\n      tag_110\n      jump\t// in\n    tag_151:\n        /* \"#utility.yul\":1341:1344   */\n      dup3\n        /* \"#utility.yul\":1334:1371   */\n      mstore\n        /* \"#utility.yul\":1259:1377   */\n      pop\n      pop\n      jump\t// out\n        /* \"#utility.yul\":1383:1482   */\n    tag_112:\n        /* \"#utility.yul\":1435:1441   */\n      0x00\n        /* \"#utility.yul\":1469:1474   */\n      dup2\n        /* \"#utility.yul\":1463:1475   */\n      mload\n        /* \"#utility.yul\":1453:1475   */\n      swap1\n      pop\n        /* \"#utility.yul\":1383:1482   */\n      swap2\n      swap1\n      pop\n      jump\t// out\n        /* \"#utility.yul\":1488:1657   */\n    tag_113:\n        /* \"#utility.yul\":1572:1583   */\n      0x00\n        /* \"#utility.yul\":1606:1612   */\n      dup3\n        /* \"#utility.yul\":1601:1604   */\n      dup3\n        /* \"#utility.yul\":1594:1613   */\n      mstore\n        /* \"#utility.yul\":1646:1650   */\n      0x20\n        /* \"#utility.yul\":1641:1644   */\n      dup3\n        /* \"#utility.yul\":1637:1651   */\n      add\n        /* \"#utility.yul\":1622:1651   */\n      swap1\n      pop\n        /* \"#utility.yul\":1488:1657   */\n      swap3\n      swap2\n      pop\n      pop\n      jump\t// out\n        /* \"#utility.yul\":1663:1802   */\n    tag_114:\n        /* \"#utility.yul\":1752:1758   */\n      dup3\n        /* \"#utility.yul\":1747:1750   */\n      dup2\n        /* \"#utility.yul\":1742:1745   */\n      dup4\n        /* \"#utility.yul\":1736:1759   */\n      mcopy\n        /* \"#utility.yul\":1793:1794   */\n      0x00\n        /* \"#utility.yul\":1784:1790   */\n      dup4\n        /* \"#utility.yul\":1779:1782   */\n      dup4\n        /* \"#utility.yul\":1775:1791   */\n      add\n        /* \"#utility.yul\":1768:1795   */\n      mstore\n        /* \"#utility.yul\":1663:1802   */\n      pop\n      pop\n      pop\n      jump\t// out\n        /* \"#utility.yul\":1808:1910   */\n    tag_115:\n        /* \"#utility.yul\":1849:1855   */\n      0x00\n        /* \"#utility.yul\":1900:1902   */\n      0x1f\n        /* \"#utility.yul\":1896:1903   */\n      not\n        /* \"#utility.yul\":1891:1893   */\n      0x1f\n        /* \"#utility.yul\":1884:1889   */\n      dup4\n        /* \"#utility.yul\":1880:1894   */\n      add\n        /* \"#utility.yul\":1876:1904   */\n      and\n        /* \"#utility.yul\":1866:1904   */\n      swap1\n      pop\n        /* \"#utility.yul\":1808:1910   */\n      swap2\n      swap1\n      pop\n      jump\t// out\n        /* \"#utility.yul\":1916:2293   */\n    tag_116:\n        /* \"#utility.yul\":2004:2007   */\n      0x00\n        /* \"#utility.yul\":2032:2071   */\n      tag_157\n        /* \"#utility.yul\":2065:2070   */\n      dup3\n        /* \"#utility.yul\":2032:2071   */\n      tag_112\n      jump\t// in\n    tag_157:\n        /* \"#utility.yul\":2087:2158   */\n      tag_158\n        /* \"#utility.yul\":2151:2157   */\n      dup2\n        /* \"#utility.yul\":2146:2149   */\n      dup6\n        /* \"#utility.yul\":2087:2158   */\n      tag_113\n      jump\t// in\n    tag_158:\n        /* \"#utility.yul\":2080:2158   */\n      swap4\n      pop\n        /* \"#utility.yul\":2167:2232   */\n      tag_159\n        /* \"#utility.yul\":2225:2231   */\n      dup2\n        /* \"#utility.yul\":2220:2223   */\n      dup6\n        /* \"#utility.yul\":2213:2217   */\n      0x20\n        /* \"#utility.yul\":2206:2211   */\n      dup7\n        /* \"#utility.yul\":2202:2218   */\n      add\n        /* \"#utility.yul\":2167:2232   */\n      tag_114\n      jump\t// in\n    tag_159:\n        /* \"#utility.yul\":2257:2286   */\n      tag_160\n        /* \"#utility.yul\":2279:2285   */\n      dup2\n        /* \"#utility.yul\":2257:2286   */\n      tag_115\n      jump\t// in\n    tag_160:\n        /* \"#utility.yul\":2252:2255   */\n      dup5\n        /* \"#utility.yul\":2248:2287   */\n      add\n        /* \"#utility.yul\":2241:2287   */\n      swap2\n      pop\n        /* \"#utility.yul\":2008:2293   */\n      pop\n        /* \"#utility.yul\":1916:2293   */\n      swap3\n      swap2\n      pop\n      pop\n      jump\t// out\n        /* \"#utility.yul\":2299:2417   */\n    tag_117:\n        /* \"#utility.yul\":2386:2410   */\n      tag_162\n        /* \"#utility.yul\":2404:2409   */\n      dup2\n        /* \"#utility.yul\":2386:2410   */\n      tag_106\n      jump\t// in\n    tag_162:\n        /* \"#utility.yul\":2381:2384   */\n      dup3\n        /* \"#utility.yul\":2374:2411   */\n      mstore\n        /* \"#utility.yul\":2299:2417   */\n      pop\n      pop\n      jump\t// out\n        /* \"#utility.yul\":2423:2509   */\n    tag_118:\n        /* \"#utility.yul\":2458:2465   */\n      0x00\n        /* \"#utility.yul\":2498:2502   */\n      0xff\n        /* \"#utility.yul\":2491:2496   */\n      dup3\n        /* \"#utility.yul\":2487:2503   */\n      and\n        /* \"#utility.yul\":2476:2503   */\n      swap1\n      pop\n        /* \"#utility.yul\":2423:2509   */\n      swap2\n      swap1\n      pop\n      jump\t// out\n        /* \"#utility.yul\":2515:2627   */\n    tag_119:\n        /* \"#utility.yul\":2598:2620   */\n      tag_165\n        /* \"#utility.yul\":2614:2619   */\n      dup2\n        /* \"#utility.yul\":2598:2620   */\n      tag_118\n      jump\t// in\n    tag_165:\n        /* \"#utility.yul\":2593:2596   */\n      dup3\n        /* \"#utility.yul\":2586:2621   */\n      mstore\n        /* \"#utility.yul\":2515:2627   */\n      pop\n      pop\n      jump\t// out\n        /* \"#utility.yul\":2633:3491   */\n    tag_20:\n        /* \"#utility.yul\":2882:2886   */\n      0x00\n        /* \"#utility.yul\":2920:2923   */\n      0xc0\n        /* \"#utility.yul\":2909:2918   */\n      dup3\n        /* \"#utility.yul\":2905:2924   */\n      add\n        /* \"#utility.yul\":2897:2924   */\n      swap1\n      pop\n        /* \"#utility.yul\":2934:3005   */\n      tag_167\n        /* \"#utility.yul\":3002:3003   */\n      0x00\n        /* \"#utility.yul\":2991:3000   */\n      dup4\n        /* \"#utility.yul\":2987:3004   */\n      add\n        /* \"#utility.yul\":2978:2984   */\n      dup10\n        /* \"#utility.yul\":2934:3005   */\n      tag_111\n      jump\t// in\n    tag_167:\n        /* \"#utility.yul\":3052:3061   */\n      dup2\n        /* \"#utility.yul\":3046:3050   */\n      dup2\n        /* \"#utility.yul\":3042:3062   */\n      sub\n        /* \"#utility.yul\":3037:3039   */\n      0x20\n        /* \"#utility.yul\":3026:3035   */\n      dup4\n        /* \"#utility.yul\":3022:3040   */\n      add\n        /* \"#utility.yul\":3015:3063   */\n      mstore\n        /* \"#utility.yul\":3080:3158   */\n      tag_168\n        /* \"#utility.yul\":3153:3157   */\n      dup2\n        /* \"#utility.yul\":3144:3150   */\n      dup9\n        /* \"#utility.yul\":3080:3158   */\n      tag_116\n      jump\t// in\n    tag_168:\n        /* \"#utility.yul\":3072:3158   */\n      swap1\n      pop\n        /* \"#utility.yul\":3168:3240   */\n      tag_169\n        /* \"#utility.yul\":3236:3238   */\n      0x40\n        /* \"#utility.yul\":3225:3234   */\n      dup4\n        /* \"#utility.yul\":3221:3239   */\n      add\n        /* \"#utility.yul\":3212:3218   */\n      dup8\n        /* \"#utility.yul\":3168:3240   */\n      tag_117\n      jump\t// in\n    tag_169:\n        /* \"#utility.yul\":3250:3322   */\n      tag_170\n        /* \"#utility.yul\":3318:3320   */\n      0x60\n        /* \"#utility.yul\":3307:3316   */\n      dup4\n        /* \"#utility.yul\":3303:3321   */\n      add\n        /* \"#utility.yul\":3294:3300   */\n      dup7\n        /* \"#utility.yul\":3250:3322   */\n      tag_117\n      jump\t// in\n    tag_170:\n        /* \"#utility.yul\":3332:3405   */\n      tag_171\n        /* \"#utility.yul\":3400:3403   */\n      0x80\n        /* \"#utility.yul\":3389:3398   */\n      dup4\n        /* \"#utility.yul\":3385:3404   */\n      add\n        /* \"#utility.yul\":3376:3382   */\n      dup6\n        /* \"#utility.yul\":3332:3405   */\n      tag_117\n      jump\t// in\n    tag_171:\n        /* \"#utility.yul\":3415:3484   */\n      tag_172\n        /* \"#utility.yul\":3479:3482   */\n      0xa0\n        /* \"#utility.yul\":3468:3477   */\n      dup4\n        /* \"#utility.yul\":3464:3483   */\n      add\n        /* \"#utility.yul\":3455:3461   */\n      dup5\n        /* \"#utility.yul\":3415:3484   */\n      tag_119\n      jump\t// in\n    tag_172:\n        /* \"#utility.yul\":2633:3491   */\n      swap8\n      swap7\n      pop\n      pop\n      pop\n      pop\n      pop\n      pop\n      pop\n      jump\t// out\n        /* \"#utility.yul\":3497:3590   */\n    tag_120:\n        /* \"#utility.yul\":3533:3540   */\n      0x00\n        /* \"#utility.yul\":3573:3583   */\n      0xffffffff\n        /* \"#utility.yul\":3566:3571   */\n      dup3\n        /* \"#utility.yul\":3562:3584   */\n      and\n        /* \"#utility.yul\":3551:3584   */\n      swap1\n      pop\n        /* \"#utility.yul\":3497:3590   */\n      swap2\n      swap1\n      pop\n      jump\t// out\n        /* \"#utility.yul\":3596:3711   */\n    tag_121:\n        /* \"#utility.yul\":3681:3704   */\n      tag_175\n        /* \"#utility.yul\":3698:3703   */\n      dup2\n        /* \"#utility.yul\":3681:3704   */\n      tag_120\n      jump\t// in\n    tag_175:\n        /* \"#utility.yul\":3676:3679   */\n      dup3\n        /* \"#utility.yul\":3669:3705   */\n      mstore\n        /* \"#utility.yul\":3596:3711   */\n      pop\n      pop\n      jump\t// out\n        /* \"#utility.yul\":3717:3935   */\n    tag_24:\n        /* \"#utility.yul\":3808:3812   */\n      0x00\n        /* \"#utility.yul\":3846:3848   */\n      0x20\n        /* \"#utility.yul\":3835:3844   */\n      dup3\n        /* \"#utility.yul\":3831:3849   */\n      add\n        /* \"#utility.yul\":3823:3849   */\n      swap1\n      pop\n        /* \"#utility.yul\":3859:3928   */\n      tag_177\n        /* \"#utility.yul\":3925:3926   */\n      0x00\n        /* \"#utility.yul\":3914:3923   */\n      dup4\n        /* \"#utility.yul\":3910:3927   */\n      add\n        /* \"#utility.yul\":3901:3907   */\n      dup5\n        /* \"#utility.yul\":3859:3928   */\n      tag_121\n      jump\t// in\n    tag_177:\n        /* \"#utility.yul\":3717:3935   */\n      swap3\n      swap2\n      pop\n      pop\n      jump\t// out\n        /* \"#utility.yul\":3941:4163   */\n    tag_28:\n        /* \"#utility.yul\":4034:4038   */\n      0x00\n        /* \"#utility.yul\":4072:4074   */\n      0x20\n        /* \"#utility.yul\":4061:4070   */\n      dup3\n        /* \"#utility.yul\":4057:4075   */\n      add\n        /* \"#utility.yul\":4049:4075   */\n      swap1\n      pop\n        /* \"#utility.yul\":4085:4156   */\n      tag_179\n        /* \"#utility.yul\":4153:4154   */\n      0x00\n        /* \"#utility.yul\":4142:4151   */\n      dup4\n        /* \"#utility.yul\":4138:4155   */\n      add\n        /* \"#utility.yul\":4129:4135   */\n      dup5\n        /* \"#utility.yul\":4085:4156   */\n      tag_117\n      jump\t// in\n    tag_179:\n        /* \"#utility.yul\":3941:4163   */\n      swap3\n      swap2\n      pop\n      pop\n      jump\t// out\n        /* \"#utility.yul\":4169:4349   */\n    tag_122:\n        /* \"#utility.yul\":4217:4294   */\n      0x4e487b7100000000000000000000000000000000000000000000000000000000\n        /* \"#utility.yul\":4214:4215   */\n      0x00\n        /* \"#utility.yul\":4207:4295   */\n      mstore\n        /* \"#utility.yul\":4314:4318   */\n      0x21\n        /* \"#utility.yul\":4311:4312   */\n      0x04\n        /* \"#utility.yul\":4304:4319   */\n      mstore\n        /* \"#utility.yul\":4338:4342   */\n      0x24\n        /* \"#utility.yul\":4335:4336   */\n      0x00\n        /* \"#utility.yul\":4328:4343   */\n      revert\n        /* \"#utility.yul\":4355:4467   */\n    tag_123:\n        /* \"#utility.yul\":4435:4436   */\n      0x05\n        /* \"#utility.yul\":4428:4433   */\n      dup2\n        /* \"#utility.yul\":4425:4437   */\n      lt\n        /* \"#utility.yul\":4415:4461   */\n      tag_182\n      jumpi\n        /* \"#utility.yul\":4441:4459   */\n      tag_183\n      tag_122\n      jump\t// in\n    tag_183:\n        /* \"#utility.yul\":4415:4461   */\n    tag_182:\n        /* \"#utility.yul\":4355:4467   */\n      pop\n      jump\t// out\n        /* \"#utility.yul\":4473:4598   */\n    tag_124:\n        /* \"#utility.yul\":4517:4524   */\n      0x00\n        /* \"#utility.yul\":4546:4551   */\n      dup2\n        /* \"#utility.yul\":4535:4551   */\n      swap1\n      pop\n        /* \"#utility.yul\":4552:4592   */\n      tag_185\n        /* \"#utility.yul\":4586:4591   */\n      dup3\n        /* \"#utility.yul\":4552:4592   */\n      tag_123\n      jump\t// in\n    tag_185:\n        /* \"#utility.yul\":4473:4598   */\n      swap2\n      swap1\n      pop\n      jump\t// out\n        /* \"#utility.yul\":4604:4729   */\n    tag_125:\n        /* \"#utility.yul\":4659:4668   */\n      0x00\n        /* \"#utility.yul\":4692:4723   */\n      tag_187\n        /* \"#utility.yul\":4717:4722   */\n      dup3\n        /* \"#utility.yul\":4692:4723   */\n      tag_124\n      jump\t// in\n    tag_187:\n        /* \"#utility.yul\":4679:4723   */\n      swap1\n      pop\n        /* \"#utility.yul\":4604:4729   */\n      swap2\n      swap1\n      pop\n      jump\t// out\n        /* \"#utility.yul\":4735:4876   */\n    tag_126:\n        /* \"#utility.yul\":4827:4869   */\n      tag_189\n        /* \"#utility.yul\":4863:4868   */\n      dup2\n        /* \"#utility.yul\":4827:4869   */\n      tag_125\n      jump\t// in\n    tag_189:\n        /* \"#utility.yul\":4822:4825   */\n      dup3\n        /* \"#utility.yul\":4815:4870   */\n      mstore\n        /* \"#utility.yul\":4735:4876   */\n      pop\n      pop\n      jump\t// out\n        /* \"#utility.yul\":4882:5114   */\n    tag_35:\n        /* \"#utility.yul\":4980:4984   */\n      0x00\n        /* \"#utility.yul\":5018:5020   */\n      0x20\n        /* \"#utility.yul\":5007:5016   */\n      dup3\n        /* \"#utility.yul\":5003:5021   */\n      add\n        /* \"#utility.yul\":4995:5021   */\n      swap1\n      pop\n        /* \"#utility.yul\":5031:5107   */\n      tag_191\n        /* \"#utility.yul\":5104:5105   */\n      0x00\n        /* \"#utility.yul\":5093:5102   */\n      dup4\n        /* \"#utility.yul\":5089:5106   */\n      add\n        /* \"#utility.yul\":5080:5086   */\n      dup5\n        /* \"#utility.yul\":5031:5107   */\n      tag_126\n      jump\t// in\n    tag_191:\n        /* \"#utility.yul\":4882:5114   */\n      swap3\n      swap2\n      pop\n      pop\n      jump\t// out\n        /* \"#utility.yul\":5120:5342   */\n    tag_43:\n        /* \"#utility.yul\":5213:5217   */\n      0x00\n        /* \"#utility.yul\":5251:5253   */\n      0x20\n        /* \"#utility.yul\":5240:5249   */\n      dup3\n        /* \"#utility.yul\":5236:5254   */\n      add\n        /* \"#utility.yul\":5228:5254   */\n      swap1\n      pop\n        /* \"#utility.yul\":5264:5335   */\n      tag_193\n        /* \"#utility.yul\":5332:5333   */\n      0x00\n        /* \"#utility.yul\":5321:5330   */\n      dup4\n        /* \"#utility.yul\":5317:5334   */\n      add\n        /* \"#utility.yul\":5308:5314   */\n      dup5\n        /* \"#utility.yul\":5264:5335   */\n      tag_111\n      jump\t// in\n    tag_193:\n        /* \"#utility.yul\":5120:5342   */\n      swap3\n      swap2\n      pop\n      pop\n      jump\t// out\n        /* \"#utility.yul\":5348:5562   */\n    tag_50:\n        /* \"#utility.yul\":5437:5441   */\n      0x00\n        /* \"#utility.yul\":5475:5477   */\n      0x20\n        /* \"#utility.yul\":5464:5473   */\n      dup3\n        /* \"#utility.yul\":5460:5478   */\n      add\n        /* \"#utility.yul\":5452:5478   */\n      swap1\n      pop\n        /* \"#utility.yul\":5488:5555   */\n      tag_195\n        /* \"#utility.yul\":5552:5553   */\n      0x00\n        /* \"#utility.yul\":5541:5550   */\n      dup4\n        /* \"#utility.yul\":5537:5554   */\n      add\n        /* \"#utility.yul\":5528:5534   */\n      dup5\n        /* \"#utility.yul\":5488:5555   */\n      tag_119\n      jump\t// in\n    tag_195:\n        /* \"#utility.yul\":5348:5562   */\n      swap3\n      swap2\n      pop\n      pop\n      jump\t// out\n        /* \"#utility.yul\":5568:5690   */\n    tag_127:\n        /* \"#utility.yul\":5641:5665   */\n      tag_197\n        /* \"#utility.yul\":5659:5664   */\n      dup2\n        /* \"#utility.yul\":5641:5665   */\n      tag_110\n      jump\t// in\n    tag_197:\n        /* \"#utility.yul\":5634:5639   */\n      dup2\n        /* \"#utility.yul\":5631:5666   */\n      eq\n        /* \"#utility.yul\":5621:5684   */\n      tag_198\n      jumpi\n        /* \"#utility.yul\":5680:5681   */\n      0x00\n        /* \"#utility.yul\":5677:5678   */\n      dup1\n        /* \"#utility.yul\":5670:5682   */\n      revert\n        /* \"#utility.yul\":5621:5684   */\n    tag_198:\n        /* \"#utility.yul\":5568:5690   */\n      pop\n      jump\t// out\n        /* \"#utility.yul\":5696:5835   */\n    tag_128:\n        /* \"#utility.yul\":5742:5747   */\n      0x00\n        /* \"#utility.yul\":5780:5786   */\n      dup2\n        /* \"#utility.yul\":5767:5787   */\n      calldataload\n        /* \"#utility.yul\":5758:5787   */\n      swap1\n      pop\n        /* \"#utility.yul\":5796:5829   */\n      tag_200\n        /* \"#utility.yul\":5823:5828   */\n      dup2\n        /* \"#utility.yul\":5796:5829   */\n      tag_127\n      jump\t// in\n    tag_200:\n        /* \"#utility.yul\":5696:5835   */\n      swap3\n      swap2\n      pop\n      pop\n      jump\t// out\n        /* \"#utility.yul\":5841:6170   */\n    tag_53:\n        /* \"#utility.yul\":5900:5906   */\n      0x00\n        /* \"#utility.yul\":5949:5951   */\n      0x20\n        /* \"#utility.yul\":5937:5946   */\n      dup3\n        /* \"#utility.yul\":5928:5935   */\n      dup5\n        /* \"#utility.yul\":5924:5947   */\n      sub\n        /* \"#utility.yul\":5920:5952   */\n      slt\n        /* \"#utility.yul\":5917:6036   */\n      iszero\n      tag_202\n      jumpi\n        /* \"#utility.yul\":5955:6034   */\n      tag_203\n      tag_104\n      jump\t// in\n    tag_203:\n        /* \"#utility.yul\":5917:6036   */\n    tag_202:\n        /* \"#utility.yul\":6075:6076   */\n      0x00\n        /* \"#utility.yul\":6100:6153   */\n      tag_204\n        /* \"#utility.yul\":6145:6152   */\n      dup5\n        /* \"#utility.yul\":6136:6142   */\n      dup3\n        /* \"#utility.yul\":6125:6134   */\n      dup6\n        /* \"#utility.yul\":6121:6143   */\n      add\n        /* \"#utility.yul\":6100:6153   */\n      tag_128\n      jump\t// in\n    tag_204:\n        /* \"#utility.yul\":6090:6153   */\n      swap2\n      pop\n        /* \"#utility.yul\":6046:6163   */\n      pop\n        /* \"#utility.yul\":5841:6170   */\n      swap3\n      swap2\n      pop\n      pop\n      jump\t// out\n        /* \"#utility.yul\":6176:6266   */\n    tag_129:\n        /* \"#utility.yul\":6210:6217   */\n      0x00\n        /* \"#utility.yul\":6253:6258   */\n      dup2\n        /* \"#utility.yul\":6246:6259   */\n      iszero\n        /* \"#utility.yul\":6239:6260   */\n      iszero\n        /* \"#utility.yul\":6228:6260   */\n      swap1\n      pop\n        /* \"#utility.yul\":6176:6266   */\n      swap2\n      swap1\n      pop\n      jump\t// out\n        /* \"#utility.yul\":6272:6381   */\n    tag_130:\n        /* \"#utility.yul\":6353:6374   */\n      tag_207\n        /* \"#utility.yul\":6368:6373   */\n      dup2\n        /* \"#utility.yul\":6353:6374   */\n      tag_129\n      jump\t// in\n    tag_207:\n        /* \"#utility.yul\":6348:6351   */\n      dup3\n        /* \"#utility.yul\":6341:6375   */\n      mstore\n        /* \"#utility.yul\":6272:6381   */\n      pop\n      pop\n      jump\t// out\n        /* \"#utility.yul\":6387:7534   */\n    tag_56:\n        /* \"#utility.yul\":6702:6706   */\n      0x00\n        /* \"#utility.yul\":6740:6743   */\n      0xe0\n        /* \"#utility.yul\":6729:6738   */\n      dup3\n        /* \"#utility.yul\":6725:6744   */\n      add\n        /* \"#utility.yul\":6717:6744   */\n      swap1\n      pop\n        /* \"#utility.yul\":6790:6799   */\n      dup2\n        /* \"#utility.yul\":6784:6788   */\n      dup2\n        /* \"#utility.yul\":6780:6800   */\n      sub\n        /* \"#utility.yul\":6776:6777   */\n      0x00\n        /* \"#utility.yul\":6765:6774   */\n      dup4\n        /* \"#utility.yul\":6761:6778   */\n      add\n        /* \"#utility.yul\":6754:6801   */\n      mstore\n        /* \"#utility.yul\":6818:6896   */\n      tag_209\n        /* \"#utility.yul\":6891:6895   */\n      dup2\n        /* \"#utility.yul\":6882:6888   */\n      dup11\n        /* \"#utility.yul\":6818:6896   */\n      tag_116\n      jump\t// in\n    tag_209:\n        /* \"#utility.yul\":6810:6896   */\n      swap1\n      pop\n        /* \"#utility.yul\":6943:6952   */\n      dup2\n        /* \"#utility.yul\":6937:6941   */\n      dup2\n        /* \"#utility.yul\":6933:6953   */\n      sub\n        /* \"#utility.yul\":6928:6930   */\n      0x20\n        /* \"#utility.yul\":6917:6926   */\n      dup4\n        /* \"#utility.yul\":6913:6931   */\n      add\n        /* \"#utility.yul\":6906:6954   */\n      mstore\n        /* \"#utility.yul\":6971:7049   */\n      tag_210\n        /* \"#utility.yul\":7044:7048   */\n      dup2\n        /* \"#utility.yul\":7035:7041   */\n      dup10\n        /* \"#utility.yul\":6971:7049   */\n      tag_116\n      jump\t// in\n    tag_210:\n        /* \"#utility.yul\":6963:7049   */\n      swap1\n      pop\n        /* \"#utility.yul\":7096:7105   */\n      dup2\n        /* \"#utility.yul\":7090:7094   */\n      dup2\n        /* \"#utility.yul\":7086:7106   */\n      sub\n        /* \"#utility.yul\":7081:7083   */\n      0x40\n        /* \"#utility.yul\":7070:7079   */\n      dup4\n        /* \"#utility.yul\":7066:7084   */\n      add\n        /* \"#utility.yul\":7059:7107   */\n      mstore\n        /* \"#utility.yul\":7124:7202   */\n      tag_211\n        /* \"#utility.yul\":7197:7201   */\n      dup2\n        /* \"#utility.yul\":7188:7194   */\n      dup9\n        /* \"#utility.yul\":7124:7202   */\n      tag_116\n      jump\t// in\n    tag_211:\n        /* \"#utility.yul\":7116:7202   */\n      swap1\n      pop\n        /* \"#utility.yul\":7212:7284   */\n      tag_212\n        /* \"#utility.yul\":7280:7282   */\n      0x60\n        /* \"#utility.yul\":7269:7278   */\n      dup4\n        /* \"#utility.yul\":7265:7283   */\n      add\n        /* \"#utility.yul\":7256:7262   */\n      dup8\n        /* \"#utility.yul\":7212:7284   */\n      tag_117\n      jump\t// in\n    tag_212:\n        /* \"#utility.yul\":7294:7367   */\n      tag_213\n        /* \"#utility.yul\":7362:7365   */\n      0x80\n        /* \"#utility.yul\":7351:7360   */\n      dup4\n        /* \"#utility.yul\":7347:7366   */\n      add\n        /* \"#utility.yul\":7338:7344   */\n      dup7\n        /* \"#utility.yul\":7294:7367   */\n      tag_117\n      jump\t// in\n    tag_213:\n        /* \"#utility.yul\":7377:7444   */\n      tag_214\n        /* \"#utility.yul\":7439:7442   */\n      0xa0\n        /* \"#utility.yul\":7428:7437   */\n      dup4\n        /* \"#utility.yul\":7424:7443   */\n      add\n        /* \"#utility.yul\":7415:7421   */\n      dup6\n        /* \"#utility.yul\":7377:7444   */\n      tag_130\n      jump\t// in\n    tag_214:\n        /* \"#utility.yul\":7454:7527   */\n      tag_215\n        /* \"#utility.yul\":7522:7525   */\n      0xc0\n        /* \"#utility.yul\":7511:7520   */\n      dup4\n        /* \"#utility.yul\":7507:7526   */\n      add\n        /* \"#utility.yul\":7498:7504   */\n      dup5\n        /* \"#utility.yul\":7454:7527   */\n      tag_117\n      jump\t// in\n    tag_215:\n        /* \"#utility.yul\":6387:7534   */\n      swap9\n      swap8\n      pop\n      pop\n      pop\n      pop\n      pop\n      pop\n      pop\n      pop\n      jump\t// out\n        /* \"#utility.yul\":7540:7720   */\n    tag_131:\n        /* \"#utility.yul\":7588:7665   */\n      0x4e487b7100000000000000000000000000000000000000000000000000000000\n        /* \"#utility.yul\":7585:7586   */\n      0x00\n        /* \"#utility.yul\":7578:7666   */\n      mstore\n        /* \"#utility.yul\":7685:7689   */\n      0x22\n        /* \"#utility.yul\":7682:7683   */\n      0x04\n        /* \"#utility.yul\":7675:7690   */\n      mstore\n        /* \"#utility.yul\":7709:7713   */\n      0x24\n        /* \"#utility.yul\":7706:7707   */\n      0x00\n        /* \"#utility.yul\":7699:7714   */\n      revert\n        /* \"#utility.yul\":7726:8046   */\n    tag_63:\n        /* \"#utility.yul\":7770:7776   */\n      0x00\n        /* \"#utility.yul\":7807:7808   */\n      0x02\n        /* \"#utility.yul\":7801:7805   */\n      dup3\n        /* \"#utility.yul\":7797:7809   */\n      div\n        /* \"#utility.yul\":7787:7809   */\n      swap1\n      pop\n        /* \"#utility.yul\":7854:7855   */\n      0x01\n        /* \"#utility.yul\":7848:7852   */\n      dup3\n        /* \"#utility.yul\":7844:7856   */\n      and\n        /* \"#utility.yul\":7875:7893   */\n      dup1\n        /* \"#utility.yul\":7865:7946   */\n      tag_218\n      jumpi\n        /* \"#utility.yul\":7931:7935   */\n      0x7f\n        /* \"#utility.yul\":7923:7929   */\n      dup3\n        /* \"#utility.yul\":7919:7936   */\n      and\n        /* \"#utility.yul\":7909:7936   */\n      swap2\n      pop\n        /* \"#utility.yul\":7865:7946   */\n    tag_218:\n        /* \"#utility.yul\":7993:7995   */\n      0x20\n        /* \"#utility.yul\":7985:7991   */\n      dup3\n        /* \"#utility.yul\":7982:7996   */\n      lt\n        /* \"#utility.yul\":7962:7980   */\n      dup2\n        /* \"#utility.yul\":7959:7997   */\n      sub\n        /* \"#utility.yul\":7956:8040   */\n      tag_219\n      jumpi\n        /* \"#utility.yul\":8012:8030   */\n      tag_220\n      tag_131\n      jump\t// in\n    tag_220:\n        /* \"#utility.yul\":7956:8040   */\n    tag_219:\n        /* \"#utility.yul\":7777:8046   */\n      pop\n        /* \"#utility.yul\":7726:8046   */\n      swap2\n      swap1\n      pop\n      jump\t// out\n        /* \"#utility.yul\":8052:8232   */\n    tag_132:\n        /* \"#utility.yul\":8100:8177   */\n      0x4e487b7100000000000000000000000000000000000000000000000000000000\n        /* \"#utility.yul\":8097:8098   */\n      0x00\n        /* \"#utility.yul\":8090:8178   */\n      mstore\n        /* \"#utility.yul\":8197:8201   */\n      0x11\n        /* \"#utility.yul\":8194:8195   */\n      0x04\n        /* \"#utility.yul\":8187:8202   */\n      mstore\n        /* \"#utility.yul\":8221:8225   */\n      0x24\n        /* \"#utility.yul\":8218:8219   */\n      0x00\n        /* \"#utility.yul\":8211:8226   */\n      revert\n        /* \"#utility.yul\":8238:8432   */\n    tag_70:\n        /* \"#utility.yul\":8278:8282   */\n      0x00\n        /* \"#utility.yul\":8298:8318   */\n      tag_223\n        /* \"#utility.yul\":8316:8317   */\n      dup3\n        /* \"#utility.yul\":8298:8318   */\n      tag_106\n      jump\t// in\n    tag_223:\n        /* \"#utility.yul\":8293:8318   */\n      swap2\n      pop\n        /* \"#utility.yul\":8332:8352   */\n      tag_224\n        /* \"#utility.yul\":8350:8351   */\n      dup4\n        /* \"#utility.yul\":8332:8352   */\n      tag_106\n      jump\t// in\n    tag_224:\n        /* \"#utility.yul\":8327:8352   */\n      swap3\n      pop\n        /* \"#utility.yul\":8376:8377   */\n      dup3\n        /* \"#utility.yul\":8373:8374   */\n      dup3\n        /* \"#utility.yul\":8369:8378   */\n      sub\n        /* \"#utility.yul\":8361:8378   */\n      swap1\n      pop\n        /* \"#utility.yul\":8400:8401   */\n      dup2\n        /* \"#utility.yul\":8394:8398   */\n      dup2\n        /* \"#utility.yul\":8391:8402   */\n      gt\n        /* \"#utility.yul\":8388:8425   */\n      iszero\n      tag_225\n      jumpi\n        /* \"#utility.yul\":8405:8423   */\n      tag_226\n      tag_132\n      jump\t// in\n    tag_226:\n        /* \"#utility.yul\":8388:8425   */\n    tag_225:\n        /* \"#utility.yul\":8238:8432   */\n      swap3\n      swap2\n      pop\n      pop\n      jump\t// out\n        /* \"#utility.yul\":8438:8709   */\n    tag_75:\n        /* \"#utility.yul\":8476:8483   */\n      0x00\n        /* \"#utility.yul\":8499:8517   */\n      tag_228\n        /* \"#utility.yul\":8515:8516   */\n      dup3\n        /* \"#utility.yul\":8499:8517   */\n      tag_118\n      jump\t// in\n    tag_228:\n        /* \"#utility.yul\":8494:8517   */\n      swap2\n      pop\n        /* \"#utility.yul\":8531:8549   */\n      tag_229\n        /* \"#utility.yul\":8547:8548   */\n      dup4\n        /* \"#utility.yul\":8531:8549   */\n      tag_118\n      jump\t// in\n    tag_229:\n        /* \"#utility.yul\":8526:8549   */\n      swap3\n      pop\n        /* \"#utility.yul\":8584:8585   */\n      dup3\n        /* \"#utility.yul\":8581:8582   */\n      dup3\n        /* \"#utility.yul\":8577:8586   */\n      mul\n        /* \"#utility.yul\":8606:8634   */\n      tag_230\n        /* \"#utility.yul\":8622:8633   */\n      dup2\n        /* \"#utility.yul\":8606:8634   */\n      tag_118\n      jump\t// in\n    tag_230:\n        /* \"#utility.yul\":8595:8634   */\n      swap2\n      pop\n        /* \"#utility.yul\":8666:8677   */\n      dup1\n        /* \"#utility.yul\":8657:8664   */\n      dup3\n        /* \"#utility.yul\":8654:8678   */\n      eq\n        /* \"#utility.yul\":8644:8702   */\n      tag_231\n      jumpi\n        /* \"#utility.yul\":8682:8700   */\n      tag_232\n      tag_132\n      jump\t// in\n    tag_232:\n        /* \"#utility.yul\":8644:8702   */\n    tag_231:\n        /* \"#utility.yul\":8484:8709   */\n      pop\n        /* \"#utility.yul\":8438:8709   */\n      swap3\n      swap2\n      pop\n      pop\n      jump\t// out\n        /* \"#utility.yul\":8715:8906   */\n    tag_79:\n        /* \"#utility.yul\":8755:8758   */\n      0x00\n        /* \"#utility.yul\":8774:8794   */\n      tag_234\n        /* \"#utility.yul\":8792:8793   */\n      dup3\n        /* \"#utility.yul\":8774:8794   */\n      tag_106\n      jump\t// in\n    tag_234:\n        /* \"#utility.yul\":8769:8794   */\n      swap2\n      pop\n        /* \"#utility.yul\":8808:8828   */\n      tag_235\n        /* \"#utility.yul\":8826:8827   */\n      dup4\n        /* \"#utility.yul\":8808:8828   */\n      tag_106\n      jump\t// in\n    tag_235:\n        /* \"#utility.yul\":8803:8828   */\n      swap3\n      pop\n        /* \"#utility.yul\":8851:8852   */\n      dup3\n        /* \"#utility.yul\":8848:8849   */\n      dup3\n        /* \"#utility.yul\":8844:8853   */\n      add\n        /* \"#utility.yul\":8837:8853   */\n      swap1\n      pop\n        /* \"#utility.yul\":8872:8875   */\n      dup1\n        /* \"#utility.yul\":8869:8870   */\n      dup3\n        /* \"#utility.yul\":8866:8876   */\n      gt\n        /* \"#utility.yul\":8863:8899   */\n      iszero\n      tag_236\n      jumpi\n        /* \"#utility.yul\":8879:8897   */\n      tag_237\n      tag_132\n      jump\t// in\n    tag_237:\n        /* \"#utility.yul\":8863:8899   */\n    tag_236:\n        /* \"#utility.yul\":8715:8906   */\n      swap3\n      swap2\n      pop\n      pop\n      jump\t// out\n\n    auxdata: 0xa264697066735822122079dab08edcfe4e18193e4785c81748e32c12cd4ac27c0026a0548ce76de0264264736f6c634300081a0033\n}\n",
				"bytecode": {
					"linkReferences": {},
					"object": "60a060405234801561000f575f80fd5b50604051611218380380611218833981810160405281019061003191906102fa565b8160015f6101000a81548173ffffffffffffffffffffffffffffffffffffffff021916908373ffffffffffffffffffffffffffffffffffffffff160217905550426080818152505060016212750060805161008c919061038a565b610096919061038a565b5f819055505f600360018160018154018082558091505003905f5260205f209060070201905033815f015f6101000a81548173ffffffffffffffffffffffffffffffffffffffff021916908373ffffffffffffffffffffffffffffffffffffffff1602179055508181600101908161010e91906105c1565b50608051816002018190555060805181600301819055505f81600401819055506032816005015f6101000a81548160ff021916908360ff160217905550505050610690565b5f604051905090565b5f80fd5b5f80fd5b5f73ffffffffffffffffffffffffffffffffffffffff82169050919050565b5f61018d82610164565b9050919050565b61019d81610183565b81146101a7575f80fd5b50565b5f815190506101b881610194565b92915050565b5f80fd5b5f80fd5b5f601f19601f8301169050919050565b7f4e487b71000000000000000000000000000000000000000000000000000000005f52604160045260245ffd5b61020c826101c6565b810181811067ffffffffffffffff8211171561022b5761022a6101d6565b5b80604052505050565b5f61023d610153565b90506102498282610203565b919050565b5f67ffffffffffffffff821115610268576102676101d6565b5b610271826101c6565b9050602081019050919050565b8281835e5f83830152505050565b5f61029e6102998461024e565b610234565b9050828152602081018484840111156102ba576102b96101c2565b5b6102c584828561027e565b509392505050565b5f82601f8301126102e1576102e06101be565b5b81516102f184826020860161028c565b91505092915050565b5f80604083850312156103105761030f61015c565b5b5f61031d858286016101aa565b925050602083015167ffffffffffffffff81111561033e5761033d610160565b5b61034a858286016102cd565b9150509250929050565b5f819050919050565b7f4e487b71000000000000000000000000000000000000000000000000000000005f52601160045260245ffd5b5f61039482610354565b915061039f83610354565b92508282019050808211156103b7576103b661035d565b5b92915050565b5f81519050919050565b7f4e487b71000000000000000000000000000000000000000000000000000000005f52602260045260245ffd5b5f600282049050600182168061040b57607f821691505b60208210810361041e5761041d6103c7565b5b50919050565b5f819050815f5260205f209050919050565b5f6020601f8301049050919050565b5f82821b905092915050565b5f600883026104807fffffffffffffffffffffffffffffffffffffffffffffffffffffffffffffffff82610445565b61048a8683610445565b95508019841693508086168417925050509392505050565b5f819050919050565b5f6104c56104c06104bb84610354565b6104a2565b610354565b9050919050565b5f819050919050565b6104de836104ab565b6104f26104ea826104cc565b848454610451565b825550505050565b5f90565b6105066104fa565b6105118184846104d5565b505050565b5b81811015610534576105295f826104fe565b600181019050610517565b5050565b601f8211156105795761054a81610424565b61055384610436565b81016020851015610562578190505b61057661056e85610436565b830182610516565b50505b505050565b5f82821c905092915050565b5f6105995f198460080261057e565b1980831691505092915050565b5f6105b1838361058a565b9150826002028217905092915050565b6105ca826103bd565b67ffffffffffffffff8111156105e3576105e26101d6565b5b6105ed82546103f4565b6105f8828285610538565b5f60209050601f831160018114610629575f8415610617578287015190505b61062185826105a6565b865550610688565b601f19841661063786610424565b5f5b8281101561065e57848901518255600182019150602085019450602081019050610639565b8683101561067b5784890151610677601f89168261058a565b8355505b6001600288020188555050505b505050505050565b608051610b706106a85f395f61033d0152610b705ff3fe608060405234801561000f575f80fd5b50600436106100a7575f3560e01c8063b0feb2601161006f578063b0feb26014610158578063b13c744b14610176578063ce7ea161146101a6578063e292bf16146101c4578063e965b7c9146101e2578063f10fb58414610218576100a7565b806328bdcde8146100ab5780633def77b7146100e057806347f7b722146100fe57806378e979251461011c578063a3a40ea51461013a575b5f80fd5b6100c560048036038101906100c091906106a5565b610236565b6040516100d7969594939291906107a9565b60405180910390f35b6100e861032e565b6040516100f5919061082d565b60405180910390f35b610106610334565b6040516101139190610846565b60405180910390f35b61012461033b565b6040516101319190610846565b60405180910390f35b61014261035f565b60405161014f91906108d2565b60405180910390f35b610160610422565b60405161016d9190610846565b60405180910390f35b610190600480360381019061018b91906106a5565b610428565b60405161019d91906108eb565b60405180910390f35b6101ae610463565b6040516101bb9190610846565b60405180910390f35b6101cc610468565b6040516101d99190610904565b60405180910390f35b6101fc60048036038101906101f79190610947565b61046d565b60405161020f979695949392919061098c565b60405180910390f35b610220610649565b60405161022d91906108eb565b60405180910390f35b60038181548110610245575f80fd5b905f5260205f2090600702015f91509050805f015f9054906101000a900473ffffffffffffffffffffffffffffffffffffffff169080600101805461028990610a3b565b80601f01602080910402602001604051908101604052809291908181526020018280546102b590610a3b565b80156103005780601f106102d757610100808354040283529160200191610300565b820191905f5260205f20905b8154815290600101906020018083116102e357829003601f168201915b505050505090806002015490806003015490806004015490806005015f9054906101000a900460ff16905086565b6103e881565b6212750081565b7f000000000000000000000000000000000000000000000000000000000000000081565b5f620151805f546103709190610a98565b42101561037f575f905061041f565b5f544210156103f557603260026103969190610acb565b60ff1660028054905010806103ca57506103e863ffffffff16600160149054906101000a900463ffffffff1663ffffffff16105b156103ec57621275005f546103df9190610b07565b5f819055505f905061041f565b6001905061041f565b5f60045403610407576002905061041f565b60045442101561041a576003905061041f565b600490505b90565b60045481565b60028181548110610437575f80fd5b905f5260205f20015f915054906101000a900473ffffffffffffffffffffffffffffffffffffffff1681565b5f5481565b603281565b6005602052805f5260405f205f91509050805f01805461048c90610a3b565b80601f01602080910402602001604051908101604052809291908181526020018280546104b890610a3b565b80156105035780601f106104da57610100808354040283529160200191610503565b820191905f5260205f20905b8154815290600101906020018083116104e657829003601f168201915b50505050509080600101805461051890610a3b565b80601f016020809104026020016040519081016040528092919081815260200182805461054490610a3b565b801561058f5780601f106105665761010080835404028352916020019161058f565b820191905f5260205f20905b81548152906001019060200180831161057257829003601f168201915b5050505050908060020180546105a490610a3b565b80601f01602080910402602001604051908101604052809291908181526020018280546105d090610a3b565b801561061b5780601f106105f25761010080835404028352916020019161061b565b820191905f5260205f20905b8154815290600101906020018083116105fe57829003601f168201915b505050505090806003015490806004015490806005015f9054906101000a900460ff16908060060154905087565b60015f9054906101000a900473ffffffffffffffffffffffffffffffffffffffff1681565b5f80fd5b5f819050919050565b61068481610672565b811461068e575f80fd5b50565b5f8135905061069f8161067b565b92915050565b5f602082840312156106ba576106b961066e565b5b5f6106c784828501610691565b91505092915050565b5f73ffffffffffffffffffffffffffffffffffffffff82169050919050565b5f6106f9826106d0565b9050919050565b610709816106ef565b82525050565b5f81519050919050565b5f82825260208201905092915050565b8281835e5f83830152505050565b5f601f19601f8301169050919050565b5f6107518261070f565b61075b8185610719565b935061076b818560208601610729565b61077481610737565b840191505092915050565b61078881610672565b82525050565b5f60ff82169050919050565b6107a38161078e565b82525050565b5f60c0820190506107bc5f830189610700565b81810360208301526107ce8188610747565b90506107dd604083018761077f565b6107ea606083018661077f565b6107f7608083018561077f565b61080460a083018461079a565b979650505050505050565b5f63ffffffff82169050919050565b6108278161080f565b82525050565b5f6020820190506108405f83018461081e565b92915050565b5f6020820190506108595f83018461077f565b92915050565b7f4e487b71000000000000000000000000000000000000000000000000000000005f52602160045260245ffd5b6005811061089d5761089c61085f565b5b50565b5f8190506108ad8261088c565b919050565b5f6108bc826108a0565b9050919050565b6108cc816108b2565b82525050565b5f6020820190506108e55f8301846108c3565b92915050565b5f6020820190506108fe5f830184610700565b92915050565b5f6020820190506109175f83018461079a565b92915050565b610926816106ef565b8114610930575f80fd5b50565b5f813590506109418161091d565b92915050565b5f6020828403121561095c5761095b61066e565b5b5f61096984828501610933565b91505092915050565b5f8115159050919050565b61098681610972565b82525050565b5f60e0820190508181035f8301526109a4818a610747565b905081810360208301526109b88189610747565b905081810360408301526109cc8188610747565b90506109db606083018761077f565b6109e8608083018661077f565b6109f560a083018561097d565b610a0260c083018461077f565b98975050505050505050565b7f4e487b71000000000000000000000000000000000000000000000000000000005f52602260045260245ffd5b5f6002820490506001821680610a5257607f821691505b602082108103610a6557610a64610a0e565b5b50919050565b7f4e487b71000000000000000000000000000000000000000000000000000000005f52601160045260245ffd5b5f610aa282610672565b9150610aad83610672565b9250828203905081811115610ac557610ac4610a6b565b5b92915050565b5f610ad58261078e565b9150610ae08361078e565b9250828202610aee8161078e565b9150808214610b0057610aff610a6b565b5b5092915050565b5f610b1182610672565b9150610b1c83610672565b9250828201905080821115610b3457610b33610a6b565b5b9291505056fea264697066735822122079dab08edcfe4e18193e4785c81748e32c12cd4ac27c0026a0548ce76de0264264736f6c634300081a0033",
					"opcodes": "PUSH1 0xA0 PUSH1 0x40 MSTORE CALLVALUE DUP1 ISZERO PUSH2 0xF JUMPI PUSH0 DUP1 REVERT JUMPDEST POP PUSH1 0x40 MLOAD PUSH2 0x1218 CODESIZE SUB DUP1 PUSH2 0x1218 DUP4 CODECOPY DUP2 DUP2 ADD PUSH1 0x40 MSTORE DUP2 ADD SWAP1 PUSH2 0x31 SWAP2 SWAP1 PUSH2 0x2FA JUMP JUMPDEST DUP2 PUSH1 0x1 PUSH0 PUSH2 0x100 EXP DUP2 SLOAD DUP2 PUSH20 0xFFFFFFFFFFFFFFFFFFFFFFFFFFFFFFFFFFFFFFFF MUL NOT AND SWAP1 DUP4 PUSH20 0xFFFFFFFFFFFFFFFFFFFFFFFFFFFFFFFFFFFFFFFF AND MUL OR SWAP1 SSTORE POP TIMESTAMP PUSH1 0x80 DUP2 DUP2 MSTORE POP POP PUSH1 0x1 PUSH3 0x127500 PUSH1 0x80 MLOAD PUSH2 0x8C SWAP2 SWAP1 PUSH2 0x38A JUMP JUMPDEST PUSH2 0x96 SWAP2 SWAP1 PUSH2 0x38A JUMP JUMPDEST PUSH0 DUP2 SWAP1 SSTORE POP PUSH0 PUSH1 0x3 PUSH1 0x1 DUP2 PUSH1 0x1 DUP2 SLOAD ADD DUP1 DUP3 SSTORE DUP1 SWAP2 POP POP SUB SWAP1 PUSH0 MSTORE PUSH1 0x20 PUSH0 KECCAK256 SWAP1 PUSH1 0x7 MUL ADD SWAP1 POP CALLER DUP2 PUSH0 ADD PUSH0 PUSH2 0x100 EXP DUP2 SLOAD DUP2 PUSH20 0xFFFFFFFFFFFFFFFFFFFFFFFFFFFFFFFFFFFFFFFF MUL NOT AND SWAP1 DUP4 PUSH20 0xFFFFFFFFFFFFFFFFFFFFFFFFFFFFFFFFFFFFFFFF AND MUL OR SWAP1 SSTORE POP DUP2 DUP2 PUSH1 0x1 ADD SWAP1 DUP2 PUSH2 0x10E SWAP2 SWAP1 PUSH2 0x5C1 JUMP JUMPDEST POP PUSH1 0x80 MLOAD DUP2 PUSH1 0x2 ADD DUP2 SWAP1 SSTORE POP PUSH1 0x80 MLOAD DUP2 PUSH1 0x3 ADD DUP2 SWAP1 SSTORE POP PUSH0 DUP2 PUSH1 0x4 ADD DUP2 SWAP1 SSTORE POP PUSH1 0x32 DUP2 PUSH1 0x5 ADD PUSH0 PUSH2 0x100 EXP DUP2 SLOAD DUP2 PUSH1 0xFF MUL NOT AND SWAP1 DUP4 PUSH1 0xFF AND MUL OR SWAP1 SSTORE POP POP POP POP PUSH2 0x690 JUMP JUMPDEST PUSH0 PUSH1 0x40 MLOAD SWAP1 POP SWAP1 JUMP JUMPDEST PUSH0 DUP1 REVERT JUMPDEST PUSH0 DUP1 REVERT JUMPDEST PUSH0 PUSH20 0xFFFFFFFFFFFFFFFFFFFFFFFFFFFFFFFFFFFFFFFF DUP3 AND SWAP1 POP SWAP2 SWAP1 POP JUMP JUMPDEST PUSH0 PUSH2 0x18D DUP3 PUSH2 0x164 JUMP JUMPDEST SWAP1 POP SWAP2 SWAP1 POP JUMP JUMPDEST PUSH2 0x19D DUP2 PUSH2 0x183 JUMP JUMPDEST DUP2 EQ PUSH2 0x1A7 JUMPI PUSH0 DUP1 REVERT JUMPDEST POP JUMP JUMPDEST PUSH0 DUP2 MLOAD SWAP1 POP PUSH2 0x1B8 DUP2 PUSH2 0x194 JUMP JUMPDEST SWAP3 SWAP2 POP POP JUMP JUMPDEST PUSH0 DUP1 REVERT JUMPDEST PUSH0 DUP1 REVERT JUMPDEST PUSH0 PUSH1 0x1F NOT PUSH1 0x1F DUP4 ADD AND SWAP1 POP SWAP2 SWAP1 POP JUMP JUMPDEST PUSH32 0x4E487B7100000000000000000000000000000000000000000000000000000000 PUSH0 MSTORE PUSH1 0x41 PUSH1 0x4 MSTORE PUSH1 0x24 PUSH0 REVERT JUMPDEST PUSH2 0x20C DUP3 PUSH2 0x1C6 JUMP JUMPDEST DUP2 ADD DUP2 DUP2 LT PUSH8 0xFFFFFFFFFFFFFFFF DUP3 GT OR ISZERO PUSH2 0x22B JUMPI PUSH2 0x22A PUSH2 0x1D6 JUMP JUMPDEST JUMPDEST DUP1 PUSH1 0x40 MSTORE POP POP POP JUMP JUMPDEST PUSH0 PUSH2 0x23D PUSH2 0x153 JUMP JUMPDEST SWAP1 POP PUSH2 0x249 DUP3 DUP3 PUSH2 0x203 JUMP JUMPDEST SWAP2 SWAP1 POP JUMP JUMPDEST PUSH0 PUSH8 0xFFFFFFFFFFFFFFFF DUP3 GT ISZERO PUSH2 0x268 JUMPI PUSH2 0x267 PUSH2 0x1D6 JUMP JUMPDEST JUMPDEST PUSH2 0x271 DUP3 PUSH2 0x1C6 JUMP JUMPDEST SWAP1 POP PUSH1 0x20 DUP2 ADD SWAP1 POP SWAP2 SWAP1 POP JUMP JUMPDEST DUP3 DUP2 DUP4 MCOPY PUSH0 DUP4 DUP4 ADD MSTORE POP POP POP JUMP JUMPDEST PUSH0 PUSH2 0x29E PUSH2 0x299 DUP5 PUSH2 0x24E JUMP JUMPDEST PUSH2 0x234 JUMP JUMPDEST SWAP1 POP DUP3 DUP2 MSTORE PUSH1 0x20 DUP2 ADD DUP5 DUP5 DUP5 ADD GT ISZERO PUSH2 0x2BA JUMPI PUSH2 0x2B9 PUSH2 0x1C2 JUMP JUMPDEST JUMPDEST PUSH2 0x2C5 DUP5 DUP3 DUP6 PUSH2 0x27E JUMP JUMPDEST POP SWAP4 SWAP3 POP POP POP JUMP JUMPDEST PUSH0 DUP3 PUSH1 0x1F DUP4 ADD SLT PUSH2 0x2E1 JUMPI PUSH2 0x2E0 PUSH2 0x1BE JUMP JUMPDEST JUMPDEST DUP2 MLOAD PUSH2 0x2F1 DUP5 DUP3 PUSH1 0x20 DUP7 ADD PUSH2 0x28C JUMP JUMPDEST SWAP2 POP POP SWAP3 SWAP2 POP POP JUMP JUMPDEST PUSH0 DUP1 PUSH1 0x40 DUP4 DUP6 SUB SLT ISZERO PUSH2 0x310 JUMPI PUSH2 0x30F PUSH2 0x15C JUMP JUMPDEST JUMPDEST PUSH0 PUSH2 0x31D DUP6 DUP3 DUP7 ADD PUSH2 0x1AA JUMP JUMPDEST SWAP3 POP POP PUSH1 0x20 DUP4 ADD MLOAD PUSH8 0xFFFFFFFFFFFFFFFF DUP2 GT ISZERO PUSH2 0x33E JUMPI PUSH2 0x33D PUSH2 0x160 JUMP JUMPDEST JUMPDEST PUSH2 0x34A DUP6 DUP3 DUP7 ADD PUSH2 0x2CD JUMP JUMPDEST SWAP2 POP POP SWAP3 POP SWAP3 SWAP1 POP JUMP JUMPDEST PUSH0 DUP2 SWAP1 POP SWAP2 SWAP1 POP JUMP JUMPDEST PUSH32 0x4E487B7100000000000000000000000000000000000000000000000000000000 PUSH0 MSTORE PUSH1 0x11 PUSH1 0x4 MSTORE PUSH1 0x24 PUSH0 REVERT JUMPDEST PUSH0 PUSH2 0x394 DUP3 PUSH2 0x354 JUMP JUMPDEST SWAP2 POP PUSH2 0x39F DUP4 PUSH2 0x354 JUMP JUMPDEST SWAP3 POP DUP3 DUP3 ADD SWAP1 POP DUP1 DUP3 GT ISZERO PUSH2 0x3B7 JUMPI PUSH2 0x3B6 PUSH2 0x35D JUMP JUMPDEST JUMPDEST SWAP3 SWAP2 POP POP JUMP JUMPDEST PUSH0 DUP2 MLOAD SWAP1 POP SWAP2 SWAP1 POP JUMP JUMPDEST PUSH32 0x4E487B7100000000000000000000000000000000000000000000000000000000 PUSH0 MSTORE PUSH1 0x22 PUSH1 0x4 MSTORE PUSH1 0x24 PUSH0 REVERT JUMPDEST PUSH0 PUSH1 0x2 DUP3 DIV SWAP1 POP PUSH1 0x1 DUP3 AND DUP1 PUSH2 0x40B JUMPI PUSH1 0x7F DUP3 AND SWAP2 POP JUMPDEST PUSH1 0x20 DUP3 LT DUP2 SUB PUSH2 0x41E JUMPI PUSH2 0x41D PUSH2 0x3C7 JUMP JUMPDEST JUMPDEST POP SWAP2 SWAP1 POP JUMP JUMPDEST PUSH0 DUP2 SWAP1 POP DUP2 PUSH0 MSTORE PUSH1 0x20 PUSH0 KECCAK256 SWAP1 POP SWAP2 SWAP1 POP JUMP JUMPDEST PUSH0 PUSH1 0x20 PUSH1 0x1F DUP4 ADD DIV SWAP1 POP SWAP2 SWAP1 POP JUMP JUMPDEST PUSH0 DUP3 DUP3 SHL SWAP1 POP SWAP3 SWAP2 POP POP JUMP JUMPDEST PUSH0 PUSH1 0x8 DUP4 MUL PUSH2 0x480 PUSH32 0xFFFFFFFFFFFFFFFFFFFFFFFFFFFFFFFFFFFFFFFFFFFFFFFFFFFFFFFFFFFFFFFF DUP3 PUSH2 0x445 JUMP JUMPDEST PUSH2 0x48A DUP7 DUP4 PUSH2 0x445 JUMP JUMPDEST SWAP6 POP DUP1 NOT DUP5 AND SWAP4 POP DUP1 DUP7 AND DUP5 OR SWAP3 POP POP POP SWAP4 SWAP3 POP POP POP JUMP JUMPDEST PUSH0 DUP2 SWAP1 POP SWAP2 SWAP1 POP JUMP JUMPDEST PUSH0 PUSH2 0x4C5 PUSH2 0x4C0 PUSH2 0x4BB DUP5 PUSH2 0x354 JUMP JUMPDEST PUSH2 0x4A2 JUMP JUMPDEST PUSH2 0x354 JUMP JUMPDEST SWAP1 POP SWAP2 SWAP1 POP JUMP JUMPDEST PUSH0 DUP2 SWAP1 POP SWAP2 SWAP1 POP JUMP JUMPDEST PUSH2 0x4DE DUP4 PUSH2 0x4AB JUMP JUMPDEST PUSH2 0x4F2 PUSH2 0x4EA DUP3 PUSH2 0x4CC JUMP JUMPDEST DUP5 DUP5 SLOAD PUSH2 0x451 JUMP JUMPDEST DUP3 SSTORE POP POP POP POP JUMP JUMPDEST PUSH0 SWAP1 JUMP JUMPDEST PUSH2 0x506 PUSH2 0x4FA JUMP JUMPDEST PUSH2 0x511 DUP2 DUP5 DUP5 PUSH2 0x4D5 JUMP JUMPDEST POP POP POP JUMP JUMPDEST JUMPDEST DUP2 DUP2 LT ISZERO PUSH2 0x534 JUMPI PUSH2 0x529 PUSH0 DUP3 PUSH2 0x4FE JUMP JUMPDEST PUSH1 0x1 DUP2 ADD SWAP1 POP PUSH2 0x517 JUMP JUMPDEST POP POP JUMP JUMPDEST PUSH1 0x1F DUP3 GT ISZERO PUSH2 0x579 JUMPI PUSH2 0x54A DUP2 PUSH2 0x424 JUMP JUMPDEST PUSH2 0x553 DUP5 PUSH2 0x436 JUMP JUMPDEST DUP2 ADD PUSH1 0x20 DUP6 LT ISZERO PUSH2 0x562 JUMPI DUP2 SWAP1 POP JUMPDEST PUSH2 0x576 PUSH2 0x56E DUP6 PUSH2 0x436 JUMP JUMPDEST DUP4 ADD DUP3 PUSH2 0x516 JUMP JUMPDEST POP POP JUMPDEST POP POP POP JUMP JUMPDEST PUSH0 DUP3 DUP3 SHR SWAP1 POP SWAP3 SWAP2 POP POP JUMP JUMPDEST PUSH0 PUSH2 0x599 PUSH0 NOT DUP5 PUSH1 0x8 MUL PUSH2 0x57E JUMP JUMPDEST NOT DUP1 DUP4 AND SWAP2 POP POP SWAP3 SWAP2 POP POP JUMP JUMPDEST PUSH0 PUSH2 0x5B1 DUP4 DUP4 PUSH2 0x58A JUMP JUMPDEST SWAP2 POP DUP3 PUSH1 0x2 MUL DUP3 OR SWAP1 POP SWAP3 SWAP2 POP POP JUMP JUMPDEST PUSH2 0x5CA DUP3 PUSH2 0x3BD JUMP JUMPDEST PUSH8 0xFFFFFFFFFFFFFFFF DUP2 GT ISZERO PUSH2 0x5E3 JUMPI PUSH2 0x5E2 PUSH2 0x1D6 JUMP JUMPDEST JUMPDEST PUSH2 0x5ED DUP3 SLOAD PUSH2 0x3F4 JUMP JUMPDEST PUSH2 0x5F8 DUP3 DUP3 DUP6 PUSH2 0x538 JUMP JUMPDEST PUSH0 PUSH1 0x20 SWAP1 POP PUSH1 0x1F DUP4 GT PUSH1 0x1 DUP2 EQ PUSH2 0x629 JUMPI PUSH0 DUP5 ISZERO PUSH2 0x617 JUMPI DUP3 DUP8 ADD MLOAD SWAP1 POP JUMPDEST PUSH2 0x621 DUP6 DUP3 PUSH2 0x5A6 JUMP JUMPDEST DUP7 SSTORE POP PUSH2 0x688 JUMP JUMPDEST PUSH1 0x1F NOT DUP5 AND PUSH2 0x637 DUP7 PUSH2 0x424 JUMP JUMPDEST PUSH0 JUMPDEST DUP3 DUP2 LT ISZERO PUSH2 0x65E JUMPI DUP5 DUP10 ADD MLOAD DUP3 SSTORE PUSH1 0x1 DUP3 ADD SWAP2 POP PUSH1 0x20 DUP6 ADD SWAP5 POP PUSH1 0x20 DUP2 ADD SWAP1 POP PUSH2 0x639 JUMP JUMPDEST DUP7 DUP4 LT ISZERO PUSH2 0x67B JUMPI DUP5 DUP10 ADD MLOAD PUSH2 0x677 PUSH1 0x1F DUP10 AND DUP3 PUSH2 0x58A JUMP JUMPDEST DUP4 SSTORE POP JUMPDEST PUSH1 0x1 PUSH1 0x2 DUP9 MUL ADD DUP9 SSTORE POP POP POP JUMPDEST POP POP POP POP POP POP JUMP JUMPDEST PUSH1 0x80 MLOAD PUSH2 0xB70 PUSH2 0x6A8 PUSH0 CODECOPY PUSH0 PUSH2 0x33D ADD MSTORE PUSH2 0xB70 PUSH0 RETURN INVALID PUSH1 0x80 PUSH1 0x40 MSTORE CALLVALUE DUP1 ISZERO PUSH2 0xF JUMPI PUSH0 DUP1 REVERT JUMPDEST POP PUSH1 0x4 CALLDATASIZE LT PUSH2 0xA7 JUMPI PUSH0 CALLDATALOAD PUSH1 0xE0 SHR DUP1 PUSH4 0xB0FEB260 GT PUSH2 0x6F JUMPI DUP1 PUSH4 0xB0FEB260 EQ PUSH2 0x158 JUMPI DUP1 PUSH4 0xB13C744B EQ PUSH2 0x176 JUMPI DUP1 PUSH4 0xCE7EA161 EQ PUSH2 0x1A6 JUMPI DUP1 PUSH4 0xE292BF16 EQ PUSH2 0x1C4 JUMPI DUP1 PUSH4 0xE965B7C9 EQ PUSH2 0x1E2 JUMPI DUP1 PUSH4 0xF10FB584 EQ PUSH2 0x218 JUMPI PUSH2 0xA7 JUMP JUMPDEST DUP1 PUSH4 0x28BDCDE8 EQ PUSH2 0xAB JUMPI DUP1 PUSH4 0x3DEF77B7 EQ PUSH2 0xE0 JUMPI DUP1 PUSH4 0x47F7B722 EQ PUSH2 0xFE JUMPI DUP1 PUSH4 0x78E97925 EQ PUSH2 0x11C JUMPI DUP1 PUSH4 0xA3A40EA5 EQ PUSH2 0x13A JUMPI JUMPDEST PUSH0 DUP1 REVERT JUMPDEST PUSH2 0xC5 PUSH1 0x4 DUP1 CALLDATASIZE SUB DUP2 ADD SWAP1 PUSH2 0xC0 SWAP2 SWAP1 PUSH2 0x6A5 JUMP JUMPDEST PUSH2 0x236 JUMP JUMPDEST PUSH1 0x40 MLOAD PUSH2 0xD7 SWAP7 SWAP6 SWAP5 SWAP4 SWAP3 SWAP2 SWAP1 PUSH2 0x7A9 JUMP JUMPDEST PUSH1 0x40 MLOAD DUP1 SWAP2 SUB SWAP1 RETURN JUMPDEST PUSH2 0xE8 PUSH2 0x32E JUMP JUMPDEST PUSH1 0x40 MLOAD PUSH2 0xF5 SWAP2 SWAP1 PUSH2 0x82D JUMP JUMPDEST PUSH1 0x40 MLOAD DUP1 SWAP2 SUB SWAP1 RETURN JUMPDEST PUSH2 0x106 PUSH2 0x334 JUMP JUMPDEST PUSH1 0x40 MLOAD PUSH2 0x113 SWAP2 SWAP1 PUSH2 0x846 JUMP JUMPDEST PUSH1 0x40 MLOAD DUP1 SWAP2 SUB SWAP1 RETURN JUMPDEST PUSH2 0x124 PUSH2 0x33B JUMP JUMPDEST PUSH1 0x40 MLOAD PUSH2 0x131 SWAP2 SWAP1 PUSH2 0x846 JUMP JUMPDEST PUSH1 0x40 MLOAD DUP1 SWAP2 SUB SWAP1 RETURN JUMPDEST PUSH2 0x142 PUSH2 0x35F JUMP JUMPDEST PUSH1 0x40 MLOAD PUSH2 0x14F SWAP2 SWAP1 PUSH2 0x8D2 JUMP JUMPDEST PUSH1 0x40 MLOAD DUP1 SWAP2 SUB SWAP1 RETURN JUMPDEST PUSH2 0x160 PUSH2 0x422 JUMP JUMPDEST PUSH1 0x40 MLOAD PUSH2 0x16D SWAP2 SWAP1 PUSH2 0x846 JUMP JUMPDEST PUSH1 0x40 MLOAD DUP1 SWAP2 SUB SWAP1 RETURN JUMPDEST PUSH2 0x190 PUSH1 0x4 DUP1 CALLDATASIZE SUB DUP2 ADD SWAP1 PUSH2 0x18B SWAP2 SWAP1 PUSH2 0x6A5 JUMP JUMPDEST PUSH2 0x428 JUMP JUMPDEST PUSH1 0x40 MLOAD PUSH2 0x19D SWAP2 SWAP1 PUSH2 0x8EB JUMP JUMPDEST PUSH1 0x40 MLOAD DUP1 SWAP2 SUB SWAP1 RETURN JUMPDEST PUSH2 0x1AE PUSH2 0x463 JUMP JUMPDEST PUSH1 0x40 MLOAD PUSH2 0x1BB SWAP2 SWAP1 PUSH2 0x846 JUMP JUMPDEST PUSH1 0x40 MLOAD DUP1 SWAP2 SUB SWAP1 RETURN JUMPDEST PUSH2 0x1CC PUSH2 0x468 JUMP JUMPDEST PUSH1 0x40 MLOAD PUSH2 0x1D9 SWAP2 SWAP1 PUSH2 0x904 JUMP JUMPDEST PUSH1 0x40 MLOAD DUP1 SWAP2 SUB SWAP1 RETURN JUMPDEST PUSH2 0x1FC PUSH1 0x4 DUP1 CALLDATASIZE SUB DUP2 ADD SWAP1 PUSH2 0x1F7 SWAP2 SWAP1 PUSH2 0x947 JUMP JUMPDEST PUSH2 0x46D JUMP JUMPDEST PUSH1 0x40 MLOAD PUSH2 0x20F SWAP8 SWAP7 SWAP6 SWAP5 SWAP4 SWAP3 SWAP2 SWAP1 PUSH2 0x98C JUMP JUMPDEST PUSH1 0x40 MLOAD DUP1 SWAP2 SUB SWAP1 RETURN JUMPDEST PUSH2 0x220 PUSH2 0x649 JUMP JUMPDEST PUSH1 0x40 MLOAD PUSH2 0x22D SWAP2 SWAP1 PUSH2 0x8EB JUMP JUMPDEST PUSH1 0x40 MLOAD DUP1 SWAP2 SUB SWAP1 RETURN JUMPDEST PUSH1 0x3 DUP2 DUP2 SLOAD DUP2 LT PUSH2 0x245 JUMPI PUSH0 DUP1 REVERT JUMPDEST SWAP1 PUSH0 MSTORE PUSH1 0x20 PUSH0 KECCAK256 SWAP1 PUSH1 0x7 MUL ADD PUSH0 SWAP2 POP SWAP1 POP DUP1 PUSH0 ADD PUSH0 SWAP1 SLOAD SWAP1 PUSH2 0x100 EXP SWAP1 DIV PUSH20 0xFFFFFFFFFFFFFFFFFFFFFFFFFFFFFFFFFFFFFFFF AND SWAP1 DUP1 PUSH1 0x1 ADD DUP1 SLOAD PUSH2 0x289 SWAP1 PUSH2 0xA3B JUMP JUMPDEST DUP1 PUSH1 0x1F ADD PUSH1 0x20 DUP1 SWAP2 DIV MUL PUSH1 0x20 ADD PUSH1 0x40 MLOAD SWAP1 DUP2 ADD PUSH1 0x40 MSTORE DUP1 SWAP3 SWAP2 SWAP1 DUP2 DUP2 MSTORE PUSH1 0x20 ADD DUP3 DUP1 SLOAD PUSH2 0x2B5 SWAP1 PUSH2 0xA3B JUMP JUMPDEST DUP1 ISZERO PUSH2 0x300 JUMPI DUP1 PUSH1 0x1F LT PUSH2 0x2D7 JUMPI PUSH2 0x100 DUP1 DUP4 SLOAD DIV MUL DUP4 MSTORE SWAP2 PUSH1 0x20 ADD SWAP2 PUSH2 0x300 JUMP JUMPDEST DUP3 ADD SWAP2 SWAP1 PUSH0 MSTORE PUSH1 0x20 PUSH0 KECCAK256 SWAP1 JUMPDEST DUP2 SLOAD DUP2 MSTORE SWAP1 PUSH1 0x1 ADD SWAP1 PUSH1 0x20 ADD DUP1 DUP4 GT PUSH2 0x2E3 JUMPI DUP3 SWAP1 SUB PUSH1 0x1F AND DUP3 ADD SWAP2 JUMPDEST POP POP POP POP POP SWAP1 DUP1 PUSH1 0x2 ADD SLOAD SWAP1 DUP1 PUSH1 0x3 ADD SLOAD SWAP1 DUP1 PUSH1 0x4 ADD SLOAD SWAP1 DUP1 PUSH1 0x5 ADD PUSH0 SWAP1 SLOAD SWAP1 PUSH2 0x100 EXP SWAP1 DIV PUSH1 0xFF AND SWAP1 POP DUP7 JUMP JUMPDEST PUSH2 0x3E8 DUP2 JUMP JUMPDEST PUSH3 0x127500 DUP2 JUMP JUMPDEST PUSH32 0x0 DUP2 JUMP JUMPDEST PUSH0 PUSH3 0x15180 PUSH0 SLOAD PUSH2 0x370 SWAP2 SWAP1 PUSH2 0xA98 JUMP JUMPDEST TIMESTAMP LT ISZERO PUSH2 0x37F JUMPI PUSH0 SWAP1 POP PUSH2 0x41F JUMP JUMPDEST PUSH0 SLOAD TIMESTAMP LT ISZERO PUSH2 0x3F5 JUMPI PUSH1 0x32 PUSH1 0x2 PUSH2 0x396 SWAP2 SWAP1 PUSH2 0xACB JUMP JUMPDEST PUSH1 0xFF AND PUSH1 0x2 DUP1 SLOAD SWAP1 POP LT DUP1 PUSH2 0x3CA JUMPI POP PUSH2 0x3E8 PUSH4 0xFFFFFFFF AND PUSH1 0x1 PUSH1 0x14 SWAP1 SLOAD SWAP1 PUSH2 0x100 EXP SWAP1 DIV PUSH4 0xFFFFFFFF AND PUSH4 0xFFFFFFFF AND LT JUMPDEST ISZERO PUSH2 0x3EC JUMPI PUSH3 0x127500 PUSH0 SLOAD PUSH2 0x3DF SWAP2 SWAP1 PUSH2 0xB07 JUMP JUMPDEST PUSH0 DUP2 SWAP1 SSTORE POP PUSH0 SWAP1 POP PUSH2 0x41F JUMP JUMPDEST PUSH1 0x1 SWAP1 POP PUSH2 0x41F JUMP JUMPDEST PUSH0 PUSH1 0x4 SLOAD SUB PUSH2 0x407 JUMPI PUSH1 0x2 SWAP1 POP PUSH2 0x41F JUMP JUMPDEST PUSH1 0x4 SLOAD TIMESTAMP LT ISZERO PUSH2 0x41A JUMPI PUSH1 0x3 SWAP1 POP PUSH2 0x41F JUMP JUMPDEST PUSH1 0x4 SWAP1 POP JUMPDEST SWAP1 JUMP JUMPDEST PUSH1 0x4 SLOAD DUP2 JUMP JUMPDEST PUSH1 0x2 DUP2 DUP2 SLOAD DUP2 LT PUSH2 0x437 JUMPI PUSH0 DUP1 REVERT JUMPDEST SWAP1 PUSH0 MSTORE PUSH1 0x20 PUSH0 KECCAK256 ADD PUSH0 SWAP2 POP SLOAD SWAP1 PUSH2 0x100 EXP SWAP1 DIV PUSH20 0xFFFFFFFFFFFFFFFFFFFFFFFFFFFFFFFFFFFFFFFF AND DUP2 JUMP JUMPDEST PUSH0 SLOAD DUP2 JUMP JUMPDEST PUSH1 0x32 DUP2 JUMP JUMPDEST PUSH1 0x5 PUSH1 0x20 MSTORE DUP1 PUSH0 MSTORE PUSH1 0x40 PUSH0 KECCAK256 PUSH0 SWAP2 POP SWAP1 POP DUP1 PUSH0 ADD DUP1 SLOAD PUSH2 0x48C SWAP1 PUSH2 0xA3B JUMP JUMPDEST DUP1 PUSH1 0x1F ADD PUSH1 0x20 DUP1 SWAP2 DIV MUL PUSH1 0x20 ADD PUSH1 0x40 MLOAD SWAP1 DUP2 ADD PUSH1 0x40 MSTORE DUP1 SWAP3 SWAP2 SWAP1 DUP2 DUP2 MSTORE PUSH1 0x20 ADD DUP3 DUP1 SLOAD PUSH2 0x4B8 SWAP1 PUSH2 0xA3B JUMP JUMPDEST DUP1 ISZERO PUSH2 0x503 JUMPI DUP1 PUSH1 0x1F LT PUSH2 0x4DA JUMPI PUSH2 0x100 DUP1 DUP4 SLOAD DIV MUL DUP4 MSTORE SWAP2 PUSH1 0x20 ADD SWAP2 PUSH2 0x503 JUMP JUMPDEST DUP3 ADD SWAP2 SWAP1 PUSH0 MSTORE PUSH1 0x20 PUSH0 KECCAK256 SWAP1 JUMPDEST DUP2 SLOAD DUP2 MSTORE SWAP1 PUSH1 0x1 ADD SWAP1 PUSH1 0x20 ADD DUP1 DUP4 GT PUSH2 0x4E6 JUMPI DUP3 SWAP1 SUB PUSH1 0x1F AND DUP3 ADD SWAP2 JUMPDEST POP POP POP POP POP SWAP1 DUP1 PUSH1 0x1 ADD DUP1 SLOAD PUSH2 0x518 SWAP1 PUSH2 0xA3B JUMP JUMPDEST DUP1 PUSH1 0x1F ADD PUSH1 0x20 DUP1 SWAP2 DIV MUL PUSH1 0x20 ADD PUSH1 0x40 MLOAD SWAP1 DUP2 ADD PUSH1 0x40 MSTORE DUP1 SWAP3 SWAP2 SWAP1 DUP2 DUP2 MSTORE PUSH1 0x20 ADD DUP3 DUP1 SLOAD PUSH2 0x544 SWAP1 PUSH2 0xA3B JUMP JUMPDEST DUP1 ISZERO PUSH2 0x58F JUMPI DUP1 PUSH1 0x1F LT PUSH2 0x566 JUMPI PUSH2 0x100 DUP1 DUP4 SLOAD DIV MUL DUP4 MSTORE SWAP2 PUSH1 0x20 ADD SWAP2 PUSH2 0x58F JUMP JUMPDEST DUP3 ADD SWAP2 SWAP1 PUSH0 MSTORE PUSH1 0x20 PUSH0 KECCAK256 SWAP1 JUMPDEST DUP2 SLOAD DUP2 MSTORE SWAP1 PUSH1 0x1 ADD SWAP1 PUSH1 0x20 ADD DUP1 DUP4 GT PUSH2 0x572 JUMPI DUP3 SWAP1 SUB PUSH1 0x1F AND DUP3 ADD SWAP2 JUMPDEST POP POP POP POP POP SWAP1 DUP1 PUSH1 0x2 ADD DUP1 SLOAD PUSH2 0x5A4 SWAP1 PUSH2 0xA3B JUMP JUMPDEST DUP1 PUSH1 0x1F ADD PUSH1 0x20 DUP1 SWAP2 DIV MUL PUSH1 0x20 ADD PUSH1 0x40 MLOAD SWAP1 DUP2 ADD PUSH1 0x40 MSTORE DUP1 SWAP3 SWAP2 SWAP1 DUP2 DUP2 MSTORE PUSH1 0x20 ADD DUP3 DUP1 SLOAD PUSH2 0x5D0 SWAP1 PUSH2 0xA3B JUMP JUMPDEST DUP1 ISZERO PUSH2 0x61B JUMPI DUP1 PUSH1 0x1F LT PUSH2 0x5F2 JUMPI PUSH2 0x100 DUP1 DUP4 SLOAD DIV MUL DUP4 MSTORE SWAP2 PUSH1 0x20 ADD SWAP2 PUSH2 0x61B JUMP JUMPDEST DUP3 ADD SWAP2 SWAP1 PUSH0 MSTORE PUSH1 0x20 PUSH0 KECCAK256 SWAP1 JUMPDEST DUP2 SLOAD DUP2 MSTORE SWAP1 PUSH1 0x1 ADD SWAP1 PUSH1 0x20 ADD DUP1 DUP4 GT PUSH2 0x5FE JUMPI DUP3 SWAP1 SUB PUSH1 0x1F AND DUP3 ADD SWAP2 JUMPDEST POP POP POP POP POP SWAP1 DUP1 PUSH1 0x3 ADD SLOAD SWAP1 DUP1 PUSH1 0x4 ADD SLOAD SWAP1 DUP1 PUSH1 0x5 ADD PUSH0 SWAP1 SLOAD SWAP1 PUSH2 0x100 EXP SWAP1 DIV PUSH1 0xFF AND SWAP1 DUP1 PUSH1 0x6 ADD SLOAD SWAP1 POP DUP8 JUMP JUMPDEST PUSH1 0x1 PUSH0 SWAP1 SLOAD SWAP1 PUSH2 0x100 EXP SWAP1 DIV PUSH20 0xFFFFFFFFFFFFFFFFFFFFFFFFFFFFFFFFFFFFFFFF AND DUP2 JUMP JUMPDEST PUSH0 DUP1 REVERT JUMPDEST PUSH0 DUP2 SWAP1 POP SWAP2 SWAP1 POP JUMP JUMPDEST PUSH2 0x684 DUP2 PUSH2 0x672 JUMP JUMPDEST DUP2 EQ PUSH2 0x68E JUMPI PUSH0 DUP1 REVERT JUMPDEST POP JUMP JUMPDEST PUSH0 DUP2 CALLDATALOAD SWAP1 POP PUSH2 0x69F DUP2 PUSH2 0x67B JUMP JUMPDEST SWAP3 SWAP2 POP POP JUMP JUMPDEST PUSH0 PUSH1 0x20 DUP3 DUP5 SUB SLT ISZERO PUSH2 0x6BA JUMPI PUSH2 0x6B9 PUSH2 0x66E JUMP JUMPDEST JUMPDEST PUSH0 PUSH2 0x6C7 DUP5 DUP3 DUP6 ADD PUSH2 0x691 JUMP JUMPDEST SWAP2 POP POP SWAP3 SWAP2 POP POP JUMP JUMPDEST PUSH0 PUSH20 0xFFFFFFFFFFFFFFFFFFFFFFFFFFFFFFFFFFFFFFFF DUP3 AND SWAP1 POP SWAP2 SWAP1 POP JUMP JUMPDEST PUSH0 PUSH2 0x6F9 DUP3 PUSH2 0x6D0 JUMP JUMPDEST SWAP1 POP SWAP2 SWAP1 POP JUMP JUMPDEST PUSH2 0x709 DUP2 PUSH2 0x6EF JUMP JUMPDEST DUP3 MSTORE POP POP JUMP JUMPDEST PUSH0 DUP2 MLOAD SWAP1 POP SWAP2 SWAP1 POP JUMP JUMPDEST PUSH0 DUP3 DUP3 MSTORE PUSH1 0x20 DUP3 ADD SWAP1 POP SWAP3 SWAP2 POP POP JUMP JUMPDEST DUP3 DUP2 DUP4 MCOPY PUSH0 DUP4 DUP4 ADD MSTORE POP POP POP JUMP JUMPDEST PUSH0 PUSH1 0x1F NOT PUSH1 0x1F DUP4 ADD AND SWAP1 POP SWAP2 SWAP1 POP JUMP JUMPDEST PUSH0 PUSH2 0x751 DUP3 PUSH2 0x70F JUMP JUMPDEST PUSH2 0x75B DUP2 DUP6 PUSH2 0x719 JUMP JUMPDEST SWAP4 POP PUSH2 0x76B DUP2 DUP6 PUSH1 0x20 DUP7 ADD PUSH2 0x729 JUMP JUMPDEST PUSH2 0x774 DUP2 PUSH2 0x737 JUMP JUMPDEST DUP5 ADD SWAP2 POP POP SWAP3 SWAP2 POP POP JUMP JUMPDEST PUSH2 0x788 DUP2 PUSH2 0x672 JUMP JUMPDEST DUP3 MSTORE POP POP JUMP JUMPDEST PUSH0 PUSH1 0xFF DUP3 AND SWAP1 POP SWAP2 SWAP1 POP JUMP JUMPDEST PUSH2 0x7A3 DUP2 PUSH2 0x78E JUMP JUMPDEST DUP3 MSTORE POP POP JUMP JUMPDEST PUSH0 PUSH1 0xC0 DUP3 ADD SWAP1 POP PUSH2 0x7BC PUSH0 DUP4 ADD DUP10 PUSH2 0x700 JUMP JUMPDEST DUP2 DUP2 SUB PUSH1 0x20 DUP4 ADD MSTORE PUSH2 0x7CE DUP2 DUP9 PUSH2 0x747 JUMP JUMPDEST SWAP1 POP PUSH2 0x7DD PUSH1 0x40 DUP4 ADD DUP8 PUSH2 0x77F JUMP JUMPDEST PUSH2 0x7EA PUSH1 0x60 DUP4 ADD DUP7 PUSH2 0x77F JUMP JUMPDEST PUSH2 0x7F7 PUSH1 0x80 DUP4 ADD DUP6 PUSH2 0x77F JUMP JUMPDEST PUSH2 0x804 PUSH1 0xA0 DUP4 ADD DUP5 PUSH2 0x79A JUMP JUMPDEST SWAP8 SWAP7 POP POP POP POP POP POP POP JUMP JUMPDEST PUSH0 PUSH4 0xFFFFFFFF DUP3 AND SWAP1 POP SWAP2 SWAP1 POP JUMP JUMPDEST PUSH2 0x827 DUP2 PUSH2 0x80F JUMP JUMPDEST DUP3 MSTORE POP POP JUMP JUMPDEST PUSH0 PUSH1 0x20 DUP3 ADD SWAP1 POP PUSH2 0x840 PUSH0 DUP4 ADD DUP5 PUSH2 0x81E JUMP JUMPDEST SWAP3 SWAP2 POP POP JUMP JUMPDEST PUSH0 PUSH1 0x20 DUP3 ADD SWAP1 POP PUSH2 0x859 PUSH0 DUP4 ADD DUP5 PUSH2 0x77F JUMP JUMPDEST SWAP3 SWAP2 POP POP JUMP JUMPDEST PUSH32 0x4E487B7100000000000000000000000000000000000000000000000000000000 PUSH0 MSTORE PUSH1 0x21 PUSH1 0x4 MSTORE PUSH1 0x24 PUSH0 REVERT JUMPDEST PUSH1 0x5 DUP2 LT PUSH2 0x89D JUMPI PUSH2 0x89C PUSH2 0x85F JUMP JUMPDEST JUMPDEST POP JUMP JUMPDEST PUSH0 DUP2 SWAP1 POP PUSH2 0x8AD DUP3 PUSH2 0x88C JUMP JUMPDEST SWAP2 SWAP1 POP JUMP JUMPDEST PUSH0 PUSH2 0x8BC DUP3 PUSH2 0x8A0 JUMP JUMPDEST SWAP1 POP SWAP2 SWAP1 POP JUMP JUMPDEST PUSH2 0x8CC DUP2 PUSH2 0x8B2 JUMP JUMPDEST DUP3 MSTORE POP POP JUMP JUMPDEST PUSH0 PUSH1 0x20 DUP3 ADD SWAP1 POP PUSH2 0x8E5 PUSH0 DUP4 ADD DUP5 PUSH2 0x8C3 JUMP JUMPDEST SWAP3 SWAP2 POP POP JUMP JUMPDEST PUSH0 PUSH1 0x20 DUP3 ADD SWAP1 POP PUSH2 0x8FE PUSH0 DUP4 ADD DUP5 PUSH2 0x700 JUMP JUMPDEST SWAP3 SWAP2 POP POP JUMP JUMPDEST PUSH0 PUSH1 0x20 DUP3 ADD SWAP1 POP PUSH2 0x917 PUSH0 DUP4 ADD DUP5 PUSH2 0x79A JUMP JUMPDEST SWAP3 SWAP2 POP POP JUMP JUMPDEST PUSH2 0x926 DUP2 PUSH2 0x6EF JUMP JUMPDEST DUP2 EQ PUSH2 0x930 JUMPI PUSH0 DUP1 REVERT JUMPDEST POP JUMP JUMPDEST PUSH0 DUP2 CALLDATALOAD SWAP1 POP PUSH2 0x941 DUP2 PUSH2 0x91D JUMP JUMPDEST SWAP3 SWAP2 POP POP JUMP JUMPDEST PUSH0 PUSH1 0x20 DUP3 DUP5 SUB SLT ISZERO PUSH2 0x95C JUMPI PUSH2 0x95B PUSH2 0x66E JUMP JUMPDEST JUMPDEST PUSH0 PUSH2 0x969 DUP5 DUP3 DUP6 ADD PUSH2 0x933 JUMP JUMPDEST SWAP2 POP POP SWAP3 SWAP2 POP POP JUMP JUMPDEST PUSH0 DUP2 ISZERO ISZERO SWAP1 POP SWAP2 SWAP1 POP JUMP JUMPDEST PUSH2 0x986 DUP2 PUSH2 0x972 JUMP JUMPDEST DUP3 MSTORE POP POP JUMP JUMPDEST PUSH0 PUSH1 0xE0 DUP3 ADD SWAP1 POP DUP2 DUP2 SUB PUSH0 DUP4 ADD MSTORE PUSH2 0x9A4 DUP2 DUP11 PUSH2 0x747 JUMP JUMPDEST SWAP1 POP DUP2 DUP2 SUB PUSH1 0x20 DUP4 ADD MSTORE PUSH2 0x9B8 DUP2 DUP10 PUSH2 0x747 JUMP JUMPDEST SWAP1 POP DUP2 DUP2 SUB PUSH1 0x40 DUP4 ADD MSTORE PUSH2 0x9CC DUP2 DUP9 PUSH2 0x747 JUMP JUMPDEST SWAP1 POP PUSH2 0x9DB PUSH1 0x60 DUP4 ADD DUP8 PUSH2 0x77F JUMP JUMPDEST PUSH2 0x9E8 PUSH1 0x80 DUP4 ADD DUP7 PUSH2 0x77F JUMP JUMPDEST PUSH2 0x9F5 PUSH1 0xA0 DUP4 ADD DUP6 PUSH2 0x97D JUMP JUMPDEST PUSH2 0xA02 PUSH1 0xC0 DUP4 ADD DUP5 PUSH2 0x77F JUMP JUMPDEST SWAP9 SWAP8 POP POP POP POP POP POP POP POP JUMP JUMPDEST PUSH32 0x4E487B7100000000000000000000000000000000000000000000000000000000 PUSH0 MSTORE PUSH1 0x22 PUSH1 0x4 MSTORE PUSH1 0x24 PUSH0 REVERT JUMPDEST PUSH0 PUSH1 0x2 DUP3 DIV SWAP1 POP PUSH1 0x1 DUP3 AND DUP1 PUSH2 0xA52 JUMPI PUSH1 0x7F DUP3 AND SWAP2 POP JUMPDEST PUSH1 0x20 DUP3 LT DUP2 SUB PUSH2 0xA65 JUMPI PUSH2 0xA64 PUSH2 0xA0E JUMP JUMPDEST JUMPDEST POP SWAP2 SWAP1 POP JUMP JUMPDEST PUSH32 0x4E487B7100000000000000000000000000000000000000000000000000000000 PUSH0 MSTORE PUSH1 0x11 PUSH1 0x4 MSTORE PUSH1 0x24 PUSH0 REVERT JUMPDEST PUSH0 PUSH2 0xAA2 DUP3 PUSH2 0x672 JUMP JUMPDEST SWAP2 POP PUSH2 0xAAD DUP4 PUSH2 0x672 JUMP JUMPDEST SWAP3 POP DUP3 DUP3 SUB SWAP1 POP DUP2 DUP2 GT ISZERO PUSH2 0xAC5 JUMPI PUSH2 0xAC4 PUSH2 0xA6B JUMP JUMPDEST JUMPDEST SWAP3 SWAP2 POP POP JUMP JUMPDEST PUSH0 PUSH2 0xAD5 DUP3 PUSH2 0x78E JUMP JUMPDEST SWAP2 POP PUSH2 0xAE0 DUP4 PUSH2 0x78E JUMP JUMPDEST SWAP3 POP DUP3 DUP3 MUL PUSH2 0xAEE DUP2 PUSH2 0x78E JUMP JUMPDEST SWAP2 POP DUP1 DUP3 EQ PUSH2 0xB00 JUMPI PUSH2 0xAFF PUSH2 0xA6B JUMP JUMPDEST JUMPDEST POP SWAP3 SWAP2 POP POP JUMP JUMPDEST PUSH0 PUSH2 0xB11 DUP3 PUSH2 0x672 JUMP JUMPDEST SWAP2 POP PUSH2 0xB1C DUP4 PUSH2 0x672 JUMP JUMPDEST SWAP3 POP DUP3 DUP3 ADD SWAP1 POP DUP1 DUP3 GT ISZERO PUSH2 0xB34 JUMPI PUSH2 0xB33 PUSH2 0xA6B JUMP JUMPDEST JUMPDEST SWAP3 SWAP2 POP POP JUMP INVALID LOG2 PUSH5 0x6970667358 0x22 SLT KECCAK256 PUSH26 0xDAB08EDCFE4E18193E4785C81748E32C12CD4AC27C0026A0548C 0xE7 PUSH14 0xE0264264736F6C634300081A0033 "
				},
				"gasEstimates": {
					"creation": {
						"codeDepositCost": "585600",
						"executionCost": "infinite",
						"totalCost": "infinite"
					},
					"external": {
						"N_MEMBERS()": "397",
						"RANDOM_VOTERS()": "354",
						"REG_TIME()": "370",
						"bills(uint256)": "infinite",
						"candidateInfo(address)": "infinite",
						"candidateList(uint256)": "4966",
						"electionEnd()": "2468",
						"getCurrentPhase()": "infinite",
						"randomizer()": "2618",
						"referendumEndTime()": "2425",
						"startTime()": "infinite"
					}
				},
				"methodIdentifiers": {
					"N_MEMBERS()": "e292bf16",
					"RANDOM_VOTERS()": "3def77b7",
					"REG_TIME()": "47f7b722",
					"bills(uint256)": "28bdcde8",
					"candidateInfo(address)": "e965b7c9",
					"candidateList(uint256)": "b13c744b",
					"electionEnd()": "ce7ea161",
					"getCurrentPhase()": "a3a40ea5",
					"randomizer()": "f10fb584",
					"referendumEndTime()": "b0feb260",
					"startTime()": "78e97925"
				}
			},
			"storageLayout": {
				"storage": [
					{
						"astId": 59,
						"contract": "SmartConstitution.sol:SmartConstitution",
						"label": "electionEnd",
						"offset": 0,
						"slot": "0",
						"type": "t_uint256"
					},
					{
						"astId": 61,
						"contract": "SmartConstitution.sol:SmartConstitution",
						"label": "randomizer",
						"offset": 0,
						"slot": "1",
						"type": "t_address"
					},
					{
						"astId": 63,
						"contract": "SmartConstitution.sol:SmartConstitution",
						"label": "addedVoterCount",
						"offset": 20,
						"slot": "1",
						"type": "t_uint32"
					},
					{
						"astId": 66,
						"contract": "SmartConstitution.sol:SmartConstitution",
						"label": "candidateList",
						"offset": 0,
						"slot": "2",
						"type": "t_array(t_address)dyn_storage"
					},
					{
						"astId": 70,
						"contract": "SmartConstitution.sol:SmartConstitution",
						"label": "bills",
						"offset": 0,
						"slot": "3",
						"type": "t_array(t_struct(Bill)46_storage)dyn_storage"
					},
					{
						"astId": 72,
						"contract": "SmartConstitution.sol:SmartConstitution",
						"label": "referendumEndTime",
						"offset": 0,
						"slot": "4",
						"type": "t_uint256"
					},
					{
						"astId": 77,
						"contract": "SmartConstitution.sol:SmartConstitution",
						"label": "candidateInfo",
						"offset": 0,
						"slot": "5",
						"type": "t_mapping(t_address,t_struct(Candidate)22_storage)"
					}
				],
				"types": {
					"t_address": {
						"encoding": "inplace",
						"label": "address",
						"numberOfBytes": "20"
					},
					"t_array(t_address)dyn_storage": {
						"base": "t_address",
						"encoding": "dynamic_array",
						"label": "address[]",
						"numberOfBytes": "32"
					},
					"t_array(t_struct(Bill)46_storage)dyn_storage": {
						"base": "t_struct(Bill)46_storage",
						"encoding": "dynamic_array",
						"label": "struct Bill[]",
						"numberOfBytes": "32"
					},
					"t_array(t_struct(Payment)29_storage)dyn_storage": {
						"base": "t_struct(Payment)29_storage",
						"encoding": "dynamic_array",
						"label": "struct Payment[]",
						"numberOfBytes": "32"
					},
					"t_bool": {
						"encoding": "inplace",
						"label": "bool",
						"numberOfBytes": "1"
					},
					"t_mapping(t_address,t_struct(Candidate)22_storage)": {
						"encoding": "mapping",
						"key": "t_address",
						"label": "mapping(address => struct Candidate)",
						"numberOfBytes": "32",
						"value": "t_struct(Candidate)22_storage"
					},
					"t_string_storage": {
						"encoding": "bytes",
						"label": "string",
						"numberOfBytes": "32"
					},
					"t_struct(Bill)46_storage": {
						"encoding": "inplace",
						"label": "struct Bill",
						"members": [
							{
								"astId": 31,
								"contract": "SmartConstitution.sol:SmartConstitution",
								"label": "proposer",
								"offset": 0,
								"slot": "0",
								"type": "t_address"
							},
							{
								"astId": 33,
								"contract": "SmartConstitution.sol:SmartConstitution",
								"label": "provisions",
								"offset": 0,
								"slot": "1",
								"type": "t_string_storage"
							},
							{
								"astId": 35,
								"contract": "SmartConstitution.sol:SmartConstitution",
								"label": "proposedAt",
								"offset": 0,
								"slot": "2",
								"type": "t_uint256"
							},
							{
								"astId": 37,
								"contract": "SmartConstitution.sol:SmartConstitution",
								"label": "executedAt",
								"offset": 0,
								"slot": "3",
								"type": "t_uint256"
							},
							{
								"astId": 39,
								"contract": "SmartConstitution.sol:SmartConstitution",
								"label": "withdrawnAt",
								"offset": 0,
								"slot": "4",
								"type": "t_uint256"
							},
							{
								"astId": 41,
								"contract": "SmartConstitution.sol:SmartConstitution",
								"label": "yesVotes",
								"offset": 0,
								"slot": "5",
								"type": "t_uint8"
							},
							{
								"astId": 45,
								"contract": "SmartConstitution.sol:SmartConstitution",
								"label": "payments",
								"offset": 0,
								"slot": "6",
								"type": "t_array(t_struct(Payment)29_storage)dyn_storage"
							}
						],
						"numberOfBytes": "224"
					},
					"t_struct(Candidate)22_storage": {
						"encoding": "inplace",
						"label": "struct Candidate",
						"members": [
							{
								"astId": 9,
								"contract": "SmartConstitution.sol:SmartConstitution",
								"label": "fullName",
								"offset": 0,
								"slot": "0",
								"type": "t_string_storage"
							},
							{
								"astId": 11,
								"contract": "SmartConstitution.sol:SmartConstitution",
								"label": "bio",
								"offset": 0,
								"slot": "1",
								"type": "t_string_storage"
							},
							{
								"astId": 13,
								"contract": "SmartConstitution.sol:SmartConstitution",
								"label": "website",
								"offset": 0,
								"slot": "2",
								"type": "t_string_storage"
							},
							{
								"astId": 15,
								"contract": "SmartConstitution.sol:SmartConstitution",
								"label": "registeredAt",
								"offset": 0,
								"slot": "3",
								"type": "t_uint256"
							},
							{
								"astId": 17,
								"contract": "SmartConstitution.sol:SmartConstitution",
								"label": "voteCount",
								"offset": 0,
								"slot": "4",
								"type": "t_uint256"
							},
							{
								"astId": 19,
								"contract": "SmartConstitution.sol:SmartConstitution",
								"label": "electedMember",
								"offset": 0,
								"slot": "5",
								"type": "t_bool"
							},
							{
								"astId": 21,
								"contract": "SmartConstitution.sol:SmartConstitution",
								"label": "leaderAt",
								"offset": 0,
								"slot": "6",
								"type": "t_uint256"
							}
						],
						"numberOfBytes": "224"
					},
					"t_struct(Payment)29_storage": {
						"encoding": "inplace",
						"label": "struct Payment",
						"members": [
							{
								"astId": 24,
								"contract": "SmartConstitution.sol:SmartConstitution",
								"label": "amount",
								"offset": 0,
								"slot": "0",
								"type": "t_uint256"
							},
							{
								"astId": 26,
								"contract": "SmartConstitution.sol:SmartConstitution",
								"label": "recipient",
								"offset": 0,
								"slot": "1",
								"type": "t_address"
							},
							{
								"astId": 28,
								"contract": "SmartConstitution.sol:SmartConstitution",
								"label": "reason",
								"offset": 0,
								"slot": "2",
								"type": "t_string_storage"
							}
						],
						"numberOfBytes": "96"
					},
					"t_uint256": {
						"encoding": "inplace",
						"label": "uint256",
						"numberOfBytes": "32"
					},
					"t_uint32": {
						"encoding": "inplace",
						"label": "uint32",
						"numberOfBytes": "4"
					},
					"t_uint8": {
						"encoding": "inplace",
						"label": "uint8",
						"numberOfBytes": "1"
					}
				}
			},
			"userdoc": {
				"kind": "user",
				"methods": {},
				"version": 1
			}
		}
	}
}