{
	"data": {
		"bytecode": {
			"linkReferences": {},
			"object": "6080604052606e805460ff19166032179055348015601b575f80fd5b506110a0806100295f395ff3fe608060405260043610610110575f3560e01c8063bab752e51161009d578063e292bf1611610062578063e292bf16146102ef578063e965b7c914610303578063eab536fc14610337578063f33e957314610365578063f9f8bdb714610384575f80fd5b8063bab752e514610267578063bdc8e7b31461027c578063be07f0f8146102ad578063c8d7b9f1146102c1578063ce7ea161146102da575f80fd5b806353fdc838116100e357806353fdc8381461019357806397dffc61146101c75780639dc99455146101d1578063a3a40ea51461020f578063b13c744b14610230575f80fd5b806308fd4cfa1461011457806312065fe01461013d5780631b408934146101515780633def77b71461017e575b5f80fd5b34801561011f575f80fd5b5061012a6212750081565b6040519081526020015b60405180910390f35b348015610148575f80fd5b5061012a610399565b34801561015c575f80fd5b5060035461016b9061ffff1681565b60405161ffff9091168152602001610134565b348015610189575f80fd5b5061016b6104b081565b34801561019e575f80fd5b506101b26101ad366004610db8565b61040c565b60408051928352602083019190915201610134565b6101cf610444565b005b3480156101dc575f80fd5b506101f06101eb366004610de0565b6104be565b604080516001600160a01b039093168352602083019190915201610134565b34801561021a575f80fd5b506102236104e9565b6040516101349190610df7565b34801561023b575f80fd5b5061024f61024a366004610de0565b6105b1565b6040516001600160a01b039091168152602001610134565b348015610272575f80fd5b5061012a60025481565b348015610287575f80fd5b5061029b610296366004610de0565b6105d9565b60405160ff9091168152602001610134565b3480156102b8575f80fd5b5061012a5f5481565b3480156102cc575f80fd5b50606e5461029b9060ff1681565b3480156102e5575f80fd5b5061012a60015481565b3480156102fa575f80fd5b5061029b603281565b34801561030e575f80fd5b5061032261031d366004610e1d565b610b8d565b60405161013499989796959493929190610e6b565b348015610342575f80fd5b5061029b610351366004610e1d565b606d6020525f908152604090205460ff1681565b348015610370575f80fd5b506101b261037f366004610de0565b610d71565b34801561038f575f80fd5b5061012a60065481565b5f805b335f9081526008602052604090205461ffff8216101561040857335f908152600860205260409020805461ffff83169081106103da576103da610ee5565b905f5260205f2090600202015f0154826103f49190610f0d565b91508061040081610f34565b91505061039c565b5090565b6008602052815f5260405f208181548110610425575f80fd5b5f91825260209091206002909102018054600190910154909250905082565b60408051808201825234808252426020808401918252335f818152600883528681208054600180820183559183529184902087516002909302019182559351930192909255935191825291927f976be468429698a1b0ae0c20a0329bdb6e24722a3f834a2c54b84d63c1722f32910160405180910390a250565b600981603281106104cd575f80fd5b6002020180546001909101546001600160a01b03909116915082565b5f80544210156104f857505f90565b61050460326002610f54565b60ff16600480549050108061052257506003546104b061ffff909116105b1561052f57505f80805590565b5f545f0361056157425f81905561054a906212750090610f77565b6105579062015180610f77565b6001908155919050565b6001805461056f9190610f90565b42101561057c5750600190565b60015442101561058c5750600290565b6002545f0361059b5750600390565b6002544210156105ab5750600490565b50600590565b600481815481106105c0575f80fd5b5f918252602090912001546001600160a01b0316905081565b335f9081526005602052604081206004015462010000900460ff166106455760405162461bcd60e51b815260206004820152601860248201527f4f6e6c79206d656d626572732063616e2070726f706f7365000000000000000060448201526064015b60405180910390fd5b6113888211156106845760405162461bcd60e51b815260206004820152600a60248201526952617465203e2035302560b01b604482015260640161063c565b335f908152606d602052604081205460ff1681811580156106a95750606e5460ff1615155b156106ea57606e805460ff16905f6106c083610fa3565b82546101009290920a60ff818102199093169183160217909155606e545f955016915061070e9050565b60098260ff166032811061070057610700610ee5565b600202016001015492508190505b82850361078057845f03610778573360098260ff166032811061073357610733610ee5565b6002020180546001600160a01b0319166001600160a01b0392909216919091179055335f908152606d60205260409020805460ff191660ff8316179055949350505050565b509392505050565b828511156108a0575b61079560016032610fbe565b60ff168160ff161080156107cf575060096107b1826001610fd7565b60ff16603281106107c4576107c4610ee5565b600202016001015485115b1561089b5760096107e1826001610fd7565b60ff16603281106107f4576107f4610ee5565b6002020160098260ff166032811061080e5761080e610ee5565b82546002919091029190910180546001600160a01b0319166001600160a01b0390921691909117815560019182015491015580606d5f600960ff84166032811061085a5761085a610ee5565b60020201546001600160a01b0316815260208101919091526040015f20805460ff191660ff929092169190911790558061089381610ff0565b915050610789565b6109a4565b5f8160ff161180156108d8575060096108ba600183610fbe565b60ff16603281106108cd576108cd610ee5565b600202016001015485105b156109a45760096108ea600183610fbe565b60ff16603281106108fd576108fd610ee5565b6002020160098260ff166032811061091757610917610ee5565b82546002919091029190910180546001600160a01b0319166001600160a01b0390921691909117815560019182015491015580606d5f600960ff84166032811061096357610963610ee5565b60020201546001600160a01b0316815260208101919091526040015f20805460ff191660ff929092169190911790558061099c81610fa3565b9150506108a0565b6040805180820190915233815260208101869052600960ff8316603281106109ce576109ce610ee5565b82516002919091029190910180546001600160a01b0319166001600160a01b03909216919091178155602091820151600190910155335f818152606d8352604090819020805460ff191660ff8681169182179092558251888152918716948201949094529081018890526060810192909252907f1ce0beaec98d7537137a85c2d351c6c99900830d30fe8a7c353fa27225807e729060800160405180910390a26009610a7c60026032611005565b60ff1660328110610a8f57610a8f610ee5565b600202016001015460065414610b85576009610aad60026032611005565b60ff1660328110610ac057610ac0610ee5565b6001600291820292909201820154600681815560408051808201825292835242602084019081526007805496870181555f529251949093027fa66cc928b5edb82af9bd49922954155ab7b0942694bea4ce44661d9a8736c68881019490945590517fa66cc928b5edb82af9bd49922954155ab7b0942694bea4ce44661d9a8736c68990930192909255905490517fa90e14be5aa57b910aa6dc16c31ff1b5cda380ae25a793b0d3f74df6131a7d7491610b7c9190815260200190565b60405180910390a15b949350505050565b60056020525f9081526040902080548190610ba790611032565b80601f0160208091040260200160405190810160405280929190818152602001828054610bd390611032565b8015610c1e5780601f10610bf557610100808354040283529160200191610c1e565b820191905f5260205f20905b815481529060010190602001808311610c0157829003601f168201915b505050505090806001018054610c3390611032565b80601f0160208091040260200160405190810160405280929190818152602001828054610c5f90611032565b8015610caa5780601f10610c8157610100808354040283529160200191610caa565b820191905f5260205f20905b815481529060010190602001808311610c8d57829003601f168201915b505050505090806002018054610cbf90611032565b80601f0160208091040260200160405190810160405280929190818152602001828054610ceb90611032565b8015610d365780601f10610d0d57610100808354040283529160200191610d36565b820191905f5260205f20905b815481529060010190602001808311610d1957829003601f168201915b505050506003830154600484015460058501546006909501549394919361ffff8083169450620100009283900460ff16939281831692041689565b60078181548110610d80575f80fd5b5f9182526020909120600290910201805460019091015490915082565b80356001600160a01b0381168114610db3575f80fd5b919050565b5f8060408385031215610dc9575f80fd5b610dd283610d9d565b946020939093013593505050565b5f60208284031215610df0575f80fd5b5035919050565b6020810160068310610e1757634e487b7160e01b5f52602160045260245ffd5b91905290565b5f60208284031215610e2d575f80fd5b610e3682610d9d565b9392505050565b5f81518084528060208401602086015e5f602082860101526020601f19601f83011685010191505092915050565b61012081525f610e7f61012083018c610e3d565b8281036020840152610e91818c610e3d565b90508281036040840152610ea5818b610e3d565b6060840199909952505061ffff958616608082015260ff9490941660a085015260c0840192909252831660e0830152909116610100909101529392505050565b634e487b7160e01b5f52603260045260245ffd5b634e487b7160e01b5f52601160045260245ffd5b8082018281125f831280158216821582161715610f2c57610f2c610ef9565b505092915050565b5f61ffff821661ffff8103610f4b57610f4b610ef9565b60010192915050565b60ff8181168382160290811690818114610f7057610f70610ef9565b5092915050565b80820180821115610f8a57610f8a610ef9565b92915050565b81810381811115610f8a57610f8a610ef9565b5f60ff821680610fb557610fb5610ef9565b5f190192915050565b60ff8281168282160390811115610f8a57610f8a610ef9565b60ff8181168382160190811115610f8a57610f8a610ef9565b5f60ff821660ff8103610f4b57610f4b610ef9565b5f60ff83168061102357634e487b7160e01b5f52601260045260245ffd5b8060ff84160491505092915050565b600181811c9082168061104657607f821691505b60208210810361106457634e487b7160e01b5f52602260045260245ffd5b5091905056fea26469706673582212206f4e4a041dd034958a64c814500cfbfb517afedf5f33913831db89a01a02e99264736f6c634300081a0033",
			"opcodes": "PUSH1 0x80 PUSH1 0x40 MSTORE PUSH1 0x6E DUP1 SLOAD PUSH1 0xFF NOT AND PUSH1 0x32 OR SWAP1 SSTORE CALLVALUE DUP1 ISZERO PUSH1 0x1B JUMPI PUSH0 DUP1 REVERT JUMPDEST POP PUSH2 0x10A0 DUP1 PUSH2 0x29 PUSH0 CODECOPY PUSH0 RETURN INVALID PUSH1 0x80 PUSH1 0x40 MSTORE PUSH1 0x4 CALLDATASIZE LT PUSH2 0x110 JUMPI PUSH0 CALLDATALOAD PUSH1 0xE0 SHR DUP1 PUSH4 0xBAB752E5 GT PUSH2 0x9D JUMPI DUP1 PUSH4 0xE292BF16 GT PUSH2 0x62 JUMPI DUP1 PUSH4 0xE292BF16 EQ PUSH2 0x2EF JUMPI DUP1 PUSH4 0xE965B7C9 EQ PUSH2 0x303 JUMPI DUP1 PUSH4 0xEAB536FC EQ PUSH2 0x337 JUMPI DUP1 PUSH4 0xF33E9573 EQ PUSH2 0x365 JUMPI DUP1 PUSH4 0xF9F8BDB7 EQ PUSH2 0x384 JUMPI PUSH0 DUP1 REVERT JUMPDEST DUP1 PUSH4 0xBAB752E5 EQ PUSH2 0x267 JUMPI DUP1 PUSH4 0xBDC8E7B3 EQ PUSH2 0x27C JUMPI DUP1 PUSH4 0xBE07F0F8 EQ PUSH2 0x2AD JUMPI DUP1 PUSH4 0xC8D7B9F1 EQ PUSH2 0x2C1 JUMPI DUP1 PUSH4 0xCE7EA161 EQ PUSH2 0x2DA JUMPI PUSH0 DUP1 REVERT JUMPDEST DUP1 PUSH4 0x53FDC838 GT PUSH2 0xE3 JUMPI DUP1 PUSH4 0x53FDC838 EQ PUSH2 0x193 JUMPI DUP1 PUSH4 0x97DFFC61 EQ PUSH2 0x1C7 JUMPI DUP1 PUSH4 0x9DC99455 EQ PUSH2 0x1D1 JUMPI DUP1 PUSH4 0xA3A40EA5 EQ PUSH2 0x20F JUMPI DUP1 PUSH4 0xB13C744B EQ PUSH2 0x230 JUMPI PUSH0 DUP1 REVERT JUMPDEST DUP1 PUSH4 0x8FD4CFA EQ PUSH2 0x114 JUMPI DUP1 PUSH4 0x12065FE0 EQ PUSH2 0x13D JUMPI DUP1 PUSH4 0x1B408934 EQ PUSH2 0x151 JUMPI DUP1 PUSH4 0x3DEF77B7 EQ PUSH2 0x17E JUMPI JUMPDEST PUSH0 DUP1 REVERT JUMPDEST CALLVALUE DUP1 ISZERO PUSH2 0x11F JUMPI PUSH0 DUP1 REVERT JUMPDEST POP PUSH2 0x12A PUSH3 0x127500 DUP2 JUMP JUMPDEST PUSH1 0x40 MLOAD SWAP1 DUP2 MSTORE PUSH1 0x20 ADD JUMPDEST PUSH1 0x40 MLOAD DUP1 SWAP2 SUB SWAP1 RETURN JUMPDEST CALLVALUE DUP1 ISZERO PUSH2 0x148 JUMPI PUSH0 DUP1 REVERT JUMPDEST POP PUSH2 0x12A PUSH2 0x399 JUMP JUMPDEST CALLVALUE DUP1 ISZERO PUSH2 0x15C JUMPI PUSH0 DUP1 REVERT JUMPDEST POP PUSH1 0x3 SLOAD PUSH2 0x16B SWAP1 PUSH2 0xFFFF AND DUP2 JUMP JUMPDEST PUSH1 0x40 MLOAD PUSH2 0xFFFF SWAP1 SWAP2 AND DUP2 MSTORE PUSH1 0x20 ADD PUSH2 0x134 JUMP JUMPDEST CALLVALUE DUP1 ISZERO PUSH2 0x189 JUMPI PUSH0 DUP1 REVERT JUMPDEST POP PUSH2 0x16B PUSH2 0x4B0 DUP2 JUMP JUMPDEST CALLVALUE DUP1 ISZERO PUSH2 0x19E JUMPI PUSH0 DUP1 REVERT JUMPDEST POP PUSH2 0x1B2 PUSH2 0x1AD CALLDATASIZE PUSH1 0x4 PUSH2 0xDB8 JUMP JUMPDEST PUSH2 0x40C JUMP JUMPDEST PUSH1 0x40 DUP1 MLOAD SWAP3 DUP4 MSTORE PUSH1 0x20 DUP4 ADD SWAP2 SWAP1 SWAP2 MSTORE ADD PUSH2 0x134 JUMP JUMPDEST PUSH2 0x1CF PUSH2 0x444 JUMP JUMPDEST STOP JUMPDEST CALLVALUE DUP1 ISZERO PUSH2 0x1DC JUMPI PUSH0 DUP1 REVERT JUMPDEST POP PUSH2 0x1F0 PUSH2 0x1EB CALLDATASIZE PUSH1 0x4 PUSH2 0xDE0 JUMP JUMPDEST PUSH2 0x4BE JUMP JUMPDEST PUSH1 0x40 DUP1 MLOAD PUSH1 0x1 PUSH1 0x1 PUSH1 0xA0 SHL SUB SWAP1 SWAP4 AND DUP4 MSTORE PUSH1 0x20 DUP4 ADD SWAP2 SWAP1 SWAP2 MSTORE ADD PUSH2 0x134 JUMP JUMPDEST CALLVALUE DUP1 ISZERO PUSH2 0x21A JUMPI PUSH0 DUP1 REVERT JUMPDEST POP PUSH2 0x223 PUSH2 0x4E9 JUMP JUMPDEST PUSH1 0x40 MLOAD PUSH2 0x134 SWAP2 SWAP1 PUSH2 0xDF7 JUMP JUMPDEST CALLVALUE DUP1 ISZERO PUSH2 0x23B JUMPI PUSH0 DUP1 REVERT JUMPDEST POP PUSH2 0x24F PUSH2 0x24A CALLDATASIZE PUSH1 0x4 PUSH2 0xDE0 JUMP JUMPDEST PUSH2 0x5B1 JUMP JUMPDEST PUSH1 0x40 MLOAD PUSH1 0x1 PUSH1 0x1 PUSH1 0xA0 SHL SUB SWAP1 SWAP2 AND DUP2 MSTORE PUSH1 0x20 ADD PUSH2 0x134 JUMP JUMPDEST CALLVALUE DUP1 ISZERO PUSH2 0x272 JUMPI PUSH0 DUP1 REVERT JUMPDEST POP PUSH2 0x12A PUSH1 0x2 SLOAD DUP2 JUMP JUMPDEST CALLVALUE DUP1 ISZERO PUSH2 0x287 JUMPI PUSH0 DUP1 REVERT JUMPDEST POP PUSH2 0x29B PUSH2 0x296 CALLDATASIZE PUSH1 0x4 PUSH2 0xDE0 JUMP JUMPDEST PUSH2 0x5D9 JUMP JUMPDEST PUSH1 0x40 MLOAD PUSH1 0xFF SWAP1 SWAP2 AND DUP2 MSTORE PUSH1 0x20 ADD PUSH2 0x134 JUMP JUMPDEST CALLVALUE DUP1 ISZERO PUSH2 0x2B8 JUMPI PUSH0 DUP1 REVERT JUMPDEST POP PUSH2 0x12A PUSH0 SLOAD DUP2 JUMP JUMPDEST CALLVALUE DUP1 ISZERO PUSH2 0x2CC JUMPI PUSH0 DUP1 REVERT JUMPDEST POP PUSH1 0x6E SLOAD PUSH2 0x29B SWAP1 PUSH1 0xFF AND DUP2 JUMP JUMPDEST CALLVALUE DUP1 ISZERO PUSH2 0x2E5 JUMPI PUSH0 DUP1 REVERT JUMPDEST POP PUSH2 0x12A PUSH1 0x1 SLOAD DUP2 JUMP JUMPDEST CALLVALUE DUP1 ISZERO PUSH2 0x2FA JUMPI PUSH0 DUP1 REVERT JUMPDEST POP PUSH2 0x29B PUSH1 0x32 DUP2 JUMP JUMPDEST CALLVALUE DUP1 ISZERO PUSH2 0x30E JUMPI PUSH0 DUP1 REVERT JUMPDEST POP PUSH2 0x322 PUSH2 0x31D CALLDATASIZE PUSH1 0x4 PUSH2 0xE1D JUMP JUMPDEST PUSH2 0xB8D JUMP JUMPDEST PUSH1 0x40 MLOAD PUSH2 0x134 SWAP10 SWAP9 SWAP8 SWAP7 SWAP6 SWAP5 SWAP4 SWAP3 SWAP2 SWAP1 PUSH2 0xE6B JUMP JUMPDEST CALLVALUE DUP1 ISZERO PUSH2 0x342 JUMPI PUSH0 DUP1 REVERT JUMPDEST POP PUSH2 0x29B PUSH2 0x351 CALLDATASIZE PUSH1 0x4 PUSH2 0xE1D JUMP JUMPDEST PUSH1 0x6D PUSH1 0x20 MSTORE PUSH0 SWAP1 DUP2 MSTORE PUSH1 0x40 SWAP1 KECCAK256 SLOAD PUSH1 0xFF AND DUP2 JUMP JUMPDEST CALLVALUE DUP1 ISZERO PUSH2 0x370 JUMPI PUSH0 DUP1 REVERT JUMPDEST POP PUSH2 0x1B2 PUSH2 0x37F CALLDATASIZE PUSH1 0x4 PUSH2 0xDE0 JUMP JUMPDEST PUSH2 0xD71 JUMP JUMPDEST CALLVALUE DUP1 ISZERO PUSH2 0x38F JUMPI PUSH0 DUP1 REVERT JUMPDEST POP PUSH2 0x12A PUSH1 0x6 SLOAD DUP2 JUMP JUMPDEST PUSH0 DUP1 JUMPDEST CALLER PUSH0 SWAP1 DUP2 MSTORE PUSH1 0x8 PUSH1 0x20 MSTORE PUSH1 0x40 SWAP1 KECCAK256 SLOAD PUSH2 0xFFFF DUP3 AND LT ISZERO PUSH2 0x408 JUMPI CALLER PUSH0 SWAP1 DUP2 MSTORE PUSH1 0x8 PUSH1 0x20 MSTORE PUSH1 0x40 SWAP1 KECCAK256 DUP1 SLOAD PUSH2 0xFFFF DUP4 AND SWAP1 DUP2 LT PUSH2 0x3DA JUMPI PUSH2 0x3DA PUSH2 0xEE5 JUMP JUMPDEST SWAP1 PUSH0 MSTORE PUSH1 0x20 PUSH0 KECCAK256 SWAP1 PUSH1 0x2 MUL ADD PUSH0 ADD SLOAD DUP3 PUSH2 0x3F4 SWAP2 SWAP1 PUSH2 0xF0D JUMP JUMPDEST SWAP2 POP DUP1 PUSH2 0x400 DUP2 PUSH2 0xF34 JUMP JUMPDEST SWAP2 POP POP PUSH2 0x39C JUMP JUMPDEST POP SWAP1 JUMP JUMPDEST PUSH1 0x8 PUSH1 0x20 MSTORE DUP2 PUSH0 MSTORE PUSH1 0x40 PUSH0 KECCAK256 DUP2 DUP2 SLOAD DUP2 LT PUSH2 0x425 JUMPI PUSH0 DUP1 REVERT JUMPDEST PUSH0 SWAP2 DUP3 MSTORE PUSH1 0x20 SWAP1 SWAP2 KECCAK256 PUSH1 0x2 SWAP1 SWAP2 MUL ADD DUP1 SLOAD PUSH1 0x1 SWAP1 SWAP2 ADD SLOAD SWAP1 SWAP3 POP SWAP1 POP DUP3 JUMP JUMPDEST PUSH1 0x40 DUP1 MLOAD DUP1 DUP3 ADD DUP3 MSTORE CALLVALUE DUP1 DUP3 MSTORE TIMESTAMP PUSH1 0x20 DUP1 DUP5 ADD SWAP2 DUP3 MSTORE CALLER PUSH0 DUP2 DUP2 MSTORE PUSH1 0x8 DUP4 MSTORE DUP7 DUP2 KECCAK256 DUP1 SLOAD PUSH1 0x1 DUP1 DUP3 ADD DUP4 SSTORE SWAP2 DUP4 MSTORE SWAP2 DUP5 SWAP1 KECCAK256 DUP8 MLOAD PUSH1 0x2 SWAP1 SWAP4 MUL ADD SWAP2 DUP3 SSTORE SWAP4 MLOAD SWAP4 ADD SWAP3 SWAP1 SWAP3 SSTORE SWAP4 MLOAD SWAP2 DUP3 MSTORE SWAP2 SWAP3 PUSH32 0x976BE468429698A1B0AE0C20A0329BDB6E24722A3F834A2C54B84D63C1722F32 SWAP2 ADD PUSH1 0x40 MLOAD DUP1 SWAP2 SUB SWAP1 LOG2 POP JUMP JUMPDEST PUSH1 0x9 DUP2 PUSH1 0x32 DUP2 LT PUSH2 0x4CD JUMPI PUSH0 DUP1 REVERT JUMPDEST PUSH1 0x2 MUL ADD DUP1 SLOAD PUSH1 0x1 SWAP1 SWAP2 ADD SLOAD PUSH1 0x1 PUSH1 0x1 PUSH1 0xA0 SHL SUB SWAP1 SWAP2 AND SWAP2 POP DUP3 JUMP JUMPDEST PUSH0 DUP1 SLOAD TIMESTAMP LT ISZERO PUSH2 0x4F8 JUMPI POP PUSH0 SWAP1 JUMP JUMPDEST PUSH2 0x504 PUSH1 0x32 PUSH1 0x2 PUSH2 0xF54 JUMP JUMPDEST PUSH1 0xFF AND PUSH1 0x4 DUP1 SLOAD SWAP1 POP LT DUP1 PUSH2 0x522 JUMPI POP PUSH1 0x3 SLOAD PUSH2 0x4B0 PUSH2 0xFFFF SWAP1 SWAP2 AND LT JUMPDEST ISZERO PUSH2 0x52F JUMPI POP PUSH0 DUP1 DUP1 SSTORE SWAP1 JUMP JUMPDEST PUSH0 SLOAD PUSH0 SUB PUSH2 0x561 JUMPI TIMESTAMP PUSH0 DUP2 SWAP1 SSTORE PUSH2 0x54A SWAP1 PUSH3 0x127500 SWAP1 PUSH2 0xF77 JUMP JUMPDEST PUSH2 0x557 SWAP1 PUSH3 0x15180 PUSH2 0xF77 JUMP JUMPDEST PUSH1 0x1 SWAP1 DUP2 SSTORE SWAP2 SWAP1 POP JUMP JUMPDEST PUSH1 0x1 DUP1 SLOAD PUSH2 0x56F SWAP2 SWAP1 PUSH2 0xF90 JUMP JUMPDEST TIMESTAMP LT ISZERO PUSH2 0x57C JUMPI POP PUSH1 0x1 SWAP1 JUMP JUMPDEST PUSH1 0x1 SLOAD TIMESTAMP LT ISZERO PUSH2 0x58C JUMPI POP PUSH1 0x2 SWAP1 JUMP JUMPDEST PUSH1 0x2 SLOAD PUSH0 SUB PUSH2 0x59B JUMPI POP PUSH1 0x3 SWAP1 JUMP JUMPDEST PUSH1 0x2 SLOAD TIMESTAMP LT ISZERO PUSH2 0x5AB JUMPI POP PUSH1 0x4 SWAP1 JUMP JUMPDEST POP PUSH1 0x5 SWAP1 JUMP JUMPDEST PUSH1 0x4 DUP2 DUP2 SLOAD DUP2 LT PUSH2 0x5C0 JUMPI PUSH0 DUP1 REVERT JUMPDEST PUSH0 SWAP2 DUP3 MSTORE PUSH1 0x20 SWAP1 SWAP2 KECCAK256 ADD SLOAD PUSH1 0x1 PUSH1 0x1 PUSH1 0xA0 SHL SUB AND SWAP1 POP DUP2 JUMP JUMPDEST CALLER PUSH0 SWAP1 DUP2 MSTORE PUSH1 0x5 PUSH1 0x20 MSTORE PUSH1 0x40 DUP2 KECCAK256 PUSH1 0x4 ADD SLOAD PUSH3 0x10000 SWAP1 DIV PUSH1 0xFF AND PUSH2 0x645 JUMPI PUSH1 0x40 MLOAD PUSH3 0x461BCD PUSH1 0xE5 SHL DUP2 MSTORE PUSH1 0x20 PUSH1 0x4 DUP3 ADD MSTORE PUSH1 0x18 PUSH1 0x24 DUP3 ADD MSTORE PUSH32 0x4F6E6C79206D656D626572732063616E2070726F706F73650000000000000000 PUSH1 0x44 DUP3 ADD MSTORE PUSH1 0x64 ADD JUMPDEST PUSH1 0x40 MLOAD DUP1 SWAP2 SUB SWAP1 REVERT JUMPDEST PUSH2 0x1388 DUP3 GT ISZERO PUSH2 0x684 JUMPI PUSH1 0x40 MLOAD PUSH3 0x461BCD PUSH1 0xE5 SHL DUP2 MSTORE PUSH1 0x20 PUSH1 0x4 DUP3 ADD MSTORE PUSH1 0xA PUSH1 0x24 DUP3 ADD MSTORE PUSH10 0x52617465203E20353025 PUSH1 0xB0 SHL PUSH1 0x44 DUP3 ADD MSTORE PUSH1 0x64 ADD PUSH2 0x63C JUMP JUMPDEST CALLER PUSH0 SWAP1 DUP2 MSTORE PUSH1 0x6D PUSH1 0x20 MSTORE PUSH1 0x40 DUP2 KECCAK256 SLOAD PUSH1 0xFF AND DUP2 DUP2 ISZERO DUP1 ISZERO PUSH2 0x6A9 JUMPI POP PUSH1 0x6E SLOAD PUSH1 0xFF AND ISZERO ISZERO JUMPDEST ISZERO PUSH2 0x6EA JUMPI PUSH1 0x6E DUP1 SLOAD PUSH1 0xFF AND SWAP1 PUSH0 PUSH2 0x6C0 DUP4 PUSH2 0xFA3 JUMP JUMPDEST DUP3 SLOAD PUSH2 0x100 SWAP3 SWAP1 SWAP3 EXP PUSH1 0xFF DUP2 DUP2 MUL NOT SWAP1 SWAP4 AND SWAP2 DUP4 AND MUL OR SWAP1 SWAP2 SSTORE PUSH1 0x6E SLOAD PUSH0 SWAP6 POP AND SWAP2 POP PUSH2 0x70E SWAP1 POP JUMP JUMPDEST PUSH1 0x9 DUP3 PUSH1 0xFF AND PUSH1 0x32 DUP2 LT PUSH2 0x700 JUMPI PUSH2 0x700 PUSH2 0xEE5 JUMP JUMPDEST PUSH1 0x2 MUL ADD PUSH1 0x1 ADD SLOAD SWAP3 POP DUP2 SWAP1 POP JUMPDEST DUP3 DUP6 SUB PUSH2 0x780 JUMPI DUP5 PUSH0 SUB PUSH2 0x778 JUMPI CALLER PUSH1 0x9 DUP3 PUSH1 0xFF AND PUSH1 0x32 DUP2 LT PUSH2 0x733 JUMPI PUSH2 0x733 PUSH2 0xEE5 JUMP JUMPDEST PUSH1 0x2 MUL ADD DUP1 SLOAD PUSH1 0x1 PUSH1 0x1 PUSH1 0xA0 SHL SUB NOT AND PUSH1 0x1 PUSH1 0x1 PUSH1 0xA0 SHL SUB SWAP3 SWAP1 SWAP3 AND SWAP2 SWAP1 SWAP2 OR SWAP1 SSTORE CALLER PUSH0 SWAP1 DUP2 MSTORE PUSH1 0x6D PUSH1 0x20 MSTORE PUSH1 0x40 SWAP1 KECCAK256 DUP1 SLOAD PUSH1 0xFF NOT AND PUSH1 0xFF DUP4 AND OR SWAP1 SSTORE SWAP5 SWAP4 POP POP POP POP JUMP JUMPDEST POP SWAP4 SWAP3 POP POP POP JUMP JUMPDEST DUP3 DUP6 GT ISZERO PUSH2 0x8A0 JUMPI JUMPDEST PUSH2 0x795 PUSH1 0x1 PUSH1 0x32 PUSH2 0xFBE JUMP JUMPDEST PUSH1 0xFF AND DUP2 PUSH1 0xFF AND LT DUP1 ISZERO PUSH2 0x7CF JUMPI POP PUSH1 0x9 PUSH2 0x7B1 DUP3 PUSH1 0x1 PUSH2 0xFD7 JUMP JUMPDEST PUSH1 0xFF AND PUSH1 0x32 DUP2 LT PUSH2 0x7C4 JUMPI PUSH2 0x7C4 PUSH2 0xEE5 JUMP JUMPDEST PUSH1 0x2 MUL ADD PUSH1 0x1 ADD SLOAD DUP6 GT JUMPDEST ISZERO PUSH2 0x89B JUMPI PUSH1 0x9 PUSH2 0x7E1 DUP3 PUSH1 0x1 PUSH2 0xFD7 JUMP JUMPDEST PUSH1 0xFF AND PUSH1 0x32 DUP2 LT PUSH2 0x7F4 JUMPI PUSH2 0x7F4 PUSH2 0xEE5 JUMP JUMPDEST PUSH1 0x2 MUL ADD PUSH1 0x9 DUP3 PUSH1 0xFF AND PUSH1 0x32 DUP2 LT PUSH2 0x80E JUMPI PUSH2 0x80E PUSH2 0xEE5 JUMP JUMPDEST DUP3 SLOAD PUSH1 0x2 SWAP2 SWAP1 SWAP2 MUL SWAP2 SWAP1 SWAP2 ADD DUP1 SLOAD PUSH1 0x1 PUSH1 0x1 PUSH1 0xA0 SHL SUB NOT AND PUSH1 0x1 PUSH1 0x1 PUSH1 0xA0 SHL SUB SWAP1 SWAP3 AND SWAP2 SWAP1 SWAP2 OR DUP2 SSTORE PUSH1 0x1 SWAP2 DUP3 ADD SLOAD SWAP2 ADD SSTORE DUP1 PUSH1 0x6D PUSH0 PUSH1 0x9 PUSH1 0xFF DUP5 AND PUSH1 0x32 DUP2 LT PUSH2 0x85A JUMPI PUSH2 0x85A PUSH2 0xEE5 JUMP JUMPDEST PUSH1 0x2 MUL ADD SLOAD PUSH1 0x1 PUSH1 0x1 PUSH1 0xA0 SHL SUB AND DUP2 MSTORE PUSH1 0x20 DUP2 ADD SWAP2 SWAP1 SWAP2 MSTORE PUSH1 0x40 ADD PUSH0 KECCAK256 DUP1 SLOAD PUSH1 0xFF NOT AND PUSH1 0xFF SWAP3 SWAP1 SWAP3 AND SWAP2 SWAP1 SWAP2 OR SWAP1 SSTORE DUP1 PUSH2 0x893 DUP2 PUSH2 0xFF0 JUMP JUMPDEST SWAP2 POP POP PUSH2 0x789 JUMP JUMPDEST PUSH2 0x9A4 JUMP JUMPDEST PUSH0 DUP2 PUSH1 0xFF AND GT DUP1 ISZERO PUSH2 0x8D8 JUMPI POP PUSH1 0x9 PUSH2 0x8BA PUSH1 0x1 DUP4 PUSH2 0xFBE JUMP JUMPDEST PUSH1 0xFF AND PUSH1 0x32 DUP2 LT PUSH2 0x8CD JUMPI PUSH2 0x8CD PUSH2 0xEE5 JUMP JUMPDEST PUSH1 0x2 MUL ADD PUSH1 0x1 ADD SLOAD DUP6 LT JUMPDEST ISZERO PUSH2 0x9A4 JUMPI PUSH1 0x9 PUSH2 0x8EA PUSH1 0x1 DUP4 PUSH2 0xFBE JUMP JUMPDEST PUSH1 0xFF AND PUSH1 0x32 DUP2 LT PUSH2 0x8FD JUMPI PUSH2 0x8FD PUSH2 0xEE5 JUMP JUMPDEST PUSH1 0x2 MUL ADD PUSH1 0x9 DUP3 PUSH1 0xFF AND PUSH1 0x32 DUP2 LT PUSH2 0x917 JUMPI PUSH2 0x917 PUSH2 0xEE5 JUMP JUMPDEST DUP3 SLOAD PUSH1 0x2 SWAP2 SWAP1 SWAP2 MUL SWAP2 SWAP1 SWAP2 ADD DUP1 SLOAD PUSH1 0x1 PUSH1 0x1 PUSH1 0xA0 SHL SUB NOT AND PUSH1 0x1 PUSH1 0x1 PUSH1 0xA0 SHL SUB SWAP1 SWAP3 AND SWAP2 SWAP1 SWAP2 OR DUP2 SSTORE PUSH1 0x1 SWAP2 DUP3 ADD SLOAD SWAP2 ADD SSTORE DUP1 PUSH1 0x6D PUSH0 PUSH1 0x9 PUSH1 0xFF DUP5 AND PUSH1 0x32 DUP2 LT PUSH2 0x963 JUMPI PUSH2 0x963 PUSH2 0xEE5 JUMP JUMPDEST PUSH1 0x2 MUL ADD SLOAD PUSH1 0x1 PUSH1 0x1 PUSH1 0xA0 SHL SUB AND DUP2 MSTORE PUSH1 0x20 DUP2 ADD SWAP2 SWAP1 SWAP2 MSTORE PUSH1 0x40 ADD PUSH0 KECCAK256 DUP1 SLOAD PUSH1 0xFF NOT AND PUSH1 0xFF SWAP3 SWAP1 SWAP3 AND SWAP2 SWAP1 SWAP2 OR SWAP1 SSTORE DUP1 PUSH2 0x99C DUP2 PUSH2 0xFA3 JUMP JUMPDEST SWAP2 POP POP PUSH2 0x8A0 JUMP JUMPDEST PUSH1 0x40 DUP1 MLOAD DUP1 DUP3 ADD SWAP1 SWAP2 MSTORE CALLER DUP2 MSTORE PUSH1 0x20 DUP2 ADD DUP7 SWAP1 MSTORE PUSH1 0x9 PUSH1 0xFF DUP4 AND PUSH1 0x32 DUP2 LT PUSH2 0x9CE JUMPI PUSH2 0x9CE PUSH2 0xEE5 JUMP JUMPDEST DUP3 MLOAD PUSH1 0x2 SWAP2 SWAP1 SWAP2 MUL SWAP2 SWAP1 SWAP2 ADD DUP1 SLOAD PUSH1 0x1 PUSH1 0x1 PUSH1 0xA0 SHL SUB NOT AND PUSH1 0x1 PUSH1 0x1 PUSH1 0xA0 SHL SUB SWAP1 SWAP3 AND SWAP2 SWAP1 SWAP2 OR DUP2 SSTORE PUSH1 0x20 SWAP2 DUP3 ADD MLOAD PUSH1 0x1 SWAP1 SWAP2 ADD SSTORE CALLER PUSH0 DUP2 DUP2 MSTORE PUSH1 0x6D DUP4 MSTORE PUSH1 0x40 SWAP1 DUP2 SWAP1 KECCAK256 DUP1 SLOAD PUSH1 0xFF NOT AND PUSH1 0xFF DUP7 DUP2 AND SWAP2 DUP3 OR SWAP1 SWAP3 SSTORE DUP3 MLOAD DUP9 DUP2 MSTORE SWAP2 DUP8 AND SWAP5 DUP3 ADD SWAP5 SWAP1 SWAP5 MSTORE SWAP1 DUP2 ADD DUP9 SWAP1 MSTORE PUSH1 0x60 DUP2 ADD SWAP3 SWAP1 SWAP3 MSTORE SWAP1 PUSH32 0x1CE0BEAEC98D7537137A85C2D351C6C99900830D30FE8A7C353FA27225807E72 SWAP1 PUSH1 0x80 ADD PUSH1 0x40 MLOAD DUP1 SWAP2 SUB SWAP1 LOG2 PUSH1 0x9 PUSH2 0xA7C PUSH1 0x2 PUSH1 0x32 PUSH2 0x1005 JUMP JUMPDEST PUSH1 0xFF AND PUSH1 0x32 DUP2 LT PUSH2 0xA8F JUMPI PUSH2 0xA8F PUSH2 0xEE5 JUMP JUMPDEST PUSH1 0x2 MUL ADD PUSH1 0x1 ADD SLOAD PUSH1 0x6 SLOAD EQ PUSH2 0xB85 JUMPI PUSH1 0x9 PUSH2 0xAAD PUSH1 0x2 PUSH1 0x32 PUSH2 0x1005 JUMP JUMPDEST PUSH1 0xFF AND PUSH1 0x32 DUP2 LT PUSH2 0xAC0 JUMPI PUSH2 0xAC0 PUSH2 0xEE5 JUMP JUMPDEST PUSH1 0x1 PUSH1 0x2 SWAP2 DUP3 MUL SWAP3 SWAP1 SWAP3 ADD DUP3 ADD SLOAD PUSH1 0x6 DUP2 DUP2 SSTORE PUSH1 0x40 DUP1 MLOAD DUP1 DUP3 ADD DUP3 MSTORE SWAP3 DUP4 MSTORE TIMESTAMP PUSH1 0x20 DUP5 ADD SWAP1 DUP2 MSTORE PUSH1 0x7 DUP1 SLOAD SWAP7 DUP8 ADD DUP2 SSTORE PUSH0 MSTORE SWAP3 MLOAD SWAP5 SWAP1 SWAP4 MUL PUSH32 0xA66CC928B5EDB82AF9BD49922954155AB7B0942694BEA4CE44661D9A8736C688 DUP2 ADD SWAP5 SWAP1 SWAP5 SSTORE SWAP1 MLOAD PUSH32 0xA66CC928B5EDB82AF9BD49922954155AB7B0942694BEA4CE44661D9A8736C689 SWAP1 SWAP4 ADD SWAP3 SWAP1 SWAP3 SSTORE SWAP1 SLOAD SWAP1 MLOAD PUSH32 0xA90E14BE5AA57B910AA6DC16C31FF1B5CDA380AE25A793B0D3F74DF6131A7D74 SWAP2 PUSH2 0xB7C SWAP2 SWAP1 DUP2 MSTORE PUSH1 0x20 ADD SWAP1 JUMP JUMPDEST PUSH1 0x40 MLOAD DUP1 SWAP2 SUB SWAP1 LOG1 JUMPDEST SWAP5 SWAP4 POP POP POP POP JUMP JUMPDEST PUSH1 0x5 PUSH1 0x20 MSTORE PUSH0 SWAP1 DUP2 MSTORE PUSH1 0x40 SWAP1 KECCAK256 DUP1 SLOAD DUP2 SWAP1 PUSH2 0xBA7 SWAP1 PUSH2 0x1032 JUMP JUMPDEST DUP1 PUSH1 0x1F ADD PUSH1 0x20 DUP1 SWAP2 DIV MUL PUSH1 0x20 ADD PUSH1 0x40 MLOAD SWAP1 DUP2 ADD PUSH1 0x40 MSTORE DUP1 SWAP3 SWAP2 SWAP1 DUP2 DUP2 MSTORE PUSH1 0x20 ADD DUP3 DUP1 SLOAD PUSH2 0xBD3 SWAP1 PUSH2 0x1032 JUMP JUMPDEST DUP1 ISZERO PUSH2 0xC1E JUMPI DUP1 PUSH1 0x1F LT PUSH2 0xBF5 JUMPI PUSH2 0x100 DUP1 DUP4 SLOAD DIV MUL DUP4 MSTORE SWAP2 PUSH1 0x20 ADD SWAP2 PUSH2 0xC1E JUMP JUMPDEST DUP3 ADD SWAP2 SWAP1 PUSH0 MSTORE PUSH1 0x20 PUSH0 KECCAK256 SWAP1 JUMPDEST DUP2 SLOAD DUP2 MSTORE SWAP1 PUSH1 0x1 ADD SWAP1 PUSH1 0x20 ADD DUP1 DUP4 GT PUSH2 0xC01 JUMPI DUP3 SWAP1 SUB PUSH1 0x1F AND DUP3 ADD SWAP2 JUMPDEST POP POP POP POP POP SWAP1 DUP1 PUSH1 0x1 ADD DUP1 SLOAD PUSH2 0xC33 SWAP1 PUSH2 0x1032 JUMP JUMPDEST DUP1 PUSH1 0x1F ADD PUSH1 0x20 DUP1 SWAP2 DIV MUL PUSH1 0x20 ADD PUSH1 0x40 MLOAD SWAP1 DUP2 ADD PUSH1 0x40 MSTORE DUP1 SWAP3 SWAP2 SWAP1 DUP2 DUP2 MSTORE PUSH1 0x20 ADD DUP3 DUP1 SLOAD PUSH2 0xC5F SWAP1 PUSH2 0x1032 JUMP JUMPDEST DUP1 ISZERO PUSH2 0xCAA JUMPI DUP1 PUSH1 0x1F LT PUSH2 0xC81 JUMPI PUSH2 0x100 DUP1 DUP4 SLOAD DIV MUL DUP4 MSTORE SWAP2 PUSH1 0x20 ADD SWAP2 PUSH2 0xCAA JUMP JUMPDEST DUP3 ADD SWAP2 SWAP1 PUSH0 MSTORE PUSH1 0x20 PUSH0 KECCAK256 SWAP1 JUMPDEST DUP2 SLOAD DUP2 MSTORE SWAP1 PUSH1 0x1 ADD SWAP1 PUSH1 0x20 ADD DUP1 DUP4 GT PUSH2 0xC8D JUMPI DUP3 SWAP1 SUB PUSH1 0x1F AND DUP3 ADD SWAP2 JUMPDEST POP POP POP POP POP SWAP1 DUP1 PUSH1 0x2 ADD DUP1 SLOAD PUSH2 0xCBF SWAP1 PUSH2 0x1032 JUMP JUMPDEST DUP1 PUSH1 0x1F ADD PUSH1 0x20 DUP1 SWAP2 DIV MUL PUSH1 0x20 ADD PUSH1 0x40 MLOAD SWAP1 DUP2 ADD PUSH1 0x40 MSTORE DUP1 SWAP3 SWAP2 SWAP1 DUP2 DUP2 MSTORE PUSH1 0x20 ADD DUP3 DUP1 SLOAD PUSH2 0xCEB SWAP1 PUSH2 0x1032 JUMP JUMPDEST DUP1 ISZERO PUSH2 0xD36 JUMPI DUP1 PUSH1 0x1F LT PUSH2 0xD0D JUMPI PUSH2 0x100 DUP1 DUP4 SLOAD DIV MUL DUP4 MSTORE SWAP2 PUSH1 0x20 ADD SWAP2 PUSH2 0xD36 JUMP JUMPDEST DUP3 ADD SWAP2 SWAP1 PUSH0 MSTORE PUSH1 0x20 PUSH0 KECCAK256 SWAP1 JUMPDEST DUP2 SLOAD DUP2 MSTORE SWAP1 PUSH1 0x1 ADD SWAP1 PUSH1 0x20 ADD DUP1 DUP4 GT PUSH2 0xD19 JUMPI DUP3 SWAP1 SUB PUSH1 0x1F AND DUP3 ADD SWAP2 JUMPDEST POP POP POP POP PUSH1 0x3 DUP4 ADD SLOAD PUSH1 0x4 DUP5 ADD SLOAD PUSH1 0x5 DUP6 ADD SLOAD PUSH1 0x6 SWAP1 SWAP6 ADD SLOAD SWAP4 SWAP5 SWAP2 SWAP4 PUSH2 0xFFFF DUP1 DUP4 AND SWAP5 POP PUSH3 0x10000 SWAP3 DUP4 SWAP1 DIV PUSH1 0xFF AND SWAP4 SWAP3 DUP2 DUP4 AND SWAP3 DIV AND DUP10 JUMP JUMPDEST PUSH1 0x7 DUP2 DUP2 SLOAD DUP2 LT PUSH2 0xD80 JUMPI PUSH0 DUP1 REVERT JUMPDEST PUSH0 SWAP2 DUP3 MSTORE PUSH1 0x20 SWAP1 SWAP2 KECCAK256 PUSH1 0x2 SWAP1 SWAP2 MUL ADD DUP1 SLOAD PUSH1 0x1 SWAP1 SWAP2 ADD SLOAD SWAP1 SWAP2 POP DUP3 JUMP JUMPDEST DUP1 CALLDATALOAD PUSH1 0x1 PUSH1 0x1 PUSH1 0xA0 SHL SUB DUP2 AND DUP2 EQ PUSH2 0xDB3 JUMPI PUSH0 DUP1 REVERT JUMPDEST SWAP2 SWAP1 POP JUMP JUMPDEST PUSH0 DUP1 PUSH1 0x40 DUP4 DUP6 SUB SLT ISZERO PUSH2 0xDC9 JUMPI PUSH0 DUP1 REVERT JUMPDEST PUSH2 0xDD2 DUP4 PUSH2 0xD9D JUMP JUMPDEST SWAP5 PUSH1 0x20 SWAP4 SWAP1 SWAP4 ADD CALLDATALOAD SWAP4 POP POP POP JUMP JUMPDEST PUSH0 PUSH1 0x20 DUP3 DUP5 SUB SLT ISZERO PUSH2 0xDF0 JUMPI PUSH0 DUP1 REVERT JUMPDEST POP CALLDATALOAD SWAP2 SWAP1 POP JUMP JUMPDEST PUSH1 0x20 DUP2 ADD PUSH1 0x6 DUP4 LT PUSH2 0xE17 JUMPI PUSH4 0x4E487B71 PUSH1 0xE0 SHL PUSH0 MSTORE PUSH1 0x21 PUSH1 0x4 MSTORE PUSH1 0x24 PUSH0 REVERT JUMPDEST SWAP2 SWAP1 MSTORE SWAP1 JUMP JUMPDEST PUSH0 PUSH1 0x20 DUP3 DUP5 SUB SLT ISZERO PUSH2 0xE2D JUMPI PUSH0 DUP1 REVERT JUMPDEST PUSH2 0xE36 DUP3 PUSH2 0xD9D JUMP JUMPDEST SWAP4 SWAP3 POP POP POP JUMP JUMPDEST PUSH0 DUP2 MLOAD DUP1 DUP5 MSTORE DUP1 PUSH1 0x20 DUP5 ADD PUSH1 0x20 DUP7 ADD MCOPY PUSH0 PUSH1 0x20 DUP3 DUP7 ADD ADD MSTORE PUSH1 0x20 PUSH1 0x1F NOT PUSH1 0x1F DUP4 ADD AND DUP6 ADD ADD SWAP2 POP POP SWAP3 SWAP2 POP POP JUMP JUMPDEST PUSH2 0x120 DUP2 MSTORE PUSH0 PUSH2 0xE7F PUSH2 0x120 DUP4 ADD DUP13 PUSH2 0xE3D JUMP JUMPDEST DUP3 DUP2 SUB PUSH1 0x20 DUP5 ADD MSTORE PUSH2 0xE91 DUP2 DUP13 PUSH2 0xE3D JUMP JUMPDEST SWAP1 POP DUP3 DUP2 SUB PUSH1 0x40 DUP5 ADD MSTORE PUSH2 0xEA5 DUP2 DUP12 PUSH2 0xE3D JUMP JUMPDEST PUSH1 0x60 DUP5 ADD SWAP10 SWAP1 SWAP10 MSTORE POP POP PUSH2 0xFFFF SWAP6 DUP7 AND PUSH1 0x80 DUP3 ADD MSTORE PUSH1 0xFF SWAP5 SWAP1 SWAP5 AND PUSH1 0xA0 DUP6 ADD MSTORE PUSH1 0xC0 DUP5 ADD SWAP3 SWAP1 SWAP3 MSTORE DUP4 AND PUSH1 0xE0 DUP4 ADD MSTORE SWAP1 SWAP2 AND PUSH2 0x100 SWAP1 SWAP2 ADD MSTORE SWAP4 SWAP3 POP POP POP JUMP JUMPDEST PUSH4 0x4E487B71 PUSH1 0xE0 SHL PUSH0 MSTORE PUSH1 0x32 PUSH1 0x4 MSTORE PUSH1 0x24 PUSH0 REVERT JUMPDEST PUSH4 0x4E487B71 PUSH1 0xE0 SHL PUSH0 MSTORE PUSH1 0x11 PUSH1 0x4 MSTORE PUSH1 0x24 PUSH0 REVERT JUMPDEST DUP1 DUP3 ADD DUP3 DUP2 SLT PUSH0 DUP4 SLT DUP1 ISZERO DUP3 AND DUP3 ISZERO DUP3 AND OR ISZERO PUSH2 0xF2C JUMPI PUSH2 0xF2C PUSH2 0xEF9 JUMP JUMPDEST POP POP SWAP3 SWAP2 POP POP JUMP JUMPDEST PUSH0 PUSH2 0xFFFF DUP3 AND PUSH2 0xFFFF DUP2 SUB PUSH2 0xF4B JUMPI PUSH2 0xF4B PUSH2 0xEF9 JUMP JUMPDEST PUSH1 0x1 ADD SWAP3 SWAP2 POP POP JUMP JUMPDEST PUSH1 0xFF DUP2 DUP2 AND DUP4 DUP3 AND MUL SWAP1 DUP2 AND SWAP1 DUP2 DUP2 EQ PUSH2 0xF70 JUMPI PUSH2 0xF70 PUSH2 0xEF9 JUMP JUMPDEST POP SWAP3 SWAP2 POP POP JUMP JUMPDEST DUP1 DUP3 ADD DUP1 DUP3 GT ISZERO PUSH2 0xF8A JUMPI PUSH2 0xF8A PUSH2 0xEF9 JUMP JUMPDEST SWAP3 SWAP2 POP POP JUMP JUMPDEST DUP2 DUP2 SUB DUP2 DUP2 GT ISZERO PUSH2 0xF8A JUMPI PUSH2 0xF8A PUSH2 0xEF9 JUMP JUMPDEST PUSH0 PUSH1 0xFF DUP3 AND DUP1 PUSH2 0xFB5 JUMPI PUSH2 0xFB5 PUSH2 0xEF9 JUMP JUMPDEST PUSH0 NOT ADD SWAP3 SWAP2 POP POP JUMP JUMPDEST PUSH1 0xFF DUP3 DUP2 AND DUP3 DUP3 AND SUB SWAP1 DUP2 GT ISZERO PUSH2 0xF8A JUMPI PUSH2 0xF8A PUSH2 0xEF9 JUMP JUMPDEST PUSH1 0xFF DUP2 DUP2 AND DUP4 DUP3 AND ADD SWAP1 DUP2 GT ISZERO PUSH2 0xF8A JUMPI PUSH2 0xF8A PUSH2 0xEF9 JUMP JUMPDEST PUSH0 PUSH1 0xFF DUP3 AND PUSH1 0xFF DUP2 SUB PUSH2 0xF4B JUMPI PUSH2 0xF4B PUSH2 0xEF9 JUMP JUMPDEST PUSH0 PUSH1 0xFF DUP4 AND DUP1 PUSH2 0x1023 JUMPI PUSH4 0x4E487B71 PUSH1 0xE0 SHL PUSH0 MSTORE PUSH1 0x12 PUSH1 0x4 MSTORE PUSH1 0x24 PUSH0 REVERT JUMPDEST DUP1 PUSH1 0xFF DUP5 AND DIV SWAP2 POP POP SWAP3 SWAP2 POP POP JUMP JUMPDEST PUSH1 0x1 DUP2 DUP2 SHR SWAP1 DUP3 AND DUP1 PUSH2 0x1046 JUMPI PUSH1 0x7F DUP3 AND SWAP2 POP JUMPDEST PUSH1 0x20 DUP3 LT DUP2 SUB PUSH2 0x1064 JUMPI PUSH4 0x4E487B71 PUSH1 0xE0 SHL PUSH0 MSTORE PUSH1 0x22 PUSH1 0x4 MSTORE PUSH1 0x24 PUSH0 REVERT JUMPDEST POP SWAP2 SWAP1 POP JUMP INVALID LOG2 PUSH5 0x6970667358 0x22 SLT KECCAK256 PUSH16 0x4E4A041DD034958A64C814500CFBFB51 PUSH27 0xFEDF5F33913831DB89A01A02E99264736F6C634300081A00330000 "
		},
		"gasEstimates": {
			"creation": {
				"codeDepositCost": "851200",
				"executionCost": "25105",
				"totalCost": "876305"
			},
			"external": {
				"CAMPAIGN_DURATION()": "207",
				"LenderTxns(address,uint256)": "6919",
				"N_MEMBERS()": "225",
				"RANDOM_VOTERS()": "293",
				"RegistrationEnd()": "2349",
				"addedVoterCount()": "2380",
				"candidateInfo(address)": "infinite",
				"candidateList(uint256)": "4722",
				"currentRate()": "2393",
				"electionEnd()": "2394",
				"getBalance()": "infinite",
				"getCurrentPhase()": "infinite",
				"interestPeriods(uint256)": "6816",
				"lend()": "70257",
				"memberRank(address)": "2597",
				"noRates()": "2401",
				"proposeRate(uint256)": "infinite",
				"referendumEnd()": "2306",
				"sortedRates(uint256)": "4675"
			}
		},
		"methodIdentifiers": {
			"CAMPAIGN_DURATION()": "08fd4cfa",
			"LenderTxns(address,uint256)": "53fdc838",
			"N_MEMBERS()": "e292bf16",
			"RANDOM_VOTERS()": "3def77b7",
			"RegistrationEnd()": "be07f0f8",
			"addedVoterCount()": "1b408934",
			"candidateInfo(address)": "e965b7c9",
			"candidateList(uint256)": "b13c744b",
			"currentRate()": "f9f8bdb7",
			"electionEnd()": "ce7ea161",
			"getBalance()": "12065fe0",
			"getCurrentPhase()": "a3a40ea5",
			"interestPeriods(uint256)": "f33e9573",
			"lend()": "97dffc61",
			"memberRank(address)": "eab536fc",
			"noRates()": "c8d7b9f1",
			"proposeRate(uint256)": "bdc8e7b3",
			"referendumEnd()": "bab752e5",
			"sortedRates(uint256)": "9dc99455"
		}
	},
	"abi": [
		{
			"anonymous": false,
			"inputs": [
				{
					"indexed": false,
					"internalType": "uint256",
					"name": "newMedianRate",
					"type": "uint256"
				}
			],
			"name": "InterestRateUpdated",
			"type": "event"
		},
		{
			"anonymous": false,
			"inputs": [
				{
					"indexed": true,
					"internalType": "address",
					"name": "lender",
					"type": "address"
				},
				{
					"indexed": false,
					"internalType": "int256",
					"name": "amount",
					"type": "int256"
				}
			],
			"name": "LoanReceived",
			"type": "event"
		},
		{
			"anonymous": false,
			"inputs": [
				{
					"indexed": true,
					"internalType": "address",
					"name": "member",
					"type": "address"
				},
				{
					"indexed": false,
					"internalType": "uint256",
					"name": "oldRate",
					"type": "uint256"
				},
				{
					"indexed": false,
					"internalType": "uint8",
					"name": "oldRank",
					"type": "uint8"
				},
				{
					"indexed": false,
					"internalType": "uint256",
					"name": "newRate",
					"type": "uint256"
				},
				{
					"indexed": false,
					"internalType": "uint8",
					"name": "newRank",
					"type": "uint8"
				}
			],
			"name": "MemberRateChanged",
			"type": "event"
		},
		{
			"inputs": [],
			"name": "CAMPAIGN_DURATION",
			"outputs": [
				{
					"internalType": "uint256",
					"name": "",
					"type": "uint256"
				}
			],
			"stateMutability": "view",
			"type": "function"
		},
		{
			"inputs": [
				{
					"internalType": "address",
					"name": "",
					"type": "address"
				},
				{
					"internalType": "uint256",
					"name": "",
					"type": "uint256"
				}
			],
			"name": "LenderTxns",
			"outputs": [
				{
					"internalType": "int256",
					"name": "amount",
					"type": "int256"
				},
				{
					"internalType": "uint256",
					"name": "txnTime",
					"type": "uint256"
				}
			],
			"stateMutability": "view",
			"type": "function"
		},
		{
			"inputs": [],
			"name": "N_MEMBERS",
			"outputs": [
				{
					"internalType": "uint8",
					"name": "",
					"type": "uint8"
				}
			],
			"stateMutability": "view",
			"type": "function"
		},
		{
			"inputs": [],
			"name": "RANDOM_VOTERS",
			"outputs": [
				{
					"internalType": "uint16",
					"name": "",
					"type": "uint16"
				}
			],
			"stateMutability": "view",
			"type": "function"
		},
		{
			"inputs": [],
			"name": "RegistrationEnd",
			"outputs": [
				{
					"internalType": "uint256",
					"name": "",
					"type": "uint256"
				}
			],
			"stateMutability": "view",
			"type": "function"
		},
		{
			"inputs": [],
			"name": "addedVoterCount",
			"outputs": [
				{
					"internalType": "uint16",
					"name": "",
					"type": "uint16"
				}
			],
			"stateMutability": "view",
			"type": "function"
		},
		{
			"inputs": [
				{
					"internalType": "address",
					"name": "",
					"type": "address"
				}
			],
			"name": "candidateInfo",
			"outputs": [
				{
					"internalType": "string",
					"name": "fullName",
					"type": "string"
				},
				{
					"internalType": "string",
					"name": "bio",
					"type": "string"
				},
				{
					"internalType": "string",
					"name": "website",
					"type": "string"
				},
				{
					"internalType": "uint256",
					"name": "registeredAt",
					"type": "uint256"
				},
				{
					"internalType": "uint16",
					"name": "voteCount",
					"type": "uint16"
				},
				{
					"internalType": "uint8",
					"name": "memberID",
					"type": "uint8"
				},
				{
					"internalType": "uint256",
					"name": "leaderAt",
					"type": "uint256"
				},
				{
					"internalType": "uint16",
					"name": "activeProposal",
					"type": "uint16"
				},
				{
					"internalType": "uint16",
					"name": "submittedDraft",
					"type": "uint16"
				}
			],
			"stateMutability": "view",
			"type": "function"
		},
		{
			"inputs": [
				{
					"internalType": "uint256",
					"name": "",
					"type": "uint256"
				}
			],
			"name": "candidateList",
			"outputs": [
				{
					"internalType": "address",
					"name": "",
					"type": "address"
				}
			],
			"stateMutability": "view",
			"type": "function"
		},
		{
			"inputs": [],
			"name": "currentRate",
			"outputs": [
				{
					"internalType": "uint256",
					"name": "",
					"type": "uint256"
				}
			],
			"stateMutability": "view",
			"type": "function"
		},
		{
			"inputs": [],
			"name": "electionEnd",
			"outputs": [
				{
					"internalType": "uint256",
					"name": "",
					"type": "uint256"
				}
			],
			"stateMutability": "view",
			"type": "function"
		},
		{
			"inputs": [],
			"name": "getBalance",
			"outputs": [
				{
					"internalType": "int256",
					"name": "_sum",
					"type": "int256"
				}
			],
			"stateMutability": "view",
			"type": "function"
		},
		{
			"inputs": [],
			"name": "getCurrentPhase",
			"outputs": [
				{
					"internalType": "enum Phase",
					"name": "",
					"type": "uint8"
				}
			],
			"stateMutability": "nonpayable",
			"type": "function"
		},
		{
			"inputs": [
				{
					"internalType": "uint256",
					"name": "",
					"type": "uint256"
				}
			],
			"name": "interestPeriods",
			"outputs": [
				{
					"internalType": "uint256",
					"name": "rate",
					"type": "uint256"
				},
				{
					"internalType": "uint256",
					"name": "startedAt",
					"type": "uint256"
				}
			],
			"stateMutability": "view",
			"type": "function"
		},
		{
			"inputs": [],
			"name": "lend",
			"outputs": [],
			"stateMutability": "payable",
			"type": "function"
		},
		{
			"inputs": [
				{
					"internalType": "address",
					"name": "",
					"type": "address"
				}
			],
			"name": "memberRank",
			"outputs": [
				{
					"internalType": "uint8",
					"name": "",
					"type": "uint8"
				}
			],
			"stateMutability": "view",
			"type": "function"
		},
		{
			"inputs": [],
			"name": "noRates",
			"outputs": [
				{
					"internalType": "uint8",
					"name": "",
					"type": "uint8"
				}
			],
			"stateMutability": "view",
			"type": "function"
		},
		{
			"inputs": [
				{
					"internalType": "uint256",
					"name": "newRate",
					"type": "uint256"
				}
			],
			"name": "proposeRate",
			"outputs": [
				{
					"internalType": "uint8",
					"name": "newRank",
					"type": "uint8"
				}
			],
			"stateMutability": "nonpayable",
			"type": "function"
		},
		{
			"inputs": [],
			"name": "referendumEnd",
			"outputs": [
				{
					"internalType": "uint256",
					"name": "",
					"type": "uint256"
				}
			],
			"stateMutability": "view",
			"type": "function"
		},
		{
			"inputs": [
				{
					"internalType": "uint256",
					"name": "",
					"type": "uint256"
				}
			],
			"name": "sortedRates",
			"outputs": [
				{
					"internalType": "address",
					"name": "member",
					"type": "address"
				},
				{
					"internalType": "uint256",
					"name": "rate",
					"type": "uint256"
				}
			],
			"stateMutability": "view",
			"type": "function"
		}
	]
}