{
	"data": {
		"bytecode": {
			"linkReferences": {},
			"object": "60a06040525f606e5f6101000a81548160ff021916908360ff1602179055503480156028575f80fd5b50608051611c2b6100415f395f61074b0152611c2b5ff3fe608060405260043610610129575f3560e01c80639dc99455116100aa578063ce7ea1611161006e578063ce7ea161146103d0578063e292bf16146103fa578063e965b7c914610424578063eab536fc14610466578063f33e9573146104a2578063f9f8bdb7146104df57610129565b80639dc99455146102db578063a3a40ea514610318578063b0feb26014610342578063b13c744b1461036c578063bdc8e7b3146103a857610129565b806353fdc838116100f157806353fdc8381461021657806359297dbf1461025357806378e979251461027d5780638f3218df146102a757806397dffc61146102d157610129565b8063013cf08b1461012d57806312065fe01461016e5780633def77b71461019857806347f7b722146101c25780634d0c8726146101ec575b5f80fd5b348015610138575f80fd5b50610153600480360381019061014e91906113b1565b610509565b604051610165969594939291906114b5565b60405180910390f35b348015610179575f80fd5b50610182610601565b60405161018f9190611533565b60405180910390f35b3480156101a3575f80fd5b506101ac6106d6565b6040516101b9919061156a565b60405180910390f35b3480156101cd575f80fd5b506101d66106dc565b6040516101e39190611583565b60405180910390f35b3480156101f7575f80fd5b506102006106e3565b60405161020d919061159c565b60405180910390f35b348015610221575f80fd5b5061023c600480360381019061023791906115df565b610708565b60405161024a92919061161d565b60405180910390f35b34801561025e575f80fd5b50610267610742565b6040516102749190611583565b60405180910390f35b348015610288575f80fd5b50610291610749565b60405161029e9190611583565b60405180910390f35b3480156102b2575f80fd5b506102bb61076d565b6040516102c89190611644565b60405180910390f35b6102d961077f565b005b3480156102e6575f80fd5b5061030160048036038101906102fc91906113b1565b610860565b60405161030f92919061165d565b60405180910390f35b348015610323575f80fd5b5061032c6108a6565b60405161033991906116f7565b60405180910390f35b34801561034d575f80fd5b50610356610969565b6040516103639190611583565b60405180910390f35b348015610377575f80fd5b50610392600480360381019061038d91906113b1565b61096f565b60405161039f919061159c565b60405180910390f35b3480156103b3575f80fd5b506103ce60048036038101906103c991906113b1565b6109aa565b005b3480156103db575f80fd5b506103e4611142565b6040516103f19190611583565b60405180910390f35b348015610405575f80fd5b5061040e611147565b60405161041b9190611644565b60405180910390f35b34801561042f575f80fd5b5061044a60048036038101906104459190611710565b61114c565b60405161045d9796959493929190611755565b60405180910390f35b348015610471575f80fd5b5061048c60048036038101906104879190611710565b611328565b6040516104999190611644565b60405180910390f35b3480156104ad575f80fd5b506104c860048036038101906104c391906113b1565b611345565b6040516104d69291906117d7565b60405180910390f35b3480156104ea575f80fd5b506104f3611374565b6040516105009190611583565b60405180910390f35b60048181548110610518575f80fd5b905f5260205f2090600702015f91509050805f015f9054906101000a900473ffffffffffffffffffffffffffffffffffffffff169080600101805461055c9061182b565b80601f01602080910402602001604051908101604052809291908181526020018280546105889061182b565b80156105d35780601f106105aa576101008083540402835291602001916105d3565b820191905f5260205f20905b8154815290600101906020018083116105b657829003601f168201915b505050505090806002015490806003015490806004015490806005015f9054906101000a900460ff16905086565b5f805b60085f3373ffffffffffffffffffffffffffffffffffffffff1673ffffffffffffffffffffffffffffffffffffffff1681526020019081526020015f20805490508161ffff1610156106d25760085f3373ffffffffffffffffffffffffffffffffffffffff1673ffffffffffffffffffffffffffffffffffffffff1681526020019081526020015f208161ffff16815481106106a3576106a261185b565b5b905f5260205f2090600202015f0154826106bd91906118b5565b915080806106ca90611903565b915050610604565b5090565b6103e881565b6212750081565b60015f9054906101000a900473ffffffffffffffffffffffffffffffffffffffff1681565b6008602052815f5260405f208181548110610721575f80fd5b905f5260205f2090600202015f9150915050805f0154908060010154905082565b5f47905090565b7f000000000000000000000000000000000000000000000000000000000000000081565b606e5f9054906101000a900460ff1681565b5f604051806040016040528034815260200142815250905060085f3373ffffffffffffffffffffffffffffffffffffffff1673ffffffffffffffffffffffffffffffffffffffff1681526020019081526020015f2081908060018154018082558091505060019003905f5260205f2090600202015f909190919091505f820151815f01556020820151816001015550503373ffffffffffffffffffffffffffffffffffffffff167f976be468429698a1b0ae0c20a0329bdb6e24722a3f834a2c54b84d63c1722f32346040516108559190611533565b60405180910390a250565b6009816032811061086f575f80fd5b600202015f91509050805f015f9054906101000a900473ffffffffffffffffffffffffffffffffffffffff16908060010154905082565b5f620151805f546108b7919061192c565b4210156108c6575f9050610966565b5f5442101561093c57603260026108dd919061195f565b60ff16600280549050108061091157506103e863ffffffff16600160149054906101000a900463ffffffff1663ffffffff16105b1561093357621275005f54610926919061199b565b5f819055505f9050610966565b60019050610966565b5f6005540361094e5760029050610966565b6005544210156109615760039050610966565b600490505b90565b60055481565b6002818154811061097e575f80fd5b905f5260205f20015f915054906101000a900473ffffffffffffffffffffffffffffffffffffffff1681565b60035f3373ffffffffffffffffffffffffffffffffffffffff1673ffffffffffffffffffffffffffffffffffffffff1681526020019081526020015f206005015f9054906101000a900460ff16610a36576040517f08c379a0000000000000000000000000000000000000000000000000000000008152600401610a2d90611a18565b60405180910390fd5b611388811115610a7b576040517f08c379a0000000000000000000000000000000000000000000000000000000008152600401610a7290611a80565b60405180910390fd5b5f80606d5f3373ffffffffffffffffffffffffffffffffffffffff1673ffffffffffffffffffffffffffffffffffffffff1681526020019081526020015f205f9054906101000a900460ff1690505f8160ff16148015610b4357503373ffffffffffffffffffffffffffffffffffffffff1660098260ff1660328110610b0457610b0361185b565b5b600202015f015f9054906101000a900473ffffffffffffffffffffffffffffffffffffffff1673ffffffffffffffffffffffffffffffffffffffff1614155b15610b8757606e5f81819054906101000a900460ff1680929190610b6690611a9e565b91906101000a81548160ff021916908360ff160217905550505f9150610ba9565b60098160ff1660328110610b9e57610b9d61185b565b5b600202016001015491505b5f819050828403610bbc5750505061113f565b82841115610d70575b60016032610bd39190611ac6565b60ff168160ff16108015610c1057506009600182610bf19190611afa565b60ff1660328110610c0557610c0461185b565b5b600202016001015484115b15610d6b576009600182610c249190611afa565b60ff1660328110610c3857610c3761185b565b5b6002020160098260ff1660328110610c5357610c5261185b565b5b600202015f82015f9054906101000a900473ffffffffffffffffffffffffffffffffffffffff16815f015f6101000a81548173ffffffffffffffffffffffffffffffffffffffff021916908373ffffffffffffffffffffffffffffffffffffffff1602179055506001820154816001015590505080606d5f60098460ff1660328110610ce257610ce161185b565b5b600202015f015f9054906101000a900473ffffffffffffffffffffffffffffffffffffffff1673ffffffffffffffffffffffffffffffffffffffff1673ffffffffffffffffffffffffffffffffffffffff1681526020019081526020015f205f6101000a81548160ff021916908360ff1602179055508080610d6390611a9e565b915050610bc5565b610f08565b5b5f8160ff16118015610dac57506009600182610d8d9190611ac6565b60ff1660328110610da157610da061185b565b5b600202016001015484105b15610f07576009600182610dc09190611ac6565b60ff1660328110610dd457610dd361185b565b5b6002020160098260ff1660328110610def57610dee61185b565b5b600202015f82015f9054906101000a900473ffffffffffffffffffffffffffffffffffffffff16815f015f6101000a81548173ffffffffffffffffffffffffffffffffffffffff021916908373ffffffffffffffffffffffffffffffffffffffff1602179055506001820154816001015590505080606d5f60098460ff1660328110610e7e57610e7d61185b565b5b600202015f015f9054906101000a900473ffffffffffffffffffffffffffffffffffffffff1673ffffffffffffffffffffffffffffffffffffffff1673ffffffffffffffffffffffffffffffffffffffff1681526020019081526020015f205f6101000a81548160ff021916908360ff1602179055508080610eff90611b2e565b915050610d71565b5b60405180604001604052803373ffffffffffffffffffffffffffffffffffffffff1681526020018581525060098260ff1660328110610f4a57610f4961185b565b5b600202015f820151815f015f6101000a81548173ffffffffffffffffffffffffffffffffffffffff021916908373ffffffffffffffffffffffffffffffffffffffff1602179055506020820151816001015590505080606d5f3373ffffffffffffffffffffffffffffffffffffffff1673ffffffffffffffffffffffffffffffffffffffff1681526020019081526020015f205f6101000a81548160ff021916908360ff1602179055503373ffffffffffffffffffffffffffffffffffffffff167f1ce0beaec98d7537137a85c2d351c6c99900830d30fe8a7c353fa27225807e72848487856040516110409493929190611b55565b60405180910390a26009600260326110589190611bc5565b60ff166032811061106c5761106b61185b565b5b60020201600101546006541461113b5760096002603261108c9190611bc5565b60ff16603281106110a05761109f61185b565b5b600202016001015460068190555060076040518060400160405280600654815260200142815250908060018154018082558091505060019003905f5260205f2090600202015f909190919091505f820151815f01556020820151816001015550507fa90e14be5aa57b910aa6dc16c31ff1b5cda380ae25a793b0d3f74df6131a7d746006546040516111329190611583565b60405180910390a15b5050505b50565b5f5481565b603281565b6003602052805f5260405f205f91509050805f01805461116b9061182b565b80601f01602080910402602001604051908101604052809291908181526020018280546111979061182b565b80156111e25780601f106111b9576101008083540402835291602001916111e2565b820191905f5260205f20905b8154815290600101906020018083116111c557829003601f168201915b5050505050908060010180546111f79061182b565b80601f01602080910402602001604051908101604052809291908181526020018280546112239061182b565b801561126e5780601f106112455761010080835404028352916020019161126e565b820191905f5260205f20905b81548152906001019060200180831161125157829003601f168201915b5050505050908060020180546112839061182b565b80601f01602080910402602001604051908101604052809291908181526020018280546112af9061182b565b80156112fa5780601f106112d1576101008083540402835291602001916112fa565b820191905f5260205f20905b8154815290600101906020018083116112dd57829003601f168201915b505050505090806003015490806004015490806005015f9054906101000a900460ff16908060060154905087565b606d602052805f5260405f205f915054906101000a900460ff1681565b60078181548110611354575f80fd5b905f5260205f2090600202015f91509050805f0154908060010154905082565b60065481565b5f80fd5b5f819050919050565b6113908161137e565b811461139a575f80fd5b50565b5f813590506113ab81611387565b92915050565b5f602082840312156113c6576113c561137a565b5b5f6113d38482850161139d565b91505092915050565b5f73ffffffffffffffffffffffffffffffffffffffff82169050919050565b5f611405826113dc565b9050919050565b611415816113fb565b82525050565b5f81519050919050565b5f82825260208201905092915050565b8281835e5f83830152505050565b5f601f19601f8301169050919050565b5f61145d8261141b565b6114678185611425565b9350611477818560208601611435565b61148081611443565b840191505092915050565b6114948161137e565b82525050565b5f60ff82169050919050565b6114af8161149a565b82525050565b5f60c0820190506114c85f83018961140c565b81810360208301526114da8188611453565b90506114e9604083018761148b565b6114f6606083018661148b565b611503608083018561148b565b61151060a08301846114a6565b979650505050505050565b5f819050919050565b61152d8161151b565b82525050565b5f6020820190506115465f830184611524565b92915050565b5f63ffffffff82169050919050565b6115648161154c565b82525050565b5f60208201905061157d5f83018461155b565b92915050565b5f6020820190506115965f83018461148b565b92915050565b5f6020820190506115af5f83018461140c565b92915050565b6115be816113fb565b81146115c8575f80fd5b50565b5f813590506115d9816115b5565b92915050565b5f80604083850312156115f5576115f461137a565b5b5f611602858286016115cb565b92505060206116138582860161139d565b9150509250929050565b5f6040820190506116305f830185611524565b61163d602083018461148b565b9392505050565b5f6020820190506116575f8301846114a6565b92915050565b5f6040820190506116705f83018561140c565b61167d602083018461148b565b9392505050565b7f4e487b71000000000000000000000000000000000000000000000000000000005f52602160045260245ffd5b600581106116c2576116c1611684565b5b50565b5f8190506116d2826116b1565b919050565b5f6116e1826116c5565b9050919050565b6116f1816116d7565b82525050565b5f60208201905061170a5f8301846116e8565b92915050565b5f602082840312156117255761172461137a565b5b5f611732848285016115cb565b91505092915050565b5f8115159050919050565b61174f8161173b565b82525050565b5f60e0820190508181035f83015261176d818a611453565b905081810360208301526117818189611453565b905081810360408301526117958188611453565b90506117a4606083018761148b565b6117b1608083018661148b565b6117be60a0830185611746565b6117cb60c083018461148b565b98975050505050505050565b5f6040820190506117ea5f83018561148b565b6117f7602083018461148b565b9392505050565b7f4e487b71000000000000000000000000000000000000000000000000000000005f52602260045260245ffd5b5f600282049050600182168061184257607f821691505b602082108103611855576118546117fe565b5b50919050565b7f4e487b71000000000000000000000000000000000000000000000000000000005f52603260045260245ffd5b7f4e487b71000000000000000000000000000000000000000000000000000000005f52601160045260245ffd5b5f6118bf8261151b565b91506118ca8361151b565b92508282019050828112155f8312168382125f8412151617156118f0576118ef611888565b5b92915050565b5f61ffff82169050919050565b5f61190d826118f6565b915061ffff820361192157611920611888565b5b600182019050919050565b5f6119368261137e565b91506119418361137e565b925082820390508181111561195957611958611888565b5b92915050565b5f6119698261149a565b91506119748361149a565b92508282026119828161149a565b915080821461199457611993611888565b5b5092915050565b5f6119a58261137e565b91506119b08361137e565b92508282019050808211156119c8576119c7611888565b5b92915050565b7f4f6e6c79206d656d626572732063616e2070726f706f736500000000000000005f82015250565b5f611a02601883611425565b9150611a0d826119ce565b602082019050919050565b5f6020820190508181035f830152611a2f816119f6565b9050919050565b7f526174652063616e6e6f742065786365656420353025000000000000000000005f82015250565b5f611a6a601683611425565b9150611a7582611a36565b602082019050919050565b5f6020820190508181035f830152611a9781611a5e565b9050919050565b5f611aa88261149a565b915060ff8203611abb57611aba611888565b5b600182019050919050565b5f611ad08261149a565b9150611adb8361149a565b9250828203905060ff811115611af457611af3611888565b5b92915050565b5f611b048261149a565b9150611b0f8361149a565b9250828201905060ff811115611b2857611b27611888565b5b92915050565b5f611b388261149a565b91505f8203611b4a57611b49611888565b5b600182039050919050565b5f608082019050611b685f83018761148b565b611b7560208301866114a6565b611b82604083018561148b565b611b8f60608301846114a6565b95945050505050565b7f4e487b71000000000000000000000000000000000000000000000000000000005f52601260045260245ffd5b5f611bcf8261149a565b9150611bda8361149a565b925082611bea57611be9611b98565b5b82820490509291505056fea2646970667358221220eae94d973f3394602a72eeeb64f4ee25c4642cbbf333b7cc94b7caa75b0d94da64736f6c634300081a0033",
			"opcodes": "PUSH1 0xA0 PUSH1 0x40 MSTORE PUSH0 PUSH1 0x6E PUSH0 PUSH2 0x100 EXP DUP2 SLOAD DUP2 PUSH1 0xFF MUL NOT AND SWAP1 DUP4 PUSH1 0xFF AND MUL OR SWAP1 SSTORE POP CALLVALUE DUP1 ISZERO PUSH1 0x28 JUMPI PUSH0 DUP1 REVERT JUMPDEST POP PUSH1 0x80 MLOAD PUSH2 0x1C2B PUSH2 0x41 PUSH0 CODECOPY PUSH0 PUSH2 0x74B ADD MSTORE PUSH2 0x1C2B PUSH0 RETURN INVALID PUSH1 0x80 PUSH1 0x40 MSTORE PUSH1 0x4 CALLDATASIZE LT PUSH2 0x129 JUMPI PUSH0 CALLDATALOAD PUSH1 0xE0 SHR DUP1 PUSH4 0x9DC99455 GT PUSH2 0xAA JUMPI DUP1 PUSH4 0xCE7EA161 GT PUSH2 0x6E JUMPI DUP1 PUSH4 0xCE7EA161 EQ PUSH2 0x3D0 JUMPI DUP1 PUSH4 0xE292BF16 EQ PUSH2 0x3FA JUMPI DUP1 PUSH4 0xE965B7C9 EQ PUSH2 0x424 JUMPI DUP1 PUSH4 0xEAB536FC EQ PUSH2 0x466 JUMPI DUP1 PUSH4 0xF33E9573 EQ PUSH2 0x4A2 JUMPI DUP1 PUSH4 0xF9F8BDB7 EQ PUSH2 0x4DF JUMPI PUSH2 0x129 JUMP JUMPDEST DUP1 PUSH4 0x9DC99455 EQ PUSH2 0x2DB JUMPI DUP1 PUSH4 0xA3A40EA5 EQ PUSH2 0x318 JUMPI DUP1 PUSH4 0xB0FEB260 EQ PUSH2 0x342 JUMPI DUP1 PUSH4 0xB13C744B EQ PUSH2 0x36C JUMPI DUP1 PUSH4 0xBDC8E7B3 EQ PUSH2 0x3A8 JUMPI PUSH2 0x129 JUMP JUMPDEST DUP1 PUSH4 0x53FDC838 GT PUSH2 0xF1 JUMPI DUP1 PUSH4 0x53FDC838 EQ PUSH2 0x216 JUMPI DUP1 PUSH4 0x59297DBF EQ PUSH2 0x253 JUMPI DUP1 PUSH4 0x78E97925 EQ PUSH2 0x27D JUMPI DUP1 PUSH4 0x8F3218DF EQ PUSH2 0x2A7 JUMPI DUP1 PUSH4 0x97DFFC61 EQ PUSH2 0x2D1 JUMPI PUSH2 0x129 JUMP JUMPDEST DUP1 PUSH4 0x13CF08B EQ PUSH2 0x12D JUMPI DUP1 PUSH4 0x12065FE0 EQ PUSH2 0x16E JUMPI DUP1 PUSH4 0x3DEF77B7 EQ PUSH2 0x198 JUMPI DUP1 PUSH4 0x47F7B722 EQ PUSH2 0x1C2 JUMPI DUP1 PUSH4 0x4D0C8726 EQ PUSH2 0x1EC JUMPI JUMPDEST PUSH0 DUP1 REVERT JUMPDEST CALLVALUE DUP1 ISZERO PUSH2 0x138 JUMPI PUSH0 DUP1 REVERT JUMPDEST POP PUSH2 0x153 PUSH1 0x4 DUP1 CALLDATASIZE SUB DUP2 ADD SWAP1 PUSH2 0x14E SWAP2 SWAP1 PUSH2 0x13B1 JUMP JUMPDEST PUSH2 0x509 JUMP JUMPDEST PUSH1 0x40 MLOAD PUSH2 0x165 SWAP7 SWAP6 SWAP5 SWAP4 SWAP3 SWAP2 SWAP1 PUSH2 0x14B5 JUMP JUMPDEST PUSH1 0x40 MLOAD DUP1 SWAP2 SUB SWAP1 RETURN JUMPDEST CALLVALUE DUP1 ISZERO PUSH2 0x179 JUMPI PUSH0 DUP1 REVERT JUMPDEST POP PUSH2 0x182 PUSH2 0x601 JUMP JUMPDEST PUSH1 0x40 MLOAD PUSH2 0x18F SWAP2 SWAP1 PUSH2 0x1533 JUMP JUMPDEST PUSH1 0x40 MLOAD DUP1 SWAP2 SUB SWAP1 RETURN JUMPDEST CALLVALUE DUP1 ISZERO PUSH2 0x1A3 JUMPI PUSH0 DUP1 REVERT JUMPDEST POP PUSH2 0x1AC PUSH2 0x6D6 JUMP JUMPDEST PUSH1 0x40 MLOAD PUSH2 0x1B9 SWAP2 SWAP1 PUSH2 0x156A JUMP JUMPDEST PUSH1 0x40 MLOAD DUP1 SWAP2 SUB SWAP1 RETURN JUMPDEST CALLVALUE DUP1 ISZERO PUSH2 0x1CD JUMPI PUSH0 DUP1 REVERT JUMPDEST POP PUSH2 0x1D6 PUSH2 0x6DC JUMP JUMPDEST PUSH1 0x40 MLOAD PUSH2 0x1E3 SWAP2 SWAP1 PUSH2 0x1583 JUMP JUMPDEST PUSH1 0x40 MLOAD DUP1 SWAP2 SUB SWAP1 RETURN JUMPDEST CALLVALUE DUP1 ISZERO PUSH2 0x1F7 JUMPI PUSH0 DUP1 REVERT JUMPDEST POP PUSH2 0x200 PUSH2 0x6E3 JUMP JUMPDEST PUSH1 0x40 MLOAD PUSH2 0x20D SWAP2 SWAP1 PUSH2 0x159C JUMP JUMPDEST PUSH1 0x40 MLOAD DUP1 SWAP2 SUB SWAP1 RETURN JUMPDEST CALLVALUE DUP1 ISZERO PUSH2 0x221 JUMPI PUSH0 DUP1 REVERT JUMPDEST POP PUSH2 0x23C PUSH1 0x4 DUP1 CALLDATASIZE SUB DUP2 ADD SWAP1 PUSH2 0x237 SWAP2 SWAP1 PUSH2 0x15DF JUMP JUMPDEST PUSH2 0x708 JUMP JUMPDEST PUSH1 0x40 MLOAD PUSH2 0x24A SWAP3 SWAP2 SWAP1 PUSH2 0x161D JUMP JUMPDEST PUSH1 0x40 MLOAD DUP1 SWAP2 SUB SWAP1 RETURN JUMPDEST CALLVALUE DUP1 ISZERO PUSH2 0x25E JUMPI PUSH0 DUP1 REVERT JUMPDEST POP PUSH2 0x267 PUSH2 0x742 JUMP JUMPDEST PUSH1 0x40 MLOAD PUSH2 0x274 SWAP2 SWAP1 PUSH2 0x1583 JUMP JUMPDEST PUSH1 0x40 MLOAD DUP1 SWAP2 SUB SWAP1 RETURN JUMPDEST CALLVALUE DUP1 ISZERO PUSH2 0x288 JUMPI PUSH0 DUP1 REVERT JUMPDEST POP PUSH2 0x291 PUSH2 0x749 JUMP JUMPDEST PUSH1 0x40 MLOAD PUSH2 0x29E SWAP2 SWAP1 PUSH2 0x1583 JUMP JUMPDEST PUSH1 0x40 MLOAD DUP1 SWAP2 SUB SWAP1 RETURN JUMPDEST CALLVALUE DUP1 ISZERO PUSH2 0x2B2 JUMPI PUSH0 DUP1 REVERT JUMPDEST POP PUSH2 0x2BB PUSH2 0x76D JUMP JUMPDEST PUSH1 0x40 MLOAD PUSH2 0x2C8 SWAP2 SWAP1 PUSH2 0x1644 JUMP JUMPDEST PUSH1 0x40 MLOAD DUP1 SWAP2 SUB SWAP1 RETURN JUMPDEST PUSH2 0x2D9 PUSH2 0x77F JUMP JUMPDEST STOP JUMPDEST CALLVALUE DUP1 ISZERO PUSH2 0x2E6 JUMPI PUSH0 DUP1 REVERT JUMPDEST POP PUSH2 0x301 PUSH1 0x4 DUP1 CALLDATASIZE SUB DUP2 ADD SWAP1 PUSH2 0x2FC SWAP2 SWAP1 PUSH2 0x13B1 JUMP JUMPDEST PUSH2 0x860 JUMP JUMPDEST PUSH1 0x40 MLOAD PUSH2 0x30F SWAP3 SWAP2 SWAP1 PUSH2 0x165D JUMP JUMPDEST PUSH1 0x40 MLOAD DUP1 SWAP2 SUB SWAP1 RETURN JUMPDEST CALLVALUE DUP1 ISZERO PUSH2 0x323 JUMPI PUSH0 DUP1 REVERT JUMPDEST POP PUSH2 0x32C PUSH2 0x8A6 JUMP JUMPDEST PUSH1 0x40 MLOAD PUSH2 0x339 SWAP2 SWAP1 PUSH2 0x16F7 JUMP JUMPDEST PUSH1 0x40 MLOAD DUP1 SWAP2 SUB SWAP1 RETURN JUMPDEST CALLVALUE DUP1 ISZERO PUSH2 0x34D JUMPI PUSH0 DUP1 REVERT JUMPDEST POP PUSH2 0x356 PUSH2 0x969 JUMP JUMPDEST PUSH1 0x40 MLOAD PUSH2 0x363 SWAP2 SWAP1 PUSH2 0x1583 JUMP JUMPDEST PUSH1 0x40 MLOAD DUP1 SWAP2 SUB SWAP1 RETURN JUMPDEST CALLVALUE DUP1 ISZERO PUSH2 0x377 JUMPI PUSH0 DUP1 REVERT JUMPDEST POP PUSH2 0x392 PUSH1 0x4 DUP1 CALLDATASIZE SUB DUP2 ADD SWAP1 PUSH2 0x38D SWAP2 SWAP1 PUSH2 0x13B1 JUMP JUMPDEST PUSH2 0x96F JUMP JUMPDEST PUSH1 0x40 MLOAD PUSH2 0x39F SWAP2 SWAP1 PUSH2 0x159C JUMP JUMPDEST PUSH1 0x40 MLOAD DUP1 SWAP2 SUB SWAP1 RETURN JUMPDEST CALLVALUE DUP1 ISZERO PUSH2 0x3B3 JUMPI PUSH0 DUP1 REVERT JUMPDEST POP PUSH2 0x3CE PUSH1 0x4 DUP1 CALLDATASIZE SUB DUP2 ADD SWAP1 PUSH2 0x3C9 SWAP2 SWAP1 PUSH2 0x13B1 JUMP JUMPDEST PUSH2 0x9AA JUMP JUMPDEST STOP JUMPDEST CALLVALUE DUP1 ISZERO PUSH2 0x3DB JUMPI PUSH0 DUP1 REVERT JUMPDEST POP PUSH2 0x3E4 PUSH2 0x1142 JUMP JUMPDEST PUSH1 0x40 MLOAD PUSH2 0x3F1 SWAP2 SWAP1 PUSH2 0x1583 JUMP JUMPDEST PUSH1 0x40 MLOAD DUP1 SWAP2 SUB SWAP1 RETURN JUMPDEST CALLVALUE DUP1 ISZERO PUSH2 0x405 JUMPI PUSH0 DUP1 REVERT JUMPDEST POP PUSH2 0x40E PUSH2 0x1147 JUMP JUMPDEST PUSH1 0x40 MLOAD PUSH2 0x41B SWAP2 SWAP1 PUSH2 0x1644 JUMP JUMPDEST PUSH1 0x40 MLOAD DUP1 SWAP2 SUB SWAP1 RETURN JUMPDEST CALLVALUE DUP1 ISZERO PUSH2 0x42F JUMPI PUSH0 DUP1 REVERT JUMPDEST POP PUSH2 0x44A PUSH1 0x4 DUP1 CALLDATASIZE SUB DUP2 ADD SWAP1 PUSH2 0x445 SWAP2 SWAP1 PUSH2 0x1710 JUMP JUMPDEST PUSH2 0x114C JUMP JUMPDEST PUSH1 0x40 MLOAD PUSH2 0x45D SWAP8 SWAP7 SWAP6 SWAP5 SWAP4 SWAP3 SWAP2 SWAP1 PUSH2 0x1755 JUMP JUMPDEST PUSH1 0x40 MLOAD DUP1 SWAP2 SUB SWAP1 RETURN JUMPDEST CALLVALUE DUP1 ISZERO PUSH2 0x471 JUMPI PUSH0 DUP1 REVERT JUMPDEST POP PUSH2 0x48C PUSH1 0x4 DUP1 CALLDATASIZE SUB DUP2 ADD SWAP1 PUSH2 0x487 SWAP2 SWAP1 PUSH2 0x1710 JUMP JUMPDEST PUSH2 0x1328 JUMP JUMPDEST PUSH1 0x40 MLOAD PUSH2 0x499 SWAP2 SWAP1 PUSH2 0x1644 JUMP JUMPDEST PUSH1 0x40 MLOAD DUP1 SWAP2 SUB SWAP1 RETURN JUMPDEST CALLVALUE DUP1 ISZERO PUSH2 0x4AD JUMPI PUSH0 DUP1 REVERT JUMPDEST POP PUSH2 0x4C8 PUSH1 0x4 DUP1 CALLDATASIZE SUB DUP2 ADD SWAP1 PUSH2 0x4C3 SWAP2 SWAP1 PUSH2 0x13B1 JUMP JUMPDEST PUSH2 0x1345 JUMP JUMPDEST PUSH1 0x40 MLOAD PUSH2 0x4D6 SWAP3 SWAP2 SWAP1 PUSH2 0x17D7 JUMP JUMPDEST PUSH1 0x40 MLOAD DUP1 SWAP2 SUB SWAP1 RETURN JUMPDEST CALLVALUE DUP1 ISZERO PUSH2 0x4EA JUMPI PUSH0 DUP1 REVERT JUMPDEST POP PUSH2 0x4F3 PUSH2 0x1374 JUMP JUMPDEST PUSH1 0x40 MLOAD PUSH2 0x500 SWAP2 SWAP1 PUSH2 0x1583 JUMP JUMPDEST PUSH1 0x40 MLOAD DUP1 SWAP2 SUB SWAP1 RETURN JUMPDEST PUSH1 0x4 DUP2 DUP2 SLOAD DUP2 LT PUSH2 0x518 JUMPI PUSH0 DUP1 REVERT JUMPDEST SWAP1 PUSH0 MSTORE PUSH1 0x20 PUSH0 KECCAK256 SWAP1 PUSH1 0x7 MUL ADD PUSH0 SWAP2 POP SWAP1 POP DUP1 PUSH0 ADD PUSH0 SWAP1 SLOAD SWAP1 PUSH2 0x100 EXP SWAP1 DIV PUSH20 0xFFFFFFFFFFFFFFFFFFFFFFFFFFFFFFFFFFFFFFFF AND SWAP1 DUP1 PUSH1 0x1 ADD DUP1 SLOAD PUSH2 0x55C SWAP1 PUSH2 0x182B JUMP JUMPDEST DUP1 PUSH1 0x1F ADD PUSH1 0x20 DUP1 SWAP2 DIV MUL PUSH1 0x20 ADD PUSH1 0x40 MLOAD SWAP1 DUP2 ADD PUSH1 0x40 MSTORE DUP1 SWAP3 SWAP2 SWAP1 DUP2 DUP2 MSTORE PUSH1 0x20 ADD DUP3 DUP1 SLOAD PUSH2 0x588 SWAP1 PUSH2 0x182B JUMP JUMPDEST DUP1 ISZERO PUSH2 0x5D3 JUMPI DUP1 PUSH1 0x1F LT PUSH2 0x5AA JUMPI PUSH2 0x100 DUP1 DUP4 SLOAD DIV MUL DUP4 MSTORE SWAP2 PUSH1 0x20 ADD SWAP2 PUSH2 0x5D3 JUMP JUMPDEST DUP3 ADD SWAP2 SWAP1 PUSH0 MSTORE PUSH1 0x20 PUSH0 KECCAK256 SWAP1 JUMPDEST DUP2 SLOAD DUP2 MSTORE SWAP1 PUSH1 0x1 ADD SWAP1 PUSH1 0x20 ADD DUP1 DUP4 GT PUSH2 0x5B6 JUMPI DUP3 SWAP1 SUB PUSH1 0x1F AND DUP3 ADD SWAP2 JUMPDEST POP POP POP POP POP SWAP1 DUP1 PUSH1 0x2 ADD SLOAD SWAP1 DUP1 PUSH1 0x3 ADD SLOAD SWAP1 DUP1 PUSH1 0x4 ADD SLOAD SWAP1 DUP1 PUSH1 0x5 ADD PUSH0 SWAP1 SLOAD SWAP1 PUSH2 0x100 EXP SWAP1 DIV PUSH1 0xFF AND SWAP1 POP DUP7 JUMP JUMPDEST PUSH0 DUP1 JUMPDEST PUSH1 0x8 PUSH0 CALLER PUSH20 0xFFFFFFFFFFFFFFFFFFFFFFFFFFFFFFFFFFFFFFFF AND PUSH20 0xFFFFFFFFFFFFFFFFFFFFFFFFFFFFFFFFFFFFFFFF AND DUP2 MSTORE PUSH1 0x20 ADD SWAP1 DUP2 MSTORE PUSH1 0x20 ADD PUSH0 KECCAK256 DUP1 SLOAD SWAP1 POP DUP2 PUSH2 0xFFFF AND LT ISZERO PUSH2 0x6D2 JUMPI PUSH1 0x8 PUSH0 CALLER PUSH20 0xFFFFFFFFFFFFFFFFFFFFFFFFFFFFFFFFFFFFFFFF AND PUSH20 0xFFFFFFFFFFFFFFFFFFFFFFFFFFFFFFFFFFFFFFFF AND DUP2 MSTORE PUSH1 0x20 ADD SWAP1 DUP2 MSTORE PUSH1 0x20 ADD PUSH0 KECCAK256 DUP2 PUSH2 0xFFFF AND DUP2 SLOAD DUP2 LT PUSH2 0x6A3 JUMPI PUSH2 0x6A2 PUSH2 0x185B JUMP JUMPDEST JUMPDEST SWAP1 PUSH0 MSTORE PUSH1 0x20 PUSH0 KECCAK256 SWAP1 PUSH1 0x2 MUL ADD PUSH0 ADD SLOAD DUP3 PUSH2 0x6BD SWAP2 SWAP1 PUSH2 0x18B5 JUMP JUMPDEST SWAP2 POP DUP1 DUP1 PUSH2 0x6CA SWAP1 PUSH2 0x1903 JUMP JUMPDEST SWAP2 POP POP PUSH2 0x604 JUMP JUMPDEST POP SWAP1 JUMP JUMPDEST PUSH2 0x3E8 DUP2 JUMP JUMPDEST PUSH3 0x127500 DUP2 JUMP JUMPDEST PUSH1 0x1 PUSH0 SWAP1 SLOAD SWAP1 PUSH2 0x100 EXP SWAP1 DIV PUSH20 0xFFFFFFFFFFFFFFFFFFFFFFFFFFFFFFFFFFFFFFFF AND DUP2 JUMP JUMPDEST PUSH1 0x8 PUSH1 0x20 MSTORE DUP2 PUSH0 MSTORE PUSH1 0x40 PUSH0 KECCAK256 DUP2 DUP2 SLOAD DUP2 LT PUSH2 0x721 JUMPI PUSH0 DUP1 REVERT JUMPDEST SWAP1 PUSH0 MSTORE PUSH1 0x20 PUSH0 KECCAK256 SWAP1 PUSH1 0x2 MUL ADD PUSH0 SWAP2 POP SWAP2 POP POP DUP1 PUSH0 ADD SLOAD SWAP1 DUP1 PUSH1 0x1 ADD SLOAD SWAP1 POP DUP3 JUMP JUMPDEST PUSH0 SELFBALANCE SWAP1 POP SWAP1 JUMP JUMPDEST PUSH32 0x0 DUP2 JUMP JUMPDEST PUSH1 0x6E PUSH0 SWAP1 SLOAD SWAP1 PUSH2 0x100 EXP SWAP1 DIV PUSH1 0xFF AND DUP2 JUMP JUMPDEST PUSH0 PUSH1 0x40 MLOAD DUP1 PUSH1 0x40 ADD PUSH1 0x40 MSTORE DUP1 CALLVALUE DUP2 MSTORE PUSH1 0x20 ADD TIMESTAMP DUP2 MSTORE POP SWAP1 POP PUSH1 0x8 PUSH0 CALLER PUSH20 0xFFFFFFFFFFFFFFFFFFFFFFFFFFFFFFFFFFFFFFFF AND PUSH20 0xFFFFFFFFFFFFFFFFFFFFFFFFFFFFFFFFFFFFFFFF AND DUP2 MSTORE PUSH1 0x20 ADD SWAP1 DUP2 MSTORE PUSH1 0x20 ADD PUSH0 KECCAK256 DUP2 SWAP1 DUP1 PUSH1 0x1 DUP2 SLOAD ADD DUP1 DUP3 SSTORE DUP1 SWAP2 POP POP PUSH1 0x1 SWAP1 SUB SWAP1 PUSH0 MSTORE PUSH1 0x20 PUSH0 KECCAK256 SWAP1 PUSH1 0x2 MUL ADD PUSH0 SWAP1 SWAP2 SWAP1 SWAP2 SWAP1 SWAP2 POP PUSH0 DUP3 ADD MLOAD DUP2 PUSH0 ADD SSTORE PUSH1 0x20 DUP3 ADD MLOAD DUP2 PUSH1 0x1 ADD SSTORE POP POP CALLER PUSH20 0xFFFFFFFFFFFFFFFFFFFFFFFFFFFFFFFFFFFFFFFF AND PUSH32 0x976BE468429698A1B0AE0C20A0329BDB6E24722A3F834A2C54B84D63C1722F32 CALLVALUE PUSH1 0x40 MLOAD PUSH2 0x855 SWAP2 SWAP1 PUSH2 0x1533 JUMP JUMPDEST PUSH1 0x40 MLOAD DUP1 SWAP2 SUB SWAP1 LOG2 POP JUMP JUMPDEST PUSH1 0x9 DUP2 PUSH1 0x32 DUP2 LT PUSH2 0x86F JUMPI PUSH0 DUP1 REVERT JUMPDEST PUSH1 0x2 MUL ADD PUSH0 SWAP2 POP SWAP1 POP DUP1 PUSH0 ADD PUSH0 SWAP1 SLOAD SWAP1 PUSH2 0x100 EXP SWAP1 DIV PUSH20 0xFFFFFFFFFFFFFFFFFFFFFFFFFFFFFFFFFFFFFFFF AND SWAP1 DUP1 PUSH1 0x1 ADD SLOAD SWAP1 POP DUP3 JUMP JUMPDEST PUSH0 PUSH3 0x15180 PUSH0 SLOAD PUSH2 0x8B7 SWAP2 SWAP1 PUSH2 0x192C JUMP JUMPDEST TIMESTAMP LT ISZERO PUSH2 0x8C6 JUMPI PUSH0 SWAP1 POP PUSH2 0x966 JUMP JUMPDEST PUSH0 SLOAD TIMESTAMP LT ISZERO PUSH2 0x93C JUMPI PUSH1 0x32 PUSH1 0x2 PUSH2 0x8DD SWAP2 SWAP1 PUSH2 0x195F JUMP JUMPDEST PUSH1 0xFF AND PUSH1 0x2 DUP1 SLOAD SWAP1 POP LT DUP1 PUSH2 0x911 JUMPI POP PUSH2 0x3E8 PUSH4 0xFFFFFFFF AND PUSH1 0x1 PUSH1 0x14 SWAP1 SLOAD SWAP1 PUSH2 0x100 EXP SWAP1 DIV PUSH4 0xFFFFFFFF AND PUSH4 0xFFFFFFFF AND LT JUMPDEST ISZERO PUSH2 0x933 JUMPI PUSH3 0x127500 PUSH0 SLOAD PUSH2 0x926 SWAP2 SWAP1 PUSH2 0x199B JUMP JUMPDEST PUSH0 DUP2 SWAP1 SSTORE POP PUSH0 SWAP1 POP PUSH2 0x966 JUMP JUMPDEST PUSH1 0x1 SWAP1 POP PUSH2 0x966 JUMP JUMPDEST PUSH0 PUSH1 0x5 SLOAD SUB PUSH2 0x94E JUMPI PUSH1 0x2 SWAP1 POP PUSH2 0x966 JUMP JUMPDEST PUSH1 0x5 SLOAD TIMESTAMP LT ISZERO PUSH2 0x961 JUMPI PUSH1 0x3 SWAP1 POP PUSH2 0x966 JUMP JUMPDEST PUSH1 0x4 SWAP1 POP JUMPDEST SWAP1 JUMP JUMPDEST PUSH1 0x5 SLOAD DUP2 JUMP JUMPDEST PUSH1 0x2 DUP2 DUP2 SLOAD DUP2 LT PUSH2 0x97E JUMPI PUSH0 DUP1 REVERT JUMPDEST SWAP1 PUSH0 MSTORE PUSH1 0x20 PUSH0 KECCAK256 ADD PUSH0 SWAP2 POP SLOAD SWAP1 PUSH2 0x100 EXP SWAP1 DIV PUSH20 0xFFFFFFFFFFFFFFFFFFFFFFFFFFFFFFFFFFFFFFFF AND DUP2 JUMP JUMPDEST PUSH1 0x3 PUSH0 CALLER PUSH20 0xFFFFFFFFFFFFFFFFFFFFFFFFFFFFFFFFFFFFFFFF AND PUSH20 0xFFFFFFFFFFFFFFFFFFFFFFFFFFFFFFFFFFFFFFFF AND DUP2 MSTORE PUSH1 0x20 ADD SWAP1 DUP2 MSTORE PUSH1 0x20 ADD PUSH0 KECCAK256 PUSH1 0x5 ADD PUSH0 SWAP1 SLOAD SWAP1 PUSH2 0x100 EXP SWAP1 DIV PUSH1 0xFF AND PUSH2 0xA36 JUMPI PUSH1 0x40 MLOAD PUSH32 0x8C379A000000000000000000000000000000000000000000000000000000000 DUP2 MSTORE PUSH1 0x4 ADD PUSH2 0xA2D SWAP1 PUSH2 0x1A18 JUMP JUMPDEST PUSH1 0x40 MLOAD DUP1 SWAP2 SUB SWAP1 REVERT JUMPDEST PUSH2 0x1388 DUP2 GT ISZERO PUSH2 0xA7B JUMPI PUSH1 0x40 MLOAD PUSH32 0x8C379A000000000000000000000000000000000000000000000000000000000 DUP2 MSTORE PUSH1 0x4 ADD PUSH2 0xA72 SWAP1 PUSH2 0x1A80 JUMP JUMPDEST PUSH1 0x40 MLOAD DUP1 SWAP2 SUB SWAP1 REVERT JUMPDEST PUSH0 DUP1 PUSH1 0x6D PUSH0 CALLER PUSH20 0xFFFFFFFFFFFFFFFFFFFFFFFFFFFFFFFFFFFFFFFF AND PUSH20 0xFFFFFFFFFFFFFFFFFFFFFFFFFFFFFFFFFFFFFFFF AND DUP2 MSTORE PUSH1 0x20 ADD SWAP1 DUP2 MSTORE PUSH1 0x20 ADD PUSH0 KECCAK256 PUSH0 SWAP1 SLOAD SWAP1 PUSH2 0x100 EXP SWAP1 DIV PUSH1 0xFF AND SWAP1 POP PUSH0 DUP2 PUSH1 0xFF AND EQ DUP1 ISZERO PUSH2 0xB43 JUMPI POP CALLER PUSH20 0xFFFFFFFFFFFFFFFFFFFFFFFFFFFFFFFFFFFFFFFF AND PUSH1 0x9 DUP3 PUSH1 0xFF AND PUSH1 0x32 DUP2 LT PUSH2 0xB04 JUMPI PUSH2 0xB03 PUSH2 0x185B JUMP JUMPDEST JUMPDEST PUSH1 0x2 MUL ADD PUSH0 ADD PUSH0 SWAP1 SLOAD SWAP1 PUSH2 0x100 EXP SWAP1 DIV PUSH20 0xFFFFFFFFFFFFFFFFFFFFFFFFFFFFFFFFFFFFFFFF AND PUSH20 0xFFFFFFFFFFFFFFFFFFFFFFFFFFFFFFFFFFFFFFFF AND EQ ISZERO JUMPDEST ISZERO PUSH2 0xB87 JUMPI PUSH1 0x6E PUSH0 DUP2 DUP2 SWAP1 SLOAD SWAP1 PUSH2 0x100 EXP SWAP1 DIV PUSH1 0xFF AND DUP1 SWAP3 SWAP2 SWAP1 PUSH2 0xB66 SWAP1 PUSH2 0x1A9E JUMP JUMPDEST SWAP2 SWAP1 PUSH2 0x100 EXP DUP2 SLOAD DUP2 PUSH1 0xFF MUL NOT AND SWAP1 DUP4 PUSH1 0xFF AND MUL OR SWAP1 SSTORE POP POP PUSH0 SWAP2 POP PUSH2 0xBA9 JUMP JUMPDEST PUSH1 0x9 DUP2 PUSH1 0xFF AND PUSH1 0x32 DUP2 LT PUSH2 0xB9E JUMPI PUSH2 0xB9D PUSH2 0x185B JUMP JUMPDEST JUMPDEST PUSH1 0x2 MUL ADD PUSH1 0x1 ADD SLOAD SWAP2 POP JUMPDEST PUSH0 DUP2 SWAP1 POP DUP3 DUP5 SUB PUSH2 0xBBC JUMPI POP POP POP PUSH2 0x113F JUMP JUMPDEST DUP3 DUP5 GT ISZERO PUSH2 0xD70 JUMPI JUMPDEST PUSH1 0x1 PUSH1 0x32 PUSH2 0xBD3 SWAP2 SWAP1 PUSH2 0x1AC6 JUMP JUMPDEST PUSH1 0xFF AND DUP2 PUSH1 0xFF AND LT DUP1 ISZERO PUSH2 0xC10 JUMPI POP PUSH1 0x9 PUSH1 0x1 DUP3 PUSH2 0xBF1 SWAP2 SWAP1 PUSH2 0x1AFA JUMP JUMPDEST PUSH1 0xFF AND PUSH1 0x32 DUP2 LT PUSH2 0xC05 JUMPI PUSH2 0xC04 PUSH2 0x185B JUMP JUMPDEST JUMPDEST PUSH1 0x2 MUL ADD PUSH1 0x1 ADD SLOAD DUP5 GT JUMPDEST ISZERO PUSH2 0xD6B JUMPI PUSH1 0x9 PUSH1 0x1 DUP3 PUSH2 0xC24 SWAP2 SWAP1 PUSH2 0x1AFA JUMP JUMPDEST PUSH1 0xFF AND PUSH1 0x32 DUP2 LT PUSH2 0xC38 JUMPI PUSH2 0xC37 PUSH2 0x185B JUMP JUMPDEST JUMPDEST PUSH1 0x2 MUL ADD PUSH1 0x9 DUP3 PUSH1 0xFF AND PUSH1 0x32 DUP2 LT PUSH2 0xC53 JUMPI PUSH2 0xC52 PUSH2 0x185B JUMP JUMPDEST JUMPDEST PUSH1 0x2 MUL ADD PUSH0 DUP3 ADD PUSH0 SWAP1 SLOAD SWAP1 PUSH2 0x100 EXP SWAP1 DIV PUSH20 0xFFFFFFFFFFFFFFFFFFFFFFFFFFFFFFFFFFFFFFFF AND DUP2 PUSH0 ADD PUSH0 PUSH2 0x100 EXP DUP2 SLOAD DUP2 PUSH20 0xFFFFFFFFFFFFFFFFFFFFFFFFFFFFFFFFFFFFFFFF MUL NOT AND SWAP1 DUP4 PUSH20 0xFFFFFFFFFFFFFFFFFFFFFFFFFFFFFFFFFFFFFFFF AND MUL OR SWAP1 SSTORE POP PUSH1 0x1 DUP3 ADD SLOAD DUP2 PUSH1 0x1 ADD SSTORE SWAP1 POP POP DUP1 PUSH1 0x6D PUSH0 PUSH1 0x9 DUP5 PUSH1 0xFF AND PUSH1 0x32 DUP2 LT PUSH2 0xCE2 JUMPI PUSH2 0xCE1 PUSH2 0x185B JUMP JUMPDEST JUMPDEST PUSH1 0x2 MUL ADD PUSH0 ADD PUSH0 SWAP1 SLOAD SWAP1 PUSH2 0x100 EXP SWAP1 DIV PUSH20 0xFFFFFFFFFFFFFFFFFFFFFFFFFFFFFFFFFFFFFFFF AND PUSH20 0xFFFFFFFFFFFFFFFFFFFFFFFFFFFFFFFFFFFFFFFF AND PUSH20 0xFFFFFFFFFFFFFFFFFFFFFFFFFFFFFFFFFFFFFFFF AND DUP2 MSTORE PUSH1 0x20 ADD SWAP1 DUP2 MSTORE PUSH1 0x20 ADD PUSH0 KECCAK256 PUSH0 PUSH2 0x100 EXP DUP2 SLOAD DUP2 PUSH1 0xFF MUL NOT AND SWAP1 DUP4 PUSH1 0xFF AND MUL OR SWAP1 SSTORE POP DUP1 DUP1 PUSH2 0xD63 SWAP1 PUSH2 0x1A9E JUMP JUMPDEST SWAP2 POP POP PUSH2 0xBC5 JUMP JUMPDEST PUSH2 0xF08 JUMP JUMPDEST JUMPDEST PUSH0 DUP2 PUSH1 0xFF AND GT DUP1 ISZERO PUSH2 0xDAC JUMPI POP PUSH1 0x9 PUSH1 0x1 DUP3 PUSH2 0xD8D SWAP2 SWAP1 PUSH2 0x1AC6 JUMP JUMPDEST PUSH1 0xFF AND PUSH1 0x32 DUP2 LT PUSH2 0xDA1 JUMPI PUSH2 0xDA0 PUSH2 0x185B JUMP JUMPDEST JUMPDEST PUSH1 0x2 MUL ADD PUSH1 0x1 ADD SLOAD DUP5 LT JUMPDEST ISZERO PUSH2 0xF07 JUMPI PUSH1 0x9 PUSH1 0x1 DUP3 PUSH2 0xDC0 SWAP2 SWAP1 PUSH2 0x1AC6 JUMP JUMPDEST PUSH1 0xFF AND PUSH1 0x32 DUP2 LT PUSH2 0xDD4 JUMPI PUSH2 0xDD3 PUSH2 0x185B JUMP JUMPDEST JUMPDEST PUSH1 0x2 MUL ADD PUSH1 0x9 DUP3 PUSH1 0xFF AND PUSH1 0x32 DUP2 LT PUSH2 0xDEF JUMPI PUSH2 0xDEE PUSH2 0x185B JUMP JUMPDEST JUMPDEST PUSH1 0x2 MUL ADD PUSH0 DUP3 ADD PUSH0 SWAP1 SLOAD SWAP1 PUSH2 0x100 EXP SWAP1 DIV PUSH20 0xFFFFFFFFFFFFFFFFFFFFFFFFFFFFFFFFFFFFFFFF AND DUP2 PUSH0 ADD PUSH0 PUSH2 0x100 EXP DUP2 SLOAD DUP2 PUSH20 0xFFFFFFFFFFFFFFFFFFFFFFFFFFFFFFFFFFFFFFFF MUL NOT AND SWAP1 DUP4 PUSH20 0xFFFFFFFFFFFFFFFFFFFFFFFFFFFFFFFFFFFFFFFF AND MUL OR SWAP1 SSTORE POP PUSH1 0x1 DUP3 ADD SLOAD DUP2 PUSH1 0x1 ADD SSTORE SWAP1 POP POP DUP1 PUSH1 0x6D PUSH0 PUSH1 0x9 DUP5 PUSH1 0xFF AND PUSH1 0x32 DUP2 LT PUSH2 0xE7E JUMPI PUSH2 0xE7D PUSH2 0x185B JUMP JUMPDEST JUMPDEST PUSH1 0x2 MUL ADD PUSH0 ADD PUSH0 SWAP1 SLOAD SWAP1 PUSH2 0x100 EXP SWAP1 DIV PUSH20 0xFFFFFFFFFFFFFFFFFFFFFFFFFFFFFFFFFFFFFFFF AND PUSH20 0xFFFFFFFFFFFFFFFFFFFFFFFFFFFFFFFFFFFFFFFF AND PUSH20 0xFFFFFFFFFFFFFFFFFFFFFFFFFFFFFFFFFFFFFFFF AND DUP2 MSTORE PUSH1 0x20 ADD SWAP1 DUP2 MSTORE PUSH1 0x20 ADD PUSH0 KECCAK256 PUSH0 PUSH2 0x100 EXP DUP2 SLOAD DUP2 PUSH1 0xFF MUL NOT AND SWAP1 DUP4 PUSH1 0xFF AND MUL OR SWAP1 SSTORE POP DUP1 DUP1 PUSH2 0xEFF SWAP1 PUSH2 0x1B2E JUMP JUMPDEST SWAP2 POP POP PUSH2 0xD71 JUMP JUMPDEST JUMPDEST PUSH1 0x40 MLOAD DUP1 PUSH1 0x40 ADD PUSH1 0x40 MSTORE DUP1 CALLER PUSH20 0xFFFFFFFFFFFFFFFFFFFFFFFFFFFFFFFFFFFFFFFF AND DUP2 MSTORE PUSH1 0x20 ADD DUP6 DUP2 MSTORE POP PUSH1 0x9 DUP3 PUSH1 0xFF AND PUSH1 0x32 DUP2 LT PUSH2 0xF4A JUMPI PUSH2 0xF49 PUSH2 0x185B JUMP JUMPDEST JUMPDEST PUSH1 0x2 MUL ADD PUSH0 DUP3 ADD MLOAD DUP2 PUSH0 ADD PUSH0 PUSH2 0x100 EXP DUP2 SLOAD DUP2 PUSH20 0xFFFFFFFFFFFFFFFFFFFFFFFFFFFFFFFFFFFFFFFF MUL NOT AND SWAP1 DUP4 PUSH20 0xFFFFFFFFFFFFFFFFFFFFFFFFFFFFFFFFFFFFFFFF AND MUL OR SWAP1 SSTORE POP PUSH1 0x20 DUP3 ADD MLOAD DUP2 PUSH1 0x1 ADD SSTORE SWAP1 POP POP DUP1 PUSH1 0x6D PUSH0 CALLER PUSH20 0xFFFFFFFFFFFFFFFFFFFFFFFFFFFFFFFFFFFFFFFF AND PUSH20 0xFFFFFFFFFFFFFFFFFFFFFFFFFFFFFFFFFFFFFFFF AND DUP2 MSTORE PUSH1 0x20 ADD SWAP1 DUP2 MSTORE PUSH1 0x20 ADD PUSH0 KECCAK256 PUSH0 PUSH2 0x100 EXP DUP2 SLOAD DUP2 PUSH1 0xFF MUL NOT AND SWAP1 DUP4 PUSH1 0xFF AND MUL OR SWAP1 SSTORE POP CALLER PUSH20 0xFFFFFFFFFFFFFFFFFFFFFFFFFFFFFFFFFFFFFFFF AND PUSH32 0x1CE0BEAEC98D7537137A85C2D351C6C99900830D30FE8A7C353FA27225807E72 DUP5 DUP5 DUP8 DUP6 PUSH1 0x40 MLOAD PUSH2 0x1040 SWAP5 SWAP4 SWAP3 SWAP2 SWAP1 PUSH2 0x1B55 JUMP JUMPDEST PUSH1 0x40 MLOAD DUP1 SWAP2 SUB SWAP1 LOG2 PUSH1 0x9 PUSH1 0x2 PUSH1 0x32 PUSH2 0x1058 SWAP2 SWAP1 PUSH2 0x1BC5 JUMP JUMPDEST PUSH1 0xFF AND PUSH1 0x32 DUP2 LT PUSH2 0x106C JUMPI PUSH2 0x106B PUSH2 0x185B JUMP JUMPDEST JUMPDEST PUSH1 0x2 MUL ADD PUSH1 0x1 ADD SLOAD PUSH1 0x6 SLOAD EQ PUSH2 0x113B JUMPI PUSH1 0x9 PUSH1 0x2 PUSH1 0x32 PUSH2 0x108C SWAP2 SWAP1 PUSH2 0x1BC5 JUMP JUMPDEST PUSH1 0xFF AND PUSH1 0x32 DUP2 LT PUSH2 0x10A0 JUMPI PUSH2 0x109F PUSH2 0x185B JUMP JUMPDEST JUMPDEST PUSH1 0x2 MUL ADD PUSH1 0x1 ADD SLOAD PUSH1 0x6 DUP2 SWAP1 SSTORE POP PUSH1 0x7 PUSH1 0x40 MLOAD DUP1 PUSH1 0x40 ADD PUSH1 0x40 MSTORE DUP1 PUSH1 0x6 SLOAD DUP2 MSTORE PUSH1 0x20 ADD TIMESTAMP DUP2 MSTORE POP SWAP1 DUP1 PUSH1 0x1 DUP2 SLOAD ADD DUP1 DUP3 SSTORE DUP1 SWAP2 POP POP PUSH1 0x1 SWAP1 SUB SWAP1 PUSH0 MSTORE PUSH1 0x20 PUSH0 KECCAK256 SWAP1 PUSH1 0x2 MUL ADD PUSH0 SWAP1 SWAP2 SWAP1 SWAP2 SWAP1 SWAP2 POP PUSH0 DUP3 ADD MLOAD DUP2 PUSH0 ADD SSTORE PUSH1 0x20 DUP3 ADD MLOAD DUP2 PUSH1 0x1 ADD SSTORE POP POP PUSH32 0xA90E14BE5AA57B910AA6DC16C31FF1B5CDA380AE25A793B0D3F74DF6131A7D74 PUSH1 0x6 SLOAD PUSH1 0x40 MLOAD PUSH2 0x1132 SWAP2 SWAP1 PUSH2 0x1583 JUMP JUMPDEST PUSH1 0x40 MLOAD DUP1 SWAP2 SUB SWAP1 LOG1 JUMPDEST POP POP POP JUMPDEST POP JUMP JUMPDEST PUSH0 SLOAD DUP2 JUMP JUMPDEST PUSH1 0x32 DUP2 JUMP JUMPDEST PUSH1 0x3 PUSH1 0x20 MSTORE DUP1 PUSH0 MSTORE PUSH1 0x40 PUSH0 KECCAK256 PUSH0 SWAP2 POP SWAP1 POP DUP1 PUSH0 ADD DUP1 SLOAD PUSH2 0x116B SWAP1 PUSH2 0x182B JUMP JUMPDEST DUP1 PUSH1 0x1F ADD PUSH1 0x20 DUP1 SWAP2 DIV MUL PUSH1 0x20 ADD PUSH1 0x40 MLOAD SWAP1 DUP2 ADD PUSH1 0x40 MSTORE DUP1 SWAP3 SWAP2 SWAP1 DUP2 DUP2 MSTORE PUSH1 0x20 ADD DUP3 DUP1 SLOAD PUSH2 0x1197 SWAP1 PUSH2 0x182B JUMP JUMPDEST DUP1 ISZERO PUSH2 0x11E2 JUMPI DUP1 PUSH1 0x1F LT PUSH2 0x11B9 JUMPI PUSH2 0x100 DUP1 DUP4 SLOAD DIV MUL DUP4 MSTORE SWAP2 PUSH1 0x20 ADD SWAP2 PUSH2 0x11E2 JUMP JUMPDEST DUP3 ADD SWAP2 SWAP1 PUSH0 MSTORE PUSH1 0x20 PUSH0 KECCAK256 SWAP1 JUMPDEST DUP2 SLOAD DUP2 MSTORE SWAP1 PUSH1 0x1 ADD SWAP1 PUSH1 0x20 ADD DUP1 DUP4 GT PUSH2 0x11C5 JUMPI DUP3 SWAP1 SUB PUSH1 0x1F AND DUP3 ADD SWAP2 JUMPDEST POP POP POP POP POP SWAP1 DUP1 PUSH1 0x1 ADD DUP1 SLOAD PUSH2 0x11F7 SWAP1 PUSH2 0x182B JUMP JUMPDEST DUP1 PUSH1 0x1F ADD PUSH1 0x20 DUP1 SWAP2 DIV MUL PUSH1 0x20 ADD PUSH1 0x40 MLOAD SWAP1 DUP2 ADD PUSH1 0x40 MSTORE DUP1 SWAP3 SWAP2 SWAP1 DUP2 DUP2 MSTORE PUSH1 0x20 ADD DUP3 DUP1 SLOAD PUSH2 0x1223 SWAP1 PUSH2 0x182B JUMP JUMPDEST DUP1 ISZERO PUSH2 0x126E JUMPI DUP1 PUSH1 0x1F LT PUSH2 0x1245 JUMPI PUSH2 0x100 DUP1 DUP4 SLOAD DIV MUL DUP4 MSTORE SWAP2 PUSH1 0x20 ADD SWAP2 PUSH2 0x126E JUMP JUMPDEST DUP3 ADD SWAP2 SWAP1 PUSH0 MSTORE PUSH1 0x20 PUSH0 KECCAK256 SWAP1 JUMPDEST DUP2 SLOAD DUP2 MSTORE SWAP1 PUSH1 0x1 ADD SWAP1 PUSH1 0x20 ADD DUP1 DUP4 GT PUSH2 0x1251 JUMPI DUP3 SWAP1 SUB PUSH1 0x1F AND DUP3 ADD SWAP2 JUMPDEST POP POP POP POP POP SWAP1 DUP1 PUSH1 0x2 ADD DUP1 SLOAD PUSH2 0x1283 SWAP1 PUSH2 0x182B JUMP JUMPDEST DUP1 PUSH1 0x1F ADD PUSH1 0x20 DUP1 SWAP2 DIV MUL PUSH1 0x20 ADD PUSH1 0x40 MLOAD SWAP1 DUP2 ADD PUSH1 0x40 MSTORE DUP1 SWAP3 SWAP2 SWAP1 DUP2 DUP2 MSTORE PUSH1 0x20 ADD DUP3 DUP1 SLOAD PUSH2 0x12AF SWAP1 PUSH2 0x182B JUMP JUMPDEST DUP1 ISZERO PUSH2 0x12FA JUMPI DUP1 PUSH1 0x1F LT PUSH2 0x12D1 JUMPI PUSH2 0x100 DUP1 DUP4 SLOAD DIV MUL DUP4 MSTORE SWAP2 PUSH1 0x20 ADD SWAP2 PUSH2 0x12FA JUMP JUMPDEST DUP3 ADD SWAP2 SWAP1 PUSH0 MSTORE PUSH1 0x20 PUSH0 KECCAK256 SWAP1 JUMPDEST DUP2 SLOAD DUP2 MSTORE SWAP1 PUSH1 0x1 ADD SWAP1 PUSH1 0x20 ADD DUP1 DUP4 GT PUSH2 0x12DD JUMPI DUP3 SWAP1 SUB PUSH1 0x1F AND DUP3 ADD SWAP2 JUMPDEST POP POP POP POP POP SWAP1 DUP1 PUSH1 0x3 ADD SLOAD SWAP1 DUP1 PUSH1 0x4 ADD SLOAD SWAP1 DUP1 PUSH1 0x5 ADD PUSH0 SWAP1 SLOAD SWAP1 PUSH2 0x100 EXP SWAP1 DIV PUSH1 0xFF AND SWAP1 DUP1 PUSH1 0x6 ADD SLOAD SWAP1 POP DUP8 JUMP JUMPDEST PUSH1 0x6D PUSH1 0x20 MSTORE DUP1 PUSH0 MSTORE PUSH1 0x40 PUSH0 KECCAK256 PUSH0 SWAP2 POP SLOAD SWAP1 PUSH2 0x100 EXP SWAP1 DIV PUSH1 0xFF AND DUP2 JUMP JUMPDEST PUSH1 0x7 DUP2 DUP2 SLOAD DUP2 LT PUSH2 0x1354 JUMPI PUSH0 DUP1 REVERT JUMPDEST SWAP1 PUSH0 MSTORE PUSH1 0x20 PUSH0 KECCAK256 SWAP1 PUSH1 0x2 MUL ADD PUSH0 SWAP2 POP SWAP1 POP DUP1 PUSH0 ADD SLOAD SWAP1 DUP1 PUSH1 0x1 ADD SLOAD SWAP1 POP DUP3 JUMP JUMPDEST PUSH1 0x6 SLOAD DUP2 JUMP JUMPDEST PUSH0 DUP1 REVERT JUMPDEST PUSH0 DUP2 SWAP1 POP SWAP2 SWAP1 POP JUMP JUMPDEST PUSH2 0x1390 DUP2 PUSH2 0x137E JUMP JUMPDEST DUP2 EQ PUSH2 0x139A JUMPI PUSH0 DUP1 REVERT JUMPDEST POP JUMP JUMPDEST PUSH0 DUP2 CALLDATALOAD SWAP1 POP PUSH2 0x13AB DUP2 PUSH2 0x1387 JUMP JUMPDEST SWAP3 SWAP2 POP POP JUMP JUMPDEST PUSH0 PUSH1 0x20 DUP3 DUP5 SUB SLT ISZERO PUSH2 0x13C6 JUMPI PUSH2 0x13C5 PUSH2 0x137A JUMP JUMPDEST JUMPDEST PUSH0 PUSH2 0x13D3 DUP5 DUP3 DUP6 ADD PUSH2 0x139D JUMP JUMPDEST SWAP2 POP POP SWAP3 SWAP2 POP POP JUMP JUMPDEST PUSH0 PUSH20 0xFFFFFFFFFFFFFFFFFFFFFFFFFFFFFFFFFFFFFFFF DUP3 AND SWAP1 POP SWAP2 SWAP1 POP JUMP JUMPDEST PUSH0 PUSH2 0x1405 DUP3 PUSH2 0x13DC JUMP JUMPDEST SWAP1 POP SWAP2 SWAP1 POP JUMP JUMPDEST PUSH2 0x1415 DUP2 PUSH2 0x13FB JUMP JUMPDEST DUP3 MSTORE POP POP JUMP JUMPDEST PUSH0 DUP2 MLOAD SWAP1 POP SWAP2 SWAP1 POP JUMP JUMPDEST PUSH0 DUP3 DUP3 MSTORE PUSH1 0x20 DUP3 ADD SWAP1 POP SWAP3 SWAP2 POP POP JUMP JUMPDEST DUP3 DUP2 DUP4 MCOPY PUSH0 DUP4 DUP4 ADD MSTORE POP POP POP JUMP JUMPDEST PUSH0 PUSH1 0x1F NOT PUSH1 0x1F DUP4 ADD AND SWAP1 POP SWAP2 SWAP1 POP JUMP JUMPDEST PUSH0 PUSH2 0x145D DUP3 PUSH2 0x141B JUMP JUMPDEST PUSH2 0x1467 DUP2 DUP6 PUSH2 0x1425 JUMP JUMPDEST SWAP4 POP PUSH2 0x1477 DUP2 DUP6 PUSH1 0x20 DUP7 ADD PUSH2 0x1435 JUMP JUMPDEST PUSH2 0x1480 DUP2 PUSH2 0x1443 JUMP JUMPDEST DUP5 ADD SWAP2 POP POP SWAP3 SWAP2 POP POP JUMP JUMPDEST PUSH2 0x1494 DUP2 PUSH2 0x137E JUMP JUMPDEST DUP3 MSTORE POP POP JUMP JUMPDEST PUSH0 PUSH1 0xFF DUP3 AND SWAP1 POP SWAP2 SWAP1 POP JUMP JUMPDEST PUSH2 0x14AF DUP2 PUSH2 0x149A JUMP JUMPDEST DUP3 MSTORE POP POP JUMP JUMPDEST PUSH0 PUSH1 0xC0 DUP3 ADD SWAP1 POP PUSH2 0x14C8 PUSH0 DUP4 ADD DUP10 PUSH2 0x140C JUMP JUMPDEST DUP2 DUP2 SUB PUSH1 0x20 DUP4 ADD MSTORE PUSH2 0x14DA DUP2 DUP9 PUSH2 0x1453 JUMP JUMPDEST SWAP1 POP PUSH2 0x14E9 PUSH1 0x40 DUP4 ADD DUP8 PUSH2 0x148B JUMP JUMPDEST PUSH2 0x14F6 PUSH1 0x60 DUP4 ADD DUP7 PUSH2 0x148B JUMP JUMPDEST PUSH2 0x1503 PUSH1 0x80 DUP4 ADD DUP6 PUSH2 0x148B JUMP JUMPDEST PUSH2 0x1510 PUSH1 0xA0 DUP4 ADD DUP5 PUSH2 0x14A6 JUMP JUMPDEST SWAP8 SWAP7 POP POP POP POP POP POP POP JUMP JUMPDEST PUSH0 DUP2 SWAP1 POP SWAP2 SWAP1 POP JUMP JUMPDEST PUSH2 0x152D DUP2 PUSH2 0x151B JUMP JUMPDEST DUP3 MSTORE POP POP JUMP JUMPDEST PUSH0 PUSH1 0x20 DUP3 ADD SWAP1 POP PUSH2 0x1546 PUSH0 DUP4 ADD DUP5 PUSH2 0x1524 JUMP JUMPDEST SWAP3 SWAP2 POP POP JUMP JUMPDEST PUSH0 PUSH4 0xFFFFFFFF DUP3 AND SWAP1 POP SWAP2 SWAP1 POP JUMP JUMPDEST PUSH2 0x1564 DUP2 PUSH2 0x154C JUMP JUMPDEST DUP3 MSTORE POP POP JUMP JUMPDEST PUSH0 PUSH1 0x20 DUP3 ADD SWAP1 POP PUSH2 0x157D PUSH0 DUP4 ADD DUP5 PUSH2 0x155B JUMP JUMPDEST SWAP3 SWAP2 POP POP JUMP JUMPDEST PUSH0 PUSH1 0x20 DUP3 ADD SWAP1 POP PUSH2 0x1596 PUSH0 DUP4 ADD DUP5 PUSH2 0x148B JUMP JUMPDEST SWAP3 SWAP2 POP POP JUMP JUMPDEST PUSH0 PUSH1 0x20 DUP3 ADD SWAP1 POP PUSH2 0x15AF PUSH0 DUP4 ADD DUP5 PUSH2 0x140C JUMP JUMPDEST SWAP3 SWAP2 POP POP JUMP JUMPDEST PUSH2 0x15BE DUP2 PUSH2 0x13FB JUMP JUMPDEST DUP2 EQ PUSH2 0x15C8 JUMPI PUSH0 DUP1 REVERT JUMPDEST POP JUMP JUMPDEST PUSH0 DUP2 CALLDATALOAD SWAP1 POP PUSH2 0x15D9 DUP2 PUSH2 0x15B5 JUMP JUMPDEST SWAP3 SWAP2 POP POP JUMP JUMPDEST PUSH0 DUP1 PUSH1 0x40 DUP4 DUP6 SUB SLT ISZERO PUSH2 0x15F5 JUMPI PUSH2 0x15F4 PUSH2 0x137A JUMP JUMPDEST JUMPDEST PUSH0 PUSH2 0x1602 DUP6 DUP3 DUP7 ADD PUSH2 0x15CB JUMP JUMPDEST SWAP3 POP POP PUSH1 0x20 PUSH2 0x1613 DUP6 DUP3 DUP7 ADD PUSH2 0x139D JUMP JUMPDEST SWAP2 POP POP SWAP3 POP SWAP3 SWAP1 POP JUMP JUMPDEST PUSH0 PUSH1 0x40 DUP3 ADD SWAP1 POP PUSH2 0x1630 PUSH0 DUP4 ADD DUP6 PUSH2 0x1524 JUMP JUMPDEST PUSH2 0x163D PUSH1 0x20 DUP4 ADD DUP5 PUSH2 0x148B JUMP JUMPDEST SWAP4 SWAP3 POP POP POP JUMP JUMPDEST PUSH0 PUSH1 0x20 DUP3 ADD SWAP1 POP PUSH2 0x1657 PUSH0 DUP4 ADD DUP5 PUSH2 0x14A6 JUMP JUMPDEST SWAP3 SWAP2 POP POP JUMP JUMPDEST PUSH0 PUSH1 0x40 DUP3 ADD SWAP1 POP PUSH2 0x1670 PUSH0 DUP4 ADD DUP6 PUSH2 0x140C JUMP JUMPDEST PUSH2 0x167D PUSH1 0x20 DUP4 ADD DUP5 PUSH2 0x148B JUMP JUMPDEST SWAP4 SWAP3 POP POP POP JUMP JUMPDEST PUSH32 0x4E487B7100000000000000000000000000000000000000000000000000000000 PUSH0 MSTORE PUSH1 0x21 PUSH1 0x4 MSTORE PUSH1 0x24 PUSH0 REVERT JUMPDEST PUSH1 0x5 DUP2 LT PUSH2 0x16C2 JUMPI PUSH2 0x16C1 PUSH2 0x1684 JUMP JUMPDEST JUMPDEST POP JUMP JUMPDEST PUSH0 DUP2 SWAP1 POP PUSH2 0x16D2 DUP3 PUSH2 0x16B1 JUMP JUMPDEST SWAP2 SWAP1 POP JUMP JUMPDEST PUSH0 PUSH2 0x16E1 DUP3 PUSH2 0x16C5 JUMP JUMPDEST SWAP1 POP SWAP2 SWAP1 POP JUMP JUMPDEST PUSH2 0x16F1 DUP2 PUSH2 0x16D7 JUMP JUMPDEST DUP3 MSTORE POP POP JUMP JUMPDEST PUSH0 PUSH1 0x20 DUP3 ADD SWAP1 POP PUSH2 0x170A PUSH0 DUP4 ADD DUP5 PUSH2 0x16E8 JUMP JUMPDEST SWAP3 SWAP2 POP POP JUMP JUMPDEST PUSH0 PUSH1 0x20 DUP3 DUP5 SUB SLT ISZERO PUSH2 0x1725 JUMPI PUSH2 0x1724 PUSH2 0x137A JUMP JUMPDEST JUMPDEST PUSH0 PUSH2 0x1732 DUP5 DUP3 DUP6 ADD PUSH2 0x15CB JUMP JUMPDEST SWAP2 POP POP SWAP3 SWAP2 POP POP JUMP JUMPDEST PUSH0 DUP2 ISZERO ISZERO SWAP1 POP SWAP2 SWAP1 POP JUMP JUMPDEST PUSH2 0x174F DUP2 PUSH2 0x173B JUMP JUMPDEST DUP3 MSTORE POP POP JUMP JUMPDEST PUSH0 PUSH1 0xE0 DUP3 ADD SWAP1 POP DUP2 DUP2 SUB PUSH0 DUP4 ADD MSTORE PUSH2 0x176D DUP2 DUP11 PUSH2 0x1453 JUMP JUMPDEST SWAP1 POP DUP2 DUP2 SUB PUSH1 0x20 DUP4 ADD MSTORE PUSH2 0x1781 DUP2 DUP10 PUSH2 0x1453 JUMP JUMPDEST SWAP1 POP DUP2 DUP2 SUB PUSH1 0x40 DUP4 ADD MSTORE PUSH2 0x1795 DUP2 DUP9 PUSH2 0x1453 JUMP JUMPDEST SWAP1 POP PUSH2 0x17A4 PUSH1 0x60 DUP4 ADD DUP8 PUSH2 0x148B JUMP JUMPDEST PUSH2 0x17B1 PUSH1 0x80 DUP4 ADD DUP7 PUSH2 0x148B JUMP JUMPDEST PUSH2 0x17BE PUSH1 0xA0 DUP4 ADD DUP6 PUSH2 0x1746 JUMP JUMPDEST PUSH2 0x17CB PUSH1 0xC0 DUP4 ADD DUP5 PUSH2 0x148B JUMP JUMPDEST SWAP9 SWAP8 POP POP POP POP POP POP POP POP JUMP JUMPDEST PUSH0 PUSH1 0x40 DUP3 ADD SWAP1 POP PUSH2 0x17EA PUSH0 DUP4 ADD DUP6 PUSH2 0x148B JUMP JUMPDEST PUSH2 0x17F7 PUSH1 0x20 DUP4 ADD DUP5 PUSH2 0x148B JUMP JUMPDEST SWAP4 SWAP3 POP POP POP JUMP JUMPDEST PUSH32 0x4E487B7100000000000000000000000000000000000000000000000000000000 PUSH0 MSTORE PUSH1 0x22 PUSH1 0x4 MSTORE PUSH1 0x24 PUSH0 REVERT JUMPDEST PUSH0 PUSH1 0x2 DUP3 DIV SWAP1 POP PUSH1 0x1 DUP3 AND DUP1 PUSH2 0x1842 JUMPI PUSH1 0x7F DUP3 AND SWAP2 POP JUMPDEST PUSH1 0x20 DUP3 LT DUP2 SUB PUSH2 0x1855 JUMPI PUSH2 0x1854 PUSH2 0x17FE JUMP JUMPDEST JUMPDEST POP SWAP2 SWAP1 POP JUMP JUMPDEST PUSH32 0x4E487B7100000000000000000000000000000000000000000000000000000000 PUSH0 MSTORE PUSH1 0x32 PUSH1 0x4 MSTORE PUSH1 0x24 PUSH0 REVERT JUMPDEST PUSH32 0x4E487B7100000000000000000000000000000000000000000000000000000000 PUSH0 MSTORE PUSH1 0x11 PUSH1 0x4 MSTORE PUSH1 0x24 PUSH0 REVERT JUMPDEST PUSH0 PUSH2 0x18BF DUP3 PUSH2 0x151B JUMP JUMPDEST SWAP2 POP PUSH2 0x18CA DUP4 PUSH2 0x151B JUMP JUMPDEST SWAP3 POP DUP3 DUP3 ADD SWAP1 POP DUP3 DUP2 SLT ISZERO PUSH0 DUP4 SLT AND DUP4 DUP3 SLT PUSH0 DUP5 SLT ISZERO AND OR ISZERO PUSH2 0x18F0 JUMPI PUSH2 0x18EF PUSH2 0x1888 JUMP JUMPDEST JUMPDEST SWAP3 SWAP2 POP POP JUMP JUMPDEST PUSH0 PUSH2 0xFFFF DUP3 AND SWAP1 POP SWAP2 SWAP1 POP JUMP JUMPDEST PUSH0 PUSH2 0x190D DUP3 PUSH2 0x18F6 JUMP JUMPDEST SWAP2 POP PUSH2 0xFFFF DUP3 SUB PUSH2 0x1921 JUMPI PUSH2 0x1920 PUSH2 0x1888 JUMP JUMPDEST JUMPDEST PUSH1 0x1 DUP3 ADD SWAP1 POP SWAP2 SWAP1 POP JUMP JUMPDEST PUSH0 PUSH2 0x1936 DUP3 PUSH2 0x137E JUMP JUMPDEST SWAP2 POP PUSH2 0x1941 DUP4 PUSH2 0x137E JUMP JUMPDEST SWAP3 POP DUP3 DUP3 SUB SWAP1 POP DUP2 DUP2 GT ISZERO PUSH2 0x1959 JUMPI PUSH2 0x1958 PUSH2 0x1888 JUMP JUMPDEST JUMPDEST SWAP3 SWAP2 POP POP JUMP JUMPDEST PUSH0 PUSH2 0x1969 DUP3 PUSH2 0x149A JUMP JUMPDEST SWAP2 POP PUSH2 0x1974 DUP4 PUSH2 0x149A JUMP JUMPDEST SWAP3 POP DUP3 DUP3 MUL PUSH2 0x1982 DUP2 PUSH2 0x149A JUMP JUMPDEST SWAP2 POP DUP1 DUP3 EQ PUSH2 0x1994 JUMPI PUSH2 0x1993 PUSH2 0x1888 JUMP JUMPDEST JUMPDEST POP SWAP3 SWAP2 POP POP JUMP JUMPDEST PUSH0 PUSH2 0x19A5 DUP3 PUSH2 0x137E JUMP JUMPDEST SWAP2 POP PUSH2 0x19B0 DUP4 PUSH2 0x137E JUMP JUMPDEST SWAP3 POP DUP3 DUP3 ADD SWAP1 POP DUP1 DUP3 GT ISZERO PUSH2 0x19C8 JUMPI PUSH2 0x19C7 PUSH2 0x1888 JUMP JUMPDEST JUMPDEST SWAP3 SWAP2 POP POP JUMP JUMPDEST PUSH32 0x4F6E6C79206D656D626572732063616E2070726F706F73650000000000000000 PUSH0 DUP3 ADD MSTORE POP JUMP JUMPDEST PUSH0 PUSH2 0x1A02 PUSH1 0x18 DUP4 PUSH2 0x1425 JUMP JUMPDEST SWAP2 POP PUSH2 0x1A0D DUP3 PUSH2 0x19CE JUMP JUMPDEST PUSH1 0x20 DUP3 ADD SWAP1 POP SWAP2 SWAP1 POP JUMP JUMPDEST PUSH0 PUSH1 0x20 DUP3 ADD SWAP1 POP DUP2 DUP2 SUB PUSH0 DUP4 ADD MSTORE PUSH2 0x1A2F DUP2 PUSH2 0x19F6 JUMP JUMPDEST SWAP1 POP SWAP2 SWAP1 POP JUMP JUMPDEST PUSH32 0x526174652063616E6E6F74206578636565642035302500000000000000000000 PUSH0 DUP3 ADD MSTORE POP JUMP JUMPDEST PUSH0 PUSH2 0x1A6A PUSH1 0x16 DUP4 PUSH2 0x1425 JUMP JUMPDEST SWAP2 POP PUSH2 0x1A75 DUP3 PUSH2 0x1A36 JUMP JUMPDEST PUSH1 0x20 DUP3 ADD SWAP1 POP SWAP2 SWAP1 POP JUMP JUMPDEST PUSH0 PUSH1 0x20 DUP3 ADD SWAP1 POP DUP2 DUP2 SUB PUSH0 DUP4 ADD MSTORE PUSH2 0x1A97 DUP2 PUSH2 0x1A5E JUMP JUMPDEST SWAP1 POP SWAP2 SWAP1 POP JUMP JUMPDEST PUSH0 PUSH2 0x1AA8 DUP3 PUSH2 0x149A JUMP JUMPDEST SWAP2 POP PUSH1 0xFF DUP3 SUB PUSH2 0x1ABB JUMPI PUSH2 0x1ABA PUSH2 0x1888 JUMP JUMPDEST JUMPDEST PUSH1 0x1 DUP3 ADD SWAP1 POP SWAP2 SWAP1 POP JUMP JUMPDEST PUSH0 PUSH2 0x1AD0 DUP3 PUSH2 0x149A JUMP JUMPDEST SWAP2 POP PUSH2 0x1ADB DUP4 PUSH2 0x149A JUMP JUMPDEST SWAP3 POP DUP3 DUP3 SUB SWAP1 POP PUSH1 0xFF DUP2 GT ISZERO PUSH2 0x1AF4 JUMPI PUSH2 0x1AF3 PUSH2 0x1888 JUMP JUMPDEST JUMPDEST SWAP3 SWAP2 POP POP JUMP JUMPDEST PUSH0 PUSH2 0x1B04 DUP3 PUSH2 0x149A JUMP JUMPDEST SWAP2 POP PUSH2 0x1B0F DUP4 PUSH2 0x149A JUMP JUMPDEST SWAP3 POP DUP3 DUP3 ADD SWAP1 POP PUSH1 0xFF DUP2 GT ISZERO PUSH2 0x1B28 JUMPI PUSH2 0x1B27 PUSH2 0x1888 JUMP JUMPDEST JUMPDEST SWAP3 SWAP2 POP POP JUMP JUMPDEST PUSH0 PUSH2 0x1B38 DUP3 PUSH2 0x149A JUMP JUMPDEST SWAP2 POP PUSH0 DUP3 SUB PUSH2 0x1B4A JUMPI PUSH2 0x1B49 PUSH2 0x1888 JUMP JUMPDEST JUMPDEST PUSH1 0x1 DUP3 SUB SWAP1 POP SWAP2 SWAP1 POP JUMP JUMPDEST PUSH0 PUSH1 0x80 DUP3 ADD SWAP1 POP PUSH2 0x1B68 PUSH0 DUP4 ADD DUP8 PUSH2 0x148B JUMP JUMPDEST PUSH2 0x1B75 PUSH1 0x20 DUP4 ADD DUP7 PUSH2 0x14A6 JUMP JUMPDEST PUSH2 0x1B82 PUSH1 0x40 DUP4 ADD DUP6 PUSH2 0x148B JUMP JUMPDEST PUSH2 0x1B8F PUSH1 0x60 DUP4 ADD DUP5 PUSH2 0x14A6 JUMP JUMPDEST SWAP6 SWAP5 POP POP POP POP POP JUMP JUMPDEST PUSH32 0x4E487B7100000000000000000000000000000000000000000000000000000000 PUSH0 MSTORE PUSH1 0x12 PUSH1 0x4 MSTORE PUSH1 0x24 PUSH0 REVERT JUMPDEST PUSH0 PUSH2 0x1BCF DUP3 PUSH2 0x149A JUMP JUMPDEST SWAP2 POP PUSH2 0x1BDA DUP4 PUSH2 0x149A JUMP JUMPDEST SWAP3 POP DUP3 PUSH2 0x1BEA JUMPI PUSH2 0x1BE9 PUSH2 0x1B98 JUMP JUMPDEST JUMPDEST DUP3 DUP3 DIV SWAP1 POP SWAP3 SWAP2 POP POP JUMP INVALID LOG2 PUSH5 0x6970667358 0x22 SLT KECCAK256 0xEA 0xE9 0x4D SWAP8 EXTCODEHASH CALLER SWAP5 PUSH1 0x2A PUSH19 0xEEEB64F4EE25C4642CBBF333B7CC94B7CAA75B 0xD SWAP5 0xDA PUSH5 0x736F6C6343 STOP ADDMOD BYTE STOP CALLER "
		},
		"gasEstimates": {
			"creation": {
				"codeDepositCost": "1442200",
				"executionCost": "infinite",
				"totalCost": "infinite"
			},
			"external": {
				"LenderTxns(address,uint256)": "infinite",
				"N_MEMBERS()": "375",
				"RANDOM_VOTERS()": "399",
				"REG_TIME()": "415",
				"candidateInfo(address)": "infinite",
				"candidateList(uint256)": "5033",
				"currentRate()": "2557",
				"electionEnd()": "2446",
				"getBalance()": "infinite",
				"getCurrentPhase()": "infinite",
				"interestPeriods(uint256)": "infinite",
				"lend()": "70525",
				"memberRank(address)": "2921",
				"neutral()": "2620",
				"numberOfRates()": "2555",
				"proposals(uint256)": "infinite",
				"proposeRate(uint256)": "infinite",
				"referendumEndTime()": "2492",
				"sortedRates(uint256)": "infinite",
				"startTime()": "infinite",
				"treasuryReserve()": "379"
			}
		},
		"methodIdentifiers": {
			"LenderTxns(address,uint256)": "53fdc838",
			"N_MEMBERS()": "e292bf16",
			"RANDOM_VOTERS()": "3def77b7",
			"REG_TIME()": "47f7b722",
			"candidateInfo(address)": "e965b7c9",
			"candidateList(uint256)": "b13c744b",
			"currentRate()": "f9f8bdb7",
			"electionEnd()": "ce7ea161",
			"getBalance()": "12065fe0",
			"getCurrentPhase()": "a3a40ea5",
			"interestPeriods(uint256)": "f33e9573",
			"lend()": "97dffc61",
			"memberRank(address)": "eab536fc",
			"neutral()": "4d0c8726",
			"numberOfRates()": "8f3218df",
			"proposals(uint256)": "013cf08b",
			"proposeRate(uint256)": "bdc8e7b3",
			"referendumEndTime()": "b0feb260",
			"sortedRates(uint256)": "9dc99455",
			"startTime()": "78e97925",
			"treasuryReserve()": "59297dbf"
		}
	},
	"abi": [
		{
			"anonymous": false,
			"inputs": [
				{
					"indexed": false,
					"internalType": "uint256",
					"name": "newMedianRate",
					"type": "uint256"
				}
			],
			"name": "InterestRateUpdated",
			"type": "event"
		},
		{
			"anonymous": false,
			"inputs": [
				{
					"indexed": true,
					"internalType": "address",
					"name": "lender",
					"type": "address"
				},
				{
					"indexed": false,
					"internalType": "int256",
					"name": "amount",
					"type": "int256"
				}
			],
			"name": "LoanReceived",
			"type": "event"
		},
		{
			"anonymous": false,
			"inputs": [
				{
					"indexed": true,
					"internalType": "address",
					"name": "member",
					"type": "address"
				},
				{
					"indexed": false,
					"internalType": "uint256",
					"name": "oldRate",
					"type": "uint256"
				},
				{
					"indexed": false,
					"internalType": "uint8",
					"name": "oldRank",
					"type": "uint8"
				},
				{
					"indexed": false,
					"internalType": "uint256",
					"name": "newRate",
					"type": "uint256"
				},
				{
					"indexed": false,
					"internalType": "uint8",
					"name": "newRank",
					"type": "uint8"
				}
			],
			"name": "MemberRateChanged",
			"type": "event"
		},
		{
			"inputs": [
				{
					"internalType": "address",
					"name": "",
					"type": "address"
				},
				{
					"internalType": "uint256",
					"name": "",
					"type": "uint256"
				}
			],
			"name": "LenderTxns",
			"outputs": [
				{
					"internalType": "int256",
					"name": "amount",
					"type": "int256"
				},
				{
					"internalType": "uint256",
					"name": "timestamp",
					"type": "uint256"
				}
			],
			"stateMutability": "view",
			"type": "function"
		},
		{
			"inputs": [],
			"name": "N_MEMBERS",
			"outputs": [
				{
					"internalType": "uint8",
					"name": "",
					"type": "uint8"
				}
			],
			"stateMutability": "view",
			"type": "function"
		},
		{
			"inputs": [],
			"name": "RANDOM_VOTERS",
			"outputs": [
				{
					"internalType": "uint32",
					"name": "",
					"type": "uint32"
				}
			],
			"stateMutability": "view",
			"type": "function"
		},
		{
			"inputs": [],
			"name": "REG_TIME",
			"outputs": [
				{
					"internalType": "uint256",
					"name": "",
					"type": "uint256"
				}
			],
			"stateMutability": "view",
			"type": "function"
		},
		{
			"inputs": [
				{
					"internalType": "address",
					"name": "",
					"type": "address"
				}
			],
			"name": "candidateInfo",
			"outputs": [
				{
					"internalType": "string",
					"name": "fullName",
					"type": "string"
				},
				{
					"internalType": "string",
					"name": "bio",
					"type": "string"
				},
				{
					"internalType": "string",
					"name": "website",
					"type": "string"
				},
				{
					"internalType": "uint256",
					"name": "registeredAt",
					"type": "uint256"
				},
				{
					"internalType": "uint256",
					"name": "voteCount",
					"type": "uint256"
				},
				{
					"internalType": "bool",
					"name": "electedMember",
					"type": "bool"
				},
				{
					"internalType": "uint256",
					"name": "leaderAt",
					"type": "uint256"
				}
			],
			"stateMutability": "view",
			"type": "function"
		},
		{
			"inputs": [
				{
					"internalType": "uint256",
					"name": "",
					"type": "uint256"
				}
			],
			"name": "candidateList",
			"outputs": [
				{
					"internalType": "address",
					"name": "",
					"type": "address"
				}
			],
			"stateMutability": "view",
			"type": "function"
		},
		{
			"inputs": [],
			"name": "currentRate",
			"outputs": [
				{
					"internalType": "uint256",
					"name": "",
					"type": "uint256"
				}
			],
			"stateMutability": "view",
			"type": "function"
		},
		{
			"inputs": [],
			"name": "electionEnd",
			"outputs": [
				{
					"internalType": "uint256",
					"name": "",
					"type": "uint256"
				}
			],
			"stateMutability": "view",
			"type": "function"
		},
		{
			"inputs": [],
			"name": "getBalance",
			"outputs": [
				{
					"internalType": "int256",
					"name": "_sum",
					"type": "int256"
				}
			],
			"stateMutability": "view",
			"type": "function"
		},
		{
			"inputs": [],
			"name": "getCurrentPhase",
			"outputs": [
				{
					"internalType": "enum Phase",
					"name": "",
					"type": "uint8"
				}
			],
			"stateMutability": "nonpayable",
			"type": "function"
		},
		{
			"inputs": [
				{
					"internalType": "uint256",
					"name": "",
					"type": "uint256"
				}
			],
			"name": "interestPeriods",
			"outputs": [
				{
					"internalType": "uint256",
					"name": "rate",
					"type": "uint256"
				},
				{
					"internalType": "uint256",
					"name": "startedAt",
					"type": "uint256"
				}
			],
			"stateMutability": "view",
			"type": "function"
		},
		{
			"inputs": [],
			"name": "lend",
			"outputs": [],
			"stateMutability": "payable",
			"type": "function"
		},
		{
			"inputs": [
				{
					"internalType": "address",
					"name": "",
					"type": "address"
				}
			],
			"name": "memberRank",
			"outputs": [
				{
					"internalType": "uint8",
					"name": "",
					"type": "uint8"
				}
			],
			"stateMutability": "view",
			"type": "function"
		},
		{
			"inputs": [],
			"name": "neutral",
			"outputs": [
				{
					"internalType": "address",
					"name": "",
					"type": "address"
				}
			],
			"stateMutability": "view",
			"type": "function"
		},
		{
			"inputs": [],
			"name": "numberOfRates",
			"outputs": [
				{
					"internalType": "uint8",
					"name": "",
					"type": "uint8"
				}
			],
			"stateMutability": "view",
			"type": "function"
		},
		{
			"inputs": [
				{
					"internalType": "uint256",
					"name": "",
					"type": "uint256"
				}
			],
			"name": "proposals",
			"outputs": [
				{
					"internalType": "address",
					"name": "proposer",
					"type": "address"
				},
				{
					"internalType": "string",
					"name": "provisions",
					"type": "string"
				},
				{
					"internalType": "uint256",
					"name": "proposedAt",
					"type": "uint256"
				},
				{
					"internalType": "uint256",
					"name": "executedAt",
					"type": "uint256"
				},
				{
					"internalType": "uint256",
					"name": "withdrawnAt",
					"type": "uint256"
				},
				{
					"internalType": "uint8",
					"name": "yesVotes",
					"type": "uint8"
				}
			],
			"stateMutability": "view",
			"type": "function"
		},
		{
			"inputs": [
				{
					"internalType": "uint256",
					"name": "newRate",
					"type": "uint256"
				}
			],
			"name": "proposeRate",
			"outputs": [],
			"stateMutability": "nonpayable",
			"type": "function"
		},
		{
			"inputs": [],
			"name": "referendumEndTime",
			"outputs": [
				{
					"internalType": "uint256",
					"name": "",
					"type": "uint256"
				}
			],
			"stateMutability": "view",
			"type": "function"
		},
		{
			"inputs": [
				{
					"internalType": "uint256",
					"name": "",
					"type": "uint256"
				}
			],
			"name": "sortedRates",
			"outputs": [
				{
					"internalType": "address",
					"name": "member",
					"type": "address"
				},
				{
					"internalType": "uint256",
					"name": "rate",
					"type": "uint256"
				}
			],
			"stateMutability": "view",
			"type": "function"
		},
		{
			"inputs": [],
			"name": "startTime",
			"outputs": [
				{
					"internalType": "uint256",
					"name": "",
					"type": "uint256"
				}
			],
			"stateMutability": "view",
			"type": "function"
		},
		{
			"inputs": [],
			"name": "treasuryReserve",
			"outputs": [
				{
					"internalType": "uint256",
					"name": "",
					"type": "uint256"
				}
			],
			"stateMutability": "view",
			"type": "function"
		}
	]
}