{
	"data": {
		"bytecode": {
			"linkReferences": {},
			"object": "60a0604052606e805460ff191690553480156018575f5ffd5b506080516111d16100315f395f61028201526111d15ff3fe608060405260043610610131575f3560e01c80639dc99455116100a8578063ce7ea1611161006d578063ce7ea1611461038b578063e292bf161461039f578063e965b7c9146103b3578063eab536fc146103e5578063f33e957314610413578063f9f8bdb714610432575f5ffd5b80639dc99455146102d9578063a3a40ea514610317578063b0feb26014610338578063b13c744b1461034d578063bdc8e7b31461036c575f5ffd5b80634d0c8726116100f95780634d0c8726146101f457806353fdc8381461022b57806359297dbf1461025f57806378e97925146102715780638f3218df146102a457806397dffc61146102cf575f5ffd5b8063013cf08b1461013557806312065fe01461016f5780631b408934146101915780633def77b7146101c957806347f7b722146101de575b5f5ffd5b348015610140575f5ffd5b5061015461014f366004610e9e565b610447565b60405161016696959493929190610ee3565b60405180910390f35b34801561017a575f5ffd5b50610183610521565b604051908152602001610166565b34801561019c575f5ffd5b506001546101b490600160a01b900463ffffffff1681565b60405163ffffffff9091168152602001610166565b3480156101d4575f5ffd5b506101b46103e881565b3480156101e9575f5ffd5b506101836212750081565b3480156101ff575f5ffd5b50600154610213906001600160a01b031681565b6040516001600160a01b039091168152602001610166565b348015610236575f5ffd5b5061024a610245366004610f49565b610594565b60408051928352602083019190915201610166565b34801561026a575f5ffd5b5047610183565b34801561027c575f5ffd5b506101837f000000000000000000000000000000000000000000000000000000000000000081565b3480156102af575f5ffd5b50606e546102bd9060ff1681565b60405160ff9091168152602001610166565b6102d76105cc565b005b3480156102e4575f5ffd5b506102f86102f3366004610e9e565b610646565b604080516001600160a01b039093168352602083019190915201610166565b348015610322575f5ffd5b5061032b610671565b6040516101669190610f71565b348015610343575f5ffd5b5061018360055481565b348015610358575f5ffd5b50610213610367366004610e9e565b610712565b348015610377575f5ffd5b506102d7610386366004610e9e565b61073a565b348015610396575f5ffd5b506101835f5481565b3480156103aa575f5ffd5b506102bd603281565b3480156103be575f5ffd5b506103d26103cd366004610f97565b610ca0565b6040516101669796959493929190610fb7565b3480156103f0575f5ffd5b506102bd6103ff366004610f97565b606d6020525f908152604090205460ff1681565b34801561041e575f5ffd5b5061024a61042d366004610e9e565b610e72565b34801561043d575f5ffd5b5061018360065481565b60048181548110610456575f80fd5b5f918252602090912060079091020180546001820180546001600160a01b0390921693509061048490611016565b80601f01602080910402602001604051908101604052809291908181526020018280546104b090611016565b80156104fb5780601f106104d2576101008083540402835291602001916104fb565b820191905f5260205f20905b8154815290600101906020018083116104de57829003601f168201915b505050506002830154600384015460048501546005909501549394919390925060ff1686565b5f5f5b335f9081526008602052604090205461ffff8216101561059057335f908152600860205260409020805461ffff83169081106105625761056261104e565b905f5260205f2090600202015f01548261057c9190611076565b9150806105888161109d565b915050610524565b5090565b6008602052815f5260405f2081815481106105ad575f80fd5b5f91825260209091206002909102018054600190910154909250905082565b60408051808201825234808252426020808401918252335f818152600883528681208054600180820183559183529184902087516002909302019182559351930192909255935191825291927f976be468429698a1b0ae0c20a0329bdb6e24722a3f834a2c54b84d63c1722f32910160405180910390a250565b60098160328110610655575f80fd5b6002020180546001909101546001600160a01b03909116915082565b5f620151805f5461068291906110bd565b42101561068e57505f90565b5f544210156106ed576106a3603260026110d6565b60ff1660028054905010806106c957506001546103e8600160a01b90910463ffffffff16105b156106e757621275005f546106de91906110f9565b5f908155919050565b50600190565b6005545f036106fc5750600290565b60055442101561070c5750600390565b50600490565b60028181548110610721575f80fd5b5f918252602090912001546001600160a01b0316905081565b335f9081526003602052604090206005015460ff166107a05760405162461bcd60e51b815260206004820152601860248201527f4f6e6c79206d656d626572732063616e2070726f706f7365000000000000000060448201526064015b60405180910390fd5b6113888111156107eb5760405162461bcd60e51b8152602060048201526016602482015275526174652063616e6e6f74206578636565642035302560501b6044820152606401610797565b335f908152606d602052604081205460ff168015801561082e575033600960ff83166032811061081d5761081d61104e565b60020201546001600160a01b031614155b1561086657606e805460ff16905f6108458361110c565b91906101000a81548160ff021916908360ff160217905550505f9150610887565b60098160ff166032811061087c5761087c61104e565b600202016001015491505b808284036108955750505050565b828411156109b5575b6108aa60016032611121565b60ff168160ff161080156108e4575060096108c682600161113a565b60ff16603281106108d9576108d961104e565b600202016001015484115b156109b05760096108f682600161113a565b60ff16603281106109095761090961104e565b6002020160098260ff16603281106109235761092361104e565b82546002919091029190910180546001600160a01b0319166001600160a01b0390921691909117815560019182015491015580606d5f600960ff84166032811061096f5761096f61104e565b60020201546001600160a01b0316815260208101919091526040015f20805460ff191660ff92909216919091179055806109a88161110c565b91505061089e565b610ab9565b5f8160ff161180156109ed575060096109cf600183611121565b60ff16603281106109e2576109e261104e565b600202016001015484105b15610ab95760096109ff600183611121565b60ff1660328110610a1257610a1261104e565b6002020160098260ff1660328110610a2c57610a2c61104e565b82546002919091029190910180546001600160a01b0319166001600160a01b0390921691909117815560019182015491015580606d5f600960ff841660328110610a7857610a7861104e565b60020201546001600160a01b0316815260208101919091526040015f20805460ff191660ff9290921691909117905580610ab181611153565b9150506109b5565b6040805180820190915233815260208101859052600960ff831660328110610ae357610ae361104e565b82516002919091029190910180546001600160a01b0319166001600160a01b03909216919091178155602091820151600190910155335f818152606d8352604090819020805460ff191660ff8681169182179092558251888152918716948201949094529081018790526060810192909252907f1ce0beaec98d7537137a85c2d351c6c99900830d30fe8a7c353fa27225807e729060800160405180910390a26009610b916002603261116e565b60ff1660328110610ba457610ba461104e565b600202016001015460065414610c9a576009610bc26002603261116e565b60ff1660328110610bd557610bd561104e565b6001600291820292909201820154600681815560408051808201825292835242602084019081526007805496870181555f529251949093027fa66cc928b5edb82af9bd49922954155ab7b0942694bea4ce44661d9a8736c68881019490945590517fa66cc928b5edb82af9bd49922954155ab7b0942694bea4ce44661d9a8736c68990930192909255905490517fa90e14be5aa57b910aa6dc16c31ff1b5cda380ae25a793b0d3f74df6131a7d7491610c919190815260200190565b60405180910390a15b50505050565b60036020525f9081526040902080548190610cba90611016565b80601f0160208091040260200160405190810160405280929190818152602001828054610ce690611016565b8015610d315780601f10610d0857610100808354040283529160200191610d31565b820191905f5260205f20905b815481529060010190602001808311610d1457829003601f168201915b505050505090806001018054610d4690611016565b80601f0160208091040260200160405190810160405280929190818152602001828054610d7290611016565b8015610dbd5780601f10610d9457610100808354040283529160200191610dbd565b820191905f5260205f20905b815481529060010190602001808311610da057829003601f168201915b505050505090806002018054610dd290611016565b80601f0160208091040260200160405190810160405280929190818152602001828054610dfe90611016565b8015610e495780601f10610e2057610100808354040283529160200191610e49565b820191905f5260205f20905b815481529060010190602001808311610e2c57829003601f168201915b5050506003840154600485015460058601546006909601549495919490935060ff909116915087565b60078181548110610e81575f80fd5b5f9182526020909120600290910201805460019091015490915082565b5f60208284031215610eae575f5ffd5b5035919050565b5f81518084528060208401602086015e5f602082860101526020601f19601f83011685010191505092915050565b6001600160a01b038716815260c0602082018190525f90610f0690830188610eb5565b905085604083015284606083015283608083015260ff831660a0830152979650505050505050565b80356001600160a01b0381168114610f44575f5ffd5b919050565b5f5f60408385031215610f5a575f5ffd5b610f6383610f2e565b946020939093013593505050565b6020810160058310610f9157634e487b7160e01b5f52602160045260245ffd5b91905290565b5f60208284031215610fa7575f5ffd5b610fb082610f2e565b9392505050565b60e081525f610fc960e083018a610eb5565b8281036020840152610fdb818a610eb5565b90508281036040840152610fef8189610eb5565b60608401979097525050608081019390935290151560a083015260c0909101529392505050565b600181811c9082168061102a57607f821691505b60208210810361104857634e487b7160e01b5f52602260045260245ffd5b50919050565b634e487b7160e01b5f52603260045260245ffd5b634e487b7160e01b5f52601160045260245ffd5b8082018281125f83128015821682158216171561109557611095611062565b505092915050565b5f61ffff821661ffff81036110b4576110b4611062565b60010192915050565b818103818111156110d0576110d0611062565b92915050565b60ff81811683821602908116908181146110f2576110f2611062565b5092915050565b808201808211156110d0576110d0611062565b5f60ff821660ff81036110b4576110b4611062565b60ff82811682821603908111156110d0576110d0611062565b60ff81811683821601908111156110d0576110d0611062565b5f60ff82168061116557611165611062565b5f190192915050565b5f60ff83168061118c57634e487b7160e01b5f52601260045260245ffd5b8060ff8416049150509291505056fea2646970667358221220c6ac8fb393192997def32f96cdc1b3a06be4ffe7b4e5529edf6744e1da8012d464736f6c634300081c0033",
			"opcodes": "PUSH1 0xA0 PUSH1 0x40 MSTORE PUSH1 0x6E DUP1 SLOAD PUSH1 0xFF NOT AND SWAP1 SSTORE CALLVALUE DUP1 ISZERO PUSH1 0x18 JUMPI PUSH0 PUSH0 REVERT JUMPDEST POP PUSH1 0x80 MLOAD PUSH2 0x11D1 PUSH2 0x31 PUSH0 CODECOPY PUSH0 PUSH2 0x282 ADD MSTORE PUSH2 0x11D1 PUSH0 RETURN INVALID PUSH1 0x80 PUSH1 0x40 MSTORE PUSH1 0x4 CALLDATASIZE LT PUSH2 0x131 JUMPI PUSH0 CALLDATALOAD PUSH1 0xE0 SHR DUP1 PUSH4 0x9DC99455 GT PUSH2 0xA8 JUMPI DUP1 PUSH4 0xCE7EA161 GT PUSH2 0x6D JUMPI DUP1 PUSH4 0xCE7EA161 EQ PUSH2 0x38B JUMPI DUP1 PUSH4 0xE292BF16 EQ PUSH2 0x39F JUMPI DUP1 PUSH4 0xE965B7C9 EQ PUSH2 0x3B3 JUMPI DUP1 PUSH4 0xEAB536FC EQ PUSH2 0x3E5 JUMPI DUP1 PUSH4 0xF33E9573 EQ PUSH2 0x413 JUMPI DUP1 PUSH4 0xF9F8BDB7 EQ PUSH2 0x432 JUMPI PUSH0 PUSH0 REVERT JUMPDEST DUP1 PUSH4 0x9DC99455 EQ PUSH2 0x2D9 JUMPI DUP1 PUSH4 0xA3A40EA5 EQ PUSH2 0x317 JUMPI DUP1 PUSH4 0xB0FEB260 EQ PUSH2 0x338 JUMPI DUP1 PUSH4 0xB13C744B EQ PUSH2 0x34D JUMPI DUP1 PUSH4 0xBDC8E7B3 EQ PUSH2 0x36C JUMPI PUSH0 PUSH0 REVERT JUMPDEST DUP1 PUSH4 0x4D0C8726 GT PUSH2 0xF9 JUMPI DUP1 PUSH4 0x4D0C8726 EQ PUSH2 0x1F4 JUMPI DUP1 PUSH4 0x53FDC838 EQ PUSH2 0x22B JUMPI DUP1 PUSH4 0x59297DBF EQ PUSH2 0x25F JUMPI DUP1 PUSH4 0x78E97925 EQ PUSH2 0x271 JUMPI DUP1 PUSH4 0x8F3218DF EQ PUSH2 0x2A4 JUMPI DUP1 PUSH4 0x97DFFC61 EQ PUSH2 0x2CF JUMPI PUSH0 PUSH0 REVERT JUMPDEST DUP1 PUSH4 0x13CF08B EQ PUSH2 0x135 JUMPI DUP1 PUSH4 0x12065FE0 EQ PUSH2 0x16F JUMPI DUP1 PUSH4 0x1B408934 EQ PUSH2 0x191 JUMPI DUP1 PUSH4 0x3DEF77B7 EQ PUSH2 0x1C9 JUMPI DUP1 PUSH4 0x47F7B722 EQ PUSH2 0x1DE JUMPI JUMPDEST PUSH0 PUSH0 REVERT JUMPDEST CALLVALUE DUP1 ISZERO PUSH2 0x140 JUMPI PUSH0 PUSH0 REVERT JUMPDEST POP PUSH2 0x154 PUSH2 0x14F CALLDATASIZE PUSH1 0x4 PUSH2 0xE9E JUMP JUMPDEST PUSH2 0x447 JUMP JUMPDEST PUSH1 0x40 MLOAD PUSH2 0x166 SWAP7 SWAP6 SWAP5 SWAP4 SWAP3 SWAP2 SWAP1 PUSH2 0xEE3 JUMP JUMPDEST PUSH1 0x40 MLOAD DUP1 SWAP2 SUB SWAP1 RETURN JUMPDEST CALLVALUE DUP1 ISZERO PUSH2 0x17A JUMPI PUSH0 PUSH0 REVERT JUMPDEST POP PUSH2 0x183 PUSH2 0x521 JUMP JUMPDEST PUSH1 0x40 MLOAD SWAP1 DUP2 MSTORE PUSH1 0x20 ADD PUSH2 0x166 JUMP JUMPDEST CALLVALUE DUP1 ISZERO PUSH2 0x19C JUMPI PUSH0 PUSH0 REVERT JUMPDEST POP PUSH1 0x1 SLOAD PUSH2 0x1B4 SWAP1 PUSH1 0x1 PUSH1 0xA0 SHL SWAP1 DIV PUSH4 0xFFFFFFFF AND DUP2 JUMP JUMPDEST PUSH1 0x40 MLOAD PUSH4 0xFFFFFFFF SWAP1 SWAP2 AND DUP2 MSTORE PUSH1 0x20 ADD PUSH2 0x166 JUMP JUMPDEST CALLVALUE DUP1 ISZERO PUSH2 0x1D4 JUMPI PUSH0 PUSH0 REVERT JUMPDEST POP PUSH2 0x1B4 PUSH2 0x3E8 DUP2 JUMP JUMPDEST CALLVALUE DUP1 ISZERO PUSH2 0x1E9 JUMPI PUSH0 PUSH0 REVERT JUMPDEST POP PUSH2 0x183 PUSH3 0x127500 DUP2 JUMP JUMPDEST CALLVALUE DUP1 ISZERO PUSH2 0x1FF JUMPI PUSH0 PUSH0 REVERT JUMPDEST POP PUSH1 0x1 SLOAD PUSH2 0x213 SWAP1 PUSH1 0x1 PUSH1 0x1 PUSH1 0xA0 SHL SUB AND DUP2 JUMP JUMPDEST PUSH1 0x40 MLOAD PUSH1 0x1 PUSH1 0x1 PUSH1 0xA0 SHL SUB SWAP1 SWAP2 AND DUP2 MSTORE PUSH1 0x20 ADD PUSH2 0x166 JUMP JUMPDEST CALLVALUE DUP1 ISZERO PUSH2 0x236 JUMPI PUSH0 PUSH0 REVERT JUMPDEST POP PUSH2 0x24A PUSH2 0x245 CALLDATASIZE PUSH1 0x4 PUSH2 0xF49 JUMP JUMPDEST PUSH2 0x594 JUMP JUMPDEST PUSH1 0x40 DUP1 MLOAD SWAP3 DUP4 MSTORE PUSH1 0x20 DUP4 ADD SWAP2 SWAP1 SWAP2 MSTORE ADD PUSH2 0x166 JUMP JUMPDEST CALLVALUE DUP1 ISZERO PUSH2 0x26A JUMPI PUSH0 PUSH0 REVERT JUMPDEST POP SELFBALANCE PUSH2 0x183 JUMP JUMPDEST CALLVALUE DUP1 ISZERO PUSH2 0x27C JUMPI PUSH0 PUSH0 REVERT JUMPDEST POP PUSH2 0x183 PUSH32 0x0 DUP2 JUMP JUMPDEST CALLVALUE DUP1 ISZERO PUSH2 0x2AF JUMPI PUSH0 PUSH0 REVERT JUMPDEST POP PUSH1 0x6E SLOAD PUSH2 0x2BD SWAP1 PUSH1 0xFF AND DUP2 JUMP JUMPDEST PUSH1 0x40 MLOAD PUSH1 0xFF SWAP1 SWAP2 AND DUP2 MSTORE PUSH1 0x20 ADD PUSH2 0x166 JUMP JUMPDEST PUSH2 0x2D7 PUSH2 0x5CC JUMP JUMPDEST STOP JUMPDEST CALLVALUE DUP1 ISZERO PUSH2 0x2E4 JUMPI PUSH0 PUSH0 REVERT JUMPDEST POP PUSH2 0x2F8 PUSH2 0x2F3 CALLDATASIZE PUSH1 0x4 PUSH2 0xE9E JUMP JUMPDEST PUSH2 0x646 JUMP JUMPDEST PUSH1 0x40 DUP1 MLOAD PUSH1 0x1 PUSH1 0x1 PUSH1 0xA0 SHL SUB SWAP1 SWAP4 AND DUP4 MSTORE PUSH1 0x20 DUP4 ADD SWAP2 SWAP1 SWAP2 MSTORE ADD PUSH2 0x166 JUMP JUMPDEST CALLVALUE DUP1 ISZERO PUSH2 0x322 JUMPI PUSH0 PUSH0 REVERT JUMPDEST POP PUSH2 0x32B PUSH2 0x671 JUMP JUMPDEST PUSH1 0x40 MLOAD PUSH2 0x166 SWAP2 SWAP1 PUSH2 0xF71 JUMP JUMPDEST CALLVALUE DUP1 ISZERO PUSH2 0x343 JUMPI PUSH0 PUSH0 REVERT JUMPDEST POP PUSH2 0x183 PUSH1 0x5 SLOAD DUP2 JUMP JUMPDEST CALLVALUE DUP1 ISZERO PUSH2 0x358 JUMPI PUSH0 PUSH0 REVERT JUMPDEST POP PUSH2 0x213 PUSH2 0x367 CALLDATASIZE PUSH1 0x4 PUSH2 0xE9E JUMP JUMPDEST PUSH2 0x712 JUMP JUMPDEST CALLVALUE DUP1 ISZERO PUSH2 0x377 JUMPI PUSH0 PUSH0 REVERT JUMPDEST POP PUSH2 0x2D7 PUSH2 0x386 CALLDATASIZE PUSH1 0x4 PUSH2 0xE9E JUMP JUMPDEST PUSH2 0x73A JUMP JUMPDEST CALLVALUE DUP1 ISZERO PUSH2 0x396 JUMPI PUSH0 PUSH0 REVERT JUMPDEST POP PUSH2 0x183 PUSH0 SLOAD DUP2 JUMP JUMPDEST CALLVALUE DUP1 ISZERO PUSH2 0x3AA JUMPI PUSH0 PUSH0 REVERT JUMPDEST POP PUSH2 0x2BD PUSH1 0x32 DUP2 JUMP JUMPDEST CALLVALUE DUP1 ISZERO PUSH2 0x3BE JUMPI PUSH0 PUSH0 REVERT JUMPDEST POP PUSH2 0x3D2 PUSH2 0x3CD CALLDATASIZE PUSH1 0x4 PUSH2 0xF97 JUMP JUMPDEST PUSH2 0xCA0 JUMP JUMPDEST PUSH1 0x40 MLOAD PUSH2 0x166 SWAP8 SWAP7 SWAP6 SWAP5 SWAP4 SWAP3 SWAP2 SWAP1 PUSH2 0xFB7 JUMP JUMPDEST CALLVALUE DUP1 ISZERO PUSH2 0x3F0 JUMPI PUSH0 PUSH0 REVERT JUMPDEST POP PUSH2 0x2BD PUSH2 0x3FF CALLDATASIZE PUSH1 0x4 PUSH2 0xF97 JUMP JUMPDEST PUSH1 0x6D PUSH1 0x20 MSTORE PUSH0 SWAP1 DUP2 MSTORE PUSH1 0x40 SWAP1 KECCAK256 SLOAD PUSH1 0xFF AND DUP2 JUMP JUMPDEST CALLVALUE DUP1 ISZERO PUSH2 0x41E JUMPI PUSH0 PUSH0 REVERT JUMPDEST POP PUSH2 0x24A PUSH2 0x42D CALLDATASIZE PUSH1 0x4 PUSH2 0xE9E JUMP JUMPDEST PUSH2 0xE72 JUMP JUMPDEST CALLVALUE DUP1 ISZERO PUSH2 0x43D JUMPI PUSH0 PUSH0 REVERT JUMPDEST POP PUSH2 0x183 PUSH1 0x6 SLOAD DUP2 JUMP JUMPDEST PUSH1 0x4 DUP2 DUP2 SLOAD DUP2 LT PUSH2 0x456 JUMPI PUSH0 DUP1 REVERT JUMPDEST PUSH0 SWAP2 DUP3 MSTORE PUSH1 0x20 SWAP1 SWAP2 KECCAK256 PUSH1 0x7 SWAP1 SWAP2 MUL ADD DUP1 SLOAD PUSH1 0x1 DUP3 ADD DUP1 SLOAD PUSH1 0x1 PUSH1 0x1 PUSH1 0xA0 SHL SUB SWAP1 SWAP3 AND SWAP4 POP SWAP1 PUSH2 0x484 SWAP1 PUSH2 0x1016 JUMP JUMPDEST DUP1 PUSH1 0x1F ADD PUSH1 0x20 DUP1 SWAP2 DIV MUL PUSH1 0x20 ADD PUSH1 0x40 MLOAD SWAP1 DUP2 ADD PUSH1 0x40 MSTORE DUP1 SWAP3 SWAP2 SWAP1 DUP2 DUP2 MSTORE PUSH1 0x20 ADD DUP3 DUP1 SLOAD PUSH2 0x4B0 SWAP1 PUSH2 0x1016 JUMP JUMPDEST DUP1 ISZERO PUSH2 0x4FB JUMPI DUP1 PUSH1 0x1F LT PUSH2 0x4D2 JUMPI PUSH2 0x100 DUP1 DUP4 SLOAD DIV MUL DUP4 MSTORE SWAP2 PUSH1 0x20 ADD SWAP2 PUSH2 0x4FB JUMP JUMPDEST DUP3 ADD SWAP2 SWAP1 PUSH0 MSTORE PUSH1 0x20 PUSH0 KECCAK256 SWAP1 JUMPDEST DUP2 SLOAD DUP2 MSTORE SWAP1 PUSH1 0x1 ADD SWAP1 PUSH1 0x20 ADD DUP1 DUP4 GT PUSH2 0x4DE JUMPI DUP3 SWAP1 SUB PUSH1 0x1F AND DUP3 ADD SWAP2 JUMPDEST POP POP POP POP PUSH1 0x2 DUP4 ADD SLOAD PUSH1 0x3 DUP5 ADD SLOAD PUSH1 0x4 DUP6 ADD SLOAD PUSH1 0x5 SWAP1 SWAP6 ADD SLOAD SWAP4 SWAP5 SWAP2 SWAP4 SWAP1 SWAP3 POP PUSH1 0xFF AND DUP7 JUMP JUMPDEST PUSH0 PUSH0 JUMPDEST CALLER PUSH0 SWAP1 DUP2 MSTORE PUSH1 0x8 PUSH1 0x20 MSTORE PUSH1 0x40 SWAP1 KECCAK256 SLOAD PUSH2 0xFFFF DUP3 AND LT ISZERO PUSH2 0x590 JUMPI CALLER PUSH0 SWAP1 DUP2 MSTORE PUSH1 0x8 PUSH1 0x20 MSTORE PUSH1 0x40 SWAP1 KECCAK256 DUP1 SLOAD PUSH2 0xFFFF DUP4 AND SWAP1 DUP2 LT PUSH2 0x562 JUMPI PUSH2 0x562 PUSH2 0x104E JUMP JUMPDEST SWAP1 PUSH0 MSTORE PUSH1 0x20 PUSH0 KECCAK256 SWAP1 PUSH1 0x2 MUL ADD PUSH0 ADD SLOAD DUP3 PUSH2 0x57C SWAP2 SWAP1 PUSH2 0x1076 JUMP JUMPDEST SWAP2 POP DUP1 PUSH2 0x588 DUP2 PUSH2 0x109D JUMP JUMPDEST SWAP2 POP POP PUSH2 0x524 JUMP JUMPDEST POP SWAP1 JUMP JUMPDEST PUSH1 0x8 PUSH1 0x20 MSTORE DUP2 PUSH0 MSTORE PUSH1 0x40 PUSH0 KECCAK256 DUP2 DUP2 SLOAD DUP2 LT PUSH2 0x5AD JUMPI PUSH0 DUP1 REVERT JUMPDEST PUSH0 SWAP2 DUP3 MSTORE PUSH1 0x20 SWAP1 SWAP2 KECCAK256 PUSH1 0x2 SWAP1 SWAP2 MUL ADD DUP1 SLOAD PUSH1 0x1 SWAP1 SWAP2 ADD SLOAD SWAP1 SWAP3 POP SWAP1 POP DUP3 JUMP JUMPDEST PUSH1 0x40 DUP1 MLOAD DUP1 DUP3 ADD DUP3 MSTORE CALLVALUE DUP1 DUP3 MSTORE TIMESTAMP PUSH1 0x20 DUP1 DUP5 ADD SWAP2 DUP3 MSTORE CALLER PUSH0 DUP2 DUP2 MSTORE PUSH1 0x8 DUP4 MSTORE DUP7 DUP2 KECCAK256 DUP1 SLOAD PUSH1 0x1 DUP1 DUP3 ADD DUP4 SSTORE SWAP2 DUP4 MSTORE SWAP2 DUP5 SWAP1 KECCAK256 DUP8 MLOAD PUSH1 0x2 SWAP1 SWAP4 MUL ADD SWAP2 DUP3 SSTORE SWAP4 MLOAD SWAP4 ADD SWAP3 SWAP1 SWAP3 SSTORE SWAP4 MLOAD SWAP2 DUP3 MSTORE SWAP2 SWAP3 PUSH32 0x976BE468429698A1B0AE0C20A0329BDB6E24722A3F834A2C54B84D63C1722F32 SWAP2 ADD PUSH1 0x40 MLOAD DUP1 SWAP2 SUB SWAP1 LOG2 POP JUMP JUMPDEST PUSH1 0x9 DUP2 PUSH1 0x32 DUP2 LT PUSH2 0x655 JUMPI PUSH0 DUP1 REVERT JUMPDEST PUSH1 0x2 MUL ADD DUP1 SLOAD PUSH1 0x1 SWAP1 SWAP2 ADD SLOAD PUSH1 0x1 PUSH1 0x1 PUSH1 0xA0 SHL SUB SWAP1 SWAP2 AND SWAP2 POP DUP3 JUMP JUMPDEST PUSH0 PUSH3 0x15180 PUSH0 SLOAD PUSH2 0x682 SWAP2 SWAP1 PUSH2 0x10BD JUMP JUMPDEST TIMESTAMP LT ISZERO PUSH2 0x68E JUMPI POP PUSH0 SWAP1 JUMP JUMPDEST PUSH0 SLOAD TIMESTAMP LT ISZERO PUSH2 0x6ED JUMPI PUSH2 0x6A3 PUSH1 0x32 PUSH1 0x2 PUSH2 0x10D6 JUMP JUMPDEST PUSH1 0xFF AND PUSH1 0x2 DUP1 SLOAD SWAP1 POP LT DUP1 PUSH2 0x6C9 JUMPI POP PUSH1 0x1 SLOAD PUSH2 0x3E8 PUSH1 0x1 PUSH1 0xA0 SHL SWAP1 SWAP2 DIV PUSH4 0xFFFFFFFF AND LT JUMPDEST ISZERO PUSH2 0x6E7 JUMPI PUSH3 0x127500 PUSH0 SLOAD PUSH2 0x6DE SWAP2 SWAP1 PUSH2 0x10F9 JUMP JUMPDEST PUSH0 SWAP1 DUP2 SSTORE SWAP2 SWAP1 POP JUMP JUMPDEST POP PUSH1 0x1 SWAP1 JUMP JUMPDEST PUSH1 0x5 SLOAD PUSH0 SUB PUSH2 0x6FC JUMPI POP PUSH1 0x2 SWAP1 JUMP JUMPDEST PUSH1 0x5 SLOAD TIMESTAMP LT ISZERO PUSH2 0x70C JUMPI POP PUSH1 0x3 SWAP1 JUMP JUMPDEST POP PUSH1 0x4 SWAP1 JUMP JUMPDEST PUSH1 0x2 DUP2 DUP2 SLOAD DUP2 LT PUSH2 0x721 JUMPI PUSH0 DUP1 REVERT JUMPDEST PUSH0 SWAP2 DUP3 MSTORE PUSH1 0x20 SWAP1 SWAP2 KECCAK256 ADD SLOAD PUSH1 0x1 PUSH1 0x1 PUSH1 0xA0 SHL SUB AND SWAP1 POP DUP2 JUMP JUMPDEST CALLER PUSH0 SWAP1 DUP2 MSTORE PUSH1 0x3 PUSH1 0x20 MSTORE PUSH1 0x40 SWAP1 KECCAK256 PUSH1 0x5 ADD SLOAD PUSH1 0xFF AND PUSH2 0x7A0 JUMPI PUSH1 0x40 MLOAD PUSH3 0x461BCD PUSH1 0xE5 SHL DUP2 MSTORE PUSH1 0x20 PUSH1 0x4 DUP3 ADD MSTORE PUSH1 0x18 PUSH1 0x24 DUP3 ADD MSTORE PUSH32 0x4F6E6C79206D656D626572732063616E2070726F706F73650000000000000000 PUSH1 0x44 DUP3 ADD MSTORE PUSH1 0x64 ADD JUMPDEST PUSH1 0x40 MLOAD DUP1 SWAP2 SUB SWAP1 REVERT JUMPDEST PUSH2 0x1388 DUP2 GT ISZERO PUSH2 0x7EB JUMPI PUSH1 0x40 MLOAD PUSH3 0x461BCD PUSH1 0xE5 SHL DUP2 MSTORE PUSH1 0x20 PUSH1 0x4 DUP3 ADD MSTORE PUSH1 0x16 PUSH1 0x24 DUP3 ADD MSTORE PUSH22 0x526174652063616E6E6F742065786365656420353025 PUSH1 0x50 SHL PUSH1 0x44 DUP3 ADD MSTORE PUSH1 0x64 ADD PUSH2 0x797 JUMP JUMPDEST CALLER PUSH0 SWAP1 DUP2 MSTORE PUSH1 0x6D PUSH1 0x20 MSTORE PUSH1 0x40 DUP2 KECCAK256 SLOAD PUSH1 0xFF AND DUP1 ISZERO DUP1 ISZERO PUSH2 0x82E JUMPI POP CALLER PUSH1 0x9 PUSH1 0xFF DUP4 AND PUSH1 0x32 DUP2 LT PUSH2 0x81D JUMPI PUSH2 0x81D PUSH2 0x104E JUMP JUMPDEST PUSH1 0x2 MUL ADD SLOAD PUSH1 0x1 PUSH1 0x1 PUSH1 0xA0 SHL SUB AND EQ ISZERO JUMPDEST ISZERO PUSH2 0x866 JUMPI PUSH1 0x6E DUP1 SLOAD PUSH1 0xFF AND SWAP1 PUSH0 PUSH2 0x845 DUP4 PUSH2 0x110C JUMP JUMPDEST SWAP2 SWAP1 PUSH2 0x100 EXP DUP2 SLOAD DUP2 PUSH1 0xFF MUL NOT AND SWAP1 DUP4 PUSH1 0xFF AND MUL OR SWAP1 SSTORE POP POP PUSH0 SWAP2 POP PUSH2 0x887 JUMP JUMPDEST PUSH1 0x9 DUP2 PUSH1 0xFF AND PUSH1 0x32 DUP2 LT PUSH2 0x87C JUMPI PUSH2 0x87C PUSH2 0x104E JUMP JUMPDEST PUSH1 0x2 MUL ADD PUSH1 0x1 ADD SLOAD SWAP2 POP JUMPDEST DUP1 DUP3 DUP5 SUB PUSH2 0x895 JUMPI POP POP POP POP JUMP JUMPDEST DUP3 DUP5 GT ISZERO PUSH2 0x9B5 JUMPI JUMPDEST PUSH2 0x8AA PUSH1 0x1 PUSH1 0x32 PUSH2 0x1121 JUMP JUMPDEST PUSH1 0xFF AND DUP2 PUSH1 0xFF AND LT DUP1 ISZERO PUSH2 0x8E4 JUMPI POP PUSH1 0x9 PUSH2 0x8C6 DUP3 PUSH1 0x1 PUSH2 0x113A JUMP JUMPDEST PUSH1 0xFF AND PUSH1 0x32 DUP2 LT PUSH2 0x8D9 JUMPI PUSH2 0x8D9 PUSH2 0x104E JUMP JUMPDEST PUSH1 0x2 MUL ADD PUSH1 0x1 ADD SLOAD DUP5 GT JUMPDEST ISZERO PUSH2 0x9B0 JUMPI PUSH1 0x9 PUSH2 0x8F6 DUP3 PUSH1 0x1 PUSH2 0x113A JUMP JUMPDEST PUSH1 0xFF AND PUSH1 0x32 DUP2 LT PUSH2 0x909 JUMPI PUSH2 0x909 PUSH2 0x104E JUMP JUMPDEST PUSH1 0x2 MUL ADD PUSH1 0x9 DUP3 PUSH1 0xFF AND PUSH1 0x32 DUP2 LT PUSH2 0x923 JUMPI PUSH2 0x923 PUSH2 0x104E JUMP JUMPDEST DUP3 SLOAD PUSH1 0x2 SWAP2 SWAP1 SWAP2 MUL SWAP2 SWAP1 SWAP2 ADD DUP1 SLOAD PUSH1 0x1 PUSH1 0x1 PUSH1 0xA0 SHL SUB NOT AND PUSH1 0x1 PUSH1 0x1 PUSH1 0xA0 SHL SUB SWAP1 SWAP3 AND SWAP2 SWAP1 SWAP2 OR DUP2 SSTORE PUSH1 0x1 SWAP2 DUP3 ADD SLOAD SWAP2 ADD SSTORE DUP1 PUSH1 0x6D PUSH0 PUSH1 0x9 PUSH1 0xFF DUP5 AND PUSH1 0x32 DUP2 LT PUSH2 0x96F JUMPI PUSH2 0x96F PUSH2 0x104E JUMP JUMPDEST PUSH1 0x2 MUL ADD SLOAD PUSH1 0x1 PUSH1 0x1 PUSH1 0xA0 SHL SUB AND DUP2 MSTORE PUSH1 0x20 DUP2 ADD SWAP2 SWAP1 SWAP2 MSTORE PUSH1 0x40 ADD PUSH0 KECCAK256 DUP1 SLOAD PUSH1 0xFF NOT AND PUSH1 0xFF SWAP3 SWAP1 SWAP3 AND SWAP2 SWAP1 SWAP2 OR SWAP1 SSTORE DUP1 PUSH2 0x9A8 DUP2 PUSH2 0x110C JUMP JUMPDEST SWAP2 POP POP PUSH2 0x89E JUMP JUMPDEST PUSH2 0xAB9 JUMP JUMPDEST PUSH0 DUP2 PUSH1 0xFF AND GT DUP1 ISZERO PUSH2 0x9ED JUMPI POP PUSH1 0x9 PUSH2 0x9CF PUSH1 0x1 DUP4 PUSH2 0x1121 JUMP JUMPDEST PUSH1 0xFF AND PUSH1 0x32 DUP2 LT PUSH2 0x9E2 JUMPI PUSH2 0x9E2 PUSH2 0x104E JUMP JUMPDEST PUSH1 0x2 MUL ADD PUSH1 0x1 ADD SLOAD DUP5 LT JUMPDEST ISZERO PUSH2 0xAB9 JUMPI PUSH1 0x9 PUSH2 0x9FF PUSH1 0x1 DUP4 PUSH2 0x1121 JUMP JUMPDEST PUSH1 0xFF AND PUSH1 0x32 DUP2 LT PUSH2 0xA12 JUMPI PUSH2 0xA12 PUSH2 0x104E JUMP JUMPDEST PUSH1 0x2 MUL ADD PUSH1 0x9 DUP3 PUSH1 0xFF AND PUSH1 0x32 DUP2 LT PUSH2 0xA2C JUMPI PUSH2 0xA2C PUSH2 0x104E JUMP JUMPDEST DUP3 SLOAD PUSH1 0x2 SWAP2 SWAP1 SWAP2 MUL SWAP2 SWAP1 SWAP2 ADD DUP1 SLOAD PUSH1 0x1 PUSH1 0x1 PUSH1 0xA0 SHL SUB NOT AND PUSH1 0x1 PUSH1 0x1 PUSH1 0xA0 SHL SUB SWAP1 SWAP3 AND SWAP2 SWAP1 SWAP2 OR DUP2 SSTORE PUSH1 0x1 SWAP2 DUP3 ADD SLOAD SWAP2 ADD SSTORE DUP1 PUSH1 0x6D PUSH0 PUSH1 0x9 PUSH1 0xFF DUP5 AND PUSH1 0x32 DUP2 LT PUSH2 0xA78 JUMPI PUSH2 0xA78 PUSH2 0x104E JUMP JUMPDEST PUSH1 0x2 MUL ADD SLOAD PUSH1 0x1 PUSH1 0x1 PUSH1 0xA0 SHL SUB AND DUP2 MSTORE PUSH1 0x20 DUP2 ADD SWAP2 SWAP1 SWAP2 MSTORE PUSH1 0x40 ADD PUSH0 KECCAK256 DUP1 SLOAD PUSH1 0xFF NOT AND PUSH1 0xFF SWAP3 SWAP1 SWAP3 AND SWAP2 SWAP1 SWAP2 OR SWAP1 SSTORE DUP1 PUSH2 0xAB1 DUP2 PUSH2 0x1153 JUMP JUMPDEST SWAP2 POP POP PUSH2 0x9B5 JUMP JUMPDEST PUSH1 0x40 DUP1 MLOAD DUP1 DUP3 ADD SWAP1 SWAP2 MSTORE CALLER DUP2 MSTORE PUSH1 0x20 DUP2 ADD DUP6 SWAP1 MSTORE PUSH1 0x9 PUSH1 0xFF DUP4 AND PUSH1 0x32 DUP2 LT PUSH2 0xAE3 JUMPI PUSH2 0xAE3 PUSH2 0x104E JUMP JUMPDEST DUP3 MLOAD PUSH1 0x2 SWAP2 SWAP1 SWAP2 MUL SWAP2 SWAP1 SWAP2 ADD DUP1 SLOAD PUSH1 0x1 PUSH1 0x1 PUSH1 0xA0 SHL SUB NOT AND PUSH1 0x1 PUSH1 0x1 PUSH1 0xA0 SHL SUB SWAP1 SWAP3 AND SWAP2 SWAP1 SWAP2 OR DUP2 SSTORE PUSH1 0x20 SWAP2 DUP3 ADD MLOAD PUSH1 0x1 SWAP1 SWAP2 ADD SSTORE CALLER PUSH0 DUP2 DUP2 MSTORE PUSH1 0x6D DUP4 MSTORE PUSH1 0x40 SWAP1 DUP2 SWAP1 KECCAK256 DUP1 SLOAD PUSH1 0xFF NOT AND PUSH1 0xFF DUP7 DUP2 AND SWAP2 DUP3 OR SWAP1 SWAP3 SSTORE DUP3 MLOAD DUP9 DUP2 MSTORE SWAP2 DUP8 AND SWAP5 DUP3 ADD SWAP5 SWAP1 SWAP5 MSTORE SWAP1 DUP2 ADD DUP8 SWAP1 MSTORE PUSH1 0x60 DUP2 ADD SWAP3 SWAP1 SWAP3 MSTORE SWAP1 PUSH32 0x1CE0BEAEC98D7537137A85C2D351C6C99900830D30FE8A7C353FA27225807E72 SWAP1 PUSH1 0x80 ADD PUSH1 0x40 MLOAD DUP1 SWAP2 SUB SWAP1 LOG2 PUSH1 0x9 PUSH2 0xB91 PUSH1 0x2 PUSH1 0x32 PUSH2 0x116E JUMP JUMPDEST PUSH1 0xFF AND PUSH1 0x32 DUP2 LT PUSH2 0xBA4 JUMPI PUSH2 0xBA4 PUSH2 0x104E JUMP JUMPDEST PUSH1 0x2 MUL ADD PUSH1 0x1 ADD SLOAD PUSH1 0x6 SLOAD EQ PUSH2 0xC9A JUMPI PUSH1 0x9 PUSH2 0xBC2 PUSH1 0x2 PUSH1 0x32 PUSH2 0x116E JUMP JUMPDEST PUSH1 0xFF AND PUSH1 0x32 DUP2 LT PUSH2 0xBD5 JUMPI PUSH2 0xBD5 PUSH2 0x104E JUMP JUMPDEST PUSH1 0x1 PUSH1 0x2 SWAP2 DUP3 MUL SWAP3 SWAP1 SWAP3 ADD DUP3 ADD SLOAD PUSH1 0x6 DUP2 DUP2 SSTORE PUSH1 0x40 DUP1 MLOAD DUP1 DUP3 ADD DUP3 MSTORE SWAP3 DUP4 MSTORE TIMESTAMP PUSH1 0x20 DUP5 ADD SWAP1 DUP2 MSTORE PUSH1 0x7 DUP1 SLOAD SWAP7 DUP8 ADD DUP2 SSTORE PUSH0 MSTORE SWAP3 MLOAD SWAP5 SWAP1 SWAP4 MUL PUSH32 0xA66CC928B5EDB82AF9BD49922954155AB7B0942694BEA4CE44661D9A8736C688 DUP2 ADD SWAP5 SWAP1 SWAP5 SSTORE SWAP1 MLOAD PUSH32 0xA66CC928B5EDB82AF9BD49922954155AB7B0942694BEA4CE44661D9A8736C689 SWAP1 SWAP4 ADD SWAP3 SWAP1 SWAP3 SSTORE SWAP1 SLOAD SWAP1 MLOAD PUSH32 0xA90E14BE5AA57B910AA6DC16C31FF1B5CDA380AE25A793B0D3F74DF6131A7D74 SWAP2 PUSH2 0xC91 SWAP2 SWAP1 DUP2 MSTORE PUSH1 0x20 ADD SWAP1 JUMP JUMPDEST PUSH1 0x40 MLOAD DUP1 SWAP2 SUB SWAP1 LOG1 JUMPDEST POP POP POP POP JUMP JUMPDEST PUSH1 0x3 PUSH1 0x20 MSTORE PUSH0 SWAP1 DUP2 MSTORE PUSH1 0x40 SWAP1 KECCAK256 DUP1 SLOAD DUP2 SWAP1 PUSH2 0xCBA SWAP1 PUSH2 0x1016 JUMP JUMPDEST DUP1 PUSH1 0x1F ADD PUSH1 0x20 DUP1 SWAP2 DIV MUL PUSH1 0x20 ADD PUSH1 0x40 MLOAD SWAP1 DUP2 ADD PUSH1 0x40 MSTORE DUP1 SWAP3 SWAP2 SWAP1 DUP2 DUP2 MSTORE PUSH1 0x20 ADD DUP3 DUP1 SLOAD PUSH2 0xCE6 SWAP1 PUSH2 0x1016 JUMP JUMPDEST DUP1 ISZERO PUSH2 0xD31 JUMPI DUP1 PUSH1 0x1F LT PUSH2 0xD08 JUMPI PUSH2 0x100 DUP1 DUP4 SLOAD DIV MUL DUP4 MSTORE SWAP2 PUSH1 0x20 ADD SWAP2 PUSH2 0xD31 JUMP JUMPDEST DUP3 ADD SWAP2 SWAP1 PUSH0 MSTORE PUSH1 0x20 PUSH0 KECCAK256 SWAP1 JUMPDEST DUP2 SLOAD DUP2 MSTORE SWAP1 PUSH1 0x1 ADD SWAP1 PUSH1 0x20 ADD DUP1 DUP4 GT PUSH2 0xD14 JUMPI DUP3 SWAP1 SUB PUSH1 0x1F AND DUP3 ADD SWAP2 JUMPDEST POP POP POP POP POP SWAP1 DUP1 PUSH1 0x1 ADD DUP1 SLOAD PUSH2 0xD46 SWAP1 PUSH2 0x1016 JUMP JUMPDEST DUP1 PUSH1 0x1F ADD PUSH1 0x20 DUP1 SWAP2 DIV MUL PUSH1 0x20 ADD PUSH1 0x40 MLOAD SWAP1 DUP2 ADD PUSH1 0x40 MSTORE DUP1 SWAP3 SWAP2 SWAP1 DUP2 DUP2 MSTORE PUSH1 0x20 ADD DUP3 DUP1 SLOAD PUSH2 0xD72 SWAP1 PUSH2 0x1016 JUMP JUMPDEST DUP1 ISZERO PUSH2 0xDBD JUMPI DUP1 PUSH1 0x1F LT PUSH2 0xD94 JUMPI PUSH2 0x100 DUP1 DUP4 SLOAD DIV MUL DUP4 MSTORE SWAP2 PUSH1 0x20 ADD SWAP2 PUSH2 0xDBD JUMP JUMPDEST DUP3 ADD SWAP2 SWAP1 PUSH0 MSTORE PUSH1 0x20 PUSH0 KECCAK256 SWAP1 JUMPDEST DUP2 SLOAD DUP2 MSTORE SWAP1 PUSH1 0x1 ADD SWAP1 PUSH1 0x20 ADD DUP1 DUP4 GT PUSH2 0xDA0 JUMPI DUP3 SWAP1 SUB PUSH1 0x1F AND DUP3 ADD SWAP2 JUMPDEST POP POP POP POP POP SWAP1 DUP1 PUSH1 0x2 ADD DUP1 SLOAD PUSH2 0xDD2 SWAP1 PUSH2 0x1016 JUMP JUMPDEST DUP1 PUSH1 0x1F ADD PUSH1 0x20 DUP1 SWAP2 DIV MUL PUSH1 0x20 ADD PUSH1 0x40 MLOAD SWAP1 DUP2 ADD PUSH1 0x40 MSTORE DUP1 SWAP3 SWAP2 SWAP1 DUP2 DUP2 MSTORE PUSH1 0x20 ADD DUP3 DUP1 SLOAD PUSH2 0xDFE SWAP1 PUSH2 0x1016 JUMP JUMPDEST DUP1 ISZERO PUSH2 0xE49 JUMPI DUP1 PUSH1 0x1F LT PUSH2 0xE20 JUMPI PUSH2 0x100 DUP1 DUP4 SLOAD DIV MUL DUP4 MSTORE SWAP2 PUSH1 0x20 ADD SWAP2 PUSH2 0xE49 JUMP JUMPDEST DUP3 ADD SWAP2 SWAP1 PUSH0 MSTORE PUSH1 0x20 PUSH0 KECCAK256 SWAP1 JUMPDEST DUP2 SLOAD DUP2 MSTORE SWAP1 PUSH1 0x1 ADD SWAP1 PUSH1 0x20 ADD DUP1 DUP4 GT PUSH2 0xE2C JUMPI DUP3 SWAP1 SUB PUSH1 0x1F AND DUP3 ADD SWAP2 JUMPDEST POP POP POP PUSH1 0x3 DUP5 ADD SLOAD PUSH1 0x4 DUP6 ADD SLOAD PUSH1 0x5 DUP7 ADD SLOAD PUSH1 0x6 SWAP1 SWAP7 ADD SLOAD SWAP5 SWAP6 SWAP2 SWAP5 SWAP1 SWAP4 POP PUSH1 0xFF SWAP1 SWAP2 AND SWAP2 POP DUP8 JUMP JUMPDEST PUSH1 0x7 DUP2 DUP2 SLOAD DUP2 LT PUSH2 0xE81 JUMPI PUSH0 DUP1 REVERT JUMPDEST PUSH0 SWAP2 DUP3 MSTORE PUSH1 0x20 SWAP1 SWAP2 KECCAK256 PUSH1 0x2 SWAP1 SWAP2 MUL ADD DUP1 SLOAD PUSH1 0x1 SWAP1 SWAP2 ADD SLOAD SWAP1 SWAP2 POP DUP3 JUMP JUMPDEST PUSH0 PUSH1 0x20 DUP3 DUP5 SUB SLT ISZERO PUSH2 0xEAE JUMPI PUSH0 PUSH0 REVERT JUMPDEST POP CALLDATALOAD SWAP2 SWAP1 POP JUMP JUMPDEST PUSH0 DUP2 MLOAD DUP1 DUP5 MSTORE DUP1 PUSH1 0x20 DUP5 ADD PUSH1 0x20 DUP7 ADD MCOPY PUSH0 PUSH1 0x20 DUP3 DUP7 ADD ADD MSTORE PUSH1 0x20 PUSH1 0x1F NOT PUSH1 0x1F DUP4 ADD AND DUP6 ADD ADD SWAP2 POP POP SWAP3 SWAP2 POP POP JUMP JUMPDEST PUSH1 0x1 PUSH1 0x1 PUSH1 0xA0 SHL SUB DUP8 AND DUP2 MSTORE PUSH1 0xC0 PUSH1 0x20 DUP3 ADD DUP2 SWAP1 MSTORE PUSH0 SWAP1 PUSH2 0xF06 SWAP1 DUP4 ADD DUP9 PUSH2 0xEB5 JUMP JUMPDEST SWAP1 POP DUP6 PUSH1 0x40 DUP4 ADD MSTORE DUP5 PUSH1 0x60 DUP4 ADD MSTORE DUP4 PUSH1 0x80 DUP4 ADD MSTORE PUSH1 0xFF DUP4 AND PUSH1 0xA0 DUP4 ADD MSTORE SWAP8 SWAP7 POP POP POP POP POP POP POP JUMP JUMPDEST DUP1 CALLDATALOAD PUSH1 0x1 PUSH1 0x1 PUSH1 0xA0 SHL SUB DUP2 AND DUP2 EQ PUSH2 0xF44 JUMPI PUSH0 PUSH0 REVERT JUMPDEST SWAP2 SWAP1 POP JUMP JUMPDEST PUSH0 PUSH0 PUSH1 0x40 DUP4 DUP6 SUB SLT ISZERO PUSH2 0xF5A JUMPI PUSH0 PUSH0 REVERT JUMPDEST PUSH2 0xF63 DUP4 PUSH2 0xF2E JUMP JUMPDEST SWAP5 PUSH1 0x20 SWAP4 SWAP1 SWAP4 ADD CALLDATALOAD SWAP4 POP POP POP JUMP JUMPDEST PUSH1 0x20 DUP2 ADD PUSH1 0x5 DUP4 LT PUSH2 0xF91 JUMPI PUSH4 0x4E487B71 PUSH1 0xE0 SHL PUSH0 MSTORE PUSH1 0x21 PUSH1 0x4 MSTORE PUSH1 0x24 PUSH0 REVERT JUMPDEST SWAP2 SWAP1 MSTORE SWAP1 JUMP JUMPDEST PUSH0 PUSH1 0x20 DUP3 DUP5 SUB SLT ISZERO PUSH2 0xFA7 JUMPI PUSH0 PUSH0 REVERT JUMPDEST PUSH2 0xFB0 DUP3 PUSH2 0xF2E JUMP JUMPDEST SWAP4 SWAP3 POP POP POP JUMP JUMPDEST PUSH1 0xE0 DUP2 MSTORE PUSH0 PUSH2 0xFC9 PUSH1 0xE0 DUP4 ADD DUP11 PUSH2 0xEB5 JUMP JUMPDEST DUP3 DUP2 SUB PUSH1 0x20 DUP5 ADD MSTORE PUSH2 0xFDB DUP2 DUP11 PUSH2 0xEB5 JUMP JUMPDEST SWAP1 POP DUP3 DUP2 SUB PUSH1 0x40 DUP5 ADD MSTORE PUSH2 0xFEF DUP2 DUP10 PUSH2 0xEB5 JUMP JUMPDEST PUSH1 0x60 DUP5 ADD SWAP8 SWAP1 SWAP8 MSTORE POP POP PUSH1 0x80 DUP2 ADD SWAP4 SWAP1 SWAP4 MSTORE SWAP1 ISZERO ISZERO PUSH1 0xA0 DUP4 ADD MSTORE PUSH1 0xC0 SWAP1 SWAP2 ADD MSTORE SWAP4 SWAP3 POP POP POP JUMP JUMPDEST PUSH1 0x1 DUP2 DUP2 SHR SWAP1 DUP3 AND DUP1 PUSH2 0x102A JUMPI PUSH1 0x7F DUP3 AND SWAP2 POP JUMPDEST PUSH1 0x20 DUP3 LT DUP2 SUB PUSH2 0x1048 JUMPI PUSH4 0x4E487B71 PUSH1 0xE0 SHL PUSH0 MSTORE PUSH1 0x22 PUSH1 0x4 MSTORE PUSH1 0x24 PUSH0 REVERT JUMPDEST POP SWAP2 SWAP1 POP JUMP JUMPDEST PUSH4 0x4E487B71 PUSH1 0xE0 SHL PUSH0 MSTORE PUSH1 0x32 PUSH1 0x4 MSTORE PUSH1 0x24 PUSH0 REVERT JUMPDEST PUSH4 0x4E487B71 PUSH1 0xE0 SHL PUSH0 MSTORE PUSH1 0x11 PUSH1 0x4 MSTORE PUSH1 0x24 PUSH0 REVERT JUMPDEST DUP1 DUP3 ADD DUP3 DUP2 SLT PUSH0 DUP4 SLT DUP1 ISZERO DUP3 AND DUP3 ISZERO DUP3 AND OR ISZERO PUSH2 0x1095 JUMPI PUSH2 0x1095 PUSH2 0x1062 JUMP JUMPDEST POP POP SWAP3 SWAP2 POP POP JUMP JUMPDEST PUSH0 PUSH2 0xFFFF DUP3 AND PUSH2 0xFFFF DUP2 SUB PUSH2 0x10B4 JUMPI PUSH2 0x10B4 PUSH2 0x1062 JUMP JUMPDEST PUSH1 0x1 ADD SWAP3 SWAP2 POP POP JUMP JUMPDEST DUP2 DUP2 SUB DUP2 DUP2 GT ISZERO PUSH2 0x10D0 JUMPI PUSH2 0x10D0 PUSH2 0x1062 JUMP JUMPDEST SWAP3 SWAP2 POP POP JUMP JUMPDEST PUSH1 0xFF DUP2 DUP2 AND DUP4 DUP3 AND MUL SWAP1 DUP2 AND SWAP1 DUP2 DUP2 EQ PUSH2 0x10F2 JUMPI PUSH2 0x10F2 PUSH2 0x1062 JUMP JUMPDEST POP SWAP3 SWAP2 POP POP JUMP JUMPDEST DUP1 DUP3 ADD DUP1 DUP3 GT ISZERO PUSH2 0x10D0 JUMPI PUSH2 0x10D0 PUSH2 0x1062 JUMP JUMPDEST PUSH0 PUSH1 0xFF DUP3 AND PUSH1 0xFF DUP2 SUB PUSH2 0x10B4 JUMPI PUSH2 0x10B4 PUSH2 0x1062 JUMP JUMPDEST PUSH1 0xFF DUP3 DUP2 AND DUP3 DUP3 AND SUB SWAP1 DUP2 GT ISZERO PUSH2 0x10D0 JUMPI PUSH2 0x10D0 PUSH2 0x1062 JUMP JUMPDEST PUSH1 0xFF DUP2 DUP2 AND DUP4 DUP3 AND ADD SWAP1 DUP2 GT ISZERO PUSH2 0x10D0 JUMPI PUSH2 0x10D0 PUSH2 0x1062 JUMP JUMPDEST PUSH0 PUSH1 0xFF DUP3 AND DUP1 PUSH2 0x1165 JUMPI PUSH2 0x1165 PUSH2 0x1062 JUMP JUMPDEST PUSH0 NOT ADD SWAP3 SWAP2 POP POP JUMP JUMPDEST PUSH0 PUSH1 0xFF DUP4 AND DUP1 PUSH2 0x118C JUMPI PUSH4 0x4E487B71 PUSH1 0xE0 SHL PUSH0 MSTORE PUSH1 0x12 PUSH1 0x4 MSTORE PUSH1 0x24 PUSH0 REVERT JUMPDEST DUP1 PUSH1 0xFF DUP5 AND DIV SWAP2 POP POP SWAP3 SWAP2 POP POP JUMP INVALID LOG2 PUSH5 0x6970667358 0x22 SLT KECCAK256 0xC6 0xAC DUP16 0xB3 SWAP4 NOT 0x29 SWAP8 0xDE RETURN 0x2F SWAP7 0xCD 0xC1 0xB3 LOG0 PUSH12 0xE4FFE7B4E5529EDF6744E1DA DUP1 SLT 0xD4 PUSH5 0x736F6C6343 STOP ADDMOD SHR STOP CALLER "
		},
		"gasEstimates": {
			"creation": {
				"codeDepositCost": "912200",
				"executionCost": "infinite",
				"totalCost": "infinite"
			},
			"external": {
				"LenderTxns(address,uint256)": "6940",
				"N_MEMBERS()": "247",
				"RANDOM_VOTERS()": "293",
				"REG_TIME()": "306",
				"addedVoterCount()": "2397",
				"candidateInfo(address)": "infinite",
				"candidateList(uint256)": "4700",
				"currentRate()": "2426",
				"electionEnd()": "2315",
				"getBalance()": "infinite",
				"getCurrentPhase()": "infinite",
				"interestPeriods(uint256)": "6838",
				"lend()": "70345",
				"memberRank(address)": "2619",
				"neutral()": "2359",
				"numberOfRates()": "2423",
				"proposals(uint256)": "infinite",
				"proposeRate(uint256)": "infinite",
				"referendumEndTime()": "2361",
				"sortedRates(uint256)": "4631",
				"startTime()": "infinite",
				"treasuryReserve()": "260"
			}
		},
		"methodIdentifiers": {
			"LenderTxns(address,uint256)": "53fdc838",
			"N_MEMBERS()": "e292bf16",
			"RANDOM_VOTERS()": "3def77b7",
			"REG_TIME()": "47f7b722",
			"addedVoterCount()": "1b408934",
			"candidateInfo(address)": "e965b7c9",
			"candidateList(uint256)": "b13c744b",
			"currentRate()": "f9f8bdb7",
			"electionEnd()": "ce7ea161",
			"getBalance()": "12065fe0",
			"getCurrentPhase()": "a3a40ea5",
			"interestPeriods(uint256)": "f33e9573",
			"lend()": "97dffc61",
			"memberRank(address)": "eab536fc",
			"neutral()": "4d0c8726",
			"numberOfRates()": "8f3218df",
			"proposals(uint256)": "013cf08b",
			"proposeRate(uint256)": "bdc8e7b3",
			"referendumEndTime()": "b0feb260",
			"sortedRates(uint256)": "9dc99455",
			"startTime()": "78e97925",
			"treasuryReserve()": "59297dbf"
		}
	},
	"abi": [
		{
			"anonymous": false,
			"inputs": [
				{
					"indexed": false,
					"internalType": "uint256",
					"name": "newMedianRate",
					"type": "uint256"
				}
			],
			"name": "InterestRateUpdated",
			"type": "event"
		},
		{
			"anonymous": false,
			"inputs": [
				{
					"indexed": true,
					"internalType": "address",
					"name": "lender",
					"type": "address"
				},
				{
					"indexed": false,
					"internalType": "int256",
					"name": "amount",
					"type": "int256"
				}
			],
			"name": "LoanReceived",
			"type": "event"
		},
		{
			"anonymous": false,
			"inputs": [
				{
					"indexed": true,
					"internalType": "address",
					"name": "member",
					"type": "address"
				},
				{
					"indexed": false,
					"internalType": "uint256",
					"name": "oldRate",
					"type": "uint256"
				},
				{
					"indexed": false,
					"internalType": "uint8",
					"name": "oldRank",
					"type": "uint8"
				},
				{
					"indexed": false,
					"internalType": "uint256",
					"name": "newRate",
					"type": "uint256"
				},
				{
					"indexed": false,
					"internalType": "uint8",
					"name": "newRank",
					"type": "uint8"
				}
			],
			"name": "MemberRateChanged",
			"type": "event"
		},
		{
			"inputs": [
				{
					"internalType": "address",
					"name": "",
					"type": "address"
				},
				{
					"internalType": "uint256",
					"name": "",
					"type": "uint256"
				}
			],
			"name": "LenderTxns",
			"outputs": [
				{
					"internalType": "int256",
					"name": "amount",
					"type": "int256"
				},
				{
					"internalType": "uint256",
					"name": "txnTime",
					"type": "uint256"
				}
			],
			"stateMutability": "view",
			"type": "function"
		},
		{
			"inputs": [],
			"name": "N_MEMBERS",
			"outputs": [
				{
					"internalType": "uint8",
					"name": "",
					"type": "uint8"
				}
			],
			"stateMutability": "view",
			"type": "function"
		},
		{
			"inputs": [],
			"name": "RANDOM_VOTERS",
			"outputs": [
				{
					"internalType": "uint32",
					"name": "",
					"type": "uint32"
				}
			],
			"stateMutability": "view",
			"type": "function"
		},
		{
			"inputs": [],
			"name": "REG_TIME",
			"outputs": [
				{
					"internalType": "uint256",
					"name": "",
					"type": "uint256"
				}
			],
			"stateMutability": "view",
			"type": "function"
		},
		{
			"inputs": [],
			"name": "addedVoterCount",
			"outputs": [
				{
					"internalType": "uint32",
					"name": "",
					"type": "uint32"
				}
			],
			"stateMutability": "view",
			"type": "function"
		},
		{
			"inputs": [
				{
					"internalType": "address",
					"name": "",
					"type": "address"
				}
			],
			"name": "candidateInfo",
			"outputs": [
				{
					"internalType": "string",
					"name": "fullName",
					"type": "string"
				},
				{
					"internalType": "string",
					"name": "bio",
					"type": "string"
				},
				{
					"internalType": "string",
					"name": "website",
					"type": "string"
				},
				{
					"internalType": "uint256",
					"name": "registeredAt",
					"type": "uint256"
				},
				{
					"internalType": "uint256",
					"name": "voteCount",
					"type": "uint256"
				},
				{
					"internalType": "bool",
					"name": "electedMember",
					"type": "bool"
				},
				{
					"internalType": "uint256",
					"name": "leaderAt",
					"type": "uint256"
				}
			],
			"stateMutability": "view",
			"type": "function"
		},
		{
			"inputs": [
				{
					"internalType": "uint256",
					"name": "",
					"type": "uint256"
				}
			],
			"name": "candidateList",
			"outputs": [
				{
					"internalType": "address",
					"name": "",
					"type": "address"
				}
			],
			"stateMutability": "view",
			"type": "function"
		},
		{
			"inputs": [],
			"name": "currentRate",
			"outputs": [
				{
					"internalType": "uint256",
					"name": "",
					"type": "uint256"
				}
			],
			"stateMutability": "view",
			"type": "function"
		},
		{
			"inputs": [],
			"name": "electionEnd",
			"outputs": [
				{
					"internalType": "uint256",
					"name": "",
					"type": "uint256"
				}
			],
			"stateMutability": "view",
			"type": "function"
		},
		{
			"inputs": [],
			"name": "getBalance",
			"outputs": [
				{
					"internalType": "int256",
					"name": "_sum",
					"type": "int256"
				}
			],
			"stateMutability": "view",
			"type": "function"
		},
		{
			"inputs": [],
			"name": "getCurrentPhase",
			"outputs": [
				{
					"internalType": "enum Phase",
					"name": "",
					"type": "uint8"
				}
			],
			"stateMutability": "nonpayable",
			"type": "function"
		},
		{
			"inputs": [
				{
					"internalType": "uint256",
					"name": "",
					"type": "uint256"
				}
			],
			"name": "interestPeriods",
			"outputs": [
				{
					"internalType": "uint256",
					"name": "rate",
					"type": "uint256"
				},
				{
					"internalType": "uint256",
					"name": "startedAt",
					"type": "uint256"
				}
			],
			"stateMutability": "view",
			"type": "function"
		},
		{
			"inputs": [],
			"name": "lend",
			"outputs": [],
			"stateMutability": "payable",
			"type": "function"
		},
		{
			"inputs": [
				{
					"internalType": "address",
					"name": "",
					"type": "address"
				}
			],
			"name": "memberRank",
			"outputs": [
				{
					"internalType": "uint8",
					"name": "",
					"type": "uint8"
				}
			],
			"stateMutability": "view",
			"type": "function"
		},
		{
			"inputs": [],
			"name": "neutral",
			"outputs": [
				{
					"internalType": "address",
					"name": "",
					"type": "address"
				}
			],
			"stateMutability": "view",
			"type": "function"
		},
		{
			"inputs": [],
			"name": "numberOfRates",
			"outputs": [
				{
					"internalType": "uint8",
					"name": "",
					"type": "uint8"
				}
			],
			"stateMutability": "view",
			"type": "function"
		},
		{
			"inputs": [
				{
					"internalType": "uint256",
					"name": "",
					"type": "uint256"
				}
			],
			"name": "proposals",
			"outputs": [
				{
					"internalType": "address",
					"name": "proposer",
					"type": "address"
				},
				{
					"internalType": "string",
					"name": "provisions",
					"type": "string"
				},
				{
					"internalType": "uint256",
					"name": "proposedAt",
					"type": "uint256"
				},
				{
					"internalType": "uint256",
					"name": "executedAt",
					"type": "uint256"
				},
				{
					"internalType": "uint256",
					"name": "withdrawnAt",
					"type": "uint256"
				},
				{
					"internalType": "uint8",
					"name": "yesVotes",
					"type": "uint8"
				}
			],
			"stateMutability": "view",
			"type": "function"
		},
		{
			"inputs": [
				{
					"internalType": "uint256",
					"name": "newRate",
					"type": "uint256"
				}
			],
			"name": "proposeRate",
			"outputs": [],
			"stateMutability": "nonpayable",
			"type": "function"
		},
		{
			"inputs": [],
			"name": "referendumEndTime",
			"outputs": [
				{
					"internalType": "uint256",
					"name": "",
					"type": "uint256"
				}
			],
			"stateMutability": "view",
			"type": "function"
		},
		{
			"inputs": [
				{
					"internalType": "uint256",
					"name": "",
					"type": "uint256"
				}
			],
			"name": "sortedRates",
			"outputs": [
				{
					"internalType": "address",
					"name": "member",
					"type": "address"
				},
				{
					"internalType": "uint256",
					"name": "rate",
					"type": "uint256"
				}
			],
			"stateMutability": "view",
			"type": "function"
		},
		{
			"inputs": [],
			"name": "startTime",
			"outputs": [
				{
					"internalType": "uint256",
					"name": "",
					"type": "uint256"
				}
			],
			"stateMutability": "view",
			"type": "function"
		},
		{
			"inputs": [],
			"name": "treasuryReserve",
			"outputs": [
				{
					"internalType": "uint256",
					"name": "",
					"type": "uint256"
				}
			],
			"stateMutability": "view",
			"type": "function"
		}
	]
}