{
	"data": {
		"bytecode": {
			"linkReferences": {},
			"object": "60a0604052606f805460ff19166032179055348015601b575f80fd5b506080516112836100345f395f61028001526112835ff3fe608060405260043610610131575f3560e01c8063b13c744b116100a8578063ce7ea1611161006d578063ce7ea1611461039d578063e292bf16146103b2578063e965b7c9146103c6578063eab536fc146103fa578063f33e957314610428578063f9f8bdb714610447575f80fd5b8063b13c744b1461030b578063bab752e51461032a578063bdc8e7b31461033f578063be07f0f814610370578063c8d7b9f114610384575f80fd5b80634d0c8726116100f95780634d0c87261461020457806353fdc8381461023b57806378e979251461026f57806397dffc61146102a25780639dc99455146102ac578063a3a40ea5146102ea575f80fd5b8063013cf08b1461013557806308fd4cfa1461016e57806312065fe0146101925780631b408934146101a65780633def77b7146101da575b5f80fd5b348015610140575f80fd5b5061015461014f366004610f3d565b61045c565b604051610165959493929190610f82565b60405180910390f35b348015610179575f80fd5b506101846212750081565b604051908152602001610165565b34801561019d575f80fd5b50610184610533565b3480156101b1575f80fd5b506002546101c790600160a01b900461ffff1681565b60405161ffff9091168152602001610165565b3480156101e5575f80fd5b506101ef6104b081565b60405163ffffffff9091168152602001610165565b34801561020f575f80fd5b50600254610223906001600160a01b031681565b6040516001600160a01b039091168152602001610165565b348015610246575f80fd5b5061025a610255366004610fe0565b6105a6565b60408051928352602083019190915201610165565b34801561027a575f80fd5b506101847f000000000000000000000000000000000000000000000000000000000000000081565b6102aa6105de565b005b3480156102b7575f80fd5b506102cb6102c6366004610f3d565b610658565b604080516001600160a01b039093168352602083019190915201610165565b3480156102f5575f80fd5b506102fe610683565b6040516101659190611008565b348015610316575f80fd5b50610223610325366004610f3d565b610751565b348015610335575f80fd5b5061018460065481565b34801561034a575f80fd5b5061035e610359366004610f3d565b610779565b60405160ff9091168152602001610165565b34801561037b575f80fd5b506101845f5481565b34801561038f575f80fd5b50606f5461035e9060ff1681565b3480156103a8575f80fd5b5061018460015481565b3480156103bd575f80fd5b5061035e603281565b3480156103d1575f80fd5b506103e56103e036600461102e565b610d2d565b6040516101659998979695949392919061104e565b348015610405575f80fd5b5061035e61041436600461102e565b606e6020525f908152604090205460ff1681565b348015610433575f80fd5b5061025a610442366004610f3d565b610f11565b348015610452575f80fd5b5061018460075481565b6005818154811061046b575f80fd5b5f918252602090912060059091020180546001820180546001600160a01b03909216935090610499906110c8565b80601f01602080910402602001604051908101604052809291908181526020018280546104c5906110c8565b80156105105780601f106104e757610100808354040283529160200191610510565b820191905f5260205f20905b8154815290600101906020018083116104f357829003601f168201915b50505050600283015460039093015491929160ff80821692506101009091041685565b5f805b335f9081526009602052604090205461ffff821610156105a257335f908152600960205260409020805461ffff831690811061057457610574611100565b905f5260205f2090600202015f01548261058e9190611128565b91508061059a8161114f565b915050610536565b5090565b6009602052815f5260405f2081815481106105bf575f80fd5b5f91825260209091206002909102018054600190910154909250905082565b60408051808201825234808252426020808401918252335f818152600983528681208054600180820183559183529184902087516002909302019182559351930192909255935191825291927f976be468429698a1b0ae0c20a0329bdb6e24722a3f834a2c54b84d63c1722f32910160405180910390a250565b600a8160328110610667575f80fd5b6002020180546001909101546001600160a01b03909116915082565b5f805442101561069257505f90565b61069e6032600261116f565b60ff1660038054905010806106c257506002546104b0600160a01b90910461ffff16105b156106cf57505f80805590565b5f545f0361070157425f8190556106ea906212750090611192565b6106f79062015180611192565b6001908155919050565b6001805461070f91906111ab565b42101561071c5750600190565b60015442101561072c5750600290565b6006545f0361073b5750600390565b60065442101561074b5750600490565b50600590565b60038181548110610760575f80fd5b5f918252602090912001546001600160a01b0316905081565b335f9081526004602081905260408220015462010000900460ff166107e55760405162461bcd60e51b815260206004820152601860248201527f4f6e6c79206d656d626572732063616e2070726f706f7365000000000000000060448201526064015b60405180910390fd5b6113888211156108245760405162461bcd60e51b815260206004820152600a60248201526952617465203e2035302560b01b60448201526064016107dc565b335f908152606e602052604081205460ff1681811580156108495750606f5460ff1615155b1561088a57606f805460ff16905f610860836111be565b82546101009290920a60ff818102199093169183160217909155606f545f95501691506108ae9050565b600a8260ff16603281106108a0576108a0611100565b600202016001015492508190505b82850361092057845f036109185733600a8260ff16603281106108d3576108d3611100565b6002020180546001600160a01b0319166001600160a01b0392909216919091179055335f908152606e60205260409020805460ff191660ff8316179055949350505050565b509392505050565b82851115610a40575b610935600160326111d9565b60ff168160ff1610801561096f5750600a6109518260016111f2565b60ff166032811061096457610964611100565b600202016001015485115b15610a3b57600a6109818260016111f2565b60ff166032811061099457610994611100565b60020201600a8260ff16603281106109ae576109ae611100565b82546002919091029190910180546001600160a01b0319166001600160a01b0390921691909117815560019182015491015580606e5f600a60ff8416603281106109fa576109fa611100565b60020201546001600160a01b0316815260208101919091526040015f20805460ff191660ff9290921691909117905580610a338161120b565b915050610929565b610b44565b5f8160ff16118015610a785750600a610a5a6001836111d9565b60ff1660328110610a6d57610a6d611100565b600202016001015485105b15610b4457600a610a8a6001836111d9565b60ff1660328110610a9d57610a9d611100565b60020201600a8260ff1660328110610ab757610ab7611100565b82546002919091029190910180546001600160a01b0319166001600160a01b0390921691909117815560019182015491015580606e5f600a60ff841660328110610b0357610b03611100565b60020201546001600160a01b0316815260208101919091526040015f20805460ff191660ff9290921691909117905580610b3c816111be565b915050610a40565b6040805180820190915233815260208101869052600a60ff831660328110610b6e57610b6e611100565b82516002919091029190910180546001600160a01b0319166001600160a01b03909216919091178155602091820151600190910155335f818152606e8352604090819020805460ff191660ff8681169182179092558251888152918716948201949094529081018890526060810192909252907f1ce0beaec98d7537137a85c2d351c6c99900830d30fe8a7c353fa27225807e729060800160405180910390a2600a610c1c60026032611220565b60ff1660328110610c2f57610c2f611100565b600202016001015460075414610d2557600a610c4d60026032611220565b60ff1660328110610c6057610c60611100565b6001600291820292909201820154600781815560408051808201825292835242602084019081526008805496870181555f529251949093027ff3f7a9fe364faab93b216da50a3214154f22a0a2b415b23a84c8169e8b636ee381019490945590517ff3f7a9fe364faab93b216da50a3214154f22a0a2b415b23a84c8169e8b636ee490930192909255905490517fa90e14be5aa57b910aa6dc16c31ff1b5cda380ae25a793b0d3f74df6131a7d7491610d1c9190815260200190565b60405180910390a15b949350505050565b60046020525f9081526040902080548190610d47906110c8565b80601f0160208091040260200160405190810160405280929190818152602001828054610d73906110c8565b8015610dbe5780601f10610d9557610100808354040283529160200191610dbe565b820191905f5260205f20905b815481529060010190602001808311610da157829003601f168201915b505050505090806001018054610dd3906110c8565b80601f0160208091040260200160405190810160405280929190818152602001828054610dff906110c8565b8015610e4a5780601f10610e2157610100808354040283529160200191610e4a565b820191905f5260205f20905b815481529060010190602001808311610e2d57829003601f168201915b505050505090806002018054610e5f906110c8565b80601f0160208091040260200160405190810160405280929190818152602001828054610e8b906110c8565b8015610ed65780601f10610ead57610100808354040283529160200191610ed6565b820191905f5260205f20905b815481529060010190602001808311610eb957829003601f168201915b505050506003830154600484015460058501546006909501549394919361ffff8083169450620100009283900460ff16939281831692041689565b60088181548110610f20575f80fd5b5f9182526020909120600290910201805460019091015490915082565b5f60208284031215610f4d575f80fd5b5035919050565b5f81518084528060208401602086015e5f602082860101526020601f19601f83011685010191505092915050565b6001600160a01b038616815260a0602082018190525f90610fa590830187610f54565b604083019590955250911515606083015260ff1660809091015292915050565b80356001600160a01b0381168114610fdb575f80fd5b919050565b5f8060408385031215610ff1575f80fd5b610ffa83610fc5565b946020939093013593505050565b602081016006831061102857634e487b7160e01b5f52602160045260245ffd5b91905290565b5f6020828403121561103e575f80fd5b61104782610fc5565b9392505050565b61012081525f61106261012083018c610f54565b8281036020840152611074818c610f54565b90508281036040840152611088818b610f54565b6060840199909952505061ffff958616608082015260ff9490941660a085015260c0840192909252831660e0830152909116610100909101529392505050565b600181811c908216806110dc57607f821691505b6020821081036110fa57634e487b7160e01b5f52602260045260245ffd5b50919050565b634e487b7160e01b5f52603260045260245ffd5b634e487b7160e01b5f52601160045260245ffd5b8082018281125f83128015821682158216171561114757611147611114565b505092915050565b5f61ffff821661ffff810361116657611166611114565b60010192915050565b60ff818116838216029081169081811461118b5761118b611114565b5092915050565b808201808211156111a5576111a5611114565b92915050565b818103818111156111a5576111a5611114565b5f60ff8216806111d0576111d0611114565b5f190192915050565b60ff82811682821603908111156111a5576111a5611114565b60ff81811683821601908111156111a5576111a5611114565b5f60ff821660ff810361116657611166611114565b5f60ff83168061123e57634e487b7160e01b5f52601260045260245ffd5b8060ff8416049150509291505056fea2646970667358221220a1eeaaa788172f485950822c879613f1933e3f14f9b0dbb9666b804494daa3dd64736f6c634300081a0033",
			"opcodes": "PUSH1 0xA0 PUSH1 0x40 MSTORE PUSH1 0x6F DUP1 SLOAD PUSH1 0xFF NOT AND PUSH1 0x32 OR SWAP1 SSTORE CALLVALUE DUP1 ISZERO PUSH1 0x1B JUMPI PUSH0 DUP1 REVERT JUMPDEST POP PUSH1 0x80 MLOAD PUSH2 0x1283 PUSH2 0x34 PUSH0 CODECOPY PUSH0 PUSH2 0x280 ADD MSTORE PUSH2 0x1283 PUSH0 RETURN INVALID PUSH1 0x80 PUSH1 0x40 MSTORE PUSH1 0x4 CALLDATASIZE LT PUSH2 0x131 JUMPI PUSH0 CALLDATALOAD PUSH1 0xE0 SHR DUP1 PUSH4 0xB13C744B GT PUSH2 0xA8 JUMPI DUP1 PUSH4 0xCE7EA161 GT PUSH2 0x6D JUMPI DUP1 PUSH4 0xCE7EA161 EQ PUSH2 0x39D JUMPI DUP1 PUSH4 0xE292BF16 EQ PUSH2 0x3B2 JUMPI DUP1 PUSH4 0xE965B7C9 EQ PUSH2 0x3C6 JUMPI DUP1 PUSH4 0xEAB536FC EQ PUSH2 0x3FA JUMPI DUP1 PUSH4 0xF33E9573 EQ PUSH2 0x428 JUMPI DUP1 PUSH4 0xF9F8BDB7 EQ PUSH2 0x447 JUMPI PUSH0 DUP1 REVERT JUMPDEST DUP1 PUSH4 0xB13C744B EQ PUSH2 0x30B JUMPI DUP1 PUSH4 0xBAB752E5 EQ PUSH2 0x32A JUMPI DUP1 PUSH4 0xBDC8E7B3 EQ PUSH2 0x33F JUMPI DUP1 PUSH4 0xBE07F0F8 EQ PUSH2 0x370 JUMPI DUP1 PUSH4 0xC8D7B9F1 EQ PUSH2 0x384 JUMPI PUSH0 DUP1 REVERT JUMPDEST DUP1 PUSH4 0x4D0C8726 GT PUSH2 0xF9 JUMPI DUP1 PUSH4 0x4D0C8726 EQ PUSH2 0x204 JUMPI DUP1 PUSH4 0x53FDC838 EQ PUSH2 0x23B JUMPI DUP1 PUSH4 0x78E97925 EQ PUSH2 0x26F JUMPI DUP1 PUSH4 0x97DFFC61 EQ PUSH2 0x2A2 JUMPI DUP1 PUSH4 0x9DC99455 EQ PUSH2 0x2AC JUMPI DUP1 PUSH4 0xA3A40EA5 EQ PUSH2 0x2EA JUMPI PUSH0 DUP1 REVERT JUMPDEST DUP1 PUSH4 0x13CF08B EQ PUSH2 0x135 JUMPI DUP1 PUSH4 0x8FD4CFA EQ PUSH2 0x16E JUMPI DUP1 PUSH4 0x12065FE0 EQ PUSH2 0x192 JUMPI DUP1 PUSH4 0x1B408934 EQ PUSH2 0x1A6 JUMPI DUP1 PUSH4 0x3DEF77B7 EQ PUSH2 0x1DA JUMPI JUMPDEST PUSH0 DUP1 REVERT JUMPDEST CALLVALUE DUP1 ISZERO PUSH2 0x140 JUMPI PUSH0 DUP1 REVERT JUMPDEST POP PUSH2 0x154 PUSH2 0x14F CALLDATASIZE PUSH1 0x4 PUSH2 0xF3D JUMP JUMPDEST PUSH2 0x45C JUMP JUMPDEST PUSH1 0x40 MLOAD PUSH2 0x165 SWAP6 SWAP5 SWAP4 SWAP3 SWAP2 SWAP1 PUSH2 0xF82 JUMP JUMPDEST PUSH1 0x40 MLOAD DUP1 SWAP2 SUB SWAP1 RETURN JUMPDEST CALLVALUE DUP1 ISZERO PUSH2 0x179 JUMPI PUSH0 DUP1 REVERT JUMPDEST POP PUSH2 0x184 PUSH3 0x127500 DUP2 JUMP JUMPDEST PUSH1 0x40 MLOAD SWAP1 DUP2 MSTORE PUSH1 0x20 ADD PUSH2 0x165 JUMP JUMPDEST CALLVALUE DUP1 ISZERO PUSH2 0x19D JUMPI PUSH0 DUP1 REVERT JUMPDEST POP PUSH2 0x184 PUSH2 0x533 JUMP JUMPDEST CALLVALUE DUP1 ISZERO PUSH2 0x1B1 JUMPI PUSH0 DUP1 REVERT JUMPDEST POP PUSH1 0x2 SLOAD PUSH2 0x1C7 SWAP1 PUSH1 0x1 PUSH1 0xA0 SHL SWAP1 DIV PUSH2 0xFFFF AND DUP2 JUMP JUMPDEST PUSH1 0x40 MLOAD PUSH2 0xFFFF SWAP1 SWAP2 AND DUP2 MSTORE PUSH1 0x20 ADD PUSH2 0x165 JUMP JUMPDEST CALLVALUE DUP1 ISZERO PUSH2 0x1E5 JUMPI PUSH0 DUP1 REVERT JUMPDEST POP PUSH2 0x1EF PUSH2 0x4B0 DUP2 JUMP JUMPDEST PUSH1 0x40 MLOAD PUSH4 0xFFFFFFFF SWAP1 SWAP2 AND DUP2 MSTORE PUSH1 0x20 ADD PUSH2 0x165 JUMP JUMPDEST CALLVALUE DUP1 ISZERO PUSH2 0x20F JUMPI PUSH0 DUP1 REVERT JUMPDEST POP PUSH1 0x2 SLOAD PUSH2 0x223 SWAP1 PUSH1 0x1 PUSH1 0x1 PUSH1 0xA0 SHL SUB AND DUP2 JUMP JUMPDEST PUSH1 0x40 MLOAD PUSH1 0x1 PUSH1 0x1 PUSH1 0xA0 SHL SUB SWAP1 SWAP2 AND DUP2 MSTORE PUSH1 0x20 ADD PUSH2 0x165 JUMP JUMPDEST CALLVALUE DUP1 ISZERO PUSH2 0x246 JUMPI PUSH0 DUP1 REVERT JUMPDEST POP PUSH2 0x25A PUSH2 0x255 CALLDATASIZE PUSH1 0x4 PUSH2 0xFE0 JUMP JUMPDEST PUSH2 0x5A6 JUMP JUMPDEST PUSH1 0x40 DUP1 MLOAD SWAP3 DUP4 MSTORE PUSH1 0x20 DUP4 ADD SWAP2 SWAP1 SWAP2 MSTORE ADD PUSH2 0x165 JUMP JUMPDEST CALLVALUE DUP1 ISZERO PUSH2 0x27A JUMPI PUSH0 DUP1 REVERT JUMPDEST POP PUSH2 0x184 PUSH32 0x0 DUP2 JUMP JUMPDEST PUSH2 0x2AA PUSH2 0x5DE JUMP JUMPDEST STOP JUMPDEST CALLVALUE DUP1 ISZERO PUSH2 0x2B7 JUMPI PUSH0 DUP1 REVERT JUMPDEST POP PUSH2 0x2CB PUSH2 0x2C6 CALLDATASIZE PUSH1 0x4 PUSH2 0xF3D JUMP JUMPDEST PUSH2 0x658 JUMP JUMPDEST PUSH1 0x40 DUP1 MLOAD PUSH1 0x1 PUSH1 0x1 PUSH1 0xA0 SHL SUB SWAP1 SWAP4 AND DUP4 MSTORE PUSH1 0x20 DUP4 ADD SWAP2 SWAP1 SWAP2 MSTORE ADD PUSH2 0x165 JUMP JUMPDEST CALLVALUE DUP1 ISZERO PUSH2 0x2F5 JUMPI PUSH0 DUP1 REVERT JUMPDEST POP PUSH2 0x2FE PUSH2 0x683 JUMP JUMPDEST PUSH1 0x40 MLOAD PUSH2 0x165 SWAP2 SWAP1 PUSH2 0x1008 JUMP JUMPDEST CALLVALUE DUP1 ISZERO PUSH2 0x316 JUMPI PUSH0 DUP1 REVERT JUMPDEST POP PUSH2 0x223 PUSH2 0x325 CALLDATASIZE PUSH1 0x4 PUSH2 0xF3D JUMP JUMPDEST PUSH2 0x751 JUMP JUMPDEST CALLVALUE DUP1 ISZERO PUSH2 0x335 JUMPI PUSH0 DUP1 REVERT JUMPDEST POP PUSH2 0x184 PUSH1 0x6 SLOAD DUP2 JUMP JUMPDEST CALLVALUE DUP1 ISZERO PUSH2 0x34A JUMPI PUSH0 DUP1 REVERT JUMPDEST POP PUSH2 0x35E PUSH2 0x359 CALLDATASIZE PUSH1 0x4 PUSH2 0xF3D JUMP JUMPDEST PUSH2 0x779 JUMP JUMPDEST PUSH1 0x40 MLOAD PUSH1 0xFF SWAP1 SWAP2 AND DUP2 MSTORE PUSH1 0x20 ADD PUSH2 0x165 JUMP JUMPDEST CALLVALUE DUP1 ISZERO PUSH2 0x37B JUMPI PUSH0 DUP1 REVERT JUMPDEST POP PUSH2 0x184 PUSH0 SLOAD DUP2 JUMP JUMPDEST CALLVALUE DUP1 ISZERO PUSH2 0x38F JUMPI PUSH0 DUP1 REVERT JUMPDEST POP PUSH1 0x6F SLOAD PUSH2 0x35E SWAP1 PUSH1 0xFF AND DUP2 JUMP JUMPDEST CALLVALUE DUP1 ISZERO PUSH2 0x3A8 JUMPI PUSH0 DUP1 REVERT JUMPDEST POP PUSH2 0x184 PUSH1 0x1 SLOAD DUP2 JUMP JUMPDEST CALLVALUE DUP1 ISZERO PUSH2 0x3BD JUMPI PUSH0 DUP1 REVERT JUMPDEST POP PUSH2 0x35E PUSH1 0x32 DUP2 JUMP JUMPDEST CALLVALUE DUP1 ISZERO PUSH2 0x3D1 JUMPI PUSH0 DUP1 REVERT JUMPDEST POP PUSH2 0x3E5 PUSH2 0x3E0 CALLDATASIZE PUSH1 0x4 PUSH2 0x102E JUMP JUMPDEST PUSH2 0xD2D JUMP JUMPDEST PUSH1 0x40 MLOAD PUSH2 0x165 SWAP10 SWAP9 SWAP8 SWAP7 SWAP6 SWAP5 SWAP4 SWAP3 SWAP2 SWAP1 PUSH2 0x104E JUMP JUMPDEST CALLVALUE DUP1 ISZERO PUSH2 0x405 JUMPI PUSH0 DUP1 REVERT JUMPDEST POP PUSH2 0x35E PUSH2 0x414 CALLDATASIZE PUSH1 0x4 PUSH2 0x102E JUMP JUMPDEST PUSH1 0x6E PUSH1 0x20 MSTORE PUSH0 SWAP1 DUP2 MSTORE PUSH1 0x40 SWAP1 KECCAK256 SLOAD PUSH1 0xFF AND DUP2 JUMP JUMPDEST CALLVALUE DUP1 ISZERO PUSH2 0x433 JUMPI PUSH0 DUP1 REVERT JUMPDEST POP PUSH2 0x25A PUSH2 0x442 CALLDATASIZE PUSH1 0x4 PUSH2 0xF3D JUMP JUMPDEST PUSH2 0xF11 JUMP JUMPDEST CALLVALUE DUP1 ISZERO PUSH2 0x452 JUMPI PUSH0 DUP1 REVERT JUMPDEST POP PUSH2 0x184 PUSH1 0x7 SLOAD DUP2 JUMP JUMPDEST PUSH1 0x5 DUP2 DUP2 SLOAD DUP2 LT PUSH2 0x46B JUMPI PUSH0 DUP1 REVERT JUMPDEST PUSH0 SWAP2 DUP3 MSTORE PUSH1 0x20 SWAP1 SWAP2 KECCAK256 PUSH1 0x5 SWAP1 SWAP2 MUL ADD DUP1 SLOAD PUSH1 0x1 DUP3 ADD DUP1 SLOAD PUSH1 0x1 PUSH1 0x1 PUSH1 0xA0 SHL SUB SWAP1 SWAP3 AND SWAP4 POP SWAP1 PUSH2 0x499 SWAP1 PUSH2 0x10C8 JUMP JUMPDEST DUP1 PUSH1 0x1F ADD PUSH1 0x20 DUP1 SWAP2 DIV MUL PUSH1 0x20 ADD PUSH1 0x40 MLOAD SWAP1 DUP2 ADD PUSH1 0x40 MSTORE DUP1 SWAP3 SWAP2 SWAP1 DUP2 DUP2 MSTORE PUSH1 0x20 ADD DUP3 DUP1 SLOAD PUSH2 0x4C5 SWAP1 PUSH2 0x10C8 JUMP JUMPDEST DUP1 ISZERO PUSH2 0x510 JUMPI DUP1 PUSH1 0x1F LT PUSH2 0x4E7 JUMPI PUSH2 0x100 DUP1 DUP4 SLOAD DIV MUL DUP4 MSTORE SWAP2 PUSH1 0x20 ADD SWAP2 PUSH2 0x510 JUMP JUMPDEST DUP3 ADD SWAP2 SWAP1 PUSH0 MSTORE PUSH1 0x20 PUSH0 KECCAK256 SWAP1 JUMPDEST DUP2 SLOAD DUP2 MSTORE SWAP1 PUSH1 0x1 ADD SWAP1 PUSH1 0x20 ADD DUP1 DUP4 GT PUSH2 0x4F3 JUMPI DUP3 SWAP1 SUB PUSH1 0x1F AND DUP3 ADD SWAP2 JUMPDEST POP POP POP POP PUSH1 0x2 DUP4 ADD SLOAD PUSH1 0x3 SWAP1 SWAP4 ADD SLOAD SWAP2 SWAP3 SWAP2 PUSH1 0xFF DUP1 DUP3 AND SWAP3 POP PUSH2 0x100 SWAP1 SWAP2 DIV AND DUP6 JUMP JUMPDEST PUSH0 DUP1 JUMPDEST CALLER PUSH0 SWAP1 DUP2 MSTORE PUSH1 0x9 PUSH1 0x20 MSTORE PUSH1 0x40 SWAP1 KECCAK256 SLOAD PUSH2 0xFFFF DUP3 AND LT ISZERO PUSH2 0x5A2 JUMPI CALLER PUSH0 SWAP1 DUP2 MSTORE PUSH1 0x9 PUSH1 0x20 MSTORE PUSH1 0x40 SWAP1 KECCAK256 DUP1 SLOAD PUSH2 0xFFFF DUP4 AND SWAP1 DUP2 LT PUSH2 0x574 JUMPI PUSH2 0x574 PUSH2 0x1100 JUMP JUMPDEST SWAP1 PUSH0 MSTORE PUSH1 0x20 PUSH0 KECCAK256 SWAP1 PUSH1 0x2 MUL ADD PUSH0 ADD SLOAD DUP3 PUSH2 0x58E SWAP2 SWAP1 PUSH2 0x1128 JUMP JUMPDEST SWAP2 POP DUP1 PUSH2 0x59A DUP2 PUSH2 0x114F JUMP JUMPDEST SWAP2 POP POP PUSH2 0x536 JUMP JUMPDEST POP SWAP1 JUMP JUMPDEST PUSH1 0x9 PUSH1 0x20 MSTORE DUP2 PUSH0 MSTORE PUSH1 0x40 PUSH0 KECCAK256 DUP2 DUP2 SLOAD DUP2 LT PUSH2 0x5BF JUMPI PUSH0 DUP1 REVERT JUMPDEST PUSH0 SWAP2 DUP3 MSTORE PUSH1 0x20 SWAP1 SWAP2 KECCAK256 PUSH1 0x2 SWAP1 SWAP2 MUL ADD DUP1 SLOAD PUSH1 0x1 SWAP1 SWAP2 ADD SLOAD SWAP1 SWAP3 POP SWAP1 POP DUP3 JUMP JUMPDEST PUSH1 0x40 DUP1 MLOAD DUP1 DUP3 ADD DUP3 MSTORE CALLVALUE DUP1 DUP3 MSTORE TIMESTAMP PUSH1 0x20 DUP1 DUP5 ADD SWAP2 DUP3 MSTORE CALLER PUSH0 DUP2 DUP2 MSTORE PUSH1 0x9 DUP4 MSTORE DUP7 DUP2 KECCAK256 DUP1 SLOAD PUSH1 0x1 DUP1 DUP3 ADD DUP4 SSTORE SWAP2 DUP4 MSTORE SWAP2 DUP5 SWAP1 KECCAK256 DUP8 MLOAD PUSH1 0x2 SWAP1 SWAP4 MUL ADD SWAP2 DUP3 SSTORE SWAP4 MLOAD SWAP4 ADD SWAP3 SWAP1 SWAP3 SSTORE SWAP4 MLOAD SWAP2 DUP3 MSTORE SWAP2 SWAP3 PUSH32 0x976BE468429698A1B0AE0C20A0329BDB6E24722A3F834A2C54B84D63C1722F32 SWAP2 ADD PUSH1 0x40 MLOAD DUP1 SWAP2 SUB SWAP1 LOG2 POP JUMP JUMPDEST PUSH1 0xA DUP2 PUSH1 0x32 DUP2 LT PUSH2 0x667 JUMPI PUSH0 DUP1 REVERT JUMPDEST PUSH1 0x2 MUL ADD DUP1 SLOAD PUSH1 0x1 SWAP1 SWAP2 ADD SLOAD PUSH1 0x1 PUSH1 0x1 PUSH1 0xA0 SHL SUB SWAP1 SWAP2 AND SWAP2 POP DUP3 JUMP JUMPDEST PUSH0 DUP1 SLOAD TIMESTAMP LT ISZERO PUSH2 0x692 JUMPI POP PUSH0 SWAP1 JUMP JUMPDEST PUSH2 0x69E PUSH1 0x32 PUSH1 0x2 PUSH2 0x116F JUMP JUMPDEST PUSH1 0xFF AND PUSH1 0x3 DUP1 SLOAD SWAP1 POP LT DUP1 PUSH2 0x6C2 JUMPI POP PUSH1 0x2 SLOAD PUSH2 0x4B0 PUSH1 0x1 PUSH1 0xA0 SHL SWAP1 SWAP2 DIV PUSH2 0xFFFF AND LT JUMPDEST ISZERO PUSH2 0x6CF JUMPI POP PUSH0 DUP1 DUP1 SSTORE SWAP1 JUMP JUMPDEST PUSH0 SLOAD PUSH0 SUB PUSH2 0x701 JUMPI TIMESTAMP PUSH0 DUP2 SWAP1 SSTORE PUSH2 0x6EA SWAP1 PUSH3 0x127500 SWAP1 PUSH2 0x1192 JUMP JUMPDEST PUSH2 0x6F7 SWAP1 PUSH3 0x15180 PUSH2 0x1192 JUMP JUMPDEST PUSH1 0x1 SWAP1 DUP2 SSTORE SWAP2 SWAP1 POP JUMP JUMPDEST PUSH1 0x1 DUP1 SLOAD PUSH2 0x70F SWAP2 SWAP1 PUSH2 0x11AB JUMP JUMPDEST TIMESTAMP LT ISZERO PUSH2 0x71C JUMPI POP PUSH1 0x1 SWAP1 JUMP JUMPDEST PUSH1 0x1 SLOAD TIMESTAMP LT ISZERO PUSH2 0x72C JUMPI POP PUSH1 0x2 SWAP1 JUMP JUMPDEST PUSH1 0x6 SLOAD PUSH0 SUB PUSH2 0x73B JUMPI POP PUSH1 0x3 SWAP1 JUMP JUMPDEST PUSH1 0x6 SLOAD TIMESTAMP LT ISZERO PUSH2 0x74B JUMPI POP PUSH1 0x4 SWAP1 JUMP JUMPDEST POP PUSH1 0x5 SWAP1 JUMP JUMPDEST PUSH1 0x3 DUP2 DUP2 SLOAD DUP2 LT PUSH2 0x760 JUMPI PUSH0 DUP1 REVERT JUMPDEST PUSH0 SWAP2 DUP3 MSTORE PUSH1 0x20 SWAP1 SWAP2 KECCAK256 ADD SLOAD PUSH1 0x1 PUSH1 0x1 PUSH1 0xA0 SHL SUB AND SWAP1 POP DUP2 JUMP JUMPDEST CALLER PUSH0 SWAP1 DUP2 MSTORE PUSH1 0x4 PUSH1 0x20 DUP2 SWAP1 MSTORE PUSH1 0x40 DUP3 KECCAK256 ADD SLOAD PUSH3 0x10000 SWAP1 DIV PUSH1 0xFF AND PUSH2 0x7E5 JUMPI PUSH1 0x40 MLOAD PUSH3 0x461BCD PUSH1 0xE5 SHL DUP2 MSTORE PUSH1 0x20 PUSH1 0x4 DUP3 ADD MSTORE PUSH1 0x18 PUSH1 0x24 DUP3 ADD MSTORE PUSH32 0x4F6E6C79206D656D626572732063616E2070726F706F73650000000000000000 PUSH1 0x44 DUP3 ADD MSTORE PUSH1 0x64 ADD JUMPDEST PUSH1 0x40 MLOAD DUP1 SWAP2 SUB SWAP1 REVERT JUMPDEST PUSH2 0x1388 DUP3 GT ISZERO PUSH2 0x824 JUMPI PUSH1 0x40 MLOAD PUSH3 0x461BCD PUSH1 0xE5 SHL DUP2 MSTORE PUSH1 0x20 PUSH1 0x4 DUP3 ADD MSTORE PUSH1 0xA PUSH1 0x24 DUP3 ADD MSTORE PUSH10 0x52617465203E20353025 PUSH1 0xB0 SHL PUSH1 0x44 DUP3 ADD MSTORE PUSH1 0x64 ADD PUSH2 0x7DC JUMP JUMPDEST CALLER PUSH0 SWAP1 DUP2 MSTORE PUSH1 0x6E PUSH1 0x20 MSTORE PUSH1 0x40 DUP2 KECCAK256 SLOAD PUSH1 0xFF AND DUP2 DUP2 ISZERO DUP1 ISZERO PUSH2 0x849 JUMPI POP PUSH1 0x6F SLOAD PUSH1 0xFF AND ISZERO ISZERO JUMPDEST ISZERO PUSH2 0x88A JUMPI PUSH1 0x6F DUP1 SLOAD PUSH1 0xFF AND SWAP1 PUSH0 PUSH2 0x860 DUP4 PUSH2 0x11BE JUMP JUMPDEST DUP3 SLOAD PUSH2 0x100 SWAP3 SWAP1 SWAP3 EXP PUSH1 0xFF DUP2 DUP2 MUL NOT SWAP1 SWAP4 AND SWAP2 DUP4 AND MUL OR SWAP1 SWAP2 SSTORE PUSH1 0x6F SLOAD PUSH0 SWAP6 POP AND SWAP2 POP PUSH2 0x8AE SWAP1 POP JUMP JUMPDEST PUSH1 0xA DUP3 PUSH1 0xFF AND PUSH1 0x32 DUP2 LT PUSH2 0x8A0 JUMPI PUSH2 0x8A0 PUSH2 0x1100 JUMP JUMPDEST PUSH1 0x2 MUL ADD PUSH1 0x1 ADD SLOAD SWAP3 POP DUP2 SWAP1 POP JUMPDEST DUP3 DUP6 SUB PUSH2 0x920 JUMPI DUP5 PUSH0 SUB PUSH2 0x918 JUMPI CALLER PUSH1 0xA DUP3 PUSH1 0xFF AND PUSH1 0x32 DUP2 LT PUSH2 0x8D3 JUMPI PUSH2 0x8D3 PUSH2 0x1100 JUMP JUMPDEST PUSH1 0x2 MUL ADD DUP1 SLOAD PUSH1 0x1 PUSH1 0x1 PUSH1 0xA0 SHL SUB NOT AND PUSH1 0x1 PUSH1 0x1 PUSH1 0xA0 SHL SUB SWAP3 SWAP1 SWAP3 AND SWAP2 SWAP1 SWAP2 OR SWAP1 SSTORE CALLER PUSH0 SWAP1 DUP2 MSTORE PUSH1 0x6E PUSH1 0x20 MSTORE PUSH1 0x40 SWAP1 KECCAK256 DUP1 SLOAD PUSH1 0xFF NOT AND PUSH1 0xFF DUP4 AND OR SWAP1 SSTORE SWAP5 SWAP4 POP POP POP POP JUMP JUMPDEST POP SWAP4 SWAP3 POP POP POP JUMP JUMPDEST DUP3 DUP6 GT ISZERO PUSH2 0xA40 JUMPI JUMPDEST PUSH2 0x935 PUSH1 0x1 PUSH1 0x32 PUSH2 0x11D9 JUMP JUMPDEST PUSH1 0xFF AND DUP2 PUSH1 0xFF AND LT DUP1 ISZERO PUSH2 0x96F JUMPI POP PUSH1 0xA PUSH2 0x951 DUP3 PUSH1 0x1 PUSH2 0x11F2 JUMP JUMPDEST PUSH1 0xFF AND PUSH1 0x32 DUP2 LT PUSH2 0x964 JUMPI PUSH2 0x964 PUSH2 0x1100 JUMP JUMPDEST PUSH1 0x2 MUL ADD PUSH1 0x1 ADD SLOAD DUP6 GT JUMPDEST ISZERO PUSH2 0xA3B JUMPI PUSH1 0xA PUSH2 0x981 DUP3 PUSH1 0x1 PUSH2 0x11F2 JUMP JUMPDEST PUSH1 0xFF AND PUSH1 0x32 DUP2 LT PUSH2 0x994 JUMPI PUSH2 0x994 PUSH2 0x1100 JUMP JUMPDEST PUSH1 0x2 MUL ADD PUSH1 0xA DUP3 PUSH1 0xFF AND PUSH1 0x32 DUP2 LT PUSH2 0x9AE JUMPI PUSH2 0x9AE PUSH2 0x1100 JUMP JUMPDEST DUP3 SLOAD PUSH1 0x2 SWAP2 SWAP1 SWAP2 MUL SWAP2 SWAP1 SWAP2 ADD DUP1 SLOAD PUSH1 0x1 PUSH1 0x1 PUSH1 0xA0 SHL SUB NOT AND PUSH1 0x1 PUSH1 0x1 PUSH1 0xA0 SHL SUB SWAP1 SWAP3 AND SWAP2 SWAP1 SWAP2 OR DUP2 SSTORE PUSH1 0x1 SWAP2 DUP3 ADD SLOAD SWAP2 ADD SSTORE DUP1 PUSH1 0x6E PUSH0 PUSH1 0xA PUSH1 0xFF DUP5 AND PUSH1 0x32 DUP2 LT PUSH2 0x9FA JUMPI PUSH2 0x9FA PUSH2 0x1100 JUMP JUMPDEST PUSH1 0x2 MUL ADD SLOAD PUSH1 0x1 PUSH1 0x1 PUSH1 0xA0 SHL SUB AND DUP2 MSTORE PUSH1 0x20 DUP2 ADD SWAP2 SWAP1 SWAP2 MSTORE PUSH1 0x40 ADD PUSH0 KECCAK256 DUP1 SLOAD PUSH1 0xFF NOT AND PUSH1 0xFF SWAP3 SWAP1 SWAP3 AND SWAP2 SWAP1 SWAP2 OR SWAP1 SSTORE DUP1 PUSH2 0xA33 DUP2 PUSH2 0x120B JUMP JUMPDEST SWAP2 POP POP PUSH2 0x929 JUMP JUMPDEST PUSH2 0xB44 JUMP JUMPDEST PUSH0 DUP2 PUSH1 0xFF AND GT DUP1 ISZERO PUSH2 0xA78 JUMPI POP PUSH1 0xA PUSH2 0xA5A PUSH1 0x1 DUP4 PUSH2 0x11D9 JUMP JUMPDEST PUSH1 0xFF AND PUSH1 0x32 DUP2 LT PUSH2 0xA6D JUMPI PUSH2 0xA6D PUSH2 0x1100 JUMP JUMPDEST PUSH1 0x2 MUL ADD PUSH1 0x1 ADD SLOAD DUP6 LT JUMPDEST ISZERO PUSH2 0xB44 JUMPI PUSH1 0xA PUSH2 0xA8A PUSH1 0x1 DUP4 PUSH2 0x11D9 JUMP JUMPDEST PUSH1 0xFF AND PUSH1 0x32 DUP2 LT PUSH2 0xA9D JUMPI PUSH2 0xA9D PUSH2 0x1100 JUMP JUMPDEST PUSH1 0x2 MUL ADD PUSH1 0xA DUP3 PUSH1 0xFF AND PUSH1 0x32 DUP2 LT PUSH2 0xAB7 JUMPI PUSH2 0xAB7 PUSH2 0x1100 JUMP JUMPDEST DUP3 SLOAD PUSH1 0x2 SWAP2 SWAP1 SWAP2 MUL SWAP2 SWAP1 SWAP2 ADD DUP1 SLOAD PUSH1 0x1 PUSH1 0x1 PUSH1 0xA0 SHL SUB NOT AND PUSH1 0x1 PUSH1 0x1 PUSH1 0xA0 SHL SUB SWAP1 SWAP3 AND SWAP2 SWAP1 SWAP2 OR DUP2 SSTORE PUSH1 0x1 SWAP2 DUP3 ADD SLOAD SWAP2 ADD SSTORE DUP1 PUSH1 0x6E PUSH0 PUSH1 0xA PUSH1 0xFF DUP5 AND PUSH1 0x32 DUP2 LT PUSH2 0xB03 JUMPI PUSH2 0xB03 PUSH2 0x1100 JUMP JUMPDEST PUSH1 0x2 MUL ADD SLOAD PUSH1 0x1 PUSH1 0x1 PUSH1 0xA0 SHL SUB AND DUP2 MSTORE PUSH1 0x20 DUP2 ADD SWAP2 SWAP1 SWAP2 MSTORE PUSH1 0x40 ADD PUSH0 KECCAK256 DUP1 SLOAD PUSH1 0xFF NOT AND PUSH1 0xFF SWAP3 SWAP1 SWAP3 AND SWAP2 SWAP1 SWAP2 OR SWAP1 SSTORE DUP1 PUSH2 0xB3C DUP2 PUSH2 0x11BE JUMP JUMPDEST SWAP2 POP POP PUSH2 0xA40 JUMP JUMPDEST PUSH1 0x40 DUP1 MLOAD DUP1 DUP3 ADD SWAP1 SWAP2 MSTORE CALLER DUP2 MSTORE PUSH1 0x20 DUP2 ADD DUP7 SWAP1 MSTORE PUSH1 0xA PUSH1 0xFF DUP4 AND PUSH1 0x32 DUP2 LT PUSH2 0xB6E JUMPI PUSH2 0xB6E PUSH2 0x1100 JUMP JUMPDEST DUP3 MLOAD PUSH1 0x2 SWAP2 SWAP1 SWAP2 MUL SWAP2 SWAP1 SWAP2 ADD DUP1 SLOAD PUSH1 0x1 PUSH1 0x1 PUSH1 0xA0 SHL SUB NOT AND PUSH1 0x1 PUSH1 0x1 PUSH1 0xA0 SHL SUB SWAP1 SWAP3 AND SWAP2 SWAP1 SWAP2 OR DUP2 SSTORE PUSH1 0x20 SWAP2 DUP3 ADD MLOAD PUSH1 0x1 SWAP1 SWAP2 ADD SSTORE CALLER PUSH0 DUP2 DUP2 MSTORE PUSH1 0x6E DUP4 MSTORE PUSH1 0x40 SWAP1 DUP2 SWAP1 KECCAK256 DUP1 SLOAD PUSH1 0xFF NOT AND PUSH1 0xFF DUP7 DUP2 AND SWAP2 DUP3 OR SWAP1 SWAP3 SSTORE DUP3 MLOAD DUP9 DUP2 MSTORE SWAP2 DUP8 AND SWAP5 DUP3 ADD SWAP5 SWAP1 SWAP5 MSTORE SWAP1 DUP2 ADD DUP9 SWAP1 MSTORE PUSH1 0x60 DUP2 ADD SWAP3 SWAP1 SWAP3 MSTORE SWAP1 PUSH32 0x1CE0BEAEC98D7537137A85C2D351C6C99900830D30FE8A7C353FA27225807E72 SWAP1 PUSH1 0x80 ADD PUSH1 0x40 MLOAD DUP1 SWAP2 SUB SWAP1 LOG2 PUSH1 0xA PUSH2 0xC1C PUSH1 0x2 PUSH1 0x32 PUSH2 0x1220 JUMP JUMPDEST PUSH1 0xFF AND PUSH1 0x32 DUP2 LT PUSH2 0xC2F JUMPI PUSH2 0xC2F PUSH2 0x1100 JUMP JUMPDEST PUSH1 0x2 MUL ADD PUSH1 0x1 ADD SLOAD PUSH1 0x7 SLOAD EQ PUSH2 0xD25 JUMPI PUSH1 0xA PUSH2 0xC4D PUSH1 0x2 PUSH1 0x32 PUSH2 0x1220 JUMP JUMPDEST PUSH1 0xFF AND PUSH1 0x32 DUP2 LT PUSH2 0xC60 JUMPI PUSH2 0xC60 PUSH2 0x1100 JUMP JUMPDEST PUSH1 0x1 PUSH1 0x2 SWAP2 DUP3 MUL SWAP3 SWAP1 SWAP3 ADD DUP3 ADD SLOAD PUSH1 0x7 DUP2 DUP2 SSTORE PUSH1 0x40 DUP1 MLOAD DUP1 DUP3 ADD DUP3 MSTORE SWAP3 DUP4 MSTORE TIMESTAMP PUSH1 0x20 DUP5 ADD SWAP1 DUP2 MSTORE PUSH1 0x8 DUP1 SLOAD SWAP7 DUP8 ADD DUP2 SSTORE PUSH0 MSTORE SWAP3 MLOAD SWAP5 SWAP1 SWAP4 MUL PUSH32 0xF3F7A9FE364FAAB93B216DA50A3214154F22A0A2B415B23A84C8169E8B636EE3 DUP2 ADD SWAP5 SWAP1 SWAP5 SSTORE SWAP1 MLOAD PUSH32 0xF3F7A9FE364FAAB93B216DA50A3214154F22A0A2B415B23A84C8169E8B636EE4 SWAP1 SWAP4 ADD SWAP3 SWAP1 SWAP3 SSTORE SWAP1 SLOAD SWAP1 MLOAD PUSH32 0xA90E14BE5AA57B910AA6DC16C31FF1B5CDA380AE25A793B0D3F74DF6131A7D74 SWAP2 PUSH2 0xD1C SWAP2 SWAP1 DUP2 MSTORE PUSH1 0x20 ADD SWAP1 JUMP JUMPDEST PUSH1 0x40 MLOAD DUP1 SWAP2 SUB SWAP1 LOG1 JUMPDEST SWAP5 SWAP4 POP POP POP POP JUMP JUMPDEST PUSH1 0x4 PUSH1 0x20 MSTORE PUSH0 SWAP1 DUP2 MSTORE PUSH1 0x40 SWAP1 KECCAK256 DUP1 SLOAD DUP2 SWAP1 PUSH2 0xD47 SWAP1 PUSH2 0x10C8 JUMP JUMPDEST DUP1 PUSH1 0x1F ADD PUSH1 0x20 DUP1 SWAP2 DIV MUL PUSH1 0x20 ADD PUSH1 0x40 MLOAD SWAP1 DUP2 ADD PUSH1 0x40 MSTORE DUP1 SWAP3 SWAP2 SWAP1 DUP2 DUP2 MSTORE PUSH1 0x20 ADD DUP3 DUP1 SLOAD PUSH2 0xD73 SWAP1 PUSH2 0x10C8 JUMP JUMPDEST DUP1 ISZERO PUSH2 0xDBE JUMPI DUP1 PUSH1 0x1F LT PUSH2 0xD95 JUMPI PUSH2 0x100 DUP1 DUP4 SLOAD DIV MUL DUP4 MSTORE SWAP2 PUSH1 0x20 ADD SWAP2 PUSH2 0xDBE JUMP JUMPDEST DUP3 ADD SWAP2 SWAP1 PUSH0 MSTORE PUSH1 0x20 PUSH0 KECCAK256 SWAP1 JUMPDEST DUP2 SLOAD DUP2 MSTORE SWAP1 PUSH1 0x1 ADD SWAP1 PUSH1 0x20 ADD DUP1 DUP4 GT PUSH2 0xDA1 JUMPI DUP3 SWAP1 SUB PUSH1 0x1F AND DUP3 ADD SWAP2 JUMPDEST POP POP POP POP POP SWAP1 DUP1 PUSH1 0x1 ADD DUP1 SLOAD PUSH2 0xDD3 SWAP1 PUSH2 0x10C8 JUMP JUMPDEST DUP1 PUSH1 0x1F ADD PUSH1 0x20 DUP1 SWAP2 DIV MUL PUSH1 0x20 ADD PUSH1 0x40 MLOAD SWAP1 DUP2 ADD PUSH1 0x40 MSTORE DUP1 SWAP3 SWAP2 SWAP1 DUP2 DUP2 MSTORE PUSH1 0x20 ADD DUP3 DUP1 SLOAD PUSH2 0xDFF SWAP1 PUSH2 0x10C8 JUMP JUMPDEST DUP1 ISZERO PUSH2 0xE4A JUMPI DUP1 PUSH1 0x1F LT PUSH2 0xE21 JUMPI PUSH2 0x100 DUP1 DUP4 SLOAD DIV MUL DUP4 MSTORE SWAP2 PUSH1 0x20 ADD SWAP2 PUSH2 0xE4A JUMP JUMPDEST DUP3 ADD SWAP2 SWAP1 PUSH0 MSTORE PUSH1 0x20 PUSH0 KECCAK256 SWAP1 JUMPDEST DUP2 SLOAD DUP2 MSTORE SWAP1 PUSH1 0x1 ADD SWAP1 PUSH1 0x20 ADD DUP1 DUP4 GT PUSH2 0xE2D JUMPI DUP3 SWAP1 SUB PUSH1 0x1F AND DUP3 ADD SWAP2 JUMPDEST POP POP POP POP POP SWAP1 DUP1 PUSH1 0x2 ADD DUP1 SLOAD PUSH2 0xE5F SWAP1 PUSH2 0x10C8 JUMP JUMPDEST DUP1 PUSH1 0x1F ADD PUSH1 0x20 DUP1 SWAP2 DIV MUL PUSH1 0x20 ADD PUSH1 0x40 MLOAD SWAP1 DUP2 ADD PUSH1 0x40 MSTORE DUP1 SWAP3 SWAP2 SWAP1 DUP2 DUP2 MSTORE PUSH1 0x20 ADD DUP3 DUP1 SLOAD PUSH2 0xE8B SWAP1 PUSH2 0x10C8 JUMP JUMPDEST DUP1 ISZERO PUSH2 0xED6 JUMPI DUP1 PUSH1 0x1F LT PUSH2 0xEAD JUMPI PUSH2 0x100 DUP1 DUP4 SLOAD DIV MUL DUP4 MSTORE SWAP2 PUSH1 0x20 ADD SWAP2 PUSH2 0xED6 JUMP JUMPDEST DUP3 ADD SWAP2 SWAP1 PUSH0 MSTORE PUSH1 0x20 PUSH0 KECCAK256 SWAP1 JUMPDEST DUP2 SLOAD DUP2 MSTORE SWAP1 PUSH1 0x1 ADD SWAP1 PUSH1 0x20 ADD DUP1 DUP4 GT PUSH2 0xEB9 JUMPI DUP3 SWAP1 SUB PUSH1 0x1F AND DUP3 ADD SWAP2 JUMPDEST POP POP POP POP PUSH1 0x3 DUP4 ADD SLOAD PUSH1 0x4 DUP5 ADD SLOAD PUSH1 0x5 DUP6 ADD SLOAD PUSH1 0x6 SWAP1 SWAP6 ADD SLOAD SWAP4 SWAP5 SWAP2 SWAP4 PUSH2 0xFFFF DUP1 DUP4 AND SWAP5 POP PUSH3 0x10000 SWAP3 DUP4 SWAP1 DIV PUSH1 0xFF AND SWAP4 SWAP3 DUP2 DUP4 AND SWAP3 DIV AND DUP10 JUMP JUMPDEST PUSH1 0x8 DUP2 DUP2 SLOAD DUP2 LT PUSH2 0xF20 JUMPI PUSH0 DUP1 REVERT JUMPDEST PUSH0 SWAP2 DUP3 MSTORE PUSH1 0x20 SWAP1 SWAP2 KECCAK256 PUSH1 0x2 SWAP1 SWAP2 MUL ADD DUP1 SLOAD PUSH1 0x1 SWAP1 SWAP2 ADD SLOAD SWAP1 SWAP2 POP DUP3 JUMP JUMPDEST PUSH0 PUSH1 0x20 DUP3 DUP5 SUB SLT ISZERO PUSH2 0xF4D JUMPI PUSH0 DUP1 REVERT JUMPDEST POP CALLDATALOAD SWAP2 SWAP1 POP JUMP JUMPDEST PUSH0 DUP2 MLOAD DUP1 DUP5 MSTORE DUP1 PUSH1 0x20 DUP5 ADD PUSH1 0x20 DUP7 ADD MCOPY PUSH0 PUSH1 0x20 DUP3 DUP7 ADD ADD MSTORE PUSH1 0x20 PUSH1 0x1F NOT PUSH1 0x1F DUP4 ADD AND DUP6 ADD ADD SWAP2 POP POP SWAP3 SWAP2 POP POP JUMP JUMPDEST PUSH1 0x1 PUSH1 0x1 PUSH1 0xA0 SHL SUB DUP7 AND DUP2 MSTORE PUSH1 0xA0 PUSH1 0x20 DUP3 ADD DUP2 SWAP1 MSTORE PUSH0 SWAP1 PUSH2 0xFA5 SWAP1 DUP4 ADD DUP8 PUSH2 0xF54 JUMP JUMPDEST PUSH1 0x40 DUP4 ADD SWAP6 SWAP1 SWAP6 MSTORE POP SWAP2 ISZERO ISZERO PUSH1 0x60 DUP4 ADD MSTORE PUSH1 0xFF AND PUSH1 0x80 SWAP1 SWAP2 ADD MSTORE SWAP3 SWAP2 POP POP JUMP JUMPDEST DUP1 CALLDATALOAD PUSH1 0x1 PUSH1 0x1 PUSH1 0xA0 SHL SUB DUP2 AND DUP2 EQ PUSH2 0xFDB JUMPI PUSH0 DUP1 REVERT JUMPDEST SWAP2 SWAP1 POP JUMP JUMPDEST PUSH0 DUP1 PUSH1 0x40 DUP4 DUP6 SUB SLT ISZERO PUSH2 0xFF1 JUMPI PUSH0 DUP1 REVERT JUMPDEST PUSH2 0xFFA DUP4 PUSH2 0xFC5 JUMP JUMPDEST SWAP5 PUSH1 0x20 SWAP4 SWAP1 SWAP4 ADD CALLDATALOAD SWAP4 POP POP POP JUMP JUMPDEST PUSH1 0x20 DUP2 ADD PUSH1 0x6 DUP4 LT PUSH2 0x1028 JUMPI PUSH4 0x4E487B71 PUSH1 0xE0 SHL PUSH0 MSTORE PUSH1 0x21 PUSH1 0x4 MSTORE PUSH1 0x24 PUSH0 REVERT JUMPDEST SWAP2 SWAP1 MSTORE SWAP1 JUMP JUMPDEST PUSH0 PUSH1 0x20 DUP3 DUP5 SUB SLT ISZERO PUSH2 0x103E JUMPI PUSH0 DUP1 REVERT JUMPDEST PUSH2 0x1047 DUP3 PUSH2 0xFC5 JUMP JUMPDEST SWAP4 SWAP3 POP POP POP JUMP JUMPDEST PUSH2 0x120 DUP2 MSTORE PUSH0 PUSH2 0x1062 PUSH2 0x120 DUP4 ADD DUP13 PUSH2 0xF54 JUMP JUMPDEST DUP3 DUP2 SUB PUSH1 0x20 DUP5 ADD MSTORE PUSH2 0x1074 DUP2 DUP13 PUSH2 0xF54 JUMP JUMPDEST SWAP1 POP DUP3 DUP2 SUB PUSH1 0x40 DUP5 ADD MSTORE PUSH2 0x1088 DUP2 DUP12 PUSH2 0xF54 JUMP JUMPDEST PUSH1 0x60 DUP5 ADD SWAP10 SWAP1 SWAP10 MSTORE POP POP PUSH2 0xFFFF SWAP6 DUP7 AND PUSH1 0x80 DUP3 ADD MSTORE PUSH1 0xFF SWAP5 SWAP1 SWAP5 AND PUSH1 0xA0 DUP6 ADD MSTORE PUSH1 0xC0 DUP5 ADD SWAP3 SWAP1 SWAP3 MSTORE DUP4 AND PUSH1 0xE0 DUP4 ADD MSTORE SWAP1 SWAP2 AND PUSH2 0x100 SWAP1 SWAP2 ADD MSTORE SWAP4 SWAP3 POP POP POP JUMP JUMPDEST PUSH1 0x1 DUP2 DUP2 SHR SWAP1 DUP3 AND DUP1 PUSH2 0x10DC JUMPI PUSH1 0x7F DUP3 AND SWAP2 POP JUMPDEST PUSH1 0x20 DUP3 LT DUP2 SUB PUSH2 0x10FA JUMPI PUSH4 0x4E487B71 PUSH1 0xE0 SHL PUSH0 MSTORE PUSH1 0x22 PUSH1 0x4 MSTORE PUSH1 0x24 PUSH0 REVERT JUMPDEST POP SWAP2 SWAP1 POP JUMP JUMPDEST PUSH4 0x4E487B71 PUSH1 0xE0 SHL PUSH0 MSTORE PUSH1 0x32 PUSH1 0x4 MSTORE PUSH1 0x24 PUSH0 REVERT JUMPDEST PUSH4 0x4E487B71 PUSH1 0xE0 SHL PUSH0 MSTORE PUSH1 0x11 PUSH1 0x4 MSTORE PUSH1 0x24 PUSH0 REVERT JUMPDEST DUP1 DUP3 ADD DUP3 DUP2 SLT PUSH0 DUP4 SLT DUP1 ISZERO DUP3 AND DUP3 ISZERO DUP3 AND OR ISZERO PUSH2 0x1147 JUMPI PUSH2 0x1147 PUSH2 0x1114 JUMP JUMPDEST POP POP SWAP3 SWAP2 POP POP JUMP JUMPDEST PUSH0 PUSH2 0xFFFF DUP3 AND PUSH2 0xFFFF DUP2 SUB PUSH2 0x1166 JUMPI PUSH2 0x1166 PUSH2 0x1114 JUMP JUMPDEST PUSH1 0x1 ADD SWAP3 SWAP2 POP POP JUMP JUMPDEST PUSH1 0xFF DUP2 DUP2 AND DUP4 DUP3 AND MUL SWAP1 DUP2 AND SWAP1 DUP2 DUP2 EQ PUSH2 0x118B JUMPI PUSH2 0x118B PUSH2 0x1114 JUMP JUMPDEST POP SWAP3 SWAP2 POP POP JUMP JUMPDEST DUP1 DUP3 ADD DUP1 DUP3 GT ISZERO PUSH2 0x11A5 JUMPI PUSH2 0x11A5 PUSH2 0x1114 JUMP JUMPDEST SWAP3 SWAP2 POP POP JUMP JUMPDEST DUP2 DUP2 SUB DUP2 DUP2 GT ISZERO PUSH2 0x11A5 JUMPI PUSH2 0x11A5 PUSH2 0x1114 JUMP JUMPDEST PUSH0 PUSH1 0xFF DUP3 AND DUP1 PUSH2 0x11D0 JUMPI PUSH2 0x11D0 PUSH2 0x1114 JUMP JUMPDEST PUSH0 NOT ADD SWAP3 SWAP2 POP POP JUMP JUMPDEST PUSH1 0xFF DUP3 DUP2 AND DUP3 DUP3 AND SUB SWAP1 DUP2 GT ISZERO PUSH2 0x11A5 JUMPI PUSH2 0x11A5 PUSH2 0x1114 JUMP JUMPDEST PUSH1 0xFF DUP2 DUP2 AND DUP4 DUP3 AND ADD SWAP1 DUP2 GT ISZERO PUSH2 0x11A5 JUMPI PUSH2 0x11A5 PUSH2 0x1114 JUMP JUMPDEST PUSH0 PUSH1 0xFF DUP3 AND PUSH1 0xFF DUP2 SUB PUSH2 0x1166 JUMPI PUSH2 0x1166 PUSH2 0x1114 JUMP JUMPDEST PUSH0 PUSH1 0xFF DUP4 AND DUP1 PUSH2 0x123E JUMPI PUSH4 0x4E487B71 PUSH1 0xE0 SHL PUSH0 MSTORE PUSH1 0x12 PUSH1 0x4 MSTORE PUSH1 0x24 PUSH0 REVERT JUMPDEST DUP1 PUSH1 0xFF DUP5 AND DIV SWAP2 POP POP SWAP3 SWAP2 POP POP JUMP INVALID LOG2 PUSH5 0x6970667358 0x22 SLT KECCAK256 LOG1 0xEE 0xAA 0xA7 DUP9 OR 0x2F BASEFEE MSIZE POP DUP3 0x2C DUP8 SWAP7 SGT CALL SWAP4 RETURNDATACOPY EXTCODEHASH EQ 0xF9 0xB0 0xDB 0xB9 PUSH7 0x6B804494DAA3DD PUSH5 0x736F6C6343 STOP ADDMOD BYTE STOP CALLER "
		},
		"gasEstimates": {
			"creation": {
				"codeDepositCost": "947800",
				"executionCost": "infinite",
				"totalCost": "infinite"
			},
			"external": {
				"CAMPAIGN_DURATION()": "240",
				"LenderTxns(address,uint256)": "6941",
				"N_MEMBERS()": "247",
				"RANDOM_VOTERS()": "315",
				"RegistrationEnd()": "2382",
				"addedVoterCount()": "2419",
				"candidateInfo(address)": "infinite",
				"candidateList(uint256)": "4634",
				"currentRate()": "2426",
				"electionEnd()": "2316",
				"getBalance()": "infinite",
				"getCurrentPhase()": "infinite",
				"interestPeriods(uint256)": "6838",
				"lend()": "70301",
				"memberRank(address)": "2619",
				"neutral()": "2359",
				"noRates()": "2423",
				"proposals(uint256)": "infinite",
				"proposeRate(uint256)": "infinite",
				"referendumEnd()": "2339",
				"sortedRates(uint256)": "4719",
				"startTime()": "infinite"
			}
		},
		"methodIdentifiers": {
			"CAMPAIGN_DURATION()": "08fd4cfa",
			"LenderTxns(address,uint256)": "53fdc838",
			"N_MEMBERS()": "e292bf16",
			"RANDOM_VOTERS()": "3def77b7",
			"RegistrationEnd()": "be07f0f8",
			"addedVoterCount()": "1b408934",
			"candidateInfo(address)": "e965b7c9",
			"candidateList(uint256)": "b13c744b",
			"currentRate()": "f9f8bdb7",
			"electionEnd()": "ce7ea161",
			"getBalance()": "12065fe0",
			"getCurrentPhase()": "a3a40ea5",
			"interestPeriods(uint256)": "f33e9573",
			"lend()": "97dffc61",
			"memberRank(address)": "eab536fc",
			"neutral()": "4d0c8726",
			"noRates()": "c8d7b9f1",
			"proposals(uint256)": "013cf08b",
			"proposeRate(uint256)": "bdc8e7b3",
			"referendumEnd()": "bab752e5",
			"sortedRates(uint256)": "9dc99455",
			"startTime()": "78e97925"
		}
	},
	"abi": [
		{
			"anonymous": false,
			"inputs": [
				{
					"indexed": false,
					"internalType": "uint256",
					"name": "newMedianRate",
					"type": "uint256"
				}
			],
			"name": "InterestRateUpdated",
			"type": "event"
		},
		{
			"anonymous": false,
			"inputs": [
				{
					"indexed": true,
					"internalType": "address",
					"name": "lender",
					"type": "address"
				},
				{
					"indexed": false,
					"internalType": "int256",
					"name": "amount",
					"type": "int256"
				}
			],
			"name": "LoanReceived",
			"type": "event"
		},
		{
			"anonymous": false,
			"inputs": [
				{
					"indexed": true,
					"internalType": "address",
					"name": "member",
					"type": "address"
				},
				{
					"indexed": false,
					"internalType": "uint256",
					"name": "oldRate",
					"type": "uint256"
				},
				{
					"indexed": false,
					"internalType": "uint8",
					"name": "oldRank",
					"type": "uint8"
				},
				{
					"indexed": false,
					"internalType": "uint256",
					"name": "newRate",
					"type": "uint256"
				},
				{
					"indexed": false,
					"internalType": "uint8",
					"name": "newRank",
					"type": "uint8"
				}
			],
			"name": "MemberRateChanged",
			"type": "event"
		},
		{
			"inputs": [],
			"name": "CAMPAIGN_DURATION",
			"outputs": [
				{
					"internalType": "uint256",
					"name": "",
					"type": "uint256"
				}
			],
			"stateMutability": "view",
			"type": "function"
		},
		{
			"inputs": [
				{
					"internalType": "address",
					"name": "",
					"type": "address"
				},
				{
					"internalType": "uint256",
					"name": "",
					"type": "uint256"
				}
			],
			"name": "LenderTxns",
			"outputs": [
				{
					"internalType": "int256",
					"name": "amount",
					"type": "int256"
				},
				{
					"internalType": "uint256",
					"name": "txnTime",
					"type": "uint256"
				}
			],
			"stateMutability": "view",
			"type": "function"
		},
		{
			"inputs": [],
			"name": "N_MEMBERS",
			"outputs": [
				{
					"internalType": "uint8",
					"name": "",
					"type": "uint8"
				}
			],
			"stateMutability": "view",
			"type": "function"
		},
		{
			"inputs": [],
			"name": "RANDOM_VOTERS",
			"outputs": [
				{
					"internalType": "uint32",
					"name": "",
					"type": "uint32"
				}
			],
			"stateMutability": "view",
			"type": "function"
		},
		{
			"inputs": [],
			"name": "RegistrationEnd",
			"outputs": [
				{
					"internalType": "uint256",
					"name": "",
					"type": "uint256"
				}
			],
			"stateMutability": "view",
			"type": "function"
		},
		{
			"inputs": [],
			"name": "addedVoterCount",
			"outputs": [
				{
					"internalType": "uint16",
					"name": "",
					"type": "uint16"
				}
			],
			"stateMutability": "view",
			"type": "function"
		},
		{
			"inputs": [
				{
					"internalType": "address",
					"name": "",
					"type": "address"
				}
			],
			"name": "candidateInfo",
			"outputs": [
				{
					"internalType": "string",
					"name": "fullName",
					"type": "string"
				},
				{
					"internalType": "string",
					"name": "bio",
					"type": "string"
				},
				{
					"internalType": "string",
					"name": "website",
					"type": "string"
				},
				{
					"internalType": "uint256",
					"name": "registeredAt",
					"type": "uint256"
				},
				{
					"internalType": "uint16",
					"name": "voteCount",
					"type": "uint16"
				},
				{
					"internalType": "uint8",
					"name": "memberID",
					"type": "uint8"
				},
				{
					"internalType": "uint256",
					"name": "leaderAt",
					"type": "uint256"
				},
				{
					"internalType": "uint16",
					"name": "activeProposal",
					"type": "uint16"
				},
				{
					"internalType": "uint16",
					"name": "submittedDraft",
					"type": "uint16"
				}
			],
			"stateMutability": "view",
			"type": "function"
		},
		{
			"inputs": [
				{
					"internalType": "uint256",
					"name": "",
					"type": "uint256"
				}
			],
			"name": "candidateList",
			"outputs": [
				{
					"internalType": "address",
					"name": "",
					"type": "address"
				}
			],
			"stateMutability": "view",
			"type": "function"
		},
		{
			"inputs": [],
			"name": "currentRate",
			"outputs": [
				{
					"internalType": "uint256",
					"name": "",
					"type": "uint256"
				}
			],
			"stateMutability": "view",
			"type": "function"
		},
		{
			"inputs": [],
			"name": "electionEnd",
			"outputs": [
				{
					"internalType": "uint256",
					"name": "",
					"type": "uint256"
				}
			],
			"stateMutability": "view",
			"type": "function"
		},
		{
			"inputs": [],
			"name": "getBalance",
			"outputs": [
				{
					"internalType": "int256",
					"name": "_sum",
					"type": "int256"
				}
			],
			"stateMutability": "view",
			"type": "function"
		},
		{
			"inputs": [],
			"name": "getCurrentPhase",
			"outputs": [
				{
					"internalType": "enum Phase",
					"name": "",
					"type": "uint8"
				}
			],
			"stateMutability": "nonpayable",
			"type": "function"
		},
		{
			"inputs": [
				{
					"internalType": "uint256",
					"name": "",
					"type": "uint256"
				}
			],
			"name": "interestPeriods",
			"outputs": [
				{
					"internalType": "uint256",
					"name": "rate",
					"type": "uint256"
				},
				{
					"internalType": "uint256",
					"name": "startedAt",
					"type": "uint256"
				}
			],
			"stateMutability": "view",
			"type": "function"
		},
		{
			"inputs": [],
			"name": "lend",
			"outputs": [],
			"stateMutability": "payable",
			"type": "function"
		},
		{
			"inputs": [
				{
					"internalType": "address",
					"name": "",
					"type": "address"
				}
			],
			"name": "memberRank",
			"outputs": [
				{
					"internalType": "uint8",
					"name": "",
					"type": "uint8"
				}
			],
			"stateMutability": "view",
			"type": "function"
		},
		{
			"inputs": [],
			"name": "neutral",
			"outputs": [
				{
					"internalType": "address",
					"name": "",
					"type": "address"
				}
			],
			"stateMutability": "view",
			"type": "function"
		},
		{
			"inputs": [],
			"name": "noRates",
			"outputs": [
				{
					"internalType": "uint8",
					"name": "",
					"type": "uint8"
				}
			],
			"stateMutability": "view",
			"type": "function"
		},
		{
			"inputs": [
				{
					"internalType": "uint256",
					"name": "",
					"type": "uint256"
				}
			],
			"name": "proposals",
			"outputs": [
				{
					"internalType": "address",
					"name": "proposer",
					"type": "address"
				},
				{
					"internalType": "string",
					"name": "provisions",
					"type": "string"
				},
				{
					"internalType": "uint256",
					"name": "executedAt",
					"type": "uint256"
				},
				{
					"internalType": "bool",
					"name": "withdrawn",
					"type": "bool"
				},
				{
					"internalType": "uint8",
					"name": "yesVotes",
					"type": "uint8"
				}
			],
			"stateMutability": "view",
			"type": "function"
		},
		{
			"inputs": [
				{
					"internalType": "uint256",
					"name": "newRate",
					"type": "uint256"
				}
			],
			"name": "proposeRate",
			"outputs": [
				{
					"internalType": "uint8",
					"name": "newRank",
					"type": "uint8"
				}
			],
			"stateMutability": "nonpayable",
			"type": "function"
		},
		{
			"inputs": [],
			"name": "referendumEnd",
			"outputs": [
				{
					"internalType": "uint256",
					"name": "",
					"type": "uint256"
				}
			],
			"stateMutability": "view",
			"type": "function"
		},
		{
			"inputs": [
				{
					"internalType": "uint256",
					"name": "",
					"type": "uint256"
				}
			],
			"name": "sortedRates",
			"outputs": [
				{
					"internalType": "address",
					"name": "member",
					"type": "address"
				},
				{
					"internalType": "uint256",
					"name": "rate",
					"type": "uint256"
				}
			],
			"stateMutability": "view",
			"type": "function"
		},
		{
			"inputs": [],
			"name": "startTime",
			"outputs": [
				{
					"internalType": "uint256",
					"name": "",
					"type": "uint256"
				}
			],
			"stateMutability": "view",
			"type": "function"
		}
	]
}