{
	"data": {
		"bytecode": {
			"linkReferences": {},
			"object": "60a0604052606f805460ff19166032179055348015601b575f80fd5b5060805161127e6100345f395f61028d015261127e5ff3fe60806040526004361061013c575f3560e01c8063a3a40ea5116100b3578063ce7ea1611161006d578063ce7ea161146103ab578063e292bf16146103bf578063e965b7c9146103d3578063eab536fc14610407578063f33e957314610435578063f9f8bdb714610454575f80fd5b8063a3a40ea5146102f7578063b13c744b14610318578063bab752e514610337578063bdc8e7b31461034c578063be07f0f81461037d578063c8d7b9f114610392575f80fd5b80634d0c8726116101045780634d0c8726146101ff57806353fdc8381461023657806359297dbf1461026a57806378e979251461027c57806397dffc61146102af5780639dc99455146102b9575f80fd5b8063013cf08b1461014057806308fd4cfa1461017a57806312065fe01461019e5780631b408934146101b25780633def77b7146101ea575b5f80fd5b34801561014b575f80fd5b5061015f61015a366004610f3b565b610469565b60405161017196959493929190610f80565b60405180910390f35b348015610185575f80fd5b506101906212750081565b604051908152602001610171565b3480156101a9575f80fd5b50610190610543565b3480156101bd575f80fd5b506002546101d590600160a01b900463ffffffff1681565b60405163ffffffff9091168152602001610171565b3480156101f5575f80fd5b506101d56104b081565b34801561020a575f80fd5b5060025461021e906001600160a01b031681565b6040516001600160a01b039091168152602001610171565b348015610241575f80fd5b50610255610250366004610fe6565b6105b6565b60408051928352602083019190915201610171565b348015610275575f80fd5b5047610190565b348015610287575f80fd5b506101907f000000000000000000000000000000000000000000000000000000000000000081565b6102b76105ee565b005b3480156102c4575f80fd5b506102d86102d3366004610f3b565b610668565b604080516001600160a01b039093168352602083019190915201610171565b348015610302575f80fd5b5061030b610693565b604051610171919061100e565b348015610323575f80fd5b5061021e610332366004610f3b565b610765565b348015610342575f80fd5b5061019060065481565b348015610357575f80fd5b5061036b610366366004610f3b565b61078d565b60405160ff9091168152602001610171565b348015610388575f80fd5b5061019060015481565b34801561039d575f80fd5b50606f5461036b9060ff1681565b3480156103b6575f80fd5b506101905f5481565b3480156103ca575f80fd5b5061036b603281565b3480156103de575f80fd5b506103f26103ed366004611034565b610d38565b60405161017199989796959493929190611054565b348015610412575f80fd5b5061036b610421366004611034565b606e6020525f908152604090205460ff1681565b348015610440575f80fd5b5061025561044f366004610f3b565b610f0f565b34801561045f575f80fd5b5061019060075481565b60058181548110610478575f80fd5b5f918252602090912060079091020180546001820180546001600160a01b039092169350906104a6906110c3565b80601f01602080910402602001604051908101604052809291908181526020018280546104d2906110c3565b801561051d5780601f106104f45761010080835404028352916020019161051d565b820191905f5260205f20905b81548152906001019060200180831161050057829003601f168201915b505050506002830154600384015460048501546005909501549394919390925060ff1686565b5f805b335f9081526009602052604090205461ffff821610156105b257335f908152600960205260409020805461ffff8316908110610584576105846110fb565b905f5260205f2090600202015f01548261059e9190611123565b9150806105aa8161114a565b915050610546565b5090565b6009602052815f5260405f2081815481106105cf575f80fd5b5f91825260209091206002909102018054600190910154909250905082565b60408051808201825234808252426020808401918252335f818152600983528681208054600180820183559183529184902087516002909302019182559351930192909255935191825291927f976be468429698a1b0ae0c20a0329bdb6e24722a3f834a2c54b84d63c1722f32910160405180910390a250565b600a8160328110610677575f80fd5b6002020180546001909101546001600160a01b03909116915082565b5f6001544210156106a357505f90565b6106af6032600261116a565b60ff1660038054905010806106d557506002546104b0600160a01b90910463ffffffff16105b156106e457505f600181905590565b6001545f036107165742600181905561070190621275009061118d565b61070e906201518061118d565b5f5550600190565b60015f5461072491906111a6565b4210156107315750600190565b5f544210156107405750600290565b6006545f0361074f5750600390565b60065442101561075f5750600490565b50600590565b60038181548110610774575f80fd5b5f918252602090912001546001600160a01b0316905081565b335f908152600460205260408120600501546107f05760405162461bcd60e51b815260206004820152601860248201527f4f6e6c79206d656d626572732063616e2070726f706f7365000000000000000060448201526064015b60405180910390fd5b61138882111561082f5760405162461bcd60e51b815260206004820152600a60248201526952617465203e2035302560b01b60448201526064016107e7565b335f908152606e602052604081205460ff1681811580156108545750606f5460ff1615155b1561089557606f805460ff16905f61086b836111b9565b82546101009290920a60ff818102199093169183160217909155606f545f95501691506108b99050565b600a8260ff16603281106108ab576108ab6110fb565b600202016001015492508190505b82850361092b57845f036109235733600a8260ff16603281106108de576108de6110fb565b6002020180546001600160a01b0319166001600160a01b0392909216919091179055335f908152606e60205260409020805460ff191660ff8316179055949350505050565b509392505050565b82851115610a4b575b610940600160326111d4565b60ff168160ff1610801561097a5750600a61095c8260016111ed565b60ff166032811061096f5761096f6110fb565b600202016001015485115b15610a4657600a61098c8260016111ed565b60ff166032811061099f5761099f6110fb565b60020201600a8260ff16603281106109b9576109b96110fb565b82546002919091029190910180546001600160a01b0319166001600160a01b0390921691909117815560019182015491015580606e5f600a60ff841660328110610a0557610a056110fb565b60020201546001600160a01b0316815260208101919091526040015f20805460ff191660ff9290921691909117905580610a3e81611206565b915050610934565b610b4f565b5f8160ff16118015610a835750600a610a656001836111d4565b60ff1660328110610a7857610a786110fb565b600202016001015485105b15610b4f57600a610a956001836111d4565b60ff1660328110610aa857610aa86110fb565b60020201600a8260ff1660328110610ac257610ac26110fb565b82546002919091029190910180546001600160a01b0319166001600160a01b0390921691909117815560019182015491015580606e5f600a60ff841660328110610b0e57610b0e6110fb565b60020201546001600160a01b0316815260208101919091526040015f20805460ff191660ff9290921691909117905580610b47816111b9565b915050610a4b565b6040805180820190915233815260208101869052600a60ff831660328110610b7957610b796110fb565b82516002919091029190910180546001600160a01b0319166001600160a01b03909216919091178155602091820151600190910155335f818152606e8352604090819020805460ff191660ff8681169182179092558251888152918716948201949094529081018890526060810192909252907f1ce0beaec98d7537137a85c2d351c6c99900830d30fe8a7c353fa27225807e729060800160405180910390a2600a610c276002603261121b565b60ff1660328110610c3a57610c3a6110fb565b600202016001015460075414610d3057600a610c586002603261121b565b60ff1660328110610c6b57610c6b6110fb565b6001600291820292909201820154600781815560408051808201825292835242602084019081526008805496870181555f529251949093027ff3f7a9fe364faab93b216da50a3214154f22a0a2b415b23a84c8169e8b636ee381019490945590517ff3f7a9fe364faab93b216da50a3214154f22a0a2b415b23a84c8169e8b636ee490930192909255905490517fa90e14be5aa57b910aa6dc16c31ff1b5cda380ae25a793b0d3f74df6131a7d7491610d279190815260200190565b60405180910390a15b949350505050565b60046020525f9081526040902080548190610d52906110c3565b80601f0160208091040260200160405190810160405280929190818152602001828054610d7e906110c3565b8015610dc95780601f10610da057610100808354040283529160200191610dc9565b820191905f5260205f20905b815481529060010190602001808311610dac57829003601f168201915b505050505090806001018054610dde906110c3565b80601f0160208091040260200160405190810160405280929190818152602001828054610e0a906110c3565b8015610e555780601f10610e2c57610100808354040283529160200191610e55565b820191905f5260205f20905b815481529060010190602001808311610e3857829003601f168201915b505050505090806002018054610e6a906110c3565b80601f0160208091040260200160405190810160405280929190818152602001828054610e96906110c3565b8015610ee15780601f10610eb857610100808354040283529160200191610ee1565b820191905f5260205f20905b815481529060010190602001808311610ec457829003601f168201915b5050505050908060030154908060040154908060050154908060060154908060070154908060080154905089565b60088181548110610f1e575f80fd5b5f9182526020909120600290910201805460019091015490915082565b5f60208284031215610f4b575f80fd5b5035919050565b5f81518084528060208401602086015e5f602082860101526020601f19601f83011685010191505092915050565b6001600160a01b038716815260c0602082018190525f90610fa390830188610f52565b905085604083015284606083015283608083015260ff831660a0830152979650505050505050565b80356001600160a01b0381168114610fe1575f80fd5b919050565b5f8060408385031215610ff7575f80fd5b61100083610fcb565b946020939093013593505050565b602081016006831061102e57634e487b7160e01b5f52602160045260245ffd5b91905290565b5f60208284031215611044575f80fd5b61104d82610fcb565b9392505050565b61012081525f61106861012083018c610f52565b828103602084015261107a818c610f52565b9050828103604084015261108e818b610f52565b60608401999099525050608081019590955260a085019390935260c084019190915260e0830152610100909101529392505050565b600181811c908216806110d757607f821691505b6020821081036110f557634e487b7160e01b5f52602260045260245ffd5b50919050565b634e487b7160e01b5f52603260045260245ffd5b634e487b7160e01b5f52601160045260245ffd5b8082018281125f8312801582168215821617156111425761114261110f565b505092915050565b5f61ffff821661ffff81036111615761116161110f565b60010192915050565b60ff81811683821602908116908181146111865761118661110f565b5092915050565b808201808211156111a0576111a061110f565b92915050565b818103818111156111a0576111a061110f565b5f60ff8216806111cb576111cb61110f565b5f190192915050565b60ff82811682821603908111156111a0576111a061110f565b60ff81811683821601908111156111a0576111a061110f565b5f60ff821660ff81036111615761116161110f565b5f60ff83168061123957634e487b7160e01b5f52601260045260245ffd5b8060ff8416049150509291505056fea2646970667358221220ed7d08904095691e0a403707952ff3e32b147b0577a7f978d7aeecb179002c9864736f6c634300081a0033",
			"opcodes": "PUSH1 0xA0 PUSH1 0x40 MSTORE PUSH1 0x6F DUP1 SLOAD PUSH1 0xFF NOT AND PUSH1 0x32 OR SWAP1 SSTORE CALLVALUE DUP1 ISZERO PUSH1 0x1B JUMPI PUSH0 DUP1 REVERT JUMPDEST POP PUSH1 0x80 MLOAD PUSH2 0x127E PUSH2 0x34 PUSH0 CODECOPY PUSH0 PUSH2 0x28D ADD MSTORE PUSH2 0x127E PUSH0 RETURN INVALID PUSH1 0x80 PUSH1 0x40 MSTORE PUSH1 0x4 CALLDATASIZE LT PUSH2 0x13C JUMPI PUSH0 CALLDATALOAD PUSH1 0xE0 SHR DUP1 PUSH4 0xA3A40EA5 GT PUSH2 0xB3 JUMPI DUP1 PUSH4 0xCE7EA161 GT PUSH2 0x6D JUMPI DUP1 PUSH4 0xCE7EA161 EQ PUSH2 0x3AB JUMPI DUP1 PUSH4 0xE292BF16 EQ PUSH2 0x3BF JUMPI DUP1 PUSH4 0xE965B7C9 EQ PUSH2 0x3D3 JUMPI DUP1 PUSH4 0xEAB536FC EQ PUSH2 0x407 JUMPI DUP1 PUSH4 0xF33E9573 EQ PUSH2 0x435 JUMPI DUP1 PUSH4 0xF9F8BDB7 EQ PUSH2 0x454 JUMPI PUSH0 DUP1 REVERT JUMPDEST DUP1 PUSH4 0xA3A40EA5 EQ PUSH2 0x2F7 JUMPI DUP1 PUSH4 0xB13C744B EQ PUSH2 0x318 JUMPI DUP1 PUSH4 0xBAB752E5 EQ PUSH2 0x337 JUMPI DUP1 PUSH4 0xBDC8E7B3 EQ PUSH2 0x34C JUMPI DUP1 PUSH4 0xBE07F0F8 EQ PUSH2 0x37D JUMPI DUP1 PUSH4 0xC8D7B9F1 EQ PUSH2 0x392 JUMPI PUSH0 DUP1 REVERT JUMPDEST DUP1 PUSH4 0x4D0C8726 GT PUSH2 0x104 JUMPI DUP1 PUSH4 0x4D0C8726 EQ PUSH2 0x1FF JUMPI DUP1 PUSH4 0x53FDC838 EQ PUSH2 0x236 JUMPI DUP1 PUSH4 0x59297DBF EQ PUSH2 0x26A JUMPI DUP1 PUSH4 0x78E97925 EQ PUSH2 0x27C JUMPI DUP1 PUSH4 0x97DFFC61 EQ PUSH2 0x2AF JUMPI DUP1 PUSH4 0x9DC99455 EQ PUSH2 0x2B9 JUMPI PUSH0 DUP1 REVERT JUMPDEST DUP1 PUSH4 0x13CF08B EQ PUSH2 0x140 JUMPI DUP1 PUSH4 0x8FD4CFA EQ PUSH2 0x17A JUMPI DUP1 PUSH4 0x12065FE0 EQ PUSH2 0x19E JUMPI DUP1 PUSH4 0x1B408934 EQ PUSH2 0x1B2 JUMPI DUP1 PUSH4 0x3DEF77B7 EQ PUSH2 0x1EA JUMPI JUMPDEST PUSH0 DUP1 REVERT JUMPDEST CALLVALUE DUP1 ISZERO PUSH2 0x14B JUMPI PUSH0 DUP1 REVERT JUMPDEST POP PUSH2 0x15F PUSH2 0x15A CALLDATASIZE PUSH1 0x4 PUSH2 0xF3B JUMP JUMPDEST PUSH2 0x469 JUMP JUMPDEST PUSH1 0x40 MLOAD PUSH2 0x171 SWAP7 SWAP6 SWAP5 SWAP4 SWAP3 SWAP2 SWAP1 PUSH2 0xF80 JUMP JUMPDEST PUSH1 0x40 MLOAD DUP1 SWAP2 SUB SWAP1 RETURN JUMPDEST CALLVALUE DUP1 ISZERO PUSH2 0x185 JUMPI PUSH0 DUP1 REVERT JUMPDEST POP PUSH2 0x190 PUSH3 0x127500 DUP2 JUMP JUMPDEST PUSH1 0x40 MLOAD SWAP1 DUP2 MSTORE PUSH1 0x20 ADD PUSH2 0x171 JUMP JUMPDEST CALLVALUE DUP1 ISZERO PUSH2 0x1A9 JUMPI PUSH0 DUP1 REVERT JUMPDEST POP PUSH2 0x190 PUSH2 0x543 JUMP JUMPDEST CALLVALUE DUP1 ISZERO PUSH2 0x1BD JUMPI PUSH0 DUP1 REVERT JUMPDEST POP PUSH1 0x2 SLOAD PUSH2 0x1D5 SWAP1 PUSH1 0x1 PUSH1 0xA0 SHL SWAP1 DIV PUSH4 0xFFFFFFFF AND DUP2 JUMP JUMPDEST PUSH1 0x40 MLOAD PUSH4 0xFFFFFFFF SWAP1 SWAP2 AND DUP2 MSTORE PUSH1 0x20 ADD PUSH2 0x171 JUMP JUMPDEST CALLVALUE DUP1 ISZERO PUSH2 0x1F5 JUMPI PUSH0 DUP1 REVERT JUMPDEST POP PUSH2 0x1D5 PUSH2 0x4B0 DUP2 JUMP JUMPDEST CALLVALUE DUP1 ISZERO PUSH2 0x20A JUMPI PUSH0 DUP1 REVERT JUMPDEST POP PUSH1 0x2 SLOAD PUSH2 0x21E SWAP1 PUSH1 0x1 PUSH1 0x1 PUSH1 0xA0 SHL SUB AND DUP2 JUMP JUMPDEST PUSH1 0x40 MLOAD PUSH1 0x1 PUSH1 0x1 PUSH1 0xA0 SHL SUB SWAP1 SWAP2 AND DUP2 MSTORE PUSH1 0x20 ADD PUSH2 0x171 JUMP JUMPDEST CALLVALUE DUP1 ISZERO PUSH2 0x241 JUMPI PUSH0 DUP1 REVERT JUMPDEST POP PUSH2 0x255 PUSH2 0x250 CALLDATASIZE PUSH1 0x4 PUSH2 0xFE6 JUMP JUMPDEST PUSH2 0x5B6 JUMP JUMPDEST PUSH1 0x40 DUP1 MLOAD SWAP3 DUP4 MSTORE PUSH1 0x20 DUP4 ADD SWAP2 SWAP1 SWAP2 MSTORE ADD PUSH2 0x171 JUMP JUMPDEST CALLVALUE DUP1 ISZERO PUSH2 0x275 JUMPI PUSH0 DUP1 REVERT JUMPDEST POP SELFBALANCE PUSH2 0x190 JUMP JUMPDEST CALLVALUE DUP1 ISZERO PUSH2 0x287 JUMPI PUSH0 DUP1 REVERT JUMPDEST POP PUSH2 0x190 PUSH32 0x0 DUP2 JUMP JUMPDEST PUSH2 0x2B7 PUSH2 0x5EE JUMP JUMPDEST STOP JUMPDEST CALLVALUE DUP1 ISZERO PUSH2 0x2C4 JUMPI PUSH0 DUP1 REVERT JUMPDEST POP PUSH2 0x2D8 PUSH2 0x2D3 CALLDATASIZE PUSH1 0x4 PUSH2 0xF3B JUMP JUMPDEST PUSH2 0x668 JUMP JUMPDEST PUSH1 0x40 DUP1 MLOAD PUSH1 0x1 PUSH1 0x1 PUSH1 0xA0 SHL SUB SWAP1 SWAP4 AND DUP4 MSTORE PUSH1 0x20 DUP4 ADD SWAP2 SWAP1 SWAP2 MSTORE ADD PUSH2 0x171 JUMP JUMPDEST CALLVALUE DUP1 ISZERO PUSH2 0x302 JUMPI PUSH0 DUP1 REVERT JUMPDEST POP PUSH2 0x30B PUSH2 0x693 JUMP JUMPDEST PUSH1 0x40 MLOAD PUSH2 0x171 SWAP2 SWAP1 PUSH2 0x100E JUMP JUMPDEST CALLVALUE DUP1 ISZERO PUSH2 0x323 JUMPI PUSH0 DUP1 REVERT JUMPDEST POP PUSH2 0x21E PUSH2 0x332 CALLDATASIZE PUSH1 0x4 PUSH2 0xF3B JUMP JUMPDEST PUSH2 0x765 JUMP JUMPDEST CALLVALUE DUP1 ISZERO PUSH2 0x342 JUMPI PUSH0 DUP1 REVERT JUMPDEST POP PUSH2 0x190 PUSH1 0x6 SLOAD DUP2 JUMP JUMPDEST CALLVALUE DUP1 ISZERO PUSH2 0x357 JUMPI PUSH0 DUP1 REVERT JUMPDEST POP PUSH2 0x36B PUSH2 0x366 CALLDATASIZE PUSH1 0x4 PUSH2 0xF3B JUMP JUMPDEST PUSH2 0x78D JUMP JUMPDEST PUSH1 0x40 MLOAD PUSH1 0xFF SWAP1 SWAP2 AND DUP2 MSTORE PUSH1 0x20 ADD PUSH2 0x171 JUMP JUMPDEST CALLVALUE DUP1 ISZERO PUSH2 0x388 JUMPI PUSH0 DUP1 REVERT JUMPDEST POP PUSH2 0x190 PUSH1 0x1 SLOAD DUP2 JUMP JUMPDEST CALLVALUE DUP1 ISZERO PUSH2 0x39D JUMPI PUSH0 DUP1 REVERT JUMPDEST POP PUSH1 0x6F SLOAD PUSH2 0x36B SWAP1 PUSH1 0xFF AND DUP2 JUMP JUMPDEST CALLVALUE DUP1 ISZERO PUSH2 0x3B6 JUMPI PUSH0 DUP1 REVERT JUMPDEST POP PUSH2 0x190 PUSH0 SLOAD DUP2 JUMP JUMPDEST CALLVALUE DUP1 ISZERO PUSH2 0x3CA JUMPI PUSH0 DUP1 REVERT JUMPDEST POP PUSH2 0x36B PUSH1 0x32 DUP2 JUMP JUMPDEST CALLVALUE DUP1 ISZERO PUSH2 0x3DE JUMPI PUSH0 DUP1 REVERT JUMPDEST POP PUSH2 0x3F2 PUSH2 0x3ED CALLDATASIZE PUSH1 0x4 PUSH2 0x1034 JUMP JUMPDEST PUSH2 0xD38 JUMP JUMPDEST PUSH1 0x40 MLOAD PUSH2 0x171 SWAP10 SWAP9 SWAP8 SWAP7 SWAP6 SWAP5 SWAP4 SWAP3 SWAP2 SWAP1 PUSH2 0x1054 JUMP JUMPDEST CALLVALUE DUP1 ISZERO PUSH2 0x412 JUMPI PUSH0 DUP1 REVERT JUMPDEST POP PUSH2 0x36B PUSH2 0x421 CALLDATASIZE PUSH1 0x4 PUSH2 0x1034 JUMP JUMPDEST PUSH1 0x6E PUSH1 0x20 MSTORE PUSH0 SWAP1 DUP2 MSTORE PUSH1 0x40 SWAP1 KECCAK256 SLOAD PUSH1 0xFF AND DUP2 JUMP JUMPDEST CALLVALUE DUP1 ISZERO PUSH2 0x440 JUMPI PUSH0 DUP1 REVERT JUMPDEST POP PUSH2 0x255 PUSH2 0x44F CALLDATASIZE PUSH1 0x4 PUSH2 0xF3B JUMP JUMPDEST PUSH2 0xF0F JUMP JUMPDEST CALLVALUE DUP1 ISZERO PUSH2 0x45F JUMPI PUSH0 DUP1 REVERT JUMPDEST POP PUSH2 0x190 PUSH1 0x7 SLOAD DUP2 JUMP JUMPDEST PUSH1 0x5 DUP2 DUP2 SLOAD DUP2 LT PUSH2 0x478 JUMPI PUSH0 DUP1 REVERT JUMPDEST PUSH0 SWAP2 DUP3 MSTORE PUSH1 0x20 SWAP1 SWAP2 KECCAK256 PUSH1 0x7 SWAP1 SWAP2 MUL ADD DUP1 SLOAD PUSH1 0x1 DUP3 ADD DUP1 SLOAD PUSH1 0x1 PUSH1 0x1 PUSH1 0xA0 SHL SUB SWAP1 SWAP3 AND SWAP4 POP SWAP1 PUSH2 0x4A6 SWAP1 PUSH2 0x10C3 JUMP JUMPDEST DUP1 PUSH1 0x1F ADD PUSH1 0x20 DUP1 SWAP2 DIV MUL PUSH1 0x20 ADD PUSH1 0x40 MLOAD SWAP1 DUP2 ADD PUSH1 0x40 MSTORE DUP1 SWAP3 SWAP2 SWAP1 DUP2 DUP2 MSTORE PUSH1 0x20 ADD DUP3 DUP1 SLOAD PUSH2 0x4D2 SWAP1 PUSH2 0x10C3 JUMP JUMPDEST DUP1 ISZERO PUSH2 0x51D JUMPI DUP1 PUSH1 0x1F LT PUSH2 0x4F4 JUMPI PUSH2 0x100 DUP1 DUP4 SLOAD DIV MUL DUP4 MSTORE SWAP2 PUSH1 0x20 ADD SWAP2 PUSH2 0x51D JUMP JUMPDEST DUP3 ADD SWAP2 SWAP1 PUSH0 MSTORE PUSH1 0x20 PUSH0 KECCAK256 SWAP1 JUMPDEST DUP2 SLOAD DUP2 MSTORE SWAP1 PUSH1 0x1 ADD SWAP1 PUSH1 0x20 ADD DUP1 DUP4 GT PUSH2 0x500 JUMPI DUP3 SWAP1 SUB PUSH1 0x1F AND DUP3 ADD SWAP2 JUMPDEST POP POP POP POP PUSH1 0x2 DUP4 ADD SLOAD PUSH1 0x3 DUP5 ADD SLOAD PUSH1 0x4 DUP6 ADD SLOAD PUSH1 0x5 SWAP1 SWAP6 ADD SLOAD SWAP4 SWAP5 SWAP2 SWAP4 SWAP1 SWAP3 POP PUSH1 0xFF AND DUP7 JUMP JUMPDEST PUSH0 DUP1 JUMPDEST CALLER PUSH0 SWAP1 DUP2 MSTORE PUSH1 0x9 PUSH1 0x20 MSTORE PUSH1 0x40 SWAP1 KECCAK256 SLOAD PUSH2 0xFFFF DUP3 AND LT ISZERO PUSH2 0x5B2 JUMPI CALLER PUSH0 SWAP1 DUP2 MSTORE PUSH1 0x9 PUSH1 0x20 MSTORE PUSH1 0x40 SWAP1 KECCAK256 DUP1 SLOAD PUSH2 0xFFFF DUP4 AND SWAP1 DUP2 LT PUSH2 0x584 JUMPI PUSH2 0x584 PUSH2 0x10FB JUMP JUMPDEST SWAP1 PUSH0 MSTORE PUSH1 0x20 PUSH0 KECCAK256 SWAP1 PUSH1 0x2 MUL ADD PUSH0 ADD SLOAD DUP3 PUSH2 0x59E SWAP2 SWAP1 PUSH2 0x1123 JUMP JUMPDEST SWAP2 POP DUP1 PUSH2 0x5AA DUP2 PUSH2 0x114A JUMP JUMPDEST SWAP2 POP POP PUSH2 0x546 JUMP JUMPDEST POP SWAP1 JUMP JUMPDEST PUSH1 0x9 PUSH1 0x20 MSTORE DUP2 PUSH0 MSTORE PUSH1 0x40 PUSH0 KECCAK256 DUP2 DUP2 SLOAD DUP2 LT PUSH2 0x5CF JUMPI PUSH0 DUP1 REVERT JUMPDEST PUSH0 SWAP2 DUP3 MSTORE PUSH1 0x20 SWAP1 SWAP2 KECCAK256 PUSH1 0x2 SWAP1 SWAP2 MUL ADD DUP1 SLOAD PUSH1 0x1 SWAP1 SWAP2 ADD SLOAD SWAP1 SWAP3 POP SWAP1 POP DUP3 JUMP JUMPDEST PUSH1 0x40 DUP1 MLOAD DUP1 DUP3 ADD DUP3 MSTORE CALLVALUE DUP1 DUP3 MSTORE TIMESTAMP PUSH1 0x20 DUP1 DUP5 ADD SWAP2 DUP3 MSTORE CALLER PUSH0 DUP2 DUP2 MSTORE PUSH1 0x9 DUP4 MSTORE DUP7 DUP2 KECCAK256 DUP1 SLOAD PUSH1 0x1 DUP1 DUP3 ADD DUP4 SSTORE SWAP2 DUP4 MSTORE SWAP2 DUP5 SWAP1 KECCAK256 DUP8 MLOAD PUSH1 0x2 SWAP1 SWAP4 MUL ADD SWAP2 DUP3 SSTORE SWAP4 MLOAD SWAP4 ADD SWAP3 SWAP1 SWAP3 SSTORE SWAP4 MLOAD SWAP2 DUP3 MSTORE SWAP2 SWAP3 PUSH32 0x976BE468429698A1B0AE0C20A0329BDB6E24722A3F834A2C54B84D63C1722F32 SWAP2 ADD PUSH1 0x40 MLOAD DUP1 SWAP2 SUB SWAP1 LOG2 POP JUMP JUMPDEST PUSH1 0xA DUP2 PUSH1 0x32 DUP2 LT PUSH2 0x677 JUMPI PUSH0 DUP1 REVERT JUMPDEST PUSH1 0x2 MUL ADD DUP1 SLOAD PUSH1 0x1 SWAP1 SWAP2 ADD SLOAD PUSH1 0x1 PUSH1 0x1 PUSH1 0xA0 SHL SUB SWAP1 SWAP2 AND SWAP2 POP DUP3 JUMP JUMPDEST PUSH0 PUSH1 0x1 SLOAD TIMESTAMP LT ISZERO PUSH2 0x6A3 JUMPI POP PUSH0 SWAP1 JUMP JUMPDEST PUSH2 0x6AF PUSH1 0x32 PUSH1 0x2 PUSH2 0x116A JUMP JUMPDEST PUSH1 0xFF AND PUSH1 0x3 DUP1 SLOAD SWAP1 POP LT DUP1 PUSH2 0x6D5 JUMPI POP PUSH1 0x2 SLOAD PUSH2 0x4B0 PUSH1 0x1 PUSH1 0xA0 SHL SWAP1 SWAP2 DIV PUSH4 0xFFFFFFFF AND LT JUMPDEST ISZERO PUSH2 0x6E4 JUMPI POP PUSH0 PUSH1 0x1 DUP2 SWAP1 SSTORE SWAP1 JUMP JUMPDEST PUSH1 0x1 SLOAD PUSH0 SUB PUSH2 0x716 JUMPI TIMESTAMP PUSH1 0x1 DUP2 SWAP1 SSTORE PUSH2 0x701 SWAP1 PUSH3 0x127500 SWAP1 PUSH2 0x118D JUMP JUMPDEST PUSH2 0x70E SWAP1 PUSH3 0x15180 PUSH2 0x118D JUMP JUMPDEST PUSH0 SSTORE POP PUSH1 0x1 SWAP1 JUMP JUMPDEST PUSH1 0x1 PUSH0 SLOAD PUSH2 0x724 SWAP2 SWAP1 PUSH2 0x11A6 JUMP JUMPDEST TIMESTAMP LT ISZERO PUSH2 0x731 JUMPI POP PUSH1 0x1 SWAP1 JUMP JUMPDEST PUSH0 SLOAD TIMESTAMP LT ISZERO PUSH2 0x740 JUMPI POP PUSH1 0x2 SWAP1 JUMP JUMPDEST PUSH1 0x6 SLOAD PUSH0 SUB PUSH2 0x74F JUMPI POP PUSH1 0x3 SWAP1 JUMP JUMPDEST PUSH1 0x6 SLOAD TIMESTAMP LT ISZERO PUSH2 0x75F JUMPI POP PUSH1 0x4 SWAP1 JUMP JUMPDEST POP PUSH1 0x5 SWAP1 JUMP JUMPDEST PUSH1 0x3 DUP2 DUP2 SLOAD DUP2 LT PUSH2 0x774 JUMPI PUSH0 DUP1 REVERT JUMPDEST PUSH0 SWAP2 DUP3 MSTORE PUSH1 0x20 SWAP1 SWAP2 KECCAK256 ADD SLOAD PUSH1 0x1 PUSH1 0x1 PUSH1 0xA0 SHL SUB AND SWAP1 POP DUP2 JUMP JUMPDEST CALLER PUSH0 SWAP1 DUP2 MSTORE PUSH1 0x4 PUSH1 0x20 MSTORE PUSH1 0x40 DUP2 KECCAK256 PUSH1 0x5 ADD SLOAD PUSH2 0x7F0 JUMPI PUSH1 0x40 MLOAD PUSH3 0x461BCD PUSH1 0xE5 SHL DUP2 MSTORE PUSH1 0x20 PUSH1 0x4 DUP3 ADD MSTORE PUSH1 0x18 PUSH1 0x24 DUP3 ADD MSTORE PUSH32 0x4F6E6C79206D656D626572732063616E2070726F706F73650000000000000000 PUSH1 0x44 DUP3 ADD MSTORE PUSH1 0x64 ADD JUMPDEST PUSH1 0x40 MLOAD DUP1 SWAP2 SUB SWAP1 REVERT JUMPDEST PUSH2 0x1388 DUP3 GT ISZERO PUSH2 0x82F JUMPI PUSH1 0x40 MLOAD PUSH3 0x461BCD PUSH1 0xE5 SHL DUP2 MSTORE PUSH1 0x20 PUSH1 0x4 DUP3 ADD MSTORE PUSH1 0xA PUSH1 0x24 DUP3 ADD MSTORE PUSH10 0x52617465203E20353025 PUSH1 0xB0 SHL PUSH1 0x44 DUP3 ADD MSTORE PUSH1 0x64 ADD PUSH2 0x7E7 JUMP JUMPDEST CALLER PUSH0 SWAP1 DUP2 MSTORE PUSH1 0x6E PUSH1 0x20 MSTORE PUSH1 0x40 DUP2 KECCAK256 SLOAD PUSH1 0xFF AND DUP2 DUP2 ISZERO DUP1 ISZERO PUSH2 0x854 JUMPI POP PUSH1 0x6F SLOAD PUSH1 0xFF AND ISZERO ISZERO JUMPDEST ISZERO PUSH2 0x895 JUMPI PUSH1 0x6F DUP1 SLOAD PUSH1 0xFF AND SWAP1 PUSH0 PUSH2 0x86B DUP4 PUSH2 0x11B9 JUMP JUMPDEST DUP3 SLOAD PUSH2 0x100 SWAP3 SWAP1 SWAP3 EXP PUSH1 0xFF DUP2 DUP2 MUL NOT SWAP1 SWAP4 AND SWAP2 DUP4 AND MUL OR SWAP1 SWAP2 SSTORE PUSH1 0x6F SLOAD PUSH0 SWAP6 POP AND SWAP2 POP PUSH2 0x8B9 SWAP1 POP JUMP JUMPDEST PUSH1 0xA DUP3 PUSH1 0xFF AND PUSH1 0x32 DUP2 LT PUSH2 0x8AB JUMPI PUSH2 0x8AB PUSH2 0x10FB JUMP JUMPDEST PUSH1 0x2 MUL ADD PUSH1 0x1 ADD SLOAD SWAP3 POP DUP2 SWAP1 POP JUMPDEST DUP3 DUP6 SUB PUSH2 0x92B JUMPI DUP5 PUSH0 SUB PUSH2 0x923 JUMPI CALLER PUSH1 0xA DUP3 PUSH1 0xFF AND PUSH1 0x32 DUP2 LT PUSH2 0x8DE JUMPI PUSH2 0x8DE PUSH2 0x10FB JUMP JUMPDEST PUSH1 0x2 MUL ADD DUP1 SLOAD PUSH1 0x1 PUSH1 0x1 PUSH1 0xA0 SHL SUB NOT AND PUSH1 0x1 PUSH1 0x1 PUSH1 0xA0 SHL SUB SWAP3 SWAP1 SWAP3 AND SWAP2 SWAP1 SWAP2 OR SWAP1 SSTORE CALLER PUSH0 SWAP1 DUP2 MSTORE PUSH1 0x6E PUSH1 0x20 MSTORE PUSH1 0x40 SWAP1 KECCAK256 DUP1 SLOAD PUSH1 0xFF NOT AND PUSH1 0xFF DUP4 AND OR SWAP1 SSTORE SWAP5 SWAP4 POP POP POP POP JUMP JUMPDEST POP SWAP4 SWAP3 POP POP POP JUMP JUMPDEST DUP3 DUP6 GT ISZERO PUSH2 0xA4B JUMPI JUMPDEST PUSH2 0x940 PUSH1 0x1 PUSH1 0x32 PUSH2 0x11D4 JUMP JUMPDEST PUSH1 0xFF AND DUP2 PUSH1 0xFF AND LT DUP1 ISZERO PUSH2 0x97A JUMPI POP PUSH1 0xA PUSH2 0x95C DUP3 PUSH1 0x1 PUSH2 0x11ED JUMP JUMPDEST PUSH1 0xFF AND PUSH1 0x32 DUP2 LT PUSH2 0x96F JUMPI PUSH2 0x96F PUSH2 0x10FB JUMP JUMPDEST PUSH1 0x2 MUL ADD PUSH1 0x1 ADD SLOAD DUP6 GT JUMPDEST ISZERO PUSH2 0xA46 JUMPI PUSH1 0xA PUSH2 0x98C DUP3 PUSH1 0x1 PUSH2 0x11ED JUMP JUMPDEST PUSH1 0xFF AND PUSH1 0x32 DUP2 LT PUSH2 0x99F JUMPI PUSH2 0x99F PUSH2 0x10FB JUMP JUMPDEST PUSH1 0x2 MUL ADD PUSH1 0xA DUP3 PUSH1 0xFF AND PUSH1 0x32 DUP2 LT PUSH2 0x9B9 JUMPI PUSH2 0x9B9 PUSH2 0x10FB JUMP JUMPDEST DUP3 SLOAD PUSH1 0x2 SWAP2 SWAP1 SWAP2 MUL SWAP2 SWAP1 SWAP2 ADD DUP1 SLOAD PUSH1 0x1 PUSH1 0x1 PUSH1 0xA0 SHL SUB NOT AND PUSH1 0x1 PUSH1 0x1 PUSH1 0xA0 SHL SUB SWAP1 SWAP3 AND SWAP2 SWAP1 SWAP2 OR DUP2 SSTORE PUSH1 0x1 SWAP2 DUP3 ADD SLOAD SWAP2 ADD SSTORE DUP1 PUSH1 0x6E PUSH0 PUSH1 0xA PUSH1 0xFF DUP5 AND PUSH1 0x32 DUP2 LT PUSH2 0xA05 JUMPI PUSH2 0xA05 PUSH2 0x10FB JUMP JUMPDEST PUSH1 0x2 MUL ADD SLOAD PUSH1 0x1 PUSH1 0x1 PUSH1 0xA0 SHL SUB AND DUP2 MSTORE PUSH1 0x20 DUP2 ADD SWAP2 SWAP1 SWAP2 MSTORE PUSH1 0x40 ADD PUSH0 KECCAK256 DUP1 SLOAD PUSH1 0xFF NOT AND PUSH1 0xFF SWAP3 SWAP1 SWAP3 AND SWAP2 SWAP1 SWAP2 OR SWAP1 SSTORE DUP1 PUSH2 0xA3E DUP2 PUSH2 0x1206 JUMP JUMPDEST SWAP2 POP POP PUSH2 0x934 JUMP JUMPDEST PUSH2 0xB4F JUMP JUMPDEST PUSH0 DUP2 PUSH1 0xFF AND GT DUP1 ISZERO PUSH2 0xA83 JUMPI POP PUSH1 0xA PUSH2 0xA65 PUSH1 0x1 DUP4 PUSH2 0x11D4 JUMP JUMPDEST PUSH1 0xFF AND PUSH1 0x32 DUP2 LT PUSH2 0xA78 JUMPI PUSH2 0xA78 PUSH2 0x10FB JUMP JUMPDEST PUSH1 0x2 MUL ADD PUSH1 0x1 ADD SLOAD DUP6 LT JUMPDEST ISZERO PUSH2 0xB4F JUMPI PUSH1 0xA PUSH2 0xA95 PUSH1 0x1 DUP4 PUSH2 0x11D4 JUMP JUMPDEST PUSH1 0xFF AND PUSH1 0x32 DUP2 LT PUSH2 0xAA8 JUMPI PUSH2 0xAA8 PUSH2 0x10FB JUMP JUMPDEST PUSH1 0x2 MUL ADD PUSH1 0xA DUP3 PUSH1 0xFF AND PUSH1 0x32 DUP2 LT PUSH2 0xAC2 JUMPI PUSH2 0xAC2 PUSH2 0x10FB JUMP JUMPDEST DUP3 SLOAD PUSH1 0x2 SWAP2 SWAP1 SWAP2 MUL SWAP2 SWAP1 SWAP2 ADD DUP1 SLOAD PUSH1 0x1 PUSH1 0x1 PUSH1 0xA0 SHL SUB NOT AND PUSH1 0x1 PUSH1 0x1 PUSH1 0xA0 SHL SUB SWAP1 SWAP3 AND SWAP2 SWAP1 SWAP2 OR DUP2 SSTORE PUSH1 0x1 SWAP2 DUP3 ADD SLOAD SWAP2 ADD SSTORE DUP1 PUSH1 0x6E PUSH0 PUSH1 0xA PUSH1 0xFF DUP5 AND PUSH1 0x32 DUP2 LT PUSH2 0xB0E JUMPI PUSH2 0xB0E PUSH2 0x10FB JUMP JUMPDEST PUSH1 0x2 MUL ADD SLOAD PUSH1 0x1 PUSH1 0x1 PUSH1 0xA0 SHL SUB AND DUP2 MSTORE PUSH1 0x20 DUP2 ADD SWAP2 SWAP1 SWAP2 MSTORE PUSH1 0x40 ADD PUSH0 KECCAK256 DUP1 SLOAD PUSH1 0xFF NOT AND PUSH1 0xFF SWAP3 SWAP1 SWAP3 AND SWAP2 SWAP1 SWAP2 OR SWAP1 SSTORE DUP1 PUSH2 0xB47 DUP2 PUSH2 0x11B9 JUMP JUMPDEST SWAP2 POP POP PUSH2 0xA4B JUMP JUMPDEST PUSH1 0x40 DUP1 MLOAD DUP1 DUP3 ADD SWAP1 SWAP2 MSTORE CALLER DUP2 MSTORE PUSH1 0x20 DUP2 ADD DUP7 SWAP1 MSTORE PUSH1 0xA PUSH1 0xFF DUP4 AND PUSH1 0x32 DUP2 LT PUSH2 0xB79 JUMPI PUSH2 0xB79 PUSH2 0x10FB JUMP JUMPDEST DUP3 MLOAD PUSH1 0x2 SWAP2 SWAP1 SWAP2 MUL SWAP2 SWAP1 SWAP2 ADD DUP1 SLOAD PUSH1 0x1 PUSH1 0x1 PUSH1 0xA0 SHL SUB NOT AND PUSH1 0x1 PUSH1 0x1 PUSH1 0xA0 SHL SUB SWAP1 SWAP3 AND SWAP2 SWAP1 SWAP2 OR DUP2 SSTORE PUSH1 0x20 SWAP2 DUP3 ADD MLOAD PUSH1 0x1 SWAP1 SWAP2 ADD SSTORE CALLER PUSH0 DUP2 DUP2 MSTORE PUSH1 0x6E DUP4 MSTORE PUSH1 0x40 SWAP1 DUP2 SWAP1 KECCAK256 DUP1 SLOAD PUSH1 0xFF NOT AND PUSH1 0xFF DUP7 DUP2 AND SWAP2 DUP3 OR SWAP1 SWAP3 SSTORE DUP3 MLOAD DUP9 DUP2 MSTORE SWAP2 DUP8 AND SWAP5 DUP3 ADD SWAP5 SWAP1 SWAP5 MSTORE SWAP1 DUP2 ADD DUP9 SWAP1 MSTORE PUSH1 0x60 DUP2 ADD SWAP3 SWAP1 SWAP3 MSTORE SWAP1 PUSH32 0x1CE0BEAEC98D7537137A85C2D351C6C99900830D30FE8A7C353FA27225807E72 SWAP1 PUSH1 0x80 ADD PUSH1 0x40 MLOAD DUP1 SWAP2 SUB SWAP1 LOG2 PUSH1 0xA PUSH2 0xC27 PUSH1 0x2 PUSH1 0x32 PUSH2 0x121B JUMP JUMPDEST PUSH1 0xFF AND PUSH1 0x32 DUP2 LT PUSH2 0xC3A JUMPI PUSH2 0xC3A PUSH2 0x10FB JUMP JUMPDEST PUSH1 0x2 MUL ADD PUSH1 0x1 ADD SLOAD PUSH1 0x7 SLOAD EQ PUSH2 0xD30 JUMPI PUSH1 0xA PUSH2 0xC58 PUSH1 0x2 PUSH1 0x32 PUSH2 0x121B JUMP JUMPDEST PUSH1 0xFF AND PUSH1 0x32 DUP2 LT PUSH2 0xC6B JUMPI PUSH2 0xC6B PUSH2 0x10FB JUMP JUMPDEST PUSH1 0x1 PUSH1 0x2 SWAP2 DUP3 MUL SWAP3 SWAP1 SWAP3 ADD DUP3 ADD SLOAD PUSH1 0x7 DUP2 DUP2 SSTORE PUSH1 0x40 DUP1 MLOAD DUP1 DUP3 ADD DUP3 MSTORE SWAP3 DUP4 MSTORE TIMESTAMP PUSH1 0x20 DUP5 ADD SWAP1 DUP2 MSTORE PUSH1 0x8 DUP1 SLOAD SWAP7 DUP8 ADD DUP2 SSTORE PUSH0 MSTORE SWAP3 MLOAD SWAP5 SWAP1 SWAP4 MUL PUSH32 0xF3F7A9FE364FAAB93B216DA50A3214154F22A0A2B415B23A84C8169E8B636EE3 DUP2 ADD SWAP5 SWAP1 SWAP5 SSTORE SWAP1 MLOAD PUSH32 0xF3F7A9FE364FAAB93B216DA50A3214154F22A0A2B415B23A84C8169E8B636EE4 SWAP1 SWAP4 ADD SWAP3 SWAP1 SWAP3 SSTORE SWAP1 SLOAD SWAP1 MLOAD PUSH32 0xA90E14BE5AA57B910AA6DC16C31FF1B5CDA380AE25A793B0D3F74DF6131A7D74 SWAP2 PUSH2 0xD27 SWAP2 SWAP1 DUP2 MSTORE PUSH1 0x20 ADD SWAP1 JUMP JUMPDEST PUSH1 0x40 MLOAD DUP1 SWAP2 SUB SWAP1 LOG1 JUMPDEST SWAP5 SWAP4 POP POP POP POP JUMP JUMPDEST PUSH1 0x4 PUSH1 0x20 MSTORE PUSH0 SWAP1 DUP2 MSTORE PUSH1 0x40 SWAP1 KECCAK256 DUP1 SLOAD DUP2 SWAP1 PUSH2 0xD52 SWAP1 PUSH2 0x10C3 JUMP JUMPDEST DUP1 PUSH1 0x1F ADD PUSH1 0x20 DUP1 SWAP2 DIV MUL PUSH1 0x20 ADD PUSH1 0x40 MLOAD SWAP1 DUP2 ADD PUSH1 0x40 MSTORE DUP1 SWAP3 SWAP2 SWAP1 DUP2 DUP2 MSTORE PUSH1 0x20 ADD DUP3 DUP1 SLOAD PUSH2 0xD7E SWAP1 PUSH2 0x10C3 JUMP JUMPDEST DUP1 ISZERO PUSH2 0xDC9 JUMPI DUP1 PUSH1 0x1F LT PUSH2 0xDA0 JUMPI PUSH2 0x100 DUP1 DUP4 SLOAD DIV MUL DUP4 MSTORE SWAP2 PUSH1 0x20 ADD SWAP2 PUSH2 0xDC9 JUMP JUMPDEST DUP3 ADD SWAP2 SWAP1 PUSH0 MSTORE PUSH1 0x20 PUSH0 KECCAK256 SWAP1 JUMPDEST DUP2 SLOAD DUP2 MSTORE SWAP1 PUSH1 0x1 ADD SWAP1 PUSH1 0x20 ADD DUP1 DUP4 GT PUSH2 0xDAC JUMPI DUP3 SWAP1 SUB PUSH1 0x1F AND DUP3 ADD SWAP2 JUMPDEST POP POP POP POP POP SWAP1 DUP1 PUSH1 0x1 ADD DUP1 SLOAD PUSH2 0xDDE SWAP1 PUSH2 0x10C3 JUMP JUMPDEST DUP1 PUSH1 0x1F ADD PUSH1 0x20 DUP1 SWAP2 DIV MUL PUSH1 0x20 ADD PUSH1 0x40 MLOAD SWAP1 DUP2 ADD PUSH1 0x40 MSTORE DUP1 SWAP3 SWAP2 SWAP1 DUP2 DUP2 MSTORE PUSH1 0x20 ADD DUP3 DUP1 SLOAD PUSH2 0xE0A SWAP1 PUSH2 0x10C3 JUMP JUMPDEST DUP1 ISZERO PUSH2 0xE55 JUMPI DUP1 PUSH1 0x1F LT PUSH2 0xE2C JUMPI PUSH2 0x100 DUP1 DUP4 SLOAD DIV MUL DUP4 MSTORE SWAP2 PUSH1 0x20 ADD SWAP2 PUSH2 0xE55 JUMP JUMPDEST DUP3 ADD SWAP2 SWAP1 PUSH0 MSTORE PUSH1 0x20 PUSH0 KECCAK256 SWAP1 JUMPDEST DUP2 SLOAD DUP2 MSTORE SWAP1 PUSH1 0x1 ADD SWAP1 PUSH1 0x20 ADD DUP1 DUP4 GT PUSH2 0xE38 JUMPI DUP3 SWAP1 SUB PUSH1 0x1F AND DUP3 ADD SWAP2 JUMPDEST POP POP POP POP POP SWAP1 DUP1 PUSH1 0x2 ADD DUP1 SLOAD PUSH2 0xE6A SWAP1 PUSH2 0x10C3 JUMP JUMPDEST DUP1 PUSH1 0x1F ADD PUSH1 0x20 DUP1 SWAP2 DIV MUL PUSH1 0x20 ADD PUSH1 0x40 MLOAD SWAP1 DUP2 ADD PUSH1 0x40 MSTORE DUP1 SWAP3 SWAP2 SWAP1 DUP2 DUP2 MSTORE PUSH1 0x20 ADD DUP3 DUP1 SLOAD PUSH2 0xE96 SWAP1 PUSH2 0x10C3 JUMP JUMPDEST DUP1 ISZERO PUSH2 0xEE1 JUMPI DUP1 PUSH1 0x1F LT PUSH2 0xEB8 JUMPI PUSH2 0x100 DUP1 DUP4 SLOAD DIV MUL DUP4 MSTORE SWAP2 PUSH1 0x20 ADD SWAP2 PUSH2 0xEE1 JUMP JUMPDEST DUP3 ADD SWAP2 SWAP1 PUSH0 MSTORE PUSH1 0x20 PUSH0 KECCAK256 SWAP1 JUMPDEST DUP2 SLOAD DUP2 MSTORE SWAP1 PUSH1 0x1 ADD SWAP1 PUSH1 0x20 ADD DUP1 DUP4 GT PUSH2 0xEC4 JUMPI DUP3 SWAP1 SUB PUSH1 0x1F AND DUP3 ADD SWAP2 JUMPDEST POP POP POP POP POP SWAP1 DUP1 PUSH1 0x3 ADD SLOAD SWAP1 DUP1 PUSH1 0x4 ADD SLOAD SWAP1 DUP1 PUSH1 0x5 ADD SLOAD SWAP1 DUP1 PUSH1 0x6 ADD SLOAD SWAP1 DUP1 PUSH1 0x7 ADD SLOAD SWAP1 DUP1 PUSH1 0x8 ADD SLOAD SWAP1 POP DUP10 JUMP JUMPDEST PUSH1 0x8 DUP2 DUP2 SLOAD DUP2 LT PUSH2 0xF1E JUMPI PUSH0 DUP1 REVERT JUMPDEST PUSH0 SWAP2 DUP3 MSTORE PUSH1 0x20 SWAP1 SWAP2 KECCAK256 PUSH1 0x2 SWAP1 SWAP2 MUL ADD DUP1 SLOAD PUSH1 0x1 SWAP1 SWAP2 ADD SLOAD SWAP1 SWAP2 POP DUP3 JUMP JUMPDEST PUSH0 PUSH1 0x20 DUP3 DUP5 SUB SLT ISZERO PUSH2 0xF4B JUMPI PUSH0 DUP1 REVERT JUMPDEST POP CALLDATALOAD SWAP2 SWAP1 POP JUMP JUMPDEST PUSH0 DUP2 MLOAD DUP1 DUP5 MSTORE DUP1 PUSH1 0x20 DUP5 ADD PUSH1 0x20 DUP7 ADD MCOPY PUSH0 PUSH1 0x20 DUP3 DUP7 ADD ADD MSTORE PUSH1 0x20 PUSH1 0x1F NOT PUSH1 0x1F DUP4 ADD AND DUP6 ADD ADD SWAP2 POP POP SWAP3 SWAP2 POP POP JUMP JUMPDEST PUSH1 0x1 PUSH1 0x1 PUSH1 0xA0 SHL SUB DUP8 AND DUP2 MSTORE PUSH1 0xC0 PUSH1 0x20 DUP3 ADD DUP2 SWAP1 MSTORE PUSH0 SWAP1 PUSH2 0xFA3 SWAP1 DUP4 ADD DUP9 PUSH2 0xF52 JUMP JUMPDEST SWAP1 POP DUP6 PUSH1 0x40 DUP4 ADD MSTORE DUP5 PUSH1 0x60 DUP4 ADD MSTORE DUP4 PUSH1 0x80 DUP4 ADD MSTORE PUSH1 0xFF DUP4 AND PUSH1 0xA0 DUP4 ADD MSTORE SWAP8 SWAP7 POP POP POP POP POP POP POP JUMP JUMPDEST DUP1 CALLDATALOAD PUSH1 0x1 PUSH1 0x1 PUSH1 0xA0 SHL SUB DUP2 AND DUP2 EQ PUSH2 0xFE1 JUMPI PUSH0 DUP1 REVERT JUMPDEST SWAP2 SWAP1 POP JUMP JUMPDEST PUSH0 DUP1 PUSH1 0x40 DUP4 DUP6 SUB SLT ISZERO PUSH2 0xFF7 JUMPI PUSH0 DUP1 REVERT JUMPDEST PUSH2 0x1000 DUP4 PUSH2 0xFCB JUMP JUMPDEST SWAP5 PUSH1 0x20 SWAP4 SWAP1 SWAP4 ADD CALLDATALOAD SWAP4 POP POP POP JUMP JUMPDEST PUSH1 0x20 DUP2 ADD PUSH1 0x6 DUP4 LT PUSH2 0x102E JUMPI PUSH4 0x4E487B71 PUSH1 0xE0 SHL PUSH0 MSTORE PUSH1 0x21 PUSH1 0x4 MSTORE PUSH1 0x24 PUSH0 REVERT JUMPDEST SWAP2 SWAP1 MSTORE SWAP1 JUMP JUMPDEST PUSH0 PUSH1 0x20 DUP3 DUP5 SUB SLT ISZERO PUSH2 0x1044 JUMPI PUSH0 DUP1 REVERT JUMPDEST PUSH2 0x104D DUP3 PUSH2 0xFCB JUMP JUMPDEST SWAP4 SWAP3 POP POP POP JUMP JUMPDEST PUSH2 0x120 DUP2 MSTORE PUSH0 PUSH2 0x1068 PUSH2 0x120 DUP4 ADD DUP13 PUSH2 0xF52 JUMP JUMPDEST DUP3 DUP2 SUB PUSH1 0x20 DUP5 ADD MSTORE PUSH2 0x107A DUP2 DUP13 PUSH2 0xF52 JUMP JUMPDEST SWAP1 POP DUP3 DUP2 SUB PUSH1 0x40 DUP5 ADD MSTORE PUSH2 0x108E DUP2 DUP12 PUSH2 0xF52 JUMP JUMPDEST PUSH1 0x60 DUP5 ADD SWAP10 SWAP1 SWAP10 MSTORE POP POP PUSH1 0x80 DUP2 ADD SWAP6 SWAP1 SWAP6 MSTORE PUSH1 0xA0 DUP6 ADD SWAP4 SWAP1 SWAP4 MSTORE PUSH1 0xC0 DUP5 ADD SWAP2 SWAP1 SWAP2 MSTORE PUSH1 0xE0 DUP4 ADD MSTORE PUSH2 0x100 SWAP1 SWAP2 ADD MSTORE SWAP4 SWAP3 POP POP POP JUMP JUMPDEST PUSH1 0x1 DUP2 DUP2 SHR SWAP1 DUP3 AND DUP1 PUSH2 0x10D7 JUMPI PUSH1 0x7F DUP3 AND SWAP2 POP JUMPDEST PUSH1 0x20 DUP3 LT DUP2 SUB PUSH2 0x10F5 JUMPI PUSH4 0x4E487B71 PUSH1 0xE0 SHL PUSH0 MSTORE PUSH1 0x22 PUSH1 0x4 MSTORE PUSH1 0x24 PUSH0 REVERT JUMPDEST POP SWAP2 SWAP1 POP JUMP JUMPDEST PUSH4 0x4E487B71 PUSH1 0xE0 SHL PUSH0 MSTORE PUSH1 0x32 PUSH1 0x4 MSTORE PUSH1 0x24 PUSH0 REVERT JUMPDEST PUSH4 0x4E487B71 PUSH1 0xE0 SHL PUSH0 MSTORE PUSH1 0x11 PUSH1 0x4 MSTORE PUSH1 0x24 PUSH0 REVERT JUMPDEST DUP1 DUP3 ADD DUP3 DUP2 SLT PUSH0 DUP4 SLT DUP1 ISZERO DUP3 AND DUP3 ISZERO DUP3 AND OR ISZERO PUSH2 0x1142 JUMPI PUSH2 0x1142 PUSH2 0x110F JUMP JUMPDEST POP POP SWAP3 SWAP2 POP POP JUMP JUMPDEST PUSH0 PUSH2 0xFFFF DUP3 AND PUSH2 0xFFFF DUP2 SUB PUSH2 0x1161 JUMPI PUSH2 0x1161 PUSH2 0x110F JUMP JUMPDEST PUSH1 0x1 ADD SWAP3 SWAP2 POP POP JUMP JUMPDEST PUSH1 0xFF DUP2 DUP2 AND DUP4 DUP3 AND MUL SWAP1 DUP2 AND SWAP1 DUP2 DUP2 EQ PUSH2 0x1186 JUMPI PUSH2 0x1186 PUSH2 0x110F JUMP JUMPDEST POP SWAP3 SWAP2 POP POP JUMP JUMPDEST DUP1 DUP3 ADD DUP1 DUP3 GT ISZERO PUSH2 0x11A0 JUMPI PUSH2 0x11A0 PUSH2 0x110F JUMP JUMPDEST SWAP3 SWAP2 POP POP JUMP JUMPDEST DUP2 DUP2 SUB DUP2 DUP2 GT ISZERO PUSH2 0x11A0 JUMPI PUSH2 0x11A0 PUSH2 0x110F JUMP JUMPDEST PUSH0 PUSH1 0xFF DUP3 AND DUP1 PUSH2 0x11CB JUMPI PUSH2 0x11CB PUSH2 0x110F JUMP JUMPDEST PUSH0 NOT ADD SWAP3 SWAP2 POP POP JUMP JUMPDEST PUSH1 0xFF DUP3 DUP2 AND DUP3 DUP3 AND SUB SWAP1 DUP2 GT ISZERO PUSH2 0x11A0 JUMPI PUSH2 0x11A0 PUSH2 0x110F JUMP JUMPDEST PUSH1 0xFF DUP2 DUP2 AND DUP4 DUP3 AND ADD SWAP1 DUP2 GT ISZERO PUSH2 0x11A0 JUMPI PUSH2 0x11A0 PUSH2 0x110F JUMP JUMPDEST PUSH0 PUSH1 0xFF DUP3 AND PUSH1 0xFF DUP2 SUB PUSH2 0x1161 JUMPI PUSH2 0x1161 PUSH2 0x110F JUMP JUMPDEST PUSH0 PUSH1 0xFF DUP4 AND DUP1 PUSH2 0x1239 JUMPI PUSH4 0x4E487B71 PUSH1 0xE0 SHL PUSH0 MSTORE PUSH1 0x12 PUSH1 0x4 MSTORE PUSH1 0x24 PUSH0 REVERT JUMPDEST DUP1 PUSH1 0xFF DUP5 AND DIV SWAP2 POP POP SWAP3 SWAP2 POP POP JUMP INVALID LOG2 PUSH5 0x6970667358 0x22 SLT KECCAK256 0xED PUSH30 0x8904095691E0A403707952FF3E32B147B0577A7F978D7AEECB179002C98 PUSH5 0x736F6C6343 STOP ADDMOD BYTE STOP CALLER "
		},
		"gasEstimates": {
			"creation": {
				"codeDepositCost": "946800",
				"executionCost": "infinite",
				"totalCost": "infinite"
			},
			"external": {
				"CAMPAIGN_DURATION()": "240",
				"LenderTxns(address,uint256)": "6941",
				"N_MEMBERS()": "247",
				"RANDOM_VOTERS()": "315",
				"RegistrationEnd()": "2405",
				"addedVoterCount()": "2419",
				"candidateInfo(address)": "infinite",
				"candidateList(uint256)": "4656",
				"currentRate()": "2426",
				"electionEnd()": "2315",
				"getBalance()": "infinite",
				"getCurrentPhase()": "infinite",
				"interestPeriods(uint256)": "6838",
				"lend()": "70323",
				"memberRank(address)": "2619",
				"neutral()": "2359",
				"noRates()": "2445",
				"proposals(uint256)": "infinite",
				"proposeRate(uint256)": "infinite",
				"referendumEnd()": "2361",
				"sortedRates(uint256)": "4741",
				"startTime()": "infinite",
				"treasuryReserve()": "260"
			}
		},
		"methodIdentifiers": {
			"CAMPAIGN_DURATION()": "08fd4cfa",
			"LenderTxns(address,uint256)": "53fdc838",
			"N_MEMBERS()": "e292bf16",
			"RANDOM_VOTERS()": "3def77b7",
			"RegistrationEnd()": "be07f0f8",
			"addedVoterCount()": "1b408934",
			"candidateInfo(address)": "e965b7c9",
			"candidateList(uint256)": "b13c744b",
			"currentRate()": "f9f8bdb7",
			"electionEnd()": "ce7ea161",
			"getBalance()": "12065fe0",
			"getCurrentPhase()": "a3a40ea5",
			"interestPeriods(uint256)": "f33e9573",
			"lend()": "97dffc61",
			"memberRank(address)": "eab536fc",
			"neutral()": "4d0c8726",
			"noRates()": "c8d7b9f1",
			"proposals(uint256)": "013cf08b",
			"proposeRate(uint256)": "bdc8e7b3",
			"referendumEnd()": "bab752e5",
			"sortedRates(uint256)": "9dc99455",
			"startTime()": "78e97925",
			"treasuryReserve()": "59297dbf"
		}
	},
	"abi": [
		{
			"anonymous": false,
			"inputs": [
				{
					"indexed": false,
					"internalType": "uint256",
					"name": "newMedianRate",
					"type": "uint256"
				}
			],
			"name": "InterestRateUpdated",
			"type": "event"
		},
		{
			"anonymous": false,
			"inputs": [
				{
					"indexed": true,
					"internalType": "address",
					"name": "lender",
					"type": "address"
				},
				{
					"indexed": false,
					"internalType": "int256",
					"name": "amount",
					"type": "int256"
				}
			],
			"name": "LoanReceived",
			"type": "event"
		},
		{
			"anonymous": false,
			"inputs": [
				{
					"indexed": true,
					"internalType": "address",
					"name": "member",
					"type": "address"
				},
				{
					"indexed": false,
					"internalType": "uint256",
					"name": "oldRate",
					"type": "uint256"
				},
				{
					"indexed": false,
					"internalType": "uint8",
					"name": "oldRank",
					"type": "uint8"
				},
				{
					"indexed": false,
					"internalType": "uint256",
					"name": "newRate",
					"type": "uint256"
				},
				{
					"indexed": false,
					"internalType": "uint8",
					"name": "newRank",
					"type": "uint8"
				}
			],
			"name": "MemberRateChanged",
			"type": "event"
		},
		{
			"inputs": [],
			"name": "CAMPAIGN_DURATION",
			"outputs": [
				{
					"internalType": "uint256",
					"name": "",
					"type": "uint256"
				}
			],
			"stateMutability": "view",
			"type": "function"
		},
		{
			"inputs": [
				{
					"internalType": "address",
					"name": "",
					"type": "address"
				},
				{
					"internalType": "uint256",
					"name": "",
					"type": "uint256"
				}
			],
			"name": "LenderTxns",
			"outputs": [
				{
					"internalType": "int256",
					"name": "amount",
					"type": "int256"
				},
				{
					"internalType": "uint256",
					"name": "txnTime",
					"type": "uint256"
				}
			],
			"stateMutability": "view",
			"type": "function"
		},
		{
			"inputs": [],
			"name": "N_MEMBERS",
			"outputs": [
				{
					"internalType": "uint8",
					"name": "",
					"type": "uint8"
				}
			],
			"stateMutability": "view",
			"type": "function"
		},
		{
			"inputs": [],
			"name": "RANDOM_VOTERS",
			"outputs": [
				{
					"internalType": "uint32",
					"name": "",
					"type": "uint32"
				}
			],
			"stateMutability": "view",
			"type": "function"
		},
		{
			"inputs": [],
			"name": "RegistrationEnd",
			"outputs": [
				{
					"internalType": "uint256",
					"name": "",
					"type": "uint256"
				}
			],
			"stateMutability": "view",
			"type": "function"
		},
		{
			"inputs": [],
			"name": "addedVoterCount",
			"outputs": [
				{
					"internalType": "uint32",
					"name": "",
					"type": "uint32"
				}
			],
			"stateMutability": "view",
			"type": "function"
		},
		{
			"inputs": [
				{
					"internalType": "address",
					"name": "",
					"type": "address"
				}
			],
			"name": "candidateInfo",
			"outputs": [
				{
					"internalType": "string",
					"name": "fullName",
					"type": "string"
				},
				{
					"internalType": "string",
					"name": "bio",
					"type": "string"
				},
				{
					"internalType": "string",
					"name": "website",
					"type": "string"
				},
				{
					"internalType": "uint256",
					"name": "registeredAt",
					"type": "uint256"
				},
				{
					"internalType": "uint256",
					"name": "voteCount",
					"type": "uint256"
				},
				{
					"internalType": "uint256",
					"name": "memberID",
					"type": "uint256"
				},
				{
					"internalType": "uint256",
					"name": "leaderAt",
					"type": "uint256"
				},
				{
					"internalType": "uint256",
					"name": "activeProposal",
					"type": "uint256"
				},
				{
					"internalType": "uint256",
					"name": "submittedDraft",
					"type": "uint256"
				}
			],
			"stateMutability": "view",
			"type": "function"
		},
		{
			"inputs": [
				{
					"internalType": "uint256",
					"name": "",
					"type": "uint256"
				}
			],
			"name": "candidateList",
			"outputs": [
				{
					"internalType": "address",
					"name": "",
					"type": "address"
				}
			],
			"stateMutability": "view",
			"type": "function"
		},
		{
			"inputs": [],
			"name": "currentRate",
			"outputs": [
				{
					"internalType": "uint256",
					"name": "",
					"type": "uint256"
				}
			],
			"stateMutability": "view",
			"type": "function"
		},
		{
			"inputs": [],
			"name": "electionEnd",
			"outputs": [
				{
					"internalType": "uint256",
					"name": "",
					"type": "uint256"
				}
			],
			"stateMutability": "view",
			"type": "function"
		},
		{
			"inputs": [],
			"name": "getBalance",
			"outputs": [
				{
					"internalType": "int256",
					"name": "_sum",
					"type": "int256"
				}
			],
			"stateMutability": "view",
			"type": "function"
		},
		{
			"inputs": [],
			"name": "getCurrentPhase",
			"outputs": [
				{
					"internalType": "enum Phase",
					"name": "",
					"type": "uint8"
				}
			],
			"stateMutability": "nonpayable",
			"type": "function"
		},
		{
			"inputs": [
				{
					"internalType": "uint256",
					"name": "",
					"type": "uint256"
				}
			],
			"name": "interestPeriods",
			"outputs": [
				{
					"internalType": "uint256",
					"name": "rate",
					"type": "uint256"
				},
				{
					"internalType": "uint256",
					"name": "startedAt",
					"type": "uint256"
				}
			],
			"stateMutability": "view",
			"type": "function"
		},
		{
			"inputs": [],
			"name": "lend",
			"outputs": [],
			"stateMutability": "payable",
			"type": "function"
		},
		{
			"inputs": [
				{
					"internalType": "address",
					"name": "",
					"type": "address"
				}
			],
			"name": "memberRank",
			"outputs": [
				{
					"internalType": "uint8",
					"name": "",
					"type": "uint8"
				}
			],
			"stateMutability": "view",
			"type": "function"
		},
		{
			"inputs": [],
			"name": "neutral",
			"outputs": [
				{
					"internalType": "address",
					"name": "",
					"type": "address"
				}
			],
			"stateMutability": "view",
			"type": "function"
		},
		{
			"inputs": [],
			"name": "noRates",
			"outputs": [
				{
					"internalType": "uint8",
					"name": "",
					"type": "uint8"
				}
			],
			"stateMutability": "view",
			"type": "function"
		},
		{
			"inputs": [
				{
					"internalType": "uint256",
					"name": "",
					"type": "uint256"
				}
			],
			"name": "proposals",
			"outputs": [
				{
					"internalType": "address",
					"name": "proposer",
					"type": "address"
				},
				{
					"internalType": "string",
					"name": "provisions",
					"type": "string"
				},
				{
					"internalType": "uint256",
					"name": "proposedAt",
					"type": "uint256"
				},
				{
					"internalType": "uint256",
					"name": "executedAt",
					"type": "uint256"
				},
				{
					"internalType": "uint256",
					"name": "withdrawnAt",
					"type": "uint256"
				},
				{
					"internalType": "uint8",
					"name": "yesVotes",
					"type": "uint8"
				}
			],
			"stateMutability": "view",
			"type": "function"
		},
		{
			"inputs": [
				{
					"internalType": "uint256",
					"name": "newRate",
					"type": "uint256"
				}
			],
			"name": "proposeRate",
			"outputs": [
				{
					"internalType": "uint8",
					"name": "newRank",
					"type": "uint8"
				}
			],
			"stateMutability": "nonpayable",
			"type": "function"
		},
		{
			"inputs": [],
			"name": "referendumEnd",
			"outputs": [
				{
					"internalType": "uint256",
					"name": "",
					"type": "uint256"
				}
			],
			"stateMutability": "view",
			"type": "function"
		},
		{
			"inputs": [
				{
					"internalType": "uint256",
					"name": "",
					"type": "uint256"
				}
			],
			"name": "sortedRates",
			"outputs": [
				{
					"internalType": "address",
					"name": "member",
					"type": "address"
				},
				{
					"internalType": "uint256",
					"name": "rate",
					"type": "uint256"
				}
			],
			"stateMutability": "view",
			"type": "function"
		},
		{
			"inputs": [],
			"name": "startTime",
			"outputs": [
				{
					"internalType": "uint256",
					"name": "",
					"type": "uint256"
				}
			],
			"stateMutability": "view",
			"type": "function"
		},
		{
			"inputs": [],
			"name": "treasuryReserve",
			"outputs": [
				{
					"internalType": "uint256",
					"name": "",
					"type": "uint256"
				}
			],
			"stateMutability": "view",
			"type": "function"
		}
	]
}