{
	"data": {
		"bytecode": {
			"linkReferences": {},
			"object": "60a06040526009805460ff191690553480156018575f80fd5b5060805161223e6100315f395f610315015261223e5ff3fe60806040526004361061017b575f3560e01c8063a3a40ea5116100cd578063bb2c88a011610087578063d90d7cd811610062578063d90d7cd81461044f578063e292bf1614610483578063e965b7c9146104a9578063eccf1f10146104dd575f80fd5b8063bb2c88a014610411578063be07f0f814610426578063ce7ea1611461043b575f80fd5b8063a3a40ea514610365578063a5f5b1bf14610386578063a6a5ad121461039a578063b13c744b146103b9578063b3913777146103d8578063bab752e5146103fc575f80fd5b80633def77b7116101385780634ebeb109116101135780634ebeb109146102be57806370f67cfe146102d857806378e97925146103045780637f4241e714610337575f80fd5b80633def77b71461027257806349066e79146101f75780634d0c872614610287575f80fd5b8063013cf08b1461017f578063079ddd11146101b9578063089e35b8146101ce57806308fd4cfa146101f75780631b4089341461021b57806325452e8c14610253575b5f80fd5b34801561018a575f80fd5b5061019e610199366004611adb565b6104fe565b6040516101b096959493929190611b20565b60405180910390f35b6101cc6101c7366004611c0a565b6105d8565b005b3480156101d9575f80fd5b506009546101e79060ff1681565b60405190151581526020016101b0565b348015610202575f80fd5b5061020d6212750081565b6040519081526020016101b0565b348015610226575f80fd5b5060025461023e90600160a01b900463ffffffff1681565b60405163ffffffff90911681526020016101b0565b34801561025e575f80fd5b506101cc61026d366004611caf565b6108dd565b34801561027d575f80fd5b5061023e6104b081565b348015610292575f80fd5b506002546102a6906001600160a01b031681565b6040516001600160a01b0390911681526020016101b0565b3480156102c9575f80fd5b5061020d66038d7ea4c6800081565b3480156102e3575f80fd5b506102f76102f2366004611adb565b610d06565b6040516101b09190611ce4565b34801561030f575f80fd5b5061020d7f000000000000000000000000000000000000000000000000000000000000000081565b348015610342575f80fd5b506101e7610351366004611adb565b5f9081526007602052604090205460ff1690565b348015610370575f80fd5b50610379610fcf565b6040516101b09190611d9c565b348015610391575f80fd5b506101cc6110a1565b3480156103a5575f80fd5b506101cc6103b4366004611dc2565b611210565b3480156103c4575f80fd5b506102a66103d3366004611adb565b611504565b3480156103e3575f80fd5b506009546102a69061010090046001600160a01b031681565b348015610407575f80fd5b5061020d60065481565b34801561041c575f80fd5b5061020d600a5481565b348015610431575f80fd5b5061020d60015481565b348015610446575f80fd5b5061020d5f5481565b34801561045a575f80fd5b5061020d610469366004611e4e565b6001600160a01b03165f9081526008602052604090205490565b34801561048e575f80fd5b50610497603281565b60405160ff90911681526020016101b0565b3480156104b4575f80fd5b506104c86104c3366004611e4e565b61152c565b6040516101b099989796959493929190611e6e565b3480156104e8575f80fd5b506104f1611703565b6040516101b09190611edd565b6005818154811061050d575f80fd5b5f918252602090912060079091020180546001820180546001600160a01b0390921693509061053b90611f28565b80601f016020809104026020016040519081016040528092919081815260200182805461056790611f28565b80156105b25780601f10610589576101008083540402835291602001916105b2565b820191905f5260205f20905b81548152906001019060200180831161059557829003601f168201915b505050506002830154600384015460048501546005909501549394919390925060ff1686565b5f83511180156105ea57506064835111155b61062a5760405162461bcd60e51b815260206004820152600c60248201526b496e76616c6964206e616d6560a01b60448201526064015b60405180910390fd5b5f825111801561063d57506103e8825111155b6106775760405162461bcd60e51b815260206004820152600b60248201526a496e76616c69642062696f60a81b6044820152606401610621565b5f815111801561068a57506103e8815111155b6106c85760405162461bcd60e51b815260206004820152600f60248201526e496e76616c6964207765627369746560881b6044820152606401610621565b336107065760405162461bcd60e51b815260206004820152600e60248201526d24b73b30b634b21039b2b73232b960911b6044820152606401610621565b66038d7ea4c6800034101561075d5760405162461bcd60e51b815260206004820152601d60248201527f496e73756666696369656e7420726567697374726174696f6e206665650000006044820152606401610621565b5f610766610fcf565b600581111561077757610777611d88565b146107c45760405162461bcd60e51b815260206004820152601960248201527f526567697374726174696f6e20706572696f6420656e646564000000000000006044820152606401610621565b335f90815260046020526040902060030154156108185760405162461bcd60e51b8152602060048201526012602482015271105b1c9958591e481c9959da5cdd195c995960721b6044820152606401610621565b335f908152600460205260409020806108318582611fac565b50600181016108408482611fac565b506002810161084f8382611fac565b504260038083019190915580546001810182555f919091527fc2575a0e9e593c00f959f8c92f12db2869c3395a3b0502d05e2516446f71f85b0180546001600160a01b031916339081179091556040517ed6fea68f71a20d8149f227f87e8cf7e6ad320b2dad4b45465b14599b80ee09906108cf90879087908790612067565b60405180910390a250505050565b6002546001600160a01b031633146109305760405162461bcd60e51b8152602060048201526016602482015275139bdd08185d5d1a1bdc9a5e9959081b995d5d1c985b60521b6044820152606401610621565b5f610939610fcf565b600581111561094a5761094a611d88565b146109975760405162461bcd60e51b815260206004820152601e60248201527f566f74657220616464696e6720706572696f642068617320656e6465642e00006044820152606401610621565b6002546104b0600160a01b90910463ffffffff1610610a025760405162461bcd60e51b815260206004820152602160248201527f4d6178696d756d206e756d626572206f6620766f7465727320726561636865646044820152601760f91b6064820152608401610621565b5f5b600a60ff82161015610ae55760075f838360ff16600a8110610a2857610a286120a9565b6020908102919091013582528101919091526040015f205460ff1615610a905760405162461bcd60e51b815260206004820152601d60248201527f566f746572206861736820616c726561647920726567697374657265640000006044820152606401610621565b600160075f848460ff16600a8110610aaa57610aaa6120a9565b602002013581526020019081526020015f205f6101000a81548160ff0219169083151502179055508080610add906120d1565b915050610a04565b505f5b600a60ff82161015610c6a575f8360ff8316600a8110610b0a57610b0a6120a9565b602002016020810190610b1d9190611e4e565b6001600160a01b031603610b6b5760405162461bcd60e51b8152602060048201526015602482015274496e76616c696420766f746572206164647265737360581b6044820152606401610621565b60085f848360ff16600a8110610b8357610b836120a9565b602002016020810190610b969190611e4e565b6001600160a01b0316815260208101919091526040015f205415610c125760405162461bcd60e51b815260206004820152602d60248201527f416464726573737320616c726561647920726567697374657265642e2052656760448201526c697374726172204552524f522160981b6064820152608401610621565b600160085f858460ff16600a8110610c2c57610c2c6120a9565b602002016020810190610c3f9190611e4e565b6001600160a01b0316815260208101919091526040015f205580610c62816120d1565b915050610ae8565b50600a600260148282829054906101000a900463ffffffff16610c8d91906120ef565b92506101000a81548163ffffffff021916908363ffffffff16021790555081604051610cb9919061210b565b604051908190038120600254600160a01b900463ffffffff168252907f5ecf71b87b223b4e8c4d19850b2c7a727d326e44eda6530fe642b505ff2c4f949060200160405180910390a25050565b610d4f6040518061012001604052806060815260200160608152602001606081526020015f81526020015f81526020015f81526020015f81526020015f81526020015f81525090565b6003548210610d975760405162461bcd60e51b8152602060048201526014602482015273125b9d985b1a590810d85b991a59185d1948125160621b6044820152606401610621565b60045f60038481548110610dad57610dad6120a9565b5f9182526020808320909101546001600160a01b03168352820192909252604090810190912081516101208101909252805482908290610dec90611f28565b80601f0160208091040260200160405190810160405280929190818152602001828054610e1890611f28565b8015610e635780601f10610e3a57610100808354040283529160200191610e63565b820191905f5260205f20905b815481529060010190602001808311610e4657829003601f168201915b50505050508152602001600182018054610e7c90611f28565b80601f0160208091040260200160405190810160405280929190818152602001828054610ea890611f28565b8015610ef35780601f10610eca57610100808354040283529160200191610ef3565b820191905f5260205f20905b815481529060010190602001808311610ed657829003601f168201915b50505050508152602001600282018054610f0c90611f28565b80601f0160208091040260200160405190810160405280929190818152602001828054610f3890611f28565b8015610f835780601f10610f5a57610100808354040283529160200191610f83565b820191905f5260205f20905b815481529060010190602001808311610f6657829003601f168201915b5050505050815260200160038201548152602001600482015481526020016005820154815260200160068201548152602001600782015481526020016008820154815250509050919050565b5f600154421015610fdf57505f90565b610feb60326002612150565b60ff16600380549050108061101157506002546104b0600160a01b90910463ffffffff16105b1561102057505f600181905590565b6001545f036110525742600181905561103d906212750090612173565b61104a9062015180612173565b5f5550600190565b60015f546110609190612186565b42101561106d5750600190565b5f5442101561107c5750600290565b6006545f0361108b5750600390565b60065442101561109b5750600490565b50600590565b60095460ff166110e35760405162461bcd60e51b815260206004820152600d60248201526c139bc81b195859195c881e595d609a1b6044820152606401610621565b60095461010090046001600160a01b03165f90815260046020526040902060060154611113906212750090612173565b42101561116d5760405162461bcd60e51b815260206004820152602260248201527f43757272656e74206c65616465722773207465726d206e6f742066696e697368604482015261195960f21b6064820152608401610621565b600a8054905f61117c83612199565b91905055506003600a5481548110611196576111966120a9565b5f9182526020808320919091015460098054610100600160a81b0319166101006001600160a01b039384168102919091178083558190048316855260049093526040808520426006909101559054905192900416917f8a84bb57bf3f6adefaa7a35a6a5067473f78164bfc14c2f6ae8b93e5b115b35a91a2565b600261121a610fcf565b600581111561122b5761122b611d88565b146112705760405162461bcd60e51b81526020600482015260156024820152744e6f7420696e20456c656374696f6e20706861736560581b6044820152606401610621565b6003548111156112b75760405162461bcd60e51b8152602060048201526012602482015271125b9d985b1a59081d9bdd194818dbdd5b9d60721b6044820152606401610621565b335f908152600860205260409020546001146113265760405162461bcd60e51b815260206004820152602860248201527f416c726561647920766f74656420283e3129206f72206e6f7420726567697374604482015267657265642028302960c01b6064820152608401610621565b6003545f9067ffffffffffffffff81111561134357611343611b6b565b60405190808252806020026020018201604052801561136c578160200160208202803683370190505b50335f818152600860205260408082204290555192935090917fb87a61d78bd15221c59b983f6ef032fbde0631e66bfe18d1421fe5a73c16741d9190a25f5b828110156114fe575f8484838181106113c6576113c66120a9565b905060200201359050600380549050811061141b5760405162461bcd60e51b81526020600482015260156024820152740aee4dedcce40c6c2dcc8d2c8c2e8ca40d2dcc8caf605b1b6044820152606401610621565b82818151811061142d5761142d6120a9565b6020026020010151156114825760405162461bcd60e51b815260206004820152601a60248201527f526570657469746976652063616e64696461746520696e6465780000000000006044820152606401610621565b6001838281518110611496576114966120a9565b60200260200101901515908115158152505060045f600383815481106114be576114be6120a9565b5f9182526020808320909101546001600160a01b0316835282019290925260400181206004018054916114f083612199565b9091555050506001016113ab565b50505050565b60038181548110611513575f80fd5b5f918252602090912001546001600160a01b0316905081565b60046020525f908152604090208054819061154690611f28565b80601f016020809104026020016040519081016040528092919081815260200182805461157290611f28565b80156115bd5780601f10611594576101008083540402835291602001916115bd565b820191905f5260205f20905b8154815290600101906020018083116115a057829003601f168201915b5050505050908060010180546115d290611f28565b80601f01602080910402602001604051908101604052809291908181526020018280546115fe90611f28565b80156116495780601f1061162057610100808354040283529160200191611649565b820191905f5260205f20905b81548152906001019060200180831161162c57829003601f168201915b50505050509080600201805461165e90611f28565b80601f016020809104026020016040519081016040528092919081815260200182805461168a90611f28565b80156116d55780601f106116ac576101008083540402835291602001916116d5565b820191905f5260205f20905b8154815290600101906020018083116116b857829003601f168201915b5050505050908060030154908060040154908060050154908060060154908060070154908060080154905089565b60095460609060ff161561176f57600380548060200260200160405190810160405280929190818152602001828054801561176557602002820191905f5260205f20905b81546001600160a01b03168152600190910190602001808311611747575b5050505050905090565b5f5442116117b55760405162461bcd60e51b815260206004820152601360248201527221b0b6361030b33a32b91032b632b1ba34b7b760691b6044820152606401610621565b60015b603281116119b8576003545f906117d190600190612186565b90505b8082116119535760045f60036117eb600185612186565b815481106117fb576117fb6120a9565b5f9182526020808320909101546001600160a01b031683528201929092526040018120600490810154600380549193918590811061183b5761183b6120a9565b5f9182526020808320909101546001600160a01b031683528201929092526040019020600401541115611941576003611875600183612186565b81548110611885576118856120a9565b5f91825260209091200154600380546001600160a01b0390921691839081106118b0576118b06120a9565b5f91825260209091200154600380546001600160a01b0390921691849081106118db576118db6120a9565b5f91825260208220019060036118f2600187612186565b81548110611902576119026120a9565b5f91825260209091200180546001600160a01b039485166001600160a01b031990911617905581549383166101009190910a9081029202199092161790555b8061194b816121b1565b9150506117d4565b5061195f600182612186565b60045f600361196f600186612186565b8154811061197f5761197f6120a9565b5f9182526020808320909101546001600160a01b03168352820192909252604001902060050155806119b081612199565b9150506117b8565b506009805460ff19166001179055600380545f906119d8576119d86120a9565b5f9182526020808320919091015460098054610100600160a81b0319166101006001600160a01b0393841681029190911791829055600a8590559004168252600490526040908190204260069091015551611a35906003906121c6565b60405190819003812060095461010090046001600160a01b03168252907f55fd57a9f60ed79c2da9b808929b82bed18d54127a828e4f6050a978600109b09060200160405180910390a2600380548060200260200160405190810160405280929190818152602001828054801561176557602002820191905f5260205f209081546001600160a01b03168152600190910190602001808311611747575050505050905090565b5f60208284031215611aeb575f80fd5b5035919050565b5f81518084528060208401602086015e5f602082860101526020601f19601f83011685010191505092915050565b6001600160a01b038716815260c0602082018190525f90611b4390830188611af2565b905085604083015284606083015283608083015260ff831660a0830152979650505050505050565b634e487b7160e01b5f52604160045260245ffd5b5f82601f830112611b8e575f80fd5b813567ffffffffffffffff811115611ba857611ba8611b6b565b604051601f8201601f19908116603f0116810167ffffffffffffffff81118282101715611bd757611bd7611b6b565b604052818152838201602001851015611bee575f80fd5b816020850160208301375f918101602001919091529392505050565b5f805f60608486031215611c1c575f80fd5b833567ffffffffffffffff811115611c32575f80fd5b611c3e86828701611b7f565b935050602084013567ffffffffffffffff811115611c5a575f80fd5b611c6686828701611b7f565b925050604084013567ffffffffffffffff811115611c82575f80fd5b611c8e86828701611b7f565b9150509250925092565b806101408101831015611ca9575f80fd5b92915050565b5f806102808385031215611cc1575f80fd5b611ccb8484611c98565b9150611cdb846101408501611c98565b90509250929050565b602081525f82516101206020840152611d01610140840182611af2565b90506020840151601f19848303016040850152611d1e8282611af2565b9150506040840151601f19848303016060850152611d3c8282611af2565b91505060608401516080840152608084015160a084015260a084015160c084015260c084015160e084015260e08401516101008401526101008401516101208401528091505092915050565b634e487b7160e01b5f52602160045260245ffd5b6020810160068310611dbc57634e487b7160e01b5f52602160045260245ffd5b91905290565b5f8060208385031215611dd3575f80fd5b823567ffffffffffffffff811115611de9575f80fd5b8301601f81018513611df9575f80fd5b803567ffffffffffffffff811115611e0f575f80fd5b8560208260051b8401011115611e23575f80fd5b6020919091019590945092505050565b80356001600160a01b0381168114611e49575f80fd5b919050565b5f60208284031215611e5e575f80fd5b611e6782611e33565b9392505050565b61012081525f611e8261012083018c611af2565b8281036020840152611e94818c611af2565b90508281036040840152611ea8818b611af2565b60608401999099525050608081019590955260a085019390935260c084019190915260e0830152610100909101529392505050565b602080825282518282018190525f918401906040840190835b81811015611f1d5783516001600160a01b0316835260209384019390920191600101611ef6565b509095945050505050565b600181811c90821680611f3c57607f821691505b602082108103611f5a57634e487b7160e01b5f52602260045260245ffd5b50919050565b601f821115611fa757805f5260205f20601f840160051c81016020851015611f855750805b601f840160051c820191505b81811015611fa4575f8155600101611f91565b50505b505050565b815167ffffffffffffffff811115611fc657611fc6611b6b565b611fda81611fd48454611f28565b84611f60565b6020601f82116001811461200c575f8315611ff55750848201515b5f19600385901b1c1916600184901b178455611fa4565b5f84815260208120601f198516915b8281101561203b578785015182556020948501946001909201910161201b565b508482101561205857868401515f19600387901b60f8161c191681555b50505050600190811b01905550565b606081525f6120796060830186611af2565b828103602084015261208b8186611af2565b9050828103604084015261209f8185611af2565b9695505050505050565b634e487b7160e01b5f52603260045260245ffd5b634e487b7160e01b5f52601160045260245ffd5b5f60ff821660ff81036120e6576120e66120bd565b60010192915050565b63ffffffff8181168382160190811115611ca957611ca96120bd565b5f8183825b600a811015612140576001600160a01b0361212a83611e33565b1683526020928301929190910190600101612110565b5050506101408201905092915050565b60ff818116838216029081169081811461216c5761216c6120bd565b5092915050565b80820180821115611ca957611ca96120bd565b81810381811115611ca957611ca96120bd565b5f600182016121aa576121aa6120bd565b5060010190565b5f816121bf576121bf6120bd565b505f190190565b5f818354839150845f5260205f205f5b828110156121fd5781546001600160a01b03168452602090930192600191820191016121d6565b50919594505050505056fea2646970667358221220fd986fc91ed68bc7108d6687a94cc74004bd8a95ba38fd135579ebc1f19d4f3a64736f6c634300081a0033",
			"opcodes": "PUSH1 0xA0 PUSH1 0x40 MSTORE PUSH1 0x9 DUP1 SLOAD PUSH1 0xFF NOT AND SWAP1 SSTORE CALLVALUE DUP1 ISZERO PUSH1 0x18 JUMPI PUSH0 DUP1 REVERT JUMPDEST POP PUSH1 0x80 MLOAD PUSH2 0x223E PUSH2 0x31 PUSH0 CODECOPY PUSH0 PUSH2 0x315 ADD MSTORE PUSH2 0x223E PUSH0 RETURN INVALID PUSH1 0x80 PUSH1 0x40 MSTORE PUSH1 0x4 CALLDATASIZE LT PUSH2 0x17B JUMPI PUSH0 CALLDATALOAD PUSH1 0xE0 SHR DUP1 PUSH4 0xA3A40EA5 GT PUSH2 0xCD JUMPI DUP1 PUSH4 0xBB2C88A0 GT PUSH2 0x87 JUMPI DUP1 PUSH4 0xD90D7CD8 GT PUSH2 0x62 JUMPI DUP1 PUSH4 0xD90D7CD8 EQ PUSH2 0x44F JUMPI DUP1 PUSH4 0xE292BF16 EQ PUSH2 0x483 JUMPI DUP1 PUSH4 0xE965B7C9 EQ PUSH2 0x4A9 JUMPI DUP1 PUSH4 0xECCF1F10 EQ PUSH2 0x4DD JUMPI PUSH0 DUP1 REVERT JUMPDEST DUP1 PUSH4 0xBB2C88A0 EQ PUSH2 0x411 JUMPI DUP1 PUSH4 0xBE07F0F8 EQ PUSH2 0x426 JUMPI DUP1 PUSH4 0xCE7EA161 EQ PUSH2 0x43B JUMPI PUSH0 DUP1 REVERT JUMPDEST DUP1 PUSH4 0xA3A40EA5 EQ PUSH2 0x365 JUMPI DUP1 PUSH4 0xA5F5B1BF EQ PUSH2 0x386 JUMPI DUP1 PUSH4 0xA6A5AD12 EQ PUSH2 0x39A JUMPI DUP1 PUSH4 0xB13C744B EQ PUSH2 0x3B9 JUMPI DUP1 PUSH4 0xB3913777 EQ PUSH2 0x3D8 JUMPI DUP1 PUSH4 0xBAB752E5 EQ PUSH2 0x3FC JUMPI PUSH0 DUP1 REVERT JUMPDEST DUP1 PUSH4 0x3DEF77B7 GT PUSH2 0x138 JUMPI DUP1 PUSH4 0x4EBEB109 GT PUSH2 0x113 JUMPI DUP1 PUSH4 0x4EBEB109 EQ PUSH2 0x2BE JUMPI DUP1 PUSH4 0x70F67CFE EQ PUSH2 0x2D8 JUMPI DUP1 PUSH4 0x78E97925 EQ PUSH2 0x304 JUMPI DUP1 PUSH4 0x7F4241E7 EQ PUSH2 0x337 JUMPI PUSH0 DUP1 REVERT JUMPDEST DUP1 PUSH4 0x3DEF77B7 EQ PUSH2 0x272 JUMPI DUP1 PUSH4 0x49066E79 EQ PUSH2 0x1F7 JUMPI DUP1 PUSH4 0x4D0C8726 EQ PUSH2 0x287 JUMPI PUSH0 DUP1 REVERT JUMPDEST DUP1 PUSH4 0x13CF08B EQ PUSH2 0x17F JUMPI DUP1 PUSH4 0x79DDD11 EQ PUSH2 0x1B9 JUMPI DUP1 PUSH4 0x89E35B8 EQ PUSH2 0x1CE JUMPI DUP1 PUSH4 0x8FD4CFA EQ PUSH2 0x1F7 JUMPI DUP1 PUSH4 0x1B408934 EQ PUSH2 0x21B JUMPI DUP1 PUSH4 0x25452E8C EQ PUSH2 0x253 JUMPI JUMPDEST PUSH0 DUP1 REVERT JUMPDEST CALLVALUE DUP1 ISZERO PUSH2 0x18A JUMPI PUSH0 DUP1 REVERT JUMPDEST POP PUSH2 0x19E PUSH2 0x199 CALLDATASIZE PUSH1 0x4 PUSH2 0x1ADB JUMP JUMPDEST PUSH2 0x4FE JUMP JUMPDEST PUSH1 0x40 MLOAD PUSH2 0x1B0 SWAP7 SWAP6 SWAP5 SWAP4 SWAP3 SWAP2 SWAP1 PUSH2 0x1B20 JUMP JUMPDEST PUSH1 0x40 MLOAD DUP1 SWAP2 SUB SWAP1 RETURN JUMPDEST PUSH2 0x1CC PUSH2 0x1C7 CALLDATASIZE PUSH1 0x4 PUSH2 0x1C0A JUMP JUMPDEST PUSH2 0x5D8 JUMP JUMPDEST STOP JUMPDEST CALLVALUE DUP1 ISZERO PUSH2 0x1D9 JUMPI PUSH0 DUP1 REVERT JUMPDEST POP PUSH1 0x9 SLOAD PUSH2 0x1E7 SWAP1 PUSH1 0xFF AND DUP2 JUMP JUMPDEST PUSH1 0x40 MLOAD SWAP1 ISZERO ISZERO DUP2 MSTORE PUSH1 0x20 ADD PUSH2 0x1B0 JUMP JUMPDEST CALLVALUE DUP1 ISZERO PUSH2 0x202 JUMPI PUSH0 DUP1 REVERT JUMPDEST POP PUSH2 0x20D PUSH3 0x127500 DUP2 JUMP JUMPDEST PUSH1 0x40 MLOAD SWAP1 DUP2 MSTORE PUSH1 0x20 ADD PUSH2 0x1B0 JUMP JUMPDEST CALLVALUE DUP1 ISZERO PUSH2 0x226 JUMPI PUSH0 DUP1 REVERT JUMPDEST POP PUSH1 0x2 SLOAD PUSH2 0x23E SWAP1 PUSH1 0x1 PUSH1 0xA0 SHL SWAP1 DIV PUSH4 0xFFFFFFFF AND DUP2 JUMP JUMPDEST PUSH1 0x40 MLOAD PUSH4 0xFFFFFFFF SWAP1 SWAP2 AND DUP2 MSTORE PUSH1 0x20 ADD PUSH2 0x1B0 JUMP JUMPDEST CALLVALUE DUP1 ISZERO PUSH2 0x25E JUMPI PUSH0 DUP1 REVERT JUMPDEST POP PUSH2 0x1CC PUSH2 0x26D CALLDATASIZE PUSH1 0x4 PUSH2 0x1CAF JUMP JUMPDEST PUSH2 0x8DD JUMP JUMPDEST CALLVALUE DUP1 ISZERO PUSH2 0x27D JUMPI PUSH0 DUP1 REVERT JUMPDEST POP PUSH2 0x23E PUSH2 0x4B0 DUP2 JUMP JUMPDEST CALLVALUE DUP1 ISZERO PUSH2 0x292 JUMPI PUSH0 DUP1 REVERT JUMPDEST POP PUSH1 0x2 SLOAD PUSH2 0x2A6 SWAP1 PUSH1 0x1 PUSH1 0x1 PUSH1 0xA0 SHL SUB AND DUP2 JUMP JUMPDEST PUSH1 0x40 MLOAD PUSH1 0x1 PUSH1 0x1 PUSH1 0xA0 SHL SUB SWAP1 SWAP2 AND DUP2 MSTORE PUSH1 0x20 ADD PUSH2 0x1B0 JUMP JUMPDEST CALLVALUE DUP1 ISZERO PUSH2 0x2C9 JUMPI PUSH0 DUP1 REVERT JUMPDEST POP PUSH2 0x20D PUSH7 0x38D7EA4C68000 DUP2 JUMP JUMPDEST CALLVALUE DUP1 ISZERO PUSH2 0x2E3 JUMPI PUSH0 DUP1 REVERT JUMPDEST POP PUSH2 0x2F7 PUSH2 0x2F2 CALLDATASIZE PUSH1 0x4 PUSH2 0x1ADB JUMP JUMPDEST PUSH2 0xD06 JUMP JUMPDEST PUSH1 0x40 MLOAD PUSH2 0x1B0 SWAP2 SWAP1 PUSH2 0x1CE4 JUMP JUMPDEST CALLVALUE DUP1 ISZERO PUSH2 0x30F JUMPI PUSH0 DUP1 REVERT JUMPDEST POP PUSH2 0x20D PUSH32 0x0 DUP2 JUMP JUMPDEST CALLVALUE DUP1 ISZERO PUSH2 0x342 JUMPI PUSH0 DUP1 REVERT JUMPDEST POP PUSH2 0x1E7 PUSH2 0x351 CALLDATASIZE PUSH1 0x4 PUSH2 0x1ADB JUMP JUMPDEST PUSH0 SWAP1 DUP2 MSTORE PUSH1 0x7 PUSH1 0x20 MSTORE PUSH1 0x40 SWAP1 KECCAK256 SLOAD PUSH1 0xFF AND SWAP1 JUMP JUMPDEST CALLVALUE DUP1 ISZERO PUSH2 0x370 JUMPI PUSH0 DUP1 REVERT JUMPDEST POP PUSH2 0x379 PUSH2 0xFCF JUMP JUMPDEST PUSH1 0x40 MLOAD PUSH2 0x1B0 SWAP2 SWAP1 PUSH2 0x1D9C JUMP JUMPDEST CALLVALUE DUP1 ISZERO PUSH2 0x391 JUMPI PUSH0 DUP1 REVERT JUMPDEST POP PUSH2 0x1CC PUSH2 0x10A1 JUMP JUMPDEST CALLVALUE DUP1 ISZERO PUSH2 0x3A5 JUMPI PUSH0 DUP1 REVERT JUMPDEST POP PUSH2 0x1CC PUSH2 0x3B4 CALLDATASIZE PUSH1 0x4 PUSH2 0x1DC2 JUMP JUMPDEST PUSH2 0x1210 JUMP JUMPDEST CALLVALUE DUP1 ISZERO PUSH2 0x3C4 JUMPI PUSH0 DUP1 REVERT JUMPDEST POP PUSH2 0x2A6 PUSH2 0x3D3 CALLDATASIZE PUSH1 0x4 PUSH2 0x1ADB JUMP JUMPDEST PUSH2 0x1504 JUMP JUMPDEST CALLVALUE DUP1 ISZERO PUSH2 0x3E3 JUMPI PUSH0 DUP1 REVERT JUMPDEST POP PUSH1 0x9 SLOAD PUSH2 0x2A6 SWAP1 PUSH2 0x100 SWAP1 DIV PUSH1 0x1 PUSH1 0x1 PUSH1 0xA0 SHL SUB AND DUP2 JUMP JUMPDEST CALLVALUE DUP1 ISZERO PUSH2 0x407 JUMPI PUSH0 DUP1 REVERT JUMPDEST POP PUSH2 0x20D PUSH1 0x6 SLOAD DUP2 JUMP JUMPDEST CALLVALUE DUP1 ISZERO PUSH2 0x41C JUMPI PUSH0 DUP1 REVERT JUMPDEST POP PUSH2 0x20D PUSH1 0xA SLOAD DUP2 JUMP JUMPDEST CALLVALUE DUP1 ISZERO PUSH2 0x431 JUMPI PUSH0 DUP1 REVERT JUMPDEST POP PUSH2 0x20D PUSH1 0x1 SLOAD DUP2 JUMP JUMPDEST CALLVALUE DUP1 ISZERO PUSH2 0x446 JUMPI PUSH0 DUP1 REVERT JUMPDEST POP PUSH2 0x20D PUSH0 SLOAD DUP2 JUMP JUMPDEST CALLVALUE DUP1 ISZERO PUSH2 0x45A JUMPI PUSH0 DUP1 REVERT JUMPDEST POP PUSH2 0x20D PUSH2 0x469 CALLDATASIZE PUSH1 0x4 PUSH2 0x1E4E JUMP JUMPDEST PUSH1 0x1 PUSH1 0x1 PUSH1 0xA0 SHL SUB AND PUSH0 SWAP1 DUP2 MSTORE PUSH1 0x8 PUSH1 0x20 MSTORE PUSH1 0x40 SWAP1 KECCAK256 SLOAD SWAP1 JUMP JUMPDEST CALLVALUE DUP1 ISZERO PUSH2 0x48E JUMPI PUSH0 DUP1 REVERT JUMPDEST POP PUSH2 0x497 PUSH1 0x32 DUP2 JUMP JUMPDEST PUSH1 0x40 MLOAD PUSH1 0xFF SWAP1 SWAP2 AND DUP2 MSTORE PUSH1 0x20 ADD PUSH2 0x1B0 JUMP JUMPDEST CALLVALUE DUP1 ISZERO PUSH2 0x4B4 JUMPI PUSH0 DUP1 REVERT JUMPDEST POP PUSH2 0x4C8 PUSH2 0x4C3 CALLDATASIZE PUSH1 0x4 PUSH2 0x1E4E JUMP JUMPDEST PUSH2 0x152C JUMP JUMPDEST PUSH1 0x40 MLOAD PUSH2 0x1B0 SWAP10 SWAP9 SWAP8 SWAP7 SWAP6 SWAP5 SWAP4 SWAP3 SWAP2 SWAP1 PUSH2 0x1E6E JUMP JUMPDEST CALLVALUE DUP1 ISZERO PUSH2 0x4E8 JUMPI PUSH0 DUP1 REVERT JUMPDEST POP PUSH2 0x4F1 PUSH2 0x1703 JUMP JUMPDEST PUSH1 0x40 MLOAD PUSH2 0x1B0 SWAP2 SWAP1 PUSH2 0x1EDD JUMP JUMPDEST PUSH1 0x5 DUP2 DUP2 SLOAD DUP2 LT PUSH2 0x50D JUMPI PUSH0 DUP1 REVERT JUMPDEST PUSH0 SWAP2 DUP3 MSTORE PUSH1 0x20 SWAP1 SWAP2 KECCAK256 PUSH1 0x7 SWAP1 SWAP2 MUL ADD DUP1 SLOAD PUSH1 0x1 DUP3 ADD DUP1 SLOAD PUSH1 0x1 PUSH1 0x1 PUSH1 0xA0 SHL SUB SWAP1 SWAP3 AND SWAP4 POP SWAP1 PUSH2 0x53B SWAP1 PUSH2 0x1F28 JUMP JUMPDEST DUP1 PUSH1 0x1F ADD PUSH1 0x20 DUP1 SWAP2 DIV MUL PUSH1 0x20 ADD PUSH1 0x40 MLOAD SWAP1 DUP2 ADD PUSH1 0x40 MSTORE DUP1 SWAP3 SWAP2 SWAP1 DUP2 DUP2 MSTORE PUSH1 0x20 ADD DUP3 DUP1 SLOAD PUSH2 0x567 SWAP1 PUSH2 0x1F28 JUMP JUMPDEST DUP1 ISZERO PUSH2 0x5B2 JUMPI DUP1 PUSH1 0x1F LT PUSH2 0x589 JUMPI PUSH2 0x100 DUP1 DUP4 SLOAD DIV MUL DUP4 MSTORE SWAP2 PUSH1 0x20 ADD SWAP2 PUSH2 0x5B2 JUMP JUMPDEST DUP3 ADD SWAP2 SWAP1 PUSH0 MSTORE PUSH1 0x20 PUSH0 KECCAK256 SWAP1 JUMPDEST DUP2 SLOAD DUP2 MSTORE SWAP1 PUSH1 0x1 ADD SWAP1 PUSH1 0x20 ADD DUP1 DUP4 GT PUSH2 0x595 JUMPI DUP3 SWAP1 SUB PUSH1 0x1F AND DUP3 ADD SWAP2 JUMPDEST POP POP POP POP PUSH1 0x2 DUP4 ADD SLOAD PUSH1 0x3 DUP5 ADD SLOAD PUSH1 0x4 DUP6 ADD SLOAD PUSH1 0x5 SWAP1 SWAP6 ADD SLOAD SWAP4 SWAP5 SWAP2 SWAP4 SWAP1 SWAP3 POP PUSH1 0xFF AND DUP7 JUMP JUMPDEST PUSH0 DUP4 MLOAD GT DUP1 ISZERO PUSH2 0x5EA JUMPI POP PUSH1 0x64 DUP4 MLOAD GT ISZERO JUMPDEST PUSH2 0x62A JUMPI PUSH1 0x40 MLOAD PUSH3 0x461BCD PUSH1 0xE5 SHL DUP2 MSTORE PUSH1 0x20 PUSH1 0x4 DUP3 ADD MSTORE PUSH1 0xC PUSH1 0x24 DUP3 ADD MSTORE PUSH12 0x496E76616C6964206E616D65 PUSH1 0xA0 SHL PUSH1 0x44 DUP3 ADD MSTORE PUSH1 0x64 ADD JUMPDEST PUSH1 0x40 MLOAD DUP1 SWAP2 SUB SWAP1 REVERT JUMPDEST PUSH0 DUP3 MLOAD GT DUP1 ISZERO PUSH2 0x63D JUMPI POP PUSH2 0x3E8 DUP3 MLOAD GT ISZERO JUMPDEST PUSH2 0x677 JUMPI PUSH1 0x40 MLOAD PUSH3 0x461BCD PUSH1 0xE5 SHL DUP2 MSTORE PUSH1 0x20 PUSH1 0x4 DUP3 ADD MSTORE PUSH1 0xB PUSH1 0x24 DUP3 ADD MSTORE PUSH11 0x496E76616C69642062696F PUSH1 0xA8 SHL PUSH1 0x44 DUP3 ADD MSTORE PUSH1 0x64 ADD PUSH2 0x621 JUMP JUMPDEST PUSH0 DUP2 MLOAD GT DUP1 ISZERO PUSH2 0x68A JUMPI POP PUSH2 0x3E8 DUP2 MLOAD GT ISZERO JUMPDEST PUSH2 0x6C8 JUMPI PUSH1 0x40 MLOAD PUSH3 0x461BCD PUSH1 0xE5 SHL DUP2 MSTORE PUSH1 0x20 PUSH1 0x4 DUP3 ADD MSTORE PUSH1 0xF PUSH1 0x24 DUP3 ADD MSTORE PUSH15 0x496E76616C69642077656273697465 PUSH1 0x88 SHL PUSH1 0x44 DUP3 ADD MSTORE PUSH1 0x64 ADD PUSH2 0x621 JUMP JUMPDEST CALLER PUSH2 0x706 JUMPI PUSH1 0x40 MLOAD PUSH3 0x461BCD PUSH1 0xE5 SHL DUP2 MSTORE PUSH1 0x20 PUSH1 0x4 DUP3 ADD MSTORE PUSH1 0xE PUSH1 0x24 DUP3 ADD MSTORE PUSH14 0x24B73B30B634B21039B2B73232B9 PUSH1 0x91 SHL PUSH1 0x44 DUP3 ADD MSTORE PUSH1 0x64 ADD PUSH2 0x621 JUMP JUMPDEST PUSH7 0x38D7EA4C68000 CALLVALUE LT ISZERO PUSH2 0x75D JUMPI PUSH1 0x40 MLOAD PUSH3 0x461BCD PUSH1 0xE5 SHL DUP2 MSTORE PUSH1 0x20 PUSH1 0x4 DUP3 ADD MSTORE PUSH1 0x1D PUSH1 0x24 DUP3 ADD MSTORE PUSH32 0x496E73756666696369656E7420726567697374726174696F6E20666565000000 PUSH1 0x44 DUP3 ADD MSTORE PUSH1 0x64 ADD PUSH2 0x621 JUMP JUMPDEST PUSH0 PUSH2 0x766 PUSH2 0xFCF JUMP JUMPDEST PUSH1 0x5 DUP2 GT ISZERO PUSH2 0x777 JUMPI PUSH2 0x777 PUSH2 0x1D88 JUMP JUMPDEST EQ PUSH2 0x7C4 JUMPI PUSH1 0x40 MLOAD PUSH3 0x461BCD PUSH1 0xE5 SHL DUP2 MSTORE PUSH1 0x20 PUSH1 0x4 DUP3 ADD MSTORE PUSH1 0x19 PUSH1 0x24 DUP3 ADD MSTORE PUSH32 0x526567697374726174696F6E20706572696F6420656E64656400000000000000 PUSH1 0x44 DUP3 ADD MSTORE PUSH1 0x64 ADD PUSH2 0x621 JUMP JUMPDEST CALLER PUSH0 SWAP1 DUP2 MSTORE PUSH1 0x4 PUSH1 0x20 MSTORE PUSH1 0x40 SWAP1 KECCAK256 PUSH1 0x3 ADD SLOAD ISZERO PUSH2 0x818 JUMPI PUSH1 0x40 MLOAD PUSH3 0x461BCD PUSH1 0xE5 SHL DUP2 MSTORE PUSH1 0x20 PUSH1 0x4 DUP3 ADD MSTORE PUSH1 0x12 PUSH1 0x24 DUP3 ADD MSTORE PUSH18 0x105B1C9958591E481C9959DA5CDD195C9959 PUSH1 0x72 SHL PUSH1 0x44 DUP3 ADD MSTORE PUSH1 0x64 ADD PUSH2 0x621 JUMP JUMPDEST CALLER PUSH0 SWAP1 DUP2 MSTORE PUSH1 0x4 PUSH1 0x20 MSTORE PUSH1 0x40 SWAP1 KECCAK256 DUP1 PUSH2 0x831 DUP6 DUP3 PUSH2 0x1FAC JUMP JUMPDEST POP PUSH1 0x1 DUP2 ADD PUSH2 0x840 DUP5 DUP3 PUSH2 0x1FAC JUMP JUMPDEST POP PUSH1 0x2 DUP2 ADD PUSH2 0x84F DUP4 DUP3 PUSH2 0x1FAC JUMP JUMPDEST POP TIMESTAMP PUSH1 0x3 DUP1 DUP4 ADD SWAP2 SWAP1 SWAP2 SSTORE DUP1 SLOAD PUSH1 0x1 DUP2 ADD DUP3 SSTORE PUSH0 SWAP2 SWAP1 SWAP2 MSTORE PUSH32 0xC2575A0E9E593C00F959F8C92F12DB2869C3395A3B0502D05E2516446F71F85B ADD DUP1 SLOAD PUSH1 0x1 PUSH1 0x1 PUSH1 0xA0 SHL SUB NOT AND CALLER SWAP1 DUP2 OR SWAP1 SWAP2 SSTORE PUSH1 0x40 MLOAD PUSH31 0xD6FEA68F71A20D8149F227F87E8CF7E6AD320B2DAD4B45465B14599B80EE09 SWAP1 PUSH2 0x8CF SWAP1 DUP8 SWAP1 DUP8 SWAP1 DUP8 SWAP1 PUSH2 0x2067 JUMP JUMPDEST PUSH1 0x40 MLOAD DUP1 SWAP2 SUB SWAP1 LOG2 POP POP POP POP JUMP JUMPDEST PUSH1 0x2 SLOAD PUSH1 0x1 PUSH1 0x1 PUSH1 0xA0 SHL SUB AND CALLER EQ PUSH2 0x930 JUMPI PUSH1 0x40 MLOAD PUSH3 0x461BCD PUSH1 0xE5 SHL DUP2 MSTORE PUSH1 0x20 PUSH1 0x4 DUP3 ADD MSTORE PUSH1 0x16 PUSH1 0x24 DUP3 ADD MSTORE PUSH22 0x139BDD08185D5D1A1BDC9A5E9959081B995D5D1C985B PUSH1 0x52 SHL PUSH1 0x44 DUP3 ADD MSTORE PUSH1 0x64 ADD PUSH2 0x621 JUMP JUMPDEST PUSH0 PUSH2 0x939 PUSH2 0xFCF JUMP JUMPDEST PUSH1 0x5 DUP2 GT ISZERO PUSH2 0x94A JUMPI PUSH2 0x94A PUSH2 0x1D88 JUMP JUMPDEST EQ PUSH2 0x997 JUMPI PUSH1 0x40 MLOAD PUSH3 0x461BCD PUSH1 0xE5 SHL DUP2 MSTORE PUSH1 0x20 PUSH1 0x4 DUP3 ADD MSTORE PUSH1 0x1E PUSH1 0x24 DUP3 ADD MSTORE PUSH32 0x566F74657220616464696E6720706572696F642068617320656E6465642E0000 PUSH1 0x44 DUP3 ADD MSTORE PUSH1 0x64 ADD PUSH2 0x621 JUMP JUMPDEST PUSH1 0x2 SLOAD PUSH2 0x4B0 PUSH1 0x1 PUSH1 0xA0 SHL SWAP1 SWAP2 DIV PUSH4 0xFFFFFFFF AND LT PUSH2 0xA02 JUMPI PUSH1 0x40 MLOAD PUSH3 0x461BCD PUSH1 0xE5 SHL DUP2 MSTORE PUSH1 0x20 PUSH1 0x4 DUP3 ADD MSTORE PUSH1 0x21 PUSH1 0x24 DUP3 ADD MSTORE PUSH32 0x4D6178696D756D206E756D626572206F6620766F746572732072656163686564 PUSH1 0x44 DUP3 ADD MSTORE PUSH1 0x17 PUSH1 0xF9 SHL PUSH1 0x64 DUP3 ADD MSTORE PUSH1 0x84 ADD PUSH2 0x621 JUMP JUMPDEST PUSH0 JUMPDEST PUSH1 0xA PUSH1 0xFF DUP3 AND LT ISZERO PUSH2 0xAE5 JUMPI PUSH1 0x7 PUSH0 DUP4 DUP4 PUSH1 0xFF AND PUSH1 0xA DUP2 LT PUSH2 0xA28 JUMPI PUSH2 0xA28 PUSH2 0x20A9 JUMP JUMPDEST PUSH1 0x20 SWAP1 DUP2 MUL SWAP2 SWAP1 SWAP2 ADD CALLDATALOAD DUP3 MSTORE DUP2 ADD SWAP2 SWAP1 SWAP2 MSTORE PUSH1 0x40 ADD PUSH0 KECCAK256 SLOAD PUSH1 0xFF AND ISZERO PUSH2 0xA90 JUMPI PUSH1 0x40 MLOAD PUSH3 0x461BCD PUSH1 0xE5 SHL DUP2 MSTORE PUSH1 0x20 PUSH1 0x4 DUP3 ADD MSTORE PUSH1 0x1D PUSH1 0x24 DUP3 ADD MSTORE PUSH32 0x566F746572206861736820616C72656164792072656769737465726564000000 PUSH1 0x44 DUP3 ADD MSTORE PUSH1 0x64 ADD PUSH2 0x621 JUMP JUMPDEST PUSH1 0x1 PUSH1 0x7 PUSH0 DUP5 DUP5 PUSH1 0xFF AND PUSH1 0xA DUP2 LT PUSH2 0xAAA JUMPI PUSH2 0xAAA PUSH2 0x20A9 JUMP JUMPDEST PUSH1 0x20 MUL ADD CALLDATALOAD DUP2 MSTORE PUSH1 0x20 ADD SWAP1 DUP2 MSTORE PUSH1 0x20 ADD PUSH0 KECCAK256 PUSH0 PUSH2 0x100 EXP DUP2 SLOAD DUP2 PUSH1 0xFF MUL NOT AND SWAP1 DUP4 ISZERO ISZERO MUL OR SWAP1 SSTORE POP DUP1 DUP1 PUSH2 0xADD SWAP1 PUSH2 0x20D1 JUMP JUMPDEST SWAP2 POP POP PUSH2 0xA04 JUMP JUMPDEST POP PUSH0 JUMPDEST PUSH1 0xA PUSH1 0xFF DUP3 AND LT ISZERO PUSH2 0xC6A JUMPI PUSH0 DUP4 PUSH1 0xFF DUP4 AND PUSH1 0xA DUP2 LT PUSH2 0xB0A JUMPI PUSH2 0xB0A PUSH2 0x20A9 JUMP JUMPDEST PUSH1 0x20 MUL ADD PUSH1 0x20 DUP2 ADD SWAP1 PUSH2 0xB1D SWAP2 SWAP1 PUSH2 0x1E4E JUMP JUMPDEST PUSH1 0x1 PUSH1 0x1 PUSH1 0xA0 SHL SUB AND SUB PUSH2 0xB6B JUMPI PUSH1 0x40 MLOAD PUSH3 0x461BCD PUSH1 0xE5 SHL DUP2 MSTORE PUSH1 0x20 PUSH1 0x4 DUP3 ADD MSTORE PUSH1 0x15 PUSH1 0x24 DUP3 ADD MSTORE PUSH21 0x496E76616C696420766F7465722061646472657373 PUSH1 0x58 SHL PUSH1 0x44 DUP3 ADD MSTORE PUSH1 0x64 ADD PUSH2 0x621 JUMP JUMPDEST PUSH1 0x8 PUSH0 DUP5 DUP4 PUSH1 0xFF AND PUSH1 0xA DUP2 LT PUSH2 0xB83 JUMPI PUSH2 0xB83 PUSH2 0x20A9 JUMP JUMPDEST PUSH1 0x20 MUL ADD PUSH1 0x20 DUP2 ADD SWAP1 PUSH2 0xB96 SWAP2 SWAP1 PUSH2 0x1E4E JUMP JUMPDEST PUSH1 0x1 PUSH1 0x1 PUSH1 0xA0 SHL SUB AND DUP2 MSTORE PUSH1 0x20 DUP2 ADD SWAP2 SWAP1 SWAP2 MSTORE PUSH1 0x40 ADD PUSH0 KECCAK256 SLOAD ISZERO PUSH2 0xC12 JUMPI PUSH1 0x40 MLOAD PUSH3 0x461BCD PUSH1 0xE5 SHL DUP2 MSTORE PUSH1 0x20 PUSH1 0x4 DUP3 ADD MSTORE PUSH1 0x2D PUSH1 0x24 DUP3 ADD MSTORE PUSH32 0x416464726573737320616C726561647920726567697374657265642E20526567 PUSH1 0x44 DUP3 ADD MSTORE PUSH13 0x697374726172204552524F5221 PUSH1 0x98 SHL PUSH1 0x64 DUP3 ADD MSTORE PUSH1 0x84 ADD PUSH2 0x621 JUMP JUMPDEST PUSH1 0x1 PUSH1 0x8 PUSH0 DUP6 DUP5 PUSH1 0xFF AND PUSH1 0xA DUP2 LT PUSH2 0xC2C JUMPI PUSH2 0xC2C PUSH2 0x20A9 JUMP JUMPDEST PUSH1 0x20 MUL ADD PUSH1 0x20 DUP2 ADD SWAP1 PUSH2 0xC3F SWAP2 SWAP1 PUSH2 0x1E4E JUMP JUMPDEST PUSH1 0x1 PUSH1 0x1 PUSH1 0xA0 SHL SUB AND DUP2 MSTORE PUSH1 0x20 DUP2 ADD SWAP2 SWAP1 SWAP2 MSTORE PUSH1 0x40 ADD PUSH0 KECCAK256 SSTORE DUP1 PUSH2 0xC62 DUP2 PUSH2 0x20D1 JUMP JUMPDEST SWAP2 POP POP PUSH2 0xAE8 JUMP JUMPDEST POP PUSH1 0xA PUSH1 0x2 PUSH1 0x14 DUP3 DUP3 DUP3 SWAP1 SLOAD SWAP1 PUSH2 0x100 EXP SWAP1 DIV PUSH4 0xFFFFFFFF AND PUSH2 0xC8D SWAP2 SWAP1 PUSH2 0x20EF JUMP JUMPDEST SWAP3 POP PUSH2 0x100 EXP DUP2 SLOAD DUP2 PUSH4 0xFFFFFFFF MUL NOT AND SWAP1 DUP4 PUSH4 0xFFFFFFFF AND MUL OR SWAP1 SSTORE POP DUP2 PUSH1 0x40 MLOAD PUSH2 0xCB9 SWAP2 SWAP1 PUSH2 0x210B JUMP JUMPDEST PUSH1 0x40 MLOAD SWAP1 DUP2 SWAP1 SUB DUP2 KECCAK256 PUSH1 0x2 SLOAD PUSH1 0x1 PUSH1 0xA0 SHL SWAP1 DIV PUSH4 0xFFFFFFFF AND DUP3 MSTORE SWAP1 PUSH32 0x5ECF71B87B223B4E8C4D19850B2C7A727D326E44EDA6530FE642B505FF2C4F94 SWAP1 PUSH1 0x20 ADD PUSH1 0x40 MLOAD DUP1 SWAP2 SUB SWAP1 LOG2 POP POP JUMP JUMPDEST PUSH2 0xD4F PUSH1 0x40 MLOAD DUP1 PUSH2 0x120 ADD PUSH1 0x40 MSTORE DUP1 PUSH1 0x60 DUP2 MSTORE PUSH1 0x20 ADD PUSH1 0x60 DUP2 MSTORE PUSH1 0x20 ADD PUSH1 0x60 DUP2 MSTORE PUSH1 0x20 ADD PUSH0 DUP2 MSTORE PUSH1 0x20 ADD PUSH0 DUP2 MSTORE PUSH1 0x20 ADD PUSH0 DUP2 MSTORE PUSH1 0x20 ADD PUSH0 DUP2 MSTORE PUSH1 0x20 ADD PUSH0 DUP2 MSTORE PUSH1 0x20 ADD PUSH0 DUP2 MSTORE POP SWAP1 JUMP JUMPDEST PUSH1 0x3 SLOAD DUP3 LT PUSH2 0xD97 JUMPI PUSH1 0x40 MLOAD PUSH3 0x461BCD PUSH1 0xE5 SHL DUP2 MSTORE PUSH1 0x20 PUSH1 0x4 DUP3 ADD MSTORE PUSH1 0x14 PUSH1 0x24 DUP3 ADD MSTORE PUSH20 0x125B9D985B1A590810D85B991A59185D19481251 PUSH1 0x62 SHL PUSH1 0x44 DUP3 ADD MSTORE PUSH1 0x64 ADD PUSH2 0x621 JUMP JUMPDEST PUSH1 0x4 PUSH0 PUSH1 0x3 DUP5 DUP2 SLOAD DUP2 LT PUSH2 0xDAD JUMPI PUSH2 0xDAD PUSH2 0x20A9 JUMP JUMPDEST PUSH0 SWAP2 DUP3 MSTORE PUSH1 0x20 DUP1 DUP4 KECCAK256 SWAP1 SWAP2 ADD SLOAD PUSH1 0x1 PUSH1 0x1 PUSH1 0xA0 SHL SUB AND DUP4 MSTORE DUP3 ADD SWAP3 SWAP1 SWAP3 MSTORE PUSH1 0x40 SWAP1 DUP2 ADD SWAP1 SWAP2 KECCAK256 DUP2 MLOAD PUSH2 0x120 DUP2 ADD SWAP1 SWAP3 MSTORE DUP1 SLOAD DUP3 SWAP1 DUP3 SWAP1 PUSH2 0xDEC SWAP1 PUSH2 0x1F28 JUMP JUMPDEST DUP1 PUSH1 0x1F ADD PUSH1 0x20 DUP1 SWAP2 DIV MUL PUSH1 0x20 ADD PUSH1 0x40 MLOAD SWAP1 DUP2 ADD PUSH1 0x40 MSTORE DUP1 SWAP3 SWAP2 SWAP1 DUP2 DUP2 MSTORE PUSH1 0x20 ADD DUP3 DUP1 SLOAD PUSH2 0xE18 SWAP1 PUSH2 0x1F28 JUMP JUMPDEST DUP1 ISZERO PUSH2 0xE63 JUMPI DUP1 PUSH1 0x1F LT PUSH2 0xE3A JUMPI PUSH2 0x100 DUP1 DUP4 SLOAD DIV MUL DUP4 MSTORE SWAP2 PUSH1 0x20 ADD SWAP2 PUSH2 0xE63 JUMP JUMPDEST DUP3 ADD SWAP2 SWAP1 PUSH0 MSTORE PUSH1 0x20 PUSH0 KECCAK256 SWAP1 JUMPDEST DUP2 SLOAD DUP2 MSTORE SWAP1 PUSH1 0x1 ADD SWAP1 PUSH1 0x20 ADD DUP1 DUP4 GT PUSH2 0xE46 JUMPI DUP3 SWAP1 SUB PUSH1 0x1F AND DUP3 ADD SWAP2 JUMPDEST POP POP POP POP POP DUP2 MSTORE PUSH1 0x20 ADD PUSH1 0x1 DUP3 ADD DUP1 SLOAD PUSH2 0xE7C SWAP1 PUSH2 0x1F28 JUMP JUMPDEST DUP1 PUSH1 0x1F ADD PUSH1 0x20 DUP1 SWAP2 DIV MUL PUSH1 0x20 ADD PUSH1 0x40 MLOAD SWAP1 DUP2 ADD PUSH1 0x40 MSTORE DUP1 SWAP3 SWAP2 SWAP1 DUP2 DUP2 MSTORE PUSH1 0x20 ADD DUP3 DUP1 SLOAD PUSH2 0xEA8 SWAP1 PUSH2 0x1F28 JUMP JUMPDEST DUP1 ISZERO PUSH2 0xEF3 JUMPI DUP1 PUSH1 0x1F LT PUSH2 0xECA JUMPI PUSH2 0x100 DUP1 DUP4 SLOAD DIV MUL DUP4 MSTORE SWAP2 PUSH1 0x20 ADD SWAP2 PUSH2 0xEF3 JUMP JUMPDEST DUP3 ADD SWAP2 SWAP1 PUSH0 MSTORE PUSH1 0x20 PUSH0 KECCAK256 SWAP1 JUMPDEST DUP2 SLOAD DUP2 MSTORE SWAP1 PUSH1 0x1 ADD SWAP1 PUSH1 0x20 ADD DUP1 DUP4 GT PUSH2 0xED6 JUMPI DUP3 SWAP1 SUB PUSH1 0x1F AND DUP3 ADD SWAP2 JUMPDEST POP POP POP POP POP DUP2 MSTORE PUSH1 0x20 ADD PUSH1 0x2 DUP3 ADD DUP1 SLOAD PUSH2 0xF0C SWAP1 PUSH2 0x1F28 JUMP JUMPDEST DUP1 PUSH1 0x1F ADD PUSH1 0x20 DUP1 SWAP2 DIV MUL PUSH1 0x20 ADD PUSH1 0x40 MLOAD SWAP1 DUP2 ADD PUSH1 0x40 MSTORE DUP1 SWAP3 SWAP2 SWAP1 DUP2 DUP2 MSTORE PUSH1 0x20 ADD DUP3 DUP1 SLOAD PUSH2 0xF38 SWAP1 PUSH2 0x1F28 JUMP JUMPDEST DUP1 ISZERO PUSH2 0xF83 JUMPI DUP1 PUSH1 0x1F LT PUSH2 0xF5A JUMPI PUSH2 0x100 DUP1 DUP4 SLOAD DIV MUL DUP4 MSTORE SWAP2 PUSH1 0x20 ADD SWAP2 PUSH2 0xF83 JUMP JUMPDEST DUP3 ADD SWAP2 SWAP1 PUSH0 MSTORE PUSH1 0x20 PUSH0 KECCAK256 SWAP1 JUMPDEST DUP2 SLOAD DUP2 MSTORE SWAP1 PUSH1 0x1 ADD SWAP1 PUSH1 0x20 ADD DUP1 DUP4 GT PUSH2 0xF66 JUMPI DUP3 SWAP1 SUB PUSH1 0x1F AND DUP3 ADD SWAP2 JUMPDEST POP POP POP POP POP DUP2 MSTORE PUSH1 0x20 ADD PUSH1 0x3 DUP3 ADD SLOAD DUP2 MSTORE PUSH1 0x20 ADD PUSH1 0x4 DUP3 ADD SLOAD DUP2 MSTORE PUSH1 0x20 ADD PUSH1 0x5 DUP3 ADD SLOAD DUP2 MSTORE PUSH1 0x20 ADD PUSH1 0x6 DUP3 ADD SLOAD DUP2 MSTORE PUSH1 0x20 ADD PUSH1 0x7 DUP3 ADD SLOAD DUP2 MSTORE PUSH1 0x20 ADD PUSH1 0x8 DUP3 ADD SLOAD DUP2 MSTORE POP POP SWAP1 POP SWAP2 SWAP1 POP JUMP JUMPDEST PUSH0 PUSH1 0x1 SLOAD TIMESTAMP LT ISZERO PUSH2 0xFDF JUMPI POP PUSH0 SWAP1 JUMP JUMPDEST PUSH2 0xFEB PUSH1 0x32 PUSH1 0x2 PUSH2 0x2150 JUMP JUMPDEST PUSH1 0xFF AND PUSH1 0x3 DUP1 SLOAD SWAP1 POP LT DUP1 PUSH2 0x1011 JUMPI POP PUSH1 0x2 SLOAD PUSH2 0x4B0 PUSH1 0x1 PUSH1 0xA0 SHL SWAP1 SWAP2 DIV PUSH4 0xFFFFFFFF AND LT JUMPDEST ISZERO PUSH2 0x1020 JUMPI POP PUSH0 PUSH1 0x1 DUP2 SWAP1 SSTORE SWAP1 JUMP JUMPDEST PUSH1 0x1 SLOAD PUSH0 SUB PUSH2 0x1052 JUMPI TIMESTAMP PUSH1 0x1 DUP2 SWAP1 SSTORE PUSH2 0x103D SWAP1 PUSH3 0x127500 SWAP1 PUSH2 0x2173 JUMP JUMPDEST PUSH2 0x104A SWAP1 PUSH3 0x15180 PUSH2 0x2173 JUMP JUMPDEST PUSH0 SSTORE POP PUSH1 0x1 SWAP1 JUMP JUMPDEST PUSH1 0x1 PUSH0 SLOAD PUSH2 0x1060 SWAP2 SWAP1 PUSH2 0x2186 JUMP JUMPDEST TIMESTAMP LT ISZERO PUSH2 0x106D JUMPI POP PUSH1 0x1 SWAP1 JUMP JUMPDEST PUSH0 SLOAD TIMESTAMP LT ISZERO PUSH2 0x107C JUMPI POP PUSH1 0x2 SWAP1 JUMP JUMPDEST PUSH1 0x6 SLOAD PUSH0 SUB PUSH2 0x108B JUMPI POP PUSH1 0x3 SWAP1 JUMP JUMPDEST PUSH1 0x6 SLOAD TIMESTAMP LT ISZERO PUSH2 0x109B JUMPI POP PUSH1 0x4 SWAP1 JUMP JUMPDEST POP PUSH1 0x5 SWAP1 JUMP JUMPDEST PUSH1 0x9 SLOAD PUSH1 0xFF AND PUSH2 0x10E3 JUMPI PUSH1 0x40 MLOAD PUSH3 0x461BCD PUSH1 0xE5 SHL DUP2 MSTORE PUSH1 0x20 PUSH1 0x4 DUP3 ADD MSTORE PUSH1 0xD PUSH1 0x24 DUP3 ADD MSTORE PUSH13 0x139BC81B195859195C881E595D PUSH1 0x9A SHL PUSH1 0x44 DUP3 ADD MSTORE PUSH1 0x64 ADD PUSH2 0x621 JUMP JUMPDEST PUSH1 0x9 SLOAD PUSH2 0x100 SWAP1 DIV PUSH1 0x1 PUSH1 0x1 PUSH1 0xA0 SHL SUB AND PUSH0 SWAP1 DUP2 MSTORE PUSH1 0x4 PUSH1 0x20 MSTORE PUSH1 0x40 SWAP1 KECCAK256 PUSH1 0x6 ADD SLOAD PUSH2 0x1113 SWAP1 PUSH3 0x127500 SWAP1 PUSH2 0x2173 JUMP JUMPDEST TIMESTAMP LT ISZERO PUSH2 0x116D JUMPI PUSH1 0x40 MLOAD PUSH3 0x461BCD PUSH1 0xE5 SHL DUP2 MSTORE PUSH1 0x20 PUSH1 0x4 DUP3 ADD MSTORE PUSH1 0x22 PUSH1 0x24 DUP3 ADD MSTORE PUSH32 0x43757272656E74206C65616465722773207465726D206E6F742066696E697368 PUSH1 0x44 DUP3 ADD MSTORE PUSH2 0x1959 PUSH1 0xF2 SHL PUSH1 0x64 DUP3 ADD MSTORE PUSH1 0x84 ADD PUSH2 0x621 JUMP JUMPDEST PUSH1 0xA DUP1 SLOAD SWAP1 PUSH0 PUSH2 0x117C DUP4 PUSH2 0x2199 JUMP JUMPDEST SWAP2 SWAP1 POP SSTORE POP PUSH1 0x3 PUSH1 0xA SLOAD DUP2 SLOAD DUP2 LT PUSH2 0x1196 JUMPI PUSH2 0x1196 PUSH2 0x20A9 JUMP JUMPDEST PUSH0 SWAP2 DUP3 MSTORE PUSH1 0x20 DUP1 DUP4 KECCAK256 SWAP2 SWAP1 SWAP2 ADD SLOAD PUSH1 0x9 DUP1 SLOAD PUSH2 0x100 PUSH1 0x1 PUSH1 0xA8 SHL SUB NOT AND PUSH2 0x100 PUSH1 0x1 PUSH1 0x1 PUSH1 0xA0 SHL SUB SWAP4 DUP5 AND DUP2 MUL SWAP2 SWAP1 SWAP2 OR DUP1 DUP4 SSTORE DUP2 SWAP1 DIV DUP4 AND DUP6 MSTORE PUSH1 0x4 SWAP1 SWAP4 MSTORE PUSH1 0x40 DUP1 DUP6 KECCAK256 TIMESTAMP PUSH1 0x6 SWAP1 SWAP2 ADD SSTORE SWAP1 SLOAD SWAP1 MLOAD SWAP3 SWAP1 DIV AND SWAP2 PUSH32 0x8A84BB57BF3F6ADEFAA7A35A6A5067473F78164BFC14C2F6AE8B93E5B115B35A SWAP2 LOG2 JUMP JUMPDEST PUSH1 0x2 PUSH2 0x121A PUSH2 0xFCF JUMP JUMPDEST PUSH1 0x5 DUP2 GT ISZERO PUSH2 0x122B JUMPI PUSH2 0x122B PUSH2 0x1D88 JUMP JUMPDEST EQ PUSH2 0x1270 JUMPI PUSH1 0x40 MLOAD PUSH3 0x461BCD PUSH1 0xE5 SHL DUP2 MSTORE PUSH1 0x20 PUSH1 0x4 DUP3 ADD MSTORE PUSH1 0x15 PUSH1 0x24 DUP3 ADD MSTORE PUSH21 0x4E6F7420696E20456C656374696F6E207068617365 PUSH1 0x58 SHL PUSH1 0x44 DUP3 ADD MSTORE PUSH1 0x64 ADD PUSH2 0x621 JUMP JUMPDEST PUSH1 0x3 SLOAD DUP2 GT ISZERO PUSH2 0x12B7 JUMPI PUSH1 0x40 MLOAD PUSH3 0x461BCD PUSH1 0xE5 SHL DUP2 MSTORE PUSH1 0x20 PUSH1 0x4 DUP3 ADD MSTORE PUSH1 0x12 PUSH1 0x24 DUP3 ADD MSTORE PUSH18 0x125B9D985B1A59081D9BDD194818DBDD5B9D PUSH1 0x72 SHL PUSH1 0x44 DUP3 ADD MSTORE PUSH1 0x64 ADD PUSH2 0x621 JUMP JUMPDEST CALLER PUSH0 SWAP1 DUP2 MSTORE PUSH1 0x8 PUSH1 0x20 MSTORE PUSH1 0x40 SWAP1 KECCAK256 SLOAD PUSH1 0x1 EQ PUSH2 0x1326 JUMPI PUSH1 0x40 MLOAD PUSH3 0x461BCD PUSH1 0xE5 SHL DUP2 MSTORE PUSH1 0x20 PUSH1 0x4 DUP3 ADD MSTORE PUSH1 0x28 PUSH1 0x24 DUP3 ADD MSTORE PUSH32 0x416C726561647920766F74656420283E3129206F72206E6F7420726567697374 PUSH1 0x44 DUP3 ADD MSTORE PUSH8 0x6572656420283029 PUSH1 0xC0 SHL PUSH1 0x64 DUP3 ADD MSTORE PUSH1 0x84 ADD PUSH2 0x621 JUMP JUMPDEST PUSH1 0x3 SLOAD PUSH0 SWAP1 PUSH8 0xFFFFFFFFFFFFFFFF DUP2 GT ISZERO PUSH2 0x1343 JUMPI PUSH2 0x1343 PUSH2 0x1B6B JUMP JUMPDEST PUSH1 0x40 MLOAD SWAP1 DUP1 DUP3 MSTORE DUP1 PUSH1 0x20 MUL PUSH1 0x20 ADD DUP3 ADD PUSH1 0x40 MSTORE DUP1 ISZERO PUSH2 0x136C JUMPI DUP2 PUSH1 0x20 ADD PUSH1 0x20 DUP3 MUL DUP1 CALLDATASIZE DUP4 CALLDATACOPY ADD SWAP1 POP JUMPDEST POP CALLER PUSH0 DUP2 DUP2 MSTORE PUSH1 0x8 PUSH1 0x20 MSTORE PUSH1 0x40 DUP1 DUP3 KECCAK256 TIMESTAMP SWAP1 SSTORE MLOAD SWAP3 SWAP4 POP SWAP1 SWAP2 PUSH32 0xB87A61D78BD15221C59B983F6EF032FBDE0631E66BFE18D1421FE5A73C16741D SWAP2 SWAP1 LOG2 PUSH0 JUMPDEST DUP3 DUP2 LT ISZERO PUSH2 0x14FE JUMPI PUSH0 DUP5 DUP5 DUP4 DUP2 DUP2 LT PUSH2 0x13C6 JUMPI PUSH2 0x13C6 PUSH2 0x20A9 JUMP JUMPDEST SWAP1 POP PUSH1 0x20 MUL ADD CALLDATALOAD SWAP1 POP PUSH1 0x3 DUP1 SLOAD SWAP1 POP DUP2 LT PUSH2 0x141B JUMPI PUSH1 0x40 MLOAD PUSH3 0x461BCD PUSH1 0xE5 SHL DUP2 MSTORE PUSH1 0x20 PUSH1 0x4 DUP3 ADD MSTORE PUSH1 0x15 PUSH1 0x24 DUP3 ADD MSTORE PUSH21 0xAEE4DEDCCE40C6C2DCC8D2C8C2E8CA40D2DCC8CAF PUSH1 0x5B SHL PUSH1 0x44 DUP3 ADD MSTORE PUSH1 0x64 ADD PUSH2 0x621 JUMP JUMPDEST DUP3 DUP2 DUP2 MLOAD DUP2 LT PUSH2 0x142D JUMPI PUSH2 0x142D PUSH2 0x20A9 JUMP JUMPDEST PUSH1 0x20 MUL PUSH1 0x20 ADD ADD MLOAD ISZERO PUSH2 0x1482 JUMPI PUSH1 0x40 MLOAD PUSH3 0x461BCD PUSH1 0xE5 SHL DUP2 MSTORE PUSH1 0x20 PUSH1 0x4 DUP3 ADD MSTORE PUSH1 0x1A PUSH1 0x24 DUP3 ADD MSTORE PUSH32 0x526570657469746976652063616E64696461746520696E646578000000000000 PUSH1 0x44 DUP3 ADD MSTORE PUSH1 0x64 ADD PUSH2 0x621 JUMP JUMPDEST PUSH1 0x1 DUP4 DUP3 DUP2 MLOAD DUP2 LT PUSH2 0x1496 JUMPI PUSH2 0x1496 PUSH2 0x20A9 JUMP JUMPDEST PUSH1 0x20 MUL PUSH1 0x20 ADD ADD SWAP1 ISZERO ISZERO SWAP1 DUP2 ISZERO ISZERO DUP2 MSTORE POP POP PUSH1 0x4 PUSH0 PUSH1 0x3 DUP4 DUP2 SLOAD DUP2 LT PUSH2 0x14BE JUMPI PUSH2 0x14BE PUSH2 0x20A9 JUMP JUMPDEST PUSH0 SWAP2 DUP3 MSTORE PUSH1 0x20 DUP1 DUP4 KECCAK256 SWAP1 SWAP2 ADD SLOAD PUSH1 0x1 PUSH1 0x1 PUSH1 0xA0 SHL SUB AND DUP4 MSTORE DUP3 ADD SWAP3 SWAP1 SWAP3 MSTORE PUSH1 0x40 ADD DUP2 KECCAK256 PUSH1 0x4 ADD DUP1 SLOAD SWAP2 PUSH2 0x14F0 DUP4 PUSH2 0x2199 JUMP JUMPDEST SWAP1 SWAP2 SSTORE POP POP POP PUSH1 0x1 ADD PUSH2 0x13AB JUMP JUMPDEST POP POP POP POP JUMP JUMPDEST PUSH1 0x3 DUP2 DUP2 SLOAD DUP2 LT PUSH2 0x1513 JUMPI PUSH0 DUP1 REVERT JUMPDEST PUSH0 SWAP2 DUP3 MSTORE PUSH1 0x20 SWAP1 SWAP2 KECCAK256 ADD SLOAD PUSH1 0x1 PUSH1 0x1 PUSH1 0xA0 SHL SUB AND SWAP1 POP DUP2 JUMP JUMPDEST PUSH1 0x4 PUSH1 0x20 MSTORE PUSH0 SWAP1 DUP2 MSTORE PUSH1 0x40 SWAP1 KECCAK256 DUP1 SLOAD DUP2 SWAP1 PUSH2 0x1546 SWAP1 PUSH2 0x1F28 JUMP JUMPDEST DUP1 PUSH1 0x1F ADD PUSH1 0x20 DUP1 SWAP2 DIV MUL PUSH1 0x20 ADD PUSH1 0x40 MLOAD SWAP1 DUP2 ADD PUSH1 0x40 MSTORE DUP1 SWAP3 SWAP2 SWAP1 DUP2 DUP2 MSTORE PUSH1 0x20 ADD DUP3 DUP1 SLOAD PUSH2 0x1572 SWAP1 PUSH2 0x1F28 JUMP JUMPDEST DUP1 ISZERO PUSH2 0x15BD JUMPI DUP1 PUSH1 0x1F LT PUSH2 0x1594 JUMPI PUSH2 0x100 DUP1 DUP4 SLOAD DIV MUL DUP4 MSTORE SWAP2 PUSH1 0x20 ADD SWAP2 PUSH2 0x15BD JUMP JUMPDEST DUP3 ADD SWAP2 SWAP1 PUSH0 MSTORE PUSH1 0x20 PUSH0 KECCAK256 SWAP1 JUMPDEST DUP2 SLOAD DUP2 MSTORE SWAP1 PUSH1 0x1 ADD SWAP1 PUSH1 0x20 ADD DUP1 DUP4 GT PUSH2 0x15A0 JUMPI DUP3 SWAP1 SUB PUSH1 0x1F AND DUP3 ADD SWAP2 JUMPDEST POP POP POP POP POP SWAP1 DUP1 PUSH1 0x1 ADD DUP1 SLOAD PUSH2 0x15D2 SWAP1 PUSH2 0x1F28 JUMP JUMPDEST DUP1 PUSH1 0x1F ADD PUSH1 0x20 DUP1 SWAP2 DIV MUL PUSH1 0x20 ADD PUSH1 0x40 MLOAD SWAP1 DUP2 ADD PUSH1 0x40 MSTORE DUP1 SWAP3 SWAP2 SWAP1 DUP2 DUP2 MSTORE PUSH1 0x20 ADD DUP3 DUP1 SLOAD PUSH2 0x15FE SWAP1 PUSH2 0x1F28 JUMP JUMPDEST DUP1 ISZERO PUSH2 0x1649 JUMPI DUP1 PUSH1 0x1F LT PUSH2 0x1620 JUMPI PUSH2 0x100 DUP1 DUP4 SLOAD DIV MUL DUP4 MSTORE SWAP2 PUSH1 0x20 ADD SWAP2 PUSH2 0x1649 JUMP JUMPDEST DUP3 ADD SWAP2 SWAP1 PUSH0 MSTORE PUSH1 0x20 PUSH0 KECCAK256 SWAP1 JUMPDEST DUP2 SLOAD DUP2 MSTORE SWAP1 PUSH1 0x1 ADD SWAP1 PUSH1 0x20 ADD DUP1 DUP4 GT PUSH2 0x162C JUMPI DUP3 SWAP1 SUB PUSH1 0x1F AND DUP3 ADD SWAP2 JUMPDEST POP POP POP POP POP SWAP1 DUP1 PUSH1 0x2 ADD DUP1 SLOAD PUSH2 0x165E SWAP1 PUSH2 0x1F28 JUMP JUMPDEST DUP1 PUSH1 0x1F ADD PUSH1 0x20 DUP1 SWAP2 DIV MUL PUSH1 0x20 ADD PUSH1 0x40 MLOAD SWAP1 DUP2 ADD PUSH1 0x40 MSTORE DUP1 SWAP3 SWAP2 SWAP1 DUP2 DUP2 MSTORE PUSH1 0x20 ADD DUP3 DUP1 SLOAD PUSH2 0x168A SWAP1 PUSH2 0x1F28 JUMP JUMPDEST DUP1 ISZERO PUSH2 0x16D5 JUMPI DUP1 PUSH1 0x1F LT PUSH2 0x16AC JUMPI PUSH2 0x100 DUP1 DUP4 SLOAD DIV MUL DUP4 MSTORE SWAP2 PUSH1 0x20 ADD SWAP2 PUSH2 0x16D5 JUMP JUMPDEST DUP3 ADD SWAP2 SWAP1 PUSH0 MSTORE PUSH1 0x20 PUSH0 KECCAK256 SWAP1 JUMPDEST DUP2 SLOAD DUP2 MSTORE SWAP1 PUSH1 0x1 ADD SWAP1 PUSH1 0x20 ADD DUP1 DUP4 GT PUSH2 0x16B8 JUMPI DUP3 SWAP1 SUB PUSH1 0x1F AND DUP3 ADD SWAP2 JUMPDEST POP POP POP POP POP SWAP1 DUP1 PUSH1 0x3 ADD SLOAD SWAP1 DUP1 PUSH1 0x4 ADD SLOAD SWAP1 DUP1 PUSH1 0x5 ADD SLOAD SWAP1 DUP1 PUSH1 0x6 ADD SLOAD SWAP1 DUP1 PUSH1 0x7 ADD SLOAD SWAP1 DUP1 PUSH1 0x8 ADD SLOAD SWAP1 POP DUP10 JUMP JUMPDEST PUSH1 0x9 SLOAD PUSH1 0x60 SWAP1 PUSH1 0xFF AND ISZERO PUSH2 0x176F JUMPI PUSH1 0x3 DUP1 SLOAD DUP1 PUSH1 0x20 MUL PUSH1 0x20 ADD PUSH1 0x40 MLOAD SWAP1 DUP2 ADD PUSH1 0x40 MSTORE DUP1 SWAP3 SWAP2 SWAP1 DUP2 DUP2 MSTORE PUSH1 0x20 ADD DUP3 DUP1 SLOAD DUP1 ISZERO PUSH2 0x1765 JUMPI PUSH1 0x20 MUL DUP3 ADD SWAP2 SWAP1 PUSH0 MSTORE PUSH1 0x20 PUSH0 KECCAK256 SWAP1 JUMPDEST DUP2 SLOAD PUSH1 0x1 PUSH1 0x1 PUSH1 0xA0 SHL SUB AND DUP2 MSTORE PUSH1 0x1 SWAP1 SWAP2 ADD SWAP1 PUSH1 0x20 ADD DUP1 DUP4 GT PUSH2 0x1747 JUMPI JUMPDEST POP POP POP POP POP SWAP1 POP SWAP1 JUMP JUMPDEST PUSH0 SLOAD TIMESTAMP GT PUSH2 0x17B5 JUMPI PUSH1 0x40 MLOAD PUSH3 0x461BCD PUSH1 0xE5 SHL DUP2 MSTORE PUSH1 0x20 PUSH1 0x4 DUP3 ADD MSTORE PUSH1 0x13 PUSH1 0x24 DUP3 ADD MSTORE PUSH19 0x21B0B6361030B33A32B91032B632B1BA34B7B7 PUSH1 0x69 SHL PUSH1 0x44 DUP3 ADD MSTORE PUSH1 0x64 ADD PUSH2 0x621 JUMP JUMPDEST PUSH1 0x1 JUMPDEST PUSH1 0x32 DUP2 GT PUSH2 0x19B8 JUMPI PUSH1 0x3 SLOAD PUSH0 SWAP1 PUSH2 0x17D1 SWAP1 PUSH1 0x1 SWAP1 PUSH2 0x2186 JUMP JUMPDEST SWAP1 POP JUMPDEST DUP1 DUP3 GT PUSH2 0x1953 JUMPI PUSH1 0x4 PUSH0 PUSH1 0x3 PUSH2 0x17EB PUSH1 0x1 DUP6 PUSH2 0x2186 JUMP JUMPDEST DUP2 SLOAD DUP2 LT PUSH2 0x17FB JUMPI PUSH2 0x17FB PUSH2 0x20A9 JUMP JUMPDEST PUSH0 SWAP2 DUP3 MSTORE PUSH1 0x20 DUP1 DUP4 KECCAK256 SWAP1 SWAP2 ADD SLOAD PUSH1 0x1 PUSH1 0x1 PUSH1 0xA0 SHL SUB AND DUP4 MSTORE DUP3 ADD SWAP3 SWAP1 SWAP3 MSTORE PUSH1 0x40 ADD DUP2 KECCAK256 PUSH1 0x4 SWAP1 DUP2 ADD SLOAD PUSH1 0x3 DUP1 SLOAD SWAP2 SWAP4 SWAP2 DUP6 SWAP1 DUP2 LT PUSH2 0x183B JUMPI PUSH2 0x183B PUSH2 0x20A9 JUMP JUMPDEST PUSH0 SWAP2 DUP3 MSTORE PUSH1 0x20 DUP1 DUP4 KECCAK256 SWAP1 SWAP2 ADD SLOAD PUSH1 0x1 PUSH1 0x1 PUSH1 0xA0 SHL SUB AND DUP4 MSTORE DUP3 ADD SWAP3 SWAP1 SWAP3 MSTORE PUSH1 0x40 ADD SWAP1 KECCAK256 PUSH1 0x4 ADD SLOAD GT ISZERO PUSH2 0x1941 JUMPI PUSH1 0x3 PUSH2 0x1875 PUSH1 0x1 DUP4 PUSH2 0x2186 JUMP JUMPDEST DUP2 SLOAD DUP2 LT PUSH2 0x1885 JUMPI PUSH2 0x1885 PUSH2 0x20A9 JUMP JUMPDEST PUSH0 SWAP2 DUP3 MSTORE PUSH1 0x20 SWAP1 SWAP2 KECCAK256 ADD SLOAD PUSH1 0x3 DUP1 SLOAD PUSH1 0x1 PUSH1 0x1 PUSH1 0xA0 SHL SUB SWAP1 SWAP3 AND SWAP2 DUP4 SWAP1 DUP2 LT PUSH2 0x18B0 JUMPI PUSH2 0x18B0 PUSH2 0x20A9 JUMP JUMPDEST PUSH0 SWAP2 DUP3 MSTORE PUSH1 0x20 SWAP1 SWAP2 KECCAK256 ADD SLOAD PUSH1 0x3 DUP1 SLOAD PUSH1 0x1 PUSH1 0x1 PUSH1 0xA0 SHL SUB SWAP1 SWAP3 AND SWAP2 DUP5 SWAP1 DUP2 LT PUSH2 0x18DB JUMPI PUSH2 0x18DB PUSH2 0x20A9 JUMP JUMPDEST PUSH0 SWAP2 DUP3 MSTORE PUSH1 0x20 DUP3 KECCAK256 ADD SWAP1 PUSH1 0x3 PUSH2 0x18F2 PUSH1 0x1 DUP8 PUSH2 0x2186 JUMP JUMPDEST DUP2 SLOAD DUP2 LT PUSH2 0x1902 JUMPI PUSH2 0x1902 PUSH2 0x20A9 JUMP JUMPDEST PUSH0 SWAP2 DUP3 MSTORE PUSH1 0x20 SWAP1 SWAP2 KECCAK256 ADD DUP1 SLOAD PUSH1 0x1 PUSH1 0x1 PUSH1 0xA0 SHL SUB SWAP5 DUP6 AND PUSH1 0x1 PUSH1 0x1 PUSH1 0xA0 SHL SUB NOT SWAP1 SWAP2 AND OR SWAP1 SSTORE DUP2 SLOAD SWAP4 DUP4 AND PUSH2 0x100 SWAP2 SWAP1 SWAP2 EXP SWAP1 DUP2 MUL SWAP3 MUL NOT SWAP1 SWAP3 AND OR SWAP1 SSTORE JUMPDEST DUP1 PUSH2 0x194B DUP2 PUSH2 0x21B1 JUMP JUMPDEST SWAP2 POP POP PUSH2 0x17D4 JUMP JUMPDEST POP PUSH2 0x195F PUSH1 0x1 DUP3 PUSH2 0x2186 JUMP JUMPDEST PUSH1 0x4 PUSH0 PUSH1 0x3 PUSH2 0x196F PUSH1 0x1 DUP7 PUSH2 0x2186 JUMP JUMPDEST DUP2 SLOAD DUP2 LT PUSH2 0x197F JUMPI PUSH2 0x197F PUSH2 0x20A9 JUMP JUMPDEST PUSH0 SWAP2 DUP3 MSTORE PUSH1 0x20 DUP1 DUP4 KECCAK256 SWAP1 SWAP2 ADD SLOAD PUSH1 0x1 PUSH1 0x1 PUSH1 0xA0 SHL SUB AND DUP4 MSTORE DUP3 ADD SWAP3 SWAP1 SWAP3 MSTORE PUSH1 0x40 ADD SWAP1 KECCAK256 PUSH1 0x5 ADD SSTORE DUP1 PUSH2 0x19B0 DUP2 PUSH2 0x2199 JUMP JUMPDEST SWAP2 POP POP PUSH2 0x17B8 JUMP JUMPDEST POP PUSH1 0x9 DUP1 SLOAD PUSH1 0xFF NOT AND PUSH1 0x1 OR SWAP1 SSTORE PUSH1 0x3 DUP1 SLOAD PUSH0 SWAP1 PUSH2 0x19D8 JUMPI PUSH2 0x19D8 PUSH2 0x20A9 JUMP JUMPDEST PUSH0 SWAP2 DUP3 MSTORE PUSH1 0x20 DUP1 DUP4 KECCAK256 SWAP2 SWAP1 SWAP2 ADD SLOAD PUSH1 0x9 DUP1 SLOAD PUSH2 0x100 PUSH1 0x1 PUSH1 0xA8 SHL SUB NOT AND PUSH2 0x100 PUSH1 0x1 PUSH1 0x1 PUSH1 0xA0 SHL SUB SWAP4 DUP5 AND DUP2 MUL SWAP2 SWAP1 SWAP2 OR SWAP2 DUP3 SWAP1 SSTORE PUSH1 0xA DUP6 SWAP1 SSTORE SWAP1 DIV AND DUP3 MSTORE PUSH1 0x4 SWAP1 MSTORE PUSH1 0x40 SWAP1 DUP2 SWAP1 KECCAK256 TIMESTAMP PUSH1 0x6 SWAP1 SWAP2 ADD SSTORE MLOAD PUSH2 0x1A35 SWAP1 PUSH1 0x3 SWAP1 PUSH2 0x21C6 JUMP JUMPDEST PUSH1 0x40 MLOAD SWAP1 DUP2 SWAP1 SUB DUP2 KECCAK256 PUSH1 0x9 SLOAD PUSH2 0x100 SWAP1 DIV PUSH1 0x1 PUSH1 0x1 PUSH1 0xA0 SHL SUB AND DUP3 MSTORE SWAP1 PUSH32 0x55FD57A9F60ED79C2DA9B808929B82BED18D54127A828E4F6050A978600109B0 SWAP1 PUSH1 0x20 ADD PUSH1 0x40 MLOAD DUP1 SWAP2 SUB SWAP1 LOG2 PUSH1 0x3 DUP1 SLOAD DUP1 PUSH1 0x20 MUL PUSH1 0x20 ADD PUSH1 0x40 MLOAD SWAP1 DUP2 ADD PUSH1 0x40 MSTORE DUP1 SWAP3 SWAP2 SWAP1 DUP2 DUP2 MSTORE PUSH1 0x20 ADD DUP3 DUP1 SLOAD DUP1 ISZERO PUSH2 0x1765 JUMPI PUSH1 0x20 MUL DUP3 ADD SWAP2 SWAP1 PUSH0 MSTORE PUSH1 0x20 PUSH0 KECCAK256 SWAP1 DUP2 SLOAD PUSH1 0x1 PUSH1 0x1 PUSH1 0xA0 SHL SUB AND DUP2 MSTORE PUSH1 0x1 SWAP1 SWAP2 ADD SWAP1 PUSH1 0x20 ADD DUP1 DUP4 GT PUSH2 0x1747 JUMPI POP POP POP POP POP SWAP1 POP SWAP1 JUMP JUMPDEST PUSH0 PUSH1 0x20 DUP3 DUP5 SUB SLT ISZERO PUSH2 0x1AEB JUMPI PUSH0 DUP1 REVERT JUMPDEST POP CALLDATALOAD SWAP2 SWAP1 POP JUMP JUMPDEST PUSH0 DUP2 MLOAD DUP1 DUP5 MSTORE DUP1 PUSH1 0x20 DUP5 ADD PUSH1 0x20 DUP7 ADD MCOPY PUSH0 PUSH1 0x20 DUP3 DUP7 ADD ADD MSTORE PUSH1 0x20 PUSH1 0x1F NOT PUSH1 0x1F DUP4 ADD AND DUP6 ADD ADD SWAP2 POP POP SWAP3 SWAP2 POP POP JUMP JUMPDEST PUSH1 0x1 PUSH1 0x1 PUSH1 0xA0 SHL SUB DUP8 AND DUP2 MSTORE PUSH1 0xC0 PUSH1 0x20 DUP3 ADD DUP2 SWAP1 MSTORE PUSH0 SWAP1 PUSH2 0x1B43 SWAP1 DUP4 ADD DUP9 PUSH2 0x1AF2 JUMP JUMPDEST SWAP1 POP DUP6 PUSH1 0x40 DUP4 ADD MSTORE DUP5 PUSH1 0x60 DUP4 ADD MSTORE DUP4 PUSH1 0x80 DUP4 ADD MSTORE PUSH1 0xFF DUP4 AND PUSH1 0xA0 DUP4 ADD MSTORE SWAP8 SWAP7 POP POP POP POP POP POP POP JUMP JUMPDEST PUSH4 0x4E487B71 PUSH1 0xE0 SHL PUSH0 MSTORE PUSH1 0x41 PUSH1 0x4 MSTORE PUSH1 0x24 PUSH0 REVERT JUMPDEST PUSH0 DUP3 PUSH1 0x1F DUP4 ADD SLT PUSH2 0x1B8E JUMPI PUSH0 DUP1 REVERT JUMPDEST DUP2 CALLDATALOAD PUSH8 0xFFFFFFFFFFFFFFFF DUP2 GT ISZERO PUSH2 0x1BA8 JUMPI PUSH2 0x1BA8 PUSH2 0x1B6B JUMP JUMPDEST PUSH1 0x40 MLOAD PUSH1 0x1F DUP3 ADD PUSH1 0x1F NOT SWAP1 DUP2 AND PUSH1 0x3F ADD AND DUP2 ADD PUSH8 0xFFFFFFFFFFFFFFFF DUP2 GT DUP3 DUP3 LT OR ISZERO PUSH2 0x1BD7 JUMPI PUSH2 0x1BD7 PUSH2 0x1B6B JUMP JUMPDEST PUSH1 0x40 MSTORE DUP2 DUP2 MSTORE DUP4 DUP3 ADD PUSH1 0x20 ADD DUP6 LT ISZERO PUSH2 0x1BEE JUMPI PUSH0 DUP1 REVERT JUMPDEST DUP2 PUSH1 0x20 DUP6 ADD PUSH1 0x20 DUP4 ADD CALLDATACOPY PUSH0 SWAP2 DUP2 ADD PUSH1 0x20 ADD SWAP2 SWAP1 SWAP2 MSTORE SWAP4 SWAP3 POP POP POP JUMP JUMPDEST PUSH0 DUP1 PUSH0 PUSH1 0x60 DUP5 DUP7 SUB SLT ISZERO PUSH2 0x1C1C JUMPI PUSH0 DUP1 REVERT JUMPDEST DUP4 CALLDATALOAD PUSH8 0xFFFFFFFFFFFFFFFF DUP2 GT ISZERO PUSH2 0x1C32 JUMPI PUSH0 DUP1 REVERT JUMPDEST PUSH2 0x1C3E DUP7 DUP3 DUP8 ADD PUSH2 0x1B7F JUMP JUMPDEST SWAP4 POP POP PUSH1 0x20 DUP5 ADD CALLDATALOAD PUSH8 0xFFFFFFFFFFFFFFFF DUP2 GT ISZERO PUSH2 0x1C5A JUMPI PUSH0 DUP1 REVERT JUMPDEST PUSH2 0x1C66 DUP7 DUP3 DUP8 ADD PUSH2 0x1B7F JUMP JUMPDEST SWAP3 POP POP PUSH1 0x40 DUP5 ADD CALLDATALOAD PUSH8 0xFFFFFFFFFFFFFFFF DUP2 GT ISZERO PUSH2 0x1C82 JUMPI PUSH0 DUP1 REVERT JUMPDEST PUSH2 0x1C8E DUP7 DUP3 DUP8 ADD PUSH2 0x1B7F JUMP JUMPDEST SWAP2 POP POP SWAP3 POP SWAP3 POP SWAP3 JUMP JUMPDEST DUP1 PUSH2 0x140 DUP2 ADD DUP4 LT ISZERO PUSH2 0x1CA9 JUMPI PUSH0 DUP1 REVERT JUMPDEST SWAP3 SWAP2 POP POP JUMP JUMPDEST PUSH0 DUP1 PUSH2 0x280 DUP4 DUP6 SUB SLT ISZERO PUSH2 0x1CC1 JUMPI PUSH0 DUP1 REVERT JUMPDEST PUSH2 0x1CCB DUP5 DUP5 PUSH2 0x1C98 JUMP JUMPDEST SWAP2 POP PUSH2 0x1CDB DUP5 PUSH2 0x140 DUP6 ADD PUSH2 0x1C98 JUMP JUMPDEST SWAP1 POP SWAP3 POP SWAP3 SWAP1 POP JUMP JUMPDEST PUSH1 0x20 DUP2 MSTORE PUSH0 DUP3 MLOAD PUSH2 0x120 PUSH1 0x20 DUP5 ADD MSTORE PUSH2 0x1D01 PUSH2 0x140 DUP5 ADD DUP3 PUSH2 0x1AF2 JUMP JUMPDEST SWAP1 POP PUSH1 0x20 DUP5 ADD MLOAD PUSH1 0x1F NOT DUP5 DUP4 SUB ADD PUSH1 0x40 DUP6 ADD MSTORE PUSH2 0x1D1E DUP3 DUP3 PUSH2 0x1AF2 JUMP JUMPDEST SWAP2 POP POP PUSH1 0x40 DUP5 ADD MLOAD PUSH1 0x1F NOT DUP5 DUP4 SUB ADD PUSH1 0x60 DUP6 ADD MSTORE PUSH2 0x1D3C DUP3 DUP3 PUSH2 0x1AF2 JUMP JUMPDEST SWAP2 POP POP PUSH1 0x60 DUP5 ADD MLOAD PUSH1 0x80 DUP5 ADD MSTORE PUSH1 0x80 DUP5 ADD MLOAD PUSH1 0xA0 DUP5 ADD MSTORE PUSH1 0xA0 DUP5 ADD MLOAD PUSH1 0xC0 DUP5 ADD MSTORE PUSH1 0xC0 DUP5 ADD MLOAD PUSH1 0xE0 DUP5 ADD MSTORE PUSH1 0xE0 DUP5 ADD MLOAD PUSH2 0x100 DUP5 ADD MSTORE PUSH2 0x100 DUP5 ADD MLOAD PUSH2 0x120 DUP5 ADD MSTORE DUP1 SWAP2 POP POP SWAP3 SWAP2 POP POP JUMP JUMPDEST PUSH4 0x4E487B71 PUSH1 0xE0 SHL PUSH0 MSTORE PUSH1 0x21 PUSH1 0x4 MSTORE PUSH1 0x24 PUSH0 REVERT JUMPDEST PUSH1 0x20 DUP2 ADD PUSH1 0x6 DUP4 LT PUSH2 0x1DBC JUMPI PUSH4 0x4E487B71 PUSH1 0xE0 SHL PUSH0 MSTORE PUSH1 0x21 PUSH1 0x4 MSTORE PUSH1 0x24 PUSH0 REVERT JUMPDEST SWAP2 SWAP1 MSTORE SWAP1 JUMP JUMPDEST PUSH0 DUP1 PUSH1 0x20 DUP4 DUP6 SUB SLT ISZERO PUSH2 0x1DD3 JUMPI PUSH0 DUP1 REVERT JUMPDEST DUP3 CALLDATALOAD PUSH8 0xFFFFFFFFFFFFFFFF DUP2 GT ISZERO PUSH2 0x1DE9 JUMPI PUSH0 DUP1 REVERT JUMPDEST DUP4 ADD PUSH1 0x1F DUP2 ADD DUP6 SGT PUSH2 0x1DF9 JUMPI PUSH0 DUP1 REVERT JUMPDEST DUP1 CALLDATALOAD PUSH8 0xFFFFFFFFFFFFFFFF DUP2 GT ISZERO PUSH2 0x1E0F JUMPI PUSH0 DUP1 REVERT JUMPDEST DUP6 PUSH1 0x20 DUP3 PUSH1 0x5 SHL DUP5 ADD ADD GT ISZERO PUSH2 0x1E23 JUMPI PUSH0 DUP1 REVERT JUMPDEST PUSH1 0x20 SWAP2 SWAP1 SWAP2 ADD SWAP6 SWAP1 SWAP5 POP SWAP3 POP POP POP JUMP JUMPDEST DUP1 CALLDATALOAD PUSH1 0x1 PUSH1 0x1 PUSH1 0xA0 SHL SUB DUP2 AND DUP2 EQ PUSH2 0x1E49 JUMPI PUSH0 DUP1 REVERT JUMPDEST SWAP2 SWAP1 POP JUMP JUMPDEST PUSH0 PUSH1 0x20 DUP3 DUP5 SUB SLT ISZERO PUSH2 0x1E5E JUMPI PUSH0 DUP1 REVERT JUMPDEST PUSH2 0x1E67 DUP3 PUSH2 0x1E33 JUMP JUMPDEST SWAP4 SWAP3 POP POP POP JUMP JUMPDEST PUSH2 0x120 DUP2 MSTORE PUSH0 PUSH2 0x1E82 PUSH2 0x120 DUP4 ADD DUP13 PUSH2 0x1AF2 JUMP JUMPDEST DUP3 DUP2 SUB PUSH1 0x20 DUP5 ADD MSTORE PUSH2 0x1E94 DUP2 DUP13 PUSH2 0x1AF2 JUMP JUMPDEST SWAP1 POP DUP3 DUP2 SUB PUSH1 0x40 DUP5 ADD MSTORE PUSH2 0x1EA8 DUP2 DUP12 PUSH2 0x1AF2 JUMP JUMPDEST PUSH1 0x60 DUP5 ADD SWAP10 SWAP1 SWAP10 MSTORE POP POP PUSH1 0x80 DUP2 ADD SWAP6 SWAP1 SWAP6 MSTORE PUSH1 0xA0 DUP6 ADD SWAP4 SWAP1 SWAP4 MSTORE PUSH1 0xC0 DUP5 ADD SWAP2 SWAP1 SWAP2 MSTORE PUSH1 0xE0 DUP4 ADD MSTORE PUSH2 0x100 SWAP1 SWAP2 ADD MSTORE SWAP4 SWAP3 POP POP POP JUMP JUMPDEST PUSH1 0x20 DUP1 DUP3 MSTORE DUP3 MLOAD DUP3 DUP3 ADD DUP2 SWAP1 MSTORE PUSH0 SWAP2 DUP5 ADD SWAP1 PUSH1 0x40 DUP5 ADD SWAP1 DUP4 JUMPDEST DUP2 DUP2 LT ISZERO PUSH2 0x1F1D JUMPI DUP4 MLOAD PUSH1 0x1 PUSH1 0x1 PUSH1 0xA0 SHL SUB AND DUP4 MSTORE PUSH1 0x20 SWAP4 DUP5 ADD SWAP4 SWAP1 SWAP3 ADD SWAP2 PUSH1 0x1 ADD PUSH2 0x1EF6 JUMP JUMPDEST POP SWAP1 SWAP6 SWAP5 POP POP POP POP POP JUMP JUMPDEST PUSH1 0x1 DUP2 DUP2 SHR SWAP1 DUP3 AND DUP1 PUSH2 0x1F3C JUMPI PUSH1 0x7F DUP3 AND SWAP2 POP JUMPDEST PUSH1 0x20 DUP3 LT DUP2 SUB PUSH2 0x1F5A JUMPI PUSH4 0x4E487B71 PUSH1 0xE0 SHL PUSH0 MSTORE PUSH1 0x22 PUSH1 0x4 MSTORE PUSH1 0x24 PUSH0 REVERT JUMPDEST POP SWAP2 SWAP1 POP JUMP JUMPDEST PUSH1 0x1F DUP3 GT ISZERO PUSH2 0x1FA7 JUMPI DUP1 PUSH0 MSTORE PUSH1 0x20 PUSH0 KECCAK256 PUSH1 0x1F DUP5 ADD PUSH1 0x5 SHR DUP2 ADD PUSH1 0x20 DUP6 LT ISZERO PUSH2 0x1F85 JUMPI POP DUP1 JUMPDEST PUSH1 0x1F DUP5 ADD PUSH1 0x5 SHR DUP3 ADD SWAP2 POP JUMPDEST DUP2 DUP2 LT ISZERO PUSH2 0x1FA4 JUMPI PUSH0 DUP2 SSTORE PUSH1 0x1 ADD PUSH2 0x1F91 JUMP JUMPDEST POP POP JUMPDEST POP POP POP JUMP JUMPDEST DUP2 MLOAD PUSH8 0xFFFFFFFFFFFFFFFF DUP2 GT ISZERO PUSH2 0x1FC6 JUMPI PUSH2 0x1FC6 PUSH2 0x1B6B JUMP JUMPDEST PUSH2 0x1FDA DUP2 PUSH2 0x1FD4 DUP5 SLOAD PUSH2 0x1F28 JUMP JUMPDEST DUP5 PUSH2 0x1F60 JUMP JUMPDEST PUSH1 0x20 PUSH1 0x1F DUP3 GT PUSH1 0x1 DUP2 EQ PUSH2 0x200C JUMPI PUSH0 DUP4 ISZERO PUSH2 0x1FF5 JUMPI POP DUP5 DUP3 ADD MLOAD JUMPDEST PUSH0 NOT PUSH1 0x3 DUP6 SWAP1 SHL SHR NOT AND PUSH1 0x1 DUP5 SWAP1 SHL OR DUP5 SSTORE PUSH2 0x1FA4 JUMP JUMPDEST PUSH0 DUP5 DUP2 MSTORE PUSH1 0x20 DUP2 KECCAK256 PUSH1 0x1F NOT DUP6 AND SWAP2 JUMPDEST DUP3 DUP2 LT ISZERO PUSH2 0x203B JUMPI DUP8 DUP6 ADD MLOAD DUP3 SSTORE PUSH1 0x20 SWAP5 DUP6 ADD SWAP5 PUSH1 0x1 SWAP1 SWAP3 ADD SWAP2 ADD PUSH2 0x201B JUMP JUMPDEST POP DUP5 DUP3 LT ISZERO PUSH2 0x2058 JUMPI DUP7 DUP5 ADD MLOAD PUSH0 NOT PUSH1 0x3 DUP8 SWAP1 SHL PUSH1 0xF8 AND SHR NOT AND DUP2 SSTORE JUMPDEST POP POP POP POP PUSH1 0x1 SWAP1 DUP2 SHL ADD SWAP1 SSTORE POP JUMP JUMPDEST PUSH1 0x60 DUP2 MSTORE PUSH0 PUSH2 0x2079 PUSH1 0x60 DUP4 ADD DUP7 PUSH2 0x1AF2 JUMP JUMPDEST DUP3 DUP2 SUB PUSH1 0x20 DUP5 ADD MSTORE PUSH2 0x208B DUP2 DUP7 PUSH2 0x1AF2 JUMP JUMPDEST SWAP1 POP DUP3 DUP2 SUB PUSH1 0x40 DUP5 ADD MSTORE PUSH2 0x209F DUP2 DUP6 PUSH2 0x1AF2 JUMP JUMPDEST SWAP7 SWAP6 POP POP POP POP POP POP JUMP JUMPDEST PUSH4 0x4E487B71 PUSH1 0xE0 SHL PUSH0 MSTORE PUSH1 0x32 PUSH1 0x4 MSTORE PUSH1 0x24 PUSH0 REVERT JUMPDEST PUSH4 0x4E487B71 PUSH1 0xE0 SHL PUSH0 MSTORE PUSH1 0x11 PUSH1 0x4 MSTORE PUSH1 0x24 PUSH0 REVERT JUMPDEST PUSH0 PUSH1 0xFF DUP3 AND PUSH1 0xFF DUP2 SUB PUSH2 0x20E6 JUMPI PUSH2 0x20E6 PUSH2 0x20BD JUMP JUMPDEST PUSH1 0x1 ADD SWAP3 SWAP2 POP POP JUMP JUMPDEST PUSH4 0xFFFFFFFF DUP2 DUP2 AND DUP4 DUP3 AND ADD SWAP1 DUP2 GT ISZERO PUSH2 0x1CA9 JUMPI PUSH2 0x1CA9 PUSH2 0x20BD JUMP JUMPDEST PUSH0 DUP2 DUP4 DUP3 JUMPDEST PUSH1 0xA DUP2 LT ISZERO PUSH2 0x2140 JUMPI PUSH1 0x1 PUSH1 0x1 PUSH1 0xA0 SHL SUB PUSH2 0x212A DUP4 PUSH2 0x1E33 JUMP JUMPDEST AND DUP4 MSTORE PUSH1 0x20 SWAP3 DUP4 ADD SWAP3 SWAP2 SWAP1 SWAP2 ADD SWAP1 PUSH1 0x1 ADD PUSH2 0x2110 JUMP JUMPDEST POP POP POP PUSH2 0x140 DUP3 ADD SWAP1 POP SWAP3 SWAP2 POP POP JUMP JUMPDEST PUSH1 0xFF DUP2 DUP2 AND DUP4 DUP3 AND MUL SWAP1 DUP2 AND SWAP1 DUP2 DUP2 EQ PUSH2 0x216C JUMPI PUSH2 0x216C PUSH2 0x20BD JUMP JUMPDEST POP SWAP3 SWAP2 POP POP JUMP JUMPDEST DUP1 DUP3 ADD DUP1 DUP3 GT ISZERO PUSH2 0x1CA9 JUMPI PUSH2 0x1CA9 PUSH2 0x20BD JUMP JUMPDEST DUP2 DUP2 SUB DUP2 DUP2 GT ISZERO PUSH2 0x1CA9 JUMPI PUSH2 0x1CA9 PUSH2 0x20BD JUMP JUMPDEST PUSH0 PUSH1 0x1 DUP3 ADD PUSH2 0x21AA JUMPI PUSH2 0x21AA PUSH2 0x20BD JUMP JUMPDEST POP PUSH1 0x1 ADD SWAP1 JUMP JUMPDEST PUSH0 DUP2 PUSH2 0x21BF JUMPI PUSH2 0x21BF PUSH2 0x20BD JUMP JUMPDEST POP PUSH0 NOT ADD SWAP1 JUMP JUMPDEST PUSH0 DUP2 DUP4 SLOAD DUP4 SWAP2 POP DUP5 PUSH0 MSTORE PUSH1 0x20 PUSH0 KECCAK256 PUSH0 JUMPDEST DUP3 DUP2 LT ISZERO PUSH2 0x21FD JUMPI DUP2 SLOAD PUSH1 0x1 PUSH1 0x1 PUSH1 0xA0 SHL SUB AND DUP5 MSTORE PUSH1 0x20 SWAP1 SWAP4 ADD SWAP3 PUSH1 0x1 SWAP2 DUP3 ADD SWAP2 ADD PUSH2 0x21D6 JUMP JUMPDEST POP SWAP2 SWAP6 SWAP5 POP POP POP POP POP JUMP INVALID LOG2 PUSH5 0x6970667358 0x22 SLT KECCAK256 REVERT SWAP9 PUSH16 0xC91ED68BC7108D6687A94CC74004BD8A SWAP6 0xBA CODESIZE REVERT SGT SSTORE PUSH26 0xEBC1F19D4F3A64736F6C634300081A0033000000000000000000 "
		},
		"gasEstimates": {
			"creation": {
				"codeDepositCost": "1753200",
				"executionCost": "infinite",
				"totalCost": "infinite"
			},
			"external": {
				"CAMPAIGN_DURATION()": "284",
				"LEAD_PERIOD()": "262",
				"LeaderAddress()": "2458",
				"LeaderId()": "2339",
				"N_MEMBERS()": "269",
				"RANDOM_VOTERS()": "249",
				"REG_FEE()": "239",
				"RegistrationEnd()": "2361",
				"addVoter(address[10],bytes32[10])": "infinite",
				"addedVoterCount()": "2441",
				"candidateInfo(address)": "infinite",
				"candidateList(uint256)": "4700",
				"changeLeader()": "87135",
				"electionEnd()": "2382",
				"getCandidateInfo(uint256)": "infinite",
				"getCurrentPhase()": "infinite",
				"getElectionResults()": "infinite",
				"getHashStatus(bytes32)": "2558",
				"getVoteTime(address)": "2578",
				"membersElected()": "2377",
				"neutral()": "2426",
				"proposals(uint256)": "infinite",
				"referendumEnd()": "2427",
				"registerAsCandidate(string,string,string)": "infinite",
				"startTime()": "infinite",
				"voteCandidates(uint256[])": "infinite"
			}
		},
		"methodIdentifiers": {
			"CAMPAIGN_DURATION()": "08fd4cfa",
			"LEAD_PERIOD()": "49066e79",
			"LeaderAddress()": "b3913777",
			"LeaderId()": "bb2c88a0",
			"N_MEMBERS()": "e292bf16",
			"RANDOM_VOTERS()": "3def77b7",
			"REG_FEE()": "4ebeb109",
			"RegistrationEnd()": "be07f0f8",
			"addVoter(address[10],bytes32[10])": "25452e8c",
			"addedVoterCount()": "1b408934",
			"candidateInfo(address)": "e965b7c9",
			"candidateList(uint256)": "b13c744b",
			"changeLeader()": "a5f5b1bf",
			"electionEnd()": "ce7ea161",
			"getCandidateInfo(uint256)": "70f67cfe",
			"getCurrentPhase()": "a3a40ea5",
			"getElectionResults()": "eccf1f10",
			"getHashStatus(bytes32)": "7f4241e7",
			"getVoteTime(address)": "d90d7cd8",
			"membersElected()": "089e35b8",
			"neutral()": "4d0c8726",
			"proposals(uint256)": "013cf08b",
			"referendumEnd()": "bab752e5",
			"registerAsCandidate(string,string,string)": "079ddd11",
			"startTime()": "78e97925",
			"voteCandidates(uint256[])": "a6a5ad12"
		}
	},
	"abi": [
		{
			"anonymous": false,
			"inputs": [
				{
					"indexed": true,
					"internalType": "address",
					"name": "candidate",
					"type": "address"
				},
				{
					"indexed": false,
					"internalType": "string",
					"name": "fullName",
					"type": "string"
				},
				{
					"indexed": false,
					"internalType": "string",
					"name": "bio",
					"type": "string"
				},
				{
					"indexed": false,
					"internalType": "string",
					"name": "website",
					"type": "string"
				}
			],
			"name": "CandidateRegistered",
			"type": "event"
		},
		{
			"anonymous": false,
			"inputs": [
				{
					"indexed": true,
					"internalType": "address[]",
					"name": "candidateList",
					"type": "address[]"
				},
				{
					"indexed": false,
					"internalType": "address",
					"name": "firstLeader",
					"type": "address"
				}
			],
			"name": "ElectionResults",
			"type": "event"
		},
		{
			"anonymous": false,
			"inputs": [
				{
					"indexed": true,
					"internalType": "address",
					"name": "newLeader",
					"type": "address"
				}
			],
			"name": "LeadershipChanged",
			"type": "event"
		},
		{
			"anonymous": false,
			"inputs": [
				{
					"indexed": true,
					"internalType": "address",
					"name": "voter",
					"type": "address"
				}
			],
			"name": "VoteCast",
			"type": "event"
		},
		{
			"anonymous": false,
			"inputs": [
				{
					"indexed": true,
					"internalType": "address[10]",
					"name": "voter",
					"type": "address[10]"
				},
				{
					"indexed": false,
					"internalType": "uint256",
					"name": "addedVoterCount",
					"type": "uint256"
				}
			],
			"name": "VoterAdded",
			"type": "event"
		},
		{
			"inputs": [],
			"name": "CAMPAIGN_DURATION",
			"outputs": [
				{
					"internalType": "uint256",
					"name": "",
					"type": "uint256"
				}
			],
			"stateMutability": "view",
			"type": "function"
		},
		{
			"inputs": [],
			"name": "LEAD_PERIOD",
			"outputs": [
				{
					"internalType": "uint256",
					"name": "",
					"type": "uint256"
				}
			],
			"stateMutability": "view",
			"type": "function"
		},
		{
			"inputs": [],
			"name": "LeaderAddress",
			"outputs": [
				{
					"internalType": "address",
					"name": "",
					"type": "address"
				}
			],
			"stateMutability": "view",
			"type": "function"
		},
		{
			"inputs": [],
			"name": "LeaderId",
			"outputs": [
				{
					"internalType": "uint256",
					"name": "",
					"type": "uint256"
				}
			],
			"stateMutability": "view",
			"type": "function"
		},
		{
			"inputs": [],
			"name": "N_MEMBERS",
			"outputs": [
				{
					"internalType": "uint8",
					"name": "",
					"type": "uint8"
				}
			],
			"stateMutability": "view",
			"type": "function"
		},
		{
			"inputs": [],
			"name": "RANDOM_VOTERS",
			"outputs": [
				{
					"internalType": "uint32",
					"name": "",
					"type": "uint32"
				}
			],
			"stateMutability": "view",
			"type": "function"
		},
		{
			"inputs": [],
			"name": "REG_FEE",
			"outputs": [
				{
					"internalType": "uint256",
					"name": "",
					"type": "uint256"
				}
			],
			"stateMutability": "view",
			"type": "function"
		},
		{
			"inputs": [],
			"name": "RegistrationEnd",
			"outputs": [
				{
					"internalType": "uint256",
					"name": "",
					"type": "uint256"
				}
			],
			"stateMutability": "view",
			"type": "function"
		},
		{
			"inputs": [
				{
					"internalType": "address[10]",
					"name": "voterAddresses",
					"type": "address[10]"
				},
				{
					"internalType": "bytes32[10]",
					"name": "voterHashes",
					"type": "bytes32[10]"
				}
			],
			"name": "addVoter",
			"outputs": [],
			"stateMutability": "nonpayable",
			"type": "function"
		},
		{
			"inputs": [],
			"name": "addedVoterCount",
			"outputs": [
				{
					"internalType": "uint32",
					"name": "",
					"type": "uint32"
				}
			],
			"stateMutability": "view",
			"type": "function"
		},
		{
			"inputs": [
				{
					"internalType": "address",
					"name": "",
					"type": "address"
				}
			],
			"name": "candidateInfo",
			"outputs": [
				{
					"internalType": "string",
					"name": "fullName",
					"type": "string"
				},
				{
					"internalType": "string",
					"name": "bio",
					"type": "string"
				},
				{
					"internalType": "string",
					"name": "website",
					"type": "string"
				},
				{
					"internalType": "uint256",
					"name": "registeredAt",
					"type": "uint256"
				},
				{
					"internalType": "uint256",
					"name": "voteCount",
					"type": "uint256"
				},
				{
					"internalType": "uint256",
					"name": "memberID",
					"type": "uint256"
				},
				{
					"internalType": "uint256",
					"name": "leaderAt",
					"type": "uint256"
				},
				{
					"internalType": "uint256",
					"name": "activeProposal",
					"type": "uint256"
				},
				{
					"internalType": "uint256",
					"name": "submittedDraft",
					"type": "uint256"
				}
			],
			"stateMutability": "view",
			"type": "function"
		},
		{
			"inputs": [
				{
					"internalType": "uint256",
					"name": "",
					"type": "uint256"
				}
			],
			"name": "candidateList",
			"outputs": [
				{
					"internalType": "address",
					"name": "",
					"type": "address"
				}
			],
			"stateMutability": "view",
			"type": "function"
		},
		{
			"inputs": [],
			"name": "changeLeader",
			"outputs": [],
			"stateMutability": "nonpayable",
			"type": "function"
		},
		{
			"inputs": [],
			"name": "electionEnd",
			"outputs": [
				{
					"internalType": "uint256",
					"name": "",
					"type": "uint256"
				}
			],
			"stateMutability": "view",
			"type": "function"
		},
		{
			"inputs": [
				{
					"internalType": "uint256",
					"name": "candidateID",
					"type": "uint256"
				}
			],
			"name": "getCandidateInfo",
			"outputs": [
				{
					"components": [
						{
							"internalType": "string",
							"name": "fullName",
							"type": "string"
						},
						{
							"internalType": "string",
							"name": "bio",
							"type": "string"
						},
						{
							"internalType": "string",
							"name": "website",
							"type": "string"
						},
						{
							"internalType": "uint256",
							"name": "registeredAt",
							"type": "uint256"
						},
						{
							"internalType": "uint256",
							"name": "voteCount",
							"type": "uint256"
						},
						{
							"internalType": "uint256",
							"name": "memberID",
							"type": "uint256"
						},
						{
							"internalType": "uint256",
							"name": "leaderAt",
							"type": "uint256"
						},
						{
							"internalType": "uint256",
							"name": "activeProposal",
							"type": "uint256"
						},
						{
							"internalType": "uint256",
							"name": "submittedDraft",
							"type": "uint256"
						}
					],
					"internalType": "struct Candidate",
					"name": "",
					"type": "tuple"
				}
			],
			"stateMutability": "view",
			"type": "function"
		},
		{
			"inputs": [],
			"name": "getCurrentPhase",
			"outputs": [
				{
					"internalType": "enum Phase",
					"name": "",
					"type": "uint8"
				}
			],
			"stateMutability": "nonpayable",
			"type": "function"
		},
		{
			"inputs": [],
			"name": "getElectionResults",
			"outputs": [
				{
					"internalType": "address[]",
					"name": "",
					"type": "address[]"
				}
			],
			"stateMutability": "nonpayable",
			"type": "function"
		},
		{
			"inputs": [
				{
					"internalType": "bytes32",
					"name": "voterHash",
					"type": "bytes32"
				}
			],
			"name": "getHashStatus",
			"outputs": [
				{
					"internalType": "bool",
					"name": "",
					"type": "bool"
				}
			],
			"stateMutability": "view",
			"type": "function"
		},
		{
			"inputs": [
				{
					"internalType": "address",
					"name": "voterAddress",
					"type": "address"
				}
			],
			"name": "getVoteTime",
			"outputs": [
				{
					"internalType": "uint256",
					"name": "",
					"type": "uint256"
				}
			],
			"stateMutability": "view",
			"type": "function"
		},
		{
			"inputs": [],
			"name": "membersElected",
			"outputs": [
				{
					"internalType": "bool",
					"name": "",
					"type": "bool"
				}
			],
			"stateMutability": "view",
			"type": "function"
		},
		{
			"inputs": [],
			"name": "neutral",
			"outputs": [
				{
					"internalType": "address",
					"name": "",
					"type": "address"
				}
			],
			"stateMutability": "view",
			"type": "function"
		},
		{
			"inputs": [
				{
					"internalType": "uint256",
					"name": "",
					"type": "uint256"
				}
			],
			"name": "proposals",
			"outputs": [
				{
					"internalType": "address",
					"name": "proposer",
					"type": "address"
				},
				{
					"internalType": "string",
					"name": "provisions",
					"type": "string"
				},
				{
					"internalType": "uint256",
					"name": "proposedAt",
					"type": "uint256"
				},
				{
					"internalType": "uint256",
					"name": "executedAt",
					"type": "uint256"
				},
				{
					"internalType": "uint256",
					"name": "withdrawnAt",
					"type": "uint256"
				},
				{
					"internalType": "uint8",
					"name": "yesVotes",
					"type": "uint8"
				}
			],
			"stateMutability": "view",
			"type": "function"
		},
		{
			"inputs": [],
			"name": "referendumEnd",
			"outputs": [
				{
					"internalType": "uint256",
					"name": "",
					"type": "uint256"
				}
			],
			"stateMutability": "view",
			"type": "function"
		},
		{
			"inputs": [
				{
					"internalType": "string",
					"name": "_fullName",
					"type": "string"
				},
				{
					"internalType": "string",
					"name": "_bio",
					"type": "string"
				},
				{
					"internalType": "string",
					"name": "_website",
					"type": "string"
				}
			],
			"name": "registerAsCandidate",
			"outputs": [],
			"stateMutability": "payable",
			"type": "function"
		},
		{
			"inputs": [],
			"name": "startTime",
			"outputs": [
				{
					"internalType": "uint256",
					"name": "",
					"type": "uint256"
				}
			],
			"stateMutability": "view",
			"type": "function"
		},
		{
			"inputs": [
				{
					"internalType": "uint256[]",
					"name": "_candidatesIds",
					"type": "uint256[]"
				}
			],
			"name": "voteCandidates",
			"outputs": [],
			"stateMutability": "nonpayable",
			"type": "function"
		}
	]
}