{
	"data": {
		"bytecode": {
			"linkReferences": {},
			"object": "6080604052348015600e575f80fd5b506114028061001c5f395ff3fe608060405234801561000f575f80fd5b50600436106100fb575f3560e01c8063b85c229211610093578063ce7ea16111610063578063ce7ea1611461023c578063e1f02ffa14610245578063e292bf161461025a578063e965b7c914610262575f80fd5b8063b85c2292146101e6578063bab752e5146101ee578063bbb8279d146101f7578063be07f0f814610234575f80fd5b80633b497b28116100ce5780633b497b281461018a5780633def77b71461019d578063a3a40ea5146101a6578063b13c744b146101bb575f80fd5b8063013cf08b146100ff578063045c6ce01461012c57806308fd4cfa146101515780631b40893414610169575b5f80fd5b61011261010d366004610e18565b61028a565b604051610123959493929190610e5d565b60405180910390f35b61013f61013a366004610e18565b610361565b60405160ff9091168152602001610123565b61015b6212750081565b604051908152602001610123565b6003546101779061ffff1681565b60405161ffff9091168152602001610123565b61015b610198366004610ea0565b6105f9565b6101776104b081565b6101ae61082a565b6040516101239190610f68565b6101ce6101c9366004610e18565b6108f2565b6040516001600160a01b039091168152602001610123565b61013f601e81565b61015b60025481565b610224610205366004610fa5565b600760209081525f928352604080842090915290825290205460ff1681565b6040519015158152602001610123565b61015b5f5481565b61015b60015481565b610258610253366004610e18565b61091a565b005b61013f603281565b610275610270366004610fcf565b610ac2565b60405161012399989796959493929190610ff1565b60068181548110610299575f80fd5b5f918252602090912060059091020180546001820180546001600160a01b039092169350906102c79061106b565b80601f01602080910402602001604051908101604052809291908181526020018280546102f39061106b565b801561033e5780601f106103155761010080835404028352916020019161033e565b820191905f5260205f20905b81548152906001019060200180831161032157829003601f168201915b50505050600283015460039093015491929160ff80821692506101009091041685565b335f9081526005602052604081206004015462010000900460ff166103c55760405162461bcd60e51b81526020600482015260156024820152744f6e6c79206d656d626572732063616e20766f746560581b60448201526064015b60405180910390fd5b600654821061040c5760405162461bcd60e51b8152602060048201526013602482015272125b9d985b1a59081c1c9bdc1bdcd85b081251606a1b60448201526064016103bc565b5f60068381548110610420576104206110a3565b5f9182526020909120600590910201600381015490915060ff161561047c5760405162461bcd60e51b8152602060048201526012602482015271283937b837b9b0b6103bb4ba34323930bbb760711b60448201526064016103bc565b335f90815260076020908152604080832086845290915290205460ff16156104d65760405162461bcd60e51b815260206004820152600d60248201526c105b1c9958591e481d9bdd1959609a1b60448201526064016103bc565b335f9081526007602090815260408083208684529091529020805460ff19166001908117909155600382018054610100900460ff1691610515836110cb565b91906101000a81548160ff021916908360ff16021790555050336001600160a01b0316837f34647120636ce03d739347e28e9d1bdd34fd03d066ae60439fb1be2721ad16cd60405160405180910390a36003810154601e61010090910460ff161080159061058557506002810154155b156105e75760405183907fe36f8b7448daff4a52e2945db0d1d7a436279cc1d527a45c27835dcbd27f336d905f90a242600282015580546001600160a01b03165f908152600560205260409020600601805461ffff191690556105e783610ca6565b60030154610100900460ff1692915050565b5f8361063d5760405162461bcd60e51b8152602060048201526013602482015272141c9bdd9a5cda5bdb9cc81c995c5d5a5c9959606a1b60448201526064016103bc565b335f9081526005602052604090206004015462010000900460ff166106af5760405162461bcd60e51b815260206004820152602260248201527f4f6e6c79206d656d626572732063616e2070726f706f73652070726f706f73616044820152616c7360f01b60648201526084016103bc565b335f9081526005602052604090206006015461ffff161561070b5760405162461bcd60e51b815260206004820152601660248201527512185cc8185b881858dd1a5d99481c1c9bdc1bdcd85b60521b60448201526064016103bc565b60068054335f9081526005602052604081208301805461ffff191660ff8416908117909155835460010180855584835292939192811061074d5761074d6110a3565b5f918252602090912060059091020180546001600160a01b0319163317815590506001810161077d878983611148565b505f5b848110156107db578160040186868381811061079e5761079e6110a3565b90506020028101906107b09190611202565b81546001810183555f92835260209092209091600302016107d18282611220565b5050600101610780565b506006546040513391907f6fb266c3bffbf56760b26ba85968fa3e28f3ed50cea5c9704fb6e260dab31f1c90610814908b908b9061134f565b60405180910390a3505060065495945050505050565b5f805442101561083957505f90565b6108456032600261137d565b60ff16600480549050108061086357506003546104b061ffff909116105b1561087057505f80805590565b5f545f036108a257425f81905561088b9062127500906113a0565b61089890620151806113a0565b6001908155919050565b600180546108b091906113b9565b4210156108bd5750600190565b6001544210156108cd5750600290565b6002545f036108dc5750600390565b6002544210156108ec5750600490565b50600590565b60048181548110610901575f80fd5b5f918252602090912001546001600160a01b0316905081565b60065481106109615760405162461bcd60e51b8152602060048201526013602482015272125b9d985b1a59081c1c9bdc1bdcd85b081251606a1b60448201526064016103bc565b5f60068281548110610975576109756110a3565b5f918252602090912060059091020180549091506001600160a01b031633146109e05760405162461bcd60e51b815260206004820152601e60248201527f4f6e6c79207468652070726f706f7365722063616e207769746864726177000060448201526064016103bc565b600281015415610a255760405162461bcd60e51b815260206004820152601060248201526f105b1c9958591e48195e1958dd5d195960821b60448201526064016103bc565b600381015460ff1615610a6e5760405162461bcd60e51b815260206004820152601160248201527020b63932b0b23c903bb4ba34323930bbb760791b60448201526064016103bc565b60038101805460ff19166001179055335f90815260056020526040808220600601805461ffff191690555183917f5ca6c0bba519c857c8713fba9f5f1b582abe00c95dcccedccea41ad683bad26d91a25050565b60056020525f9081526040902080548190610adc9061106b565b80601f0160208091040260200160405190810160405280929190818152602001828054610b089061106b565b8015610b535780601f10610b2a57610100808354040283529160200191610b53565b820191905f5260205f20905b815481529060010190602001808311610b3657829003601f168201915b505050505090806001018054610b689061106b565b80601f0160208091040260200160405190810160405280929190818152602001828054610b949061106b565b8015610bdf5780601f10610bb657610100808354040283529160200191610bdf565b820191905f5260205f20905b815481529060010190602001808311610bc257829003601f168201915b505050505090806002018054610bf49061106b565b80601f0160208091040260200160405190810160405280929190818152602001828054610c209061106b565b8015610c6b5780601f10610c4257610100808354040283529160200191610c6b565b820191905f5260205f20905b815481529060010190602001808311610c4e57829003601f168201915b505050506003830154600484015460058501546006909501549394919361ffff8083169450620100009283900460ff16939281831692041689565b5f60068281548110610cba57610cba6110a3565b905f5260205f20906005020190505f5b6004820154811015610e13575f826004018281548110610cec57610cec6110a3565b905f5260205f2090600302016040518060600160405290815f8201548152602001600182015f9054906101000a90046001600160a01b03166001600160a01b03166001600160a01b03168152602001600282018054610d4a9061106b565b80601f0160208091040260200160405190810160405280929190818152602001828054610d769061106b565b8015610dc15780601f10610d9857610100808354040283529160200191610dc1565b820191905f5260205f20905b815481529060010190602001808311610da457829003601f168201915b505050505081525050905080602001516001600160a01b03166108fc825f015190811502906040515f60405180830381858888f19350505050158015610e09573d5f803e3d5ffd5b5050600101610cca565b505050565b5f60208284031215610e28575f80fd5b5035919050565b5f81518084528060208401602086015e5f602082860101526020601f19601f83011685010191505092915050565b6001600160a01b038616815260a0602082018190525f90610e8090830187610e2f565b604083019590955250911515606083015260ff1660809091015292915050565b5f805f8060408587031215610eb3575f80fd5b843567ffffffffffffffff811115610ec9575f80fd5b8501601f81018713610ed9575f80fd5b803567ffffffffffffffff811115610eef575f80fd5b876020828401011115610f00575f80fd5b60209182019550935085013567ffffffffffffffff811115610f20575f80fd5b8501601f81018713610f30575f80fd5b803567ffffffffffffffff811115610f46575f80fd5b8760208260051b8401011115610f5a575f80fd5b949793965060200194505050565b6020810160068310610f8857634e487b7160e01b5f52602160045260245ffd5b91905290565b6001600160a01b0381168114610fa2575f80fd5b50565b5f8060408385031215610fb6575f80fd5b8235610fc181610f8e565b946020939093013593505050565b5f60208284031215610fdf575f80fd5b8135610fea81610f8e565b9392505050565b61012081525f61100561012083018c610e2f565b8281036020840152611017818c610e2f565b9050828103604084015261102b818b610e2f565b6060840199909952505061ffff958616608082015260ff9490941660a085015260c0840192909252831660e0830152909116610100909101529392505050565b600181811c9082168061107f57607f821691505b60208210810361109d57634e487b7160e01b5f52602260045260245ffd5b50919050565b634e487b7160e01b5f52603260045260245ffd5b634e487b7160e01b5f52601160045260245ffd5b5f60ff821660ff81036110e0576110e06110b7565b60010192915050565b634e487b7160e01b5f52604160045260245ffd5b601f821115610e1357805f5260205f20601f840160051c810160208510156111225750805b601f840160051c820191505b81811015611141575f815560010161112e565b5050505050565b67ffffffffffffffff831115611160576111606110e9565b6111748361116e835461106b565b836110fd565b5f601f8411600181146111a5575f851561118e5750838201355b5f19600387901b1c1916600186901b178355611141565b5f83815260208120601f198716915b828110156111d457868501358255602094850194600190920191016111b4565b50868210156111f0575f1960f88860031b161c19848701351681555b505060018560011b0183555050505050565b5f8235605e19833603018112611216575f80fd5b9190910192915050565b8135815560018101602083013561123681610f8e565b81546001600160a01b0319166001600160a01b0391909116179055604082013536839003601e19018112611268575f80fd5b8201803567ffffffffffffffff811115611280575f80fd5b602082019150803603821315611294575f80fd5b6002830167ffffffffffffffff8211156112b0576112b06110e9565b6112be8261116e835461106b565b5f601f8311600181146112ef575f84156112d85750848201355b5f19600386901b1c1916600185901b178355611346565b5f83815260208120601f198616915b8281101561131e57878501358255602094850194600190920191016112fe565b508582101561133a575f1960f88760031b161c19848801351681555b505060018460011b0183555b50505050505050565b60208152816020820152818360408301375f818301604090810191909152601f909201601f19160101919050565b60ff8181168382160290811690818114611399576113996110b7565b5092915050565b808201808211156113b3576113b36110b7565b92915050565b818103818111156113b3576113b36110b756fea26469706673582212206e5c2210a828c6c0eefd53f5aaca4c1a083f31ced739bae5a421062e38807eb364736f6c634300081a0033",
			"opcodes": "PUSH1 0x80 PUSH1 0x40 MSTORE CALLVALUE DUP1 ISZERO PUSH1 0xE JUMPI PUSH0 DUP1 REVERT JUMPDEST POP PUSH2 0x1402 DUP1 PUSH2 0x1C PUSH0 CODECOPY PUSH0 RETURN INVALID PUSH1 0x80 PUSH1 0x40 MSTORE CALLVALUE DUP1 ISZERO PUSH2 0xF JUMPI PUSH0 DUP1 REVERT JUMPDEST POP PUSH1 0x4 CALLDATASIZE LT PUSH2 0xFB JUMPI PUSH0 CALLDATALOAD PUSH1 0xE0 SHR DUP1 PUSH4 0xB85C2292 GT PUSH2 0x93 JUMPI DUP1 PUSH4 0xCE7EA161 GT PUSH2 0x63 JUMPI DUP1 PUSH4 0xCE7EA161 EQ PUSH2 0x23C JUMPI DUP1 PUSH4 0xE1F02FFA EQ PUSH2 0x245 JUMPI DUP1 PUSH4 0xE292BF16 EQ PUSH2 0x25A JUMPI DUP1 PUSH4 0xE965B7C9 EQ PUSH2 0x262 JUMPI PUSH0 DUP1 REVERT JUMPDEST DUP1 PUSH4 0xB85C2292 EQ PUSH2 0x1E6 JUMPI DUP1 PUSH4 0xBAB752E5 EQ PUSH2 0x1EE JUMPI DUP1 PUSH4 0xBBB8279D EQ PUSH2 0x1F7 JUMPI DUP1 PUSH4 0xBE07F0F8 EQ PUSH2 0x234 JUMPI PUSH0 DUP1 REVERT JUMPDEST DUP1 PUSH4 0x3B497B28 GT PUSH2 0xCE JUMPI DUP1 PUSH4 0x3B497B28 EQ PUSH2 0x18A JUMPI DUP1 PUSH4 0x3DEF77B7 EQ PUSH2 0x19D JUMPI DUP1 PUSH4 0xA3A40EA5 EQ PUSH2 0x1A6 JUMPI DUP1 PUSH4 0xB13C744B EQ PUSH2 0x1BB JUMPI PUSH0 DUP1 REVERT JUMPDEST DUP1 PUSH4 0x13CF08B EQ PUSH2 0xFF JUMPI DUP1 PUSH4 0x45C6CE0 EQ PUSH2 0x12C JUMPI DUP1 PUSH4 0x8FD4CFA EQ PUSH2 0x151 JUMPI DUP1 PUSH4 0x1B408934 EQ PUSH2 0x169 JUMPI JUMPDEST PUSH0 DUP1 REVERT JUMPDEST PUSH2 0x112 PUSH2 0x10D CALLDATASIZE PUSH1 0x4 PUSH2 0xE18 JUMP JUMPDEST PUSH2 0x28A JUMP JUMPDEST PUSH1 0x40 MLOAD PUSH2 0x123 SWAP6 SWAP5 SWAP4 SWAP3 SWAP2 SWAP1 PUSH2 0xE5D JUMP JUMPDEST PUSH1 0x40 MLOAD DUP1 SWAP2 SUB SWAP1 RETURN JUMPDEST PUSH2 0x13F PUSH2 0x13A CALLDATASIZE PUSH1 0x4 PUSH2 0xE18 JUMP JUMPDEST PUSH2 0x361 JUMP JUMPDEST PUSH1 0x40 MLOAD PUSH1 0xFF SWAP1 SWAP2 AND DUP2 MSTORE PUSH1 0x20 ADD PUSH2 0x123 JUMP JUMPDEST PUSH2 0x15B PUSH3 0x127500 DUP2 JUMP JUMPDEST PUSH1 0x40 MLOAD SWAP1 DUP2 MSTORE PUSH1 0x20 ADD PUSH2 0x123 JUMP JUMPDEST PUSH1 0x3 SLOAD PUSH2 0x177 SWAP1 PUSH2 0xFFFF AND DUP2 JUMP JUMPDEST PUSH1 0x40 MLOAD PUSH2 0xFFFF SWAP1 SWAP2 AND DUP2 MSTORE PUSH1 0x20 ADD PUSH2 0x123 JUMP JUMPDEST PUSH2 0x15B PUSH2 0x198 CALLDATASIZE PUSH1 0x4 PUSH2 0xEA0 JUMP JUMPDEST PUSH2 0x5F9 JUMP JUMPDEST PUSH2 0x177 PUSH2 0x4B0 DUP2 JUMP JUMPDEST PUSH2 0x1AE PUSH2 0x82A JUMP JUMPDEST PUSH1 0x40 MLOAD PUSH2 0x123 SWAP2 SWAP1 PUSH2 0xF68 JUMP JUMPDEST PUSH2 0x1CE PUSH2 0x1C9 CALLDATASIZE PUSH1 0x4 PUSH2 0xE18 JUMP JUMPDEST PUSH2 0x8F2 JUMP JUMPDEST PUSH1 0x40 MLOAD PUSH1 0x1 PUSH1 0x1 PUSH1 0xA0 SHL SUB SWAP1 SWAP2 AND DUP2 MSTORE PUSH1 0x20 ADD PUSH2 0x123 JUMP JUMPDEST PUSH2 0x13F PUSH1 0x1E DUP2 JUMP JUMPDEST PUSH2 0x15B PUSH1 0x2 SLOAD DUP2 JUMP JUMPDEST PUSH2 0x224 PUSH2 0x205 CALLDATASIZE PUSH1 0x4 PUSH2 0xFA5 JUMP JUMPDEST PUSH1 0x7 PUSH1 0x20 SWAP1 DUP2 MSTORE PUSH0 SWAP3 DUP4 MSTORE PUSH1 0x40 DUP1 DUP5 KECCAK256 SWAP1 SWAP2 MSTORE SWAP1 DUP3 MSTORE SWAP1 KECCAK256 SLOAD PUSH1 0xFF AND DUP2 JUMP JUMPDEST PUSH1 0x40 MLOAD SWAP1 ISZERO ISZERO DUP2 MSTORE PUSH1 0x20 ADD PUSH2 0x123 JUMP JUMPDEST PUSH2 0x15B PUSH0 SLOAD DUP2 JUMP JUMPDEST PUSH2 0x15B PUSH1 0x1 SLOAD DUP2 JUMP JUMPDEST PUSH2 0x258 PUSH2 0x253 CALLDATASIZE PUSH1 0x4 PUSH2 0xE18 JUMP JUMPDEST PUSH2 0x91A JUMP JUMPDEST STOP JUMPDEST PUSH2 0x13F PUSH1 0x32 DUP2 JUMP JUMPDEST PUSH2 0x275 PUSH2 0x270 CALLDATASIZE PUSH1 0x4 PUSH2 0xFCF JUMP JUMPDEST PUSH2 0xAC2 JUMP JUMPDEST PUSH1 0x40 MLOAD PUSH2 0x123 SWAP10 SWAP9 SWAP8 SWAP7 SWAP6 SWAP5 SWAP4 SWAP3 SWAP2 SWAP1 PUSH2 0xFF1 JUMP JUMPDEST PUSH1 0x6 DUP2 DUP2 SLOAD DUP2 LT PUSH2 0x299 JUMPI PUSH0 DUP1 REVERT JUMPDEST PUSH0 SWAP2 DUP3 MSTORE PUSH1 0x20 SWAP1 SWAP2 KECCAK256 PUSH1 0x5 SWAP1 SWAP2 MUL ADD DUP1 SLOAD PUSH1 0x1 DUP3 ADD DUP1 SLOAD PUSH1 0x1 PUSH1 0x1 PUSH1 0xA0 SHL SUB SWAP1 SWAP3 AND SWAP4 POP SWAP1 PUSH2 0x2C7 SWAP1 PUSH2 0x106B JUMP JUMPDEST DUP1 PUSH1 0x1F ADD PUSH1 0x20 DUP1 SWAP2 DIV MUL PUSH1 0x20 ADD PUSH1 0x40 MLOAD SWAP1 DUP2 ADD PUSH1 0x40 MSTORE DUP1 SWAP3 SWAP2 SWAP1 DUP2 DUP2 MSTORE PUSH1 0x20 ADD DUP3 DUP1 SLOAD PUSH2 0x2F3 SWAP1 PUSH2 0x106B JUMP JUMPDEST DUP1 ISZERO PUSH2 0x33E JUMPI DUP1 PUSH1 0x1F LT PUSH2 0x315 JUMPI PUSH2 0x100 DUP1 DUP4 SLOAD DIV MUL DUP4 MSTORE SWAP2 PUSH1 0x20 ADD SWAP2 PUSH2 0x33E JUMP JUMPDEST DUP3 ADD SWAP2 SWAP1 PUSH0 MSTORE PUSH1 0x20 PUSH0 KECCAK256 SWAP1 JUMPDEST DUP2 SLOAD DUP2 MSTORE SWAP1 PUSH1 0x1 ADD SWAP1 PUSH1 0x20 ADD DUP1 DUP4 GT PUSH2 0x321 JUMPI DUP3 SWAP1 SUB PUSH1 0x1F AND DUP3 ADD SWAP2 JUMPDEST POP POP POP POP PUSH1 0x2 DUP4 ADD SLOAD PUSH1 0x3 SWAP1 SWAP4 ADD SLOAD SWAP2 SWAP3 SWAP2 PUSH1 0xFF DUP1 DUP3 AND SWAP3 POP PUSH2 0x100 SWAP1 SWAP2 DIV AND DUP6 JUMP JUMPDEST CALLER PUSH0 SWAP1 DUP2 MSTORE PUSH1 0x5 PUSH1 0x20 MSTORE PUSH1 0x40 DUP2 KECCAK256 PUSH1 0x4 ADD SLOAD PUSH3 0x10000 SWAP1 DIV PUSH1 0xFF AND PUSH2 0x3C5 JUMPI PUSH1 0x40 MLOAD PUSH3 0x461BCD PUSH1 0xE5 SHL DUP2 MSTORE PUSH1 0x20 PUSH1 0x4 DUP3 ADD MSTORE PUSH1 0x15 PUSH1 0x24 DUP3 ADD MSTORE PUSH21 0x4F6E6C79206D656D626572732063616E20766F7465 PUSH1 0x58 SHL PUSH1 0x44 DUP3 ADD MSTORE PUSH1 0x64 ADD JUMPDEST PUSH1 0x40 MLOAD DUP1 SWAP2 SUB SWAP1 REVERT JUMPDEST PUSH1 0x6 SLOAD DUP3 LT PUSH2 0x40C JUMPI PUSH1 0x40 MLOAD PUSH3 0x461BCD PUSH1 0xE5 SHL DUP2 MSTORE PUSH1 0x20 PUSH1 0x4 DUP3 ADD MSTORE PUSH1 0x13 PUSH1 0x24 DUP3 ADD MSTORE PUSH19 0x125B9D985B1A59081C1C9BDC1BDCD85B081251 PUSH1 0x6A SHL PUSH1 0x44 DUP3 ADD MSTORE PUSH1 0x64 ADD PUSH2 0x3BC JUMP JUMPDEST PUSH0 PUSH1 0x6 DUP4 DUP2 SLOAD DUP2 LT PUSH2 0x420 JUMPI PUSH2 0x420 PUSH2 0x10A3 JUMP JUMPDEST PUSH0 SWAP2 DUP3 MSTORE PUSH1 0x20 SWAP1 SWAP2 KECCAK256 PUSH1 0x5 SWAP1 SWAP2 MUL ADD PUSH1 0x3 DUP2 ADD SLOAD SWAP1 SWAP2 POP PUSH1 0xFF AND ISZERO PUSH2 0x47C JUMPI PUSH1 0x40 MLOAD PUSH3 0x461BCD PUSH1 0xE5 SHL DUP2 MSTORE PUSH1 0x20 PUSH1 0x4 DUP3 ADD MSTORE PUSH1 0x12 PUSH1 0x24 DUP3 ADD MSTORE PUSH18 0x283937B837B9B0B6103BB4BA34323930BBB7 PUSH1 0x71 SHL PUSH1 0x44 DUP3 ADD MSTORE PUSH1 0x64 ADD PUSH2 0x3BC JUMP JUMPDEST CALLER PUSH0 SWAP1 DUP2 MSTORE PUSH1 0x7 PUSH1 0x20 SWAP1 DUP2 MSTORE PUSH1 0x40 DUP1 DUP4 KECCAK256 DUP7 DUP5 MSTORE SWAP1 SWAP2 MSTORE SWAP1 KECCAK256 SLOAD PUSH1 0xFF AND ISZERO PUSH2 0x4D6 JUMPI PUSH1 0x40 MLOAD PUSH3 0x461BCD PUSH1 0xE5 SHL DUP2 MSTORE PUSH1 0x20 PUSH1 0x4 DUP3 ADD MSTORE PUSH1 0xD PUSH1 0x24 DUP3 ADD MSTORE PUSH13 0x105B1C9958591E481D9BDD1959 PUSH1 0x9A SHL PUSH1 0x44 DUP3 ADD MSTORE PUSH1 0x64 ADD PUSH2 0x3BC JUMP JUMPDEST CALLER PUSH0 SWAP1 DUP2 MSTORE PUSH1 0x7 PUSH1 0x20 SWAP1 DUP2 MSTORE PUSH1 0x40 DUP1 DUP4 KECCAK256 DUP7 DUP5 MSTORE SWAP1 SWAP2 MSTORE SWAP1 KECCAK256 DUP1 SLOAD PUSH1 0xFF NOT AND PUSH1 0x1 SWAP1 DUP2 OR SWAP1 SWAP2 SSTORE PUSH1 0x3 DUP3 ADD DUP1 SLOAD PUSH2 0x100 SWAP1 DIV PUSH1 0xFF AND SWAP2 PUSH2 0x515 DUP4 PUSH2 0x10CB JUMP JUMPDEST SWAP2 SWAP1 PUSH2 0x100 EXP DUP2 SLOAD DUP2 PUSH1 0xFF MUL NOT AND SWAP1 DUP4 PUSH1 0xFF AND MUL OR SWAP1 SSTORE POP POP CALLER PUSH1 0x1 PUSH1 0x1 PUSH1 0xA0 SHL SUB AND DUP4 PUSH32 0x34647120636CE03D739347E28E9D1BDD34FD03D066AE60439FB1BE2721AD16CD PUSH1 0x40 MLOAD PUSH1 0x40 MLOAD DUP1 SWAP2 SUB SWAP1 LOG3 PUSH1 0x3 DUP2 ADD SLOAD PUSH1 0x1E PUSH2 0x100 SWAP1 SWAP2 DIV PUSH1 0xFF AND LT DUP1 ISZERO SWAP1 PUSH2 0x585 JUMPI POP PUSH1 0x2 DUP2 ADD SLOAD ISZERO JUMPDEST ISZERO PUSH2 0x5E7 JUMPI PUSH1 0x40 MLOAD DUP4 SWAP1 PUSH32 0xE36F8B7448DAFF4A52E2945DB0D1D7A436279CC1D527A45C27835DCBD27F336D SWAP1 PUSH0 SWAP1 LOG2 TIMESTAMP PUSH1 0x2 DUP3 ADD SSTORE DUP1 SLOAD PUSH1 0x1 PUSH1 0x1 PUSH1 0xA0 SHL SUB AND PUSH0 SWAP1 DUP2 MSTORE PUSH1 0x5 PUSH1 0x20 MSTORE PUSH1 0x40 SWAP1 KECCAK256 PUSH1 0x6 ADD DUP1 SLOAD PUSH2 0xFFFF NOT AND SWAP1 SSTORE PUSH2 0x5E7 DUP4 PUSH2 0xCA6 JUMP JUMPDEST PUSH1 0x3 ADD SLOAD PUSH2 0x100 SWAP1 DIV PUSH1 0xFF AND SWAP3 SWAP2 POP POP JUMP JUMPDEST PUSH0 DUP4 PUSH2 0x63D JUMPI PUSH1 0x40 MLOAD PUSH3 0x461BCD PUSH1 0xE5 SHL DUP2 MSTORE PUSH1 0x20 PUSH1 0x4 DUP3 ADD MSTORE PUSH1 0x13 PUSH1 0x24 DUP3 ADD MSTORE PUSH19 0x141C9BDD9A5CDA5BDB9CC81C995C5D5A5C9959 PUSH1 0x6A SHL PUSH1 0x44 DUP3 ADD MSTORE PUSH1 0x64 ADD PUSH2 0x3BC JUMP JUMPDEST CALLER PUSH0 SWAP1 DUP2 MSTORE PUSH1 0x5 PUSH1 0x20 MSTORE PUSH1 0x40 SWAP1 KECCAK256 PUSH1 0x4 ADD SLOAD PUSH3 0x10000 SWAP1 DIV PUSH1 0xFF AND PUSH2 0x6AF JUMPI PUSH1 0x40 MLOAD PUSH3 0x461BCD PUSH1 0xE5 SHL DUP2 MSTORE PUSH1 0x20 PUSH1 0x4 DUP3 ADD MSTORE PUSH1 0x22 PUSH1 0x24 DUP3 ADD MSTORE PUSH32 0x4F6E6C79206D656D626572732063616E2070726F706F73652070726F706F7361 PUSH1 0x44 DUP3 ADD MSTORE PUSH2 0x6C73 PUSH1 0xF0 SHL PUSH1 0x64 DUP3 ADD MSTORE PUSH1 0x84 ADD PUSH2 0x3BC JUMP JUMPDEST CALLER PUSH0 SWAP1 DUP2 MSTORE PUSH1 0x5 PUSH1 0x20 MSTORE PUSH1 0x40 SWAP1 KECCAK256 PUSH1 0x6 ADD SLOAD PUSH2 0xFFFF AND ISZERO PUSH2 0x70B JUMPI PUSH1 0x40 MLOAD PUSH3 0x461BCD PUSH1 0xE5 SHL DUP2 MSTORE PUSH1 0x20 PUSH1 0x4 DUP3 ADD MSTORE PUSH1 0x16 PUSH1 0x24 DUP3 ADD MSTORE PUSH22 0x12185CC8185B881858DD1A5D99481C1C9BDC1BDCD85B PUSH1 0x52 SHL PUSH1 0x44 DUP3 ADD MSTORE PUSH1 0x64 ADD PUSH2 0x3BC JUMP JUMPDEST PUSH1 0x6 DUP1 SLOAD CALLER PUSH0 SWAP1 DUP2 MSTORE PUSH1 0x5 PUSH1 0x20 MSTORE PUSH1 0x40 DUP2 KECCAK256 DUP4 ADD DUP1 SLOAD PUSH2 0xFFFF NOT AND PUSH1 0xFF DUP5 AND SWAP1 DUP2 OR SWAP1 SWAP2 SSTORE DUP4 SLOAD PUSH1 0x1 ADD DUP1 DUP6 SSTORE DUP5 DUP4 MSTORE SWAP3 SWAP4 SWAP2 SWAP3 DUP2 LT PUSH2 0x74D JUMPI PUSH2 0x74D PUSH2 0x10A3 JUMP JUMPDEST PUSH0 SWAP2 DUP3 MSTORE PUSH1 0x20 SWAP1 SWAP2 KECCAK256 PUSH1 0x5 SWAP1 SWAP2 MUL ADD DUP1 SLOAD PUSH1 0x1 PUSH1 0x1 PUSH1 0xA0 SHL SUB NOT AND CALLER OR DUP2 SSTORE SWAP1 POP PUSH1 0x1 DUP2 ADD PUSH2 0x77D DUP8 DUP10 DUP4 PUSH2 0x1148 JUMP JUMPDEST POP PUSH0 JUMPDEST DUP5 DUP2 LT ISZERO PUSH2 0x7DB JUMPI DUP2 PUSH1 0x4 ADD DUP7 DUP7 DUP4 DUP2 DUP2 LT PUSH2 0x79E JUMPI PUSH2 0x79E PUSH2 0x10A3 JUMP JUMPDEST SWAP1 POP PUSH1 0x20 MUL DUP2 ADD SWAP1 PUSH2 0x7B0 SWAP2 SWAP1 PUSH2 0x1202 JUMP JUMPDEST DUP2 SLOAD PUSH1 0x1 DUP2 ADD DUP4 SSTORE PUSH0 SWAP3 DUP4 MSTORE PUSH1 0x20 SWAP1 SWAP3 KECCAK256 SWAP1 SWAP2 PUSH1 0x3 MUL ADD PUSH2 0x7D1 DUP3 DUP3 PUSH2 0x1220 JUMP JUMPDEST POP POP PUSH1 0x1 ADD PUSH2 0x780 JUMP JUMPDEST POP PUSH1 0x6 SLOAD PUSH1 0x40 MLOAD CALLER SWAP2 SWAP1 PUSH32 0x6FB266C3BFFBF56760B26BA85968FA3E28F3ED50CEA5C9704FB6E260DAB31F1C SWAP1 PUSH2 0x814 SWAP1 DUP12 SWAP1 DUP12 SWAP1 PUSH2 0x134F JUMP JUMPDEST PUSH1 0x40 MLOAD DUP1 SWAP2 SUB SWAP1 LOG3 POP POP PUSH1 0x6 SLOAD SWAP6 SWAP5 POP POP POP POP POP JUMP JUMPDEST PUSH0 DUP1 SLOAD TIMESTAMP LT ISZERO PUSH2 0x839 JUMPI POP PUSH0 SWAP1 JUMP JUMPDEST PUSH2 0x845 PUSH1 0x32 PUSH1 0x2 PUSH2 0x137D JUMP JUMPDEST PUSH1 0xFF AND PUSH1 0x4 DUP1 SLOAD SWAP1 POP LT DUP1 PUSH2 0x863 JUMPI POP PUSH1 0x3 SLOAD PUSH2 0x4B0 PUSH2 0xFFFF SWAP1 SWAP2 AND LT JUMPDEST ISZERO PUSH2 0x870 JUMPI POP PUSH0 DUP1 DUP1 SSTORE SWAP1 JUMP JUMPDEST PUSH0 SLOAD PUSH0 SUB PUSH2 0x8A2 JUMPI TIMESTAMP PUSH0 DUP2 SWAP1 SSTORE PUSH2 0x88B SWAP1 PUSH3 0x127500 SWAP1 PUSH2 0x13A0 JUMP JUMPDEST PUSH2 0x898 SWAP1 PUSH3 0x15180 PUSH2 0x13A0 JUMP JUMPDEST PUSH1 0x1 SWAP1 DUP2 SSTORE SWAP2 SWAP1 POP JUMP JUMPDEST PUSH1 0x1 DUP1 SLOAD PUSH2 0x8B0 SWAP2 SWAP1 PUSH2 0x13B9 JUMP JUMPDEST TIMESTAMP LT ISZERO PUSH2 0x8BD JUMPI POP PUSH1 0x1 SWAP1 JUMP JUMPDEST PUSH1 0x1 SLOAD TIMESTAMP LT ISZERO PUSH2 0x8CD JUMPI POP PUSH1 0x2 SWAP1 JUMP JUMPDEST PUSH1 0x2 SLOAD PUSH0 SUB PUSH2 0x8DC JUMPI POP PUSH1 0x3 SWAP1 JUMP JUMPDEST PUSH1 0x2 SLOAD TIMESTAMP LT ISZERO PUSH2 0x8EC JUMPI POP PUSH1 0x4 SWAP1 JUMP JUMPDEST POP PUSH1 0x5 SWAP1 JUMP JUMPDEST PUSH1 0x4 DUP2 DUP2 SLOAD DUP2 LT PUSH2 0x901 JUMPI PUSH0 DUP1 REVERT JUMPDEST PUSH0 SWAP2 DUP3 MSTORE PUSH1 0x20 SWAP1 SWAP2 KECCAK256 ADD SLOAD PUSH1 0x1 PUSH1 0x1 PUSH1 0xA0 SHL SUB AND SWAP1 POP DUP2 JUMP JUMPDEST PUSH1 0x6 SLOAD DUP2 LT PUSH2 0x961 JUMPI PUSH1 0x40 MLOAD PUSH3 0x461BCD PUSH1 0xE5 SHL DUP2 MSTORE PUSH1 0x20 PUSH1 0x4 DUP3 ADD MSTORE PUSH1 0x13 PUSH1 0x24 DUP3 ADD MSTORE PUSH19 0x125B9D985B1A59081C1C9BDC1BDCD85B081251 PUSH1 0x6A SHL PUSH1 0x44 DUP3 ADD MSTORE PUSH1 0x64 ADD PUSH2 0x3BC JUMP JUMPDEST PUSH0 PUSH1 0x6 DUP3 DUP2 SLOAD DUP2 LT PUSH2 0x975 JUMPI PUSH2 0x975 PUSH2 0x10A3 JUMP JUMPDEST PUSH0 SWAP2 DUP3 MSTORE PUSH1 0x20 SWAP1 SWAP2 KECCAK256 PUSH1 0x5 SWAP1 SWAP2 MUL ADD DUP1 SLOAD SWAP1 SWAP2 POP PUSH1 0x1 PUSH1 0x1 PUSH1 0xA0 SHL SUB AND CALLER EQ PUSH2 0x9E0 JUMPI PUSH1 0x40 MLOAD PUSH3 0x461BCD PUSH1 0xE5 SHL DUP2 MSTORE PUSH1 0x20 PUSH1 0x4 DUP3 ADD MSTORE PUSH1 0x1E PUSH1 0x24 DUP3 ADD MSTORE PUSH32 0x4F6E6C79207468652070726F706F7365722063616E2077697468647261770000 PUSH1 0x44 DUP3 ADD MSTORE PUSH1 0x64 ADD PUSH2 0x3BC JUMP JUMPDEST PUSH1 0x2 DUP2 ADD SLOAD ISZERO PUSH2 0xA25 JUMPI PUSH1 0x40 MLOAD PUSH3 0x461BCD PUSH1 0xE5 SHL DUP2 MSTORE PUSH1 0x20 PUSH1 0x4 DUP3 ADD MSTORE PUSH1 0x10 PUSH1 0x24 DUP3 ADD MSTORE PUSH16 0x105B1C9958591E48195E1958DD5D1959 PUSH1 0x82 SHL PUSH1 0x44 DUP3 ADD MSTORE PUSH1 0x64 ADD PUSH2 0x3BC JUMP JUMPDEST PUSH1 0x3 DUP2 ADD SLOAD PUSH1 0xFF AND ISZERO PUSH2 0xA6E JUMPI PUSH1 0x40 MLOAD PUSH3 0x461BCD PUSH1 0xE5 SHL DUP2 MSTORE PUSH1 0x20 PUSH1 0x4 DUP3 ADD MSTORE PUSH1 0x11 PUSH1 0x24 DUP3 ADD MSTORE PUSH17 0x20B63932B0B23C903BB4BA34323930BBB7 PUSH1 0x79 SHL PUSH1 0x44 DUP3 ADD MSTORE PUSH1 0x64 ADD PUSH2 0x3BC JUMP JUMPDEST PUSH1 0x3 DUP2 ADD DUP1 SLOAD PUSH1 0xFF NOT AND PUSH1 0x1 OR SWAP1 SSTORE CALLER PUSH0 SWAP1 DUP2 MSTORE PUSH1 0x5 PUSH1 0x20 MSTORE PUSH1 0x40 DUP1 DUP3 KECCAK256 PUSH1 0x6 ADD DUP1 SLOAD PUSH2 0xFFFF NOT AND SWAP1 SSTORE MLOAD DUP4 SWAP2 PUSH32 0x5CA6C0BBA519C857C8713FBA9F5F1B582ABE00C95DCCCEDCCEA41AD683BAD26D SWAP2 LOG2 POP POP JUMP JUMPDEST PUSH1 0x5 PUSH1 0x20 MSTORE PUSH0 SWAP1 DUP2 MSTORE PUSH1 0x40 SWAP1 KECCAK256 DUP1 SLOAD DUP2 SWAP1 PUSH2 0xADC SWAP1 PUSH2 0x106B JUMP JUMPDEST DUP1 PUSH1 0x1F ADD PUSH1 0x20 DUP1 SWAP2 DIV MUL PUSH1 0x20 ADD PUSH1 0x40 MLOAD SWAP1 DUP2 ADD PUSH1 0x40 MSTORE DUP1 SWAP3 SWAP2 SWAP1 DUP2 DUP2 MSTORE PUSH1 0x20 ADD DUP3 DUP1 SLOAD PUSH2 0xB08 SWAP1 PUSH2 0x106B JUMP JUMPDEST DUP1 ISZERO PUSH2 0xB53 JUMPI DUP1 PUSH1 0x1F LT PUSH2 0xB2A JUMPI PUSH2 0x100 DUP1 DUP4 SLOAD DIV MUL DUP4 MSTORE SWAP2 PUSH1 0x20 ADD SWAP2 PUSH2 0xB53 JUMP JUMPDEST DUP3 ADD SWAP2 SWAP1 PUSH0 MSTORE PUSH1 0x20 PUSH0 KECCAK256 SWAP1 JUMPDEST DUP2 SLOAD DUP2 MSTORE SWAP1 PUSH1 0x1 ADD SWAP1 PUSH1 0x20 ADD DUP1 DUP4 GT PUSH2 0xB36 JUMPI DUP3 SWAP1 SUB PUSH1 0x1F AND DUP3 ADD SWAP2 JUMPDEST POP POP POP POP POP SWAP1 DUP1 PUSH1 0x1 ADD DUP1 SLOAD PUSH2 0xB68 SWAP1 PUSH2 0x106B JUMP JUMPDEST DUP1 PUSH1 0x1F ADD PUSH1 0x20 DUP1 SWAP2 DIV MUL PUSH1 0x20 ADD PUSH1 0x40 MLOAD SWAP1 DUP2 ADD PUSH1 0x40 MSTORE DUP1 SWAP3 SWAP2 SWAP1 DUP2 DUP2 MSTORE PUSH1 0x20 ADD DUP3 DUP1 SLOAD PUSH2 0xB94 SWAP1 PUSH2 0x106B JUMP JUMPDEST DUP1 ISZERO PUSH2 0xBDF JUMPI DUP1 PUSH1 0x1F LT PUSH2 0xBB6 JUMPI PUSH2 0x100 DUP1 DUP4 SLOAD DIV MUL DUP4 MSTORE SWAP2 PUSH1 0x20 ADD SWAP2 PUSH2 0xBDF JUMP JUMPDEST DUP3 ADD SWAP2 SWAP1 PUSH0 MSTORE PUSH1 0x20 PUSH0 KECCAK256 SWAP1 JUMPDEST DUP2 SLOAD DUP2 MSTORE SWAP1 PUSH1 0x1 ADD SWAP1 PUSH1 0x20 ADD DUP1 DUP4 GT PUSH2 0xBC2 JUMPI DUP3 SWAP1 SUB PUSH1 0x1F AND DUP3 ADD SWAP2 JUMPDEST POP POP POP POP POP SWAP1 DUP1 PUSH1 0x2 ADD DUP1 SLOAD PUSH2 0xBF4 SWAP1 PUSH2 0x106B JUMP JUMPDEST DUP1 PUSH1 0x1F ADD PUSH1 0x20 DUP1 SWAP2 DIV MUL PUSH1 0x20 ADD PUSH1 0x40 MLOAD SWAP1 DUP2 ADD PUSH1 0x40 MSTORE DUP1 SWAP3 SWAP2 SWAP1 DUP2 DUP2 MSTORE PUSH1 0x20 ADD DUP3 DUP1 SLOAD PUSH2 0xC20 SWAP1 PUSH2 0x106B JUMP JUMPDEST DUP1 ISZERO PUSH2 0xC6B JUMPI DUP1 PUSH1 0x1F LT PUSH2 0xC42 JUMPI PUSH2 0x100 DUP1 DUP4 SLOAD DIV MUL DUP4 MSTORE SWAP2 PUSH1 0x20 ADD SWAP2 PUSH2 0xC6B JUMP JUMPDEST DUP3 ADD SWAP2 SWAP1 PUSH0 MSTORE PUSH1 0x20 PUSH0 KECCAK256 SWAP1 JUMPDEST DUP2 SLOAD DUP2 MSTORE SWAP1 PUSH1 0x1 ADD SWAP1 PUSH1 0x20 ADD DUP1 DUP4 GT PUSH2 0xC4E JUMPI DUP3 SWAP1 SUB PUSH1 0x1F AND DUP3 ADD SWAP2 JUMPDEST POP POP POP POP PUSH1 0x3 DUP4 ADD SLOAD PUSH1 0x4 DUP5 ADD SLOAD PUSH1 0x5 DUP6 ADD SLOAD PUSH1 0x6 SWAP1 SWAP6 ADD SLOAD SWAP4 SWAP5 SWAP2 SWAP4 PUSH2 0xFFFF DUP1 DUP4 AND SWAP5 POP PUSH3 0x10000 SWAP3 DUP4 SWAP1 DIV PUSH1 0xFF AND SWAP4 SWAP3 DUP2 DUP4 AND SWAP3 DIV AND DUP10 JUMP JUMPDEST PUSH0 PUSH1 0x6 DUP3 DUP2 SLOAD DUP2 LT PUSH2 0xCBA JUMPI PUSH2 0xCBA PUSH2 0x10A3 JUMP JUMPDEST SWAP1 PUSH0 MSTORE PUSH1 0x20 PUSH0 KECCAK256 SWAP1 PUSH1 0x5 MUL ADD SWAP1 POP PUSH0 JUMPDEST PUSH1 0x4 DUP3 ADD SLOAD DUP2 LT ISZERO PUSH2 0xE13 JUMPI PUSH0 DUP3 PUSH1 0x4 ADD DUP3 DUP2 SLOAD DUP2 LT PUSH2 0xCEC JUMPI PUSH2 0xCEC PUSH2 0x10A3 JUMP JUMPDEST SWAP1 PUSH0 MSTORE PUSH1 0x20 PUSH0 KECCAK256 SWAP1 PUSH1 0x3 MUL ADD PUSH1 0x40 MLOAD DUP1 PUSH1 0x60 ADD PUSH1 0x40 MSTORE SWAP1 DUP2 PUSH0 DUP3 ADD SLOAD DUP2 MSTORE PUSH1 0x20 ADD PUSH1 0x1 DUP3 ADD PUSH0 SWAP1 SLOAD SWAP1 PUSH2 0x100 EXP SWAP1 DIV PUSH1 0x1 PUSH1 0x1 PUSH1 0xA0 SHL SUB AND PUSH1 0x1 PUSH1 0x1 PUSH1 0xA0 SHL SUB AND PUSH1 0x1 PUSH1 0x1 PUSH1 0xA0 SHL SUB AND DUP2 MSTORE PUSH1 0x20 ADD PUSH1 0x2 DUP3 ADD DUP1 SLOAD PUSH2 0xD4A SWAP1 PUSH2 0x106B JUMP JUMPDEST DUP1 PUSH1 0x1F ADD PUSH1 0x20 DUP1 SWAP2 DIV MUL PUSH1 0x20 ADD PUSH1 0x40 MLOAD SWAP1 DUP2 ADD PUSH1 0x40 MSTORE DUP1 SWAP3 SWAP2 SWAP1 DUP2 DUP2 MSTORE PUSH1 0x20 ADD DUP3 DUP1 SLOAD PUSH2 0xD76 SWAP1 PUSH2 0x106B JUMP JUMPDEST DUP1 ISZERO PUSH2 0xDC1 JUMPI DUP1 PUSH1 0x1F LT PUSH2 0xD98 JUMPI PUSH2 0x100 DUP1 DUP4 SLOAD DIV MUL DUP4 MSTORE SWAP2 PUSH1 0x20 ADD SWAP2 PUSH2 0xDC1 JUMP JUMPDEST DUP3 ADD SWAP2 SWAP1 PUSH0 MSTORE PUSH1 0x20 PUSH0 KECCAK256 SWAP1 JUMPDEST DUP2 SLOAD DUP2 MSTORE SWAP1 PUSH1 0x1 ADD SWAP1 PUSH1 0x20 ADD DUP1 DUP4 GT PUSH2 0xDA4 JUMPI DUP3 SWAP1 SUB PUSH1 0x1F AND DUP3 ADD SWAP2 JUMPDEST POP POP POP POP POP DUP2 MSTORE POP POP SWAP1 POP DUP1 PUSH1 0x20 ADD MLOAD PUSH1 0x1 PUSH1 0x1 PUSH1 0xA0 SHL SUB AND PUSH2 0x8FC DUP3 PUSH0 ADD MLOAD SWAP1 DUP2 ISZERO MUL SWAP1 PUSH1 0x40 MLOAD PUSH0 PUSH1 0x40 MLOAD DUP1 DUP4 SUB DUP2 DUP6 DUP9 DUP9 CALL SWAP4 POP POP POP POP ISZERO DUP1 ISZERO PUSH2 0xE09 JUMPI RETURNDATASIZE PUSH0 DUP1 RETURNDATACOPY RETURNDATASIZE PUSH0 REVERT JUMPDEST POP POP PUSH1 0x1 ADD PUSH2 0xCCA JUMP JUMPDEST POP POP POP JUMP JUMPDEST PUSH0 PUSH1 0x20 DUP3 DUP5 SUB SLT ISZERO PUSH2 0xE28 JUMPI PUSH0 DUP1 REVERT JUMPDEST POP CALLDATALOAD SWAP2 SWAP1 POP JUMP JUMPDEST PUSH0 DUP2 MLOAD DUP1 DUP5 MSTORE DUP1 PUSH1 0x20 DUP5 ADD PUSH1 0x20 DUP7 ADD MCOPY PUSH0 PUSH1 0x20 DUP3 DUP7 ADD ADD MSTORE PUSH1 0x20 PUSH1 0x1F NOT PUSH1 0x1F DUP4 ADD AND DUP6 ADD ADD SWAP2 POP POP SWAP3 SWAP2 POP POP JUMP JUMPDEST PUSH1 0x1 PUSH1 0x1 PUSH1 0xA0 SHL SUB DUP7 AND DUP2 MSTORE PUSH1 0xA0 PUSH1 0x20 DUP3 ADD DUP2 SWAP1 MSTORE PUSH0 SWAP1 PUSH2 0xE80 SWAP1 DUP4 ADD DUP8 PUSH2 0xE2F JUMP JUMPDEST PUSH1 0x40 DUP4 ADD SWAP6 SWAP1 SWAP6 MSTORE POP SWAP2 ISZERO ISZERO PUSH1 0x60 DUP4 ADD MSTORE PUSH1 0xFF AND PUSH1 0x80 SWAP1 SWAP2 ADD MSTORE SWAP3 SWAP2 POP POP JUMP JUMPDEST PUSH0 DUP1 PUSH0 DUP1 PUSH1 0x40 DUP6 DUP8 SUB SLT ISZERO PUSH2 0xEB3 JUMPI PUSH0 DUP1 REVERT JUMPDEST DUP5 CALLDATALOAD PUSH8 0xFFFFFFFFFFFFFFFF DUP2 GT ISZERO PUSH2 0xEC9 JUMPI PUSH0 DUP1 REVERT JUMPDEST DUP6 ADD PUSH1 0x1F DUP2 ADD DUP8 SGT PUSH2 0xED9 JUMPI PUSH0 DUP1 REVERT JUMPDEST DUP1 CALLDATALOAD PUSH8 0xFFFFFFFFFFFFFFFF DUP2 GT ISZERO PUSH2 0xEEF JUMPI PUSH0 DUP1 REVERT JUMPDEST DUP8 PUSH1 0x20 DUP3 DUP5 ADD ADD GT ISZERO PUSH2 0xF00 JUMPI PUSH0 DUP1 REVERT JUMPDEST PUSH1 0x20 SWAP2 DUP3 ADD SWAP6 POP SWAP4 POP DUP6 ADD CALLDATALOAD PUSH8 0xFFFFFFFFFFFFFFFF DUP2 GT ISZERO PUSH2 0xF20 JUMPI PUSH0 DUP1 REVERT JUMPDEST DUP6 ADD PUSH1 0x1F DUP2 ADD DUP8 SGT PUSH2 0xF30 JUMPI PUSH0 DUP1 REVERT JUMPDEST DUP1 CALLDATALOAD PUSH8 0xFFFFFFFFFFFFFFFF DUP2 GT ISZERO PUSH2 0xF46 JUMPI PUSH0 DUP1 REVERT JUMPDEST DUP8 PUSH1 0x20 DUP3 PUSH1 0x5 SHL DUP5 ADD ADD GT ISZERO PUSH2 0xF5A JUMPI PUSH0 DUP1 REVERT JUMPDEST SWAP5 SWAP8 SWAP4 SWAP7 POP PUSH1 0x20 ADD SWAP5 POP POP POP JUMP JUMPDEST PUSH1 0x20 DUP2 ADD PUSH1 0x6 DUP4 LT PUSH2 0xF88 JUMPI PUSH4 0x4E487B71 PUSH1 0xE0 SHL PUSH0 MSTORE PUSH1 0x21 PUSH1 0x4 MSTORE PUSH1 0x24 PUSH0 REVERT JUMPDEST SWAP2 SWAP1 MSTORE SWAP1 JUMP JUMPDEST PUSH1 0x1 PUSH1 0x1 PUSH1 0xA0 SHL SUB DUP2 AND DUP2 EQ PUSH2 0xFA2 JUMPI PUSH0 DUP1 REVERT JUMPDEST POP JUMP JUMPDEST PUSH0 DUP1 PUSH1 0x40 DUP4 DUP6 SUB SLT ISZERO PUSH2 0xFB6 JUMPI PUSH0 DUP1 REVERT JUMPDEST DUP3 CALLDATALOAD PUSH2 0xFC1 DUP2 PUSH2 0xF8E JUMP JUMPDEST SWAP5 PUSH1 0x20 SWAP4 SWAP1 SWAP4 ADD CALLDATALOAD SWAP4 POP POP POP JUMP JUMPDEST PUSH0 PUSH1 0x20 DUP3 DUP5 SUB SLT ISZERO PUSH2 0xFDF JUMPI PUSH0 DUP1 REVERT JUMPDEST DUP2 CALLDATALOAD PUSH2 0xFEA DUP2 PUSH2 0xF8E JUMP JUMPDEST SWAP4 SWAP3 POP POP POP JUMP JUMPDEST PUSH2 0x120 DUP2 MSTORE PUSH0 PUSH2 0x1005 PUSH2 0x120 DUP4 ADD DUP13 PUSH2 0xE2F JUMP JUMPDEST DUP3 DUP2 SUB PUSH1 0x20 DUP5 ADD MSTORE PUSH2 0x1017 DUP2 DUP13 PUSH2 0xE2F JUMP JUMPDEST SWAP1 POP DUP3 DUP2 SUB PUSH1 0x40 DUP5 ADD MSTORE PUSH2 0x102B DUP2 DUP12 PUSH2 0xE2F JUMP JUMPDEST PUSH1 0x60 DUP5 ADD SWAP10 SWAP1 SWAP10 MSTORE POP POP PUSH2 0xFFFF SWAP6 DUP7 AND PUSH1 0x80 DUP3 ADD MSTORE PUSH1 0xFF SWAP5 SWAP1 SWAP5 AND PUSH1 0xA0 DUP6 ADD MSTORE PUSH1 0xC0 DUP5 ADD SWAP3 SWAP1 SWAP3 MSTORE DUP4 AND PUSH1 0xE0 DUP4 ADD MSTORE SWAP1 SWAP2 AND PUSH2 0x100 SWAP1 SWAP2 ADD MSTORE SWAP4 SWAP3 POP POP POP JUMP JUMPDEST PUSH1 0x1 DUP2 DUP2 SHR SWAP1 DUP3 AND DUP1 PUSH2 0x107F JUMPI PUSH1 0x7F DUP3 AND SWAP2 POP JUMPDEST PUSH1 0x20 DUP3 LT DUP2 SUB PUSH2 0x109D JUMPI PUSH4 0x4E487B71 PUSH1 0xE0 SHL PUSH0 MSTORE PUSH1 0x22 PUSH1 0x4 MSTORE PUSH1 0x24 PUSH0 REVERT JUMPDEST POP SWAP2 SWAP1 POP JUMP JUMPDEST PUSH4 0x4E487B71 PUSH1 0xE0 SHL PUSH0 MSTORE PUSH1 0x32 PUSH1 0x4 MSTORE PUSH1 0x24 PUSH0 REVERT JUMPDEST PUSH4 0x4E487B71 PUSH1 0xE0 SHL PUSH0 MSTORE PUSH1 0x11 PUSH1 0x4 MSTORE PUSH1 0x24 PUSH0 REVERT JUMPDEST PUSH0 PUSH1 0xFF DUP3 AND PUSH1 0xFF DUP2 SUB PUSH2 0x10E0 JUMPI PUSH2 0x10E0 PUSH2 0x10B7 JUMP JUMPDEST PUSH1 0x1 ADD SWAP3 SWAP2 POP POP JUMP JUMPDEST PUSH4 0x4E487B71 PUSH1 0xE0 SHL PUSH0 MSTORE PUSH1 0x41 PUSH1 0x4 MSTORE PUSH1 0x24 PUSH0 REVERT JUMPDEST PUSH1 0x1F DUP3 GT ISZERO PUSH2 0xE13 JUMPI DUP1 PUSH0 MSTORE PUSH1 0x20 PUSH0 KECCAK256 PUSH1 0x1F DUP5 ADD PUSH1 0x5 SHR DUP2 ADD PUSH1 0x20 DUP6 LT ISZERO PUSH2 0x1122 JUMPI POP DUP1 JUMPDEST PUSH1 0x1F DUP5 ADD PUSH1 0x5 SHR DUP3 ADD SWAP2 POP JUMPDEST DUP2 DUP2 LT ISZERO PUSH2 0x1141 JUMPI PUSH0 DUP2 SSTORE PUSH1 0x1 ADD PUSH2 0x112E JUMP JUMPDEST POP POP POP POP POP JUMP JUMPDEST PUSH8 0xFFFFFFFFFFFFFFFF DUP4 GT ISZERO PUSH2 0x1160 JUMPI PUSH2 0x1160 PUSH2 0x10E9 JUMP JUMPDEST PUSH2 0x1174 DUP4 PUSH2 0x116E DUP4 SLOAD PUSH2 0x106B JUMP JUMPDEST DUP4 PUSH2 0x10FD JUMP JUMPDEST PUSH0 PUSH1 0x1F DUP5 GT PUSH1 0x1 DUP2 EQ PUSH2 0x11A5 JUMPI PUSH0 DUP6 ISZERO PUSH2 0x118E JUMPI POP DUP4 DUP3 ADD CALLDATALOAD JUMPDEST PUSH0 NOT PUSH1 0x3 DUP8 SWAP1 SHL SHR NOT AND PUSH1 0x1 DUP7 SWAP1 SHL OR DUP4 SSTORE PUSH2 0x1141 JUMP JUMPDEST PUSH0 DUP4 DUP2 MSTORE PUSH1 0x20 DUP2 KECCAK256 PUSH1 0x1F NOT DUP8 AND SWAP2 JUMPDEST DUP3 DUP2 LT ISZERO PUSH2 0x11D4 JUMPI DUP7 DUP6 ADD CALLDATALOAD DUP3 SSTORE PUSH1 0x20 SWAP5 DUP6 ADD SWAP5 PUSH1 0x1 SWAP1 SWAP3 ADD SWAP2 ADD PUSH2 0x11B4 JUMP JUMPDEST POP DUP7 DUP3 LT ISZERO PUSH2 0x11F0 JUMPI PUSH0 NOT PUSH1 0xF8 DUP9 PUSH1 0x3 SHL AND SHR NOT DUP5 DUP8 ADD CALLDATALOAD AND DUP2 SSTORE JUMPDEST POP POP PUSH1 0x1 DUP6 PUSH1 0x1 SHL ADD DUP4 SSTORE POP POP POP POP POP JUMP JUMPDEST PUSH0 DUP3 CALLDATALOAD PUSH1 0x5E NOT DUP4 CALLDATASIZE SUB ADD DUP2 SLT PUSH2 0x1216 JUMPI PUSH0 DUP1 REVERT JUMPDEST SWAP2 SWAP1 SWAP2 ADD SWAP3 SWAP2 POP POP JUMP JUMPDEST DUP2 CALLDATALOAD DUP2 SSTORE PUSH1 0x1 DUP2 ADD PUSH1 0x20 DUP4 ADD CALLDATALOAD PUSH2 0x1236 DUP2 PUSH2 0xF8E JUMP JUMPDEST DUP2 SLOAD PUSH1 0x1 PUSH1 0x1 PUSH1 0xA0 SHL SUB NOT AND PUSH1 0x1 PUSH1 0x1 PUSH1 0xA0 SHL SUB SWAP2 SWAP1 SWAP2 AND OR SWAP1 SSTORE PUSH1 0x40 DUP3 ADD CALLDATALOAD CALLDATASIZE DUP4 SWAP1 SUB PUSH1 0x1E NOT ADD DUP2 SLT PUSH2 0x1268 JUMPI PUSH0 DUP1 REVERT JUMPDEST DUP3 ADD DUP1 CALLDATALOAD PUSH8 0xFFFFFFFFFFFFFFFF DUP2 GT ISZERO PUSH2 0x1280 JUMPI PUSH0 DUP1 REVERT JUMPDEST PUSH1 0x20 DUP3 ADD SWAP2 POP DUP1 CALLDATASIZE SUB DUP3 SGT ISZERO PUSH2 0x1294 JUMPI PUSH0 DUP1 REVERT JUMPDEST PUSH1 0x2 DUP4 ADD PUSH8 0xFFFFFFFFFFFFFFFF DUP3 GT ISZERO PUSH2 0x12B0 JUMPI PUSH2 0x12B0 PUSH2 0x10E9 JUMP JUMPDEST PUSH2 0x12BE DUP3 PUSH2 0x116E DUP4 SLOAD PUSH2 0x106B JUMP JUMPDEST PUSH0 PUSH1 0x1F DUP4 GT PUSH1 0x1 DUP2 EQ PUSH2 0x12EF JUMPI PUSH0 DUP5 ISZERO PUSH2 0x12D8 JUMPI POP DUP5 DUP3 ADD CALLDATALOAD JUMPDEST PUSH0 NOT PUSH1 0x3 DUP7 SWAP1 SHL SHR NOT AND PUSH1 0x1 DUP6 SWAP1 SHL OR DUP4 SSTORE PUSH2 0x1346 JUMP JUMPDEST PUSH0 DUP4 DUP2 MSTORE PUSH1 0x20 DUP2 KECCAK256 PUSH1 0x1F NOT DUP7 AND SWAP2 JUMPDEST DUP3 DUP2 LT ISZERO PUSH2 0x131E JUMPI DUP8 DUP6 ADD CALLDATALOAD DUP3 SSTORE PUSH1 0x20 SWAP5 DUP6 ADD SWAP5 PUSH1 0x1 SWAP1 SWAP3 ADD SWAP2 ADD PUSH2 0x12FE JUMP JUMPDEST POP DUP6 DUP3 LT ISZERO PUSH2 0x133A JUMPI PUSH0 NOT PUSH1 0xF8 DUP8 PUSH1 0x3 SHL AND SHR NOT DUP5 DUP9 ADD CALLDATALOAD AND DUP2 SSTORE JUMPDEST POP POP PUSH1 0x1 DUP5 PUSH1 0x1 SHL ADD DUP4 SSTORE JUMPDEST POP POP POP POP POP POP POP JUMP JUMPDEST PUSH1 0x20 DUP2 MSTORE DUP2 PUSH1 0x20 DUP3 ADD MSTORE DUP2 DUP4 PUSH1 0x40 DUP4 ADD CALLDATACOPY PUSH0 DUP2 DUP4 ADD PUSH1 0x40 SWAP1 DUP2 ADD SWAP2 SWAP1 SWAP2 MSTORE PUSH1 0x1F SWAP1 SWAP3 ADD PUSH1 0x1F NOT AND ADD ADD SWAP2 SWAP1 POP JUMP JUMPDEST PUSH1 0xFF DUP2 DUP2 AND DUP4 DUP3 AND MUL SWAP1 DUP2 AND SWAP1 DUP2 DUP2 EQ PUSH2 0x1399 JUMPI PUSH2 0x1399 PUSH2 0x10B7 JUMP JUMPDEST POP SWAP3 SWAP2 POP POP JUMP JUMPDEST DUP1 DUP3 ADD DUP1 DUP3 GT ISZERO PUSH2 0x13B3 JUMPI PUSH2 0x13B3 PUSH2 0x10B7 JUMP JUMPDEST SWAP3 SWAP2 POP POP JUMP JUMPDEST DUP2 DUP2 SUB DUP2 DUP2 GT ISZERO PUSH2 0x13B3 JUMPI PUSH2 0x13B3 PUSH2 0x10B7 JUMP INVALID LOG2 PUSH5 0x6970667358 0x22 SLT KECCAK256 PUSH15 0x5C2210A828C6C0EEFD53F5AACA4C1A ADDMOD EXTCODEHASH BALANCE 0xCE 0xD7 CODECOPY 0xBA 0xE5 LOG4 0x21 MOD 0x2E CODESIZE DUP1 PUSH31 0xB364736F6C634300081A003300000000000000000000000000000000000000 "
		},
		"gasEstimates": {
			"creation": {
				"codeDepositCost": "1024400",
				"executionCost": "1065",
				"totalCost": "1025465"
			},
			"external": {
				"CAMPAIGN_DURATION()": "262",
				"N_MEMBERS()": "269",
				"RANDOM_VOTERS()": "248",
				"RegistrationEnd()": "2382",
				"SUPER_MAJORITY()": "226",
				"addedVoterCount()": "2402",
				"candidateInfo(address)": "infinite",
				"candidateList(uint256)": "4700",
				"electionEnd()": "2316",
				"getCurrentPhase()": "infinite",
				"memberVoted(address,uint256)": "2682",
				"proposals(uint256)": "infinite",
				"proposeProposal(string,(uint256,address,string)[])": "infinite",
				"referendumEnd()": "2339",
				"voteForProposal(uint256)": "infinite",
				"withdrawProposal(uint256)": "60664"
			},
			"internal": {
				"_executeProposal(uint256)": "infinite"
			}
		},
		"methodIdentifiers": {
			"CAMPAIGN_DURATION()": "08fd4cfa",
			"N_MEMBERS()": "e292bf16",
			"RANDOM_VOTERS()": "3def77b7",
			"RegistrationEnd()": "be07f0f8",
			"SUPER_MAJORITY()": "b85c2292",
			"addedVoterCount()": "1b408934",
			"candidateInfo(address)": "e965b7c9",
			"candidateList(uint256)": "b13c744b",
			"electionEnd()": "ce7ea161",
			"getCurrentPhase()": "a3a40ea5",
			"memberVoted(address,uint256)": "bbb8279d",
			"proposals(uint256)": "013cf08b",
			"proposeProposal(string,(uint256,address,string)[])": "3b497b28",
			"referendumEnd()": "bab752e5",
			"voteForProposal(uint256)": "045c6ce0",
			"withdrawProposal(uint256)": "e1f02ffa"
		}
	},
	"abi": [
		{
			"anonymous": false,
			"inputs": [
				{
					"indexed": true,
					"internalType": "uint256",
					"name": "proposalId",
					"type": "uint256"
				}
			],
			"name": "ProposalPassed",
			"type": "event"
		},
		{
			"anonymous": false,
			"inputs": [
				{
					"indexed": true,
					"internalType": "uint256",
					"name": "proposalId",
					"type": "uint256"
				},
				{
					"indexed": true,
					"internalType": "address",
					"name": "proposer",
					"type": "address"
				},
				{
					"indexed": false,
					"internalType": "string",
					"name": "provisions",
					"type": "string"
				}
			],
			"name": "ProposalProposed",
			"type": "event"
		},
		{
			"anonymous": false,
			"inputs": [
				{
					"indexed": true,
					"internalType": "uint256",
					"name": "proposalId",
					"type": "uint256"
				},
				{
					"indexed": true,
					"internalType": "address",
					"name": "voter",
					"type": "address"
				}
			],
			"name": "ProposalVoted",
			"type": "event"
		},
		{
			"anonymous": false,
			"inputs": [
				{
					"indexed": true,
					"internalType": "uint256",
					"name": "proposalId",
					"type": "uint256"
				}
			],
			"name": "ProposalWithdrawn",
			"type": "event"
		},
		{
			"inputs": [],
			"name": "CAMPAIGN_DURATION",
			"outputs": [
				{
					"internalType": "uint256",
					"name": "",
					"type": "uint256"
				}
			],
			"stateMutability": "view",
			"type": "function"
		},
		{
			"inputs": [],
			"name": "N_MEMBERS",
			"outputs": [
				{
					"internalType": "uint8",
					"name": "",
					"type": "uint8"
				}
			],
			"stateMutability": "view",
			"type": "function"
		},
		{
			"inputs": [],
			"name": "RANDOM_VOTERS",
			"outputs": [
				{
					"internalType": "uint16",
					"name": "",
					"type": "uint16"
				}
			],
			"stateMutability": "view",
			"type": "function"
		},
		{
			"inputs": [],
			"name": "RegistrationEnd",
			"outputs": [
				{
					"internalType": "uint256",
					"name": "",
					"type": "uint256"
				}
			],
			"stateMutability": "view",
			"type": "function"
		},
		{
			"inputs": [],
			"name": "SUPER_MAJORITY",
			"outputs": [
				{
					"internalType": "uint8",
					"name": "",
					"type": "uint8"
				}
			],
			"stateMutability": "view",
			"type": "function"
		},
		{
			"inputs": [],
			"name": "addedVoterCount",
			"outputs": [
				{
					"internalType": "uint16",
					"name": "",
					"type": "uint16"
				}
			],
			"stateMutability": "view",
			"type": "function"
		},
		{
			"inputs": [
				{
					"internalType": "address",
					"name": "",
					"type": "address"
				}
			],
			"name": "candidateInfo",
			"outputs": [
				{
					"internalType": "string",
					"name": "fullName",
					"type": "string"
				},
				{
					"internalType": "string",
					"name": "bio",
					"type": "string"
				},
				{
					"internalType": "string",
					"name": "website",
					"type": "string"
				},
				{
					"internalType": "uint256",
					"name": "registeredAt",
					"type": "uint256"
				},
				{
					"internalType": "uint16",
					"name": "voteCount",
					"type": "uint16"
				},
				{
					"internalType": "uint8",
					"name": "memberID",
					"type": "uint8"
				},
				{
					"internalType": "uint256",
					"name": "leaderAt",
					"type": "uint256"
				},
				{
					"internalType": "uint16",
					"name": "activeProposal",
					"type": "uint16"
				},
				{
					"internalType": "uint16",
					"name": "submittedDraft",
					"type": "uint16"
				}
			],
			"stateMutability": "view",
			"type": "function"
		},
		{
			"inputs": [
				{
					"internalType": "uint256",
					"name": "",
					"type": "uint256"
				}
			],
			"name": "candidateList",
			"outputs": [
				{
					"internalType": "address",
					"name": "",
					"type": "address"
				}
			],
			"stateMutability": "view",
			"type": "function"
		},
		{
			"inputs": [],
			"name": "electionEnd",
			"outputs": [
				{
					"internalType": "uint256",
					"name": "",
					"type": "uint256"
				}
			],
			"stateMutability": "view",
			"type": "function"
		},
		{
			"inputs": [],
			"name": "getCurrentPhase",
			"outputs": [
				{
					"internalType": "enum Phase",
					"name": "",
					"type": "uint8"
				}
			],
			"stateMutability": "nonpayable",
			"type": "function"
		},
		{
			"inputs": [
				{
					"internalType": "address",
					"name": "",
					"type": "address"
				},
				{
					"internalType": "uint256",
					"name": "",
					"type": "uint256"
				}
			],
			"name": "memberVoted",
			"outputs": [
				{
					"internalType": "bool",
					"name": "",
					"type": "bool"
				}
			],
			"stateMutability": "view",
			"type": "function"
		},
		{
			"inputs": [
				{
					"internalType": "uint256",
					"name": "",
					"type": "uint256"
				}
			],
			"name": "proposals",
			"outputs": [
				{
					"internalType": "address",
					"name": "proposer",
					"type": "address"
				},
				{
					"internalType": "string",
					"name": "provisions",
					"type": "string"
				},
				{
					"internalType": "uint256",
					"name": "executedAt",
					"type": "uint256"
				},
				{
					"internalType": "bool",
					"name": "withdrawn",
					"type": "bool"
				},
				{
					"internalType": "uint8",
					"name": "yesVotes",
					"type": "uint8"
				}
			],
			"stateMutability": "view",
			"type": "function"
		},
		{
			"inputs": [
				{
					"internalType": "string",
					"name": "_provisions",
					"type": "string"
				},
				{
					"components": [
						{
							"internalType": "uint256",
							"name": "amount",
							"type": "uint256"
						},
						{
							"internalType": "address",
							"name": "recipient",
							"type": "address"
						},
						{
							"internalType": "string",
							"name": "reason",
							"type": "string"
						}
					],
					"internalType": "struct Payment[]",
					"name": "_payments",
					"type": "tuple[]"
				}
			],
			"name": "proposeProposal",
			"outputs": [
				{
					"internalType": "uint256",
					"name": "",
					"type": "uint256"
				}
			],
			"stateMutability": "nonpayable",
			"type": "function"
		},
		{
			"inputs": [],
			"name": "referendumEnd",
			"outputs": [
				{
					"internalType": "uint256",
					"name": "",
					"type": "uint256"
				}
			],
			"stateMutability": "view",
			"type": "function"
		},
		{
			"inputs": [
				{
					"internalType": "uint256",
					"name": "proposalId",
					"type": "uint256"
				}
			],
			"name": "voteForProposal",
			"outputs": [
				{
					"internalType": "uint8",
					"name": "",
					"type": "uint8"
				}
			],
			"stateMutability": "nonpayable",
			"type": "function"
		},
		{
			"inputs": [
				{
					"internalType": "uint256",
					"name": "proposalId",
					"type": "uint256"
				}
			],
			"name": "withdrawProposal",
			"outputs": [],
			"stateMutability": "nonpayable",
			"type": "function"
		}
	]
}