{
	"data": {
		"bytecode": {
			"linkReferences": {},
			"object": "60a0604052348015600e575f80fd5b506080516117686100275f395f61022d01526117685ff3fe608060405234801561000f575f80fd5b506004361061011c575f3560e01c8063a3a40ea5116100a9578063bc903cb81161006e578063bc903cb8146102a7578063ce7ea161146102c7578063e1f02ffa146102cf578063e292bf16146102e4578063e965b7c9146102ec575f80fd5b8063a3a40ea51461024f578063ac0af94414610264578063b0feb26014610283578063b13c744b1461028c578063b85c22921461029f575f80fd5b80633b497b28116100ef5780633b497b28146101d75780633def77b7146101ea57806347f7b722146101f35780634d0c8726146101fd57806378e9792514610228575f80fd5b8063013cf08b14610120578063045c6ce01461014e5780631b408934146101735780632190bee81461019f575b5f80fd5b61013361012e366004611074565b610312565b604051610145969594939291906110b9565b60405180910390f35b61016161015c366004611074565b6103ec565b60405160ff9091168152602001610145565b60015461018a90600160a01b900463ffffffff1681565b60405163ffffffff9091168152602001610145565b6101c96101ad36600461111b565b600760209081525f928352604080842090915290825290205481565b604051908152602001610145565b6101c96101e5366004611145565b61062b565b61018a6104b081565b6101c96212750081565b600154610210906001600160a01b031681565b6040516001600160a01b039091168152602001610145565b6101c97f000000000000000000000000000000000000000000000000000000000000000081565b61025761085a565b604051610145919061120d565b6101c9610272366004611233565b60066020525f908152604090205481565b6101c960055481565b61021061029a366004611074565b6108fb565b610161601e81565b6102ba6102b5366004611074565b610923565b6040516101459190611255565b6101c95f5481565b6102e26102dd366004611074565b610baa565b005b610161603281565b6102ff6102fa366004611233565b610d30565b6040516101459796959493929190611345565b60048181548110610321575f80fd5b5f918252602090912060079091020180546001820180546001600160a01b0390921693509061034f906113a4565b80601f016020809104026020016040519081016040528092919081815260200182805461037b906113a4565b80156103c65780601f1061039d576101008083540402835291602001916103c6565b820191905f5260205f20905b8154815290600101906020018083116103a957829003601f168201915b505050506002830154600384015460048501546005909501549394919390925060ff1686565b335f9081526003602052604081206005015460ff1661044a5760405162461bcd60e51b81526020600482015260156024820152744f6e6c79206d656d626572732063616e20766f746560581b60448201526064015b60405180910390fd5b600454821061046b5760405162461bcd60e51b8152600401610441906113dc565b5f6004838154811061047f5761047f611409565b905f5260205f209060070201905080600401545f146104d55760405162461bcd60e51b8152602060048201526012602482015271283937b837b9b0b6103bb4ba34323930bbb760711b6044820152606401610441565b335f9081526007602090815260408083208684529091529020541561052c5760405162461bcd60e51b815260206004820152600d60248201526c105b1c9958591e481d9bdd1959609a1b6044820152606401610441565b335f908152600760209081526040808320868452909152812042905560058201805460ff169161055b83611431565b91906101000a81548160ff021916908360ff16021790555050336001600160a01b0316837f34647120636ce03d739347e28e9d1bdd34fd03d066ae60439fb1be2721ad16cd60405160405180910390a36005810154601e60ff909116108015906105c757506003810154155b1561061e5760405183907fe36f8b7448daff4a52e2945db0d1d7a436279cc1d527a45c27835dcbd27f336d905f90a242600382015580546001600160a01b03165f9081526006602052604081205561061e83610f02565b6005015460ff1692915050565b335f9081526003602052604081206005015460ff166106975760405162461bcd60e51b815260206004820152602260248201527f4f6e6c79206d656d626572732063616e2070726f706f73652070726f706f73616044820152616c7360f01b6064820152608401610441565b836106da5760405162461bcd60e51b8152602060048201526013602482015272141c9bdd9a5cda5bdb9cc81c995c5d5a5c9959606a1b6044820152606401610441565b335f90815260066020526040902054156107445760405162461bcd60e51b815260206004820152602560248201527f4d656d62657220616c72656164792068617320616e206163746976652070726f6044820152641c1bdcd85b60da1b6064820152608401610441565b60048054335f90815260066020526040812082905560018201808455838252919290918390811061077757610777611409565b5f918252602090912060079091020180546001600160a01b031916331781559050600181016107a78789836114ae565b504260028201555f5b8481101561080b57816006018686838181106107ce576107ce611409565b90506020028101906107e09190611568565b81546001810183555f92835260209092209091600302016108018282611586565b50506001016107b0565b506004546040513391907f6fb266c3bffbf56760b26ba85968fa3e28f3ed50cea5c9704fb6e260dab31f1c90610844908b908b906116b5565b60405180910390a3505060045495945050505050565b5f620151805f5461086b91906116e3565b42101561087757505f90565b5f544210156108d65761088c603260026116fc565b60ff1660028054905010806108b257506001546104b0600160a01b90910463ffffffff16105b156108d057621275005f546108c7919061171f565b5f908155919050565b50600190565b6005545f036108e55750600290565b6005544210156108f55750600390565b50600490565b6002818154811061090a575f80fd5b5f918252602090912001546001600160a01b0316905081565b61096a6040518060e001604052805f6001600160a01b03168152602001606081526020015f81526020015f81526020015f81526020015f60ff168152602001606081525090565b600454821061098b5760405162461bcd60e51b8152600401610441906113dc565b6004828154811061099e5761099e611409565b5f9182526020918290206040805160e0810190915260079092020180546001600160a01b0316825260018101805492939192918401916109dd906113a4565b80601f0160208091040260200160405190810160405280929190818152602001828054610a09906113a4565b8015610a545780601f10610a2b57610100808354040283529160200191610a54565b820191905f5260205f20905b815481529060010190602001808311610a3757829003601f168201915b50505050508152602001600282015481526020016003820154815260200160048201548152602001600582015f9054906101000a900460ff1660ff1660ff16815260200160068201805480602002602001604051908101604052809291908181526020015f905b82821015610b9c575f84815260209081902060408051606081018252600386029092018054835260018101546001600160a01b03169383019390935260028301805492939291840191610b0d906113a4565b80601f0160208091040260200160405190810160405280929190818152602001828054610b39906113a4565b8015610b845780601f10610b5b57610100808354040283529160200191610b84565b820191905f5260205f20905b815481529060010190602001808311610b6757829003601f168201915b50505050508152505081526020019060010190610abb565b505050915250909392505050565b6004548110610bcb5760405162461bcd60e51b8152600401610441906113dc565b5f60048281548110610bdf57610bdf611409565b5f918252602090912060079091020180549091506001600160a01b03163314610c4a5760405162461bcd60e51b815260206004820152601e60248201527f4f6e6c79207468652070726f706f7365722063616e20776974686472617700006044820152606401610441565b600381015415610c9c5760405162461bcd60e51b815260206004820152601960248201527f50726f706f73616c20616c7265616479206578656375746564000000000000006044820152606401610441565b600481015415610cee5760405162461bcd60e51b815260206004820152601a60248201527f50726f706f73616c20616c72656164792077697468647261776e0000000000006044820152606401610441565b426004820155335f908152600660205260408082208290555183917f5ca6c0bba519c857c8713fba9f5f1b582abe00c95dcccedccea41ad683bad26d91a25050565b60036020525f9081526040902080548190610d4a906113a4565b80601f0160208091040260200160405190810160405280929190818152602001828054610d76906113a4565b8015610dc15780601f10610d9857610100808354040283529160200191610dc1565b820191905f5260205f20905b815481529060010190602001808311610da457829003601f168201915b505050505090806001018054610dd6906113a4565b80601f0160208091040260200160405190810160405280929190818152602001828054610e02906113a4565b8015610e4d5780601f10610e2457610100808354040283529160200191610e4d565b820191905f5260205f20905b815481529060010190602001808311610e3057829003601f168201915b505050505090806002018054610e62906113a4565b80601f0160208091040260200160405190810160405280929190818152602001828054610e8e906113a4565b8015610ed95780601f10610eb057610100808354040283529160200191610ed9565b820191905f5260205f20905b815481529060010190602001808311610ebc57829003601f168201915b5050506003840154600485015460058601546006909601549495919490935060ff909116915087565b5f60048281548110610f1657610f16611409565b905f5260205f20906007020190505f5b600682015481101561106f575f826006018281548110610f4857610f48611409565b905f5260205f2090600302016040518060600160405290815f8201548152602001600182015f9054906101000a90046001600160a01b03166001600160a01b03166001600160a01b03168152602001600282018054610fa6906113a4565b80601f0160208091040260200160405190810160405280929190818152602001828054610fd2906113a4565b801561101d5780601f10610ff45761010080835404028352916020019161101d565b820191905f5260205f20905b81548152906001019060200180831161100057829003601f168201915b505050505081525050905080602001516001600160a01b03166108fc825f015190811502906040515f60405180830381858888f19350505050158015611065573d5f803e3d5ffd5b5050600101610f26565b505050565b5f60208284031215611084575f80fd5b5035919050565b5f81518084528060208401602086015e5f602082860101526020601f19601f83011685010191505092915050565b6001600160a01b038716815260c0602082018190525f906110dc9083018861108b565b905085604083015284606083015283608083015260ff831660a0830152979650505050505050565b6001600160a01b0381168114611118575f80fd5b50565b5f806040838503121561112c575f80fd5b823561113781611104565b946020939093013593505050565b5f805f8060408587031215611158575f80fd5b843567ffffffffffffffff81111561116e575f80fd5b8501601f8101871361117e575f80fd5b803567ffffffffffffffff811115611194575f80fd5b8760208284010111156111a5575f80fd5b60209182019550935085013567ffffffffffffffff8111156111c5575f80fd5b8501601f810187136111d5575f80fd5b803567ffffffffffffffff8111156111eb575f80fd5b8760208260051b84010111156111ff575f80fd5b949793965060200194505050565b602081016005831061122d57634e487b7160e01b5f52602160045260245ffd5b91905290565b5f60208284031215611243575f80fd5b813561124e81611104565b9392505050565b602080825282516001600160a01b03168282015282015160e060408301525f9061128361010084018261108b565b90506040840151606084015260608401516080840152608084015160a084015260ff60a08501511660c084015260c0840151601f198483030160e085015281815180845260208401915060208160051b8501016020840193505f5b8281101561133957858203601f190184528451805183526020808201516001600160a01b0316908401526040908101516060918401829052906113239084018261108b565b60209687019695909501949250506001016112de565b50979650505050505050565b60e081525f61135760e083018a61108b565b8281036020840152611369818a61108b565b9050828103604084015261137d818961108b565b60608401979097525050608081019390935290151560a083015260c0909101529392505050565b600181811c908216806113b857607f821691505b6020821081036113d657634e487b7160e01b5f52602260045260245ffd5b50919050565b602080825260139082015272125b9d985b1a59081c1c9bdc1bdcd85b081251606a1b604082015260600190565b634e487b7160e01b5f52603260045260245ffd5b634e487b7160e01b5f52601160045260245ffd5b5f60ff821660ff81036114465761144661141d565b60010192915050565b634e487b7160e01b5f52604160045260245ffd5b601f82111561106f57805f5260205f20601f840160051c810160208510156114885750805b601f840160051c820191505b818110156114a7575f8155600101611494565b5050505050565b67ffffffffffffffff8311156114c6576114c661144f565b6114da836114d483546113a4565b83611463565b5f601f84116001811461150b575f85156114f45750838201355b5f19600387901b1c1916600186901b1783556114a7565b5f83815260208120601f198716915b8281101561153a578685013582556020948501946001909201910161151a565b5086821015611556575f1960f88860031b161c19848701351681555b505060018560011b0183555050505050565b5f8235605e1983360301811261157c575f80fd5b9190910192915050565b8135815560018101602083013561159c81611104565b81546001600160a01b0319166001600160a01b0391909116179055604082013536839003601e190181126115ce575f80fd5b8201803567ffffffffffffffff8111156115e6575f80fd5b6020820191508036038213156115fa575f80fd5b6002830167ffffffffffffffff8211156116165761161661144f565b611624826114d483546113a4565b5f601f831160018114611655575f841561163e5750848201355b5f19600386901b1c1916600185901b1783556116ac565b5f83815260208120601f198616915b828110156116845787850135825560209485019460019092019101611664565b50858210156116a0575f1960f88760031b161c19848801351681555b505060018460011b0183555b50505050505050565b60208152816020820152818360408301375f818301604090810191909152601f909201601f19160101919050565b818103818111156116f6576116f661141d565b92915050565b60ff81811683821602908116908181146117185761171861141d565b5092915050565b808201808211156116f6576116f661141d56fea26469706673582212204298a0764ded86cda1a2e4740a4002e6994c96eb850934bf73fad8834c2082a664736f6c634300081a0033",
			"opcodes": "PUSH1 0xA0 PUSH1 0x40 MSTORE CALLVALUE DUP1 ISZERO PUSH1 0xE JUMPI PUSH0 DUP1 REVERT JUMPDEST POP PUSH1 0x80 MLOAD PUSH2 0x1768 PUSH2 0x27 PUSH0 CODECOPY PUSH0 PUSH2 0x22D ADD MSTORE PUSH2 0x1768 PUSH0 RETURN INVALID PUSH1 0x80 PUSH1 0x40 MSTORE CALLVALUE DUP1 ISZERO PUSH2 0xF JUMPI PUSH0 DUP1 REVERT JUMPDEST POP PUSH1 0x4 CALLDATASIZE LT PUSH2 0x11C JUMPI PUSH0 CALLDATALOAD PUSH1 0xE0 SHR DUP1 PUSH4 0xA3A40EA5 GT PUSH2 0xA9 JUMPI DUP1 PUSH4 0xBC903CB8 GT PUSH2 0x6E JUMPI DUP1 PUSH4 0xBC903CB8 EQ PUSH2 0x2A7 JUMPI DUP1 PUSH4 0xCE7EA161 EQ PUSH2 0x2C7 JUMPI DUP1 PUSH4 0xE1F02FFA EQ PUSH2 0x2CF JUMPI DUP1 PUSH4 0xE292BF16 EQ PUSH2 0x2E4 JUMPI DUP1 PUSH4 0xE965B7C9 EQ PUSH2 0x2EC JUMPI PUSH0 DUP1 REVERT JUMPDEST DUP1 PUSH4 0xA3A40EA5 EQ PUSH2 0x24F JUMPI DUP1 PUSH4 0xAC0AF944 EQ PUSH2 0x264 JUMPI DUP1 PUSH4 0xB0FEB260 EQ PUSH2 0x283 JUMPI DUP1 PUSH4 0xB13C744B EQ PUSH2 0x28C JUMPI DUP1 PUSH4 0xB85C2292 EQ PUSH2 0x29F JUMPI PUSH0 DUP1 REVERT JUMPDEST DUP1 PUSH4 0x3B497B28 GT PUSH2 0xEF JUMPI DUP1 PUSH4 0x3B497B28 EQ PUSH2 0x1D7 JUMPI DUP1 PUSH4 0x3DEF77B7 EQ PUSH2 0x1EA JUMPI DUP1 PUSH4 0x47F7B722 EQ PUSH2 0x1F3 JUMPI DUP1 PUSH4 0x4D0C8726 EQ PUSH2 0x1FD JUMPI DUP1 PUSH4 0x78E97925 EQ PUSH2 0x228 JUMPI PUSH0 DUP1 REVERT JUMPDEST DUP1 PUSH4 0x13CF08B EQ PUSH2 0x120 JUMPI DUP1 PUSH4 0x45C6CE0 EQ PUSH2 0x14E JUMPI DUP1 PUSH4 0x1B408934 EQ PUSH2 0x173 JUMPI DUP1 PUSH4 0x2190BEE8 EQ PUSH2 0x19F JUMPI JUMPDEST PUSH0 DUP1 REVERT JUMPDEST PUSH2 0x133 PUSH2 0x12E CALLDATASIZE PUSH1 0x4 PUSH2 0x1074 JUMP JUMPDEST PUSH2 0x312 JUMP JUMPDEST PUSH1 0x40 MLOAD PUSH2 0x145 SWAP7 SWAP6 SWAP5 SWAP4 SWAP3 SWAP2 SWAP1 PUSH2 0x10B9 JUMP JUMPDEST PUSH1 0x40 MLOAD DUP1 SWAP2 SUB SWAP1 RETURN JUMPDEST PUSH2 0x161 PUSH2 0x15C CALLDATASIZE PUSH1 0x4 PUSH2 0x1074 JUMP JUMPDEST PUSH2 0x3EC JUMP JUMPDEST PUSH1 0x40 MLOAD PUSH1 0xFF SWAP1 SWAP2 AND DUP2 MSTORE PUSH1 0x20 ADD PUSH2 0x145 JUMP JUMPDEST PUSH1 0x1 SLOAD PUSH2 0x18A SWAP1 PUSH1 0x1 PUSH1 0xA0 SHL SWAP1 DIV PUSH4 0xFFFFFFFF AND DUP2 JUMP JUMPDEST PUSH1 0x40 MLOAD PUSH4 0xFFFFFFFF SWAP1 SWAP2 AND DUP2 MSTORE PUSH1 0x20 ADD PUSH2 0x145 JUMP JUMPDEST PUSH2 0x1C9 PUSH2 0x1AD CALLDATASIZE PUSH1 0x4 PUSH2 0x111B JUMP JUMPDEST PUSH1 0x7 PUSH1 0x20 SWAP1 DUP2 MSTORE PUSH0 SWAP3 DUP4 MSTORE PUSH1 0x40 DUP1 DUP5 KECCAK256 SWAP1 SWAP2 MSTORE SWAP1 DUP3 MSTORE SWAP1 KECCAK256 SLOAD DUP2 JUMP JUMPDEST PUSH1 0x40 MLOAD SWAP1 DUP2 MSTORE PUSH1 0x20 ADD PUSH2 0x145 JUMP JUMPDEST PUSH2 0x1C9 PUSH2 0x1E5 CALLDATASIZE PUSH1 0x4 PUSH2 0x1145 JUMP JUMPDEST PUSH2 0x62B JUMP JUMPDEST PUSH2 0x18A PUSH2 0x4B0 DUP2 JUMP JUMPDEST PUSH2 0x1C9 PUSH3 0x127500 DUP2 JUMP JUMPDEST PUSH1 0x1 SLOAD PUSH2 0x210 SWAP1 PUSH1 0x1 PUSH1 0x1 PUSH1 0xA0 SHL SUB AND DUP2 JUMP JUMPDEST PUSH1 0x40 MLOAD PUSH1 0x1 PUSH1 0x1 PUSH1 0xA0 SHL SUB SWAP1 SWAP2 AND DUP2 MSTORE PUSH1 0x20 ADD PUSH2 0x145 JUMP JUMPDEST PUSH2 0x1C9 PUSH32 0x0 DUP2 JUMP JUMPDEST PUSH2 0x257 PUSH2 0x85A JUMP JUMPDEST PUSH1 0x40 MLOAD PUSH2 0x145 SWAP2 SWAP1 PUSH2 0x120D JUMP JUMPDEST PUSH2 0x1C9 PUSH2 0x272 CALLDATASIZE PUSH1 0x4 PUSH2 0x1233 JUMP JUMPDEST PUSH1 0x6 PUSH1 0x20 MSTORE PUSH0 SWAP1 DUP2 MSTORE PUSH1 0x40 SWAP1 KECCAK256 SLOAD DUP2 JUMP JUMPDEST PUSH2 0x1C9 PUSH1 0x5 SLOAD DUP2 JUMP JUMPDEST PUSH2 0x210 PUSH2 0x29A CALLDATASIZE PUSH1 0x4 PUSH2 0x1074 JUMP JUMPDEST PUSH2 0x8FB JUMP JUMPDEST PUSH2 0x161 PUSH1 0x1E DUP2 JUMP JUMPDEST PUSH2 0x2BA PUSH2 0x2B5 CALLDATASIZE PUSH1 0x4 PUSH2 0x1074 JUMP JUMPDEST PUSH2 0x923 JUMP JUMPDEST PUSH1 0x40 MLOAD PUSH2 0x145 SWAP2 SWAP1 PUSH2 0x1255 JUMP JUMPDEST PUSH2 0x1C9 PUSH0 SLOAD DUP2 JUMP JUMPDEST PUSH2 0x2E2 PUSH2 0x2DD CALLDATASIZE PUSH1 0x4 PUSH2 0x1074 JUMP JUMPDEST PUSH2 0xBAA JUMP JUMPDEST STOP JUMPDEST PUSH2 0x161 PUSH1 0x32 DUP2 JUMP JUMPDEST PUSH2 0x2FF PUSH2 0x2FA CALLDATASIZE PUSH1 0x4 PUSH2 0x1233 JUMP JUMPDEST PUSH2 0xD30 JUMP JUMPDEST PUSH1 0x40 MLOAD PUSH2 0x145 SWAP8 SWAP7 SWAP6 SWAP5 SWAP4 SWAP3 SWAP2 SWAP1 PUSH2 0x1345 JUMP JUMPDEST PUSH1 0x4 DUP2 DUP2 SLOAD DUP2 LT PUSH2 0x321 JUMPI PUSH0 DUP1 REVERT JUMPDEST PUSH0 SWAP2 DUP3 MSTORE PUSH1 0x20 SWAP1 SWAP2 KECCAK256 PUSH1 0x7 SWAP1 SWAP2 MUL ADD DUP1 SLOAD PUSH1 0x1 DUP3 ADD DUP1 SLOAD PUSH1 0x1 PUSH1 0x1 PUSH1 0xA0 SHL SUB SWAP1 SWAP3 AND SWAP4 POP SWAP1 PUSH2 0x34F SWAP1 PUSH2 0x13A4 JUMP JUMPDEST DUP1 PUSH1 0x1F ADD PUSH1 0x20 DUP1 SWAP2 DIV MUL PUSH1 0x20 ADD PUSH1 0x40 MLOAD SWAP1 DUP2 ADD PUSH1 0x40 MSTORE DUP1 SWAP3 SWAP2 SWAP1 DUP2 DUP2 MSTORE PUSH1 0x20 ADD DUP3 DUP1 SLOAD PUSH2 0x37B SWAP1 PUSH2 0x13A4 JUMP JUMPDEST DUP1 ISZERO PUSH2 0x3C6 JUMPI DUP1 PUSH1 0x1F LT PUSH2 0x39D JUMPI PUSH2 0x100 DUP1 DUP4 SLOAD DIV MUL DUP4 MSTORE SWAP2 PUSH1 0x20 ADD SWAP2 PUSH2 0x3C6 JUMP JUMPDEST DUP3 ADD SWAP2 SWAP1 PUSH0 MSTORE PUSH1 0x20 PUSH0 KECCAK256 SWAP1 JUMPDEST DUP2 SLOAD DUP2 MSTORE SWAP1 PUSH1 0x1 ADD SWAP1 PUSH1 0x20 ADD DUP1 DUP4 GT PUSH2 0x3A9 JUMPI DUP3 SWAP1 SUB PUSH1 0x1F AND DUP3 ADD SWAP2 JUMPDEST POP POP POP POP PUSH1 0x2 DUP4 ADD SLOAD PUSH1 0x3 DUP5 ADD SLOAD PUSH1 0x4 DUP6 ADD SLOAD PUSH1 0x5 SWAP1 SWAP6 ADD SLOAD SWAP4 SWAP5 SWAP2 SWAP4 SWAP1 SWAP3 POP PUSH1 0xFF AND DUP7 JUMP JUMPDEST CALLER PUSH0 SWAP1 DUP2 MSTORE PUSH1 0x3 PUSH1 0x20 MSTORE PUSH1 0x40 DUP2 KECCAK256 PUSH1 0x5 ADD SLOAD PUSH1 0xFF AND PUSH2 0x44A JUMPI PUSH1 0x40 MLOAD PUSH3 0x461BCD PUSH1 0xE5 SHL DUP2 MSTORE PUSH1 0x20 PUSH1 0x4 DUP3 ADD MSTORE PUSH1 0x15 PUSH1 0x24 DUP3 ADD MSTORE PUSH21 0x4F6E6C79206D656D626572732063616E20766F7465 PUSH1 0x58 SHL PUSH1 0x44 DUP3 ADD MSTORE PUSH1 0x64 ADD JUMPDEST PUSH1 0x40 MLOAD DUP1 SWAP2 SUB SWAP1 REVERT JUMPDEST PUSH1 0x4 SLOAD DUP3 LT PUSH2 0x46B JUMPI PUSH1 0x40 MLOAD PUSH3 0x461BCD PUSH1 0xE5 SHL DUP2 MSTORE PUSH1 0x4 ADD PUSH2 0x441 SWAP1 PUSH2 0x13DC JUMP JUMPDEST PUSH0 PUSH1 0x4 DUP4 DUP2 SLOAD DUP2 LT PUSH2 0x47F JUMPI PUSH2 0x47F PUSH2 0x1409 JUMP JUMPDEST SWAP1 PUSH0 MSTORE PUSH1 0x20 PUSH0 KECCAK256 SWAP1 PUSH1 0x7 MUL ADD SWAP1 POP DUP1 PUSH1 0x4 ADD SLOAD PUSH0 EQ PUSH2 0x4D5 JUMPI PUSH1 0x40 MLOAD PUSH3 0x461BCD PUSH1 0xE5 SHL DUP2 MSTORE PUSH1 0x20 PUSH1 0x4 DUP3 ADD MSTORE PUSH1 0x12 PUSH1 0x24 DUP3 ADD MSTORE PUSH18 0x283937B837B9B0B6103BB4BA34323930BBB7 PUSH1 0x71 SHL PUSH1 0x44 DUP3 ADD MSTORE PUSH1 0x64 ADD PUSH2 0x441 JUMP JUMPDEST CALLER PUSH0 SWAP1 DUP2 MSTORE PUSH1 0x7 PUSH1 0x20 SWAP1 DUP2 MSTORE PUSH1 0x40 DUP1 DUP4 KECCAK256 DUP7 DUP5 MSTORE SWAP1 SWAP2 MSTORE SWAP1 KECCAK256 SLOAD ISZERO PUSH2 0x52C JUMPI PUSH1 0x40 MLOAD PUSH3 0x461BCD PUSH1 0xE5 SHL DUP2 MSTORE PUSH1 0x20 PUSH1 0x4 DUP3 ADD MSTORE PUSH1 0xD PUSH1 0x24 DUP3 ADD MSTORE PUSH13 0x105B1C9958591E481D9BDD1959 PUSH1 0x9A SHL PUSH1 0x44 DUP3 ADD MSTORE PUSH1 0x64 ADD PUSH2 0x441 JUMP JUMPDEST CALLER PUSH0 SWAP1 DUP2 MSTORE PUSH1 0x7 PUSH1 0x20 SWAP1 DUP2 MSTORE PUSH1 0x40 DUP1 DUP4 KECCAK256 DUP7 DUP5 MSTORE SWAP1 SWAP2 MSTORE DUP2 KECCAK256 TIMESTAMP SWAP1 SSTORE PUSH1 0x5 DUP3 ADD DUP1 SLOAD PUSH1 0xFF AND SWAP2 PUSH2 0x55B DUP4 PUSH2 0x1431 JUMP JUMPDEST SWAP2 SWAP1 PUSH2 0x100 EXP DUP2 SLOAD DUP2 PUSH1 0xFF MUL NOT AND SWAP1 DUP4 PUSH1 0xFF AND MUL OR SWAP1 SSTORE POP POP CALLER PUSH1 0x1 PUSH1 0x1 PUSH1 0xA0 SHL SUB AND DUP4 PUSH32 0x34647120636CE03D739347E28E9D1BDD34FD03D066AE60439FB1BE2721AD16CD PUSH1 0x40 MLOAD PUSH1 0x40 MLOAD DUP1 SWAP2 SUB SWAP1 LOG3 PUSH1 0x5 DUP2 ADD SLOAD PUSH1 0x1E PUSH1 0xFF SWAP1 SWAP2 AND LT DUP1 ISZERO SWAP1 PUSH2 0x5C7 JUMPI POP PUSH1 0x3 DUP2 ADD SLOAD ISZERO JUMPDEST ISZERO PUSH2 0x61E JUMPI PUSH1 0x40 MLOAD DUP4 SWAP1 PUSH32 0xE36F8B7448DAFF4A52E2945DB0D1D7A436279CC1D527A45C27835DCBD27F336D SWAP1 PUSH0 SWAP1 LOG2 TIMESTAMP PUSH1 0x3 DUP3 ADD SSTORE DUP1 SLOAD PUSH1 0x1 PUSH1 0x1 PUSH1 0xA0 SHL SUB AND PUSH0 SWAP1 DUP2 MSTORE PUSH1 0x6 PUSH1 0x20 MSTORE PUSH1 0x40 DUP2 KECCAK256 SSTORE PUSH2 0x61E DUP4 PUSH2 0xF02 JUMP JUMPDEST PUSH1 0x5 ADD SLOAD PUSH1 0xFF AND SWAP3 SWAP2 POP POP JUMP JUMPDEST CALLER PUSH0 SWAP1 DUP2 MSTORE PUSH1 0x3 PUSH1 0x20 MSTORE PUSH1 0x40 DUP2 KECCAK256 PUSH1 0x5 ADD SLOAD PUSH1 0xFF AND PUSH2 0x697 JUMPI PUSH1 0x40 MLOAD PUSH3 0x461BCD PUSH1 0xE5 SHL DUP2 MSTORE PUSH1 0x20 PUSH1 0x4 DUP3 ADD MSTORE PUSH1 0x22 PUSH1 0x24 DUP3 ADD MSTORE PUSH32 0x4F6E6C79206D656D626572732063616E2070726F706F73652070726F706F7361 PUSH1 0x44 DUP3 ADD MSTORE PUSH2 0x6C73 PUSH1 0xF0 SHL PUSH1 0x64 DUP3 ADD MSTORE PUSH1 0x84 ADD PUSH2 0x441 JUMP JUMPDEST DUP4 PUSH2 0x6DA JUMPI PUSH1 0x40 MLOAD PUSH3 0x461BCD PUSH1 0xE5 SHL DUP2 MSTORE PUSH1 0x20 PUSH1 0x4 DUP3 ADD MSTORE PUSH1 0x13 PUSH1 0x24 DUP3 ADD MSTORE PUSH19 0x141C9BDD9A5CDA5BDB9CC81C995C5D5A5C9959 PUSH1 0x6A SHL PUSH1 0x44 DUP3 ADD MSTORE PUSH1 0x64 ADD PUSH2 0x441 JUMP JUMPDEST CALLER PUSH0 SWAP1 DUP2 MSTORE PUSH1 0x6 PUSH1 0x20 MSTORE PUSH1 0x40 SWAP1 KECCAK256 SLOAD ISZERO PUSH2 0x744 JUMPI PUSH1 0x40 MLOAD PUSH3 0x461BCD PUSH1 0xE5 SHL DUP2 MSTORE PUSH1 0x20 PUSH1 0x4 DUP3 ADD MSTORE PUSH1 0x25 PUSH1 0x24 DUP3 ADD MSTORE PUSH32 0x4D656D62657220616C72656164792068617320616E206163746976652070726F PUSH1 0x44 DUP3 ADD MSTORE PUSH5 0x1C1BDCD85B PUSH1 0xDA SHL PUSH1 0x64 DUP3 ADD MSTORE PUSH1 0x84 ADD PUSH2 0x441 JUMP JUMPDEST PUSH1 0x4 DUP1 SLOAD CALLER PUSH0 SWAP1 DUP2 MSTORE PUSH1 0x6 PUSH1 0x20 MSTORE PUSH1 0x40 DUP2 KECCAK256 DUP3 SWAP1 SSTORE PUSH1 0x1 DUP3 ADD DUP1 DUP5 SSTORE DUP4 DUP3 MSTORE SWAP2 SWAP3 SWAP1 SWAP2 DUP4 SWAP1 DUP2 LT PUSH2 0x777 JUMPI PUSH2 0x777 PUSH2 0x1409 JUMP JUMPDEST PUSH0 SWAP2 DUP3 MSTORE PUSH1 0x20 SWAP1 SWAP2 KECCAK256 PUSH1 0x7 SWAP1 SWAP2 MUL ADD DUP1 SLOAD PUSH1 0x1 PUSH1 0x1 PUSH1 0xA0 SHL SUB NOT AND CALLER OR DUP2 SSTORE SWAP1 POP PUSH1 0x1 DUP2 ADD PUSH2 0x7A7 DUP8 DUP10 DUP4 PUSH2 0x14AE JUMP JUMPDEST POP TIMESTAMP PUSH1 0x2 DUP3 ADD SSTORE PUSH0 JUMPDEST DUP5 DUP2 LT ISZERO PUSH2 0x80B JUMPI DUP2 PUSH1 0x6 ADD DUP7 DUP7 DUP4 DUP2 DUP2 LT PUSH2 0x7CE JUMPI PUSH2 0x7CE PUSH2 0x1409 JUMP JUMPDEST SWAP1 POP PUSH1 0x20 MUL DUP2 ADD SWAP1 PUSH2 0x7E0 SWAP2 SWAP1 PUSH2 0x1568 JUMP JUMPDEST DUP2 SLOAD PUSH1 0x1 DUP2 ADD DUP4 SSTORE PUSH0 SWAP3 DUP4 MSTORE PUSH1 0x20 SWAP1 SWAP3 KECCAK256 SWAP1 SWAP2 PUSH1 0x3 MUL ADD PUSH2 0x801 DUP3 DUP3 PUSH2 0x1586 JUMP JUMPDEST POP POP PUSH1 0x1 ADD PUSH2 0x7B0 JUMP JUMPDEST POP PUSH1 0x4 SLOAD PUSH1 0x40 MLOAD CALLER SWAP2 SWAP1 PUSH32 0x6FB266C3BFFBF56760B26BA85968FA3E28F3ED50CEA5C9704FB6E260DAB31F1C SWAP1 PUSH2 0x844 SWAP1 DUP12 SWAP1 DUP12 SWAP1 PUSH2 0x16B5 JUMP JUMPDEST PUSH1 0x40 MLOAD DUP1 SWAP2 SUB SWAP1 LOG3 POP POP PUSH1 0x4 SLOAD SWAP6 SWAP5 POP POP POP POP POP JUMP JUMPDEST PUSH0 PUSH3 0x15180 PUSH0 SLOAD PUSH2 0x86B SWAP2 SWAP1 PUSH2 0x16E3 JUMP JUMPDEST TIMESTAMP LT ISZERO PUSH2 0x877 JUMPI POP PUSH0 SWAP1 JUMP JUMPDEST PUSH0 SLOAD TIMESTAMP LT ISZERO PUSH2 0x8D6 JUMPI PUSH2 0x88C PUSH1 0x32 PUSH1 0x2 PUSH2 0x16FC JUMP JUMPDEST PUSH1 0xFF AND PUSH1 0x2 DUP1 SLOAD SWAP1 POP LT DUP1 PUSH2 0x8B2 JUMPI POP PUSH1 0x1 SLOAD PUSH2 0x4B0 PUSH1 0x1 PUSH1 0xA0 SHL SWAP1 SWAP2 DIV PUSH4 0xFFFFFFFF AND LT JUMPDEST ISZERO PUSH2 0x8D0 JUMPI PUSH3 0x127500 PUSH0 SLOAD PUSH2 0x8C7 SWAP2 SWAP1 PUSH2 0x171F JUMP JUMPDEST PUSH0 SWAP1 DUP2 SSTORE SWAP2 SWAP1 POP JUMP JUMPDEST POP PUSH1 0x1 SWAP1 JUMP JUMPDEST PUSH1 0x5 SLOAD PUSH0 SUB PUSH2 0x8E5 JUMPI POP PUSH1 0x2 SWAP1 JUMP JUMPDEST PUSH1 0x5 SLOAD TIMESTAMP LT ISZERO PUSH2 0x8F5 JUMPI POP PUSH1 0x3 SWAP1 JUMP JUMPDEST POP PUSH1 0x4 SWAP1 JUMP JUMPDEST PUSH1 0x2 DUP2 DUP2 SLOAD DUP2 LT PUSH2 0x90A JUMPI PUSH0 DUP1 REVERT JUMPDEST PUSH0 SWAP2 DUP3 MSTORE PUSH1 0x20 SWAP1 SWAP2 KECCAK256 ADD SLOAD PUSH1 0x1 PUSH1 0x1 PUSH1 0xA0 SHL SUB AND SWAP1 POP DUP2 JUMP JUMPDEST PUSH2 0x96A PUSH1 0x40 MLOAD DUP1 PUSH1 0xE0 ADD PUSH1 0x40 MSTORE DUP1 PUSH0 PUSH1 0x1 PUSH1 0x1 PUSH1 0xA0 SHL SUB AND DUP2 MSTORE PUSH1 0x20 ADD PUSH1 0x60 DUP2 MSTORE PUSH1 0x20 ADD PUSH0 DUP2 MSTORE PUSH1 0x20 ADD PUSH0 DUP2 MSTORE PUSH1 0x20 ADD PUSH0 DUP2 MSTORE PUSH1 0x20 ADD PUSH0 PUSH1 0xFF AND DUP2 MSTORE PUSH1 0x20 ADD PUSH1 0x60 DUP2 MSTORE POP SWAP1 JUMP JUMPDEST PUSH1 0x4 SLOAD DUP3 LT PUSH2 0x98B JUMPI PUSH1 0x40 MLOAD PUSH3 0x461BCD PUSH1 0xE5 SHL DUP2 MSTORE PUSH1 0x4 ADD PUSH2 0x441 SWAP1 PUSH2 0x13DC JUMP JUMPDEST PUSH1 0x4 DUP3 DUP2 SLOAD DUP2 LT PUSH2 0x99E JUMPI PUSH2 0x99E PUSH2 0x1409 JUMP JUMPDEST PUSH0 SWAP2 DUP3 MSTORE PUSH1 0x20 SWAP2 DUP3 SWAP1 KECCAK256 PUSH1 0x40 DUP1 MLOAD PUSH1 0xE0 DUP2 ADD SWAP1 SWAP2 MSTORE PUSH1 0x7 SWAP1 SWAP3 MUL ADD DUP1 SLOAD PUSH1 0x1 PUSH1 0x1 PUSH1 0xA0 SHL SUB AND DUP3 MSTORE PUSH1 0x1 DUP2 ADD DUP1 SLOAD SWAP3 SWAP4 SWAP2 SWAP3 SWAP2 DUP5 ADD SWAP2 PUSH2 0x9DD SWAP1 PUSH2 0x13A4 JUMP JUMPDEST DUP1 PUSH1 0x1F ADD PUSH1 0x20 DUP1 SWAP2 DIV MUL PUSH1 0x20 ADD PUSH1 0x40 MLOAD SWAP1 DUP2 ADD PUSH1 0x40 MSTORE DUP1 SWAP3 SWAP2 SWAP1 DUP2 DUP2 MSTORE PUSH1 0x20 ADD DUP3 DUP1 SLOAD PUSH2 0xA09 SWAP1 PUSH2 0x13A4 JUMP JUMPDEST DUP1 ISZERO PUSH2 0xA54 JUMPI DUP1 PUSH1 0x1F LT PUSH2 0xA2B JUMPI PUSH2 0x100 DUP1 DUP4 SLOAD DIV MUL DUP4 MSTORE SWAP2 PUSH1 0x20 ADD SWAP2 PUSH2 0xA54 JUMP JUMPDEST DUP3 ADD SWAP2 SWAP1 PUSH0 MSTORE PUSH1 0x20 PUSH0 KECCAK256 SWAP1 JUMPDEST DUP2 SLOAD DUP2 MSTORE SWAP1 PUSH1 0x1 ADD SWAP1 PUSH1 0x20 ADD DUP1 DUP4 GT PUSH2 0xA37 JUMPI DUP3 SWAP1 SUB PUSH1 0x1F AND DUP3 ADD SWAP2 JUMPDEST POP POP POP POP POP DUP2 MSTORE PUSH1 0x20 ADD PUSH1 0x2 DUP3 ADD SLOAD DUP2 MSTORE PUSH1 0x20 ADD PUSH1 0x3 DUP3 ADD SLOAD DUP2 MSTORE PUSH1 0x20 ADD PUSH1 0x4 DUP3 ADD SLOAD DUP2 MSTORE PUSH1 0x20 ADD PUSH1 0x5 DUP3 ADD PUSH0 SWAP1 SLOAD SWAP1 PUSH2 0x100 EXP SWAP1 DIV PUSH1 0xFF AND PUSH1 0xFF AND PUSH1 0xFF AND DUP2 MSTORE PUSH1 0x20 ADD PUSH1 0x6 DUP3 ADD DUP1 SLOAD DUP1 PUSH1 0x20 MUL PUSH1 0x20 ADD PUSH1 0x40 MLOAD SWAP1 DUP2 ADD PUSH1 0x40 MSTORE DUP1 SWAP3 SWAP2 SWAP1 DUP2 DUP2 MSTORE PUSH1 0x20 ADD PUSH0 SWAP1 JUMPDEST DUP3 DUP3 LT ISZERO PUSH2 0xB9C JUMPI PUSH0 DUP5 DUP2 MSTORE PUSH1 0x20 SWAP1 DUP2 SWAP1 KECCAK256 PUSH1 0x40 DUP1 MLOAD PUSH1 0x60 DUP2 ADD DUP3 MSTORE PUSH1 0x3 DUP7 MUL SWAP1 SWAP3 ADD DUP1 SLOAD DUP4 MSTORE PUSH1 0x1 DUP2 ADD SLOAD PUSH1 0x1 PUSH1 0x1 PUSH1 0xA0 SHL SUB AND SWAP4 DUP4 ADD SWAP4 SWAP1 SWAP4 MSTORE PUSH1 0x2 DUP4 ADD DUP1 SLOAD SWAP3 SWAP4 SWAP3 SWAP2 DUP5 ADD SWAP2 PUSH2 0xB0D SWAP1 PUSH2 0x13A4 JUMP JUMPDEST DUP1 PUSH1 0x1F ADD PUSH1 0x20 DUP1 SWAP2 DIV MUL PUSH1 0x20 ADD PUSH1 0x40 MLOAD SWAP1 DUP2 ADD PUSH1 0x40 MSTORE DUP1 SWAP3 SWAP2 SWAP1 DUP2 DUP2 MSTORE PUSH1 0x20 ADD DUP3 DUP1 SLOAD PUSH2 0xB39 SWAP1 PUSH2 0x13A4 JUMP JUMPDEST DUP1 ISZERO PUSH2 0xB84 JUMPI DUP1 PUSH1 0x1F LT PUSH2 0xB5B JUMPI PUSH2 0x100 DUP1 DUP4 SLOAD DIV MUL DUP4 MSTORE SWAP2 PUSH1 0x20 ADD SWAP2 PUSH2 0xB84 JUMP JUMPDEST DUP3 ADD SWAP2 SWAP1 PUSH0 MSTORE PUSH1 0x20 PUSH0 KECCAK256 SWAP1 JUMPDEST DUP2 SLOAD DUP2 MSTORE SWAP1 PUSH1 0x1 ADD SWAP1 PUSH1 0x20 ADD DUP1 DUP4 GT PUSH2 0xB67 JUMPI DUP3 SWAP1 SUB PUSH1 0x1F AND DUP3 ADD SWAP2 JUMPDEST POP POP POP POP POP DUP2 MSTORE POP POP DUP2 MSTORE PUSH1 0x20 ADD SWAP1 PUSH1 0x1 ADD SWAP1 PUSH2 0xABB JUMP JUMPDEST POP POP POP SWAP2 MSTORE POP SWAP1 SWAP4 SWAP3 POP POP POP JUMP JUMPDEST PUSH1 0x4 SLOAD DUP2 LT PUSH2 0xBCB JUMPI PUSH1 0x40 MLOAD PUSH3 0x461BCD PUSH1 0xE5 SHL DUP2 MSTORE PUSH1 0x4 ADD PUSH2 0x441 SWAP1 PUSH2 0x13DC JUMP JUMPDEST PUSH0 PUSH1 0x4 DUP3 DUP2 SLOAD DUP2 LT PUSH2 0xBDF JUMPI PUSH2 0xBDF PUSH2 0x1409 JUMP JUMPDEST PUSH0 SWAP2 DUP3 MSTORE PUSH1 0x20 SWAP1 SWAP2 KECCAK256 PUSH1 0x7 SWAP1 SWAP2 MUL ADD DUP1 SLOAD SWAP1 SWAP2 POP PUSH1 0x1 PUSH1 0x1 PUSH1 0xA0 SHL SUB AND CALLER EQ PUSH2 0xC4A JUMPI PUSH1 0x40 MLOAD PUSH3 0x461BCD PUSH1 0xE5 SHL DUP2 MSTORE PUSH1 0x20 PUSH1 0x4 DUP3 ADD MSTORE PUSH1 0x1E PUSH1 0x24 DUP3 ADD MSTORE PUSH32 0x4F6E6C79207468652070726F706F7365722063616E2077697468647261770000 PUSH1 0x44 DUP3 ADD MSTORE PUSH1 0x64 ADD PUSH2 0x441 JUMP JUMPDEST PUSH1 0x3 DUP2 ADD SLOAD ISZERO PUSH2 0xC9C JUMPI PUSH1 0x40 MLOAD PUSH3 0x461BCD PUSH1 0xE5 SHL DUP2 MSTORE PUSH1 0x20 PUSH1 0x4 DUP3 ADD MSTORE PUSH1 0x19 PUSH1 0x24 DUP3 ADD MSTORE PUSH32 0x50726F706F73616C20616C726561647920657865637574656400000000000000 PUSH1 0x44 DUP3 ADD MSTORE PUSH1 0x64 ADD PUSH2 0x441 JUMP JUMPDEST PUSH1 0x4 DUP2 ADD SLOAD ISZERO PUSH2 0xCEE JUMPI PUSH1 0x40 MLOAD PUSH3 0x461BCD PUSH1 0xE5 SHL DUP2 MSTORE PUSH1 0x20 PUSH1 0x4 DUP3 ADD MSTORE PUSH1 0x1A PUSH1 0x24 DUP3 ADD MSTORE PUSH32 0x50726F706F73616C20616C72656164792077697468647261776E000000000000 PUSH1 0x44 DUP3 ADD MSTORE PUSH1 0x64 ADD PUSH2 0x441 JUMP JUMPDEST TIMESTAMP PUSH1 0x4 DUP3 ADD SSTORE CALLER PUSH0 SWAP1 DUP2 MSTORE PUSH1 0x6 PUSH1 0x20 MSTORE PUSH1 0x40 DUP1 DUP3 KECCAK256 DUP3 SWAP1 SSTORE MLOAD DUP4 SWAP2 PUSH32 0x5CA6C0BBA519C857C8713FBA9F5F1B582ABE00C95DCCCEDCCEA41AD683BAD26D SWAP2 LOG2 POP POP JUMP JUMPDEST PUSH1 0x3 PUSH1 0x20 MSTORE PUSH0 SWAP1 DUP2 MSTORE PUSH1 0x40 SWAP1 KECCAK256 DUP1 SLOAD DUP2 SWAP1 PUSH2 0xD4A SWAP1 PUSH2 0x13A4 JUMP JUMPDEST DUP1 PUSH1 0x1F ADD PUSH1 0x20 DUP1 SWAP2 DIV MUL PUSH1 0x20 ADD PUSH1 0x40 MLOAD SWAP1 DUP2 ADD PUSH1 0x40 MSTORE DUP1 SWAP3 SWAP2 SWAP1 DUP2 DUP2 MSTORE PUSH1 0x20 ADD DUP3 DUP1 SLOAD PUSH2 0xD76 SWAP1 PUSH2 0x13A4 JUMP JUMPDEST DUP1 ISZERO PUSH2 0xDC1 JUMPI DUP1 PUSH1 0x1F LT PUSH2 0xD98 JUMPI PUSH2 0x100 DUP1 DUP4 SLOAD DIV MUL DUP4 MSTORE SWAP2 PUSH1 0x20 ADD SWAP2 PUSH2 0xDC1 JUMP JUMPDEST DUP3 ADD SWAP2 SWAP1 PUSH0 MSTORE PUSH1 0x20 PUSH0 KECCAK256 SWAP1 JUMPDEST DUP2 SLOAD DUP2 MSTORE SWAP1 PUSH1 0x1 ADD SWAP1 PUSH1 0x20 ADD DUP1 DUP4 GT PUSH2 0xDA4 JUMPI DUP3 SWAP1 SUB PUSH1 0x1F AND DUP3 ADD SWAP2 JUMPDEST POP POP POP POP POP SWAP1 DUP1 PUSH1 0x1 ADD DUP1 SLOAD PUSH2 0xDD6 SWAP1 PUSH2 0x13A4 JUMP JUMPDEST DUP1 PUSH1 0x1F ADD PUSH1 0x20 DUP1 SWAP2 DIV MUL PUSH1 0x20 ADD PUSH1 0x40 MLOAD SWAP1 DUP2 ADD PUSH1 0x40 MSTORE DUP1 SWAP3 SWAP2 SWAP1 DUP2 DUP2 MSTORE PUSH1 0x20 ADD DUP3 DUP1 SLOAD PUSH2 0xE02 SWAP1 PUSH2 0x13A4 JUMP JUMPDEST DUP1 ISZERO PUSH2 0xE4D JUMPI DUP1 PUSH1 0x1F LT PUSH2 0xE24 JUMPI PUSH2 0x100 DUP1 DUP4 SLOAD DIV MUL DUP4 MSTORE SWAP2 PUSH1 0x20 ADD SWAP2 PUSH2 0xE4D JUMP JUMPDEST DUP3 ADD SWAP2 SWAP1 PUSH0 MSTORE PUSH1 0x20 PUSH0 KECCAK256 SWAP1 JUMPDEST DUP2 SLOAD DUP2 MSTORE SWAP1 PUSH1 0x1 ADD SWAP1 PUSH1 0x20 ADD DUP1 DUP4 GT PUSH2 0xE30 JUMPI DUP3 SWAP1 SUB PUSH1 0x1F AND DUP3 ADD SWAP2 JUMPDEST POP POP POP POP POP SWAP1 DUP1 PUSH1 0x2 ADD DUP1 SLOAD PUSH2 0xE62 SWAP1 PUSH2 0x13A4 JUMP JUMPDEST DUP1 PUSH1 0x1F ADD PUSH1 0x20 DUP1 SWAP2 DIV MUL PUSH1 0x20 ADD PUSH1 0x40 MLOAD SWAP1 DUP2 ADD PUSH1 0x40 MSTORE DUP1 SWAP3 SWAP2 SWAP1 DUP2 DUP2 MSTORE PUSH1 0x20 ADD DUP3 DUP1 SLOAD PUSH2 0xE8E SWAP1 PUSH2 0x13A4 JUMP JUMPDEST DUP1 ISZERO PUSH2 0xED9 JUMPI DUP1 PUSH1 0x1F LT PUSH2 0xEB0 JUMPI PUSH2 0x100 DUP1 DUP4 SLOAD DIV MUL DUP4 MSTORE SWAP2 PUSH1 0x20 ADD SWAP2 PUSH2 0xED9 JUMP JUMPDEST DUP3 ADD SWAP2 SWAP1 PUSH0 MSTORE PUSH1 0x20 PUSH0 KECCAK256 SWAP1 JUMPDEST DUP2 SLOAD DUP2 MSTORE SWAP1 PUSH1 0x1 ADD SWAP1 PUSH1 0x20 ADD DUP1 DUP4 GT PUSH2 0xEBC JUMPI DUP3 SWAP1 SUB PUSH1 0x1F AND DUP3 ADD SWAP2 JUMPDEST POP POP POP PUSH1 0x3 DUP5 ADD SLOAD PUSH1 0x4 DUP6 ADD SLOAD PUSH1 0x5 DUP7 ADD SLOAD PUSH1 0x6 SWAP1 SWAP7 ADD SLOAD SWAP5 SWAP6 SWAP2 SWAP5 SWAP1 SWAP4 POP PUSH1 0xFF SWAP1 SWAP2 AND SWAP2 POP DUP8 JUMP JUMPDEST PUSH0 PUSH1 0x4 DUP3 DUP2 SLOAD DUP2 LT PUSH2 0xF16 JUMPI PUSH2 0xF16 PUSH2 0x1409 JUMP JUMPDEST SWAP1 PUSH0 MSTORE PUSH1 0x20 PUSH0 KECCAK256 SWAP1 PUSH1 0x7 MUL ADD SWAP1 POP PUSH0 JUMPDEST PUSH1 0x6 DUP3 ADD SLOAD DUP2 LT ISZERO PUSH2 0x106F JUMPI PUSH0 DUP3 PUSH1 0x6 ADD DUP3 DUP2 SLOAD DUP2 LT PUSH2 0xF48 JUMPI PUSH2 0xF48 PUSH2 0x1409 JUMP JUMPDEST SWAP1 PUSH0 MSTORE PUSH1 0x20 PUSH0 KECCAK256 SWAP1 PUSH1 0x3 MUL ADD PUSH1 0x40 MLOAD DUP1 PUSH1 0x60 ADD PUSH1 0x40 MSTORE SWAP1 DUP2 PUSH0 DUP3 ADD SLOAD DUP2 MSTORE PUSH1 0x20 ADD PUSH1 0x1 DUP3 ADD PUSH0 SWAP1 SLOAD SWAP1 PUSH2 0x100 EXP SWAP1 DIV PUSH1 0x1 PUSH1 0x1 PUSH1 0xA0 SHL SUB AND PUSH1 0x1 PUSH1 0x1 PUSH1 0xA0 SHL SUB AND PUSH1 0x1 PUSH1 0x1 PUSH1 0xA0 SHL SUB AND DUP2 MSTORE PUSH1 0x20 ADD PUSH1 0x2 DUP3 ADD DUP1 SLOAD PUSH2 0xFA6 SWAP1 PUSH2 0x13A4 JUMP JUMPDEST DUP1 PUSH1 0x1F ADD PUSH1 0x20 DUP1 SWAP2 DIV MUL PUSH1 0x20 ADD PUSH1 0x40 MLOAD SWAP1 DUP2 ADD PUSH1 0x40 MSTORE DUP1 SWAP3 SWAP2 SWAP1 DUP2 DUP2 MSTORE PUSH1 0x20 ADD DUP3 DUP1 SLOAD PUSH2 0xFD2 SWAP1 PUSH2 0x13A4 JUMP JUMPDEST DUP1 ISZERO PUSH2 0x101D JUMPI DUP1 PUSH1 0x1F LT PUSH2 0xFF4 JUMPI PUSH2 0x100 DUP1 DUP4 SLOAD DIV MUL DUP4 MSTORE SWAP2 PUSH1 0x20 ADD SWAP2 PUSH2 0x101D JUMP JUMPDEST DUP3 ADD SWAP2 SWAP1 PUSH0 MSTORE PUSH1 0x20 PUSH0 KECCAK256 SWAP1 JUMPDEST DUP2 SLOAD DUP2 MSTORE SWAP1 PUSH1 0x1 ADD SWAP1 PUSH1 0x20 ADD DUP1 DUP4 GT PUSH2 0x1000 JUMPI DUP3 SWAP1 SUB PUSH1 0x1F AND DUP3 ADD SWAP2 JUMPDEST POP POP POP POP POP DUP2 MSTORE POP POP SWAP1 POP DUP1 PUSH1 0x20 ADD MLOAD PUSH1 0x1 PUSH1 0x1 PUSH1 0xA0 SHL SUB AND PUSH2 0x8FC DUP3 PUSH0 ADD MLOAD SWAP1 DUP2 ISZERO MUL SWAP1 PUSH1 0x40 MLOAD PUSH0 PUSH1 0x40 MLOAD DUP1 DUP4 SUB DUP2 DUP6 DUP9 DUP9 CALL SWAP4 POP POP POP POP ISZERO DUP1 ISZERO PUSH2 0x1065 JUMPI RETURNDATASIZE PUSH0 DUP1 RETURNDATACOPY RETURNDATASIZE PUSH0 REVERT JUMPDEST POP POP PUSH1 0x1 ADD PUSH2 0xF26 JUMP JUMPDEST POP POP POP JUMP JUMPDEST PUSH0 PUSH1 0x20 DUP3 DUP5 SUB SLT ISZERO PUSH2 0x1084 JUMPI PUSH0 DUP1 REVERT JUMPDEST POP CALLDATALOAD SWAP2 SWAP1 POP JUMP JUMPDEST PUSH0 DUP2 MLOAD DUP1 DUP5 MSTORE DUP1 PUSH1 0x20 DUP5 ADD PUSH1 0x20 DUP7 ADD MCOPY PUSH0 PUSH1 0x20 DUP3 DUP7 ADD ADD MSTORE PUSH1 0x20 PUSH1 0x1F NOT PUSH1 0x1F DUP4 ADD AND DUP6 ADD ADD SWAP2 POP POP SWAP3 SWAP2 POP POP JUMP JUMPDEST PUSH1 0x1 PUSH1 0x1 PUSH1 0xA0 SHL SUB DUP8 AND DUP2 MSTORE PUSH1 0xC0 PUSH1 0x20 DUP3 ADD DUP2 SWAP1 MSTORE PUSH0 SWAP1 PUSH2 0x10DC SWAP1 DUP4 ADD DUP9 PUSH2 0x108B JUMP JUMPDEST SWAP1 POP DUP6 PUSH1 0x40 DUP4 ADD MSTORE DUP5 PUSH1 0x60 DUP4 ADD MSTORE DUP4 PUSH1 0x80 DUP4 ADD MSTORE PUSH1 0xFF DUP4 AND PUSH1 0xA0 DUP4 ADD MSTORE SWAP8 SWAP7 POP POP POP POP POP POP POP JUMP JUMPDEST PUSH1 0x1 PUSH1 0x1 PUSH1 0xA0 SHL SUB DUP2 AND DUP2 EQ PUSH2 0x1118 JUMPI PUSH0 DUP1 REVERT JUMPDEST POP JUMP JUMPDEST PUSH0 DUP1 PUSH1 0x40 DUP4 DUP6 SUB SLT ISZERO PUSH2 0x112C JUMPI PUSH0 DUP1 REVERT JUMPDEST DUP3 CALLDATALOAD PUSH2 0x1137 DUP2 PUSH2 0x1104 JUMP JUMPDEST SWAP5 PUSH1 0x20 SWAP4 SWAP1 SWAP4 ADD CALLDATALOAD SWAP4 POP POP POP JUMP JUMPDEST PUSH0 DUP1 PUSH0 DUP1 PUSH1 0x40 DUP6 DUP8 SUB SLT ISZERO PUSH2 0x1158 JUMPI PUSH0 DUP1 REVERT JUMPDEST DUP5 CALLDATALOAD PUSH8 0xFFFFFFFFFFFFFFFF DUP2 GT ISZERO PUSH2 0x116E JUMPI PUSH0 DUP1 REVERT JUMPDEST DUP6 ADD PUSH1 0x1F DUP2 ADD DUP8 SGT PUSH2 0x117E JUMPI PUSH0 DUP1 REVERT JUMPDEST DUP1 CALLDATALOAD PUSH8 0xFFFFFFFFFFFFFFFF DUP2 GT ISZERO PUSH2 0x1194 JUMPI PUSH0 DUP1 REVERT JUMPDEST DUP8 PUSH1 0x20 DUP3 DUP5 ADD ADD GT ISZERO PUSH2 0x11A5 JUMPI PUSH0 DUP1 REVERT JUMPDEST PUSH1 0x20 SWAP2 DUP3 ADD SWAP6 POP SWAP4 POP DUP6 ADD CALLDATALOAD PUSH8 0xFFFFFFFFFFFFFFFF DUP2 GT ISZERO PUSH2 0x11C5 JUMPI PUSH0 DUP1 REVERT JUMPDEST DUP6 ADD PUSH1 0x1F DUP2 ADD DUP8 SGT PUSH2 0x11D5 JUMPI PUSH0 DUP1 REVERT JUMPDEST DUP1 CALLDATALOAD PUSH8 0xFFFFFFFFFFFFFFFF DUP2 GT ISZERO PUSH2 0x11EB JUMPI PUSH0 DUP1 REVERT JUMPDEST DUP8 PUSH1 0x20 DUP3 PUSH1 0x5 SHL DUP5 ADD ADD GT ISZERO PUSH2 0x11FF JUMPI PUSH0 DUP1 REVERT JUMPDEST SWAP5 SWAP8 SWAP4 SWAP7 POP PUSH1 0x20 ADD SWAP5 POP POP POP JUMP JUMPDEST PUSH1 0x20 DUP2 ADD PUSH1 0x5 DUP4 LT PUSH2 0x122D JUMPI PUSH4 0x4E487B71 PUSH1 0xE0 SHL PUSH0 MSTORE PUSH1 0x21 PUSH1 0x4 MSTORE PUSH1 0x24 PUSH0 REVERT JUMPDEST SWAP2 SWAP1 MSTORE SWAP1 JUMP JUMPDEST PUSH0 PUSH1 0x20 DUP3 DUP5 SUB SLT ISZERO PUSH2 0x1243 JUMPI PUSH0 DUP1 REVERT JUMPDEST DUP2 CALLDATALOAD PUSH2 0x124E DUP2 PUSH2 0x1104 JUMP JUMPDEST SWAP4 SWAP3 POP POP POP JUMP JUMPDEST PUSH1 0x20 DUP1 DUP3 MSTORE DUP3 MLOAD PUSH1 0x1 PUSH1 0x1 PUSH1 0xA0 SHL SUB AND DUP3 DUP3 ADD MSTORE DUP3 ADD MLOAD PUSH1 0xE0 PUSH1 0x40 DUP4 ADD MSTORE PUSH0 SWAP1 PUSH2 0x1283 PUSH2 0x100 DUP5 ADD DUP3 PUSH2 0x108B JUMP JUMPDEST SWAP1 POP PUSH1 0x40 DUP5 ADD MLOAD PUSH1 0x60 DUP5 ADD MSTORE PUSH1 0x60 DUP5 ADD MLOAD PUSH1 0x80 DUP5 ADD MSTORE PUSH1 0x80 DUP5 ADD MLOAD PUSH1 0xA0 DUP5 ADD MSTORE PUSH1 0xFF PUSH1 0xA0 DUP6 ADD MLOAD AND PUSH1 0xC0 DUP5 ADD MSTORE PUSH1 0xC0 DUP5 ADD MLOAD PUSH1 0x1F NOT DUP5 DUP4 SUB ADD PUSH1 0xE0 DUP6 ADD MSTORE DUP2 DUP2 MLOAD DUP1 DUP5 MSTORE PUSH1 0x20 DUP5 ADD SWAP2 POP PUSH1 0x20 DUP2 PUSH1 0x5 SHL DUP6 ADD ADD PUSH1 0x20 DUP5 ADD SWAP4 POP PUSH0 JUMPDEST DUP3 DUP2 LT ISZERO PUSH2 0x1339 JUMPI DUP6 DUP3 SUB PUSH1 0x1F NOT ADD DUP5 MSTORE DUP5 MLOAD DUP1 MLOAD DUP4 MSTORE PUSH1 0x20 DUP1 DUP3 ADD MLOAD PUSH1 0x1 PUSH1 0x1 PUSH1 0xA0 SHL SUB AND SWAP1 DUP5 ADD MSTORE PUSH1 0x40 SWAP1 DUP2 ADD MLOAD PUSH1 0x60 SWAP2 DUP5 ADD DUP3 SWAP1 MSTORE SWAP1 PUSH2 0x1323 SWAP1 DUP5 ADD DUP3 PUSH2 0x108B JUMP JUMPDEST PUSH1 0x20 SWAP7 DUP8 ADD SWAP7 SWAP6 SWAP1 SWAP6 ADD SWAP5 SWAP3 POP POP PUSH1 0x1 ADD PUSH2 0x12DE JUMP JUMPDEST POP SWAP8 SWAP7 POP POP POP POP POP POP POP JUMP JUMPDEST PUSH1 0xE0 DUP2 MSTORE PUSH0 PUSH2 0x1357 PUSH1 0xE0 DUP4 ADD DUP11 PUSH2 0x108B JUMP JUMPDEST DUP3 DUP2 SUB PUSH1 0x20 DUP5 ADD MSTORE PUSH2 0x1369 DUP2 DUP11 PUSH2 0x108B JUMP JUMPDEST SWAP1 POP DUP3 DUP2 SUB PUSH1 0x40 DUP5 ADD MSTORE PUSH2 0x137D DUP2 DUP10 PUSH2 0x108B JUMP JUMPDEST PUSH1 0x60 DUP5 ADD SWAP8 SWAP1 SWAP8 MSTORE POP POP PUSH1 0x80 DUP2 ADD SWAP4 SWAP1 SWAP4 MSTORE SWAP1 ISZERO ISZERO PUSH1 0xA0 DUP4 ADD MSTORE PUSH1 0xC0 SWAP1 SWAP2 ADD MSTORE SWAP4 SWAP3 POP POP POP JUMP JUMPDEST PUSH1 0x1 DUP2 DUP2 SHR SWAP1 DUP3 AND DUP1 PUSH2 0x13B8 JUMPI PUSH1 0x7F DUP3 AND SWAP2 POP JUMPDEST PUSH1 0x20 DUP3 LT DUP2 SUB PUSH2 0x13D6 JUMPI PUSH4 0x4E487B71 PUSH1 0xE0 SHL PUSH0 MSTORE PUSH1 0x22 PUSH1 0x4 MSTORE PUSH1 0x24 PUSH0 REVERT JUMPDEST POP SWAP2 SWAP1 POP JUMP JUMPDEST PUSH1 0x20 DUP1 DUP3 MSTORE PUSH1 0x13 SWAP1 DUP3 ADD MSTORE PUSH19 0x125B9D985B1A59081C1C9BDC1BDCD85B081251 PUSH1 0x6A SHL PUSH1 0x40 DUP3 ADD MSTORE PUSH1 0x60 ADD SWAP1 JUMP JUMPDEST PUSH4 0x4E487B71 PUSH1 0xE0 SHL PUSH0 MSTORE PUSH1 0x32 PUSH1 0x4 MSTORE PUSH1 0x24 PUSH0 REVERT JUMPDEST PUSH4 0x4E487B71 PUSH1 0xE0 SHL PUSH0 MSTORE PUSH1 0x11 PUSH1 0x4 MSTORE PUSH1 0x24 PUSH0 REVERT JUMPDEST PUSH0 PUSH1 0xFF DUP3 AND PUSH1 0xFF DUP2 SUB PUSH2 0x1446 JUMPI PUSH2 0x1446 PUSH2 0x141D JUMP JUMPDEST PUSH1 0x1 ADD SWAP3 SWAP2 POP POP JUMP JUMPDEST PUSH4 0x4E487B71 PUSH1 0xE0 SHL PUSH0 MSTORE PUSH1 0x41 PUSH1 0x4 MSTORE PUSH1 0x24 PUSH0 REVERT JUMPDEST PUSH1 0x1F DUP3 GT ISZERO PUSH2 0x106F JUMPI DUP1 PUSH0 MSTORE PUSH1 0x20 PUSH0 KECCAK256 PUSH1 0x1F DUP5 ADD PUSH1 0x5 SHR DUP2 ADD PUSH1 0x20 DUP6 LT ISZERO PUSH2 0x1488 JUMPI POP DUP1 JUMPDEST PUSH1 0x1F DUP5 ADD PUSH1 0x5 SHR DUP3 ADD SWAP2 POP JUMPDEST DUP2 DUP2 LT ISZERO PUSH2 0x14A7 JUMPI PUSH0 DUP2 SSTORE PUSH1 0x1 ADD PUSH2 0x1494 JUMP JUMPDEST POP POP POP POP POP JUMP JUMPDEST PUSH8 0xFFFFFFFFFFFFFFFF DUP4 GT ISZERO PUSH2 0x14C6 JUMPI PUSH2 0x14C6 PUSH2 0x144F JUMP JUMPDEST PUSH2 0x14DA DUP4 PUSH2 0x14D4 DUP4 SLOAD PUSH2 0x13A4 JUMP JUMPDEST DUP4 PUSH2 0x1463 JUMP JUMPDEST PUSH0 PUSH1 0x1F DUP5 GT PUSH1 0x1 DUP2 EQ PUSH2 0x150B JUMPI PUSH0 DUP6 ISZERO PUSH2 0x14F4 JUMPI POP DUP4 DUP3 ADD CALLDATALOAD JUMPDEST PUSH0 NOT PUSH1 0x3 DUP8 SWAP1 SHL SHR NOT AND PUSH1 0x1 DUP7 SWAP1 SHL OR DUP4 SSTORE PUSH2 0x14A7 JUMP JUMPDEST PUSH0 DUP4 DUP2 MSTORE PUSH1 0x20 DUP2 KECCAK256 PUSH1 0x1F NOT DUP8 AND SWAP2 JUMPDEST DUP3 DUP2 LT ISZERO PUSH2 0x153A JUMPI DUP7 DUP6 ADD CALLDATALOAD DUP3 SSTORE PUSH1 0x20 SWAP5 DUP6 ADD SWAP5 PUSH1 0x1 SWAP1 SWAP3 ADD SWAP2 ADD PUSH2 0x151A JUMP JUMPDEST POP DUP7 DUP3 LT ISZERO PUSH2 0x1556 JUMPI PUSH0 NOT PUSH1 0xF8 DUP9 PUSH1 0x3 SHL AND SHR NOT DUP5 DUP8 ADD CALLDATALOAD AND DUP2 SSTORE JUMPDEST POP POP PUSH1 0x1 DUP6 PUSH1 0x1 SHL ADD DUP4 SSTORE POP POP POP POP POP JUMP JUMPDEST PUSH0 DUP3 CALLDATALOAD PUSH1 0x5E NOT DUP4 CALLDATASIZE SUB ADD DUP2 SLT PUSH2 0x157C JUMPI PUSH0 DUP1 REVERT JUMPDEST SWAP2 SWAP1 SWAP2 ADD SWAP3 SWAP2 POP POP JUMP JUMPDEST DUP2 CALLDATALOAD DUP2 SSTORE PUSH1 0x1 DUP2 ADD PUSH1 0x20 DUP4 ADD CALLDATALOAD PUSH2 0x159C DUP2 PUSH2 0x1104 JUMP JUMPDEST DUP2 SLOAD PUSH1 0x1 PUSH1 0x1 PUSH1 0xA0 SHL SUB NOT AND PUSH1 0x1 PUSH1 0x1 PUSH1 0xA0 SHL SUB SWAP2 SWAP1 SWAP2 AND OR SWAP1 SSTORE PUSH1 0x40 DUP3 ADD CALLDATALOAD CALLDATASIZE DUP4 SWAP1 SUB PUSH1 0x1E NOT ADD DUP2 SLT PUSH2 0x15CE JUMPI PUSH0 DUP1 REVERT JUMPDEST DUP3 ADD DUP1 CALLDATALOAD PUSH8 0xFFFFFFFFFFFFFFFF DUP2 GT ISZERO PUSH2 0x15E6 JUMPI PUSH0 DUP1 REVERT JUMPDEST PUSH1 0x20 DUP3 ADD SWAP2 POP DUP1 CALLDATASIZE SUB DUP3 SGT ISZERO PUSH2 0x15FA JUMPI PUSH0 DUP1 REVERT JUMPDEST PUSH1 0x2 DUP4 ADD PUSH8 0xFFFFFFFFFFFFFFFF DUP3 GT ISZERO PUSH2 0x1616 JUMPI PUSH2 0x1616 PUSH2 0x144F JUMP JUMPDEST PUSH2 0x1624 DUP3 PUSH2 0x14D4 DUP4 SLOAD PUSH2 0x13A4 JUMP JUMPDEST PUSH0 PUSH1 0x1F DUP4 GT PUSH1 0x1 DUP2 EQ PUSH2 0x1655 JUMPI PUSH0 DUP5 ISZERO PUSH2 0x163E JUMPI POP DUP5 DUP3 ADD CALLDATALOAD JUMPDEST PUSH0 NOT PUSH1 0x3 DUP7 SWAP1 SHL SHR NOT AND PUSH1 0x1 DUP6 SWAP1 SHL OR DUP4 SSTORE PUSH2 0x16AC JUMP JUMPDEST PUSH0 DUP4 DUP2 MSTORE PUSH1 0x20 DUP2 KECCAK256 PUSH1 0x1F NOT DUP7 AND SWAP2 JUMPDEST DUP3 DUP2 LT ISZERO PUSH2 0x1684 JUMPI DUP8 DUP6 ADD CALLDATALOAD DUP3 SSTORE PUSH1 0x20 SWAP5 DUP6 ADD SWAP5 PUSH1 0x1 SWAP1 SWAP3 ADD SWAP2 ADD PUSH2 0x1664 JUMP JUMPDEST POP DUP6 DUP3 LT ISZERO PUSH2 0x16A0 JUMPI PUSH0 NOT PUSH1 0xF8 DUP8 PUSH1 0x3 SHL AND SHR NOT DUP5 DUP9 ADD CALLDATALOAD AND DUP2 SSTORE JUMPDEST POP POP PUSH1 0x1 DUP5 PUSH1 0x1 SHL ADD DUP4 SSTORE JUMPDEST POP POP POP POP POP POP POP JUMP JUMPDEST PUSH1 0x20 DUP2 MSTORE DUP2 PUSH1 0x20 DUP3 ADD MSTORE DUP2 DUP4 PUSH1 0x40 DUP4 ADD CALLDATACOPY PUSH0 DUP2 DUP4 ADD PUSH1 0x40 SWAP1 DUP2 ADD SWAP2 SWAP1 SWAP2 MSTORE PUSH1 0x1F SWAP1 SWAP3 ADD PUSH1 0x1F NOT AND ADD ADD SWAP2 SWAP1 POP JUMP JUMPDEST DUP2 DUP2 SUB DUP2 DUP2 GT ISZERO PUSH2 0x16F6 JUMPI PUSH2 0x16F6 PUSH2 0x141D JUMP JUMPDEST SWAP3 SWAP2 POP POP JUMP JUMPDEST PUSH1 0xFF DUP2 DUP2 AND DUP4 DUP3 AND MUL SWAP1 DUP2 AND SWAP1 DUP2 DUP2 EQ PUSH2 0x1718 JUMPI PUSH2 0x1718 PUSH2 0x141D JUMP JUMPDEST POP SWAP3 SWAP2 POP POP JUMP JUMPDEST DUP1 DUP3 ADD DUP1 DUP3 GT ISZERO PUSH2 0x16F6 JUMPI PUSH2 0x16F6 PUSH2 0x141D JUMP INVALID LOG2 PUSH5 0x6970667358 0x22 SLT KECCAK256 TIMESTAMP SWAP9 LOG0 PUSH23 0x4DED86CDA1A2E4740A4002E6994C96EB850934BF73FAD8 DUP4 0x4C KECCAK256 DUP3 0xA6 PUSH5 0x736F6C6343 STOP ADDMOD BYTE STOP CALLER "
		},
		"gasEstimates": {
			"creation": {
				"codeDepositCost": "1198400",
				"executionCost": "infinite",
				"totalCost": "infinite"
			},
			"external": {
				"N_MEMBERS()": "291",
				"RANDOM_VOTERS()": "248",
				"REG_TIME()": "261",
				"SUPER_MAJORITY()": "314",
				"activeProposalByMember(address)": "2555",
				"addedVoterCount()": "2397",
				"candidateInfo(address)": "infinite",
				"candidateList(uint256)": "4700",
				"electionEnd()": "2337",
				"getCurrentPhase()": "infinite",
				"getProposalInfo(uint256)": "infinite",
				"memberVotedAt(address,uint256)": "2693",
				"neutral()": "2425",
				"proposals(uint256)": "infinite",
				"proposeProposal(string,(uint256,address,string)[])": "infinite",
				"referendumEndTime()": "2361",
				"startTime()": "infinite",
				"voteForProposal(uint256)": "infinite",
				"withdrawProposal(uint256)": "39346"
			},
			"internal": {
				"_executeProposal(uint256)": "infinite"
			}
		},
		"methodIdentifiers": {
			"N_MEMBERS()": "e292bf16",
			"RANDOM_VOTERS()": "3def77b7",
			"REG_TIME()": "47f7b722",
			"SUPER_MAJORITY()": "b85c2292",
			"activeProposalByMember(address)": "ac0af944",
			"addedVoterCount()": "1b408934",
			"candidateInfo(address)": "e965b7c9",
			"candidateList(uint256)": "b13c744b",
			"electionEnd()": "ce7ea161",
			"getCurrentPhase()": "a3a40ea5",
			"getProposalInfo(uint256)": "bc903cb8",
			"memberVotedAt(address,uint256)": "2190bee8",
			"neutral()": "4d0c8726",
			"proposals(uint256)": "013cf08b",
			"proposeProposal(string,(uint256,address,string)[])": "3b497b28",
			"referendumEndTime()": "b0feb260",
			"startTime()": "78e97925",
			"voteForProposal(uint256)": "045c6ce0",
			"withdrawProposal(uint256)": "e1f02ffa"
		}
	},
	"abi": [
		{
			"anonymous": false,
			"inputs": [
				{
					"indexed": true,
					"internalType": "uint256",
					"name": "proposalId",
					"type": "uint256"
				}
			],
			"name": "ProposalPassed",
			"type": "event"
		},
		{
			"anonymous": false,
			"inputs": [
				{
					"indexed": true,
					"internalType": "uint256",
					"name": "proposalId",
					"type": "uint256"
				},
				{
					"indexed": true,
					"internalType": "address",
					"name": "proposer",
					"type": "address"
				},
				{
					"indexed": false,
					"internalType": "string",
					"name": "provisions",
					"type": "string"
				}
			],
			"name": "ProposalProposed",
			"type": "event"
		},
		{
			"anonymous": false,
			"inputs": [
				{
					"indexed": true,
					"internalType": "uint256",
					"name": "proposalId",
					"type": "uint256"
				},
				{
					"indexed": true,
					"internalType": "address",
					"name": "voter",
					"type": "address"
				}
			],
			"name": "ProposalVoted",
			"type": "event"
		},
		{
			"anonymous": false,
			"inputs": [
				{
					"indexed": true,
					"internalType": "uint256",
					"name": "proposalId",
					"type": "uint256"
				}
			],
			"name": "ProposalWithdrawn",
			"type": "event"
		},
		{
			"inputs": [],
			"name": "N_MEMBERS",
			"outputs": [
				{
					"internalType": "uint8",
					"name": "",
					"type": "uint8"
				}
			],
			"stateMutability": "view",
			"type": "function"
		},
		{
			"inputs": [],
			"name": "RANDOM_VOTERS",
			"outputs": [
				{
					"internalType": "uint32",
					"name": "",
					"type": "uint32"
				}
			],
			"stateMutability": "view",
			"type": "function"
		},
		{
			"inputs": [],
			"name": "REG_TIME",
			"outputs": [
				{
					"internalType": "uint256",
					"name": "",
					"type": "uint256"
				}
			],
			"stateMutability": "view",
			"type": "function"
		},
		{
			"inputs": [],
			"name": "SUPER_MAJORITY",
			"outputs": [
				{
					"internalType": "uint8",
					"name": "",
					"type": "uint8"
				}
			],
			"stateMutability": "view",
			"type": "function"
		},
		{
			"inputs": [
				{
					"internalType": "address",
					"name": "",
					"type": "address"
				}
			],
			"name": "activeProposalByMember",
			"outputs": [
				{
					"internalType": "uint256",
					"name": "",
					"type": "uint256"
				}
			],
			"stateMutability": "view",
			"type": "function"
		},
		{
			"inputs": [],
			"name": "addedVoterCount",
			"outputs": [
				{
					"internalType": "uint32",
					"name": "",
					"type": "uint32"
				}
			],
			"stateMutability": "view",
			"type": "function"
		},
		{
			"inputs": [
				{
					"internalType": "address",
					"name": "",
					"type": "address"
				}
			],
			"name": "candidateInfo",
			"outputs": [
				{
					"internalType": "string",
					"name": "fullName",
					"type": "string"
				},
				{
					"internalType": "string",
					"name": "bio",
					"type": "string"
				},
				{
					"internalType": "string",
					"name": "website",
					"type": "string"
				},
				{
					"internalType": "uint256",
					"name": "registeredAt",
					"type": "uint256"
				},
				{
					"internalType": "uint256",
					"name": "voteCount",
					"type": "uint256"
				},
				{
					"internalType": "bool",
					"name": "electedMember",
					"type": "bool"
				},
				{
					"internalType": "uint256",
					"name": "leaderAt",
					"type": "uint256"
				}
			],
			"stateMutability": "view",
			"type": "function"
		},
		{
			"inputs": [
				{
					"internalType": "uint256",
					"name": "",
					"type": "uint256"
				}
			],
			"name": "candidateList",
			"outputs": [
				{
					"internalType": "address",
					"name": "",
					"type": "address"
				}
			],
			"stateMutability": "view",
			"type": "function"
		},
		{
			"inputs": [],
			"name": "electionEnd",
			"outputs": [
				{
					"internalType": "uint256",
					"name": "",
					"type": "uint256"
				}
			],
			"stateMutability": "view",
			"type": "function"
		},
		{
			"inputs": [],
			"name": "getCurrentPhase",
			"outputs": [
				{
					"internalType": "enum Phase",
					"name": "",
					"type": "uint8"
				}
			],
			"stateMutability": "nonpayable",
			"type": "function"
		},
		{
			"inputs": [
				{
					"internalType": "uint256",
					"name": "proposalId",
					"type": "uint256"
				}
			],
			"name": "getProposalInfo",
			"outputs": [
				{
					"components": [
						{
							"internalType": "address",
							"name": "proposer",
							"type": "address"
						},
						{
							"internalType": "string",
							"name": "provisions",
							"type": "string"
						},
						{
							"internalType": "uint256",
							"name": "proposedAt",
							"type": "uint256"
						},
						{
							"internalType": "uint256",
							"name": "executedAt",
							"type": "uint256"
						},
						{
							"internalType": "uint256",
							"name": "withdrawnAt",
							"type": "uint256"
						},
						{
							"internalType": "uint8",
							"name": "yesVotes",
							"type": "uint8"
						},
						{
							"components": [
								{
									"internalType": "uint256",
									"name": "amount",
									"type": "uint256"
								},
								{
									"internalType": "address",
									"name": "recipient",
									"type": "address"
								},
								{
									"internalType": "string",
									"name": "reason",
									"type": "string"
								}
							],
							"internalType": "struct Payment[]",
							"name": "payments",
							"type": "tuple[]"
						}
					],
					"internalType": "struct Proposal",
					"name": "",
					"type": "tuple"
				}
			],
			"stateMutability": "view",
			"type": "function"
		},
		{
			"inputs": [
				{
					"internalType": "address",
					"name": "",
					"type": "address"
				},
				{
					"internalType": "uint256",
					"name": "",
					"type": "uint256"
				}
			],
			"name": "memberVotedAt",
			"outputs": [
				{
					"internalType": "uint256",
					"name": "",
					"type": "uint256"
				}
			],
			"stateMutability": "view",
			"type": "function"
		},
		{
			"inputs": [],
			"name": "neutral",
			"outputs": [
				{
					"internalType": "address",
					"name": "",
					"type": "address"
				}
			],
			"stateMutability": "view",
			"type": "function"
		},
		{
			"inputs": [
				{
					"internalType": "uint256",
					"name": "",
					"type": "uint256"
				}
			],
			"name": "proposals",
			"outputs": [
				{
					"internalType": "address",
					"name": "proposer",
					"type": "address"
				},
				{
					"internalType": "string",
					"name": "provisions",
					"type": "string"
				},
				{
					"internalType": "uint256",
					"name": "proposedAt",
					"type": "uint256"
				},
				{
					"internalType": "uint256",
					"name": "executedAt",
					"type": "uint256"
				},
				{
					"internalType": "uint256",
					"name": "withdrawnAt",
					"type": "uint256"
				},
				{
					"internalType": "uint8",
					"name": "yesVotes",
					"type": "uint8"
				}
			],
			"stateMutability": "view",
			"type": "function"
		},
		{
			"inputs": [
				{
					"internalType": "string",
					"name": "_provisions",
					"type": "string"
				},
				{
					"components": [
						{
							"internalType": "uint256",
							"name": "amount",
							"type": "uint256"
						},
						{
							"internalType": "address",
							"name": "recipient",
							"type": "address"
						},
						{
							"internalType": "string",
							"name": "reason",
							"type": "string"
						}
					],
					"internalType": "struct Payment[]",
					"name": "_payments",
					"type": "tuple[]"
				}
			],
			"name": "proposeProposal",
			"outputs": [
				{
					"internalType": "uint256",
					"name": "",
					"type": "uint256"
				}
			],
			"stateMutability": "nonpayable",
			"type": "function"
		},
		{
			"inputs": [],
			"name": "referendumEndTime",
			"outputs": [
				{
					"internalType": "uint256",
					"name": "",
					"type": "uint256"
				}
			],
			"stateMutability": "view",
			"type": "function"
		},
		{
			"inputs": [],
			"name": "startTime",
			"outputs": [
				{
					"internalType": "uint256",
					"name": "",
					"type": "uint256"
				}
			],
			"stateMutability": "view",
			"type": "function"
		},
		{
			"inputs": [
				{
					"internalType": "uint256",
					"name": "proposalId",
					"type": "uint256"
				}
			],
			"name": "voteForProposal",
			"outputs": [
				{
					"internalType": "uint8",
					"name": "",
					"type": "uint8"
				}
			],
			"stateMutability": "nonpayable",
			"type": "function"
		},
		{
			"inputs": [
				{
					"internalType": "uint256",
					"name": "proposalId",
					"type": "uint256"
				}
			],
			"name": "withdrawProposal",
			"outputs": [],
			"stateMutability": "nonpayable",
			"type": "function"
		}
	]
}