{
	"data": {
		"bytecode": {
			"linkReferences": {},
			"object": "60a0604052603a805460ff191690553480156018575f5ffd5b506080516122966100315f395f61037901526122965ff3fe608060405260043610610195575f3560e01c806378e97925116100e7578063b13c744b11610087578063d90d7cd811610062578063d90d7cd81461049d578063e292bf16146104d1578063e965b7c9146104f7578063eccf1f1014610529575f5ffd5b8063b13c744b14610456578063b5ba979514610475578063ce7ea16114610489575f5ffd5b8063a3a40ea5116100c2578063a3a40ea5146103ed578063a5f5b1bf1461040e578063a6a5ad1214610422578063b0feb26014610441575f5ffd5b806378e97925146103685780637da4ce831461039b5780637f4241e7146103bf575f5ffd5b806326c294491161015257806349066e791161012d57806349066e79146102ed5780634d0c8726146103035780634ebeb1091461032257806370f67cfe1461033c575f5ffd5b806326c29449146102a35780633def77b7146102c257806347f7b722146102d7575f5ffd5b8063013cf08b14610199578063079ddd11146101d3578063089e35b8146101e857806316392372146102115780631b40893414610234578063214c3a891461026c575b5f5ffd5b3480156101a4575f5ffd5b506101b86101b3366004611b84565b61054a565b6040516101ca96959493929190611bc9565b60405180910390f35b6101e66101e1366004611cb3565b610624565b005b3480156101f3575f5ffd5b50603a546102019060ff1681565b60405190151581526020016101ca565b34801561021c575f5ffd5b50610226603b5481565b6040519081526020016101ca565b34801561023f575f5ffd5b5060015461025790600160a01b900463ffffffff1681565b60405163ffffffff90911681526020016101ca565b348015610277575f5ffd5b5061028b610286366004611b84565b6109af565b6040516001600160a01b0390911681526020016101ca565b3480156102ae575f5ffd5b506101e66102bd366004611d58565b6109ce565b3480156102cd575f5ffd5b506102576103e881565b3480156102e2575f5ffd5b506102266212750081565b3480156102f8575f5ffd5b5061022662093a8081565b34801561030e575f5ffd5b5060015461028b906001600160a01b031681565b34801561032d575f5ffd5b5061022666038d7ea4c6800081565b348015610347575f5ffd5b5061035b610356366004611b84565b610df7565b6040516101ca9190611d8d565b348015610373575f5ffd5b506102267f000000000000000000000000000000000000000000000000000000000000000081565b3480156103a6575f5ffd5b50603a5461028b9061010090046001600160a01b031681565b3480156103ca575f5ffd5b506102016103d9366004611b84565b5f9081526006602052604090205460ff1690565b3480156103f8575f5ffd5b506104016110a5565b6040516101ca9190611e2f565b348015610419575f5ffd5b506101e6611146565b34801561042d575f5ffd5b506101e661043c366004611e55565b6112be565b34801561044c575f5ffd5b5061022660055481565b348015610461575f5ffd5b5061028b610470366004611b84565b6115b2565b348015610480575f5ffd5b50610257600a81565b348015610494575f5ffd5b506102265f5481565b3480156104a8575f5ffd5b506102266104b7366004611ee1565b6001600160a01b03165f9081526007602052604090205490565b3480156104dc575f5ffd5b506104e5603281565b60405160ff90911681526020016101ca565b348015610502575f5ffd5b50610516610511366004611ee1565b6115da565b6040516101ca9796959493929190611f01565b348015610534575f5ffd5b5061053d6117ac565b6040516101ca9190611f60565b60048181548110610559575f80fd5b5f918252602090912060079091020180546001820180546001600160a01b0390921693509061058790611f9a565b80601f01602080910402602001604051908101604052809291908181526020018280546105b390611f9a565b80156105fe5780601f106105d5576101008083540402835291602001916105fe565b820191905f5260205f20905b8154815290600101906020018083116105e157829003601f168201915b505050506002830154600384015460048501546005909501549394919390925060ff1686565b5f835111801561063657506064835111155b6106765760405162461bcd60e51b815260206004820152600c60248201526b496e76616c6964206e616d6560a01b60448201526064015b60405180910390fd5b5f825111801561068957506103e8825111155b6106c35760405162461bcd60e51b815260206004820152600b60248201526a496e76616c69642062696f60a81b604482015260640161066d565b5f81511180156106d657506107d0815111155b6107145760405162461bcd60e51b815260206004820152600f60248201526e496e76616c6964207765627369746560881b604482015260640161066d565b336107525760405162461bcd60e51b815260206004820152600e60248201526d24b73b30b634b21039b2b73232b960911b604482015260640161066d565b66038d7ea4c680003410156107a95760405162461bcd60e51b815260206004820152601d60248201527f496e73756666696369656e7420726567697374726174696f6e20666565000000604482015260640161066d565b5f6107b26110a5565b60048111156107c3576107c3611e1b565b146108215760405162461bcd60e51b815260206004820152602860248201527f43616e64696461746520726567697374726174696f6e20706572696f64206861604482015267399032b73232b21760c11b606482015260840161066d565b335f9081526003602081905260409091200154156108765760405162461bcd60e51b8152602060048201526012602482015271105b1c9958591e481c9959da5cdd195c995960721b604482015260640161066d565b6040805160e08101825284815260208082018590528183018490524260608301525f6080830181905260a0830181905260c08301819052338152600390915291909120815181906108c7908261201e565b50602082015160018201906108dc908261201e565b50604082015160028201906108f1908261201e565b50606082015160038201556080820151600482015560a082015160058201805460ff191691151591909117905560c090910151600690910155600280546001810182555f919091527f405787fa12a823e0f2b7631cc41b3ba8828b3321ca811111fa75cd3aa3bb5ace018054336001600160a01b031990911681179091556040517ed6fea68f71a20d8149f227f87e8cf7e6ad320b2dad4b45465b14599b80ee09906109a2908690869086906120d9565b60405180910390a2505050565b600881603281106109be575f80fd5b01546001600160a01b0316905081565b6001546001600160a01b03163314610a215760405162461bcd60e51b8152602060048201526016602482015275139bdd08185d5d1a1bdc9a5e9959081b995d5d1c985b60521b604482015260640161066d565b5f610a2a6110a5565b6004811115610a3b57610a3b611e1b565b14610a885760405162461bcd60e51b815260206004820152601e60248201527f566f74657220616464696e6720706572696f642068617320656e6465642e0000604482015260640161066d565b6001546103e8600160a01b90910463ffffffff1610610af35760405162461bcd60e51b815260206004820152602160248201527f4d6178696d756d206e756d626572206f6620766f7465727320726561636865646044820152601760f91b606482015260840161066d565b5f5b600a60ff82161015610bd65760065f848360ff16600a8110610b1957610b1961211b565b6020908102919091013582528101919091526040015f205460ff1615610b815760405162461bcd60e51b815260206004820152601d60248201527f566f746572206861736820616c72656164792072656769737465726564000000604482015260640161066d565b600160065f858460ff16600a8110610b9b57610b9b61211b565b602002013581526020019081526020015f205f6101000a81548160ff0219169083151502179055508080610bce90612143565b915050610af5565b505f5b600a60ff82161015610d5b575f8260ff8316600a8110610bfb57610bfb61211b565b602002016020810190610c0e9190611ee1565b6001600160a01b031603610c5c5760405162461bcd60e51b8152602060048201526015602482015274496e76616c696420766f746572206164647265737360581b604482015260640161066d565b60075f838360ff16600a8110610c7457610c7461211b565b602002016020810190610c879190611ee1565b6001600160a01b0316815260208101919091526040015f205415610d035760405162461bcd60e51b815260206004820152602d60248201527f416464726573737320616c726561647920726567697374657265642e2052656760448201526c697374726172204552524f522160981b606482015260840161066d565b600160075f848460ff16600a8110610d1d57610d1d61211b565b602002016020810190610d309190611ee1565b6001600160a01b0316815260208101919091526040015f205580610d5381612143565b915050610bd9565b50600a600160148282829054906101000a900463ffffffff16610d7e9190612161565b92506101000a81548163ffffffff021916908363ffffffff16021790555080604051610daa919061217d565b604051908190038120600154600160a01b900463ffffffff168252907f5ecf71b87b223b4e8c4d19850b2c7a727d326e44eda6530fe642b505ff2c4f949060200160405180910390a25050565b610e356040518060e001604052806060815260200160608152602001606081526020015f81526020015f81526020015f151581526020015f81525090565b6002548210610e7d5760405162461bcd60e51b8152602060048201526014602482015273125b9d985b1a590810d85b991a59185d1948125160621b604482015260640161066d565b60035f60028481548110610e9357610e9361211b565b5f9182526020808320909101546001600160a01b031683528201929092526040908101909120815160e08101909252805482908290610ed190611f9a565b80601f0160208091040260200160405190810160405280929190818152602001828054610efd90611f9a565b8015610f485780601f10610f1f57610100808354040283529160200191610f48565b820191905f5260205f20905b815481529060010190602001808311610f2b57829003601f168201915b50505050508152602001600182018054610f6190611f9a565b80601f0160208091040260200160405190810160405280929190818152602001828054610f8d90611f9a565b8015610fd85780601f10610faf57610100808354040283529160200191610fd8565b820191905f5260205f20905b815481529060010190602001808311610fbb57829003601f168201915b50505050508152602001600282018054610ff190611f9a565b80601f016020809104026020016040519081016040528092919081815260200182805461101d90611f9a565b80156110685780601f1061103f57610100808354040283529160200191611068565b820191905f5260205f20905b81548152906001019060200180831161104b57829003601f168201915b50505091835250506003820154602082015260048201546040820152600582015460ff161515606082015260069091015460809091015292915050565b5f620151805f546110b691906121c2565b4210156110c257505f90565b5f54421015611121576110d7603260026121d5565b60ff1660028054905010806110fd57506001546103e8600160a01b90910463ffffffff16105b1561111b57621275005f5461111291906121f8565b5f908155919050565b50600190565b6005545f036111305750600290565b6005544210156111405750600390565b50600490565b603a5460ff166111885760405162461bcd60e51b815260206004820152600d60248201526c139bc81b195859195c881e595d609a1b604482015260640161066d565b603a5461010090046001600160a01b03165f908152600360205260409020600601546111b89062093a80906121f8565b4210156112125760405162461bcd60e51b815260206004820152602260248201527f43757272656e74206c65616465722773207465726d206e6f742066696e697368604482015261195960f21b606482015260840161066d565b603b8054905f6112218361220b565b91905055506032603b5410611235575f603b555b6008603b546032811061124a5761124a61211b565b0154603a8054610100600160a81b0319166101006001600160a01b0393841681029190911780835581900483165f90815260036020526040808220426006909101559254925191909204909216917f8a84bb57bf3f6adefaa7a35a6a5067473f78164bfc14c2f6ae8b93e5b115b35a9190a2565b60016112c86110a5565b60048111156112d9576112d9611e1b565b1461131e5760405162461bcd60e51b81526020600482015260156024820152744e6f7420696e20456c656374696f6e20706861736560581b604482015260640161066d565b6002548111156113655760405162461bcd60e51b8152602060048201526012602482015271125b9d985b1a59081d9bdd194818dbdd5b9d60721b604482015260640161066d565b335f908152600760205260409020546001146113d45760405162461bcd60e51b815260206004820152602860248201527f416c726561647920766f74656420283e3129206f72206e6f7420726567697374604482015267657265642028302960c01b606482015260840161066d565b6002545f9067ffffffffffffffff8111156113f1576113f1611c14565b60405190808252806020026020018201604052801561141a578160200160208202803683370190505b50335f818152600760205260408082204290555192935090917fb87a61d78bd15221c59b983f6ef032fbde0631e66bfe18d1421fe5a73c16741d9190a25f5b828110156115ac575f8484838181106114745761147461211b565b90506020020135905060028054905081106114c95760405162461bcd60e51b81526020600482015260156024820152740aee4dedcce40c6c2dcc8d2c8c2e8ca40d2dcc8caf605b1b604482015260640161066d565b8281815181106114db576114db61211b565b6020026020010151156115305760405162461bcd60e51b815260206004820152601a60248201527f526570657469746976652063616e64696461746520696e646578000000000000604482015260640161066d565b60018382815181106115445761154461211b565b60200260200101901515908115158152505060035f6002838154811061156c5761156c61211b565b5f9182526020808320909101546001600160a01b03168352820192909252604001812060040180549161159e8361220b565b909155505050600101611459565b50505050565b600281815481106115c1575f80fd5b5f918252602090912001546001600160a01b0316905081565b60036020525f90815260409020805481906115f490611f9a565b80601f016020809104026020016040519081016040528092919081815260200182805461162090611f9a565b801561166b5780601f106116425761010080835404028352916020019161166b565b820191905f5260205f20905b81548152906001019060200180831161164e57829003601f168201915b50505050509080600101805461168090611f9a565b80601f01602080910402602001604051908101604052809291908181526020018280546116ac90611f9a565b80156116f75780601f106116ce576101008083540402835291602001916116f7565b820191905f5260205f20905b8154815290600101906020018083116116da57829003601f168201915b50505050509080600201805461170c90611f9a565b80601f016020809104026020016040519081016040528092919081815260200182805461173890611f9a565b80156117835780601f1061175a57610100808354040283529160200191611783565b820191905f5260205f20905b81548152906001019060200180831161176657829003601f168201915b5050506003840154600485015460058601546006909601549495919490935060ff909116915087565b6117b4611b65565b603a5460ff16156117fd57604080516106408101918290529060089060329082845b81546001600160a01b031681526001909101906020018083116117d6575050505050905090565b5f5442116118435760405162461bcd60e51b815260206004820152601360248201527221b0b6361030b33a32b91032b632b1ba34b7b760691b604482015260640161066d565b60015b60328111611a86575f5b6002548290038110156119c95760035f600283600101815481106118765761187661211b565b905f5260205f20015f9054906101000a90046001600160a01b03166001600160a01b03166001600160a01b031681526020019081526020015f206004015460035f600284815481106118ca576118ca61211b565b5f9182526020808320909101546001600160a01b0316835282019290925260400190206004015411156119c1576002816001018154811061190d5761190d61211b565b5f91825260209091200154600280546001600160a01b0390921691839081106119385761193861211b565b5f91825260209091200154600280546001600160a01b0390921691849081106119635761196361211b565b905f5260205f20015f600285600101815481106119825761198261211b565b5f91825260209091200180546001600160a01b039485166001600160a01b031990911617905581549383166101009190910a9081029202199092161790555b600101611850565b50600280548281039081106119e0576119e061211b565b5f918252602090912001546001600160a01b031660085f19830160328110611a0a57611a0a61211b565b0180546001600160a01b0319166001600160a01b0392909216919091179055600280546001916003915f9190858103908110611a4857611a4861211b565b5f918252602080832091909101546001600160a01b031683528201929092526040019020600501805460ff1916911515919091179055600101611846565b50603a8054600880546001600160a01b039081166101009081026001600160a81b031990941693909317600117938490555f603b81905592909304909216815260036020526040908190204260069091015551611ae39190612223565b604051908190038120603a5461010090046001600160a01b03168252907f5befb7b9346d2adf55904a87bbd0d35bcede9d28085a00c081c6168ac5ed6c449060200160405180910390a260408051610640810191829052600880546001600160a01b0316825290916032906009602085018083116117d6575050505050905090565b6040518061064001604052806032906020820280368337509192915050565b5f60208284031215611b94575f5ffd5b5035919050565b5f81518084528060208401602086015e5f602082860101526020601f19601f83011685010191505092915050565b6001600160a01b038716815260c0602082018190525f90611bec90830188611b9b565b905085604083015284606083015283608083015260ff831660a0830152979650505050505050565b634e487b7160e01b5f52604160045260245ffd5b5f82601f830112611c37575f5ffd5b813567ffffffffffffffff811115611c5157611c51611c14565b604051601f8201601f19908116603f0116810167ffffffffffffffff81118282101715611c8057611c80611c14565b604052818152838201602001851015611c97575f5ffd5b816020850160208301375f918101602001919091529392505050565b5f5f5f60608486031215611cc5575f5ffd5b833567ffffffffffffffff811115611cdb575f5ffd5b611ce786828701611c28565b935050602084013567ffffffffffffffff811115611d03575f5ffd5b611d0f86828701611c28565b925050604084013567ffffffffffffffff811115611d2b575f5ffd5b611d3786828701611c28565b9150509250925092565b806101408101831015611d52575f5ffd5b92915050565b5f5f6102808385031215611d6a575f5ffd5b611d748484611d41565b9150611d84846101408501611d41565b90509250929050565b602081525f825160e06020840152611da9610100840182611b9b565b90506020840151601f19848303016040850152611dc68282611b9b565b9150506040840151601f19848303016060850152611de48282611b9b565b91505060608401516080840152608084015160a084015260a0840151151560c084015260c084015160e08401528091505092915050565b634e487b7160e01b5f52602160045260245ffd5b6020810160058310611e4f57634e487b7160e01b5f52602160045260245ffd5b91905290565b5f5f60208385031215611e66575f5ffd5b823567ffffffffffffffff811115611e7c575f5ffd5b8301601f81018513611e8c575f5ffd5b803567ffffffffffffffff811115611ea2575f5ffd5b8560208260051b8401011115611eb6575f5ffd5b6020919091019590945092505050565b80356001600160a01b0381168114611edc575f5ffd5b919050565b5f60208284031215611ef1575f5ffd5b611efa82611ec6565b9392505050565b60e081525f611f1360e083018a611b9b565b8281036020840152611f25818a611b9b565b90508281036040840152611f398189611b9b565b60608401979097525050608081019390935290151560a083015260c0909101529392505050565b610640810181835f5b6032811015611f915781516001600160a01b0316835260209283019290910190600101611f69565b50505092915050565b600181811c90821680611fae57607f821691505b602082108103611fcc57634e487b7160e01b5f52602260045260245ffd5b50919050565b601f82111561201957805f5260205f20601f840160051c81016020851015611ff75750805b601f840160051c820191505b81811015612016575f8155600101612003565b50505b505050565b815167ffffffffffffffff81111561203857612038611c14565b61204c816120468454611f9a565b84611fd2565b6020601f82116001811461207e575f83156120675750848201515b5f19600385901b1c1916600184901b178455612016565b5f84815260208120601f198516915b828110156120ad578785015182556020948501946001909201910161208d565b50848210156120ca57868401515f19600387901b60f8161c191681555b50505050600190811b01905550565b606081525f6120eb6060830186611b9b565b82810360208401526120fd8186611b9b565b905082810360408401526121118185611b9b565b9695505050505050565b634e487b7160e01b5f52603260045260245ffd5b634e487b7160e01b5f52601160045260245ffd5b5f60ff821660ff81036121585761215861212f565b60010192915050565b63ffffffff8181168382160190811115611d5257611d5261212f565b5f8183825b600a8110156121b2576001600160a01b0361219c83611ec6565b1683526020928301929190910190600101612182565b5050506101408201905092915050565b81810381811115611d5257611d5261212f565b60ff81811683821602908116908181146121f1576121f161212f565b5092915050565b80820180821115611d5257611d5261212f565b5f6001820161221c5761221c61212f565b5060010190565b5f8183825b60328110156122505781546001600160a01b0316835260209092019160019182019101612228565b505050610640820190509291505056fea26469706673582212208b2dd99b6a3fa4d96f30943c8a8ee70e130f7a84681feab77ae7c6394d1f1ea964736f6c634300081c0033",
			"opcodes": "PUSH1 0xA0 PUSH1 0x40 MSTORE PUSH1 0x3A DUP1 SLOAD PUSH1 0xFF NOT AND SWAP1 SSTORE CALLVALUE DUP1 ISZERO PUSH1 0x18 JUMPI PUSH0 PUSH0 REVERT JUMPDEST POP PUSH1 0x80 MLOAD PUSH2 0x2296 PUSH2 0x31 PUSH0 CODECOPY PUSH0 PUSH2 0x379 ADD MSTORE PUSH2 0x2296 PUSH0 RETURN INVALID PUSH1 0x80 PUSH1 0x40 MSTORE PUSH1 0x4 CALLDATASIZE LT PUSH2 0x195 JUMPI PUSH0 CALLDATALOAD PUSH1 0xE0 SHR DUP1 PUSH4 0x78E97925 GT PUSH2 0xE7 JUMPI DUP1 PUSH4 0xB13C744B GT PUSH2 0x87 JUMPI DUP1 PUSH4 0xD90D7CD8 GT PUSH2 0x62 JUMPI DUP1 PUSH4 0xD90D7CD8 EQ PUSH2 0x49D JUMPI DUP1 PUSH4 0xE292BF16 EQ PUSH2 0x4D1 JUMPI DUP1 PUSH4 0xE965B7C9 EQ PUSH2 0x4F7 JUMPI DUP1 PUSH4 0xECCF1F10 EQ PUSH2 0x529 JUMPI PUSH0 PUSH0 REVERT JUMPDEST DUP1 PUSH4 0xB13C744B EQ PUSH2 0x456 JUMPI DUP1 PUSH4 0xB5BA9795 EQ PUSH2 0x475 JUMPI DUP1 PUSH4 0xCE7EA161 EQ PUSH2 0x489 JUMPI PUSH0 PUSH0 REVERT JUMPDEST DUP1 PUSH4 0xA3A40EA5 GT PUSH2 0xC2 JUMPI DUP1 PUSH4 0xA3A40EA5 EQ PUSH2 0x3ED JUMPI DUP1 PUSH4 0xA5F5B1BF EQ PUSH2 0x40E JUMPI DUP1 PUSH4 0xA6A5AD12 EQ PUSH2 0x422 JUMPI DUP1 PUSH4 0xB0FEB260 EQ PUSH2 0x441 JUMPI PUSH0 PUSH0 REVERT JUMPDEST DUP1 PUSH4 0x78E97925 EQ PUSH2 0x368 JUMPI DUP1 PUSH4 0x7DA4CE83 EQ PUSH2 0x39B JUMPI DUP1 PUSH4 0x7F4241E7 EQ PUSH2 0x3BF JUMPI PUSH0 PUSH0 REVERT JUMPDEST DUP1 PUSH4 0x26C29449 GT PUSH2 0x152 JUMPI DUP1 PUSH4 0x49066E79 GT PUSH2 0x12D JUMPI DUP1 PUSH4 0x49066E79 EQ PUSH2 0x2ED JUMPI DUP1 PUSH4 0x4D0C8726 EQ PUSH2 0x303 JUMPI DUP1 PUSH4 0x4EBEB109 EQ PUSH2 0x322 JUMPI DUP1 PUSH4 0x70F67CFE EQ PUSH2 0x33C JUMPI PUSH0 PUSH0 REVERT JUMPDEST DUP1 PUSH4 0x26C29449 EQ PUSH2 0x2A3 JUMPI DUP1 PUSH4 0x3DEF77B7 EQ PUSH2 0x2C2 JUMPI DUP1 PUSH4 0x47F7B722 EQ PUSH2 0x2D7 JUMPI PUSH0 PUSH0 REVERT JUMPDEST DUP1 PUSH4 0x13CF08B EQ PUSH2 0x199 JUMPI DUP1 PUSH4 0x79DDD11 EQ PUSH2 0x1D3 JUMPI DUP1 PUSH4 0x89E35B8 EQ PUSH2 0x1E8 JUMPI DUP1 PUSH4 0x16392372 EQ PUSH2 0x211 JUMPI DUP1 PUSH4 0x1B408934 EQ PUSH2 0x234 JUMPI DUP1 PUSH4 0x214C3A89 EQ PUSH2 0x26C JUMPI JUMPDEST PUSH0 PUSH0 REVERT JUMPDEST CALLVALUE DUP1 ISZERO PUSH2 0x1A4 JUMPI PUSH0 PUSH0 REVERT JUMPDEST POP PUSH2 0x1B8 PUSH2 0x1B3 CALLDATASIZE PUSH1 0x4 PUSH2 0x1B84 JUMP JUMPDEST PUSH2 0x54A JUMP JUMPDEST PUSH1 0x40 MLOAD PUSH2 0x1CA SWAP7 SWAP6 SWAP5 SWAP4 SWAP3 SWAP2 SWAP1 PUSH2 0x1BC9 JUMP JUMPDEST PUSH1 0x40 MLOAD DUP1 SWAP2 SUB SWAP1 RETURN JUMPDEST PUSH2 0x1E6 PUSH2 0x1E1 CALLDATASIZE PUSH1 0x4 PUSH2 0x1CB3 JUMP JUMPDEST PUSH2 0x624 JUMP JUMPDEST STOP JUMPDEST CALLVALUE DUP1 ISZERO PUSH2 0x1F3 JUMPI PUSH0 PUSH0 REVERT JUMPDEST POP PUSH1 0x3A SLOAD PUSH2 0x201 SWAP1 PUSH1 0xFF AND DUP2 JUMP JUMPDEST PUSH1 0x40 MLOAD SWAP1 ISZERO ISZERO DUP2 MSTORE PUSH1 0x20 ADD PUSH2 0x1CA JUMP JUMPDEST CALLVALUE DUP1 ISZERO PUSH2 0x21C JUMPI PUSH0 PUSH0 REVERT JUMPDEST POP PUSH2 0x226 PUSH1 0x3B SLOAD DUP2 JUMP JUMPDEST PUSH1 0x40 MLOAD SWAP1 DUP2 MSTORE PUSH1 0x20 ADD PUSH2 0x1CA JUMP JUMPDEST CALLVALUE DUP1 ISZERO PUSH2 0x23F JUMPI PUSH0 PUSH0 REVERT JUMPDEST POP PUSH1 0x1 SLOAD PUSH2 0x257 SWAP1 PUSH1 0x1 PUSH1 0xA0 SHL SWAP1 DIV PUSH4 0xFFFFFFFF AND DUP2 JUMP JUMPDEST PUSH1 0x40 MLOAD PUSH4 0xFFFFFFFF SWAP1 SWAP2 AND DUP2 MSTORE PUSH1 0x20 ADD PUSH2 0x1CA JUMP JUMPDEST CALLVALUE DUP1 ISZERO PUSH2 0x277 JUMPI PUSH0 PUSH0 REVERT JUMPDEST POP PUSH2 0x28B PUSH2 0x286 CALLDATASIZE PUSH1 0x4 PUSH2 0x1B84 JUMP JUMPDEST PUSH2 0x9AF JUMP JUMPDEST PUSH1 0x40 MLOAD PUSH1 0x1 PUSH1 0x1 PUSH1 0xA0 SHL SUB SWAP1 SWAP2 AND DUP2 MSTORE PUSH1 0x20 ADD PUSH2 0x1CA JUMP JUMPDEST CALLVALUE DUP1 ISZERO PUSH2 0x2AE JUMPI PUSH0 PUSH0 REVERT JUMPDEST POP PUSH2 0x1E6 PUSH2 0x2BD CALLDATASIZE PUSH1 0x4 PUSH2 0x1D58 JUMP JUMPDEST PUSH2 0x9CE JUMP JUMPDEST CALLVALUE DUP1 ISZERO PUSH2 0x2CD JUMPI PUSH0 PUSH0 REVERT JUMPDEST POP PUSH2 0x257 PUSH2 0x3E8 DUP2 JUMP JUMPDEST CALLVALUE DUP1 ISZERO PUSH2 0x2E2 JUMPI PUSH0 PUSH0 REVERT JUMPDEST POP PUSH2 0x226 PUSH3 0x127500 DUP2 JUMP JUMPDEST CALLVALUE DUP1 ISZERO PUSH2 0x2F8 JUMPI PUSH0 PUSH0 REVERT JUMPDEST POP PUSH2 0x226 PUSH3 0x93A80 DUP2 JUMP JUMPDEST CALLVALUE DUP1 ISZERO PUSH2 0x30E JUMPI PUSH0 PUSH0 REVERT JUMPDEST POP PUSH1 0x1 SLOAD PUSH2 0x28B SWAP1 PUSH1 0x1 PUSH1 0x1 PUSH1 0xA0 SHL SUB AND DUP2 JUMP JUMPDEST CALLVALUE DUP1 ISZERO PUSH2 0x32D JUMPI PUSH0 PUSH0 REVERT JUMPDEST POP PUSH2 0x226 PUSH7 0x38D7EA4C68000 DUP2 JUMP JUMPDEST CALLVALUE DUP1 ISZERO PUSH2 0x347 JUMPI PUSH0 PUSH0 REVERT JUMPDEST POP PUSH2 0x35B PUSH2 0x356 CALLDATASIZE PUSH1 0x4 PUSH2 0x1B84 JUMP JUMPDEST PUSH2 0xDF7 JUMP JUMPDEST PUSH1 0x40 MLOAD PUSH2 0x1CA SWAP2 SWAP1 PUSH2 0x1D8D JUMP JUMPDEST CALLVALUE DUP1 ISZERO PUSH2 0x373 JUMPI PUSH0 PUSH0 REVERT JUMPDEST POP PUSH2 0x226 PUSH32 0x0 DUP2 JUMP JUMPDEST CALLVALUE DUP1 ISZERO PUSH2 0x3A6 JUMPI PUSH0 PUSH0 REVERT JUMPDEST POP PUSH1 0x3A SLOAD PUSH2 0x28B SWAP1 PUSH2 0x100 SWAP1 DIV PUSH1 0x1 PUSH1 0x1 PUSH1 0xA0 SHL SUB AND DUP2 JUMP JUMPDEST CALLVALUE DUP1 ISZERO PUSH2 0x3CA JUMPI PUSH0 PUSH0 REVERT JUMPDEST POP PUSH2 0x201 PUSH2 0x3D9 CALLDATASIZE PUSH1 0x4 PUSH2 0x1B84 JUMP JUMPDEST PUSH0 SWAP1 DUP2 MSTORE PUSH1 0x6 PUSH1 0x20 MSTORE PUSH1 0x40 SWAP1 KECCAK256 SLOAD PUSH1 0xFF AND SWAP1 JUMP JUMPDEST CALLVALUE DUP1 ISZERO PUSH2 0x3F8 JUMPI PUSH0 PUSH0 REVERT JUMPDEST POP PUSH2 0x401 PUSH2 0x10A5 JUMP JUMPDEST PUSH1 0x40 MLOAD PUSH2 0x1CA SWAP2 SWAP1 PUSH2 0x1E2F JUMP JUMPDEST CALLVALUE DUP1 ISZERO PUSH2 0x419 JUMPI PUSH0 PUSH0 REVERT JUMPDEST POP PUSH2 0x1E6 PUSH2 0x1146 JUMP JUMPDEST CALLVALUE DUP1 ISZERO PUSH2 0x42D JUMPI PUSH0 PUSH0 REVERT JUMPDEST POP PUSH2 0x1E6 PUSH2 0x43C CALLDATASIZE PUSH1 0x4 PUSH2 0x1E55 JUMP JUMPDEST PUSH2 0x12BE JUMP JUMPDEST CALLVALUE DUP1 ISZERO PUSH2 0x44C JUMPI PUSH0 PUSH0 REVERT JUMPDEST POP PUSH2 0x226 PUSH1 0x5 SLOAD DUP2 JUMP JUMPDEST CALLVALUE DUP1 ISZERO PUSH2 0x461 JUMPI PUSH0 PUSH0 REVERT JUMPDEST POP PUSH2 0x28B PUSH2 0x470 CALLDATASIZE PUSH1 0x4 PUSH2 0x1B84 JUMP JUMPDEST PUSH2 0x15B2 JUMP JUMPDEST CALLVALUE DUP1 ISZERO PUSH2 0x480 JUMPI PUSH0 PUSH0 REVERT JUMPDEST POP PUSH2 0x257 PUSH1 0xA DUP2 JUMP JUMPDEST CALLVALUE DUP1 ISZERO PUSH2 0x494 JUMPI PUSH0 PUSH0 REVERT JUMPDEST POP PUSH2 0x226 PUSH0 SLOAD DUP2 JUMP JUMPDEST CALLVALUE DUP1 ISZERO PUSH2 0x4A8 JUMPI PUSH0 PUSH0 REVERT JUMPDEST POP PUSH2 0x226 PUSH2 0x4B7 CALLDATASIZE PUSH1 0x4 PUSH2 0x1EE1 JUMP JUMPDEST PUSH1 0x1 PUSH1 0x1 PUSH1 0xA0 SHL SUB AND PUSH0 SWAP1 DUP2 MSTORE PUSH1 0x7 PUSH1 0x20 MSTORE PUSH1 0x40 SWAP1 KECCAK256 SLOAD SWAP1 JUMP JUMPDEST CALLVALUE DUP1 ISZERO PUSH2 0x4DC JUMPI PUSH0 PUSH0 REVERT JUMPDEST POP PUSH2 0x4E5 PUSH1 0x32 DUP2 JUMP JUMPDEST PUSH1 0x40 MLOAD PUSH1 0xFF SWAP1 SWAP2 AND DUP2 MSTORE PUSH1 0x20 ADD PUSH2 0x1CA JUMP JUMPDEST CALLVALUE DUP1 ISZERO PUSH2 0x502 JUMPI PUSH0 PUSH0 REVERT JUMPDEST POP PUSH2 0x516 PUSH2 0x511 CALLDATASIZE PUSH1 0x4 PUSH2 0x1EE1 JUMP JUMPDEST PUSH2 0x15DA JUMP JUMPDEST PUSH1 0x40 MLOAD PUSH2 0x1CA SWAP8 SWAP7 SWAP6 SWAP5 SWAP4 SWAP3 SWAP2 SWAP1 PUSH2 0x1F01 JUMP JUMPDEST CALLVALUE DUP1 ISZERO PUSH2 0x534 JUMPI PUSH0 PUSH0 REVERT JUMPDEST POP PUSH2 0x53D PUSH2 0x17AC JUMP JUMPDEST PUSH1 0x40 MLOAD PUSH2 0x1CA SWAP2 SWAP1 PUSH2 0x1F60 JUMP JUMPDEST PUSH1 0x4 DUP2 DUP2 SLOAD DUP2 LT PUSH2 0x559 JUMPI PUSH0 DUP1 REVERT JUMPDEST PUSH0 SWAP2 DUP3 MSTORE PUSH1 0x20 SWAP1 SWAP2 KECCAK256 PUSH1 0x7 SWAP1 SWAP2 MUL ADD DUP1 SLOAD PUSH1 0x1 DUP3 ADD DUP1 SLOAD PUSH1 0x1 PUSH1 0x1 PUSH1 0xA0 SHL SUB SWAP1 SWAP3 AND SWAP4 POP SWAP1 PUSH2 0x587 SWAP1 PUSH2 0x1F9A JUMP JUMPDEST DUP1 PUSH1 0x1F ADD PUSH1 0x20 DUP1 SWAP2 DIV MUL PUSH1 0x20 ADD PUSH1 0x40 MLOAD SWAP1 DUP2 ADD PUSH1 0x40 MSTORE DUP1 SWAP3 SWAP2 SWAP1 DUP2 DUP2 MSTORE PUSH1 0x20 ADD DUP3 DUP1 SLOAD PUSH2 0x5B3 SWAP1 PUSH2 0x1F9A JUMP JUMPDEST DUP1 ISZERO PUSH2 0x5FE JUMPI DUP1 PUSH1 0x1F LT PUSH2 0x5D5 JUMPI PUSH2 0x100 DUP1 DUP4 SLOAD DIV MUL DUP4 MSTORE SWAP2 PUSH1 0x20 ADD SWAP2 PUSH2 0x5FE JUMP JUMPDEST DUP3 ADD SWAP2 SWAP1 PUSH0 MSTORE PUSH1 0x20 PUSH0 KECCAK256 SWAP1 JUMPDEST DUP2 SLOAD DUP2 MSTORE SWAP1 PUSH1 0x1 ADD SWAP1 PUSH1 0x20 ADD DUP1 DUP4 GT PUSH2 0x5E1 JUMPI DUP3 SWAP1 SUB PUSH1 0x1F AND DUP3 ADD SWAP2 JUMPDEST POP POP POP POP PUSH1 0x2 DUP4 ADD SLOAD PUSH1 0x3 DUP5 ADD SLOAD PUSH1 0x4 DUP6 ADD SLOAD PUSH1 0x5 SWAP1 SWAP6 ADD SLOAD SWAP4 SWAP5 SWAP2 SWAP4 SWAP1 SWAP3 POP PUSH1 0xFF AND DUP7 JUMP JUMPDEST PUSH0 DUP4 MLOAD GT DUP1 ISZERO PUSH2 0x636 JUMPI POP PUSH1 0x64 DUP4 MLOAD GT ISZERO JUMPDEST PUSH2 0x676 JUMPI PUSH1 0x40 MLOAD PUSH3 0x461BCD PUSH1 0xE5 SHL DUP2 MSTORE PUSH1 0x20 PUSH1 0x4 DUP3 ADD MSTORE PUSH1 0xC PUSH1 0x24 DUP3 ADD MSTORE PUSH12 0x496E76616C6964206E616D65 PUSH1 0xA0 SHL PUSH1 0x44 DUP3 ADD MSTORE PUSH1 0x64 ADD JUMPDEST PUSH1 0x40 MLOAD DUP1 SWAP2 SUB SWAP1 REVERT JUMPDEST PUSH0 DUP3 MLOAD GT DUP1 ISZERO PUSH2 0x689 JUMPI POP PUSH2 0x3E8 DUP3 MLOAD GT ISZERO JUMPDEST PUSH2 0x6C3 JUMPI PUSH1 0x40 MLOAD PUSH3 0x461BCD PUSH1 0xE5 SHL DUP2 MSTORE PUSH1 0x20 PUSH1 0x4 DUP3 ADD MSTORE PUSH1 0xB PUSH1 0x24 DUP3 ADD MSTORE PUSH11 0x496E76616C69642062696F PUSH1 0xA8 SHL PUSH1 0x44 DUP3 ADD MSTORE PUSH1 0x64 ADD PUSH2 0x66D JUMP JUMPDEST PUSH0 DUP2 MLOAD GT DUP1 ISZERO PUSH2 0x6D6 JUMPI POP PUSH2 0x7D0 DUP2 MLOAD GT ISZERO JUMPDEST PUSH2 0x714 JUMPI PUSH1 0x40 MLOAD PUSH3 0x461BCD PUSH1 0xE5 SHL DUP2 MSTORE PUSH1 0x20 PUSH1 0x4 DUP3 ADD MSTORE PUSH1 0xF PUSH1 0x24 DUP3 ADD MSTORE PUSH15 0x496E76616C69642077656273697465 PUSH1 0x88 SHL PUSH1 0x44 DUP3 ADD MSTORE PUSH1 0x64 ADD PUSH2 0x66D JUMP JUMPDEST CALLER PUSH2 0x752 JUMPI PUSH1 0x40 MLOAD PUSH3 0x461BCD PUSH1 0xE5 SHL DUP2 MSTORE PUSH1 0x20 PUSH1 0x4 DUP3 ADD MSTORE PUSH1 0xE PUSH1 0x24 DUP3 ADD MSTORE PUSH14 0x24B73B30B634B21039B2B73232B9 PUSH1 0x91 SHL PUSH1 0x44 DUP3 ADD MSTORE PUSH1 0x64 ADD PUSH2 0x66D JUMP JUMPDEST PUSH7 0x38D7EA4C68000 CALLVALUE LT ISZERO PUSH2 0x7A9 JUMPI PUSH1 0x40 MLOAD PUSH3 0x461BCD PUSH1 0xE5 SHL DUP2 MSTORE PUSH1 0x20 PUSH1 0x4 DUP3 ADD MSTORE PUSH1 0x1D PUSH1 0x24 DUP3 ADD MSTORE PUSH32 0x496E73756666696369656E7420726567697374726174696F6E20666565000000 PUSH1 0x44 DUP3 ADD MSTORE PUSH1 0x64 ADD PUSH2 0x66D JUMP JUMPDEST PUSH0 PUSH2 0x7B2 PUSH2 0x10A5 JUMP JUMPDEST PUSH1 0x4 DUP2 GT ISZERO PUSH2 0x7C3 JUMPI PUSH2 0x7C3 PUSH2 0x1E1B JUMP JUMPDEST EQ PUSH2 0x821 JUMPI PUSH1 0x40 MLOAD PUSH3 0x461BCD PUSH1 0xE5 SHL DUP2 MSTORE PUSH1 0x20 PUSH1 0x4 DUP3 ADD MSTORE PUSH1 0x28 PUSH1 0x24 DUP3 ADD MSTORE PUSH32 0x43616E64696461746520726567697374726174696F6E20706572696F64206861 PUSH1 0x44 DUP3 ADD MSTORE PUSH8 0x399032B73232B217 PUSH1 0xC1 SHL PUSH1 0x64 DUP3 ADD MSTORE PUSH1 0x84 ADD PUSH2 0x66D JUMP JUMPDEST CALLER PUSH0 SWAP1 DUP2 MSTORE PUSH1 0x3 PUSH1 0x20 DUP2 SWAP1 MSTORE PUSH1 0x40 SWAP1 SWAP2 KECCAK256 ADD SLOAD ISZERO PUSH2 0x876 JUMPI PUSH1 0x40 MLOAD PUSH3 0x461BCD PUSH1 0xE5 SHL DUP2 MSTORE PUSH1 0x20 PUSH1 0x4 DUP3 ADD MSTORE PUSH1 0x12 PUSH1 0x24 DUP3 ADD MSTORE PUSH18 0x105B1C9958591E481C9959DA5CDD195C9959 PUSH1 0x72 SHL PUSH1 0x44 DUP3 ADD MSTORE PUSH1 0x64 ADD PUSH2 0x66D JUMP JUMPDEST PUSH1 0x40 DUP1 MLOAD PUSH1 0xE0 DUP2 ADD DUP3 MSTORE DUP5 DUP2 MSTORE PUSH1 0x20 DUP1 DUP3 ADD DUP6 SWAP1 MSTORE DUP2 DUP4 ADD DUP5 SWAP1 MSTORE TIMESTAMP PUSH1 0x60 DUP4 ADD MSTORE PUSH0 PUSH1 0x80 DUP4 ADD DUP2 SWAP1 MSTORE PUSH1 0xA0 DUP4 ADD DUP2 SWAP1 MSTORE PUSH1 0xC0 DUP4 ADD DUP2 SWAP1 MSTORE CALLER DUP2 MSTORE PUSH1 0x3 SWAP1 SWAP2 MSTORE SWAP2 SWAP1 SWAP2 KECCAK256 DUP2 MLOAD DUP2 SWAP1 PUSH2 0x8C7 SWAP1 DUP3 PUSH2 0x201E JUMP JUMPDEST POP PUSH1 0x20 DUP3 ADD MLOAD PUSH1 0x1 DUP3 ADD SWAP1 PUSH2 0x8DC SWAP1 DUP3 PUSH2 0x201E JUMP JUMPDEST POP PUSH1 0x40 DUP3 ADD MLOAD PUSH1 0x2 DUP3 ADD SWAP1 PUSH2 0x8F1 SWAP1 DUP3 PUSH2 0x201E JUMP JUMPDEST POP PUSH1 0x60 DUP3 ADD MLOAD PUSH1 0x3 DUP3 ADD SSTORE PUSH1 0x80 DUP3 ADD MLOAD PUSH1 0x4 DUP3 ADD SSTORE PUSH1 0xA0 DUP3 ADD MLOAD PUSH1 0x5 DUP3 ADD DUP1 SLOAD PUSH1 0xFF NOT AND SWAP2 ISZERO ISZERO SWAP2 SWAP1 SWAP2 OR SWAP1 SSTORE PUSH1 0xC0 SWAP1 SWAP2 ADD MLOAD PUSH1 0x6 SWAP1 SWAP2 ADD SSTORE PUSH1 0x2 DUP1 SLOAD PUSH1 0x1 DUP2 ADD DUP3 SSTORE PUSH0 SWAP2 SWAP1 SWAP2 MSTORE PUSH32 0x405787FA12A823E0F2B7631CC41B3BA8828B3321CA811111FA75CD3AA3BB5ACE ADD DUP1 SLOAD CALLER PUSH1 0x1 PUSH1 0x1 PUSH1 0xA0 SHL SUB NOT SWAP1 SWAP2 AND DUP2 OR SWAP1 SWAP2 SSTORE PUSH1 0x40 MLOAD PUSH31 0xD6FEA68F71A20D8149F227F87E8CF7E6AD320B2DAD4B45465B14599B80EE09 SWAP1 PUSH2 0x9A2 SWAP1 DUP7 SWAP1 DUP7 SWAP1 DUP7 SWAP1 PUSH2 0x20D9 JUMP JUMPDEST PUSH1 0x40 MLOAD DUP1 SWAP2 SUB SWAP1 LOG2 POP POP POP JUMP JUMPDEST PUSH1 0x8 DUP2 PUSH1 0x32 DUP2 LT PUSH2 0x9BE JUMPI PUSH0 DUP1 REVERT JUMPDEST ADD SLOAD PUSH1 0x1 PUSH1 0x1 PUSH1 0xA0 SHL SUB AND SWAP1 POP DUP2 JUMP JUMPDEST PUSH1 0x1 SLOAD PUSH1 0x1 PUSH1 0x1 PUSH1 0xA0 SHL SUB AND CALLER EQ PUSH2 0xA21 JUMPI PUSH1 0x40 MLOAD PUSH3 0x461BCD PUSH1 0xE5 SHL DUP2 MSTORE PUSH1 0x20 PUSH1 0x4 DUP3 ADD MSTORE PUSH1 0x16 PUSH1 0x24 DUP3 ADD MSTORE PUSH22 0x139BDD08185D5D1A1BDC9A5E9959081B995D5D1C985B PUSH1 0x52 SHL PUSH1 0x44 DUP3 ADD MSTORE PUSH1 0x64 ADD PUSH2 0x66D JUMP JUMPDEST PUSH0 PUSH2 0xA2A PUSH2 0x10A5 JUMP JUMPDEST PUSH1 0x4 DUP2 GT ISZERO PUSH2 0xA3B JUMPI PUSH2 0xA3B PUSH2 0x1E1B JUMP JUMPDEST EQ PUSH2 0xA88 JUMPI PUSH1 0x40 MLOAD PUSH3 0x461BCD PUSH1 0xE5 SHL DUP2 MSTORE PUSH1 0x20 PUSH1 0x4 DUP3 ADD MSTORE PUSH1 0x1E PUSH1 0x24 DUP3 ADD MSTORE PUSH32 0x566F74657220616464696E6720706572696F642068617320656E6465642E0000 PUSH1 0x44 DUP3 ADD MSTORE PUSH1 0x64 ADD PUSH2 0x66D JUMP JUMPDEST PUSH1 0x1 SLOAD PUSH2 0x3E8 PUSH1 0x1 PUSH1 0xA0 SHL SWAP1 SWAP2 DIV PUSH4 0xFFFFFFFF AND LT PUSH2 0xAF3 JUMPI PUSH1 0x40 MLOAD PUSH3 0x461BCD PUSH1 0xE5 SHL DUP2 MSTORE PUSH1 0x20 PUSH1 0x4 DUP3 ADD MSTORE PUSH1 0x21 PUSH1 0x24 DUP3 ADD MSTORE PUSH32 0x4D6178696D756D206E756D626572206F6620766F746572732072656163686564 PUSH1 0x44 DUP3 ADD MSTORE PUSH1 0x17 PUSH1 0xF9 SHL PUSH1 0x64 DUP3 ADD MSTORE PUSH1 0x84 ADD PUSH2 0x66D JUMP JUMPDEST PUSH0 JUMPDEST PUSH1 0xA PUSH1 0xFF DUP3 AND LT ISZERO PUSH2 0xBD6 JUMPI PUSH1 0x6 PUSH0 DUP5 DUP4 PUSH1 0xFF AND PUSH1 0xA DUP2 LT PUSH2 0xB19 JUMPI PUSH2 0xB19 PUSH2 0x211B JUMP JUMPDEST PUSH1 0x20 SWAP1 DUP2 MUL SWAP2 SWAP1 SWAP2 ADD CALLDATALOAD DUP3 MSTORE DUP2 ADD SWAP2 SWAP1 SWAP2 MSTORE PUSH1 0x40 ADD PUSH0 KECCAK256 SLOAD PUSH1 0xFF AND ISZERO PUSH2 0xB81 JUMPI PUSH1 0x40 MLOAD PUSH3 0x461BCD PUSH1 0xE5 SHL DUP2 MSTORE PUSH1 0x20 PUSH1 0x4 DUP3 ADD MSTORE PUSH1 0x1D PUSH1 0x24 DUP3 ADD MSTORE PUSH32 0x566F746572206861736820616C72656164792072656769737465726564000000 PUSH1 0x44 DUP3 ADD MSTORE PUSH1 0x64 ADD PUSH2 0x66D JUMP JUMPDEST PUSH1 0x1 PUSH1 0x6 PUSH0 DUP6 DUP5 PUSH1 0xFF AND PUSH1 0xA DUP2 LT PUSH2 0xB9B JUMPI PUSH2 0xB9B PUSH2 0x211B JUMP JUMPDEST PUSH1 0x20 MUL ADD CALLDATALOAD DUP2 MSTORE PUSH1 0x20 ADD SWAP1 DUP2 MSTORE PUSH1 0x20 ADD PUSH0 KECCAK256 PUSH0 PUSH2 0x100 EXP DUP2 SLOAD DUP2 PUSH1 0xFF MUL NOT AND SWAP1 DUP4 ISZERO ISZERO MUL OR SWAP1 SSTORE POP DUP1 DUP1 PUSH2 0xBCE SWAP1 PUSH2 0x2143 JUMP JUMPDEST SWAP2 POP POP PUSH2 0xAF5 JUMP JUMPDEST POP PUSH0 JUMPDEST PUSH1 0xA PUSH1 0xFF DUP3 AND LT ISZERO PUSH2 0xD5B JUMPI PUSH0 DUP3 PUSH1 0xFF DUP4 AND PUSH1 0xA DUP2 LT PUSH2 0xBFB JUMPI PUSH2 0xBFB PUSH2 0x211B JUMP JUMPDEST PUSH1 0x20 MUL ADD PUSH1 0x20 DUP2 ADD SWAP1 PUSH2 0xC0E SWAP2 SWAP1 PUSH2 0x1EE1 JUMP JUMPDEST PUSH1 0x1 PUSH1 0x1 PUSH1 0xA0 SHL SUB AND SUB PUSH2 0xC5C JUMPI PUSH1 0x40 MLOAD PUSH3 0x461BCD PUSH1 0xE5 SHL DUP2 MSTORE PUSH1 0x20 PUSH1 0x4 DUP3 ADD MSTORE PUSH1 0x15 PUSH1 0x24 DUP3 ADD MSTORE PUSH21 0x496E76616C696420766F7465722061646472657373 PUSH1 0x58 SHL PUSH1 0x44 DUP3 ADD MSTORE PUSH1 0x64 ADD PUSH2 0x66D JUMP JUMPDEST PUSH1 0x7 PUSH0 DUP4 DUP4 PUSH1 0xFF AND PUSH1 0xA DUP2 LT PUSH2 0xC74 JUMPI PUSH2 0xC74 PUSH2 0x211B JUMP JUMPDEST PUSH1 0x20 MUL ADD PUSH1 0x20 DUP2 ADD SWAP1 PUSH2 0xC87 SWAP2 SWAP1 PUSH2 0x1EE1 JUMP JUMPDEST PUSH1 0x1 PUSH1 0x1 PUSH1 0xA0 SHL SUB AND DUP2 MSTORE PUSH1 0x20 DUP2 ADD SWAP2 SWAP1 SWAP2 MSTORE PUSH1 0x40 ADD PUSH0 KECCAK256 SLOAD ISZERO PUSH2 0xD03 JUMPI PUSH1 0x40 MLOAD PUSH3 0x461BCD PUSH1 0xE5 SHL DUP2 MSTORE PUSH1 0x20 PUSH1 0x4 DUP3 ADD MSTORE PUSH1 0x2D PUSH1 0x24 DUP3 ADD MSTORE PUSH32 0x416464726573737320616C726561647920726567697374657265642E20526567 PUSH1 0x44 DUP3 ADD MSTORE PUSH13 0x697374726172204552524F5221 PUSH1 0x98 SHL PUSH1 0x64 DUP3 ADD MSTORE PUSH1 0x84 ADD PUSH2 0x66D JUMP JUMPDEST PUSH1 0x1 PUSH1 0x7 PUSH0 DUP5 DUP5 PUSH1 0xFF AND PUSH1 0xA DUP2 LT PUSH2 0xD1D JUMPI PUSH2 0xD1D PUSH2 0x211B JUMP JUMPDEST PUSH1 0x20 MUL ADD PUSH1 0x20 DUP2 ADD SWAP1 PUSH2 0xD30 SWAP2 SWAP1 PUSH2 0x1EE1 JUMP JUMPDEST PUSH1 0x1 PUSH1 0x1 PUSH1 0xA0 SHL SUB AND DUP2 MSTORE PUSH1 0x20 DUP2 ADD SWAP2 SWAP1 SWAP2 MSTORE PUSH1 0x40 ADD PUSH0 KECCAK256 SSTORE DUP1 PUSH2 0xD53 DUP2 PUSH2 0x2143 JUMP JUMPDEST SWAP2 POP POP PUSH2 0xBD9 JUMP JUMPDEST POP PUSH1 0xA PUSH1 0x1 PUSH1 0x14 DUP3 DUP3 DUP3 SWAP1 SLOAD SWAP1 PUSH2 0x100 EXP SWAP1 DIV PUSH4 0xFFFFFFFF AND PUSH2 0xD7E SWAP2 SWAP1 PUSH2 0x2161 JUMP JUMPDEST SWAP3 POP PUSH2 0x100 EXP DUP2 SLOAD DUP2 PUSH4 0xFFFFFFFF MUL NOT AND SWAP1 DUP4 PUSH4 0xFFFFFFFF AND MUL OR SWAP1 SSTORE POP DUP1 PUSH1 0x40 MLOAD PUSH2 0xDAA SWAP2 SWAP1 PUSH2 0x217D JUMP JUMPDEST PUSH1 0x40 MLOAD SWAP1 DUP2 SWAP1 SUB DUP2 KECCAK256 PUSH1 0x1 SLOAD PUSH1 0x1 PUSH1 0xA0 SHL SWAP1 DIV PUSH4 0xFFFFFFFF AND DUP3 MSTORE SWAP1 PUSH32 0x5ECF71B87B223B4E8C4D19850B2C7A727D326E44EDA6530FE642B505FF2C4F94 SWAP1 PUSH1 0x20 ADD PUSH1 0x40 MLOAD DUP1 SWAP2 SUB SWAP1 LOG2 POP POP JUMP JUMPDEST PUSH2 0xE35 PUSH1 0x40 MLOAD DUP1 PUSH1 0xE0 ADD PUSH1 0x40 MSTORE DUP1 PUSH1 0x60 DUP2 MSTORE PUSH1 0x20 ADD PUSH1 0x60 DUP2 MSTORE PUSH1 0x20 ADD PUSH1 0x60 DUP2 MSTORE PUSH1 0x20 ADD PUSH0 DUP2 MSTORE PUSH1 0x20 ADD PUSH0 DUP2 MSTORE PUSH1 0x20 ADD PUSH0 ISZERO ISZERO DUP2 MSTORE PUSH1 0x20 ADD PUSH0 DUP2 MSTORE POP SWAP1 JUMP JUMPDEST PUSH1 0x2 SLOAD DUP3 LT PUSH2 0xE7D JUMPI PUSH1 0x40 MLOAD PUSH3 0x461BCD PUSH1 0xE5 SHL DUP2 MSTORE PUSH1 0x20 PUSH1 0x4 DUP3 ADD MSTORE PUSH1 0x14 PUSH1 0x24 DUP3 ADD MSTORE PUSH20 0x125B9D985B1A590810D85B991A59185D19481251 PUSH1 0x62 SHL PUSH1 0x44 DUP3 ADD MSTORE PUSH1 0x64 ADD PUSH2 0x66D JUMP JUMPDEST PUSH1 0x3 PUSH0 PUSH1 0x2 DUP5 DUP2 SLOAD DUP2 LT PUSH2 0xE93 JUMPI PUSH2 0xE93 PUSH2 0x211B JUMP JUMPDEST PUSH0 SWAP2 DUP3 MSTORE PUSH1 0x20 DUP1 DUP4 KECCAK256 SWAP1 SWAP2 ADD SLOAD PUSH1 0x1 PUSH1 0x1 PUSH1 0xA0 SHL SUB AND DUP4 MSTORE DUP3 ADD SWAP3 SWAP1 SWAP3 MSTORE PUSH1 0x40 SWAP1 DUP2 ADD SWAP1 SWAP2 KECCAK256 DUP2 MLOAD PUSH1 0xE0 DUP2 ADD SWAP1 SWAP3 MSTORE DUP1 SLOAD DUP3 SWAP1 DUP3 SWAP1 PUSH2 0xED1 SWAP1 PUSH2 0x1F9A JUMP JUMPDEST DUP1 PUSH1 0x1F ADD PUSH1 0x20 DUP1 SWAP2 DIV MUL PUSH1 0x20 ADD PUSH1 0x40 MLOAD SWAP1 DUP2 ADD PUSH1 0x40 MSTORE DUP1 SWAP3 SWAP2 SWAP1 DUP2 DUP2 MSTORE PUSH1 0x20 ADD DUP3 DUP1 SLOAD PUSH2 0xEFD SWAP1 PUSH2 0x1F9A JUMP JUMPDEST DUP1 ISZERO PUSH2 0xF48 JUMPI DUP1 PUSH1 0x1F LT PUSH2 0xF1F JUMPI PUSH2 0x100 DUP1 DUP4 SLOAD DIV MUL DUP4 MSTORE SWAP2 PUSH1 0x20 ADD SWAP2 PUSH2 0xF48 JUMP JUMPDEST DUP3 ADD SWAP2 SWAP1 PUSH0 MSTORE PUSH1 0x20 PUSH0 KECCAK256 SWAP1 JUMPDEST DUP2 SLOAD DUP2 MSTORE SWAP1 PUSH1 0x1 ADD SWAP1 PUSH1 0x20 ADD DUP1 DUP4 GT PUSH2 0xF2B JUMPI DUP3 SWAP1 SUB PUSH1 0x1F AND DUP3 ADD SWAP2 JUMPDEST POP POP POP POP POP DUP2 MSTORE PUSH1 0x20 ADD PUSH1 0x1 DUP3 ADD DUP1 SLOAD PUSH2 0xF61 SWAP1 PUSH2 0x1F9A JUMP JUMPDEST DUP1 PUSH1 0x1F ADD PUSH1 0x20 DUP1 SWAP2 DIV MUL PUSH1 0x20 ADD PUSH1 0x40 MLOAD SWAP1 DUP2 ADD PUSH1 0x40 MSTORE DUP1 SWAP3 SWAP2 SWAP1 DUP2 DUP2 MSTORE PUSH1 0x20 ADD DUP3 DUP1 SLOAD PUSH2 0xF8D SWAP1 PUSH2 0x1F9A JUMP JUMPDEST DUP1 ISZERO PUSH2 0xFD8 JUMPI DUP1 PUSH1 0x1F LT PUSH2 0xFAF JUMPI PUSH2 0x100 DUP1 DUP4 SLOAD DIV MUL DUP4 MSTORE SWAP2 PUSH1 0x20 ADD SWAP2 PUSH2 0xFD8 JUMP JUMPDEST DUP3 ADD SWAP2 SWAP1 PUSH0 MSTORE PUSH1 0x20 PUSH0 KECCAK256 SWAP1 JUMPDEST DUP2 SLOAD DUP2 MSTORE SWAP1 PUSH1 0x1 ADD SWAP1 PUSH1 0x20 ADD DUP1 DUP4 GT PUSH2 0xFBB JUMPI DUP3 SWAP1 SUB PUSH1 0x1F AND DUP3 ADD SWAP2 JUMPDEST POP POP POP POP POP DUP2 MSTORE PUSH1 0x20 ADD PUSH1 0x2 DUP3 ADD DUP1 SLOAD PUSH2 0xFF1 SWAP1 PUSH2 0x1F9A JUMP JUMPDEST DUP1 PUSH1 0x1F ADD PUSH1 0x20 DUP1 SWAP2 DIV MUL PUSH1 0x20 ADD PUSH1 0x40 MLOAD SWAP1 DUP2 ADD PUSH1 0x40 MSTORE DUP1 SWAP3 SWAP2 SWAP1 DUP2 DUP2 MSTORE PUSH1 0x20 ADD DUP3 DUP1 SLOAD PUSH2 0x101D SWAP1 PUSH2 0x1F9A JUMP JUMPDEST DUP1 ISZERO PUSH2 0x1068 JUMPI DUP1 PUSH1 0x1F LT PUSH2 0x103F JUMPI PUSH2 0x100 DUP1 DUP4 SLOAD DIV MUL DUP4 MSTORE SWAP2 PUSH1 0x20 ADD SWAP2 PUSH2 0x1068 JUMP JUMPDEST DUP3 ADD SWAP2 SWAP1 PUSH0 MSTORE PUSH1 0x20 PUSH0 KECCAK256 SWAP1 JUMPDEST DUP2 SLOAD DUP2 MSTORE SWAP1 PUSH1 0x1 ADD SWAP1 PUSH1 0x20 ADD DUP1 DUP4 GT PUSH2 0x104B JUMPI DUP3 SWAP1 SUB PUSH1 0x1F AND DUP3 ADD SWAP2 JUMPDEST POP POP POP SWAP2 DUP4 MSTORE POP POP PUSH1 0x3 DUP3 ADD SLOAD PUSH1 0x20 DUP3 ADD MSTORE PUSH1 0x4 DUP3 ADD SLOAD PUSH1 0x40 DUP3 ADD MSTORE PUSH1 0x5 DUP3 ADD SLOAD PUSH1 0xFF AND ISZERO ISZERO PUSH1 0x60 DUP3 ADD MSTORE PUSH1 0x6 SWAP1 SWAP2 ADD SLOAD PUSH1 0x80 SWAP1 SWAP2 ADD MSTORE SWAP3 SWAP2 POP POP JUMP JUMPDEST PUSH0 PUSH3 0x15180 PUSH0 SLOAD PUSH2 0x10B6 SWAP2 SWAP1 PUSH2 0x21C2 JUMP JUMPDEST TIMESTAMP LT ISZERO PUSH2 0x10C2 JUMPI POP PUSH0 SWAP1 JUMP JUMPDEST PUSH0 SLOAD TIMESTAMP LT ISZERO PUSH2 0x1121 JUMPI PUSH2 0x10D7 PUSH1 0x32 PUSH1 0x2 PUSH2 0x21D5 JUMP JUMPDEST PUSH1 0xFF AND PUSH1 0x2 DUP1 SLOAD SWAP1 POP LT DUP1 PUSH2 0x10FD JUMPI POP PUSH1 0x1 SLOAD PUSH2 0x3E8 PUSH1 0x1 PUSH1 0xA0 SHL SWAP1 SWAP2 DIV PUSH4 0xFFFFFFFF AND LT JUMPDEST ISZERO PUSH2 0x111B JUMPI PUSH3 0x127500 PUSH0 SLOAD PUSH2 0x1112 SWAP2 SWAP1 PUSH2 0x21F8 JUMP JUMPDEST PUSH0 SWAP1 DUP2 SSTORE SWAP2 SWAP1 POP JUMP JUMPDEST POP PUSH1 0x1 SWAP1 JUMP JUMPDEST PUSH1 0x5 SLOAD PUSH0 SUB PUSH2 0x1130 JUMPI POP PUSH1 0x2 SWAP1 JUMP JUMPDEST PUSH1 0x5 SLOAD TIMESTAMP LT ISZERO PUSH2 0x1140 JUMPI POP PUSH1 0x3 SWAP1 JUMP JUMPDEST POP PUSH1 0x4 SWAP1 JUMP JUMPDEST PUSH1 0x3A SLOAD PUSH1 0xFF AND PUSH2 0x1188 JUMPI PUSH1 0x40 MLOAD PUSH3 0x461BCD PUSH1 0xE5 SHL DUP2 MSTORE PUSH1 0x20 PUSH1 0x4 DUP3 ADD MSTORE PUSH1 0xD PUSH1 0x24 DUP3 ADD MSTORE PUSH13 0x139BC81B195859195C881E595D PUSH1 0x9A SHL PUSH1 0x44 DUP3 ADD MSTORE PUSH1 0x64 ADD PUSH2 0x66D JUMP JUMPDEST PUSH1 0x3A SLOAD PUSH2 0x100 SWAP1 DIV PUSH1 0x1 PUSH1 0x1 PUSH1 0xA0 SHL SUB AND PUSH0 SWAP1 DUP2 MSTORE PUSH1 0x3 PUSH1 0x20 MSTORE PUSH1 0x40 SWAP1 KECCAK256 PUSH1 0x6 ADD SLOAD PUSH2 0x11B8 SWAP1 PUSH3 0x93A80 SWAP1 PUSH2 0x21F8 JUMP JUMPDEST TIMESTAMP LT ISZERO PUSH2 0x1212 JUMPI PUSH1 0x40 MLOAD PUSH3 0x461BCD PUSH1 0xE5 SHL DUP2 MSTORE PUSH1 0x20 PUSH1 0x4 DUP3 ADD MSTORE PUSH1 0x22 PUSH1 0x24 DUP3 ADD MSTORE PUSH32 0x43757272656E74206C65616465722773207465726D206E6F742066696E697368 PUSH1 0x44 DUP3 ADD MSTORE PUSH2 0x1959 PUSH1 0xF2 SHL PUSH1 0x64 DUP3 ADD MSTORE PUSH1 0x84 ADD PUSH2 0x66D JUMP JUMPDEST PUSH1 0x3B DUP1 SLOAD SWAP1 PUSH0 PUSH2 0x1221 DUP4 PUSH2 0x220B JUMP JUMPDEST SWAP2 SWAP1 POP SSTORE POP PUSH1 0x32 PUSH1 0x3B SLOAD LT PUSH2 0x1235 JUMPI PUSH0 PUSH1 0x3B SSTORE JUMPDEST PUSH1 0x8 PUSH1 0x3B SLOAD PUSH1 0x32 DUP2 LT PUSH2 0x124A JUMPI PUSH2 0x124A PUSH2 0x211B JUMP JUMPDEST ADD SLOAD PUSH1 0x3A DUP1 SLOAD PUSH2 0x100 PUSH1 0x1 PUSH1 0xA8 SHL SUB NOT AND PUSH2 0x100 PUSH1 0x1 PUSH1 0x1 PUSH1 0xA0 SHL SUB SWAP4 DUP5 AND DUP2 MUL SWAP2 SWAP1 SWAP2 OR DUP1 DUP4 SSTORE DUP2 SWAP1 DIV DUP4 AND PUSH0 SWAP1 DUP2 MSTORE PUSH1 0x3 PUSH1 0x20 MSTORE PUSH1 0x40 DUP1 DUP3 KECCAK256 TIMESTAMP PUSH1 0x6 SWAP1 SWAP2 ADD SSTORE SWAP3 SLOAD SWAP3 MLOAD SWAP2 SWAP1 SWAP3 DIV SWAP1 SWAP3 AND SWAP2 PUSH32 0x8A84BB57BF3F6ADEFAA7A35A6A5067473F78164BFC14C2F6AE8B93E5B115B35A SWAP2 SWAP1 LOG2 JUMP JUMPDEST PUSH1 0x1 PUSH2 0x12C8 PUSH2 0x10A5 JUMP JUMPDEST PUSH1 0x4 DUP2 GT ISZERO PUSH2 0x12D9 JUMPI PUSH2 0x12D9 PUSH2 0x1E1B JUMP JUMPDEST EQ PUSH2 0x131E JUMPI PUSH1 0x40 MLOAD PUSH3 0x461BCD PUSH1 0xE5 SHL DUP2 MSTORE PUSH1 0x20 PUSH1 0x4 DUP3 ADD MSTORE PUSH1 0x15 PUSH1 0x24 DUP3 ADD MSTORE PUSH21 0x4E6F7420696E20456C656374696F6E207068617365 PUSH1 0x58 SHL PUSH1 0x44 DUP3 ADD MSTORE PUSH1 0x64 ADD PUSH2 0x66D JUMP JUMPDEST PUSH1 0x2 SLOAD DUP2 GT ISZERO PUSH2 0x1365 JUMPI PUSH1 0x40 MLOAD PUSH3 0x461BCD PUSH1 0xE5 SHL DUP2 MSTORE PUSH1 0x20 PUSH1 0x4 DUP3 ADD MSTORE PUSH1 0x12 PUSH1 0x24 DUP3 ADD MSTORE PUSH18 0x125B9D985B1A59081D9BDD194818DBDD5B9D PUSH1 0x72 SHL PUSH1 0x44 DUP3 ADD MSTORE PUSH1 0x64 ADD PUSH2 0x66D JUMP JUMPDEST CALLER PUSH0 SWAP1 DUP2 MSTORE PUSH1 0x7 PUSH1 0x20 MSTORE PUSH1 0x40 SWAP1 KECCAK256 SLOAD PUSH1 0x1 EQ PUSH2 0x13D4 JUMPI PUSH1 0x40 MLOAD PUSH3 0x461BCD PUSH1 0xE5 SHL DUP2 MSTORE PUSH1 0x20 PUSH1 0x4 DUP3 ADD MSTORE PUSH1 0x28 PUSH1 0x24 DUP3 ADD MSTORE PUSH32 0x416C726561647920766F74656420283E3129206F72206E6F7420726567697374 PUSH1 0x44 DUP3 ADD MSTORE PUSH8 0x6572656420283029 PUSH1 0xC0 SHL PUSH1 0x64 DUP3 ADD MSTORE PUSH1 0x84 ADD PUSH2 0x66D JUMP JUMPDEST PUSH1 0x2 SLOAD PUSH0 SWAP1 PUSH8 0xFFFFFFFFFFFFFFFF DUP2 GT ISZERO PUSH2 0x13F1 JUMPI PUSH2 0x13F1 PUSH2 0x1C14 JUMP JUMPDEST PUSH1 0x40 MLOAD SWAP1 DUP1 DUP3 MSTORE DUP1 PUSH1 0x20 MUL PUSH1 0x20 ADD DUP3 ADD PUSH1 0x40 MSTORE DUP1 ISZERO PUSH2 0x141A JUMPI DUP2 PUSH1 0x20 ADD PUSH1 0x20 DUP3 MUL DUP1 CALLDATASIZE DUP4 CALLDATACOPY ADD SWAP1 POP JUMPDEST POP CALLER PUSH0 DUP2 DUP2 MSTORE PUSH1 0x7 PUSH1 0x20 MSTORE PUSH1 0x40 DUP1 DUP3 KECCAK256 TIMESTAMP SWAP1 SSTORE MLOAD SWAP3 SWAP4 POP SWAP1 SWAP2 PUSH32 0xB87A61D78BD15221C59B983F6EF032FBDE0631E66BFE18D1421FE5A73C16741D SWAP2 SWAP1 LOG2 PUSH0 JUMPDEST DUP3 DUP2 LT ISZERO PUSH2 0x15AC JUMPI PUSH0 DUP5 DUP5 DUP4 DUP2 DUP2 LT PUSH2 0x1474 JUMPI PUSH2 0x1474 PUSH2 0x211B JUMP JUMPDEST SWAP1 POP PUSH1 0x20 MUL ADD CALLDATALOAD SWAP1 POP PUSH1 0x2 DUP1 SLOAD SWAP1 POP DUP2 LT PUSH2 0x14C9 JUMPI PUSH1 0x40 MLOAD PUSH3 0x461BCD PUSH1 0xE5 SHL DUP2 MSTORE PUSH1 0x20 PUSH1 0x4 DUP3 ADD MSTORE PUSH1 0x15 PUSH1 0x24 DUP3 ADD MSTORE PUSH21 0xAEE4DEDCCE40C6C2DCC8D2C8C2E8CA40D2DCC8CAF PUSH1 0x5B SHL PUSH1 0x44 DUP3 ADD MSTORE PUSH1 0x64 ADD PUSH2 0x66D JUMP JUMPDEST DUP3 DUP2 DUP2 MLOAD DUP2 LT PUSH2 0x14DB JUMPI PUSH2 0x14DB PUSH2 0x211B JUMP JUMPDEST PUSH1 0x20 MUL PUSH1 0x20 ADD ADD MLOAD ISZERO PUSH2 0x1530 JUMPI PUSH1 0x40 MLOAD PUSH3 0x461BCD PUSH1 0xE5 SHL DUP2 MSTORE PUSH1 0x20 PUSH1 0x4 DUP3 ADD MSTORE PUSH1 0x1A PUSH1 0x24 DUP3 ADD MSTORE PUSH32 0x526570657469746976652063616E64696461746520696E646578000000000000 PUSH1 0x44 DUP3 ADD MSTORE PUSH1 0x64 ADD PUSH2 0x66D JUMP JUMPDEST PUSH1 0x1 DUP4 DUP3 DUP2 MLOAD DUP2 LT PUSH2 0x1544 JUMPI PUSH2 0x1544 PUSH2 0x211B JUMP JUMPDEST PUSH1 0x20 MUL PUSH1 0x20 ADD ADD SWAP1 ISZERO ISZERO SWAP1 DUP2 ISZERO ISZERO DUP2 MSTORE POP POP PUSH1 0x3 PUSH0 PUSH1 0x2 DUP4 DUP2 SLOAD DUP2 LT PUSH2 0x156C JUMPI PUSH2 0x156C PUSH2 0x211B JUMP JUMPDEST PUSH0 SWAP2 DUP3 MSTORE PUSH1 0x20 DUP1 DUP4 KECCAK256 SWAP1 SWAP2 ADD SLOAD PUSH1 0x1 PUSH1 0x1 PUSH1 0xA0 SHL SUB AND DUP4 MSTORE DUP3 ADD SWAP3 SWAP1 SWAP3 MSTORE PUSH1 0x40 ADD DUP2 KECCAK256 PUSH1 0x4 ADD DUP1 SLOAD SWAP2 PUSH2 0x159E DUP4 PUSH2 0x220B JUMP JUMPDEST SWAP1 SWAP2 SSTORE POP POP POP PUSH1 0x1 ADD PUSH2 0x1459 JUMP JUMPDEST POP POP POP POP JUMP JUMPDEST PUSH1 0x2 DUP2 DUP2 SLOAD DUP2 LT PUSH2 0x15C1 JUMPI PUSH0 DUP1 REVERT JUMPDEST PUSH0 SWAP2 DUP3 MSTORE PUSH1 0x20 SWAP1 SWAP2 KECCAK256 ADD SLOAD PUSH1 0x1 PUSH1 0x1 PUSH1 0xA0 SHL SUB AND SWAP1 POP DUP2 JUMP JUMPDEST PUSH1 0x3 PUSH1 0x20 MSTORE PUSH0 SWAP1 DUP2 MSTORE PUSH1 0x40 SWAP1 KECCAK256 DUP1 SLOAD DUP2 SWAP1 PUSH2 0x15F4 SWAP1 PUSH2 0x1F9A JUMP JUMPDEST DUP1 PUSH1 0x1F ADD PUSH1 0x20 DUP1 SWAP2 DIV MUL PUSH1 0x20 ADD PUSH1 0x40 MLOAD SWAP1 DUP2 ADD PUSH1 0x40 MSTORE DUP1 SWAP3 SWAP2 SWAP1 DUP2 DUP2 MSTORE PUSH1 0x20 ADD DUP3 DUP1 SLOAD PUSH2 0x1620 SWAP1 PUSH2 0x1F9A JUMP JUMPDEST DUP1 ISZERO PUSH2 0x166B JUMPI DUP1 PUSH1 0x1F LT PUSH2 0x1642 JUMPI PUSH2 0x100 DUP1 DUP4 SLOAD DIV MUL DUP4 MSTORE SWAP2 PUSH1 0x20 ADD SWAP2 PUSH2 0x166B JUMP JUMPDEST DUP3 ADD SWAP2 SWAP1 PUSH0 MSTORE PUSH1 0x20 PUSH0 KECCAK256 SWAP1 JUMPDEST DUP2 SLOAD DUP2 MSTORE SWAP1 PUSH1 0x1 ADD SWAP1 PUSH1 0x20 ADD DUP1 DUP4 GT PUSH2 0x164E JUMPI DUP3 SWAP1 SUB PUSH1 0x1F AND DUP3 ADD SWAP2 JUMPDEST POP POP POP POP POP SWAP1 DUP1 PUSH1 0x1 ADD DUP1 SLOAD PUSH2 0x1680 SWAP1 PUSH2 0x1F9A JUMP JUMPDEST DUP1 PUSH1 0x1F ADD PUSH1 0x20 DUP1 SWAP2 DIV MUL PUSH1 0x20 ADD PUSH1 0x40 MLOAD SWAP1 DUP2 ADD PUSH1 0x40 MSTORE DUP1 SWAP3 SWAP2 SWAP1 DUP2 DUP2 MSTORE PUSH1 0x20 ADD DUP3 DUP1 SLOAD PUSH2 0x16AC SWAP1 PUSH2 0x1F9A JUMP JUMPDEST DUP1 ISZERO PUSH2 0x16F7 JUMPI DUP1 PUSH1 0x1F LT PUSH2 0x16CE JUMPI PUSH2 0x100 DUP1 DUP4 SLOAD DIV MUL DUP4 MSTORE SWAP2 PUSH1 0x20 ADD SWAP2 PUSH2 0x16F7 JUMP JUMPDEST DUP3 ADD SWAP2 SWAP1 PUSH0 MSTORE PUSH1 0x20 PUSH0 KECCAK256 SWAP1 JUMPDEST DUP2 SLOAD DUP2 MSTORE SWAP1 PUSH1 0x1 ADD SWAP1 PUSH1 0x20 ADD DUP1 DUP4 GT PUSH2 0x16DA JUMPI DUP3 SWAP1 SUB PUSH1 0x1F AND DUP3 ADD SWAP2 JUMPDEST POP POP POP POP POP SWAP1 DUP1 PUSH1 0x2 ADD DUP1 SLOAD PUSH2 0x170C SWAP1 PUSH2 0x1F9A JUMP JUMPDEST DUP1 PUSH1 0x1F ADD PUSH1 0x20 DUP1 SWAP2 DIV MUL PUSH1 0x20 ADD PUSH1 0x40 MLOAD SWAP1 DUP2 ADD PUSH1 0x40 MSTORE DUP1 SWAP3 SWAP2 SWAP1 DUP2 DUP2 MSTORE PUSH1 0x20 ADD DUP3 DUP1 SLOAD PUSH2 0x1738 SWAP1 PUSH2 0x1F9A JUMP JUMPDEST DUP1 ISZERO PUSH2 0x1783 JUMPI DUP1 PUSH1 0x1F LT PUSH2 0x175A JUMPI PUSH2 0x100 DUP1 DUP4 SLOAD DIV MUL DUP4 MSTORE SWAP2 PUSH1 0x20 ADD SWAP2 PUSH2 0x1783 JUMP JUMPDEST DUP3 ADD SWAP2 SWAP1 PUSH0 MSTORE PUSH1 0x20 PUSH0 KECCAK256 SWAP1 JUMPDEST DUP2 SLOAD DUP2 MSTORE SWAP1 PUSH1 0x1 ADD SWAP1 PUSH1 0x20 ADD DUP1 DUP4 GT PUSH2 0x1766 JUMPI DUP3 SWAP1 SUB PUSH1 0x1F AND DUP3 ADD SWAP2 JUMPDEST POP POP POP PUSH1 0x3 DUP5 ADD SLOAD PUSH1 0x4 DUP6 ADD SLOAD PUSH1 0x5 DUP7 ADD SLOAD PUSH1 0x6 SWAP1 SWAP7 ADD SLOAD SWAP5 SWAP6 SWAP2 SWAP5 SWAP1 SWAP4 POP PUSH1 0xFF SWAP1 SWAP2 AND SWAP2 POP DUP8 JUMP JUMPDEST PUSH2 0x17B4 PUSH2 0x1B65 JUMP JUMPDEST PUSH1 0x3A SLOAD PUSH1 0xFF AND ISZERO PUSH2 0x17FD JUMPI PUSH1 0x40 DUP1 MLOAD PUSH2 0x640 DUP2 ADD SWAP2 DUP3 SWAP1 MSTORE SWAP1 PUSH1 0x8 SWAP1 PUSH1 0x32 SWAP1 DUP3 DUP5 JUMPDEST DUP2 SLOAD PUSH1 0x1 PUSH1 0x1 PUSH1 0xA0 SHL SUB AND DUP2 MSTORE PUSH1 0x1 SWAP1 SWAP2 ADD SWAP1 PUSH1 0x20 ADD DUP1 DUP4 GT PUSH2 0x17D6 JUMPI POP POP POP POP POP SWAP1 POP SWAP1 JUMP JUMPDEST PUSH0 SLOAD TIMESTAMP GT PUSH2 0x1843 JUMPI PUSH1 0x40 MLOAD PUSH3 0x461BCD PUSH1 0xE5 SHL DUP2 MSTORE PUSH1 0x20 PUSH1 0x4 DUP3 ADD MSTORE PUSH1 0x13 PUSH1 0x24 DUP3 ADD MSTORE PUSH19 0x21B0B6361030B33A32B91032B632B1BA34B7B7 PUSH1 0x69 SHL PUSH1 0x44 DUP3 ADD MSTORE PUSH1 0x64 ADD PUSH2 0x66D JUMP JUMPDEST PUSH1 0x1 JUMPDEST PUSH1 0x32 DUP2 GT PUSH2 0x1A86 JUMPI PUSH0 JUMPDEST PUSH1 0x2 SLOAD DUP3 SWAP1 SUB DUP2 LT ISZERO PUSH2 0x19C9 JUMPI PUSH1 0x3 PUSH0 PUSH1 0x2 DUP4 PUSH1 0x1 ADD DUP2 SLOAD DUP2 LT PUSH2 0x1876 JUMPI PUSH2 0x1876 PUSH2 0x211B JUMP JUMPDEST SWAP1 PUSH0 MSTORE PUSH1 0x20 PUSH0 KECCAK256 ADD PUSH0 SWAP1 SLOAD SWAP1 PUSH2 0x100 EXP SWAP1 DIV PUSH1 0x1 PUSH1 0x1 PUSH1 0xA0 SHL SUB AND PUSH1 0x1 PUSH1 0x1 PUSH1 0xA0 SHL SUB AND PUSH1 0x1 PUSH1 0x1 PUSH1 0xA0 SHL SUB AND DUP2 MSTORE PUSH1 0x20 ADD SWAP1 DUP2 MSTORE PUSH1 0x20 ADD PUSH0 KECCAK256 PUSH1 0x4 ADD SLOAD PUSH1 0x3 PUSH0 PUSH1 0x2 DUP5 DUP2 SLOAD DUP2 LT PUSH2 0x18CA JUMPI PUSH2 0x18CA PUSH2 0x211B JUMP JUMPDEST PUSH0 SWAP2 DUP3 MSTORE PUSH1 0x20 DUP1 DUP4 KECCAK256 SWAP1 SWAP2 ADD SLOAD PUSH1 0x1 PUSH1 0x1 PUSH1 0xA0 SHL SUB AND DUP4 MSTORE DUP3 ADD SWAP3 SWAP1 SWAP3 MSTORE PUSH1 0x40 ADD SWAP1 KECCAK256 PUSH1 0x4 ADD SLOAD GT ISZERO PUSH2 0x19C1 JUMPI PUSH1 0x2 DUP2 PUSH1 0x1 ADD DUP2 SLOAD DUP2 LT PUSH2 0x190D JUMPI PUSH2 0x190D PUSH2 0x211B JUMP JUMPDEST PUSH0 SWAP2 DUP3 MSTORE PUSH1 0x20 SWAP1 SWAP2 KECCAK256 ADD SLOAD PUSH1 0x2 DUP1 SLOAD PUSH1 0x1 PUSH1 0x1 PUSH1 0xA0 SHL SUB SWAP1 SWAP3 AND SWAP2 DUP4 SWAP1 DUP2 LT PUSH2 0x1938 JUMPI PUSH2 0x1938 PUSH2 0x211B JUMP JUMPDEST PUSH0 SWAP2 DUP3 MSTORE PUSH1 0x20 SWAP1 SWAP2 KECCAK256 ADD SLOAD PUSH1 0x2 DUP1 SLOAD PUSH1 0x1 PUSH1 0x1 PUSH1 0xA0 SHL SUB SWAP1 SWAP3 AND SWAP2 DUP5 SWAP1 DUP2 LT PUSH2 0x1963 JUMPI PUSH2 0x1963 PUSH2 0x211B JUMP JUMPDEST SWAP1 PUSH0 MSTORE PUSH1 0x20 PUSH0 KECCAK256 ADD PUSH0 PUSH1 0x2 DUP6 PUSH1 0x1 ADD DUP2 SLOAD DUP2 LT PUSH2 0x1982 JUMPI PUSH2 0x1982 PUSH2 0x211B JUMP JUMPDEST PUSH0 SWAP2 DUP3 MSTORE PUSH1 0x20 SWAP1 SWAP2 KECCAK256 ADD DUP1 SLOAD PUSH1 0x1 PUSH1 0x1 PUSH1 0xA0 SHL SUB SWAP5 DUP6 AND PUSH1 0x1 PUSH1 0x1 PUSH1 0xA0 SHL SUB NOT SWAP1 SWAP2 AND OR SWAP1 SSTORE DUP2 SLOAD SWAP4 DUP4 AND PUSH2 0x100 SWAP2 SWAP1 SWAP2 EXP SWAP1 DUP2 MUL SWAP3 MUL NOT SWAP1 SWAP3 AND OR SWAP1 SSTORE JUMPDEST PUSH1 0x1 ADD PUSH2 0x1850 JUMP JUMPDEST POP PUSH1 0x2 DUP1 SLOAD DUP3 DUP2 SUB SWAP1 DUP2 LT PUSH2 0x19E0 JUMPI PUSH2 0x19E0 PUSH2 0x211B JUMP JUMPDEST PUSH0 SWAP2 DUP3 MSTORE PUSH1 0x20 SWAP1 SWAP2 KECCAK256 ADD SLOAD PUSH1 0x1 PUSH1 0x1 PUSH1 0xA0 SHL SUB AND PUSH1 0x8 PUSH0 NOT DUP4 ADD PUSH1 0x32 DUP2 LT PUSH2 0x1A0A JUMPI PUSH2 0x1A0A PUSH2 0x211B JUMP JUMPDEST ADD DUP1 SLOAD PUSH1 0x1 PUSH1 0x1 PUSH1 0xA0 SHL SUB NOT AND PUSH1 0x1 PUSH1 0x1 PUSH1 0xA0 SHL SUB SWAP3 SWAP1 SWAP3 AND SWAP2 SWAP1 SWAP2 OR SWAP1 SSTORE PUSH1 0x2 DUP1 SLOAD PUSH1 0x1 SWAP2 PUSH1 0x3 SWAP2 PUSH0 SWAP2 SWAP1 DUP6 DUP2 SUB SWAP1 DUP2 LT PUSH2 0x1A48 JUMPI PUSH2 0x1A48 PUSH2 0x211B JUMP JUMPDEST PUSH0 SWAP2 DUP3 MSTORE PUSH1 0x20 DUP1 DUP4 KECCAK256 SWAP2 SWAP1 SWAP2 ADD SLOAD PUSH1 0x1 PUSH1 0x1 PUSH1 0xA0 SHL SUB AND DUP4 MSTORE DUP3 ADD SWAP3 SWAP1 SWAP3 MSTORE PUSH1 0x40 ADD SWAP1 KECCAK256 PUSH1 0x5 ADD DUP1 SLOAD PUSH1 0xFF NOT AND SWAP2 ISZERO ISZERO SWAP2 SWAP1 SWAP2 OR SWAP1 SSTORE PUSH1 0x1 ADD PUSH2 0x1846 JUMP JUMPDEST POP PUSH1 0x3A DUP1 SLOAD PUSH1 0x8 DUP1 SLOAD PUSH1 0x1 PUSH1 0x1 PUSH1 0xA0 SHL SUB SWAP1 DUP2 AND PUSH2 0x100 SWAP1 DUP2 MUL PUSH1 0x1 PUSH1 0x1 PUSH1 0xA8 SHL SUB NOT SWAP1 SWAP5 AND SWAP4 SWAP1 SWAP4 OR PUSH1 0x1 OR SWAP4 DUP5 SWAP1 SSTORE PUSH0 PUSH1 0x3B DUP2 SWAP1 SSTORE SWAP3 SWAP1 SWAP4 DIV SWAP1 SWAP3 AND DUP2 MSTORE PUSH1 0x3 PUSH1 0x20 MSTORE PUSH1 0x40 SWAP1 DUP2 SWAP1 KECCAK256 TIMESTAMP PUSH1 0x6 SWAP1 SWAP2 ADD SSTORE MLOAD PUSH2 0x1AE3 SWAP2 SWAP1 PUSH2 0x2223 JUMP JUMPDEST PUSH1 0x40 MLOAD SWAP1 DUP2 SWAP1 SUB DUP2 KECCAK256 PUSH1 0x3A SLOAD PUSH2 0x100 SWAP1 DIV PUSH1 0x1 PUSH1 0x1 PUSH1 0xA0 SHL SUB AND DUP3 MSTORE SWAP1 PUSH32 0x5BEFB7B9346D2ADF55904A87BBD0D35BCEDE9D28085A00C081C6168AC5ED6C44 SWAP1 PUSH1 0x20 ADD PUSH1 0x40 MLOAD DUP1 SWAP2 SUB SWAP1 LOG2 PUSH1 0x40 DUP1 MLOAD PUSH2 0x640 DUP2 ADD SWAP2 DUP3 SWAP1 MSTORE PUSH1 0x8 DUP1 SLOAD PUSH1 0x1 PUSH1 0x1 PUSH1 0xA0 SHL SUB AND DUP3 MSTORE SWAP1 SWAP2 PUSH1 0x32 SWAP1 PUSH1 0x9 PUSH1 0x20 DUP6 ADD DUP1 DUP4 GT PUSH2 0x17D6 JUMPI POP POP POP POP POP SWAP1 POP SWAP1 JUMP JUMPDEST PUSH1 0x40 MLOAD DUP1 PUSH2 0x640 ADD PUSH1 0x40 MSTORE DUP1 PUSH1 0x32 SWAP1 PUSH1 0x20 DUP3 MUL DUP1 CALLDATASIZE DUP4 CALLDATACOPY POP SWAP2 SWAP3 SWAP2 POP POP JUMP JUMPDEST PUSH0 PUSH1 0x20 DUP3 DUP5 SUB SLT ISZERO PUSH2 0x1B94 JUMPI PUSH0 PUSH0 REVERT JUMPDEST POP CALLDATALOAD SWAP2 SWAP1 POP JUMP JUMPDEST PUSH0 DUP2 MLOAD DUP1 DUP5 MSTORE DUP1 PUSH1 0x20 DUP5 ADD PUSH1 0x20 DUP7 ADD MCOPY PUSH0 PUSH1 0x20 DUP3 DUP7 ADD ADD MSTORE PUSH1 0x20 PUSH1 0x1F NOT PUSH1 0x1F DUP4 ADD AND DUP6 ADD ADD SWAP2 POP POP SWAP3 SWAP2 POP POP JUMP JUMPDEST PUSH1 0x1 PUSH1 0x1 PUSH1 0xA0 SHL SUB DUP8 AND DUP2 MSTORE PUSH1 0xC0 PUSH1 0x20 DUP3 ADD DUP2 SWAP1 MSTORE PUSH0 SWAP1 PUSH2 0x1BEC SWAP1 DUP4 ADD DUP9 PUSH2 0x1B9B JUMP JUMPDEST SWAP1 POP DUP6 PUSH1 0x40 DUP4 ADD MSTORE DUP5 PUSH1 0x60 DUP4 ADD MSTORE DUP4 PUSH1 0x80 DUP4 ADD MSTORE PUSH1 0xFF DUP4 AND PUSH1 0xA0 DUP4 ADD MSTORE SWAP8 SWAP7 POP POP POP POP POP POP POP JUMP JUMPDEST PUSH4 0x4E487B71 PUSH1 0xE0 SHL PUSH0 MSTORE PUSH1 0x41 PUSH1 0x4 MSTORE PUSH1 0x24 PUSH0 REVERT JUMPDEST PUSH0 DUP3 PUSH1 0x1F DUP4 ADD SLT PUSH2 0x1C37 JUMPI PUSH0 PUSH0 REVERT JUMPDEST DUP2 CALLDATALOAD PUSH8 0xFFFFFFFFFFFFFFFF DUP2 GT ISZERO PUSH2 0x1C51 JUMPI PUSH2 0x1C51 PUSH2 0x1C14 JUMP JUMPDEST PUSH1 0x40 MLOAD PUSH1 0x1F DUP3 ADD PUSH1 0x1F NOT SWAP1 DUP2 AND PUSH1 0x3F ADD AND DUP2 ADD PUSH8 0xFFFFFFFFFFFFFFFF DUP2 GT DUP3 DUP3 LT OR ISZERO PUSH2 0x1C80 JUMPI PUSH2 0x1C80 PUSH2 0x1C14 JUMP JUMPDEST PUSH1 0x40 MSTORE DUP2 DUP2 MSTORE DUP4 DUP3 ADD PUSH1 0x20 ADD DUP6 LT ISZERO PUSH2 0x1C97 JUMPI PUSH0 PUSH0 REVERT JUMPDEST DUP2 PUSH1 0x20 DUP6 ADD PUSH1 0x20 DUP4 ADD CALLDATACOPY PUSH0 SWAP2 DUP2 ADD PUSH1 0x20 ADD SWAP2 SWAP1 SWAP2 MSTORE SWAP4 SWAP3 POP POP POP JUMP JUMPDEST PUSH0 PUSH0 PUSH0 PUSH1 0x60 DUP5 DUP7 SUB SLT ISZERO PUSH2 0x1CC5 JUMPI PUSH0 PUSH0 REVERT JUMPDEST DUP4 CALLDATALOAD PUSH8 0xFFFFFFFFFFFFFFFF DUP2 GT ISZERO PUSH2 0x1CDB JUMPI PUSH0 PUSH0 REVERT JUMPDEST PUSH2 0x1CE7 DUP7 DUP3 DUP8 ADD PUSH2 0x1C28 JUMP JUMPDEST SWAP4 POP POP PUSH1 0x20 DUP5 ADD CALLDATALOAD PUSH8 0xFFFFFFFFFFFFFFFF DUP2 GT ISZERO PUSH2 0x1D03 JUMPI PUSH0 PUSH0 REVERT JUMPDEST PUSH2 0x1D0F DUP7 DUP3 DUP8 ADD PUSH2 0x1C28 JUMP JUMPDEST SWAP3 POP POP PUSH1 0x40 DUP5 ADD CALLDATALOAD PUSH8 0xFFFFFFFFFFFFFFFF DUP2 GT ISZERO PUSH2 0x1D2B JUMPI PUSH0 PUSH0 REVERT JUMPDEST PUSH2 0x1D37 DUP7 DUP3 DUP8 ADD PUSH2 0x1C28 JUMP JUMPDEST SWAP2 POP POP SWAP3 POP SWAP3 POP SWAP3 JUMP JUMPDEST DUP1 PUSH2 0x140 DUP2 ADD DUP4 LT ISZERO PUSH2 0x1D52 JUMPI PUSH0 PUSH0 REVERT JUMPDEST SWAP3 SWAP2 POP POP JUMP JUMPDEST PUSH0 PUSH0 PUSH2 0x280 DUP4 DUP6 SUB SLT ISZERO PUSH2 0x1D6A JUMPI PUSH0 PUSH0 REVERT JUMPDEST PUSH2 0x1D74 DUP5 DUP5 PUSH2 0x1D41 JUMP JUMPDEST SWAP2 POP PUSH2 0x1D84 DUP5 PUSH2 0x140 DUP6 ADD PUSH2 0x1D41 JUMP JUMPDEST SWAP1 POP SWAP3 POP SWAP3 SWAP1 POP JUMP JUMPDEST PUSH1 0x20 DUP2 MSTORE PUSH0 DUP3 MLOAD PUSH1 0xE0 PUSH1 0x20 DUP5 ADD MSTORE PUSH2 0x1DA9 PUSH2 0x100 DUP5 ADD DUP3 PUSH2 0x1B9B JUMP JUMPDEST SWAP1 POP PUSH1 0x20 DUP5 ADD MLOAD PUSH1 0x1F NOT DUP5 DUP4 SUB ADD PUSH1 0x40 DUP6 ADD MSTORE PUSH2 0x1DC6 DUP3 DUP3 PUSH2 0x1B9B JUMP JUMPDEST SWAP2 POP POP PUSH1 0x40 DUP5 ADD MLOAD PUSH1 0x1F NOT DUP5 DUP4 SUB ADD PUSH1 0x60 DUP6 ADD MSTORE PUSH2 0x1DE4 DUP3 DUP3 PUSH2 0x1B9B JUMP JUMPDEST SWAP2 POP POP PUSH1 0x60 DUP5 ADD MLOAD PUSH1 0x80 DUP5 ADD MSTORE PUSH1 0x80 DUP5 ADD MLOAD PUSH1 0xA0 DUP5 ADD MSTORE PUSH1 0xA0 DUP5 ADD MLOAD ISZERO ISZERO PUSH1 0xC0 DUP5 ADD MSTORE PUSH1 0xC0 DUP5 ADD MLOAD PUSH1 0xE0 DUP5 ADD MSTORE DUP1 SWAP2 POP POP SWAP3 SWAP2 POP POP JUMP JUMPDEST PUSH4 0x4E487B71 PUSH1 0xE0 SHL PUSH0 MSTORE PUSH1 0x21 PUSH1 0x4 MSTORE PUSH1 0x24 PUSH0 REVERT JUMPDEST PUSH1 0x20 DUP2 ADD PUSH1 0x5 DUP4 LT PUSH2 0x1E4F JUMPI PUSH4 0x4E487B71 PUSH1 0xE0 SHL PUSH0 MSTORE PUSH1 0x21 PUSH1 0x4 MSTORE PUSH1 0x24 PUSH0 REVERT JUMPDEST SWAP2 SWAP1 MSTORE SWAP1 JUMP JUMPDEST PUSH0 PUSH0 PUSH1 0x20 DUP4 DUP6 SUB SLT ISZERO PUSH2 0x1E66 JUMPI PUSH0 PUSH0 REVERT JUMPDEST DUP3 CALLDATALOAD PUSH8 0xFFFFFFFFFFFFFFFF DUP2 GT ISZERO PUSH2 0x1E7C JUMPI PUSH0 PUSH0 REVERT JUMPDEST DUP4 ADD PUSH1 0x1F DUP2 ADD DUP6 SGT PUSH2 0x1E8C JUMPI PUSH0 PUSH0 REVERT JUMPDEST DUP1 CALLDATALOAD PUSH8 0xFFFFFFFFFFFFFFFF DUP2 GT ISZERO PUSH2 0x1EA2 JUMPI PUSH0 PUSH0 REVERT JUMPDEST DUP6 PUSH1 0x20 DUP3 PUSH1 0x5 SHL DUP5 ADD ADD GT ISZERO PUSH2 0x1EB6 JUMPI PUSH0 PUSH0 REVERT JUMPDEST PUSH1 0x20 SWAP2 SWAP1 SWAP2 ADD SWAP6 SWAP1 SWAP5 POP SWAP3 POP POP POP JUMP JUMPDEST DUP1 CALLDATALOAD PUSH1 0x1 PUSH1 0x1 PUSH1 0xA0 SHL SUB DUP2 AND DUP2 EQ PUSH2 0x1EDC JUMPI PUSH0 PUSH0 REVERT JUMPDEST SWAP2 SWAP1 POP JUMP JUMPDEST PUSH0 PUSH1 0x20 DUP3 DUP5 SUB SLT ISZERO PUSH2 0x1EF1 JUMPI PUSH0 PUSH0 REVERT JUMPDEST PUSH2 0x1EFA DUP3 PUSH2 0x1EC6 JUMP JUMPDEST SWAP4 SWAP3 POP POP POP JUMP JUMPDEST PUSH1 0xE0 DUP2 MSTORE PUSH0 PUSH2 0x1F13 PUSH1 0xE0 DUP4 ADD DUP11 PUSH2 0x1B9B JUMP JUMPDEST DUP3 DUP2 SUB PUSH1 0x20 DUP5 ADD MSTORE PUSH2 0x1F25 DUP2 DUP11 PUSH2 0x1B9B JUMP JUMPDEST SWAP1 POP DUP3 DUP2 SUB PUSH1 0x40 DUP5 ADD MSTORE PUSH2 0x1F39 DUP2 DUP10 PUSH2 0x1B9B JUMP JUMPDEST PUSH1 0x60 DUP5 ADD SWAP8 SWAP1 SWAP8 MSTORE POP POP PUSH1 0x80 DUP2 ADD SWAP4 SWAP1 SWAP4 MSTORE SWAP1 ISZERO ISZERO PUSH1 0xA0 DUP4 ADD MSTORE PUSH1 0xC0 SWAP1 SWAP2 ADD MSTORE SWAP4 SWAP3 POP POP POP JUMP JUMPDEST PUSH2 0x640 DUP2 ADD DUP2 DUP4 PUSH0 JUMPDEST PUSH1 0x32 DUP2 LT ISZERO PUSH2 0x1F91 JUMPI DUP2 MLOAD PUSH1 0x1 PUSH1 0x1 PUSH1 0xA0 SHL SUB AND DUP4 MSTORE PUSH1 0x20 SWAP3 DUP4 ADD SWAP3 SWAP1 SWAP2 ADD SWAP1 PUSH1 0x1 ADD PUSH2 0x1F69 JUMP JUMPDEST POP POP POP SWAP3 SWAP2 POP POP JUMP JUMPDEST PUSH1 0x1 DUP2 DUP2 SHR SWAP1 DUP3 AND DUP1 PUSH2 0x1FAE JUMPI PUSH1 0x7F DUP3 AND SWAP2 POP JUMPDEST PUSH1 0x20 DUP3 LT DUP2 SUB PUSH2 0x1FCC JUMPI PUSH4 0x4E487B71 PUSH1 0xE0 SHL PUSH0 MSTORE PUSH1 0x22 PUSH1 0x4 MSTORE PUSH1 0x24 PUSH0 REVERT JUMPDEST POP SWAP2 SWAP1 POP JUMP JUMPDEST PUSH1 0x1F DUP3 GT ISZERO PUSH2 0x2019 JUMPI DUP1 PUSH0 MSTORE PUSH1 0x20 PUSH0 KECCAK256 PUSH1 0x1F DUP5 ADD PUSH1 0x5 SHR DUP2 ADD PUSH1 0x20 DUP6 LT ISZERO PUSH2 0x1FF7 JUMPI POP DUP1 JUMPDEST PUSH1 0x1F DUP5 ADD PUSH1 0x5 SHR DUP3 ADD SWAP2 POP JUMPDEST DUP2 DUP2 LT ISZERO PUSH2 0x2016 JUMPI PUSH0 DUP2 SSTORE PUSH1 0x1 ADD PUSH2 0x2003 JUMP JUMPDEST POP POP JUMPDEST POP POP POP JUMP JUMPDEST DUP2 MLOAD PUSH8 0xFFFFFFFFFFFFFFFF DUP2 GT ISZERO PUSH2 0x2038 JUMPI PUSH2 0x2038 PUSH2 0x1C14 JUMP JUMPDEST PUSH2 0x204C DUP2 PUSH2 0x2046 DUP5 SLOAD PUSH2 0x1F9A JUMP JUMPDEST DUP5 PUSH2 0x1FD2 JUMP JUMPDEST PUSH1 0x20 PUSH1 0x1F DUP3 GT PUSH1 0x1 DUP2 EQ PUSH2 0x207E JUMPI PUSH0 DUP4 ISZERO PUSH2 0x2067 JUMPI POP DUP5 DUP3 ADD MLOAD JUMPDEST PUSH0 NOT PUSH1 0x3 DUP6 SWAP1 SHL SHR NOT AND PUSH1 0x1 DUP5 SWAP1 SHL OR DUP5 SSTORE PUSH2 0x2016 JUMP JUMPDEST PUSH0 DUP5 DUP2 MSTORE PUSH1 0x20 DUP2 KECCAK256 PUSH1 0x1F NOT DUP6 AND SWAP2 JUMPDEST DUP3 DUP2 LT ISZERO PUSH2 0x20AD JUMPI DUP8 DUP6 ADD MLOAD DUP3 SSTORE PUSH1 0x20 SWAP5 DUP6 ADD SWAP5 PUSH1 0x1 SWAP1 SWAP3 ADD SWAP2 ADD PUSH2 0x208D JUMP JUMPDEST POP DUP5 DUP3 LT ISZERO PUSH2 0x20CA JUMPI DUP7 DUP5 ADD MLOAD PUSH0 NOT PUSH1 0x3 DUP8 SWAP1 SHL PUSH1 0xF8 AND SHR NOT AND DUP2 SSTORE JUMPDEST POP POP POP POP PUSH1 0x1 SWAP1 DUP2 SHL ADD SWAP1 SSTORE POP JUMP JUMPDEST PUSH1 0x60 DUP2 MSTORE PUSH0 PUSH2 0x20EB PUSH1 0x60 DUP4 ADD DUP7 PUSH2 0x1B9B JUMP JUMPDEST DUP3 DUP2 SUB PUSH1 0x20 DUP5 ADD MSTORE PUSH2 0x20FD DUP2 DUP7 PUSH2 0x1B9B JUMP JUMPDEST SWAP1 POP DUP3 DUP2 SUB PUSH1 0x40 DUP5 ADD MSTORE PUSH2 0x2111 DUP2 DUP6 PUSH2 0x1B9B JUMP JUMPDEST SWAP7 SWAP6 POP POP POP POP POP POP JUMP JUMPDEST PUSH4 0x4E487B71 PUSH1 0xE0 SHL PUSH0 MSTORE PUSH1 0x32 PUSH1 0x4 MSTORE PUSH1 0x24 PUSH0 REVERT JUMPDEST PUSH4 0x4E487B71 PUSH1 0xE0 SHL PUSH0 MSTORE PUSH1 0x11 PUSH1 0x4 MSTORE PUSH1 0x24 PUSH0 REVERT JUMPDEST PUSH0 PUSH1 0xFF DUP3 AND PUSH1 0xFF DUP2 SUB PUSH2 0x2158 JUMPI PUSH2 0x2158 PUSH2 0x212F JUMP JUMPDEST PUSH1 0x1 ADD SWAP3 SWAP2 POP POP JUMP JUMPDEST PUSH4 0xFFFFFFFF DUP2 DUP2 AND DUP4 DUP3 AND ADD SWAP1 DUP2 GT ISZERO PUSH2 0x1D52 JUMPI PUSH2 0x1D52 PUSH2 0x212F JUMP JUMPDEST PUSH0 DUP2 DUP4 DUP3 JUMPDEST PUSH1 0xA DUP2 LT ISZERO PUSH2 0x21B2 JUMPI PUSH1 0x1 PUSH1 0x1 PUSH1 0xA0 SHL SUB PUSH2 0x219C DUP4 PUSH2 0x1EC6 JUMP JUMPDEST AND DUP4 MSTORE PUSH1 0x20 SWAP3 DUP4 ADD SWAP3 SWAP2 SWAP1 SWAP2 ADD SWAP1 PUSH1 0x1 ADD PUSH2 0x2182 JUMP JUMPDEST POP POP POP PUSH2 0x140 DUP3 ADD SWAP1 POP SWAP3 SWAP2 POP POP JUMP JUMPDEST DUP2 DUP2 SUB DUP2 DUP2 GT ISZERO PUSH2 0x1D52 JUMPI PUSH2 0x1D52 PUSH2 0x212F JUMP JUMPDEST PUSH1 0xFF DUP2 DUP2 AND DUP4 DUP3 AND MUL SWAP1 DUP2 AND SWAP1 DUP2 DUP2 EQ PUSH2 0x21F1 JUMPI PUSH2 0x21F1 PUSH2 0x212F JUMP JUMPDEST POP SWAP3 SWAP2 POP POP JUMP JUMPDEST DUP1 DUP3 ADD DUP1 DUP3 GT ISZERO PUSH2 0x1D52 JUMPI PUSH2 0x1D52 PUSH2 0x212F JUMP JUMPDEST PUSH0 PUSH1 0x1 DUP3 ADD PUSH2 0x221C JUMPI PUSH2 0x221C PUSH2 0x212F JUMP JUMPDEST POP PUSH1 0x1 ADD SWAP1 JUMP JUMPDEST PUSH0 DUP2 DUP4 DUP3 JUMPDEST PUSH1 0x32 DUP2 LT ISZERO PUSH2 0x2250 JUMPI DUP2 SLOAD PUSH1 0x1 PUSH1 0x1 PUSH1 0xA0 SHL SUB AND DUP4 MSTORE PUSH1 0x20 SWAP1 SWAP3 ADD SWAP2 PUSH1 0x1 SWAP2 DUP3 ADD SWAP2 ADD PUSH2 0x2228 JUMP JUMPDEST POP POP POP PUSH2 0x640 DUP3 ADD SWAP1 POP SWAP3 SWAP2 POP POP JUMP INVALID LOG2 PUSH5 0x6970667358 0x22 SLT KECCAK256 DUP12 0x2D 0xD9 SWAP12 PUSH11 0x3FA4D96F30943C8A8EE70E SGT 0xF PUSH27 0x84681FEAB77AE7C6394D1F1EA964736F6C634300081C0033000000 "
		},
		"gasEstimates": {
			"creation": {
				"codeDepositCost": "1770800",
				"executionCost": "infinite",
				"totalCost": "infinite"
			},
			"external": {
				"LEAD_PERIOD()": "239",
				"N_MEMBERS()": "269",
				"RANDOM_VOTERS()": "271",
				"REG_FEE()": "283",
				"REG_TIME()": "284",
				"VOTER_BATCH()": "270",
				"addVoter(bytes32[10],address[10])": "infinite",
				"addedVoterCount()": "2441",
				"candidateInfo(address)": "infinite",
				"candidateList(uint256)": "4656",
				"changeLeader()": "92134",
				"currentLeaderAddress()": "2415",
				"currentLeaderNumber()": "2384",
				"electedMembers(uint256)": "2589",
				"electionEnd()": "2382",
				"getCandidateInfo(uint256)": "infinite",
				"getCurrentPhase()": "infinite",
				"getElectionResults()": "infinite",
				"getHashStatus(bytes32)": "2537",
				"getVoteTime(address)": "2578",
				"membersElected()": "2377",
				"neutral()": "2403",
				"proposals(uint256)": "infinite",
				"referendumEndTime()": "2405",
				"registerAsCandidate(string,string,string)": "infinite",
				"startTime()": "infinite",
				"voteCandidates(uint256[])": "infinite"
			}
		},
		"methodIdentifiers": {
			"LEAD_PERIOD()": "49066e79",
			"N_MEMBERS()": "e292bf16",
			"RANDOM_VOTERS()": "3def77b7",
			"REG_FEE()": "4ebeb109",
			"REG_TIME()": "47f7b722",
			"VOTER_BATCH()": "b5ba9795",
			"addVoter(bytes32[10],address[10])": "26c29449",
			"addedVoterCount()": "1b408934",
			"candidateInfo(address)": "e965b7c9",
			"candidateList(uint256)": "b13c744b",
			"changeLeader()": "a5f5b1bf",
			"currentLeaderAddress()": "7da4ce83",
			"currentLeaderNumber()": "16392372",
			"electedMembers(uint256)": "214c3a89",
			"electionEnd()": "ce7ea161",
			"getCandidateInfo(uint256)": "70f67cfe",
			"getCurrentPhase()": "a3a40ea5",
			"getElectionResults()": "eccf1f10",
			"getHashStatus(bytes32)": "7f4241e7",
			"getVoteTime(address)": "d90d7cd8",
			"membersElected()": "089e35b8",
			"neutral()": "4d0c8726",
			"proposals(uint256)": "013cf08b",
			"referendumEndTime()": "b0feb260",
			"registerAsCandidate(string,string,string)": "079ddd11",
			"startTime()": "78e97925",
			"voteCandidates(uint256[])": "a6a5ad12"
		}
	},
	"abi": [
		{
			"anonymous": false,
			"inputs": [
				{
					"indexed": true,
					"internalType": "address",
					"name": "candidate",
					"type": "address"
				},
				{
					"indexed": false,
					"internalType": "string",
					"name": "fullName",
					"type": "string"
				},
				{
					"indexed": false,
					"internalType": "string",
					"name": "bio",
					"type": "string"
				},
				{
					"indexed": false,
					"internalType": "string",
					"name": "website",
					"type": "string"
				}
			],
			"name": "CandidateRegistered",
			"type": "event"
		},
		{
			"anonymous": false,
			"inputs": [
				{
					"indexed": true,
					"internalType": "address[50]",
					"name": "electedMembers",
					"type": "address[50]"
				},
				{
					"indexed": false,
					"internalType": "address",
					"name": "firstLeader",
					"type": "address"
				}
			],
			"name": "ElectionResults",
			"type": "event"
		},
		{
			"anonymous": false,
			"inputs": [
				{
					"indexed": true,
					"internalType": "address",
					"name": "newLeader",
					"type": "address"
				}
			],
			"name": "LeadershipChanged",
			"type": "event"
		},
		{
			"anonymous": false,
			"inputs": [
				{
					"indexed": true,
					"internalType": "address",
					"name": "voter",
					"type": "address"
				}
			],
			"name": "VoteCast",
			"type": "event"
		},
		{
			"anonymous": false,
			"inputs": [
				{
					"indexed": true,
					"internalType": "address[10]",
					"name": "voter",
					"type": "address[10]"
				},
				{
					"indexed": false,
					"internalType": "uint256",
					"name": "addedVoterCount",
					"type": "uint256"
				}
			],
			"name": "VoterAdded",
			"type": "event"
		},
		{
			"inputs": [],
			"name": "LEAD_PERIOD",
			"outputs": [
				{
					"internalType": "uint256",
					"name": "",
					"type": "uint256"
				}
			],
			"stateMutability": "view",
			"type": "function"
		},
		{
			"inputs": [],
			"name": "N_MEMBERS",
			"outputs": [
				{
					"internalType": "uint8",
					"name": "",
					"type": "uint8"
				}
			],
			"stateMutability": "view",
			"type": "function"
		},
		{
			"inputs": [],
			"name": "RANDOM_VOTERS",
			"outputs": [
				{
					"internalType": "uint32",
					"name": "",
					"type": "uint32"
				}
			],
			"stateMutability": "view",
			"type": "function"
		},
		{
			"inputs": [],
			"name": "REG_FEE",
			"outputs": [
				{
					"internalType": "uint256",
					"name": "",
					"type": "uint256"
				}
			],
			"stateMutability": "view",
			"type": "function"
		},
		{
			"inputs": [],
			"name": "REG_TIME",
			"outputs": [
				{
					"internalType": "uint256",
					"name": "",
					"type": "uint256"
				}
			],
			"stateMutability": "view",
			"type": "function"
		},
		{
			"inputs": [],
			"name": "VOTER_BATCH",
			"outputs": [
				{
					"internalType": "uint32",
					"name": "",
					"type": "uint32"
				}
			],
			"stateMutability": "view",
			"type": "function"
		},
		{
			"inputs": [
				{
					"internalType": "bytes32[10]",
					"name": "voterHashes",
					"type": "bytes32[10]"
				},
				{
					"internalType": "address[10]",
					"name": "voterAddresses",
					"type": "address[10]"
				}
			],
			"name": "addVoter",
			"outputs": [],
			"stateMutability": "nonpayable",
			"type": "function"
		},
		{
			"inputs": [],
			"name": "addedVoterCount",
			"outputs": [
				{
					"internalType": "uint32",
					"name": "",
					"type": "uint32"
				}
			],
			"stateMutability": "view",
			"type": "function"
		},
		{
			"inputs": [
				{
					"internalType": "address",
					"name": "",
					"type": "address"
				}
			],
			"name": "candidateInfo",
			"outputs": [
				{
					"internalType": "string",
					"name": "fullName",
					"type": "string"
				},
				{
					"internalType": "string",
					"name": "bio",
					"type": "string"
				},
				{
					"internalType": "string",
					"name": "website",
					"type": "string"
				},
				{
					"internalType": "uint256",
					"name": "registeredAt",
					"type": "uint256"
				},
				{
					"internalType": "uint256",
					"name": "voteCount",
					"type": "uint256"
				},
				{
					"internalType": "bool",
					"name": "electedMember",
					"type": "bool"
				},
				{
					"internalType": "uint256",
					"name": "leaderAt",
					"type": "uint256"
				}
			],
			"stateMutability": "view",
			"type": "function"
		},
		{
			"inputs": [
				{
					"internalType": "uint256",
					"name": "",
					"type": "uint256"
				}
			],
			"name": "candidateList",
			"outputs": [
				{
					"internalType": "address",
					"name": "",
					"type": "address"
				}
			],
			"stateMutability": "view",
			"type": "function"
		},
		{
			"inputs": [],
			"name": "changeLeader",
			"outputs": [],
			"stateMutability": "nonpayable",
			"type": "function"
		},
		{
			"inputs": [],
			"name": "currentLeaderAddress",
			"outputs": [
				{
					"internalType": "address",
					"name": "",
					"type": "address"
				}
			],
			"stateMutability": "view",
			"type": "function"
		},
		{
			"inputs": [],
			"name": "currentLeaderNumber",
			"outputs": [
				{
					"internalType": "uint256",
					"name": "",
					"type": "uint256"
				}
			],
			"stateMutability": "view",
			"type": "function"
		},
		{
			"inputs": [
				{
					"internalType": "uint256",
					"name": "",
					"type": "uint256"
				}
			],
			"name": "electedMembers",
			"outputs": [
				{
					"internalType": "address",
					"name": "",
					"type": "address"
				}
			],
			"stateMutability": "view",
			"type": "function"
		},
		{
			"inputs": [],
			"name": "electionEnd",
			"outputs": [
				{
					"internalType": "uint256",
					"name": "",
					"type": "uint256"
				}
			],
			"stateMutability": "view",
			"type": "function"
		},
		{
			"inputs": [
				{
					"internalType": "uint256",
					"name": "candidateID",
					"type": "uint256"
				}
			],
			"name": "getCandidateInfo",
			"outputs": [
				{
					"components": [
						{
							"internalType": "string",
							"name": "fullName",
							"type": "string"
						},
						{
							"internalType": "string",
							"name": "bio",
							"type": "string"
						},
						{
							"internalType": "string",
							"name": "website",
							"type": "string"
						},
						{
							"internalType": "uint256",
							"name": "registeredAt",
							"type": "uint256"
						},
						{
							"internalType": "uint256",
							"name": "voteCount",
							"type": "uint256"
						},
						{
							"internalType": "bool",
							"name": "electedMember",
							"type": "bool"
						},
						{
							"internalType": "uint256",
							"name": "leaderAt",
							"type": "uint256"
						}
					],
					"internalType": "struct Candidate",
					"name": "",
					"type": "tuple"
				}
			],
			"stateMutability": "view",
			"type": "function"
		},
		{
			"inputs": [],
			"name": "getCurrentPhase",
			"outputs": [
				{
					"internalType": "enum Phase",
					"name": "",
					"type": "uint8"
				}
			],
			"stateMutability": "nonpayable",
			"type": "function"
		},
		{
			"inputs": [],
			"name": "getElectionResults",
			"outputs": [
				{
					"internalType": "address[50]",
					"name": "",
					"type": "address[50]"
				}
			],
			"stateMutability": "nonpayable",
			"type": "function"
		},
		{
			"inputs": [
				{
					"internalType": "bytes32",
					"name": "voterHash",
					"type": "bytes32"
				}
			],
			"name": "getHashStatus",
			"outputs": [
				{
					"internalType": "bool",
					"name": "",
					"type": "bool"
				}
			],
			"stateMutability": "view",
			"type": "function"
		},
		{
			"inputs": [
				{
					"internalType": "address",
					"name": "voterAddress",
					"type": "address"
				}
			],
			"name": "getVoteTime",
			"outputs": [
				{
					"internalType": "uint256",
					"name": "",
					"type": "uint256"
				}
			],
			"stateMutability": "view",
			"type": "function"
		},
		{
			"inputs": [],
			"name": "membersElected",
			"outputs": [
				{
					"internalType": "bool",
					"name": "",
					"type": "bool"
				}
			],
			"stateMutability": "view",
			"type": "function"
		},
		{
			"inputs": [],
			"name": "neutral",
			"outputs": [
				{
					"internalType": "address",
					"name": "",
					"type": "address"
				}
			],
			"stateMutability": "view",
			"type": "function"
		},
		{
			"inputs": [
				{
					"internalType": "uint256",
					"name": "",
					"type": "uint256"
				}
			],
			"name": "proposals",
			"outputs": [
				{
					"internalType": "address",
					"name": "proposer",
					"type": "address"
				},
				{
					"internalType": "string",
					"name": "provisions",
					"type": "string"
				},
				{
					"internalType": "uint256",
					"name": "proposedAt",
					"type": "uint256"
				},
				{
					"internalType": "uint256",
					"name": "executedAt",
					"type": "uint256"
				},
				{
					"internalType": "uint256",
					"name": "withdrawnAt",
					"type": "uint256"
				},
				{
					"internalType": "uint8",
					"name": "yesVotes",
					"type": "uint8"
				}
			],
			"stateMutability": "view",
			"type": "function"
		},
		{
			"inputs": [],
			"name": "referendumEndTime",
			"outputs": [
				{
					"internalType": "uint256",
					"name": "",
					"type": "uint256"
				}
			],
			"stateMutability": "view",
			"type": "function"
		},
		{
			"inputs": [
				{
					"internalType": "string",
					"name": "_fullName",
					"type": "string"
				},
				{
					"internalType": "string",
					"name": "_bio",
					"type": "string"
				},
				{
					"internalType": "string",
					"name": "_website",
					"type": "string"
				}
			],
			"name": "registerAsCandidate",
			"outputs": [],
			"stateMutability": "payable",
			"type": "function"
		},
		{
			"inputs": [],
			"name": "startTime",
			"outputs": [
				{
					"internalType": "uint256",
					"name": "",
					"type": "uint256"
				}
			],
			"stateMutability": "view",
			"type": "function"
		},
		{
			"inputs": [
				{
					"internalType": "uint256[]",
					"name": "_candidatesIds",
					"type": "uint256[]"
				}
			],
			"name": "voteCandidates",
			"outputs": [],
			"stateMutability": "nonpayable",
			"type": "function"
		}
	]
}