{
	"data": {
		"bytecode": {
			"linkReferences": {},
			"object": "60a0604052348015600e575f80fd5b5060805161483f6100275f395f6115a2015261483f5ff3fe6080604052600436106101ec575f3560e01c806386a0dd7d1161010c578063beb547951161009f578063e292bf161161006e578063e292bf16146106fd578063e42a54c414610727578063e965b7c914610751578063eedb2d2814610793578063f3a4aba9146107bd576101ec565b8063beb5479514610657578063c1b1315714610681578063ce7ea161146106a9578063d1791ae0146106d3576101ec565b8063b0feb260116100db578063b0feb26014610598578063b13c744b146105c2578063bbea6f0b146105fe578063be003ee614610641576101ec565b806386a0dd7d146104e057806399b0d39c1461050a5780639a74132714610532578063a3a40ea51461056e576101ec565b806347f7b7221161018457806378e3ef201161015357806378e3ef201461042657806378e97925146104625780637d48536d1461048c5780638325ed2d146104b6576101ec565b806347f7b7221461037e5780634d0c8726146103a85780635004e24a146103d257806354c17527146103fc576101ec565b806329c83be1116101c057806329c83be1146102c55780633590c0fd146102ed5780633def77b714610329578063452d32bb14610353576101ec565b8062fa88e2146101f0578063013cf08b1461020c578063071a34741461024d57806308ec6a1914610289575b5f80fd5b61020a60048036038101906102059190612dd6565b6107f9565b005b348015610217575f80fd5b50610232600480360381019061022d9190612e1d565b610b20565b60405161024496959493929190612f11565b60405180910390f35b348015610258575f80fd5b50610273600480360381019061026e9190612fa1565b610c18565b6040516102809190612ff9565b60405180910390f35b348015610294575f80fd5b506102af60048036038101906102aa9190613012565b610c41565b6040516102bc91906130e2565b60405180910390f35b3480156102d0575f80fd5b506102eb60048036038101906102e69190613125565b610cd2565b005b3480156102f8575f80fd5b50610313600480360381019061030e9190613163565b6110ac565b604051610320919061318e565b60405180910390f35b348015610334575f80fd5b5061033d6110c1565b60405161034a91906131c5565b60405180910390f35b34801561035e575f80fd5b506103676110c7565b60405161037592919061330d565b60405180910390f35b348015610389575f80fd5b50610392611522565b60405161039f919061318e565b60405180910390f35b3480156103b3575f80fd5b506103bc611529565b6040516103c9919061333b565b60405180910390f35b3480156103dd575f80fd5b506103e661154e565b6040516103f3919061318e565b60405180910390f35b348015610407575f80fd5b50610410611555565b60405161041d919061336c565b60405180910390f35b348015610431575f80fd5b5061044c60048036038101906104479190613163565b61155a565b604051610459919061318e565b60405180910390f35b34801561046d575f80fd5b506104766115a0565b604051610483919061318e565b60405180910390f35b348015610497575f80fd5b506104a06115c4565b6040516104ad919061318e565b60405180910390f35b3480156104c1575f80fd5b506104ca6115cf565b6040516104d791906131c5565b60405180910390f35b3480156104eb575f80fd5b506104f46115d4565b6040516105019190613385565b60405180910390f35b348015610515575f80fd5b50610530600480360381019061052b91906133e4565b6115d9565b005b34801561053d575f80fd5b5061055860048036038101906105539190613163565b611c30565b604051610565919061336c565b60405180910390f35b348015610579575f80fd5b50610582611c45565b60405161058f9190613497565b60405180910390f35b3480156105a3575f80fd5b506105ac611d08565b6040516105b9919061318e565b60405180910390f35b3480156105cd575f80fd5b506105e860048036038101906105e39190612e1d565b611d0e565b6040516105f5919061333b565b60405180910390f35b348015610609575f80fd5b50610624600480360381019061061f9190612e1d565b611d49565b6040516106389897969594939291906134bf565b60405180910390f35b34801561064c575f80fd5b5061065561203a565b005b348015610662575f80fd5b5061066b6121c0565b604051610678919061318e565b60405180910390f35b34801561068c575f80fd5b506106a760048036038101906106a291906135b7565b6121c6565b005b3480156106b4575f80fd5b506106bd6124ea565b6040516106ca919061318e565b60405180910390f35b3480156106de575f80fd5b506106e76124ef565b6040516106f491906131c5565b60405180910390f35b348015610708575f80fd5b506107116124f6565b60405161071e9190613385565b60405180910390f35b348015610732575f80fd5b5061073b6124fb565b60405161074891906131c5565b60405180910390f35b34801561075c575f80fd5b5061077760048036038101906107729190613163565b612510565b60405161078a979695949392919061361c565b60405180910390f35b34801561079e575f80fd5b506107a76126ec565b6040516107b4919061318e565b60405180910390f35b3480156107c8575f80fd5b506107e360048036038101906107de9190612e1d565b6126f2565b6040516107f0919061369e565b60405180910390f35b6002600481111561080d5761080c613424565b5b610815611c45565b600481111561082757610826613424565b5b14610867576040517f08c379a000000000000000000000000000000000000000000000000000000000815260040161085e90613708565b60405180910390fd5b5f815f015151116108ad576040517f08c379a00000000000000000000000000000000000000000000000000000000081526004016108a490613770565b60405180910390fd5b5f816020015151116108f4576040517f08c379a00000000000000000000000000000000000000000000000000000000081526004016108eb906137d8565b60405180910390fd5b5f8160600151511161093b576040517f08c379a000000000000000000000000000000000000000000000000000000000815260040161093290613840565b60405180910390fd5b66038d7ea4c68000341015610985576040517f08c379a000000000000000000000000000000000000000000000000000000000815260040161097c906138a8565b60405180910390fd5b5f815f01518260400151836020015184606001516040516020016109ac9493929190613900565b60405160208183030381529060405280519060200120905081608001518114610a0a576040517f08c379a0000000000000000000000000000000000000000000000000000000008152600401610a0190613987565b60405180910390fd5b428260c00181815250505f8260e0018181525050600682908060018154018082558091505060019003905f5260205f2090600802015f909190919091505f820151815f019081610a5a9190613b9f565b506020820151816001019081610a709190613b9f565b506040820151816002019081610a869190613b9f565b506060820151816003019081610a9c9190613b9f565b506080820151816004015560a0820151816005019081610abc9190613b9f565b5060c0820151816006015560e0820151816007015550506001600680549050610ae59190613c9b565b7ff20c47478412252c3f85e5881b3cbee3e68a1ab2b3cd2d3fd8633ee288582e2983604051610b14919061369e565b60405180910390a25050565b60048181548110610b2f575f80fd5b905f5260205f2090600702015f91509050805f015f9054906101000a900473ffffffffffffffffffffffffffffffffffffffff1690806001018054610b73906139d2565b80601f0160208091040260200160405190810160405280929190818152602001828054610b9f906139d2565b8015610bea5780601f10610bc157610100808354040283529160200191610bea565b820191905f5260205f20905b815481529060010190602001808311610bcd57829003601f168201915b505050505090806002015490806003015490806004015490806005015f9054906101000a900460ff16905086565b600b602052815f5260405f20602052805f5260405f205f915091509054906101000a90045f0b81565b610c49612a61565b60075f8381526020019081526020015f20600280602002604051908101604052809291908260028015610cc6576020028201915b815f9054906101000a900473ffffffffffffffffffffffffffffffffffffffff1673ffffffffffffffffffffffffffffffffffffffff1681526020019060010190808311610c7d575b50505050509050919050565b60035f3373ffffffffffffffffffffffffffffffffffffffff1673ffffffffffffffffffffffffffffffffffffffff1681526020019081526020015f206005015f9054906101000a900460ff16610d5e576040517f08c379a0000000000000000000000000000000000000000000000000000000008152600401610d5590613d18565b60405180910390fd5b7fffffffffffffffffffffffffffffffffffffffffffffffffffffffffffffffff815f0b12158015610d9357506001815f0b13155b610dd2576040517f08c379a0000000000000000000000000000000000000000000000000000000008152600401610dc990613d80565b60405180910390fd5b5f600b5f3373ffffffffffffffffffffffffffffffffffffffff1673ffffffffffffffffffffffffffffffffffffffff1681526020019081526020015f205f8473ffffffffffffffffffffffffffffffffffffffff1673ffffffffffffffffffffffffffffffffffffffff1681526020019081526020015f205f9054906101000a90045f0b90505f815f0b148015610e6c57505f825f0b14155b15610f49576103e8600d5f3373ffffffffffffffffffffffffffffffffffffffff1673ffffffffffffffffffffffffffffffffffffffff1681526020019081526020015f205410610ef2576040517f08c379a0000000000000000000000000000000000000000000000000000000008152600401610ee990613de8565b60405180910390fd5b600d5f3373ffffffffffffffffffffffffffffffffffffffff1673ffffffffffffffffffffffffffffffffffffffff1681526020019081526020015f205f815480929190610f3f90613e06565b9190505550610fb5565b5f815f0b14158015610f5c57505f825f0b145b15610fb457600d5f3373ffffffffffffffffffffffffffffffffffffffff1673ffffffffffffffffffffffffffffffffffffffff1681526020019081526020015f205f815480929190610fae90613e4d565b91905055505b5b81600b5f3373ffffffffffffffffffffffffffffffffffffffff1673ffffffffffffffffffffffffffffffffffffffff1681526020019081526020015f205f8573ffffffffffffffffffffffffffffffffffffffff1673ffffffffffffffffffffffffffffffffffffffff1681526020019081526020015f205f6101000a81548160ff02191690835f0b60ff16021790555080826110539190613e74565b5f0b600c5f8573ffffffffffffffffffffffffffffffffffffffff1673ffffffffffffffffffffffffffffffffffffffff1681526020019081526020015f205f8282546110a09190613ecc565b92505081905550505050565b600d602052805f5260405f205f915090505481565b6103e881565b5f6110d0612a83565b5f600a5411156110f157600a546110e8600a546126f2565b9150915061151e565b5f600554118015611103575042600554105b611142576040517f08c379a000000000000000000000000000000000000000000000000000000000815260040161113990613f57565b60405180910390fd5b5f805f90505f5b6006805490508110156111b857816006828154811061116b5761116a613f75565b5b905f5260205f2090600802016007015411156111ab576006818154811061119557611194613f75565b5b905f5260205f2090600802016007015491508092505b8080600101915050611149565b5081600a819055505f600683815481106111d5576111d4613f75565b5b905f5260205f209060080201604051806101000160405290815f820180546111fc906139d2565b80601f0160208091040260200160405190810160405280929190818152602001828054611228906139d2565b80156112735780601f1061124a57610100808354040283529160200191611273565b820191905f5260205f20905b81548152906001019060200180831161125657829003601f168201915b5050505050815260200160018201805461128c906139d2565b80601f01602080910402602001604051908101604052809291908181526020018280546112b8906139d2565b80156113035780601f106112da57610100808354040283529160200191611303565b820191905f5260205f20905b8154815290600101906020018083116112e657829003601f168201915b5050505050815260200160028201805461131c906139d2565b80601f0160208091040260200160405190810160405280929190818152602001828054611348906139d2565b80156113935780601f1061136a57610100808354040283529160200191611393565b820191905f5260205f20905b81548152906001019060200180831161137657829003601f168201915b505050505081526020016003820180546113ac906139d2565b80601f01602080910402602001604051908101604052809291908181526020018280546113d8906139d2565b80156114235780601f106113fa57610100808354040283529160200191611423565b820191905f5260205f20905b81548152906001019060200180831161140657829003601f168201915b5050505050815260200160048201548152602001600582018054611446906139d2565b80601f0160208091040260200160405190810160405280929190818152602001828054611472906139d2565b80156114bd5780601f10611494576101008083540402835291602001916114bd565b820191905f5260205f20905b8154815290600101906020018083116114a057829003601f168201915b50505050508152602001600682015481526020016007820154815250509050827f5716523a05c9d13997b5a619d69a47eba3d34842ff0b403eed7ca3a75b05c7088260405161150c919061369e565b60405180910390a28281945094505050505b9091565b6212750081565b60015f9054906101000a900473ffffffffffffffffffffffffffffffffffffffff1681565b625c490081565b600a81565b5f60085f8373ffffffffffffffffffffffffffffffffffffffff1673ffffffffffffffffffffffffffffffffffffffff1681526020019081526020015f20549050919050565b7f000000000000000000000000000000000000000000000000000000000000000081565b66038d7ea4c6800081565b600a81565b600a81565b600a600c5f3373ffffffffffffffffffffffffffffffffffffffff1673ffffffffffffffffffffffffffffffffffffffff1681526020019081526020015f2054121561165a576040517f08c379a000000000000000000000000000000000000000000000000000000000815260040161165190613fec565b60405180910390fd5b6002600481111561166e5761166d613424565b5b611676611c45565b600481111561168857611687613424565b5b146116c8576040517f08c379a00000000000000000000000000000000000000000000000000000000081526004016116bf90613708565b60405180910390fd5b600a63ffffffff16600a1480156116e65750600a63ffffffff16600a145b611725576040517f08c379a000000000000000000000000000000000000000000000000000000000815260040161171c90614054565b60405180910390fd5b5f5b600a63ffffffff168160ff1610156119ac575f73ffffffffffffffffffffffffffffffffffffffff1660075f858460ff16600a811061176957611768613f75565b5b602002013581526020019081526020015f205f6002811061178d5761178c613f75565b5b015f9054906101000a900473ffffffffffffffffffffffffffffffffffffffff1673ffffffffffffffffffffffffffffffffffffffff160361184a573360075f858460ff16600a81106117e3576117e2613f75565b5b602002013581526020019081526020015f205f6002811061180757611806613f75565b5b015f6101000a81548173ffffffffffffffffffffffffffffffffffffffff021916908373ffffffffffffffffffffffffffffffffffffffff160217905550611999565b5f73ffffffffffffffffffffffffffffffffffffffff1660075f858460ff16600a811061187a57611879613f75565b5b602002013581526020019081526020015f2060016002811061189f5761189e613f75565b5b015f9054906101000a900473ffffffffffffffffffffffffffffffffffffffff1673ffffffffffffffffffffffffffffffffffffffff160361195d573360075f858460ff16600a81106118f5576118f4613f75565b5b602002013581526020019081526020015f2060016002811061191a57611919613f75565b5b015f6101000a81548173ffffffffffffffffffffffffffffffffffffffff021916908373ffffffffffffffffffffffffffffffffffffffff160217905550611998565b6040517f08c379a000000000000000000000000000000000000000000000000000000000815260040161198f906140bc565b60405180910390fd5b5b80806119a4906140da565b915050611727565b505f5b600a63ffffffff168160ff161015611b8c575f73ffffffffffffffffffffffffffffffffffffffff16828260ff16600a81106119ee576119ed613f75565b5b602002016020810190611a019190613163565b73ffffffffffffffffffffffffffffffffffffffff1603611a57576040517f08c379a0000000000000000000000000000000000000000000000000000000008152600401611a4e9061414c565b60405180910390fd5b600260085f848460ff16600a8110611a7257611a71613f75565b5b602002016020810190611a859190613163565b73ffffffffffffffffffffffffffffffffffffffff1673ffffffffffffffffffffffffffffffffffffffff1681526020019081526020015f205410611aff576040517f08c379a0000000000000000000000000000000000000000000000000000000008152600401611af6906141da565b60405180910390fd5b60085f838360ff16600a8110611b1857611b17613f75565b5b602002016020810190611b2b9190613163565b73ffffffffffffffffffffffffffffffffffffffff1673ffffffffffffffffffffffffffffffffffffffff1681526020019081526020015f205f815480929190611b7490613e06565b91905055508080611b84906140da565b9150506119af565b50600a60095f8282829054906101000a900463ffffffff16611bae91906141f8565b92506101000a81548163ffffffff021916908363ffffffff16021790555080604051611bda91906142f2565b60405180910390207f2ba0aaa9c0e5919bf5cb9fde7b2825194f9dc6e9ab2a9174c59892a1585c446a3360095f9054906101000a900463ffffffff16604051611c2492919061433d565b60405180910390a25050565b600c602052805f5260405f205f915090505481565b5f620151805f54611c569190613c9b565b421015611c65575f9050611d05565b5f54421015611cdb5760326002611c7c9190614364565b60ff166002805490501080611cb057506103e863ffffffff16600160149054906101000a900463ffffffff1663ffffffff16105b15611cd257621275005f54611cc591906143a0565b5f819055505f9050611d05565b60019050611d05565b5f60055403611ced5760029050611d05565b600554421015611d005760039050611d05565b600490505b90565b60055481565b60028181548110611d1d575f80fd5b905f5260205f20015f915054906101000a900473ffffffffffffffffffffffffffffffffffffffff1681565b60068181548110611d58575f80fd5b905f5260205f2090600802015f91509050805f018054611d77906139d2565b80601f0160208091040260200160405190810160405280929190818152602001828054611da3906139d2565b8015611dee5780601f10611dc557610100808354040283529160200191611dee565b820191905f5260205f20905b815481529060010190602001808311611dd157829003601f168201915b505050505090806001018054611e03906139d2565b80601f0160208091040260200160405190810160405280929190818152602001828054611e2f906139d2565b8015611e7a5780601f10611e5157610100808354040283529160200191611e7a565b820191905f5260205f20905b815481529060010190602001808311611e5d57829003601f168201915b505050505090806002018054611e8f906139d2565b80601f0160208091040260200160405190810160405280929190818152602001828054611ebb906139d2565b8015611f065780601f10611edd57610100808354040283529160200191611f06565b820191905f5260205f20905b815481529060010190602001808311611ee957829003601f168201915b505050505090806003018054611f1b906139d2565b80601f0160208091040260200160405190810160405280929190818152602001828054611f47906139d2565b8015611f925780601f10611f6957610100808354040283529160200191611f92565b820191905f5260205f20905b815481529060010190602001808311611f7557829003601f168201915b505050505090806004015490806005018054611fad906139d2565b80601f0160208091040260200160405190810160405280929190818152602001828054611fd9906139d2565b80156120245780601f10611ffb57610100808354040283529160200191612024565b820191905f5260205f20905b81548152906001019060200180831161200757829003601f168201915b5050505050908060060154908060070154905088565b42625c49005f5461204b91906143a0565b1061208b576040517f08c379a00000000000000000000000000000000000000000000000000000000081526004016120829061441d565b60405180910390fd5b5f600a54146120cf576040517f08c379a00000000000000000000000000000000000000000000000000000000081526004016120c690614485565b60405180910390fd5b600a60ff166006805490501161211a576040517f08c379a0000000000000000000000000000000000000000000000000000000008152600401612111906144ed565b60405180910390fd5b620f424063ffffffff1660095f9054906101000a900463ffffffff1663ffffffff16101561217d576040517f08c379a000000000000000000000000000000000000000000000000000000000815260040161217490614555565b60405180910390fd5b620151804261218c91906143a0565b6005819055507fa0ab6b515144b30d8222a12e45d1c1df7265286d8a0d9f73c23c8b06f602187160405160405180910390a1565b6103e881565b600554421061220a576040517f08c379a0000000000000000000000000000000000000000000000000000000008152600401612201906145bd565b60405180910390fd5b600680549050828290501115612255576040517f08c379a000000000000000000000000000000000000000000000000000000000815260040161224c90614625565b60405180910390fd5b600260085f3373ffffffffffffffffffffffffffffffffffffffff1673ffffffffffffffffffffffffffffffffffffffff1681526020019081526020015f2054146122d5576040517f08c379a00000000000000000000000000000000000000000000000000000000081526004016122cc906146b3565b60405180910390fd5b5f60068054905067ffffffffffffffff8111156122f5576122f4612aed565b5b6040519080825280602002602001820160405280156123235781602001602082028036833780820191505090505b5090505f5b8383905081101561245f575f84848381811061234757612346613f75565b5b9050602002013590506006805490508110612397576040517f08c379a000000000000000000000000000000000000000000000000000000000815260040161238e9061471b565b60405180910390fd5b8281815181106123aa576123a9613f75565b5b6020026020010151156123f2576040517f08c379a00000000000000000000000000000000000000000000000000000000081526004016123e990614783565b60405180910390fd5b600183828151811061240757612406613f75565b5b6020026020010190151590811515815250506006818154811061242d5761242c613f75565b5b905f5260205f2090600802016007015f81548092919061244c90613e06565b9190505550508080600101915050612328565b504260085f3373ffffffffffffffffffffffffffffffffffffffff1673ffffffffffffffffffffffffffffffffffffffff1681526020019081526020015f20819055503373ffffffffffffffffffffffffffffffffffffffff167f4b50b8927fd1b030f5404dc4394c2a5d30d7f6c6fa6d732c089ffe8c10f0942160405160405180910390a2505050565b5f5481565b620f424081565b603281565b60095f9054906101000a900463ffffffff1681565b6003602052805f5260405f205f91509050805f01805461252f906139d2565b80601f016020809104026020016040519081016040528092919081815260200182805461255b906139d2565b80156125a65780601f1061257d576101008083540402835291602001916125a6565b820191905f5260205f20905b81548152906001019060200180831161258957829003601f168201915b5050505050908060010180546125bb906139d2565b80601f01602080910402602001604051908101604052809291908181526020018280546125e7906139d2565b80156126325780601f1061260957610100808354040283529160200191612632565b820191905f5260205f20905b81548152906001019060200180831161261557829003601f168201915b505050505090806002018054612647906139d2565b80601f0160208091040260200160405190810160405280929190818152602001828054612673906139d2565b80156126be5780601f10612695576101008083540402835291602001916126be565b820191905f5260205f20905b8154815290600101906020018083116126a157829003601f168201915b505050505090806003015490806004015490806005015f9054906101000a900460ff16908060060154905087565b600a5481565b6126fa612a83565b6006805490508210612741576040517f08c379a0000000000000000000000000000000000000000000000000000000008152600401612738906147eb565b60405180910390fd5b6006828154811061275557612754613f75565b5b905f5260205f209060080201604051806101000160405290815f8201805461277c906139d2565b80601f01602080910402602001604051908101604052809291908181526020018280546127a8906139d2565b80156127f35780601f106127ca576101008083540402835291602001916127f3565b820191905f5260205f20905b8154815290600101906020018083116127d657829003601f168201915b5050505050815260200160018201805461280c906139d2565b80601f0160208091040260200160405190810160405280929190818152602001828054612838906139d2565b80156128835780601f1061285a57610100808354040283529160200191612883565b820191905f5260205f20905b81548152906001019060200180831161286657829003601f168201915b5050505050815260200160028201805461289c906139d2565b80601f01602080910402602001604051908101604052809291908181526020018280546128c8906139d2565b80156129135780601f106128ea57610100808354040283529160200191612913565b820191905f5260205f20905b8154815290600101906020018083116128f657829003601f168201915b5050505050815260200160038201805461292c906139d2565b80601f0160208091040260200160405190810160405280929190818152602001828054612958906139d2565b80156129a35780601f1061297a576101008083540402835291602001916129a3565b820191905f5260205f20905b81548152906001019060200180831161298657829003601f168201915b50505050508152602001600482015481526020016005820180546129c6906139d2565b80601f01602080910402602001604051908101604052809291908181526020018280546129f2906139d2565b8015612a3d5780601f10612a1457610100808354040283529160200191612a3d565b820191905f5260205f20905b815481529060010190602001808311612a2057829003601f168201915b50505050508152602001600682015481526020016007820154815250509050919050565b6040518060400160405280600290602082028036833780820191505090505090565b604051806101000160405280606081526020016060815260200160608152602001606081526020015f8019168152602001606081526020015f81526020015f81525090565b5f604051905090565b5f80fd5b5f80fd5b5f80fd5b5f601f19601f8301169050919050565b7f4e487b71000000000000000000000000000000000000000000000000000000005f52604160045260245ffd5b612b2382612add565b810181811067ffffffffffffffff82111715612b4257612b41612aed565b5b80604052505050565b5f612b54612ac8565b9050612b608282612b1a565b919050565b5f80fd5b5f80fd5b5f80fd5b5f67ffffffffffffffff821115612b8b57612b8a612aed565b5b612b9482612add565b9050602081019050919050565b828183375f83830152505050565b5f612bc1612bbc84612b71565b612b4b565b905082815260208101848484011115612bdd57612bdc612b6d565b5b612be8848285612ba1565b509392505050565b5f82601f830112612c0457612c03612b69565b5b8135612c14848260208601612baf565b91505092915050565b5f819050919050565b612c2f81612c1d565b8114612c39575f80fd5b50565b5f81359050612c4a81612c26565b92915050565b5f819050919050565b612c6281612c50565b8114612c6c575f80fd5b50565b5f81359050612c7d81612c59565b92915050565b5f6101008284031215612c9957612c98612ad9565b5b612ca4610100612b4b565b90505f82013567ffffffffffffffff811115612cc357612cc2612b65565b5b612ccf84828501612bf0565b5f83015250602082013567ffffffffffffffff811115612cf257612cf1612b65565b5b612cfe84828501612bf0565b602083015250604082013567ffffffffffffffff811115612d2257612d21612b65565b5b612d2e84828501612bf0565b604083015250606082013567ffffffffffffffff811115612d5257612d51612b65565b5b612d5e84828501612bf0565b6060830152506080612d7284828501612c3c565b60808301525060a082013567ffffffffffffffff811115612d9657612d95612b65565b5b612da284828501612bf0565b60a08301525060c0612db684828501612c6f565b60c08301525060e0612dca84828501612c6f565b60e08301525092915050565b5f60208284031215612deb57612dea612ad1565b5b5f82013567ffffffffffffffff811115612e0857612e07612ad5565b5b612e1484828501612c83565b91505092915050565b5f60208284031215612e3257612e31612ad1565b5b5f612e3f84828501612c6f565b91505092915050565b5f73ffffffffffffffffffffffffffffffffffffffff82169050919050565b5f612e7182612e48565b9050919050565b612e8181612e67565b82525050565b5f81519050919050565b5f82825260208201905092915050565b8281835e5f83830152505050565b5f612eb982612e87565b612ec38185612e91565b9350612ed3818560208601612ea1565b612edc81612add565b840191505092915050565b612ef081612c50565b82525050565b5f60ff82169050919050565b612f0b81612ef6565b82525050565b5f60c082019050612f245f830189612e78565b8181036020830152612f368188612eaf565b9050612f456040830187612ee7565b612f526060830186612ee7565b612f5f6080830185612ee7565b612f6c60a0830184612f02565b979650505050505050565b612f8081612e67565b8114612f8a575f80fd5b50565b5f81359050612f9b81612f77565b92915050565b5f8060408385031215612fb757612fb6612ad1565b5b5f612fc485828601612f8d565b9250506020612fd585828601612f8d565b9150509250929050565b5f815f0b9050919050565b612ff381612fdf565b82525050565b5f60208201905061300c5f830184612fea565b92915050565b5f6020828403121561302757613026612ad1565b5b5f61303484828501612c3c565b91505092915050565b5f60029050919050565b5f81905092915050565b5f819050919050565b61306381612e67565b82525050565b5f613074838361305a565b60208301905092915050565b5f602082019050919050565b6130958161303d565b61309f8184613047565b92506130aa82613051565b805f5b838110156130da5781516130c18782613069565b96506130cc83613080565b9250506001810190506130ad565b505050505050565b5f6040820190506130f55f83018461308c565b92915050565b61310481612fdf565b811461310e575f80fd5b50565b5f8135905061311f816130fb565b92915050565b5f806040838503121561313b5761313a612ad1565b5b5f61314885828601612f8d565b925050602061315985828601613111565b9150509250929050565b5f6020828403121561317857613177612ad1565b5b5f61318584828501612f8d565b91505092915050565b5f6020820190506131a15f830184612ee7565b92915050565b5f63ffffffff82169050919050565b6131bf816131a7565b82525050565b5f6020820190506131d85f8301846131b6565b92915050565b5f82825260208201905092915050565b5f6131f882612e87565b61320281856131de565b9350613212818560208601612ea1565b61321b81612add565b840191505092915050565b61322f81612c1d565b82525050565b61323e81612c50565b82525050565b5f61010083015f8301518482035f86015261325f82826131ee565b9150506020830151848203602086015261327982826131ee565b9150506040830151848203604086015261329382826131ee565b915050606083015184820360608601526132ad82826131ee565b91505060808301516132c26080860182613226565b5060a083015184820360a08601526132da82826131ee565b91505060c08301516132ef60c0860182613235565b5060e083015161330260e0860182613235565b508091505092915050565b5f6040820190506133205f830185612ee7565b81810360208301526133328184613244565b90509392505050565b5f60208201905061334e5f830184612e78565b92915050565b5f819050919050565b61336681613354565b82525050565b5f60208201905061337f5f83018461335d565b92915050565b5f6020820190506133985f830184612f02565b92915050565b5f80fd5b5f819050826020600a02820111156133bd576133bc61339e565b5b92915050565b5f819050826020600a02820111156133de576133dd61339e565b5b92915050565b5f8061028083850312156133fb576133fa612ad1565b5b5f613408858286016133a2565b92505061014061341a858286016133c3565b9150509250929050565b7f4e487b71000000000000000000000000000000000000000000000000000000005f52602160045260245ffd5b6005811061346257613461613424565b5b50565b5f81905061347282613451565b919050565b5f61348182613465565b9050919050565b61349181613477565b82525050565b5f6020820190506134aa5f830184613488565b92915050565b6134b981612c1d565b82525050565b5f610100820190508181035f8301526134d8818b612eaf565b905081810360208301526134ec818a612eaf565b905081810360408301526135008189612eaf565b905081810360608301526135148188612eaf565b905061352360808301876134b0565b81810360a08301526135358186612eaf565b905061354460c0830185612ee7565b61355160e0830184612ee7565b9998505050505050505050565b5f80fd5b5f8083601f84011261357757613576612b69565b5b8235905067ffffffffffffffff8111156135945761359361355e565b5b6020830191508360208202830111156135b0576135af61339e565b5b9250929050565b5f80602083850312156135cd576135cc612ad1565b5b5f83013567ffffffffffffffff8111156135ea576135e9612ad5565b5b6135f685828601613562565b92509250509250929050565b5f8115159050919050565b61361681613602565b82525050565b5f60e0820190508181035f830152613634818a612eaf565b905081810360208301526136488189612eaf565b9050818103604083015261365c8188612eaf565b905061366b6060830187612ee7565b6136786080830186612ee7565b61368560a083018561360d565b61369260c0830184612ee7565b98975050505050505050565b5f6020820190508181035f8301526136b68184613244565b905092915050565b7f57726f6e672070686173650000000000000000000000000000000000000000005f82015250565b5f6136f2600b83612e91565b91506136fd826136be565b602082019050919050565b5f6020820190508181035f83015261371f816136e6565b9050919050565b7f4465736372697074696f6e2072657175697265640000000000000000000000005f82015250565b5f61375a601483612e91565b915061376582613726565b602082019050919050565b5f6020820190508181035f8301526137878161374e565b9050919050565b7f636f6e737469747574696f6e54657874207265717569726564000000000000005f82015250565b5f6137c2601983612e91565b91506137cd8261378e565b602082019050919050565b5f6020820190508181035f8301526137ef816137b6565b9050919050565b7f50726f706f736572206e616d65207265717569726564000000000000000000005f82015250565b5f61382a601683612e91565b9150613835826137f6565b602082019050919050565b5f6020820190508181035f8301526138578161381e565b9050919050565b7f496e73756666696369656e74207375626d697373696f6e2066656500000000005f82015250565b5f613892601b83612e91565b915061389d8261385e565b602082019050919050565b5f6020820190508181035f8301526138bf81613886565b9050919050565b5f81905092915050565b5f6138da82612e87565b6138e481856138c6565b93506138f4818560208601612ea1565b80840191505092915050565b5f61390b82876138d0565b915061391782866138d0565b915061392382856138d0565b915061392f82846138d0565b915081905095945050505050565b7f496e636f727265637420486173682100000000000000000000000000000000005f82015250565b5f613971600f83612e91565b915061397c8261393d565b602082019050919050565b5f6020820190508181035f83015261399e81613965565b9050919050565b7f4e487b71000000000000000000000000000000000000000000000000000000005f52602260045260245ffd5b5f60028204905060018216806139e957607f821691505b6020821081036139fc576139fb6139a5565b5b50919050565b5f819050815f5260205f209050919050565b5f6020601f8301049050919050565b5f82821b905092915050565b5f60088302613a5e7fffffffffffffffffffffffffffffffffffffffffffffffffffffffffffffffff82613a23565b613a688683613a23565b95508019841693508086168417925050509392505050565b5f819050919050565b5f613aa3613a9e613a9984612c50565b613a80565b612c50565b9050919050565b5f819050919050565b613abc83613a89565b613ad0613ac882613aaa565b848454613a2f565b825550505050565b5f90565b613ae4613ad8565b613aef818484613ab3565b505050565b5b81811015613b1257613b075f82613adc565b600181019050613af5565b5050565b601f821115613b5757613b2881613a02565b613b3184613a14565b81016020851015613b40578190505b613b54613b4c85613a14565b830182613af4565b50505b505050565b5f82821c905092915050565b5f613b775f1984600802613b5c565b1980831691505092915050565b5f613b8f8383613b68565b9150826002028217905092915050565b613ba882612e87565b67ffffffffffffffff811115613bc157613bc0612aed565b5b613bcb82546139d2565b613bd6828285613b16565b5f60209050601f831160018114613c07575f8415613bf5578287015190505b613bff8582613b84565b865550613c66565b601f198416613c1586613a02565b5f5b82811015613c3c57848901518255600182019150602085019450602081019050613c17565b86831015613c595784890151613c55601f891682613b68565b8355505b6001600288020188555050505b505050505050565b7f4e487b71000000000000000000000000000000000000000000000000000000005f52601160045260245ffd5b5f613ca582612c50565b9150613cb083612c50565b9250828203905081811115613cc857613cc7613c6e565b5b92915050565b7f4e6f742061206d656d62657200000000000000000000000000000000000000005f82015250565b5f613d02600c83612e91565b9150613d0d82613cce565b602082019050919050565b5f6020820190508181035f830152613d2f81613cf6565b9050919050565b7f566f7465206d757374206265202d312c20302c206f72203100000000000000005f82015250565b5f613d6a601883612e91565b9150613d7582613d36565b602082019050919050565b5f6020820190508181035f830152613d9781613d5e565b9050919050565b7f4d617820766f74657320726561636865640000000000000000000000000000005f82015250565b5f613dd2601183612e91565b9150613ddd82613d9e565b602082019050919050565b5f6020820190508181035f830152613dff81613dc6565b9050919050565b5f613e1082612c50565b91507fffffffffffffffffffffffffffffffffffffffffffffffffffffffffffffffff8203613e4257613e41613c6e565b5b600182019050919050565b5f613e5782612c50565b91505f8203613e6957613e68613c6e565b5b600182039050919050565b5f613e7e82612fdf565b9150613e8983612fdf565b92508282039050607f81137fffffffffffffffffffffffffffffffffffffffffffffffffffffffffffffff8082121715613ec657613ec5613c6e565b5b92915050565b5f613ed682613354565b9150613ee183613354565b92508282019050828112155f8312168382125f841215161715613f0757613f06613c6e565b5b92915050565b7f43616c6c206f6e6365206166746572205265666572656e64756d0000000000005f82015250565b5f613f41601a83612e91565b9150613f4c82613f0d565b602082019050919050565b5f6020820190508181035f830152613f6e81613f35565b9050919050565b7f4e487b71000000000000000000000000000000000000000000000000000000005f52603260045260245ffd5b7f4e6f7420656e6f75676820617070726f76616c000000000000000000000000005f82015250565b5f613fd6601383612e91565b9150613fe182613fa2565b602082019050919050565b5f6020820190508181035f83015261400381613fca565b9050919050565b7f496e636f72726563742062617463682073697a650000000000000000000000005f82015250565b5f61403e601483612e91565b91506140498261400a565b602082019050919050565b5f6020820190508181035f83015261406b81614032565b9050919050565b7f566f746572206861736820616c726561647920726567697374657265642e00005f82015250565b5f6140a6601e83612e91565b91506140b182614072565b602082019050919050565b5f6020820190508181035f8301526140d38161409a565b9050919050565b5f6140e482612ef6565b915060ff82036140f7576140f6613c6e565b5b600182019050919050565b7f496e76616c696420766f746572206164647265737300000000000000000000005f82015250565b5f614136601583612e91565b915061414182614102565b602082019050919050565b5f6020820190508181035f8301526141638161412a565b9050919050565b7f416464726573737320616c726561647920726567697374657265642e205265675f8201527f697374726172204552524f522100000000000000000000000000000000000000602082015250565b5f6141c4602d83612e91565b91506141cf8261416a565b604082019050919050565b5f6020820190508181035f8301526141f1816141b8565b9050919050565b5f614202826131a7565b915061420d836131a7565b9250828201905063ffffffff81111561422957614228613c6e565b5b92915050565b5f600a9050919050565b5f81905092915050565b5f819050919050565b61425581612e67565b82525050565b5f614266838361424c565b60208301905092915050565b5f6142806020840184612f8d565b905092915050565b5f602082019050919050565b61429d8161422f565b6142a78184614239565b92506142b282614243565b805f5b838110156142ea576142c78284614272565b6142d1878261425b565b96506142dc83614288565b9250506001810190506142b5565b505050505050565b5f6142fd8284614294565b6101408201915081905092915050565b5f61432761432261431d846131a7565b613a80565b612c50565b9050919050565b6143378161430d565b82525050565b5f6040820190506143505f830185612e78565b61435d602083018461432e565b9392505050565b5f61436e82612ef6565b915061437983612ef6565b925082820261438781612ef6565b915080821461439957614398613c6e565b5b5092915050565b5f6143aa82612c50565b91506143b583612c50565b92508282019050808211156143cd576143cc613c6e565b5b92915050565b7f43616e6e6f74207374617274207265666572656e64756d2079657400000000005f82015250565b5f614407601b83612e91565b9150614412826143d3565b602082019050919050565b5f6020820190508181035f830152614434816143fb565b9050919050565b7f416c7265616479207261746966696564206120636f6e737469747574696f6e005f82015250565b5f61446f601f83612e91565b915061447a8261443b565b602082019050919050565b5f6020820190508181035f83015261449c81614463565b9050919050565b7f4e6f7420656e6f756768206472616674730000000000000000000000000000005f82015250565b5f6144d7601183612e91565b91506144e2826144a3565b602082019050919050565b5f6020820190508181035f830152614504816144cb565b9050919050565b7f4e6f7420656e6f75676820766f746572730000000000000000000000000000005f82015250565b5f61453f601183612e91565b915061454a8261450b565b602082019050919050565b5f6020820190508181035f83015261456c81614533565b9050919050565b7f4e6f7420696e205265666572656e64756d2074696d65000000000000000000005f82015250565b5f6145a7601683612e91565b91506145b282614573565b602082019050919050565b5f6020820190508181035f8301526145d48161459b565b9050919050565b7f496e76616c6964206472616674206c69737400000000000000000000000000005f82015250565b5f61460f601283612e91565b915061461a826145db565b602082019050919050565b5f6020820190508181035f83015261463c81614603565b9050919050565b7f566f746564206f72204e6f74207265676973746572656420656e6f75676820745f8201527f696d657300000000000000000000000000000000000000000000000000000000602082015250565b5f61469d602483612e91565b91506146a882614643565b604082019050919050565b5f6020820190508181035f8301526146ca81614691565b9050919050565b7f496e76616c6964206472616674000000000000000000000000000000000000005f82015250565b5f614705600d83612e91565b9150614710826146d1565b602082019050919050565b5f6020820190508181035f830152614732816146f9565b9050919050565b7f52657065746974697665206472616674496400000000000000000000000000005f82015250565b5f61476d601283612e91565b915061477882614739565b602082019050919050565b5f6020820190508181035f83015261479a81614761565b9050919050565b7f496e76616c696420636f6e737469747574696f6e2064726166742049440000005f82015250565b5f6147d5601d83612e91565b91506147e0826147a1565b602082019050919050565b5f6020820190508181035f830152614802816147c9565b905091905056fea26469706673582212208ff0bad1484cb2400b9cd942f96300f05f947de96eeb93c52dc6194a2a89b30464736f6c634300081a0033",
			"opcodes": "PUSH1 0xA0 PUSH1 0x40 MSTORE CALLVALUE DUP1 ISZERO PUSH1 0xE JUMPI PUSH0 DUP1 REVERT JUMPDEST POP PUSH1 0x80 MLOAD PUSH2 0x483F PUSH2 0x27 PUSH0 CODECOPY PUSH0 PUSH2 0x15A2 ADD MSTORE PUSH2 0x483F PUSH0 RETURN INVALID PUSH1 0x80 PUSH1 0x40 MSTORE PUSH1 0x4 CALLDATASIZE LT PUSH2 0x1EC JUMPI PUSH0 CALLDATALOAD PUSH1 0xE0 SHR DUP1 PUSH4 0x86A0DD7D GT PUSH2 0x10C JUMPI DUP1 PUSH4 0xBEB54795 GT PUSH2 0x9F JUMPI DUP1 PUSH4 0xE292BF16 GT PUSH2 0x6E JUMPI DUP1 PUSH4 0xE292BF16 EQ PUSH2 0x6FD JUMPI DUP1 PUSH4 0xE42A54C4 EQ PUSH2 0x727 JUMPI DUP1 PUSH4 0xE965B7C9 EQ PUSH2 0x751 JUMPI DUP1 PUSH4 0xEEDB2D28 EQ PUSH2 0x793 JUMPI DUP1 PUSH4 0xF3A4ABA9 EQ PUSH2 0x7BD JUMPI PUSH2 0x1EC JUMP JUMPDEST DUP1 PUSH4 0xBEB54795 EQ PUSH2 0x657 JUMPI DUP1 PUSH4 0xC1B13157 EQ PUSH2 0x681 JUMPI DUP1 PUSH4 0xCE7EA161 EQ PUSH2 0x6A9 JUMPI DUP1 PUSH4 0xD1791AE0 EQ PUSH2 0x6D3 JUMPI PUSH2 0x1EC JUMP JUMPDEST DUP1 PUSH4 0xB0FEB260 GT PUSH2 0xDB JUMPI DUP1 PUSH4 0xB0FEB260 EQ PUSH2 0x598 JUMPI DUP1 PUSH4 0xB13C744B EQ PUSH2 0x5C2 JUMPI DUP1 PUSH4 0xBBEA6F0B EQ PUSH2 0x5FE JUMPI DUP1 PUSH4 0xBE003EE6 EQ PUSH2 0x641 JUMPI PUSH2 0x1EC JUMP JUMPDEST DUP1 PUSH4 0x86A0DD7D EQ PUSH2 0x4E0 JUMPI DUP1 PUSH4 0x99B0D39C EQ PUSH2 0x50A JUMPI DUP1 PUSH4 0x9A741327 EQ PUSH2 0x532 JUMPI DUP1 PUSH4 0xA3A40EA5 EQ PUSH2 0x56E JUMPI PUSH2 0x1EC JUMP JUMPDEST DUP1 PUSH4 0x47F7B722 GT PUSH2 0x184 JUMPI DUP1 PUSH4 0x78E3EF20 GT PUSH2 0x153 JUMPI DUP1 PUSH4 0x78E3EF20 EQ PUSH2 0x426 JUMPI DUP1 PUSH4 0x78E97925 EQ PUSH2 0x462 JUMPI DUP1 PUSH4 0x7D48536D EQ PUSH2 0x48C JUMPI DUP1 PUSH4 0x8325ED2D EQ PUSH2 0x4B6 JUMPI PUSH2 0x1EC JUMP JUMPDEST DUP1 PUSH4 0x47F7B722 EQ PUSH2 0x37E JUMPI DUP1 PUSH4 0x4D0C8726 EQ PUSH2 0x3A8 JUMPI DUP1 PUSH4 0x5004E24A EQ PUSH2 0x3D2 JUMPI DUP1 PUSH4 0x54C17527 EQ PUSH2 0x3FC JUMPI PUSH2 0x1EC JUMP JUMPDEST DUP1 PUSH4 0x29C83BE1 GT PUSH2 0x1C0 JUMPI DUP1 PUSH4 0x29C83BE1 EQ PUSH2 0x2C5 JUMPI DUP1 PUSH4 0x3590C0FD EQ PUSH2 0x2ED JUMPI DUP1 PUSH4 0x3DEF77B7 EQ PUSH2 0x329 JUMPI DUP1 PUSH4 0x452D32BB EQ PUSH2 0x353 JUMPI PUSH2 0x1EC JUMP JUMPDEST DUP1 PUSH3 0xFA88E2 EQ PUSH2 0x1F0 JUMPI DUP1 PUSH4 0x13CF08B EQ PUSH2 0x20C JUMPI DUP1 PUSH4 0x71A3474 EQ PUSH2 0x24D JUMPI DUP1 PUSH4 0x8EC6A19 EQ PUSH2 0x289 JUMPI JUMPDEST PUSH0 DUP1 REVERT JUMPDEST PUSH2 0x20A PUSH1 0x4 DUP1 CALLDATASIZE SUB DUP2 ADD SWAP1 PUSH2 0x205 SWAP2 SWAP1 PUSH2 0x2DD6 JUMP JUMPDEST PUSH2 0x7F9 JUMP JUMPDEST STOP JUMPDEST CALLVALUE DUP1 ISZERO PUSH2 0x217 JUMPI PUSH0 DUP1 REVERT JUMPDEST POP PUSH2 0x232 PUSH1 0x4 DUP1 CALLDATASIZE SUB DUP2 ADD SWAP1 PUSH2 0x22D SWAP2 SWAP1 PUSH2 0x2E1D JUMP JUMPDEST PUSH2 0xB20 JUMP JUMPDEST PUSH1 0x40 MLOAD PUSH2 0x244 SWAP7 SWAP6 SWAP5 SWAP4 SWAP3 SWAP2 SWAP1 PUSH2 0x2F11 JUMP JUMPDEST PUSH1 0x40 MLOAD DUP1 SWAP2 SUB SWAP1 RETURN JUMPDEST CALLVALUE DUP1 ISZERO PUSH2 0x258 JUMPI PUSH0 DUP1 REVERT JUMPDEST POP PUSH2 0x273 PUSH1 0x4 DUP1 CALLDATASIZE SUB DUP2 ADD SWAP1 PUSH2 0x26E SWAP2 SWAP1 PUSH2 0x2FA1 JUMP JUMPDEST PUSH2 0xC18 JUMP JUMPDEST PUSH1 0x40 MLOAD PUSH2 0x280 SWAP2 SWAP1 PUSH2 0x2FF9 JUMP JUMPDEST PUSH1 0x40 MLOAD DUP1 SWAP2 SUB SWAP1 RETURN JUMPDEST CALLVALUE DUP1 ISZERO PUSH2 0x294 JUMPI PUSH0 DUP1 REVERT JUMPDEST POP PUSH2 0x2AF PUSH1 0x4 DUP1 CALLDATASIZE SUB DUP2 ADD SWAP1 PUSH2 0x2AA SWAP2 SWAP1 PUSH2 0x3012 JUMP JUMPDEST PUSH2 0xC41 JUMP JUMPDEST PUSH1 0x40 MLOAD PUSH2 0x2BC SWAP2 SWAP1 PUSH2 0x30E2 JUMP JUMPDEST PUSH1 0x40 MLOAD DUP1 SWAP2 SUB SWAP1 RETURN JUMPDEST CALLVALUE DUP1 ISZERO PUSH2 0x2D0 JUMPI PUSH0 DUP1 REVERT JUMPDEST POP PUSH2 0x2EB PUSH1 0x4 DUP1 CALLDATASIZE SUB DUP2 ADD SWAP1 PUSH2 0x2E6 SWAP2 SWAP1 PUSH2 0x3125 JUMP JUMPDEST PUSH2 0xCD2 JUMP JUMPDEST STOP JUMPDEST CALLVALUE DUP1 ISZERO PUSH2 0x2F8 JUMPI PUSH0 DUP1 REVERT JUMPDEST POP PUSH2 0x313 PUSH1 0x4 DUP1 CALLDATASIZE SUB DUP2 ADD SWAP1 PUSH2 0x30E SWAP2 SWAP1 PUSH2 0x3163 JUMP JUMPDEST PUSH2 0x10AC JUMP JUMPDEST PUSH1 0x40 MLOAD PUSH2 0x320 SWAP2 SWAP1 PUSH2 0x318E JUMP JUMPDEST PUSH1 0x40 MLOAD DUP1 SWAP2 SUB SWAP1 RETURN JUMPDEST CALLVALUE DUP1 ISZERO PUSH2 0x334 JUMPI PUSH0 DUP1 REVERT JUMPDEST POP PUSH2 0x33D PUSH2 0x10C1 JUMP JUMPDEST PUSH1 0x40 MLOAD PUSH2 0x34A SWAP2 SWAP1 PUSH2 0x31C5 JUMP JUMPDEST PUSH1 0x40 MLOAD DUP1 SWAP2 SUB SWAP1 RETURN JUMPDEST CALLVALUE DUP1 ISZERO PUSH2 0x35E JUMPI PUSH0 DUP1 REVERT JUMPDEST POP PUSH2 0x367 PUSH2 0x10C7 JUMP JUMPDEST PUSH1 0x40 MLOAD PUSH2 0x375 SWAP3 SWAP2 SWAP1 PUSH2 0x330D JUMP JUMPDEST PUSH1 0x40 MLOAD DUP1 SWAP2 SUB SWAP1 RETURN JUMPDEST CALLVALUE DUP1 ISZERO PUSH2 0x389 JUMPI PUSH0 DUP1 REVERT JUMPDEST POP PUSH2 0x392 PUSH2 0x1522 JUMP JUMPDEST PUSH1 0x40 MLOAD PUSH2 0x39F SWAP2 SWAP1 PUSH2 0x318E JUMP JUMPDEST PUSH1 0x40 MLOAD DUP1 SWAP2 SUB SWAP1 RETURN JUMPDEST CALLVALUE DUP1 ISZERO PUSH2 0x3B3 JUMPI PUSH0 DUP1 REVERT JUMPDEST POP PUSH2 0x3BC PUSH2 0x1529 JUMP JUMPDEST PUSH1 0x40 MLOAD PUSH2 0x3C9 SWAP2 SWAP1 PUSH2 0x333B JUMP JUMPDEST PUSH1 0x40 MLOAD DUP1 SWAP2 SUB SWAP1 RETURN JUMPDEST CALLVALUE DUP1 ISZERO PUSH2 0x3DD JUMPI PUSH0 DUP1 REVERT JUMPDEST POP PUSH2 0x3E6 PUSH2 0x154E JUMP JUMPDEST PUSH1 0x40 MLOAD PUSH2 0x3F3 SWAP2 SWAP1 PUSH2 0x318E JUMP JUMPDEST PUSH1 0x40 MLOAD DUP1 SWAP2 SUB SWAP1 RETURN JUMPDEST CALLVALUE DUP1 ISZERO PUSH2 0x407 JUMPI PUSH0 DUP1 REVERT JUMPDEST POP PUSH2 0x410 PUSH2 0x1555 JUMP JUMPDEST PUSH1 0x40 MLOAD PUSH2 0x41D SWAP2 SWAP1 PUSH2 0x336C JUMP JUMPDEST PUSH1 0x40 MLOAD DUP1 SWAP2 SUB SWAP1 RETURN JUMPDEST CALLVALUE DUP1 ISZERO PUSH2 0x431 JUMPI PUSH0 DUP1 REVERT JUMPDEST POP PUSH2 0x44C PUSH1 0x4 DUP1 CALLDATASIZE SUB DUP2 ADD SWAP1 PUSH2 0x447 SWAP2 SWAP1 PUSH2 0x3163 JUMP JUMPDEST PUSH2 0x155A JUMP JUMPDEST PUSH1 0x40 MLOAD PUSH2 0x459 SWAP2 SWAP1 PUSH2 0x318E JUMP JUMPDEST PUSH1 0x40 MLOAD DUP1 SWAP2 SUB SWAP1 RETURN JUMPDEST CALLVALUE DUP1 ISZERO PUSH2 0x46D JUMPI PUSH0 DUP1 REVERT JUMPDEST POP PUSH2 0x476 PUSH2 0x15A0 JUMP JUMPDEST PUSH1 0x40 MLOAD PUSH2 0x483 SWAP2 SWAP1 PUSH2 0x318E JUMP JUMPDEST PUSH1 0x40 MLOAD DUP1 SWAP2 SUB SWAP1 RETURN JUMPDEST CALLVALUE DUP1 ISZERO PUSH2 0x497 JUMPI PUSH0 DUP1 REVERT JUMPDEST POP PUSH2 0x4A0 PUSH2 0x15C4 JUMP JUMPDEST PUSH1 0x40 MLOAD PUSH2 0x4AD SWAP2 SWAP1 PUSH2 0x318E JUMP JUMPDEST PUSH1 0x40 MLOAD DUP1 SWAP2 SUB SWAP1 RETURN JUMPDEST CALLVALUE DUP1 ISZERO PUSH2 0x4C1 JUMPI PUSH0 DUP1 REVERT JUMPDEST POP PUSH2 0x4CA PUSH2 0x15CF JUMP JUMPDEST PUSH1 0x40 MLOAD PUSH2 0x4D7 SWAP2 SWAP1 PUSH2 0x31C5 JUMP JUMPDEST PUSH1 0x40 MLOAD DUP1 SWAP2 SUB SWAP1 RETURN JUMPDEST CALLVALUE DUP1 ISZERO PUSH2 0x4EB JUMPI PUSH0 DUP1 REVERT JUMPDEST POP PUSH2 0x4F4 PUSH2 0x15D4 JUMP JUMPDEST PUSH1 0x40 MLOAD PUSH2 0x501 SWAP2 SWAP1 PUSH2 0x3385 JUMP JUMPDEST PUSH1 0x40 MLOAD DUP1 SWAP2 SUB SWAP1 RETURN JUMPDEST CALLVALUE DUP1 ISZERO PUSH2 0x515 JUMPI PUSH0 DUP1 REVERT JUMPDEST POP PUSH2 0x530 PUSH1 0x4 DUP1 CALLDATASIZE SUB DUP2 ADD SWAP1 PUSH2 0x52B SWAP2 SWAP1 PUSH2 0x33E4 JUMP JUMPDEST PUSH2 0x15D9 JUMP JUMPDEST STOP JUMPDEST CALLVALUE DUP1 ISZERO PUSH2 0x53D JUMPI PUSH0 DUP1 REVERT JUMPDEST POP PUSH2 0x558 PUSH1 0x4 DUP1 CALLDATASIZE SUB DUP2 ADD SWAP1 PUSH2 0x553 SWAP2 SWAP1 PUSH2 0x3163 JUMP JUMPDEST PUSH2 0x1C30 JUMP JUMPDEST PUSH1 0x40 MLOAD PUSH2 0x565 SWAP2 SWAP1 PUSH2 0x336C JUMP JUMPDEST PUSH1 0x40 MLOAD DUP1 SWAP2 SUB SWAP1 RETURN JUMPDEST CALLVALUE DUP1 ISZERO PUSH2 0x579 JUMPI PUSH0 DUP1 REVERT JUMPDEST POP PUSH2 0x582 PUSH2 0x1C45 JUMP JUMPDEST PUSH1 0x40 MLOAD PUSH2 0x58F SWAP2 SWAP1 PUSH2 0x3497 JUMP JUMPDEST PUSH1 0x40 MLOAD DUP1 SWAP2 SUB SWAP1 RETURN JUMPDEST CALLVALUE DUP1 ISZERO PUSH2 0x5A3 JUMPI PUSH0 DUP1 REVERT JUMPDEST POP PUSH2 0x5AC PUSH2 0x1D08 JUMP JUMPDEST PUSH1 0x40 MLOAD PUSH2 0x5B9 SWAP2 SWAP1 PUSH2 0x318E JUMP JUMPDEST PUSH1 0x40 MLOAD DUP1 SWAP2 SUB SWAP1 RETURN JUMPDEST CALLVALUE DUP1 ISZERO PUSH2 0x5CD JUMPI PUSH0 DUP1 REVERT JUMPDEST POP PUSH2 0x5E8 PUSH1 0x4 DUP1 CALLDATASIZE SUB DUP2 ADD SWAP1 PUSH2 0x5E3 SWAP2 SWAP1 PUSH2 0x2E1D JUMP JUMPDEST PUSH2 0x1D0E JUMP JUMPDEST PUSH1 0x40 MLOAD PUSH2 0x5F5 SWAP2 SWAP1 PUSH2 0x333B JUMP JUMPDEST PUSH1 0x40 MLOAD DUP1 SWAP2 SUB SWAP1 RETURN JUMPDEST CALLVALUE DUP1 ISZERO PUSH2 0x609 JUMPI PUSH0 DUP1 REVERT JUMPDEST POP PUSH2 0x624 PUSH1 0x4 DUP1 CALLDATASIZE SUB DUP2 ADD SWAP1 PUSH2 0x61F SWAP2 SWAP1 PUSH2 0x2E1D JUMP JUMPDEST PUSH2 0x1D49 JUMP JUMPDEST PUSH1 0x40 MLOAD PUSH2 0x638 SWAP9 SWAP8 SWAP7 SWAP6 SWAP5 SWAP4 SWAP3 SWAP2 SWAP1 PUSH2 0x34BF JUMP JUMPDEST PUSH1 0x40 MLOAD DUP1 SWAP2 SUB SWAP1 RETURN JUMPDEST CALLVALUE DUP1 ISZERO PUSH2 0x64C JUMPI PUSH0 DUP1 REVERT JUMPDEST POP PUSH2 0x655 PUSH2 0x203A JUMP JUMPDEST STOP JUMPDEST CALLVALUE DUP1 ISZERO PUSH2 0x662 JUMPI PUSH0 DUP1 REVERT JUMPDEST POP PUSH2 0x66B PUSH2 0x21C0 JUMP JUMPDEST PUSH1 0x40 MLOAD PUSH2 0x678 SWAP2 SWAP1 PUSH2 0x318E JUMP JUMPDEST PUSH1 0x40 MLOAD DUP1 SWAP2 SUB SWAP1 RETURN JUMPDEST CALLVALUE DUP1 ISZERO PUSH2 0x68C JUMPI PUSH0 DUP1 REVERT JUMPDEST POP PUSH2 0x6A7 PUSH1 0x4 DUP1 CALLDATASIZE SUB DUP2 ADD SWAP1 PUSH2 0x6A2 SWAP2 SWAP1 PUSH2 0x35B7 JUMP JUMPDEST PUSH2 0x21C6 JUMP JUMPDEST STOP JUMPDEST CALLVALUE DUP1 ISZERO PUSH2 0x6B4 JUMPI PUSH0 DUP1 REVERT JUMPDEST POP PUSH2 0x6BD PUSH2 0x24EA JUMP JUMPDEST PUSH1 0x40 MLOAD PUSH2 0x6CA SWAP2 SWAP1 PUSH2 0x318E JUMP JUMPDEST PUSH1 0x40 MLOAD DUP1 SWAP2 SUB SWAP1 RETURN JUMPDEST CALLVALUE DUP1 ISZERO PUSH2 0x6DE JUMPI PUSH0 DUP1 REVERT JUMPDEST POP PUSH2 0x6E7 PUSH2 0x24EF JUMP JUMPDEST PUSH1 0x40 MLOAD PUSH2 0x6F4 SWAP2 SWAP1 PUSH2 0x31C5 JUMP JUMPDEST PUSH1 0x40 MLOAD DUP1 SWAP2 SUB SWAP1 RETURN JUMPDEST CALLVALUE DUP1 ISZERO PUSH2 0x708 JUMPI PUSH0 DUP1 REVERT JUMPDEST POP PUSH2 0x711 PUSH2 0x24F6 JUMP JUMPDEST PUSH1 0x40 MLOAD PUSH2 0x71E SWAP2 SWAP1 PUSH2 0x3385 JUMP JUMPDEST PUSH1 0x40 MLOAD DUP1 SWAP2 SUB SWAP1 RETURN JUMPDEST CALLVALUE DUP1 ISZERO PUSH2 0x732 JUMPI PUSH0 DUP1 REVERT JUMPDEST POP PUSH2 0x73B PUSH2 0x24FB JUMP JUMPDEST PUSH1 0x40 MLOAD PUSH2 0x748 SWAP2 SWAP1 PUSH2 0x31C5 JUMP JUMPDEST PUSH1 0x40 MLOAD DUP1 SWAP2 SUB SWAP1 RETURN JUMPDEST CALLVALUE DUP1 ISZERO PUSH2 0x75C JUMPI PUSH0 DUP1 REVERT JUMPDEST POP PUSH2 0x777 PUSH1 0x4 DUP1 CALLDATASIZE SUB DUP2 ADD SWAP1 PUSH2 0x772 SWAP2 SWAP1 PUSH2 0x3163 JUMP JUMPDEST PUSH2 0x2510 JUMP JUMPDEST PUSH1 0x40 MLOAD PUSH2 0x78A SWAP8 SWAP7 SWAP6 SWAP5 SWAP4 SWAP3 SWAP2 SWAP1 PUSH2 0x361C JUMP JUMPDEST PUSH1 0x40 MLOAD DUP1 SWAP2 SUB SWAP1 RETURN JUMPDEST CALLVALUE DUP1 ISZERO PUSH2 0x79E JUMPI PUSH0 DUP1 REVERT JUMPDEST POP PUSH2 0x7A7 PUSH2 0x26EC JUMP JUMPDEST PUSH1 0x40 MLOAD PUSH2 0x7B4 SWAP2 SWAP1 PUSH2 0x318E JUMP JUMPDEST PUSH1 0x40 MLOAD DUP1 SWAP2 SUB SWAP1 RETURN JUMPDEST CALLVALUE DUP1 ISZERO PUSH2 0x7C8 JUMPI PUSH0 DUP1 REVERT JUMPDEST POP PUSH2 0x7E3 PUSH1 0x4 DUP1 CALLDATASIZE SUB DUP2 ADD SWAP1 PUSH2 0x7DE SWAP2 SWAP1 PUSH2 0x2E1D JUMP JUMPDEST PUSH2 0x26F2 JUMP JUMPDEST PUSH1 0x40 MLOAD PUSH2 0x7F0 SWAP2 SWAP1 PUSH2 0x369E JUMP JUMPDEST PUSH1 0x40 MLOAD DUP1 SWAP2 SUB SWAP1 RETURN JUMPDEST PUSH1 0x2 PUSH1 0x4 DUP2 GT ISZERO PUSH2 0x80D JUMPI PUSH2 0x80C PUSH2 0x3424 JUMP JUMPDEST JUMPDEST PUSH2 0x815 PUSH2 0x1C45 JUMP JUMPDEST PUSH1 0x4 DUP2 GT ISZERO PUSH2 0x827 JUMPI PUSH2 0x826 PUSH2 0x3424 JUMP JUMPDEST JUMPDEST EQ PUSH2 0x867 JUMPI PUSH1 0x40 MLOAD PUSH32 0x8C379A000000000000000000000000000000000000000000000000000000000 DUP2 MSTORE PUSH1 0x4 ADD PUSH2 0x85E SWAP1 PUSH2 0x3708 JUMP JUMPDEST PUSH1 0x40 MLOAD DUP1 SWAP2 SUB SWAP1 REVERT JUMPDEST PUSH0 DUP2 PUSH0 ADD MLOAD MLOAD GT PUSH2 0x8AD JUMPI PUSH1 0x40 MLOAD PUSH32 0x8C379A000000000000000000000000000000000000000000000000000000000 DUP2 MSTORE PUSH1 0x4 ADD PUSH2 0x8A4 SWAP1 PUSH2 0x3770 JUMP JUMPDEST PUSH1 0x40 MLOAD DUP1 SWAP2 SUB SWAP1 REVERT JUMPDEST PUSH0 DUP2 PUSH1 0x20 ADD MLOAD MLOAD GT PUSH2 0x8F4 JUMPI PUSH1 0x40 MLOAD PUSH32 0x8C379A000000000000000000000000000000000000000000000000000000000 DUP2 MSTORE PUSH1 0x4 ADD PUSH2 0x8EB SWAP1 PUSH2 0x37D8 JUMP JUMPDEST PUSH1 0x40 MLOAD DUP1 SWAP2 SUB SWAP1 REVERT JUMPDEST PUSH0 DUP2 PUSH1 0x60 ADD MLOAD MLOAD GT PUSH2 0x93B JUMPI PUSH1 0x40 MLOAD PUSH32 0x8C379A000000000000000000000000000000000000000000000000000000000 DUP2 MSTORE PUSH1 0x4 ADD PUSH2 0x932 SWAP1 PUSH2 0x3840 JUMP JUMPDEST PUSH1 0x40 MLOAD DUP1 SWAP2 SUB SWAP1 REVERT JUMPDEST PUSH7 0x38D7EA4C68000 CALLVALUE LT ISZERO PUSH2 0x985 JUMPI PUSH1 0x40 MLOAD PUSH32 0x8C379A000000000000000000000000000000000000000000000000000000000 DUP2 MSTORE PUSH1 0x4 ADD PUSH2 0x97C SWAP1 PUSH2 0x38A8 JUMP JUMPDEST PUSH1 0x40 MLOAD DUP1 SWAP2 SUB SWAP1 REVERT JUMPDEST PUSH0 DUP2 PUSH0 ADD MLOAD DUP3 PUSH1 0x40 ADD MLOAD DUP4 PUSH1 0x20 ADD MLOAD DUP5 PUSH1 0x60 ADD MLOAD PUSH1 0x40 MLOAD PUSH1 0x20 ADD PUSH2 0x9AC SWAP5 SWAP4 SWAP3 SWAP2 SWAP1 PUSH2 0x3900 JUMP JUMPDEST PUSH1 0x40 MLOAD PUSH1 0x20 DUP2 DUP4 SUB SUB DUP2 MSTORE SWAP1 PUSH1 0x40 MSTORE DUP1 MLOAD SWAP1 PUSH1 0x20 ADD KECCAK256 SWAP1 POP DUP2 PUSH1 0x80 ADD MLOAD DUP2 EQ PUSH2 0xA0A JUMPI PUSH1 0x40 MLOAD PUSH32 0x8C379A000000000000000000000000000000000000000000000000000000000 DUP2 MSTORE PUSH1 0x4 ADD PUSH2 0xA01 SWAP1 PUSH2 0x3987 JUMP JUMPDEST PUSH1 0x40 MLOAD DUP1 SWAP2 SUB SWAP1 REVERT JUMPDEST TIMESTAMP DUP3 PUSH1 0xC0 ADD DUP2 DUP2 MSTORE POP POP PUSH0 DUP3 PUSH1 0xE0 ADD DUP2 DUP2 MSTORE POP POP PUSH1 0x6 DUP3 SWAP1 DUP1 PUSH1 0x1 DUP2 SLOAD ADD DUP1 DUP3 SSTORE DUP1 SWAP2 POP POP PUSH1 0x1 SWAP1 SUB SWAP1 PUSH0 MSTORE PUSH1 0x20 PUSH0 KECCAK256 SWAP1 PUSH1 0x8 MUL ADD PUSH0 SWAP1 SWAP2 SWAP1 SWAP2 SWAP1 SWAP2 POP PUSH0 DUP3 ADD MLOAD DUP2 PUSH0 ADD SWAP1 DUP2 PUSH2 0xA5A SWAP2 SWAP1 PUSH2 0x3B9F JUMP JUMPDEST POP PUSH1 0x20 DUP3 ADD MLOAD DUP2 PUSH1 0x1 ADD SWAP1 DUP2 PUSH2 0xA70 SWAP2 SWAP1 PUSH2 0x3B9F JUMP JUMPDEST POP PUSH1 0x40 DUP3 ADD MLOAD DUP2 PUSH1 0x2 ADD SWAP1 DUP2 PUSH2 0xA86 SWAP2 SWAP1 PUSH2 0x3B9F JUMP JUMPDEST POP PUSH1 0x60 DUP3 ADD MLOAD DUP2 PUSH1 0x3 ADD SWAP1 DUP2 PUSH2 0xA9C SWAP2 SWAP1 PUSH2 0x3B9F JUMP JUMPDEST POP PUSH1 0x80 DUP3 ADD MLOAD DUP2 PUSH1 0x4 ADD SSTORE PUSH1 0xA0 DUP3 ADD MLOAD DUP2 PUSH1 0x5 ADD SWAP1 DUP2 PUSH2 0xABC SWAP2 SWAP1 PUSH2 0x3B9F JUMP JUMPDEST POP PUSH1 0xC0 DUP3 ADD MLOAD DUP2 PUSH1 0x6 ADD SSTORE PUSH1 0xE0 DUP3 ADD MLOAD DUP2 PUSH1 0x7 ADD SSTORE POP POP PUSH1 0x1 PUSH1 0x6 DUP1 SLOAD SWAP1 POP PUSH2 0xAE5 SWAP2 SWAP1 PUSH2 0x3C9B JUMP JUMPDEST PUSH32 0xF20C47478412252C3F85E5881B3CBEE3E68A1AB2B3CD2D3FD8633EE288582E29 DUP4 PUSH1 0x40 MLOAD PUSH2 0xB14 SWAP2 SWAP1 PUSH2 0x369E JUMP JUMPDEST PUSH1 0x40 MLOAD DUP1 SWAP2 SUB SWAP1 LOG2 POP POP JUMP JUMPDEST PUSH1 0x4 DUP2 DUP2 SLOAD DUP2 LT PUSH2 0xB2F JUMPI PUSH0 DUP1 REVERT JUMPDEST SWAP1 PUSH0 MSTORE PUSH1 0x20 PUSH0 KECCAK256 SWAP1 PUSH1 0x7 MUL ADD PUSH0 SWAP2 POP SWAP1 POP DUP1 PUSH0 ADD PUSH0 SWAP1 SLOAD SWAP1 PUSH2 0x100 EXP SWAP1 DIV PUSH20 0xFFFFFFFFFFFFFFFFFFFFFFFFFFFFFFFFFFFFFFFF AND SWAP1 DUP1 PUSH1 0x1 ADD DUP1 SLOAD PUSH2 0xB73 SWAP1 PUSH2 0x39D2 JUMP JUMPDEST DUP1 PUSH1 0x1F ADD PUSH1 0x20 DUP1 SWAP2 DIV MUL PUSH1 0x20 ADD PUSH1 0x40 MLOAD SWAP1 DUP2 ADD PUSH1 0x40 MSTORE DUP1 SWAP3 SWAP2 SWAP1 DUP2 DUP2 MSTORE PUSH1 0x20 ADD DUP3 DUP1 SLOAD PUSH2 0xB9F SWAP1 PUSH2 0x39D2 JUMP JUMPDEST DUP1 ISZERO PUSH2 0xBEA JUMPI DUP1 PUSH1 0x1F LT PUSH2 0xBC1 JUMPI PUSH2 0x100 DUP1 DUP4 SLOAD DIV MUL DUP4 MSTORE SWAP2 PUSH1 0x20 ADD SWAP2 PUSH2 0xBEA JUMP JUMPDEST DUP3 ADD SWAP2 SWAP1 PUSH0 MSTORE PUSH1 0x20 PUSH0 KECCAK256 SWAP1 JUMPDEST DUP2 SLOAD DUP2 MSTORE SWAP1 PUSH1 0x1 ADD SWAP1 PUSH1 0x20 ADD DUP1 DUP4 GT PUSH2 0xBCD JUMPI DUP3 SWAP1 SUB PUSH1 0x1F AND DUP3 ADD SWAP2 JUMPDEST POP POP POP POP POP SWAP1 DUP1 PUSH1 0x2 ADD SLOAD SWAP1 DUP1 PUSH1 0x3 ADD SLOAD SWAP1 DUP1 PUSH1 0x4 ADD SLOAD SWAP1 DUP1 PUSH1 0x5 ADD PUSH0 SWAP1 SLOAD SWAP1 PUSH2 0x100 EXP SWAP1 DIV PUSH1 0xFF AND SWAP1 POP DUP7 JUMP JUMPDEST PUSH1 0xB PUSH1 0x20 MSTORE DUP2 PUSH0 MSTORE PUSH1 0x40 PUSH0 KECCAK256 PUSH1 0x20 MSTORE DUP1 PUSH0 MSTORE PUSH1 0x40 PUSH0 KECCAK256 PUSH0 SWAP2 POP SWAP2 POP SWAP1 SLOAD SWAP1 PUSH2 0x100 EXP SWAP1 DIV PUSH0 SIGNEXTEND DUP2 JUMP JUMPDEST PUSH2 0xC49 PUSH2 0x2A61 JUMP JUMPDEST PUSH1 0x7 PUSH0 DUP4 DUP2 MSTORE PUSH1 0x20 ADD SWAP1 DUP2 MSTORE PUSH1 0x20 ADD PUSH0 KECCAK256 PUSH1 0x2 DUP1 PUSH1 0x20 MUL PUSH1 0x40 MLOAD SWAP1 DUP2 ADD PUSH1 0x40 MSTORE DUP1 SWAP3 SWAP2 SWAP1 DUP3 PUSH1 0x2 DUP1 ISZERO PUSH2 0xCC6 JUMPI PUSH1 0x20 MUL DUP3 ADD SWAP2 JUMPDEST DUP2 PUSH0 SWAP1 SLOAD SWAP1 PUSH2 0x100 EXP SWAP1 DIV PUSH20 0xFFFFFFFFFFFFFFFFFFFFFFFFFFFFFFFFFFFFFFFF AND PUSH20 0xFFFFFFFFFFFFFFFFFFFFFFFFFFFFFFFFFFFFFFFF AND DUP2 MSTORE PUSH1 0x20 ADD SWAP1 PUSH1 0x1 ADD SWAP1 DUP1 DUP4 GT PUSH2 0xC7D JUMPI JUMPDEST POP POP POP POP POP SWAP1 POP SWAP2 SWAP1 POP JUMP JUMPDEST PUSH1 0x3 PUSH0 CALLER PUSH20 0xFFFFFFFFFFFFFFFFFFFFFFFFFFFFFFFFFFFFFFFF AND PUSH20 0xFFFFFFFFFFFFFFFFFFFFFFFFFFFFFFFFFFFFFFFF AND DUP2 MSTORE PUSH1 0x20 ADD SWAP1 DUP2 MSTORE PUSH1 0x20 ADD PUSH0 KECCAK256 PUSH1 0x5 ADD PUSH0 SWAP1 SLOAD SWAP1 PUSH2 0x100 EXP SWAP1 DIV PUSH1 0xFF AND PUSH2 0xD5E JUMPI PUSH1 0x40 MLOAD PUSH32 0x8C379A000000000000000000000000000000000000000000000000000000000 DUP2 MSTORE PUSH1 0x4 ADD PUSH2 0xD55 SWAP1 PUSH2 0x3D18 JUMP JUMPDEST PUSH1 0x40 MLOAD DUP1 SWAP2 SUB SWAP1 REVERT JUMPDEST PUSH32 0xFFFFFFFFFFFFFFFFFFFFFFFFFFFFFFFFFFFFFFFFFFFFFFFFFFFFFFFFFFFFFFFF DUP2 PUSH0 SIGNEXTEND SLT ISZERO DUP1 ISZERO PUSH2 0xD93 JUMPI POP PUSH1 0x1 DUP2 PUSH0 SIGNEXTEND SGT ISZERO JUMPDEST PUSH2 0xDD2 JUMPI PUSH1 0x40 MLOAD PUSH32 0x8C379A000000000000000000000000000000000000000000000000000000000 DUP2 MSTORE PUSH1 0x4 ADD PUSH2 0xDC9 SWAP1 PUSH2 0x3D80 JUMP JUMPDEST PUSH1 0x40 MLOAD DUP1 SWAP2 SUB SWAP1 REVERT JUMPDEST PUSH0 PUSH1 0xB PUSH0 CALLER PUSH20 0xFFFFFFFFFFFFFFFFFFFFFFFFFFFFFFFFFFFFFFFF AND PUSH20 0xFFFFFFFFFFFFFFFFFFFFFFFFFFFFFFFFFFFFFFFF AND DUP2 MSTORE PUSH1 0x20 ADD SWAP1 DUP2 MSTORE PUSH1 0x20 ADD PUSH0 KECCAK256 PUSH0 DUP5 PUSH20 0xFFFFFFFFFFFFFFFFFFFFFFFFFFFFFFFFFFFFFFFF AND PUSH20 0xFFFFFFFFFFFFFFFFFFFFFFFFFFFFFFFFFFFFFFFF AND DUP2 MSTORE PUSH1 0x20 ADD SWAP1 DUP2 MSTORE PUSH1 0x20 ADD PUSH0 KECCAK256 PUSH0 SWAP1 SLOAD SWAP1 PUSH2 0x100 EXP SWAP1 DIV PUSH0 SIGNEXTEND SWAP1 POP PUSH0 DUP2 PUSH0 SIGNEXTEND EQ DUP1 ISZERO PUSH2 0xE6C JUMPI POP PUSH0 DUP3 PUSH0 SIGNEXTEND EQ ISZERO JUMPDEST ISZERO PUSH2 0xF49 JUMPI PUSH2 0x3E8 PUSH1 0xD PUSH0 CALLER PUSH20 0xFFFFFFFFFFFFFFFFFFFFFFFFFFFFFFFFFFFFFFFF AND PUSH20 0xFFFFFFFFFFFFFFFFFFFFFFFFFFFFFFFFFFFFFFFF AND DUP2 MSTORE PUSH1 0x20 ADD SWAP1 DUP2 MSTORE PUSH1 0x20 ADD PUSH0 KECCAK256 SLOAD LT PUSH2 0xEF2 JUMPI PUSH1 0x40 MLOAD PUSH32 0x8C379A000000000000000000000000000000000000000000000000000000000 DUP2 MSTORE PUSH1 0x4 ADD PUSH2 0xEE9 SWAP1 PUSH2 0x3DE8 JUMP JUMPDEST PUSH1 0x40 MLOAD DUP1 SWAP2 SUB SWAP1 REVERT JUMPDEST PUSH1 0xD PUSH0 CALLER PUSH20 0xFFFFFFFFFFFFFFFFFFFFFFFFFFFFFFFFFFFFFFFF AND PUSH20 0xFFFFFFFFFFFFFFFFFFFFFFFFFFFFFFFFFFFFFFFF AND DUP2 MSTORE PUSH1 0x20 ADD SWAP1 DUP2 MSTORE PUSH1 0x20 ADD PUSH0 KECCAK256 PUSH0 DUP2 SLOAD DUP1 SWAP3 SWAP2 SWAP1 PUSH2 0xF3F SWAP1 PUSH2 0x3E06 JUMP JUMPDEST SWAP2 SWAP1 POP SSTORE POP PUSH2 0xFB5 JUMP JUMPDEST PUSH0 DUP2 PUSH0 SIGNEXTEND EQ ISZERO DUP1 ISZERO PUSH2 0xF5C JUMPI POP PUSH0 DUP3 PUSH0 SIGNEXTEND EQ JUMPDEST ISZERO PUSH2 0xFB4 JUMPI PUSH1 0xD PUSH0 CALLER PUSH20 0xFFFFFFFFFFFFFFFFFFFFFFFFFFFFFFFFFFFFFFFF AND PUSH20 0xFFFFFFFFFFFFFFFFFFFFFFFFFFFFFFFFFFFFFFFF AND DUP2 MSTORE PUSH1 0x20 ADD SWAP1 DUP2 MSTORE PUSH1 0x20 ADD PUSH0 KECCAK256 PUSH0 DUP2 SLOAD DUP1 SWAP3 SWAP2 SWAP1 PUSH2 0xFAE SWAP1 PUSH2 0x3E4D JUMP JUMPDEST SWAP2 SWAP1 POP SSTORE POP JUMPDEST JUMPDEST DUP2 PUSH1 0xB PUSH0 CALLER PUSH20 0xFFFFFFFFFFFFFFFFFFFFFFFFFFFFFFFFFFFFFFFF AND PUSH20 0xFFFFFFFFFFFFFFFFFFFFFFFFFFFFFFFFFFFFFFFF AND DUP2 MSTORE PUSH1 0x20 ADD SWAP1 DUP2 MSTORE PUSH1 0x20 ADD PUSH0 KECCAK256 PUSH0 DUP6 PUSH20 0xFFFFFFFFFFFFFFFFFFFFFFFFFFFFFFFFFFFFFFFF AND PUSH20 0xFFFFFFFFFFFFFFFFFFFFFFFFFFFFFFFFFFFFFFFF AND DUP2 MSTORE PUSH1 0x20 ADD SWAP1 DUP2 MSTORE PUSH1 0x20 ADD PUSH0 KECCAK256 PUSH0 PUSH2 0x100 EXP DUP2 SLOAD DUP2 PUSH1 0xFF MUL NOT AND SWAP1 DUP4 PUSH0 SIGNEXTEND PUSH1 0xFF AND MUL OR SWAP1 SSTORE POP DUP1 DUP3 PUSH2 0x1053 SWAP2 SWAP1 PUSH2 0x3E74 JUMP JUMPDEST PUSH0 SIGNEXTEND PUSH1 0xC PUSH0 DUP6 PUSH20 0xFFFFFFFFFFFFFFFFFFFFFFFFFFFFFFFFFFFFFFFF AND PUSH20 0xFFFFFFFFFFFFFFFFFFFFFFFFFFFFFFFFFFFFFFFF AND DUP2 MSTORE PUSH1 0x20 ADD SWAP1 DUP2 MSTORE PUSH1 0x20 ADD PUSH0 KECCAK256 PUSH0 DUP3 DUP3 SLOAD PUSH2 0x10A0 SWAP2 SWAP1 PUSH2 0x3ECC JUMP JUMPDEST SWAP3 POP POP DUP2 SWAP1 SSTORE POP POP POP POP JUMP JUMPDEST PUSH1 0xD PUSH1 0x20 MSTORE DUP1 PUSH0 MSTORE PUSH1 0x40 PUSH0 KECCAK256 PUSH0 SWAP2 POP SWAP1 POP SLOAD DUP2 JUMP JUMPDEST PUSH2 0x3E8 DUP2 JUMP JUMPDEST PUSH0 PUSH2 0x10D0 PUSH2 0x2A83 JUMP JUMPDEST PUSH0 PUSH1 0xA SLOAD GT ISZERO PUSH2 0x10F1 JUMPI PUSH1 0xA SLOAD PUSH2 0x10E8 PUSH1 0xA SLOAD PUSH2 0x26F2 JUMP JUMPDEST SWAP2 POP SWAP2 POP PUSH2 0x151E JUMP JUMPDEST PUSH0 PUSH1 0x5 SLOAD GT DUP1 ISZERO PUSH2 0x1103 JUMPI POP TIMESTAMP PUSH1 0x5 SLOAD LT JUMPDEST PUSH2 0x1142 JUMPI PUSH1 0x40 MLOAD PUSH32 0x8C379A000000000000000000000000000000000000000000000000000000000 DUP2 MSTORE PUSH1 0x4 ADD PUSH2 0x1139 SWAP1 PUSH2 0x3F57 JUMP JUMPDEST PUSH1 0x40 MLOAD DUP1 SWAP2 SUB SWAP1 REVERT JUMPDEST PUSH0 DUP1 PUSH0 SWAP1 POP PUSH0 JUMPDEST PUSH1 0x6 DUP1 SLOAD SWAP1 POP DUP2 LT ISZERO PUSH2 0x11B8 JUMPI DUP2 PUSH1 0x6 DUP3 DUP2 SLOAD DUP2 LT PUSH2 0x116B JUMPI PUSH2 0x116A PUSH2 0x3F75 JUMP JUMPDEST JUMPDEST SWAP1 PUSH0 MSTORE PUSH1 0x20 PUSH0 KECCAK256 SWAP1 PUSH1 0x8 MUL ADD PUSH1 0x7 ADD SLOAD GT ISZERO PUSH2 0x11AB JUMPI PUSH1 0x6 DUP2 DUP2 SLOAD DUP2 LT PUSH2 0x1195 JUMPI PUSH2 0x1194 PUSH2 0x3F75 JUMP JUMPDEST JUMPDEST SWAP1 PUSH0 MSTORE PUSH1 0x20 PUSH0 KECCAK256 SWAP1 PUSH1 0x8 MUL ADD PUSH1 0x7 ADD SLOAD SWAP2 POP DUP1 SWAP3 POP JUMPDEST DUP1 DUP1 PUSH1 0x1 ADD SWAP2 POP POP PUSH2 0x1149 JUMP JUMPDEST POP DUP2 PUSH1 0xA DUP2 SWAP1 SSTORE POP PUSH0 PUSH1 0x6 DUP4 DUP2 SLOAD DUP2 LT PUSH2 0x11D5 JUMPI PUSH2 0x11D4 PUSH2 0x3F75 JUMP JUMPDEST JUMPDEST SWAP1 PUSH0 MSTORE PUSH1 0x20 PUSH0 KECCAK256 SWAP1 PUSH1 0x8 MUL ADD PUSH1 0x40 MLOAD DUP1 PUSH2 0x100 ADD PUSH1 0x40 MSTORE SWAP1 DUP2 PUSH0 DUP3 ADD DUP1 SLOAD PUSH2 0x11FC SWAP1 PUSH2 0x39D2 JUMP JUMPDEST DUP1 PUSH1 0x1F ADD PUSH1 0x20 DUP1 SWAP2 DIV MUL PUSH1 0x20 ADD PUSH1 0x40 MLOAD SWAP1 DUP2 ADD PUSH1 0x40 MSTORE DUP1 SWAP3 SWAP2 SWAP1 DUP2 DUP2 MSTORE PUSH1 0x20 ADD DUP3 DUP1 SLOAD PUSH2 0x1228 SWAP1 PUSH2 0x39D2 JUMP JUMPDEST DUP1 ISZERO PUSH2 0x1273 JUMPI DUP1 PUSH1 0x1F LT PUSH2 0x124A JUMPI PUSH2 0x100 DUP1 DUP4 SLOAD DIV MUL DUP4 MSTORE SWAP2 PUSH1 0x20 ADD SWAP2 PUSH2 0x1273 JUMP JUMPDEST DUP3 ADD SWAP2 SWAP1 PUSH0 MSTORE PUSH1 0x20 PUSH0 KECCAK256 SWAP1 JUMPDEST DUP2 SLOAD DUP2 MSTORE SWAP1 PUSH1 0x1 ADD SWAP1 PUSH1 0x20 ADD DUP1 DUP4 GT PUSH2 0x1256 JUMPI DUP3 SWAP1 SUB PUSH1 0x1F AND DUP3 ADD SWAP2 JUMPDEST POP POP POP POP POP DUP2 MSTORE PUSH1 0x20 ADD PUSH1 0x1 DUP3 ADD DUP1 SLOAD PUSH2 0x128C SWAP1 PUSH2 0x39D2 JUMP JUMPDEST DUP1 PUSH1 0x1F ADD PUSH1 0x20 DUP1 SWAP2 DIV MUL PUSH1 0x20 ADD PUSH1 0x40 MLOAD SWAP1 DUP2 ADD PUSH1 0x40 MSTORE DUP1 SWAP3 SWAP2 SWAP1 DUP2 DUP2 MSTORE PUSH1 0x20 ADD DUP3 DUP1 SLOAD PUSH2 0x12B8 SWAP1 PUSH2 0x39D2 JUMP JUMPDEST DUP1 ISZERO PUSH2 0x1303 JUMPI DUP1 PUSH1 0x1F LT PUSH2 0x12DA JUMPI PUSH2 0x100 DUP1 DUP4 SLOAD DIV MUL DUP4 MSTORE SWAP2 PUSH1 0x20 ADD SWAP2 PUSH2 0x1303 JUMP JUMPDEST DUP3 ADD SWAP2 SWAP1 PUSH0 MSTORE PUSH1 0x20 PUSH0 KECCAK256 SWAP1 JUMPDEST DUP2 SLOAD DUP2 MSTORE SWAP1 PUSH1 0x1 ADD SWAP1 PUSH1 0x20 ADD DUP1 DUP4 GT PUSH2 0x12E6 JUMPI DUP3 SWAP1 SUB PUSH1 0x1F AND DUP3 ADD SWAP2 JUMPDEST POP POP POP POP POP DUP2 MSTORE PUSH1 0x20 ADD PUSH1 0x2 DUP3 ADD DUP1 SLOAD PUSH2 0x131C SWAP1 PUSH2 0x39D2 JUMP JUMPDEST DUP1 PUSH1 0x1F ADD PUSH1 0x20 DUP1 SWAP2 DIV MUL PUSH1 0x20 ADD PUSH1 0x40 MLOAD SWAP1 DUP2 ADD PUSH1 0x40 MSTORE DUP1 SWAP3 SWAP2 SWAP1 DUP2 DUP2 MSTORE PUSH1 0x20 ADD DUP3 DUP1 SLOAD PUSH2 0x1348 SWAP1 PUSH2 0x39D2 JUMP JUMPDEST DUP1 ISZERO PUSH2 0x1393 JUMPI DUP1 PUSH1 0x1F LT PUSH2 0x136A JUMPI PUSH2 0x100 DUP1 DUP4 SLOAD DIV MUL DUP4 MSTORE SWAP2 PUSH1 0x20 ADD SWAP2 PUSH2 0x1393 JUMP JUMPDEST DUP3 ADD SWAP2 SWAP1 PUSH0 MSTORE PUSH1 0x20 PUSH0 KECCAK256 SWAP1 JUMPDEST DUP2 SLOAD DUP2 MSTORE SWAP1 PUSH1 0x1 ADD SWAP1 PUSH1 0x20 ADD DUP1 DUP4 GT PUSH2 0x1376 JUMPI DUP3 SWAP1 SUB PUSH1 0x1F AND DUP3 ADD SWAP2 JUMPDEST POP POP POP POP POP DUP2 MSTORE PUSH1 0x20 ADD PUSH1 0x3 DUP3 ADD DUP1 SLOAD PUSH2 0x13AC SWAP1 PUSH2 0x39D2 JUMP JUMPDEST DUP1 PUSH1 0x1F ADD PUSH1 0x20 DUP1 SWAP2 DIV MUL PUSH1 0x20 ADD PUSH1 0x40 MLOAD SWAP1 DUP2 ADD PUSH1 0x40 MSTORE DUP1 SWAP3 SWAP2 SWAP1 DUP2 DUP2 MSTORE PUSH1 0x20 ADD DUP3 DUP1 SLOAD PUSH2 0x13D8 SWAP1 PUSH2 0x39D2 JUMP JUMPDEST DUP1 ISZERO PUSH2 0x1423 JUMPI DUP1 PUSH1 0x1F LT PUSH2 0x13FA JUMPI PUSH2 0x100 DUP1 DUP4 SLOAD DIV MUL DUP4 MSTORE SWAP2 PUSH1 0x20 ADD SWAP2 PUSH2 0x1423 JUMP JUMPDEST DUP3 ADD SWAP2 SWAP1 PUSH0 MSTORE PUSH1 0x20 PUSH0 KECCAK256 SWAP1 JUMPDEST DUP2 SLOAD DUP2 MSTORE SWAP1 PUSH1 0x1 ADD SWAP1 PUSH1 0x20 ADD DUP1 DUP4 GT PUSH2 0x1406 JUMPI DUP3 SWAP1 SUB PUSH1 0x1F AND DUP3 ADD SWAP2 JUMPDEST POP POP POP POP POP DUP2 MSTORE PUSH1 0x20 ADD PUSH1 0x4 DUP3 ADD SLOAD DUP2 MSTORE PUSH1 0x20 ADD PUSH1 0x5 DUP3 ADD DUP1 SLOAD PUSH2 0x1446 SWAP1 PUSH2 0x39D2 JUMP JUMPDEST DUP1 PUSH1 0x1F ADD PUSH1 0x20 DUP1 SWAP2 DIV MUL PUSH1 0x20 ADD PUSH1 0x40 MLOAD SWAP1 DUP2 ADD PUSH1 0x40 MSTORE DUP1 SWAP3 SWAP2 SWAP1 DUP2 DUP2 MSTORE PUSH1 0x20 ADD DUP3 DUP1 SLOAD PUSH2 0x1472 SWAP1 PUSH2 0x39D2 JUMP JUMPDEST DUP1 ISZERO PUSH2 0x14BD JUMPI DUP1 PUSH1 0x1F LT PUSH2 0x1494 JUMPI PUSH2 0x100 DUP1 DUP4 SLOAD DIV MUL DUP4 MSTORE SWAP2 PUSH1 0x20 ADD SWAP2 PUSH2 0x14BD JUMP JUMPDEST DUP3 ADD SWAP2 SWAP1 PUSH0 MSTORE PUSH1 0x20 PUSH0 KECCAK256 SWAP1 JUMPDEST DUP2 SLOAD DUP2 MSTORE SWAP1 PUSH1 0x1 ADD SWAP1 PUSH1 0x20 ADD DUP1 DUP4 GT PUSH2 0x14A0 JUMPI DUP3 SWAP1 SUB PUSH1 0x1F AND DUP3 ADD SWAP2 JUMPDEST POP POP POP POP POP DUP2 MSTORE PUSH1 0x20 ADD PUSH1 0x6 DUP3 ADD SLOAD DUP2 MSTORE PUSH1 0x20 ADD PUSH1 0x7 DUP3 ADD SLOAD DUP2 MSTORE POP POP SWAP1 POP DUP3 PUSH32 0x5716523A05C9D13997B5A619D69A47EBA3D34842FF0B403EED7CA3A75B05C708 DUP3 PUSH1 0x40 MLOAD PUSH2 0x150C SWAP2 SWAP1 PUSH2 0x369E JUMP JUMPDEST PUSH1 0x40 MLOAD DUP1 SWAP2 SUB SWAP1 LOG2 DUP3 DUP2 SWAP5 POP SWAP5 POP POP POP POP JUMPDEST SWAP1 SWAP2 JUMP JUMPDEST PUSH3 0x127500 DUP2 JUMP JUMPDEST PUSH1 0x1 PUSH0 SWAP1 SLOAD SWAP1 PUSH2 0x100 EXP SWAP1 DIV PUSH20 0xFFFFFFFFFFFFFFFFFFFFFFFFFFFFFFFFFFFFFFFF AND DUP2 JUMP JUMPDEST PUSH3 0x5C4900 DUP2 JUMP JUMPDEST PUSH1 0xA DUP2 JUMP JUMPDEST PUSH0 PUSH1 0x8 PUSH0 DUP4 PUSH20 0xFFFFFFFFFFFFFFFFFFFFFFFFFFFFFFFFFFFFFFFF AND PUSH20 0xFFFFFFFFFFFFFFFFFFFFFFFFFFFFFFFFFFFFFFFF AND DUP2 MSTORE PUSH1 0x20 ADD SWAP1 DUP2 MSTORE PUSH1 0x20 ADD PUSH0 KECCAK256 SLOAD SWAP1 POP SWAP2 SWAP1 POP JUMP JUMPDEST PUSH32 0x0 DUP2 JUMP JUMPDEST PUSH7 0x38D7EA4C68000 DUP2 JUMP JUMPDEST PUSH1 0xA DUP2 JUMP JUMPDEST PUSH1 0xA DUP2 JUMP JUMPDEST PUSH1 0xA PUSH1 0xC PUSH0 CALLER PUSH20 0xFFFFFFFFFFFFFFFFFFFFFFFFFFFFFFFFFFFFFFFF AND PUSH20 0xFFFFFFFFFFFFFFFFFFFFFFFFFFFFFFFFFFFFFFFF AND DUP2 MSTORE PUSH1 0x20 ADD SWAP1 DUP2 MSTORE PUSH1 0x20 ADD PUSH0 KECCAK256 SLOAD SLT ISZERO PUSH2 0x165A JUMPI PUSH1 0x40 MLOAD PUSH32 0x8C379A000000000000000000000000000000000000000000000000000000000 DUP2 MSTORE PUSH1 0x4 ADD PUSH2 0x1651 SWAP1 PUSH2 0x3FEC JUMP JUMPDEST PUSH1 0x40 MLOAD DUP1 SWAP2 SUB SWAP1 REVERT JUMPDEST PUSH1 0x2 PUSH1 0x4 DUP2 GT ISZERO PUSH2 0x166E JUMPI PUSH2 0x166D PUSH2 0x3424 JUMP JUMPDEST JUMPDEST PUSH2 0x1676 PUSH2 0x1C45 JUMP JUMPDEST PUSH1 0x4 DUP2 GT ISZERO PUSH2 0x1688 JUMPI PUSH2 0x1687 PUSH2 0x3424 JUMP JUMPDEST JUMPDEST EQ PUSH2 0x16C8 JUMPI PUSH1 0x40 MLOAD PUSH32 0x8C379A000000000000000000000000000000000000000000000000000000000 DUP2 MSTORE PUSH1 0x4 ADD PUSH2 0x16BF SWAP1 PUSH2 0x3708 JUMP JUMPDEST PUSH1 0x40 MLOAD DUP1 SWAP2 SUB SWAP1 REVERT JUMPDEST PUSH1 0xA PUSH4 0xFFFFFFFF AND PUSH1 0xA EQ DUP1 ISZERO PUSH2 0x16E6 JUMPI POP PUSH1 0xA PUSH4 0xFFFFFFFF AND PUSH1 0xA EQ JUMPDEST PUSH2 0x1725 JUMPI PUSH1 0x40 MLOAD PUSH32 0x8C379A000000000000000000000000000000000000000000000000000000000 DUP2 MSTORE PUSH1 0x4 ADD PUSH2 0x171C SWAP1 PUSH2 0x4054 JUMP JUMPDEST PUSH1 0x40 MLOAD DUP1 SWAP2 SUB SWAP1 REVERT JUMPDEST PUSH0 JUMPDEST PUSH1 0xA PUSH4 0xFFFFFFFF AND DUP2 PUSH1 0xFF AND LT ISZERO PUSH2 0x19AC JUMPI PUSH0 PUSH20 0xFFFFFFFFFFFFFFFFFFFFFFFFFFFFFFFFFFFFFFFF AND PUSH1 0x7 PUSH0 DUP6 DUP5 PUSH1 0xFF AND PUSH1 0xA DUP2 LT PUSH2 0x1769 JUMPI PUSH2 0x1768 PUSH2 0x3F75 JUMP JUMPDEST JUMPDEST PUSH1 0x20 MUL ADD CALLDATALOAD DUP2 MSTORE PUSH1 0x20 ADD SWAP1 DUP2 MSTORE PUSH1 0x20 ADD PUSH0 KECCAK256 PUSH0 PUSH1 0x2 DUP2 LT PUSH2 0x178D JUMPI PUSH2 0x178C PUSH2 0x3F75 JUMP JUMPDEST JUMPDEST ADD PUSH0 SWAP1 SLOAD SWAP1 PUSH2 0x100 EXP SWAP1 DIV PUSH20 0xFFFFFFFFFFFFFFFFFFFFFFFFFFFFFFFFFFFFFFFF AND PUSH20 0xFFFFFFFFFFFFFFFFFFFFFFFFFFFFFFFFFFFFFFFF AND SUB PUSH2 0x184A JUMPI CALLER PUSH1 0x7 PUSH0 DUP6 DUP5 PUSH1 0xFF AND PUSH1 0xA DUP2 LT PUSH2 0x17E3 JUMPI PUSH2 0x17E2 PUSH2 0x3F75 JUMP JUMPDEST JUMPDEST PUSH1 0x20 MUL ADD CALLDATALOAD DUP2 MSTORE PUSH1 0x20 ADD SWAP1 DUP2 MSTORE PUSH1 0x20 ADD PUSH0 KECCAK256 PUSH0 PUSH1 0x2 DUP2 LT PUSH2 0x1807 JUMPI PUSH2 0x1806 PUSH2 0x3F75 JUMP JUMPDEST JUMPDEST ADD PUSH0 PUSH2 0x100 EXP DUP2 SLOAD DUP2 PUSH20 0xFFFFFFFFFFFFFFFFFFFFFFFFFFFFFFFFFFFFFFFF MUL NOT AND SWAP1 DUP4 PUSH20 0xFFFFFFFFFFFFFFFFFFFFFFFFFFFFFFFFFFFFFFFF AND MUL OR SWAP1 SSTORE POP PUSH2 0x1999 JUMP JUMPDEST PUSH0 PUSH20 0xFFFFFFFFFFFFFFFFFFFFFFFFFFFFFFFFFFFFFFFF AND PUSH1 0x7 PUSH0 DUP6 DUP5 PUSH1 0xFF AND PUSH1 0xA DUP2 LT PUSH2 0x187A JUMPI PUSH2 0x1879 PUSH2 0x3F75 JUMP JUMPDEST JUMPDEST PUSH1 0x20 MUL ADD CALLDATALOAD DUP2 MSTORE PUSH1 0x20 ADD SWAP1 DUP2 MSTORE PUSH1 0x20 ADD PUSH0 KECCAK256 PUSH1 0x1 PUSH1 0x2 DUP2 LT PUSH2 0x189F JUMPI PUSH2 0x189E PUSH2 0x3F75 JUMP JUMPDEST JUMPDEST ADD PUSH0 SWAP1 SLOAD SWAP1 PUSH2 0x100 EXP SWAP1 DIV PUSH20 0xFFFFFFFFFFFFFFFFFFFFFFFFFFFFFFFFFFFFFFFF AND PUSH20 0xFFFFFFFFFFFFFFFFFFFFFFFFFFFFFFFFFFFFFFFF AND SUB PUSH2 0x195D JUMPI CALLER PUSH1 0x7 PUSH0 DUP6 DUP5 PUSH1 0xFF AND PUSH1 0xA DUP2 LT PUSH2 0x18F5 JUMPI PUSH2 0x18F4 PUSH2 0x3F75 JUMP JUMPDEST JUMPDEST PUSH1 0x20 MUL ADD CALLDATALOAD DUP2 MSTORE PUSH1 0x20 ADD SWAP1 DUP2 MSTORE PUSH1 0x20 ADD PUSH0 KECCAK256 PUSH1 0x1 PUSH1 0x2 DUP2 LT PUSH2 0x191A JUMPI PUSH2 0x1919 PUSH2 0x3F75 JUMP JUMPDEST JUMPDEST ADD PUSH0 PUSH2 0x100 EXP DUP2 SLOAD DUP2 PUSH20 0xFFFFFFFFFFFFFFFFFFFFFFFFFFFFFFFFFFFFFFFF MUL NOT AND SWAP1 DUP4 PUSH20 0xFFFFFFFFFFFFFFFFFFFFFFFFFFFFFFFFFFFFFFFF AND MUL OR SWAP1 SSTORE POP PUSH2 0x1998 JUMP JUMPDEST PUSH1 0x40 MLOAD PUSH32 0x8C379A000000000000000000000000000000000000000000000000000000000 DUP2 MSTORE PUSH1 0x4 ADD PUSH2 0x198F SWAP1 PUSH2 0x40BC JUMP JUMPDEST PUSH1 0x40 MLOAD DUP1 SWAP2 SUB SWAP1 REVERT JUMPDEST JUMPDEST DUP1 DUP1 PUSH2 0x19A4 SWAP1 PUSH2 0x40DA JUMP JUMPDEST SWAP2 POP POP PUSH2 0x1727 JUMP JUMPDEST POP PUSH0 JUMPDEST PUSH1 0xA PUSH4 0xFFFFFFFF AND DUP2 PUSH1 0xFF AND LT ISZERO PUSH2 0x1B8C JUMPI PUSH0 PUSH20 0xFFFFFFFFFFFFFFFFFFFFFFFFFFFFFFFFFFFFFFFF AND DUP3 DUP3 PUSH1 0xFF AND PUSH1 0xA DUP2 LT PUSH2 0x19EE JUMPI PUSH2 0x19ED PUSH2 0x3F75 JUMP JUMPDEST JUMPDEST PUSH1 0x20 MUL ADD PUSH1 0x20 DUP2 ADD SWAP1 PUSH2 0x1A01 SWAP2 SWAP1 PUSH2 0x3163 JUMP JUMPDEST PUSH20 0xFFFFFFFFFFFFFFFFFFFFFFFFFFFFFFFFFFFFFFFF AND SUB PUSH2 0x1A57 JUMPI PUSH1 0x40 MLOAD PUSH32 0x8C379A000000000000000000000000000000000000000000000000000000000 DUP2 MSTORE PUSH1 0x4 ADD PUSH2 0x1A4E SWAP1 PUSH2 0x414C JUMP JUMPDEST PUSH1 0x40 MLOAD DUP1 SWAP2 SUB SWAP1 REVERT JUMPDEST PUSH1 0x2 PUSH1 0x8 PUSH0 DUP5 DUP5 PUSH1 0xFF AND PUSH1 0xA DUP2 LT PUSH2 0x1A72 JUMPI PUSH2 0x1A71 PUSH2 0x3F75 JUMP JUMPDEST JUMPDEST PUSH1 0x20 MUL ADD PUSH1 0x20 DUP2 ADD SWAP1 PUSH2 0x1A85 SWAP2 SWAP1 PUSH2 0x3163 JUMP JUMPDEST PUSH20 0xFFFFFFFFFFFFFFFFFFFFFFFFFFFFFFFFFFFFFFFF AND PUSH20 0xFFFFFFFFFFFFFFFFFFFFFFFFFFFFFFFFFFFFFFFF AND DUP2 MSTORE PUSH1 0x20 ADD SWAP1 DUP2 MSTORE PUSH1 0x20 ADD PUSH0 KECCAK256 SLOAD LT PUSH2 0x1AFF JUMPI PUSH1 0x40 MLOAD PUSH32 0x8C379A000000000000000000000000000000000000000000000000000000000 DUP2 MSTORE PUSH1 0x4 ADD PUSH2 0x1AF6 SWAP1 PUSH2 0x41DA JUMP JUMPDEST PUSH1 0x40 MLOAD DUP1 SWAP2 SUB SWAP1 REVERT JUMPDEST PUSH1 0x8 PUSH0 DUP4 DUP4 PUSH1 0xFF AND PUSH1 0xA DUP2 LT PUSH2 0x1B18 JUMPI PUSH2 0x1B17 PUSH2 0x3F75 JUMP JUMPDEST JUMPDEST PUSH1 0x20 MUL ADD PUSH1 0x20 DUP2 ADD SWAP1 PUSH2 0x1B2B SWAP2 SWAP1 PUSH2 0x3163 JUMP JUMPDEST PUSH20 0xFFFFFFFFFFFFFFFFFFFFFFFFFFFFFFFFFFFFFFFF AND PUSH20 0xFFFFFFFFFFFFFFFFFFFFFFFFFFFFFFFFFFFFFFFF AND DUP2 MSTORE PUSH1 0x20 ADD SWAP1 DUP2 MSTORE PUSH1 0x20 ADD PUSH0 KECCAK256 PUSH0 DUP2 SLOAD DUP1 SWAP3 SWAP2 SWAP1 PUSH2 0x1B74 SWAP1 PUSH2 0x3E06 JUMP JUMPDEST SWAP2 SWAP1 POP SSTORE POP DUP1 DUP1 PUSH2 0x1B84 SWAP1 PUSH2 0x40DA JUMP JUMPDEST SWAP2 POP POP PUSH2 0x19AF JUMP JUMPDEST POP PUSH1 0xA PUSH1 0x9 PUSH0 DUP3 DUP3 DUP3 SWAP1 SLOAD SWAP1 PUSH2 0x100 EXP SWAP1 DIV PUSH4 0xFFFFFFFF AND PUSH2 0x1BAE SWAP2 SWAP1 PUSH2 0x41F8 JUMP JUMPDEST SWAP3 POP PUSH2 0x100 EXP DUP2 SLOAD DUP2 PUSH4 0xFFFFFFFF MUL NOT AND SWAP1 DUP4 PUSH4 0xFFFFFFFF AND MUL OR SWAP1 SSTORE POP DUP1 PUSH1 0x40 MLOAD PUSH2 0x1BDA SWAP2 SWAP1 PUSH2 0x42F2 JUMP JUMPDEST PUSH1 0x40 MLOAD DUP1 SWAP2 SUB SWAP1 KECCAK256 PUSH32 0x2BA0AAA9C0E5919BF5CB9FDE7B2825194F9DC6E9AB2A9174C59892A1585C446A CALLER PUSH1 0x9 PUSH0 SWAP1 SLOAD SWAP1 PUSH2 0x100 EXP SWAP1 DIV PUSH4 0xFFFFFFFF AND PUSH1 0x40 MLOAD PUSH2 0x1C24 SWAP3 SWAP2 SWAP1 PUSH2 0x433D JUMP JUMPDEST PUSH1 0x40 MLOAD DUP1 SWAP2 SUB SWAP1 LOG2 POP POP JUMP JUMPDEST PUSH1 0xC PUSH1 0x20 MSTORE DUP1 PUSH0 MSTORE PUSH1 0x40 PUSH0 KECCAK256 PUSH0 SWAP2 POP SWAP1 POP SLOAD DUP2 JUMP JUMPDEST PUSH0 PUSH3 0x15180 PUSH0 SLOAD PUSH2 0x1C56 SWAP2 SWAP1 PUSH2 0x3C9B JUMP JUMPDEST TIMESTAMP LT ISZERO PUSH2 0x1C65 JUMPI PUSH0 SWAP1 POP PUSH2 0x1D05 JUMP JUMPDEST PUSH0 SLOAD TIMESTAMP LT ISZERO PUSH2 0x1CDB JUMPI PUSH1 0x32 PUSH1 0x2 PUSH2 0x1C7C SWAP2 SWAP1 PUSH2 0x4364 JUMP JUMPDEST PUSH1 0xFF AND PUSH1 0x2 DUP1 SLOAD SWAP1 POP LT DUP1 PUSH2 0x1CB0 JUMPI POP PUSH2 0x3E8 PUSH4 0xFFFFFFFF AND PUSH1 0x1 PUSH1 0x14 SWAP1 SLOAD SWAP1 PUSH2 0x100 EXP SWAP1 DIV PUSH4 0xFFFFFFFF AND PUSH4 0xFFFFFFFF AND LT JUMPDEST ISZERO PUSH2 0x1CD2 JUMPI PUSH3 0x127500 PUSH0 SLOAD PUSH2 0x1CC5 SWAP2 SWAP1 PUSH2 0x43A0 JUMP JUMPDEST PUSH0 DUP2 SWAP1 SSTORE POP PUSH0 SWAP1 POP PUSH2 0x1D05 JUMP JUMPDEST PUSH1 0x1 SWAP1 POP PUSH2 0x1D05 JUMP JUMPDEST PUSH0 PUSH1 0x5 SLOAD SUB PUSH2 0x1CED JUMPI PUSH1 0x2 SWAP1 POP PUSH2 0x1D05 JUMP JUMPDEST PUSH1 0x5 SLOAD TIMESTAMP LT ISZERO PUSH2 0x1D00 JUMPI PUSH1 0x3 SWAP1 POP PUSH2 0x1D05 JUMP JUMPDEST PUSH1 0x4 SWAP1 POP JUMPDEST SWAP1 JUMP JUMPDEST PUSH1 0x5 SLOAD DUP2 JUMP JUMPDEST PUSH1 0x2 DUP2 DUP2 SLOAD DUP2 LT PUSH2 0x1D1D JUMPI PUSH0 DUP1 REVERT JUMPDEST SWAP1 PUSH0 MSTORE PUSH1 0x20 PUSH0 KECCAK256 ADD PUSH0 SWAP2 POP SLOAD SWAP1 PUSH2 0x100 EXP SWAP1 DIV PUSH20 0xFFFFFFFFFFFFFFFFFFFFFFFFFFFFFFFFFFFFFFFF AND DUP2 JUMP JUMPDEST PUSH1 0x6 DUP2 DUP2 SLOAD DUP2 LT PUSH2 0x1D58 JUMPI PUSH0 DUP1 REVERT JUMPDEST SWAP1 PUSH0 MSTORE PUSH1 0x20 PUSH0 KECCAK256 SWAP1 PUSH1 0x8 MUL ADD PUSH0 SWAP2 POP SWAP1 POP DUP1 PUSH0 ADD DUP1 SLOAD PUSH2 0x1D77 SWAP1 PUSH2 0x39D2 JUMP JUMPDEST DUP1 PUSH1 0x1F ADD PUSH1 0x20 DUP1 SWAP2 DIV MUL PUSH1 0x20 ADD PUSH1 0x40 MLOAD SWAP1 DUP2 ADD PUSH1 0x40 MSTORE DUP1 SWAP3 SWAP2 SWAP1 DUP2 DUP2 MSTORE PUSH1 0x20 ADD DUP3 DUP1 SLOAD PUSH2 0x1DA3 SWAP1 PUSH2 0x39D2 JUMP JUMPDEST DUP1 ISZERO PUSH2 0x1DEE JUMPI DUP1 PUSH1 0x1F LT PUSH2 0x1DC5 JUMPI PUSH2 0x100 DUP1 DUP4 SLOAD DIV MUL DUP4 MSTORE SWAP2 PUSH1 0x20 ADD SWAP2 PUSH2 0x1DEE JUMP JUMPDEST DUP3 ADD SWAP2 SWAP1 PUSH0 MSTORE PUSH1 0x20 PUSH0 KECCAK256 SWAP1 JUMPDEST DUP2 SLOAD DUP2 MSTORE SWAP1 PUSH1 0x1 ADD SWAP1 PUSH1 0x20 ADD DUP1 DUP4 GT PUSH2 0x1DD1 JUMPI DUP3 SWAP1 SUB PUSH1 0x1F AND DUP3 ADD SWAP2 JUMPDEST POP POP POP POP POP SWAP1 DUP1 PUSH1 0x1 ADD DUP1 SLOAD PUSH2 0x1E03 SWAP1 PUSH2 0x39D2 JUMP JUMPDEST DUP1 PUSH1 0x1F ADD PUSH1 0x20 DUP1 SWAP2 DIV MUL PUSH1 0x20 ADD PUSH1 0x40 MLOAD SWAP1 DUP2 ADD PUSH1 0x40 MSTORE DUP1 SWAP3 SWAP2 SWAP1 DUP2 DUP2 MSTORE PUSH1 0x20 ADD DUP3 DUP1 SLOAD PUSH2 0x1E2F SWAP1 PUSH2 0x39D2 JUMP JUMPDEST DUP1 ISZERO PUSH2 0x1E7A JUMPI DUP1 PUSH1 0x1F LT PUSH2 0x1E51 JUMPI PUSH2 0x100 DUP1 DUP4 SLOAD DIV MUL DUP4 MSTORE SWAP2 PUSH1 0x20 ADD SWAP2 PUSH2 0x1E7A JUMP JUMPDEST DUP3 ADD SWAP2 SWAP1 PUSH0 MSTORE PUSH1 0x20 PUSH0 KECCAK256 SWAP1 JUMPDEST DUP2 SLOAD DUP2 MSTORE SWAP1 PUSH1 0x1 ADD SWAP1 PUSH1 0x20 ADD DUP1 DUP4 GT PUSH2 0x1E5D JUMPI DUP3 SWAP1 SUB PUSH1 0x1F AND DUP3 ADD SWAP2 JUMPDEST POP POP POP POP POP SWAP1 DUP1 PUSH1 0x2 ADD DUP1 SLOAD PUSH2 0x1E8F SWAP1 PUSH2 0x39D2 JUMP JUMPDEST DUP1 PUSH1 0x1F ADD PUSH1 0x20 DUP1 SWAP2 DIV MUL PUSH1 0x20 ADD PUSH1 0x40 MLOAD SWAP1 DUP2 ADD PUSH1 0x40 MSTORE DUP1 SWAP3 SWAP2 SWAP1 DUP2 DUP2 MSTORE PUSH1 0x20 ADD DUP3 DUP1 SLOAD PUSH2 0x1EBB SWAP1 PUSH2 0x39D2 JUMP JUMPDEST DUP1 ISZERO PUSH2 0x1F06 JUMPI DUP1 PUSH1 0x1F LT PUSH2 0x1EDD JUMPI PUSH2 0x100 DUP1 DUP4 SLOAD DIV MUL DUP4 MSTORE SWAP2 PUSH1 0x20 ADD SWAP2 PUSH2 0x1F06 JUMP JUMPDEST DUP3 ADD SWAP2 SWAP1 PUSH0 MSTORE PUSH1 0x20 PUSH0 KECCAK256 SWAP1 JUMPDEST DUP2 SLOAD DUP2 MSTORE SWAP1 PUSH1 0x1 ADD SWAP1 PUSH1 0x20 ADD DUP1 DUP4 GT PUSH2 0x1EE9 JUMPI DUP3 SWAP1 SUB PUSH1 0x1F AND DUP3 ADD SWAP2 JUMPDEST POP POP POP POP POP SWAP1 DUP1 PUSH1 0x3 ADD DUP1 SLOAD PUSH2 0x1F1B SWAP1 PUSH2 0x39D2 JUMP JUMPDEST DUP1 PUSH1 0x1F ADD PUSH1 0x20 DUP1 SWAP2 DIV MUL PUSH1 0x20 ADD PUSH1 0x40 MLOAD SWAP1 DUP2 ADD PUSH1 0x40 MSTORE DUP1 SWAP3 SWAP2 SWAP1 DUP2 DUP2 MSTORE PUSH1 0x20 ADD DUP3 DUP1 SLOAD PUSH2 0x1F47 SWAP1 PUSH2 0x39D2 JUMP JUMPDEST DUP1 ISZERO PUSH2 0x1F92 JUMPI DUP1 PUSH1 0x1F LT PUSH2 0x1F69 JUMPI PUSH2 0x100 DUP1 DUP4 SLOAD DIV MUL DUP4 MSTORE SWAP2 PUSH1 0x20 ADD SWAP2 PUSH2 0x1F92 JUMP JUMPDEST DUP3 ADD SWAP2 SWAP1 PUSH0 MSTORE PUSH1 0x20 PUSH0 KECCAK256 SWAP1 JUMPDEST DUP2 SLOAD DUP2 MSTORE SWAP1 PUSH1 0x1 ADD SWAP1 PUSH1 0x20 ADD DUP1 DUP4 GT PUSH2 0x1F75 JUMPI DUP3 SWAP1 SUB PUSH1 0x1F AND DUP3 ADD SWAP2 JUMPDEST POP POP POP POP POP SWAP1 DUP1 PUSH1 0x4 ADD SLOAD SWAP1 DUP1 PUSH1 0x5 ADD DUP1 SLOAD PUSH2 0x1FAD SWAP1 PUSH2 0x39D2 JUMP JUMPDEST DUP1 PUSH1 0x1F ADD PUSH1 0x20 DUP1 SWAP2 DIV MUL PUSH1 0x20 ADD PUSH1 0x40 MLOAD SWAP1 DUP2 ADD PUSH1 0x40 MSTORE DUP1 SWAP3 SWAP2 SWAP1 DUP2 DUP2 MSTORE PUSH1 0x20 ADD DUP3 DUP1 SLOAD PUSH2 0x1FD9 SWAP1 PUSH2 0x39D2 JUMP JUMPDEST DUP1 ISZERO PUSH2 0x2024 JUMPI DUP1 PUSH1 0x1F LT PUSH2 0x1FFB JUMPI PUSH2 0x100 DUP1 DUP4 SLOAD DIV MUL DUP4 MSTORE SWAP2 PUSH1 0x20 ADD SWAP2 PUSH2 0x2024 JUMP JUMPDEST DUP3 ADD SWAP2 SWAP1 PUSH0 MSTORE PUSH1 0x20 PUSH0 KECCAK256 SWAP1 JUMPDEST DUP2 SLOAD DUP2 MSTORE SWAP1 PUSH1 0x1 ADD SWAP1 PUSH1 0x20 ADD DUP1 DUP4 GT PUSH2 0x2007 JUMPI DUP3 SWAP1 SUB PUSH1 0x1F AND DUP3 ADD SWAP2 JUMPDEST POP POP POP POP POP SWAP1 DUP1 PUSH1 0x6 ADD SLOAD SWAP1 DUP1 PUSH1 0x7 ADD SLOAD SWAP1 POP DUP9 JUMP JUMPDEST TIMESTAMP PUSH3 0x5C4900 PUSH0 SLOAD PUSH2 0x204B SWAP2 SWAP1 PUSH2 0x43A0 JUMP JUMPDEST LT PUSH2 0x208B JUMPI PUSH1 0x40 MLOAD PUSH32 0x8C379A000000000000000000000000000000000000000000000000000000000 DUP2 MSTORE PUSH1 0x4 ADD PUSH2 0x2082 SWAP1 PUSH2 0x441D JUMP JUMPDEST PUSH1 0x40 MLOAD DUP1 SWAP2 SUB SWAP1 REVERT JUMPDEST PUSH0 PUSH1 0xA SLOAD EQ PUSH2 0x20CF JUMPI PUSH1 0x40 MLOAD PUSH32 0x8C379A000000000000000000000000000000000000000000000000000000000 DUP2 MSTORE PUSH1 0x4 ADD PUSH2 0x20C6 SWAP1 PUSH2 0x4485 JUMP JUMPDEST PUSH1 0x40 MLOAD DUP1 SWAP2 SUB SWAP1 REVERT JUMPDEST PUSH1 0xA PUSH1 0xFF AND PUSH1 0x6 DUP1 SLOAD SWAP1 POP GT PUSH2 0x211A JUMPI PUSH1 0x40 MLOAD PUSH32 0x8C379A000000000000000000000000000000000000000000000000000000000 DUP2 MSTORE PUSH1 0x4 ADD PUSH2 0x2111 SWAP1 PUSH2 0x44ED JUMP JUMPDEST PUSH1 0x40 MLOAD DUP1 SWAP2 SUB SWAP1 REVERT JUMPDEST PUSH3 0xF4240 PUSH4 0xFFFFFFFF AND PUSH1 0x9 PUSH0 SWAP1 SLOAD SWAP1 PUSH2 0x100 EXP SWAP1 DIV PUSH4 0xFFFFFFFF AND PUSH4 0xFFFFFFFF AND LT ISZERO PUSH2 0x217D JUMPI PUSH1 0x40 MLOAD PUSH32 0x8C379A000000000000000000000000000000000000000000000000000000000 DUP2 MSTORE PUSH1 0x4 ADD PUSH2 0x2174 SWAP1 PUSH2 0x4555 JUMP JUMPDEST PUSH1 0x40 MLOAD DUP1 SWAP2 SUB SWAP1 REVERT JUMPDEST PUSH3 0x15180 TIMESTAMP PUSH2 0x218C SWAP2 SWAP1 PUSH2 0x43A0 JUMP JUMPDEST PUSH1 0x5 DUP2 SWAP1 SSTORE POP PUSH32 0xA0AB6B515144B30D8222A12E45D1C1DF7265286D8A0D9F73C23C8B06F6021871 PUSH1 0x40 MLOAD PUSH1 0x40 MLOAD DUP1 SWAP2 SUB SWAP1 LOG1 JUMP JUMPDEST PUSH2 0x3E8 DUP2 JUMP JUMPDEST PUSH1 0x5 SLOAD TIMESTAMP LT PUSH2 0x220A JUMPI PUSH1 0x40 MLOAD PUSH32 0x8C379A000000000000000000000000000000000000000000000000000000000 DUP2 MSTORE PUSH1 0x4 ADD PUSH2 0x2201 SWAP1 PUSH2 0x45BD JUMP JUMPDEST PUSH1 0x40 MLOAD DUP1 SWAP2 SUB SWAP1 REVERT JUMPDEST PUSH1 0x6 DUP1 SLOAD SWAP1 POP DUP3 DUP3 SWAP1 POP GT ISZERO PUSH2 0x2255 JUMPI PUSH1 0x40 MLOAD PUSH32 0x8C379A000000000000000000000000000000000000000000000000000000000 DUP2 MSTORE PUSH1 0x4 ADD PUSH2 0x224C SWAP1 PUSH2 0x4625 JUMP JUMPDEST PUSH1 0x40 MLOAD DUP1 SWAP2 SUB SWAP1 REVERT JUMPDEST PUSH1 0x2 PUSH1 0x8 PUSH0 CALLER PUSH20 0xFFFFFFFFFFFFFFFFFFFFFFFFFFFFFFFFFFFFFFFF AND PUSH20 0xFFFFFFFFFFFFFFFFFFFFFFFFFFFFFFFFFFFFFFFF AND DUP2 MSTORE PUSH1 0x20 ADD SWAP1 DUP2 MSTORE PUSH1 0x20 ADD PUSH0 KECCAK256 SLOAD EQ PUSH2 0x22D5 JUMPI PUSH1 0x40 MLOAD PUSH32 0x8C379A000000000000000000000000000000000000000000000000000000000 DUP2 MSTORE PUSH1 0x4 ADD PUSH2 0x22CC SWAP1 PUSH2 0x46B3 JUMP JUMPDEST PUSH1 0x40 MLOAD DUP1 SWAP2 SUB SWAP1 REVERT JUMPDEST PUSH0 PUSH1 0x6 DUP1 SLOAD SWAP1 POP PUSH8 0xFFFFFFFFFFFFFFFF DUP2 GT ISZERO PUSH2 0x22F5 JUMPI PUSH2 0x22F4 PUSH2 0x2AED JUMP JUMPDEST JUMPDEST PUSH1 0x40 MLOAD SWAP1 DUP1 DUP3 MSTORE DUP1 PUSH1 0x20 MUL PUSH1 0x20 ADD DUP3 ADD PUSH1 0x40 MSTORE DUP1 ISZERO PUSH2 0x2323 JUMPI DUP2 PUSH1 0x20 ADD PUSH1 0x20 DUP3 MUL DUP1 CALLDATASIZE DUP4 CALLDATACOPY DUP1 DUP3 ADD SWAP2 POP POP SWAP1 POP JUMPDEST POP SWAP1 POP PUSH0 JUMPDEST DUP4 DUP4 SWAP1 POP DUP2 LT ISZERO PUSH2 0x245F JUMPI PUSH0 DUP5 DUP5 DUP4 DUP2 DUP2 LT PUSH2 0x2347 JUMPI PUSH2 0x2346 PUSH2 0x3F75 JUMP JUMPDEST JUMPDEST SWAP1 POP PUSH1 0x20 MUL ADD CALLDATALOAD SWAP1 POP PUSH1 0x6 DUP1 SLOAD SWAP1 POP DUP2 LT PUSH2 0x2397 JUMPI PUSH1 0x40 MLOAD PUSH32 0x8C379A000000000000000000000000000000000000000000000000000000000 DUP2 MSTORE PUSH1 0x4 ADD PUSH2 0x238E SWAP1 PUSH2 0x471B JUMP JUMPDEST PUSH1 0x40 MLOAD DUP1 SWAP2 SUB SWAP1 REVERT JUMPDEST DUP3 DUP2 DUP2 MLOAD DUP2 LT PUSH2 0x23AA JUMPI PUSH2 0x23A9 PUSH2 0x3F75 JUMP JUMPDEST JUMPDEST PUSH1 0x20 MUL PUSH1 0x20 ADD ADD MLOAD ISZERO PUSH2 0x23F2 JUMPI PUSH1 0x40 MLOAD PUSH32 0x8C379A000000000000000000000000000000000000000000000000000000000 DUP2 MSTORE PUSH1 0x4 ADD PUSH2 0x23E9 SWAP1 PUSH2 0x4783 JUMP JUMPDEST PUSH1 0x40 MLOAD DUP1 SWAP2 SUB SWAP1 REVERT JUMPDEST PUSH1 0x1 DUP4 DUP3 DUP2 MLOAD DUP2 LT PUSH2 0x2407 JUMPI PUSH2 0x2406 PUSH2 0x3F75 JUMP JUMPDEST JUMPDEST PUSH1 0x20 MUL PUSH1 0x20 ADD ADD SWAP1 ISZERO ISZERO SWAP1 DUP2 ISZERO ISZERO DUP2 MSTORE POP POP PUSH1 0x6 DUP2 DUP2 SLOAD DUP2 LT PUSH2 0x242D JUMPI PUSH2 0x242C PUSH2 0x3F75 JUMP JUMPDEST JUMPDEST SWAP1 PUSH0 MSTORE PUSH1 0x20 PUSH0 KECCAK256 SWAP1 PUSH1 0x8 MUL ADD PUSH1 0x7 ADD PUSH0 DUP2 SLOAD DUP1 SWAP3 SWAP2 SWAP1 PUSH2 0x244C SWAP1 PUSH2 0x3E06 JUMP JUMPDEST SWAP2 SWAP1 POP SSTORE POP POP DUP1 DUP1 PUSH1 0x1 ADD SWAP2 POP POP PUSH2 0x2328 JUMP JUMPDEST POP TIMESTAMP PUSH1 0x8 PUSH0 CALLER PUSH20 0xFFFFFFFFFFFFFFFFFFFFFFFFFFFFFFFFFFFFFFFF AND PUSH20 0xFFFFFFFFFFFFFFFFFFFFFFFFFFFFFFFFFFFFFFFF AND DUP2 MSTORE PUSH1 0x20 ADD SWAP1 DUP2 MSTORE PUSH1 0x20 ADD PUSH0 KECCAK256 DUP2 SWAP1 SSTORE POP CALLER PUSH20 0xFFFFFFFFFFFFFFFFFFFFFFFFFFFFFFFFFFFFFFFF AND PUSH32 0x4B50B8927FD1B030F5404DC4394C2A5D30D7F6C6FA6D732C089FFE8C10F09421 PUSH1 0x40 MLOAD PUSH1 0x40 MLOAD DUP1 SWAP2 SUB SWAP1 LOG2 POP POP POP JUMP JUMPDEST PUSH0 SLOAD DUP2 JUMP JUMPDEST PUSH3 0xF4240 DUP2 JUMP JUMPDEST PUSH1 0x32 DUP2 JUMP JUMPDEST PUSH1 0x9 PUSH0 SWAP1 SLOAD SWAP1 PUSH2 0x100 EXP SWAP1 DIV PUSH4 0xFFFFFFFF AND DUP2 JUMP JUMPDEST PUSH1 0x3 PUSH1 0x20 MSTORE DUP1 PUSH0 MSTORE PUSH1 0x40 PUSH0 KECCAK256 PUSH0 SWAP2 POP SWAP1 POP DUP1 PUSH0 ADD DUP1 SLOAD PUSH2 0x252F SWAP1 PUSH2 0x39D2 JUMP JUMPDEST DUP1 PUSH1 0x1F ADD PUSH1 0x20 DUP1 SWAP2 DIV MUL PUSH1 0x20 ADD PUSH1 0x40 MLOAD SWAP1 DUP2 ADD PUSH1 0x40 MSTORE DUP1 SWAP3 SWAP2 SWAP1 DUP2 DUP2 MSTORE PUSH1 0x20 ADD DUP3 DUP1 SLOAD PUSH2 0x255B SWAP1 PUSH2 0x39D2 JUMP JUMPDEST DUP1 ISZERO PUSH2 0x25A6 JUMPI DUP1 PUSH1 0x1F LT PUSH2 0x257D JUMPI PUSH2 0x100 DUP1 DUP4 SLOAD DIV MUL DUP4 MSTORE SWAP2 PUSH1 0x20 ADD SWAP2 PUSH2 0x25A6 JUMP JUMPDEST DUP3 ADD SWAP2 SWAP1 PUSH0 MSTORE PUSH1 0x20 PUSH0 KECCAK256 SWAP1 JUMPDEST DUP2 SLOAD DUP2 MSTORE SWAP1 PUSH1 0x1 ADD SWAP1 PUSH1 0x20 ADD DUP1 DUP4 GT PUSH2 0x2589 JUMPI DUP3 SWAP1 SUB PUSH1 0x1F AND DUP3 ADD SWAP2 JUMPDEST POP POP POP POP POP SWAP1 DUP1 PUSH1 0x1 ADD DUP1 SLOAD PUSH2 0x25BB SWAP1 PUSH2 0x39D2 JUMP JUMPDEST DUP1 PUSH1 0x1F ADD PUSH1 0x20 DUP1 SWAP2 DIV MUL PUSH1 0x20 ADD PUSH1 0x40 MLOAD SWAP1 DUP2 ADD PUSH1 0x40 MSTORE DUP1 SWAP3 SWAP2 SWAP1 DUP2 DUP2 MSTORE PUSH1 0x20 ADD DUP3 DUP1 SLOAD PUSH2 0x25E7 SWAP1 PUSH2 0x39D2 JUMP JUMPDEST DUP1 ISZERO PUSH2 0x2632 JUMPI DUP1 PUSH1 0x1F LT PUSH2 0x2609 JUMPI PUSH2 0x100 DUP1 DUP4 SLOAD DIV MUL DUP4 MSTORE SWAP2 PUSH1 0x20 ADD SWAP2 PUSH2 0x2632 JUMP JUMPDEST DUP3 ADD SWAP2 SWAP1 PUSH0 MSTORE PUSH1 0x20 PUSH0 KECCAK256 SWAP1 JUMPDEST DUP2 SLOAD DUP2 MSTORE SWAP1 PUSH1 0x1 ADD SWAP1 PUSH1 0x20 ADD DUP1 DUP4 GT PUSH2 0x2615 JUMPI DUP3 SWAP1 SUB PUSH1 0x1F AND DUP3 ADD SWAP2 JUMPDEST POP POP POP POP POP SWAP1 DUP1 PUSH1 0x2 ADD DUP1 SLOAD PUSH2 0x2647 SWAP1 PUSH2 0x39D2 JUMP JUMPDEST DUP1 PUSH1 0x1F ADD PUSH1 0x20 DUP1 SWAP2 DIV MUL PUSH1 0x20 ADD PUSH1 0x40 MLOAD SWAP1 DUP2 ADD PUSH1 0x40 MSTORE DUP1 SWAP3 SWAP2 SWAP1 DUP2 DUP2 MSTORE PUSH1 0x20 ADD DUP3 DUP1 SLOAD PUSH2 0x2673 SWAP1 PUSH2 0x39D2 JUMP JUMPDEST DUP1 ISZERO PUSH2 0x26BE JUMPI DUP1 PUSH1 0x1F LT PUSH2 0x2695 JUMPI PUSH2 0x100 DUP1 DUP4 SLOAD DIV MUL DUP4 MSTORE SWAP2 PUSH1 0x20 ADD SWAP2 PUSH2 0x26BE JUMP JUMPDEST DUP3 ADD SWAP2 SWAP1 PUSH0 MSTORE PUSH1 0x20 PUSH0 KECCAK256 SWAP1 JUMPDEST DUP2 SLOAD DUP2 MSTORE SWAP1 PUSH1 0x1 ADD SWAP1 PUSH1 0x20 ADD DUP1 DUP4 GT PUSH2 0x26A1 JUMPI DUP3 SWAP1 SUB PUSH1 0x1F AND DUP3 ADD SWAP2 JUMPDEST POP POP POP POP POP SWAP1 DUP1 PUSH1 0x3 ADD SLOAD SWAP1 DUP1 PUSH1 0x4 ADD SLOAD SWAP1 DUP1 PUSH1 0x5 ADD PUSH0 SWAP1 SLOAD SWAP1 PUSH2 0x100 EXP SWAP1 DIV PUSH1 0xFF AND SWAP1 DUP1 PUSH1 0x6 ADD SLOAD SWAP1 POP DUP8 JUMP JUMPDEST PUSH1 0xA SLOAD DUP2 JUMP JUMPDEST PUSH2 0x26FA PUSH2 0x2A83 JUMP JUMPDEST PUSH1 0x6 DUP1 SLOAD SWAP1 POP DUP3 LT PUSH2 0x2741 JUMPI PUSH1 0x40 MLOAD PUSH32 0x8C379A000000000000000000000000000000000000000000000000000000000 DUP2 MSTORE PUSH1 0x4 ADD PUSH2 0x2738 SWAP1 PUSH2 0x47EB JUMP JUMPDEST PUSH1 0x40 MLOAD DUP1 SWAP2 SUB SWAP1 REVERT JUMPDEST PUSH1 0x6 DUP3 DUP2 SLOAD DUP2 LT PUSH2 0x2755 JUMPI PUSH2 0x2754 PUSH2 0x3F75 JUMP JUMPDEST JUMPDEST SWAP1 PUSH0 MSTORE PUSH1 0x20 PUSH0 KECCAK256 SWAP1 PUSH1 0x8 MUL ADD PUSH1 0x40 MLOAD DUP1 PUSH2 0x100 ADD PUSH1 0x40 MSTORE SWAP1 DUP2 PUSH0 DUP3 ADD DUP1 SLOAD PUSH2 0x277C SWAP1 PUSH2 0x39D2 JUMP JUMPDEST DUP1 PUSH1 0x1F ADD PUSH1 0x20 DUP1 SWAP2 DIV MUL PUSH1 0x20 ADD PUSH1 0x40 MLOAD SWAP1 DUP2 ADD PUSH1 0x40 MSTORE DUP1 SWAP3 SWAP2 SWAP1 DUP2 DUP2 MSTORE PUSH1 0x20 ADD DUP3 DUP1 SLOAD PUSH2 0x27A8 SWAP1 PUSH2 0x39D2 JUMP JUMPDEST DUP1 ISZERO PUSH2 0x27F3 JUMPI DUP1 PUSH1 0x1F LT PUSH2 0x27CA JUMPI PUSH2 0x100 DUP1 DUP4 SLOAD DIV MUL DUP4 MSTORE SWAP2 PUSH1 0x20 ADD SWAP2 PUSH2 0x27F3 JUMP JUMPDEST DUP3 ADD SWAP2 SWAP1 PUSH0 MSTORE PUSH1 0x20 PUSH0 KECCAK256 SWAP1 JUMPDEST DUP2 SLOAD DUP2 MSTORE SWAP1 PUSH1 0x1 ADD SWAP1 PUSH1 0x20 ADD DUP1 DUP4 GT PUSH2 0x27D6 JUMPI DUP3 SWAP1 SUB PUSH1 0x1F AND DUP3 ADD SWAP2 JUMPDEST POP POP POP POP POP DUP2 MSTORE PUSH1 0x20 ADD PUSH1 0x1 DUP3 ADD DUP1 SLOAD PUSH2 0x280C SWAP1 PUSH2 0x39D2 JUMP JUMPDEST DUP1 PUSH1 0x1F ADD PUSH1 0x20 DUP1 SWAP2 DIV MUL PUSH1 0x20 ADD PUSH1 0x40 MLOAD SWAP1 DUP2 ADD PUSH1 0x40 MSTORE DUP1 SWAP3 SWAP2 SWAP1 DUP2 DUP2 MSTORE PUSH1 0x20 ADD DUP3 DUP1 SLOAD PUSH2 0x2838 SWAP1 PUSH2 0x39D2 JUMP JUMPDEST DUP1 ISZERO PUSH2 0x2883 JUMPI DUP1 PUSH1 0x1F LT PUSH2 0x285A JUMPI PUSH2 0x100 DUP1 DUP4 SLOAD DIV MUL DUP4 MSTORE SWAP2 PUSH1 0x20 ADD SWAP2 PUSH2 0x2883 JUMP JUMPDEST DUP3 ADD SWAP2 SWAP1 PUSH0 MSTORE PUSH1 0x20 PUSH0 KECCAK256 SWAP1 JUMPDEST DUP2 SLOAD DUP2 MSTORE SWAP1 PUSH1 0x1 ADD SWAP1 PUSH1 0x20 ADD DUP1 DUP4 GT PUSH2 0x2866 JUMPI DUP3 SWAP1 SUB PUSH1 0x1F AND DUP3 ADD SWAP2 JUMPDEST POP POP POP POP POP DUP2 MSTORE PUSH1 0x20 ADD PUSH1 0x2 DUP3 ADD DUP1 SLOAD PUSH2 0x289C SWAP1 PUSH2 0x39D2 JUMP JUMPDEST DUP1 PUSH1 0x1F ADD PUSH1 0x20 DUP1 SWAP2 DIV MUL PUSH1 0x20 ADD PUSH1 0x40 MLOAD SWAP1 DUP2 ADD PUSH1 0x40 MSTORE DUP1 SWAP3 SWAP2 SWAP1 DUP2 DUP2 MSTORE PUSH1 0x20 ADD DUP3 DUP1 SLOAD PUSH2 0x28C8 SWAP1 PUSH2 0x39D2 JUMP JUMPDEST DUP1 ISZERO PUSH2 0x2913 JUMPI DUP1 PUSH1 0x1F LT PUSH2 0x28EA JUMPI PUSH2 0x100 DUP1 DUP4 SLOAD DIV MUL DUP4 MSTORE SWAP2 PUSH1 0x20 ADD SWAP2 PUSH2 0x2913 JUMP JUMPDEST DUP3 ADD SWAP2 SWAP1 PUSH0 MSTORE PUSH1 0x20 PUSH0 KECCAK256 SWAP1 JUMPDEST DUP2 SLOAD DUP2 MSTORE SWAP1 PUSH1 0x1 ADD SWAP1 PUSH1 0x20 ADD DUP1 DUP4 GT PUSH2 0x28F6 JUMPI DUP3 SWAP1 SUB PUSH1 0x1F AND DUP3 ADD SWAP2 JUMPDEST POP POP POP POP POP DUP2 MSTORE PUSH1 0x20 ADD PUSH1 0x3 DUP3 ADD DUP1 SLOAD PUSH2 0x292C SWAP1 PUSH2 0x39D2 JUMP JUMPDEST DUP1 PUSH1 0x1F ADD PUSH1 0x20 DUP1 SWAP2 DIV MUL PUSH1 0x20 ADD PUSH1 0x40 MLOAD SWAP1 DUP2 ADD PUSH1 0x40 MSTORE DUP1 SWAP3 SWAP2 SWAP1 DUP2 DUP2 MSTORE PUSH1 0x20 ADD DUP3 DUP1 SLOAD PUSH2 0x2958 SWAP1 PUSH2 0x39D2 JUMP JUMPDEST DUP1 ISZERO PUSH2 0x29A3 JUMPI DUP1 PUSH1 0x1F LT PUSH2 0x297A JUMPI PUSH2 0x100 DUP1 DUP4 SLOAD DIV MUL DUP4 MSTORE SWAP2 PUSH1 0x20 ADD SWAP2 PUSH2 0x29A3 JUMP JUMPDEST DUP3 ADD SWAP2 SWAP1 PUSH0 MSTORE PUSH1 0x20 PUSH0 KECCAK256 SWAP1 JUMPDEST DUP2 SLOAD DUP2 MSTORE SWAP1 PUSH1 0x1 ADD SWAP1 PUSH1 0x20 ADD DUP1 DUP4 GT PUSH2 0x2986 JUMPI DUP3 SWAP1 SUB PUSH1 0x1F AND DUP3 ADD SWAP2 JUMPDEST POP POP POP POP POP DUP2 MSTORE PUSH1 0x20 ADD PUSH1 0x4 DUP3 ADD SLOAD DUP2 MSTORE PUSH1 0x20 ADD PUSH1 0x5 DUP3 ADD DUP1 SLOAD PUSH2 0x29C6 SWAP1 PUSH2 0x39D2 JUMP JUMPDEST DUP1 PUSH1 0x1F ADD PUSH1 0x20 DUP1 SWAP2 DIV MUL PUSH1 0x20 ADD PUSH1 0x40 MLOAD SWAP1 DUP2 ADD PUSH1 0x40 MSTORE DUP1 SWAP3 SWAP2 SWAP1 DUP2 DUP2 MSTORE PUSH1 0x20 ADD DUP3 DUP1 SLOAD PUSH2 0x29F2 SWAP1 PUSH2 0x39D2 JUMP JUMPDEST DUP1 ISZERO PUSH2 0x2A3D JUMPI DUP1 PUSH1 0x1F LT PUSH2 0x2A14 JUMPI PUSH2 0x100 DUP1 DUP4 SLOAD DIV MUL DUP4 MSTORE SWAP2 PUSH1 0x20 ADD SWAP2 PUSH2 0x2A3D JUMP JUMPDEST DUP3 ADD SWAP2 SWAP1 PUSH0 MSTORE PUSH1 0x20 PUSH0 KECCAK256 SWAP1 JUMPDEST DUP2 SLOAD DUP2 MSTORE SWAP1 PUSH1 0x1 ADD SWAP1 PUSH1 0x20 ADD DUP1 DUP4 GT PUSH2 0x2A20 JUMPI DUP3 SWAP1 SUB PUSH1 0x1F AND DUP3 ADD SWAP2 JUMPDEST POP POP POP POP POP DUP2 MSTORE PUSH1 0x20 ADD PUSH1 0x6 DUP3 ADD SLOAD DUP2 MSTORE PUSH1 0x20 ADD PUSH1 0x7 DUP3 ADD SLOAD DUP2 MSTORE POP POP SWAP1 POP SWAP2 SWAP1 POP JUMP JUMPDEST PUSH1 0x40 MLOAD DUP1 PUSH1 0x40 ADD PUSH1 0x40 MSTORE DUP1 PUSH1 0x2 SWAP1 PUSH1 0x20 DUP3 MUL DUP1 CALLDATASIZE DUP4 CALLDATACOPY DUP1 DUP3 ADD SWAP2 POP POP SWAP1 POP POP SWAP1 JUMP JUMPDEST PUSH1 0x40 MLOAD DUP1 PUSH2 0x100 ADD PUSH1 0x40 MSTORE DUP1 PUSH1 0x60 DUP2 MSTORE PUSH1 0x20 ADD PUSH1 0x60 DUP2 MSTORE PUSH1 0x20 ADD PUSH1 0x60 DUP2 MSTORE PUSH1 0x20 ADD PUSH1 0x60 DUP2 MSTORE PUSH1 0x20 ADD PUSH0 DUP1 NOT AND DUP2 MSTORE PUSH1 0x20 ADD PUSH1 0x60 DUP2 MSTORE PUSH1 0x20 ADD PUSH0 DUP2 MSTORE PUSH1 0x20 ADD PUSH0 DUP2 MSTORE POP SWAP1 JUMP JUMPDEST PUSH0 PUSH1 0x40 MLOAD SWAP1 POP SWAP1 JUMP JUMPDEST PUSH0 DUP1 REVERT JUMPDEST PUSH0 DUP1 REVERT JUMPDEST PUSH0 DUP1 REVERT JUMPDEST PUSH0 PUSH1 0x1F NOT PUSH1 0x1F DUP4 ADD AND SWAP1 POP SWAP2 SWAP1 POP JUMP JUMPDEST PUSH32 0x4E487B7100000000000000000000000000000000000000000000000000000000 PUSH0 MSTORE PUSH1 0x41 PUSH1 0x4 MSTORE PUSH1 0x24 PUSH0 REVERT JUMPDEST PUSH2 0x2B23 DUP3 PUSH2 0x2ADD JUMP JUMPDEST DUP2 ADD DUP2 DUP2 LT PUSH8 0xFFFFFFFFFFFFFFFF DUP3 GT OR ISZERO PUSH2 0x2B42 JUMPI PUSH2 0x2B41 PUSH2 0x2AED JUMP JUMPDEST JUMPDEST DUP1 PUSH1 0x40 MSTORE POP POP POP JUMP JUMPDEST PUSH0 PUSH2 0x2B54 PUSH2 0x2AC8 JUMP JUMPDEST SWAP1 POP PUSH2 0x2B60 DUP3 DUP3 PUSH2 0x2B1A JUMP JUMPDEST SWAP2 SWAP1 POP JUMP JUMPDEST PUSH0 DUP1 REVERT JUMPDEST PUSH0 DUP1 REVERT JUMPDEST PUSH0 DUP1 REVERT JUMPDEST PUSH0 PUSH8 0xFFFFFFFFFFFFFFFF DUP3 GT ISZERO PUSH2 0x2B8B JUMPI PUSH2 0x2B8A PUSH2 0x2AED JUMP JUMPDEST JUMPDEST PUSH2 0x2B94 DUP3 PUSH2 0x2ADD JUMP JUMPDEST SWAP1 POP PUSH1 0x20 DUP2 ADD SWAP1 POP SWAP2 SWAP1 POP JUMP JUMPDEST DUP3 DUP2 DUP4 CALLDATACOPY PUSH0 DUP4 DUP4 ADD MSTORE POP POP POP JUMP JUMPDEST PUSH0 PUSH2 0x2BC1 PUSH2 0x2BBC DUP5 PUSH2 0x2B71 JUMP JUMPDEST PUSH2 0x2B4B JUMP JUMPDEST SWAP1 POP DUP3 DUP2 MSTORE PUSH1 0x20 DUP2 ADD DUP5 DUP5 DUP5 ADD GT ISZERO PUSH2 0x2BDD JUMPI PUSH2 0x2BDC PUSH2 0x2B6D JUMP JUMPDEST JUMPDEST PUSH2 0x2BE8 DUP5 DUP3 DUP6 PUSH2 0x2BA1 JUMP JUMPDEST POP SWAP4 SWAP3 POP POP POP JUMP JUMPDEST PUSH0 DUP3 PUSH1 0x1F DUP4 ADD SLT PUSH2 0x2C04 JUMPI PUSH2 0x2C03 PUSH2 0x2B69 JUMP JUMPDEST JUMPDEST DUP2 CALLDATALOAD PUSH2 0x2C14 DUP5 DUP3 PUSH1 0x20 DUP7 ADD PUSH2 0x2BAF JUMP JUMPDEST SWAP2 POP POP SWAP3 SWAP2 POP POP JUMP JUMPDEST PUSH0 DUP2 SWAP1 POP SWAP2 SWAP1 POP JUMP JUMPDEST PUSH2 0x2C2F DUP2 PUSH2 0x2C1D JUMP JUMPDEST DUP2 EQ PUSH2 0x2C39 JUMPI PUSH0 DUP1 REVERT JUMPDEST POP JUMP JUMPDEST PUSH0 DUP2 CALLDATALOAD SWAP1 POP PUSH2 0x2C4A DUP2 PUSH2 0x2C26 JUMP JUMPDEST SWAP3 SWAP2 POP POP JUMP JUMPDEST PUSH0 DUP2 SWAP1 POP SWAP2 SWAP1 POP JUMP JUMPDEST PUSH2 0x2C62 DUP2 PUSH2 0x2C50 JUMP JUMPDEST DUP2 EQ PUSH2 0x2C6C JUMPI PUSH0 DUP1 REVERT JUMPDEST POP JUMP JUMPDEST PUSH0 DUP2 CALLDATALOAD SWAP1 POP PUSH2 0x2C7D DUP2 PUSH2 0x2C59 JUMP JUMPDEST SWAP3 SWAP2 POP POP JUMP JUMPDEST PUSH0 PUSH2 0x100 DUP3 DUP5 SUB SLT ISZERO PUSH2 0x2C99 JUMPI PUSH2 0x2C98 PUSH2 0x2AD9 JUMP JUMPDEST JUMPDEST PUSH2 0x2CA4 PUSH2 0x100 PUSH2 0x2B4B JUMP JUMPDEST SWAP1 POP PUSH0 DUP3 ADD CALLDATALOAD PUSH8 0xFFFFFFFFFFFFFFFF DUP2 GT ISZERO PUSH2 0x2CC3 JUMPI PUSH2 0x2CC2 PUSH2 0x2B65 JUMP JUMPDEST JUMPDEST PUSH2 0x2CCF DUP5 DUP3 DUP6 ADD PUSH2 0x2BF0 JUMP JUMPDEST PUSH0 DUP4 ADD MSTORE POP PUSH1 0x20 DUP3 ADD CALLDATALOAD PUSH8 0xFFFFFFFFFFFFFFFF DUP2 GT ISZERO PUSH2 0x2CF2 JUMPI PUSH2 0x2CF1 PUSH2 0x2B65 JUMP JUMPDEST JUMPDEST PUSH2 0x2CFE DUP5 DUP3 DUP6 ADD PUSH2 0x2BF0 JUMP JUMPDEST PUSH1 0x20 DUP4 ADD MSTORE POP PUSH1 0x40 DUP3 ADD CALLDATALOAD PUSH8 0xFFFFFFFFFFFFFFFF DUP2 GT ISZERO PUSH2 0x2D22 JUMPI PUSH2 0x2D21 PUSH2 0x2B65 JUMP JUMPDEST JUMPDEST PUSH2 0x2D2E DUP5 DUP3 DUP6 ADD PUSH2 0x2BF0 JUMP JUMPDEST PUSH1 0x40 DUP4 ADD MSTORE POP PUSH1 0x60 DUP3 ADD CALLDATALOAD PUSH8 0xFFFFFFFFFFFFFFFF DUP2 GT ISZERO PUSH2 0x2D52 JUMPI PUSH2 0x2D51 PUSH2 0x2B65 JUMP JUMPDEST JUMPDEST PUSH2 0x2D5E DUP5 DUP3 DUP6 ADD PUSH2 0x2BF0 JUMP JUMPDEST PUSH1 0x60 DUP4 ADD MSTORE POP PUSH1 0x80 PUSH2 0x2D72 DUP5 DUP3 DUP6 ADD PUSH2 0x2C3C JUMP JUMPDEST PUSH1 0x80 DUP4 ADD MSTORE POP PUSH1 0xA0 DUP3 ADD CALLDATALOAD PUSH8 0xFFFFFFFFFFFFFFFF DUP2 GT ISZERO PUSH2 0x2D96 JUMPI PUSH2 0x2D95 PUSH2 0x2B65 JUMP JUMPDEST JUMPDEST PUSH2 0x2DA2 DUP5 DUP3 DUP6 ADD PUSH2 0x2BF0 JUMP JUMPDEST PUSH1 0xA0 DUP4 ADD MSTORE POP PUSH1 0xC0 PUSH2 0x2DB6 DUP5 DUP3 DUP6 ADD PUSH2 0x2C6F JUMP JUMPDEST PUSH1 0xC0 DUP4 ADD MSTORE POP PUSH1 0xE0 PUSH2 0x2DCA DUP5 DUP3 DUP6 ADD PUSH2 0x2C6F JUMP JUMPDEST PUSH1 0xE0 DUP4 ADD MSTORE POP SWAP3 SWAP2 POP POP JUMP JUMPDEST PUSH0 PUSH1 0x20 DUP3 DUP5 SUB SLT ISZERO PUSH2 0x2DEB JUMPI PUSH2 0x2DEA PUSH2 0x2AD1 JUMP JUMPDEST JUMPDEST PUSH0 DUP3 ADD CALLDATALOAD PUSH8 0xFFFFFFFFFFFFFFFF DUP2 GT ISZERO PUSH2 0x2E08 JUMPI PUSH2 0x2E07 PUSH2 0x2AD5 JUMP JUMPDEST JUMPDEST PUSH2 0x2E14 DUP5 DUP3 DUP6 ADD PUSH2 0x2C83 JUMP JUMPDEST SWAP2 POP POP SWAP3 SWAP2 POP POP JUMP JUMPDEST PUSH0 PUSH1 0x20 DUP3 DUP5 SUB SLT ISZERO PUSH2 0x2E32 JUMPI PUSH2 0x2E31 PUSH2 0x2AD1 JUMP JUMPDEST JUMPDEST PUSH0 PUSH2 0x2E3F DUP5 DUP3 DUP6 ADD PUSH2 0x2C6F JUMP JUMPDEST SWAP2 POP POP SWAP3 SWAP2 POP POP JUMP JUMPDEST PUSH0 PUSH20 0xFFFFFFFFFFFFFFFFFFFFFFFFFFFFFFFFFFFFFFFF DUP3 AND SWAP1 POP SWAP2 SWAP1 POP JUMP JUMPDEST PUSH0 PUSH2 0x2E71 DUP3 PUSH2 0x2E48 JUMP JUMPDEST SWAP1 POP SWAP2 SWAP1 POP JUMP JUMPDEST PUSH2 0x2E81 DUP2 PUSH2 0x2E67 JUMP JUMPDEST DUP3 MSTORE POP POP JUMP JUMPDEST PUSH0 DUP2 MLOAD SWAP1 POP SWAP2 SWAP1 POP JUMP JUMPDEST PUSH0 DUP3 DUP3 MSTORE PUSH1 0x20 DUP3 ADD SWAP1 POP SWAP3 SWAP2 POP POP JUMP JUMPDEST DUP3 DUP2 DUP4 MCOPY PUSH0 DUP4 DUP4 ADD MSTORE POP POP POP JUMP JUMPDEST PUSH0 PUSH2 0x2EB9 DUP3 PUSH2 0x2E87 JUMP JUMPDEST PUSH2 0x2EC3 DUP2 DUP6 PUSH2 0x2E91 JUMP JUMPDEST SWAP4 POP PUSH2 0x2ED3 DUP2 DUP6 PUSH1 0x20 DUP7 ADD PUSH2 0x2EA1 JUMP JUMPDEST PUSH2 0x2EDC DUP2 PUSH2 0x2ADD JUMP JUMPDEST DUP5 ADD SWAP2 POP POP SWAP3 SWAP2 POP POP JUMP JUMPDEST PUSH2 0x2EF0 DUP2 PUSH2 0x2C50 JUMP JUMPDEST DUP3 MSTORE POP POP JUMP JUMPDEST PUSH0 PUSH1 0xFF DUP3 AND SWAP1 POP SWAP2 SWAP1 POP JUMP JUMPDEST PUSH2 0x2F0B DUP2 PUSH2 0x2EF6 JUMP JUMPDEST DUP3 MSTORE POP POP JUMP JUMPDEST PUSH0 PUSH1 0xC0 DUP3 ADD SWAP1 POP PUSH2 0x2F24 PUSH0 DUP4 ADD DUP10 PUSH2 0x2E78 JUMP JUMPDEST DUP2 DUP2 SUB PUSH1 0x20 DUP4 ADD MSTORE PUSH2 0x2F36 DUP2 DUP9 PUSH2 0x2EAF JUMP JUMPDEST SWAP1 POP PUSH2 0x2F45 PUSH1 0x40 DUP4 ADD DUP8 PUSH2 0x2EE7 JUMP JUMPDEST PUSH2 0x2F52 PUSH1 0x60 DUP4 ADD DUP7 PUSH2 0x2EE7 JUMP JUMPDEST PUSH2 0x2F5F PUSH1 0x80 DUP4 ADD DUP6 PUSH2 0x2EE7 JUMP JUMPDEST PUSH2 0x2F6C PUSH1 0xA0 DUP4 ADD DUP5 PUSH2 0x2F02 JUMP JUMPDEST SWAP8 SWAP7 POP POP POP POP POP POP POP JUMP JUMPDEST PUSH2 0x2F80 DUP2 PUSH2 0x2E67 JUMP JUMPDEST DUP2 EQ PUSH2 0x2F8A JUMPI PUSH0 DUP1 REVERT JUMPDEST POP JUMP JUMPDEST PUSH0 DUP2 CALLDATALOAD SWAP1 POP PUSH2 0x2F9B DUP2 PUSH2 0x2F77 JUMP JUMPDEST SWAP3 SWAP2 POP POP JUMP JUMPDEST PUSH0 DUP1 PUSH1 0x40 DUP4 DUP6 SUB SLT ISZERO PUSH2 0x2FB7 JUMPI PUSH2 0x2FB6 PUSH2 0x2AD1 JUMP JUMPDEST JUMPDEST PUSH0 PUSH2 0x2FC4 DUP6 DUP3 DUP7 ADD PUSH2 0x2F8D JUMP JUMPDEST SWAP3 POP POP PUSH1 0x20 PUSH2 0x2FD5 DUP6 DUP3 DUP7 ADD PUSH2 0x2F8D JUMP JUMPDEST SWAP2 POP POP SWAP3 POP SWAP3 SWAP1 POP JUMP JUMPDEST PUSH0 DUP2 PUSH0 SIGNEXTEND SWAP1 POP SWAP2 SWAP1 POP JUMP JUMPDEST PUSH2 0x2FF3 DUP2 PUSH2 0x2FDF JUMP JUMPDEST DUP3 MSTORE POP POP JUMP JUMPDEST PUSH0 PUSH1 0x20 DUP3 ADD SWAP1 POP PUSH2 0x300C PUSH0 DUP4 ADD DUP5 PUSH2 0x2FEA JUMP JUMPDEST SWAP3 SWAP2 POP POP JUMP JUMPDEST PUSH0 PUSH1 0x20 DUP3 DUP5 SUB SLT ISZERO PUSH2 0x3027 JUMPI PUSH2 0x3026 PUSH2 0x2AD1 JUMP JUMPDEST JUMPDEST PUSH0 PUSH2 0x3034 DUP5 DUP3 DUP6 ADD PUSH2 0x2C3C JUMP JUMPDEST SWAP2 POP POP SWAP3 SWAP2 POP POP JUMP JUMPDEST PUSH0 PUSH1 0x2 SWAP1 POP SWAP2 SWAP1 POP JUMP JUMPDEST PUSH0 DUP2 SWAP1 POP SWAP3 SWAP2 POP POP JUMP JUMPDEST PUSH0 DUP2 SWAP1 POP SWAP2 SWAP1 POP JUMP JUMPDEST PUSH2 0x3063 DUP2 PUSH2 0x2E67 JUMP JUMPDEST DUP3 MSTORE POP POP JUMP JUMPDEST PUSH0 PUSH2 0x3074 DUP4 DUP4 PUSH2 0x305A JUMP JUMPDEST PUSH1 0x20 DUP4 ADD SWAP1 POP SWAP3 SWAP2 POP POP JUMP JUMPDEST PUSH0 PUSH1 0x20 DUP3 ADD SWAP1 POP SWAP2 SWAP1 POP JUMP JUMPDEST PUSH2 0x3095 DUP2 PUSH2 0x303D JUMP JUMPDEST PUSH2 0x309F DUP2 DUP5 PUSH2 0x3047 JUMP JUMPDEST SWAP3 POP PUSH2 0x30AA DUP3 PUSH2 0x3051 JUMP JUMPDEST DUP1 PUSH0 JUMPDEST DUP4 DUP2 LT ISZERO PUSH2 0x30DA JUMPI DUP2 MLOAD PUSH2 0x30C1 DUP8 DUP3 PUSH2 0x3069 JUMP JUMPDEST SWAP7 POP PUSH2 0x30CC DUP4 PUSH2 0x3080 JUMP JUMPDEST SWAP3 POP POP PUSH1 0x1 DUP2 ADD SWAP1 POP PUSH2 0x30AD JUMP JUMPDEST POP POP POP POP POP POP JUMP JUMPDEST PUSH0 PUSH1 0x40 DUP3 ADD SWAP1 POP PUSH2 0x30F5 PUSH0 DUP4 ADD DUP5 PUSH2 0x308C JUMP JUMPDEST SWAP3 SWAP2 POP POP JUMP JUMPDEST PUSH2 0x3104 DUP2 PUSH2 0x2FDF JUMP JUMPDEST DUP2 EQ PUSH2 0x310E JUMPI PUSH0 DUP1 REVERT JUMPDEST POP JUMP JUMPDEST PUSH0 DUP2 CALLDATALOAD SWAP1 POP PUSH2 0x311F DUP2 PUSH2 0x30FB JUMP JUMPDEST SWAP3 SWAP2 POP POP JUMP JUMPDEST PUSH0 DUP1 PUSH1 0x40 DUP4 DUP6 SUB SLT ISZERO PUSH2 0x313B JUMPI PUSH2 0x313A PUSH2 0x2AD1 JUMP JUMPDEST JUMPDEST PUSH0 PUSH2 0x3148 DUP6 DUP3 DUP7 ADD PUSH2 0x2F8D JUMP JUMPDEST SWAP3 POP POP PUSH1 0x20 PUSH2 0x3159 DUP6 DUP3 DUP7 ADD PUSH2 0x3111 JUMP JUMPDEST SWAP2 POP POP SWAP3 POP SWAP3 SWAP1 POP JUMP JUMPDEST PUSH0 PUSH1 0x20 DUP3 DUP5 SUB SLT ISZERO PUSH2 0x3178 JUMPI PUSH2 0x3177 PUSH2 0x2AD1 JUMP JUMPDEST JUMPDEST PUSH0 PUSH2 0x3185 DUP5 DUP3 DUP6 ADD PUSH2 0x2F8D JUMP JUMPDEST SWAP2 POP POP SWAP3 SWAP2 POP POP JUMP JUMPDEST PUSH0 PUSH1 0x20 DUP3 ADD SWAP1 POP PUSH2 0x31A1 PUSH0 DUP4 ADD DUP5 PUSH2 0x2EE7 JUMP JUMPDEST SWAP3 SWAP2 POP POP JUMP JUMPDEST PUSH0 PUSH4 0xFFFFFFFF DUP3 AND SWAP1 POP SWAP2 SWAP1 POP JUMP JUMPDEST PUSH2 0x31BF DUP2 PUSH2 0x31A7 JUMP JUMPDEST DUP3 MSTORE POP POP JUMP JUMPDEST PUSH0 PUSH1 0x20 DUP3 ADD SWAP1 POP PUSH2 0x31D8 PUSH0 DUP4 ADD DUP5 PUSH2 0x31B6 JUMP JUMPDEST SWAP3 SWAP2 POP POP JUMP JUMPDEST PUSH0 DUP3 DUP3 MSTORE PUSH1 0x20 DUP3 ADD SWAP1 POP SWAP3 SWAP2 POP POP JUMP JUMPDEST PUSH0 PUSH2 0x31F8 DUP3 PUSH2 0x2E87 JUMP JUMPDEST PUSH2 0x3202 DUP2 DUP6 PUSH2 0x31DE JUMP JUMPDEST SWAP4 POP PUSH2 0x3212 DUP2 DUP6 PUSH1 0x20 DUP7 ADD PUSH2 0x2EA1 JUMP JUMPDEST PUSH2 0x321B DUP2 PUSH2 0x2ADD JUMP JUMPDEST DUP5 ADD SWAP2 POP POP SWAP3 SWAP2 POP POP JUMP JUMPDEST PUSH2 0x322F DUP2 PUSH2 0x2C1D JUMP JUMPDEST DUP3 MSTORE POP POP JUMP JUMPDEST PUSH2 0x323E DUP2 PUSH2 0x2C50 JUMP JUMPDEST DUP3 MSTORE POP POP JUMP JUMPDEST PUSH0 PUSH2 0x100 DUP4 ADD PUSH0 DUP4 ADD MLOAD DUP5 DUP3 SUB PUSH0 DUP7 ADD MSTORE PUSH2 0x325F DUP3 DUP3 PUSH2 0x31EE JUMP JUMPDEST SWAP2 POP POP PUSH1 0x20 DUP4 ADD MLOAD DUP5 DUP3 SUB PUSH1 0x20 DUP7 ADD MSTORE PUSH2 0x3279 DUP3 DUP3 PUSH2 0x31EE JUMP JUMPDEST SWAP2 POP POP PUSH1 0x40 DUP4 ADD MLOAD DUP5 DUP3 SUB PUSH1 0x40 DUP7 ADD MSTORE PUSH2 0x3293 DUP3 DUP3 PUSH2 0x31EE JUMP JUMPDEST SWAP2 POP POP PUSH1 0x60 DUP4 ADD MLOAD DUP5 DUP3 SUB PUSH1 0x60 DUP7 ADD MSTORE PUSH2 0x32AD DUP3 DUP3 PUSH2 0x31EE JUMP JUMPDEST SWAP2 POP POP PUSH1 0x80 DUP4 ADD MLOAD PUSH2 0x32C2 PUSH1 0x80 DUP7 ADD DUP3 PUSH2 0x3226 JUMP JUMPDEST POP PUSH1 0xA0 DUP4 ADD MLOAD DUP5 DUP3 SUB PUSH1 0xA0 DUP7 ADD MSTORE PUSH2 0x32DA DUP3 DUP3 PUSH2 0x31EE JUMP JUMPDEST SWAP2 POP POP PUSH1 0xC0 DUP4 ADD MLOAD PUSH2 0x32EF PUSH1 0xC0 DUP7 ADD DUP3 PUSH2 0x3235 JUMP JUMPDEST POP PUSH1 0xE0 DUP4 ADD MLOAD PUSH2 0x3302 PUSH1 0xE0 DUP7 ADD DUP3 PUSH2 0x3235 JUMP JUMPDEST POP DUP1 SWAP2 POP POP SWAP3 SWAP2 POP POP JUMP JUMPDEST PUSH0 PUSH1 0x40 DUP3 ADD SWAP1 POP PUSH2 0x3320 PUSH0 DUP4 ADD DUP6 PUSH2 0x2EE7 JUMP JUMPDEST DUP2 DUP2 SUB PUSH1 0x20 DUP4 ADD MSTORE PUSH2 0x3332 DUP2 DUP5 PUSH2 0x3244 JUMP JUMPDEST SWAP1 POP SWAP4 SWAP3 POP POP POP JUMP JUMPDEST PUSH0 PUSH1 0x20 DUP3 ADD SWAP1 POP PUSH2 0x334E PUSH0 DUP4 ADD DUP5 PUSH2 0x2E78 JUMP JUMPDEST SWAP3 SWAP2 POP POP JUMP JUMPDEST PUSH0 DUP2 SWAP1 POP SWAP2 SWAP1 POP JUMP JUMPDEST PUSH2 0x3366 DUP2 PUSH2 0x3354 JUMP JUMPDEST DUP3 MSTORE POP POP JUMP JUMPDEST PUSH0 PUSH1 0x20 DUP3 ADD SWAP1 POP PUSH2 0x337F PUSH0 DUP4 ADD DUP5 PUSH2 0x335D JUMP JUMPDEST SWAP3 SWAP2 POP POP JUMP JUMPDEST PUSH0 PUSH1 0x20 DUP3 ADD SWAP1 POP PUSH2 0x3398 PUSH0 DUP4 ADD DUP5 PUSH2 0x2F02 JUMP JUMPDEST SWAP3 SWAP2 POP POP JUMP JUMPDEST PUSH0 DUP1 REVERT JUMPDEST PUSH0 DUP2 SWAP1 POP DUP3 PUSH1 0x20 PUSH1 0xA MUL DUP3 ADD GT ISZERO PUSH2 0x33BD JUMPI PUSH2 0x33BC PUSH2 0x339E JUMP JUMPDEST JUMPDEST SWAP3 SWAP2 POP POP JUMP JUMPDEST PUSH0 DUP2 SWAP1 POP DUP3 PUSH1 0x20 PUSH1 0xA MUL DUP3 ADD GT ISZERO PUSH2 0x33DE JUMPI PUSH2 0x33DD PUSH2 0x339E JUMP JUMPDEST JUMPDEST SWAP3 SWAP2 POP POP JUMP JUMPDEST PUSH0 DUP1 PUSH2 0x280 DUP4 DUP6 SUB SLT ISZERO PUSH2 0x33FB JUMPI PUSH2 0x33FA PUSH2 0x2AD1 JUMP JUMPDEST JUMPDEST PUSH0 PUSH2 0x3408 DUP6 DUP3 DUP7 ADD PUSH2 0x33A2 JUMP JUMPDEST SWAP3 POP POP PUSH2 0x140 PUSH2 0x341A DUP6 DUP3 DUP7 ADD PUSH2 0x33C3 JUMP JUMPDEST SWAP2 POP POP SWAP3 POP SWAP3 SWAP1 POP JUMP JUMPDEST PUSH32 0x4E487B7100000000000000000000000000000000000000000000000000000000 PUSH0 MSTORE PUSH1 0x21 PUSH1 0x4 MSTORE PUSH1 0x24 PUSH0 REVERT JUMPDEST PUSH1 0x5 DUP2 LT PUSH2 0x3462 JUMPI PUSH2 0x3461 PUSH2 0x3424 JUMP JUMPDEST JUMPDEST POP JUMP JUMPDEST PUSH0 DUP2 SWAP1 POP PUSH2 0x3472 DUP3 PUSH2 0x3451 JUMP JUMPDEST SWAP2 SWAP1 POP JUMP JUMPDEST PUSH0 PUSH2 0x3481 DUP3 PUSH2 0x3465 JUMP JUMPDEST SWAP1 POP SWAP2 SWAP1 POP JUMP JUMPDEST PUSH2 0x3491 DUP2 PUSH2 0x3477 JUMP JUMPDEST DUP3 MSTORE POP POP JUMP JUMPDEST PUSH0 PUSH1 0x20 DUP3 ADD SWAP1 POP PUSH2 0x34AA PUSH0 DUP4 ADD DUP5 PUSH2 0x3488 JUMP JUMPDEST SWAP3 SWAP2 POP POP JUMP JUMPDEST PUSH2 0x34B9 DUP2 PUSH2 0x2C1D JUMP JUMPDEST DUP3 MSTORE POP POP JUMP JUMPDEST PUSH0 PUSH2 0x100 DUP3 ADD SWAP1 POP DUP2 DUP2 SUB PUSH0 DUP4 ADD MSTORE PUSH2 0x34D8 DUP2 DUP12 PUSH2 0x2EAF JUMP JUMPDEST SWAP1 POP DUP2 DUP2 SUB PUSH1 0x20 DUP4 ADD MSTORE PUSH2 0x34EC DUP2 DUP11 PUSH2 0x2EAF JUMP JUMPDEST SWAP1 POP DUP2 DUP2 SUB PUSH1 0x40 DUP4 ADD MSTORE PUSH2 0x3500 DUP2 DUP10 PUSH2 0x2EAF JUMP JUMPDEST SWAP1 POP DUP2 DUP2 SUB PUSH1 0x60 DUP4 ADD MSTORE PUSH2 0x3514 DUP2 DUP9 PUSH2 0x2EAF JUMP JUMPDEST SWAP1 POP PUSH2 0x3523 PUSH1 0x80 DUP4 ADD DUP8 PUSH2 0x34B0 JUMP JUMPDEST DUP2 DUP2 SUB PUSH1 0xA0 DUP4 ADD MSTORE PUSH2 0x3535 DUP2 DUP7 PUSH2 0x2EAF JUMP JUMPDEST SWAP1 POP PUSH2 0x3544 PUSH1 0xC0 DUP4 ADD DUP6 PUSH2 0x2EE7 JUMP JUMPDEST PUSH2 0x3551 PUSH1 0xE0 DUP4 ADD DUP5 PUSH2 0x2EE7 JUMP JUMPDEST SWAP10 SWAP9 POP POP POP POP POP POP POP POP POP JUMP JUMPDEST PUSH0 DUP1 REVERT JUMPDEST PUSH0 DUP1 DUP4 PUSH1 0x1F DUP5 ADD SLT PUSH2 0x3577 JUMPI PUSH2 0x3576 PUSH2 0x2B69 JUMP JUMPDEST JUMPDEST DUP3 CALLDATALOAD SWAP1 POP PUSH8 0xFFFFFFFFFFFFFFFF DUP2 GT ISZERO PUSH2 0x3594 JUMPI PUSH2 0x3593 PUSH2 0x355E JUMP JUMPDEST JUMPDEST PUSH1 0x20 DUP4 ADD SWAP2 POP DUP4 PUSH1 0x20 DUP3 MUL DUP4 ADD GT ISZERO PUSH2 0x35B0 JUMPI PUSH2 0x35AF PUSH2 0x339E JUMP JUMPDEST JUMPDEST SWAP3 POP SWAP3 SWAP1 POP JUMP JUMPDEST PUSH0 DUP1 PUSH1 0x20 DUP4 DUP6 SUB SLT ISZERO PUSH2 0x35CD JUMPI PUSH2 0x35CC PUSH2 0x2AD1 JUMP JUMPDEST JUMPDEST PUSH0 DUP4 ADD CALLDATALOAD PUSH8 0xFFFFFFFFFFFFFFFF DUP2 GT ISZERO PUSH2 0x35EA JUMPI PUSH2 0x35E9 PUSH2 0x2AD5 JUMP JUMPDEST JUMPDEST PUSH2 0x35F6 DUP6 DUP3 DUP7 ADD PUSH2 0x3562 JUMP JUMPDEST SWAP3 POP SWAP3 POP POP SWAP3 POP SWAP3 SWAP1 POP JUMP JUMPDEST PUSH0 DUP2 ISZERO ISZERO SWAP1 POP SWAP2 SWAP1 POP JUMP JUMPDEST PUSH2 0x3616 DUP2 PUSH2 0x3602 JUMP JUMPDEST DUP3 MSTORE POP POP JUMP JUMPDEST PUSH0 PUSH1 0xE0 DUP3 ADD SWAP1 POP DUP2 DUP2 SUB PUSH0 DUP4 ADD MSTORE PUSH2 0x3634 DUP2 DUP11 PUSH2 0x2EAF JUMP JUMPDEST SWAP1 POP DUP2 DUP2 SUB PUSH1 0x20 DUP4 ADD MSTORE PUSH2 0x3648 DUP2 DUP10 PUSH2 0x2EAF JUMP JUMPDEST SWAP1 POP DUP2 DUP2 SUB PUSH1 0x40 DUP4 ADD MSTORE PUSH2 0x365C DUP2 DUP9 PUSH2 0x2EAF JUMP JUMPDEST SWAP1 POP PUSH2 0x366B PUSH1 0x60 DUP4 ADD DUP8 PUSH2 0x2EE7 JUMP JUMPDEST PUSH2 0x3678 PUSH1 0x80 DUP4 ADD DUP7 PUSH2 0x2EE7 JUMP JUMPDEST PUSH2 0x3685 PUSH1 0xA0 DUP4 ADD DUP6 PUSH2 0x360D JUMP JUMPDEST PUSH2 0x3692 PUSH1 0xC0 DUP4 ADD DUP5 PUSH2 0x2EE7 JUMP JUMPDEST SWAP9 SWAP8 POP POP POP POP POP POP POP POP JUMP JUMPDEST PUSH0 PUSH1 0x20 DUP3 ADD SWAP1 POP DUP2 DUP2 SUB PUSH0 DUP4 ADD MSTORE PUSH2 0x36B6 DUP2 DUP5 PUSH2 0x3244 JUMP JUMPDEST SWAP1 POP SWAP3 SWAP2 POP POP JUMP JUMPDEST PUSH32 0x57726F6E67207068617365000000000000000000000000000000000000000000 PUSH0 DUP3 ADD MSTORE POP JUMP JUMPDEST PUSH0 PUSH2 0x36F2 PUSH1 0xB DUP4 PUSH2 0x2E91 JUMP JUMPDEST SWAP2 POP PUSH2 0x36FD DUP3 PUSH2 0x36BE JUMP JUMPDEST PUSH1 0x20 DUP3 ADD SWAP1 POP SWAP2 SWAP1 POP JUMP JUMPDEST PUSH0 PUSH1 0x20 DUP3 ADD SWAP1 POP DUP2 DUP2 SUB PUSH0 DUP4 ADD MSTORE PUSH2 0x371F DUP2 PUSH2 0x36E6 JUMP JUMPDEST SWAP1 POP SWAP2 SWAP1 POP JUMP JUMPDEST PUSH32 0x4465736372697074696F6E207265717569726564000000000000000000000000 PUSH0 DUP3 ADD MSTORE POP JUMP JUMPDEST PUSH0 PUSH2 0x375A PUSH1 0x14 DUP4 PUSH2 0x2E91 JUMP JUMPDEST SWAP2 POP PUSH2 0x3765 DUP3 PUSH2 0x3726 JUMP JUMPDEST PUSH1 0x20 DUP3 ADD SWAP1 POP SWAP2 SWAP1 POP JUMP JUMPDEST PUSH0 PUSH1 0x20 DUP3 ADD SWAP1 POP DUP2 DUP2 SUB PUSH0 DUP4 ADD MSTORE PUSH2 0x3787 DUP2 PUSH2 0x374E JUMP JUMPDEST SWAP1 POP SWAP2 SWAP1 POP JUMP JUMPDEST PUSH32 0x636F6E737469747574696F6E5465787420726571756972656400000000000000 PUSH0 DUP3 ADD MSTORE POP JUMP JUMPDEST PUSH0 PUSH2 0x37C2 PUSH1 0x19 DUP4 PUSH2 0x2E91 JUMP JUMPDEST SWAP2 POP PUSH2 0x37CD DUP3 PUSH2 0x378E JUMP JUMPDEST PUSH1 0x20 DUP3 ADD SWAP1 POP SWAP2 SWAP1 POP JUMP JUMPDEST PUSH0 PUSH1 0x20 DUP3 ADD SWAP1 POP DUP2 DUP2 SUB PUSH0 DUP4 ADD MSTORE PUSH2 0x37EF DUP2 PUSH2 0x37B6 JUMP JUMPDEST SWAP1 POP SWAP2 SWAP1 POP JUMP JUMPDEST PUSH32 0x50726F706F736572206E616D6520726571756972656400000000000000000000 PUSH0 DUP3 ADD MSTORE POP JUMP JUMPDEST PUSH0 PUSH2 0x382A PUSH1 0x16 DUP4 PUSH2 0x2E91 JUMP JUMPDEST SWAP2 POP PUSH2 0x3835 DUP3 PUSH2 0x37F6 JUMP JUMPDEST PUSH1 0x20 DUP3 ADD SWAP1 POP SWAP2 SWAP1 POP JUMP JUMPDEST PUSH0 PUSH1 0x20 DUP3 ADD SWAP1 POP DUP2 DUP2 SUB PUSH0 DUP4 ADD MSTORE PUSH2 0x3857 DUP2 PUSH2 0x381E JUMP JUMPDEST SWAP1 POP SWAP2 SWAP1 POP JUMP JUMPDEST PUSH32 0x496E73756666696369656E74207375626D697373696F6E206665650000000000 PUSH0 DUP3 ADD MSTORE POP JUMP JUMPDEST PUSH0 PUSH2 0x3892 PUSH1 0x1B DUP4 PUSH2 0x2E91 JUMP JUMPDEST SWAP2 POP PUSH2 0x389D DUP3 PUSH2 0x385E JUMP JUMPDEST PUSH1 0x20 DUP3 ADD SWAP1 POP SWAP2 SWAP1 POP JUMP JUMPDEST PUSH0 PUSH1 0x20 DUP3 ADD SWAP1 POP DUP2 DUP2 SUB PUSH0 DUP4 ADD MSTORE PUSH2 0x38BF DUP2 PUSH2 0x3886 JUMP JUMPDEST SWAP1 POP SWAP2 SWAP1 POP JUMP JUMPDEST PUSH0 DUP2 SWAP1 POP SWAP3 SWAP2 POP POP JUMP JUMPDEST PUSH0 PUSH2 0x38DA DUP3 PUSH2 0x2E87 JUMP JUMPDEST PUSH2 0x38E4 DUP2 DUP6 PUSH2 0x38C6 JUMP JUMPDEST SWAP4 POP PUSH2 0x38F4 DUP2 DUP6 PUSH1 0x20 DUP7 ADD PUSH2 0x2EA1 JUMP JUMPDEST DUP1 DUP5 ADD SWAP2 POP POP SWAP3 SWAP2 POP POP JUMP JUMPDEST PUSH0 PUSH2 0x390B DUP3 DUP8 PUSH2 0x38D0 JUMP JUMPDEST SWAP2 POP PUSH2 0x3917 DUP3 DUP7 PUSH2 0x38D0 JUMP JUMPDEST SWAP2 POP PUSH2 0x3923 DUP3 DUP6 PUSH2 0x38D0 JUMP JUMPDEST SWAP2 POP PUSH2 0x392F DUP3 DUP5 PUSH2 0x38D0 JUMP JUMPDEST SWAP2 POP DUP2 SWAP1 POP SWAP6 SWAP5 POP POP POP POP POP JUMP JUMPDEST PUSH32 0x496E636F72726563742048617368210000000000000000000000000000000000 PUSH0 DUP3 ADD MSTORE POP JUMP JUMPDEST PUSH0 PUSH2 0x3971 PUSH1 0xF DUP4 PUSH2 0x2E91 JUMP JUMPDEST SWAP2 POP PUSH2 0x397C DUP3 PUSH2 0x393D JUMP JUMPDEST PUSH1 0x20 DUP3 ADD SWAP1 POP SWAP2 SWAP1 POP JUMP JUMPDEST PUSH0 PUSH1 0x20 DUP3 ADD SWAP1 POP DUP2 DUP2 SUB PUSH0 DUP4 ADD MSTORE PUSH2 0x399E DUP2 PUSH2 0x3965 JUMP JUMPDEST SWAP1 POP SWAP2 SWAP1 POP JUMP JUMPDEST PUSH32 0x4E487B7100000000000000000000000000000000000000000000000000000000 PUSH0 MSTORE PUSH1 0x22 PUSH1 0x4 MSTORE PUSH1 0x24 PUSH0 REVERT JUMPDEST PUSH0 PUSH1 0x2 DUP3 DIV SWAP1 POP PUSH1 0x1 DUP3 AND DUP1 PUSH2 0x39E9 JUMPI PUSH1 0x7F DUP3 AND SWAP2 POP JUMPDEST PUSH1 0x20 DUP3 LT DUP2 SUB PUSH2 0x39FC JUMPI PUSH2 0x39FB PUSH2 0x39A5 JUMP JUMPDEST JUMPDEST POP SWAP2 SWAP1 POP JUMP JUMPDEST PUSH0 DUP2 SWAP1 POP DUP2 PUSH0 MSTORE PUSH1 0x20 PUSH0 KECCAK256 SWAP1 POP SWAP2 SWAP1 POP JUMP JUMPDEST PUSH0 PUSH1 0x20 PUSH1 0x1F DUP4 ADD DIV SWAP1 POP SWAP2 SWAP1 POP JUMP JUMPDEST PUSH0 DUP3 DUP3 SHL SWAP1 POP SWAP3 SWAP2 POP POP JUMP JUMPDEST PUSH0 PUSH1 0x8 DUP4 MUL PUSH2 0x3A5E PUSH32 0xFFFFFFFFFFFFFFFFFFFFFFFFFFFFFFFFFFFFFFFFFFFFFFFFFFFFFFFFFFFFFFFF DUP3 PUSH2 0x3A23 JUMP JUMPDEST PUSH2 0x3A68 DUP7 DUP4 PUSH2 0x3A23 JUMP JUMPDEST SWAP6 POP DUP1 NOT DUP5 AND SWAP4 POP DUP1 DUP7 AND DUP5 OR SWAP3 POP POP POP SWAP4 SWAP3 POP POP POP JUMP JUMPDEST PUSH0 DUP2 SWAP1 POP SWAP2 SWAP1 POP JUMP JUMPDEST PUSH0 PUSH2 0x3AA3 PUSH2 0x3A9E PUSH2 0x3A99 DUP5 PUSH2 0x2C50 JUMP JUMPDEST PUSH2 0x3A80 JUMP JUMPDEST PUSH2 0x2C50 JUMP JUMPDEST SWAP1 POP SWAP2 SWAP1 POP JUMP JUMPDEST PUSH0 DUP2 SWAP1 POP SWAP2 SWAP1 POP JUMP JUMPDEST PUSH2 0x3ABC DUP4 PUSH2 0x3A89 JUMP JUMPDEST PUSH2 0x3AD0 PUSH2 0x3AC8 DUP3 PUSH2 0x3AAA JUMP JUMPDEST DUP5 DUP5 SLOAD PUSH2 0x3A2F JUMP JUMPDEST DUP3 SSTORE POP POP POP POP JUMP JUMPDEST PUSH0 SWAP1 JUMP JUMPDEST PUSH2 0x3AE4 PUSH2 0x3AD8 JUMP JUMPDEST PUSH2 0x3AEF DUP2 DUP5 DUP5 PUSH2 0x3AB3 JUMP JUMPDEST POP POP POP JUMP JUMPDEST JUMPDEST DUP2 DUP2 LT ISZERO PUSH2 0x3B12 JUMPI PUSH2 0x3B07 PUSH0 DUP3 PUSH2 0x3ADC JUMP JUMPDEST PUSH1 0x1 DUP2 ADD SWAP1 POP PUSH2 0x3AF5 JUMP JUMPDEST POP POP JUMP JUMPDEST PUSH1 0x1F DUP3 GT ISZERO PUSH2 0x3B57 JUMPI PUSH2 0x3B28 DUP2 PUSH2 0x3A02 JUMP JUMPDEST PUSH2 0x3B31 DUP5 PUSH2 0x3A14 JUMP JUMPDEST DUP2 ADD PUSH1 0x20 DUP6 LT ISZERO PUSH2 0x3B40 JUMPI DUP2 SWAP1 POP JUMPDEST PUSH2 0x3B54 PUSH2 0x3B4C DUP6 PUSH2 0x3A14 JUMP JUMPDEST DUP4 ADD DUP3 PUSH2 0x3AF4 JUMP JUMPDEST POP POP JUMPDEST POP POP POP JUMP JUMPDEST PUSH0 DUP3 DUP3 SHR SWAP1 POP SWAP3 SWAP2 POP POP JUMP JUMPDEST PUSH0 PUSH2 0x3B77 PUSH0 NOT DUP5 PUSH1 0x8 MUL PUSH2 0x3B5C JUMP JUMPDEST NOT DUP1 DUP4 AND SWAP2 POP POP SWAP3 SWAP2 POP POP JUMP JUMPDEST PUSH0 PUSH2 0x3B8F DUP4 DUP4 PUSH2 0x3B68 JUMP JUMPDEST SWAP2 POP DUP3 PUSH1 0x2 MUL DUP3 OR SWAP1 POP SWAP3 SWAP2 POP POP JUMP JUMPDEST PUSH2 0x3BA8 DUP3 PUSH2 0x2E87 JUMP JUMPDEST PUSH8 0xFFFFFFFFFFFFFFFF DUP2 GT ISZERO PUSH2 0x3BC1 JUMPI PUSH2 0x3BC0 PUSH2 0x2AED JUMP JUMPDEST JUMPDEST PUSH2 0x3BCB DUP3 SLOAD PUSH2 0x39D2 JUMP JUMPDEST PUSH2 0x3BD6 DUP3 DUP3 DUP6 PUSH2 0x3B16 JUMP JUMPDEST PUSH0 PUSH1 0x20 SWAP1 POP PUSH1 0x1F DUP4 GT PUSH1 0x1 DUP2 EQ PUSH2 0x3C07 JUMPI PUSH0 DUP5 ISZERO PUSH2 0x3BF5 JUMPI DUP3 DUP8 ADD MLOAD SWAP1 POP JUMPDEST PUSH2 0x3BFF DUP6 DUP3 PUSH2 0x3B84 JUMP JUMPDEST DUP7 SSTORE POP PUSH2 0x3C66 JUMP JUMPDEST PUSH1 0x1F NOT DUP5 AND PUSH2 0x3C15 DUP7 PUSH2 0x3A02 JUMP JUMPDEST PUSH0 JUMPDEST DUP3 DUP2 LT ISZERO PUSH2 0x3C3C JUMPI DUP5 DUP10 ADD MLOAD DUP3 SSTORE PUSH1 0x1 DUP3 ADD SWAP2 POP PUSH1 0x20 DUP6 ADD SWAP5 POP PUSH1 0x20 DUP2 ADD SWAP1 POP PUSH2 0x3C17 JUMP JUMPDEST DUP7 DUP4 LT ISZERO PUSH2 0x3C59 JUMPI DUP5 DUP10 ADD MLOAD PUSH2 0x3C55 PUSH1 0x1F DUP10 AND DUP3 PUSH2 0x3B68 JUMP JUMPDEST DUP4 SSTORE POP JUMPDEST PUSH1 0x1 PUSH1 0x2 DUP9 MUL ADD DUP9 SSTORE POP POP POP JUMPDEST POP POP POP POP POP POP JUMP JUMPDEST PUSH32 0x4E487B7100000000000000000000000000000000000000000000000000000000 PUSH0 MSTORE PUSH1 0x11 PUSH1 0x4 MSTORE PUSH1 0x24 PUSH0 REVERT JUMPDEST PUSH0 PUSH2 0x3CA5 DUP3 PUSH2 0x2C50 JUMP JUMPDEST SWAP2 POP PUSH2 0x3CB0 DUP4 PUSH2 0x2C50 JUMP JUMPDEST SWAP3 POP DUP3 DUP3 SUB SWAP1 POP DUP2 DUP2 GT ISZERO PUSH2 0x3CC8 JUMPI PUSH2 0x3CC7 PUSH2 0x3C6E JUMP JUMPDEST JUMPDEST SWAP3 SWAP2 POP POP JUMP JUMPDEST PUSH32 0x4E6F742061206D656D6265720000000000000000000000000000000000000000 PUSH0 DUP3 ADD MSTORE POP JUMP JUMPDEST PUSH0 PUSH2 0x3D02 PUSH1 0xC DUP4 PUSH2 0x2E91 JUMP JUMPDEST SWAP2 POP PUSH2 0x3D0D DUP3 PUSH2 0x3CCE JUMP JUMPDEST PUSH1 0x20 DUP3 ADD SWAP1 POP SWAP2 SWAP1 POP JUMP JUMPDEST PUSH0 PUSH1 0x20 DUP3 ADD SWAP1 POP DUP2 DUP2 SUB PUSH0 DUP4 ADD MSTORE PUSH2 0x3D2F DUP2 PUSH2 0x3CF6 JUMP JUMPDEST SWAP1 POP SWAP2 SWAP1 POP JUMP JUMPDEST PUSH32 0x566F7465206D757374206265202D312C20302C206F7220310000000000000000 PUSH0 DUP3 ADD MSTORE POP JUMP JUMPDEST PUSH0 PUSH2 0x3D6A PUSH1 0x18 DUP4 PUSH2 0x2E91 JUMP JUMPDEST SWAP2 POP PUSH2 0x3D75 DUP3 PUSH2 0x3D36 JUMP JUMPDEST PUSH1 0x20 DUP3 ADD SWAP1 POP SWAP2 SWAP1 POP JUMP JUMPDEST PUSH0 PUSH1 0x20 DUP3 ADD SWAP1 POP DUP2 DUP2 SUB PUSH0 DUP4 ADD MSTORE PUSH2 0x3D97 DUP2 PUSH2 0x3D5E JUMP JUMPDEST SWAP1 POP SWAP2 SWAP1 POP JUMP JUMPDEST PUSH32 0x4D617820766F7465732072656163686564000000000000000000000000000000 PUSH0 DUP3 ADD MSTORE POP JUMP JUMPDEST PUSH0 PUSH2 0x3DD2 PUSH1 0x11 DUP4 PUSH2 0x2E91 JUMP JUMPDEST SWAP2 POP PUSH2 0x3DDD DUP3 PUSH2 0x3D9E JUMP JUMPDEST PUSH1 0x20 DUP3 ADD SWAP1 POP SWAP2 SWAP1 POP JUMP JUMPDEST PUSH0 PUSH1 0x20 DUP3 ADD SWAP1 POP DUP2 DUP2 SUB PUSH0 DUP4 ADD MSTORE PUSH2 0x3DFF DUP2 PUSH2 0x3DC6 JUMP JUMPDEST SWAP1 POP SWAP2 SWAP1 POP JUMP JUMPDEST PUSH0 PUSH2 0x3E10 DUP3 PUSH2 0x2C50 JUMP JUMPDEST SWAP2 POP PUSH32 0xFFFFFFFFFFFFFFFFFFFFFFFFFFFFFFFFFFFFFFFFFFFFFFFFFFFFFFFFFFFFFFFF DUP3 SUB PUSH2 0x3E42 JUMPI PUSH2 0x3E41 PUSH2 0x3C6E JUMP JUMPDEST JUMPDEST PUSH1 0x1 DUP3 ADD SWAP1 POP SWAP2 SWAP1 POP JUMP JUMPDEST PUSH0 PUSH2 0x3E57 DUP3 PUSH2 0x2C50 JUMP JUMPDEST SWAP2 POP PUSH0 DUP3 SUB PUSH2 0x3E69 JUMPI PUSH2 0x3E68 PUSH2 0x3C6E JUMP JUMPDEST JUMPDEST PUSH1 0x1 DUP3 SUB SWAP1 POP SWAP2 SWAP1 POP JUMP JUMPDEST PUSH0 PUSH2 0x3E7E DUP3 PUSH2 0x2FDF JUMP JUMPDEST SWAP2 POP PUSH2 0x3E89 DUP4 PUSH2 0x2FDF JUMP JUMPDEST SWAP3 POP DUP3 DUP3 SUB SWAP1 POP PUSH1 0x7F DUP2 SGT PUSH32 0xFFFFFFFFFFFFFFFFFFFFFFFFFFFFFFFFFFFFFFFFFFFFFFFFFFFFFFFFFFFFFF80 DUP3 SLT OR ISZERO PUSH2 0x3EC6 JUMPI PUSH2 0x3EC5 PUSH2 0x3C6E JUMP JUMPDEST JUMPDEST SWAP3 SWAP2 POP POP JUMP JUMPDEST PUSH0 PUSH2 0x3ED6 DUP3 PUSH2 0x3354 JUMP JUMPDEST SWAP2 POP PUSH2 0x3EE1 DUP4 PUSH2 0x3354 JUMP JUMPDEST SWAP3 POP DUP3 DUP3 ADD SWAP1 POP DUP3 DUP2 SLT ISZERO PUSH0 DUP4 SLT AND DUP4 DUP3 SLT PUSH0 DUP5 SLT ISZERO AND OR ISZERO PUSH2 0x3F07 JUMPI PUSH2 0x3F06 PUSH2 0x3C6E JUMP JUMPDEST JUMPDEST SWAP3 SWAP2 POP POP JUMP JUMPDEST PUSH32 0x43616C6C206F6E6365206166746572205265666572656E64756D000000000000 PUSH0 DUP3 ADD MSTORE POP JUMP JUMPDEST PUSH0 PUSH2 0x3F41 PUSH1 0x1A DUP4 PUSH2 0x2E91 JUMP JUMPDEST SWAP2 POP PUSH2 0x3F4C DUP3 PUSH2 0x3F0D JUMP JUMPDEST PUSH1 0x20 DUP3 ADD SWAP1 POP SWAP2 SWAP1 POP JUMP JUMPDEST PUSH0 PUSH1 0x20 DUP3 ADD SWAP1 POP DUP2 DUP2 SUB PUSH0 DUP4 ADD MSTORE PUSH2 0x3F6E DUP2 PUSH2 0x3F35 JUMP JUMPDEST SWAP1 POP SWAP2 SWAP1 POP JUMP JUMPDEST PUSH32 0x4E487B7100000000000000000000000000000000000000000000000000000000 PUSH0 MSTORE PUSH1 0x32 PUSH1 0x4 MSTORE PUSH1 0x24 PUSH0 REVERT JUMPDEST PUSH32 0x4E6F7420656E6F75676820617070726F76616C00000000000000000000000000 PUSH0 DUP3 ADD MSTORE POP JUMP JUMPDEST PUSH0 PUSH2 0x3FD6 PUSH1 0x13 DUP4 PUSH2 0x2E91 JUMP JUMPDEST SWAP2 POP PUSH2 0x3FE1 DUP3 PUSH2 0x3FA2 JUMP JUMPDEST PUSH1 0x20 DUP3 ADD SWAP1 POP SWAP2 SWAP1 POP JUMP JUMPDEST PUSH0 PUSH1 0x20 DUP3 ADD SWAP1 POP DUP2 DUP2 SUB PUSH0 DUP4 ADD MSTORE PUSH2 0x4003 DUP2 PUSH2 0x3FCA JUMP JUMPDEST SWAP1 POP SWAP2 SWAP1 POP JUMP JUMPDEST PUSH32 0x496E636F72726563742062617463682073697A65000000000000000000000000 PUSH0 DUP3 ADD MSTORE POP JUMP JUMPDEST PUSH0 PUSH2 0x403E PUSH1 0x14 DUP4 PUSH2 0x2E91 JUMP JUMPDEST SWAP2 POP PUSH2 0x4049 DUP3 PUSH2 0x400A JUMP JUMPDEST PUSH1 0x20 DUP3 ADD SWAP1 POP SWAP2 SWAP1 POP JUMP JUMPDEST PUSH0 PUSH1 0x20 DUP3 ADD SWAP1 POP DUP2 DUP2 SUB PUSH0 DUP4 ADD MSTORE PUSH2 0x406B DUP2 PUSH2 0x4032 JUMP JUMPDEST SWAP1 POP SWAP2 SWAP1 POP JUMP JUMPDEST PUSH32 0x566F746572206861736820616C726561647920726567697374657265642E0000 PUSH0 DUP3 ADD MSTORE POP JUMP JUMPDEST PUSH0 PUSH2 0x40A6 PUSH1 0x1E DUP4 PUSH2 0x2E91 JUMP JUMPDEST SWAP2 POP PUSH2 0x40B1 DUP3 PUSH2 0x4072 JUMP JUMPDEST PUSH1 0x20 DUP3 ADD SWAP1 POP SWAP2 SWAP1 POP JUMP JUMPDEST PUSH0 PUSH1 0x20 DUP3 ADD SWAP1 POP DUP2 DUP2 SUB PUSH0 DUP4 ADD MSTORE PUSH2 0x40D3 DUP2 PUSH2 0x409A JUMP JUMPDEST SWAP1 POP SWAP2 SWAP1 POP JUMP JUMPDEST PUSH0 PUSH2 0x40E4 DUP3 PUSH2 0x2EF6 JUMP JUMPDEST SWAP2 POP PUSH1 0xFF DUP3 SUB PUSH2 0x40F7 JUMPI PUSH2 0x40F6 PUSH2 0x3C6E JUMP JUMPDEST JUMPDEST PUSH1 0x1 DUP3 ADD SWAP1 POP SWAP2 SWAP1 POP JUMP JUMPDEST PUSH32 0x496E76616C696420766F74657220616464726573730000000000000000000000 PUSH0 DUP3 ADD MSTORE POP JUMP JUMPDEST PUSH0 PUSH2 0x4136 PUSH1 0x15 DUP4 PUSH2 0x2E91 JUMP JUMPDEST SWAP2 POP PUSH2 0x4141 DUP3 PUSH2 0x4102 JUMP JUMPDEST PUSH1 0x20 DUP3 ADD SWAP1 POP SWAP2 SWAP1 POP JUMP JUMPDEST PUSH0 PUSH1 0x20 DUP3 ADD SWAP1 POP DUP2 DUP2 SUB PUSH0 DUP4 ADD MSTORE PUSH2 0x4163 DUP2 PUSH2 0x412A JUMP JUMPDEST SWAP1 POP SWAP2 SWAP1 POP JUMP JUMPDEST PUSH32 0x416464726573737320616C726561647920726567697374657265642E20526567 PUSH0 DUP3 ADD MSTORE PUSH32 0x697374726172204552524F522100000000000000000000000000000000000000 PUSH1 0x20 DUP3 ADD MSTORE POP JUMP JUMPDEST PUSH0 PUSH2 0x41C4 PUSH1 0x2D DUP4 PUSH2 0x2E91 JUMP JUMPDEST SWAP2 POP PUSH2 0x41CF DUP3 PUSH2 0x416A JUMP JUMPDEST PUSH1 0x40 DUP3 ADD SWAP1 POP SWAP2 SWAP1 POP JUMP JUMPDEST PUSH0 PUSH1 0x20 DUP3 ADD SWAP1 POP DUP2 DUP2 SUB PUSH0 DUP4 ADD MSTORE PUSH2 0x41F1 DUP2 PUSH2 0x41B8 JUMP JUMPDEST SWAP1 POP SWAP2 SWAP1 POP JUMP JUMPDEST PUSH0 PUSH2 0x4202 DUP3 PUSH2 0x31A7 JUMP JUMPDEST SWAP2 POP PUSH2 0x420D DUP4 PUSH2 0x31A7 JUMP JUMPDEST SWAP3 POP DUP3 DUP3 ADD SWAP1 POP PUSH4 0xFFFFFFFF DUP2 GT ISZERO PUSH2 0x4229 JUMPI PUSH2 0x4228 PUSH2 0x3C6E JUMP JUMPDEST JUMPDEST SWAP3 SWAP2 POP POP JUMP JUMPDEST PUSH0 PUSH1 0xA SWAP1 POP SWAP2 SWAP1 POP JUMP JUMPDEST PUSH0 DUP2 SWAP1 POP SWAP3 SWAP2 POP POP JUMP JUMPDEST PUSH0 DUP2 SWAP1 POP SWAP2 SWAP1 POP JUMP JUMPDEST PUSH2 0x4255 DUP2 PUSH2 0x2E67 JUMP JUMPDEST DUP3 MSTORE POP POP JUMP JUMPDEST PUSH0 PUSH2 0x4266 DUP4 DUP4 PUSH2 0x424C JUMP JUMPDEST PUSH1 0x20 DUP4 ADD SWAP1 POP SWAP3 SWAP2 POP POP JUMP JUMPDEST PUSH0 PUSH2 0x4280 PUSH1 0x20 DUP5 ADD DUP5 PUSH2 0x2F8D JUMP JUMPDEST SWAP1 POP SWAP3 SWAP2 POP POP JUMP JUMPDEST PUSH0 PUSH1 0x20 DUP3 ADD SWAP1 POP SWAP2 SWAP1 POP JUMP JUMPDEST PUSH2 0x429D DUP2 PUSH2 0x422F JUMP JUMPDEST PUSH2 0x42A7 DUP2 DUP5 PUSH2 0x4239 JUMP JUMPDEST SWAP3 POP PUSH2 0x42B2 DUP3 PUSH2 0x4243 JUMP JUMPDEST DUP1 PUSH0 JUMPDEST DUP4 DUP2 LT ISZERO PUSH2 0x42EA JUMPI PUSH2 0x42C7 DUP3 DUP5 PUSH2 0x4272 JUMP JUMPDEST PUSH2 0x42D1 DUP8 DUP3 PUSH2 0x425B JUMP JUMPDEST SWAP7 POP PUSH2 0x42DC DUP4 PUSH2 0x4288 JUMP JUMPDEST SWAP3 POP POP PUSH1 0x1 DUP2 ADD SWAP1 POP PUSH2 0x42B5 JUMP JUMPDEST POP POP POP POP POP POP JUMP JUMPDEST PUSH0 PUSH2 0x42FD DUP3 DUP5 PUSH2 0x4294 JUMP JUMPDEST PUSH2 0x140 DUP3 ADD SWAP2 POP DUP2 SWAP1 POP SWAP3 SWAP2 POP POP JUMP JUMPDEST PUSH0 PUSH2 0x4327 PUSH2 0x4322 PUSH2 0x431D DUP5 PUSH2 0x31A7 JUMP JUMPDEST PUSH2 0x3A80 JUMP JUMPDEST PUSH2 0x2C50 JUMP JUMPDEST SWAP1 POP SWAP2 SWAP1 POP JUMP JUMPDEST PUSH2 0x4337 DUP2 PUSH2 0x430D JUMP JUMPDEST DUP3 MSTORE POP POP JUMP JUMPDEST PUSH0 PUSH1 0x40 DUP3 ADD SWAP1 POP PUSH2 0x4350 PUSH0 DUP4 ADD DUP6 PUSH2 0x2E78 JUMP JUMPDEST PUSH2 0x435D PUSH1 0x20 DUP4 ADD DUP5 PUSH2 0x432E JUMP JUMPDEST SWAP4 SWAP3 POP POP POP JUMP JUMPDEST PUSH0 PUSH2 0x436E DUP3 PUSH2 0x2EF6 JUMP JUMPDEST SWAP2 POP PUSH2 0x4379 DUP4 PUSH2 0x2EF6 JUMP JUMPDEST SWAP3 POP DUP3 DUP3 MUL PUSH2 0x4387 DUP2 PUSH2 0x2EF6 JUMP JUMPDEST SWAP2 POP DUP1 DUP3 EQ PUSH2 0x4399 JUMPI PUSH2 0x4398 PUSH2 0x3C6E JUMP JUMPDEST JUMPDEST POP SWAP3 SWAP2 POP POP JUMP JUMPDEST PUSH0 PUSH2 0x43AA DUP3 PUSH2 0x2C50 JUMP JUMPDEST SWAP2 POP PUSH2 0x43B5 DUP4 PUSH2 0x2C50 JUMP JUMPDEST SWAP3 POP DUP3 DUP3 ADD SWAP1 POP DUP1 DUP3 GT ISZERO PUSH2 0x43CD JUMPI PUSH2 0x43CC PUSH2 0x3C6E JUMP JUMPDEST JUMPDEST SWAP3 SWAP2 POP POP JUMP JUMPDEST PUSH32 0x43616E6E6F74207374617274207265666572656E64756D207965740000000000 PUSH0 DUP3 ADD MSTORE POP JUMP JUMPDEST PUSH0 PUSH2 0x4407 PUSH1 0x1B DUP4 PUSH2 0x2E91 JUMP JUMPDEST SWAP2 POP PUSH2 0x4412 DUP3 PUSH2 0x43D3 JUMP JUMPDEST PUSH1 0x20 DUP3 ADD SWAP1 POP SWAP2 SWAP1 POP JUMP JUMPDEST PUSH0 PUSH1 0x20 DUP3 ADD SWAP1 POP DUP2 DUP2 SUB PUSH0 DUP4 ADD MSTORE PUSH2 0x4434 DUP2 PUSH2 0x43FB JUMP JUMPDEST SWAP1 POP SWAP2 SWAP1 POP JUMP JUMPDEST PUSH32 0x416C7265616479207261746966696564206120636F6E737469747574696F6E00 PUSH0 DUP3 ADD MSTORE POP JUMP JUMPDEST PUSH0 PUSH2 0x446F PUSH1 0x1F DUP4 PUSH2 0x2E91 JUMP JUMPDEST SWAP2 POP PUSH2 0x447A DUP3 PUSH2 0x443B JUMP JUMPDEST PUSH1 0x20 DUP3 ADD SWAP1 POP SWAP2 SWAP1 POP JUMP JUMPDEST PUSH0 PUSH1 0x20 DUP3 ADD SWAP1 POP DUP2 DUP2 SUB PUSH0 DUP4 ADD MSTORE PUSH2 0x449C DUP2 PUSH2 0x4463 JUMP JUMPDEST SWAP1 POP SWAP2 SWAP1 POP JUMP JUMPDEST PUSH32 0x4E6F7420656E6F75676820647261667473000000000000000000000000000000 PUSH0 DUP3 ADD MSTORE POP JUMP JUMPDEST PUSH0 PUSH2 0x44D7 PUSH1 0x11 DUP4 PUSH2 0x2E91 JUMP JUMPDEST SWAP2 POP PUSH2 0x44E2 DUP3 PUSH2 0x44A3 JUMP JUMPDEST PUSH1 0x20 DUP3 ADD SWAP1 POP SWAP2 SWAP1 POP JUMP JUMPDEST PUSH0 PUSH1 0x20 DUP3 ADD SWAP1 POP DUP2 DUP2 SUB PUSH0 DUP4 ADD MSTORE PUSH2 0x4504 DUP2 PUSH2 0x44CB JUMP JUMPDEST SWAP1 POP SWAP2 SWAP1 POP JUMP JUMPDEST PUSH32 0x4E6F7420656E6F75676820766F74657273000000000000000000000000000000 PUSH0 DUP3 ADD MSTORE POP JUMP JUMPDEST PUSH0 PUSH2 0x453F PUSH1 0x11 DUP4 PUSH2 0x2E91 JUMP JUMPDEST SWAP2 POP PUSH2 0x454A DUP3 PUSH2 0x450B JUMP JUMPDEST PUSH1 0x20 DUP3 ADD SWAP1 POP SWAP2 SWAP1 POP JUMP JUMPDEST PUSH0 PUSH1 0x20 DUP3 ADD SWAP1 POP DUP2 DUP2 SUB PUSH0 DUP4 ADD MSTORE PUSH2 0x456C DUP2 PUSH2 0x4533 JUMP JUMPDEST SWAP1 POP SWAP2 SWAP1 POP JUMP JUMPDEST PUSH32 0x4E6F7420696E205265666572656E64756D2074696D6500000000000000000000 PUSH0 DUP3 ADD MSTORE POP JUMP JUMPDEST PUSH0 PUSH2 0x45A7 PUSH1 0x16 DUP4 PUSH2 0x2E91 JUMP JUMPDEST SWAP2 POP PUSH2 0x45B2 DUP3 PUSH2 0x4573 JUMP JUMPDEST PUSH1 0x20 DUP3 ADD SWAP1 POP SWAP2 SWAP1 POP JUMP JUMPDEST PUSH0 PUSH1 0x20 DUP3 ADD SWAP1 POP DUP2 DUP2 SUB PUSH0 DUP4 ADD MSTORE PUSH2 0x45D4 DUP2 PUSH2 0x459B JUMP JUMPDEST SWAP1 POP SWAP2 SWAP1 POP JUMP JUMPDEST PUSH32 0x496E76616C6964206472616674206C6973740000000000000000000000000000 PUSH0 DUP3 ADD MSTORE POP JUMP JUMPDEST PUSH0 PUSH2 0x460F PUSH1 0x12 DUP4 PUSH2 0x2E91 JUMP JUMPDEST SWAP2 POP PUSH2 0x461A DUP3 PUSH2 0x45DB JUMP JUMPDEST PUSH1 0x20 DUP3 ADD SWAP1 POP SWAP2 SWAP1 POP JUMP JUMPDEST PUSH0 PUSH1 0x20 DUP3 ADD SWAP1 POP DUP2 DUP2 SUB PUSH0 DUP4 ADD MSTORE PUSH2 0x463C DUP2 PUSH2 0x4603 JUMP JUMPDEST SWAP1 POP SWAP2 SWAP1 POP JUMP JUMPDEST PUSH32 0x566F746564206F72204E6F74207265676973746572656420656E6F7567682074 PUSH0 DUP3 ADD MSTORE PUSH32 0x696D657300000000000000000000000000000000000000000000000000000000 PUSH1 0x20 DUP3 ADD MSTORE POP JUMP JUMPDEST PUSH0 PUSH2 0x469D PUSH1 0x24 DUP4 PUSH2 0x2E91 JUMP JUMPDEST SWAP2 POP PUSH2 0x46A8 DUP3 PUSH2 0x4643 JUMP JUMPDEST PUSH1 0x40 DUP3 ADD SWAP1 POP SWAP2 SWAP1 POP JUMP JUMPDEST PUSH0 PUSH1 0x20 DUP3 ADD SWAP1 POP DUP2 DUP2 SUB PUSH0 DUP4 ADD MSTORE PUSH2 0x46CA DUP2 PUSH2 0x4691 JUMP JUMPDEST SWAP1 POP SWAP2 SWAP1 POP JUMP JUMPDEST PUSH32 0x496E76616C696420647261667400000000000000000000000000000000000000 PUSH0 DUP3 ADD MSTORE POP JUMP JUMPDEST PUSH0 PUSH2 0x4705 PUSH1 0xD DUP4 PUSH2 0x2E91 JUMP JUMPDEST SWAP2 POP PUSH2 0x4710 DUP3 PUSH2 0x46D1 JUMP JUMPDEST PUSH1 0x20 DUP3 ADD SWAP1 POP SWAP2 SWAP1 POP JUMP JUMPDEST PUSH0 PUSH1 0x20 DUP3 ADD SWAP1 POP DUP2 DUP2 SUB PUSH0 DUP4 ADD MSTORE PUSH2 0x4732 DUP2 PUSH2 0x46F9 JUMP JUMPDEST SWAP1 POP SWAP2 SWAP1 POP JUMP JUMPDEST PUSH32 0x5265706574697469766520647261667449640000000000000000000000000000 PUSH0 DUP3 ADD MSTORE POP JUMP JUMPDEST PUSH0 PUSH2 0x476D PUSH1 0x12 DUP4 PUSH2 0x2E91 JUMP JUMPDEST SWAP2 POP PUSH2 0x4778 DUP3 PUSH2 0x4739 JUMP JUMPDEST PUSH1 0x20 DUP3 ADD SWAP1 POP SWAP2 SWAP1 POP JUMP JUMPDEST PUSH0 PUSH1 0x20 DUP3 ADD SWAP1 POP DUP2 DUP2 SUB PUSH0 DUP4 ADD MSTORE PUSH2 0x479A DUP2 PUSH2 0x4761 JUMP JUMPDEST SWAP1 POP SWAP2 SWAP1 POP JUMP JUMPDEST PUSH32 0x496E76616C696420636F6E737469747574696F6E206472616674204944000000 PUSH0 DUP3 ADD MSTORE POP JUMP JUMPDEST PUSH0 PUSH2 0x47D5 PUSH1 0x1D DUP4 PUSH2 0x2E91 JUMP JUMPDEST SWAP2 POP PUSH2 0x47E0 DUP3 PUSH2 0x47A1 JUMP JUMPDEST PUSH1 0x20 DUP3 ADD SWAP1 POP SWAP2 SWAP1 POP JUMP JUMPDEST PUSH0 PUSH1 0x20 DUP3 ADD SWAP1 POP DUP2 DUP2 SUB PUSH0 DUP4 ADD MSTORE PUSH2 0x4802 DUP2 PUSH2 0x47C9 JUMP JUMPDEST SWAP1 POP SWAP2 SWAP1 POP JUMP INVALID LOG2 PUSH5 0x6970667358 0x22 SLT KECCAK256 DUP16 CREATE 0xBA 0xD1 BASEFEE 0x4C 0xB2 BLOCKHASH SIGNEXTEND SWAP13 0xD9 TIMESTAMP 0xF9 PUSH4 0xF05F94 PUSH30 0xE96EEB93C52DC6194A2A89B30464736F6C634300081A0033000000000000 "
		},
		"gasEstimates": {
			"creation": {
				"codeDepositCost": "3699000",
				"executionCost": "infinite",
				"totalCost": "infinite"
			},
			"external": {
				"GOV_LENGTH()": "415",
				"MAX_APPROVALS()": "370",
				"MIN_DRAFTS()": "377",
				"MIN_VOTERS()": "442",
				"N_MEMBERS()": "375",
				"RANDOM_VOTERS()": "421",
				"REF_VOTER_BATCH()": "442",
				"REG_TIME()": "371",
				"REQUIRED_SCORE()": "437",
				"SUBMISSION_FEE()": "414",
				"approveRegistrar(address,int8)": "infinite",
				"candidateInfo(address)": "infinite",
				"candidateList(uint256)": "5011",
				"constitutionDrafts(uint256)": "infinite",
				"electionEnd()": "2513",
				"getConstitution(uint256)": "infinite",
				"getCurrentPhase()": "infinite",
				"getReferendumResults()": "infinite",
				"getRegistrarsOfHash(bytes32)": "infinite",
				"getVoterStatus(address)": "2874",
				"memberApprovalCount(address)": "2870",
				"memberRegistrar(address,address)": "infinite",
				"neutral()": "2576",
				"proposals(uint256)": "infinite",
				"ratifiedConstitutionId()": "2535",
				"referendumEndTime()": "2470",
				"referendumVoterCount()": "2532",
				"registerVoterBatch(bytes32[10],address[10])": "infinite",
				"registrarScore(address)": "2892",
				"startReferendum()": "infinite",
				"startTime()": "infinite",
				"submitDraft((string,string,string,string,bytes32,string,uint256,uint256))": "infinite",
				"voteInReferendum(uint256[])": "infinite"
			}
		},
		"methodIdentifiers": {
			"GOV_LENGTH()": "5004e24a",
			"MAX_APPROVALS()": "beb54795",
			"MIN_DRAFTS()": "86a0dd7d",
			"MIN_VOTERS()": "d1791ae0",
			"N_MEMBERS()": "e292bf16",
			"RANDOM_VOTERS()": "3def77b7",
			"REF_VOTER_BATCH()": "8325ed2d",
			"REG_TIME()": "47f7b722",
			"REQUIRED_SCORE()": "54c17527",
			"SUBMISSION_FEE()": "7d48536d",
			"approveRegistrar(address,int8)": "29c83be1",
			"candidateInfo(address)": "e965b7c9",
			"candidateList(uint256)": "b13c744b",
			"constitutionDrafts(uint256)": "bbea6f0b",
			"electionEnd()": "ce7ea161",
			"getConstitution(uint256)": "f3a4aba9",
			"getCurrentPhase()": "a3a40ea5",
			"getReferendumResults()": "452d32bb",
			"getRegistrarsOfHash(bytes32)": "08ec6a19",
			"getVoterStatus(address)": "78e3ef20",
			"memberApprovalCount(address)": "3590c0fd",
			"memberRegistrar(address,address)": "071a3474",
			"neutral()": "4d0c8726",
			"proposals(uint256)": "013cf08b",
			"ratifiedConstitutionId()": "eedb2d28",
			"referendumEndTime()": "b0feb260",
			"referendumVoterCount()": "e42a54c4",
			"registerVoterBatch(bytes32[10],address[10])": "99b0d39c",
			"registrarScore(address)": "9a741327",
			"startReferendum()": "be003ee6",
			"startTime()": "78e97925",
			"submitDraft((string,string,string,string,bytes32,string,uint256,uint256))": "00fa88e2",
			"voteInReferendum(uint256[])": "c1b13157"
		}
	},
	"abi": [
		{
			"anonymous": false,
			"inputs": [
				{
					"indexed": true,
					"internalType": "uint256",
					"name": "draftId",
					"type": "uint256"
				},
				{
					"components": [
						{
							"internalType": "string",
							"name": "description",
							"type": "string"
						},
						{
							"internalType": "string",
							"name": "constitutionText",
							"type": "string"
						},
						{
							"internalType": "string",
							"name": "implementationCode",
							"type": "string"
						},
						{
							"internalType": "string",
							"name": "submitterIdentity",
							"type": "string"
						},
						{
							"internalType": "bytes32",
							"name": "hashedOffChain",
							"type": "bytes32"
						},
						{
							"internalType": "string",
							"name": "supportingMaterials",
							"type": "string"
						},
						{
							"internalType": "uint256",
							"name": "submittedAt",
							"type": "uint256"
						},
						{
							"internalType": "uint256",
							"name": "voteCount",
							"type": "uint256"
						}
					],
					"indexed": false,
					"internalType": "struct Referendum.ConstitutionDraft",
					"name": "draft",
					"type": "tuple"
				}
			],
			"name": "ConstitutionDraftSubmitted",
			"type": "event"
		},
		{
			"anonymous": false,
			"inputs": [
				{
					"indexed": true,
					"internalType": "uint256",
					"name": "winningProposalId",
					"type": "uint256"
				},
				{
					"components": [
						{
							"internalType": "string",
							"name": "description",
							"type": "string"
						},
						{
							"internalType": "string",
							"name": "constitutionText",
							"type": "string"
						},
						{
							"internalType": "string",
							"name": "implementationCode",
							"type": "string"
						},
						{
							"internalType": "string",
							"name": "submitterIdentity",
							"type": "string"
						},
						{
							"internalType": "bytes32",
							"name": "hashedOffChain",
							"type": "bytes32"
						},
						{
							"internalType": "string",
							"name": "supportingMaterials",
							"type": "string"
						},
						{
							"internalType": "uint256",
							"name": "submittedAt",
							"type": "uint256"
						},
						{
							"internalType": "uint256",
							"name": "voteCount",
							"type": "uint256"
						}
					],
					"indexed": false,
					"internalType": "struct Referendum.ConstitutionDraft",
					"name": "ratifiedConstitution",
					"type": "tuple"
				}
			],
			"name": "ConstitutionRatified",
			"type": "event"
		},
		{
			"anonymous": false,
			"inputs": [],
			"name": "ReferendumStarted",
			"type": "event"
		},
		{
			"anonymous": false,
			"inputs": [
				{
					"indexed": true,
					"internalType": "address",
					"name": "voter",
					"type": "address"
				}
			],
			"name": "ReferendumVoteCast",
			"type": "event"
		},
		{
			"anonymous": false,
			"inputs": [
				{
					"indexed": true,
					"internalType": "address[10]",
					"name": "voter",
					"type": "address[10]"
				},
				{
					"indexed": false,
					"internalType": "address",
					"name": "registrar",
					"type": "address"
				},
				{
					"indexed": false,
					"internalType": "uint256",
					"name": "referendumVoterCount",
					"type": "uint256"
				}
			],
			"name": "VoterRegistered",
			"type": "event"
		},
		{
			"inputs": [],
			"name": "GOV_LENGTH",
			"outputs": [
				{
					"internalType": "uint256",
					"name": "",
					"type": "uint256"
				}
			],
			"stateMutability": "view",
			"type": "function"
		},
		{
			"inputs": [],
			"name": "MAX_APPROVALS",
			"outputs": [
				{
					"internalType": "uint256",
					"name": "",
					"type": "uint256"
				}
			],
			"stateMutability": "view",
			"type": "function"
		},
		{
			"inputs": [],
			"name": "MIN_DRAFTS",
			"outputs": [
				{
					"internalType": "uint8",
					"name": "",
					"type": "uint8"
				}
			],
			"stateMutability": "view",
			"type": "function"
		},
		{
			"inputs": [],
			"name": "MIN_VOTERS",
			"outputs": [
				{
					"internalType": "uint32",
					"name": "",
					"type": "uint32"
				}
			],
			"stateMutability": "view",
			"type": "function"
		},
		{
			"inputs": [],
			"name": "N_MEMBERS",
			"outputs": [
				{
					"internalType": "uint8",
					"name": "",
					"type": "uint8"
				}
			],
			"stateMutability": "view",
			"type": "function"
		},
		{
			"inputs": [],
			"name": "RANDOM_VOTERS",
			"outputs": [
				{
					"internalType": "uint32",
					"name": "",
					"type": "uint32"
				}
			],
			"stateMutability": "view",
			"type": "function"
		},
		{
			"inputs": [],
			"name": "REF_VOTER_BATCH",
			"outputs": [
				{
					"internalType": "uint32",
					"name": "",
					"type": "uint32"
				}
			],
			"stateMutability": "view",
			"type": "function"
		},
		{
			"inputs": [],
			"name": "REG_TIME",
			"outputs": [
				{
					"internalType": "uint256",
					"name": "",
					"type": "uint256"
				}
			],
			"stateMutability": "view",
			"type": "function"
		},
		{
			"inputs": [],
			"name": "REQUIRED_SCORE",
			"outputs": [
				{
					"internalType": "int256",
					"name": "",
					"type": "int256"
				}
			],
			"stateMutability": "view",
			"type": "function"
		},
		{
			"inputs": [],
			"name": "SUBMISSION_FEE",
			"outputs": [
				{
					"internalType": "uint256",
					"name": "",
					"type": "uint256"
				}
			],
			"stateMutability": "view",
			"type": "function"
		},
		{
			"inputs": [
				{
					"internalType": "address",
					"name": "registrar",
					"type": "address"
				},
				{
					"internalType": "int8",
					"name": "vote",
					"type": "int8"
				}
			],
			"name": "approveRegistrar",
			"outputs": [],
			"stateMutability": "nonpayable",
			"type": "function"
		},
		{
			"inputs": [
				{
					"internalType": "address",
					"name": "",
					"type": "address"
				}
			],
			"name": "candidateInfo",
			"outputs": [
				{
					"internalType": "string",
					"name": "fullName",
					"type": "string"
				},
				{
					"internalType": "string",
					"name": "bio",
					"type": "string"
				},
				{
					"internalType": "string",
					"name": "website",
					"type": "string"
				},
				{
					"internalType": "uint256",
					"name": "registeredAt",
					"type": "uint256"
				},
				{
					"internalType": "uint256",
					"name": "voteCount",
					"type": "uint256"
				},
				{
					"internalType": "bool",
					"name": "electedMember",
					"type": "bool"
				},
				{
					"internalType": "uint256",
					"name": "leaderAt",
					"type": "uint256"
				}
			],
			"stateMutability": "view",
			"type": "function"
		},
		{
			"inputs": [
				{
					"internalType": "uint256",
					"name": "",
					"type": "uint256"
				}
			],
			"name": "candidateList",
			"outputs": [
				{
					"internalType": "address",
					"name": "",
					"type": "address"
				}
			],
			"stateMutability": "view",
			"type": "function"
		},
		{
			"inputs": [
				{
					"internalType": "uint256",
					"name": "",
					"type": "uint256"
				}
			],
			"name": "constitutionDrafts",
			"outputs": [
				{
					"internalType": "string",
					"name": "description",
					"type": "string"
				},
				{
					"internalType": "string",
					"name": "constitutionText",
					"type": "string"
				},
				{
					"internalType": "string",
					"name": "implementationCode",
					"type": "string"
				},
				{
					"internalType": "string",
					"name": "submitterIdentity",
					"type": "string"
				},
				{
					"internalType": "bytes32",
					"name": "hashedOffChain",
					"type": "bytes32"
				},
				{
					"internalType": "string",
					"name": "supportingMaterials",
					"type": "string"
				},
				{
					"internalType": "uint256",
					"name": "submittedAt",
					"type": "uint256"
				},
				{
					"internalType": "uint256",
					"name": "voteCount",
					"type": "uint256"
				}
			],
			"stateMutability": "view",
			"type": "function"
		},
		{
			"inputs": [],
			"name": "electionEnd",
			"outputs": [
				{
					"internalType": "uint256",
					"name": "",
					"type": "uint256"
				}
			],
			"stateMutability": "view",
			"type": "function"
		},
		{
			"inputs": [
				{
					"internalType": "uint256",
					"name": "draftId",
					"type": "uint256"
				}
			],
			"name": "getConstitution",
			"outputs": [
				{
					"components": [
						{
							"internalType": "string",
							"name": "description",
							"type": "string"
						},
						{
							"internalType": "string",
							"name": "constitutionText",
							"type": "string"
						},
						{
							"internalType": "string",
							"name": "implementationCode",
							"type": "string"
						},
						{
							"internalType": "string",
							"name": "submitterIdentity",
							"type": "string"
						},
						{
							"internalType": "bytes32",
							"name": "hashedOffChain",
							"type": "bytes32"
						},
						{
							"internalType": "string",
							"name": "supportingMaterials",
							"type": "string"
						},
						{
							"internalType": "uint256",
							"name": "submittedAt",
							"type": "uint256"
						},
						{
							"internalType": "uint256",
							"name": "voteCount",
							"type": "uint256"
						}
					],
					"internalType": "struct Referendum.ConstitutionDraft",
					"name": "",
					"type": "tuple"
				}
			],
			"stateMutability": "view",
			"type": "function"
		},
		{
			"inputs": [],
			"name": "getCurrentPhase",
			"outputs": [
				{
					"internalType": "enum Phase",
					"name": "",
					"type": "uint8"
				}
			],
			"stateMutability": "nonpayable",
			"type": "function"
		},
		{
			"inputs": [],
			"name": "getReferendumResults",
			"outputs": [
				{
					"internalType": "uint256",
					"name": "",
					"type": "uint256"
				},
				{
					"components": [
						{
							"internalType": "string",
							"name": "description",
							"type": "string"
						},
						{
							"internalType": "string",
							"name": "constitutionText",
							"type": "string"
						},
						{
							"internalType": "string",
							"name": "implementationCode",
							"type": "string"
						},
						{
							"internalType": "string",
							"name": "submitterIdentity",
							"type": "string"
						},
						{
							"internalType": "bytes32",
							"name": "hashedOffChain",
							"type": "bytes32"
						},
						{
							"internalType": "string",
							"name": "supportingMaterials",
							"type": "string"
						},
						{
							"internalType": "uint256",
							"name": "submittedAt",
							"type": "uint256"
						},
						{
							"internalType": "uint256",
							"name": "voteCount",
							"type": "uint256"
						}
					],
					"internalType": "struct Referendum.ConstitutionDraft",
					"name": "",
					"type": "tuple"
				}
			],
			"stateMutability": "nonpayable",
			"type": "function"
		},
		{
			"inputs": [
				{
					"internalType": "bytes32",
					"name": "voterHash",
					"type": "bytes32"
				}
			],
			"name": "getRegistrarsOfHash",
			"outputs": [
				{
					"internalType": "address[2]",
					"name": "",
					"type": "address[2]"
				}
			],
			"stateMutability": "view",
			"type": "function"
		},
		{
			"inputs": [
				{
					"internalType": "address",
					"name": "voterAddress",
					"type": "address"
				}
			],
			"name": "getVoterStatus",
			"outputs": [
				{
					"internalType": "uint256",
					"name": "",
					"type": "uint256"
				}
			],
			"stateMutability": "view",
			"type": "function"
		},
		{
			"inputs": [
				{
					"internalType": "address",
					"name": "",
					"type": "address"
				}
			],
			"name": "memberApprovalCount",
			"outputs": [
				{
					"internalType": "uint256",
					"name": "",
					"type": "uint256"
				}
			],
			"stateMutability": "view",
			"type": "function"
		},
		{
			"inputs": [
				{
					"internalType": "address",
					"name": "",
					"type": "address"
				},
				{
					"internalType": "address",
					"name": "",
					"type": "address"
				}
			],
			"name": "memberRegistrar",
			"outputs": [
				{
					"internalType": "int8",
					"name": "",
					"type": "int8"
				}
			],
			"stateMutability": "view",
			"type": "function"
		},
		{
			"inputs": [],
			"name": "neutral",
			"outputs": [
				{
					"internalType": "address",
					"name": "",
					"type": "address"
				}
			],
			"stateMutability": "view",
			"type": "function"
		},
		{
			"inputs": [
				{
					"internalType": "uint256",
					"name": "",
					"type": "uint256"
				}
			],
			"name": "proposals",
			"outputs": [
				{
					"internalType": "address",
					"name": "proposer",
					"type": "address"
				},
				{
					"internalType": "string",
					"name": "provisions",
					"type": "string"
				},
				{
					"internalType": "uint256",
					"name": "proposedAt",
					"type": "uint256"
				},
				{
					"internalType": "uint256",
					"name": "executedAt",
					"type": "uint256"
				},
				{
					"internalType": "uint256",
					"name": "withdrawnAt",
					"type": "uint256"
				},
				{
					"internalType": "uint8",
					"name": "yesVotes",
					"type": "uint8"
				}
			],
			"stateMutability": "view",
			"type": "function"
		},
		{
			"inputs": [],
			"name": "ratifiedConstitutionId",
			"outputs": [
				{
					"internalType": "uint256",
					"name": "",
					"type": "uint256"
				}
			],
			"stateMutability": "view",
			"type": "function"
		},
		{
			"inputs": [],
			"name": "referendumEndTime",
			"outputs": [
				{
					"internalType": "uint256",
					"name": "",
					"type": "uint256"
				}
			],
			"stateMutability": "view",
			"type": "function"
		},
		{
			"inputs": [],
			"name": "referendumVoterCount",
			"outputs": [
				{
					"internalType": "uint32",
					"name": "",
					"type": "uint32"
				}
			],
			"stateMutability": "view",
			"type": "function"
		},
		{
			"inputs": [
				{
					"internalType": "bytes32[10]",
					"name": "voterHashes",
					"type": "bytes32[10]"
				},
				{
					"internalType": "address[10]",
					"name": "voterAddresses",
					"type": "address[10]"
				}
			],
			"name": "registerVoterBatch",
			"outputs": [],
			"stateMutability": "nonpayable",
			"type": "function"
		},
		{
			"inputs": [
				{
					"internalType": "address",
					"name": "",
					"type": "address"
				}
			],
			"name": "registrarScore",
			"outputs": [
				{
					"internalType": "int256",
					"name": "",
					"type": "int256"
				}
			],
			"stateMutability": "view",
			"type": "function"
		},
		{
			"inputs": [],
			"name": "startReferendum",
			"outputs": [],
			"stateMutability": "nonpayable",
			"type": "function"
		},
		{
			"inputs": [],
			"name": "startTime",
			"outputs": [
				{
					"internalType": "uint256",
					"name": "",
					"type": "uint256"
				}
			],
			"stateMutability": "view",
			"type": "function"
		},
		{
			"inputs": [
				{
					"components": [
						{
							"internalType": "string",
							"name": "description",
							"type": "string"
						},
						{
							"internalType": "string",
							"name": "constitutionText",
							"type": "string"
						},
						{
							"internalType": "string",
							"name": "implementationCode",
							"type": "string"
						},
						{
							"internalType": "string",
							"name": "submitterIdentity",
							"type": "string"
						},
						{
							"internalType": "bytes32",
							"name": "hashedOffChain",
							"type": "bytes32"
						},
						{
							"internalType": "string",
							"name": "supportingMaterials",
							"type": "string"
						},
						{
							"internalType": "uint256",
							"name": "submittedAt",
							"type": "uint256"
						},
						{
							"internalType": "uint256",
							"name": "voteCount",
							"type": "uint256"
						}
					],
					"internalType": "struct Referendum.ConstitutionDraft",
					"name": "_draft",
					"type": "tuple"
				}
			],
			"name": "submitDraft",
			"outputs": [],
			"stateMutability": "payable",
			"type": "function"
		},
		{
			"inputs": [
				{
					"internalType": "uint256[]",
					"name": "_drafts",
					"type": "uint256[]"
				}
			],
			"name": "voteInReferendum",
			"outputs": [],
			"stateMutability": "nonpayable",
			"type": "function"
		}
	]
}