{
	"data": {
		"bytecode": {
			"linkReferences": {},
			"object": "60a0604052348015600e575f5ffd5b50608051612edc6100275f395f6103a60152612edc5ff3fe6080604052600436106101cf575f3560e01c806386a0dd7d116100fd578063c1b1315711610092578063e42a54c411610062578063e42a54c414610549578063e965b7c914610565578063eedb2d2814610597578063f3a4aba9146105ac575f5ffd5b8063c1b13157146104ec578063ce7ea1611461050b578063d1791ae01461051f578063e292bf1614610535575f5ffd5b8063b13c744b116100cd578063b13c744b14610471578063bbea6f0b14610490578063be003ee6146104c3578063beb54795146104d7575f5ffd5b806386a0dd7d146103f657806399b0d39c1461041c578063a3a40ea51461043b578063b0feb2601461045c575f5ffd5b806347f7b7221161017357806378e3ef201161014357806378e3ef201461036157806378e97925146103955780637d48536d146103c85780638325ed2d146103e2575f5ffd5b806347f7b722146102dc5780634d0c8726146103005780635004e24a1461033757806354c175271461034d575f5ffd5b80631b408934116101ae5780631b4089341461024e57806329c83be1146102865780633def77b7146102a5578063452d32bb146102ba575f5ffd5b8062fa88e2146101d3578063013cf08b146101e857806308ec6a1914610222575b5f5ffd5b6101e66101e136600461269f565b6105d8565b005b3480156101f3575f5ffd5b506102076102023660046127d2565b610907565b60405161021996959493929190612817565b60405180910390f35b34801561022d575f5ffd5b5061024161023c3660046127d2565b6109e1565b6040516102199190612862565b348015610259575f5ffd5b5060015461027190600160a01b900463ffffffff1681565b60405163ffffffff9091168152602001610219565b348015610291575f5ffd5b506101e66102a03660046128b6565b610a31565b3480156102b0575f5ffd5b506102716103e881565b3480156102c5575f5ffd5b506102ce610c3a565b604051610219929190612997565b3480156102e7575f5ffd5b506102f26212750081565b604051908152602001610219565b34801561030b575f5ffd5b5060015461031f906001600160a01b031681565b6040516001600160a01b039091168152602001610219565b348015610342575f5ffd5b506102f2625c490081565b348015610358575f5ffd5b506102f2600a81565b34801561036c575f5ffd5b506102f261037b3660046129b7565b6001600160a01b03165f9081526008602052604090205490565b3480156103a0575f5ffd5b506102f27f000000000000000000000000000000000000000000000000000000000000000081565b3480156103d3575f5ffd5b506102f266038d7ea4c6800081565b3480156103ed575f5ffd5b50610271600a81565b348015610401575f5ffd5b5061040a600a81565b60405160ff9091168152602001610219565b348015610427575f5ffd5b506101e66104363660046129ee565b6113dd565b348015610446575f5ffd5b5061044f611851565b6040516102199190612a37565b348015610467575f5ffd5b506102f260055481565b34801561047c575f5ffd5b5061031f61048b3660046127d2565b6118f2565b34801561049b575f5ffd5b506104af6104aa3660046127d2565b61191a565b604051610219989796959493929190612a5d565b3480156104ce575f5ffd5b506101e6611c0b565b3480156104e2575f5ffd5b506102f26103e881565b3480156104f7575f5ffd5b506101e6610506366004612add565b611d8a565b348015610516575f5ffd5b506102f25f5481565b34801561052a575f5ffd5b50610271620f424081565b348015610540575f5ffd5b5061040a603281565b348015610554575f5ffd5b506009546102719063ffffffff1681565b348015610570575f5ffd5b5061058461057f3660046129b7565b612034565b6040516102199796959493929190612b4c565b3480156105a2575f5ffd5b506102f2600a5481565b3480156105b7575f5ffd5b506105cb6105c63660046127d2565b612206565b6040516102199190612bab565b60026105e2611851565b60048111156105f3576105f3612a23565b146106335760405162461bcd60e51b815260206004820152600b60248201526a57726f6e6720706861736560a81b60448201526064015b60405180910390fd5b8051516106795760405162461bcd60e51b815260206004820152601460248201527311195cd8dc9a5c1d1a5bdb881c995c5d5a5c995960621b604482015260640161062a565b5f816020015151116106cd5760405162461bcd60e51b815260206004820152601960248201527f636f6e737469747574696f6e5465787420726571756972656400000000000000604482015260640161062a565b5f8160600151511161071a5760405162461bcd60e51b8152602060048201526016602482015275141c9bdc1bdcd95c881b985b59481c995c5d5a5c995960521b604482015260640161062a565b66038d7ea4c680003410156107715760405162461bcd60e51b815260206004820152601b60248201527f496e73756666696369656e74207375626d697373696f6e206665650000000000604482015260640161062a565b5f815f01518260400151836020015184606001516040516020016107989493929190612bd4565b604051602081830303815290604052805190602001209050816080015181146107f55760405162461bcd60e51b815260206004820152600f60248201526e496e636f727265637420486173682160881b604482015260640161062a565b4260c08301525f60e08301819052600680546001810182559152825183916008027ff652222313e28459528d920b65115c16c04f3efc82aaedc97be59f3f377c0d3f019081906108459082612c88565b506020820151600182019061085a9082612c88565b506040820151600282019061086f9082612c88565b50606082015160038201906108849082612c88565b506080820151600482015560a082015160058201906108a39082612c88565b5060c0820151816006015560e08201518160070155505060016006805490506108cc9190612d56565b7ff20c47478412252c3f85e5881b3cbee3e68a1ab2b3cd2d3fd8633ee288582e29836040516108fb9190612bab565b60405180910390a25050565b60048181548110610916575f80fd5b5f918252602090912060079091020180546001820180546001600160a01b0390921693509061094490612c04565b80601f016020809104026020016040519081016040528092919081815260200182805461097090612c04565b80156109bb5780601f10610992576101008083540402835291602001916109bb565b820191905f5260205f20905b81548152906001019060200180831161099e57829003601f168201915b505050506002830154600384015460048501546005909501549394919390925060ff1686565b6109e96125bb565b5f82815260076020526040908190208151808301928390529160029082845b81546001600160a01b03168152600190910190602001808311610a085750505050509050919050565b335f9081526003602052604090206005015460ff16610a815760405162461bcd60e51b815260206004820152600c60248201526b2737ba10309036b2b6b132b960a11b604482015260640161062a565b5f19815f0b12158015610a9757506001815f0b13155b610ae35760405162461bcd60e51b815260206004820152601860248201527f566f7465206d757374206265202d312c20302c206f7220310000000000000000604482015260640161062a565b335f908152600b602090815260408083206001600160a01b0386168452909152812054900b80158015610b185750815f0b5f14155b15610b9457335f908152600d60205260409020546103e811610b705760405162461bcd60e51b815260206004820152601160248201527013585e081d9bdd195cc81c995858da1959607a1b604482015260640161062a565b335f908152600d60205260408120805491610b8a83612d69565b9190505550610bcc565b805f0b5f14158015610ba75750815f0b5f145b15610bcc57335f908152600d60205260408120805491610bc683612d81565b91905055505b335f908152600b602090815260408083206001600160a01b03871684529091529020805460ff191660ff8416179055610c058183612d96565b6001600160a01b0384165f908152600c60205260408120805492820b92909190610c30908490612db6565b9091555050505050565b5f610c80604051806101000160405280606081526020016060815260200160608152602001606081526020015f8152602001606081526020015f81526020015f81525090565b600a5415610fb057600a546006600a5481548110610ca057610ca0612ddd565b905f5260205f20906008020180604051806101000160405290815f82018054610cc890612c04565b80601f0160208091040260200160405190810160405280929190818152602001828054610cf490612c04565b8015610d3f5780601f10610d1657610100808354040283529160200191610d3f565b820191905f5260205f20905b815481529060010190602001808311610d2257829003601f168201915b50505050508152602001600182018054610d5890612c04565b80601f0160208091040260200160405190810160405280929190818152602001828054610d8490612c04565b8015610dcf5780601f10610da657610100808354040283529160200191610dcf565b820191905f5260205f20905b815481529060010190602001808311610db257829003601f168201915b50505050508152602001600282018054610de890612c04565b80601f0160208091040260200160405190810160405280929190818152602001828054610e1490612c04565b8015610e5f5780601f10610e3657610100808354040283529160200191610e5f565b820191905f5260205f20905b815481529060010190602001808311610e4257829003601f168201915b50505050508152602001600382018054610e7890612c04565b80601f0160208091040260200160405190810160405280929190818152602001828054610ea490612c04565b8015610eef5780601f10610ec657610100808354040283529160200191610eef565b820191905f5260205f20905b815481529060010190602001808311610ed257829003601f168201915b5050505050815260200160048201548152602001600582018054610f1290612c04565b80601f0160208091040260200160405190810160405280929190818152602001828054610f3e90612c04565b8015610f895780601f10610f6057610100808354040283529160200191610f89565b820191905f5260205f20905b815481529060010190602001808311610f6c57829003601f168201915b50505050508152602001600682015481526020016007820154815250509050915091509091565b5f600554118015610fc2575042600554105b61100e5760405162461bcd60e51b815260206004820152601a60248201527f43616c6c206f6e6365206166746572205265666572656e64756d000000000000604482015260640161062a565b5f80805b60065481101561107757816006828154811061103057611030612ddd565b905f5260205f20906008020160070154111561106f576006818154811061105957611059612ddd565b905f5260205f2090600802016007015491508092505b600101611012565b5081600a819055505f6006838154811061109357611093612ddd565b905f5260205f209060080201604051806101000160405290815f820180546110ba90612c04565b80601f01602080910402602001604051908101604052809291908181526020018280546110e690612c04565b80156111315780601f1061110857610100808354040283529160200191611131565b820191905f5260205f20905b81548152906001019060200180831161111457829003601f168201915b5050505050815260200160018201805461114a90612c04565b80601f016020809104026020016040519081016040528092919081815260200182805461117690612c04565b80156111c15780601f10611198576101008083540402835291602001916111c1565b820191905f5260205f20905b8154815290600101906020018083116111a457829003601f168201915b505050505081526020016002820180546111da90612c04565b80601f016020809104026020016040519081016040528092919081815260200182805461120690612c04565b80156112515780601f1061122857610100808354040283529160200191611251565b820191905f5260205f20905b81548152906001019060200180831161123457829003601f168201915b5050505050815260200160038201805461126a90612c04565b80601f016020809104026020016040519081016040528092919081815260200182805461129690612c04565b80156112e15780601f106112b8576101008083540402835291602001916112e1565b820191905f5260205f20905b8154815290600101906020018083116112c457829003601f168201915b505050505081526020016004820154815260200160058201805461130490612c04565b80601f016020809104026020016040519081016040528092919081815260200182805461133090612c04565b801561137b5780601f106113525761010080835404028352916020019161137b565b820191905f5260205f20905b81548152906001019060200180831161135e57829003601f168201915b50505050508152602001600682015481526020016007820154815250509050827f5716523a05c9d13997b5a619d69a47eba3d34842ff0b403eed7ca3a75b05c708826040516113ca9190612bab565b60405180910390a2919491935090915050565b335f908152600c6020526040902054600a13156114325760405162461bcd60e51b8152602060048201526013602482015272139bdd08195b9bdd59da08185c1c1c9bdd985b606a1b604482015260640161062a565b600261143c611851565b600481111561144d5761144d612a23565b146114885760405162461bcd60e51b815260206004820152600b60248201526a57726f6e6720706861736560a81b604482015260640161062a565b5f5b600a60ff82161015611626575f6007818560ff8516600a81106114af576114af612ddd565b602002013581526020019081526020015f205f600281106114d2576114d2612ddd565b01546001600160a01b031603611542573360075f858460ff16600a81106114fb576114fb612ddd565b602002013581526020019081526020015f205f6002811061151e5761151e612ddd565b0180546001600160a01b0319166001600160a01b0392909216919091179055611614565b5f6007818560ff8516600a811061155b5761155b612ddd565b602002013581526020019081526020015f2060016002811061157f5761157f612ddd565b01546001600160a01b0316036115cc573360075f858460ff16600a81106115a8576115a8612ddd565b602002013581526020019081526020015f2060016002811061151e5761151e612ddd565b60405162461bcd60e51b815260206004820152601e60248201527f566f746572206861736820616c726561647920726567697374657265642e0000604482015260640161062a565b8061161e81612df1565b91505061148a565b505f5b600a60ff821610156117c5575f8260ff8316600a811061164b5761164b612ddd565b60200201602081019061165e91906129b7565b6001600160a01b0316036116ac5760405162461bcd60e51b8152602060048201526015602482015274496e76616c696420766f746572206164647265737360581b604482015260640161062a565b600260085f848460ff16600a81106116c6576116c6612ddd565b6020020160208101906116d991906129b7565b6001600160a01b03166001600160a01b031681526020019081526020015f20541061175c5760405162461bcd60e51b815260206004820152602d60248201527f416464726573737320616c726561647920726567697374657265642e2052656760448201526c697374726172204552524f522160981b606482015260840161062a565b60085f838360ff16600a811061177457611774612ddd565b60200201602081019061178791906129b7565b6001600160a01b0316815260208101919091526040015f9081208054916117ad83612d69565b919050555080806117bd90612df1565b915050611629565b5060098054600a91905f906117e190849063ffffffff16612e0f565b92506101000a81548163ffffffff021916908363ffffffff1602179055508060405161180d9190612e2b565b6040805191829003822060095433845263ffffffff166020840152917f2ba0aaa9c0e5919bf5cb9fde7b2825194f9dc6e9ab2a9174c59892a1585c446a91016108fb565b5f620151805f546118629190612d56565b42101561186e57505f90565b5f544210156118cd5761188360326002612e70565b60ff1660028054905010806118a957506001546103e8600160a01b90910463ffffffff16105b156118c757621275005f546118be9190612e93565b5f908155919050565b50600190565b6005545f036118dc5750600290565b6005544210156118ec5750600390565b50600490565b60028181548110611901575f80fd5b5f918252602090912001546001600160a01b0316905081565b60068181548110611929575f80fd5b905f5260205f2090600802015f91509050805f01805461194890612c04565b80601f016020809104026020016040519081016040528092919081815260200182805461197490612c04565b80156119bf5780601f10611996576101008083540402835291602001916119bf565b820191905f5260205f20905b8154815290600101906020018083116119a257829003601f168201915b5050505050908060010180546119d490612c04565b80601f0160208091040260200160405190810160405280929190818152602001828054611a0090612c04565b8015611a4b5780601f10611a2257610100808354040283529160200191611a4b565b820191905f5260205f20905b815481529060010190602001808311611a2e57829003601f168201915b505050505090806002018054611a6090612c04565b80601f0160208091040260200160405190810160405280929190818152602001828054611a8c90612c04565b8015611ad75780601f10611aae57610100808354040283529160200191611ad7565b820191905f5260205f20905b815481529060010190602001808311611aba57829003601f168201915b505050505090806003018054611aec90612c04565b80601f0160208091040260200160405190810160405280929190818152602001828054611b1890612c04565b8015611b635780601f10611b3a57610100808354040283529160200191611b63565b820191905f5260205f20905b815481529060010190602001808311611b4657829003601f168201915b505050505090806004015490806005018054611b7e90612c04565b80601f0160208091040260200160405190810160405280929190818152602001828054611baa90612c04565b8015611bf55780601f10611bcc57610100808354040283529160200191611bf5565b820191905f5260205f20905b815481529060010190602001808311611bd857829003601f168201915b5050505050908060060154908060070154905088565b42625c49005f54611c1c9190612e93565b10611c695760405162461bcd60e51b815260206004820152601b60248201527f43616e6e6f74207374617274207265666572656e64756d207965740000000000604482015260640161062a565b600a5415611cb95760405162461bcd60e51b815260206004820152601f60248201527f416c7265616479207261746966696564206120636f6e737469747574696f6e00604482015260640161062a565b600654600a10611cff5760405162461bcd60e51b81526020600482015260116024820152704e6f7420656e6f7567682064726166747360781b604482015260640161062a565b600954620f424063ffffffff9091161015611d505760405162461bcd60e51b81526020600482015260116024820152704e6f7420656e6f75676820766f7465727360781b604482015260640161062a565b611d5d4262015180612e93565b6005556040517fa0ab6b515144b30d8222a12e45d1c1df7265286d8a0d9f73c23c8b06f6021871905f90a1565b6005544210611dd45760405162461bcd60e51b81526020600482015260166024820152754e6f7420696e205265666572656e64756d2074696d6560501b604482015260640161062a565b600654811115611e1b5760405162461bcd60e51b8152602060048201526012602482015271125b9d985b1a5908191c98599d081b1a5cdd60721b604482015260640161062a565b335f90815260086020526040902054600214611e855760405162461bcd60e51b8152602060048201526024808201527f566f746564206f72204e6f74207265676973746572656420656e6f7567682074604482015263696d657360e01b606482015260840161062a565b6006545f906001600160401b03811115611ea157611ea16125d9565b604051908082528060200260200182016040528015611eca578160200160208202803683370190505b5090505f5b82811015611ff7575f848483818110611eea57611eea612ddd565b9050602002013590506006805490508110611f375760405162461bcd60e51b815260206004820152600d60248201526c125b9d985b1a5908191c98599d609a1b604482015260640161062a565b828181518110611f4957611f49612ddd565b602002602001015115611f935760405162461bcd60e51b815260206004820152601260248201527114995c195d1a5d1a5d9948191c98599d125960721b604482015260640161062a565b6001838281518110611fa757611fa7612ddd565b60200260200101901515908115158152505060068181548110611fcc57611fcc612ddd565b5f91825260208220600760089092020101805491611fe983612d69565b909155505050600101611ecf565b50335f81815260086020526040808220429055517f4b50b8927fd1b030f5404dc4394c2a5d30d7f6c6fa6d732c089ffe8c10f094219190a2505050565b60036020525f908152604090208054819061204e90612c04565b80601f016020809104026020016040519081016040528092919081815260200182805461207a90612c04565b80156120c55780601f1061209c576101008083540402835291602001916120c5565b820191905f5260205f20905b8154815290600101906020018083116120a857829003601f168201915b5050505050908060010180546120da90612c04565b80601f016020809104026020016040519081016040528092919081815260200182805461210690612c04565b80156121515780601f1061212857610100808354040283529160200191612151565b820191905f5260205f20905b81548152906001019060200180831161213457829003601f168201915b50505050509080600201805461216690612c04565b80601f016020809104026020016040519081016040528092919081815260200182805461219290612c04565b80156121dd5780601f106121b4576101008083540402835291602001916121dd565b820191905f5260205f20905b8154815290600101906020018083116121c057829003601f168201915b5050506003840154600485015460058601546006909601549495919490935060ff909116915087565b61224b604051806101000160405280606081526020016060815260200160608152602001606081526020015f8152602001606081526020015f81526020015f81525090565b600654821061229c5760405162461bcd60e51b815260206004820152601d60248201527f496e76616c696420636f6e737469747574696f6e206472616674204944000000604482015260640161062a565b600682815481106122af576122af612ddd565b905f5260205f209060080201604051806101000160405290815f820180546122d690612c04565b80601f016020809104026020016040519081016040528092919081815260200182805461230290612c04565b801561234d5780601f106123245761010080835404028352916020019161234d565b820191905f5260205f20905b81548152906001019060200180831161233057829003601f168201915b5050505050815260200160018201805461236690612c04565b80601f016020809104026020016040519081016040528092919081815260200182805461239290612c04565b80156123dd5780601f106123b4576101008083540402835291602001916123dd565b820191905f5260205f20905b8154815290600101906020018083116123c057829003601f168201915b505050505081526020016002820180546123f690612c04565b80601f016020809104026020016040519081016040528092919081815260200182805461242290612c04565b801561246d5780601f106124445761010080835404028352916020019161246d565b820191905f5260205f20905b81548152906001019060200180831161245057829003601f168201915b5050505050815260200160038201805461248690612c04565b80601f01602080910402602001604051908101604052809291908181526020018280546124b290612c04565b80156124fd5780601f106124d4576101008083540402835291602001916124fd565b820191905f5260205f20905b8154815290600101906020018083116124e057829003601f168201915b505050505081526020016004820154815260200160058201805461252090612c04565b80601f016020809104026020016040519081016040528092919081815260200182805461254c90612c04565b80156125975780601f1061256e57610100808354040283529160200191612597565b820191905f5260205f20905b81548152906001019060200180831161257a57829003601f168201915b50505050508152602001600682015481526020016007820154815250509050919050565b60405180604001604052806002906020820280368337509192915050565b634e487b7160e01b5f52604160045260245ffd5b60405161010081016001600160401b0381118282101715612610576126106125d9565b60405290565b5f82601f830112612625575f5ffd5b81356001600160401b0381111561263e5761263e6125d9565b604051601f8201601f19908116603f011681016001600160401b038111828210171561266c5761266c6125d9565b604052818152838201602001851015612683575f5ffd5b816020850160208301375f918101602001919091529392505050565b5f602082840312156126af575f5ffd5b81356001600160401b038111156126c4575f5ffd5b820161010081850312156126d6575f5ffd5b6126de6125ed565b81356001600160401b038111156126f3575f5ffd5b6126ff86828501612616565b82525060208201356001600160401b0381111561271a575f5ffd5b61272686828501612616565b60208301525060408201356001600160401b03811115612744575f5ffd5b61275086828501612616565b60408301525060608201356001600160401b0381111561276e575f5ffd5b61277a86828501612616565b6060830152506080828101359082015260a08201356001600160401b038111156127a2575f5ffd5b6127ae86828501612616565b60a08301525060c0828101359082015260e091820135918101919091529392505050565b5f602082840312156127e2575f5ffd5b5035919050565b5f81518084528060208401602086015e5f602082860101526020601f19601f83011685010191505092915050565b6001600160a01b038716815260c0602082018190525f9061283a908301886127e9565b905085604083015284606083015283608083015260ff831660a0830152979650505050505050565b6040810181835f5b60028110156128925781516001600160a01b031683526020928301929091019060010161286a565b50505092915050565b80356001600160a01b03811681146128b1575f5ffd5b919050565b5f5f604083850312156128c7575f5ffd5b6128d08361289b565b91506020830135805f0b81146128e4575f5ffd5b809150509250929050565b5f815161010084526129056101008501826127e9565b90506020830151848203602086015261291e82826127e9565b9150506040830151848203604086015261293882826127e9565b9150506060830151848203606086015261295282826127e9565b9150506080830151608085015260a083015184820360a086015261297682826127e9565b91505060c083015160c085015260e083015160e08501528091505092915050565b828152604060208201525f6129af60408301846128ef565b949350505050565b5f602082840312156129c7575f5ffd5b6129d08261289b565b9392505050565b8061014081018310156129e8575f5ffd5b92915050565b5f5f6102808385031215612a00575f5ffd5b612a0a84846129d7565b9150612a1a8461014085016129d7565b90509250929050565b634e487b7160e01b5f52602160045260245ffd5b6020810160058310612a5757634e487b7160e01b5f52602160045260245ffd5b91905290565b61010081525f612a7161010083018b6127e9565b8281036020840152612a83818b6127e9565b90508281036040840152612a97818a6127e9565b90508281036060840152612aab81896127e9565b905086608084015282810360a0840152612ac581876127e9565b60c0840195909552505060e001529695505050505050565b5f5f60208385031215612aee575f5ffd5b82356001600160401b03811115612b03575f5ffd5b8301601f81018513612b13575f5ffd5b80356001600160401b03811115612b28575f5ffd5b8560208260051b8401011115612b3c575f5ffd5b6020919091019590945092505050565b60e081525f612b5e60e083018a6127e9565b8281036020840152612b70818a6127e9565b90508281036040840152612b8481896127e9565b60608401979097525050608081019390935290151560a083015260c0909101529392505050565b602081525f6129d060208301846128ef565b5f81518060208401855e5f93019283525090919050565b5f612bfa612bf4612bee612be8858a612bbd565b88612bbd565b86612bbd565b84612bbd565b9695505050505050565b600181811c90821680612c1857607f821691505b602082108103612c3657634e487b7160e01b5f52602260045260245ffd5b50919050565b601f821115612c8357805f5260205f20601f840160051c81016020851015612c615750805b601f840160051c820191505b81811015612c80575f8155600101612c6d565b50505b505050565b81516001600160401b03811115612ca157612ca16125d9565b612cb581612caf8454612c04565b84612c3c565b6020601f821160018114612ce7575f8315612cd05750848201515b5f19600385901b1c1916600184901b178455612c80565b5f84815260208120601f198516915b82811015612d165787850151825560209485019460019092019101612cf6565b5084821015612d3357868401515f19600387901b60f8161c191681555b50505050600190811b01905550565b634e487b7160e01b5f52601160045260245ffd5b818103818111156129e8576129e8612d42565b5f60018201612d7a57612d7a612d42565b5060010190565b5f81612d8f57612d8f612d42565b505f190190565b5f82810b9082900b03607f198112607f821317156129e8576129e8612d42565b8082018281125f831280158216821582161715612dd557612dd5612d42565b505092915050565b634e487b7160e01b5f52603260045260245ffd5b5f60ff821660ff8103612e0657612e06612d42565b60010192915050565b63ffffffff81811683821601908111156129e8576129e8612d42565b5f8183825b600a811015612e60576001600160a01b03612e4a8361289b565b1683526020928301929190910190600101612e30565b5050506101408201905092915050565b60ff8181168382160290811690818114612e8c57612e8c612d42565b5092915050565b808201808211156129e8576129e8612d4256fea264697066735822122019637200d14609cbc4a807ba894c01ea48c86768651b004ac752fa707bb3e8d764736f6c634300081c0033",
			"opcodes": "PUSH1 0xA0 PUSH1 0x40 MSTORE CALLVALUE DUP1 ISZERO PUSH1 0xE JUMPI PUSH0 PUSH0 REVERT JUMPDEST POP PUSH1 0x80 MLOAD PUSH2 0x2EDC PUSH2 0x27 PUSH0 CODECOPY PUSH0 PUSH2 0x3A6 ADD MSTORE PUSH2 0x2EDC PUSH0 RETURN INVALID PUSH1 0x80 PUSH1 0x40 MSTORE PUSH1 0x4 CALLDATASIZE LT PUSH2 0x1CF JUMPI PUSH0 CALLDATALOAD PUSH1 0xE0 SHR DUP1 PUSH4 0x86A0DD7D GT PUSH2 0xFD JUMPI DUP1 PUSH4 0xC1B13157 GT PUSH2 0x92 JUMPI DUP1 PUSH4 0xE42A54C4 GT PUSH2 0x62 JUMPI DUP1 PUSH4 0xE42A54C4 EQ PUSH2 0x549 JUMPI DUP1 PUSH4 0xE965B7C9 EQ PUSH2 0x565 JUMPI DUP1 PUSH4 0xEEDB2D28 EQ PUSH2 0x597 JUMPI DUP1 PUSH4 0xF3A4ABA9 EQ PUSH2 0x5AC JUMPI PUSH0 PUSH0 REVERT JUMPDEST DUP1 PUSH4 0xC1B13157 EQ PUSH2 0x4EC JUMPI DUP1 PUSH4 0xCE7EA161 EQ PUSH2 0x50B JUMPI DUP1 PUSH4 0xD1791AE0 EQ PUSH2 0x51F JUMPI DUP1 PUSH4 0xE292BF16 EQ PUSH2 0x535 JUMPI PUSH0 PUSH0 REVERT JUMPDEST DUP1 PUSH4 0xB13C744B GT PUSH2 0xCD JUMPI DUP1 PUSH4 0xB13C744B EQ PUSH2 0x471 JUMPI DUP1 PUSH4 0xBBEA6F0B EQ PUSH2 0x490 JUMPI DUP1 PUSH4 0xBE003EE6 EQ PUSH2 0x4C3 JUMPI DUP1 PUSH4 0xBEB54795 EQ PUSH2 0x4D7 JUMPI PUSH0 PUSH0 REVERT JUMPDEST DUP1 PUSH4 0x86A0DD7D EQ PUSH2 0x3F6 JUMPI DUP1 PUSH4 0x99B0D39C EQ PUSH2 0x41C JUMPI DUP1 PUSH4 0xA3A40EA5 EQ PUSH2 0x43B JUMPI DUP1 PUSH4 0xB0FEB260 EQ PUSH2 0x45C JUMPI PUSH0 PUSH0 REVERT JUMPDEST DUP1 PUSH4 0x47F7B722 GT PUSH2 0x173 JUMPI DUP1 PUSH4 0x78E3EF20 GT PUSH2 0x143 JUMPI DUP1 PUSH4 0x78E3EF20 EQ PUSH2 0x361 JUMPI DUP1 PUSH4 0x78E97925 EQ PUSH2 0x395 JUMPI DUP1 PUSH4 0x7D48536D EQ PUSH2 0x3C8 JUMPI DUP1 PUSH4 0x8325ED2D EQ PUSH2 0x3E2 JUMPI PUSH0 PUSH0 REVERT JUMPDEST DUP1 PUSH4 0x47F7B722 EQ PUSH2 0x2DC JUMPI DUP1 PUSH4 0x4D0C8726 EQ PUSH2 0x300 JUMPI DUP1 PUSH4 0x5004E24A EQ PUSH2 0x337 JUMPI DUP1 PUSH4 0x54C17527 EQ PUSH2 0x34D JUMPI PUSH0 PUSH0 REVERT JUMPDEST DUP1 PUSH4 0x1B408934 GT PUSH2 0x1AE JUMPI DUP1 PUSH4 0x1B408934 EQ PUSH2 0x24E JUMPI DUP1 PUSH4 0x29C83BE1 EQ PUSH2 0x286 JUMPI DUP1 PUSH4 0x3DEF77B7 EQ PUSH2 0x2A5 JUMPI DUP1 PUSH4 0x452D32BB EQ PUSH2 0x2BA JUMPI PUSH0 PUSH0 REVERT JUMPDEST DUP1 PUSH3 0xFA88E2 EQ PUSH2 0x1D3 JUMPI DUP1 PUSH4 0x13CF08B EQ PUSH2 0x1E8 JUMPI DUP1 PUSH4 0x8EC6A19 EQ PUSH2 0x222 JUMPI JUMPDEST PUSH0 PUSH0 REVERT JUMPDEST PUSH2 0x1E6 PUSH2 0x1E1 CALLDATASIZE PUSH1 0x4 PUSH2 0x269F JUMP JUMPDEST PUSH2 0x5D8 JUMP JUMPDEST STOP JUMPDEST CALLVALUE DUP1 ISZERO PUSH2 0x1F3 JUMPI PUSH0 PUSH0 REVERT JUMPDEST POP PUSH2 0x207 PUSH2 0x202 CALLDATASIZE PUSH1 0x4 PUSH2 0x27D2 JUMP JUMPDEST PUSH2 0x907 JUMP JUMPDEST PUSH1 0x40 MLOAD PUSH2 0x219 SWAP7 SWAP6 SWAP5 SWAP4 SWAP3 SWAP2 SWAP1 PUSH2 0x2817 JUMP JUMPDEST PUSH1 0x40 MLOAD DUP1 SWAP2 SUB SWAP1 RETURN JUMPDEST CALLVALUE DUP1 ISZERO PUSH2 0x22D JUMPI PUSH0 PUSH0 REVERT JUMPDEST POP PUSH2 0x241 PUSH2 0x23C CALLDATASIZE PUSH1 0x4 PUSH2 0x27D2 JUMP JUMPDEST PUSH2 0x9E1 JUMP JUMPDEST PUSH1 0x40 MLOAD PUSH2 0x219 SWAP2 SWAP1 PUSH2 0x2862 JUMP JUMPDEST CALLVALUE DUP1 ISZERO PUSH2 0x259 JUMPI PUSH0 PUSH0 REVERT JUMPDEST POP PUSH1 0x1 SLOAD PUSH2 0x271 SWAP1 PUSH1 0x1 PUSH1 0xA0 SHL SWAP1 DIV PUSH4 0xFFFFFFFF AND DUP2 JUMP JUMPDEST PUSH1 0x40 MLOAD PUSH4 0xFFFFFFFF SWAP1 SWAP2 AND DUP2 MSTORE PUSH1 0x20 ADD PUSH2 0x219 JUMP JUMPDEST CALLVALUE DUP1 ISZERO PUSH2 0x291 JUMPI PUSH0 PUSH0 REVERT JUMPDEST POP PUSH2 0x1E6 PUSH2 0x2A0 CALLDATASIZE PUSH1 0x4 PUSH2 0x28B6 JUMP JUMPDEST PUSH2 0xA31 JUMP JUMPDEST CALLVALUE DUP1 ISZERO PUSH2 0x2B0 JUMPI PUSH0 PUSH0 REVERT JUMPDEST POP PUSH2 0x271 PUSH2 0x3E8 DUP2 JUMP JUMPDEST CALLVALUE DUP1 ISZERO PUSH2 0x2C5 JUMPI PUSH0 PUSH0 REVERT JUMPDEST POP PUSH2 0x2CE PUSH2 0xC3A JUMP JUMPDEST PUSH1 0x40 MLOAD PUSH2 0x219 SWAP3 SWAP2 SWAP1 PUSH2 0x2997 JUMP JUMPDEST CALLVALUE DUP1 ISZERO PUSH2 0x2E7 JUMPI PUSH0 PUSH0 REVERT JUMPDEST POP PUSH2 0x2F2 PUSH3 0x127500 DUP2 JUMP JUMPDEST PUSH1 0x40 MLOAD SWAP1 DUP2 MSTORE PUSH1 0x20 ADD PUSH2 0x219 JUMP JUMPDEST CALLVALUE DUP1 ISZERO PUSH2 0x30B JUMPI PUSH0 PUSH0 REVERT JUMPDEST POP PUSH1 0x1 SLOAD PUSH2 0x31F SWAP1 PUSH1 0x1 PUSH1 0x1 PUSH1 0xA0 SHL SUB AND DUP2 JUMP JUMPDEST PUSH1 0x40 MLOAD PUSH1 0x1 PUSH1 0x1 PUSH1 0xA0 SHL SUB SWAP1 SWAP2 AND DUP2 MSTORE PUSH1 0x20 ADD PUSH2 0x219 JUMP JUMPDEST CALLVALUE DUP1 ISZERO PUSH2 0x342 JUMPI PUSH0 PUSH0 REVERT JUMPDEST POP PUSH2 0x2F2 PUSH3 0x5C4900 DUP2 JUMP JUMPDEST CALLVALUE DUP1 ISZERO PUSH2 0x358 JUMPI PUSH0 PUSH0 REVERT JUMPDEST POP PUSH2 0x2F2 PUSH1 0xA DUP2 JUMP JUMPDEST CALLVALUE DUP1 ISZERO PUSH2 0x36C JUMPI PUSH0 PUSH0 REVERT JUMPDEST POP PUSH2 0x2F2 PUSH2 0x37B CALLDATASIZE PUSH1 0x4 PUSH2 0x29B7 JUMP JUMPDEST PUSH1 0x1 PUSH1 0x1 PUSH1 0xA0 SHL SUB AND PUSH0 SWAP1 DUP2 MSTORE PUSH1 0x8 PUSH1 0x20 MSTORE PUSH1 0x40 SWAP1 KECCAK256 SLOAD SWAP1 JUMP JUMPDEST CALLVALUE DUP1 ISZERO PUSH2 0x3A0 JUMPI PUSH0 PUSH0 REVERT JUMPDEST POP PUSH2 0x2F2 PUSH32 0x0 DUP2 JUMP JUMPDEST CALLVALUE DUP1 ISZERO PUSH2 0x3D3 JUMPI PUSH0 PUSH0 REVERT JUMPDEST POP PUSH2 0x2F2 PUSH7 0x38D7EA4C68000 DUP2 JUMP JUMPDEST CALLVALUE DUP1 ISZERO PUSH2 0x3ED JUMPI PUSH0 PUSH0 REVERT JUMPDEST POP PUSH2 0x271 PUSH1 0xA DUP2 JUMP JUMPDEST CALLVALUE DUP1 ISZERO PUSH2 0x401 JUMPI PUSH0 PUSH0 REVERT JUMPDEST POP PUSH2 0x40A PUSH1 0xA DUP2 JUMP JUMPDEST PUSH1 0x40 MLOAD PUSH1 0xFF SWAP1 SWAP2 AND DUP2 MSTORE PUSH1 0x20 ADD PUSH2 0x219 JUMP JUMPDEST CALLVALUE DUP1 ISZERO PUSH2 0x427 JUMPI PUSH0 PUSH0 REVERT JUMPDEST POP PUSH2 0x1E6 PUSH2 0x436 CALLDATASIZE PUSH1 0x4 PUSH2 0x29EE JUMP JUMPDEST PUSH2 0x13DD JUMP JUMPDEST CALLVALUE DUP1 ISZERO PUSH2 0x446 JUMPI PUSH0 PUSH0 REVERT JUMPDEST POP PUSH2 0x44F PUSH2 0x1851 JUMP JUMPDEST PUSH1 0x40 MLOAD PUSH2 0x219 SWAP2 SWAP1 PUSH2 0x2A37 JUMP JUMPDEST CALLVALUE DUP1 ISZERO PUSH2 0x467 JUMPI PUSH0 PUSH0 REVERT JUMPDEST POP PUSH2 0x2F2 PUSH1 0x5 SLOAD DUP2 JUMP JUMPDEST CALLVALUE DUP1 ISZERO PUSH2 0x47C JUMPI PUSH0 PUSH0 REVERT JUMPDEST POP PUSH2 0x31F PUSH2 0x48B CALLDATASIZE PUSH1 0x4 PUSH2 0x27D2 JUMP JUMPDEST PUSH2 0x18F2 JUMP JUMPDEST CALLVALUE DUP1 ISZERO PUSH2 0x49B JUMPI PUSH0 PUSH0 REVERT JUMPDEST POP PUSH2 0x4AF PUSH2 0x4AA CALLDATASIZE PUSH1 0x4 PUSH2 0x27D2 JUMP JUMPDEST PUSH2 0x191A JUMP JUMPDEST PUSH1 0x40 MLOAD PUSH2 0x219 SWAP9 SWAP8 SWAP7 SWAP6 SWAP5 SWAP4 SWAP3 SWAP2 SWAP1 PUSH2 0x2A5D JUMP JUMPDEST CALLVALUE DUP1 ISZERO PUSH2 0x4CE JUMPI PUSH0 PUSH0 REVERT JUMPDEST POP PUSH2 0x1E6 PUSH2 0x1C0B JUMP JUMPDEST CALLVALUE DUP1 ISZERO PUSH2 0x4E2 JUMPI PUSH0 PUSH0 REVERT JUMPDEST POP PUSH2 0x2F2 PUSH2 0x3E8 DUP2 JUMP JUMPDEST CALLVALUE DUP1 ISZERO PUSH2 0x4F7 JUMPI PUSH0 PUSH0 REVERT JUMPDEST POP PUSH2 0x1E6 PUSH2 0x506 CALLDATASIZE PUSH1 0x4 PUSH2 0x2ADD JUMP JUMPDEST PUSH2 0x1D8A JUMP JUMPDEST CALLVALUE DUP1 ISZERO PUSH2 0x516 JUMPI PUSH0 PUSH0 REVERT JUMPDEST POP PUSH2 0x2F2 PUSH0 SLOAD DUP2 JUMP JUMPDEST CALLVALUE DUP1 ISZERO PUSH2 0x52A JUMPI PUSH0 PUSH0 REVERT JUMPDEST POP PUSH2 0x271 PUSH3 0xF4240 DUP2 JUMP JUMPDEST CALLVALUE DUP1 ISZERO PUSH2 0x540 JUMPI PUSH0 PUSH0 REVERT JUMPDEST POP PUSH2 0x40A PUSH1 0x32 DUP2 JUMP JUMPDEST CALLVALUE DUP1 ISZERO PUSH2 0x554 JUMPI PUSH0 PUSH0 REVERT JUMPDEST POP PUSH1 0x9 SLOAD PUSH2 0x271 SWAP1 PUSH4 0xFFFFFFFF AND DUP2 JUMP JUMPDEST CALLVALUE DUP1 ISZERO PUSH2 0x570 JUMPI PUSH0 PUSH0 REVERT JUMPDEST POP PUSH2 0x584 PUSH2 0x57F CALLDATASIZE PUSH1 0x4 PUSH2 0x29B7 JUMP JUMPDEST PUSH2 0x2034 JUMP JUMPDEST PUSH1 0x40 MLOAD PUSH2 0x219 SWAP8 SWAP7 SWAP6 SWAP5 SWAP4 SWAP3 SWAP2 SWAP1 PUSH2 0x2B4C JUMP JUMPDEST CALLVALUE DUP1 ISZERO PUSH2 0x5A2 JUMPI PUSH0 PUSH0 REVERT JUMPDEST POP PUSH2 0x2F2 PUSH1 0xA SLOAD DUP2 JUMP JUMPDEST CALLVALUE DUP1 ISZERO PUSH2 0x5B7 JUMPI PUSH0 PUSH0 REVERT JUMPDEST POP PUSH2 0x5CB PUSH2 0x5C6 CALLDATASIZE PUSH1 0x4 PUSH2 0x27D2 JUMP JUMPDEST PUSH2 0x2206 JUMP JUMPDEST PUSH1 0x40 MLOAD PUSH2 0x219 SWAP2 SWAP1 PUSH2 0x2BAB JUMP JUMPDEST PUSH1 0x2 PUSH2 0x5E2 PUSH2 0x1851 JUMP JUMPDEST PUSH1 0x4 DUP2 GT ISZERO PUSH2 0x5F3 JUMPI PUSH2 0x5F3 PUSH2 0x2A23 JUMP JUMPDEST EQ PUSH2 0x633 JUMPI PUSH1 0x40 MLOAD PUSH3 0x461BCD PUSH1 0xE5 SHL DUP2 MSTORE PUSH1 0x20 PUSH1 0x4 DUP3 ADD MSTORE PUSH1 0xB PUSH1 0x24 DUP3 ADD MSTORE PUSH11 0x57726F6E67207068617365 PUSH1 0xA8 SHL PUSH1 0x44 DUP3 ADD MSTORE PUSH1 0x64 ADD JUMPDEST PUSH1 0x40 MLOAD DUP1 SWAP2 SUB SWAP1 REVERT JUMPDEST DUP1 MLOAD MLOAD PUSH2 0x679 JUMPI PUSH1 0x40 MLOAD PUSH3 0x461BCD PUSH1 0xE5 SHL DUP2 MSTORE PUSH1 0x20 PUSH1 0x4 DUP3 ADD MSTORE PUSH1 0x14 PUSH1 0x24 DUP3 ADD MSTORE PUSH20 0x11195CD8DC9A5C1D1A5BDB881C995C5D5A5C9959 PUSH1 0x62 SHL PUSH1 0x44 DUP3 ADD MSTORE PUSH1 0x64 ADD PUSH2 0x62A JUMP JUMPDEST PUSH0 DUP2 PUSH1 0x20 ADD MLOAD MLOAD GT PUSH2 0x6CD JUMPI PUSH1 0x40 MLOAD PUSH3 0x461BCD PUSH1 0xE5 SHL DUP2 MSTORE PUSH1 0x20 PUSH1 0x4 DUP3 ADD MSTORE PUSH1 0x19 PUSH1 0x24 DUP3 ADD MSTORE PUSH32 0x636F6E737469747574696F6E5465787420726571756972656400000000000000 PUSH1 0x44 DUP3 ADD MSTORE PUSH1 0x64 ADD PUSH2 0x62A JUMP JUMPDEST PUSH0 DUP2 PUSH1 0x60 ADD MLOAD MLOAD GT PUSH2 0x71A JUMPI PUSH1 0x40 MLOAD PUSH3 0x461BCD PUSH1 0xE5 SHL DUP2 MSTORE PUSH1 0x20 PUSH1 0x4 DUP3 ADD MSTORE PUSH1 0x16 PUSH1 0x24 DUP3 ADD MSTORE PUSH22 0x141C9BDC1BDCD95C881B985B59481C995C5D5A5C9959 PUSH1 0x52 SHL PUSH1 0x44 DUP3 ADD MSTORE PUSH1 0x64 ADD PUSH2 0x62A JUMP JUMPDEST PUSH7 0x38D7EA4C68000 CALLVALUE LT ISZERO PUSH2 0x771 JUMPI PUSH1 0x40 MLOAD PUSH3 0x461BCD PUSH1 0xE5 SHL DUP2 MSTORE PUSH1 0x20 PUSH1 0x4 DUP3 ADD MSTORE PUSH1 0x1B PUSH1 0x24 DUP3 ADD MSTORE PUSH32 0x496E73756666696369656E74207375626D697373696F6E206665650000000000 PUSH1 0x44 DUP3 ADD MSTORE PUSH1 0x64 ADD PUSH2 0x62A JUMP JUMPDEST PUSH0 DUP2 PUSH0 ADD MLOAD DUP3 PUSH1 0x40 ADD MLOAD DUP4 PUSH1 0x20 ADD MLOAD DUP5 PUSH1 0x60 ADD MLOAD PUSH1 0x40 MLOAD PUSH1 0x20 ADD PUSH2 0x798 SWAP5 SWAP4 SWAP3 SWAP2 SWAP1 PUSH2 0x2BD4 JUMP JUMPDEST PUSH1 0x40 MLOAD PUSH1 0x20 DUP2 DUP4 SUB SUB DUP2 MSTORE SWAP1 PUSH1 0x40 MSTORE DUP1 MLOAD SWAP1 PUSH1 0x20 ADD KECCAK256 SWAP1 POP DUP2 PUSH1 0x80 ADD MLOAD DUP2 EQ PUSH2 0x7F5 JUMPI PUSH1 0x40 MLOAD PUSH3 0x461BCD PUSH1 0xE5 SHL DUP2 MSTORE PUSH1 0x20 PUSH1 0x4 DUP3 ADD MSTORE PUSH1 0xF PUSH1 0x24 DUP3 ADD MSTORE PUSH15 0x496E636F7272656374204861736821 PUSH1 0x88 SHL PUSH1 0x44 DUP3 ADD MSTORE PUSH1 0x64 ADD PUSH2 0x62A JUMP JUMPDEST TIMESTAMP PUSH1 0xC0 DUP4 ADD MSTORE PUSH0 PUSH1 0xE0 DUP4 ADD DUP2 SWAP1 MSTORE PUSH1 0x6 DUP1 SLOAD PUSH1 0x1 DUP2 ADD DUP3 SSTORE SWAP2 MSTORE DUP3 MLOAD DUP4 SWAP2 PUSH1 0x8 MUL PUSH32 0xF652222313E28459528D920B65115C16C04F3EFC82AAEDC97BE59F3F377C0D3F ADD SWAP1 DUP2 SWAP1 PUSH2 0x845 SWAP1 DUP3 PUSH2 0x2C88 JUMP JUMPDEST POP PUSH1 0x20 DUP3 ADD MLOAD PUSH1 0x1 DUP3 ADD SWAP1 PUSH2 0x85A SWAP1 DUP3 PUSH2 0x2C88 JUMP JUMPDEST POP PUSH1 0x40 DUP3 ADD MLOAD PUSH1 0x2 DUP3 ADD SWAP1 PUSH2 0x86F SWAP1 DUP3 PUSH2 0x2C88 JUMP JUMPDEST POP PUSH1 0x60 DUP3 ADD MLOAD PUSH1 0x3 DUP3 ADD SWAP1 PUSH2 0x884 SWAP1 DUP3 PUSH2 0x2C88 JUMP JUMPDEST POP PUSH1 0x80 DUP3 ADD MLOAD PUSH1 0x4 DUP3 ADD SSTORE PUSH1 0xA0 DUP3 ADD MLOAD PUSH1 0x5 DUP3 ADD SWAP1 PUSH2 0x8A3 SWAP1 DUP3 PUSH2 0x2C88 JUMP JUMPDEST POP PUSH1 0xC0 DUP3 ADD MLOAD DUP2 PUSH1 0x6 ADD SSTORE PUSH1 0xE0 DUP3 ADD MLOAD DUP2 PUSH1 0x7 ADD SSTORE POP POP PUSH1 0x1 PUSH1 0x6 DUP1 SLOAD SWAP1 POP PUSH2 0x8CC SWAP2 SWAP1 PUSH2 0x2D56 JUMP JUMPDEST PUSH32 0xF20C47478412252C3F85E5881B3CBEE3E68A1AB2B3CD2D3FD8633EE288582E29 DUP4 PUSH1 0x40 MLOAD PUSH2 0x8FB SWAP2 SWAP1 PUSH2 0x2BAB JUMP JUMPDEST PUSH1 0x40 MLOAD DUP1 SWAP2 SUB SWAP1 LOG2 POP POP JUMP JUMPDEST PUSH1 0x4 DUP2 DUP2 SLOAD DUP2 LT PUSH2 0x916 JUMPI PUSH0 DUP1 REVERT JUMPDEST PUSH0 SWAP2 DUP3 MSTORE PUSH1 0x20 SWAP1 SWAP2 KECCAK256 PUSH1 0x7 SWAP1 SWAP2 MUL ADD DUP1 SLOAD PUSH1 0x1 DUP3 ADD DUP1 SLOAD PUSH1 0x1 PUSH1 0x1 PUSH1 0xA0 SHL SUB SWAP1 SWAP3 AND SWAP4 POP SWAP1 PUSH2 0x944 SWAP1 PUSH2 0x2C04 JUMP JUMPDEST DUP1 PUSH1 0x1F ADD PUSH1 0x20 DUP1 SWAP2 DIV MUL PUSH1 0x20 ADD PUSH1 0x40 MLOAD SWAP1 DUP2 ADD PUSH1 0x40 MSTORE DUP1 SWAP3 SWAP2 SWAP1 DUP2 DUP2 MSTORE PUSH1 0x20 ADD DUP3 DUP1 SLOAD PUSH2 0x970 SWAP1 PUSH2 0x2C04 JUMP JUMPDEST DUP1 ISZERO PUSH2 0x9BB JUMPI DUP1 PUSH1 0x1F LT PUSH2 0x992 JUMPI PUSH2 0x100 DUP1 DUP4 SLOAD DIV MUL DUP4 MSTORE SWAP2 PUSH1 0x20 ADD SWAP2 PUSH2 0x9BB JUMP JUMPDEST DUP3 ADD SWAP2 SWAP1 PUSH0 MSTORE PUSH1 0x20 PUSH0 KECCAK256 SWAP1 JUMPDEST DUP2 SLOAD DUP2 MSTORE SWAP1 PUSH1 0x1 ADD SWAP1 PUSH1 0x20 ADD DUP1 DUP4 GT PUSH2 0x99E JUMPI DUP3 SWAP1 SUB PUSH1 0x1F AND DUP3 ADD SWAP2 JUMPDEST POP POP POP POP PUSH1 0x2 DUP4 ADD SLOAD PUSH1 0x3 DUP5 ADD SLOAD PUSH1 0x4 DUP6 ADD SLOAD PUSH1 0x5 SWAP1 SWAP6 ADD SLOAD SWAP4 SWAP5 SWAP2 SWAP4 SWAP1 SWAP3 POP PUSH1 0xFF AND DUP7 JUMP JUMPDEST PUSH2 0x9E9 PUSH2 0x25BB JUMP JUMPDEST PUSH0 DUP3 DUP2 MSTORE PUSH1 0x7 PUSH1 0x20 MSTORE PUSH1 0x40 SWAP1 DUP2 SWAP1 KECCAK256 DUP2 MLOAD DUP1 DUP4 ADD SWAP3 DUP4 SWAP1 MSTORE SWAP2 PUSH1 0x2 SWAP1 DUP3 DUP5 JUMPDEST DUP2 SLOAD PUSH1 0x1 PUSH1 0x1 PUSH1 0xA0 SHL SUB AND DUP2 MSTORE PUSH1 0x1 SWAP1 SWAP2 ADD SWAP1 PUSH1 0x20 ADD DUP1 DUP4 GT PUSH2 0xA08 JUMPI POP POP POP POP POP SWAP1 POP SWAP2 SWAP1 POP JUMP JUMPDEST CALLER PUSH0 SWAP1 DUP2 MSTORE PUSH1 0x3 PUSH1 0x20 MSTORE PUSH1 0x40 SWAP1 KECCAK256 PUSH1 0x5 ADD SLOAD PUSH1 0xFF AND PUSH2 0xA81 JUMPI PUSH1 0x40 MLOAD PUSH3 0x461BCD PUSH1 0xE5 SHL DUP2 MSTORE PUSH1 0x20 PUSH1 0x4 DUP3 ADD MSTORE PUSH1 0xC PUSH1 0x24 DUP3 ADD MSTORE PUSH12 0x2737BA10309036B2B6B132B9 PUSH1 0xA1 SHL PUSH1 0x44 DUP3 ADD MSTORE PUSH1 0x64 ADD PUSH2 0x62A JUMP JUMPDEST PUSH0 NOT DUP2 PUSH0 SIGNEXTEND SLT ISZERO DUP1 ISZERO PUSH2 0xA97 JUMPI POP PUSH1 0x1 DUP2 PUSH0 SIGNEXTEND SGT ISZERO JUMPDEST PUSH2 0xAE3 JUMPI PUSH1 0x40 MLOAD PUSH3 0x461BCD PUSH1 0xE5 SHL DUP2 MSTORE PUSH1 0x20 PUSH1 0x4 DUP3 ADD MSTORE PUSH1 0x18 PUSH1 0x24 DUP3 ADD MSTORE PUSH32 0x566F7465206D757374206265202D312C20302C206F7220310000000000000000 PUSH1 0x44 DUP3 ADD MSTORE PUSH1 0x64 ADD PUSH2 0x62A JUMP JUMPDEST CALLER PUSH0 SWAP1 DUP2 MSTORE PUSH1 0xB PUSH1 0x20 SWAP1 DUP2 MSTORE PUSH1 0x40 DUP1 DUP4 KECCAK256 PUSH1 0x1 PUSH1 0x1 PUSH1 0xA0 SHL SUB DUP7 AND DUP5 MSTORE SWAP1 SWAP2 MSTORE DUP2 KECCAK256 SLOAD SWAP1 SIGNEXTEND DUP1 ISZERO DUP1 ISZERO PUSH2 0xB18 JUMPI POP DUP2 PUSH0 SIGNEXTEND PUSH0 EQ ISZERO JUMPDEST ISZERO PUSH2 0xB94 JUMPI CALLER PUSH0 SWAP1 DUP2 MSTORE PUSH1 0xD PUSH1 0x20 MSTORE PUSH1 0x40 SWAP1 KECCAK256 SLOAD PUSH2 0x3E8 GT PUSH2 0xB70 JUMPI PUSH1 0x40 MLOAD PUSH3 0x461BCD PUSH1 0xE5 SHL DUP2 MSTORE PUSH1 0x20 PUSH1 0x4 DUP3 ADD MSTORE PUSH1 0x11 PUSH1 0x24 DUP3 ADD MSTORE PUSH17 0x13585E081D9BDD195CC81C995858DA1959 PUSH1 0x7A SHL PUSH1 0x44 DUP3 ADD MSTORE PUSH1 0x64 ADD PUSH2 0x62A JUMP JUMPDEST CALLER PUSH0 SWAP1 DUP2 MSTORE PUSH1 0xD PUSH1 0x20 MSTORE PUSH1 0x40 DUP2 KECCAK256 DUP1 SLOAD SWAP2 PUSH2 0xB8A DUP4 PUSH2 0x2D69 JUMP JUMPDEST SWAP2 SWAP1 POP SSTORE POP PUSH2 0xBCC JUMP JUMPDEST DUP1 PUSH0 SIGNEXTEND PUSH0 EQ ISZERO DUP1 ISZERO PUSH2 0xBA7 JUMPI POP DUP2 PUSH0 SIGNEXTEND PUSH0 EQ JUMPDEST ISZERO PUSH2 0xBCC JUMPI CALLER PUSH0 SWAP1 DUP2 MSTORE PUSH1 0xD PUSH1 0x20 MSTORE PUSH1 0x40 DUP2 KECCAK256 DUP1 SLOAD SWAP2 PUSH2 0xBC6 DUP4 PUSH2 0x2D81 JUMP JUMPDEST SWAP2 SWAP1 POP SSTORE POP JUMPDEST CALLER PUSH0 SWAP1 DUP2 MSTORE PUSH1 0xB PUSH1 0x20 SWAP1 DUP2 MSTORE PUSH1 0x40 DUP1 DUP4 KECCAK256 PUSH1 0x1 PUSH1 0x1 PUSH1 0xA0 SHL SUB DUP8 AND DUP5 MSTORE SWAP1 SWAP2 MSTORE SWAP1 KECCAK256 DUP1 SLOAD PUSH1 0xFF NOT AND PUSH1 0xFF DUP5 AND OR SWAP1 SSTORE PUSH2 0xC05 DUP2 DUP4 PUSH2 0x2D96 JUMP JUMPDEST PUSH1 0x1 PUSH1 0x1 PUSH1 0xA0 SHL SUB DUP5 AND PUSH0 SWAP1 DUP2 MSTORE PUSH1 0xC PUSH1 0x20 MSTORE PUSH1 0x40 DUP2 KECCAK256 DUP1 SLOAD SWAP3 DUP3 SIGNEXTEND SWAP3 SWAP1 SWAP2 SWAP1 PUSH2 0xC30 SWAP1 DUP5 SWAP1 PUSH2 0x2DB6 JUMP JUMPDEST SWAP1 SWAP2 SSTORE POP POP POP POP POP JUMP JUMPDEST PUSH0 PUSH2 0xC80 PUSH1 0x40 MLOAD DUP1 PUSH2 0x100 ADD PUSH1 0x40 MSTORE DUP1 PUSH1 0x60 DUP2 MSTORE PUSH1 0x20 ADD PUSH1 0x60 DUP2 MSTORE PUSH1 0x20 ADD PUSH1 0x60 DUP2 MSTORE PUSH1 0x20 ADD PUSH1 0x60 DUP2 MSTORE PUSH1 0x20 ADD PUSH0 DUP2 MSTORE PUSH1 0x20 ADD PUSH1 0x60 DUP2 MSTORE PUSH1 0x20 ADD PUSH0 DUP2 MSTORE PUSH1 0x20 ADD PUSH0 DUP2 MSTORE POP SWAP1 JUMP JUMPDEST PUSH1 0xA SLOAD ISZERO PUSH2 0xFB0 JUMPI PUSH1 0xA SLOAD PUSH1 0x6 PUSH1 0xA SLOAD DUP2 SLOAD DUP2 LT PUSH2 0xCA0 JUMPI PUSH2 0xCA0 PUSH2 0x2DDD JUMP JUMPDEST SWAP1 PUSH0 MSTORE PUSH1 0x20 PUSH0 KECCAK256 SWAP1 PUSH1 0x8 MUL ADD DUP1 PUSH1 0x40 MLOAD DUP1 PUSH2 0x100 ADD PUSH1 0x40 MSTORE SWAP1 DUP2 PUSH0 DUP3 ADD DUP1 SLOAD PUSH2 0xCC8 SWAP1 PUSH2 0x2C04 JUMP JUMPDEST DUP1 PUSH1 0x1F ADD PUSH1 0x20 DUP1 SWAP2 DIV MUL PUSH1 0x20 ADD PUSH1 0x40 MLOAD SWAP1 DUP2 ADD PUSH1 0x40 MSTORE DUP1 SWAP3 SWAP2 SWAP1 DUP2 DUP2 MSTORE PUSH1 0x20 ADD DUP3 DUP1 SLOAD PUSH2 0xCF4 SWAP1 PUSH2 0x2C04 JUMP JUMPDEST DUP1 ISZERO PUSH2 0xD3F JUMPI DUP1 PUSH1 0x1F LT PUSH2 0xD16 JUMPI PUSH2 0x100 DUP1 DUP4 SLOAD DIV MUL DUP4 MSTORE SWAP2 PUSH1 0x20 ADD SWAP2 PUSH2 0xD3F JUMP JUMPDEST DUP3 ADD SWAP2 SWAP1 PUSH0 MSTORE PUSH1 0x20 PUSH0 KECCAK256 SWAP1 JUMPDEST DUP2 SLOAD DUP2 MSTORE SWAP1 PUSH1 0x1 ADD SWAP1 PUSH1 0x20 ADD DUP1 DUP4 GT PUSH2 0xD22 JUMPI DUP3 SWAP1 SUB PUSH1 0x1F AND DUP3 ADD SWAP2 JUMPDEST POP POP POP POP POP DUP2 MSTORE PUSH1 0x20 ADD PUSH1 0x1 DUP3 ADD DUP1 SLOAD PUSH2 0xD58 SWAP1 PUSH2 0x2C04 JUMP JUMPDEST DUP1 PUSH1 0x1F ADD PUSH1 0x20 DUP1 SWAP2 DIV MUL PUSH1 0x20 ADD PUSH1 0x40 MLOAD SWAP1 DUP2 ADD PUSH1 0x40 MSTORE DUP1 SWAP3 SWAP2 SWAP1 DUP2 DUP2 MSTORE PUSH1 0x20 ADD DUP3 DUP1 SLOAD PUSH2 0xD84 SWAP1 PUSH2 0x2C04 JUMP JUMPDEST DUP1 ISZERO PUSH2 0xDCF JUMPI DUP1 PUSH1 0x1F LT PUSH2 0xDA6 JUMPI PUSH2 0x100 DUP1 DUP4 SLOAD DIV MUL DUP4 MSTORE SWAP2 PUSH1 0x20 ADD SWAP2 PUSH2 0xDCF JUMP JUMPDEST DUP3 ADD SWAP2 SWAP1 PUSH0 MSTORE PUSH1 0x20 PUSH0 KECCAK256 SWAP1 JUMPDEST DUP2 SLOAD DUP2 MSTORE SWAP1 PUSH1 0x1 ADD SWAP1 PUSH1 0x20 ADD DUP1 DUP4 GT PUSH2 0xDB2 JUMPI DUP3 SWAP1 SUB PUSH1 0x1F AND DUP3 ADD SWAP2 JUMPDEST POP POP POP POP POP DUP2 MSTORE PUSH1 0x20 ADD PUSH1 0x2 DUP3 ADD DUP1 SLOAD PUSH2 0xDE8 SWAP1 PUSH2 0x2C04 JUMP JUMPDEST DUP1 PUSH1 0x1F ADD PUSH1 0x20 DUP1 SWAP2 DIV MUL PUSH1 0x20 ADD PUSH1 0x40 MLOAD SWAP1 DUP2 ADD PUSH1 0x40 MSTORE DUP1 SWAP3 SWAP2 SWAP1 DUP2 DUP2 MSTORE PUSH1 0x20 ADD DUP3 DUP1 SLOAD PUSH2 0xE14 SWAP1 PUSH2 0x2C04 JUMP JUMPDEST DUP1 ISZERO PUSH2 0xE5F JUMPI DUP1 PUSH1 0x1F LT PUSH2 0xE36 JUMPI PUSH2 0x100 DUP1 DUP4 SLOAD DIV MUL DUP4 MSTORE SWAP2 PUSH1 0x20 ADD SWAP2 PUSH2 0xE5F JUMP JUMPDEST DUP3 ADD SWAP2 SWAP1 PUSH0 MSTORE PUSH1 0x20 PUSH0 KECCAK256 SWAP1 JUMPDEST DUP2 SLOAD DUP2 MSTORE SWAP1 PUSH1 0x1 ADD SWAP1 PUSH1 0x20 ADD DUP1 DUP4 GT PUSH2 0xE42 JUMPI DUP3 SWAP1 SUB PUSH1 0x1F AND DUP3 ADD SWAP2 JUMPDEST POP POP POP POP POP DUP2 MSTORE PUSH1 0x20 ADD PUSH1 0x3 DUP3 ADD DUP1 SLOAD PUSH2 0xE78 SWAP1 PUSH2 0x2C04 JUMP JUMPDEST DUP1 PUSH1 0x1F ADD PUSH1 0x20 DUP1 SWAP2 DIV MUL PUSH1 0x20 ADD PUSH1 0x40 MLOAD SWAP1 DUP2 ADD PUSH1 0x40 MSTORE DUP1 SWAP3 SWAP2 SWAP1 DUP2 DUP2 MSTORE PUSH1 0x20 ADD DUP3 DUP1 SLOAD PUSH2 0xEA4 SWAP1 PUSH2 0x2C04 JUMP JUMPDEST DUP1 ISZERO PUSH2 0xEEF JUMPI DUP1 PUSH1 0x1F LT PUSH2 0xEC6 JUMPI PUSH2 0x100 DUP1 DUP4 SLOAD DIV MUL DUP4 MSTORE SWAP2 PUSH1 0x20 ADD SWAP2 PUSH2 0xEEF JUMP JUMPDEST DUP3 ADD SWAP2 SWAP1 PUSH0 MSTORE PUSH1 0x20 PUSH0 KECCAK256 SWAP1 JUMPDEST DUP2 SLOAD DUP2 MSTORE SWAP1 PUSH1 0x1 ADD SWAP1 PUSH1 0x20 ADD DUP1 DUP4 GT PUSH2 0xED2 JUMPI DUP3 SWAP1 SUB PUSH1 0x1F AND DUP3 ADD SWAP2 JUMPDEST POP POP POP POP POP DUP2 MSTORE PUSH1 0x20 ADD PUSH1 0x4 DUP3 ADD SLOAD DUP2 MSTORE PUSH1 0x20 ADD PUSH1 0x5 DUP3 ADD DUP1 SLOAD PUSH2 0xF12 SWAP1 PUSH2 0x2C04 JUMP JUMPDEST DUP1 PUSH1 0x1F ADD PUSH1 0x20 DUP1 SWAP2 DIV MUL PUSH1 0x20 ADD PUSH1 0x40 MLOAD SWAP1 DUP2 ADD PUSH1 0x40 MSTORE DUP1 SWAP3 SWAP2 SWAP1 DUP2 DUP2 MSTORE PUSH1 0x20 ADD DUP3 DUP1 SLOAD PUSH2 0xF3E SWAP1 PUSH2 0x2C04 JUMP JUMPDEST DUP1 ISZERO PUSH2 0xF89 JUMPI DUP1 PUSH1 0x1F LT PUSH2 0xF60 JUMPI PUSH2 0x100 DUP1 DUP4 SLOAD DIV MUL DUP4 MSTORE SWAP2 PUSH1 0x20 ADD SWAP2 PUSH2 0xF89 JUMP JUMPDEST DUP3 ADD SWAP2 SWAP1 PUSH0 MSTORE PUSH1 0x20 PUSH0 KECCAK256 SWAP1 JUMPDEST DUP2 SLOAD DUP2 MSTORE SWAP1 PUSH1 0x1 ADD SWAP1 PUSH1 0x20 ADD DUP1 DUP4 GT PUSH2 0xF6C JUMPI DUP3 SWAP1 SUB PUSH1 0x1F AND DUP3 ADD SWAP2 JUMPDEST POP POP POP POP POP DUP2 MSTORE PUSH1 0x20 ADD PUSH1 0x6 DUP3 ADD SLOAD DUP2 MSTORE PUSH1 0x20 ADD PUSH1 0x7 DUP3 ADD SLOAD DUP2 MSTORE POP POP SWAP1 POP SWAP2 POP SWAP2 POP SWAP1 SWAP2 JUMP JUMPDEST PUSH0 PUSH1 0x5 SLOAD GT DUP1 ISZERO PUSH2 0xFC2 JUMPI POP TIMESTAMP PUSH1 0x5 SLOAD LT JUMPDEST PUSH2 0x100E JUMPI PUSH1 0x40 MLOAD PUSH3 0x461BCD PUSH1 0xE5 SHL DUP2 MSTORE PUSH1 0x20 PUSH1 0x4 DUP3 ADD MSTORE PUSH1 0x1A PUSH1 0x24 DUP3 ADD MSTORE PUSH32 0x43616C6C206F6E6365206166746572205265666572656E64756D000000000000 PUSH1 0x44 DUP3 ADD MSTORE PUSH1 0x64 ADD PUSH2 0x62A JUMP JUMPDEST PUSH0 DUP1 DUP1 JUMPDEST PUSH1 0x6 SLOAD DUP2 LT ISZERO PUSH2 0x1077 JUMPI DUP2 PUSH1 0x6 DUP3 DUP2 SLOAD DUP2 LT PUSH2 0x1030 JUMPI PUSH2 0x1030 PUSH2 0x2DDD JUMP JUMPDEST SWAP1 PUSH0 MSTORE PUSH1 0x20 PUSH0 KECCAK256 SWAP1 PUSH1 0x8 MUL ADD PUSH1 0x7 ADD SLOAD GT ISZERO PUSH2 0x106F JUMPI PUSH1 0x6 DUP2 DUP2 SLOAD DUP2 LT PUSH2 0x1059 JUMPI PUSH2 0x1059 PUSH2 0x2DDD JUMP JUMPDEST SWAP1 PUSH0 MSTORE PUSH1 0x20 PUSH0 KECCAK256 SWAP1 PUSH1 0x8 MUL ADD PUSH1 0x7 ADD SLOAD SWAP2 POP DUP1 SWAP3 POP JUMPDEST PUSH1 0x1 ADD PUSH2 0x1012 JUMP JUMPDEST POP DUP2 PUSH1 0xA DUP2 SWAP1 SSTORE POP PUSH0 PUSH1 0x6 DUP4 DUP2 SLOAD DUP2 LT PUSH2 0x1093 JUMPI PUSH2 0x1093 PUSH2 0x2DDD JUMP JUMPDEST SWAP1 PUSH0 MSTORE PUSH1 0x20 PUSH0 KECCAK256 SWAP1 PUSH1 0x8 MUL ADD PUSH1 0x40 MLOAD DUP1 PUSH2 0x100 ADD PUSH1 0x40 MSTORE SWAP1 DUP2 PUSH0 DUP3 ADD DUP1 SLOAD PUSH2 0x10BA SWAP1 PUSH2 0x2C04 JUMP JUMPDEST DUP1 PUSH1 0x1F ADD PUSH1 0x20 DUP1 SWAP2 DIV MUL PUSH1 0x20 ADD PUSH1 0x40 MLOAD SWAP1 DUP2 ADD PUSH1 0x40 MSTORE DUP1 SWAP3 SWAP2 SWAP1 DUP2 DUP2 MSTORE PUSH1 0x20 ADD DUP3 DUP1 SLOAD PUSH2 0x10E6 SWAP1 PUSH2 0x2C04 JUMP JUMPDEST DUP1 ISZERO PUSH2 0x1131 JUMPI DUP1 PUSH1 0x1F LT PUSH2 0x1108 JUMPI PUSH2 0x100 DUP1 DUP4 SLOAD DIV MUL DUP4 MSTORE SWAP2 PUSH1 0x20 ADD SWAP2 PUSH2 0x1131 JUMP JUMPDEST DUP3 ADD SWAP2 SWAP1 PUSH0 MSTORE PUSH1 0x20 PUSH0 KECCAK256 SWAP1 JUMPDEST DUP2 SLOAD DUP2 MSTORE SWAP1 PUSH1 0x1 ADD SWAP1 PUSH1 0x20 ADD DUP1 DUP4 GT PUSH2 0x1114 JUMPI DUP3 SWAP1 SUB PUSH1 0x1F AND DUP3 ADD SWAP2 JUMPDEST POP POP POP POP POP DUP2 MSTORE PUSH1 0x20 ADD PUSH1 0x1 DUP3 ADD DUP1 SLOAD PUSH2 0x114A SWAP1 PUSH2 0x2C04 JUMP JUMPDEST DUP1 PUSH1 0x1F ADD PUSH1 0x20 DUP1 SWAP2 DIV MUL PUSH1 0x20 ADD PUSH1 0x40 MLOAD SWAP1 DUP2 ADD PUSH1 0x40 MSTORE DUP1 SWAP3 SWAP2 SWAP1 DUP2 DUP2 MSTORE PUSH1 0x20 ADD DUP3 DUP1 SLOAD PUSH2 0x1176 SWAP1 PUSH2 0x2C04 JUMP JUMPDEST DUP1 ISZERO PUSH2 0x11C1 JUMPI DUP1 PUSH1 0x1F LT PUSH2 0x1198 JUMPI PUSH2 0x100 DUP1 DUP4 SLOAD DIV MUL DUP4 MSTORE SWAP2 PUSH1 0x20 ADD SWAP2 PUSH2 0x11C1 JUMP JUMPDEST DUP3 ADD SWAP2 SWAP1 PUSH0 MSTORE PUSH1 0x20 PUSH0 KECCAK256 SWAP1 JUMPDEST DUP2 SLOAD DUP2 MSTORE SWAP1 PUSH1 0x1 ADD SWAP1 PUSH1 0x20 ADD DUP1 DUP4 GT PUSH2 0x11A4 JUMPI DUP3 SWAP1 SUB PUSH1 0x1F AND DUP3 ADD SWAP2 JUMPDEST POP POP POP POP POP DUP2 MSTORE PUSH1 0x20 ADD PUSH1 0x2 DUP3 ADD DUP1 SLOAD PUSH2 0x11DA SWAP1 PUSH2 0x2C04 JUMP JUMPDEST DUP1 PUSH1 0x1F ADD PUSH1 0x20 DUP1 SWAP2 DIV MUL PUSH1 0x20 ADD PUSH1 0x40 MLOAD SWAP1 DUP2 ADD PUSH1 0x40 MSTORE DUP1 SWAP3 SWAP2 SWAP1 DUP2 DUP2 MSTORE PUSH1 0x20 ADD DUP3 DUP1 SLOAD PUSH2 0x1206 SWAP1 PUSH2 0x2C04 JUMP JUMPDEST DUP1 ISZERO PUSH2 0x1251 JUMPI DUP1 PUSH1 0x1F LT PUSH2 0x1228 JUMPI PUSH2 0x100 DUP1 DUP4 SLOAD DIV MUL DUP4 MSTORE SWAP2 PUSH1 0x20 ADD SWAP2 PUSH2 0x1251 JUMP JUMPDEST DUP3 ADD SWAP2 SWAP1 PUSH0 MSTORE PUSH1 0x20 PUSH0 KECCAK256 SWAP1 JUMPDEST DUP2 SLOAD DUP2 MSTORE SWAP1 PUSH1 0x1 ADD SWAP1 PUSH1 0x20 ADD DUP1 DUP4 GT PUSH2 0x1234 JUMPI DUP3 SWAP1 SUB PUSH1 0x1F AND DUP3 ADD SWAP2 JUMPDEST POP POP POP POP POP DUP2 MSTORE PUSH1 0x20 ADD PUSH1 0x3 DUP3 ADD DUP1 SLOAD PUSH2 0x126A SWAP1 PUSH2 0x2C04 JUMP JUMPDEST DUP1 PUSH1 0x1F ADD PUSH1 0x20 DUP1 SWAP2 DIV MUL PUSH1 0x20 ADD PUSH1 0x40 MLOAD SWAP1 DUP2 ADD PUSH1 0x40 MSTORE DUP1 SWAP3 SWAP2 SWAP1 DUP2 DUP2 MSTORE PUSH1 0x20 ADD DUP3 DUP1 SLOAD PUSH2 0x1296 SWAP1 PUSH2 0x2C04 JUMP JUMPDEST DUP1 ISZERO PUSH2 0x12E1 JUMPI DUP1 PUSH1 0x1F LT PUSH2 0x12B8 JUMPI PUSH2 0x100 DUP1 DUP4 SLOAD DIV MUL DUP4 MSTORE SWAP2 PUSH1 0x20 ADD SWAP2 PUSH2 0x12E1 JUMP JUMPDEST DUP3 ADD SWAP2 SWAP1 PUSH0 MSTORE PUSH1 0x20 PUSH0 KECCAK256 SWAP1 JUMPDEST DUP2 SLOAD DUP2 MSTORE SWAP1 PUSH1 0x1 ADD SWAP1 PUSH1 0x20 ADD DUP1 DUP4 GT PUSH2 0x12C4 JUMPI DUP3 SWAP1 SUB PUSH1 0x1F AND DUP3 ADD SWAP2 JUMPDEST POP POP POP POP POP DUP2 MSTORE PUSH1 0x20 ADD PUSH1 0x4 DUP3 ADD SLOAD DUP2 MSTORE PUSH1 0x20 ADD PUSH1 0x5 DUP3 ADD DUP1 SLOAD PUSH2 0x1304 SWAP1 PUSH2 0x2C04 JUMP JUMPDEST DUP1 PUSH1 0x1F ADD PUSH1 0x20 DUP1 SWAP2 DIV MUL PUSH1 0x20 ADD PUSH1 0x40 MLOAD SWAP1 DUP2 ADD PUSH1 0x40 MSTORE DUP1 SWAP3 SWAP2 SWAP1 DUP2 DUP2 MSTORE PUSH1 0x20 ADD DUP3 DUP1 SLOAD PUSH2 0x1330 SWAP1 PUSH2 0x2C04 JUMP JUMPDEST DUP1 ISZERO PUSH2 0x137B JUMPI DUP1 PUSH1 0x1F LT PUSH2 0x1352 JUMPI PUSH2 0x100 DUP1 DUP4 SLOAD DIV MUL DUP4 MSTORE SWAP2 PUSH1 0x20 ADD SWAP2 PUSH2 0x137B JUMP JUMPDEST DUP3 ADD SWAP2 SWAP1 PUSH0 MSTORE PUSH1 0x20 PUSH0 KECCAK256 SWAP1 JUMPDEST DUP2 SLOAD DUP2 MSTORE SWAP1 PUSH1 0x1 ADD SWAP1 PUSH1 0x20 ADD DUP1 DUP4 GT PUSH2 0x135E JUMPI DUP3 SWAP1 SUB PUSH1 0x1F AND DUP3 ADD SWAP2 JUMPDEST POP POP POP POP POP DUP2 MSTORE PUSH1 0x20 ADD PUSH1 0x6 DUP3 ADD SLOAD DUP2 MSTORE PUSH1 0x20 ADD PUSH1 0x7 DUP3 ADD SLOAD DUP2 MSTORE POP POP SWAP1 POP DUP3 PUSH32 0x5716523A05C9D13997B5A619D69A47EBA3D34842FF0B403EED7CA3A75B05C708 DUP3 PUSH1 0x40 MLOAD PUSH2 0x13CA SWAP2 SWAP1 PUSH2 0x2BAB JUMP JUMPDEST PUSH1 0x40 MLOAD DUP1 SWAP2 SUB SWAP1 LOG2 SWAP2 SWAP5 SWAP2 SWAP4 POP SWAP1 SWAP2 POP POP JUMP JUMPDEST CALLER PUSH0 SWAP1 DUP2 MSTORE PUSH1 0xC PUSH1 0x20 MSTORE PUSH1 0x40 SWAP1 KECCAK256 SLOAD PUSH1 0xA SGT ISZERO PUSH2 0x1432 JUMPI PUSH1 0x40 MLOAD PUSH3 0x461BCD PUSH1 0xE5 SHL DUP2 MSTORE PUSH1 0x20 PUSH1 0x4 DUP3 ADD MSTORE PUSH1 0x13 PUSH1 0x24 DUP3 ADD MSTORE PUSH19 0x139BDD08195B9BDD59DA08185C1C1C9BDD985B PUSH1 0x6A SHL PUSH1 0x44 DUP3 ADD MSTORE PUSH1 0x64 ADD PUSH2 0x62A JUMP JUMPDEST PUSH1 0x2 PUSH2 0x143C PUSH2 0x1851 JUMP JUMPDEST PUSH1 0x4 DUP2 GT ISZERO PUSH2 0x144D JUMPI PUSH2 0x144D PUSH2 0x2A23 JUMP JUMPDEST EQ PUSH2 0x1488 JUMPI PUSH1 0x40 MLOAD PUSH3 0x461BCD PUSH1 0xE5 SHL DUP2 MSTORE PUSH1 0x20 PUSH1 0x4 DUP3 ADD MSTORE PUSH1 0xB PUSH1 0x24 DUP3 ADD MSTORE PUSH11 0x57726F6E67207068617365 PUSH1 0xA8 SHL PUSH1 0x44 DUP3 ADD MSTORE PUSH1 0x64 ADD PUSH2 0x62A JUMP JUMPDEST PUSH0 JUMPDEST PUSH1 0xA PUSH1 0xFF DUP3 AND LT ISZERO PUSH2 0x1626 JUMPI PUSH0 PUSH1 0x7 DUP2 DUP6 PUSH1 0xFF DUP6 AND PUSH1 0xA DUP2 LT PUSH2 0x14AF JUMPI PUSH2 0x14AF PUSH2 0x2DDD JUMP JUMPDEST PUSH1 0x20 MUL ADD CALLDATALOAD DUP2 MSTORE PUSH1 0x20 ADD SWAP1 DUP2 MSTORE PUSH1 0x20 ADD PUSH0 KECCAK256 PUSH0 PUSH1 0x2 DUP2 LT PUSH2 0x14D2 JUMPI PUSH2 0x14D2 PUSH2 0x2DDD JUMP JUMPDEST ADD SLOAD PUSH1 0x1 PUSH1 0x1 PUSH1 0xA0 SHL SUB AND SUB PUSH2 0x1542 JUMPI CALLER PUSH1 0x7 PUSH0 DUP6 DUP5 PUSH1 0xFF AND PUSH1 0xA DUP2 LT PUSH2 0x14FB JUMPI PUSH2 0x14FB PUSH2 0x2DDD JUMP JUMPDEST PUSH1 0x20 MUL ADD CALLDATALOAD DUP2 MSTORE PUSH1 0x20 ADD SWAP1 DUP2 MSTORE PUSH1 0x20 ADD PUSH0 KECCAK256 PUSH0 PUSH1 0x2 DUP2 LT PUSH2 0x151E JUMPI PUSH2 0x151E PUSH2 0x2DDD JUMP JUMPDEST ADD DUP1 SLOAD PUSH1 0x1 PUSH1 0x1 PUSH1 0xA0 SHL SUB NOT AND PUSH1 0x1 PUSH1 0x1 PUSH1 0xA0 SHL SUB SWAP3 SWAP1 SWAP3 AND SWAP2 SWAP1 SWAP2 OR SWAP1 SSTORE PUSH2 0x1614 JUMP JUMPDEST PUSH0 PUSH1 0x7 DUP2 DUP6 PUSH1 0xFF DUP6 AND PUSH1 0xA DUP2 LT PUSH2 0x155B JUMPI PUSH2 0x155B PUSH2 0x2DDD JUMP JUMPDEST PUSH1 0x20 MUL ADD CALLDATALOAD DUP2 MSTORE PUSH1 0x20 ADD SWAP1 DUP2 MSTORE PUSH1 0x20 ADD PUSH0 KECCAK256 PUSH1 0x1 PUSH1 0x2 DUP2 LT PUSH2 0x157F JUMPI PUSH2 0x157F PUSH2 0x2DDD JUMP JUMPDEST ADD SLOAD PUSH1 0x1 PUSH1 0x1 PUSH1 0xA0 SHL SUB AND SUB PUSH2 0x15CC JUMPI CALLER PUSH1 0x7 PUSH0 DUP6 DUP5 PUSH1 0xFF AND PUSH1 0xA DUP2 LT PUSH2 0x15A8 JUMPI PUSH2 0x15A8 PUSH2 0x2DDD JUMP JUMPDEST PUSH1 0x20 MUL ADD CALLDATALOAD DUP2 MSTORE PUSH1 0x20 ADD SWAP1 DUP2 MSTORE PUSH1 0x20 ADD PUSH0 KECCAK256 PUSH1 0x1 PUSH1 0x2 DUP2 LT PUSH2 0x151E JUMPI PUSH2 0x151E PUSH2 0x2DDD JUMP JUMPDEST PUSH1 0x40 MLOAD PUSH3 0x461BCD PUSH1 0xE5 SHL DUP2 MSTORE PUSH1 0x20 PUSH1 0x4 DUP3 ADD MSTORE PUSH1 0x1E PUSH1 0x24 DUP3 ADD MSTORE PUSH32 0x566F746572206861736820616C726561647920726567697374657265642E0000 PUSH1 0x44 DUP3 ADD MSTORE PUSH1 0x64 ADD PUSH2 0x62A JUMP JUMPDEST DUP1 PUSH2 0x161E DUP2 PUSH2 0x2DF1 JUMP JUMPDEST SWAP2 POP POP PUSH2 0x148A JUMP JUMPDEST POP PUSH0 JUMPDEST PUSH1 0xA PUSH1 0xFF DUP3 AND LT ISZERO PUSH2 0x17C5 JUMPI PUSH0 DUP3 PUSH1 0xFF DUP4 AND PUSH1 0xA DUP2 LT PUSH2 0x164B JUMPI PUSH2 0x164B PUSH2 0x2DDD JUMP JUMPDEST PUSH1 0x20 MUL ADD PUSH1 0x20 DUP2 ADD SWAP1 PUSH2 0x165E SWAP2 SWAP1 PUSH2 0x29B7 JUMP JUMPDEST PUSH1 0x1 PUSH1 0x1 PUSH1 0xA0 SHL SUB AND SUB PUSH2 0x16AC JUMPI PUSH1 0x40 MLOAD PUSH3 0x461BCD PUSH1 0xE5 SHL DUP2 MSTORE PUSH1 0x20 PUSH1 0x4 DUP3 ADD MSTORE PUSH1 0x15 PUSH1 0x24 DUP3 ADD MSTORE PUSH21 0x496E76616C696420766F7465722061646472657373 PUSH1 0x58 SHL PUSH1 0x44 DUP3 ADD MSTORE PUSH1 0x64 ADD PUSH2 0x62A JUMP JUMPDEST PUSH1 0x2 PUSH1 0x8 PUSH0 DUP5 DUP5 PUSH1 0xFF AND PUSH1 0xA DUP2 LT PUSH2 0x16C6 JUMPI PUSH2 0x16C6 PUSH2 0x2DDD JUMP JUMPDEST PUSH1 0x20 MUL ADD PUSH1 0x20 DUP2 ADD SWAP1 PUSH2 0x16D9 SWAP2 SWAP1 PUSH2 0x29B7 JUMP JUMPDEST PUSH1 0x1 PUSH1 0x1 PUSH1 0xA0 SHL SUB AND PUSH1 0x1 PUSH1 0x1 PUSH1 0xA0 SHL SUB AND DUP2 MSTORE PUSH1 0x20 ADD SWAP1 DUP2 MSTORE PUSH1 0x20 ADD PUSH0 KECCAK256 SLOAD LT PUSH2 0x175C JUMPI PUSH1 0x40 MLOAD PUSH3 0x461BCD PUSH1 0xE5 SHL DUP2 MSTORE PUSH1 0x20 PUSH1 0x4 DUP3 ADD MSTORE PUSH1 0x2D PUSH1 0x24 DUP3 ADD MSTORE PUSH32 0x416464726573737320616C726561647920726567697374657265642E20526567 PUSH1 0x44 DUP3 ADD MSTORE PUSH13 0x697374726172204552524F5221 PUSH1 0x98 SHL PUSH1 0x64 DUP3 ADD MSTORE PUSH1 0x84 ADD PUSH2 0x62A JUMP JUMPDEST PUSH1 0x8 PUSH0 DUP4 DUP4 PUSH1 0xFF AND PUSH1 0xA DUP2 LT PUSH2 0x1774 JUMPI PUSH2 0x1774 PUSH2 0x2DDD JUMP JUMPDEST PUSH1 0x20 MUL ADD PUSH1 0x20 DUP2 ADD SWAP1 PUSH2 0x1787 SWAP2 SWAP1 PUSH2 0x29B7 JUMP JUMPDEST PUSH1 0x1 PUSH1 0x1 PUSH1 0xA0 SHL SUB AND DUP2 MSTORE PUSH1 0x20 DUP2 ADD SWAP2 SWAP1 SWAP2 MSTORE PUSH1 0x40 ADD PUSH0 SWAP1 DUP2 KECCAK256 DUP1 SLOAD SWAP2 PUSH2 0x17AD DUP4 PUSH2 0x2D69 JUMP JUMPDEST SWAP2 SWAP1 POP SSTORE POP DUP1 DUP1 PUSH2 0x17BD SWAP1 PUSH2 0x2DF1 JUMP JUMPDEST SWAP2 POP POP PUSH2 0x1629 JUMP JUMPDEST POP PUSH1 0x9 DUP1 SLOAD PUSH1 0xA SWAP2 SWAP1 PUSH0 SWAP1 PUSH2 0x17E1 SWAP1 DUP5 SWAP1 PUSH4 0xFFFFFFFF AND PUSH2 0x2E0F JUMP JUMPDEST SWAP3 POP PUSH2 0x100 EXP DUP2 SLOAD DUP2 PUSH4 0xFFFFFFFF MUL NOT AND SWAP1 DUP4 PUSH4 0xFFFFFFFF AND MUL OR SWAP1 SSTORE POP DUP1 PUSH1 0x40 MLOAD PUSH2 0x180D SWAP2 SWAP1 PUSH2 0x2E2B JUMP JUMPDEST PUSH1 0x40 DUP1 MLOAD SWAP2 DUP3 SWAP1 SUB DUP3 KECCAK256 PUSH1 0x9 SLOAD CALLER DUP5 MSTORE PUSH4 0xFFFFFFFF AND PUSH1 0x20 DUP5 ADD MSTORE SWAP2 PUSH32 0x2BA0AAA9C0E5919BF5CB9FDE7B2825194F9DC6E9AB2A9174C59892A1585C446A SWAP2 ADD PUSH2 0x8FB JUMP JUMPDEST PUSH0 PUSH3 0x15180 PUSH0 SLOAD PUSH2 0x1862 SWAP2 SWAP1 PUSH2 0x2D56 JUMP JUMPDEST TIMESTAMP LT ISZERO PUSH2 0x186E JUMPI POP PUSH0 SWAP1 JUMP JUMPDEST PUSH0 SLOAD TIMESTAMP LT ISZERO PUSH2 0x18CD JUMPI PUSH2 0x1883 PUSH1 0x32 PUSH1 0x2 PUSH2 0x2E70 JUMP JUMPDEST PUSH1 0xFF AND PUSH1 0x2 DUP1 SLOAD SWAP1 POP LT DUP1 PUSH2 0x18A9 JUMPI POP PUSH1 0x1 SLOAD PUSH2 0x3E8 PUSH1 0x1 PUSH1 0xA0 SHL SWAP1 SWAP2 DIV PUSH4 0xFFFFFFFF AND LT JUMPDEST ISZERO PUSH2 0x18C7 JUMPI PUSH3 0x127500 PUSH0 SLOAD PUSH2 0x18BE SWAP2 SWAP1 PUSH2 0x2E93 JUMP JUMPDEST PUSH0 SWAP1 DUP2 SSTORE SWAP2 SWAP1 POP JUMP JUMPDEST POP PUSH1 0x1 SWAP1 JUMP JUMPDEST PUSH1 0x5 SLOAD PUSH0 SUB PUSH2 0x18DC JUMPI POP PUSH1 0x2 SWAP1 JUMP JUMPDEST PUSH1 0x5 SLOAD TIMESTAMP LT ISZERO PUSH2 0x18EC JUMPI POP PUSH1 0x3 SWAP1 JUMP JUMPDEST POP PUSH1 0x4 SWAP1 JUMP JUMPDEST PUSH1 0x2 DUP2 DUP2 SLOAD DUP2 LT PUSH2 0x1901 JUMPI PUSH0 DUP1 REVERT JUMPDEST PUSH0 SWAP2 DUP3 MSTORE PUSH1 0x20 SWAP1 SWAP2 KECCAK256 ADD SLOAD PUSH1 0x1 PUSH1 0x1 PUSH1 0xA0 SHL SUB AND SWAP1 POP DUP2 JUMP JUMPDEST PUSH1 0x6 DUP2 DUP2 SLOAD DUP2 LT PUSH2 0x1929 JUMPI PUSH0 DUP1 REVERT JUMPDEST SWAP1 PUSH0 MSTORE PUSH1 0x20 PUSH0 KECCAK256 SWAP1 PUSH1 0x8 MUL ADD PUSH0 SWAP2 POP SWAP1 POP DUP1 PUSH0 ADD DUP1 SLOAD PUSH2 0x1948 SWAP1 PUSH2 0x2C04 JUMP JUMPDEST DUP1 PUSH1 0x1F ADD PUSH1 0x20 DUP1 SWAP2 DIV MUL PUSH1 0x20 ADD PUSH1 0x40 MLOAD SWAP1 DUP2 ADD PUSH1 0x40 MSTORE DUP1 SWAP3 SWAP2 SWAP1 DUP2 DUP2 MSTORE PUSH1 0x20 ADD DUP3 DUP1 SLOAD PUSH2 0x1974 SWAP1 PUSH2 0x2C04 JUMP JUMPDEST DUP1 ISZERO PUSH2 0x19BF JUMPI DUP1 PUSH1 0x1F LT PUSH2 0x1996 JUMPI PUSH2 0x100 DUP1 DUP4 SLOAD DIV MUL DUP4 MSTORE SWAP2 PUSH1 0x20 ADD SWAP2 PUSH2 0x19BF JUMP JUMPDEST DUP3 ADD SWAP2 SWAP1 PUSH0 MSTORE PUSH1 0x20 PUSH0 KECCAK256 SWAP1 JUMPDEST DUP2 SLOAD DUP2 MSTORE SWAP1 PUSH1 0x1 ADD SWAP1 PUSH1 0x20 ADD DUP1 DUP4 GT PUSH2 0x19A2 JUMPI DUP3 SWAP1 SUB PUSH1 0x1F AND DUP3 ADD SWAP2 JUMPDEST POP POP POP POP POP SWAP1 DUP1 PUSH1 0x1 ADD DUP1 SLOAD PUSH2 0x19D4 SWAP1 PUSH2 0x2C04 JUMP JUMPDEST DUP1 PUSH1 0x1F ADD PUSH1 0x20 DUP1 SWAP2 DIV MUL PUSH1 0x20 ADD PUSH1 0x40 MLOAD SWAP1 DUP2 ADD PUSH1 0x40 MSTORE DUP1 SWAP3 SWAP2 SWAP1 DUP2 DUP2 MSTORE PUSH1 0x20 ADD DUP3 DUP1 SLOAD PUSH2 0x1A00 SWAP1 PUSH2 0x2C04 JUMP JUMPDEST DUP1 ISZERO PUSH2 0x1A4B JUMPI DUP1 PUSH1 0x1F LT PUSH2 0x1A22 JUMPI PUSH2 0x100 DUP1 DUP4 SLOAD DIV MUL DUP4 MSTORE SWAP2 PUSH1 0x20 ADD SWAP2 PUSH2 0x1A4B JUMP JUMPDEST DUP3 ADD SWAP2 SWAP1 PUSH0 MSTORE PUSH1 0x20 PUSH0 KECCAK256 SWAP1 JUMPDEST DUP2 SLOAD DUP2 MSTORE SWAP1 PUSH1 0x1 ADD SWAP1 PUSH1 0x20 ADD DUP1 DUP4 GT PUSH2 0x1A2E JUMPI DUP3 SWAP1 SUB PUSH1 0x1F AND DUP3 ADD SWAP2 JUMPDEST POP POP POP POP POP SWAP1 DUP1 PUSH1 0x2 ADD DUP1 SLOAD PUSH2 0x1A60 SWAP1 PUSH2 0x2C04 JUMP JUMPDEST DUP1 PUSH1 0x1F ADD PUSH1 0x20 DUP1 SWAP2 DIV MUL PUSH1 0x20 ADD PUSH1 0x40 MLOAD SWAP1 DUP2 ADD PUSH1 0x40 MSTORE DUP1 SWAP3 SWAP2 SWAP1 DUP2 DUP2 MSTORE PUSH1 0x20 ADD DUP3 DUP1 SLOAD PUSH2 0x1A8C SWAP1 PUSH2 0x2C04 JUMP JUMPDEST DUP1 ISZERO PUSH2 0x1AD7 JUMPI DUP1 PUSH1 0x1F LT PUSH2 0x1AAE JUMPI PUSH2 0x100 DUP1 DUP4 SLOAD DIV MUL DUP4 MSTORE SWAP2 PUSH1 0x20 ADD SWAP2 PUSH2 0x1AD7 JUMP JUMPDEST DUP3 ADD SWAP2 SWAP1 PUSH0 MSTORE PUSH1 0x20 PUSH0 KECCAK256 SWAP1 JUMPDEST DUP2 SLOAD DUP2 MSTORE SWAP1 PUSH1 0x1 ADD SWAP1 PUSH1 0x20 ADD DUP1 DUP4 GT PUSH2 0x1ABA JUMPI DUP3 SWAP1 SUB PUSH1 0x1F AND DUP3 ADD SWAP2 JUMPDEST POP POP POP POP POP SWAP1 DUP1 PUSH1 0x3 ADD DUP1 SLOAD PUSH2 0x1AEC SWAP1 PUSH2 0x2C04 JUMP JUMPDEST DUP1 PUSH1 0x1F ADD PUSH1 0x20 DUP1 SWAP2 DIV MUL PUSH1 0x20 ADD PUSH1 0x40 MLOAD SWAP1 DUP2 ADD PUSH1 0x40 MSTORE DUP1 SWAP3 SWAP2 SWAP1 DUP2 DUP2 MSTORE PUSH1 0x20 ADD DUP3 DUP1 SLOAD PUSH2 0x1B18 SWAP1 PUSH2 0x2C04 JUMP JUMPDEST DUP1 ISZERO PUSH2 0x1B63 JUMPI DUP1 PUSH1 0x1F LT PUSH2 0x1B3A JUMPI PUSH2 0x100 DUP1 DUP4 SLOAD DIV MUL DUP4 MSTORE SWAP2 PUSH1 0x20 ADD SWAP2 PUSH2 0x1B63 JUMP JUMPDEST DUP3 ADD SWAP2 SWAP1 PUSH0 MSTORE PUSH1 0x20 PUSH0 KECCAK256 SWAP1 JUMPDEST DUP2 SLOAD DUP2 MSTORE SWAP1 PUSH1 0x1 ADD SWAP1 PUSH1 0x20 ADD DUP1 DUP4 GT PUSH2 0x1B46 JUMPI DUP3 SWAP1 SUB PUSH1 0x1F AND DUP3 ADD SWAP2 JUMPDEST POP POP POP POP POP SWAP1 DUP1 PUSH1 0x4 ADD SLOAD SWAP1 DUP1 PUSH1 0x5 ADD DUP1 SLOAD PUSH2 0x1B7E SWAP1 PUSH2 0x2C04 JUMP JUMPDEST DUP1 PUSH1 0x1F ADD PUSH1 0x20 DUP1 SWAP2 DIV MUL PUSH1 0x20 ADD PUSH1 0x40 MLOAD SWAP1 DUP2 ADD PUSH1 0x40 MSTORE DUP1 SWAP3 SWAP2 SWAP1 DUP2 DUP2 MSTORE PUSH1 0x20 ADD DUP3 DUP1 SLOAD PUSH2 0x1BAA SWAP1 PUSH2 0x2C04 JUMP JUMPDEST DUP1 ISZERO PUSH2 0x1BF5 JUMPI DUP1 PUSH1 0x1F LT PUSH2 0x1BCC JUMPI PUSH2 0x100 DUP1 DUP4 SLOAD DIV MUL DUP4 MSTORE SWAP2 PUSH1 0x20 ADD SWAP2 PUSH2 0x1BF5 JUMP JUMPDEST DUP3 ADD SWAP2 SWAP1 PUSH0 MSTORE PUSH1 0x20 PUSH0 KECCAK256 SWAP1 JUMPDEST DUP2 SLOAD DUP2 MSTORE SWAP1 PUSH1 0x1 ADD SWAP1 PUSH1 0x20 ADD DUP1 DUP4 GT PUSH2 0x1BD8 JUMPI DUP3 SWAP1 SUB PUSH1 0x1F AND DUP3 ADD SWAP2 JUMPDEST POP POP POP POP POP SWAP1 DUP1 PUSH1 0x6 ADD SLOAD SWAP1 DUP1 PUSH1 0x7 ADD SLOAD SWAP1 POP DUP9 JUMP JUMPDEST TIMESTAMP PUSH3 0x5C4900 PUSH0 SLOAD PUSH2 0x1C1C SWAP2 SWAP1 PUSH2 0x2E93 JUMP JUMPDEST LT PUSH2 0x1C69 JUMPI PUSH1 0x40 MLOAD PUSH3 0x461BCD PUSH1 0xE5 SHL DUP2 MSTORE PUSH1 0x20 PUSH1 0x4 DUP3 ADD MSTORE PUSH1 0x1B PUSH1 0x24 DUP3 ADD MSTORE PUSH32 0x43616E6E6F74207374617274207265666572656E64756D207965740000000000 PUSH1 0x44 DUP3 ADD MSTORE PUSH1 0x64 ADD PUSH2 0x62A JUMP JUMPDEST PUSH1 0xA SLOAD ISZERO PUSH2 0x1CB9 JUMPI PUSH1 0x40 MLOAD PUSH3 0x461BCD PUSH1 0xE5 SHL DUP2 MSTORE PUSH1 0x20 PUSH1 0x4 DUP3 ADD MSTORE PUSH1 0x1F PUSH1 0x24 DUP3 ADD MSTORE PUSH32 0x416C7265616479207261746966696564206120636F6E737469747574696F6E00 PUSH1 0x44 DUP3 ADD MSTORE PUSH1 0x64 ADD PUSH2 0x62A JUMP JUMPDEST PUSH1 0x6 SLOAD PUSH1 0xA LT PUSH2 0x1CFF JUMPI PUSH1 0x40 MLOAD PUSH3 0x461BCD PUSH1 0xE5 SHL DUP2 MSTORE PUSH1 0x20 PUSH1 0x4 DUP3 ADD MSTORE PUSH1 0x11 PUSH1 0x24 DUP3 ADD MSTORE PUSH17 0x4E6F7420656E6F75676820647261667473 PUSH1 0x78 SHL PUSH1 0x44 DUP3 ADD MSTORE PUSH1 0x64 ADD PUSH2 0x62A JUMP JUMPDEST PUSH1 0x9 SLOAD PUSH3 0xF4240 PUSH4 0xFFFFFFFF SWAP1 SWAP2 AND LT ISZERO PUSH2 0x1D50 JUMPI PUSH1 0x40 MLOAD PUSH3 0x461BCD PUSH1 0xE5 SHL DUP2 MSTORE PUSH1 0x20 PUSH1 0x4 DUP3 ADD MSTORE PUSH1 0x11 PUSH1 0x24 DUP3 ADD MSTORE PUSH17 0x4E6F7420656E6F75676820766F74657273 PUSH1 0x78 SHL PUSH1 0x44 DUP3 ADD MSTORE PUSH1 0x64 ADD PUSH2 0x62A JUMP JUMPDEST PUSH2 0x1D5D TIMESTAMP PUSH3 0x15180 PUSH2 0x2E93 JUMP JUMPDEST PUSH1 0x5 SSTORE PUSH1 0x40 MLOAD PUSH32 0xA0AB6B515144B30D8222A12E45D1C1DF7265286D8A0D9F73C23C8B06F6021871 SWAP1 PUSH0 SWAP1 LOG1 JUMP JUMPDEST PUSH1 0x5 SLOAD TIMESTAMP LT PUSH2 0x1DD4 JUMPI PUSH1 0x40 MLOAD PUSH3 0x461BCD PUSH1 0xE5 SHL DUP2 MSTORE PUSH1 0x20 PUSH1 0x4 DUP3 ADD MSTORE PUSH1 0x16 PUSH1 0x24 DUP3 ADD MSTORE PUSH22 0x4E6F7420696E205265666572656E64756D2074696D65 PUSH1 0x50 SHL PUSH1 0x44 DUP3 ADD MSTORE PUSH1 0x64 ADD PUSH2 0x62A JUMP JUMPDEST PUSH1 0x6 SLOAD DUP2 GT ISZERO PUSH2 0x1E1B JUMPI PUSH1 0x40 MLOAD PUSH3 0x461BCD PUSH1 0xE5 SHL DUP2 MSTORE PUSH1 0x20 PUSH1 0x4 DUP3 ADD MSTORE PUSH1 0x12 PUSH1 0x24 DUP3 ADD MSTORE PUSH18 0x125B9D985B1A5908191C98599D081B1A5CDD PUSH1 0x72 SHL PUSH1 0x44 DUP3 ADD MSTORE PUSH1 0x64 ADD PUSH2 0x62A JUMP JUMPDEST CALLER PUSH0 SWAP1 DUP2 MSTORE PUSH1 0x8 PUSH1 0x20 MSTORE PUSH1 0x40 SWAP1 KECCAK256 SLOAD PUSH1 0x2 EQ PUSH2 0x1E85 JUMPI PUSH1 0x40 MLOAD PUSH3 0x461BCD PUSH1 0xE5 SHL DUP2 MSTORE PUSH1 0x20 PUSH1 0x4 DUP3 ADD MSTORE PUSH1 0x24 DUP1 DUP3 ADD MSTORE PUSH32 0x566F746564206F72204E6F74207265676973746572656420656E6F7567682074 PUSH1 0x44 DUP3 ADD MSTORE PUSH4 0x696D6573 PUSH1 0xE0 SHL PUSH1 0x64 DUP3 ADD MSTORE PUSH1 0x84 ADD PUSH2 0x62A JUMP JUMPDEST PUSH1 0x6 SLOAD PUSH0 SWAP1 PUSH1 0x1 PUSH1 0x1 PUSH1 0x40 SHL SUB DUP2 GT ISZERO PUSH2 0x1EA1 JUMPI PUSH2 0x1EA1 PUSH2 0x25D9 JUMP JUMPDEST PUSH1 0x40 MLOAD SWAP1 DUP1 DUP3 MSTORE DUP1 PUSH1 0x20 MUL PUSH1 0x20 ADD DUP3 ADD PUSH1 0x40 MSTORE DUP1 ISZERO PUSH2 0x1ECA JUMPI DUP2 PUSH1 0x20 ADD PUSH1 0x20 DUP3 MUL DUP1 CALLDATASIZE DUP4 CALLDATACOPY ADD SWAP1 POP JUMPDEST POP SWAP1 POP PUSH0 JUMPDEST DUP3 DUP2 LT ISZERO PUSH2 0x1FF7 JUMPI PUSH0 DUP5 DUP5 DUP4 DUP2 DUP2 LT PUSH2 0x1EEA JUMPI PUSH2 0x1EEA PUSH2 0x2DDD JUMP JUMPDEST SWAP1 POP PUSH1 0x20 MUL ADD CALLDATALOAD SWAP1 POP PUSH1 0x6 DUP1 SLOAD SWAP1 POP DUP2 LT PUSH2 0x1F37 JUMPI PUSH1 0x40 MLOAD PUSH3 0x461BCD PUSH1 0xE5 SHL DUP2 MSTORE PUSH1 0x20 PUSH1 0x4 DUP3 ADD MSTORE PUSH1 0xD PUSH1 0x24 DUP3 ADD MSTORE PUSH13 0x125B9D985B1A5908191C98599D PUSH1 0x9A SHL PUSH1 0x44 DUP3 ADD MSTORE PUSH1 0x64 ADD PUSH2 0x62A JUMP JUMPDEST DUP3 DUP2 DUP2 MLOAD DUP2 LT PUSH2 0x1F49 JUMPI PUSH2 0x1F49 PUSH2 0x2DDD JUMP JUMPDEST PUSH1 0x20 MUL PUSH1 0x20 ADD ADD MLOAD ISZERO PUSH2 0x1F93 JUMPI PUSH1 0x40 MLOAD PUSH3 0x461BCD PUSH1 0xE5 SHL DUP2 MSTORE PUSH1 0x20 PUSH1 0x4 DUP3 ADD MSTORE PUSH1 0x12 PUSH1 0x24 DUP3 ADD MSTORE PUSH18 0x14995C195D1A5D1A5D9948191C98599D1259 PUSH1 0x72 SHL PUSH1 0x44 DUP3 ADD MSTORE PUSH1 0x64 ADD PUSH2 0x62A JUMP JUMPDEST PUSH1 0x1 DUP4 DUP3 DUP2 MLOAD DUP2 LT PUSH2 0x1FA7 JUMPI PUSH2 0x1FA7 PUSH2 0x2DDD JUMP JUMPDEST PUSH1 0x20 MUL PUSH1 0x20 ADD ADD SWAP1 ISZERO ISZERO SWAP1 DUP2 ISZERO ISZERO DUP2 MSTORE POP POP PUSH1 0x6 DUP2 DUP2 SLOAD DUP2 LT PUSH2 0x1FCC JUMPI PUSH2 0x1FCC PUSH2 0x2DDD JUMP JUMPDEST PUSH0 SWAP2 DUP3 MSTORE PUSH1 0x20 DUP3 KECCAK256 PUSH1 0x7 PUSH1 0x8 SWAP1 SWAP3 MUL ADD ADD DUP1 SLOAD SWAP2 PUSH2 0x1FE9 DUP4 PUSH2 0x2D69 JUMP JUMPDEST SWAP1 SWAP2 SSTORE POP POP POP PUSH1 0x1 ADD PUSH2 0x1ECF JUMP JUMPDEST POP CALLER PUSH0 DUP2 DUP2 MSTORE PUSH1 0x8 PUSH1 0x20 MSTORE PUSH1 0x40 DUP1 DUP3 KECCAK256 TIMESTAMP SWAP1 SSTORE MLOAD PUSH32 0x4B50B8927FD1B030F5404DC4394C2A5D30D7F6C6FA6D732C089FFE8C10F09421 SWAP2 SWAP1 LOG2 POP POP POP JUMP JUMPDEST PUSH1 0x3 PUSH1 0x20 MSTORE PUSH0 SWAP1 DUP2 MSTORE PUSH1 0x40 SWAP1 KECCAK256 DUP1 SLOAD DUP2 SWAP1 PUSH2 0x204E SWAP1 PUSH2 0x2C04 JUMP JUMPDEST DUP1 PUSH1 0x1F ADD PUSH1 0x20 DUP1 SWAP2 DIV MUL PUSH1 0x20 ADD PUSH1 0x40 MLOAD SWAP1 DUP2 ADD PUSH1 0x40 MSTORE DUP1 SWAP3 SWAP2 SWAP1 DUP2 DUP2 MSTORE PUSH1 0x20 ADD DUP3 DUP1 SLOAD PUSH2 0x207A SWAP1 PUSH2 0x2C04 JUMP JUMPDEST DUP1 ISZERO PUSH2 0x20C5 JUMPI DUP1 PUSH1 0x1F LT PUSH2 0x209C JUMPI PUSH2 0x100 DUP1 DUP4 SLOAD DIV MUL DUP4 MSTORE SWAP2 PUSH1 0x20 ADD SWAP2 PUSH2 0x20C5 JUMP JUMPDEST DUP3 ADD SWAP2 SWAP1 PUSH0 MSTORE PUSH1 0x20 PUSH0 KECCAK256 SWAP1 JUMPDEST DUP2 SLOAD DUP2 MSTORE SWAP1 PUSH1 0x1 ADD SWAP1 PUSH1 0x20 ADD DUP1 DUP4 GT PUSH2 0x20A8 JUMPI DUP3 SWAP1 SUB PUSH1 0x1F AND DUP3 ADD SWAP2 JUMPDEST POP POP POP POP POP SWAP1 DUP1 PUSH1 0x1 ADD DUP1 SLOAD PUSH2 0x20DA SWAP1 PUSH2 0x2C04 JUMP JUMPDEST DUP1 PUSH1 0x1F ADD PUSH1 0x20 DUP1 SWAP2 DIV MUL PUSH1 0x20 ADD PUSH1 0x40 MLOAD SWAP1 DUP2 ADD PUSH1 0x40 MSTORE DUP1 SWAP3 SWAP2 SWAP1 DUP2 DUP2 MSTORE PUSH1 0x20 ADD DUP3 DUP1 SLOAD PUSH2 0x2106 SWAP1 PUSH2 0x2C04 JUMP JUMPDEST DUP1 ISZERO PUSH2 0x2151 JUMPI DUP1 PUSH1 0x1F LT PUSH2 0x2128 JUMPI PUSH2 0x100 DUP1 DUP4 SLOAD DIV MUL DUP4 MSTORE SWAP2 PUSH1 0x20 ADD SWAP2 PUSH2 0x2151 JUMP JUMPDEST DUP3 ADD SWAP2 SWAP1 PUSH0 MSTORE PUSH1 0x20 PUSH0 KECCAK256 SWAP1 JUMPDEST DUP2 SLOAD DUP2 MSTORE SWAP1 PUSH1 0x1 ADD SWAP1 PUSH1 0x20 ADD DUP1 DUP4 GT PUSH2 0x2134 JUMPI DUP3 SWAP1 SUB PUSH1 0x1F AND DUP3 ADD SWAP2 JUMPDEST POP POP POP POP POP SWAP1 DUP1 PUSH1 0x2 ADD DUP1 SLOAD PUSH2 0x2166 SWAP1 PUSH2 0x2C04 JUMP JUMPDEST DUP1 PUSH1 0x1F ADD PUSH1 0x20 DUP1 SWAP2 DIV MUL PUSH1 0x20 ADD PUSH1 0x40 MLOAD SWAP1 DUP2 ADD PUSH1 0x40 MSTORE DUP1 SWAP3 SWAP2 SWAP1 DUP2 DUP2 MSTORE PUSH1 0x20 ADD DUP3 DUP1 SLOAD PUSH2 0x2192 SWAP1 PUSH2 0x2C04 JUMP JUMPDEST DUP1 ISZERO PUSH2 0x21DD JUMPI DUP1 PUSH1 0x1F LT PUSH2 0x21B4 JUMPI PUSH2 0x100 DUP1 DUP4 SLOAD DIV MUL DUP4 MSTORE SWAP2 PUSH1 0x20 ADD SWAP2 PUSH2 0x21DD JUMP JUMPDEST DUP3 ADD SWAP2 SWAP1 PUSH0 MSTORE PUSH1 0x20 PUSH0 KECCAK256 SWAP1 JUMPDEST DUP2 SLOAD DUP2 MSTORE SWAP1 PUSH1 0x1 ADD SWAP1 PUSH1 0x20 ADD DUP1 DUP4 GT PUSH2 0x21C0 JUMPI DUP3 SWAP1 SUB PUSH1 0x1F AND DUP3 ADD SWAP2 JUMPDEST POP POP POP PUSH1 0x3 DUP5 ADD SLOAD PUSH1 0x4 DUP6 ADD SLOAD PUSH1 0x5 DUP7 ADD SLOAD PUSH1 0x6 SWAP1 SWAP7 ADD SLOAD SWAP5 SWAP6 SWAP2 SWAP5 SWAP1 SWAP4 POP PUSH1 0xFF SWAP1 SWAP2 AND SWAP2 POP DUP8 JUMP JUMPDEST PUSH2 0x224B PUSH1 0x40 MLOAD DUP1 PUSH2 0x100 ADD PUSH1 0x40 MSTORE DUP1 PUSH1 0x60 DUP2 MSTORE PUSH1 0x20 ADD PUSH1 0x60 DUP2 MSTORE PUSH1 0x20 ADD PUSH1 0x60 DUP2 MSTORE PUSH1 0x20 ADD PUSH1 0x60 DUP2 MSTORE PUSH1 0x20 ADD PUSH0 DUP2 MSTORE PUSH1 0x20 ADD PUSH1 0x60 DUP2 MSTORE PUSH1 0x20 ADD PUSH0 DUP2 MSTORE PUSH1 0x20 ADD PUSH0 DUP2 MSTORE POP SWAP1 JUMP JUMPDEST PUSH1 0x6 SLOAD DUP3 LT PUSH2 0x229C JUMPI PUSH1 0x40 MLOAD PUSH3 0x461BCD PUSH1 0xE5 SHL DUP2 MSTORE PUSH1 0x20 PUSH1 0x4 DUP3 ADD MSTORE PUSH1 0x1D PUSH1 0x24 DUP3 ADD MSTORE PUSH32 0x496E76616C696420636F6E737469747574696F6E206472616674204944000000 PUSH1 0x44 DUP3 ADD MSTORE PUSH1 0x64 ADD PUSH2 0x62A JUMP JUMPDEST PUSH1 0x6 DUP3 DUP2 SLOAD DUP2 LT PUSH2 0x22AF JUMPI PUSH2 0x22AF PUSH2 0x2DDD JUMP JUMPDEST SWAP1 PUSH0 MSTORE PUSH1 0x20 PUSH0 KECCAK256 SWAP1 PUSH1 0x8 MUL ADD PUSH1 0x40 MLOAD DUP1 PUSH2 0x100 ADD PUSH1 0x40 MSTORE SWAP1 DUP2 PUSH0 DUP3 ADD DUP1 SLOAD PUSH2 0x22D6 SWAP1 PUSH2 0x2C04 JUMP JUMPDEST DUP1 PUSH1 0x1F ADD PUSH1 0x20 DUP1 SWAP2 DIV MUL PUSH1 0x20 ADD PUSH1 0x40 MLOAD SWAP1 DUP2 ADD PUSH1 0x40 MSTORE DUP1 SWAP3 SWAP2 SWAP1 DUP2 DUP2 MSTORE PUSH1 0x20 ADD DUP3 DUP1 SLOAD PUSH2 0x2302 SWAP1 PUSH2 0x2C04 JUMP JUMPDEST DUP1 ISZERO PUSH2 0x234D JUMPI DUP1 PUSH1 0x1F LT PUSH2 0x2324 JUMPI PUSH2 0x100 DUP1 DUP4 SLOAD DIV MUL DUP4 MSTORE SWAP2 PUSH1 0x20 ADD SWAP2 PUSH2 0x234D JUMP JUMPDEST DUP3 ADD SWAP2 SWAP1 PUSH0 MSTORE PUSH1 0x20 PUSH0 KECCAK256 SWAP1 JUMPDEST DUP2 SLOAD DUP2 MSTORE SWAP1 PUSH1 0x1 ADD SWAP1 PUSH1 0x20 ADD DUP1 DUP4 GT PUSH2 0x2330 JUMPI DUP3 SWAP1 SUB PUSH1 0x1F AND DUP3 ADD SWAP2 JUMPDEST POP POP POP POP POP DUP2 MSTORE PUSH1 0x20 ADD PUSH1 0x1 DUP3 ADD DUP1 SLOAD PUSH2 0x2366 SWAP1 PUSH2 0x2C04 JUMP JUMPDEST DUP1 PUSH1 0x1F ADD PUSH1 0x20 DUP1 SWAP2 DIV MUL PUSH1 0x20 ADD PUSH1 0x40 MLOAD SWAP1 DUP2 ADD PUSH1 0x40 MSTORE DUP1 SWAP3 SWAP2 SWAP1 DUP2 DUP2 MSTORE PUSH1 0x20 ADD DUP3 DUP1 SLOAD PUSH2 0x2392 SWAP1 PUSH2 0x2C04 JUMP JUMPDEST DUP1 ISZERO PUSH2 0x23DD JUMPI DUP1 PUSH1 0x1F LT PUSH2 0x23B4 JUMPI PUSH2 0x100 DUP1 DUP4 SLOAD DIV MUL DUP4 MSTORE SWAP2 PUSH1 0x20 ADD SWAP2 PUSH2 0x23DD JUMP JUMPDEST DUP3 ADD SWAP2 SWAP1 PUSH0 MSTORE PUSH1 0x20 PUSH0 KECCAK256 SWAP1 JUMPDEST DUP2 SLOAD DUP2 MSTORE SWAP1 PUSH1 0x1 ADD SWAP1 PUSH1 0x20 ADD DUP1 DUP4 GT PUSH2 0x23C0 JUMPI DUP3 SWAP1 SUB PUSH1 0x1F AND DUP3 ADD SWAP2 JUMPDEST POP POP POP POP POP DUP2 MSTORE PUSH1 0x20 ADD PUSH1 0x2 DUP3 ADD DUP1 SLOAD PUSH2 0x23F6 SWAP1 PUSH2 0x2C04 JUMP JUMPDEST DUP1 PUSH1 0x1F ADD PUSH1 0x20 DUP1 SWAP2 DIV MUL PUSH1 0x20 ADD PUSH1 0x40 MLOAD SWAP1 DUP2 ADD PUSH1 0x40 MSTORE DUP1 SWAP3 SWAP2 SWAP1 DUP2 DUP2 MSTORE PUSH1 0x20 ADD DUP3 DUP1 SLOAD PUSH2 0x2422 SWAP1 PUSH2 0x2C04 JUMP JUMPDEST DUP1 ISZERO PUSH2 0x246D JUMPI DUP1 PUSH1 0x1F LT PUSH2 0x2444 JUMPI PUSH2 0x100 DUP1 DUP4 SLOAD DIV MUL DUP4 MSTORE SWAP2 PUSH1 0x20 ADD SWAP2 PUSH2 0x246D JUMP JUMPDEST DUP3 ADD SWAP2 SWAP1 PUSH0 MSTORE PUSH1 0x20 PUSH0 KECCAK256 SWAP1 JUMPDEST DUP2 SLOAD DUP2 MSTORE SWAP1 PUSH1 0x1 ADD SWAP1 PUSH1 0x20 ADD DUP1 DUP4 GT PUSH2 0x2450 JUMPI DUP3 SWAP1 SUB PUSH1 0x1F AND DUP3 ADD SWAP2 JUMPDEST POP POP POP POP POP DUP2 MSTORE PUSH1 0x20 ADD PUSH1 0x3 DUP3 ADD DUP1 SLOAD PUSH2 0x2486 SWAP1 PUSH2 0x2C04 JUMP JUMPDEST DUP1 PUSH1 0x1F ADD PUSH1 0x20 DUP1 SWAP2 DIV MUL PUSH1 0x20 ADD PUSH1 0x40 MLOAD SWAP1 DUP2 ADD PUSH1 0x40 MSTORE DUP1 SWAP3 SWAP2 SWAP1 DUP2 DUP2 MSTORE PUSH1 0x20 ADD DUP3 DUP1 SLOAD PUSH2 0x24B2 SWAP1 PUSH2 0x2C04 JUMP JUMPDEST DUP1 ISZERO PUSH2 0x24FD JUMPI DUP1 PUSH1 0x1F LT PUSH2 0x24D4 JUMPI PUSH2 0x100 DUP1 DUP4 SLOAD DIV MUL DUP4 MSTORE SWAP2 PUSH1 0x20 ADD SWAP2 PUSH2 0x24FD JUMP JUMPDEST DUP3 ADD SWAP2 SWAP1 PUSH0 MSTORE PUSH1 0x20 PUSH0 KECCAK256 SWAP1 JUMPDEST DUP2 SLOAD DUP2 MSTORE SWAP1 PUSH1 0x1 ADD SWAP1 PUSH1 0x20 ADD DUP1 DUP4 GT PUSH2 0x24E0 JUMPI DUP3 SWAP1 SUB PUSH1 0x1F AND DUP3 ADD SWAP2 JUMPDEST POP POP POP POP POP DUP2 MSTORE PUSH1 0x20 ADD PUSH1 0x4 DUP3 ADD SLOAD DUP2 MSTORE PUSH1 0x20 ADD PUSH1 0x5 DUP3 ADD DUP1 SLOAD PUSH2 0x2520 SWAP1 PUSH2 0x2C04 JUMP JUMPDEST DUP1 PUSH1 0x1F ADD PUSH1 0x20 DUP1 SWAP2 DIV MUL PUSH1 0x20 ADD PUSH1 0x40 MLOAD SWAP1 DUP2 ADD PUSH1 0x40 MSTORE DUP1 SWAP3 SWAP2 SWAP1 DUP2 DUP2 MSTORE PUSH1 0x20 ADD DUP3 DUP1 SLOAD PUSH2 0x254C SWAP1 PUSH2 0x2C04 JUMP JUMPDEST DUP1 ISZERO PUSH2 0x2597 JUMPI DUP1 PUSH1 0x1F LT PUSH2 0x256E JUMPI PUSH2 0x100 DUP1 DUP4 SLOAD DIV MUL DUP4 MSTORE SWAP2 PUSH1 0x20 ADD SWAP2 PUSH2 0x2597 JUMP JUMPDEST DUP3 ADD SWAP2 SWAP1 PUSH0 MSTORE PUSH1 0x20 PUSH0 KECCAK256 SWAP1 JUMPDEST DUP2 SLOAD DUP2 MSTORE SWAP1 PUSH1 0x1 ADD SWAP1 PUSH1 0x20 ADD DUP1 DUP4 GT PUSH2 0x257A JUMPI DUP3 SWAP1 SUB PUSH1 0x1F AND DUP3 ADD SWAP2 JUMPDEST POP POP POP POP POP DUP2 MSTORE PUSH1 0x20 ADD PUSH1 0x6 DUP3 ADD SLOAD DUP2 MSTORE PUSH1 0x20 ADD PUSH1 0x7 DUP3 ADD SLOAD DUP2 MSTORE POP POP SWAP1 POP SWAP2 SWAP1 POP JUMP JUMPDEST PUSH1 0x40 MLOAD DUP1 PUSH1 0x40 ADD PUSH1 0x40 MSTORE DUP1 PUSH1 0x2 SWAP1 PUSH1 0x20 DUP3 MUL DUP1 CALLDATASIZE DUP4 CALLDATACOPY POP SWAP2 SWAP3 SWAP2 POP POP JUMP JUMPDEST PUSH4 0x4E487B71 PUSH1 0xE0 SHL PUSH0 MSTORE PUSH1 0x41 PUSH1 0x4 MSTORE PUSH1 0x24 PUSH0 REVERT JUMPDEST PUSH1 0x40 MLOAD PUSH2 0x100 DUP2 ADD PUSH1 0x1 PUSH1 0x1 PUSH1 0x40 SHL SUB DUP2 GT DUP3 DUP3 LT OR ISZERO PUSH2 0x2610 JUMPI PUSH2 0x2610 PUSH2 0x25D9 JUMP JUMPDEST PUSH1 0x40 MSTORE SWAP1 JUMP JUMPDEST PUSH0 DUP3 PUSH1 0x1F DUP4 ADD SLT PUSH2 0x2625 JUMPI PUSH0 PUSH0 REVERT JUMPDEST DUP2 CALLDATALOAD PUSH1 0x1 PUSH1 0x1 PUSH1 0x40 SHL SUB DUP2 GT ISZERO PUSH2 0x263E JUMPI PUSH2 0x263E PUSH2 0x25D9 JUMP JUMPDEST PUSH1 0x40 MLOAD PUSH1 0x1F DUP3 ADD PUSH1 0x1F NOT SWAP1 DUP2 AND PUSH1 0x3F ADD AND DUP2 ADD PUSH1 0x1 PUSH1 0x1 PUSH1 0x40 SHL SUB DUP2 GT DUP3 DUP3 LT OR ISZERO PUSH2 0x266C JUMPI PUSH2 0x266C PUSH2 0x25D9 JUMP JUMPDEST PUSH1 0x40 MSTORE DUP2 DUP2 MSTORE DUP4 DUP3 ADD PUSH1 0x20 ADD DUP6 LT ISZERO PUSH2 0x2683 JUMPI PUSH0 PUSH0 REVERT JUMPDEST DUP2 PUSH1 0x20 DUP6 ADD PUSH1 0x20 DUP4 ADD CALLDATACOPY PUSH0 SWAP2 DUP2 ADD PUSH1 0x20 ADD SWAP2 SWAP1 SWAP2 MSTORE SWAP4 SWAP3 POP POP POP JUMP JUMPDEST PUSH0 PUSH1 0x20 DUP3 DUP5 SUB SLT ISZERO PUSH2 0x26AF JUMPI PUSH0 PUSH0 REVERT JUMPDEST DUP2 CALLDATALOAD PUSH1 0x1 PUSH1 0x1 PUSH1 0x40 SHL SUB DUP2 GT ISZERO PUSH2 0x26C4 JUMPI PUSH0 PUSH0 REVERT JUMPDEST DUP3 ADD PUSH2 0x100 DUP2 DUP6 SUB SLT ISZERO PUSH2 0x26D6 JUMPI PUSH0 PUSH0 REVERT JUMPDEST PUSH2 0x26DE PUSH2 0x25ED JUMP JUMPDEST DUP2 CALLDATALOAD PUSH1 0x1 PUSH1 0x1 PUSH1 0x40 SHL SUB DUP2 GT ISZERO PUSH2 0x26F3 JUMPI PUSH0 PUSH0 REVERT JUMPDEST PUSH2 0x26FF DUP7 DUP3 DUP6 ADD PUSH2 0x2616 JUMP JUMPDEST DUP3 MSTORE POP PUSH1 0x20 DUP3 ADD CALLDATALOAD PUSH1 0x1 PUSH1 0x1 PUSH1 0x40 SHL SUB DUP2 GT ISZERO PUSH2 0x271A JUMPI PUSH0 PUSH0 REVERT JUMPDEST PUSH2 0x2726 DUP7 DUP3 DUP6 ADD PUSH2 0x2616 JUMP JUMPDEST PUSH1 0x20 DUP4 ADD MSTORE POP PUSH1 0x40 DUP3 ADD CALLDATALOAD PUSH1 0x1 PUSH1 0x1 PUSH1 0x40 SHL SUB DUP2 GT ISZERO PUSH2 0x2744 JUMPI PUSH0 PUSH0 REVERT JUMPDEST PUSH2 0x2750 DUP7 DUP3 DUP6 ADD PUSH2 0x2616 JUMP JUMPDEST PUSH1 0x40 DUP4 ADD MSTORE POP PUSH1 0x60 DUP3 ADD CALLDATALOAD PUSH1 0x1 PUSH1 0x1 PUSH1 0x40 SHL SUB DUP2 GT ISZERO PUSH2 0x276E JUMPI PUSH0 PUSH0 REVERT JUMPDEST PUSH2 0x277A DUP7 DUP3 DUP6 ADD PUSH2 0x2616 JUMP JUMPDEST PUSH1 0x60 DUP4 ADD MSTORE POP PUSH1 0x80 DUP3 DUP2 ADD CALLDATALOAD SWAP1 DUP3 ADD MSTORE PUSH1 0xA0 DUP3 ADD CALLDATALOAD PUSH1 0x1 PUSH1 0x1 PUSH1 0x40 SHL SUB DUP2 GT ISZERO PUSH2 0x27A2 JUMPI PUSH0 PUSH0 REVERT JUMPDEST PUSH2 0x27AE DUP7 DUP3 DUP6 ADD PUSH2 0x2616 JUMP JUMPDEST PUSH1 0xA0 DUP4 ADD MSTORE POP PUSH1 0xC0 DUP3 DUP2 ADD CALLDATALOAD SWAP1 DUP3 ADD MSTORE PUSH1 0xE0 SWAP2 DUP3 ADD CALLDATALOAD SWAP2 DUP2 ADD SWAP2 SWAP1 SWAP2 MSTORE SWAP4 SWAP3 POP POP POP JUMP JUMPDEST PUSH0 PUSH1 0x20 DUP3 DUP5 SUB SLT ISZERO PUSH2 0x27E2 JUMPI PUSH0 PUSH0 REVERT JUMPDEST POP CALLDATALOAD SWAP2 SWAP1 POP JUMP JUMPDEST PUSH0 DUP2 MLOAD DUP1 DUP5 MSTORE DUP1 PUSH1 0x20 DUP5 ADD PUSH1 0x20 DUP7 ADD MCOPY PUSH0 PUSH1 0x20 DUP3 DUP7 ADD ADD MSTORE PUSH1 0x20 PUSH1 0x1F NOT PUSH1 0x1F DUP4 ADD AND DUP6 ADD ADD SWAP2 POP POP SWAP3 SWAP2 POP POP JUMP JUMPDEST PUSH1 0x1 PUSH1 0x1 PUSH1 0xA0 SHL SUB DUP8 AND DUP2 MSTORE PUSH1 0xC0 PUSH1 0x20 DUP3 ADD DUP2 SWAP1 MSTORE PUSH0 SWAP1 PUSH2 0x283A SWAP1 DUP4 ADD DUP9 PUSH2 0x27E9 JUMP JUMPDEST SWAP1 POP DUP6 PUSH1 0x40 DUP4 ADD MSTORE DUP5 PUSH1 0x60 DUP4 ADD MSTORE DUP4 PUSH1 0x80 DUP4 ADD MSTORE PUSH1 0xFF DUP4 AND PUSH1 0xA0 DUP4 ADD MSTORE SWAP8 SWAP7 POP POP POP POP POP POP POP JUMP JUMPDEST PUSH1 0x40 DUP2 ADD DUP2 DUP4 PUSH0 JUMPDEST PUSH1 0x2 DUP2 LT ISZERO PUSH2 0x2892 JUMPI DUP2 MLOAD PUSH1 0x1 PUSH1 0x1 PUSH1 0xA0 SHL SUB AND DUP4 MSTORE PUSH1 0x20 SWAP3 DUP4 ADD SWAP3 SWAP1 SWAP2 ADD SWAP1 PUSH1 0x1 ADD PUSH2 0x286A JUMP JUMPDEST POP POP POP SWAP3 SWAP2 POP POP JUMP JUMPDEST DUP1 CALLDATALOAD PUSH1 0x1 PUSH1 0x1 PUSH1 0xA0 SHL SUB DUP2 AND DUP2 EQ PUSH2 0x28B1 JUMPI PUSH0 PUSH0 REVERT JUMPDEST SWAP2 SWAP1 POP JUMP JUMPDEST PUSH0 PUSH0 PUSH1 0x40 DUP4 DUP6 SUB SLT ISZERO PUSH2 0x28C7 JUMPI PUSH0 PUSH0 REVERT JUMPDEST PUSH2 0x28D0 DUP4 PUSH2 0x289B JUMP JUMPDEST SWAP2 POP PUSH1 0x20 DUP4 ADD CALLDATALOAD DUP1 PUSH0 SIGNEXTEND DUP2 EQ PUSH2 0x28E4 JUMPI PUSH0 PUSH0 REVERT JUMPDEST DUP1 SWAP2 POP POP SWAP3 POP SWAP3 SWAP1 POP JUMP JUMPDEST PUSH0 DUP2 MLOAD PUSH2 0x100 DUP5 MSTORE PUSH2 0x2905 PUSH2 0x100 DUP6 ADD DUP3 PUSH2 0x27E9 JUMP JUMPDEST SWAP1 POP PUSH1 0x20 DUP4 ADD MLOAD DUP5 DUP3 SUB PUSH1 0x20 DUP7 ADD MSTORE PUSH2 0x291E DUP3 DUP3 PUSH2 0x27E9 JUMP JUMPDEST SWAP2 POP POP PUSH1 0x40 DUP4 ADD MLOAD DUP5 DUP3 SUB PUSH1 0x40 DUP7 ADD MSTORE PUSH2 0x2938 DUP3 DUP3 PUSH2 0x27E9 JUMP JUMPDEST SWAP2 POP POP PUSH1 0x60 DUP4 ADD MLOAD DUP5 DUP3 SUB PUSH1 0x60 DUP7 ADD MSTORE PUSH2 0x2952 DUP3 DUP3 PUSH2 0x27E9 JUMP JUMPDEST SWAP2 POP POP PUSH1 0x80 DUP4 ADD MLOAD PUSH1 0x80 DUP6 ADD MSTORE PUSH1 0xA0 DUP4 ADD MLOAD DUP5 DUP3 SUB PUSH1 0xA0 DUP7 ADD MSTORE PUSH2 0x2976 DUP3 DUP3 PUSH2 0x27E9 JUMP JUMPDEST SWAP2 POP POP PUSH1 0xC0 DUP4 ADD MLOAD PUSH1 0xC0 DUP6 ADD MSTORE PUSH1 0xE0 DUP4 ADD MLOAD PUSH1 0xE0 DUP6 ADD MSTORE DUP1 SWAP2 POP POP SWAP3 SWAP2 POP POP JUMP JUMPDEST DUP3 DUP2 MSTORE PUSH1 0x40 PUSH1 0x20 DUP3 ADD MSTORE PUSH0 PUSH2 0x29AF PUSH1 0x40 DUP4 ADD DUP5 PUSH2 0x28EF JUMP JUMPDEST SWAP5 SWAP4 POP POP POP POP JUMP JUMPDEST PUSH0 PUSH1 0x20 DUP3 DUP5 SUB SLT ISZERO PUSH2 0x29C7 JUMPI PUSH0 PUSH0 REVERT JUMPDEST PUSH2 0x29D0 DUP3 PUSH2 0x289B JUMP JUMPDEST SWAP4 SWAP3 POP POP POP JUMP JUMPDEST DUP1 PUSH2 0x140 DUP2 ADD DUP4 LT ISZERO PUSH2 0x29E8 JUMPI PUSH0 PUSH0 REVERT JUMPDEST SWAP3 SWAP2 POP POP JUMP JUMPDEST PUSH0 PUSH0 PUSH2 0x280 DUP4 DUP6 SUB SLT ISZERO PUSH2 0x2A00 JUMPI PUSH0 PUSH0 REVERT JUMPDEST PUSH2 0x2A0A DUP5 DUP5 PUSH2 0x29D7 JUMP JUMPDEST SWAP2 POP PUSH2 0x2A1A DUP5 PUSH2 0x140 DUP6 ADD PUSH2 0x29D7 JUMP JUMPDEST SWAP1 POP SWAP3 POP SWAP3 SWAP1 POP JUMP JUMPDEST PUSH4 0x4E487B71 PUSH1 0xE0 SHL PUSH0 MSTORE PUSH1 0x21 PUSH1 0x4 MSTORE PUSH1 0x24 PUSH0 REVERT JUMPDEST PUSH1 0x20 DUP2 ADD PUSH1 0x5 DUP4 LT PUSH2 0x2A57 JUMPI PUSH4 0x4E487B71 PUSH1 0xE0 SHL PUSH0 MSTORE PUSH1 0x21 PUSH1 0x4 MSTORE PUSH1 0x24 PUSH0 REVERT JUMPDEST SWAP2 SWAP1 MSTORE SWAP1 JUMP JUMPDEST PUSH2 0x100 DUP2 MSTORE PUSH0 PUSH2 0x2A71 PUSH2 0x100 DUP4 ADD DUP12 PUSH2 0x27E9 JUMP JUMPDEST DUP3 DUP2 SUB PUSH1 0x20 DUP5 ADD MSTORE PUSH2 0x2A83 DUP2 DUP12 PUSH2 0x27E9 JUMP JUMPDEST SWAP1 POP DUP3 DUP2 SUB PUSH1 0x40 DUP5 ADD MSTORE PUSH2 0x2A97 DUP2 DUP11 PUSH2 0x27E9 JUMP JUMPDEST SWAP1 POP DUP3 DUP2 SUB PUSH1 0x60 DUP5 ADD MSTORE PUSH2 0x2AAB DUP2 DUP10 PUSH2 0x27E9 JUMP JUMPDEST SWAP1 POP DUP7 PUSH1 0x80 DUP5 ADD MSTORE DUP3 DUP2 SUB PUSH1 0xA0 DUP5 ADD MSTORE PUSH2 0x2AC5 DUP2 DUP8 PUSH2 0x27E9 JUMP JUMPDEST PUSH1 0xC0 DUP5 ADD SWAP6 SWAP1 SWAP6 MSTORE POP POP PUSH1 0xE0 ADD MSTORE SWAP7 SWAP6 POP POP POP POP POP POP JUMP JUMPDEST PUSH0 PUSH0 PUSH1 0x20 DUP4 DUP6 SUB SLT ISZERO PUSH2 0x2AEE JUMPI PUSH0 PUSH0 REVERT JUMPDEST DUP3 CALLDATALOAD PUSH1 0x1 PUSH1 0x1 PUSH1 0x40 SHL SUB DUP2 GT ISZERO PUSH2 0x2B03 JUMPI PUSH0 PUSH0 REVERT JUMPDEST DUP4 ADD PUSH1 0x1F DUP2 ADD DUP6 SGT PUSH2 0x2B13 JUMPI PUSH0 PUSH0 REVERT JUMPDEST DUP1 CALLDATALOAD PUSH1 0x1 PUSH1 0x1 PUSH1 0x40 SHL SUB DUP2 GT ISZERO PUSH2 0x2B28 JUMPI PUSH0 PUSH0 REVERT JUMPDEST DUP6 PUSH1 0x20 DUP3 PUSH1 0x5 SHL DUP5 ADD ADD GT ISZERO PUSH2 0x2B3C JUMPI PUSH0 PUSH0 REVERT JUMPDEST PUSH1 0x20 SWAP2 SWAP1 SWAP2 ADD SWAP6 SWAP1 SWAP5 POP SWAP3 POP POP POP JUMP JUMPDEST PUSH1 0xE0 DUP2 MSTORE PUSH0 PUSH2 0x2B5E PUSH1 0xE0 DUP4 ADD DUP11 PUSH2 0x27E9 JUMP JUMPDEST DUP3 DUP2 SUB PUSH1 0x20 DUP5 ADD MSTORE PUSH2 0x2B70 DUP2 DUP11 PUSH2 0x27E9 JUMP JUMPDEST SWAP1 POP DUP3 DUP2 SUB PUSH1 0x40 DUP5 ADD MSTORE PUSH2 0x2B84 DUP2 DUP10 PUSH2 0x27E9 JUMP JUMPDEST PUSH1 0x60 DUP5 ADD SWAP8 SWAP1 SWAP8 MSTORE POP POP PUSH1 0x80 DUP2 ADD SWAP4 SWAP1 SWAP4 MSTORE SWAP1 ISZERO ISZERO PUSH1 0xA0 DUP4 ADD MSTORE PUSH1 0xC0 SWAP1 SWAP2 ADD MSTORE SWAP4 SWAP3 POP POP POP JUMP JUMPDEST PUSH1 0x20 DUP2 MSTORE PUSH0 PUSH2 0x29D0 PUSH1 0x20 DUP4 ADD DUP5 PUSH2 0x28EF JUMP JUMPDEST PUSH0 DUP2 MLOAD DUP1 PUSH1 0x20 DUP5 ADD DUP6 MCOPY PUSH0 SWAP4 ADD SWAP3 DUP4 MSTORE POP SWAP1 SWAP2 SWAP1 POP JUMP JUMPDEST PUSH0 PUSH2 0x2BFA PUSH2 0x2BF4 PUSH2 0x2BEE PUSH2 0x2BE8 DUP6 DUP11 PUSH2 0x2BBD JUMP JUMPDEST DUP9 PUSH2 0x2BBD JUMP JUMPDEST DUP7 PUSH2 0x2BBD JUMP JUMPDEST DUP5 PUSH2 0x2BBD JUMP JUMPDEST SWAP7 SWAP6 POP POP POP POP POP POP JUMP JUMPDEST PUSH1 0x1 DUP2 DUP2 SHR SWAP1 DUP3 AND DUP1 PUSH2 0x2C18 JUMPI PUSH1 0x7F DUP3 AND SWAP2 POP JUMPDEST PUSH1 0x20 DUP3 LT DUP2 SUB PUSH2 0x2C36 JUMPI PUSH4 0x4E487B71 PUSH1 0xE0 SHL PUSH0 MSTORE PUSH1 0x22 PUSH1 0x4 MSTORE PUSH1 0x24 PUSH0 REVERT JUMPDEST POP SWAP2 SWAP1 POP JUMP JUMPDEST PUSH1 0x1F DUP3 GT ISZERO PUSH2 0x2C83 JUMPI DUP1 PUSH0 MSTORE PUSH1 0x20 PUSH0 KECCAK256 PUSH1 0x1F DUP5 ADD PUSH1 0x5 SHR DUP2 ADD PUSH1 0x20 DUP6 LT ISZERO PUSH2 0x2C61 JUMPI POP DUP1 JUMPDEST PUSH1 0x1F DUP5 ADD PUSH1 0x5 SHR DUP3 ADD SWAP2 POP JUMPDEST DUP2 DUP2 LT ISZERO PUSH2 0x2C80 JUMPI PUSH0 DUP2 SSTORE PUSH1 0x1 ADD PUSH2 0x2C6D JUMP JUMPDEST POP POP JUMPDEST POP POP POP JUMP JUMPDEST DUP2 MLOAD PUSH1 0x1 PUSH1 0x1 PUSH1 0x40 SHL SUB DUP2 GT ISZERO PUSH2 0x2CA1 JUMPI PUSH2 0x2CA1 PUSH2 0x25D9 JUMP JUMPDEST PUSH2 0x2CB5 DUP2 PUSH2 0x2CAF DUP5 SLOAD PUSH2 0x2C04 JUMP JUMPDEST DUP5 PUSH2 0x2C3C JUMP JUMPDEST PUSH1 0x20 PUSH1 0x1F DUP3 GT PUSH1 0x1 DUP2 EQ PUSH2 0x2CE7 JUMPI PUSH0 DUP4 ISZERO PUSH2 0x2CD0 JUMPI POP DUP5 DUP3 ADD MLOAD JUMPDEST PUSH0 NOT PUSH1 0x3 DUP6 SWAP1 SHL SHR NOT AND PUSH1 0x1 DUP5 SWAP1 SHL OR DUP5 SSTORE PUSH2 0x2C80 JUMP JUMPDEST PUSH0 DUP5 DUP2 MSTORE PUSH1 0x20 DUP2 KECCAK256 PUSH1 0x1F NOT DUP6 AND SWAP2 JUMPDEST DUP3 DUP2 LT ISZERO PUSH2 0x2D16 JUMPI DUP8 DUP6 ADD MLOAD DUP3 SSTORE PUSH1 0x20 SWAP5 DUP6 ADD SWAP5 PUSH1 0x1 SWAP1 SWAP3 ADD SWAP2 ADD PUSH2 0x2CF6 JUMP JUMPDEST POP DUP5 DUP3 LT ISZERO PUSH2 0x2D33 JUMPI DUP7 DUP5 ADD MLOAD PUSH0 NOT PUSH1 0x3 DUP8 SWAP1 SHL PUSH1 0xF8 AND SHR NOT AND DUP2 SSTORE JUMPDEST POP POP POP POP PUSH1 0x1 SWAP1 DUP2 SHL ADD SWAP1 SSTORE POP JUMP JUMPDEST PUSH4 0x4E487B71 PUSH1 0xE0 SHL PUSH0 MSTORE PUSH1 0x11 PUSH1 0x4 MSTORE PUSH1 0x24 PUSH0 REVERT JUMPDEST DUP2 DUP2 SUB DUP2 DUP2 GT ISZERO PUSH2 0x29E8 JUMPI PUSH2 0x29E8 PUSH2 0x2D42 JUMP JUMPDEST PUSH0 PUSH1 0x1 DUP3 ADD PUSH2 0x2D7A JUMPI PUSH2 0x2D7A PUSH2 0x2D42 JUMP JUMPDEST POP PUSH1 0x1 ADD SWAP1 JUMP JUMPDEST PUSH0 DUP2 PUSH2 0x2D8F JUMPI PUSH2 0x2D8F PUSH2 0x2D42 JUMP JUMPDEST POP PUSH0 NOT ADD SWAP1 JUMP JUMPDEST PUSH0 DUP3 DUP2 SIGNEXTEND SWAP1 DUP3 SWAP1 SIGNEXTEND SUB PUSH1 0x7F NOT DUP2 SLT PUSH1 0x7F DUP3 SGT OR ISZERO PUSH2 0x29E8 JUMPI PUSH2 0x29E8 PUSH2 0x2D42 JUMP JUMPDEST DUP1 DUP3 ADD DUP3 DUP2 SLT PUSH0 DUP4 SLT DUP1 ISZERO DUP3 AND DUP3 ISZERO DUP3 AND OR ISZERO PUSH2 0x2DD5 JUMPI PUSH2 0x2DD5 PUSH2 0x2D42 JUMP JUMPDEST POP POP SWAP3 SWAP2 POP POP JUMP JUMPDEST PUSH4 0x4E487B71 PUSH1 0xE0 SHL PUSH0 MSTORE PUSH1 0x32 PUSH1 0x4 MSTORE PUSH1 0x24 PUSH0 REVERT JUMPDEST PUSH0 PUSH1 0xFF DUP3 AND PUSH1 0xFF DUP2 SUB PUSH2 0x2E06 JUMPI PUSH2 0x2E06 PUSH2 0x2D42 JUMP JUMPDEST PUSH1 0x1 ADD SWAP3 SWAP2 POP POP JUMP JUMPDEST PUSH4 0xFFFFFFFF DUP2 DUP2 AND DUP4 DUP3 AND ADD SWAP1 DUP2 GT ISZERO PUSH2 0x29E8 JUMPI PUSH2 0x29E8 PUSH2 0x2D42 JUMP JUMPDEST PUSH0 DUP2 DUP4 DUP3 JUMPDEST PUSH1 0xA DUP2 LT ISZERO PUSH2 0x2E60 JUMPI PUSH1 0x1 PUSH1 0x1 PUSH1 0xA0 SHL SUB PUSH2 0x2E4A DUP4 PUSH2 0x289B JUMP JUMPDEST AND DUP4 MSTORE PUSH1 0x20 SWAP3 DUP4 ADD SWAP3 SWAP2 SWAP1 SWAP2 ADD SWAP1 PUSH1 0x1 ADD PUSH2 0x2E30 JUMP JUMPDEST POP POP POP PUSH2 0x140 DUP3 ADD SWAP1 POP SWAP3 SWAP2 POP POP JUMP JUMPDEST PUSH1 0xFF DUP2 DUP2 AND DUP4 DUP3 AND MUL SWAP1 DUP2 AND SWAP1 DUP2 DUP2 EQ PUSH2 0x2E8C JUMPI PUSH2 0x2E8C PUSH2 0x2D42 JUMP JUMPDEST POP SWAP3 SWAP2 POP POP JUMP JUMPDEST DUP1 DUP3 ADD DUP1 DUP3 GT ISZERO PUSH2 0x29E8 JUMPI PUSH2 0x29E8 PUSH2 0x2D42 JUMP INVALID LOG2 PUSH5 0x6970667358 0x22 SLT KECCAK256 NOT PUSH4 0x7200D146 MULMOD 0xCB 0xC4 0xA8 SMOD 0xBA DUP10 0x4C ADD 0xEA BASEFEE 0xC8 PUSH8 0x68651B004AC752FA PUSH17 0x7BB3E8D764736F6C634300081C00330000 "
		},
		"gasEstimates": {
			"creation": {
				"codeDepositCost": "2399200",
				"executionCost": "infinite",
				"totalCost": "infinite"
			},
			"external": {
				"GOV_LENGTH()": "284",
				"MAX_APPROVALS()": "305",
				"MIN_DRAFTS()": "249",
				"MIN_VOTERS()": "292",
				"N_MEMBERS()": "314",
				"RANDOM_VOTERS()": "293",
				"REF_VOTER_BATCH()": "314",
				"REG_TIME()": "240",
				"REQUIRED_SCORE()": "306",
				"SUBMISSION_FEE()": "283",
				"addedVoterCount()": "2375",
				"approveRegistrar(address,int8)": "80527",
				"candidateInfo(address)": "infinite",
				"candidateList(uint256)": "4656",
				"constitutionDrafts(uint256)": "infinite",
				"electionEnd()": "2360",
				"getConstitution(uint256)": "infinite",
				"getCurrentPhase()": "infinite",
				"getReferendumResults()": "infinite",
				"getRegistrarsOfHash(bytes32)": "infinite",
				"getVoterStatus(address)": "2579",
				"neutral()": "2404",
				"proposals(uint256)": "infinite",
				"ratifiedConstitutionId()": "2382",
				"referendumEndTime()": "2406",
				"referendumVoterCount()": "2356",
				"registerVoterBatch(bytes32[10],address[10])": "infinite",
				"startReferendum()": "infinite",
				"startTime()": "infinite",
				"submitDraft((string,string,string,string,bytes32,string,uint256,uint256))": "infinite",
				"voteInReferendum(uint256[])": "infinite"
			}
		},
		"methodIdentifiers": {
			"GOV_LENGTH()": "5004e24a",
			"MAX_APPROVALS()": "beb54795",
			"MIN_DRAFTS()": "86a0dd7d",
			"MIN_VOTERS()": "d1791ae0",
			"N_MEMBERS()": "e292bf16",
			"RANDOM_VOTERS()": "3def77b7",
			"REF_VOTER_BATCH()": "8325ed2d",
			"REG_TIME()": "47f7b722",
			"REQUIRED_SCORE()": "54c17527",
			"SUBMISSION_FEE()": "7d48536d",
			"addedVoterCount()": "1b408934",
			"approveRegistrar(address,int8)": "29c83be1",
			"candidateInfo(address)": "e965b7c9",
			"candidateList(uint256)": "b13c744b",
			"constitutionDrafts(uint256)": "bbea6f0b",
			"electionEnd()": "ce7ea161",
			"getConstitution(uint256)": "f3a4aba9",
			"getCurrentPhase()": "a3a40ea5",
			"getReferendumResults()": "452d32bb",
			"getRegistrarsOfHash(bytes32)": "08ec6a19",
			"getVoterStatus(address)": "78e3ef20",
			"neutral()": "4d0c8726",
			"proposals(uint256)": "013cf08b",
			"ratifiedConstitutionId()": "eedb2d28",
			"referendumEndTime()": "b0feb260",
			"referendumVoterCount()": "e42a54c4",
			"registerVoterBatch(bytes32[10],address[10])": "99b0d39c",
			"startReferendum()": "be003ee6",
			"startTime()": "78e97925",
			"submitDraft((string,string,string,string,bytes32,string,uint256,uint256))": "00fa88e2",
			"voteInReferendum(uint256[])": "c1b13157"
		}
	},
	"abi": [
		{
			"anonymous": false,
			"inputs": [
				{
					"indexed": true,
					"internalType": "uint256",
					"name": "draftId",
					"type": "uint256"
				},
				{
					"components": [
						{
							"internalType": "string",
							"name": "description",
							"type": "string"
						},
						{
							"internalType": "string",
							"name": "constitutionText",
							"type": "string"
						},
						{
							"internalType": "string",
							"name": "implementationCode",
							"type": "string"
						},
						{
							"internalType": "string",
							"name": "submitterIdentity",
							"type": "string"
						},
						{
							"internalType": "bytes32",
							"name": "hashedOffChain",
							"type": "bytes32"
						},
						{
							"internalType": "string",
							"name": "supportingMaterials",
							"type": "string"
						},
						{
							"internalType": "uint256",
							"name": "submittedAt",
							"type": "uint256"
						},
						{
							"internalType": "uint256",
							"name": "voteCount",
							"type": "uint256"
						}
					],
					"indexed": false,
					"internalType": "struct Referendum.ConstitutionDraft",
					"name": "draft",
					"type": "tuple"
				}
			],
			"name": "ConstitutionDraftSubmitted",
			"type": "event"
		},
		{
			"anonymous": false,
			"inputs": [
				{
					"indexed": true,
					"internalType": "uint256",
					"name": "winningProposalId",
					"type": "uint256"
				},
				{
					"components": [
						{
							"internalType": "string",
							"name": "description",
							"type": "string"
						},
						{
							"internalType": "string",
							"name": "constitutionText",
							"type": "string"
						},
						{
							"internalType": "string",
							"name": "implementationCode",
							"type": "string"
						},
						{
							"internalType": "string",
							"name": "submitterIdentity",
							"type": "string"
						},
						{
							"internalType": "bytes32",
							"name": "hashedOffChain",
							"type": "bytes32"
						},
						{
							"internalType": "string",
							"name": "supportingMaterials",
							"type": "string"
						},
						{
							"internalType": "uint256",
							"name": "submittedAt",
							"type": "uint256"
						},
						{
							"internalType": "uint256",
							"name": "voteCount",
							"type": "uint256"
						}
					],
					"indexed": false,
					"internalType": "struct Referendum.ConstitutionDraft",
					"name": "ratifiedConstitution",
					"type": "tuple"
				}
			],
			"name": "ConstitutionRatified",
			"type": "event"
		},
		{
			"anonymous": false,
			"inputs": [],
			"name": "ReferendumStarted",
			"type": "event"
		},
		{
			"anonymous": false,
			"inputs": [
				{
					"indexed": true,
					"internalType": "address",
					"name": "voter",
					"type": "address"
				}
			],
			"name": "ReferendumVoteCast",
			"type": "event"
		},
		{
			"anonymous": false,
			"inputs": [
				{
					"indexed": true,
					"internalType": "address[10]",
					"name": "voter",
					"type": "address[10]"
				},
				{
					"indexed": false,
					"internalType": "address",
					"name": "registrar",
					"type": "address"
				},
				{
					"indexed": false,
					"internalType": "uint256",
					"name": "referendumVoterCount",
					"type": "uint256"
				}
			],
			"name": "VoterRegistered",
			"type": "event"
		},
		{
			"inputs": [],
			"name": "GOV_LENGTH",
			"outputs": [
				{
					"internalType": "uint256",
					"name": "",
					"type": "uint256"
				}
			],
			"stateMutability": "view",
			"type": "function"
		},
		{
			"inputs": [],
			"name": "MAX_APPROVALS",
			"outputs": [
				{
					"internalType": "uint256",
					"name": "",
					"type": "uint256"
				}
			],
			"stateMutability": "view",
			"type": "function"
		},
		{
			"inputs": [],
			"name": "MIN_DRAFTS",
			"outputs": [
				{
					"internalType": "uint8",
					"name": "",
					"type": "uint8"
				}
			],
			"stateMutability": "view",
			"type": "function"
		},
		{
			"inputs": [],
			"name": "MIN_VOTERS",
			"outputs": [
				{
					"internalType": "uint32",
					"name": "",
					"type": "uint32"
				}
			],
			"stateMutability": "view",
			"type": "function"
		},
		{
			"inputs": [],
			"name": "N_MEMBERS",
			"outputs": [
				{
					"internalType": "uint8",
					"name": "",
					"type": "uint8"
				}
			],
			"stateMutability": "view",
			"type": "function"
		},
		{
			"inputs": [],
			"name": "RANDOM_VOTERS",
			"outputs": [
				{
					"internalType": "uint32",
					"name": "",
					"type": "uint32"
				}
			],
			"stateMutability": "view",
			"type": "function"
		},
		{
			"inputs": [],
			"name": "REF_VOTER_BATCH",
			"outputs": [
				{
					"internalType": "uint32",
					"name": "",
					"type": "uint32"
				}
			],
			"stateMutability": "view",
			"type": "function"
		},
		{
			"inputs": [],
			"name": "REG_TIME",
			"outputs": [
				{
					"internalType": "uint256",
					"name": "",
					"type": "uint256"
				}
			],
			"stateMutability": "view",
			"type": "function"
		},
		{
			"inputs": [],
			"name": "REQUIRED_SCORE",
			"outputs": [
				{
					"internalType": "int256",
					"name": "",
					"type": "int256"
				}
			],
			"stateMutability": "view",
			"type": "function"
		},
		{
			"inputs": [],
			"name": "SUBMISSION_FEE",
			"outputs": [
				{
					"internalType": "uint256",
					"name": "",
					"type": "uint256"
				}
			],
			"stateMutability": "view",
			"type": "function"
		},
		{
			"inputs": [],
			"name": "addedVoterCount",
			"outputs": [
				{
					"internalType": "uint32",
					"name": "",
					"type": "uint32"
				}
			],
			"stateMutability": "view",
			"type": "function"
		},
		{
			"inputs": [
				{
					"internalType": "address",
					"name": "registrar",
					"type": "address"
				},
				{
					"internalType": "int8",
					"name": "vote",
					"type": "int8"
				}
			],
			"name": "approveRegistrar",
			"outputs": [],
			"stateMutability": "nonpayable",
			"type": "function"
		},
		{
			"inputs": [
				{
					"internalType": "address",
					"name": "",
					"type": "address"
				}
			],
			"name": "candidateInfo",
			"outputs": [
				{
					"internalType": "string",
					"name": "fullName",
					"type": "string"
				},
				{
					"internalType": "string",
					"name": "bio",
					"type": "string"
				},
				{
					"internalType": "string",
					"name": "website",
					"type": "string"
				},
				{
					"internalType": "uint256",
					"name": "registeredAt",
					"type": "uint256"
				},
				{
					"internalType": "uint256",
					"name": "voteCount",
					"type": "uint256"
				},
				{
					"internalType": "bool",
					"name": "electedMember",
					"type": "bool"
				},
				{
					"internalType": "uint256",
					"name": "leaderAt",
					"type": "uint256"
				}
			],
			"stateMutability": "view",
			"type": "function"
		},
		{
			"inputs": [
				{
					"internalType": "uint256",
					"name": "",
					"type": "uint256"
				}
			],
			"name": "candidateList",
			"outputs": [
				{
					"internalType": "address",
					"name": "",
					"type": "address"
				}
			],
			"stateMutability": "view",
			"type": "function"
		},
		{
			"inputs": [
				{
					"internalType": "uint256",
					"name": "",
					"type": "uint256"
				}
			],
			"name": "constitutionDrafts",
			"outputs": [
				{
					"internalType": "string",
					"name": "description",
					"type": "string"
				},
				{
					"internalType": "string",
					"name": "constitutionText",
					"type": "string"
				},
				{
					"internalType": "string",
					"name": "implementationCode",
					"type": "string"
				},
				{
					"internalType": "string",
					"name": "submitterIdentity",
					"type": "string"
				},
				{
					"internalType": "bytes32",
					"name": "hashedOffChain",
					"type": "bytes32"
				},
				{
					"internalType": "string",
					"name": "supportingMaterials",
					"type": "string"
				},
				{
					"internalType": "uint256",
					"name": "submittedAt",
					"type": "uint256"
				},
				{
					"internalType": "uint256",
					"name": "voteCount",
					"type": "uint256"
				}
			],
			"stateMutability": "view",
			"type": "function"
		},
		{
			"inputs": [],
			"name": "electionEnd",
			"outputs": [
				{
					"internalType": "uint256",
					"name": "",
					"type": "uint256"
				}
			],
			"stateMutability": "view",
			"type": "function"
		},
		{
			"inputs": [
				{
					"internalType": "uint256",
					"name": "draftId",
					"type": "uint256"
				}
			],
			"name": "getConstitution",
			"outputs": [
				{
					"components": [
						{
							"internalType": "string",
							"name": "description",
							"type": "string"
						},
						{
							"internalType": "string",
							"name": "constitutionText",
							"type": "string"
						},
						{
							"internalType": "string",
							"name": "implementationCode",
							"type": "string"
						},
						{
							"internalType": "string",
							"name": "submitterIdentity",
							"type": "string"
						},
						{
							"internalType": "bytes32",
							"name": "hashedOffChain",
							"type": "bytes32"
						},
						{
							"internalType": "string",
							"name": "supportingMaterials",
							"type": "string"
						},
						{
							"internalType": "uint256",
							"name": "submittedAt",
							"type": "uint256"
						},
						{
							"internalType": "uint256",
							"name": "voteCount",
							"type": "uint256"
						}
					],
					"internalType": "struct Referendum.ConstitutionDraft",
					"name": "",
					"type": "tuple"
				}
			],
			"stateMutability": "view",
			"type": "function"
		},
		{
			"inputs": [],
			"name": "getCurrentPhase",
			"outputs": [
				{
					"internalType": "enum Phase",
					"name": "",
					"type": "uint8"
				}
			],
			"stateMutability": "nonpayable",
			"type": "function"
		},
		{
			"inputs": [],
			"name": "getReferendumResults",
			"outputs": [
				{
					"internalType": "uint256",
					"name": "",
					"type": "uint256"
				},
				{
					"components": [
						{
							"internalType": "string",
							"name": "description",
							"type": "string"
						},
						{
							"internalType": "string",
							"name": "constitutionText",
							"type": "string"
						},
						{
							"internalType": "string",
							"name": "implementationCode",
							"type": "string"
						},
						{
							"internalType": "string",
							"name": "submitterIdentity",
							"type": "string"
						},
						{
							"internalType": "bytes32",
							"name": "hashedOffChain",
							"type": "bytes32"
						},
						{
							"internalType": "string",
							"name": "supportingMaterials",
							"type": "string"
						},
						{
							"internalType": "uint256",
							"name": "submittedAt",
							"type": "uint256"
						},
						{
							"internalType": "uint256",
							"name": "voteCount",
							"type": "uint256"
						}
					],
					"internalType": "struct Referendum.ConstitutionDraft",
					"name": "",
					"type": "tuple"
				}
			],
			"stateMutability": "nonpayable",
			"type": "function"
		},
		{
			"inputs": [
				{
					"internalType": "bytes32",
					"name": "voterHash",
					"type": "bytes32"
				}
			],
			"name": "getRegistrarsOfHash",
			"outputs": [
				{
					"internalType": "address[2]",
					"name": "",
					"type": "address[2]"
				}
			],
			"stateMutability": "view",
			"type": "function"
		},
		{
			"inputs": [
				{
					"internalType": "address",
					"name": "voterAddress",
					"type": "address"
				}
			],
			"name": "getVoterStatus",
			"outputs": [
				{
					"internalType": "uint256",
					"name": "",
					"type": "uint256"
				}
			],
			"stateMutability": "view",
			"type": "function"
		},
		{
			"inputs": [],
			"name": "neutral",
			"outputs": [
				{
					"internalType": "address",
					"name": "",
					"type": "address"
				}
			],
			"stateMutability": "view",
			"type": "function"
		},
		{
			"inputs": [
				{
					"internalType": "uint256",
					"name": "",
					"type": "uint256"
				}
			],
			"name": "proposals",
			"outputs": [
				{
					"internalType": "address",
					"name": "proposer",
					"type": "address"
				},
				{
					"internalType": "string",
					"name": "provisions",
					"type": "string"
				},
				{
					"internalType": "uint256",
					"name": "proposedAt",
					"type": "uint256"
				},
				{
					"internalType": "uint256",
					"name": "executedAt",
					"type": "uint256"
				},
				{
					"internalType": "uint256",
					"name": "withdrawnAt",
					"type": "uint256"
				},
				{
					"internalType": "uint8",
					"name": "yesVotes",
					"type": "uint8"
				}
			],
			"stateMutability": "view",
			"type": "function"
		},
		{
			"inputs": [],
			"name": "ratifiedConstitutionId",
			"outputs": [
				{
					"internalType": "uint256",
					"name": "",
					"type": "uint256"
				}
			],
			"stateMutability": "view",
			"type": "function"
		},
		{
			"inputs": [],
			"name": "referendumEndTime",
			"outputs": [
				{
					"internalType": "uint256",
					"name": "",
					"type": "uint256"
				}
			],
			"stateMutability": "view",
			"type": "function"
		},
		{
			"inputs": [],
			"name": "referendumVoterCount",
			"outputs": [
				{
					"internalType": "uint32",
					"name": "",
					"type": "uint32"
				}
			],
			"stateMutability": "view",
			"type": "function"
		},
		{
			"inputs": [
				{
					"internalType": "bytes32[10]",
					"name": "voterHashes",
					"type": "bytes32[10]"
				},
				{
					"internalType": "address[10]",
					"name": "voterAddresses",
					"type": "address[10]"
				}
			],
			"name": "registerVoterBatch",
			"outputs": [],
			"stateMutability": "nonpayable",
			"type": "function"
		},
		{
			"inputs": [],
			"name": "startReferendum",
			"outputs": [],
			"stateMutability": "nonpayable",
			"type": "function"
		},
		{
			"inputs": [],
			"name": "startTime",
			"outputs": [
				{
					"internalType": "uint256",
					"name": "",
					"type": "uint256"
				}
			],
			"stateMutability": "view",
			"type": "function"
		},
		{
			"inputs": [
				{
					"components": [
						{
							"internalType": "string",
							"name": "description",
							"type": "string"
						},
						{
							"internalType": "string",
							"name": "constitutionText",
							"type": "string"
						},
						{
							"internalType": "string",
							"name": "implementationCode",
							"type": "string"
						},
						{
							"internalType": "string",
							"name": "submitterIdentity",
							"type": "string"
						},
						{
							"internalType": "bytes32",
							"name": "hashedOffChain",
							"type": "bytes32"
						},
						{
							"internalType": "string",
							"name": "supportingMaterials",
							"type": "string"
						},
						{
							"internalType": "uint256",
							"name": "submittedAt",
							"type": "uint256"
						},
						{
							"internalType": "uint256",
							"name": "voteCount",
							"type": "uint256"
						}
					],
					"internalType": "struct Referendum.ConstitutionDraft",
					"name": "_draft",
					"type": "tuple"
				}
			],
			"name": "submitDraft",
			"outputs": [],
			"stateMutability": "payable",
			"type": "function"
		},
		{
			"inputs": [
				{
					"internalType": "uint256[]",
					"name": "_drafts",
					"type": "uint256[]"
				}
			],
			"name": "voteInReferendum",
			"outputs": [],
			"stateMutability": "nonpayable",
			"type": "function"
		}
	]
}