{
	"data": {
		"bytecode": {
			"linkReferences": {},
			"object": "60a0604052348015600e575f80fd5b506080516130446100275f395f6103e401526130445ff3fe6080604052600436106101da575f3560e01c806386a0dd7d116100fd578063c1b1315711610092578063e42a54c411610062578063e42a54c414610569578063e965b7c914610585578063eedb2d28146105b9578063f3a4aba9146105ce575f80fd5b8063c1b131571461050c578063ce7ea1611461052b578063d1791ae01461053f578063e292bf1614610555575f80fd5b8063bbea6f0b116100cd578063bbea6f0b1461049b578063be003ee6146104ce578063be07f0f8146104e2578063beb54795146104f7575f80fd5b806386a0dd7d14610420578063a3a40ea514610446578063b13c744b14610467578063bab752e514610486575f80fd5b8063491de4711161017357806354c175271161014357806354c175271461038b57806378e3ef201461039f57806378e97925146103d35780637d48536d14610406575f80fd5b8063491de4711461030b5780634d0c87261461031f5780635004e24a146103565780635204743a1461036c575f80fd5b80631b408934116101ae5780631b4089341461027d57806329c83be1146102b55780633def77b7146102d4578063452d32bb146102e9575f80fd5b8062fa88e2146101de578063013cf08b146101f357806308ec6a191461022d57806308fd4cfa14610259575b5f80fd5b6101f16101ec3660046127f7565b6105fa565b005b3480156101fe575f80fd5b5061021261020d36600461292a565b6109d1565b6040516102249695949392919061296f565b60405180910390f35b348015610238575f80fd5b5061024c61024736600461292a565b610aab565b60405161022491906129ba565b348015610264575f80fd5b5061026f6212750081565b604051908152602001610224565b348015610288575f80fd5b506002546102a090600160a01b900463ffffffff1681565b60405163ffffffff9091168152602001610224565b3480156102c0575f80fd5b506101f16102cf366004612a0e565b610afb565b3480156102df575f80fd5b506102a06104b081565b3480156102f4575f80fd5b506102fd610d01565b604051610224929190612aef565b348015610316575f80fd5b5061026f600281565b34801561032a575f80fd5b5060025461033e906001600160a01b031681565b6040516001600160a01b039091168152602001610224565b348015610361575f80fd5b5061026f625c490081565b348015610377575f80fd5b506101f1610386366004612b26565b611467565b348015610396575f80fd5b5061026f600a81565b3480156103aa575f80fd5b5061026f6103b9366004612b5b565b6001600160a01b03165f9081526009602052604090205490565b3480156103de575f80fd5b5061026f7f000000000000000000000000000000000000000000000000000000000000000081565b348015610411575f80fd5b5061026f66038d7ea4c6800081565b34801561042b575f80fd5b50610434600a81565b60405160ff9091168152602001610224565b348015610451575f80fd5b5061045a61196b565b6040516102249190612b8f565b348015610472575f80fd5b5061033e61048136600461292a565b611a3d565b348015610491575f80fd5b5061026f60065481565b3480156104a6575f80fd5b506104ba6104b536600461292a565b611a65565b604051610224989796959493929190612bb5565b3480156104d9575f80fd5b506101f1611d56565b3480156104ed575f80fd5b5061026f60015481565b348015610502575f80fd5b5061026f6103e881565b348015610517575f80fd5b506101f1610526366004612c35565b611ed5565b348015610536575f80fd5b5061026f5f5481565b34801561054a575f80fd5b506102a0620f424081565b348015610560575f80fd5b50610434603281565b348015610574575f80fd5b50600a546102a09063ffffffff1681565b348015610590575f80fd5b506105a461059f366004612b5b565b61217f565b60405161022499989796959493929190612ca4565b3480156105c4575f80fd5b5061026f600b5481565b3480156105d9575f80fd5b506105ed6105e836600461292a565b612356565b6040516102249190612d13565b335f9081526004602052604090206005015461064c5760405162461bcd60e51b815260206004820152600c60248201526b2737ba10309036b2b6b132b960a11b60448201526064015b60405180910390fd5b335f908152600460205260409020600801541561069f5760405162461bcd60e51b8152602060048201526011602482015270105b1c9958591e481cdd589b5a5d1d1959607a1b6044820152606401610643565b60036106a961196b565b60058111156106ba576106ba612b7b565b146106f55760405162461bcd60e51b815260206004820152600b60248201526a57726f6e6720706861736560a81b6044820152606401610643565b80515161073b5760405162461bcd60e51b815260206004820152601460248201527311195cd8dc9a5c1d1a5bdb881c995c5d5a5c995960621b6044820152606401610643565b5f8160200151511161078f5760405162461bcd60e51b815260206004820152601960248201527f636f6e737469747574696f6e54657874207265717569726564000000000000006044820152606401610643565b5f816060015151116107dc5760405162461bcd60e51b8152602060048201526016602482015275141c9bdc1bdcd95c881b985b59481c995c5d5a5c995960521b6044820152606401610643565b66038d7ea4c680003410156108335760405162461bcd60e51b815260206004820152601b60248201527f496e73756666696369656e74207375626d697373696f6e2066656500000000006044820152606401610643565b5f815f015182604001518360200151846060015160405160200161085a9493929190612d3c565b604051602081830303815290604052805190602001209050816080015181146108b75760405162461bcd60e51b815260206004820152600f60248201526e496e636f727265637420486173682160881b6044820152606401610643565b4260c08301525f60e08301819052600754338252600460205260409182902060080181905590517ff20c47478412252c3f85e5881b3cbee3e68a1ab2b3cd2d3fd8633ee288582e299061090b908590612d13565b60405180910390a2600780546001810182555f91909152825183916008027fa66cc928b5edb82af9bd49922954155ab7b0942694bea4ce44661d9a8736c688019081906109589082612df0565b506020820151600182019061096d9082612df0565b50604082015160028201906109829082612df0565b50606082015160038201906109979082612df0565b506080820151600482015560a082015160058201906109b69082612df0565b5060c0820151816006015560e0820151816007015550505050565b600581815481106109e0575f80fd5b5f918252602090912060079091020180546001820180546001600160a01b03909216935090610a0e90612d6c565b80601f0160208091040260200160405190810160405280929190818152602001828054610a3a90612d6c565b8015610a855780601f10610a5c57610100808354040283529160200191610a85565b820191905f5260205f20905b815481529060010190602001808311610a6857829003601f168201915b505050506002830154600384015460048501546005909501549394919390925060ff1686565b610ab36126ce565b5f82815260086020526040908190208151808301928390529160029082845b81546001600160a01b03168152600190910190602001808311610ad25750505050509050919050565b335f90815260046020526040902060050154610b485760405162461bcd60e51b815260206004820152600c60248201526b2737ba10309036b2b6b132b960a11b6044820152606401610643565b5f19815f0b12158015610b5e57506001815f0b13155b610baa5760405162461bcd60e51b815260206004820152601860248201527f566f7465206d757374206265202d312c20302c206f72203100000000000000006044820152606401610643565b335f908152600c602090815260408083206001600160a01b0386168452909152812054900b80158015610bdf5750815f0b5f14155b15610c5b57335f908152600e60205260409020546103e811610c375760405162461bcd60e51b815260206004820152601160248201527013585e081d9bdd195cc81c995858da1959607a1b6044820152606401610643565b335f908152600e60205260408120805491610c5183612ebe565b9190505550610c93565b805f0b5f14158015610c6e5750815f0b5f145b15610c9357335f908152600e60205260408120805491610c8d83612ed6565b91905055505b335f908152600c602090815260408083206001600160a01b03871684529091529020805460ff191660ff8416179055610ccc8183612eeb565b6001600160a01b0384165f908152600d60205260408120805492820b92909190610cf7908490612f0b565b9091555050505050565b5f610d0a6126ec565b600b541561103a57600b546007600b5481548110610d2a57610d2a612f32565b905f5260205f20906008020180604051806101000160405290815f82018054610d5290612d6c565b80601f0160208091040260200160405190810160405280929190818152602001828054610d7e90612d6c565b8015610dc95780601f10610da057610100808354040283529160200191610dc9565b820191905f5260205f20905b815481529060010190602001808311610dac57829003601f168201915b50505050508152602001600182018054610de290612d6c565b80601f0160208091040260200160405190810160405280929190818152602001828054610e0e90612d6c565b8015610e595780601f10610e3057610100808354040283529160200191610e59565b820191905f5260205f20905b815481529060010190602001808311610e3c57829003601f168201915b50505050508152602001600282018054610e7290612d6c565b80601f0160208091040260200160405190810160405280929190818152602001828054610e9e90612d6c565b8015610ee95780601f10610ec057610100808354040283529160200191610ee9565b820191905f5260205f20905b815481529060010190602001808311610ecc57829003601f168201915b50505050508152602001600382018054610f0290612d6c565b80601f0160208091040260200160405190810160405280929190818152602001828054610f2e90612d6c565b8015610f795780601f10610f5057610100808354040283529160200191610f79565b820191905f5260205f20905b815481529060010190602001808311610f5c57829003601f168201915b5050505050815260200160048201548152602001600582018054610f9c90612d6c565b80601f0160208091040260200160405190810160405280929190818152602001828054610fc890612d6c565b80156110135780601f10610fea57610100808354040283529160200191611013565b820191905f5260205f20905b815481529060010190602001808311610ff657829003601f168201915b50505050508152602001600682015481526020016007820154815250509050915091509091565b5f60065411801561104c575042600654105b6110985760405162461bcd60e51b815260206004820152601a60248201527f43616c6c206f6e6365206166746572205265666572656e64756d0000000000006044820152606401610643565b5f80805b6007548110156111015781600782815481106110ba576110ba612f32565b905f5260205f2090600802016007015411156110f957600781815481106110e3576110e3612f32565b905f5260205f2090600802016007015491508092505b60010161109c565b5081600b819055505f6007838154811061111d5761111d612f32565b905f5260205f209060080201604051806101000160405290815f8201805461114490612d6c565b80601f016020809104026020016040519081016040528092919081815260200182805461117090612d6c565b80156111bb5780601f10611192576101008083540402835291602001916111bb565b820191905f5260205f20905b81548152906001019060200180831161119e57829003601f168201915b505050505081526020016001820180546111d490612d6c565b80601f016020809104026020016040519081016040528092919081815260200182805461120090612d6c565b801561124b5780601f106112225761010080835404028352916020019161124b565b820191905f5260205f20905b81548152906001019060200180831161122e57829003601f168201915b5050505050815260200160028201805461126490612d6c565b80601f016020809104026020016040519081016040528092919081815260200182805461129090612d6c565b80156112db5780601f106112b2576101008083540402835291602001916112db565b820191905f5260205f20905b8154815290600101906020018083116112be57829003601f168201915b505050505081526020016003820180546112f490612d6c565b80601f016020809104026020016040519081016040528092919081815260200182805461132090612d6c565b801561136b5780601f106113425761010080835404028352916020019161136b565b820191905f5260205f20905b81548152906001019060200180831161134e57829003601f168201915b505050505081526020016004820154815260200160058201805461138e90612d6c565b80601f01602080910402602001604051908101604052809291908181526020018280546113ba90612d6c565b80156114055780601f106113dc57610100808354040283529160200191611405565b820191905f5260205f20905b8154815290600101906020018083116113e857829003601f168201915b50505050508152602001600682015481526020016007820154815250509050827f5716523a05c9d13997b5a619d69a47eba3d34842ff0b403eed7ca3a75b05c708826040516114549190612d13565b60405180910390a2919491935090915050565b335f908152600d6020526040902054600a13156114bc5760405162461bcd60e51b8152602060048201526013602482015272139bdd08195b9bdd59da08185c1c1c9bdd985b606a1b6044820152606401610643565b60036114c661196b565b60058111156114d7576114d7612b7b565b146115125760405162461bcd60e51b815260206004820152600b60248201526a57726f6e6720706861736560a81b6044820152606401610643565b5f5b600a60ff8216101561173c575f6008818460ff8516600a811061153957611539612f32565b602002013581526020019081526020015f205f6002811061155c5761155c612f32565b01546001600160a01b0316036115cc573360085f848460ff16600a811061158557611585612f32565b602002013581526020019081526020015f205f600281106115a8576115a8612f32565b0180546001600160a01b0319166001600160a01b039290921691909117905561172a565b5f6008818460ff8516600a81106115e5576115e5612f32565b602002013581526020019081526020015f2060016002811061160957611609612f32565b01546001600160a01b0316036116ea573360085f8460ff8516600a811061163257611632612f32565b602002013581526020019081526020015f205f6002811061165557611655612f32565b01546001600160a01b0316036116ad5760405162461bcd60e51b815260206004820152601b60248201527f526567697374726172206d75737420626520646966666572656e7400000000006044820152606401610643565b3360085f848460ff16600a81106116c6576116c6612f32565b602002013581526020019081526020015f206001600281106115a8576115a8612f32565b60405162461bcd60e51b815260206004820152601560248201527412185cda08185b1c9958591e481c9958dbdc991959605a1b6044820152606401610643565b8061173481612f46565b915050611514565b505f5b600a60ff821610156118da575f8360ff8316600a811061176157611761612f32565b6020020160208101906117749190612b5b565b6001600160a01b0316036117c25760405162461bcd60e51b8152602060048201526015602482015274496e76616c696420766f746572206164647265737360581b6044820152606401610643565b600260095f858460ff16600a81106117dc576117dc612f32565b6020020160208101906117ef9190612b5b565b6001600160a01b03166001600160a01b031681526020019081526020015f2054106118715760405162461bcd60e51b815260206004820152602c60248201527f4164647265737320616c7265616479207265676973746572656421205245474960448201526b5354524152204552524f522160a01b6064820152608401610643565b60095f848360ff16600a811061188957611889612f32565b60200201602081019061189c9190612b5b565b6001600160a01b0316815260208101919091526040015f9081208054916118c283612ebe565b919050555080806118d290612f46565b91505061173f565b50600a805481905f906118f490839063ffffffff16612f64565b92506101000a81548163ffffffff021916908363ffffffff160217905550816040516119209190612f80565b60408051918290038220600a5433845263ffffffff166020840152917f2ba0aaa9c0e5919bf5cb9fde7b2825194f9dc6e9ab2a9174c59892a1585c446a910160405180910390a25050565b5f60015442101561197b57505f90565b61198760326002612fc5565b60ff1660038054905010806119ad57506002546104b0600160a01b90910463ffffffff16105b156119bc57505f600181905590565b6001545f036119ee574260018190556119d9906212750090612fe8565b6119e69062015180612fe8565b5f5550600190565b60015f546119fc9190612ffb565b421015611a095750600190565b5f54421015611a185750600290565b6006545f03611a275750600390565b600654421015611a375750600490565b50600590565b60038181548110611a4c575f80fd5b5f918252602090912001546001600160a01b0316905081565b60078181548110611a74575f80fd5b905f5260205f2090600802015f91509050805f018054611a9390612d6c565b80601f0160208091040260200160405190810160405280929190818152602001828054611abf90612d6c565b8015611b0a5780601f10611ae157610100808354040283529160200191611b0a565b820191905f5260205f20905b815481529060010190602001808311611aed57829003601f168201915b505050505090806001018054611b1f90612d6c565b80601f0160208091040260200160405190810160405280929190818152602001828054611b4b90612d6c565b8015611b965780601f10611b6d57610100808354040283529160200191611b96565b820191905f5260205f20905b815481529060010190602001808311611b7957829003601f168201915b505050505090806002018054611bab90612d6c565b80601f0160208091040260200160405190810160405280929190818152602001828054611bd790612d6c565b8015611c225780601f10611bf957610100808354040283529160200191611c22565b820191905f5260205f20905b815481529060010190602001808311611c0557829003601f168201915b505050505090806003018054611c3790612d6c565b80601f0160208091040260200160405190810160405280929190818152602001828054611c6390612d6c565b8015611cae5780601f10611c8557610100808354040283529160200191611cae565b820191905f5260205f20905b815481529060010190602001808311611c9157829003601f168201915b505050505090806004015490806005018054611cc990612d6c565b80601f0160208091040260200160405190810160405280929190818152602001828054611cf590612d6c565b8015611d405780601f10611d1757610100808354040283529160200191611d40565b820191905f5260205f20905b815481529060010190602001808311611d2357829003601f168201915b5050505050908060060154908060070154905088565b42625c49005f54611d679190612fe8565b10611db45760405162461bcd60e51b815260206004820152601b60248201527f43616e6e6f74207374617274207265666572656e64756d2079657400000000006044820152606401610643565b600b5415611e045760405162461bcd60e51b815260206004820152601f60248201527f416c7265616479207261746966696564206120636f6e737469747574696f6e006044820152606401610643565b600754600a10611e4a5760405162461bcd60e51b81526020600482015260116024820152704e6f7420656e6f7567682064726166747360781b6044820152606401610643565b600a54620f424063ffffffff9091161015611e9b5760405162461bcd60e51b81526020600482015260116024820152704e6f7420656e6f75676820766f7465727360781b6044820152606401610643565b611ea84262015180612fe8565b6006556040517fa0ab6b515144b30d8222a12e45d1c1df7265286d8a0d9f73c23c8b06f6021871905f90a1565b6006544210611f1f5760405162461bcd60e51b81526020600482015260166024820152754e6f7420696e205265666572656e64756d2074696d6560501b6044820152606401610643565b600754811115611f665760405162461bcd60e51b8152602060048201526012602482015271125b9d985b1a5908191c98599d081b1a5cdd60721b6044820152606401610643565b335f90815260096020526040902054600214611fd05760405162461bcd60e51b8152602060048201526024808201527f566f746564206f72204e6f74207265676973746572656420656e6f7567682074604482015263696d657360e01b6064820152608401610643565b6007545f906001600160401b03811115611fec57611fec612731565b604051908082528060200260200182016040528015612015578160200160208202803683370190505b5090505f5b82811015612142575f84848381811061203557612035612f32565b90506020020135905060078054905081106120825760405162461bcd60e51b815260206004820152600d60248201526c125b9d985b1a5908191c98599d609a1b6044820152606401610643565b82818151811061209457612094612f32565b6020026020010151156120de5760405162461bcd60e51b815260206004820152601260248201527114995c195d1a5d1a5d9948191c98599d125960721b6044820152606401610643565b60018382815181106120f2576120f2612f32565b6020026020010190151590811515815250506007818154811061211757612117612f32565b5f9182526020822060076008909202010180549161213483612ebe565b90915550505060010161201a565b50335f81815260096020526040808220429055517f4b50b8927fd1b030f5404dc4394c2a5d30d7f6c6fa6d732c089ffe8c10f094219190a2505050565b60046020525f908152604090208054819061219990612d6c565b80601f01602080910402602001604051908101604052809291908181526020018280546121c590612d6c565b80156122105780601f106121e757610100808354040283529160200191612210565b820191905f5260205f20905b8154815290600101906020018083116121f357829003601f168201915b50505050509080600101805461222590612d6c565b80601f016020809104026020016040519081016040528092919081815260200182805461225190612d6c565b801561229c5780601f106122735761010080835404028352916020019161229c565b820191905f5260205f20905b81548152906001019060200180831161227f57829003601f168201915b5050505050908060020180546122b190612d6c565b80601f01602080910402602001604051908101604052809291908181526020018280546122dd90612d6c565b80156123285780601f106122ff57610100808354040283529160200191612328565b820191905f5260205f20905b81548152906001019060200180831161230b57829003601f168201915b5050505050908060030154908060040154908060050154908060060154908060070154908060080154905089565b61235e6126ec565b60075482106123af5760405162461bcd60e51b815260206004820152601d60248201527f496e76616c696420636f6e737469747574696f6e2064726166742049440000006044820152606401610643565b600782815481106123c2576123c2612f32565b905f5260205f209060080201604051806101000160405290815f820180546123e990612d6c565b80601f016020809104026020016040519081016040528092919081815260200182805461241590612d6c565b80156124605780601f1061243757610100808354040283529160200191612460565b820191905f5260205f20905b81548152906001019060200180831161244357829003601f168201915b5050505050815260200160018201805461247990612d6c565b80601f01602080910402602001604051908101604052809291908181526020018280546124a590612d6c565b80156124f05780601f106124c7576101008083540402835291602001916124f0565b820191905f5260205f20905b8154815290600101906020018083116124d357829003601f168201915b5050505050815260200160028201805461250990612d6c565b80601f016020809104026020016040519081016040528092919081815260200182805461253590612d6c565b80156125805780601f1061255757610100808354040283529160200191612580565b820191905f5260205f20905b81548152906001019060200180831161256357829003601f168201915b5050505050815260200160038201805461259990612d6c565b80601f01602080910402602001604051908101604052809291908181526020018280546125c590612d6c565b80156126105780601f106125e757610100808354040283529160200191612610565b820191905f5260205f20905b8154815290600101906020018083116125f357829003601f168201915b505050505081526020016004820154815260200160058201805461263390612d6c565b80601f016020809104026020016040519081016040528092919081815260200182805461265f90612d6c565b80156126aa5780601f10612681576101008083540402835291602001916126aa565b820191905f5260205f20905b81548152906001019060200180831161268d57829003601f168201915b50505050508152602001600682015481526020016007820154815250509050919050565b60405180604001604052806002906020820280368337509192915050565b604051806101000160405280606081526020016060815260200160608152602001606081526020015f8019168152602001606081526020015f81526020015f81525090565b634e487b7160e01b5f52604160045260245ffd5b60405161010081016001600160401b038111828210171561276857612768612731565b60405290565b5f82601f83011261277d575f80fd5b81356001600160401b0381111561279657612796612731565b604051601f8201601f19908116603f011681016001600160401b03811182821017156127c4576127c4612731565b6040528181528382016020018510156127db575f80fd5b816020850160208301375f918101602001919091529392505050565b5f60208284031215612807575f80fd5b81356001600160401b0381111561281c575f80fd5b8201610100818503121561282e575f80fd5b612836612745565b81356001600160401b0381111561284b575f80fd5b6128578682850161276e565b82525060208201356001600160401b03811115612872575f80fd5b61287e8682850161276e565b60208301525060408201356001600160401b0381111561289c575f80fd5b6128a88682850161276e565b60408301525060608201356001600160401b038111156128c6575f80fd5b6128d28682850161276e565b6060830152506080828101359082015260a08201356001600160401b038111156128fa575f80fd5b6129068682850161276e565b60a08301525060c0828101359082015260e091820135918101919091529392505050565b5f6020828403121561293a575f80fd5b5035919050565b5f81518084528060208401602086015e5f602082860101526020601f19601f83011685010191505092915050565b6001600160a01b038716815260c0602082018190525f9061299290830188612941565b905085604083015284606083015283608083015260ff831660a0830152979650505050505050565b6040810181835f5b60028110156129ea5781516001600160a01b03168352602092830192909101906001016129c2565b50505092915050565b80356001600160a01b0381168114612a09575f80fd5b919050565b5f8060408385031215612a1f575f80fd5b612a28836129f3565b91506020830135805f0b8114612a3c575f80fd5b809150509250929050565b5f81516101008452612a5d610100850182612941565b905060208301518482036020860152612a768282612941565b91505060408301518482036040860152612a908282612941565b91505060608301518482036060860152612aaa8282612941565b9150506080830151608085015260a083015184820360a0860152612ace8282612941565b91505060c083015160c085015260e083015160e08501528091505092915050565b828152604060208201525f612b076040830184612a47565b949350505050565b806101408101831015612b20575f80fd5b92915050565b5f806102808385031215612b38575f80fd5b612b428484612b0f565b9150612b52846101408501612b0f565b90509250929050565b5f60208284031215612b6b575f80fd5b612b74826129f3565b9392505050565b634e487b7160e01b5f52602160045260245ffd5b6020810160068310612baf57634e487b7160e01b5f52602160045260245ffd5b91905290565b61010081525f612bc961010083018b612941565b8281036020840152612bdb818b612941565b90508281036040840152612bef818a612941565b90508281036060840152612c038189612941565b905086608084015282810360a0840152612c1d8187612941565b60c0840195909552505060e001529695505050505050565b5f8060208385031215612c46575f80fd5b82356001600160401b03811115612c5b575f80fd5b8301601f81018513612c6b575f80fd5b80356001600160401b03811115612c80575f80fd5b8560208260051b8401011115612c94575f80fd5b6020919091019590945092505050565b61012081525f612cb861012083018c612941565b8281036020840152612cca818c612941565b90508281036040840152612cde818b612941565b60608401999099525050608081019590955260a085019390935260c084019190915260e0830152610100909101529392505050565b602081525f612b746020830184612a47565b5f81518060208401855e5f93019283525090919050565b5f612d62612d5c612d56612d50858a612d25565b88612d25565b86612d25565b84612d25565b9695505050505050565b600181811c90821680612d8057607f821691505b602082108103612d9e57634e487b7160e01b5f52602260045260245ffd5b50919050565b601f821115612deb57805f5260205f20601f840160051c81016020851015612dc95750805b601f840160051c820191505b81811015612de8575f8155600101612dd5565b50505b505050565b81516001600160401b03811115612e0957612e09612731565b612e1d81612e178454612d6c565b84612da4565b6020601f821160018114612e4f575f8315612e385750848201515b5f19600385901b1c1916600184901b178455612de8565b5f84815260208120601f198516915b82811015612e7e5787850151825560209485019460019092019101612e5e565b5084821015612e9b57868401515f19600387901b60f8161c191681555b50505050600190811b01905550565b634e487b7160e01b5f52601160045260245ffd5b5f60018201612ecf57612ecf612eaa565b5060010190565b5f81612ee457612ee4612eaa565b505f190190565b5f82810b9082900b03607f198112607f82131715612b2057612b20612eaa565b8082018281125f831280158216821582161715612f2a57612f2a612eaa565b505092915050565b634e487b7160e01b5f52603260045260245ffd5b5f60ff821660ff8103612f5b57612f5b612eaa565b60010192915050565b63ffffffff8181168382160190811115612b2057612b20612eaa565b5f8183825b600a811015612fb5576001600160a01b03612f9f836129f3565b1683526020928301929190910190600101612f85565b5050506101408201905092915050565b60ff8181168382160290811690818114612fe157612fe1612eaa565b5092915050565b80820180821115612b2057612b20612eaa565b81810381811115612b2057612b20612eaa56fea264697066735822122060ba792d30dd6671766116a1688ecf8f3326f772b47079ffa7c2f2255414181464736f6c634300081a0033",
			"opcodes": "PUSH1 0xA0 PUSH1 0x40 MSTORE CALLVALUE DUP1 ISZERO PUSH1 0xE JUMPI PUSH0 DUP1 REVERT JUMPDEST POP PUSH1 0x80 MLOAD PUSH2 0x3044 PUSH2 0x27 PUSH0 CODECOPY PUSH0 PUSH2 0x3E4 ADD MSTORE PUSH2 0x3044 PUSH0 RETURN INVALID PUSH1 0x80 PUSH1 0x40 MSTORE PUSH1 0x4 CALLDATASIZE LT PUSH2 0x1DA JUMPI PUSH0 CALLDATALOAD PUSH1 0xE0 SHR DUP1 PUSH4 0x86A0DD7D GT PUSH2 0xFD JUMPI DUP1 PUSH4 0xC1B13157 GT PUSH2 0x92 JUMPI DUP1 PUSH4 0xE42A54C4 GT PUSH2 0x62 JUMPI DUP1 PUSH4 0xE42A54C4 EQ PUSH2 0x569 JUMPI DUP1 PUSH4 0xE965B7C9 EQ PUSH2 0x585 JUMPI DUP1 PUSH4 0xEEDB2D28 EQ PUSH2 0x5B9 JUMPI DUP1 PUSH4 0xF3A4ABA9 EQ PUSH2 0x5CE JUMPI PUSH0 DUP1 REVERT JUMPDEST DUP1 PUSH4 0xC1B13157 EQ PUSH2 0x50C JUMPI DUP1 PUSH4 0xCE7EA161 EQ PUSH2 0x52B JUMPI DUP1 PUSH4 0xD1791AE0 EQ PUSH2 0x53F JUMPI DUP1 PUSH4 0xE292BF16 EQ PUSH2 0x555 JUMPI PUSH0 DUP1 REVERT JUMPDEST DUP1 PUSH4 0xBBEA6F0B GT PUSH2 0xCD JUMPI DUP1 PUSH4 0xBBEA6F0B EQ PUSH2 0x49B JUMPI DUP1 PUSH4 0xBE003EE6 EQ PUSH2 0x4CE JUMPI DUP1 PUSH4 0xBE07F0F8 EQ PUSH2 0x4E2 JUMPI DUP1 PUSH4 0xBEB54795 EQ PUSH2 0x4F7 JUMPI PUSH0 DUP1 REVERT JUMPDEST DUP1 PUSH4 0x86A0DD7D EQ PUSH2 0x420 JUMPI DUP1 PUSH4 0xA3A40EA5 EQ PUSH2 0x446 JUMPI DUP1 PUSH4 0xB13C744B EQ PUSH2 0x467 JUMPI DUP1 PUSH4 0xBAB752E5 EQ PUSH2 0x486 JUMPI PUSH0 DUP1 REVERT JUMPDEST DUP1 PUSH4 0x491DE471 GT PUSH2 0x173 JUMPI DUP1 PUSH4 0x54C17527 GT PUSH2 0x143 JUMPI DUP1 PUSH4 0x54C17527 EQ PUSH2 0x38B JUMPI DUP1 PUSH4 0x78E3EF20 EQ PUSH2 0x39F JUMPI DUP1 PUSH4 0x78E97925 EQ PUSH2 0x3D3 JUMPI DUP1 PUSH4 0x7D48536D EQ PUSH2 0x406 JUMPI PUSH0 DUP1 REVERT JUMPDEST DUP1 PUSH4 0x491DE471 EQ PUSH2 0x30B JUMPI DUP1 PUSH4 0x4D0C8726 EQ PUSH2 0x31F JUMPI DUP1 PUSH4 0x5004E24A EQ PUSH2 0x356 JUMPI DUP1 PUSH4 0x5204743A EQ PUSH2 0x36C JUMPI PUSH0 DUP1 REVERT JUMPDEST DUP1 PUSH4 0x1B408934 GT PUSH2 0x1AE JUMPI DUP1 PUSH4 0x1B408934 EQ PUSH2 0x27D JUMPI DUP1 PUSH4 0x29C83BE1 EQ PUSH2 0x2B5 JUMPI DUP1 PUSH4 0x3DEF77B7 EQ PUSH2 0x2D4 JUMPI DUP1 PUSH4 0x452D32BB EQ PUSH2 0x2E9 JUMPI PUSH0 DUP1 REVERT JUMPDEST DUP1 PUSH3 0xFA88E2 EQ PUSH2 0x1DE JUMPI DUP1 PUSH4 0x13CF08B EQ PUSH2 0x1F3 JUMPI DUP1 PUSH4 0x8EC6A19 EQ PUSH2 0x22D JUMPI DUP1 PUSH4 0x8FD4CFA EQ PUSH2 0x259 JUMPI JUMPDEST PUSH0 DUP1 REVERT JUMPDEST PUSH2 0x1F1 PUSH2 0x1EC CALLDATASIZE PUSH1 0x4 PUSH2 0x27F7 JUMP JUMPDEST PUSH2 0x5FA JUMP JUMPDEST STOP JUMPDEST CALLVALUE DUP1 ISZERO PUSH2 0x1FE JUMPI PUSH0 DUP1 REVERT JUMPDEST POP PUSH2 0x212 PUSH2 0x20D CALLDATASIZE PUSH1 0x4 PUSH2 0x292A JUMP JUMPDEST PUSH2 0x9D1 JUMP JUMPDEST PUSH1 0x40 MLOAD PUSH2 0x224 SWAP7 SWAP6 SWAP5 SWAP4 SWAP3 SWAP2 SWAP1 PUSH2 0x296F JUMP JUMPDEST PUSH1 0x40 MLOAD DUP1 SWAP2 SUB SWAP1 RETURN JUMPDEST CALLVALUE DUP1 ISZERO PUSH2 0x238 JUMPI PUSH0 DUP1 REVERT JUMPDEST POP PUSH2 0x24C PUSH2 0x247 CALLDATASIZE PUSH1 0x4 PUSH2 0x292A JUMP JUMPDEST PUSH2 0xAAB JUMP JUMPDEST PUSH1 0x40 MLOAD PUSH2 0x224 SWAP2 SWAP1 PUSH2 0x29BA JUMP JUMPDEST CALLVALUE DUP1 ISZERO PUSH2 0x264 JUMPI PUSH0 DUP1 REVERT JUMPDEST POP PUSH2 0x26F PUSH3 0x127500 DUP2 JUMP JUMPDEST PUSH1 0x40 MLOAD SWAP1 DUP2 MSTORE PUSH1 0x20 ADD PUSH2 0x224 JUMP JUMPDEST CALLVALUE DUP1 ISZERO PUSH2 0x288 JUMPI PUSH0 DUP1 REVERT JUMPDEST POP PUSH1 0x2 SLOAD PUSH2 0x2A0 SWAP1 PUSH1 0x1 PUSH1 0xA0 SHL SWAP1 DIV PUSH4 0xFFFFFFFF AND DUP2 JUMP JUMPDEST PUSH1 0x40 MLOAD PUSH4 0xFFFFFFFF SWAP1 SWAP2 AND DUP2 MSTORE PUSH1 0x20 ADD PUSH2 0x224 JUMP JUMPDEST CALLVALUE DUP1 ISZERO PUSH2 0x2C0 JUMPI PUSH0 DUP1 REVERT JUMPDEST POP PUSH2 0x1F1 PUSH2 0x2CF CALLDATASIZE PUSH1 0x4 PUSH2 0x2A0E JUMP JUMPDEST PUSH2 0xAFB JUMP JUMPDEST CALLVALUE DUP1 ISZERO PUSH2 0x2DF JUMPI PUSH0 DUP1 REVERT JUMPDEST POP PUSH2 0x2A0 PUSH2 0x4B0 DUP2 JUMP JUMPDEST CALLVALUE DUP1 ISZERO PUSH2 0x2F4 JUMPI PUSH0 DUP1 REVERT JUMPDEST POP PUSH2 0x2FD PUSH2 0xD01 JUMP JUMPDEST PUSH1 0x40 MLOAD PUSH2 0x224 SWAP3 SWAP2 SWAP1 PUSH2 0x2AEF JUMP JUMPDEST CALLVALUE DUP1 ISZERO PUSH2 0x316 JUMPI PUSH0 DUP1 REVERT JUMPDEST POP PUSH2 0x26F PUSH1 0x2 DUP2 JUMP JUMPDEST CALLVALUE DUP1 ISZERO PUSH2 0x32A JUMPI PUSH0 DUP1 REVERT JUMPDEST POP PUSH1 0x2 SLOAD PUSH2 0x33E SWAP1 PUSH1 0x1 PUSH1 0x1 PUSH1 0xA0 SHL SUB AND DUP2 JUMP JUMPDEST PUSH1 0x40 MLOAD PUSH1 0x1 PUSH1 0x1 PUSH1 0xA0 SHL SUB SWAP1 SWAP2 AND DUP2 MSTORE PUSH1 0x20 ADD PUSH2 0x224 JUMP JUMPDEST CALLVALUE DUP1 ISZERO PUSH2 0x361 JUMPI PUSH0 DUP1 REVERT JUMPDEST POP PUSH2 0x26F PUSH3 0x5C4900 DUP2 JUMP JUMPDEST CALLVALUE DUP1 ISZERO PUSH2 0x377 JUMPI PUSH0 DUP1 REVERT JUMPDEST POP PUSH2 0x1F1 PUSH2 0x386 CALLDATASIZE PUSH1 0x4 PUSH2 0x2B26 JUMP JUMPDEST PUSH2 0x1467 JUMP JUMPDEST CALLVALUE DUP1 ISZERO PUSH2 0x396 JUMPI PUSH0 DUP1 REVERT JUMPDEST POP PUSH2 0x26F PUSH1 0xA DUP2 JUMP JUMPDEST CALLVALUE DUP1 ISZERO PUSH2 0x3AA JUMPI PUSH0 DUP1 REVERT JUMPDEST POP PUSH2 0x26F PUSH2 0x3B9 CALLDATASIZE PUSH1 0x4 PUSH2 0x2B5B JUMP JUMPDEST PUSH1 0x1 PUSH1 0x1 PUSH1 0xA0 SHL SUB AND PUSH0 SWAP1 DUP2 MSTORE PUSH1 0x9 PUSH1 0x20 MSTORE PUSH1 0x40 SWAP1 KECCAK256 SLOAD SWAP1 JUMP JUMPDEST CALLVALUE DUP1 ISZERO PUSH2 0x3DE JUMPI PUSH0 DUP1 REVERT JUMPDEST POP PUSH2 0x26F PUSH32 0x0 DUP2 JUMP JUMPDEST CALLVALUE DUP1 ISZERO PUSH2 0x411 JUMPI PUSH0 DUP1 REVERT JUMPDEST POP PUSH2 0x26F PUSH7 0x38D7EA4C68000 DUP2 JUMP JUMPDEST CALLVALUE DUP1 ISZERO PUSH2 0x42B JUMPI PUSH0 DUP1 REVERT JUMPDEST POP PUSH2 0x434 PUSH1 0xA DUP2 JUMP JUMPDEST PUSH1 0x40 MLOAD PUSH1 0xFF SWAP1 SWAP2 AND DUP2 MSTORE PUSH1 0x20 ADD PUSH2 0x224 JUMP JUMPDEST CALLVALUE DUP1 ISZERO PUSH2 0x451 JUMPI PUSH0 DUP1 REVERT JUMPDEST POP PUSH2 0x45A PUSH2 0x196B JUMP JUMPDEST PUSH1 0x40 MLOAD PUSH2 0x224 SWAP2 SWAP1 PUSH2 0x2B8F JUMP JUMPDEST CALLVALUE DUP1 ISZERO PUSH2 0x472 JUMPI PUSH0 DUP1 REVERT JUMPDEST POP PUSH2 0x33E PUSH2 0x481 CALLDATASIZE PUSH1 0x4 PUSH2 0x292A JUMP JUMPDEST PUSH2 0x1A3D JUMP JUMPDEST CALLVALUE DUP1 ISZERO PUSH2 0x491 JUMPI PUSH0 DUP1 REVERT JUMPDEST POP PUSH2 0x26F PUSH1 0x6 SLOAD DUP2 JUMP JUMPDEST CALLVALUE DUP1 ISZERO PUSH2 0x4A6 JUMPI PUSH0 DUP1 REVERT JUMPDEST POP PUSH2 0x4BA PUSH2 0x4B5 CALLDATASIZE PUSH1 0x4 PUSH2 0x292A JUMP JUMPDEST PUSH2 0x1A65 JUMP JUMPDEST PUSH1 0x40 MLOAD PUSH2 0x224 SWAP9 SWAP8 SWAP7 SWAP6 SWAP5 SWAP4 SWAP3 SWAP2 SWAP1 PUSH2 0x2BB5 JUMP JUMPDEST CALLVALUE DUP1 ISZERO PUSH2 0x4D9 JUMPI PUSH0 DUP1 REVERT JUMPDEST POP PUSH2 0x1F1 PUSH2 0x1D56 JUMP JUMPDEST CALLVALUE DUP1 ISZERO PUSH2 0x4ED JUMPI PUSH0 DUP1 REVERT JUMPDEST POP PUSH2 0x26F PUSH1 0x1 SLOAD DUP2 JUMP JUMPDEST CALLVALUE DUP1 ISZERO PUSH2 0x502 JUMPI PUSH0 DUP1 REVERT JUMPDEST POP PUSH2 0x26F PUSH2 0x3E8 DUP2 JUMP JUMPDEST CALLVALUE DUP1 ISZERO PUSH2 0x517 JUMPI PUSH0 DUP1 REVERT JUMPDEST POP PUSH2 0x1F1 PUSH2 0x526 CALLDATASIZE PUSH1 0x4 PUSH2 0x2C35 JUMP JUMPDEST PUSH2 0x1ED5 JUMP JUMPDEST CALLVALUE DUP1 ISZERO PUSH2 0x536 JUMPI PUSH0 DUP1 REVERT JUMPDEST POP PUSH2 0x26F PUSH0 SLOAD DUP2 JUMP JUMPDEST CALLVALUE DUP1 ISZERO PUSH2 0x54A JUMPI PUSH0 DUP1 REVERT JUMPDEST POP PUSH2 0x2A0 PUSH3 0xF4240 DUP2 JUMP JUMPDEST CALLVALUE DUP1 ISZERO PUSH2 0x560 JUMPI PUSH0 DUP1 REVERT JUMPDEST POP PUSH2 0x434 PUSH1 0x32 DUP2 JUMP JUMPDEST CALLVALUE DUP1 ISZERO PUSH2 0x574 JUMPI PUSH0 DUP1 REVERT JUMPDEST POP PUSH1 0xA SLOAD PUSH2 0x2A0 SWAP1 PUSH4 0xFFFFFFFF AND DUP2 JUMP JUMPDEST CALLVALUE DUP1 ISZERO PUSH2 0x590 JUMPI PUSH0 DUP1 REVERT JUMPDEST POP PUSH2 0x5A4 PUSH2 0x59F CALLDATASIZE PUSH1 0x4 PUSH2 0x2B5B JUMP JUMPDEST PUSH2 0x217F JUMP JUMPDEST PUSH1 0x40 MLOAD PUSH2 0x224 SWAP10 SWAP9 SWAP8 SWAP7 SWAP6 SWAP5 SWAP4 SWAP3 SWAP2 SWAP1 PUSH2 0x2CA4 JUMP JUMPDEST CALLVALUE DUP1 ISZERO PUSH2 0x5C4 JUMPI PUSH0 DUP1 REVERT JUMPDEST POP PUSH2 0x26F PUSH1 0xB SLOAD DUP2 JUMP JUMPDEST CALLVALUE DUP1 ISZERO PUSH2 0x5D9 JUMPI PUSH0 DUP1 REVERT JUMPDEST POP PUSH2 0x5ED PUSH2 0x5E8 CALLDATASIZE PUSH1 0x4 PUSH2 0x292A JUMP JUMPDEST PUSH2 0x2356 JUMP JUMPDEST PUSH1 0x40 MLOAD PUSH2 0x224 SWAP2 SWAP1 PUSH2 0x2D13 JUMP JUMPDEST CALLER PUSH0 SWAP1 DUP2 MSTORE PUSH1 0x4 PUSH1 0x20 MSTORE PUSH1 0x40 SWAP1 KECCAK256 PUSH1 0x5 ADD SLOAD PUSH2 0x64C JUMPI PUSH1 0x40 MLOAD PUSH3 0x461BCD PUSH1 0xE5 SHL DUP2 MSTORE PUSH1 0x20 PUSH1 0x4 DUP3 ADD MSTORE PUSH1 0xC PUSH1 0x24 DUP3 ADD MSTORE PUSH12 0x2737BA10309036B2B6B132B9 PUSH1 0xA1 SHL PUSH1 0x44 DUP3 ADD MSTORE PUSH1 0x64 ADD JUMPDEST PUSH1 0x40 MLOAD DUP1 SWAP2 SUB SWAP1 REVERT JUMPDEST CALLER PUSH0 SWAP1 DUP2 MSTORE PUSH1 0x4 PUSH1 0x20 MSTORE PUSH1 0x40 SWAP1 KECCAK256 PUSH1 0x8 ADD SLOAD ISZERO PUSH2 0x69F JUMPI PUSH1 0x40 MLOAD PUSH3 0x461BCD PUSH1 0xE5 SHL DUP2 MSTORE PUSH1 0x20 PUSH1 0x4 DUP3 ADD MSTORE PUSH1 0x11 PUSH1 0x24 DUP3 ADD MSTORE PUSH17 0x105B1C9958591E481CDD589B5A5D1D1959 PUSH1 0x7A SHL PUSH1 0x44 DUP3 ADD MSTORE PUSH1 0x64 ADD PUSH2 0x643 JUMP JUMPDEST PUSH1 0x3 PUSH2 0x6A9 PUSH2 0x196B JUMP JUMPDEST PUSH1 0x5 DUP2 GT ISZERO PUSH2 0x6BA JUMPI PUSH2 0x6BA PUSH2 0x2B7B JUMP JUMPDEST EQ PUSH2 0x6F5 JUMPI PUSH1 0x40 MLOAD PUSH3 0x461BCD PUSH1 0xE5 SHL DUP2 MSTORE PUSH1 0x20 PUSH1 0x4 DUP3 ADD MSTORE PUSH1 0xB PUSH1 0x24 DUP3 ADD MSTORE PUSH11 0x57726F6E67207068617365 PUSH1 0xA8 SHL PUSH1 0x44 DUP3 ADD MSTORE PUSH1 0x64 ADD PUSH2 0x643 JUMP JUMPDEST DUP1 MLOAD MLOAD PUSH2 0x73B JUMPI PUSH1 0x40 MLOAD PUSH3 0x461BCD PUSH1 0xE5 SHL DUP2 MSTORE PUSH1 0x20 PUSH1 0x4 DUP3 ADD MSTORE PUSH1 0x14 PUSH1 0x24 DUP3 ADD MSTORE PUSH20 0x11195CD8DC9A5C1D1A5BDB881C995C5D5A5C9959 PUSH1 0x62 SHL PUSH1 0x44 DUP3 ADD MSTORE PUSH1 0x64 ADD PUSH2 0x643 JUMP JUMPDEST PUSH0 DUP2 PUSH1 0x20 ADD MLOAD MLOAD GT PUSH2 0x78F JUMPI PUSH1 0x40 MLOAD PUSH3 0x461BCD PUSH1 0xE5 SHL DUP2 MSTORE PUSH1 0x20 PUSH1 0x4 DUP3 ADD MSTORE PUSH1 0x19 PUSH1 0x24 DUP3 ADD MSTORE PUSH32 0x636F6E737469747574696F6E5465787420726571756972656400000000000000 PUSH1 0x44 DUP3 ADD MSTORE PUSH1 0x64 ADD PUSH2 0x643 JUMP JUMPDEST PUSH0 DUP2 PUSH1 0x60 ADD MLOAD MLOAD GT PUSH2 0x7DC JUMPI PUSH1 0x40 MLOAD PUSH3 0x461BCD PUSH1 0xE5 SHL DUP2 MSTORE PUSH1 0x20 PUSH1 0x4 DUP3 ADD MSTORE PUSH1 0x16 PUSH1 0x24 DUP3 ADD MSTORE PUSH22 0x141C9BDC1BDCD95C881B985B59481C995C5D5A5C9959 PUSH1 0x52 SHL PUSH1 0x44 DUP3 ADD MSTORE PUSH1 0x64 ADD PUSH2 0x643 JUMP JUMPDEST PUSH7 0x38D7EA4C68000 CALLVALUE LT ISZERO PUSH2 0x833 JUMPI PUSH1 0x40 MLOAD PUSH3 0x461BCD PUSH1 0xE5 SHL DUP2 MSTORE PUSH1 0x20 PUSH1 0x4 DUP3 ADD MSTORE PUSH1 0x1B PUSH1 0x24 DUP3 ADD MSTORE PUSH32 0x496E73756666696369656E74207375626D697373696F6E206665650000000000 PUSH1 0x44 DUP3 ADD MSTORE PUSH1 0x64 ADD PUSH2 0x643 JUMP JUMPDEST PUSH0 DUP2 PUSH0 ADD MLOAD DUP3 PUSH1 0x40 ADD MLOAD DUP4 PUSH1 0x20 ADD MLOAD DUP5 PUSH1 0x60 ADD MLOAD PUSH1 0x40 MLOAD PUSH1 0x20 ADD PUSH2 0x85A SWAP5 SWAP4 SWAP3 SWAP2 SWAP1 PUSH2 0x2D3C JUMP JUMPDEST PUSH1 0x40 MLOAD PUSH1 0x20 DUP2 DUP4 SUB SUB DUP2 MSTORE SWAP1 PUSH1 0x40 MSTORE DUP1 MLOAD SWAP1 PUSH1 0x20 ADD KECCAK256 SWAP1 POP DUP2 PUSH1 0x80 ADD MLOAD DUP2 EQ PUSH2 0x8B7 JUMPI PUSH1 0x40 MLOAD PUSH3 0x461BCD PUSH1 0xE5 SHL DUP2 MSTORE PUSH1 0x20 PUSH1 0x4 DUP3 ADD MSTORE PUSH1 0xF PUSH1 0x24 DUP3 ADD MSTORE PUSH15 0x496E636F7272656374204861736821 PUSH1 0x88 SHL PUSH1 0x44 DUP3 ADD MSTORE PUSH1 0x64 ADD PUSH2 0x643 JUMP JUMPDEST TIMESTAMP PUSH1 0xC0 DUP4 ADD MSTORE PUSH0 PUSH1 0xE0 DUP4 ADD DUP2 SWAP1 MSTORE PUSH1 0x7 SLOAD CALLER DUP3 MSTORE PUSH1 0x4 PUSH1 0x20 MSTORE PUSH1 0x40 SWAP2 DUP3 SWAP1 KECCAK256 PUSH1 0x8 ADD DUP2 SWAP1 SSTORE SWAP1 MLOAD PUSH32 0xF20C47478412252C3F85E5881B3CBEE3E68A1AB2B3CD2D3FD8633EE288582E29 SWAP1 PUSH2 0x90B SWAP1 DUP6 SWAP1 PUSH2 0x2D13 JUMP JUMPDEST PUSH1 0x40 MLOAD DUP1 SWAP2 SUB SWAP1 LOG2 PUSH1 0x7 DUP1 SLOAD PUSH1 0x1 DUP2 ADD DUP3 SSTORE PUSH0 SWAP2 SWAP1 SWAP2 MSTORE DUP3 MLOAD DUP4 SWAP2 PUSH1 0x8 MUL PUSH32 0xA66CC928B5EDB82AF9BD49922954155AB7B0942694BEA4CE44661D9A8736C688 ADD SWAP1 DUP2 SWAP1 PUSH2 0x958 SWAP1 DUP3 PUSH2 0x2DF0 JUMP JUMPDEST POP PUSH1 0x20 DUP3 ADD MLOAD PUSH1 0x1 DUP3 ADD SWAP1 PUSH2 0x96D SWAP1 DUP3 PUSH2 0x2DF0 JUMP JUMPDEST POP PUSH1 0x40 DUP3 ADD MLOAD PUSH1 0x2 DUP3 ADD SWAP1 PUSH2 0x982 SWAP1 DUP3 PUSH2 0x2DF0 JUMP JUMPDEST POP PUSH1 0x60 DUP3 ADD MLOAD PUSH1 0x3 DUP3 ADD SWAP1 PUSH2 0x997 SWAP1 DUP3 PUSH2 0x2DF0 JUMP JUMPDEST POP PUSH1 0x80 DUP3 ADD MLOAD PUSH1 0x4 DUP3 ADD SSTORE PUSH1 0xA0 DUP3 ADD MLOAD PUSH1 0x5 DUP3 ADD SWAP1 PUSH2 0x9B6 SWAP1 DUP3 PUSH2 0x2DF0 JUMP JUMPDEST POP PUSH1 0xC0 DUP3 ADD MLOAD DUP2 PUSH1 0x6 ADD SSTORE PUSH1 0xE0 DUP3 ADD MLOAD DUP2 PUSH1 0x7 ADD SSTORE POP POP POP POP JUMP JUMPDEST PUSH1 0x5 DUP2 DUP2 SLOAD DUP2 LT PUSH2 0x9E0 JUMPI PUSH0 DUP1 REVERT JUMPDEST PUSH0 SWAP2 DUP3 MSTORE PUSH1 0x20 SWAP1 SWAP2 KECCAK256 PUSH1 0x7 SWAP1 SWAP2 MUL ADD DUP1 SLOAD PUSH1 0x1 DUP3 ADD DUP1 SLOAD PUSH1 0x1 PUSH1 0x1 PUSH1 0xA0 SHL SUB SWAP1 SWAP3 AND SWAP4 POP SWAP1 PUSH2 0xA0E SWAP1 PUSH2 0x2D6C JUMP JUMPDEST DUP1 PUSH1 0x1F ADD PUSH1 0x20 DUP1 SWAP2 DIV MUL PUSH1 0x20 ADD PUSH1 0x40 MLOAD SWAP1 DUP2 ADD PUSH1 0x40 MSTORE DUP1 SWAP3 SWAP2 SWAP1 DUP2 DUP2 MSTORE PUSH1 0x20 ADD DUP3 DUP1 SLOAD PUSH2 0xA3A SWAP1 PUSH2 0x2D6C JUMP JUMPDEST DUP1 ISZERO PUSH2 0xA85 JUMPI DUP1 PUSH1 0x1F LT PUSH2 0xA5C JUMPI PUSH2 0x100 DUP1 DUP4 SLOAD DIV MUL DUP4 MSTORE SWAP2 PUSH1 0x20 ADD SWAP2 PUSH2 0xA85 JUMP JUMPDEST DUP3 ADD SWAP2 SWAP1 PUSH0 MSTORE PUSH1 0x20 PUSH0 KECCAK256 SWAP1 JUMPDEST DUP2 SLOAD DUP2 MSTORE SWAP1 PUSH1 0x1 ADD SWAP1 PUSH1 0x20 ADD DUP1 DUP4 GT PUSH2 0xA68 JUMPI DUP3 SWAP1 SUB PUSH1 0x1F AND DUP3 ADD SWAP2 JUMPDEST POP POP POP POP PUSH1 0x2 DUP4 ADD SLOAD PUSH1 0x3 DUP5 ADD SLOAD PUSH1 0x4 DUP6 ADD SLOAD PUSH1 0x5 SWAP1 SWAP6 ADD SLOAD SWAP4 SWAP5 SWAP2 SWAP4 SWAP1 SWAP3 POP PUSH1 0xFF AND DUP7 JUMP JUMPDEST PUSH2 0xAB3 PUSH2 0x26CE JUMP JUMPDEST PUSH0 DUP3 DUP2 MSTORE PUSH1 0x8 PUSH1 0x20 MSTORE PUSH1 0x40 SWAP1 DUP2 SWAP1 KECCAK256 DUP2 MLOAD DUP1 DUP4 ADD SWAP3 DUP4 SWAP1 MSTORE SWAP2 PUSH1 0x2 SWAP1 DUP3 DUP5 JUMPDEST DUP2 SLOAD PUSH1 0x1 PUSH1 0x1 PUSH1 0xA0 SHL SUB AND DUP2 MSTORE PUSH1 0x1 SWAP1 SWAP2 ADD SWAP1 PUSH1 0x20 ADD DUP1 DUP4 GT PUSH2 0xAD2 JUMPI POP POP POP POP POP SWAP1 POP SWAP2 SWAP1 POP JUMP JUMPDEST CALLER PUSH0 SWAP1 DUP2 MSTORE PUSH1 0x4 PUSH1 0x20 MSTORE PUSH1 0x40 SWAP1 KECCAK256 PUSH1 0x5 ADD SLOAD PUSH2 0xB48 JUMPI PUSH1 0x40 MLOAD PUSH3 0x461BCD PUSH1 0xE5 SHL DUP2 MSTORE PUSH1 0x20 PUSH1 0x4 DUP3 ADD MSTORE PUSH1 0xC PUSH1 0x24 DUP3 ADD MSTORE PUSH12 0x2737BA10309036B2B6B132B9 PUSH1 0xA1 SHL PUSH1 0x44 DUP3 ADD MSTORE PUSH1 0x64 ADD PUSH2 0x643 JUMP JUMPDEST PUSH0 NOT DUP2 PUSH0 SIGNEXTEND SLT ISZERO DUP1 ISZERO PUSH2 0xB5E JUMPI POP PUSH1 0x1 DUP2 PUSH0 SIGNEXTEND SGT ISZERO JUMPDEST PUSH2 0xBAA JUMPI PUSH1 0x40 MLOAD PUSH3 0x461BCD PUSH1 0xE5 SHL DUP2 MSTORE PUSH1 0x20 PUSH1 0x4 DUP3 ADD MSTORE PUSH1 0x18 PUSH1 0x24 DUP3 ADD MSTORE PUSH32 0x566F7465206D757374206265202D312C20302C206F7220310000000000000000 PUSH1 0x44 DUP3 ADD MSTORE PUSH1 0x64 ADD PUSH2 0x643 JUMP JUMPDEST CALLER PUSH0 SWAP1 DUP2 MSTORE PUSH1 0xC PUSH1 0x20 SWAP1 DUP2 MSTORE PUSH1 0x40 DUP1 DUP4 KECCAK256 PUSH1 0x1 PUSH1 0x1 PUSH1 0xA0 SHL SUB DUP7 AND DUP5 MSTORE SWAP1 SWAP2 MSTORE DUP2 KECCAK256 SLOAD SWAP1 SIGNEXTEND DUP1 ISZERO DUP1 ISZERO PUSH2 0xBDF JUMPI POP DUP2 PUSH0 SIGNEXTEND PUSH0 EQ ISZERO JUMPDEST ISZERO PUSH2 0xC5B JUMPI CALLER PUSH0 SWAP1 DUP2 MSTORE PUSH1 0xE PUSH1 0x20 MSTORE PUSH1 0x40 SWAP1 KECCAK256 SLOAD PUSH2 0x3E8 GT PUSH2 0xC37 JUMPI PUSH1 0x40 MLOAD PUSH3 0x461BCD PUSH1 0xE5 SHL DUP2 MSTORE PUSH1 0x20 PUSH1 0x4 DUP3 ADD MSTORE PUSH1 0x11 PUSH1 0x24 DUP3 ADD MSTORE PUSH17 0x13585E081D9BDD195CC81C995858DA1959 PUSH1 0x7A SHL PUSH1 0x44 DUP3 ADD MSTORE PUSH1 0x64 ADD PUSH2 0x643 JUMP JUMPDEST CALLER PUSH0 SWAP1 DUP2 MSTORE PUSH1 0xE PUSH1 0x20 MSTORE PUSH1 0x40 DUP2 KECCAK256 DUP1 SLOAD SWAP2 PUSH2 0xC51 DUP4 PUSH2 0x2EBE JUMP JUMPDEST SWAP2 SWAP1 POP SSTORE POP PUSH2 0xC93 JUMP JUMPDEST DUP1 PUSH0 SIGNEXTEND PUSH0 EQ ISZERO DUP1 ISZERO PUSH2 0xC6E JUMPI POP DUP2 PUSH0 SIGNEXTEND PUSH0 EQ JUMPDEST ISZERO PUSH2 0xC93 JUMPI CALLER PUSH0 SWAP1 DUP2 MSTORE PUSH1 0xE PUSH1 0x20 MSTORE PUSH1 0x40 DUP2 KECCAK256 DUP1 SLOAD SWAP2 PUSH2 0xC8D DUP4 PUSH2 0x2ED6 JUMP JUMPDEST SWAP2 SWAP1 POP SSTORE POP JUMPDEST CALLER PUSH0 SWAP1 DUP2 MSTORE PUSH1 0xC PUSH1 0x20 SWAP1 DUP2 MSTORE PUSH1 0x40 DUP1 DUP4 KECCAK256 PUSH1 0x1 PUSH1 0x1 PUSH1 0xA0 SHL SUB DUP8 AND DUP5 MSTORE SWAP1 SWAP2 MSTORE SWAP1 KECCAK256 DUP1 SLOAD PUSH1 0xFF NOT AND PUSH1 0xFF DUP5 AND OR SWAP1 SSTORE PUSH2 0xCCC DUP2 DUP4 PUSH2 0x2EEB JUMP JUMPDEST PUSH1 0x1 PUSH1 0x1 PUSH1 0xA0 SHL SUB DUP5 AND PUSH0 SWAP1 DUP2 MSTORE PUSH1 0xD PUSH1 0x20 MSTORE PUSH1 0x40 DUP2 KECCAK256 DUP1 SLOAD SWAP3 DUP3 SIGNEXTEND SWAP3 SWAP1 SWAP2 SWAP1 PUSH2 0xCF7 SWAP1 DUP5 SWAP1 PUSH2 0x2F0B JUMP JUMPDEST SWAP1 SWAP2 SSTORE POP POP POP POP POP JUMP JUMPDEST PUSH0 PUSH2 0xD0A PUSH2 0x26EC JUMP JUMPDEST PUSH1 0xB SLOAD ISZERO PUSH2 0x103A JUMPI PUSH1 0xB SLOAD PUSH1 0x7 PUSH1 0xB SLOAD DUP2 SLOAD DUP2 LT PUSH2 0xD2A JUMPI PUSH2 0xD2A PUSH2 0x2F32 JUMP JUMPDEST SWAP1 PUSH0 MSTORE PUSH1 0x20 PUSH0 KECCAK256 SWAP1 PUSH1 0x8 MUL ADD DUP1 PUSH1 0x40 MLOAD DUP1 PUSH2 0x100 ADD PUSH1 0x40 MSTORE SWAP1 DUP2 PUSH0 DUP3 ADD DUP1 SLOAD PUSH2 0xD52 SWAP1 PUSH2 0x2D6C JUMP JUMPDEST DUP1 PUSH1 0x1F ADD PUSH1 0x20 DUP1 SWAP2 DIV MUL PUSH1 0x20 ADD PUSH1 0x40 MLOAD SWAP1 DUP2 ADD PUSH1 0x40 MSTORE DUP1 SWAP3 SWAP2 SWAP1 DUP2 DUP2 MSTORE PUSH1 0x20 ADD DUP3 DUP1 SLOAD PUSH2 0xD7E SWAP1 PUSH2 0x2D6C JUMP JUMPDEST DUP1 ISZERO PUSH2 0xDC9 JUMPI DUP1 PUSH1 0x1F LT PUSH2 0xDA0 JUMPI PUSH2 0x100 DUP1 DUP4 SLOAD DIV MUL DUP4 MSTORE SWAP2 PUSH1 0x20 ADD SWAP2 PUSH2 0xDC9 JUMP JUMPDEST DUP3 ADD SWAP2 SWAP1 PUSH0 MSTORE PUSH1 0x20 PUSH0 KECCAK256 SWAP1 JUMPDEST DUP2 SLOAD DUP2 MSTORE SWAP1 PUSH1 0x1 ADD SWAP1 PUSH1 0x20 ADD DUP1 DUP4 GT PUSH2 0xDAC JUMPI DUP3 SWAP1 SUB PUSH1 0x1F AND DUP3 ADD SWAP2 JUMPDEST POP POP POP POP POP DUP2 MSTORE PUSH1 0x20 ADD PUSH1 0x1 DUP3 ADD DUP1 SLOAD PUSH2 0xDE2 SWAP1 PUSH2 0x2D6C JUMP JUMPDEST DUP1 PUSH1 0x1F ADD PUSH1 0x20 DUP1 SWAP2 DIV MUL PUSH1 0x20 ADD PUSH1 0x40 MLOAD SWAP1 DUP2 ADD PUSH1 0x40 MSTORE DUP1 SWAP3 SWAP2 SWAP1 DUP2 DUP2 MSTORE PUSH1 0x20 ADD DUP3 DUP1 SLOAD PUSH2 0xE0E SWAP1 PUSH2 0x2D6C JUMP JUMPDEST DUP1 ISZERO PUSH2 0xE59 JUMPI DUP1 PUSH1 0x1F LT PUSH2 0xE30 JUMPI PUSH2 0x100 DUP1 DUP4 SLOAD DIV MUL DUP4 MSTORE SWAP2 PUSH1 0x20 ADD SWAP2 PUSH2 0xE59 JUMP JUMPDEST DUP3 ADD SWAP2 SWAP1 PUSH0 MSTORE PUSH1 0x20 PUSH0 KECCAK256 SWAP1 JUMPDEST DUP2 SLOAD DUP2 MSTORE SWAP1 PUSH1 0x1 ADD SWAP1 PUSH1 0x20 ADD DUP1 DUP4 GT PUSH2 0xE3C JUMPI DUP3 SWAP1 SUB PUSH1 0x1F AND DUP3 ADD SWAP2 JUMPDEST POP POP POP POP POP DUP2 MSTORE PUSH1 0x20 ADD PUSH1 0x2 DUP3 ADD DUP1 SLOAD PUSH2 0xE72 SWAP1 PUSH2 0x2D6C JUMP JUMPDEST DUP1 PUSH1 0x1F ADD PUSH1 0x20 DUP1 SWAP2 DIV MUL PUSH1 0x20 ADD PUSH1 0x40 MLOAD SWAP1 DUP2 ADD PUSH1 0x40 MSTORE DUP1 SWAP3 SWAP2 SWAP1 DUP2 DUP2 MSTORE PUSH1 0x20 ADD DUP3 DUP1 SLOAD PUSH2 0xE9E SWAP1 PUSH2 0x2D6C JUMP JUMPDEST DUP1 ISZERO PUSH2 0xEE9 JUMPI DUP1 PUSH1 0x1F LT PUSH2 0xEC0 JUMPI PUSH2 0x100 DUP1 DUP4 SLOAD DIV MUL DUP4 MSTORE SWAP2 PUSH1 0x20 ADD SWAP2 PUSH2 0xEE9 JUMP JUMPDEST DUP3 ADD SWAP2 SWAP1 PUSH0 MSTORE PUSH1 0x20 PUSH0 KECCAK256 SWAP1 JUMPDEST DUP2 SLOAD DUP2 MSTORE SWAP1 PUSH1 0x1 ADD SWAP1 PUSH1 0x20 ADD DUP1 DUP4 GT PUSH2 0xECC JUMPI DUP3 SWAP1 SUB PUSH1 0x1F AND DUP3 ADD SWAP2 JUMPDEST POP POP POP POP POP DUP2 MSTORE PUSH1 0x20 ADD PUSH1 0x3 DUP3 ADD DUP1 SLOAD PUSH2 0xF02 SWAP1 PUSH2 0x2D6C JUMP JUMPDEST DUP1 PUSH1 0x1F ADD PUSH1 0x20 DUP1 SWAP2 DIV MUL PUSH1 0x20 ADD PUSH1 0x40 MLOAD SWAP1 DUP2 ADD PUSH1 0x40 MSTORE DUP1 SWAP3 SWAP2 SWAP1 DUP2 DUP2 MSTORE PUSH1 0x20 ADD DUP3 DUP1 SLOAD PUSH2 0xF2E SWAP1 PUSH2 0x2D6C JUMP JUMPDEST DUP1 ISZERO PUSH2 0xF79 JUMPI DUP1 PUSH1 0x1F LT PUSH2 0xF50 JUMPI PUSH2 0x100 DUP1 DUP4 SLOAD DIV MUL DUP4 MSTORE SWAP2 PUSH1 0x20 ADD SWAP2 PUSH2 0xF79 JUMP JUMPDEST DUP3 ADD SWAP2 SWAP1 PUSH0 MSTORE PUSH1 0x20 PUSH0 KECCAK256 SWAP1 JUMPDEST DUP2 SLOAD DUP2 MSTORE SWAP1 PUSH1 0x1 ADD SWAP1 PUSH1 0x20 ADD DUP1 DUP4 GT PUSH2 0xF5C JUMPI DUP3 SWAP1 SUB PUSH1 0x1F AND DUP3 ADD SWAP2 JUMPDEST POP POP POP POP POP DUP2 MSTORE PUSH1 0x20 ADD PUSH1 0x4 DUP3 ADD SLOAD DUP2 MSTORE PUSH1 0x20 ADD PUSH1 0x5 DUP3 ADD DUP1 SLOAD PUSH2 0xF9C SWAP1 PUSH2 0x2D6C JUMP JUMPDEST DUP1 PUSH1 0x1F ADD PUSH1 0x20 DUP1 SWAP2 DIV MUL PUSH1 0x20 ADD PUSH1 0x40 MLOAD SWAP1 DUP2 ADD PUSH1 0x40 MSTORE DUP1 SWAP3 SWAP2 SWAP1 DUP2 DUP2 MSTORE PUSH1 0x20 ADD DUP3 DUP1 SLOAD PUSH2 0xFC8 SWAP1 PUSH2 0x2D6C JUMP JUMPDEST DUP1 ISZERO PUSH2 0x1013 JUMPI DUP1 PUSH1 0x1F LT PUSH2 0xFEA JUMPI PUSH2 0x100 DUP1 DUP4 SLOAD DIV MUL DUP4 MSTORE SWAP2 PUSH1 0x20 ADD SWAP2 PUSH2 0x1013 JUMP JUMPDEST DUP3 ADD SWAP2 SWAP1 PUSH0 MSTORE PUSH1 0x20 PUSH0 KECCAK256 SWAP1 JUMPDEST DUP2 SLOAD DUP2 MSTORE SWAP1 PUSH1 0x1 ADD SWAP1 PUSH1 0x20 ADD DUP1 DUP4 GT PUSH2 0xFF6 JUMPI DUP3 SWAP1 SUB PUSH1 0x1F AND DUP3 ADD SWAP2 JUMPDEST POP POP POP POP POP DUP2 MSTORE PUSH1 0x20 ADD PUSH1 0x6 DUP3 ADD SLOAD DUP2 MSTORE PUSH1 0x20 ADD PUSH1 0x7 DUP3 ADD SLOAD DUP2 MSTORE POP POP SWAP1 POP SWAP2 POP SWAP2 POP SWAP1 SWAP2 JUMP JUMPDEST PUSH0 PUSH1 0x6 SLOAD GT DUP1 ISZERO PUSH2 0x104C JUMPI POP TIMESTAMP PUSH1 0x6 SLOAD LT JUMPDEST PUSH2 0x1098 JUMPI PUSH1 0x40 MLOAD PUSH3 0x461BCD PUSH1 0xE5 SHL DUP2 MSTORE PUSH1 0x20 PUSH1 0x4 DUP3 ADD MSTORE PUSH1 0x1A PUSH1 0x24 DUP3 ADD MSTORE PUSH32 0x43616C6C206F6E6365206166746572205265666572656E64756D000000000000 PUSH1 0x44 DUP3 ADD MSTORE PUSH1 0x64 ADD PUSH2 0x643 JUMP JUMPDEST PUSH0 DUP1 DUP1 JUMPDEST PUSH1 0x7 SLOAD DUP2 LT ISZERO PUSH2 0x1101 JUMPI DUP2 PUSH1 0x7 DUP3 DUP2 SLOAD DUP2 LT PUSH2 0x10BA JUMPI PUSH2 0x10BA PUSH2 0x2F32 JUMP JUMPDEST SWAP1 PUSH0 MSTORE PUSH1 0x20 PUSH0 KECCAK256 SWAP1 PUSH1 0x8 MUL ADD PUSH1 0x7 ADD SLOAD GT ISZERO PUSH2 0x10F9 JUMPI PUSH1 0x7 DUP2 DUP2 SLOAD DUP2 LT PUSH2 0x10E3 JUMPI PUSH2 0x10E3 PUSH2 0x2F32 JUMP JUMPDEST SWAP1 PUSH0 MSTORE PUSH1 0x20 PUSH0 KECCAK256 SWAP1 PUSH1 0x8 MUL ADD PUSH1 0x7 ADD SLOAD SWAP2 POP DUP1 SWAP3 POP JUMPDEST PUSH1 0x1 ADD PUSH2 0x109C JUMP JUMPDEST POP DUP2 PUSH1 0xB DUP2 SWAP1 SSTORE POP PUSH0 PUSH1 0x7 DUP4 DUP2 SLOAD DUP2 LT PUSH2 0x111D JUMPI PUSH2 0x111D PUSH2 0x2F32 JUMP JUMPDEST SWAP1 PUSH0 MSTORE PUSH1 0x20 PUSH0 KECCAK256 SWAP1 PUSH1 0x8 MUL ADD PUSH1 0x40 MLOAD DUP1 PUSH2 0x100 ADD PUSH1 0x40 MSTORE SWAP1 DUP2 PUSH0 DUP3 ADD DUP1 SLOAD PUSH2 0x1144 SWAP1 PUSH2 0x2D6C JUMP JUMPDEST DUP1 PUSH1 0x1F ADD PUSH1 0x20 DUP1 SWAP2 DIV MUL PUSH1 0x20 ADD PUSH1 0x40 MLOAD SWAP1 DUP2 ADD PUSH1 0x40 MSTORE DUP1 SWAP3 SWAP2 SWAP1 DUP2 DUP2 MSTORE PUSH1 0x20 ADD DUP3 DUP1 SLOAD PUSH2 0x1170 SWAP1 PUSH2 0x2D6C JUMP JUMPDEST DUP1 ISZERO PUSH2 0x11BB JUMPI DUP1 PUSH1 0x1F LT PUSH2 0x1192 JUMPI PUSH2 0x100 DUP1 DUP4 SLOAD DIV MUL DUP4 MSTORE SWAP2 PUSH1 0x20 ADD SWAP2 PUSH2 0x11BB JUMP JUMPDEST DUP3 ADD SWAP2 SWAP1 PUSH0 MSTORE PUSH1 0x20 PUSH0 KECCAK256 SWAP1 JUMPDEST DUP2 SLOAD DUP2 MSTORE SWAP1 PUSH1 0x1 ADD SWAP1 PUSH1 0x20 ADD DUP1 DUP4 GT PUSH2 0x119E JUMPI DUP3 SWAP1 SUB PUSH1 0x1F AND DUP3 ADD SWAP2 JUMPDEST POP POP POP POP POP DUP2 MSTORE PUSH1 0x20 ADD PUSH1 0x1 DUP3 ADD DUP1 SLOAD PUSH2 0x11D4 SWAP1 PUSH2 0x2D6C JUMP JUMPDEST DUP1 PUSH1 0x1F ADD PUSH1 0x20 DUP1 SWAP2 DIV MUL PUSH1 0x20 ADD PUSH1 0x40 MLOAD SWAP1 DUP2 ADD PUSH1 0x40 MSTORE DUP1 SWAP3 SWAP2 SWAP1 DUP2 DUP2 MSTORE PUSH1 0x20 ADD DUP3 DUP1 SLOAD PUSH2 0x1200 SWAP1 PUSH2 0x2D6C JUMP JUMPDEST DUP1 ISZERO PUSH2 0x124B JUMPI DUP1 PUSH1 0x1F LT PUSH2 0x1222 JUMPI PUSH2 0x100 DUP1 DUP4 SLOAD DIV MUL DUP4 MSTORE SWAP2 PUSH1 0x20 ADD SWAP2 PUSH2 0x124B JUMP JUMPDEST DUP3 ADD SWAP2 SWAP1 PUSH0 MSTORE PUSH1 0x20 PUSH0 KECCAK256 SWAP1 JUMPDEST DUP2 SLOAD DUP2 MSTORE SWAP1 PUSH1 0x1 ADD SWAP1 PUSH1 0x20 ADD DUP1 DUP4 GT PUSH2 0x122E JUMPI DUP3 SWAP1 SUB PUSH1 0x1F AND DUP3 ADD SWAP2 JUMPDEST POP POP POP POP POP DUP2 MSTORE PUSH1 0x20 ADD PUSH1 0x2 DUP3 ADD DUP1 SLOAD PUSH2 0x1264 SWAP1 PUSH2 0x2D6C JUMP JUMPDEST DUP1 PUSH1 0x1F ADD PUSH1 0x20 DUP1 SWAP2 DIV MUL PUSH1 0x20 ADD PUSH1 0x40 MLOAD SWAP1 DUP2 ADD PUSH1 0x40 MSTORE DUP1 SWAP3 SWAP2 SWAP1 DUP2 DUP2 MSTORE PUSH1 0x20 ADD DUP3 DUP1 SLOAD PUSH2 0x1290 SWAP1 PUSH2 0x2D6C JUMP JUMPDEST DUP1 ISZERO PUSH2 0x12DB JUMPI DUP1 PUSH1 0x1F LT PUSH2 0x12B2 JUMPI PUSH2 0x100 DUP1 DUP4 SLOAD DIV MUL DUP4 MSTORE SWAP2 PUSH1 0x20 ADD SWAP2 PUSH2 0x12DB JUMP JUMPDEST DUP3 ADD SWAP2 SWAP1 PUSH0 MSTORE PUSH1 0x20 PUSH0 KECCAK256 SWAP1 JUMPDEST DUP2 SLOAD DUP2 MSTORE SWAP1 PUSH1 0x1 ADD SWAP1 PUSH1 0x20 ADD DUP1 DUP4 GT PUSH2 0x12BE JUMPI DUP3 SWAP1 SUB PUSH1 0x1F AND DUP3 ADD SWAP2 JUMPDEST POP POP POP POP POP DUP2 MSTORE PUSH1 0x20 ADD PUSH1 0x3 DUP3 ADD DUP1 SLOAD PUSH2 0x12F4 SWAP1 PUSH2 0x2D6C JUMP JUMPDEST DUP1 PUSH1 0x1F ADD PUSH1 0x20 DUP1 SWAP2 DIV MUL PUSH1 0x20 ADD PUSH1 0x40 MLOAD SWAP1 DUP2 ADD PUSH1 0x40 MSTORE DUP1 SWAP3 SWAP2 SWAP1 DUP2 DUP2 MSTORE PUSH1 0x20 ADD DUP3 DUP1 SLOAD PUSH2 0x1320 SWAP1 PUSH2 0x2D6C JUMP JUMPDEST DUP1 ISZERO PUSH2 0x136B JUMPI DUP1 PUSH1 0x1F LT PUSH2 0x1342 JUMPI PUSH2 0x100 DUP1 DUP4 SLOAD DIV MUL DUP4 MSTORE SWAP2 PUSH1 0x20 ADD SWAP2 PUSH2 0x136B JUMP JUMPDEST DUP3 ADD SWAP2 SWAP1 PUSH0 MSTORE PUSH1 0x20 PUSH0 KECCAK256 SWAP1 JUMPDEST DUP2 SLOAD DUP2 MSTORE SWAP1 PUSH1 0x1 ADD SWAP1 PUSH1 0x20 ADD DUP1 DUP4 GT PUSH2 0x134E JUMPI DUP3 SWAP1 SUB PUSH1 0x1F AND DUP3 ADD SWAP2 JUMPDEST POP POP POP POP POP DUP2 MSTORE PUSH1 0x20 ADD PUSH1 0x4 DUP3 ADD SLOAD DUP2 MSTORE PUSH1 0x20 ADD PUSH1 0x5 DUP3 ADD DUP1 SLOAD PUSH2 0x138E SWAP1 PUSH2 0x2D6C JUMP JUMPDEST DUP1 PUSH1 0x1F ADD PUSH1 0x20 DUP1 SWAP2 DIV MUL PUSH1 0x20 ADD PUSH1 0x40 MLOAD SWAP1 DUP2 ADD PUSH1 0x40 MSTORE DUP1 SWAP3 SWAP2 SWAP1 DUP2 DUP2 MSTORE PUSH1 0x20 ADD DUP3 DUP1 SLOAD PUSH2 0x13BA SWAP1 PUSH2 0x2D6C JUMP JUMPDEST DUP1 ISZERO PUSH2 0x1405 JUMPI DUP1 PUSH1 0x1F LT PUSH2 0x13DC JUMPI PUSH2 0x100 DUP1 DUP4 SLOAD DIV MUL DUP4 MSTORE SWAP2 PUSH1 0x20 ADD SWAP2 PUSH2 0x1405 JUMP JUMPDEST DUP3 ADD SWAP2 SWAP1 PUSH0 MSTORE PUSH1 0x20 PUSH0 KECCAK256 SWAP1 JUMPDEST DUP2 SLOAD DUP2 MSTORE SWAP1 PUSH1 0x1 ADD SWAP1 PUSH1 0x20 ADD DUP1 DUP4 GT PUSH2 0x13E8 JUMPI DUP3 SWAP1 SUB PUSH1 0x1F AND DUP3 ADD SWAP2 JUMPDEST POP POP POP POP POP DUP2 MSTORE PUSH1 0x20 ADD PUSH1 0x6 DUP3 ADD SLOAD DUP2 MSTORE PUSH1 0x20 ADD PUSH1 0x7 DUP3 ADD SLOAD DUP2 MSTORE POP POP SWAP1 POP DUP3 PUSH32 0x5716523A05C9D13997B5A619D69A47EBA3D34842FF0B403EED7CA3A75B05C708 DUP3 PUSH1 0x40 MLOAD PUSH2 0x1454 SWAP2 SWAP1 PUSH2 0x2D13 JUMP JUMPDEST PUSH1 0x40 MLOAD DUP1 SWAP2 SUB SWAP1 LOG2 SWAP2 SWAP5 SWAP2 SWAP4 POP SWAP1 SWAP2 POP POP JUMP JUMPDEST CALLER PUSH0 SWAP1 DUP2 MSTORE PUSH1 0xD PUSH1 0x20 MSTORE PUSH1 0x40 SWAP1 KECCAK256 SLOAD PUSH1 0xA SGT ISZERO PUSH2 0x14BC JUMPI PUSH1 0x40 MLOAD PUSH3 0x461BCD PUSH1 0xE5 SHL DUP2 MSTORE PUSH1 0x20 PUSH1 0x4 DUP3 ADD MSTORE PUSH1 0x13 PUSH1 0x24 DUP3 ADD MSTORE PUSH19 0x139BDD08195B9BDD59DA08185C1C1C9BDD985B PUSH1 0x6A SHL PUSH1 0x44 DUP3 ADD MSTORE PUSH1 0x64 ADD PUSH2 0x643 JUMP JUMPDEST PUSH1 0x3 PUSH2 0x14C6 PUSH2 0x196B JUMP JUMPDEST PUSH1 0x5 DUP2 GT ISZERO PUSH2 0x14D7 JUMPI PUSH2 0x14D7 PUSH2 0x2B7B JUMP JUMPDEST EQ PUSH2 0x1512 JUMPI PUSH1 0x40 MLOAD PUSH3 0x461BCD PUSH1 0xE5 SHL DUP2 MSTORE PUSH1 0x20 PUSH1 0x4 DUP3 ADD MSTORE PUSH1 0xB PUSH1 0x24 DUP3 ADD MSTORE PUSH11 0x57726F6E67207068617365 PUSH1 0xA8 SHL PUSH1 0x44 DUP3 ADD MSTORE PUSH1 0x64 ADD PUSH2 0x643 JUMP JUMPDEST PUSH0 JUMPDEST PUSH1 0xA PUSH1 0xFF DUP3 AND LT ISZERO PUSH2 0x173C JUMPI PUSH0 PUSH1 0x8 DUP2 DUP5 PUSH1 0xFF DUP6 AND PUSH1 0xA DUP2 LT PUSH2 0x1539 JUMPI PUSH2 0x1539 PUSH2 0x2F32 JUMP JUMPDEST PUSH1 0x20 MUL ADD CALLDATALOAD DUP2 MSTORE PUSH1 0x20 ADD SWAP1 DUP2 MSTORE PUSH1 0x20 ADD PUSH0 KECCAK256 PUSH0 PUSH1 0x2 DUP2 LT PUSH2 0x155C JUMPI PUSH2 0x155C PUSH2 0x2F32 JUMP JUMPDEST ADD SLOAD PUSH1 0x1 PUSH1 0x1 PUSH1 0xA0 SHL SUB AND SUB PUSH2 0x15CC JUMPI CALLER PUSH1 0x8 PUSH0 DUP5 DUP5 PUSH1 0xFF AND PUSH1 0xA DUP2 LT PUSH2 0x1585 JUMPI PUSH2 0x1585 PUSH2 0x2F32 JUMP JUMPDEST PUSH1 0x20 MUL ADD CALLDATALOAD DUP2 MSTORE PUSH1 0x20 ADD SWAP1 DUP2 MSTORE PUSH1 0x20 ADD PUSH0 KECCAK256 PUSH0 PUSH1 0x2 DUP2 LT PUSH2 0x15A8 JUMPI PUSH2 0x15A8 PUSH2 0x2F32 JUMP JUMPDEST ADD DUP1 SLOAD PUSH1 0x1 PUSH1 0x1 PUSH1 0xA0 SHL SUB NOT AND PUSH1 0x1 PUSH1 0x1 PUSH1 0xA0 SHL SUB SWAP3 SWAP1 SWAP3 AND SWAP2 SWAP1 SWAP2 OR SWAP1 SSTORE PUSH2 0x172A JUMP JUMPDEST PUSH0 PUSH1 0x8 DUP2 DUP5 PUSH1 0xFF DUP6 AND PUSH1 0xA DUP2 LT PUSH2 0x15E5 JUMPI PUSH2 0x15E5 PUSH2 0x2F32 JUMP JUMPDEST PUSH1 0x20 MUL ADD CALLDATALOAD DUP2 MSTORE PUSH1 0x20 ADD SWAP1 DUP2 MSTORE PUSH1 0x20 ADD PUSH0 KECCAK256 PUSH1 0x1 PUSH1 0x2 DUP2 LT PUSH2 0x1609 JUMPI PUSH2 0x1609 PUSH2 0x2F32 JUMP JUMPDEST ADD SLOAD PUSH1 0x1 PUSH1 0x1 PUSH1 0xA0 SHL SUB AND SUB PUSH2 0x16EA JUMPI CALLER PUSH1 0x8 PUSH0 DUP5 PUSH1 0xFF DUP6 AND PUSH1 0xA DUP2 LT PUSH2 0x1632 JUMPI PUSH2 0x1632 PUSH2 0x2F32 JUMP JUMPDEST PUSH1 0x20 MUL ADD CALLDATALOAD DUP2 MSTORE PUSH1 0x20 ADD SWAP1 DUP2 MSTORE PUSH1 0x20 ADD PUSH0 KECCAK256 PUSH0 PUSH1 0x2 DUP2 LT PUSH2 0x1655 JUMPI PUSH2 0x1655 PUSH2 0x2F32 JUMP JUMPDEST ADD SLOAD PUSH1 0x1 PUSH1 0x1 PUSH1 0xA0 SHL SUB AND SUB PUSH2 0x16AD JUMPI PUSH1 0x40 MLOAD PUSH3 0x461BCD PUSH1 0xE5 SHL DUP2 MSTORE PUSH1 0x20 PUSH1 0x4 DUP3 ADD MSTORE PUSH1 0x1B PUSH1 0x24 DUP3 ADD MSTORE PUSH32 0x526567697374726172206D75737420626520646966666572656E740000000000 PUSH1 0x44 DUP3 ADD MSTORE PUSH1 0x64 ADD PUSH2 0x643 JUMP JUMPDEST CALLER PUSH1 0x8 PUSH0 DUP5 DUP5 PUSH1 0xFF AND PUSH1 0xA DUP2 LT PUSH2 0x16C6 JUMPI PUSH2 0x16C6 PUSH2 0x2F32 JUMP JUMPDEST PUSH1 0x20 MUL ADD CALLDATALOAD DUP2 MSTORE PUSH1 0x20 ADD SWAP1 DUP2 MSTORE PUSH1 0x20 ADD PUSH0 KECCAK256 PUSH1 0x1 PUSH1 0x2 DUP2 LT PUSH2 0x15A8 JUMPI PUSH2 0x15A8 PUSH2 0x2F32 JUMP JUMPDEST PUSH1 0x40 MLOAD PUSH3 0x461BCD PUSH1 0xE5 SHL DUP2 MSTORE PUSH1 0x20 PUSH1 0x4 DUP3 ADD MSTORE PUSH1 0x15 PUSH1 0x24 DUP3 ADD MSTORE PUSH21 0x12185CDA08185B1C9958591E481C9958DBDC991959 PUSH1 0x5A SHL PUSH1 0x44 DUP3 ADD MSTORE PUSH1 0x64 ADD PUSH2 0x643 JUMP JUMPDEST DUP1 PUSH2 0x1734 DUP2 PUSH2 0x2F46 JUMP JUMPDEST SWAP2 POP POP PUSH2 0x1514 JUMP JUMPDEST POP PUSH0 JUMPDEST PUSH1 0xA PUSH1 0xFF DUP3 AND LT ISZERO PUSH2 0x18DA JUMPI PUSH0 DUP4 PUSH1 0xFF DUP4 AND PUSH1 0xA DUP2 LT PUSH2 0x1761 JUMPI PUSH2 0x1761 PUSH2 0x2F32 JUMP JUMPDEST PUSH1 0x20 MUL ADD PUSH1 0x20 DUP2 ADD SWAP1 PUSH2 0x1774 SWAP2 SWAP1 PUSH2 0x2B5B JUMP JUMPDEST PUSH1 0x1 PUSH1 0x1 PUSH1 0xA0 SHL SUB AND SUB PUSH2 0x17C2 JUMPI PUSH1 0x40 MLOAD PUSH3 0x461BCD PUSH1 0xE5 SHL DUP2 MSTORE PUSH1 0x20 PUSH1 0x4 DUP3 ADD MSTORE PUSH1 0x15 PUSH1 0x24 DUP3 ADD MSTORE PUSH21 0x496E76616C696420766F7465722061646472657373 PUSH1 0x58 SHL PUSH1 0x44 DUP3 ADD MSTORE PUSH1 0x64 ADD PUSH2 0x643 JUMP JUMPDEST PUSH1 0x2 PUSH1 0x9 PUSH0 DUP6 DUP5 PUSH1 0xFF AND PUSH1 0xA DUP2 LT PUSH2 0x17DC JUMPI PUSH2 0x17DC PUSH2 0x2F32 JUMP JUMPDEST PUSH1 0x20 MUL ADD PUSH1 0x20 DUP2 ADD SWAP1 PUSH2 0x17EF SWAP2 SWAP1 PUSH2 0x2B5B JUMP JUMPDEST PUSH1 0x1 PUSH1 0x1 PUSH1 0xA0 SHL SUB AND PUSH1 0x1 PUSH1 0x1 PUSH1 0xA0 SHL SUB AND DUP2 MSTORE PUSH1 0x20 ADD SWAP1 DUP2 MSTORE PUSH1 0x20 ADD PUSH0 KECCAK256 SLOAD LT PUSH2 0x1871 JUMPI PUSH1 0x40 MLOAD PUSH3 0x461BCD PUSH1 0xE5 SHL DUP2 MSTORE PUSH1 0x20 PUSH1 0x4 DUP3 ADD MSTORE PUSH1 0x2C PUSH1 0x24 DUP3 ADD MSTORE PUSH32 0x4164647265737320616C72656164792072656769737465726564212052454749 PUSH1 0x44 DUP3 ADD MSTORE PUSH12 0x5354524152204552524F5221 PUSH1 0xA0 SHL PUSH1 0x64 DUP3 ADD MSTORE PUSH1 0x84 ADD PUSH2 0x643 JUMP JUMPDEST PUSH1 0x9 PUSH0 DUP5 DUP4 PUSH1 0xFF AND PUSH1 0xA DUP2 LT PUSH2 0x1889 JUMPI PUSH2 0x1889 PUSH2 0x2F32 JUMP JUMPDEST PUSH1 0x20 MUL ADD PUSH1 0x20 DUP2 ADD SWAP1 PUSH2 0x189C SWAP2 SWAP1 PUSH2 0x2B5B JUMP JUMPDEST PUSH1 0x1 PUSH1 0x1 PUSH1 0xA0 SHL SUB AND DUP2 MSTORE PUSH1 0x20 DUP2 ADD SWAP2 SWAP1 SWAP2 MSTORE PUSH1 0x40 ADD PUSH0 SWAP1 DUP2 KECCAK256 DUP1 SLOAD SWAP2 PUSH2 0x18C2 DUP4 PUSH2 0x2EBE JUMP JUMPDEST SWAP2 SWAP1 POP SSTORE POP DUP1 DUP1 PUSH2 0x18D2 SWAP1 PUSH2 0x2F46 JUMP JUMPDEST SWAP2 POP POP PUSH2 0x173F JUMP JUMPDEST POP PUSH1 0xA DUP1 SLOAD DUP2 SWAP1 PUSH0 SWAP1 PUSH2 0x18F4 SWAP1 DUP4 SWAP1 PUSH4 0xFFFFFFFF AND PUSH2 0x2F64 JUMP JUMPDEST SWAP3 POP PUSH2 0x100 EXP DUP2 SLOAD DUP2 PUSH4 0xFFFFFFFF MUL NOT AND SWAP1 DUP4 PUSH4 0xFFFFFFFF AND MUL OR SWAP1 SSTORE POP DUP2 PUSH1 0x40 MLOAD PUSH2 0x1920 SWAP2 SWAP1 PUSH2 0x2F80 JUMP JUMPDEST PUSH1 0x40 DUP1 MLOAD SWAP2 DUP3 SWAP1 SUB DUP3 KECCAK256 PUSH1 0xA SLOAD CALLER DUP5 MSTORE PUSH4 0xFFFFFFFF AND PUSH1 0x20 DUP5 ADD MSTORE SWAP2 PUSH32 0x2BA0AAA9C0E5919BF5CB9FDE7B2825194F9DC6E9AB2A9174C59892A1585C446A SWAP2 ADD PUSH1 0x40 MLOAD DUP1 SWAP2 SUB SWAP1 LOG2 POP POP JUMP JUMPDEST PUSH0 PUSH1 0x1 SLOAD TIMESTAMP LT ISZERO PUSH2 0x197B JUMPI POP PUSH0 SWAP1 JUMP JUMPDEST PUSH2 0x1987 PUSH1 0x32 PUSH1 0x2 PUSH2 0x2FC5 JUMP JUMPDEST PUSH1 0xFF AND PUSH1 0x3 DUP1 SLOAD SWAP1 POP LT DUP1 PUSH2 0x19AD JUMPI POP PUSH1 0x2 SLOAD PUSH2 0x4B0 PUSH1 0x1 PUSH1 0xA0 SHL SWAP1 SWAP2 DIV PUSH4 0xFFFFFFFF AND LT JUMPDEST ISZERO PUSH2 0x19BC JUMPI POP PUSH0 PUSH1 0x1 DUP2 SWAP1 SSTORE SWAP1 JUMP JUMPDEST PUSH1 0x1 SLOAD PUSH0 SUB PUSH2 0x19EE JUMPI TIMESTAMP PUSH1 0x1 DUP2 SWAP1 SSTORE PUSH2 0x19D9 SWAP1 PUSH3 0x127500 SWAP1 PUSH2 0x2FE8 JUMP JUMPDEST PUSH2 0x19E6 SWAP1 PUSH3 0x15180 PUSH2 0x2FE8 JUMP JUMPDEST PUSH0 SSTORE POP PUSH1 0x1 SWAP1 JUMP JUMPDEST PUSH1 0x1 PUSH0 SLOAD PUSH2 0x19FC SWAP2 SWAP1 PUSH2 0x2FFB JUMP JUMPDEST TIMESTAMP LT ISZERO PUSH2 0x1A09 JUMPI POP PUSH1 0x1 SWAP1 JUMP JUMPDEST PUSH0 SLOAD TIMESTAMP LT ISZERO PUSH2 0x1A18 JUMPI POP PUSH1 0x2 SWAP1 JUMP JUMPDEST PUSH1 0x6 SLOAD PUSH0 SUB PUSH2 0x1A27 JUMPI POP PUSH1 0x3 SWAP1 JUMP JUMPDEST PUSH1 0x6 SLOAD TIMESTAMP LT ISZERO PUSH2 0x1A37 JUMPI POP PUSH1 0x4 SWAP1 JUMP JUMPDEST POP PUSH1 0x5 SWAP1 JUMP JUMPDEST PUSH1 0x3 DUP2 DUP2 SLOAD DUP2 LT PUSH2 0x1A4C JUMPI PUSH0 DUP1 REVERT JUMPDEST PUSH0 SWAP2 DUP3 MSTORE PUSH1 0x20 SWAP1 SWAP2 KECCAK256 ADD SLOAD PUSH1 0x1 PUSH1 0x1 PUSH1 0xA0 SHL SUB AND SWAP1 POP DUP2 JUMP JUMPDEST PUSH1 0x7 DUP2 DUP2 SLOAD DUP2 LT PUSH2 0x1A74 JUMPI PUSH0 DUP1 REVERT JUMPDEST SWAP1 PUSH0 MSTORE PUSH1 0x20 PUSH0 KECCAK256 SWAP1 PUSH1 0x8 MUL ADD PUSH0 SWAP2 POP SWAP1 POP DUP1 PUSH0 ADD DUP1 SLOAD PUSH2 0x1A93 SWAP1 PUSH2 0x2D6C JUMP JUMPDEST DUP1 PUSH1 0x1F ADD PUSH1 0x20 DUP1 SWAP2 DIV MUL PUSH1 0x20 ADD PUSH1 0x40 MLOAD SWAP1 DUP2 ADD PUSH1 0x40 MSTORE DUP1 SWAP3 SWAP2 SWAP1 DUP2 DUP2 MSTORE PUSH1 0x20 ADD DUP3 DUP1 SLOAD PUSH2 0x1ABF SWAP1 PUSH2 0x2D6C JUMP JUMPDEST DUP1 ISZERO PUSH2 0x1B0A JUMPI DUP1 PUSH1 0x1F LT PUSH2 0x1AE1 JUMPI PUSH2 0x100 DUP1 DUP4 SLOAD DIV MUL DUP4 MSTORE SWAP2 PUSH1 0x20 ADD SWAP2 PUSH2 0x1B0A JUMP JUMPDEST DUP3 ADD SWAP2 SWAP1 PUSH0 MSTORE PUSH1 0x20 PUSH0 KECCAK256 SWAP1 JUMPDEST DUP2 SLOAD DUP2 MSTORE SWAP1 PUSH1 0x1 ADD SWAP1 PUSH1 0x20 ADD DUP1 DUP4 GT PUSH2 0x1AED JUMPI DUP3 SWAP1 SUB PUSH1 0x1F AND DUP3 ADD SWAP2 JUMPDEST POP POP POP POP POP SWAP1 DUP1 PUSH1 0x1 ADD DUP1 SLOAD PUSH2 0x1B1F SWAP1 PUSH2 0x2D6C JUMP JUMPDEST DUP1 PUSH1 0x1F ADD PUSH1 0x20 DUP1 SWAP2 DIV MUL PUSH1 0x20 ADD PUSH1 0x40 MLOAD SWAP1 DUP2 ADD PUSH1 0x40 MSTORE DUP1 SWAP3 SWAP2 SWAP1 DUP2 DUP2 MSTORE PUSH1 0x20 ADD DUP3 DUP1 SLOAD PUSH2 0x1B4B SWAP1 PUSH2 0x2D6C JUMP JUMPDEST DUP1 ISZERO PUSH2 0x1B96 JUMPI DUP1 PUSH1 0x1F LT PUSH2 0x1B6D JUMPI PUSH2 0x100 DUP1 DUP4 SLOAD DIV MUL DUP4 MSTORE SWAP2 PUSH1 0x20 ADD SWAP2 PUSH2 0x1B96 JUMP JUMPDEST DUP3 ADD SWAP2 SWAP1 PUSH0 MSTORE PUSH1 0x20 PUSH0 KECCAK256 SWAP1 JUMPDEST DUP2 SLOAD DUP2 MSTORE SWAP1 PUSH1 0x1 ADD SWAP1 PUSH1 0x20 ADD DUP1 DUP4 GT PUSH2 0x1B79 JUMPI DUP3 SWAP1 SUB PUSH1 0x1F AND DUP3 ADD SWAP2 JUMPDEST POP POP POP POP POP SWAP1 DUP1 PUSH1 0x2 ADD DUP1 SLOAD PUSH2 0x1BAB SWAP1 PUSH2 0x2D6C JUMP JUMPDEST DUP1 PUSH1 0x1F ADD PUSH1 0x20 DUP1 SWAP2 DIV MUL PUSH1 0x20 ADD PUSH1 0x40 MLOAD SWAP1 DUP2 ADD PUSH1 0x40 MSTORE DUP1 SWAP3 SWAP2 SWAP1 DUP2 DUP2 MSTORE PUSH1 0x20 ADD DUP3 DUP1 SLOAD PUSH2 0x1BD7 SWAP1 PUSH2 0x2D6C JUMP JUMPDEST DUP1 ISZERO PUSH2 0x1C22 JUMPI DUP1 PUSH1 0x1F LT PUSH2 0x1BF9 JUMPI PUSH2 0x100 DUP1 DUP4 SLOAD DIV MUL DUP4 MSTORE SWAP2 PUSH1 0x20 ADD SWAP2 PUSH2 0x1C22 JUMP JUMPDEST DUP3 ADD SWAP2 SWAP1 PUSH0 MSTORE PUSH1 0x20 PUSH0 KECCAK256 SWAP1 JUMPDEST DUP2 SLOAD DUP2 MSTORE SWAP1 PUSH1 0x1 ADD SWAP1 PUSH1 0x20 ADD DUP1 DUP4 GT PUSH2 0x1C05 JUMPI DUP3 SWAP1 SUB PUSH1 0x1F AND DUP3 ADD SWAP2 JUMPDEST POP POP POP POP POP SWAP1 DUP1 PUSH1 0x3 ADD DUP1 SLOAD PUSH2 0x1C37 SWAP1 PUSH2 0x2D6C JUMP JUMPDEST DUP1 PUSH1 0x1F ADD PUSH1 0x20 DUP1 SWAP2 DIV MUL PUSH1 0x20 ADD PUSH1 0x40 MLOAD SWAP1 DUP2 ADD PUSH1 0x40 MSTORE DUP1 SWAP3 SWAP2 SWAP1 DUP2 DUP2 MSTORE PUSH1 0x20 ADD DUP3 DUP1 SLOAD PUSH2 0x1C63 SWAP1 PUSH2 0x2D6C JUMP JUMPDEST DUP1 ISZERO PUSH2 0x1CAE JUMPI DUP1 PUSH1 0x1F LT PUSH2 0x1C85 JUMPI PUSH2 0x100 DUP1 DUP4 SLOAD DIV MUL DUP4 MSTORE SWAP2 PUSH1 0x20 ADD SWAP2 PUSH2 0x1CAE JUMP JUMPDEST DUP3 ADD SWAP2 SWAP1 PUSH0 MSTORE PUSH1 0x20 PUSH0 KECCAK256 SWAP1 JUMPDEST DUP2 SLOAD DUP2 MSTORE SWAP1 PUSH1 0x1 ADD SWAP1 PUSH1 0x20 ADD DUP1 DUP4 GT PUSH2 0x1C91 JUMPI DUP3 SWAP1 SUB PUSH1 0x1F AND DUP3 ADD SWAP2 JUMPDEST POP POP POP POP POP SWAP1 DUP1 PUSH1 0x4 ADD SLOAD SWAP1 DUP1 PUSH1 0x5 ADD DUP1 SLOAD PUSH2 0x1CC9 SWAP1 PUSH2 0x2D6C JUMP JUMPDEST DUP1 PUSH1 0x1F ADD PUSH1 0x20 DUP1 SWAP2 DIV MUL PUSH1 0x20 ADD PUSH1 0x40 MLOAD SWAP1 DUP2 ADD PUSH1 0x40 MSTORE DUP1 SWAP3 SWAP2 SWAP1 DUP2 DUP2 MSTORE PUSH1 0x20 ADD DUP3 DUP1 SLOAD PUSH2 0x1CF5 SWAP1 PUSH2 0x2D6C JUMP JUMPDEST DUP1 ISZERO PUSH2 0x1D40 JUMPI DUP1 PUSH1 0x1F LT PUSH2 0x1D17 JUMPI PUSH2 0x100 DUP1 DUP4 SLOAD DIV MUL DUP4 MSTORE SWAP2 PUSH1 0x20 ADD SWAP2 PUSH2 0x1D40 JUMP JUMPDEST DUP3 ADD SWAP2 SWAP1 PUSH0 MSTORE PUSH1 0x20 PUSH0 KECCAK256 SWAP1 JUMPDEST DUP2 SLOAD DUP2 MSTORE SWAP1 PUSH1 0x1 ADD SWAP1 PUSH1 0x20 ADD DUP1 DUP4 GT PUSH2 0x1D23 JUMPI DUP3 SWAP1 SUB PUSH1 0x1F AND DUP3 ADD SWAP2 JUMPDEST POP POP POP POP POP SWAP1 DUP1 PUSH1 0x6 ADD SLOAD SWAP1 DUP1 PUSH1 0x7 ADD SLOAD SWAP1 POP DUP9 JUMP JUMPDEST TIMESTAMP PUSH3 0x5C4900 PUSH0 SLOAD PUSH2 0x1D67 SWAP2 SWAP1 PUSH2 0x2FE8 JUMP JUMPDEST LT PUSH2 0x1DB4 JUMPI PUSH1 0x40 MLOAD PUSH3 0x461BCD PUSH1 0xE5 SHL DUP2 MSTORE PUSH1 0x20 PUSH1 0x4 DUP3 ADD MSTORE PUSH1 0x1B PUSH1 0x24 DUP3 ADD MSTORE PUSH32 0x43616E6E6F74207374617274207265666572656E64756D207965740000000000 PUSH1 0x44 DUP3 ADD MSTORE PUSH1 0x64 ADD PUSH2 0x643 JUMP JUMPDEST PUSH1 0xB SLOAD ISZERO PUSH2 0x1E04 JUMPI PUSH1 0x40 MLOAD PUSH3 0x461BCD PUSH1 0xE5 SHL DUP2 MSTORE PUSH1 0x20 PUSH1 0x4 DUP3 ADD MSTORE PUSH1 0x1F PUSH1 0x24 DUP3 ADD MSTORE PUSH32 0x416C7265616479207261746966696564206120636F6E737469747574696F6E00 PUSH1 0x44 DUP3 ADD MSTORE PUSH1 0x64 ADD PUSH2 0x643 JUMP JUMPDEST PUSH1 0x7 SLOAD PUSH1 0xA LT PUSH2 0x1E4A JUMPI PUSH1 0x40 MLOAD PUSH3 0x461BCD PUSH1 0xE5 SHL DUP2 MSTORE PUSH1 0x20 PUSH1 0x4 DUP3 ADD MSTORE PUSH1 0x11 PUSH1 0x24 DUP3 ADD MSTORE PUSH17 0x4E6F7420656E6F75676820647261667473 PUSH1 0x78 SHL PUSH1 0x44 DUP3 ADD MSTORE PUSH1 0x64 ADD PUSH2 0x643 JUMP JUMPDEST PUSH1 0xA SLOAD PUSH3 0xF4240 PUSH4 0xFFFFFFFF SWAP1 SWAP2 AND LT ISZERO PUSH2 0x1E9B JUMPI PUSH1 0x40 MLOAD PUSH3 0x461BCD PUSH1 0xE5 SHL DUP2 MSTORE PUSH1 0x20 PUSH1 0x4 DUP3 ADD MSTORE PUSH1 0x11 PUSH1 0x24 DUP3 ADD MSTORE PUSH17 0x4E6F7420656E6F75676820766F74657273 PUSH1 0x78 SHL PUSH1 0x44 DUP3 ADD MSTORE PUSH1 0x64 ADD PUSH2 0x643 JUMP JUMPDEST PUSH2 0x1EA8 TIMESTAMP PUSH3 0x15180 PUSH2 0x2FE8 JUMP JUMPDEST PUSH1 0x6 SSTORE PUSH1 0x40 MLOAD PUSH32 0xA0AB6B515144B30D8222A12E45D1C1DF7265286D8A0D9F73C23C8B06F6021871 SWAP1 PUSH0 SWAP1 LOG1 JUMP JUMPDEST PUSH1 0x6 SLOAD TIMESTAMP LT PUSH2 0x1F1F JUMPI PUSH1 0x40 MLOAD PUSH3 0x461BCD PUSH1 0xE5 SHL DUP2 MSTORE PUSH1 0x20 PUSH1 0x4 DUP3 ADD MSTORE PUSH1 0x16 PUSH1 0x24 DUP3 ADD MSTORE PUSH22 0x4E6F7420696E205265666572656E64756D2074696D65 PUSH1 0x50 SHL PUSH1 0x44 DUP3 ADD MSTORE PUSH1 0x64 ADD PUSH2 0x643 JUMP JUMPDEST PUSH1 0x7 SLOAD DUP2 GT ISZERO PUSH2 0x1F66 JUMPI PUSH1 0x40 MLOAD PUSH3 0x461BCD PUSH1 0xE5 SHL DUP2 MSTORE PUSH1 0x20 PUSH1 0x4 DUP3 ADD MSTORE PUSH1 0x12 PUSH1 0x24 DUP3 ADD MSTORE PUSH18 0x125B9D985B1A5908191C98599D081B1A5CDD PUSH1 0x72 SHL PUSH1 0x44 DUP3 ADD MSTORE PUSH1 0x64 ADD PUSH2 0x643 JUMP JUMPDEST CALLER PUSH0 SWAP1 DUP2 MSTORE PUSH1 0x9 PUSH1 0x20 MSTORE PUSH1 0x40 SWAP1 KECCAK256 SLOAD PUSH1 0x2 EQ PUSH2 0x1FD0 JUMPI PUSH1 0x40 MLOAD PUSH3 0x461BCD PUSH1 0xE5 SHL DUP2 MSTORE PUSH1 0x20 PUSH1 0x4 DUP3 ADD MSTORE PUSH1 0x24 DUP1 DUP3 ADD MSTORE PUSH32 0x566F746564206F72204E6F74207265676973746572656420656E6F7567682074 PUSH1 0x44 DUP3 ADD MSTORE PUSH4 0x696D6573 PUSH1 0xE0 SHL PUSH1 0x64 DUP3 ADD MSTORE PUSH1 0x84 ADD PUSH2 0x643 JUMP JUMPDEST PUSH1 0x7 SLOAD PUSH0 SWAP1 PUSH1 0x1 PUSH1 0x1 PUSH1 0x40 SHL SUB DUP2 GT ISZERO PUSH2 0x1FEC JUMPI PUSH2 0x1FEC PUSH2 0x2731 JUMP JUMPDEST PUSH1 0x40 MLOAD SWAP1 DUP1 DUP3 MSTORE DUP1 PUSH1 0x20 MUL PUSH1 0x20 ADD DUP3 ADD PUSH1 0x40 MSTORE DUP1 ISZERO PUSH2 0x2015 JUMPI DUP2 PUSH1 0x20 ADD PUSH1 0x20 DUP3 MUL DUP1 CALLDATASIZE DUP4 CALLDATACOPY ADD SWAP1 POP JUMPDEST POP SWAP1 POP PUSH0 JUMPDEST DUP3 DUP2 LT ISZERO PUSH2 0x2142 JUMPI PUSH0 DUP5 DUP5 DUP4 DUP2 DUP2 LT PUSH2 0x2035 JUMPI PUSH2 0x2035 PUSH2 0x2F32 JUMP JUMPDEST SWAP1 POP PUSH1 0x20 MUL ADD CALLDATALOAD SWAP1 POP PUSH1 0x7 DUP1 SLOAD SWAP1 POP DUP2 LT PUSH2 0x2082 JUMPI PUSH1 0x40 MLOAD PUSH3 0x461BCD PUSH1 0xE5 SHL DUP2 MSTORE PUSH1 0x20 PUSH1 0x4 DUP3 ADD MSTORE PUSH1 0xD PUSH1 0x24 DUP3 ADD MSTORE PUSH13 0x125B9D985B1A5908191C98599D PUSH1 0x9A SHL PUSH1 0x44 DUP3 ADD MSTORE PUSH1 0x64 ADD PUSH2 0x643 JUMP JUMPDEST DUP3 DUP2 DUP2 MLOAD DUP2 LT PUSH2 0x2094 JUMPI PUSH2 0x2094 PUSH2 0x2F32 JUMP JUMPDEST PUSH1 0x20 MUL PUSH1 0x20 ADD ADD MLOAD ISZERO PUSH2 0x20DE JUMPI PUSH1 0x40 MLOAD PUSH3 0x461BCD PUSH1 0xE5 SHL DUP2 MSTORE PUSH1 0x20 PUSH1 0x4 DUP3 ADD MSTORE PUSH1 0x12 PUSH1 0x24 DUP3 ADD MSTORE PUSH18 0x14995C195D1A5D1A5D9948191C98599D1259 PUSH1 0x72 SHL PUSH1 0x44 DUP3 ADD MSTORE PUSH1 0x64 ADD PUSH2 0x643 JUMP JUMPDEST PUSH1 0x1 DUP4 DUP3 DUP2 MLOAD DUP2 LT PUSH2 0x20F2 JUMPI PUSH2 0x20F2 PUSH2 0x2F32 JUMP JUMPDEST PUSH1 0x20 MUL PUSH1 0x20 ADD ADD SWAP1 ISZERO ISZERO SWAP1 DUP2 ISZERO ISZERO DUP2 MSTORE POP POP PUSH1 0x7 DUP2 DUP2 SLOAD DUP2 LT PUSH2 0x2117 JUMPI PUSH2 0x2117 PUSH2 0x2F32 JUMP JUMPDEST PUSH0 SWAP2 DUP3 MSTORE PUSH1 0x20 DUP3 KECCAK256 PUSH1 0x7 PUSH1 0x8 SWAP1 SWAP3 MUL ADD ADD DUP1 SLOAD SWAP2 PUSH2 0x2134 DUP4 PUSH2 0x2EBE JUMP JUMPDEST SWAP1 SWAP2 SSTORE POP POP POP PUSH1 0x1 ADD PUSH2 0x201A JUMP JUMPDEST POP CALLER PUSH0 DUP2 DUP2 MSTORE PUSH1 0x9 PUSH1 0x20 MSTORE PUSH1 0x40 DUP1 DUP3 KECCAK256 TIMESTAMP SWAP1 SSTORE MLOAD PUSH32 0x4B50B8927FD1B030F5404DC4394C2A5D30D7F6C6FA6D732C089FFE8C10F09421 SWAP2 SWAP1 LOG2 POP POP POP JUMP JUMPDEST PUSH1 0x4 PUSH1 0x20 MSTORE PUSH0 SWAP1 DUP2 MSTORE PUSH1 0x40 SWAP1 KECCAK256 DUP1 SLOAD DUP2 SWAP1 PUSH2 0x2199 SWAP1 PUSH2 0x2D6C JUMP JUMPDEST DUP1 PUSH1 0x1F ADD PUSH1 0x20 DUP1 SWAP2 DIV MUL PUSH1 0x20 ADD PUSH1 0x40 MLOAD SWAP1 DUP2 ADD PUSH1 0x40 MSTORE DUP1 SWAP3 SWAP2 SWAP1 DUP2 DUP2 MSTORE PUSH1 0x20 ADD DUP3 DUP1 SLOAD PUSH2 0x21C5 SWAP1 PUSH2 0x2D6C JUMP JUMPDEST DUP1 ISZERO PUSH2 0x2210 JUMPI DUP1 PUSH1 0x1F LT PUSH2 0x21E7 JUMPI PUSH2 0x100 DUP1 DUP4 SLOAD DIV MUL DUP4 MSTORE SWAP2 PUSH1 0x20 ADD SWAP2 PUSH2 0x2210 JUMP JUMPDEST DUP3 ADD SWAP2 SWAP1 PUSH0 MSTORE PUSH1 0x20 PUSH0 KECCAK256 SWAP1 JUMPDEST DUP2 SLOAD DUP2 MSTORE SWAP1 PUSH1 0x1 ADD SWAP1 PUSH1 0x20 ADD DUP1 DUP4 GT PUSH2 0x21F3 JUMPI DUP3 SWAP1 SUB PUSH1 0x1F AND DUP3 ADD SWAP2 JUMPDEST POP POP POP POP POP SWAP1 DUP1 PUSH1 0x1 ADD DUP1 SLOAD PUSH2 0x2225 SWAP1 PUSH2 0x2D6C JUMP JUMPDEST DUP1 PUSH1 0x1F ADD PUSH1 0x20 DUP1 SWAP2 DIV MUL PUSH1 0x20 ADD PUSH1 0x40 MLOAD SWAP1 DUP2 ADD PUSH1 0x40 MSTORE DUP1 SWAP3 SWAP2 SWAP1 DUP2 DUP2 MSTORE PUSH1 0x20 ADD DUP3 DUP1 SLOAD PUSH2 0x2251 SWAP1 PUSH2 0x2D6C JUMP JUMPDEST DUP1 ISZERO PUSH2 0x229C JUMPI DUP1 PUSH1 0x1F LT PUSH2 0x2273 JUMPI PUSH2 0x100 DUP1 DUP4 SLOAD DIV MUL DUP4 MSTORE SWAP2 PUSH1 0x20 ADD SWAP2 PUSH2 0x229C JUMP JUMPDEST DUP3 ADD SWAP2 SWAP1 PUSH0 MSTORE PUSH1 0x20 PUSH0 KECCAK256 SWAP1 JUMPDEST DUP2 SLOAD DUP2 MSTORE SWAP1 PUSH1 0x1 ADD SWAP1 PUSH1 0x20 ADD DUP1 DUP4 GT PUSH2 0x227F JUMPI DUP3 SWAP1 SUB PUSH1 0x1F AND DUP3 ADD SWAP2 JUMPDEST POP POP POP POP POP SWAP1 DUP1 PUSH1 0x2 ADD DUP1 SLOAD PUSH2 0x22B1 SWAP1 PUSH2 0x2D6C JUMP JUMPDEST DUP1 PUSH1 0x1F ADD PUSH1 0x20 DUP1 SWAP2 DIV MUL PUSH1 0x20 ADD PUSH1 0x40 MLOAD SWAP1 DUP2 ADD PUSH1 0x40 MSTORE DUP1 SWAP3 SWAP2 SWAP1 DUP2 DUP2 MSTORE PUSH1 0x20 ADD DUP3 DUP1 SLOAD PUSH2 0x22DD SWAP1 PUSH2 0x2D6C JUMP JUMPDEST DUP1 ISZERO PUSH2 0x2328 JUMPI DUP1 PUSH1 0x1F LT PUSH2 0x22FF JUMPI PUSH2 0x100 DUP1 DUP4 SLOAD DIV MUL DUP4 MSTORE SWAP2 PUSH1 0x20 ADD SWAP2 PUSH2 0x2328 JUMP JUMPDEST DUP3 ADD SWAP2 SWAP1 PUSH0 MSTORE PUSH1 0x20 PUSH0 KECCAK256 SWAP1 JUMPDEST DUP2 SLOAD DUP2 MSTORE SWAP1 PUSH1 0x1 ADD SWAP1 PUSH1 0x20 ADD DUP1 DUP4 GT PUSH2 0x230B JUMPI DUP3 SWAP1 SUB PUSH1 0x1F AND DUP3 ADD SWAP2 JUMPDEST POP POP POP POP POP SWAP1 DUP1 PUSH1 0x3 ADD SLOAD SWAP1 DUP1 PUSH1 0x4 ADD SLOAD SWAP1 DUP1 PUSH1 0x5 ADD SLOAD SWAP1 DUP1 PUSH1 0x6 ADD SLOAD SWAP1 DUP1 PUSH1 0x7 ADD SLOAD SWAP1 DUP1 PUSH1 0x8 ADD SLOAD SWAP1 POP DUP10 JUMP JUMPDEST PUSH2 0x235E PUSH2 0x26EC JUMP JUMPDEST PUSH1 0x7 SLOAD DUP3 LT PUSH2 0x23AF JUMPI PUSH1 0x40 MLOAD PUSH3 0x461BCD PUSH1 0xE5 SHL DUP2 MSTORE PUSH1 0x20 PUSH1 0x4 DUP3 ADD MSTORE PUSH1 0x1D PUSH1 0x24 DUP3 ADD MSTORE PUSH32 0x496E76616C696420636F6E737469747574696F6E206472616674204944000000 PUSH1 0x44 DUP3 ADD MSTORE PUSH1 0x64 ADD PUSH2 0x643 JUMP JUMPDEST PUSH1 0x7 DUP3 DUP2 SLOAD DUP2 LT PUSH2 0x23C2 JUMPI PUSH2 0x23C2 PUSH2 0x2F32 JUMP JUMPDEST SWAP1 PUSH0 MSTORE PUSH1 0x20 PUSH0 KECCAK256 SWAP1 PUSH1 0x8 MUL ADD PUSH1 0x40 MLOAD DUP1 PUSH2 0x100 ADD PUSH1 0x40 MSTORE SWAP1 DUP2 PUSH0 DUP3 ADD DUP1 SLOAD PUSH2 0x23E9 SWAP1 PUSH2 0x2D6C JUMP JUMPDEST DUP1 PUSH1 0x1F ADD PUSH1 0x20 DUP1 SWAP2 DIV MUL PUSH1 0x20 ADD PUSH1 0x40 MLOAD SWAP1 DUP2 ADD PUSH1 0x40 MSTORE DUP1 SWAP3 SWAP2 SWAP1 DUP2 DUP2 MSTORE PUSH1 0x20 ADD DUP3 DUP1 SLOAD PUSH2 0x2415 SWAP1 PUSH2 0x2D6C JUMP JUMPDEST DUP1 ISZERO PUSH2 0x2460 JUMPI DUP1 PUSH1 0x1F LT PUSH2 0x2437 JUMPI PUSH2 0x100 DUP1 DUP4 SLOAD DIV MUL DUP4 MSTORE SWAP2 PUSH1 0x20 ADD SWAP2 PUSH2 0x2460 JUMP JUMPDEST DUP3 ADD SWAP2 SWAP1 PUSH0 MSTORE PUSH1 0x20 PUSH0 KECCAK256 SWAP1 JUMPDEST DUP2 SLOAD DUP2 MSTORE SWAP1 PUSH1 0x1 ADD SWAP1 PUSH1 0x20 ADD DUP1 DUP4 GT PUSH2 0x2443 JUMPI DUP3 SWAP1 SUB PUSH1 0x1F AND DUP3 ADD SWAP2 JUMPDEST POP POP POP POP POP DUP2 MSTORE PUSH1 0x20 ADD PUSH1 0x1 DUP3 ADD DUP1 SLOAD PUSH2 0x2479 SWAP1 PUSH2 0x2D6C JUMP JUMPDEST DUP1 PUSH1 0x1F ADD PUSH1 0x20 DUP1 SWAP2 DIV MUL PUSH1 0x20 ADD PUSH1 0x40 MLOAD SWAP1 DUP2 ADD PUSH1 0x40 MSTORE DUP1 SWAP3 SWAP2 SWAP1 DUP2 DUP2 MSTORE PUSH1 0x20 ADD DUP3 DUP1 SLOAD PUSH2 0x24A5 SWAP1 PUSH2 0x2D6C JUMP JUMPDEST DUP1 ISZERO PUSH2 0x24F0 JUMPI DUP1 PUSH1 0x1F LT PUSH2 0x24C7 JUMPI PUSH2 0x100 DUP1 DUP4 SLOAD DIV MUL DUP4 MSTORE SWAP2 PUSH1 0x20 ADD SWAP2 PUSH2 0x24F0 JUMP JUMPDEST DUP3 ADD SWAP2 SWAP1 PUSH0 MSTORE PUSH1 0x20 PUSH0 KECCAK256 SWAP1 JUMPDEST DUP2 SLOAD DUP2 MSTORE SWAP1 PUSH1 0x1 ADD SWAP1 PUSH1 0x20 ADD DUP1 DUP4 GT PUSH2 0x24D3 JUMPI DUP3 SWAP1 SUB PUSH1 0x1F AND DUP3 ADD SWAP2 JUMPDEST POP POP POP POP POP DUP2 MSTORE PUSH1 0x20 ADD PUSH1 0x2 DUP3 ADD DUP1 SLOAD PUSH2 0x2509 SWAP1 PUSH2 0x2D6C JUMP JUMPDEST DUP1 PUSH1 0x1F ADD PUSH1 0x20 DUP1 SWAP2 DIV MUL PUSH1 0x20 ADD PUSH1 0x40 MLOAD SWAP1 DUP2 ADD PUSH1 0x40 MSTORE DUP1 SWAP3 SWAP2 SWAP1 DUP2 DUP2 MSTORE PUSH1 0x20 ADD DUP3 DUP1 SLOAD PUSH2 0x2535 SWAP1 PUSH2 0x2D6C JUMP JUMPDEST DUP1 ISZERO PUSH2 0x2580 JUMPI DUP1 PUSH1 0x1F LT PUSH2 0x2557 JUMPI PUSH2 0x100 DUP1 DUP4 SLOAD DIV MUL DUP4 MSTORE SWAP2 PUSH1 0x20 ADD SWAP2 PUSH2 0x2580 JUMP JUMPDEST DUP3 ADD SWAP2 SWAP1 PUSH0 MSTORE PUSH1 0x20 PUSH0 KECCAK256 SWAP1 JUMPDEST DUP2 SLOAD DUP2 MSTORE SWAP1 PUSH1 0x1 ADD SWAP1 PUSH1 0x20 ADD DUP1 DUP4 GT PUSH2 0x2563 JUMPI DUP3 SWAP1 SUB PUSH1 0x1F AND DUP3 ADD SWAP2 JUMPDEST POP POP POP POP POP DUP2 MSTORE PUSH1 0x20 ADD PUSH1 0x3 DUP3 ADD DUP1 SLOAD PUSH2 0x2599 SWAP1 PUSH2 0x2D6C JUMP JUMPDEST DUP1 PUSH1 0x1F ADD PUSH1 0x20 DUP1 SWAP2 DIV MUL PUSH1 0x20 ADD PUSH1 0x40 MLOAD SWAP1 DUP2 ADD PUSH1 0x40 MSTORE DUP1 SWAP3 SWAP2 SWAP1 DUP2 DUP2 MSTORE PUSH1 0x20 ADD DUP3 DUP1 SLOAD PUSH2 0x25C5 SWAP1 PUSH2 0x2D6C JUMP JUMPDEST DUP1 ISZERO PUSH2 0x2610 JUMPI DUP1 PUSH1 0x1F LT PUSH2 0x25E7 JUMPI PUSH2 0x100 DUP1 DUP4 SLOAD DIV MUL DUP4 MSTORE SWAP2 PUSH1 0x20 ADD SWAP2 PUSH2 0x2610 JUMP JUMPDEST DUP3 ADD SWAP2 SWAP1 PUSH0 MSTORE PUSH1 0x20 PUSH0 KECCAK256 SWAP1 JUMPDEST DUP2 SLOAD DUP2 MSTORE SWAP1 PUSH1 0x1 ADD SWAP1 PUSH1 0x20 ADD DUP1 DUP4 GT PUSH2 0x25F3 JUMPI DUP3 SWAP1 SUB PUSH1 0x1F AND DUP3 ADD SWAP2 JUMPDEST POP POP POP POP POP DUP2 MSTORE PUSH1 0x20 ADD PUSH1 0x4 DUP3 ADD SLOAD DUP2 MSTORE PUSH1 0x20 ADD PUSH1 0x5 DUP3 ADD DUP1 SLOAD PUSH2 0x2633 SWAP1 PUSH2 0x2D6C JUMP JUMPDEST DUP1 PUSH1 0x1F ADD PUSH1 0x20 DUP1 SWAP2 DIV MUL PUSH1 0x20 ADD PUSH1 0x40 MLOAD SWAP1 DUP2 ADD PUSH1 0x40 MSTORE DUP1 SWAP3 SWAP2 SWAP1 DUP2 DUP2 MSTORE PUSH1 0x20 ADD DUP3 DUP1 SLOAD PUSH2 0x265F SWAP1 PUSH2 0x2D6C JUMP JUMPDEST DUP1 ISZERO PUSH2 0x26AA JUMPI DUP1 PUSH1 0x1F LT PUSH2 0x2681 JUMPI PUSH2 0x100 DUP1 DUP4 SLOAD DIV MUL DUP4 MSTORE SWAP2 PUSH1 0x20 ADD SWAP2 PUSH2 0x26AA JUMP JUMPDEST DUP3 ADD SWAP2 SWAP1 PUSH0 MSTORE PUSH1 0x20 PUSH0 KECCAK256 SWAP1 JUMPDEST DUP2 SLOAD DUP2 MSTORE SWAP1 PUSH1 0x1 ADD SWAP1 PUSH1 0x20 ADD DUP1 DUP4 GT PUSH2 0x268D JUMPI DUP3 SWAP1 SUB PUSH1 0x1F AND DUP3 ADD SWAP2 JUMPDEST POP POP POP POP POP DUP2 MSTORE PUSH1 0x20 ADD PUSH1 0x6 DUP3 ADD SLOAD DUP2 MSTORE PUSH1 0x20 ADD PUSH1 0x7 DUP3 ADD SLOAD DUP2 MSTORE POP POP SWAP1 POP SWAP2 SWAP1 POP JUMP JUMPDEST PUSH1 0x40 MLOAD DUP1 PUSH1 0x40 ADD PUSH1 0x40 MSTORE DUP1 PUSH1 0x2 SWAP1 PUSH1 0x20 DUP3 MUL DUP1 CALLDATASIZE DUP4 CALLDATACOPY POP SWAP2 SWAP3 SWAP2 POP POP JUMP JUMPDEST PUSH1 0x40 MLOAD DUP1 PUSH2 0x100 ADD PUSH1 0x40 MSTORE DUP1 PUSH1 0x60 DUP2 MSTORE PUSH1 0x20 ADD PUSH1 0x60 DUP2 MSTORE PUSH1 0x20 ADD PUSH1 0x60 DUP2 MSTORE PUSH1 0x20 ADD PUSH1 0x60 DUP2 MSTORE PUSH1 0x20 ADD PUSH0 DUP1 NOT AND DUP2 MSTORE PUSH1 0x20 ADD PUSH1 0x60 DUP2 MSTORE PUSH1 0x20 ADD PUSH0 DUP2 MSTORE PUSH1 0x20 ADD PUSH0 DUP2 MSTORE POP SWAP1 JUMP JUMPDEST PUSH4 0x4E487B71 PUSH1 0xE0 SHL PUSH0 MSTORE PUSH1 0x41 PUSH1 0x4 MSTORE PUSH1 0x24 PUSH0 REVERT JUMPDEST PUSH1 0x40 MLOAD PUSH2 0x100 DUP2 ADD PUSH1 0x1 PUSH1 0x1 PUSH1 0x40 SHL SUB DUP2 GT DUP3 DUP3 LT OR ISZERO PUSH2 0x2768 JUMPI PUSH2 0x2768 PUSH2 0x2731 JUMP JUMPDEST PUSH1 0x40 MSTORE SWAP1 JUMP JUMPDEST PUSH0 DUP3 PUSH1 0x1F DUP4 ADD SLT PUSH2 0x277D JUMPI PUSH0 DUP1 REVERT JUMPDEST DUP2 CALLDATALOAD PUSH1 0x1 PUSH1 0x1 PUSH1 0x40 SHL SUB DUP2 GT ISZERO PUSH2 0x2796 JUMPI PUSH2 0x2796 PUSH2 0x2731 JUMP JUMPDEST PUSH1 0x40 MLOAD PUSH1 0x1F DUP3 ADD PUSH1 0x1F NOT SWAP1 DUP2 AND PUSH1 0x3F ADD AND DUP2 ADD PUSH1 0x1 PUSH1 0x1 PUSH1 0x40 SHL SUB DUP2 GT DUP3 DUP3 LT OR ISZERO PUSH2 0x27C4 JUMPI PUSH2 0x27C4 PUSH2 0x2731 JUMP JUMPDEST PUSH1 0x40 MSTORE DUP2 DUP2 MSTORE DUP4 DUP3 ADD PUSH1 0x20 ADD DUP6 LT ISZERO PUSH2 0x27DB JUMPI PUSH0 DUP1 REVERT JUMPDEST DUP2 PUSH1 0x20 DUP6 ADD PUSH1 0x20 DUP4 ADD CALLDATACOPY PUSH0 SWAP2 DUP2 ADD PUSH1 0x20 ADD SWAP2 SWAP1 SWAP2 MSTORE SWAP4 SWAP3 POP POP POP JUMP JUMPDEST PUSH0 PUSH1 0x20 DUP3 DUP5 SUB SLT ISZERO PUSH2 0x2807 JUMPI PUSH0 DUP1 REVERT JUMPDEST DUP2 CALLDATALOAD PUSH1 0x1 PUSH1 0x1 PUSH1 0x40 SHL SUB DUP2 GT ISZERO PUSH2 0x281C JUMPI PUSH0 DUP1 REVERT JUMPDEST DUP3 ADD PUSH2 0x100 DUP2 DUP6 SUB SLT ISZERO PUSH2 0x282E JUMPI PUSH0 DUP1 REVERT JUMPDEST PUSH2 0x2836 PUSH2 0x2745 JUMP JUMPDEST DUP2 CALLDATALOAD PUSH1 0x1 PUSH1 0x1 PUSH1 0x40 SHL SUB DUP2 GT ISZERO PUSH2 0x284B JUMPI PUSH0 DUP1 REVERT JUMPDEST PUSH2 0x2857 DUP7 DUP3 DUP6 ADD PUSH2 0x276E JUMP JUMPDEST DUP3 MSTORE POP PUSH1 0x20 DUP3 ADD CALLDATALOAD PUSH1 0x1 PUSH1 0x1 PUSH1 0x40 SHL SUB DUP2 GT ISZERO PUSH2 0x2872 JUMPI PUSH0 DUP1 REVERT JUMPDEST PUSH2 0x287E DUP7 DUP3 DUP6 ADD PUSH2 0x276E JUMP JUMPDEST PUSH1 0x20 DUP4 ADD MSTORE POP PUSH1 0x40 DUP3 ADD CALLDATALOAD PUSH1 0x1 PUSH1 0x1 PUSH1 0x40 SHL SUB DUP2 GT ISZERO PUSH2 0x289C JUMPI PUSH0 DUP1 REVERT JUMPDEST PUSH2 0x28A8 DUP7 DUP3 DUP6 ADD PUSH2 0x276E JUMP JUMPDEST PUSH1 0x40 DUP4 ADD MSTORE POP PUSH1 0x60 DUP3 ADD CALLDATALOAD PUSH1 0x1 PUSH1 0x1 PUSH1 0x40 SHL SUB DUP2 GT ISZERO PUSH2 0x28C6 JUMPI PUSH0 DUP1 REVERT JUMPDEST PUSH2 0x28D2 DUP7 DUP3 DUP6 ADD PUSH2 0x276E JUMP JUMPDEST PUSH1 0x60 DUP4 ADD MSTORE POP PUSH1 0x80 DUP3 DUP2 ADD CALLDATALOAD SWAP1 DUP3 ADD MSTORE PUSH1 0xA0 DUP3 ADD CALLDATALOAD PUSH1 0x1 PUSH1 0x1 PUSH1 0x40 SHL SUB DUP2 GT ISZERO PUSH2 0x28FA JUMPI PUSH0 DUP1 REVERT JUMPDEST PUSH2 0x2906 DUP7 DUP3 DUP6 ADD PUSH2 0x276E JUMP JUMPDEST PUSH1 0xA0 DUP4 ADD MSTORE POP PUSH1 0xC0 DUP3 DUP2 ADD CALLDATALOAD SWAP1 DUP3 ADD MSTORE PUSH1 0xE0 SWAP2 DUP3 ADD CALLDATALOAD SWAP2 DUP2 ADD SWAP2 SWAP1 SWAP2 MSTORE SWAP4 SWAP3 POP POP POP JUMP JUMPDEST PUSH0 PUSH1 0x20 DUP3 DUP5 SUB SLT ISZERO PUSH2 0x293A JUMPI PUSH0 DUP1 REVERT JUMPDEST POP CALLDATALOAD SWAP2 SWAP1 POP JUMP JUMPDEST PUSH0 DUP2 MLOAD DUP1 DUP5 MSTORE DUP1 PUSH1 0x20 DUP5 ADD PUSH1 0x20 DUP7 ADD MCOPY PUSH0 PUSH1 0x20 DUP3 DUP7 ADD ADD MSTORE PUSH1 0x20 PUSH1 0x1F NOT PUSH1 0x1F DUP4 ADD AND DUP6 ADD ADD SWAP2 POP POP SWAP3 SWAP2 POP POP JUMP JUMPDEST PUSH1 0x1 PUSH1 0x1 PUSH1 0xA0 SHL SUB DUP8 AND DUP2 MSTORE PUSH1 0xC0 PUSH1 0x20 DUP3 ADD DUP2 SWAP1 MSTORE PUSH0 SWAP1 PUSH2 0x2992 SWAP1 DUP4 ADD DUP9 PUSH2 0x2941 JUMP JUMPDEST SWAP1 POP DUP6 PUSH1 0x40 DUP4 ADD MSTORE DUP5 PUSH1 0x60 DUP4 ADD MSTORE DUP4 PUSH1 0x80 DUP4 ADD MSTORE PUSH1 0xFF DUP4 AND PUSH1 0xA0 DUP4 ADD MSTORE SWAP8 SWAP7 POP POP POP POP POP POP POP JUMP JUMPDEST PUSH1 0x40 DUP2 ADD DUP2 DUP4 PUSH0 JUMPDEST PUSH1 0x2 DUP2 LT ISZERO PUSH2 0x29EA JUMPI DUP2 MLOAD PUSH1 0x1 PUSH1 0x1 PUSH1 0xA0 SHL SUB AND DUP4 MSTORE PUSH1 0x20 SWAP3 DUP4 ADD SWAP3 SWAP1 SWAP2 ADD SWAP1 PUSH1 0x1 ADD PUSH2 0x29C2 JUMP JUMPDEST POP POP POP SWAP3 SWAP2 POP POP JUMP JUMPDEST DUP1 CALLDATALOAD PUSH1 0x1 PUSH1 0x1 PUSH1 0xA0 SHL SUB DUP2 AND DUP2 EQ PUSH2 0x2A09 JUMPI PUSH0 DUP1 REVERT JUMPDEST SWAP2 SWAP1 POP JUMP JUMPDEST PUSH0 DUP1 PUSH1 0x40 DUP4 DUP6 SUB SLT ISZERO PUSH2 0x2A1F JUMPI PUSH0 DUP1 REVERT JUMPDEST PUSH2 0x2A28 DUP4 PUSH2 0x29F3 JUMP JUMPDEST SWAP2 POP PUSH1 0x20 DUP4 ADD CALLDATALOAD DUP1 PUSH0 SIGNEXTEND DUP2 EQ PUSH2 0x2A3C JUMPI PUSH0 DUP1 REVERT JUMPDEST DUP1 SWAP2 POP POP SWAP3 POP SWAP3 SWAP1 POP JUMP JUMPDEST PUSH0 DUP2 MLOAD PUSH2 0x100 DUP5 MSTORE PUSH2 0x2A5D PUSH2 0x100 DUP6 ADD DUP3 PUSH2 0x2941 JUMP JUMPDEST SWAP1 POP PUSH1 0x20 DUP4 ADD MLOAD DUP5 DUP3 SUB PUSH1 0x20 DUP7 ADD MSTORE PUSH2 0x2A76 DUP3 DUP3 PUSH2 0x2941 JUMP JUMPDEST SWAP2 POP POP PUSH1 0x40 DUP4 ADD MLOAD DUP5 DUP3 SUB PUSH1 0x40 DUP7 ADD MSTORE PUSH2 0x2A90 DUP3 DUP3 PUSH2 0x2941 JUMP JUMPDEST SWAP2 POP POP PUSH1 0x60 DUP4 ADD MLOAD DUP5 DUP3 SUB PUSH1 0x60 DUP7 ADD MSTORE PUSH2 0x2AAA DUP3 DUP3 PUSH2 0x2941 JUMP JUMPDEST SWAP2 POP POP PUSH1 0x80 DUP4 ADD MLOAD PUSH1 0x80 DUP6 ADD MSTORE PUSH1 0xA0 DUP4 ADD MLOAD DUP5 DUP3 SUB PUSH1 0xA0 DUP7 ADD MSTORE PUSH2 0x2ACE DUP3 DUP3 PUSH2 0x2941 JUMP JUMPDEST SWAP2 POP POP PUSH1 0xC0 DUP4 ADD MLOAD PUSH1 0xC0 DUP6 ADD MSTORE PUSH1 0xE0 DUP4 ADD MLOAD PUSH1 0xE0 DUP6 ADD MSTORE DUP1 SWAP2 POP POP SWAP3 SWAP2 POP POP JUMP JUMPDEST DUP3 DUP2 MSTORE PUSH1 0x40 PUSH1 0x20 DUP3 ADD MSTORE PUSH0 PUSH2 0x2B07 PUSH1 0x40 DUP4 ADD DUP5 PUSH2 0x2A47 JUMP JUMPDEST SWAP5 SWAP4 POP POP POP POP JUMP JUMPDEST DUP1 PUSH2 0x140 DUP2 ADD DUP4 LT ISZERO PUSH2 0x2B20 JUMPI PUSH0 DUP1 REVERT JUMPDEST SWAP3 SWAP2 POP POP JUMP JUMPDEST PUSH0 DUP1 PUSH2 0x280 DUP4 DUP6 SUB SLT ISZERO PUSH2 0x2B38 JUMPI PUSH0 DUP1 REVERT JUMPDEST PUSH2 0x2B42 DUP5 DUP5 PUSH2 0x2B0F JUMP JUMPDEST SWAP2 POP PUSH2 0x2B52 DUP5 PUSH2 0x140 DUP6 ADD PUSH2 0x2B0F JUMP JUMPDEST SWAP1 POP SWAP3 POP SWAP3 SWAP1 POP JUMP JUMPDEST PUSH0 PUSH1 0x20 DUP3 DUP5 SUB SLT ISZERO PUSH2 0x2B6B JUMPI PUSH0 DUP1 REVERT JUMPDEST PUSH2 0x2B74 DUP3 PUSH2 0x29F3 JUMP JUMPDEST SWAP4 SWAP3 POP POP POP JUMP JUMPDEST PUSH4 0x4E487B71 PUSH1 0xE0 SHL PUSH0 MSTORE PUSH1 0x21 PUSH1 0x4 MSTORE PUSH1 0x24 PUSH0 REVERT JUMPDEST PUSH1 0x20 DUP2 ADD PUSH1 0x6 DUP4 LT PUSH2 0x2BAF JUMPI PUSH4 0x4E487B71 PUSH1 0xE0 SHL PUSH0 MSTORE PUSH1 0x21 PUSH1 0x4 MSTORE PUSH1 0x24 PUSH0 REVERT JUMPDEST SWAP2 SWAP1 MSTORE SWAP1 JUMP JUMPDEST PUSH2 0x100 DUP2 MSTORE PUSH0 PUSH2 0x2BC9 PUSH2 0x100 DUP4 ADD DUP12 PUSH2 0x2941 JUMP JUMPDEST DUP3 DUP2 SUB PUSH1 0x20 DUP5 ADD MSTORE PUSH2 0x2BDB DUP2 DUP12 PUSH2 0x2941 JUMP JUMPDEST SWAP1 POP DUP3 DUP2 SUB PUSH1 0x40 DUP5 ADD MSTORE PUSH2 0x2BEF DUP2 DUP11 PUSH2 0x2941 JUMP JUMPDEST SWAP1 POP DUP3 DUP2 SUB PUSH1 0x60 DUP5 ADD MSTORE PUSH2 0x2C03 DUP2 DUP10 PUSH2 0x2941 JUMP JUMPDEST SWAP1 POP DUP7 PUSH1 0x80 DUP5 ADD MSTORE DUP3 DUP2 SUB PUSH1 0xA0 DUP5 ADD MSTORE PUSH2 0x2C1D DUP2 DUP8 PUSH2 0x2941 JUMP JUMPDEST PUSH1 0xC0 DUP5 ADD SWAP6 SWAP1 SWAP6 MSTORE POP POP PUSH1 0xE0 ADD MSTORE SWAP7 SWAP6 POP POP POP POP POP POP JUMP JUMPDEST PUSH0 DUP1 PUSH1 0x20 DUP4 DUP6 SUB SLT ISZERO PUSH2 0x2C46 JUMPI PUSH0 DUP1 REVERT JUMPDEST DUP3 CALLDATALOAD PUSH1 0x1 PUSH1 0x1 PUSH1 0x40 SHL SUB DUP2 GT ISZERO PUSH2 0x2C5B JUMPI PUSH0 DUP1 REVERT JUMPDEST DUP4 ADD PUSH1 0x1F DUP2 ADD DUP6 SGT PUSH2 0x2C6B JUMPI PUSH0 DUP1 REVERT JUMPDEST DUP1 CALLDATALOAD PUSH1 0x1 PUSH1 0x1 PUSH1 0x40 SHL SUB DUP2 GT ISZERO PUSH2 0x2C80 JUMPI PUSH0 DUP1 REVERT JUMPDEST DUP6 PUSH1 0x20 DUP3 PUSH1 0x5 SHL DUP5 ADD ADD GT ISZERO PUSH2 0x2C94 JUMPI PUSH0 DUP1 REVERT JUMPDEST PUSH1 0x20 SWAP2 SWAP1 SWAP2 ADD SWAP6 SWAP1 SWAP5 POP SWAP3 POP POP POP JUMP JUMPDEST PUSH2 0x120 DUP2 MSTORE PUSH0 PUSH2 0x2CB8 PUSH2 0x120 DUP4 ADD DUP13 PUSH2 0x2941 JUMP JUMPDEST DUP3 DUP2 SUB PUSH1 0x20 DUP5 ADD MSTORE PUSH2 0x2CCA DUP2 DUP13 PUSH2 0x2941 JUMP JUMPDEST SWAP1 POP DUP3 DUP2 SUB PUSH1 0x40 DUP5 ADD MSTORE PUSH2 0x2CDE DUP2 DUP12 PUSH2 0x2941 JUMP JUMPDEST PUSH1 0x60 DUP5 ADD SWAP10 SWAP1 SWAP10 MSTORE POP POP PUSH1 0x80 DUP2 ADD SWAP6 SWAP1 SWAP6 MSTORE PUSH1 0xA0 DUP6 ADD SWAP4 SWAP1 SWAP4 MSTORE PUSH1 0xC0 DUP5 ADD SWAP2 SWAP1 SWAP2 MSTORE PUSH1 0xE0 DUP4 ADD MSTORE PUSH2 0x100 SWAP1 SWAP2 ADD MSTORE SWAP4 SWAP3 POP POP POP JUMP JUMPDEST PUSH1 0x20 DUP2 MSTORE PUSH0 PUSH2 0x2B74 PUSH1 0x20 DUP4 ADD DUP5 PUSH2 0x2A47 JUMP JUMPDEST PUSH0 DUP2 MLOAD DUP1 PUSH1 0x20 DUP5 ADD DUP6 MCOPY PUSH0 SWAP4 ADD SWAP3 DUP4 MSTORE POP SWAP1 SWAP2 SWAP1 POP JUMP JUMPDEST PUSH0 PUSH2 0x2D62 PUSH2 0x2D5C PUSH2 0x2D56 PUSH2 0x2D50 DUP6 DUP11 PUSH2 0x2D25 JUMP JUMPDEST DUP9 PUSH2 0x2D25 JUMP JUMPDEST DUP7 PUSH2 0x2D25 JUMP JUMPDEST DUP5 PUSH2 0x2D25 JUMP JUMPDEST SWAP7 SWAP6 POP POP POP POP POP POP JUMP JUMPDEST PUSH1 0x1 DUP2 DUP2 SHR SWAP1 DUP3 AND DUP1 PUSH2 0x2D80 JUMPI PUSH1 0x7F DUP3 AND SWAP2 POP JUMPDEST PUSH1 0x20 DUP3 LT DUP2 SUB PUSH2 0x2D9E JUMPI PUSH4 0x4E487B71 PUSH1 0xE0 SHL PUSH0 MSTORE PUSH1 0x22 PUSH1 0x4 MSTORE PUSH1 0x24 PUSH0 REVERT JUMPDEST POP SWAP2 SWAP1 POP JUMP JUMPDEST PUSH1 0x1F DUP3 GT ISZERO PUSH2 0x2DEB JUMPI DUP1 PUSH0 MSTORE PUSH1 0x20 PUSH0 KECCAK256 PUSH1 0x1F DUP5 ADD PUSH1 0x5 SHR DUP2 ADD PUSH1 0x20 DUP6 LT ISZERO PUSH2 0x2DC9 JUMPI POP DUP1 JUMPDEST PUSH1 0x1F DUP5 ADD PUSH1 0x5 SHR DUP3 ADD SWAP2 POP JUMPDEST DUP2 DUP2 LT ISZERO PUSH2 0x2DE8 JUMPI PUSH0 DUP2 SSTORE PUSH1 0x1 ADD PUSH2 0x2DD5 JUMP JUMPDEST POP POP JUMPDEST POP POP POP JUMP JUMPDEST DUP2 MLOAD PUSH1 0x1 PUSH1 0x1 PUSH1 0x40 SHL SUB DUP2 GT ISZERO PUSH2 0x2E09 JUMPI PUSH2 0x2E09 PUSH2 0x2731 JUMP JUMPDEST PUSH2 0x2E1D DUP2 PUSH2 0x2E17 DUP5 SLOAD PUSH2 0x2D6C JUMP JUMPDEST DUP5 PUSH2 0x2DA4 JUMP JUMPDEST PUSH1 0x20 PUSH1 0x1F DUP3 GT PUSH1 0x1 DUP2 EQ PUSH2 0x2E4F JUMPI PUSH0 DUP4 ISZERO PUSH2 0x2E38 JUMPI POP DUP5 DUP3 ADD MLOAD JUMPDEST PUSH0 NOT PUSH1 0x3 DUP6 SWAP1 SHL SHR NOT AND PUSH1 0x1 DUP5 SWAP1 SHL OR DUP5 SSTORE PUSH2 0x2DE8 JUMP JUMPDEST PUSH0 DUP5 DUP2 MSTORE PUSH1 0x20 DUP2 KECCAK256 PUSH1 0x1F NOT DUP6 AND SWAP2 JUMPDEST DUP3 DUP2 LT ISZERO PUSH2 0x2E7E JUMPI DUP8 DUP6 ADD MLOAD DUP3 SSTORE PUSH1 0x20 SWAP5 DUP6 ADD SWAP5 PUSH1 0x1 SWAP1 SWAP3 ADD SWAP2 ADD PUSH2 0x2E5E JUMP JUMPDEST POP DUP5 DUP3 LT ISZERO PUSH2 0x2E9B JUMPI DUP7 DUP5 ADD MLOAD PUSH0 NOT PUSH1 0x3 DUP8 SWAP1 SHL PUSH1 0xF8 AND SHR NOT AND DUP2 SSTORE JUMPDEST POP POP POP POP PUSH1 0x1 SWAP1 DUP2 SHL ADD SWAP1 SSTORE POP JUMP JUMPDEST PUSH4 0x4E487B71 PUSH1 0xE0 SHL PUSH0 MSTORE PUSH1 0x11 PUSH1 0x4 MSTORE PUSH1 0x24 PUSH0 REVERT JUMPDEST PUSH0 PUSH1 0x1 DUP3 ADD PUSH2 0x2ECF JUMPI PUSH2 0x2ECF PUSH2 0x2EAA JUMP JUMPDEST POP PUSH1 0x1 ADD SWAP1 JUMP JUMPDEST PUSH0 DUP2 PUSH2 0x2EE4 JUMPI PUSH2 0x2EE4 PUSH2 0x2EAA JUMP JUMPDEST POP PUSH0 NOT ADD SWAP1 JUMP JUMPDEST PUSH0 DUP3 DUP2 SIGNEXTEND SWAP1 DUP3 SWAP1 SIGNEXTEND SUB PUSH1 0x7F NOT DUP2 SLT PUSH1 0x7F DUP3 SGT OR ISZERO PUSH2 0x2B20 JUMPI PUSH2 0x2B20 PUSH2 0x2EAA JUMP JUMPDEST DUP1 DUP3 ADD DUP3 DUP2 SLT PUSH0 DUP4 SLT DUP1 ISZERO DUP3 AND DUP3 ISZERO DUP3 AND OR ISZERO PUSH2 0x2F2A JUMPI PUSH2 0x2F2A PUSH2 0x2EAA JUMP JUMPDEST POP POP SWAP3 SWAP2 POP POP JUMP JUMPDEST PUSH4 0x4E487B71 PUSH1 0xE0 SHL PUSH0 MSTORE PUSH1 0x32 PUSH1 0x4 MSTORE PUSH1 0x24 PUSH0 REVERT JUMPDEST PUSH0 PUSH1 0xFF DUP3 AND PUSH1 0xFF DUP2 SUB PUSH2 0x2F5B JUMPI PUSH2 0x2F5B PUSH2 0x2EAA JUMP JUMPDEST PUSH1 0x1 ADD SWAP3 SWAP2 POP POP JUMP JUMPDEST PUSH4 0xFFFFFFFF DUP2 DUP2 AND DUP4 DUP3 AND ADD SWAP1 DUP2 GT ISZERO PUSH2 0x2B20 JUMPI PUSH2 0x2B20 PUSH2 0x2EAA JUMP JUMPDEST PUSH0 DUP2 DUP4 DUP3 JUMPDEST PUSH1 0xA DUP2 LT ISZERO PUSH2 0x2FB5 JUMPI PUSH1 0x1 PUSH1 0x1 PUSH1 0xA0 SHL SUB PUSH2 0x2F9F DUP4 PUSH2 0x29F3 JUMP JUMPDEST AND DUP4 MSTORE PUSH1 0x20 SWAP3 DUP4 ADD SWAP3 SWAP2 SWAP1 SWAP2 ADD SWAP1 PUSH1 0x1 ADD PUSH2 0x2F85 JUMP JUMPDEST POP POP POP PUSH2 0x140 DUP3 ADD SWAP1 POP SWAP3 SWAP2 POP POP JUMP JUMPDEST PUSH1 0xFF DUP2 DUP2 AND DUP4 DUP3 AND MUL SWAP1 DUP2 AND SWAP1 DUP2 DUP2 EQ PUSH2 0x2FE1 JUMPI PUSH2 0x2FE1 PUSH2 0x2EAA JUMP JUMPDEST POP SWAP3 SWAP2 POP POP JUMP JUMPDEST DUP1 DUP3 ADD DUP1 DUP3 GT ISZERO PUSH2 0x2B20 JUMPI PUSH2 0x2B20 PUSH2 0x2EAA JUMP JUMPDEST DUP2 DUP2 SUB DUP2 DUP2 GT ISZERO PUSH2 0x2B20 JUMPI PUSH2 0x2B20 PUSH2 0x2EAA JUMP INVALID LOG2 PUSH5 0x6970667358 0x22 SLT KECCAK256 PUSH1 0xBA PUSH26 0x2D30DD6671766116A1688ECF8F3326F772B47079FFA7C2F22554 EQ XOR EQ PUSH5 0x736F6C6343 STOP ADDMOD BYTE STOP CALLER "
		},
		"gasEstimates": {
			"creation": {
				"codeDepositCost": "2471200",
				"executionCost": "infinite",
				"totalCost": "infinite"
			},
			"external": {
				"CAMPAIGN_DURATION()": "307",
				"GOV_LENGTH()": "284",
				"MAX_APPROVALS()": "305",
				"MIN_DRAFTS()": "249",
				"MIN_VOTERS()": "292",
				"N_MEMBERS()": "314",
				"RANDOM_VOTERS()": "293",
				"REQUIRED_REG()": "240",
				"REQUIRED_SCORE()": "239",
				"RegistrationEnd()": "2383",
				"SUBMISSION_FEE()": "305",
				"addedVoterCount()": "2375",
				"approveRegistrar(address,int8)": "80522",
				"candidateInfo(address)": "infinite",
				"candidateList(uint256)": "4701",
				"constitutionDrafts(uint256)": "infinite",
				"electionEnd()": "2360",
				"getConstitution(uint256)": "infinite",
				"getCurrentPhase()": "infinite",
				"getReferendumResults()": "infinite",
				"getRegistrarsOfHash(bytes32)": "infinite",
				"getVoterStatus(address)": "2601",
				"neutral()": "2404",
				"proposals(uint256)": "infinite",
				"ratifiedConstitutionId()": "2382",
				"referendumEnd()": "2406",
				"referendumVoterCount()": "2356",
				"registerVoterBatch(address[10],bytes32[10])": "infinite",
				"startReferendum()": "infinite",
				"startTime()": "infinite",
				"submitDraft((string,string,string,string,bytes32,string,uint256,uint256))": "infinite",
				"voteInReferendum(uint256[])": "infinite"
			}
		},
		"methodIdentifiers": {
			"CAMPAIGN_DURATION()": "08fd4cfa",
			"GOV_LENGTH()": "5004e24a",
			"MAX_APPROVALS()": "beb54795",
			"MIN_DRAFTS()": "86a0dd7d",
			"MIN_VOTERS()": "d1791ae0",
			"N_MEMBERS()": "e292bf16",
			"RANDOM_VOTERS()": "3def77b7",
			"REQUIRED_REG()": "491de471",
			"REQUIRED_SCORE()": "54c17527",
			"RegistrationEnd()": "be07f0f8",
			"SUBMISSION_FEE()": "7d48536d",
			"addedVoterCount()": "1b408934",
			"approveRegistrar(address,int8)": "29c83be1",
			"candidateInfo(address)": "e965b7c9",
			"candidateList(uint256)": "b13c744b",
			"constitutionDrafts(uint256)": "bbea6f0b",
			"electionEnd()": "ce7ea161",
			"getConstitution(uint256)": "f3a4aba9",
			"getCurrentPhase()": "a3a40ea5",
			"getReferendumResults()": "452d32bb",
			"getRegistrarsOfHash(bytes32)": "08ec6a19",
			"getVoterStatus(address)": "78e3ef20",
			"neutral()": "4d0c8726",
			"proposals(uint256)": "013cf08b",
			"ratifiedConstitutionId()": "eedb2d28",
			"referendumEnd()": "bab752e5",
			"referendumVoterCount()": "e42a54c4",
			"registerVoterBatch(address[10],bytes32[10])": "5204743a",
			"startReferendum()": "be003ee6",
			"startTime()": "78e97925",
			"submitDraft((string,string,string,string,bytes32,string,uint256,uint256))": "00fa88e2",
			"voteInReferendum(uint256[])": "c1b13157"
		}
	},
	"abi": [
		{
			"anonymous": false,
			"inputs": [
				{
					"indexed": true,
					"internalType": "uint256",
					"name": "draftId",
					"type": "uint256"
				},
				{
					"components": [
						{
							"internalType": "string",
							"name": "description",
							"type": "string"
						},
						{
							"internalType": "string",
							"name": "constitutionText",
							"type": "string"
						},
						{
							"internalType": "string",
							"name": "implementationCode",
							"type": "string"
						},
						{
							"internalType": "string",
							"name": "submitterIdentity",
							"type": "string"
						},
						{
							"internalType": "bytes32",
							"name": "hashedOffChain",
							"type": "bytes32"
						},
						{
							"internalType": "string",
							"name": "supportingMaterials",
							"type": "string"
						},
						{
							"internalType": "uint256",
							"name": "submittedAt",
							"type": "uint256"
						},
						{
							"internalType": "uint256",
							"name": "voteCount",
							"type": "uint256"
						}
					],
					"indexed": false,
					"internalType": "struct Referendum.ConstitutionDraft",
					"name": "draft",
					"type": "tuple"
				}
			],
			"name": "ConstitutionDraftSubmitted",
			"type": "event"
		},
		{
			"anonymous": false,
			"inputs": [
				{
					"indexed": true,
					"internalType": "uint256",
					"name": "winningProposalId",
					"type": "uint256"
				},
				{
					"components": [
						{
							"internalType": "string",
							"name": "description",
							"type": "string"
						},
						{
							"internalType": "string",
							"name": "constitutionText",
							"type": "string"
						},
						{
							"internalType": "string",
							"name": "implementationCode",
							"type": "string"
						},
						{
							"internalType": "string",
							"name": "submitterIdentity",
							"type": "string"
						},
						{
							"internalType": "bytes32",
							"name": "hashedOffChain",
							"type": "bytes32"
						},
						{
							"internalType": "string",
							"name": "supportingMaterials",
							"type": "string"
						},
						{
							"internalType": "uint256",
							"name": "submittedAt",
							"type": "uint256"
						},
						{
							"internalType": "uint256",
							"name": "voteCount",
							"type": "uint256"
						}
					],
					"indexed": false,
					"internalType": "struct Referendum.ConstitutionDraft",
					"name": "ratifiedConstitution",
					"type": "tuple"
				}
			],
			"name": "ConstitutionRatified",
			"type": "event"
		},
		{
			"anonymous": false,
			"inputs": [],
			"name": "ReferendumStarted",
			"type": "event"
		},
		{
			"anonymous": false,
			"inputs": [
				{
					"indexed": true,
					"internalType": "address",
					"name": "voter",
					"type": "address"
				}
			],
			"name": "ReferendumVoteCast",
			"type": "event"
		},
		{
			"anonymous": false,
			"inputs": [
				{
					"indexed": true,
					"internalType": "address[10]",
					"name": "voter",
					"type": "address[10]"
				},
				{
					"indexed": false,
					"internalType": "address",
					"name": "registrar",
					"type": "address"
				},
				{
					"indexed": false,
					"internalType": "uint256",
					"name": "referendumVoterCount",
					"type": "uint256"
				}
			],
			"name": "VoterRegistered",
			"type": "event"
		},
		{
			"inputs": [],
			"name": "CAMPAIGN_DURATION",
			"outputs": [
				{
					"internalType": "uint256",
					"name": "",
					"type": "uint256"
				}
			],
			"stateMutability": "view",
			"type": "function"
		},
		{
			"inputs": [],
			"name": "GOV_LENGTH",
			"outputs": [
				{
					"internalType": "uint256",
					"name": "",
					"type": "uint256"
				}
			],
			"stateMutability": "view",
			"type": "function"
		},
		{
			"inputs": [],
			"name": "MAX_APPROVALS",
			"outputs": [
				{
					"internalType": "uint256",
					"name": "",
					"type": "uint256"
				}
			],
			"stateMutability": "view",
			"type": "function"
		},
		{
			"inputs": [],
			"name": "MIN_DRAFTS",
			"outputs": [
				{
					"internalType": "uint8",
					"name": "",
					"type": "uint8"
				}
			],
			"stateMutability": "view",
			"type": "function"
		},
		{
			"inputs": [],
			"name": "MIN_VOTERS",
			"outputs": [
				{
					"internalType": "uint32",
					"name": "",
					"type": "uint32"
				}
			],
			"stateMutability": "view",
			"type": "function"
		},
		{
			"inputs": [],
			"name": "N_MEMBERS",
			"outputs": [
				{
					"internalType": "uint8",
					"name": "",
					"type": "uint8"
				}
			],
			"stateMutability": "view",
			"type": "function"
		},
		{
			"inputs": [],
			"name": "RANDOM_VOTERS",
			"outputs": [
				{
					"internalType": "uint32",
					"name": "",
					"type": "uint32"
				}
			],
			"stateMutability": "view",
			"type": "function"
		},
		{
			"inputs": [],
			"name": "REQUIRED_REG",
			"outputs": [
				{
					"internalType": "uint256",
					"name": "",
					"type": "uint256"
				}
			],
			"stateMutability": "view",
			"type": "function"
		},
		{
			"inputs": [],
			"name": "REQUIRED_SCORE",
			"outputs": [
				{
					"internalType": "int256",
					"name": "",
					"type": "int256"
				}
			],
			"stateMutability": "view",
			"type": "function"
		},
		{
			"inputs": [],
			"name": "RegistrationEnd",
			"outputs": [
				{
					"internalType": "uint256",
					"name": "",
					"type": "uint256"
				}
			],
			"stateMutability": "view",
			"type": "function"
		},
		{
			"inputs": [],
			"name": "SUBMISSION_FEE",
			"outputs": [
				{
					"internalType": "uint256",
					"name": "",
					"type": "uint256"
				}
			],
			"stateMutability": "view",
			"type": "function"
		},
		{
			"inputs": [],
			"name": "addedVoterCount",
			"outputs": [
				{
					"internalType": "uint32",
					"name": "",
					"type": "uint32"
				}
			],
			"stateMutability": "view",
			"type": "function"
		},
		{
			"inputs": [
				{
					"internalType": "address",
					"name": "registrar",
					"type": "address"
				},
				{
					"internalType": "int8",
					"name": "vote",
					"type": "int8"
				}
			],
			"name": "approveRegistrar",
			"outputs": [],
			"stateMutability": "nonpayable",
			"type": "function"
		},
		{
			"inputs": [
				{
					"internalType": "address",
					"name": "",
					"type": "address"
				}
			],
			"name": "candidateInfo",
			"outputs": [
				{
					"internalType": "string",
					"name": "fullName",
					"type": "string"
				},
				{
					"internalType": "string",
					"name": "bio",
					"type": "string"
				},
				{
					"internalType": "string",
					"name": "website",
					"type": "string"
				},
				{
					"internalType": "uint256",
					"name": "registeredAt",
					"type": "uint256"
				},
				{
					"internalType": "uint256",
					"name": "voteCount",
					"type": "uint256"
				},
				{
					"internalType": "uint256",
					"name": "memberID",
					"type": "uint256"
				},
				{
					"internalType": "uint256",
					"name": "leaderAt",
					"type": "uint256"
				},
				{
					"internalType": "uint256",
					"name": "activeProposal",
					"type": "uint256"
				},
				{
					"internalType": "uint256",
					"name": "submittedDraft",
					"type": "uint256"
				}
			],
			"stateMutability": "view",
			"type": "function"
		},
		{
			"inputs": [
				{
					"internalType": "uint256",
					"name": "",
					"type": "uint256"
				}
			],
			"name": "candidateList",
			"outputs": [
				{
					"internalType": "address",
					"name": "",
					"type": "address"
				}
			],
			"stateMutability": "view",
			"type": "function"
		},
		{
			"inputs": [
				{
					"internalType": "uint256",
					"name": "",
					"type": "uint256"
				}
			],
			"name": "constitutionDrafts",
			"outputs": [
				{
					"internalType": "string",
					"name": "description",
					"type": "string"
				},
				{
					"internalType": "string",
					"name": "constitutionText",
					"type": "string"
				},
				{
					"internalType": "string",
					"name": "implementationCode",
					"type": "string"
				},
				{
					"internalType": "string",
					"name": "submitterIdentity",
					"type": "string"
				},
				{
					"internalType": "bytes32",
					"name": "hashedOffChain",
					"type": "bytes32"
				},
				{
					"internalType": "string",
					"name": "supportingMaterials",
					"type": "string"
				},
				{
					"internalType": "uint256",
					"name": "submittedAt",
					"type": "uint256"
				},
				{
					"internalType": "uint256",
					"name": "voteCount",
					"type": "uint256"
				}
			],
			"stateMutability": "view",
			"type": "function"
		},
		{
			"inputs": [],
			"name": "electionEnd",
			"outputs": [
				{
					"internalType": "uint256",
					"name": "",
					"type": "uint256"
				}
			],
			"stateMutability": "view",
			"type": "function"
		},
		{
			"inputs": [
				{
					"internalType": "uint256",
					"name": "draftId",
					"type": "uint256"
				}
			],
			"name": "getConstitution",
			"outputs": [
				{
					"components": [
						{
							"internalType": "string",
							"name": "description",
							"type": "string"
						},
						{
							"internalType": "string",
							"name": "constitutionText",
							"type": "string"
						},
						{
							"internalType": "string",
							"name": "implementationCode",
							"type": "string"
						},
						{
							"internalType": "string",
							"name": "submitterIdentity",
							"type": "string"
						},
						{
							"internalType": "bytes32",
							"name": "hashedOffChain",
							"type": "bytes32"
						},
						{
							"internalType": "string",
							"name": "supportingMaterials",
							"type": "string"
						},
						{
							"internalType": "uint256",
							"name": "submittedAt",
							"type": "uint256"
						},
						{
							"internalType": "uint256",
							"name": "voteCount",
							"type": "uint256"
						}
					],
					"internalType": "struct Referendum.ConstitutionDraft",
					"name": "",
					"type": "tuple"
				}
			],
			"stateMutability": "view",
			"type": "function"
		},
		{
			"inputs": [],
			"name": "getCurrentPhase",
			"outputs": [
				{
					"internalType": "enum Phase",
					"name": "",
					"type": "uint8"
				}
			],
			"stateMutability": "nonpayable",
			"type": "function"
		},
		{
			"inputs": [],
			"name": "getReferendumResults",
			"outputs": [
				{
					"internalType": "uint256",
					"name": "",
					"type": "uint256"
				},
				{
					"components": [
						{
							"internalType": "string",
							"name": "description",
							"type": "string"
						},
						{
							"internalType": "string",
							"name": "constitutionText",
							"type": "string"
						},
						{
							"internalType": "string",
							"name": "implementationCode",
							"type": "string"
						},
						{
							"internalType": "string",
							"name": "submitterIdentity",
							"type": "string"
						},
						{
							"internalType": "bytes32",
							"name": "hashedOffChain",
							"type": "bytes32"
						},
						{
							"internalType": "string",
							"name": "supportingMaterials",
							"type": "string"
						},
						{
							"internalType": "uint256",
							"name": "submittedAt",
							"type": "uint256"
						},
						{
							"internalType": "uint256",
							"name": "voteCount",
							"type": "uint256"
						}
					],
					"internalType": "struct Referendum.ConstitutionDraft",
					"name": "",
					"type": "tuple"
				}
			],
			"stateMutability": "nonpayable",
			"type": "function"
		},
		{
			"inputs": [
				{
					"internalType": "bytes32",
					"name": "voterHash",
					"type": "bytes32"
				}
			],
			"name": "getRegistrarsOfHash",
			"outputs": [
				{
					"internalType": "address[2]",
					"name": "",
					"type": "address[2]"
				}
			],
			"stateMutability": "view",
			"type": "function"
		},
		{
			"inputs": [
				{
					"internalType": "address",
					"name": "voterAddress",
					"type": "address"
				}
			],
			"name": "getVoterStatus",
			"outputs": [
				{
					"internalType": "uint256",
					"name": "",
					"type": "uint256"
				}
			],
			"stateMutability": "view",
			"type": "function"
		},
		{
			"inputs": [],
			"name": "neutral",
			"outputs": [
				{
					"internalType": "address",
					"name": "",
					"type": "address"
				}
			],
			"stateMutability": "view",
			"type": "function"
		},
		{
			"inputs": [
				{
					"internalType": "uint256",
					"name": "",
					"type": "uint256"
				}
			],
			"name": "proposals",
			"outputs": [
				{
					"internalType": "address",
					"name": "proposer",
					"type": "address"
				},
				{
					"internalType": "string",
					"name": "provisions",
					"type": "string"
				},
				{
					"internalType": "uint256",
					"name": "proposedAt",
					"type": "uint256"
				},
				{
					"internalType": "uint256",
					"name": "executedAt",
					"type": "uint256"
				},
				{
					"internalType": "uint256",
					"name": "withdrawnAt",
					"type": "uint256"
				},
				{
					"internalType": "uint8",
					"name": "yesVotes",
					"type": "uint8"
				}
			],
			"stateMutability": "view",
			"type": "function"
		},
		{
			"inputs": [],
			"name": "ratifiedConstitutionId",
			"outputs": [
				{
					"internalType": "uint256",
					"name": "",
					"type": "uint256"
				}
			],
			"stateMutability": "view",
			"type": "function"
		},
		{
			"inputs": [],
			"name": "referendumEnd",
			"outputs": [
				{
					"internalType": "uint256",
					"name": "",
					"type": "uint256"
				}
			],
			"stateMutability": "view",
			"type": "function"
		},
		{
			"inputs": [],
			"name": "referendumVoterCount",
			"outputs": [
				{
					"internalType": "uint32",
					"name": "",
					"type": "uint32"
				}
			],
			"stateMutability": "view",
			"type": "function"
		},
		{
			"inputs": [
				{
					"internalType": "address[10]",
					"name": "voterAddresses",
					"type": "address[10]"
				},
				{
					"internalType": "bytes32[10]",
					"name": "voterHashes",
					"type": "bytes32[10]"
				}
			],
			"name": "registerVoterBatch",
			"outputs": [],
			"stateMutability": "nonpayable",
			"type": "function"
		},
		{
			"inputs": [],
			"name": "startReferendum",
			"outputs": [],
			"stateMutability": "nonpayable",
			"type": "function"
		},
		{
			"inputs": [],
			"name": "startTime",
			"outputs": [
				{
					"internalType": "uint256",
					"name": "",
					"type": "uint256"
				}
			],
			"stateMutability": "view",
			"type": "function"
		},
		{
			"inputs": [
				{
					"components": [
						{
							"internalType": "string",
							"name": "description",
							"type": "string"
						},
						{
							"internalType": "string",
							"name": "constitutionText",
							"type": "string"
						},
						{
							"internalType": "string",
							"name": "implementationCode",
							"type": "string"
						},
						{
							"internalType": "string",
							"name": "submitterIdentity",
							"type": "string"
						},
						{
							"internalType": "bytes32",
							"name": "hashedOffChain",
							"type": "bytes32"
						},
						{
							"internalType": "string",
							"name": "supportingMaterials",
							"type": "string"
						},
						{
							"internalType": "uint256",
							"name": "submittedAt",
							"type": "uint256"
						},
						{
							"internalType": "uint256",
							"name": "voteCount",
							"type": "uint256"
						}
					],
					"internalType": "struct Referendum.ConstitutionDraft",
					"name": "_draft",
					"type": "tuple"
				}
			],
			"name": "submitDraft",
			"outputs": [],
			"stateMutability": "payable",
			"type": "function"
		},
		{
			"inputs": [
				{
					"internalType": "uint256[]",
					"name": "_drafts",
					"type": "uint256[]"
				}
			],
			"name": "voteInReferendum",
			"outputs": [],
			"stateMutability": "nonpayable",
			"type": "function"
		}
	]
}