{
	"data": {
		"bytecode": {
			"linkReferences": {},
			"object": "60a0604052348015600e575f80fd5b50608051610b706100275f395f6103620152610b705ff3fe608060405234801561000f575f80fd5b50600436106100a7575f3560e01c8063a3a40ea51161006f578063a3a40ea514610158578063b0feb26014610176578063b13c744b14610194578063ce7ea161146101c4578063e292bf16146101e2578063e965b7c914610200576100a7565b8063013cf08b146100ab5780633def77b7146100e057806347f7b722146100fe5780634d0c87261461011c57806378e979251461013a575b5f80fd5b6100c560048036038101906100c091906106a5565b610236565b6040516100d7969594939291906107a9565b60405180910390f35b6100e861032e565b6040516100f5919061082d565b60405180910390f35b610106610334565b6040516101139190610846565b60405180910390f35b61012461033b565b604051610131919061085f565b60405180910390f35b610142610360565b60405161014f9190610846565b60405180910390f35b610160610384565b60405161016d91906108eb565b60405180910390f35b61017e610447565b60405161018b9190610846565b60405180910390f35b6101ae60048036038101906101a991906106a5565b61044d565b6040516101bb919061085f565b60405180910390f35b6101cc610488565b6040516101d99190610846565b60405180910390f35b6101ea61048d565b6040516101f79190610904565b60405180910390f35b61021a60048036038101906102159190610947565b610492565b60405161022d979695949392919061098c565b60405180910390f35b60048181548110610245575f80fd5b905f5260205f2090600702015f91509050805f015f9054906101000a900473ffffffffffffffffffffffffffffffffffffffff169080600101805461028990610a3b565b80601f01602080910402602001604051908101604052809291908181526020018280546102b590610a3b565b80156103005780601f106102d757610100808354040283529160200191610300565b820191905f5260205f20905b8154815290600101906020018083116102e357829003601f168201915b505050505090806002015490806003015490806004015490806005015f9054906101000a900460ff16905086565b6103e881565b6212750081565b60015f9054906101000a900473ffffffffffffffffffffffffffffffffffffffff1681565b7f000000000000000000000000000000000000000000000000000000000000000081565b5f620151805f546103959190610a98565b4210156103a4575f9050610444565b5f5442101561041a57603260026103bb9190610acb565b60ff1660028054905010806103ef57506103e863ffffffff16600160149054906101000a900463ffffffff1663ffffffff16105b1561041157621275005f546104049190610b07565b5f819055505f9050610444565b60019050610444565b5f6005540361042c5760029050610444565b60055442101561043f5760039050610444565b600490505b90565b60055481565b6002818154811061045c575f80fd5b905f5260205f20015f915054906101000a900473ffffffffffffffffffffffffffffffffffffffff1681565b5f5481565b603281565b6003602052805f5260405f205f91509050805f0180546104b190610a3b565b80601f01602080910402602001604051908101604052809291908181526020018280546104dd90610a3b565b80156105285780601f106104ff57610100808354040283529160200191610528565b820191905f5260205f20905b81548152906001019060200180831161050b57829003601f168201915b50505050509080600101805461053d90610a3b565b80601f016020809104026020016040519081016040528092919081815260200182805461056990610a3b565b80156105b45780601f1061058b576101008083540402835291602001916105b4565b820191905f5260205f20905b81548152906001019060200180831161059757829003601f168201915b5050505050908060020180546105c990610a3b565b80601f01602080910402602001604051908101604052809291908181526020018280546105f590610a3b565b80156106405780601f1061061757610100808354040283529160200191610640565b820191905f5260205f20905b81548152906001019060200180831161062357829003601f168201915b505050505090806003015490806004015490806005015f9054906101000a900460ff16908060060154905087565b5f80fd5b5f819050919050565b61068481610672565b811461068e575f80fd5b50565b5f8135905061069f8161067b565b92915050565b5f602082840312156106ba576106b961066e565b5b5f6106c784828501610691565b91505092915050565b5f73ffffffffffffffffffffffffffffffffffffffff82169050919050565b5f6106f9826106d0565b9050919050565b610709816106ef565b82525050565b5f81519050919050565b5f82825260208201905092915050565b8281835e5f83830152505050565b5f601f19601f8301169050919050565b5f6107518261070f565b61075b8185610719565b935061076b818560208601610729565b61077481610737565b840191505092915050565b61078881610672565b82525050565b5f60ff82169050919050565b6107a38161078e565b82525050565b5f60c0820190506107bc5f830189610700565b81810360208301526107ce8188610747565b90506107dd604083018761077f565b6107ea606083018661077f565b6107f7608083018561077f565b61080460a083018461079a565b979650505050505050565b5f63ffffffff82169050919050565b6108278161080f565b82525050565b5f6020820190506108405f83018461081e565b92915050565b5f6020820190506108595f83018461077f565b92915050565b5f6020820190506108725f830184610700565b92915050565b7f4e487b71000000000000000000000000000000000000000000000000000000005f52602160045260245ffd5b600581106108b6576108b5610878565b5b50565b5f8190506108c6826108a5565b919050565b5f6108d5826108b9565b9050919050565b6108e5816108cb565b82525050565b5f6020820190506108fe5f8301846108dc565b92915050565b5f6020820190506109175f83018461079a565b92915050565b610926816106ef565b8114610930575f80fd5b50565b5f813590506109418161091d565b92915050565b5f6020828403121561095c5761095b61066e565b5b5f61096984828501610933565b91505092915050565b5f8115159050919050565b61098681610972565b82525050565b5f60e0820190508181035f8301526109a4818a610747565b905081810360208301526109b88189610747565b905081810360408301526109cc8188610747565b90506109db606083018761077f565b6109e8608083018661077f565b6109f560a083018561097d565b610a0260c083018461077f565b98975050505050505050565b7f4e487b71000000000000000000000000000000000000000000000000000000005f52602260045260245ffd5b5f6002820490506001821680610a5257607f821691505b602082108103610a6557610a64610a0e565b5b50919050565b7f4e487b71000000000000000000000000000000000000000000000000000000005f52601160045260245ffd5b5f610aa282610672565b9150610aad83610672565b9250828203905081811115610ac557610ac4610a6b565b5b92915050565b5f610ad58261078e565b9150610ae08361078e565b9250828202610aee8161078e565b9150808214610b0057610aff610a6b565b5b5092915050565b5f610b1182610672565b9150610b1c83610672565b9250828201905080821115610b3457610b33610a6b565b5b9291505056fea26469706673582212206c3adfb7f88e737598e1ac9fd753333630a2816fc428116103e85127f683043a64736f6c634300081a0033",
			"opcodes": "PUSH1 0xA0 PUSH1 0x40 MSTORE CALLVALUE DUP1 ISZERO PUSH1 0xE JUMPI PUSH0 DUP1 REVERT JUMPDEST POP PUSH1 0x80 MLOAD PUSH2 0xB70 PUSH2 0x27 PUSH0 CODECOPY PUSH0 PUSH2 0x362 ADD MSTORE PUSH2 0xB70 PUSH0 RETURN INVALID PUSH1 0x80 PUSH1 0x40 MSTORE CALLVALUE DUP1 ISZERO PUSH2 0xF JUMPI PUSH0 DUP1 REVERT JUMPDEST POP PUSH1 0x4 CALLDATASIZE LT PUSH2 0xA7 JUMPI PUSH0 CALLDATALOAD PUSH1 0xE0 SHR DUP1 PUSH4 0xA3A40EA5 GT PUSH2 0x6F JUMPI DUP1 PUSH4 0xA3A40EA5 EQ PUSH2 0x158 JUMPI DUP1 PUSH4 0xB0FEB260 EQ PUSH2 0x176 JUMPI DUP1 PUSH4 0xB13C744B EQ PUSH2 0x194 JUMPI DUP1 PUSH4 0xCE7EA161 EQ PUSH2 0x1C4 JUMPI DUP1 PUSH4 0xE292BF16 EQ PUSH2 0x1E2 JUMPI DUP1 PUSH4 0xE965B7C9 EQ PUSH2 0x200 JUMPI PUSH2 0xA7 JUMP JUMPDEST DUP1 PUSH4 0x13CF08B EQ PUSH2 0xAB JUMPI DUP1 PUSH4 0x3DEF77B7 EQ PUSH2 0xE0 JUMPI DUP1 PUSH4 0x47F7B722 EQ PUSH2 0xFE JUMPI DUP1 PUSH4 0x4D0C8726 EQ PUSH2 0x11C JUMPI DUP1 PUSH4 0x78E97925 EQ PUSH2 0x13A JUMPI JUMPDEST PUSH0 DUP1 REVERT JUMPDEST PUSH2 0xC5 PUSH1 0x4 DUP1 CALLDATASIZE SUB DUP2 ADD SWAP1 PUSH2 0xC0 SWAP2 SWAP1 PUSH2 0x6A5 JUMP JUMPDEST PUSH2 0x236 JUMP JUMPDEST PUSH1 0x40 MLOAD PUSH2 0xD7 SWAP7 SWAP6 SWAP5 SWAP4 SWAP3 SWAP2 SWAP1 PUSH2 0x7A9 JUMP JUMPDEST PUSH1 0x40 MLOAD DUP1 SWAP2 SUB SWAP1 RETURN JUMPDEST PUSH2 0xE8 PUSH2 0x32E JUMP JUMPDEST PUSH1 0x40 MLOAD PUSH2 0xF5 SWAP2 SWAP1 PUSH2 0x82D JUMP JUMPDEST PUSH1 0x40 MLOAD DUP1 SWAP2 SUB SWAP1 RETURN JUMPDEST PUSH2 0x106 PUSH2 0x334 JUMP JUMPDEST PUSH1 0x40 MLOAD PUSH2 0x113 SWAP2 SWAP1 PUSH2 0x846 JUMP JUMPDEST PUSH1 0x40 MLOAD DUP1 SWAP2 SUB SWAP1 RETURN JUMPDEST PUSH2 0x124 PUSH2 0x33B JUMP JUMPDEST PUSH1 0x40 MLOAD PUSH2 0x131 SWAP2 SWAP1 PUSH2 0x85F JUMP JUMPDEST PUSH1 0x40 MLOAD DUP1 SWAP2 SUB SWAP1 RETURN JUMPDEST PUSH2 0x142 PUSH2 0x360 JUMP JUMPDEST PUSH1 0x40 MLOAD PUSH2 0x14F SWAP2 SWAP1 PUSH2 0x846 JUMP JUMPDEST PUSH1 0x40 MLOAD DUP1 SWAP2 SUB SWAP1 RETURN JUMPDEST PUSH2 0x160 PUSH2 0x384 JUMP JUMPDEST PUSH1 0x40 MLOAD PUSH2 0x16D SWAP2 SWAP1 PUSH2 0x8EB JUMP JUMPDEST PUSH1 0x40 MLOAD DUP1 SWAP2 SUB SWAP1 RETURN JUMPDEST PUSH2 0x17E PUSH2 0x447 JUMP JUMPDEST PUSH1 0x40 MLOAD PUSH2 0x18B SWAP2 SWAP1 PUSH2 0x846 JUMP JUMPDEST PUSH1 0x40 MLOAD DUP1 SWAP2 SUB SWAP1 RETURN JUMPDEST PUSH2 0x1AE PUSH1 0x4 DUP1 CALLDATASIZE SUB DUP2 ADD SWAP1 PUSH2 0x1A9 SWAP2 SWAP1 PUSH2 0x6A5 JUMP JUMPDEST PUSH2 0x44D JUMP JUMPDEST PUSH1 0x40 MLOAD PUSH2 0x1BB SWAP2 SWAP1 PUSH2 0x85F JUMP JUMPDEST PUSH1 0x40 MLOAD DUP1 SWAP2 SUB SWAP1 RETURN JUMPDEST PUSH2 0x1CC PUSH2 0x488 JUMP JUMPDEST PUSH1 0x40 MLOAD PUSH2 0x1D9 SWAP2 SWAP1 PUSH2 0x846 JUMP JUMPDEST PUSH1 0x40 MLOAD DUP1 SWAP2 SUB SWAP1 RETURN JUMPDEST PUSH2 0x1EA PUSH2 0x48D JUMP JUMPDEST PUSH1 0x40 MLOAD PUSH2 0x1F7 SWAP2 SWAP1 PUSH2 0x904 JUMP JUMPDEST PUSH1 0x40 MLOAD DUP1 SWAP2 SUB SWAP1 RETURN JUMPDEST PUSH2 0x21A PUSH1 0x4 DUP1 CALLDATASIZE SUB DUP2 ADD SWAP1 PUSH2 0x215 SWAP2 SWAP1 PUSH2 0x947 JUMP JUMPDEST PUSH2 0x492 JUMP JUMPDEST PUSH1 0x40 MLOAD PUSH2 0x22D SWAP8 SWAP7 SWAP6 SWAP5 SWAP4 SWAP3 SWAP2 SWAP1 PUSH2 0x98C JUMP JUMPDEST PUSH1 0x40 MLOAD DUP1 SWAP2 SUB SWAP1 RETURN JUMPDEST PUSH1 0x4 DUP2 DUP2 SLOAD DUP2 LT PUSH2 0x245 JUMPI PUSH0 DUP1 REVERT JUMPDEST SWAP1 PUSH0 MSTORE PUSH1 0x20 PUSH0 KECCAK256 SWAP1 PUSH1 0x7 MUL ADD PUSH0 SWAP2 POP SWAP1 POP DUP1 PUSH0 ADD PUSH0 SWAP1 SLOAD SWAP1 PUSH2 0x100 EXP SWAP1 DIV PUSH20 0xFFFFFFFFFFFFFFFFFFFFFFFFFFFFFFFFFFFFFFFF AND SWAP1 DUP1 PUSH1 0x1 ADD DUP1 SLOAD PUSH2 0x289 SWAP1 PUSH2 0xA3B JUMP JUMPDEST DUP1 PUSH1 0x1F ADD PUSH1 0x20 DUP1 SWAP2 DIV MUL PUSH1 0x20 ADD PUSH1 0x40 MLOAD SWAP1 DUP2 ADD PUSH1 0x40 MSTORE DUP1 SWAP3 SWAP2 SWAP1 DUP2 DUP2 MSTORE PUSH1 0x20 ADD DUP3 DUP1 SLOAD PUSH2 0x2B5 SWAP1 PUSH2 0xA3B JUMP JUMPDEST DUP1 ISZERO PUSH2 0x300 JUMPI DUP1 PUSH1 0x1F LT PUSH2 0x2D7 JUMPI PUSH2 0x100 DUP1 DUP4 SLOAD DIV MUL DUP4 MSTORE SWAP2 PUSH1 0x20 ADD SWAP2 PUSH2 0x300 JUMP JUMPDEST DUP3 ADD SWAP2 SWAP1 PUSH0 MSTORE PUSH1 0x20 PUSH0 KECCAK256 SWAP1 JUMPDEST DUP2 SLOAD DUP2 MSTORE SWAP1 PUSH1 0x1 ADD SWAP1 PUSH1 0x20 ADD DUP1 DUP4 GT PUSH2 0x2E3 JUMPI DUP3 SWAP1 SUB PUSH1 0x1F AND DUP3 ADD SWAP2 JUMPDEST POP POP POP POP POP SWAP1 DUP1 PUSH1 0x2 ADD SLOAD SWAP1 DUP1 PUSH1 0x3 ADD SLOAD SWAP1 DUP1 PUSH1 0x4 ADD SLOAD SWAP1 DUP1 PUSH1 0x5 ADD PUSH0 SWAP1 SLOAD SWAP1 PUSH2 0x100 EXP SWAP1 DIV PUSH1 0xFF AND SWAP1 POP DUP7 JUMP JUMPDEST PUSH2 0x3E8 DUP2 JUMP JUMPDEST PUSH3 0x127500 DUP2 JUMP JUMPDEST PUSH1 0x1 PUSH0 SWAP1 SLOAD SWAP1 PUSH2 0x100 EXP SWAP1 DIV PUSH20 0xFFFFFFFFFFFFFFFFFFFFFFFFFFFFFFFFFFFFFFFF AND DUP2 JUMP JUMPDEST PUSH32 0x0 DUP2 JUMP JUMPDEST PUSH0 PUSH3 0x15180 PUSH0 SLOAD PUSH2 0x395 SWAP2 SWAP1 PUSH2 0xA98 JUMP JUMPDEST TIMESTAMP LT ISZERO PUSH2 0x3A4 JUMPI PUSH0 SWAP1 POP PUSH2 0x444 JUMP JUMPDEST PUSH0 SLOAD TIMESTAMP LT ISZERO PUSH2 0x41A JUMPI PUSH1 0x32 PUSH1 0x2 PUSH2 0x3BB SWAP2 SWAP1 PUSH2 0xACB JUMP JUMPDEST PUSH1 0xFF AND PUSH1 0x2 DUP1 SLOAD SWAP1 POP LT DUP1 PUSH2 0x3EF JUMPI POP PUSH2 0x3E8 PUSH4 0xFFFFFFFF AND PUSH1 0x1 PUSH1 0x14 SWAP1 SLOAD SWAP1 PUSH2 0x100 EXP SWAP1 DIV PUSH4 0xFFFFFFFF AND PUSH4 0xFFFFFFFF AND LT JUMPDEST ISZERO PUSH2 0x411 JUMPI PUSH3 0x127500 PUSH0 SLOAD PUSH2 0x404 SWAP2 SWAP1 PUSH2 0xB07 JUMP JUMPDEST PUSH0 DUP2 SWAP1 SSTORE POP PUSH0 SWAP1 POP PUSH2 0x444 JUMP JUMPDEST PUSH1 0x1 SWAP1 POP PUSH2 0x444 JUMP JUMPDEST PUSH0 PUSH1 0x5 SLOAD SUB PUSH2 0x42C JUMPI PUSH1 0x2 SWAP1 POP PUSH2 0x444 JUMP JUMPDEST PUSH1 0x5 SLOAD TIMESTAMP LT ISZERO PUSH2 0x43F JUMPI PUSH1 0x3 SWAP1 POP PUSH2 0x444 JUMP JUMPDEST PUSH1 0x4 SWAP1 POP JUMPDEST SWAP1 JUMP JUMPDEST PUSH1 0x5 SLOAD DUP2 JUMP JUMPDEST PUSH1 0x2 DUP2 DUP2 SLOAD DUP2 LT PUSH2 0x45C JUMPI PUSH0 DUP1 REVERT JUMPDEST SWAP1 PUSH0 MSTORE PUSH1 0x20 PUSH0 KECCAK256 ADD PUSH0 SWAP2 POP SLOAD SWAP1 PUSH2 0x100 EXP SWAP1 DIV PUSH20 0xFFFFFFFFFFFFFFFFFFFFFFFFFFFFFFFFFFFFFFFF AND DUP2 JUMP JUMPDEST PUSH0 SLOAD DUP2 JUMP JUMPDEST PUSH1 0x32 DUP2 JUMP JUMPDEST PUSH1 0x3 PUSH1 0x20 MSTORE DUP1 PUSH0 MSTORE PUSH1 0x40 PUSH0 KECCAK256 PUSH0 SWAP2 POP SWAP1 POP DUP1 PUSH0 ADD DUP1 SLOAD PUSH2 0x4B1 SWAP1 PUSH2 0xA3B JUMP JUMPDEST DUP1 PUSH1 0x1F ADD PUSH1 0x20 DUP1 SWAP2 DIV MUL PUSH1 0x20 ADD PUSH1 0x40 MLOAD SWAP1 DUP2 ADD PUSH1 0x40 MSTORE DUP1 SWAP3 SWAP2 SWAP1 DUP2 DUP2 MSTORE PUSH1 0x20 ADD DUP3 DUP1 SLOAD PUSH2 0x4DD SWAP1 PUSH2 0xA3B JUMP JUMPDEST DUP1 ISZERO PUSH2 0x528 JUMPI DUP1 PUSH1 0x1F LT PUSH2 0x4FF JUMPI PUSH2 0x100 DUP1 DUP4 SLOAD DIV MUL DUP4 MSTORE SWAP2 PUSH1 0x20 ADD SWAP2 PUSH2 0x528 JUMP JUMPDEST DUP3 ADD SWAP2 SWAP1 PUSH0 MSTORE PUSH1 0x20 PUSH0 KECCAK256 SWAP1 JUMPDEST DUP2 SLOAD DUP2 MSTORE SWAP1 PUSH1 0x1 ADD SWAP1 PUSH1 0x20 ADD DUP1 DUP4 GT PUSH2 0x50B JUMPI DUP3 SWAP1 SUB PUSH1 0x1F AND DUP3 ADD SWAP2 JUMPDEST POP POP POP POP POP SWAP1 DUP1 PUSH1 0x1 ADD DUP1 SLOAD PUSH2 0x53D SWAP1 PUSH2 0xA3B JUMP JUMPDEST DUP1 PUSH1 0x1F ADD PUSH1 0x20 DUP1 SWAP2 DIV MUL PUSH1 0x20 ADD PUSH1 0x40 MLOAD SWAP1 DUP2 ADD PUSH1 0x40 MSTORE DUP1 SWAP3 SWAP2 SWAP1 DUP2 DUP2 MSTORE PUSH1 0x20 ADD DUP3 DUP1 SLOAD PUSH2 0x569 SWAP1 PUSH2 0xA3B JUMP JUMPDEST DUP1 ISZERO PUSH2 0x5B4 JUMPI DUP1 PUSH1 0x1F LT PUSH2 0x58B JUMPI PUSH2 0x100 DUP1 DUP4 SLOAD DIV MUL DUP4 MSTORE SWAP2 PUSH1 0x20 ADD SWAP2 PUSH2 0x5B4 JUMP JUMPDEST DUP3 ADD SWAP2 SWAP1 PUSH0 MSTORE PUSH1 0x20 PUSH0 KECCAK256 SWAP1 JUMPDEST DUP2 SLOAD DUP2 MSTORE SWAP1 PUSH1 0x1 ADD SWAP1 PUSH1 0x20 ADD DUP1 DUP4 GT PUSH2 0x597 JUMPI DUP3 SWAP1 SUB PUSH1 0x1F AND DUP3 ADD SWAP2 JUMPDEST POP POP POP POP POP SWAP1 DUP1 PUSH1 0x2 ADD DUP1 SLOAD PUSH2 0x5C9 SWAP1 PUSH2 0xA3B JUMP JUMPDEST DUP1 PUSH1 0x1F ADD PUSH1 0x20 DUP1 SWAP2 DIV MUL PUSH1 0x20 ADD PUSH1 0x40 MLOAD SWAP1 DUP2 ADD PUSH1 0x40 MSTORE DUP1 SWAP3 SWAP2 SWAP1 DUP2 DUP2 MSTORE PUSH1 0x20 ADD DUP3 DUP1 SLOAD PUSH2 0x5F5 SWAP1 PUSH2 0xA3B JUMP JUMPDEST DUP1 ISZERO PUSH2 0x640 JUMPI DUP1 PUSH1 0x1F LT PUSH2 0x617 JUMPI PUSH2 0x100 DUP1 DUP4 SLOAD DIV MUL DUP4 MSTORE SWAP2 PUSH1 0x20 ADD SWAP2 PUSH2 0x640 JUMP JUMPDEST DUP3 ADD SWAP2 SWAP1 PUSH0 MSTORE PUSH1 0x20 PUSH0 KECCAK256 SWAP1 JUMPDEST DUP2 SLOAD DUP2 MSTORE SWAP1 PUSH1 0x1 ADD SWAP1 PUSH1 0x20 ADD DUP1 DUP4 GT PUSH2 0x623 JUMPI DUP3 SWAP1 SUB PUSH1 0x1F AND DUP3 ADD SWAP2 JUMPDEST POP POP POP POP POP SWAP1 DUP1 PUSH1 0x3 ADD SLOAD SWAP1 DUP1 PUSH1 0x4 ADD SLOAD SWAP1 DUP1 PUSH1 0x5 ADD PUSH0 SWAP1 SLOAD SWAP1 PUSH2 0x100 EXP SWAP1 DIV PUSH1 0xFF AND SWAP1 DUP1 PUSH1 0x6 ADD SLOAD SWAP1 POP DUP8 JUMP JUMPDEST PUSH0 DUP1 REVERT JUMPDEST PUSH0 DUP2 SWAP1 POP SWAP2 SWAP1 POP JUMP JUMPDEST PUSH2 0x684 DUP2 PUSH2 0x672 JUMP JUMPDEST DUP2 EQ PUSH2 0x68E JUMPI PUSH0 DUP1 REVERT JUMPDEST POP JUMP JUMPDEST PUSH0 DUP2 CALLDATALOAD SWAP1 POP PUSH2 0x69F DUP2 PUSH2 0x67B JUMP JUMPDEST SWAP3 SWAP2 POP POP JUMP JUMPDEST PUSH0 PUSH1 0x20 DUP3 DUP5 SUB SLT ISZERO PUSH2 0x6BA JUMPI PUSH2 0x6B9 PUSH2 0x66E JUMP JUMPDEST JUMPDEST PUSH0 PUSH2 0x6C7 DUP5 DUP3 DUP6 ADD PUSH2 0x691 JUMP JUMPDEST SWAP2 POP POP SWAP3 SWAP2 POP POP JUMP JUMPDEST PUSH0 PUSH20 0xFFFFFFFFFFFFFFFFFFFFFFFFFFFFFFFFFFFFFFFF DUP3 AND SWAP1 POP SWAP2 SWAP1 POP JUMP JUMPDEST PUSH0 PUSH2 0x6F9 DUP3 PUSH2 0x6D0 JUMP JUMPDEST SWAP1 POP SWAP2 SWAP1 POP JUMP JUMPDEST PUSH2 0x709 DUP2 PUSH2 0x6EF JUMP JUMPDEST DUP3 MSTORE POP POP JUMP JUMPDEST PUSH0 DUP2 MLOAD SWAP1 POP SWAP2 SWAP1 POP JUMP JUMPDEST PUSH0 DUP3 DUP3 MSTORE PUSH1 0x20 DUP3 ADD SWAP1 POP SWAP3 SWAP2 POP POP JUMP JUMPDEST DUP3 DUP2 DUP4 MCOPY PUSH0 DUP4 DUP4 ADD MSTORE POP POP POP JUMP JUMPDEST PUSH0 PUSH1 0x1F NOT PUSH1 0x1F DUP4 ADD AND SWAP1 POP SWAP2 SWAP1 POP JUMP JUMPDEST PUSH0 PUSH2 0x751 DUP3 PUSH2 0x70F JUMP JUMPDEST PUSH2 0x75B DUP2 DUP6 PUSH2 0x719 JUMP JUMPDEST SWAP4 POP PUSH2 0x76B DUP2 DUP6 PUSH1 0x20 DUP7 ADD PUSH2 0x729 JUMP JUMPDEST PUSH2 0x774 DUP2 PUSH2 0x737 JUMP JUMPDEST DUP5 ADD SWAP2 POP POP SWAP3 SWAP2 POP POP JUMP JUMPDEST PUSH2 0x788 DUP2 PUSH2 0x672 JUMP JUMPDEST DUP3 MSTORE POP POP JUMP JUMPDEST PUSH0 PUSH1 0xFF DUP3 AND SWAP1 POP SWAP2 SWAP1 POP JUMP JUMPDEST PUSH2 0x7A3 DUP2 PUSH2 0x78E JUMP JUMPDEST DUP3 MSTORE POP POP JUMP JUMPDEST PUSH0 PUSH1 0xC0 DUP3 ADD SWAP1 POP PUSH2 0x7BC PUSH0 DUP4 ADD DUP10 PUSH2 0x700 JUMP JUMPDEST DUP2 DUP2 SUB PUSH1 0x20 DUP4 ADD MSTORE PUSH2 0x7CE DUP2 DUP9 PUSH2 0x747 JUMP JUMPDEST SWAP1 POP PUSH2 0x7DD PUSH1 0x40 DUP4 ADD DUP8 PUSH2 0x77F JUMP JUMPDEST PUSH2 0x7EA PUSH1 0x60 DUP4 ADD DUP7 PUSH2 0x77F JUMP JUMPDEST PUSH2 0x7F7 PUSH1 0x80 DUP4 ADD DUP6 PUSH2 0x77F JUMP JUMPDEST PUSH2 0x804 PUSH1 0xA0 DUP4 ADD DUP5 PUSH2 0x79A JUMP JUMPDEST SWAP8 SWAP7 POP POP POP POP POP POP POP JUMP JUMPDEST PUSH0 PUSH4 0xFFFFFFFF DUP3 AND SWAP1 POP SWAP2 SWAP1 POP JUMP JUMPDEST PUSH2 0x827 DUP2 PUSH2 0x80F JUMP JUMPDEST DUP3 MSTORE POP POP JUMP JUMPDEST PUSH0 PUSH1 0x20 DUP3 ADD SWAP1 POP PUSH2 0x840 PUSH0 DUP4 ADD DUP5 PUSH2 0x81E JUMP JUMPDEST SWAP3 SWAP2 POP POP JUMP JUMPDEST PUSH0 PUSH1 0x20 DUP3 ADD SWAP1 POP PUSH2 0x859 PUSH0 DUP4 ADD DUP5 PUSH2 0x77F JUMP JUMPDEST SWAP3 SWAP2 POP POP JUMP JUMPDEST PUSH0 PUSH1 0x20 DUP3 ADD SWAP1 POP PUSH2 0x872 PUSH0 DUP4 ADD DUP5 PUSH2 0x700 JUMP JUMPDEST SWAP3 SWAP2 POP POP JUMP JUMPDEST PUSH32 0x4E487B7100000000000000000000000000000000000000000000000000000000 PUSH0 MSTORE PUSH1 0x21 PUSH1 0x4 MSTORE PUSH1 0x24 PUSH0 REVERT JUMPDEST PUSH1 0x5 DUP2 LT PUSH2 0x8B6 JUMPI PUSH2 0x8B5 PUSH2 0x878 JUMP JUMPDEST JUMPDEST POP JUMP JUMPDEST PUSH0 DUP2 SWAP1 POP PUSH2 0x8C6 DUP3 PUSH2 0x8A5 JUMP JUMPDEST SWAP2 SWAP1 POP JUMP JUMPDEST PUSH0 PUSH2 0x8D5 DUP3 PUSH2 0x8B9 JUMP JUMPDEST SWAP1 POP SWAP2 SWAP1 POP JUMP JUMPDEST PUSH2 0x8E5 DUP2 PUSH2 0x8CB JUMP JUMPDEST DUP3 MSTORE POP POP JUMP JUMPDEST PUSH0 PUSH1 0x20 DUP3 ADD SWAP1 POP PUSH2 0x8FE PUSH0 DUP4 ADD DUP5 PUSH2 0x8DC JUMP JUMPDEST SWAP3 SWAP2 POP POP JUMP JUMPDEST PUSH0 PUSH1 0x20 DUP3 ADD SWAP1 POP PUSH2 0x917 PUSH0 DUP4 ADD DUP5 PUSH2 0x79A JUMP JUMPDEST SWAP3 SWAP2 POP POP JUMP JUMPDEST PUSH2 0x926 DUP2 PUSH2 0x6EF JUMP JUMPDEST DUP2 EQ PUSH2 0x930 JUMPI PUSH0 DUP1 REVERT JUMPDEST POP JUMP JUMPDEST PUSH0 DUP2 CALLDATALOAD SWAP1 POP PUSH2 0x941 DUP2 PUSH2 0x91D JUMP JUMPDEST SWAP3 SWAP2 POP POP JUMP JUMPDEST PUSH0 PUSH1 0x20 DUP3 DUP5 SUB SLT ISZERO PUSH2 0x95C JUMPI PUSH2 0x95B PUSH2 0x66E JUMP JUMPDEST JUMPDEST PUSH0 PUSH2 0x969 DUP5 DUP3 DUP6 ADD PUSH2 0x933 JUMP JUMPDEST SWAP2 POP POP SWAP3 SWAP2 POP POP JUMP JUMPDEST PUSH0 DUP2 ISZERO ISZERO SWAP1 POP SWAP2 SWAP1 POP JUMP JUMPDEST PUSH2 0x986 DUP2 PUSH2 0x972 JUMP JUMPDEST DUP3 MSTORE POP POP JUMP JUMPDEST PUSH0 PUSH1 0xE0 DUP3 ADD SWAP1 POP DUP2 DUP2 SUB PUSH0 DUP4 ADD MSTORE PUSH2 0x9A4 DUP2 DUP11 PUSH2 0x747 JUMP JUMPDEST SWAP1 POP DUP2 DUP2 SUB PUSH1 0x20 DUP4 ADD MSTORE PUSH2 0x9B8 DUP2 DUP10 PUSH2 0x747 JUMP JUMPDEST SWAP1 POP DUP2 DUP2 SUB PUSH1 0x40 DUP4 ADD MSTORE PUSH2 0x9CC DUP2 DUP9 PUSH2 0x747 JUMP JUMPDEST SWAP1 POP PUSH2 0x9DB PUSH1 0x60 DUP4 ADD DUP8 PUSH2 0x77F JUMP JUMPDEST PUSH2 0x9E8 PUSH1 0x80 DUP4 ADD DUP7 PUSH2 0x77F JUMP JUMPDEST PUSH2 0x9F5 PUSH1 0xA0 DUP4 ADD DUP6 PUSH2 0x97D JUMP JUMPDEST PUSH2 0xA02 PUSH1 0xC0 DUP4 ADD DUP5 PUSH2 0x77F JUMP JUMPDEST SWAP9 SWAP8 POP POP POP POP POP POP POP POP JUMP JUMPDEST PUSH32 0x4E487B7100000000000000000000000000000000000000000000000000000000 PUSH0 MSTORE PUSH1 0x22 PUSH1 0x4 MSTORE PUSH1 0x24 PUSH0 REVERT JUMPDEST PUSH0 PUSH1 0x2 DUP3 DIV SWAP1 POP PUSH1 0x1 DUP3 AND DUP1 PUSH2 0xA52 JUMPI PUSH1 0x7F DUP3 AND SWAP2 POP JUMPDEST PUSH1 0x20 DUP3 LT DUP2 SUB PUSH2 0xA65 JUMPI PUSH2 0xA64 PUSH2 0xA0E JUMP JUMPDEST JUMPDEST POP SWAP2 SWAP1 POP JUMP JUMPDEST PUSH32 0x4E487B7100000000000000000000000000000000000000000000000000000000 PUSH0 MSTORE PUSH1 0x11 PUSH1 0x4 MSTORE PUSH1 0x24 PUSH0 REVERT JUMPDEST PUSH0 PUSH2 0xAA2 DUP3 PUSH2 0x672 JUMP JUMPDEST SWAP2 POP PUSH2 0xAAD DUP4 PUSH2 0x672 JUMP JUMPDEST SWAP3 POP DUP3 DUP3 SUB SWAP1 POP DUP2 DUP2 GT ISZERO PUSH2 0xAC5 JUMPI PUSH2 0xAC4 PUSH2 0xA6B JUMP JUMPDEST JUMPDEST SWAP3 SWAP2 POP POP JUMP JUMPDEST PUSH0 PUSH2 0xAD5 DUP3 PUSH2 0x78E JUMP JUMPDEST SWAP2 POP PUSH2 0xAE0 DUP4 PUSH2 0x78E JUMP JUMPDEST SWAP3 POP DUP3 DUP3 MUL PUSH2 0xAEE DUP2 PUSH2 0x78E JUMP JUMPDEST SWAP2 POP DUP1 DUP3 EQ PUSH2 0xB00 JUMPI PUSH2 0xAFF PUSH2 0xA6B JUMP JUMPDEST JUMPDEST POP SWAP3 SWAP2 POP POP JUMP JUMPDEST PUSH0 PUSH2 0xB11 DUP3 PUSH2 0x672 JUMP JUMPDEST SWAP2 POP PUSH2 0xB1C DUP4 PUSH2 0x672 JUMP JUMPDEST SWAP3 POP DUP3 DUP3 ADD SWAP1 POP DUP1 DUP3 GT ISZERO PUSH2 0xB34 JUMPI PUSH2 0xB33 PUSH2 0xA6B JUMP JUMPDEST JUMPDEST SWAP3 SWAP2 POP POP JUMP INVALID LOG2 PUSH5 0x6970667358 0x22 SLT KECCAK256 PUSH13 0x3ADFB7F88E737598E1AC9FD753 CALLER CALLDATASIZE ADDRESS LOG2 DUP2 PUSH16 0xC428116103E85127F683043A64736F6C PUSH4 0x4300081A STOP CALLER "
		},
		"gasEstimates": {
			"creation": {
				"codeDepositCost": "585600",
				"executionCost": "infinite",
				"totalCost": "infinite"
			},
			"external": {
				"N_MEMBERS()": "419",
				"RANDOM_VOTERS()": "354",
				"REG_TIME()": "370",
				"candidateInfo(address)": "infinite",
				"candidateList(uint256)": "4988",
				"electionEnd()": "2490",
				"getCurrentPhase()": "infinite",
				"neutral()": "2575",
				"proposals(uint256)": "infinite",
				"referendumEndTime()": "2447",
				"startTime()": "infinite"
			}
		},
		"methodIdentifiers": {
			"N_MEMBERS()": "e292bf16",
			"RANDOM_VOTERS()": "3def77b7",
			"REG_TIME()": "47f7b722",
			"candidateInfo(address)": "e965b7c9",
			"candidateList(uint256)": "b13c744b",
			"electionEnd()": "ce7ea161",
			"getCurrentPhase()": "a3a40ea5",
			"neutral()": "4d0c8726",
			"proposals(uint256)": "013cf08b",
			"referendumEndTime()": "b0feb260",
			"startTime()": "78e97925"
		}
	},
	"abi": [
		{
			"inputs": [],
			"name": "N_MEMBERS",
			"outputs": [
				{
					"internalType": "uint8",
					"name": "",
					"type": "uint8"
				}
			],
			"stateMutability": "view",
			"type": "function"
		},
		{
			"inputs": [],
			"name": "RANDOM_VOTERS",
			"outputs": [
				{
					"internalType": "uint32",
					"name": "",
					"type": "uint32"
				}
			],
			"stateMutability": "view",
			"type": "function"
		},
		{
			"inputs": [],
			"name": "REG_TIME",
			"outputs": [
				{
					"internalType": "uint256",
					"name": "",
					"type": "uint256"
				}
			],
			"stateMutability": "view",
			"type": "function"
		},
		{
			"inputs": [
				{
					"internalType": "address",
					"name": "",
					"type": "address"
				}
			],
			"name": "candidateInfo",
			"outputs": [
				{
					"internalType": "string",
					"name": "fullName",
					"type": "string"
				},
				{
					"internalType": "string",
					"name": "bio",
					"type": "string"
				},
				{
					"internalType": "string",
					"name": "website",
					"type": "string"
				},
				{
					"internalType": "uint256",
					"name": "registeredAt",
					"type": "uint256"
				},
				{
					"internalType": "uint256",
					"name": "voteCount",
					"type": "uint256"
				},
				{
					"internalType": "bool",
					"name": "electedMember",
					"type": "bool"
				},
				{
					"internalType": "uint256",
					"name": "leaderAt",
					"type": "uint256"
				}
			],
			"stateMutability": "view",
			"type": "function"
		},
		{
			"inputs": [
				{
					"internalType": "uint256",
					"name": "",
					"type": "uint256"
				}
			],
			"name": "candidateList",
			"outputs": [
				{
					"internalType": "address",
					"name": "",
					"type": "address"
				}
			],
			"stateMutability": "view",
			"type": "function"
		},
		{
			"inputs": [],
			"name": "electionEnd",
			"outputs": [
				{
					"internalType": "uint256",
					"name": "",
					"type": "uint256"
				}
			],
			"stateMutability": "view",
			"type": "function"
		},
		{
			"inputs": [],
			"name": "getCurrentPhase",
			"outputs": [
				{
					"internalType": "enum Phase",
					"name": "",
					"type": "uint8"
				}
			],
			"stateMutability": "nonpayable",
			"type": "function"
		},
		{
			"inputs": [],
			"name": "neutral",
			"outputs": [
				{
					"internalType": "address",
					"name": "",
					"type": "address"
				}
			],
			"stateMutability": "view",
			"type": "function"
		},
		{
			"inputs": [
				{
					"internalType": "uint256",
					"name": "",
					"type": "uint256"
				}
			],
			"name": "proposals",
			"outputs": [
				{
					"internalType": "address",
					"name": "proposer",
					"type": "address"
				},
				{
					"internalType": "string",
					"name": "provisions",
					"type": "string"
				},
				{
					"internalType": "uint256",
					"name": "proposedAt",
					"type": "uint256"
				},
				{
					"internalType": "uint256",
					"name": "executedAt",
					"type": "uint256"
				},
				{
					"internalType": "uint256",
					"name": "withdrawnAt",
					"type": "uint256"
				},
				{
					"internalType": "uint8",
					"name": "yesVotes",
					"type": "uint8"
				}
			],
			"stateMutability": "view",
			"type": "function"
		},
		{
			"inputs": [],
			"name": "referendumEndTime",
			"outputs": [
				{
					"internalType": "uint256",
					"name": "",
					"type": "uint256"
				}
			],
			"stateMutability": "view",
			"type": "function"
		},
		{
			"inputs": [],
			"name": "startTime",
			"outputs": [
				{
					"internalType": "uint256",
					"name": "",
					"type": "uint256"
				}
			],
			"stateMutability": "view",
			"type": "function"
		}
	]
}