{
	"data": {
		"bytecode": {
			"linkReferences": {},
			"object": "60a0604052348015600e575f80fd5b506080516108076100275f395f61018a01526108075ff3fe608060405234801561000f575f80fd5b50600436106100cb575f3560e01c8063a3a40ea511610088578063be07f0f811610063578063be07f0f8146101dd578063ce7ea161146101e5578063e292bf16146101ee578063e965b7c914610208575f80fd5b8063a3a40ea5146101ac578063b13c744b146101c1578063bab752e5146101d4575f80fd5b8063013cf08b146100cf57806308fd4cfa146100fc5780631b408934146101145780633def77b71461013c5780634d0c87261461015a57806378e9792514610185575b5f80fd5b6100e26100dd3660046105e1565b610230565b6040516100f3959493929190610626565b60405180910390f35b6101066212750081565b6040519081526020016100f3565b60025461012990600160a01b900461ffff1681565b60405161ffff90911681526020016100f3565b6101456104b081565b60405163ffffffff90911681526020016100f3565b60025461016d906001600160a01b031681565b6040516001600160a01b0390911681526020016100f3565b6101067f000000000000000000000000000000000000000000000000000000000000000081565b6101b4610307565b6040516100f39190610669565b61016d6101cf3660046105e1565b6103d5565b61010660065481565b6101065f5481565b61010660015481565b6101f6603281565b60405160ff90911681526020016100f3565b61021b61021636600461068f565b6103fd565b6040516100f3999897969594939291906106bc565b6005818154811061023f575f80fd5b5f918252602090912060059091020180546001820180546001600160a01b0390921693509061026d90610736565b80601f016020809104026020016040519081016040528092919081815260200182805461029990610736565b80156102e45780601f106102bb576101008083540402835291602001916102e4565b820191905f5260205f20905b8154815290600101906020018083116102c757829003601f168201915b50505050600283015460039093015491929160ff80821692506101009091041685565b5f805442101561031657505f90565b61032260326002610782565b60ff16600380549050108061034657506002546104b0600160a01b90910461ffff16105b1561035357505f80805590565b5f545f0361038557425f81905561036e9062127500906107a5565b61037b90620151806107a5565b6001908155919050565b6001805461039391906107be565b4210156103a05750600190565b6001544210156103b05750600290565b6006545f036103bf5750600390565b6006544210156103cf5750600490565b50600590565b600381815481106103e4575f80fd5b5f918252602090912001546001600160a01b0316905081565b60046020525f908152604090208054819061041790610736565b80601f016020809104026020016040519081016040528092919081815260200182805461044390610736565b801561048e5780601f106104655761010080835404028352916020019161048e565b820191905f5260205f20905b81548152906001019060200180831161047157829003601f168201915b5050505050908060010180546104a390610736565b80601f01602080910402602001604051908101604052809291908181526020018280546104cf90610736565b801561051a5780601f106104f15761010080835404028352916020019161051a565b820191905f5260205f20905b8154815290600101906020018083116104fd57829003601f168201915b50505050509080600201805461052f90610736565b80601f016020809104026020016040519081016040528092919081815260200182805461055b90610736565b80156105a65780601f1061057d576101008083540402835291602001916105a6565b820191905f5260205f20905b81548152906001019060200180831161058957829003601f168201915b505050506003830154600484015460058501546006909501549394919361ffff8083169450620100009283900460ff16939281831692041689565b5f602082840312156105f1575f80fd5b5035919050565b5f81518084528060208401602086015e5f602082860101526020601f19601f83011685010191505092915050565b6001600160a01b038616815260a0602082018190525f90610649908301876105f8565b604083019590955250911515606083015260ff1660809091015292915050565b602081016006831061068957634e487b7160e01b5f52602160045260245ffd5b91905290565b5f6020828403121561069f575f80fd5b81356001600160a01b03811681146106b5575f80fd5b9392505050565b61012081525f6106d061012083018c6105f8565b82810360208401526106e2818c6105f8565b905082810360408401526106f6818b6105f8565b6060840199909952505061ffff958616608082015260ff9490941660a085015260c0840192909252831660e0830152909116610100909101529392505050565b600181811c9082168061074a57607f821691505b60208210810361076857634e487b7160e01b5f52602260045260245ffd5b50919050565b634e487b7160e01b5f52601160045260245ffd5b60ff818116838216029081169081811461079e5761079e61076e565b5092915050565b808201808211156107b8576107b861076e565b92915050565b818103818111156107b8576107b861076e56fea264697066735822122046ab56fbb981aa28c49040524dfc71fedd12bcaa403a851e0d84a6ceb72a83fd64736f6c634300081a0033",
			"opcodes": "PUSH1 0xA0 PUSH1 0x40 MSTORE CALLVALUE DUP1 ISZERO PUSH1 0xE JUMPI PUSH0 DUP1 REVERT JUMPDEST POP PUSH1 0x80 MLOAD PUSH2 0x807 PUSH2 0x27 PUSH0 CODECOPY PUSH0 PUSH2 0x18A ADD MSTORE PUSH2 0x807 PUSH0 RETURN INVALID PUSH1 0x80 PUSH1 0x40 MSTORE CALLVALUE DUP1 ISZERO PUSH2 0xF JUMPI PUSH0 DUP1 REVERT JUMPDEST POP PUSH1 0x4 CALLDATASIZE LT PUSH2 0xCB JUMPI PUSH0 CALLDATALOAD PUSH1 0xE0 SHR DUP1 PUSH4 0xA3A40EA5 GT PUSH2 0x88 JUMPI DUP1 PUSH4 0xBE07F0F8 GT PUSH2 0x63 JUMPI DUP1 PUSH4 0xBE07F0F8 EQ PUSH2 0x1DD JUMPI DUP1 PUSH4 0xCE7EA161 EQ PUSH2 0x1E5 JUMPI DUP1 PUSH4 0xE292BF16 EQ PUSH2 0x1EE JUMPI DUP1 PUSH4 0xE965B7C9 EQ PUSH2 0x208 JUMPI PUSH0 DUP1 REVERT JUMPDEST DUP1 PUSH4 0xA3A40EA5 EQ PUSH2 0x1AC JUMPI DUP1 PUSH4 0xB13C744B EQ PUSH2 0x1C1 JUMPI DUP1 PUSH4 0xBAB752E5 EQ PUSH2 0x1D4 JUMPI PUSH0 DUP1 REVERT JUMPDEST DUP1 PUSH4 0x13CF08B EQ PUSH2 0xCF JUMPI DUP1 PUSH4 0x8FD4CFA EQ PUSH2 0xFC JUMPI DUP1 PUSH4 0x1B408934 EQ PUSH2 0x114 JUMPI DUP1 PUSH4 0x3DEF77B7 EQ PUSH2 0x13C JUMPI DUP1 PUSH4 0x4D0C8726 EQ PUSH2 0x15A JUMPI DUP1 PUSH4 0x78E97925 EQ PUSH2 0x185 JUMPI JUMPDEST PUSH0 DUP1 REVERT JUMPDEST PUSH2 0xE2 PUSH2 0xDD CALLDATASIZE PUSH1 0x4 PUSH2 0x5E1 JUMP JUMPDEST PUSH2 0x230 JUMP JUMPDEST PUSH1 0x40 MLOAD PUSH2 0xF3 SWAP6 SWAP5 SWAP4 SWAP3 SWAP2 SWAP1 PUSH2 0x626 JUMP JUMPDEST PUSH1 0x40 MLOAD DUP1 SWAP2 SUB SWAP1 RETURN JUMPDEST PUSH2 0x106 PUSH3 0x127500 DUP2 JUMP JUMPDEST PUSH1 0x40 MLOAD SWAP1 DUP2 MSTORE PUSH1 0x20 ADD PUSH2 0xF3 JUMP JUMPDEST PUSH1 0x2 SLOAD PUSH2 0x129 SWAP1 PUSH1 0x1 PUSH1 0xA0 SHL SWAP1 DIV PUSH2 0xFFFF AND DUP2 JUMP JUMPDEST PUSH1 0x40 MLOAD PUSH2 0xFFFF SWAP1 SWAP2 AND DUP2 MSTORE PUSH1 0x20 ADD PUSH2 0xF3 JUMP JUMPDEST PUSH2 0x145 PUSH2 0x4B0 DUP2 JUMP JUMPDEST PUSH1 0x40 MLOAD PUSH4 0xFFFFFFFF SWAP1 SWAP2 AND DUP2 MSTORE PUSH1 0x20 ADD PUSH2 0xF3 JUMP JUMPDEST PUSH1 0x2 SLOAD PUSH2 0x16D SWAP1 PUSH1 0x1 PUSH1 0x1 PUSH1 0xA0 SHL SUB AND DUP2 JUMP JUMPDEST PUSH1 0x40 MLOAD PUSH1 0x1 PUSH1 0x1 PUSH1 0xA0 SHL SUB SWAP1 SWAP2 AND DUP2 MSTORE PUSH1 0x20 ADD PUSH2 0xF3 JUMP JUMPDEST PUSH2 0x106 PUSH32 0x0 DUP2 JUMP JUMPDEST PUSH2 0x1B4 PUSH2 0x307 JUMP JUMPDEST PUSH1 0x40 MLOAD PUSH2 0xF3 SWAP2 SWAP1 PUSH2 0x669 JUMP JUMPDEST PUSH2 0x16D PUSH2 0x1CF CALLDATASIZE PUSH1 0x4 PUSH2 0x5E1 JUMP JUMPDEST PUSH2 0x3D5 JUMP JUMPDEST PUSH2 0x106 PUSH1 0x6 SLOAD DUP2 JUMP JUMPDEST PUSH2 0x106 PUSH0 SLOAD DUP2 JUMP JUMPDEST PUSH2 0x106 PUSH1 0x1 SLOAD DUP2 JUMP JUMPDEST PUSH2 0x1F6 PUSH1 0x32 DUP2 JUMP JUMPDEST PUSH1 0x40 MLOAD PUSH1 0xFF SWAP1 SWAP2 AND DUP2 MSTORE PUSH1 0x20 ADD PUSH2 0xF3 JUMP JUMPDEST PUSH2 0x21B PUSH2 0x216 CALLDATASIZE PUSH1 0x4 PUSH2 0x68F JUMP JUMPDEST PUSH2 0x3FD JUMP JUMPDEST PUSH1 0x40 MLOAD PUSH2 0xF3 SWAP10 SWAP9 SWAP8 SWAP7 SWAP6 SWAP5 SWAP4 SWAP3 SWAP2 SWAP1 PUSH2 0x6BC JUMP JUMPDEST PUSH1 0x5 DUP2 DUP2 SLOAD DUP2 LT PUSH2 0x23F JUMPI PUSH0 DUP1 REVERT JUMPDEST PUSH0 SWAP2 DUP3 MSTORE PUSH1 0x20 SWAP1 SWAP2 KECCAK256 PUSH1 0x5 SWAP1 SWAP2 MUL ADD DUP1 SLOAD PUSH1 0x1 DUP3 ADD DUP1 SLOAD PUSH1 0x1 PUSH1 0x1 PUSH1 0xA0 SHL SUB SWAP1 SWAP3 AND SWAP4 POP SWAP1 PUSH2 0x26D SWAP1 PUSH2 0x736 JUMP JUMPDEST DUP1 PUSH1 0x1F ADD PUSH1 0x20 DUP1 SWAP2 DIV MUL PUSH1 0x20 ADD PUSH1 0x40 MLOAD SWAP1 DUP2 ADD PUSH1 0x40 MSTORE DUP1 SWAP3 SWAP2 SWAP1 DUP2 DUP2 MSTORE PUSH1 0x20 ADD DUP3 DUP1 SLOAD PUSH2 0x299 SWAP1 PUSH2 0x736 JUMP JUMPDEST DUP1 ISZERO PUSH2 0x2E4 JUMPI DUP1 PUSH1 0x1F LT PUSH2 0x2BB JUMPI PUSH2 0x100 DUP1 DUP4 SLOAD DIV MUL DUP4 MSTORE SWAP2 PUSH1 0x20 ADD SWAP2 PUSH2 0x2E4 JUMP JUMPDEST DUP3 ADD SWAP2 SWAP1 PUSH0 MSTORE PUSH1 0x20 PUSH0 KECCAK256 SWAP1 JUMPDEST DUP2 SLOAD DUP2 MSTORE SWAP1 PUSH1 0x1 ADD SWAP1 PUSH1 0x20 ADD DUP1 DUP4 GT PUSH2 0x2C7 JUMPI DUP3 SWAP1 SUB PUSH1 0x1F AND DUP3 ADD SWAP2 JUMPDEST POP POP POP POP PUSH1 0x2 DUP4 ADD SLOAD PUSH1 0x3 SWAP1 SWAP4 ADD SLOAD SWAP2 SWAP3 SWAP2 PUSH1 0xFF DUP1 DUP3 AND SWAP3 POP PUSH2 0x100 SWAP1 SWAP2 DIV AND DUP6 JUMP JUMPDEST PUSH0 DUP1 SLOAD TIMESTAMP LT ISZERO PUSH2 0x316 JUMPI POP PUSH0 SWAP1 JUMP JUMPDEST PUSH2 0x322 PUSH1 0x32 PUSH1 0x2 PUSH2 0x782 JUMP JUMPDEST PUSH1 0xFF AND PUSH1 0x3 DUP1 SLOAD SWAP1 POP LT DUP1 PUSH2 0x346 JUMPI POP PUSH1 0x2 SLOAD PUSH2 0x4B0 PUSH1 0x1 PUSH1 0xA0 SHL SWAP1 SWAP2 DIV PUSH2 0xFFFF AND LT JUMPDEST ISZERO PUSH2 0x353 JUMPI POP PUSH0 DUP1 DUP1 SSTORE SWAP1 JUMP JUMPDEST PUSH0 SLOAD PUSH0 SUB PUSH2 0x385 JUMPI TIMESTAMP PUSH0 DUP2 SWAP1 SSTORE PUSH2 0x36E SWAP1 PUSH3 0x127500 SWAP1 PUSH2 0x7A5 JUMP JUMPDEST PUSH2 0x37B SWAP1 PUSH3 0x15180 PUSH2 0x7A5 JUMP JUMPDEST PUSH1 0x1 SWAP1 DUP2 SSTORE SWAP2 SWAP1 POP JUMP JUMPDEST PUSH1 0x1 DUP1 SLOAD PUSH2 0x393 SWAP2 SWAP1 PUSH2 0x7BE JUMP JUMPDEST TIMESTAMP LT ISZERO PUSH2 0x3A0 JUMPI POP PUSH1 0x1 SWAP1 JUMP JUMPDEST PUSH1 0x1 SLOAD TIMESTAMP LT ISZERO PUSH2 0x3B0 JUMPI POP PUSH1 0x2 SWAP1 JUMP JUMPDEST PUSH1 0x6 SLOAD PUSH0 SUB PUSH2 0x3BF JUMPI POP PUSH1 0x3 SWAP1 JUMP JUMPDEST PUSH1 0x6 SLOAD TIMESTAMP LT ISZERO PUSH2 0x3CF JUMPI POP PUSH1 0x4 SWAP1 JUMP JUMPDEST POP PUSH1 0x5 SWAP1 JUMP JUMPDEST PUSH1 0x3 DUP2 DUP2 SLOAD DUP2 LT PUSH2 0x3E4 JUMPI PUSH0 DUP1 REVERT JUMPDEST PUSH0 SWAP2 DUP3 MSTORE PUSH1 0x20 SWAP1 SWAP2 KECCAK256 ADD SLOAD PUSH1 0x1 PUSH1 0x1 PUSH1 0xA0 SHL SUB AND SWAP1 POP DUP2 JUMP JUMPDEST PUSH1 0x4 PUSH1 0x20 MSTORE PUSH0 SWAP1 DUP2 MSTORE PUSH1 0x40 SWAP1 KECCAK256 DUP1 SLOAD DUP2 SWAP1 PUSH2 0x417 SWAP1 PUSH2 0x736 JUMP JUMPDEST DUP1 PUSH1 0x1F ADD PUSH1 0x20 DUP1 SWAP2 DIV MUL PUSH1 0x20 ADD PUSH1 0x40 MLOAD SWAP1 DUP2 ADD PUSH1 0x40 MSTORE DUP1 SWAP3 SWAP2 SWAP1 DUP2 DUP2 MSTORE PUSH1 0x20 ADD DUP3 DUP1 SLOAD PUSH2 0x443 SWAP1 PUSH2 0x736 JUMP JUMPDEST DUP1 ISZERO PUSH2 0x48E JUMPI DUP1 PUSH1 0x1F LT PUSH2 0x465 JUMPI PUSH2 0x100 DUP1 DUP4 SLOAD DIV MUL DUP4 MSTORE SWAP2 PUSH1 0x20 ADD SWAP2 PUSH2 0x48E JUMP JUMPDEST DUP3 ADD SWAP2 SWAP1 PUSH0 MSTORE PUSH1 0x20 PUSH0 KECCAK256 SWAP1 JUMPDEST DUP2 SLOAD DUP2 MSTORE SWAP1 PUSH1 0x1 ADD SWAP1 PUSH1 0x20 ADD DUP1 DUP4 GT PUSH2 0x471 JUMPI DUP3 SWAP1 SUB PUSH1 0x1F AND DUP3 ADD SWAP2 JUMPDEST POP POP POP POP POP SWAP1 DUP1 PUSH1 0x1 ADD DUP1 SLOAD PUSH2 0x4A3 SWAP1 PUSH2 0x736 JUMP JUMPDEST DUP1 PUSH1 0x1F ADD PUSH1 0x20 DUP1 SWAP2 DIV MUL PUSH1 0x20 ADD PUSH1 0x40 MLOAD SWAP1 DUP2 ADD PUSH1 0x40 MSTORE DUP1 SWAP3 SWAP2 SWAP1 DUP2 DUP2 MSTORE PUSH1 0x20 ADD DUP3 DUP1 SLOAD PUSH2 0x4CF SWAP1 PUSH2 0x736 JUMP JUMPDEST DUP1 ISZERO PUSH2 0x51A JUMPI DUP1 PUSH1 0x1F LT PUSH2 0x4F1 JUMPI PUSH2 0x100 DUP1 DUP4 SLOAD DIV MUL DUP4 MSTORE SWAP2 PUSH1 0x20 ADD SWAP2 PUSH2 0x51A JUMP JUMPDEST DUP3 ADD SWAP2 SWAP1 PUSH0 MSTORE PUSH1 0x20 PUSH0 KECCAK256 SWAP1 JUMPDEST DUP2 SLOAD DUP2 MSTORE SWAP1 PUSH1 0x1 ADD SWAP1 PUSH1 0x20 ADD DUP1 DUP4 GT PUSH2 0x4FD JUMPI DUP3 SWAP1 SUB PUSH1 0x1F AND DUP3 ADD SWAP2 JUMPDEST POP POP POP POP POP SWAP1 DUP1 PUSH1 0x2 ADD DUP1 SLOAD PUSH2 0x52F SWAP1 PUSH2 0x736 JUMP JUMPDEST DUP1 PUSH1 0x1F ADD PUSH1 0x20 DUP1 SWAP2 DIV MUL PUSH1 0x20 ADD PUSH1 0x40 MLOAD SWAP1 DUP2 ADD PUSH1 0x40 MSTORE DUP1 SWAP3 SWAP2 SWAP1 DUP2 DUP2 MSTORE PUSH1 0x20 ADD DUP3 DUP1 SLOAD PUSH2 0x55B SWAP1 PUSH2 0x736 JUMP JUMPDEST DUP1 ISZERO PUSH2 0x5A6 JUMPI DUP1 PUSH1 0x1F LT PUSH2 0x57D JUMPI PUSH2 0x100 DUP1 DUP4 SLOAD DIV MUL DUP4 MSTORE SWAP2 PUSH1 0x20 ADD SWAP2 PUSH2 0x5A6 JUMP JUMPDEST DUP3 ADD SWAP2 SWAP1 PUSH0 MSTORE PUSH1 0x20 PUSH0 KECCAK256 SWAP1 JUMPDEST DUP2 SLOAD DUP2 MSTORE SWAP1 PUSH1 0x1 ADD SWAP1 PUSH1 0x20 ADD DUP1 DUP4 GT PUSH2 0x589 JUMPI DUP3 SWAP1 SUB PUSH1 0x1F AND DUP3 ADD SWAP2 JUMPDEST POP POP POP POP PUSH1 0x3 DUP4 ADD SLOAD PUSH1 0x4 DUP5 ADD SLOAD PUSH1 0x5 DUP6 ADD SLOAD PUSH1 0x6 SWAP1 SWAP6 ADD SLOAD SWAP4 SWAP5 SWAP2 SWAP4 PUSH2 0xFFFF DUP1 DUP4 AND SWAP5 POP PUSH3 0x10000 SWAP3 DUP4 SWAP1 DIV PUSH1 0xFF AND SWAP4 SWAP3 DUP2 DUP4 AND SWAP3 DIV AND DUP10 JUMP JUMPDEST PUSH0 PUSH1 0x20 DUP3 DUP5 SUB SLT ISZERO PUSH2 0x5F1 JUMPI PUSH0 DUP1 REVERT JUMPDEST POP CALLDATALOAD SWAP2 SWAP1 POP JUMP JUMPDEST PUSH0 DUP2 MLOAD DUP1 DUP5 MSTORE DUP1 PUSH1 0x20 DUP5 ADD PUSH1 0x20 DUP7 ADD MCOPY PUSH0 PUSH1 0x20 DUP3 DUP7 ADD ADD MSTORE PUSH1 0x20 PUSH1 0x1F NOT PUSH1 0x1F DUP4 ADD AND DUP6 ADD ADD SWAP2 POP POP SWAP3 SWAP2 POP POP JUMP JUMPDEST PUSH1 0x1 PUSH1 0x1 PUSH1 0xA0 SHL SUB DUP7 AND DUP2 MSTORE PUSH1 0xA0 PUSH1 0x20 DUP3 ADD DUP2 SWAP1 MSTORE PUSH0 SWAP1 PUSH2 0x649 SWAP1 DUP4 ADD DUP8 PUSH2 0x5F8 JUMP JUMPDEST PUSH1 0x40 DUP4 ADD SWAP6 SWAP1 SWAP6 MSTORE POP SWAP2 ISZERO ISZERO PUSH1 0x60 DUP4 ADD MSTORE PUSH1 0xFF AND PUSH1 0x80 SWAP1 SWAP2 ADD MSTORE SWAP3 SWAP2 POP POP JUMP JUMPDEST PUSH1 0x20 DUP2 ADD PUSH1 0x6 DUP4 LT PUSH2 0x689 JUMPI PUSH4 0x4E487B71 PUSH1 0xE0 SHL PUSH0 MSTORE PUSH1 0x21 PUSH1 0x4 MSTORE PUSH1 0x24 PUSH0 REVERT JUMPDEST SWAP2 SWAP1 MSTORE SWAP1 JUMP JUMPDEST PUSH0 PUSH1 0x20 DUP3 DUP5 SUB SLT ISZERO PUSH2 0x69F JUMPI PUSH0 DUP1 REVERT JUMPDEST DUP2 CALLDATALOAD PUSH1 0x1 PUSH1 0x1 PUSH1 0xA0 SHL SUB DUP2 AND DUP2 EQ PUSH2 0x6B5 JUMPI PUSH0 DUP1 REVERT JUMPDEST SWAP4 SWAP3 POP POP POP JUMP JUMPDEST PUSH2 0x120 DUP2 MSTORE PUSH0 PUSH2 0x6D0 PUSH2 0x120 DUP4 ADD DUP13 PUSH2 0x5F8 JUMP JUMPDEST DUP3 DUP2 SUB PUSH1 0x20 DUP5 ADD MSTORE PUSH2 0x6E2 DUP2 DUP13 PUSH2 0x5F8 JUMP JUMPDEST SWAP1 POP DUP3 DUP2 SUB PUSH1 0x40 DUP5 ADD MSTORE PUSH2 0x6F6 DUP2 DUP12 PUSH2 0x5F8 JUMP JUMPDEST PUSH1 0x60 DUP5 ADD SWAP10 SWAP1 SWAP10 MSTORE POP POP PUSH2 0xFFFF SWAP6 DUP7 AND PUSH1 0x80 DUP3 ADD MSTORE PUSH1 0xFF SWAP5 SWAP1 SWAP5 AND PUSH1 0xA0 DUP6 ADD MSTORE PUSH1 0xC0 DUP5 ADD SWAP3 SWAP1 SWAP3 MSTORE DUP4 AND PUSH1 0xE0 DUP4 ADD MSTORE SWAP1 SWAP2 AND PUSH2 0x100 SWAP1 SWAP2 ADD MSTORE SWAP4 SWAP3 POP POP POP JUMP JUMPDEST PUSH1 0x1 DUP2 DUP2 SHR SWAP1 DUP3 AND DUP1 PUSH2 0x74A JUMPI PUSH1 0x7F DUP3 AND SWAP2 POP JUMPDEST PUSH1 0x20 DUP3 LT DUP2 SUB PUSH2 0x768 JUMPI PUSH4 0x4E487B71 PUSH1 0xE0 SHL PUSH0 MSTORE PUSH1 0x22 PUSH1 0x4 MSTORE PUSH1 0x24 PUSH0 REVERT JUMPDEST POP SWAP2 SWAP1 POP JUMP JUMPDEST PUSH4 0x4E487B71 PUSH1 0xE0 SHL PUSH0 MSTORE PUSH1 0x11 PUSH1 0x4 MSTORE PUSH1 0x24 PUSH0 REVERT JUMPDEST PUSH1 0xFF DUP2 DUP2 AND DUP4 DUP3 AND MUL SWAP1 DUP2 AND SWAP1 DUP2 DUP2 EQ PUSH2 0x79E JUMPI PUSH2 0x79E PUSH2 0x76E JUMP JUMPDEST POP SWAP3 SWAP2 POP POP JUMP JUMPDEST DUP1 DUP3 ADD DUP1 DUP3 GT ISZERO PUSH2 0x7B8 JUMPI PUSH2 0x7B8 PUSH2 0x76E JUMP JUMPDEST SWAP3 SWAP2 POP POP JUMP JUMPDEST DUP2 DUP2 SUB DUP2 DUP2 GT ISZERO PUSH2 0x7B8 JUMPI PUSH2 0x7B8 PUSH2 0x76E JUMP INVALID LOG2 PUSH5 0x6970667358 0x22 SLT KECCAK256 CHAINID 0xAB JUMP 0xFB 0xB9 DUP2 0xAA 0x28 0xC4 SWAP1 BLOCKHASH MSTORE 0x4D 0xFC PUSH18 0xFEDD12BCAA403A851E0D84A6CEB72A83FD64 PUSH20 0x6F6C634300081A00330000000000000000000000 "
		},
		"gasEstimates": {
			"creation": {
				"codeDepositCost": "411000",
				"executionCost": "infinite",
				"totalCost": "infinite"
			},
			"external": {
				"CAMPAIGN_DURATION()": "217",
				"N_MEMBERS()": "269",
				"RANDOM_VOTERS()": "270",
				"RegistrationEnd()": "2315",
				"addedVoterCount()": "2374",
				"candidateInfo(address)": "infinite",
				"candidateList(uint256)": "4656",
				"electionEnd()": "2338",
				"getCurrentPhase()": "infinite",
				"neutral()": "2425",
				"proposals(uint256)": "infinite",
				"referendumEnd()": "2361",
				"startTime()": "infinite"
			}
		},
		"methodIdentifiers": {
			"CAMPAIGN_DURATION()": "08fd4cfa",
			"N_MEMBERS()": "e292bf16",
			"RANDOM_VOTERS()": "3def77b7",
			"RegistrationEnd()": "be07f0f8",
			"addedVoterCount()": "1b408934",
			"candidateInfo(address)": "e965b7c9",
			"candidateList(uint256)": "b13c744b",
			"electionEnd()": "ce7ea161",
			"getCurrentPhase()": "a3a40ea5",
			"neutral()": "4d0c8726",
			"proposals(uint256)": "013cf08b",
			"referendumEnd()": "bab752e5",
			"startTime()": "78e97925"
		}
	},
	"abi": [
		{
			"inputs": [],
			"name": "CAMPAIGN_DURATION",
			"outputs": [
				{
					"internalType": "uint256",
					"name": "",
					"type": "uint256"
				}
			],
			"stateMutability": "view",
			"type": "function"
		},
		{
			"inputs": [],
			"name": "N_MEMBERS",
			"outputs": [
				{
					"internalType": "uint8",
					"name": "",
					"type": "uint8"
				}
			],
			"stateMutability": "view",
			"type": "function"
		},
		{
			"inputs": [],
			"name": "RANDOM_VOTERS",
			"outputs": [
				{
					"internalType": "uint32",
					"name": "",
					"type": "uint32"
				}
			],
			"stateMutability": "view",
			"type": "function"
		},
		{
			"inputs": [],
			"name": "RegistrationEnd",
			"outputs": [
				{
					"internalType": "uint256",
					"name": "",
					"type": "uint256"
				}
			],
			"stateMutability": "view",
			"type": "function"
		},
		{
			"inputs": [],
			"name": "addedVoterCount",
			"outputs": [
				{
					"internalType": "uint16",
					"name": "",
					"type": "uint16"
				}
			],
			"stateMutability": "view",
			"type": "function"
		},
		{
			"inputs": [
				{
					"internalType": "address",
					"name": "",
					"type": "address"
				}
			],
			"name": "candidateInfo",
			"outputs": [
				{
					"internalType": "string",
					"name": "fullName",
					"type": "string"
				},
				{
					"internalType": "string",
					"name": "bio",
					"type": "string"
				},
				{
					"internalType": "string",
					"name": "website",
					"type": "string"
				},
				{
					"internalType": "uint256",
					"name": "registeredAt",
					"type": "uint256"
				},
				{
					"internalType": "uint16",
					"name": "voteCount",
					"type": "uint16"
				},
				{
					"internalType": "uint8",
					"name": "memberID",
					"type": "uint8"
				},
				{
					"internalType": "uint256",
					"name": "leaderAt",
					"type": "uint256"
				},
				{
					"internalType": "uint16",
					"name": "activeProposal",
					"type": "uint16"
				},
				{
					"internalType": "uint16",
					"name": "submittedDraft",
					"type": "uint16"
				}
			],
			"stateMutability": "view",
			"type": "function"
		},
		{
			"inputs": [
				{
					"internalType": "uint256",
					"name": "",
					"type": "uint256"
				}
			],
			"name": "candidateList",
			"outputs": [
				{
					"internalType": "address",
					"name": "",
					"type": "address"
				}
			],
			"stateMutability": "view",
			"type": "function"
		},
		{
			"inputs": [],
			"name": "electionEnd",
			"outputs": [
				{
					"internalType": "uint256",
					"name": "",
					"type": "uint256"
				}
			],
			"stateMutability": "view",
			"type": "function"
		},
		{
			"inputs": [],
			"name": "getCurrentPhase",
			"outputs": [
				{
					"internalType": "enum Phase",
					"name": "",
					"type": "uint8"
				}
			],
			"stateMutability": "nonpayable",
			"type": "function"
		},
		{
			"inputs": [],
			"name": "neutral",
			"outputs": [
				{
					"internalType": "address",
					"name": "",
					"type": "address"
				}
			],
			"stateMutability": "view",
			"type": "function"
		},
		{
			"inputs": [
				{
					"internalType": "uint256",
					"name": "",
					"type": "uint256"
				}
			],
			"name": "proposals",
			"outputs": [
				{
					"internalType": "address",
					"name": "proposer",
					"type": "address"
				},
				{
					"internalType": "string",
					"name": "provisions",
					"type": "string"
				},
				{
					"internalType": "uint256",
					"name": "executedAt",
					"type": "uint256"
				},
				{
					"internalType": "bool",
					"name": "withdrawn",
					"type": "bool"
				},
				{
					"internalType": "uint8",
					"name": "yesVotes",
					"type": "uint8"
				}
			],
			"stateMutability": "view",
			"type": "function"
		},
		{
			"inputs": [],
			"name": "referendumEnd",
			"outputs": [
				{
					"internalType": "uint256",
					"name": "",
					"type": "uint256"
				}
			],
			"stateMutability": "view",
			"type": "function"
		},
		{
			"inputs": [],
			"name": "startTime",
			"outputs": [
				{
					"internalType": "uint256",
					"name": "",
					"type": "uint256"
				}
			],
			"stateMutability": "view",
			"type": "function"
		}
	]
}