{
	"data": {
		"bytecode": {
			"linkReferences": {},
			"object": "60a0604052600c805460ff19908116909155608080549091166032179055348015610028575f80fd5b5060405161628e38038061628e8339810160408190526100479161024c565b610054600683600361011b565b50426080819052610068906224ea006102e2565b5f81905561007a9062127500906102e2565b61008790620151806102e2565b6001908155600e805491820181555f526005027fbb7b4a454dc3493923482f07822329ed19e8244eff582cc204f8554c3620c3fd810180546001600160a01b03191633178155907fbb7b4a454dc3493923482f07822329ed19e8244eff582cc204f8554c3620c3fe016100fa838261038b565b506080516002820155600301805461ffff1916613200179055506104459050565b8260038101928215610163579160200282015b8281111561016357825182546001600160a01b0319166001600160a01b0390911617825560209092019160019091019061012e565b5061016f929150610173565b5090565b5b8082111561016f575f8155600101610174565b634e487b7160e01b5f52604160045260245ffd5b604051606081016001600160401b03811182821017156101bd576101bd610187565b60405290565b5f82601f8301126101d2575f80fd5b81516001600160401b038111156101eb576101eb610187565b604051601f8201601f19908116603f011681016001600160401b038111828210171561021957610219610187565b604052818152838201602001851015610230575f80fd5b8160208501602083015e5f918101602001919091529392505050565b5f806080838503121561025d575f80fd5b83601f84011261026b575f80fd5b61027361019b565b806060850186811115610284575f80fd5b855b818110156102b25780516001600160a01b03811681146102a4575f80fd5b845260209384019301610286565b505190935090506001600160401b038111156102cc575f80fd5b6102d8858286016101c3565b9150509250929050565b8082018082111561030157634e487b7160e01b5f52601160045260245ffd5b92915050565b600181811c9082168061031b57607f821691505b60208210810361033957634e487b7160e01b5f52602260045260245ffd5b50919050565b601f82111561038657805f5260205f20601f840160051c810160208510156103645750805b601f840160051c820191505b81811015610383575f8155600101610370565b50505b505050565b81516001600160401b038111156103a4576103a4610187565b6103b8816103b28454610307565b8461033f565b6020601f8211600181146103ea575f83156103d35750848201515b5f19600385901b1c1916600184901b178455610383565b5f84815260208120601f198516915b8281101561041957878501518255602094850194600190920191016103f9565b508482101561043657868401515f19600387901b60f8161c191681555b50505050600190811b01905550565b608051615e3161045d5f395f6106da0152615e315ff3fe608060405260043610610392575f3560e01c8063a3a40ea5116101de578063c1b1315711610108578063e42a54c41161009d578063eccf1f101161006d578063eccf1f1014610abe578063eedb2d2814610adf578063f33e957314610af4578063f9f8bdb714610b13575f80fd5b8063e42a54c414610a21578063e965b7c914610a3d578063ea84f8c414610a71578063eab536fc14610a90575f80fd5b8063d7a87e23116100d8578063d7a87e23146109bb578063e1564695146109cf578063e1f02ffa146109ee578063e292bf1614610a0d575f80fd5b8063c1b1315714610943578063c8d7b9f114610962578063ce7ea1611461097b578063d1791ae014610990575f80fd5b8063bab752e51161017e578063bdc8e7b31161014e578063bdc8e7b3146108e7578063be003ee614610906578063be07f0f81461091a578063beb547951461092e575f80fd5b8063bab752e514610852578063bb2c88a014610867578063bbb8279d1461087c578063bbea6f0b146108b5575f80fd5b8063b13c744b116101b9578063b13c744b146107e8578063b13d8f1514610807578063b39137771461081a578063b85c22921461083e575f80fd5b8063a3a40ea514610794578063a5f5b1bf146107b5578063a6a5ad12146107c9575f80fd5b806349066e79116102bf57806354c175271161025f57806386a0dd7d1161022f57806386a0dd7d1461070f57806397dffc61146107235780639a7413271461072b5780639dc9945514610756575f80fd5b806354c175271461068957806370f67cfe1461069d57806378e97925146106c95780637d48536d146106fc575f80fd5b80635004e24a1161029a5780635004e24a146105e9578063513856c8146105ff5780635204743a1461063657806353fdc83814610655575f80fd5b806349066e791461043e578063491de471146105bb5780634ebeb109146105cf575f80fd5b80631b408934116103355780633044332011610305578063304433201461053a5780633b497b28146105655780633def77b714610584578063452d32bb14610599575f80fd5b80631b408934146104a15780631ffbb064146104ce57806323929cc9146104fc57806329c83be11461051b575f80fd5b8063089e35b811610370578063089e35b81461041557806308fd4cfa1461043e5780630f3a8bfa1461046257806312065fe01461048d575f80fd5b8063013cf08b14610396578063045c6ce0146103cf578063079ddd1114610400575b5f80fd5b3480156103a1575f80fd5b506103b56103b0366004614d05565b610b28565b6040516103c6959493929190614d4a565b60405180910390f35b3480156103da575f80fd5b506103ee6103e9366004614d05565b610bff565b60405160ff90911681526020016103c6565b61041361040e366004614dd1565b610e97565b005b348015610420575f80fd5b50600c5461042e9060ff1681565b60405190151581526020016103c6565b348015610449575f80fd5b506104546212750081565b6040519081526020016103c6565b34801561046d575f80fd5b5061045461047c366004614e81565b60126020525f908152604090205481565b348015610498575f80fd5b506104546111da565b3480156104ac575f80fd5b506003546104bb9061ffff1681565b60405161ffff90911681526020016103c6565b3480156104d9575f80fd5b5061042e6104e8366004614e81565b60096020525f908152604090205460ff1681565b348015610507575f80fd5b5061042e610516366004614ed8565b61124d565b348015610526575f80fd5b50610413610535366004614f2b565b6112a7565b348015610545575f80fd5b50610454610554366004614e81565b600b6020525f908152604090205481565b348015610570575f80fd5b5061045461057f366004614fa7565b6114b6565b34801561058f575f80fd5b506104bb6104b081565b3480156105a4575f80fd5b506105ad6116e8565b6040516103c6929190615113565b3480156105c6575f80fd5b50610454600281565b3480156105da575f80fd5b5061045466038d7ea4c6800081565b3480156105f4575f80fd5b50610454625c490081565b34801561060a575f80fd5b5061061e610619366004614d05565b611f0e565b6040516001600160a01b0390911681526020016103c6565b348015610641575f80fd5b50610413610650366004615142565b611f2d565b348015610660575f80fd5b5061067461066f366004615177565b612424565b604080519283526020830191909152016103c6565b348015610694575f80fd5b50610454600a81565b3480156106a8575f80fd5b506106bc6106b7366004614d05565b61245c565b6040516103c691906151a1565b3480156106d4575f80fd5b506104547f000000000000000000000000000000000000000000000000000000000000000081565b348015610707575f80fd5b506104545f81565b34801561071a575f80fd5b506103ee600a81565b610413612742565b348015610736575f80fd5b50610454610745366004614e81565b60166020525f908152604090205481565b348015610761575f80fd5b50610775610770366004614d05565b6127bc565b604080516001600160a01b0390931683526020830191909152016103c6565b34801561079f575f80fd5b506107a86127e7565b6040516103c69190615276565b3480156107c0575f80fd5b506104136128af565b3480156107d4575f80fd5b506104136107e336600461529c565b612a1f565b3480156107f3575f80fd5b5061061e610802366004614d05565b612d31565b610413610815366004615454565b612d59565b348015610825575f80fd5b50600c5461061e9061010090046001600160a01b031681565b348015610849575f80fd5b506103ee601e81565b34801561085d575f80fd5b5061045460025481565b348015610872575f80fd5b50610454600d5481565b348015610887575f80fd5b5061042e610896366004615177565b600f60209081525f928352604080842090915290825290205460ff1681565b3480156108c0575f80fd5b506108d46108cf366004614d05565b613103565b6040516103c69796959493929190615587565b3480156108f2575f80fd5b506103ee610901366004614d05565b613368565b348015610911575f80fd5b50610413613917565b348015610925575f80fd5b506104545f5481565b348015610939575f80fd5b506104546103e881565b34801561094e575f80fd5b5061041361095d36600461529c565b613a8a565b34801561096d575f80fd5b506080546103ee9060ff1681565b348015610986575f80fd5b5061045460015481565b34801561099b575f80fd5b506109a6620f424081565b60405163ffffffff90911681526020016103c6565b3480156109c6575f80fd5b506103ee600381565b3480156109da575f80fd5b5061061e6109e93660046155f0565b613d25565b3480156109f9575f80fd5b50610413610a08366004614d05565b613d50565b348015610a18575f80fd5b506103ee603281565b348015610a2c575f80fd5b506013546109a69063ffffffff1681565b348015610a48575f80fd5b50610a5c610a57366004614e81565b613ef8565b6040516103c699989796959493929190615610565b348015610a7c575f80fd5b50610413610a8b36600461568a565b6140dc565b348015610a9b575f80fd5b506103ee610aaa366004614e81565b607f6020525f908152604090205460ff1681565b348015610ac9575f80fd5b50610ad26146ab565b6040516103c691906156c5565b348015610aea575f80fd5b5061045460145481565b348015610aff575f80fd5b50610674610b0e366004614d05565b614ab1565b348015610b1e575f80fd5b5061045460185481565b600e8181548110610b37575f80fd5b5f918252602090912060059091020180546001820180546001600160a01b03909216935090610b6590615710565b80601f0160208091040260200160405190810160405280929190818152602001828054610b9190615710565b8015610bdc5780601f10610bb357610100808354040283529160200191610bdc565b820191905f5260205f20905b815481529060010190602001808311610bbf57829003601f168201915b50505050600283015460039093015491929160ff80821692506101009091041685565b335f9081526005602052604081206004015462010000900460ff16610c635760405162461bcd60e51b81526020600482015260156024820152744f6e6c79206d656d626572732063616e20766f746560581b60448201526064015b60405180910390fd5b600e548210610caa5760405162461bcd60e51b8152602060048201526013602482015272125b9d985b1a59081c1c9bdc1bdcd85b081251606a1b6044820152606401610c5a565b5f600e8381548110610cbe57610cbe615748565b5f9182526020909120600590910201600381015490915060ff1615610d1a5760405162461bcd60e51b8152602060048201526012602482015271283937b837b9b0b6103bb4ba34323930bbb760711b6044820152606401610c5a565b335f908152600f6020908152604080832086845290915290205460ff1615610d745760405162461bcd60e51b815260206004820152600d60248201526c105b1c9958591e481d9bdd1959609a1b6044820152606401610c5a565b335f908152600f602090815260408083208684529091529020805460ff19166001908117909155600382018054610100900460ff1691610db383615770565b91906101000a81548160ff021916908360ff16021790555050336001600160a01b0316837f34647120636ce03d739347e28e9d1bdd34fd03d066ae60439fb1be2721ad16cd60405160405180910390a36003810154601e61010090910460ff1610801590610e2357506002810154155b15610e855760405183907fe36f8b7448daff4a52e2945db0d1d7a436279cc1d527a45c27835dcbd27f336d905f90a242600282015580546001600160a01b03165f908152600560205260409020600601805461ffff19169055610e8583614add565b60030154610100900460ff1692915050565b8415801590610ea7575060648511155b610ee25760405162461bcd60e51b815260206004820152600c60248201526b496e76616c6964206e616d6560a01b6044820152606401610c5a565b8215801590610ef357506103e88311155b610f2d5760405162461bcd60e51b815260206004820152600b60248201526a496e76616c69642062696f60a81b6044820152606401610c5a565b8015801590610f3e57506103e88111155b610f7c5760405162461bcd60e51b815260206004820152600f60248201526e496e76616c6964207765627369746560881b6044820152606401610c5a565b33610fba5760405162461bcd60e51b815260206004820152600e60248201526d24b73b30b634b21039b2b73232b960911b6044820152606401610c5a565b66038d7ea4c68000341061100857336108fc610fdd66038d7ea4c680003461578e565b6040518115909202915f818181858888f19350505050158015611002573d5f803e3d5ffd5b50611050565b60405162461bcd60e51b815260206004820152601a60248201527f5061796d656e74203c20726567697374726174696f6e206665650000000000006044820152606401610c5a565b5f6110596127e7565b600581111561106a5761106a615262565b146110b75760405162461bcd60e51b815260206004820152601960248201527f526567697374726174696f6e20706572696f6420656e646564000000000000006044820152606401610c5a565b335f908152600560205260409020600301541561110b5760405162461bcd60e51b8152602060048201526012602482015271105b1c9958591e481c9959da5cdd195c995960721b6044820152606401610c5a565b335f90815260056020526040902080611125878983615800565b5060018101611135858783615800565b5060028101611145838583615800565b50426003820155600480546001810182555f919091527f8a35acfbc15ff81a39ae7d344fd709f28e8600b4aa8c65c6b64bfe7fe36bd19b0180546001600160a01b031916339081179091556040517ed6fea68f71a20d8149f227f87e8cf7e6ad320b2dad4b45465b14599b80ee09906111c9908a908a908a908a908a908a906158dc565b60405180910390a250505050505050565b5f805b335f908152601a602052604090205461ffff8216101561124957335f908152601a60205260409020805461ffff831690811061121b5761121b615748565b905f5260205f2090600202015f0154826112359190615924565b9150806112418161594b565b9150506111dd565b5090565b5f8084848460405160200161126493929190615962565b60408051601f1981840301815291815281516020928301205f908152600a83528181206001600160a01b038a16825290925290205460ff16915050949350505050565b335f9081526005602052604090206004015462010000900460ff166112fd5760405162461bcd60e51b815260206004820152600c60248201526b2737ba10309036b2b6b132b960a11b6044820152606401610c5a565b5f19815f0b1215801561131357506001815f0b13155b61135f5760405162461bcd60e51b815260206004820152601860248201527f566f7465206d757374206265202d312c20302c206f72203100000000000000006044820152606401610c5a565b335f9081526015602090815260408083206001600160a01b0386168452909152812054900b801580156113945750815f0b5f14155b1561141057335f908152601760205260409020546103e8116113ec5760405162461bcd60e51b815260206004820152601160248201527013585e081d9bdd195cc81c995858da1959607a1b6044820152606401610c5a565b335f90815260176020526040812080549161140683615997565b9190505550611448565b805f0b5f141580156114235750815f0b5f145b1561144857335f908152601760205260408120805491611442836159af565b91905055505b335f9081526015602090815260408083206001600160a01b03871684529091529020805460ff191660ff841617905561148181836159c4565b6001600160a01b0384165f908152601660205260408120805492820b929091906114ac908490615924565b9091555050505050565b5f836114fa5760405162461bcd60e51b8152602060048201526013602482015272141c9bdd9a5cda5bdb9cc81c995c5d5a5c9959606a1b6044820152606401610c5a565b335f9081526005602052604090206004015462010000900460ff1661156c5760405162461bcd60e51b815260206004820152602260248201527f4f6e6c79206d656d626572732063616e2070726f706f73652070726f706f73616044820152616c7360f01b6064820152608401610c5a565b335f9081526005602052604090206006015461ffff16156115c85760405162461bcd60e51b815260206004820152601660248201527512185cc8185b881858dd1a5d99481c1c9bdc1bdcd85b60521b6044820152606401610c5a565b600e8054335f908152600560205260408120600601805461ffff191660ff8416908117909155835460010180855584835292939192811061160b5761160b615748565b5f918252602090912060059091020180546001600160a01b0319163317815590506001810161163b878983615800565b505f5b84811015611699578160040186868381811061165c5761165c615748565b905060200281019061166e91906159e4565b81546001810183555f928352602090922090916003020161168f8282615a02565b505060010161163e565b50600e546040513391907f6fb266c3bffbf56760b26ba85968fa3e28f3ed50cea5c9704fb6e260dab31f1c906116d2908b908b90615b2a565b60405180910390a35050600e5495945050505050565b5f611731604051806101000160405280606081526020016060815260200160608152602001606081526020015f8019168152602001606081526020015f81526020015f81525090565b60145415611aa55760145460106014548154811061175157611751615748565b905f5260205f20906008020180604051806101000160405290815f8201805461177990615710565b80601f01602080910402602001604051908101604052809291908181526020018280546117a590615710565b80156117f05780601f106117c7576101008083540402835291602001916117f0565b820191905f5260205f20905b8154815290600101906020018083116117d357829003601f168201915b5050505050815260200160018201805461180990615710565b80601f016020809104026020016040519081016040528092919081815260200182805461183590615710565b80156118805780601f1061185757610100808354040283529160200191611880565b820191905f5260205f20905b81548152906001019060200180831161186357829003601f168201915b5050505050815260200160028201805461189990615710565b80601f01602080910402602001604051908101604052809291908181526020018280546118c590615710565b80156119105780601f106118e757610100808354040283529160200191611910565b820191905f5260205f20905b8154815290600101906020018083116118f357829003601f168201915b5050505050815260200160038201805480602002602001604051908101604052809291908181526020015f905b828210156119e5578382905f5260205f2001805461195a90615710565b80601f016020809104026020016040519081016040528092919081815260200182805461198690615710565b80156119d15780601f106119a8576101008083540402835291602001916119d1565b820191905f5260205f20905b8154815290600101906020018083116119b457829003601f168201915b50505050508152602001906001019061193d565b50505050815260200160048201548152602001600582018054611a0790615710565b80601f0160208091040260200160405190810160405280929190818152602001828054611a3390615710565b8015611a7e5780601f10611a5557610100808354040283529160200191611a7e565b820191905f5260205f20905b815481529060010190602001808311611a6157829003601f168201915b50505050508152602001600682015481526020016007820154815250509050915091509091565b5f600254118015611ab7575042600254105b611afb5760405162461bcd60e51b815260206004820152601560248201527443616c6c206166746572205265666572656e64756d60581b6044820152606401610c5a565b5f80805b601054811015611b64578160108281548110611b1d57611b1d615748565b905f5260205f209060080201600701541115611b5c5760108181548110611b4657611b46615748565b905f5260205f2090600802016007015491508092505b600101611aff565b50816014819055505f60108381548110611b8057611b80615748565b905f5260205f209060080201604051806101000160405290815f82018054611ba790615710565b80601f0160208091040260200160405190810160405280929190818152602001828054611bd390615710565b8015611c1e5780601f10611bf557610100808354040283529160200191611c1e565b820191905f5260205f20905b815481529060010190602001808311611c0157829003601f168201915b50505050508152602001600182018054611c3790615710565b80601f0160208091040260200160405190810160405280929190818152602001828054611c6390615710565b8015611cae5780601f10611c8557610100808354040283529160200191611cae565b820191905f5260205f20905b815481529060010190602001808311611c9157829003601f168201915b50505050508152602001600282018054611cc790615710565b80601f0160208091040260200160405190810160405280929190818152602001828054611cf390615710565b8015611d3e5780601f10611d1557610100808354040283529160200191611d3e565b820191905f5260205f20905b815481529060010190602001808311611d2157829003601f168201915b5050505050815260200160038201805480602002602001604051908101604052809291908181526020015f905b82821015611e13578382905f5260205f20018054611d8890615710565b80601f0160208091040260200160405190810160405280929190818152602001828054611db490615710565b8015611dff5780601f10611dd657610100808354040283529160200191611dff565b820191905f5260205f20905b815481529060010190602001808311611de257829003601f168201915b505050505081526020019060010190611d6b565b50505050815260200160048201548152602001600582018054611e3590615710565b80601f0160208091040260200160405190810160405280929190818152602001828054611e6190615710565b8015611eac5780601f10611e8357610100808354040283529160200191611eac565b820191905f5260205f20905b815481529060010190602001808311611e8f57829003601f168201915b50505050508152602001600682015481526020016007820154815250509050827f2f46f361090df30bbdb7f29d5979456b44f5d7e8bad93955ae0ce3ec4b1d289482604051611efb9190615b3d565b60405180910390a2919491935090915050565b60068160038110611f1d575f80fd5b01546001600160a01b0316905081565b335f90815260166020526040902054600a1315611f825760405162461bcd60e51b8152602060048201526013602482015272139bdd08195b9bdd59da08185c1c1c9bdd985b606a1b6044820152606401610c5a565b6003611f8c6127e7565b6005811115611f9d57611f9d615262565b14611fd85760405162461bcd60e51b815260206004820152600b60248201526a57726f6e6720706861736560a81b6044820152606401610c5a565b5f5b600a60ff821610156121f3575f6011818460ff8516600a8110611fff57611fff615748565b602002013581526020019081526020015f205f6002811061202257612022615748565b01546001600160a01b031603612092573360115f848460ff16600a811061204b5761204b615748565b602002013581526020019081526020015f205f6002811061206e5761206e615748565b0180546001600160a01b0319166001600160a01b03929092169190911790556121e1565b5f6011818460ff8516600a81106120ab576120ab615748565b602002013581526020019081526020015f206001600281106120cf576120cf615748565b01546001600160a01b0316036121a1573360115f8460ff8516600a81106120f8576120f8615748565b602002013581526020019081526020015f205f6002811061211b5761211b615748565b01546001600160a01b0316036121645760405162461bcd60e51b815260206004820152600e60248201526d29b0b6b2902932b3b4b9ba3930b960911b6044820152606401610c5a565b3360115f848460ff16600a811061217d5761217d615748565b602002013581526020019081526020015f2060016002811061206e5761206e615748565b60405162461bcd60e51b815260206004820152601560248201527412185cda08185b1c9958591e481c9958dbdc991959605a1b6044820152606401610c5a565b806121eb81615770565b915050611fda565b505f5b600a60ff82161015612391575f8360ff8316600a811061221857612218615748565b60200201602081019061222b9190614e81565b6001600160a01b0316036122795760405162461bcd60e51b8152602060048201526015602482015274496e76616c696420766f746572206164647265737360581b6044820152606401610c5a565b600260125f858460ff16600a811061229357612293615748565b6020020160208101906122a69190614e81565b6001600160a01b03166001600160a01b031681526020019081526020015f2054106123285760405162461bcd60e51b815260206004820152602c60248201527f4164647265737320616c7265616479207265676973746572656421205245474960448201526b5354524152204552524f522160a01b6064820152608401610c5a565b60125f848360ff16600a811061234057612340615748565b6020020160208101906123539190614e81565b6001600160a01b0316815260208101919091526040015f90812080549161237983615997565b9190505550808061238990615770565b9150506121f6565b5060138054600a91905f906123ad90849063ffffffff16615b4f565b92506101000a81548163ffffffff021916908363ffffffff160217905550816040516123d99190615b6b565b6040805191829003822060135433845263ffffffff166020840152917f2ba0aaa9c0e5919bf5cb9fde7b2825194f9dc6e9ab2a9174c59892a1585c446a910160405180910390a25050565b601a602052815f5260405f20818154811061243d575f80fd5b5f91825260209091206002909102018054600190910154909250905082565b6124b46040518061012001604052806060815260200160608152602001606081526020015f81526020015f61ffff1681526020015f60ff1681526020015f81526020015f61ffff1681526020015f61ffff1681525090565b60045482106124fc5760405162461bcd60e51b8152602060048201526014602482015273125b9d985b1a590810d85b991a59185d1948125160621b6044820152606401610c5a565b60055f6004848154811061251257612512615748565b5f9182526020808320909101546001600160a01b0316835282019290925260409081019091208151610120810190925280548290829061255190615710565b80601f016020809104026020016040519081016040528092919081815260200182805461257d90615710565b80156125c85780601f1061259f576101008083540402835291602001916125c8565b820191905f5260205f20905b8154815290600101906020018083116125ab57829003601f168201915b505050505081526020016001820180546125e190615710565b80601f016020809104026020016040519081016040528092919081815260200182805461260d90615710565b80156126585780601f1061262f57610100808354040283529160200191612658565b820191905f5260205f20905b81548152906001019060200180831161263b57829003601f168201915b5050505050815260200160028201805461267190615710565b80601f016020809104026020016040519081016040528092919081815260200182805461269d90615710565b80156126e85780601f106126bf576101008083540402835291602001916126e8565b820191905f5260205f20905b8154815290600101906020018083116126cb57829003601f168201915b505050918352505060038201546020820152600482015461ffff808216604084015260ff62010000928390041660608401526005840154608084015260069093015480841660a08401520490911660c09091015292915050565b60408051808201825234808252426020808401918252335f818152601a83528681208054600180820183559183529184902087516002909302019182559351930192909255935191825291927f976be468429698a1b0ae0c20a0329bdb6e24722a3f834a2c54b84d63c1722f32910160405180910390a250565b601b81603281106127cb575f80fd5b6002020180546001909101546001600160a01b03909116915082565b5f80544210156127f657505f90565b61280260326002615bb2565b60ff16600480549050108061282057506003546104b061ffff909116105b1561282d57505f80805590565b5f545f0361285f57425f819055612848906212750090615bd5565b6128559062015180615bd5565b6001908155919050565b6001805461286d919061578e565b42101561287a5750600190565b60015442101561288a5750600290565b6002545f036128995750600390565b6002544210156128a95750600490565b50600590565b600c5460ff166128f15760405162461bcd60e51b815260206004820152600d60248201526c139bc81b195859195c881e595d609a1b6044820152606401610c5a565b600c5461010090046001600160a01b03165f9081526005602081905260409091200154612922906212750090615bd5565b42101561297c5760405162461bcd60e51b815260206004820152602260248201527f43757272656e74206c65616465722773207465726d206e6f742066696e697368604482015261195960f21b6064820152608401610c5a565b600d8054905f61298b83615997565b91905055506004600d54815481106129a5576129a5615748565b5f91825260208083209190910154600c8054610100600160a81b0319166101006001600160a01b039384168102919091178083558190048316855260059384905260408086204295019490945590549251920416917f8a84bb57bf3f6adefaa7a35a6a5067473f78164bfc14c2f6ae8b93e5b115b35a91a2565b6002612a296127e7565b6005811115612a3a57612a3a615262565b14612a7f5760405162461bcd60e51b81526020600482015260156024820152744e6f7420696e20456c656374696f6e20706861736560581b6044820152606401610c5a565b600454811115612ac65760405162461bcd60e51b8152602060048201526012602482015271125b9d985b1a59081d9bdd194818dbdd5b9d60721b6044820152606401610c5a565b335f908152600b6020526040902054600114612b355760405162461bcd60e51b815260206004820152602860248201527f416c726561647920766f74656420283e3129206f72206e6f7420726567697374604482015267657265642028302960c01b6064820152608401610c5a565b6004545f906001600160401b03811115612b5157612b516152da565b604051908082528060200260200182016040528015612b7a578160200160208202803683370190505b50335f818152600b60205260408082204290555192935090917fb87a61d78bd15221c59b983f6ef032fbde0631e66bfe18d1421fe5a73c16741d9190a25f5b82811015612d2b575f848483818110612bd457612bd4615748565b9050602002013590506004805490508110612c295760405162461bcd60e51b81526020600482015260156024820152740aee4dedcce40c6c2dcc8d2c8c2e8ca40d2dcc8caf605b1b6044820152606401610c5a565b828181518110612c3b57612c3b615748565b602002602001015115612c905760405162461bcd60e51b815260206004820152601a60248201527f526570657469746976652063616e64696461746520696e6465780000000000006044820152606401610c5a565b6001838281518110612ca457612ca4615748565b60200260200101901515908115158152505060055f60048381548110612ccc57612ccc615748565b5f9182526020808320909101546001600160a01b031683528201929092526040018120600401805461ffff1691612d028361594b565b91906101000a81548161ffff021916908361ffff16021790555050508080600101915050612bb9565b50505050565b60048181548110612d40575f80fd5b5f918252602090912001546001600160a01b0316905081565b335f9081526005602052604090206004015462010000900460ff16612daf5760405162461bcd60e51b815260206004820152600c60248201526b2737ba10309036b2b6b132b960a11b6044820152606401610c5a565b335f9081526005602052604090206006015462010000900461ffff1615612e0c5760405162461bcd60e51b8152602060048201526011602482015270105b1c9958591e481cdd589b5a5d1d1959607a1b6044820152606401610c5a565b6003612e166127e7565b6005811115612e2757612e27615262565b14612e625760405162461bcd60e51b815260206004820152600b60248201526a57726f6e6720706861736560a81b6044820152606401610c5a565b805151612ea85760405162461bcd60e51b815260206004820152601460248201527311195cd8dc9a5c1d1a5bdb881c995c5d5a5c995960621b6044820152606401610c5a565b5f81602001515111612efc5760405162461bcd60e51b815260206004820152601960248201527f636f6e737469747574696f6e54657874207265717569726564000000000000006044820152606401610c5a565b5f81606001515111612f495760405162461bcd60e51b815260206004820152601660248201527520ba103632b0b9ba1037b7329039bab136b4ba3a32b960511b6044820152606401610c5a565b5f815f015182604001518360200151604051602001612f6a93929190615bff565b60405160208183030381529060405280519060200120905081608001518114612fc75760405162461bcd60e51b815260206004820152600f60248201526e496e636f727265637420486173682160881b6044820152606401610c5a565b4260c08301525f60e08301819052601080543383526005602052604092839020600601805461ffff909216620100000263ffff0000199092169190911790555490517f069006e6563904066b3005aaf324a96c53889602ae777132507198179576e1bf90613036908590615b3d565b60405180910390a2601080546001810182555f91909152825183916008027f1b6847dc741a1b0cd08d278845f9d819d87b734759afb55fe2de5cb82a9ae672019081906130839082615c25565b50602082015160018201906130989082615c25565b50604082015160028201906130ad9082615c25565b50606082015180516130c9916003840191602090910190614c4f565b506080820151600482015560a082015160058201906130e89082615c25565b5060c0820151816006015560e0820151816007015550505050565b60108181548110613112575f80fd5b905f5260205f2090600802015f91509050805f01805461313190615710565b80601f016020809104026020016040519081016040528092919081815260200182805461315d90615710565b80156131a85780601f1061317f576101008083540402835291602001916131a8565b820191905f5260205f20905b81548152906001019060200180831161318b57829003601f168201915b5050505050908060010180546131bd90615710565b80601f01602080910402602001604051908101604052809291908181526020018280546131e990615710565b80156132345780601f1061320b57610100808354040283529160200191613234565b820191905f5260205f20905b81548152906001019060200180831161321757829003601f168201915b50505050509080600201805461324990615710565b80601f016020809104026020016040519081016040528092919081815260200182805461327590615710565b80156132c05780601f10613297576101008083540402835291602001916132c0565b820191905f5260205f20905b8154815290600101906020018083116132a357829003601f168201915b5050505050908060040154908060050180546132db90615710565b80601f016020809104026020016040519081016040528092919081815260200182805461330790615710565b80156133525780601f1061332957610100808354040283529160200191613352565b820191905f5260205f20905b81548152906001019060200180831161333557829003601f168201915b5050505050908060060154908060070154905087565b335f9081526005602052604081206004015462010000900460ff166133cf5760405162461bcd60e51b815260206004820152601860248201527f4f6e6c79206d656d626572732063616e2070726f706f736500000000000000006044820152606401610c5a565b61138882111561340e5760405162461bcd60e51b815260206004820152600a60248201526952617465203e2035302560b01b6044820152606401610c5a565b335f908152607f602052604081205460ff168181158015613433575060805460ff1615155b15613474576080805460ff16905f61344a83615cda565b82546101009290920a60ff8181021990931691831602179091556080545f95501691506134989050565b601b8260ff166032811061348a5761348a615748565b600202016001015492508190505b82850361350a57845f036135025733601b8260ff16603281106134bd576134bd615748565b6002020180546001600160a01b0319166001600160a01b0392909216919091179055335f908152607f60205260409020805460ff191660ff8316179055949350505050565b509392505050565b8285111561362a575b61351f60016032615cf5565b60ff168160ff161080156135595750601b61353b826001615d0e565b60ff166032811061354e5761354e615748565b600202016001015485115b1561362557601b61356b826001615d0e565b60ff166032811061357e5761357e615748565b60020201601b8260ff166032811061359857613598615748565b82546002919091029190910180546001600160a01b0319166001600160a01b0390921691909117815560019182015491015580607f5f601b60ff8416603281106135e4576135e4615748565b60020201546001600160a01b0316815260208101919091526040015f20805460ff191660ff929092169190911790558061361d81615770565b915050613513565b61372e565b5f8160ff161180156136625750601b613644600183615cf5565b60ff166032811061365757613657615748565b600202016001015485105b1561372e57601b613674600183615cf5565b60ff166032811061368757613687615748565b60020201601b8260ff16603281106136a1576136a1615748565b82546002919091029190910180546001600160a01b0319166001600160a01b0390921691909117815560019182015491015580607f5f601b60ff8416603281106136ed576136ed615748565b60020201546001600160a01b0316815260208101919091526040015f20805460ff191660ff929092169190911790558061372681615cda565b91505061362a565b6040805180820190915233815260208101869052601b60ff83166032811061375857613758615748565b82516002919091029190910180546001600160a01b0319166001600160a01b03909216919091178155602091820151600190910155335f818152607f8352604090819020805460ff191660ff8681169182179092558251888152918716948201949094529081018890526060810192909252907f1ce0beaec98d7537137a85c2d351c6c99900830d30fe8a7c353fa27225807e729060800160405180910390a2601b61380660026032615d27565b60ff166032811061381957613819615748565b60020201600101546018541461390f57601b61383760026032615d27565b60ff166032811061384a5761384a615748565b6001600291820292909201820154601881815560408051808201825292835242602084019081526019805496870181555f529251949093027f944998273e477b495144fb8794c914197f3ccb46be2900f4698fd0ef743c969581019490945590517f944998273e477b495144fb8794c914197f3ccb46be2900f4698fd0ef743c969690930192909255905490517fa90e14be5aa57b910aa6dc16c31ff1b5cda380ae25a793b0d3f74df6131a7d74916139069190815260200190565b60405180910390a15b949350505050565b42625c49006001546139299190615bd5565b106139765760405162461bcd60e51b815260206004820152601b60248201527f43616e6e6f74207374617274207265666572656e64756d2079657400000000006044820152606401610c5a565b601454156139b95760405162461bcd60e51b815260206004820152601060248201526f105b1c9958591e481c985d1a599a595960821b6044820152606401610c5a565b601054600a106139ff5760405162461bcd60e51b81526020600482015260116024820152704e6f7420656e6f7567682064726166747360781b6044820152606401610c5a565b601354620f424063ffffffff9091161015613a505760405162461bcd60e51b81526020600482015260116024820152704e6f7420656e6f75676820766f7465727360781b6044820152606401610c5a565b613a5d4262015180615bd5565b6002556040517fa0ab6b515144b30d8222a12e45d1c1df7265286d8a0d9f73c23c8b06f6021871905f90a1565b6002544210613ad15760405162461bcd60e51b81526020600482015260136024820152724e6f74205265666572656e64756d2074696d6560681b6044820152606401610c5a565b601054811115613b185760405162461bcd60e51b8152602060048201526012602482015271125b9d985b1a5908191c98599d081b1a5cdd60721b6044820152606401610c5a565b335f90815260126020526040902054600214613b765760405162461bcd60e51b815260206004820152601760248201527f566f746564206f72204e6f7420726567697374657265640000000000000000006044820152606401610c5a565b6010545f906001600160401b03811115613b9257613b926152da565b604051908082528060200260200182016040528015613bbb578160200160208202803683370190505b5090505f5b82811015613ce8575f848483818110613bdb57613bdb615748565b9050602002013590506010805490508110613c285760405162461bcd60e51b815260206004820152600d60248201526c125b9d985b1a5908191c98599d609a1b6044820152606401610c5a565b828181518110613c3a57613c3a615748565b602002602001015115613c845760405162461bcd60e51b815260206004820152601260248201527114995c195d1a5d1a5d9948191c98599d125960721b6044820152606401610c5a565b6001838281518110613c9857613c98615748565b60200260200101901515908115158152505060108181548110613cbd57613cbd615748565b5f91825260208220600760089092020101805491613cda83615997565b909155505050600101613bc0565b50335f81815260126020526040808220429055517f4b50b8927fd1b030f5404dc4394c2a5d30d7f6c6fa6d732c089ffe8c10f094219190a2505050565b6011602052815f5260405f208160028110613d3e575f80fd5b01546001600160a01b03169150829050565b600e548110613d975760405162461bcd60e51b8152602060048201526013602482015272125b9d985b1a59081c1c9bdc1bdcd85b081251606a1b6044820152606401610c5a565b5f600e8281548110613dab57613dab615748565b5f918252602090912060059091020180549091506001600160a01b03163314613e165760405162461bcd60e51b815260206004820152601e60248201527f4f6e6c79207468652070726f706f7365722063616e20776974686472617700006044820152606401610c5a565b600281015415613e5b5760405162461bcd60e51b815260206004820152601060248201526f105b1c9958591e48195e1958dd5d195960821b6044820152606401610c5a565b600381015460ff1615613ea45760405162461bcd60e51b815260206004820152601160248201527020b63932b0b23c903bb4ba34323930bbb760791b6044820152606401610c5a565b60038101805460ff19166001179055335f90815260056020526040808220600601805461ffff191690555183917f5ca6c0bba519c857c8713fba9f5f1b582abe00c95dcccedccea41ad683bad26d91a25050565b60056020525f9081526040902080548190613f1290615710565b80601f0160208091040260200160405190810160405280929190818152602001828054613f3e90615710565b8015613f895780601f10613f6057610100808354040283529160200191613f89565b820191905f5260205f20905b815481529060010190602001808311613f6c57829003601f168201915b505050505090806001018054613f9e90615710565b80601f0160208091040260200160405190810160405280929190818152602001828054613fca90615710565b80156140155780601f10613fec57610100808354040283529160200191614015565b820191905f5260205f20905b815481529060010190602001808311613ff857829003601f168201915b50505050509080600201805461402a90615710565b80601f016020809104026020016040519081016040528092919081815260200182805461405690615710565b80156140a15780601f10614078576101008083540402835291602001916140a1565b820191905f5260205f20905b81548152906001019060200180831161408457829003601f168201915b505050506003830154600484015460058501546006909501549394919361ffff8083169450620100009283900460ff16939281831692041689565b335f9081526009602052604090205460ff166141295760405162461bcd60e51b815260206004820152600c60248201526b139bdd08185b881859d95b9d60a21b6044820152606401610c5a565b5f6141326127e7565b600581111561414357614143615262565b146141905760405162461bcd60e51b815260206004820152601a60248201527f526567697374726174696f6e20706572696f6420656e6465642e0000000000006044820152606401610c5a565b6003546104b061ffff909116106141e95760405162461bcd60e51b815260206004820152601960248201527f4d6178696d756d206e756d626572206f6620766f746572732e000000000000006044820152606401610c5a565b5f805b600a60ff8216101561448d57828160ff16600a811061420d5761420d615748565b606002015f0160208101906142229190615d54565b61ffff166107a51115801561426657506107d6838260ff16600a811061424a5761424a615748565b606002015f01602081019061425f9190615d54565b61ffff1611155b61429f5760405162461bcd60e51b815260206004820152600a6024820152692bb937b733902cb2b0b960b11b6044820152606401610c5a565b828160ff16600a81106142b4576142b4615748565b6060020160200160208101906142ca9190615d6d565b60ff1660011115801561430b5750600c838260ff16600a81106142ef576142ef615748565b6060020160200160208101906143059190615d6d565b60ff1611155b6143475760405162461bcd60e51b815260206004820152600d60248201526c092dcecc2d8d2c8409adedce8d609b1b6044820152606401610c5a565b828160ff16600a811061435c5761435c615748565b606002015f0160208101906143719190615d54565b838260ff16600a811061438657614386615748565b60600201602001602081019061439c9190615d6d565b848360ff16600a81106143b1576143b1615748565b6060020160400160208101906143c79190615d86565b6040516020016143d993929190615962565b60408051601f1981840301815291815281516020928301205f818152600a845282812033825290935291205490925060ff16156144585760405162461bcd60e51b815260206004820152601b60248201527f416c7265616479205665726966696564207468697320566f74657200000000006044820152606401610c5a565b5f828152600a602090815260408083203384529091529020805460ff191660011790558061448581615770565b9150506141ec565b505f5b600a60ff82161015614624575f8460ff8316600a81106144b2576144b2615748565b6020020160208101906144c59190614e81565b6001600160a01b03160361450d5760405162461bcd60e51b815260206004820152600f60248201526e496e76616c6964206164647265737360881b6044820152606401610c5a565b6003600b5f8660ff8516600a811061452757614527615748565b60200201602081019061453a9190614e81565b6001600160a01b03166001600160a01b031681526020019081526020015f2054106145bb5760405162461bcd60e51b815260206004820152602b60248201527f416c72656164792072656769737465726564207468726963652e20526567697360448201526a74726172204552524f522160a81b6064820152608401610c5a565b600b5f858360ff16600a81106145d3576145d3615748565b6020020160208101906145e69190614e81565b6001600160a01b0316815260208101919091526040015f90812080549161460c83615997565b9190505550808061461c90615770565b915050614490565b5060038054600a91905f9061463e90849061ffff16615d9f565b92506101000a81548161ffff021916908361ffff160217905550826040516146669190615b6b565b60405190819003812060035461ffff168252907f5ecf71b87b223b4e8c4d19850b2c7a727d326e44eda6530fe642b505ff2c4f949060200160405180910390a2505050565b600c5460609060ff161561471757600480548060200260200160405190810160405280929190818152602001828054801561470d57602002820191905f5260205f20905b81546001600160a01b031681526001909101906020018083116146ef575b5050505050905090565b600154421161475e5760405162461bcd60e51b815260206004820152601360248201527221b0b6361030b33a32b91032b632b1ba34b7b760691b6044820152606401610c5a565b60015b603260ff82161161498f576004545f9061477d9060019061578e565b90505b808260ff161161490d5760055f600461479a60018561578e565b815481106147aa576147aa615748565b5f9182526020808320909101546001600160a01b031683528201929092526040018120600490810154815461ffff909116926005929091859081106147f1576147f1615748565b5f9182526020808320909101546001600160a01b0316835282019290925260400190206004015461ffff1611156148fb57600461482f60018361578e565b8154811061483f5761483f615748565b5f91825260209091200154600480546001600160a01b03909216918390811061486a5761486a615748565b5f91825260209091200154600480546001600160a01b03909216918490811061489557614895615748565b5f91825260208220019060046148ac60018761578e565b815481106148bc576148bc615748565b5f91825260209091200180546001600160a01b039485166001600160a01b031990911617905581549383166101009190910a9081029202199092161790555b80614905816159af565b915050614780565b50614919600182615cf5565b60055f6004614929600186615cf5565b60ff168154811061493c5761493c615748565b5f9182526020808320909101546001600160a01b031683528201929092526040019020600401805460ff92909216620100000262ff0000199092169190911790558061498781615770565b915050614761565b50600c805460ff19166001179055600480545f906149af576149af615748565b5f91825260208083209190910154600c8054610100600160a81b0319166101006001600160a01b0393841681029190911791829055600d85905590041682526005908190526040918290204291015551614a0b90600490615db9565b604051908190038120600c5461010090046001600160a01b03168252907f55fd57a9f60ed79c2da9b808929b82bed18d54127a828e4f6050a978600109b09060200160405180910390a2600480548060200260200160405190810160405280929190818152602001828054801561470d57602002820191905f5260205f209081546001600160a01b031681526001909101906020018083116146ef575050505050905090565b60198181548110614ac0575f80fd5b5f9182526020909120600290910201805460019091015490915082565b5f600e8281548110614af157614af1615748565b905f5260205f20906005020190505f5b6004820154811015614c4a575f826004018281548110614b2357614b23615748565b905f5260205f2090600302016040518060600160405290815f8201548152602001600182015f9054906101000a90046001600160a01b03166001600160a01b03166001600160a01b03168152602001600282018054614b8190615710565b80601f0160208091040260200160405190810160405280929190818152602001828054614bad90615710565b8015614bf85780601f10614bcf57610100808354040283529160200191614bf8565b820191905f5260205f20905b815481529060010190602001808311614bdb57829003601f168201915b505050505081525050905080602001516001600160a01b03166108fc825f015190811502906040515f60405180830381858888f19350505050158015614c40573d5f803e3d5ffd5b5050600101614b01565b505050565b828054828255905f5260205f20908101928215614c93579160200282015b82811115614c935782518290614c839082615c25565b5091602001919060010190614c6d565b506112499291505b80821115611249575f614cae8282614cb7565b50600101614c9b565b508054614cc390615710565b5f825580601f10614cd2575050565b601f0160209004905f5260205f2090810190614cee9190614cf1565b50565b5b80821115611249575f8155600101614cf2565b5f60208284031215614d15575f80fd5b5035919050565b5f81518084528060208401602086015e5f602082860101526020601f19601f83011685010191505092915050565b6001600160a01b038616815260a0602082018190525f90614d6d90830187614d1c565b604083019590955250911515606083015260ff1660809091015292915050565b5f8083601f840112614d9d575f80fd5b5081356001600160401b03811115614db3575f80fd5b602083019150836020828501011115614dca575f80fd5b9250929050565b5f805f805f8060608789031215614de6575f80fd5b86356001600160401b03811115614dfb575f80fd5b614e0789828a01614d8d565b90975095505060208701356001600160401b03811115614e25575f80fd5b614e3189828a01614d8d565b90955093505060408701356001600160401b03811115614e4f575f80fd5b614e5b89828a01614d8d565b979a9699509497509295939492505050565b6001600160a01b0381168114614cee575f80fd5b5f60208284031215614e91575f80fd5b8135614e9c81614e6d565b9392505050565b803561ffff81168114614eb4575f80fd5b919050565b803560ff81168114614eb4575f80fd5b80358015158114614eb4575f80fd5b5f805f8060808587031215614eeb575f80fd5b8435614ef681614e6d565b9350614f0460208601614ea3565b9250614f1260408601614eb9565b9150614f2060608601614ec9565b905092959194509250565b5f8060408385031215614f3c575f80fd5b8235614f4781614e6d565b915060208301355f81900b8114614f5c575f80fd5b809150509250929050565b5f8083601f840112614f77575f80fd5b5081356001600160401b03811115614f8d575f80fd5b6020830191508360208260051b8501011115614dca575f80fd5b5f805f8060408587031215614fba575f80fd5b84356001600160401b03811115614fcf575f80fd5b614fdb87828801614d8d565b90955093505060208501356001600160401b03811115614ff9575f80fd5b61500587828801614f67565b95989497509550505050565b5f82825180855260208501945060208160051b830101602085015f5b8381101561505f57601f19858403018852615049838351614d1c565b602098890198909350919091019060010161502d565b50909695505050505050565b5f81516101008452615081610100850182614d1c565b90506020830151848203602086015261509a8282614d1c565b915050604083015184820360408601526150b48282614d1c565b915050606083015184820360608601526150ce8282615011565b9150506080830151608085015260a083015184820360a08601526150f28282614d1c565b91505060c083015160c085015260e083015160e08501528091505092915050565b828152604060208201525f61390f604083018461506b565b80610140810183101561513c575f80fd5b92915050565b5f806102808385031215615154575f80fd5b61515e848461512b565b915061516e84610140850161512b565b90509250929050565b5f8060408385031215615188575f80fd5b823561519381614e6d565b946020939093013593505050565b602081525f825161012060208401526151be610140840182614d1c565b90506020840151601f198483030160408501526151db8282614d1c565b9150506040840151601f198483030160608501526151f98282614d1c565b91505060608401516080840152608084015161521b60a085018261ffff169052565b5060a084015160ff811660c08501525060c084015160e084015260e084015161524b61010085018261ffff169052565b5061010084015161ffff8116610120850152613502565b634e487b7160e01b5f52602160045260245ffd5b602081016006831061529657634e487b7160e01b5f52602160045260245ffd5b91905290565b5f80602083850312156152ad575f80fd5b82356001600160401b038111156152c2575f80fd5b6152ce85828601614f67565b90969095509350505050565b634e487b7160e01b5f52604160045260245ffd5b60405161010081016001600160401b0381118282101715615311576153116152da565b60405290565b604051601f8201601f191681016001600160401b038111828210171561533f5761533f6152da565b604052919050565b5f82601f830112615356575f80fd5b81356001600160401b0381111561536f5761536f6152da565b615382601f8201601f1916602001615317565b818152846020838601011115615396575f80fd5b816020850160208301375f918101602001919091529392505050565b5f82601f8301126153c1575f80fd5b81356001600160401b038111156153da576153da6152da565b8060051b6153ea60208201615317565b91825260208185018101929081019086841115615405575f80fd5b6020860192505b8383101561544a5782356001600160401b03811115615429575f80fd5b615438886020838a0101615347565b8352506020928301929091019061540c565b9695505050505050565b5f60208284031215615464575f80fd5b81356001600160401b03811115615479575f80fd5b8201610100818503121561548b575f80fd5b6154936152ee565b81356001600160401b038111156154a8575f80fd5b6154b486828501615347565b82525060208201356001600160401b038111156154cf575f80fd5b6154db86828501615347565b60208301525060408201356001600160401b038111156154f9575f80fd5b61550586828501615347565b60408301525060608201356001600160401b03811115615523575f80fd5b61552f868285016153b2565b6060830152506080828101359082015260a08201356001600160401b03811115615557575f80fd5b61556386828501615347565b60a08301525060c0828101359082015260e091820135918101919091529392505050565b60e081525f61559960e083018a614d1c565b82810360208401526155ab818a614d1c565b905082810360408401526155bf8189614d1c565b905086606084015282810360808401526155d98187614d1c565b60a0840195909552505060c0015295945050505050565b5f8060408385031215615601575f80fd5b50508035926020909101359150565b61012081525f61562461012083018c614d1c565b8281036020840152615636818c614d1c565b9050828103604084015261564a818b614d1c565b6060840199909952505061ffff958616608082015260ff9490941660a085015260c0840192909252831660e0830152909116610100909101529392505050565b5f80610500838503121561569c575f80fd5b6156a6848461512b565b915083610500840111156156b8575f80fd5b5092610140919091019150565b602080825282518282018190525f918401906040840190835b818110156157055783516001600160a01b03168352602093840193909201916001016156de565b509095945050505050565b600181811c9082168061572457607f821691505b60208210810361574257634e487b7160e01b5f52602260045260245ffd5b50919050565b634e487b7160e01b5f52603260045260245ffd5b634e487b7160e01b5f52601160045260245ffd5b5f60ff821660ff81036157855761578561575c565b60010192915050565b8181038181111561513c5761513c61575c565b601f821115614c4a57805f5260205f20601f840160051c810160208510156157c65750805b601f840160051c820191505b818110156157e5575f81556001016157d2565b5050505050565b5f19600383901b1c191660019190911b1790565b6001600160401b03831115615817576158176152da565b61582b836158258354615710565b836157a1565b5f601f841160018114615857575f85156158455750838201355b61584f86826157ec565b8455506157e5565b5f83815260208120601f198716915b828110156158865786850135825560209485019460019092019101615866565b50868210156158a2575f1960f88860031b161c19848701351681555b505060018560011b0183555050505050565b81835281816020850137505f828201602090810191909152601f909101601f19169091010190565b606081525f6158ef60608301888a6158b4565b82810360208401526159028187896158b4565b905082810360408401526159178185876158b4565b9998505050505050505050565b8082018281125f8312801582168215821617156159435761594361575c565b505092915050565b5f61ffff821661ffff81036157855761578561575c565b60f09390931b6001600160f01b031916835260f891821b6001600160f81b03191660028401521515901b600382015260040190565b5f600182016159a8576159a861575c565b5060010190565b5f816159bd576159bd61575c565b505f190190565b5f82810b9082900b03607f198112607f8213171561513c5761513c61575c565b5f8235605e198336030181126159f8575f80fd5b9190910192915050565b81358155600181016020830135615a1881614e6d565b81546001600160a01b0319166001600160a01b0391909116179055604082013536839003601e19018112615a4a575f80fd5b820180356001600160401b03811115615a61575f80fd5b602082019150803603821315615a75575f80fd5b600283016001600160401b03821115615a9057615a906152da565b615a9e826158258354615710565b5f601f831160018114615aca575f8415615ab85750848201355b615ac285826157ec565b845550615b21565b5f83815260208120601f198616915b82811015615af95787850135825560209485019460019092019101615ad9565b5085821015615b15575f1960f88760031b161c19848801351681555b505060018460011b0183555b50505050505050565b602081525f61390f6020830184866158b4565b602081525f614e9c602083018461506b565b63ffffffff818116838216019081111561513c5761513c61575c565b5f8183825b600a811015615ba2578135615b8481614e6d565b6001600160a01b031683526020928301929190910190600101615b70565b5050506101408201905092915050565b60ff8181168382160290811690818114615bce57615bce61575c565b5092915050565b8082018082111561513c5761513c61575c565b5f81518060208401855e5f93019283525090919050565b5f615c1c615c16615c108488615be8565b86615be8565b84615be8565b95945050505050565b81516001600160401b03811115615c3e57615c3e6152da565b615c5281615c4c8454615710565b846157a1565b6020601f821160018114615c7f575f8315615c6d5750848201515b615c7784826157ec565b8555506157e5565b5f84815260208120601f198516915b82811015615cae5787850151825560209485019460019092019101615c8e565b5084821015615ccb57868401515f19600387901b60f8161c191681555b50505050600190811b01905550565b5f60ff821680615cec57615cec61575c565b5f190192915050565b60ff828116828216039081111561513c5761513c61575c565b60ff818116838216019081111561513c5761513c61575c565b5f60ff831680615d4557634e487b7160e01b5f52601260045260245ffd5b8060ff84160491505092915050565b5f60208284031215615d64575f80fd5b614e9c82614ea3565b5f60208284031215615d7d575f80fd5b614e9c82614eb9565b5f60208284031215615d96575f80fd5b614e9c82614ec9565b61ffff818116838216019081111561513c5761513c61575c565b5f818354839150845f5260205f205f5b82811015615df05781546001600160a01b0316845260209093019260019182019101615dc9565b50919594505050505056fea26469706673582212209c0c36160936df05d6c313dfa5f284f33b2fe554f33ba1b5656d9791162231c964736f6c634300081a0033",
			"opcodes": "PUSH1 0xA0 PUSH1 0x40 MSTORE PUSH1 0xC DUP1 SLOAD PUSH1 0xFF NOT SWAP1 DUP2 AND SWAP1 SWAP2 SSTORE PUSH1 0x80 DUP1 SLOAD SWAP1 SWAP2 AND PUSH1 0x32 OR SWAP1 SSTORE CALLVALUE DUP1 ISZERO PUSH2 0x28 JUMPI PUSH0 DUP1 REVERT JUMPDEST POP PUSH1 0x40 MLOAD PUSH2 0x628E CODESIZE SUB DUP1 PUSH2 0x628E DUP4 CODECOPY DUP2 ADD PUSH1 0x40 DUP2 SWAP1 MSTORE PUSH2 0x47 SWAP2 PUSH2 0x24C JUMP JUMPDEST PUSH2 0x54 PUSH1 0x6 DUP4 PUSH1 0x3 PUSH2 0x11B JUMP JUMPDEST POP TIMESTAMP PUSH1 0x80 DUP2 SWAP1 MSTORE PUSH2 0x68 SWAP1 PUSH3 0x24EA00 PUSH2 0x2E2 JUMP JUMPDEST PUSH0 DUP2 SWAP1 SSTORE PUSH2 0x7A SWAP1 PUSH3 0x127500 SWAP1 PUSH2 0x2E2 JUMP JUMPDEST PUSH2 0x87 SWAP1 PUSH3 0x15180 PUSH2 0x2E2 JUMP JUMPDEST PUSH1 0x1 SWAP1 DUP2 SSTORE PUSH1 0xE DUP1 SLOAD SWAP2 DUP3 ADD DUP2 SSTORE PUSH0 MSTORE PUSH1 0x5 MUL PUSH32 0xBB7B4A454DC3493923482F07822329ED19E8244EFF582CC204F8554C3620C3FD DUP2 ADD DUP1 SLOAD PUSH1 0x1 PUSH1 0x1 PUSH1 0xA0 SHL SUB NOT AND CALLER OR DUP2 SSTORE SWAP1 PUSH32 0xBB7B4A454DC3493923482F07822329ED19E8244EFF582CC204F8554C3620C3FE ADD PUSH2 0xFA DUP4 DUP3 PUSH2 0x38B JUMP JUMPDEST POP PUSH1 0x80 MLOAD PUSH1 0x2 DUP3 ADD SSTORE PUSH1 0x3 ADD DUP1 SLOAD PUSH2 0xFFFF NOT AND PUSH2 0x3200 OR SWAP1 SSTORE POP PUSH2 0x445 SWAP1 POP JUMP JUMPDEST DUP3 PUSH1 0x3 DUP2 ADD SWAP3 DUP3 ISZERO PUSH2 0x163 JUMPI SWAP2 PUSH1 0x20 MUL DUP3 ADD JUMPDEST DUP3 DUP2 GT ISZERO PUSH2 0x163 JUMPI DUP3 MLOAD DUP3 SLOAD PUSH1 0x1 PUSH1 0x1 PUSH1 0xA0 SHL SUB NOT AND PUSH1 0x1 PUSH1 0x1 PUSH1 0xA0 SHL SUB SWAP1 SWAP2 AND OR DUP3 SSTORE PUSH1 0x20 SWAP1 SWAP3 ADD SWAP2 PUSH1 0x1 SWAP1 SWAP2 ADD SWAP1 PUSH2 0x12E JUMP JUMPDEST POP PUSH2 0x16F SWAP3 SWAP2 POP PUSH2 0x173 JUMP JUMPDEST POP SWAP1 JUMP JUMPDEST JUMPDEST DUP1 DUP3 GT ISZERO PUSH2 0x16F JUMPI PUSH0 DUP2 SSTORE PUSH1 0x1 ADD PUSH2 0x174 JUMP JUMPDEST PUSH4 0x4E487B71 PUSH1 0xE0 SHL PUSH0 MSTORE PUSH1 0x41 PUSH1 0x4 MSTORE PUSH1 0x24 PUSH0 REVERT JUMPDEST PUSH1 0x40 MLOAD PUSH1 0x60 DUP2 ADD PUSH1 0x1 PUSH1 0x1 PUSH1 0x40 SHL SUB DUP2 GT DUP3 DUP3 LT OR ISZERO PUSH2 0x1BD JUMPI PUSH2 0x1BD PUSH2 0x187 JUMP JUMPDEST PUSH1 0x40 MSTORE SWAP1 JUMP JUMPDEST PUSH0 DUP3 PUSH1 0x1F DUP4 ADD SLT PUSH2 0x1D2 JUMPI PUSH0 DUP1 REVERT JUMPDEST DUP2 MLOAD PUSH1 0x1 PUSH1 0x1 PUSH1 0x40 SHL SUB DUP2 GT ISZERO PUSH2 0x1EB JUMPI PUSH2 0x1EB PUSH2 0x187 JUMP JUMPDEST PUSH1 0x40 MLOAD PUSH1 0x1F DUP3 ADD PUSH1 0x1F NOT SWAP1 DUP2 AND PUSH1 0x3F ADD AND DUP2 ADD PUSH1 0x1 PUSH1 0x1 PUSH1 0x40 SHL SUB DUP2 GT DUP3 DUP3 LT OR ISZERO PUSH2 0x219 JUMPI PUSH2 0x219 PUSH2 0x187 JUMP JUMPDEST PUSH1 0x40 MSTORE DUP2 DUP2 MSTORE DUP4 DUP3 ADD PUSH1 0x20 ADD DUP6 LT ISZERO PUSH2 0x230 JUMPI PUSH0 DUP1 REVERT JUMPDEST DUP2 PUSH1 0x20 DUP6 ADD PUSH1 0x20 DUP4 ADD MCOPY PUSH0 SWAP2 DUP2 ADD PUSH1 0x20 ADD SWAP2 SWAP1 SWAP2 MSTORE SWAP4 SWAP3 POP POP POP JUMP JUMPDEST PUSH0 DUP1 PUSH1 0x80 DUP4 DUP6 SUB SLT ISZERO PUSH2 0x25D JUMPI PUSH0 DUP1 REVERT JUMPDEST DUP4 PUSH1 0x1F DUP5 ADD SLT PUSH2 0x26B JUMPI PUSH0 DUP1 REVERT JUMPDEST PUSH2 0x273 PUSH2 0x19B JUMP JUMPDEST DUP1 PUSH1 0x60 DUP6 ADD DUP7 DUP2 GT ISZERO PUSH2 0x284 JUMPI PUSH0 DUP1 REVERT JUMPDEST DUP6 JUMPDEST DUP2 DUP2 LT ISZERO PUSH2 0x2B2 JUMPI DUP1 MLOAD PUSH1 0x1 PUSH1 0x1 PUSH1 0xA0 SHL SUB DUP2 AND DUP2 EQ PUSH2 0x2A4 JUMPI PUSH0 DUP1 REVERT JUMPDEST DUP5 MSTORE PUSH1 0x20 SWAP4 DUP5 ADD SWAP4 ADD PUSH2 0x286 JUMP JUMPDEST POP MLOAD SWAP1 SWAP4 POP SWAP1 POP PUSH1 0x1 PUSH1 0x1 PUSH1 0x40 SHL SUB DUP2 GT ISZERO PUSH2 0x2CC JUMPI PUSH0 DUP1 REVERT JUMPDEST PUSH2 0x2D8 DUP6 DUP3 DUP7 ADD PUSH2 0x1C3 JUMP JUMPDEST SWAP2 POP POP SWAP3 POP SWAP3 SWAP1 POP JUMP JUMPDEST DUP1 DUP3 ADD DUP1 DUP3 GT ISZERO PUSH2 0x301 JUMPI PUSH4 0x4E487B71 PUSH1 0xE0 SHL PUSH0 MSTORE PUSH1 0x11 PUSH1 0x4 MSTORE PUSH1 0x24 PUSH0 REVERT JUMPDEST SWAP3 SWAP2 POP POP JUMP JUMPDEST PUSH1 0x1 DUP2 DUP2 SHR SWAP1 DUP3 AND DUP1 PUSH2 0x31B JUMPI PUSH1 0x7F DUP3 AND SWAP2 POP JUMPDEST PUSH1 0x20 DUP3 LT DUP2 SUB PUSH2 0x339 JUMPI PUSH4 0x4E487B71 PUSH1 0xE0 SHL PUSH0 MSTORE PUSH1 0x22 PUSH1 0x4 MSTORE PUSH1 0x24 PUSH0 REVERT JUMPDEST POP SWAP2 SWAP1 POP JUMP JUMPDEST PUSH1 0x1F DUP3 GT ISZERO PUSH2 0x386 JUMPI DUP1 PUSH0 MSTORE PUSH1 0x20 PUSH0 KECCAK256 PUSH1 0x1F DUP5 ADD PUSH1 0x5 SHR DUP2 ADD PUSH1 0x20 DUP6 LT ISZERO PUSH2 0x364 JUMPI POP DUP1 JUMPDEST PUSH1 0x1F DUP5 ADD PUSH1 0x5 SHR DUP3 ADD SWAP2 POP JUMPDEST DUP2 DUP2 LT ISZERO PUSH2 0x383 JUMPI PUSH0 DUP2 SSTORE PUSH1 0x1 ADD PUSH2 0x370 JUMP JUMPDEST POP POP JUMPDEST POP POP POP JUMP JUMPDEST DUP2 MLOAD PUSH1 0x1 PUSH1 0x1 PUSH1 0x40 SHL SUB DUP2 GT ISZERO PUSH2 0x3A4 JUMPI PUSH2 0x3A4 PUSH2 0x187 JUMP JUMPDEST PUSH2 0x3B8 DUP2 PUSH2 0x3B2 DUP5 SLOAD PUSH2 0x307 JUMP JUMPDEST DUP5 PUSH2 0x33F JUMP JUMPDEST PUSH1 0x20 PUSH1 0x1F DUP3 GT PUSH1 0x1 DUP2 EQ PUSH2 0x3EA JUMPI PUSH0 DUP4 ISZERO PUSH2 0x3D3 JUMPI POP DUP5 DUP3 ADD MLOAD JUMPDEST PUSH0 NOT PUSH1 0x3 DUP6 SWAP1 SHL SHR NOT AND PUSH1 0x1 DUP5 SWAP1 SHL OR DUP5 SSTORE PUSH2 0x383 JUMP JUMPDEST PUSH0 DUP5 DUP2 MSTORE PUSH1 0x20 DUP2 KECCAK256 PUSH1 0x1F NOT DUP6 AND SWAP2 JUMPDEST DUP3 DUP2 LT ISZERO PUSH2 0x419 JUMPI DUP8 DUP6 ADD MLOAD DUP3 SSTORE PUSH1 0x20 SWAP5 DUP6 ADD SWAP5 PUSH1 0x1 SWAP1 SWAP3 ADD SWAP2 ADD PUSH2 0x3F9 JUMP JUMPDEST POP DUP5 DUP3 LT ISZERO PUSH2 0x436 JUMPI DUP7 DUP5 ADD MLOAD PUSH0 NOT PUSH1 0x3 DUP8 SWAP1 SHL PUSH1 0xF8 AND SHR NOT AND DUP2 SSTORE JUMPDEST POP POP POP POP PUSH1 0x1 SWAP1 DUP2 SHL ADD SWAP1 SSTORE POP JUMP JUMPDEST PUSH1 0x80 MLOAD PUSH2 0x5E31 PUSH2 0x45D PUSH0 CODECOPY PUSH0 PUSH2 0x6DA ADD MSTORE PUSH2 0x5E31 PUSH0 RETURN INVALID PUSH1 0x80 PUSH1 0x40 MSTORE PUSH1 0x4 CALLDATASIZE LT PUSH2 0x392 JUMPI PUSH0 CALLDATALOAD PUSH1 0xE0 SHR DUP1 PUSH4 0xA3A40EA5 GT PUSH2 0x1DE JUMPI DUP1 PUSH4 0xC1B13157 GT PUSH2 0x108 JUMPI DUP1 PUSH4 0xE42A54C4 GT PUSH2 0x9D JUMPI DUP1 PUSH4 0xECCF1F10 GT PUSH2 0x6D JUMPI DUP1 PUSH4 0xECCF1F10 EQ PUSH2 0xABE JUMPI DUP1 PUSH4 0xEEDB2D28 EQ PUSH2 0xADF JUMPI DUP1 PUSH4 0xF33E9573 EQ PUSH2 0xAF4 JUMPI DUP1 PUSH4 0xF9F8BDB7 EQ PUSH2 0xB13 JUMPI PUSH0 DUP1 REVERT JUMPDEST DUP1 PUSH4 0xE42A54C4 EQ PUSH2 0xA21 JUMPI DUP1 PUSH4 0xE965B7C9 EQ PUSH2 0xA3D JUMPI DUP1 PUSH4 0xEA84F8C4 EQ PUSH2 0xA71 JUMPI DUP1 PUSH4 0xEAB536FC EQ PUSH2 0xA90 JUMPI PUSH0 DUP1 REVERT JUMPDEST DUP1 PUSH4 0xD7A87E23 GT PUSH2 0xD8 JUMPI DUP1 PUSH4 0xD7A87E23 EQ PUSH2 0x9BB JUMPI DUP1 PUSH4 0xE1564695 EQ PUSH2 0x9CF JUMPI DUP1 PUSH4 0xE1F02FFA EQ PUSH2 0x9EE JUMPI DUP1 PUSH4 0xE292BF16 EQ PUSH2 0xA0D JUMPI PUSH0 DUP1 REVERT JUMPDEST DUP1 PUSH4 0xC1B13157 EQ PUSH2 0x943 JUMPI DUP1 PUSH4 0xC8D7B9F1 EQ PUSH2 0x962 JUMPI DUP1 PUSH4 0xCE7EA161 EQ PUSH2 0x97B JUMPI DUP1 PUSH4 0xD1791AE0 EQ PUSH2 0x990 JUMPI PUSH0 DUP1 REVERT JUMPDEST DUP1 PUSH4 0xBAB752E5 GT PUSH2 0x17E JUMPI DUP1 PUSH4 0xBDC8E7B3 GT PUSH2 0x14E JUMPI DUP1 PUSH4 0xBDC8E7B3 EQ PUSH2 0x8E7 JUMPI DUP1 PUSH4 0xBE003EE6 EQ PUSH2 0x906 JUMPI DUP1 PUSH4 0xBE07F0F8 EQ PUSH2 0x91A JUMPI DUP1 PUSH4 0xBEB54795 EQ PUSH2 0x92E JUMPI PUSH0 DUP1 REVERT JUMPDEST DUP1 PUSH4 0xBAB752E5 EQ PUSH2 0x852 JUMPI DUP1 PUSH4 0xBB2C88A0 EQ PUSH2 0x867 JUMPI DUP1 PUSH4 0xBBB8279D EQ PUSH2 0x87C JUMPI DUP1 PUSH4 0xBBEA6F0B EQ PUSH2 0x8B5 JUMPI PUSH0 DUP1 REVERT JUMPDEST DUP1 PUSH4 0xB13C744B GT PUSH2 0x1B9 JUMPI DUP1 PUSH4 0xB13C744B EQ PUSH2 0x7E8 JUMPI DUP1 PUSH4 0xB13D8F15 EQ PUSH2 0x807 JUMPI DUP1 PUSH4 0xB3913777 EQ PUSH2 0x81A JUMPI DUP1 PUSH4 0xB85C2292 EQ PUSH2 0x83E JUMPI PUSH0 DUP1 REVERT JUMPDEST DUP1 PUSH4 0xA3A40EA5 EQ PUSH2 0x794 JUMPI DUP1 PUSH4 0xA5F5B1BF EQ PUSH2 0x7B5 JUMPI DUP1 PUSH4 0xA6A5AD12 EQ PUSH2 0x7C9 JUMPI PUSH0 DUP1 REVERT JUMPDEST DUP1 PUSH4 0x49066E79 GT PUSH2 0x2BF JUMPI DUP1 PUSH4 0x54C17527 GT PUSH2 0x25F JUMPI DUP1 PUSH4 0x86A0DD7D GT PUSH2 0x22F JUMPI DUP1 PUSH4 0x86A0DD7D EQ PUSH2 0x70F JUMPI DUP1 PUSH4 0x97DFFC61 EQ PUSH2 0x723 JUMPI DUP1 PUSH4 0x9A741327 EQ PUSH2 0x72B JUMPI DUP1 PUSH4 0x9DC99455 EQ PUSH2 0x756 JUMPI PUSH0 DUP1 REVERT JUMPDEST DUP1 PUSH4 0x54C17527 EQ PUSH2 0x689 JUMPI DUP1 PUSH4 0x70F67CFE EQ PUSH2 0x69D JUMPI DUP1 PUSH4 0x78E97925 EQ PUSH2 0x6C9 JUMPI DUP1 PUSH4 0x7D48536D EQ PUSH2 0x6FC JUMPI PUSH0 DUP1 REVERT JUMPDEST DUP1 PUSH4 0x5004E24A GT PUSH2 0x29A JUMPI DUP1 PUSH4 0x5004E24A EQ PUSH2 0x5E9 JUMPI DUP1 PUSH4 0x513856C8 EQ PUSH2 0x5FF JUMPI DUP1 PUSH4 0x5204743A EQ PUSH2 0x636 JUMPI DUP1 PUSH4 0x53FDC838 EQ PUSH2 0x655 JUMPI PUSH0 DUP1 REVERT JUMPDEST DUP1 PUSH4 0x49066E79 EQ PUSH2 0x43E JUMPI DUP1 PUSH4 0x491DE471 EQ PUSH2 0x5BB JUMPI DUP1 PUSH4 0x4EBEB109 EQ PUSH2 0x5CF JUMPI PUSH0 DUP1 REVERT JUMPDEST DUP1 PUSH4 0x1B408934 GT PUSH2 0x335 JUMPI DUP1 PUSH4 0x30443320 GT PUSH2 0x305 JUMPI DUP1 PUSH4 0x30443320 EQ PUSH2 0x53A JUMPI DUP1 PUSH4 0x3B497B28 EQ PUSH2 0x565 JUMPI DUP1 PUSH4 0x3DEF77B7 EQ PUSH2 0x584 JUMPI DUP1 PUSH4 0x452D32BB EQ PUSH2 0x599 JUMPI PUSH0 DUP1 REVERT JUMPDEST DUP1 PUSH4 0x1B408934 EQ PUSH2 0x4A1 JUMPI DUP1 PUSH4 0x1FFBB064 EQ PUSH2 0x4CE JUMPI DUP1 PUSH4 0x23929CC9 EQ PUSH2 0x4FC JUMPI DUP1 PUSH4 0x29C83BE1 EQ PUSH2 0x51B JUMPI PUSH0 DUP1 REVERT JUMPDEST DUP1 PUSH4 0x89E35B8 GT PUSH2 0x370 JUMPI DUP1 PUSH4 0x89E35B8 EQ PUSH2 0x415 JUMPI DUP1 PUSH4 0x8FD4CFA EQ PUSH2 0x43E JUMPI DUP1 PUSH4 0xF3A8BFA EQ PUSH2 0x462 JUMPI DUP1 PUSH4 0x12065FE0 EQ PUSH2 0x48D JUMPI PUSH0 DUP1 REVERT JUMPDEST DUP1 PUSH4 0x13CF08B EQ PUSH2 0x396 JUMPI DUP1 PUSH4 0x45C6CE0 EQ PUSH2 0x3CF JUMPI DUP1 PUSH4 0x79DDD11 EQ PUSH2 0x400 JUMPI JUMPDEST PUSH0 DUP1 REVERT JUMPDEST CALLVALUE DUP1 ISZERO PUSH2 0x3A1 JUMPI PUSH0 DUP1 REVERT JUMPDEST POP PUSH2 0x3B5 PUSH2 0x3B0 CALLDATASIZE PUSH1 0x4 PUSH2 0x4D05 JUMP JUMPDEST PUSH2 0xB28 JUMP JUMPDEST PUSH1 0x40 MLOAD PUSH2 0x3C6 SWAP6 SWAP5 SWAP4 SWAP3 SWAP2 SWAP1 PUSH2 0x4D4A JUMP JUMPDEST PUSH1 0x40 MLOAD DUP1 SWAP2 SUB SWAP1 RETURN JUMPDEST CALLVALUE DUP1 ISZERO PUSH2 0x3DA JUMPI PUSH0 DUP1 REVERT JUMPDEST POP PUSH2 0x3EE PUSH2 0x3E9 CALLDATASIZE PUSH1 0x4 PUSH2 0x4D05 JUMP JUMPDEST PUSH2 0xBFF JUMP JUMPDEST PUSH1 0x40 MLOAD PUSH1 0xFF SWAP1 SWAP2 AND DUP2 MSTORE PUSH1 0x20 ADD PUSH2 0x3C6 JUMP JUMPDEST PUSH2 0x413 PUSH2 0x40E CALLDATASIZE PUSH1 0x4 PUSH2 0x4DD1 JUMP JUMPDEST PUSH2 0xE97 JUMP JUMPDEST STOP JUMPDEST CALLVALUE DUP1 ISZERO PUSH2 0x420 JUMPI PUSH0 DUP1 REVERT JUMPDEST POP PUSH1 0xC SLOAD PUSH2 0x42E SWAP1 PUSH1 0xFF AND DUP2 JUMP JUMPDEST PUSH1 0x40 MLOAD SWAP1 ISZERO ISZERO DUP2 MSTORE PUSH1 0x20 ADD PUSH2 0x3C6 JUMP JUMPDEST CALLVALUE DUP1 ISZERO PUSH2 0x449 JUMPI PUSH0 DUP1 REVERT JUMPDEST POP PUSH2 0x454 PUSH3 0x127500 DUP2 JUMP JUMPDEST PUSH1 0x40 MLOAD SWAP1 DUP2 MSTORE PUSH1 0x20 ADD PUSH2 0x3C6 JUMP JUMPDEST CALLVALUE DUP1 ISZERO PUSH2 0x46D JUMPI PUSH0 DUP1 REVERT JUMPDEST POP PUSH2 0x454 PUSH2 0x47C CALLDATASIZE PUSH1 0x4 PUSH2 0x4E81 JUMP JUMPDEST PUSH1 0x12 PUSH1 0x20 MSTORE PUSH0 SWAP1 DUP2 MSTORE PUSH1 0x40 SWAP1 KECCAK256 SLOAD DUP2 JUMP JUMPDEST CALLVALUE DUP1 ISZERO PUSH2 0x498 JUMPI PUSH0 DUP1 REVERT JUMPDEST POP PUSH2 0x454 PUSH2 0x11DA JUMP JUMPDEST CALLVALUE DUP1 ISZERO PUSH2 0x4AC JUMPI PUSH0 DUP1 REVERT JUMPDEST POP PUSH1 0x3 SLOAD PUSH2 0x4BB SWAP1 PUSH2 0xFFFF AND DUP2 JUMP JUMPDEST PUSH1 0x40 MLOAD PUSH2 0xFFFF SWAP1 SWAP2 AND DUP2 MSTORE PUSH1 0x20 ADD PUSH2 0x3C6 JUMP JUMPDEST CALLVALUE DUP1 ISZERO PUSH2 0x4D9 JUMPI PUSH0 DUP1 REVERT JUMPDEST POP PUSH2 0x42E PUSH2 0x4E8 CALLDATASIZE PUSH1 0x4 PUSH2 0x4E81 JUMP JUMPDEST PUSH1 0x9 PUSH1 0x20 MSTORE PUSH0 SWAP1 DUP2 MSTORE PUSH1 0x40 SWAP1 KECCAK256 SLOAD PUSH1 0xFF AND DUP2 JUMP JUMPDEST CALLVALUE DUP1 ISZERO PUSH2 0x507 JUMPI PUSH0 DUP1 REVERT JUMPDEST POP PUSH2 0x42E PUSH2 0x516 CALLDATASIZE PUSH1 0x4 PUSH2 0x4ED8 JUMP JUMPDEST PUSH2 0x124D JUMP JUMPDEST CALLVALUE DUP1 ISZERO PUSH2 0x526 JUMPI PUSH0 DUP1 REVERT JUMPDEST POP PUSH2 0x413 PUSH2 0x535 CALLDATASIZE PUSH1 0x4 PUSH2 0x4F2B JUMP JUMPDEST PUSH2 0x12A7 JUMP JUMPDEST CALLVALUE DUP1 ISZERO PUSH2 0x545 JUMPI PUSH0 DUP1 REVERT JUMPDEST POP PUSH2 0x454 PUSH2 0x554 CALLDATASIZE PUSH1 0x4 PUSH2 0x4E81 JUMP JUMPDEST PUSH1 0xB PUSH1 0x20 MSTORE PUSH0 SWAP1 DUP2 MSTORE PUSH1 0x40 SWAP1 KECCAK256 SLOAD DUP2 JUMP JUMPDEST CALLVALUE DUP1 ISZERO PUSH2 0x570 JUMPI PUSH0 DUP1 REVERT JUMPDEST POP PUSH2 0x454 PUSH2 0x57F CALLDATASIZE PUSH1 0x4 PUSH2 0x4FA7 JUMP JUMPDEST PUSH2 0x14B6 JUMP JUMPDEST CALLVALUE DUP1 ISZERO PUSH2 0x58F JUMPI PUSH0 DUP1 REVERT JUMPDEST POP PUSH2 0x4BB PUSH2 0x4B0 DUP2 JUMP JUMPDEST CALLVALUE DUP1 ISZERO PUSH2 0x5A4 JUMPI PUSH0 DUP1 REVERT JUMPDEST POP PUSH2 0x5AD PUSH2 0x16E8 JUMP JUMPDEST PUSH1 0x40 MLOAD PUSH2 0x3C6 SWAP3 SWAP2 SWAP1 PUSH2 0x5113 JUMP JUMPDEST CALLVALUE DUP1 ISZERO PUSH2 0x5C6 JUMPI PUSH0 DUP1 REVERT JUMPDEST POP PUSH2 0x454 PUSH1 0x2 DUP2 JUMP JUMPDEST CALLVALUE DUP1 ISZERO PUSH2 0x5DA JUMPI PUSH0 DUP1 REVERT JUMPDEST POP PUSH2 0x454 PUSH7 0x38D7EA4C68000 DUP2 JUMP JUMPDEST CALLVALUE DUP1 ISZERO PUSH2 0x5F4 JUMPI PUSH0 DUP1 REVERT JUMPDEST POP PUSH2 0x454 PUSH3 0x5C4900 DUP2 JUMP JUMPDEST CALLVALUE DUP1 ISZERO PUSH2 0x60A JUMPI PUSH0 DUP1 REVERT JUMPDEST POP PUSH2 0x61E PUSH2 0x619 CALLDATASIZE PUSH1 0x4 PUSH2 0x4D05 JUMP JUMPDEST PUSH2 0x1F0E JUMP JUMPDEST PUSH1 0x40 MLOAD PUSH1 0x1 PUSH1 0x1 PUSH1 0xA0 SHL SUB SWAP1 SWAP2 AND DUP2 MSTORE PUSH1 0x20 ADD PUSH2 0x3C6 JUMP JUMPDEST CALLVALUE DUP1 ISZERO PUSH2 0x641 JUMPI PUSH0 DUP1 REVERT JUMPDEST POP PUSH2 0x413 PUSH2 0x650 CALLDATASIZE PUSH1 0x4 PUSH2 0x5142 JUMP JUMPDEST PUSH2 0x1F2D JUMP JUMPDEST CALLVALUE DUP1 ISZERO PUSH2 0x660 JUMPI PUSH0 DUP1 REVERT JUMPDEST POP PUSH2 0x674 PUSH2 0x66F CALLDATASIZE PUSH1 0x4 PUSH2 0x5177 JUMP JUMPDEST PUSH2 0x2424 JUMP JUMPDEST PUSH1 0x40 DUP1 MLOAD SWAP3 DUP4 MSTORE PUSH1 0x20 DUP4 ADD SWAP2 SWAP1 SWAP2 MSTORE ADD PUSH2 0x3C6 JUMP JUMPDEST CALLVALUE DUP1 ISZERO PUSH2 0x694 JUMPI PUSH0 DUP1 REVERT JUMPDEST POP PUSH2 0x454 PUSH1 0xA DUP2 JUMP JUMPDEST CALLVALUE DUP1 ISZERO PUSH2 0x6A8 JUMPI PUSH0 DUP1 REVERT JUMPDEST POP PUSH2 0x6BC PUSH2 0x6B7 CALLDATASIZE PUSH1 0x4 PUSH2 0x4D05 JUMP JUMPDEST PUSH2 0x245C JUMP JUMPDEST PUSH1 0x40 MLOAD PUSH2 0x3C6 SWAP2 SWAP1 PUSH2 0x51A1 JUMP JUMPDEST CALLVALUE DUP1 ISZERO PUSH2 0x6D4 JUMPI PUSH0 DUP1 REVERT JUMPDEST POP PUSH2 0x454 PUSH32 0x0 DUP2 JUMP JUMPDEST CALLVALUE DUP1 ISZERO PUSH2 0x707 JUMPI PUSH0 DUP1 REVERT JUMPDEST POP PUSH2 0x454 PUSH0 DUP2 JUMP JUMPDEST CALLVALUE DUP1 ISZERO PUSH2 0x71A JUMPI PUSH0 DUP1 REVERT JUMPDEST POP PUSH2 0x3EE PUSH1 0xA DUP2 JUMP JUMPDEST PUSH2 0x413 PUSH2 0x2742 JUMP JUMPDEST CALLVALUE DUP1 ISZERO PUSH2 0x736 JUMPI PUSH0 DUP1 REVERT JUMPDEST POP PUSH2 0x454 PUSH2 0x745 CALLDATASIZE PUSH1 0x4 PUSH2 0x4E81 JUMP JUMPDEST PUSH1 0x16 PUSH1 0x20 MSTORE PUSH0 SWAP1 DUP2 MSTORE PUSH1 0x40 SWAP1 KECCAK256 SLOAD DUP2 JUMP JUMPDEST CALLVALUE DUP1 ISZERO PUSH2 0x761 JUMPI PUSH0 DUP1 REVERT JUMPDEST POP PUSH2 0x775 PUSH2 0x770 CALLDATASIZE PUSH1 0x4 PUSH2 0x4D05 JUMP JUMPDEST PUSH2 0x27BC JUMP JUMPDEST PUSH1 0x40 DUP1 MLOAD PUSH1 0x1 PUSH1 0x1 PUSH1 0xA0 SHL SUB SWAP1 SWAP4 AND DUP4 MSTORE PUSH1 0x20 DUP4 ADD SWAP2 SWAP1 SWAP2 MSTORE ADD PUSH2 0x3C6 JUMP JUMPDEST CALLVALUE DUP1 ISZERO PUSH2 0x79F JUMPI PUSH0 DUP1 REVERT JUMPDEST POP PUSH2 0x7A8 PUSH2 0x27E7 JUMP JUMPDEST PUSH1 0x40 MLOAD PUSH2 0x3C6 SWAP2 SWAP1 PUSH2 0x5276 JUMP JUMPDEST CALLVALUE DUP1 ISZERO PUSH2 0x7C0 JUMPI PUSH0 DUP1 REVERT JUMPDEST POP PUSH2 0x413 PUSH2 0x28AF JUMP JUMPDEST CALLVALUE DUP1 ISZERO PUSH2 0x7D4 JUMPI PUSH0 DUP1 REVERT JUMPDEST POP PUSH2 0x413 PUSH2 0x7E3 CALLDATASIZE PUSH1 0x4 PUSH2 0x529C JUMP JUMPDEST PUSH2 0x2A1F JUMP JUMPDEST CALLVALUE DUP1 ISZERO PUSH2 0x7F3 JUMPI PUSH0 DUP1 REVERT JUMPDEST POP PUSH2 0x61E PUSH2 0x802 CALLDATASIZE PUSH1 0x4 PUSH2 0x4D05 JUMP JUMPDEST PUSH2 0x2D31 JUMP JUMPDEST PUSH2 0x413 PUSH2 0x815 CALLDATASIZE PUSH1 0x4 PUSH2 0x5454 JUMP JUMPDEST PUSH2 0x2D59 JUMP JUMPDEST CALLVALUE DUP1 ISZERO PUSH2 0x825 JUMPI PUSH0 DUP1 REVERT JUMPDEST POP PUSH1 0xC SLOAD PUSH2 0x61E SWAP1 PUSH2 0x100 SWAP1 DIV PUSH1 0x1 PUSH1 0x1 PUSH1 0xA0 SHL SUB AND DUP2 JUMP JUMPDEST CALLVALUE DUP1 ISZERO PUSH2 0x849 JUMPI PUSH0 DUP1 REVERT JUMPDEST POP PUSH2 0x3EE PUSH1 0x1E DUP2 JUMP JUMPDEST CALLVALUE DUP1 ISZERO PUSH2 0x85D JUMPI PUSH0 DUP1 REVERT JUMPDEST POP PUSH2 0x454 PUSH1 0x2 SLOAD DUP2 JUMP JUMPDEST CALLVALUE DUP1 ISZERO PUSH2 0x872 JUMPI PUSH0 DUP1 REVERT JUMPDEST POP PUSH2 0x454 PUSH1 0xD SLOAD DUP2 JUMP JUMPDEST CALLVALUE DUP1 ISZERO PUSH2 0x887 JUMPI PUSH0 DUP1 REVERT JUMPDEST POP PUSH2 0x42E PUSH2 0x896 CALLDATASIZE PUSH1 0x4 PUSH2 0x5177 JUMP JUMPDEST PUSH1 0xF PUSH1 0x20 SWAP1 DUP2 MSTORE PUSH0 SWAP3 DUP4 MSTORE PUSH1 0x40 DUP1 DUP5 KECCAK256 SWAP1 SWAP2 MSTORE SWAP1 DUP3 MSTORE SWAP1 KECCAK256 SLOAD PUSH1 0xFF AND DUP2 JUMP JUMPDEST CALLVALUE DUP1 ISZERO PUSH2 0x8C0 JUMPI PUSH0 DUP1 REVERT JUMPDEST POP PUSH2 0x8D4 PUSH2 0x8CF CALLDATASIZE PUSH1 0x4 PUSH2 0x4D05 JUMP JUMPDEST PUSH2 0x3103 JUMP JUMPDEST PUSH1 0x40 MLOAD PUSH2 0x3C6 SWAP8 SWAP7 SWAP6 SWAP5 SWAP4 SWAP3 SWAP2 SWAP1 PUSH2 0x5587 JUMP JUMPDEST CALLVALUE DUP1 ISZERO PUSH2 0x8F2 JUMPI PUSH0 DUP1 REVERT JUMPDEST POP PUSH2 0x3EE PUSH2 0x901 CALLDATASIZE PUSH1 0x4 PUSH2 0x4D05 JUMP JUMPDEST PUSH2 0x3368 JUMP JUMPDEST CALLVALUE DUP1 ISZERO PUSH2 0x911 JUMPI PUSH0 DUP1 REVERT JUMPDEST POP PUSH2 0x413 PUSH2 0x3917 JUMP JUMPDEST CALLVALUE DUP1 ISZERO PUSH2 0x925 JUMPI PUSH0 DUP1 REVERT JUMPDEST POP PUSH2 0x454 PUSH0 SLOAD DUP2 JUMP JUMPDEST CALLVALUE DUP1 ISZERO PUSH2 0x939 JUMPI PUSH0 DUP1 REVERT JUMPDEST POP PUSH2 0x454 PUSH2 0x3E8 DUP2 JUMP JUMPDEST CALLVALUE DUP1 ISZERO PUSH2 0x94E JUMPI PUSH0 DUP1 REVERT JUMPDEST POP PUSH2 0x413 PUSH2 0x95D CALLDATASIZE PUSH1 0x4 PUSH2 0x529C JUMP JUMPDEST PUSH2 0x3A8A JUMP JUMPDEST CALLVALUE DUP1 ISZERO PUSH2 0x96D JUMPI PUSH0 DUP1 REVERT JUMPDEST POP PUSH1 0x80 SLOAD PUSH2 0x3EE SWAP1 PUSH1 0xFF AND DUP2 JUMP JUMPDEST CALLVALUE DUP1 ISZERO PUSH2 0x986 JUMPI PUSH0 DUP1 REVERT JUMPDEST POP PUSH2 0x454 PUSH1 0x1 SLOAD DUP2 JUMP JUMPDEST CALLVALUE DUP1 ISZERO PUSH2 0x99B JUMPI PUSH0 DUP1 REVERT JUMPDEST POP PUSH2 0x9A6 PUSH3 0xF4240 DUP2 JUMP JUMPDEST PUSH1 0x40 MLOAD PUSH4 0xFFFFFFFF SWAP1 SWAP2 AND DUP2 MSTORE PUSH1 0x20 ADD PUSH2 0x3C6 JUMP JUMPDEST CALLVALUE DUP1 ISZERO PUSH2 0x9C6 JUMPI PUSH0 DUP1 REVERT JUMPDEST POP PUSH2 0x3EE PUSH1 0x3 DUP2 JUMP JUMPDEST CALLVALUE DUP1 ISZERO PUSH2 0x9DA JUMPI PUSH0 DUP1 REVERT JUMPDEST POP PUSH2 0x61E PUSH2 0x9E9 CALLDATASIZE PUSH1 0x4 PUSH2 0x55F0 JUMP JUMPDEST PUSH2 0x3D25 JUMP JUMPDEST CALLVALUE DUP1 ISZERO PUSH2 0x9F9 JUMPI PUSH0 DUP1 REVERT JUMPDEST POP PUSH2 0x413 PUSH2 0xA08 CALLDATASIZE PUSH1 0x4 PUSH2 0x4D05 JUMP JUMPDEST PUSH2 0x3D50 JUMP JUMPDEST CALLVALUE DUP1 ISZERO PUSH2 0xA18 JUMPI PUSH0 DUP1 REVERT JUMPDEST POP PUSH2 0x3EE PUSH1 0x32 DUP2 JUMP JUMPDEST CALLVALUE DUP1 ISZERO PUSH2 0xA2C JUMPI PUSH0 DUP1 REVERT JUMPDEST POP PUSH1 0x13 SLOAD PUSH2 0x9A6 SWAP1 PUSH4 0xFFFFFFFF AND DUP2 JUMP JUMPDEST CALLVALUE DUP1 ISZERO PUSH2 0xA48 JUMPI PUSH0 DUP1 REVERT JUMPDEST POP PUSH2 0xA5C PUSH2 0xA57 CALLDATASIZE PUSH1 0x4 PUSH2 0x4E81 JUMP JUMPDEST PUSH2 0x3EF8 JUMP JUMPDEST PUSH1 0x40 MLOAD PUSH2 0x3C6 SWAP10 SWAP9 SWAP8 SWAP7 SWAP6 SWAP5 SWAP4 SWAP3 SWAP2 SWAP1 PUSH2 0x5610 JUMP JUMPDEST CALLVALUE DUP1 ISZERO PUSH2 0xA7C JUMPI PUSH0 DUP1 REVERT JUMPDEST POP PUSH2 0x413 PUSH2 0xA8B CALLDATASIZE PUSH1 0x4 PUSH2 0x568A JUMP JUMPDEST PUSH2 0x40DC JUMP JUMPDEST CALLVALUE DUP1 ISZERO PUSH2 0xA9B JUMPI PUSH0 DUP1 REVERT JUMPDEST POP PUSH2 0x3EE PUSH2 0xAAA CALLDATASIZE PUSH1 0x4 PUSH2 0x4E81 JUMP JUMPDEST PUSH1 0x7F PUSH1 0x20 MSTORE PUSH0 SWAP1 DUP2 MSTORE PUSH1 0x40 SWAP1 KECCAK256 SLOAD PUSH1 0xFF AND DUP2 JUMP JUMPDEST CALLVALUE DUP1 ISZERO PUSH2 0xAC9 JUMPI PUSH0 DUP1 REVERT JUMPDEST POP PUSH2 0xAD2 PUSH2 0x46AB JUMP JUMPDEST PUSH1 0x40 MLOAD PUSH2 0x3C6 SWAP2 SWAP1 PUSH2 0x56C5 JUMP JUMPDEST CALLVALUE DUP1 ISZERO PUSH2 0xAEA JUMPI PUSH0 DUP1 REVERT JUMPDEST POP PUSH2 0x454 PUSH1 0x14 SLOAD DUP2 JUMP JUMPDEST CALLVALUE DUP1 ISZERO PUSH2 0xAFF JUMPI PUSH0 DUP1 REVERT JUMPDEST POP PUSH2 0x674 PUSH2 0xB0E CALLDATASIZE PUSH1 0x4 PUSH2 0x4D05 JUMP JUMPDEST PUSH2 0x4AB1 JUMP JUMPDEST CALLVALUE DUP1 ISZERO PUSH2 0xB1E JUMPI PUSH0 DUP1 REVERT JUMPDEST POP PUSH2 0x454 PUSH1 0x18 SLOAD DUP2 JUMP JUMPDEST PUSH1 0xE DUP2 DUP2 SLOAD DUP2 LT PUSH2 0xB37 JUMPI PUSH0 DUP1 REVERT JUMPDEST PUSH0 SWAP2 DUP3 MSTORE PUSH1 0x20 SWAP1 SWAP2 KECCAK256 PUSH1 0x5 SWAP1 SWAP2 MUL ADD DUP1 SLOAD PUSH1 0x1 DUP3 ADD DUP1 SLOAD PUSH1 0x1 PUSH1 0x1 PUSH1 0xA0 SHL SUB SWAP1 SWAP3 AND SWAP4 POP SWAP1 PUSH2 0xB65 SWAP1 PUSH2 0x5710 JUMP JUMPDEST DUP1 PUSH1 0x1F ADD PUSH1 0x20 DUP1 SWAP2 DIV MUL PUSH1 0x20 ADD PUSH1 0x40 MLOAD SWAP1 DUP2 ADD PUSH1 0x40 MSTORE DUP1 SWAP3 SWAP2 SWAP1 DUP2 DUP2 MSTORE PUSH1 0x20 ADD DUP3 DUP1 SLOAD PUSH2 0xB91 SWAP1 PUSH2 0x5710 JUMP JUMPDEST DUP1 ISZERO PUSH2 0xBDC JUMPI DUP1 PUSH1 0x1F LT PUSH2 0xBB3 JUMPI PUSH2 0x100 DUP1 DUP4 SLOAD DIV MUL DUP4 MSTORE SWAP2 PUSH1 0x20 ADD SWAP2 PUSH2 0xBDC JUMP JUMPDEST DUP3 ADD SWAP2 SWAP1 PUSH0 MSTORE PUSH1 0x20 PUSH0 KECCAK256 SWAP1 JUMPDEST DUP2 SLOAD DUP2 MSTORE SWAP1 PUSH1 0x1 ADD SWAP1 PUSH1 0x20 ADD DUP1 DUP4 GT PUSH2 0xBBF JUMPI DUP3 SWAP1 SUB PUSH1 0x1F AND DUP3 ADD SWAP2 JUMPDEST POP POP POP POP PUSH1 0x2 DUP4 ADD SLOAD PUSH1 0x3 SWAP1 SWAP4 ADD SLOAD SWAP2 SWAP3 SWAP2 PUSH1 0xFF DUP1 DUP3 AND SWAP3 POP PUSH2 0x100 SWAP1 SWAP2 DIV AND DUP6 JUMP JUMPDEST CALLER PUSH0 SWAP1 DUP2 MSTORE PUSH1 0x5 PUSH1 0x20 MSTORE PUSH1 0x40 DUP2 KECCAK256 PUSH1 0x4 ADD SLOAD PUSH3 0x10000 SWAP1 DIV PUSH1 0xFF AND PUSH2 0xC63 JUMPI PUSH1 0x40 MLOAD PUSH3 0x461BCD PUSH1 0xE5 SHL DUP2 MSTORE PUSH1 0x20 PUSH1 0x4 DUP3 ADD MSTORE PUSH1 0x15 PUSH1 0x24 DUP3 ADD MSTORE PUSH21 0x4F6E6C79206D656D626572732063616E20766F7465 PUSH1 0x58 SHL PUSH1 0x44 DUP3 ADD MSTORE PUSH1 0x64 ADD JUMPDEST PUSH1 0x40 MLOAD DUP1 SWAP2 SUB SWAP1 REVERT JUMPDEST PUSH1 0xE SLOAD DUP3 LT PUSH2 0xCAA JUMPI PUSH1 0x40 MLOAD PUSH3 0x461BCD PUSH1 0xE5 SHL DUP2 MSTORE PUSH1 0x20 PUSH1 0x4 DUP3 ADD MSTORE PUSH1 0x13 PUSH1 0x24 DUP3 ADD MSTORE PUSH19 0x125B9D985B1A59081C1C9BDC1BDCD85B081251 PUSH1 0x6A SHL PUSH1 0x44 DUP3 ADD MSTORE PUSH1 0x64 ADD PUSH2 0xC5A JUMP JUMPDEST PUSH0 PUSH1 0xE DUP4 DUP2 SLOAD DUP2 LT PUSH2 0xCBE JUMPI PUSH2 0xCBE PUSH2 0x5748 JUMP JUMPDEST PUSH0 SWAP2 DUP3 MSTORE PUSH1 0x20 SWAP1 SWAP2 KECCAK256 PUSH1 0x5 SWAP1 SWAP2 MUL ADD PUSH1 0x3 DUP2 ADD SLOAD SWAP1 SWAP2 POP PUSH1 0xFF AND ISZERO PUSH2 0xD1A JUMPI PUSH1 0x40 MLOAD PUSH3 0x461BCD PUSH1 0xE5 SHL DUP2 MSTORE PUSH1 0x20 PUSH1 0x4 DUP3 ADD MSTORE PUSH1 0x12 PUSH1 0x24 DUP3 ADD MSTORE PUSH18 0x283937B837B9B0B6103BB4BA34323930BBB7 PUSH1 0x71 SHL PUSH1 0x44 DUP3 ADD MSTORE PUSH1 0x64 ADD PUSH2 0xC5A JUMP JUMPDEST CALLER PUSH0 SWAP1 DUP2 MSTORE PUSH1 0xF PUSH1 0x20 SWAP1 DUP2 MSTORE PUSH1 0x40 DUP1 DUP4 KECCAK256 DUP7 DUP5 MSTORE SWAP1 SWAP2 MSTORE SWAP1 KECCAK256 SLOAD PUSH1 0xFF AND ISZERO PUSH2 0xD74 JUMPI PUSH1 0x40 MLOAD PUSH3 0x461BCD PUSH1 0xE5 SHL DUP2 MSTORE PUSH1 0x20 PUSH1 0x4 DUP3 ADD MSTORE PUSH1 0xD PUSH1 0x24 DUP3 ADD MSTORE PUSH13 0x105B1C9958591E481D9BDD1959 PUSH1 0x9A SHL PUSH1 0x44 DUP3 ADD MSTORE PUSH1 0x64 ADD PUSH2 0xC5A JUMP JUMPDEST CALLER PUSH0 SWAP1 DUP2 MSTORE PUSH1 0xF PUSH1 0x20 SWAP1 DUP2 MSTORE PUSH1 0x40 DUP1 DUP4 KECCAK256 DUP7 DUP5 MSTORE SWAP1 SWAP2 MSTORE SWAP1 KECCAK256 DUP1 SLOAD PUSH1 0xFF NOT AND PUSH1 0x1 SWAP1 DUP2 OR SWAP1 SWAP2 SSTORE PUSH1 0x3 DUP3 ADD DUP1 SLOAD PUSH2 0x100 SWAP1 DIV PUSH1 0xFF AND SWAP2 PUSH2 0xDB3 DUP4 PUSH2 0x5770 JUMP JUMPDEST SWAP2 SWAP1 PUSH2 0x100 EXP DUP2 SLOAD DUP2 PUSH1 0xFF MUL NOT AND SWAP1 DUP4 PUSH1 0xFF AND MUL OR SWAP1 SSTORE POP POP CALLER PUSH1 0x1 PUSH1 0x1 PUSH1 0xA0 SHL SUB AND DUP4 PUSH32 0x34647120636CE03D739347E28E9D1BDD34FD03D066AE60439FB1BE2721AD16CD PUSH1 0x40 MLOAD PUSH1 0x40 MLOAD DUP1 SWAP2 SUB SWAP1 LOG3 PUSH1 0x3 DUP2 ADD SLOAD PUSH1 0x1E PUSH2 0x100 SWAP1 SWAP2 DIV PUSH1 0xFF AND LT DUP1 ISZERO SWAP1 PUSH2 0xE23 JUMPI POP PUSH1 0x2 DUP2 ADD SLOAD ISZERO JUMPDEST ISZERO PUSH2 0xE85 JUMPI PUSH1 0x40 MLOAD DUP4 SWAP1 PUSH32 0xE36F8B7448DAFF4A52E2945DB0D1D7A436279CC1D527A45C27835DCBD27F336D SWAP1 PUSH0 SWAP1 LOG2 TIMESTAMP PUSH1 0x2 DUP3 ADD SSTORE DUP1 SLOAD PUSH1 0x1 PUSH1 0x1 PUSH1 0xA0 SHL SUB AND PUSH0 SWAP1 DUP2 MSTORE PUSH1 0x5 PUSH1 0x20 MSTORE PUSH1 0x40 SWAP1 KECCAK256 PUSH1 0x6 ADD DUP1 SLOAD PUSH2 0xFFFF NOT AND SWAP1 SSTORE PUSH2 0xE85 DUP4 PUSH2 0x4ADD JUMP JUMPDEST PUSH1 0x3 ADD SLOAD PUSH2 0x100 SWAP1 DIV PUSH1 0xFF AND SWAP3 SWAP2 POP POP JUMP JUMPDEST DUP5 ISZERO DUP1 ISZERO SWAP1 PUSH2 0xEA7 JUMPI POP PUSH1 0x64 DUP6 GT ISZERO JUMPDEST PUSH2 0xEE2 JUMPI PUSH1 0x40 MLOAD PUSH3 0x461BCD PUSH1 0xE5 SHL DUP2 MSTORE PUSH1 0x20 PUSH1 0x4 DUP3 ADD MSTORE PUSH1 0xC PUSH1 0x24 DUP3 ADD MSTORE PUSH12 0x496E76616C6964206E616D65 PUSH1 0xA0 SHL PUSH1 0x44 DUP3 ADD MSTORE PUSH1 0x64 ADD PUSH2 0xC5A JUMP JUMPDEST DUP3 ISZERO DUP1 ISZERO SWAP1 PUSH2 0xEF3 JUMPI POP PUSH2 0x3E8 DUP4 GT ISZERO JUMPDEST PUSH2 0xF2D JUMPI PUSH1 0x40 MLOAD PUSH3 0x461BCD PUSH1 0xE5 SHL DUP2 MSTORE PUSH1 0x20 PUSH1 0x4 DUP3 ADD MSTORE PUSH1 0xB PUSH1 0x24 DUP3 ADD MSTORE PUSH11 0x496E76616C69642062696F PUSH1 0xA8 SHL PUSH1 0x44 DUP3 ADD MSTORE PUSH1 0x64 ADD PUSH2 0xC5A JUMP JUMPDEST DUP1 ISZERO DUP1 ISZERO SWAP1 PUSH2 0xF3E JUMPI POP PUSH2 0x3E8 DUP2 GT ISZERO JUMPDEST PUSH2 0xF7C JUMPI PUSH1 0x40 MLOAD PUSH3 0x461BCD PUSH1 0xE5 SHL DUP2 MSTORE PUSH1 0x20 PUSH1 0x4 DUP3 ADD MSTORE PUSH1 0xF PUSH1 0x24 DUP3 ADD MSTORE PUSH15 0x496E76616C69642077656273697465 PUSH1 0x88 SHL PUSH1 0x44 DUP3 ADD MSTORE PUSH1 0x64 ADD PUSH2 0xC5A JUMP JUMPDEST CALLER PUSH2 0xFBA JUMPI PUSH1 0x40 MLOAD PUSH3 0x461BCD PUSH1 0xE5 SHL DUP2 MSTORE PUSH1 0x20 PUSH1 0x4 DUP3 ADD MSTORE PUSH1 0xE PUSH1 0x24 DUP3 ADD MSTORE PUSH14 0x24B73B30B634B21039B2B73232B9 PUSH1 0x91 SHL PUSH1 0x44 DUP3 ADD MSTORE PUSH1 0x64 ADD PUSH2 0xC5A JUMP JUMPDEST PUSH7 0x38D7EA4C68000 CALLVALUE LT PUSH2 0x1008 JUMPI CALLER PUSH2 0x8FC PUSH2 0xFDD PUSH7 0x38D7EA4C68000 CALLVALUE PUSH2 0x578E JUMP JUMPDEST PUSH1 0x40 MLOAD DUP2 ISZERO SWAP1 SWAP3 MUL SWAP2 PUSH0 DUP2 DUP2 DUP2 DUP6 DUP9 DUP9 CALL SWAP4 POP POP POP POP ISZERO DUP1 ISZERO PUSH2 0x1002 JUMPI RETURNDATASIZE PUSH0 DUP1 RETURNDATACOPY RETURNDATASIZE PUSH0 REVERT JUMPDEST POP PUSH2 0x1050 JUMP JUMPDEST PUSH1 0x40 MLOAD PUSH3 0x461BCD PUSH1 0xE5 SHL DUP2 MSTORE PUSH1 0x20 PUSH1 0x4 DUP3 ADD MSTORE PUSH1 0x1A PUSH1 0x24 DUP3 ADD MSTORE PUSH32 0x5061796D656E74203C20726567697374726174696F6E20666565000000000000 PUSH1 0x44 DUP3 ADD MSTORE PUSH1 0x64 ADD PUSH2 0xC5A JUMP JUMPDEST PUSH0 PUSH2 0x1059 PUSH2 0x27E7 JUMP JUMPDEST PUSH1 0x5 DUP2 GT ISZERO PUSH2 0x106A JUMPI PUSH2 0x106A PUSH2 0x5262 JUMP JUMPDEST EQ PUSH2 0x10B7 JUMPI PUSH1 0x40 MLOAD PUSH3 0x461BCD PUSH1 0xE5 SHL DUP2 MSTORE PUSH1 0x20 PUSH1 0x4 DUP3 ADD MSTORE PUSH1 0x19 PUSH1 0x24 DUP3 ADD MSTORE PUSH32 0x526567697374726174696F6E20706572696F6420656E64656400000000000000 PUSH1 0x44 DUP3 ADD MSTORE PUSH1 0x64 ADD PUSH2 0xC5A JUMP JUMPDEST CALLER PUSH0 SWAP1 DUP2 MSTORE PUSH1 0x5 PUSH1 0x20 MSTORE PUSH1 0x40 SWAP1 KECCAK256 PUSH1 0x3 ADD SLOAD ISZERO PUSH2 0x110B JUMPI PUSH1 0x40 MLOAD PUSH3 0x461BCD PUSH1 0xE5 SHL DUP2 MSTORE PUSH1 0x20 PUSH1 0x4 DUP3 ADD MSTORE PUSH1 0x12 PUSH1 0x24 DUP3 ADD MSTORE PUSH18 0x105B1C9958591E481C9959DA5CDD195C9959 PUSH1 0x72 SHL PUSH1 0x44 DUP3 ADD MSTORE PUSH1 0x64 ADD PUSH2 0xC5A JUMP JUMPDEST CALLER PUSH0 SWAP1 DUP2 MSTORE PUSH1 0x5 PUSH1 0x20 MSTORE PUSH1 0x40 SWAP1 KECCAK256 DUP1 PUSH2 0x1125 DUP8 DUP10 DUP4 PUSH2 0x5800 JUMP JUMPDEST POP PUSH1 0x1 DUP2 ADD PUSH2 0x1135 DUP6 DUP8 DUP4 PUSH2 0x5800 JUMP JUMPDEST POP PUSH1 0x2 DUP2 ADD PUSH2 0x1145 DUP4 DUP6 DUP4 PUSH2 0x5800 JUMP JUMPDEST POP TIMESTAMP PUSH1 0x3 DUP3 ADD SSTORE PUSH1 0x4 DUP1 SLOAD PUSH1 0x1 DUP2 ADD DUP3 SSTORE PUSH0 SWAP2 SWAP1 SWAP2 MSTORE PUSH32 0x8A35ACFBC15FF81A39AE7D344FD709F28E8600B4AA8C65C6B64BFE7FE36BD19B ADD DUP1 SLOAD PUSH1 0x1 PUSH1 0x1 PUSH1 0xA0 SHL SUB NOT AND CALLER SWAP1 DUP2 OR SWAP1 SWAP2 SSTORE PUSH1 0x40 MLOAD PUSH31 0xD6FEA68F71A20D8149F227F87E8CF7E6AD320B2DAD4B45465B14599B80EE09 SWAP1 PUSH2 0x11C9 SWAP1 DUP11 SWAP1 DUP11 SWAP1 DUP11 SWAP1 DUP11 SWAP1 DUP11 SWAP1 DUP11 SWAP1 PUSH2 0x58DC JUMP JUMPDEST PUSH1 0x40 MLOAD DUP1 SWAP2 SUB SWAP1 LOG2 POP POP POP POP POP POP POP JUMP JUMPDEST PUSH0 DUP1 JUMPDEST CALLER PUSH0 SWAP1 DUP2 MSTORE PUSH1 0x1A PUSH1 0x20 MSTORE PUSH1 0x40 SWAP1 KECCAK256 SLOAD PUSH2 0xFFFF DUP3 AND LT ISZERO PUSH2 0x1249 JUMPI CALLER PUSH0 SWAP1 DUP2 MSTORE PUSH1 0x1A PUSH1 0x20 MSTORE PUSH1 0x40 SWAP1 KECCAK256 DUP1 SLOAD PUSH2 0xFFFF DUP4 AND SWAP1 DUP2 LT PUSH2 0x121B JUMPI PUSH2 0x121B PUSH2 0x5748 JUMP JUMPDEST SWAP1 PUSH0 MSTORE PUSH1 0x20 PUSH0 KECCAK256 SWAP1 PUSH1 0x2 MUL ADD PUSH0 ADD SLOAD DUP3 PUSH2 0x1235 SWAP2 SWAP1 PUSH2 0x5924 JUMP JUMPDEST SWAP2 POP DUP1 PUSH2 0x1241 DUP2 PUSH2 0x594B JUMP JUMPDEST SWAP2 POP POP PUSH2 0x11DD JUMP JUMPDEST POP SWAP1 JUMP JUMPDEST PUSH0 DUP1 DUP5 DUP5 DUP5 PUSH1 0x40 MLOAD PUSH1 0x20 ADD PUSH2 0x1264 SWAP4 SWAP3 SWAP2 SWAP1 PUSH2 0x5962 JUMP JUMPDEST PUSH1 0x40 DUP1 MLOAD PUSH1 0x1F NOT DUP2 DUP5 SUB ADD DUP2 MSTORE SWAP2 DUP2 MSTORE DUP2 MLOAD PUSH1 0x20 SWAP3 DUP4 ADD KECCAK256 PUSH0 SWAP1 DUP2 MSTORE PUSH1 0xA DUP4 MSTORE DUP2 DUP2 KECCAK256 PUSH1 0x1 PUSH1 0x1 PUSH1 0xA0 SHL SUB DUP11 AND DUP3 MSTORE SWAP1 SWAP3 MSTORE SWAP1 KECCAK256 SLOAD PUSH1 0xFF AND SWAP2 POP POP SWAP5 SWAP4 POP POP POP POP JUMP JUMPDEST CALLER PUSH0 SWAP1 DUP2 MSTORE PUSH1 0x5 PUSH1 0x20 MSTORE PUSH1 0x40 SWAP1 KECCAK256 PUSH1 0x4 ADD SLOAD PUSH3 0x10000 SWAP1 DIV PUSH1 0xFF AND PUSH2 0x12FD JUMPI PUSH1 0x40 MLOAD PUSH3 0x461BCD PUSH1 0xE5 SHL DUP2 MSTORE PUSH1 0x20 PUSH1 0x4 DUP3 ADD MSTORE PUSH1 0xC PUSH1 0x24 DUP3 ADD MSTORE PUSH12 0x2737BA10309036B2B6B132B9 PUSH1 0xA1 SHL PUSH1 0x44 DUP3 ADD MSTORE PUSH1 0x64 ADD PUSH2 0xC5A JUMP JUMPDEST PUSH0 NOT DUP2 PUSH0 SIGNEXTEND SLT ISZERO DUP1 ISZERO PUSH2 0x1313 JUMPI POP PUSH1 0x1 DUP2 PUSH0 SIGNEXTEND SGT ISZERO JUMPDEST PUSH2 0x135F JUMPI PUSH1 0x40 MLOAD PUSH3 0x461BCD PUSH1 0xE5 SHL DUP2 MSTORE PUSH1 0x20 PUSH1 0x4 DUP3 ADD MSTORE PUSH1 0x18 PUSH1 0x24 DUP3 ADD MSTORE PUSH32 0x566F7465206D757374206265202D312C20302C206F7220310000000000000000 PUSH1 0x44 DUP3 ADD MSTORE PUSH1 0x64 ADD PUSH2 0xC5A JUMP JUMPDEST CALLER PUSH0 SWAP1 DUP2 MSTORE PUSH1 0x15 PUSH1 0x20 SWAP1 DUP2 MSTORE PUSH1 0x40 DUP1 DUP4 KECCAK256 PUSH1 0x1 PUSH1 0x1 PUSH1 0xA0 SHL SUB DUP7 AND DUP5 MSTORE SWAP1 SWAP2 MSTORE DUP2 KECCAK256 SLOAD SWAP1 SIGNEXTEND DUP1 ISZERO DUP1 ISZERO PUSH2 0x1394 JUMPI POP DUP2 PUSH0 SIGNEXTEND PUSH0 EQ ISZERO JUMPDEST ISZERO PUSH2 0x1410 JUMPI CALLER PUSH0 SWAP1 DUP2 MSTORE PUSH1 0x17 PUSH1 0x20 MSTORE PUSH1 0x40 SWAP1 KECCAK256 SLOAD PUSH2 0x3E8 GT PUSH2 0x13EC JUMPI PUSH1 0x40 MLOAD PUSH3 0x461BCD PUSH1 0xE5 SHL DUP2 MSTORE PUSH1 0x20 PUSH1 0x4 DUP3 ADD MSTORE PUSH1 0x11 PUSH1 0x24 DUP3 ADD MSTORE PUSH17 0x13585E081D9BDD195CC81C995858DA1959 PUSH1 0x7A SHL PUSH1 0x44 DUP3 ADD MSTORE PUSH1 0x64 ADD PUSH2 0xC5A JUMP JUMPDEST CALLER PUSH0 SWAP1 DUP2 MSTORE PUSH1 0x17 PUSH1 0x20 MSTORE PUSH1 0x40 DUP2 KECCAK256 DUP1 SLOAD SWAP2 PUSH2 0x1406 DUP4 PUSH2 0x5997 JUMP JUMPDEST SWAP2 SWAP1 POP SSTORE POP PUSH2 0x1448 JUMP JUMPDEST DUP1 PUSH0 SIGNEXTEND PUSH0 EQ ISZERO DUP1 ISZERO PUSH2 0x1423 JUMPI POP DUP2 PUSH0 SIGNEXTEND PUSH0 EQ JUMPDEST ISZERO PUSH2 0x1448 JUMPI CALLER PUSH0 SWAP1 DUP2 MSTORE PUSH1 0x17 PUSH1 0x20 MSTORE PUSH1 0x40 DUP2 KECCAK256 DUP1 SLOAD SWAP2 PUSH2 0x1442 DUP4 PUSH2 0x59AF JUMP JUMPDEST SWAP2 SWAP1 POP SSTORE POP JUMPDEST CALLER PUSH0 SWAP1 DUP2 MSTORE PUSH1 0x15 PUSH1 0x20 SWAP1 DUP2 MSTORE PUSH1 0x40 DUP1 DUP4 KECCAK256 PUSH1 0x1 PUSH1 0x1 PUSH1 0xA0 SHL SUB DUP8 AND DUP5 MSTORE SWAP1 SWAP2 MSTORE SWAP1 KECCAK256 DUP1 SLOAD PUSH1 0xFF NOT AND PUSH1 0xFF DUP5 AND OR SWAP1 SSTORE PUSH2 0x1481 DUP2 DUP4 PUSH2 0x59C4 JUMP JUMPDEST PUSH1 0x1 PUSH1 0x1 PUSH1 0xA0 SHL SUB DUP5 AND PUSH0 SWAP1 DUP2 MSTORE PUSH1 0x16 PUSH1 0x20 MSTORE PUSH1 0x40 DUP2 KECCAK256 DUP1 SLOAD SWAP3 DUP3 SIGNEXTEND SWAP3 SWAP1 SWAP2 SWAP1 PUSH2 0x14AC SWAP1 DUP5 SWAP1 PUSH2 0x5924 JUMP JUMPDEST SWAP1 SWAP2 SSTORE POP POP POP POP POP JUMP JUMPDEST PUSH0 DUP4 PUSH2 0x14FA JUMPI PUSH1 0x40 MLOAD PUSH3 0x461BCD PUSH1 0xE5 SHL DUP2 MSTORE PUSH1 0x20 PUSH1 0x4 DUP3 ADD MSTORE PUSH1 0x13 PUSH1 0x24 DUP3 ADD MSTORE PUSH19 0x141C9BDD9A5CDA5BDB9CC81C995C5D5A5C9959 PUSH1 0x6A SHL PUSH1 0x44 DUP3 ADD MSTORE PUSH1 0x64 ADD PUSH2 0xC5A JUMP JUMPDEST CALLER PUSH0 SWAP1 DUP2 MSTORE PUSH1 0x5 PUSH1 0x20 MSTORE PUSH1 0x40 SWAP1 KECCAK256 PUSH1 0x4 ADD SLOAD PUSH3 0x10000 SWAP1 DIV PUSH1 0xFF AND PUSH2 0x156C JUMPI PUSH1 0x40 MLOAD PUSH3 0x461BCD PUSH1 0xE5 SHL DUP2 MSTORE PUSH1 0x20 PUSH1 0x4 DUP3 ADD MSTORE PUSH1 0x22 PUSH1 0x24 DUP3 ADD MSTORE PUSH32 0x4F6E6C79206D656D626572732063616E2070726F706F73652070726F706F7361 PUSH1 0x44 DUP3 ADD MSTORE PUSH2 0x6C73 PUSH1 0xF0 SHL PUSH1 0x64 DUP3 ADD MSTORE PUSH1 0x84 ADD PUSH2 0xC5A JUMP JUMPDEST CALLER PUSH0 SWAP1 DUP2 MSTORE PUSH1 0x5 PUSH1 0x20 MSTORE PUSH1 0x40 SWAP1 KECCAK256 PUSH1 0x6 ADD SLOAD PUSH2 0xFFFF AND ISZERO PUSH2 0x15C8 JUMPI PUSH1 0x40 MLOAD PUSH3 0x461BCD PUSH1 0xE5 SHL DUP2 MSTORE PUSH1 0x20 PUSH1 0x4 DUP3 ADD MSTORE PUSH1 0x16 PUSH1 0x24 DUP3 ADD MSTORE PUSH22 0x12185CC8185B881858DD1A5D99481C1C9BDC1BDCD85B PUSH1 0x52 SHL PUSH1 0x44 DUP3 ADD MSTORE PUSH1 0x64 ADD PUSH2 0xC5A JUMP JUMPDEST PUSH1 0xE DUP1 SLOAD CALLER PUSH0 SWAP1 DUP2 MSTORE PUSH1 0x5 PUSH1 0x20 MSTORE PUSH1 0x40 DUP2 KECCAK256 PUSH1 0x6 ADD DUP1 SLOAD PUSH2 0xFFFF NOT AND PUSH1 0xFF DUP5 AND SWAP1 DUP2 OR SWAP1 SWAP2 SSTORE DUP4 SLOAD PUSH1 0x1 ADD DUP1 DUP6 SSTORE DUP5 DUP4 MSTORE SWAP3 SWAP4 SWAP2 SWAP3 DUP2 LT PUSH2 0x160B JUMPI PUSH2 0x160B PUSH2 0x5748 JUMP JUMPDEST PUSH0 SWAP2 DUP3 MSTORE PUSH1 0x20 SWAP1 SWAP2 KECCAK256 PUSH1 0x5 SWAP1 SWAP2 MUL ADD DUP1 SLOAD PUSH1 0x1 PUSH1 0x1 PUSH1 0xA0 SHL SUB NOT AND CALLER OR DUP2 SSTORE SWAP1 POP PUSH1 0x1 DUP2 ADD PUSH2 0x163B DUP8 DUP10 DUP4 PUSH2 0x5800 JUMP JUMPDEST POP PUSH0 JUMPDEST DUP5 DUP2 LT ISZERO PUSH2 0x1699 JUMPI DUP2 PUSH1 0x4 ADD DUP7 DUP7 DUP4 DUP2 DUP2 LT PUSH2 0x165C JUMPI PUSH2 0x165C PUSH2 0x5748 JUMP JUMPDEST SWAP1 POP PUSH1 0x20 MUL DUP2 ADD SWAP1 PUSH2 0x166E SWAP2 SWAP1 PUSH2 0x59E4 JUMP JUMPDEST DUP2 SLOAD PUSH1 0x1 DUP2 ADD DUP4 SSTORE PUSH0 SWAP3 DUP4 MSTORE PUSH1 0x20 SWAP1 SWAP3 KECCAK256 SWAP1 SWAP2 PUSH1 0x3 MUL ADD PUSH2 0x168F DUP3 DUP3 PUSH2 0x5A02 JUMP JUMPDEST POP POP PUSH1 0x1 ADD PUSH2 0x163E JUMP JUMPDEST POP PUSH1 0xE SLOAD PUSH1 0x40 MLOAD CALLER SWAP2 SWAP1 PUSH32 0x6FB266C3BFFBF56760B26BA85968FA3E28F3ED50CEA5C9704FB6E260DAB31F1C SWAP1 PUSH2 0x16D2 SWAP1 DUP12 SWAP1 DUP12 SWAP1 PUSH2 0x5B2A JUMP JUMPDEST PUSH1 0x40 MLOAD DUP1 SWAP2 SUB SWAP1 LOG3 POP POP PUSH1 0xE SLOAD SWAP6 SWAP5 POP POP POP POP POP JUMP JUMPDEST PUSH0 PUSH2 0x1731 PUSH1 0x40 MLOAD DUP1 PUSH2 0x100 ADD PUSH1 0x40 MSTORE DUP1 PUSH1 0x60 DUP2 MSTORE PUSH1 0x20 ADD PUSH1 0x60 DUP2 MSTORE PUSH1 0x20 ADD PUSH1 0x60 DUP2 MSTORE PUSH1 0x20 ADD PUSH1 0x60 DUP2 MSTORE PUSH1 0x20 ADD PUSH0 DUP1 NOT AND DUP2 MSTORE PUSH1 0x20 ADD PUSH1 0x60 DUP2 MSTORE PUSH1 0x20 ADD PUSH0 DUP2 MSTORE PUSH1 0x20 ADD PUSH0 DUP2 MSTORE POP SWAP1 JUMP JUMPDEST PUSH1 0x14 SLOAD ISZERO PUSH2 0x1AA5 JUMPI PUSH1 0x14 SLOAD PUSH1 0x10 PUSH1 0x14 SLOAD DUP2 SLOAD DUP2 LT PUSH2 0x1751 JUMPI PUSH2 0x1751 PUSH2 0x5748 JUMP JUMPDEST SWAP1 PUSH0 MSTORE PUSH1 0x20 PUSH0 KECCAK256 SWAP1 PUSH1 0x8 MUL ADD DUP1 PUSH1 0x40 MLOAD DUP1 PUSH2 0x100 ADD PUSH1 0x40 MSTORE SWAP1 DUP2 PUSH0 DUP3 ADD DUP1 SLOAD PUSH2 0x1779 SWAP1 PUSH2 0x5710 JUMP JUMPDEST DUP1 PUSH1 0x1F ADD PUSH1 0x20 DUP1 SWAP2 DIV MUL PUSH1 0x20 ADD PUSH1 0x40 MLOAD SWAP1 DUP2 ADD PUSH1 0x40 MSTORE DUP1 SWAP3 SWAP2 SWAP1 DUP2 DUP2 MSTORE PUSH1 0x20 ADD DUP3 DUP1 SLOAD PUSH2 0x17A5 SWAP1 PUSH2 0x5710 JUMP JUMPDEST DUP1 ISZERO PUSH2 0x17F0 JUMPI DUP1 PUSH1 0x1F LT PUSH2 0x17C7 JUMPI PUSH2 0x100 DUP1 DUP4 SLOAD DIV MUL DUP4 MSTORE SWAP2 PUSH1 0x20 ADD SWAP2 PUSH2 0x17F0 JUMP JUMPDEST DUP3 ADD SWAP2 SWAP1 PUSH0 MSTORE PUSH1 0x20 PUSH0 KECCAK256 SWAP1 JUMPDEST DUP2 SLOAD DUP2 MSTORE SWAP1 PUSH1 0x1 ADD SWAP1 PUSH1 0x20 ADD DUP1 DUP4 GT PUSH2 0x17D3 JUMPI DUP3 SWAP1 SUB PUSH1 0x1F AND DUP3 ADD SWAP2 JUMPDEST POP POP POP POP POP DUP2 MSTORE PUSH1 0x20 ADD PUSH1 0x1 DUP3 ADD DUP1 SLOAD PUSH2 0x1809 SWAP1 PUSH2 0x5710 JUMP JUMPDEST DUP1 PUSH1 0x1F ADD PUSH1 0x20 DUP1 SWAP2 DIV MUL PUSH1 0x20 ADD PUSH1 0x40 MLOAD SWAP1 DUP2 ADD PUSH1 0x40 MSTORE DUP1 SWAP3 SWAP2 SWAP1 DUP2 DUP2 MSTORE PUSH1 0x20 ADD DUP3 DUP1 SLOAD PUSH2 0x1835 SWAP1 PUSH2 0x5710 JUMP JUMPDEST DUP1 ISZERO PUSH2 0x1880 JUMPI DUP1 PUSH1 0x1F LT PUSH2 0x1857 JUMPI PUSH2 0x100 DUP1 DUP4 SLOAD DIV MUL DUP4 MSTORE SWAP2 PUSH1 0x20 ADD SWAP2 PUSH2 0x1880 JUMP JUMPDEST DUP3 ADD SWAP2 SWAP1 PUSH0 MSTORE PUSH1 0x20 PUSH0 KECCAK256 SWAP1 JUMPDEST DUP2 SLOAD DUP2 MSTORE SWAP1 PUSH1 0x1 ADD SWAP1 PUSH1 0x20 ADD DUP1 DUP4 GT PUSH2 0x1863 JUMPI DUP3 SWAP1 SUB PUSH1 0x1F AND DUP3 ADD SWAP2 JUMPDEST POP POP POP POP POP DUP2 MSTORE PUSH1 0x20 ADD PUSH1 0x2 DUP3 ADD DUP1 SLOAD PUSH2 0x1899 SWAP1 PUSH2 0x5710 JUMP JUMPDEST DUP1 PUSH1 0x1F ADD PUSH1 0x20 DUP1 SWAP2 DIV MUL PUSH1 0x20 ADD PUSH1 0x40 MLOAD SWAP1 DUP2 ADD PUSH1 0x40 MSTORE DUP1 SWAP3 SWAP2 SWAP1 DUP2 DUP2 MSTORE PUSH1 0x20 ADD DUP3 DUP1 SLOAD PUSH2 0x18C5 SWAP1 PUSH2 0x5710 JUMP JUMPDEST DUP1 ISZERO PUSH2 0x1910 JUMPI DUP1 PUSH1 0x1F LT PUSH2 0x18E7 JUMPI PUSH2 0x100 DUP1 DUP4 SLOAD DIV MUL DUP4 MSTORE SWAP2 PUSH1 0x20 ADD SWAP2 PUSH2 0x1910 JUMP JUMPDEST DUP3 ADD SWAP2 SWAP1 PUSH0 MSTORE PUSH1 0x20 PUSH0 KECCAK256 SWAP1 JUMPDEST DUP2 SLOAD DUP2 MSTORE SWAP1 PUSH1 0x1 ADD SWAP1 PUSH1 0x20 ADD DUP1 DUP4 GT PUSH2 0x18F3 JUMPI DUP3 SWAP1 SUB PUSH1 0x1F AND DUP3 ADD SWAP2 JUMPDEST POP POP POP POP POP DUP2 MSTORE PUSH1 0x20 ADD PUSH1 0x3 DUP3 ADD DUP1 SLOAD DUP1 PUSH1 0x20 MUL PUSH1 0x20 ADD PUSH1 0x40 MLOAD SWAP1 DUP2 ADD PUSH1 0x40 MSTORE DUP1 SWAP3 SWAP2 SWAP1 DUP2 DUP2 MSTORE PUSH1 0x20 ADD PUSH0 SWAP1 JUMPDEST DUP3 DUP3 LT ISZERO PUSH2 0x19E5 JUMPI DUP4 DUP3 SWAP1 PUSH0 MSTORE PUSH1 0x20 PUSH0 KECCAK256 ADD DUP1 SLOAD PUSH2 0x195A SWAP1 PUSH2 0x5710 JUMP JUMPDEST DUP1 PUSH1 0x1F ADD PUSH1 0x20 DUP1 SWAP2 DIV MUL PUSH1 0x20 ADD PUSH1 0x40 MLOAD SWAP1 DUP2 ADD PUSH1 0x40 MSTORE DUP1 SWAP3 SWAP2 SWAP1 DUP2 DUP2 MSTORE PUSH1 0x20 ADD DUP3 DUP1 SLOAD PUSH2 0x1986 SWAP1 PUSH2 0x5710 JUMP JUMPDEST DUP1 ISZERO PUSH2 0x19D1 JUMPI DUP1 PUSH1 0x1F LT PUSH2 0x19A8 JUMPI PUSH2 0x100 DUP1 DUP4 SLOAD DIV MUL DUP4 MSTORE SWAP2 PUSH1 0x20 ADD SWAP2 PUSH2 0x19D1 JUMP JUMPDEST DUP3 ADD SWAP2 SWAP1 PUSH0 MSTORE PUSH1 0x20 PUSH0 KECCAK256 SWAP1 JUMPDEST DUP2 SLOAD DUP2 MSTORE SWAP1 PUSH1 0x1 ADD SWAP1 PUSH1 0x20 ADD DUP1 DUP4 GT PUSH2 0x19B4 JUMPI DUP3 SWAP1 SUB PUSH1 0x1F AND DUP3 ADD SWAP2 JUMPDEST POP POP POP POP POP DUP2 MSTORE PUSH1 0x20 ADD SWAP1 PUSH1 0x1 ADD SWAP1 PUSH2 0x193D JUMP JUMPDEST POP POP POP POP DUP2 MSTORE PUSH1 0x20 ADD PUSH1 0x4 DUP3 ADD SLOAD DUP2 MSTORE PUSH1 0x20 ADD PUSH1 0x5 DUP3 ADD DUP1 SLOAD PUSH2 0x1A07 SWAP1 PUSH2 0x5710 JUMP JUMPDEST DUP1 PUSH1 0x1F ADD PUSH1 0x20 DUP1 SWAP2 DIV MUL PUSH1 0x20 ADD PUSH1 0x40 MLOAD SWAP1 DUP2 ADD PUSH1 0x40 MSTORE DUP1 SWAP3 SWAP2 SWAP1 DUP2 DUP2 MSTORE PUSH1 0x20 ADD DUP3 DUP1 SLOAD PUSH2 0x1A33 SWAP1 PUSH2 0x5710 JUMP JUMPDEST DUP1 ISZERO PUSH2 0x1A7E JUMPI DUP1 PUSH1 0x1F LT PUSH2 0x1A55 JUMPI PUSH2 0x100 DUP1 DUP4 SLOAD DIV MUL DUP4 MSTORE SWAP2 PUSH1 0x20 ADD SWAP2 PUSH2 0x1A7E JUMP JUMPDEST DUP3 ADD SWAP2 SWAP1 PUSH0 MSTORE PUSH1 0x20 PUSH0 KECCAK256 SWAP1 JUMPDEST DUP2 SLOAD DUP2 MSTORE SWAP1 PUSH1 0x1 ADD SWAP1 PUSH1 0x20 ADD DUP1 DUP4 GT PUSH2 0x1A61 JUMPI DUP3 SWAP1 SUB PUSH1 0x1F AND DUP3 ADD SWAP2 JUMPDEST POP POP POP POP POP DUP2 MSTORE PUSH1 0x20 ADD PUSH1 0x6 DUP3 ADD SLOAD DUP2 MSTORE PUSH1 0x20 ADD PUSH1 0x7 DUP3 ADD SLOAD DUP2 MSTORE POP POP SWAP1 POP SWAP2 POP SWAP2 POP SWAP1 SWAP2 JUMP JUMPDEST PUSH0 PUSH1 0x2 SLOAD GT DUP1 ISZERO PUSH2 0x1AB7 JUMPI POP TIMESTAMP PUSH1 0x2 SLOAD LT JUMPDEST PUSH2 0x1AFB JUMPI PUSH1 0x40 MLOAD PUSH3 0x461BCD PUSH1 0xE5 SHL DUP2 MSTORE PUSH1 0x20 PUSH1 0x4 DUP3 ADD MSTORE PUSH1 0x15 PUSH1 0x24 DUP3 ADD MSTORE PUSH21 0x43616C6C206166746572205265666572656E64756D PUSH1 0x58 SHL PUSH1 0x44 DUP3 ADD MSTORE PUSH1 0x64 ADD PUSH2 0xC5A JUMP JUMPDEST PUSH0 DUP1 DUP1 JUMPDEST PUSH1 0x10 SLOAD DUP2 LT ISZERO PUSH2 0x1B64 JUMPI DUP2 PUSH1 0x10 DUP3 DUP2 SLOAD DUP2 LT PUSH2 0x1B1D JUMPI PUSH2 0x1B1D PUSH2 0x5748 JUMP JUMPDEST SWAP1 PUSH0 MSTORE PUSH1 0x20 PUSH0 KECCAK256 SWAP1 PUSH1 0x8 MUL ADD PUSH1 0x7 ADD SLOAD GT ISZERO PUSH2 0x1B5C JUMPI PUSH1 0x10 DUP2 DUP2 SLOAD DUP2 LT PUSH2 0x1B46 JUMPI PUSH2 0x1B46 PUSH2 0x5748 JUMP JUMPDEST SWAP1 PUSH0 MSTORE PUSH1 0x20 PUSH0 KECCAK256 SWAP1 PUSH1 0x8 MUL ADD PUSH1 0x7 ADD SLOAD SWAP2 POP DUP1 SWAP3 POP JUMPDEST PUSH1 0x1 ADD PUSH2 0x1AFF JUMP JUMPDEST POP DUP2 PUSH1 0x14 DUP2 SWAP1 SSTORE POP PUSH0 PUSH1 0x10 DUP4 DUP2 SLOAD DUP2 LT PUSH2 0x1B80 JUMPI PUSH2 0x1B80 PUSH2 0x5748 JUMP JUMPDEST SWAP1 PUSH0 MSTORE PUSH1 0x20 PUSH0 KECCAK256 SWAP1 PUSH1 0x8 MUL ADD PUSH1 0x40 MLOAD DUP1 PUSH2 0x100 ADD PUSH1 0x40 MSTORE SWAP1 DUP2 PUSH0 DUP3 ADD DUP1 SLOAD PUSH2 0x1BA7 SWAP1 PUSH2 0x5710 JUMP JUMPDEST DUP1 PUSH1 0x1F ADD PUSH1 0x20 DUP1 SWAP2 DIV MUL PUSH1 0x20 ADD PUSH1 0x40 MLOAD SWAP1 DUP2 ADD PUSH1 0x40 MSTORE DUP1 SWAP3 SWAP2 SWAP1 DUP2 DUP2 MSTORE PUSH1 0x20 ADD DUP3 DUP1 SLOAD PUSH2 0x1BD3 SWAP1 PUSH2 0x5710 JUMP JUMPDEST DUP1 ISZERO PUSH2 0x1C1E JUMPI DUP1 PUSH1 0x1F LT PUSH2 0x1BF5 JUMPI PUSH2 0x100 DUP1 DUP4 SLOAD DIV MUL DUP4 MSTORE SWAP2 PUSH1 0x20 ADD SWAP2 PUSH2 0x1C1E JUMP JUMPDEST DUP3 ADD SWAP2 SWAP1 PUSH0 MSTORE PUSH1 0x20 PUSH0 KECCAK256 SWAP1 JUMPDEST DUP2 SLOAD DUP2 MSTORE SWAP1 PUSH1 0x1 ADD SWAP1 PUSH1 0x20 ADD DUP1 DUP4 GT PUSH2 0x1C01 JUMPI DUP3 SWAP1 SUB PUSH1 0x1F AND DUP3 ADD SWAP2 JUMPDEST POP POP POP POP POP DUP2 MSTORE PUSH1 0x20 ADD PUSH1 0x1 DUP3 ADD DUP1 SLOAD PUSH2 0x1C37 SWAP1 PUSH2 0x5710 JUMP JUMPDEST DUP1 PUSH1 0x1F ADD PUSH1 0x20 DUP1 SWAP2 DIV MUL PUSH1 0x20 ADD PUSH1 0x40 MLOAD SWAP1 DUP2 ADD PUSH1 0x40 MSTORE DUP1 SWAP3 SWAP2 SWAP1 DUP2 DUP2 MSTORE PUSH1 0x20 ADD DUP3 DUP1 SLOAD PUSH2 0x1C63 SWAP1 PUSH2 0x5710 JUMP JUMPDEST DUP1 ISZERO PUSH2 0x1CAE JUMPI DUP1 PUSH1 0x1F LT PUSH2 0x1C85 JUMPI PUSH2 0x100 DUP1 DUP4 SLOAD DIV MUL DUP4 MSTORE SWAP2 PUSH1 0x20 ADD SWAP2 PUSH2 0x1CAE JUMP JUMPDEST DUP3 ADD SWAP2 SWAP1 PUSH0 MSTORE PUSH1 0x20 PUSH0 KECCAK256 SWAP1 JUMPDEST DUP2 SLOAD DUP2 MSTORE SWAP1 PUSH1 0x1 ADD SWAP1 PUSH1 0x20 ADD DUP1 DUP4 GT PUSH2 0x1C91 JUMPI DUP3 SWAP1 SUB PUSH1 0x1F AND DUP3 ADD SWAP2 JUMPDEST POP POP POP POP POP DUP2 MSTORE PUSH1 0x20 ADD PUSH1 0x2 DUP3 ADD DUP1 SLOAD PUSH2 0x1CC7 SWAP1 PUSH2 0x5710 JUMP JUMPDEST DUP1 PUSH1 0x1F ADD PUSH1 0x20 DUP1 SWAP2 DIV MUL PUSH1 0x20 ADD PUSH1 0x40 MLOAD SWAP1 DUP2 ADD PUSH1 0x40 MSTORE DUP1 SWAP3 SWAP2 SWAP1 DUP2 DUP2 MSTORE PUSH1 0x20 ADD DUP3 DUP1 SLOAD PUSH2 0x1CF3 SWAP1 PUSH2 0x5710 JUMP JUMPDEST DUP1 ISZERO PUSH2 0x1D3E JUMPI DUP1 PUSH1 0x1F LT PUSH2 0x1D15 JUMPI PUSH2 0x100 DUP1 DUP4 SLOAD DIV MUL DUP4 MSTORE SWAP2 PUSH1 0x20 ADD SWAP2 PUSH2 0x1D3E JUMP JUMPDEST DUP3 ADD SWAP2 SWAP1 PUSH0 MSTORE PUSH1 0x20 PUSH0 KECCAK256 SWAP1 JUMPDEST DUP2 SLOAD DUP2 MSTORE SWAP1 PUSH1 0x1 ADD SWAP1 PUSH1 0x20 ADD DUP1 DUP4 GT PUSH2 0x1D21 JUMPI DUP3 SWAP1 SUB PUSH1 0x1F AND DUP3 ADD SWAP2 JUMPDEST POP POP POP POP POP DUP2 MSTORE PUSH1 0x20 ADD PUSH1 0x3 DUP3 ADD DUP1 SLOAD DUP1 PUSH1 0x20 MUL PUSH1 0x20 ADD PUSH1 0x40 MLOAD SWAP1 DUP2 ADD PUSH1 0x40 MSTORE DUP1 SWAP3 SWAP2 SWAP1 DUP2 DUP2 MSTORE PUSH1 0x20 ADD PUSH0 SWAP1 JUMPDEST DUP3 DUP3 LT ISZERO PUSH2 0x1E13 JUMPI DUP4 DUP3 SWAP1 PUSH0 MSTORE PUSH1 0x20 PUSH0 KECCAK256 ADD DUP1 SLOAD PUSH2 0x1D88 SWAP1 PUSH2 0x5710 JUMP JUMPDEST DUP1 PUSH1 0x1F ADD PUSH1 0x20 DUP1 SWAP2 DIV MUL PUSH1 0x20 ADD PUSH1 0x40 MLOAD SWAP1 DUP2 ADD PUSH1 0x40 MSTORE DUP1 SWAP3 SWAP2 SWAP1 DUP2 DUP2 MSTORE PUSH1 0x20 ADD DUP3 DUP1 SLOAD PUSH2 0x1DB4 SWAP1 PUSH2 0x5710 JUMP JUMPDEST DUP1 ISZERO PUSH2 0x1DFF JUMPI DUP1 PUSH1 0x1F LT PUSH2 0x1DD6 JUMPI PUSH2 0x100 DUP1 DUP4 SLOAD DIV MUL DUP4 MSTORE SWAP2 PUSH1 0x20 ADD SWAP2 PUSH2 0x1DFF JUMP JUMPDEST DUP3 ADD SWAP2 SWAP1 PUSH0 MSTORE PUSH1 0x20 PUSH0 KECCAK256 SWAP1 JUMPDEST DUP2 SLOAD DUP2 MSTORE SWAP1 PUSH1 0x1 ADD SWAP1 PUSH1 0x20 ADD DUP1 DUP4 GT PUSH2 0x1DE2 JUMPI DUP3 SWAP1 SUB PUSH1 0x1F AND DUP3 ADD SWAP2 JUMPDEST POP POP POP POP POP DUP2 MSTORE PUSH1 0x20 ADD SWAP1 PUSH1 0x1 ADD SWAP1 PUSH2 0x1D6B JUMP JUMPDEST POP POP POP POP DUP2 MSTORE PUSH1 0x20 ADD PUSH1 0x4 DUP3 ADD SLOAD DUP2 MSTORE PUSH1 0x20 ADD PUSH1 0x5 DUP3 ADD DUP1 SLOAD PUSH2 0x1E35 SWAP1 PUSH2 0x5710 JUMP JUMPDEST DUP1 PUSH1 0x1F ADD PUSH1 0x20 DUP1 SWAP2 DIV MUL PUSH1 0x20 ADD PUSH1 0x40 MLOAD SWAP1 DUP2 ADD PUSH1 0x40 MSTORE DUP1 SWAP3 SWAP2 SWAP1 DUP2 DUP2 MSTORE PUSH1 0x20 ADD DUP3 DUP1 SLOAD PUSH2 0x1E61 SWAP1 PUSH2 0x5710 JUMP JUMPDEST DUP1 ISZERO PUSH2 0x1EAC JUMPI DUP1 PUSH1 0x1F LT PUSH2 0x1E83 JUMPI PUSH2 0x100 DUP1 DUP4 SLOAD DIV MUL DUP4 MSTORE SWAP2 PUSH1 0x20 ADD SWAP2 PUSH2 0x1EAC JUMP JUMPDEST DUP3 ADD SWAP2 SWAP1 PUSH0 MSTORE PUSH1 0x20 PUSH0 KECCAK256 SWAP1 JUMPDEST DUP2 SLOAD DUP2 MSTORE SWAP1 PUSH1 0x1 ADD SWAP1 PUSH1 0x20 ADD DUP1 DUP4 GT PUSH2 0x1E8F JUMPI DUP3 SWAP1 SUB PUSH1 0x1F AND DUP3 ADD SWAP2 JUMPDEST POP POP POP POP POP DUP2 MSTORE PUSH1 0x20 ADD PUSH1 0x6 DUP3 ADD SLOAD DUP2 MSTORE PUSH1 0x20 ADD PUSH1 0x7 DUP3 ADD SLOAD DUP2 MSTORE POP POP SWAP1 POP DUP3 PUSH32 0x2F46F361090DF30BBDB7F29D5979456B44F5D7E8BAD93955AE0CE3EC4B1D2894 DUP3 PUSH1 0x40 MLOAD PUSH2 0x1EFB SWAP2 SWAP1 PUSH2 0x5B3D JUMP JUMPDEST PUSH1 0x40 MLOAD DUP1 SWAP2 SUB SWAP1 LOG2 SWAP2 SWAP5 SWAP2 SWAP4 POP SWAP1 SWAP2 POP POP JUMP JUMPDEST PUSH1 0x6 DUP2 PUSH1 0x3 DUP2 LT PUSH2 0x1F1D JUMPI PUSH0 DUP1 REVERT JUMPDEST ADD SLOAD PUSH1 0x1 PUSH1 0x1 PUSH1 0xA0 SHL SUB AND SWAP1 POP DUP2 JUMP JUMPDEST CALLER PUSH0 SWAP1 DUP2 MSTORE PUSH1 0x16 PUSH1 0x20 MSTORE PUSH1 0x40 SWAP1 KECCAK256 SLOAD PUSH1 0xA SGT ISZERO PUSH2 0x1F82 JUMPI PUSH1 0x40 MLOAD PUSH3 0x461BCD PUSH1 0xE5 SHL DUP2 MSTORE PUSH1 0x20 PUSH1 0x4 DUP3 ADD MSTORE PUSH1 0x13 PUSH1 0x24 DUP3 ADD MSTORE PUSH19 0x139BDD08195B9BDD59DA08185C1C1C9BDD985B PUSH1 0x6A SHL PUSH1 0x44 DUP3 ADD MSTORE PUSH1 0x64 ADD PUSH2 0xC5A JUMP JUMPDEST PUSH1 0x3 PUSH2 0x1F8C PUSH2 0x27E7 JUMP JUMPDEST PUSH1 0x5 DUP2 GT ISZERO PUSH2 0x1F9D JUMPI PUSH2 0x1F9D PUSH2 0x5262 JUMP JUMPDEST EQ PUSH2 0x1FD8 JUMPI PUSH1 0x40 MLOAD PUSH3 0x461BCD PUSH1 0xE5 SHL DUP2 MSTORE PUSH1 0x20 PUSH1 0x4 DUP3 ADD MSTORE PUSH1 0xB PUSH1 0x24 DUP3 ADD MSTORE PUSH11 0x57726F6E67207068617365 PUSH1 0xA8 SHL PUSH1 0x44 DUP3 ADD MSTORE PUSH1 0x64 ADD PUSH2 0xC5A JUMP JUMPDEST PUSH0 JUMPDEST PUSH1 0xA PUSH1 0xFF DUP3 AND LT ISZERO PUSH2 0x21F3 JUMPI PUSH0 PUSH1 0x11 DUP2 DUP5 PUSH1 0xFF DUP6 AND PUSH1 0xA DUP2 LT PUSH2 0x1FFF JUMPI PUSH2 0x1FFF PUSH2 0x5748 JUMP JUMPDEST PUSH1 0x20 MUL ADD CALLDATALOAD DUP2 MSTORE PUSH1 0x20 ADD SWAP1 DUP2 MSTORE PUSH1 0x20 ADD PUSH0 KECCAK256 PUSH0 PUSH1 0x2 DUP2 LT PUSH2 0x2022 JUMPI PUSH2 0x2022 PUSH2 0x5748 JUMP JUMPDEST ADD SLOAD PUSH1 0x1 PUSH1 0x1 PUSH1 0xA0 SHL SUB AND SUB PUSH2 0x2092 JUMPI CALLER PUSH1 0x11 PUSH0 DUP5 DUP5 PUSH1 0xFF AND PUSH1 0xA DUP2 LT PUSH2 0x204B JUMPI PUSH2 0x204B PUSH2 0x5748 JUMP JUMPDEST PUSH1 0x20 MUL ADD CALLDATALOAD DUP2 MSTORE PUSH1 0x20 ADD SWAP1 DUP2 MSTORE PUSH1 0x20 ADD PUSH0 KECCAK256 PUSH0 PUSH1 0x2 DUP2 LT PUSH2 0x206E JUMPI PUSH2 0x206E PUSH2 0x5748 JUMP JUMPDEST ADD DUP1 SLOAD PUSH1 0x1 PUSH1 0x1 PUSH1 0xA0 SHL SUB NOT AND PUSH1 0x1 PUSH1 0x1 PUSH1 0xA0 SHL SUB SWAP3 SWAP1 SWAP3 AND SWAP2 SWAP1 SWAP2 OR SWAP1 SSTORE PUSH2 0x21E1 JUMP JUMPDEST PUSH0 PUSH1 0x11 DUP2 DUP5 PUSH1 0xFF DUP6 AND PUSH1 0xA DUP2 LT PUSH2 0x20AB JUMPI PUSH2 0x20AB PUSH2 0x5748 JUMP JUMPDEST PUSH1 0x20 MUL ADD CALLDATALOAD DUP2 MSTORE PUSH1 0x20 ADD SWAP1 DUP2 MSTORE PUSH1 0x20 ADD PUSH0 KECCAK256 PUSH1 0x1 PUSH1 0x2 DUP2 LT PUSH2 0x20CF JUMPI PUSH2 0x20CF PUSH2 0x5748 JUMP JUMPDEST ADD SLOAD PUSH1 0x1 PUSH1 0x1 PUSH1 0xA0 SHL SUB AND SUB PUSH2 0x21A1 JUMPI CALLER PUSH1 0x11 PUSH0 DUP5 PUSH1 0xFF DUP6 AND PUSH1 0xA DUP2 LT PUSH2 0x20F8 JUMPI PUSH2 0x20F8 PUSH2 0x5748 JUMP JUMPDEST PUSH1 0x20 MUL ADD CALLDATALOAD DUP2 MSTORE PUSH1 0x20 ADD SWAP1 DUP2 MSTORE PUSH1 0x20 ADD PUSH0 KECCAK256 PUSH0 PUSH1 0x2 DUP2 LT PUSH2 0x211B JUMPI PUSH2 0x211B PUSH2 0x5748 JUMP JUMPDEST ADD SLOAD PUSH1 0x1 PUSH1 0x1 PUSH1 0xA0 SHL SUB AND SUB PUSH2 0x2164 JUMPI PUSH1 0x40 MLOAD PUSH3 0x461BCD PUSH1 0xE5 SHL DUP2 MSTORE PUSH1 0x20 PUSH1 0x4 DUP3 ADD MSTORE PUSH1 0xE PUSH1 0x24 DUP3 ADD MSTORE PUSH14 0x29B0B6B2902932B3B4B9BA3930B9 PUSH1 0x91 SHL PUSH1 0x44 DUP3 ADD MSTORE PUSH1 0x64 ADD PUSH2 0xC5A JUMP JUMPDEST CALLER PUSH1 0x11 PUSH0 DUP5 DUP5 PUSH1 0xFF AND PUSH1 0xA DUP2 LT PUSH2 0x217D JUMPI PUSH2 0x217D PUSH2 0x5748 JUMP JUMPDEST PUSH1 0x20 MUL ADD CALLDATALOAD DUP2 MSTORE PUSH1 0x20 ADD SWAP1 DUP2 MSTORE PUSH1 0x20 ADD PUSH0 KECCAK256 PUSH1 0x1 PUSH1 0x2 DUP2 LT PUSH2 0x206E JUMPI PUSH2 0x206E PUSH2 0x5748 JUMP JUMPDEST PUSH1 0x40 MLOAD PUSH3 0x461BCD PUSH1 0xE5 SHL DUP2 MSTORE PUSH1 0x20 PUSH1 0x4 DUP3 ADD MSTORE PUSH1 0x15 PUSH1 0x24 DUP3 ADD MSTORE PUSH21 0x12185CDA08185B1C9958591E481C9958DBDC991959 PUSH1 0x5A SHL PUSH1 0x44 DUP3 ADD MSTORE PUSH1 0x64 ADD PUSH2 0xC5A JUMP JUMPDEST DUP1 PUSH2 0x21EB DUP2 PUSH2 0x5770 JUMP JUMPDEST SWAP2 POP POP PUSH2 0x1FDA JUMP JUMPDEST POP PUSH0 JUMPDEST PUSH1 0xA PUSH1 0xFF DUP3 AND LT ISZERO PUSH2 0x2391 JUMPI PUSH0 DUP4 PUSH1 0xFF DUP4 AND PUSH1 0xA DUP2 LT PUSH2 0x2218 JUMPI PUSH2 0x2218 PUSH2 0x5748 JUMP JUMPDEST PUSH1 0x20 MUL ADD PUSH1 0x20 DUP2 ADD SWAP1 PUSH2 0x222B SWAP2 SWAP1 PUSH2 0x4E81 JUMP JUMPDEST PUSH1 0x1 PUSH1 0x1 PUSH1 0xA0 SHL SUB AND SUB PUSH2 0x2279 JUMPI PUSH1 0x40 MLOAD PUSH3 0x461BCD PUSH1 0xE5 SHL DUP2 MSTORE PUSH1 0x20 PUSH1 0x4 DUP3 ADD MSTORE PUSH1 0x15 PUSH1 0x24 DUP3 ADD MSTORE PUSH21 0x496E76616C696420766F7465722061646472657373 PUSH1 0x58 SHL PUSH1 0x44 DUP3 ADD MSTORE PUSH1 0x64 ADD PUSH2 0xC5A JUMP JUMPDEST PUSH1 0x2 PUSH1 0x12 PUSH0 DUP6 DUP5 PUSH1 0xFF AND PUSH1 0xA DUP2 LT PUSH2 0x2293 JUMPI PUSH2 0x2293 PUSH2 0x5748 JUMP JUMPDEST PUSH1 0x20 MUL ADD PUSH1 0x20 DUP2 ADD SWAP1 PUSH2 0x22A6 SWAP2 SWAP1 PUSH2 0x4E81 JUMP JUMPDEST PUSH1 0x1 PUSH1 0x1 PUSH1 0xA0 SHL SUB AND PUSH1 0x1 PUSH1 0x1 PUSH1 0xA0 SHL SUB AND DUP2 MSTORE PUSH1 0x20 ADD SWAP1 DUP2 MSTORE PUSH1 0x20 ADD PUSH0 KECCAK256 SLOAD LT PUSH2 0x2328 JUMPI PUSH1 0x40 MLOAD PUSH3 0x461BCD PUSH1 0xE5 SHL DUP2 MSTORE PUSH1 0x20 PUSH1 0x4 DUP3 ADD MSTORE PUSH1 0x2C PUSH1 0x24 DUP3 ADD MSTORE PUSH32 0x4164647265737320616C72656164792072656769737465726564212052454749 PUSH1 0x44 DUP3 ADD MSTORE PUSH12 0x5354524152204552524F5221 PUSH1 0xA0 SHL PUSH1 0x64 DUP3 ADD MSTORE PUSH1 0x84 ADD PUSH2 0xC5A JUMP JUMPDEST PUSH1 0x12 PUSH0 DUP5 DUP4 PUSH1 0xFF AND PUSH1 0xA DUP2 LT PUSH2 0x2340 JUMPI PUSH2 0x2340 PUSH2 0x5748 JUMP JUMPDEST PUSH1 0x20 MUL ADD PUSH1 0x20 DUP2 ADD SWAP1 PUSH2 0x2353 SWAP2 SWAP1 PUSH2 0x4E81 JUMP JUMPDEST PUSH1 0x1 PUSH1 0x1 PUSH1 0xA0 SHL SUB AND DUP2 MSTORE PUSH1 0x20 DUP2 ADD SWAP2 SWAP1 SWAP2 MSTORE PUSH1 0x40 ADD PUSH0 SWAP1 DUP2 KECCAK256 DUP1 SLOAD SWAP2 PUSH2 0x2379 DUP4 PUSH2 0x5997 JUMP JUMPDEST SWAP2 SWAP1 POP SSTORE POP DUP1 DUP1 PUSH2 0x2389 SWAP1 PUSH2 0x5770 JUMP JUMPDEST SWAP2 POP POP PUSH2 0x21F6 JUMP JUMPDEST POP PUSH1 0x13 DUP1 SLOAD PUSH1 0xA SWAP2 SWAP1 PUSH0 SWAP1 PUSH2 0x23AD SWAP1 DUP5 SWAP1 PUSH4 0xFFFFFFFF AND PUSH2 0x5B4F JUMP JUMPDEST SWAP3 POP PUSH2 0x100 EXP DUP2 SLOAD DUP2 PUSH4 0xFFFFFFFF MUL NOT AND SWAP1 DUP4 PUSH4 0xFFFFFFFF AND MUL OR SWAP1 SSTORE POP DUP2 PUSH1 0x40 MLOAD PUSH2 0x23D9 SWAP2 SWAP1 PUSH2 0x5B6B JUMP JUMPDEST PUSH1 0x40 DUP1 MLOAD SWAP2 DUP3 SWAP1 SUB DUP3 KECCAK256 PUSH1 0x13 SLOAD CALLER DUP5 MSTORE PUSH4 0xFFFFFFFF AND PUSH1 0x20 DUP5 ADD MSTORE SWAP2 PUSH32 0x2BA0AAA9C0E5919BF5CB9FDE7B2825194F9DC6E9AB2A9174C59892A1585C446A SWAP2 ADD PUSH1 0x40 MLOAD DUP1 SWAP2 SUB SWAP1 LOG2 POP POP JUMP JUMPDEST PUSH1 0x1A PUSH1 0x20 MSTORE DUP2 PUSH0 MSTORE PUSH1 0x40 PUSH0 KECCAK256 DUP2 DUP2 SLOAD DUP2 LT PUSH2 0x243D JUMPI PUSH0 DUP1 REVERT JUMPDEST PUSH0 SWAP2 DUP3 MSTORE PUSH1 0x20 SWAP1 SWAP2 KECCAK256 PUSH1 0x2 SWAP1 SWAP2 MUL ADD DUP1 SLOAD PUSH1 0x1 SWAP1 SWAP2 ADD SLOAD SWAP1 SWAP3 POP SWAP1 POP DUP3 JUMP JUMPDEST PUSH2 0x24B4 PUSH1 0x40 MLOAD DUP1 PUSH2 0x120 ADD PUSH1 0x40 MSTORE DUP1 PUSH1 0x60 DUP2 MSTORE PUSH1 0x20 ADD PUSH1 0x60 DUP2 MSTORE PUSH1 0x20 ADD PUSH1 0x60 DUP2 MSTORE PUSH1 0x20 ADD PUSH0 DUP2 MSTORE PUSH1 0x20 ADD PUSH0 PUSH2 0xFFFF AND DUP2 MSTORE PUSH1 0x20 ADD PUSH0 PUSH1 0xFF AND DUP2 MSTORE PUSH1 0x20 ADD PUSH0 DUP2 MSTORE PUSH1 0x20 ADD PUSH0 PUSH2 0xFFFF AND DUP2 MSTORE PUSH1 0x20 ADD PUSH0 PUSH2 0xFFFF AND DUP2 MSTORE POP SWAP1 JUMP JUMPDEST PUSH1 0x4 SLOAD DUP3 LT PUSH2 0x24FC JUMPI PUSH1 0x40 MLOAD PUSH3 0x461BCD PUSH1 0xE5 SHL DUP2 MSTORE PUSH1 0x20 PUSH1 0x4 DUP3 ADD MSTORE PUSH1 0x14 PUSH1 0x24 DUP3 ADD MSTORE PUSH20 0x125B9D985B1A590810D85B991A59185D19481251 PUSH1 0x62 SHL PUSH1 0x44 DUP3 ADD MSTORE PUSH1 0x64 ADD PUSH2 0xC5A JUMP JUMPDEST PUSH1 0x5 PUSH0 PUSH1 0x4 DUP5 DUP2 SLOAD DUP2 LT PUSH2 0x2512 JUMPI PUSH2 0x2512 PUSH2 0x5748 JUMP JUMPDEST PUSH0 SWAP2 DUP3 MSTORE PUSH1 0x20 DUP1 DUP4 KECCAK256 SWAP1 SWAP2 ADD SLOAD PUSH1 0x1 PUSH1 0x1 PUSH1 0xA0 SHL SUB AND DUP4 MSTORE DUP3 ADD SWAP3 SWAP1 SWAP3 MSTORE PUSH1 0x40 SWAP1 DUP2 ADD SWAP1 SWAP2 KECCAK256 DUP2 MLOAD PUSH2 0x120 DUP2 ADD SWAP1 SWAP3 MSTORE DUP1 SLOAD DUP3 SWAP1 DUP3 SWAP1 PUSH2 0x2551 SWAP1 PUSH2 0x5710 JUMP JUMPDEST DUP1 PUSH1 0x1F ADD PUSH1 0x20 DUP1 SWAP2 DIV MUL PUSH1 0x20 ADD PUSH1 0x40 MLOAD SWAP1 DUP2 ADD PUSH1 0x40 MSTORE DUP1 SWAP3 SWAP2 SWAP1 DUP2 DUP2 MSTORE PUSH1 0x20 ADD DUP3 DUP1 SLOAD PUSH2 0x257D SWAP1 PUSH2 0x5710 JUMP JUMPDEST DUP1 ISZERO PUSH2 0x25C8 JUMPI DUP1 PUSH1 0x1F LT PUSH2 0x259F JUMPI PUSH2 0x100 DUP1 DUP4 SLOAD DIV MUL DUP4 MSTORE SWAP2 PUSH1 0x20 ADD SWAP2 PUSH2 0x25C8 JUMP JUMPDEST DUP3 ADD SWAP2 SWAP1 PUSH0 MSTORE PUSH1 0x20 PUSH0 KECCAK256 SWAP1 JUMPDEST DUP2 SLOAD DUP2 MSTORE SWAP1 PUSH1 0x1 ADD SWAP1 PUSH1 0x20 ADD DUP1 DUP4 GT PUSH2 0x25AB JUMPI DUP3 SWAP1 SUB PUSH1 0x1F AND DUP3 ADD SWAP2 JUMPDEST POP POP POP POP POP DUP2 MSTORE PUSH1 0x20 ADD PUSH1 0x1 DUP3 ADD DUP1 SLOAD PUSH2 0x25E1 SWAP1 PUSH2 0x5710 JUMP JUMPDEST DUP1 PUSH1 0x1F ADD PUSH1 0x20 DUP1 SWAP2 DIV MUL PUSH1 0x20 ADD PUSH1 0x40 MLOAD SWAP1 DUP2 ADD PUSH1 0x40 MSTORE DUP1 SWAP3 SWAP2 SWAP1 DUP2 DUP2 MSTORE PUSH1 0x20 ADD DUP3 DUP1 SLOAD PUSH2 0x260D SWAP1 PUSH2 0x5710 JUMP JUMPDEST DUP1 ISZERO PUSH2 0x2658 JUMPI DUP1 PUSH1 0x1F LT PUSH2 0x262F JUMPI PUSH2 0x100 DUP1 DUP4 SLOAD DIV MUL DUP4 MSTORE SWAP2 PUSH1 0x20 ADD SWAP2 PUSH2 0x2658 JUMP JUMPDEST DUP3 ADD SWAP2 SWAP1 PUSH0 MSTORE PUSH1 0x20 PUSH0 KECCAK256 SWAP1 JUMPDEST DUP2 SLOAD DUP2 MSTORE SWAP1 PUSH1 0x1 ADD SWAP1 PUSH1 0x20 ADD DUP1 DUP4 GT PUSH2 0x263B JUMPI DUP3 SWAP1 SUB PUSH1 0x1F AND DUP3 ADD SWAP2 JUMPDEST POP POP POP POP POP DUP2 MSTORE PUSH1 0x20 ADD PUSH1 0x2 DUP3 ADD DUP1 SLOAD PUSH2 0x2671 SWAP1 PUSH2 0x5710 JUMP JUMPDEST DUP1 PUSH1 0x1F ADD PUSH1 0x20 DUP1 SWAP2 DIV MUL PUSH1 0x20 ADD PUSH1 0x40 MLOAD SWAP1 DUP2 ADD PUSH1 0x40 MSTORE DUP1 SWAP3 SWAP2 SWAP1 DUP2 DUP2 MSTORE PUSH1 0x20 ADD DUP3 DUP1 SLOAD PUSH2 0x269D SWAP1 PUSH2 0x5710 JUMP JUMPDEST DUP1 ISZERO PUSH2 0x26E8 JUMPI DUP1 PUSH1 0x1F LT PUSH2 0x26BF JUMPI PUSH2 0x100 DUP1 DUP4 SLOAD DIV MUL DUP4 MSTORE SWAP2 PUSH1 0x20 ADD SWAP2 PUSH2 0x26E8 JUMP JUMPDEST DUP3 ADD SWAP2 SWAP1 PUSH0 MSTORE PUSH1 0x20 PUSH0 KECCAK256 SWAP1 JUMPDEST DUP2 SLOAD DUP2 MSTORE SWAP1 PUSH1 0x1 ADD SWAP1 PUSH1 0x20 ADD DUP1 DUP4 GT PUSH2 0x26CB JUMPI DUP3 SWAP1 SUB PUSH1 0x1F AND DUP3 ADD SWAP2 JUMPDEST POP POP POP SWAP2 DUP4 MSTORE POP POP PUSH1 0x3 DUP3 ADD SLOAD PUSH1 0x20 DUP3 ADD MSTORE PUSH1 0x4 DUP3 ADD SLOAD PUSH2 0xFFFF DUP1 DUP3 AND PUSH1 0x40 DUP5 ADD MSTORE PUSH1 0xFF PUSH3 0x10000 SWAP3 DUP4 SWAP1 DIV AND PUSH1 0x60 DUP5 ADD MSTORE PUSH1 0x5 DUP5 ADD SLOAD PUSH1 0x80 DUP5 ADD MSTORE PUSH1 0x6 SWAP1 SWAP4 ADD SLOAD DUP1 DUP5 AND PUSH1 0xA0 DUP5 ADD MSTORE DIV SWAP1 SWAP2 AND PUSH1 0xC0 SWAP1 SWAP2 ADD MSTORE SWAP3 SWAP2 POP POP JUMP JUMPDEST PUSH1 0x40 DUP1 MLOAD DUP1 DUP3 ADD DUP3 MSTORE CALLVALUE DUP1 DUP3 MSTORE TIMESTAMP PUSH1 0x20 DUP1 DUP5 ADD SWAP2 DUP3 MSTORE CALLER PUSH0 DUP2 DUP2 MSTORE PUSH1 0x1A DUP4 MSTORE DUP7 DUP2 KECCAK256 DUP1 SLOAD PUSH1 0x1 DUP1 DUP3 ADD DUP4 SSTORE SWAP2 DUP4 MSTORE SWAP2 DUP5 SWAP1 KECCAK256 DUP8 MLOAD PUSH1 0x2 SWAP1 SWAP4 MUL ADD SWAP2 DUP3 SSTORE SWAP4 MLOAD SWAP4 ADD SWAP3 SWAP1 SWAP3 SSTORE SWAP4 MLOAD SWAP2 DUP3 MSTORE SWAP2 SWAP3 PUSH32 0x976BE468429698A1B0AE0C20A0329BDB6E24722A3F834A2C54B84D63C1722F32 SWAP2 ADD PUSH1 0x40 MLOAD DUP1 SWAP2 SUB SWAP1 LOG2 POP JUMP JUMPDEST PUSH1 0x1B DUP2 PUSH1 0x32 DUP2 LT PUSH2 0x27CB JUMPI PUSH0 DUP1 REVERT JUMPDEST PUSH1 0x2 MUL ADD DUP1 SLOAD PUSH1 0x1 SWAP1 SWAP2 ADD SLOAD PUSH1 0x1 PUSH1 0x1 PUSH1 0xA0 SHL SUB SWAP1 SWAP2 AND SWAP2 POP DUP3 JUMP JUMPDEST PUSH0 DUP1 SLOAD TIMESTAMP LT ISZERO PUSH2 0x27F6 JUMPI POP PUSH0 SWAP1 JUMP JUMPDEST PUSH2 0x2802 PUSH1 0x32 PUSH1 0x2 PUSH2 0x5BB2 JUMP JUMPDEST PUSH1 0xFF AND PUSH1 0x4 DUP1 SLOAD SWAP1 POP LT DUP1 PUSH2 0x2820 JUMPI POP PUSH1 0x3 SLOAD PUSH2 0x4B0 PUSH2 0xFFFF SWAP1 SWAP2 AND LT JUMPDEST ISZERO PUSH2 0x282D JUMPI POP PUSH0 DUP1 DUP1 SSTORE SWAP1 JUMP JUMPDEST PUSH0 SLOAD PUSH0 SUB PUSH2 0x285F JUMPI TIMESTAMP PUSH0 DUP2 SWAP1 SSTORE PUSH2 0x2848 SWAP1 PUSH3 0x127500 SWAP1 PUSH2 0x5BD5 JUMP JUMPDEST PUSH2 0x2855 SWAP1 PUSH3 0x15180 PUSH2 0x5BD5 JUMP JUMPDEST PUSH1 0x1 SWAP1 DUP2 SSTORE SWAP2 SWAP1 POP JUMP JUMPDEST PUSH1 0x1 DUP1 SLOAD PUSH2 0x286D SWAP2 SWAP1 PUSH2 0x578E JUMP JUMPDEST TIMESTAMP LT ISZERO PUSH2 0x287A JUMPI POP PUSH1 0x1 SWAP1 JUMP JUMPDEST PUSH1 0x1 SLOAD TIMESTAMP LT ISZERO PUSH2 0x288A JUMPI POP PUSH1 0x2 SWAP1 JUMP JUMPDEST PUSH1 0x2 SLOAD PUSH0 SUB PUSH2 0x2899 JUMPI POP PUSH1 0x3 SWAP1 JUMP JUMPDEST PUSH1 0x2 SLOAD TIMESTAMP LT ISZERO PUSH2 0x28A9 JUMPI POP PUSH1 0x4 SWAP1 JUMP JUMPDEST POP PUSH1 0x5 SWAP1 JUMP JUMPDEST PUSH1 0xC SLOAD PUSH1 0xFF AND PUSH2 0x28F1 JUMPI PUSH1 0x40 MLOAD PUSH3 0x461BCD PUSH1 0xE5 SHL DUP2 MSTORE PUSH1 0x20 PUSH1 0x4 DUP3 ADD MSTORE PUSH1 0xD PUSH1 0x24 DUP3 ADD MSTORE PUSH13 0x139BC81B195859195C881E595D PUSH1 0x9A SHL PUSH1 0x44 DUP3 ADD MSTORE PUSH1 0x64 ADD PUSH2 0xC5A JUMP JUMPDEST PUSH1 0xC SLOAD PUSH2 0x100 SWAP1 DIV PUSH1 0x1 PUSH1 0x1 PUSH1 0xA0 SHL SUB AND PUSH0 SWAP1 DUP2 MSTORE PUSH1 0x5 PUSH1 0x20 DUP2 SWAP1 MSTORE PUSH1 0x40 SWAP1 SWAP2 KECCAK256 ADD SLOAD PUSH2 0x2922 SWAP1 PUSH3 0x127500 SWAP1 PUSH2 0x5BD5 JUMP JUMPDEST TIMESTAMP LT ISZERO PUSH2 0x297C JUMPI PUSH1 0x40 MLOAD PUSH3 0x461BCD PUSH1 0xE5 SHL DUP2 MSTORE PUSH1 0x20 PUSH1 0x4 DUP3 ADD MSTORE PUSH1 0x22 PUSH1 0x24 DUP3 ADD MSTORE PUSH32 0x43757272656E74206C65616465722773207465726D206E6F742066696E697368 PUSH1 0x44 DUP3 ADD MSTORE PUSH2 0x1959 PUSH1 0xF2 SHL PUSH1 0x64 DUP3 ADD MSTORE PUSH1 0x84 ADD PUSH2 0xC5A JUMP JUMPDEST PUSH1 0xD DUP1 SLOAD SWAP1 PUSH0 PUSH2 0x298B DUP4 PUSH2 0x5997 JUMP JUMPDEST SWAP2 SWAP1 POP SSTORE POP PUSH1 0x4 PUSH1 0xD SLOAD DUP2 SLOAD DUP2 LT PUSH2 0x29A5 JUMPI PUSH2 0x29A5 PUSH2 0x5748 JUMP JUMPDEST PUSH0 SWAP2 DUP3 MSTORE PUSH1 0x20 DUP1 DUP4 KECCAK256 SWAP2 SWAP1 SWAP2 ADD SLOAD PUSH1 0xC DUP1 SLOAD PUSH2 0x100 PUSH1 0x1 PUSH1 0xA8 SHL SUB NOT AND PUSH2 0x100 PUSH1 0x1 PUSH1 0x1 PUSH1 0xA0 SHL SUB SWAP4 DUP5 AND DUP2 MUL SWAP2 SWAP1 SWAP2 OR DUP1 DUP4 SSTORE DUP2 SWAP1 DIV DUP4 AND DUP6 MSTORE PUSH1 0x5 SWAP4 DUP5 SWAP1 MSTORE PUSH1 0x40 DUP1 DUP7 KECCAK256 TIMESTAMP SWAP6 ADD SWAP5 SWAP1 SWAP5 SSTORE SWAP1 SLOAD SWAP3 MLOAD SWAP3 DIV AND SWAP2 PUSH32 0x8A84BB57BF3F6ADEFAA7A35A6A5067473F78164BFC14C2F6AE8B93E5B115B35A SWAP2 LOG2 JUMP JUMPDEST PUSH1 0x2 PUSH2 0x2A29 PUSH2 0x27E7 JUMP JUMPDEST PUSH1 0x5 DUP2 GT ISZERO PUSH2 0x2A3A JUMPI PUSH2 0x2A3A PUSH2 0x5262 JUMP JUMPDEST EQ PUSH2 0x2A7F JUMPI PUSH1 0x40 MLOAD PUSH3 0x461BCD PUSH1 0xE5 SHL DUP2 MSTORE PUSH1 0x20 PUSH1 0x4 DUP3 ADD MSTORE PUSH1 0x15 PUSH1 0x24 DUP3 ADD MSTORE PUSH21 0x4E6F7420696E20456C656374696F6E207068617365 PUSH1 0x58 SHL PUSH1 0x44 DUP3 ADD MSTORE PUSH1 0x64 ADD PUSH2 0xC5A JUMP JUMPDEST PUSH1 0x4 SLOAD DUP2 GT ISZERO PUSH2 0x2AC6 JUMPI PUSH1 0x40 MLOAD PUSH3 0x461BCD PUSH1 0xE5 SHL DUP2 MSTORE PUSH1 0x20 PUSH1 0x4 DUP3 ADD MSTORE PUSH1 0x12 PUSH1 0x24 DUP3 ADD MSTORE PUSH18 0x125B9D985B1A59081D9BDD194818DBDD5B9D PUSH1 0x72 SHL PUSH1 0x44 DUP3 ADD MSTORE PUSH1 0x64 ADD PUSH2 0xC5A JUMP JUMPDEST CALLER PUSH0 SWAP1 DUP2 MSTORE PUSH1 0xB PUSH1 0x20 MSTORE PUSH1 0x40 SWAP1 KECCAK256 SLOAD PUSH1 0x1 EQ PUSH2 0x2B35 JUMPI PUSH1 0x40 MLOAD PUSH3 0x461BCD PUSH1 0xE5 SHL DUP2 MSTORE PUSH1 0x20 PUSH1 0x4 DUP3 ADD MSTORE PUSH1 0x28 PUSH1 0x24 DUP3 ADD MSTORE PUSH32 0x416C726561647920766F74656420283E3129206F72206E6F7420726567697374 PUSH1 0x44 DUP3 ADD MSTORE PUSH8 0x6572656420283029 PUSH1 0xC0 SHL PUSH1 0x64 DUP3 ADD MSTORE PUSH1 0x84 ADD PUSH2 0xC5A JUMP JUMPDEST PUSH1 0x4 SLOAD PUSH0 SWAP1 PUSH1 0x1 PUSH1 0x1 PUSH1 0x40 SHL SUB DUP2 GT ISZERO PUSH2 0x2B51 JUMPI PUSH2 0x2B51 PUSH2 0x52DA JUMP JUMPDEST PUSH1 0x40 MLOAD SWAP1 DUP1 DUP3 MSTORE DUP1 PUSH1 0x20 MUL PUSH1 0x20 ADD DUP3 ADD PUSH1 0x40 MSTORE DUP1 ISZERO PUSH2 0x2B7A JUMPI DUP2 PUSH1 0x20 ADD PUSH1 0x20 DUP3 MUL DUP1 CALLDATASIZE DUP4 CALLDATACOPY ADD SWAP1 POP JUMPDEST POP CALLER PUSH0 DUP2 DUP2 MSTORE PUSH1 0xB PUSH1 0x20 MSTORE PUSH1 0x40 DUP1 DUP3 KECCAK256 TIMESTAMP SWAP1 SSTORE MLOAD SWAP3 SWAP4 POP SWAP1 SWAP2 PUSH32 0xB87A61D78BD15221C59B983F6EF032FBDE0631E66BFE18D1421FE5A73C16741D SWAP2 SWAP1 LOG2 PUSH0 JUMPDEST DUP3 DUP2 LT ISZERO PUSH2 0x2D2B JUMPI PUSH0 DUP5 DUP5 DUP4 DUP2 DUP2 LT PUSH2 0x2BD4 JUMPI PUSH2 0x2BD4 PUSH2 0x5748 JUMP JUMPDEST SWAP1 POP PUSH1 0x20 MUL ADD CALLDATALOAD SWAP1 POP PUSH1 0x4 DUP1 SLOAD SWAP1 POP DUP2 LT PUSH2 0x2C29 JUMPI PUSH1 0x40 MLOAD PUSH3 0x461BCD PUSH1 0xE5 SHL DUP2 MSTORE PUSH1 0x20 PUSH1 0x4 DUP3 ADD MSTORE PUSH1 0x15 PUSH1 0x24 DUP3 ADD MSTORE PUSH21 0xAEE4DEDCCE40C6C2DCC8D2C8C2E8CA40D2DCC8CAF PUSH1 0x5B SHL PUSH1 0x44 DUP3 ADD MSTORE PUSH1 0x64 ADD PUSH2 0xC5A JUMP JUMPDEST DUP3 DUP2 DUP2 MLOAD DUP2 LT PUSH2 0x2C3B JUMPI PUSH2 0x2C3B PUSH2 0x5748 JUMP JUMPDEST PUSH1 0x20 MUL PUSH1 0x20 ADD ADD MLOAD ISZERO PUSH2 0x2C90 JUMPI PUSH1 0x40 MLOAD PUSH3 0x461BCD PUSH1 0xE5 SHL DUP2 MSTORE PUSH1 0x20 PUSH1 0x4 DUP3 ADD MSTORE PUSH1 0x1A PUSH1 0x24 DUP3 ADD MSTORE PUSH32 0x526570657469746976652063616E64696461746520696E646578000000000000 PUSH1 0x44 DUP3 ADD MSTORE PUSH1 0x64 ADD PUSH2 0xC5A JUMP JUMPDEST PUSH1 0x1 DUP4 DUP3 DUP2 MLOAD DUP2 LT PUSH2 0x2CA4 JUMPI PUSH2 0x2CA4 PUSH2 0x5748 JUMP JUMPDEST PUSH1 0x20 MUL PUSH1 0x20 ADD ADD SWAP1 ISZERO ISZERO SWAP1 DUP2 ISZERO ISZERO DUP2 MSTORE POP POP PUSH1 0x5 PUSH0 PUSH1 0x4 DUP4 DUP2 SLOAD DUP2 LT PUSH2 0x2CCC JUMPI PUSH2 0x2CCC PUSH2 0x5748 JUMP JUMPDEST PUSH0 SWAP2 DUP3 MSTORE PUSH1 0x20 DUP1 DUP4 KECCAK256 SWAP1 SWAP2 ADD SLOAD PUSH1 0x1 PUSH1 0x1 PUSH1 0xA0 SHL SUB AND DUP4 MSTORE DUP3 ADD SWAP3 SWAP1 SWAP3 MSTORE PUSH1 0x40 ADD DUP2 KECCAK256 PUSH1 0x4 ADD DUP1 SLOAD PUSH2 0xFFFF AND SWAP2 PUSH2 0x2D02 DUP4 PUSH2 0x594B JUMP JUMPDEST SWAP2 SWAP1 PUSH2 0x100 EXP DUP2 SLOAD DUP2 PUSH2 0xFFFF MUL NOT AND SWAP1 DUP4 PUSH2 0xFFFF AND MUL OR SWAP1 SSTORE POP POP POP DUP1 DUP1 PUSH1 0x1 ADD SWAP2 POP POP PUSH2 0x2BB9 JUMP JUMPDEST POP POP POP POP JUMP JUMPDEST PUSH1 0x4 DUP2 DUP2 SLOAD DUP2 LT PUSH2 0x2D40 JUMPI PUSH0 DUP1 REVERT JUMPDEST PUSH0 SWAP2 DUP3 MSTORE PUSH1 0x20 SWAP1 SWAP2 KECCAK256 ADD SLOAD PUSH1 0x1 PUSH1 0x1 PUSH1 0xA0 SHL SUB AND SWAP1 POP DUP2 JUMP JUMPDEST CALLER PUSH0 SWAP1 DUP2 MSTORE PUSH1 0x5 PUSH1 0x20 MSTORE PUSH1 0x40 SWAP1 KECCAK256 PUSH1 0x4 ADD SLOAD PUSH3 0x10000 SWAP1 DIV PUSH1 0xFF AND PUSH2 0x2DAF JUMPI PUSH1 0x40 MLOAD PUSH3 0x461BCD PUSH1 0xE5 SHL DUP2 MSTORE PUSH1 0x20 PUSH1 0x4 DUP3 ADD MSTORE PUSH1 0xC PUSH1 0x24 DUP3 ADD MSTORE PUSH12 0x2737BA10309036B2B6B132B9 PUSH1 0xA1 SHL PUSH1 0x44 DUP3 ADD MSTORE PUSH1 0x64 ADD PUSH2 0xC5A JUMP JUMPDEST CALLER PUSH0 SWAP1 DUP2 MSTORE PUSH1 0x5 PUSH1 0x20 MSTORE PUSH1 0x40 SWAP1 KECCAK256 PUSH1 0x6 ADD SLOAD PUSH3 0x10000 SWAP1 DIV PUSH2 0xFFFF AND ISZERO PUSH2 0x2E0C JUMPI PUSH1 0x40 MLOAD PUSH3 0x461BCD PUSH1 0xE5 SHL DUP2 MSTORE PUSH1 0x20 PUSH1 0x4 DUP3 ADD MSTORE PUSH1 0x11 PUSH1 0x24 DUP3 ADD MSTORE PUSH17 0x105B1C9958591E481CDD589B5A5D1D1959 PUSH1 0x7A SHL PUSH1 0x44 DUP3 ADD MSTORE PUSH1 0x64 ADD PUSH2 0xC5A JUMP JUMPDEST PUSH1 0x3 PUSH2 0x2E16 PUSH2 0x27E7 JUMP JUMPDEST PUSH1 0x5 DUP2 GT ISZERO PUSH2 0x2E27 JUMPI PUSH2 0x2E27 PUSH2 0x5262 JUMP JUMPDEST EQ PUSH2 0x2E62 JUMPI PUSH1 0x40 MLOAD PUSH3 0x461BCD PUSH1 0xE5 SHL DUP2 MSTORE PUSH1 0x20 PUSH1 0x4 DUP3 ADD MSTORE PUSH1 0xB PUSH1 0x24 DUP3 ADD MSTORE PUSH11 0x57726F6E67207068617365 PUSH1 0xA8 SHL PUSH1 0x44 DUP3 ADD MSTORE PUSH1 0x64 ADD PUSH2 0xC5A JUMP JUMPDEST DUP1 MLOAD MLOAD PUSH2 0x2EA8 JUMPI PUSH1 0x40 MLOAD PUSH3 0x461BCD PUSH1 0xE5 SHL DUP2 MSTORE PUSH1 0x20 PUSH1 0x4 DUP3 ADD MSTORE PUSH1 0x14 PUSH1 0x24 DUP3 ADD MSTORE PUSH20 0x11195CD8DC9A5C1D1A5BDB881C995C5D5A5C9959 PUSH1 0x62 SHL PUSH1 0x44 DUP3 ADD MSTORE PUSH1 0x64 ADD PUSH2 0xC5A JUMP JUMPDEST PUSH0 DUP2 PUSH1 0x20 ADD MLOAD MLOAD GT PUSH2 0x2EFC JUMPI PUSH1 0x40 MLOAD PUSH3 0x461BCD PUSH1 0xE5 SHL DUP2 MSTORE PUSH1 0x20 PUSH1 0x4 DUP3 ADD MSTORE PUSH1 0x19 PUSH1 0x24 DUP3 ADD MSTORE PUSH32 0x636F6E737469747574696F6E5465787420726571756972656400000000000000 PUSH1 0x44 DUP3 ADD MSTORE PUSH1 0x64 ADD PUSH2 0xC5A JUMP JUMPDEST PUSH0 DUP2 PUSH1 0x60 ADD MLOAD MLOAD GT PUSH2 0x2F49 JUMPI PUSH1 0x40 MLOAD PUSH3 0x461BCD PUSH1 0xE5 SHL DUP2 MSTORE PUSH1 0x20 PUSH1 0x4 DUP3 ADD MSTORE PUSH1 0x16 PUSH1 0x24 DUP3 ADD MSTORE PUSH22 0x20BA103632B0B9BA1037B7329039BAB136B4BA3A32B9 PUSH1 0x51 SHL PUSH1 0x44 DUP3 ADD MSTORE PUSH1 0x64 ADD PUSH2 0xC5A JUMP JUMPDEST PUSH0 DUP2 PUSH0 ADD MLOAD DUP3 PUSH1 0x40 ADD MLOAD DUP4 PUSH1 0x20 ADD MLOAD PUSH1 0x40 MLOAD PUSH1 0x20 ADD PUSH2 0x2F6A SWAP4 SWAP3 SWAP2 SWAP1 PUSH2 0x5BFF JUMP JUMPDEST PUSH1 0x40 MLOAD PUSH1 0x20 DUP2 DUP4 SUB SUB DUP2 MSTORE SWAP1 PUSH1 0x40 MSTORE DUP1 MLOAD SWAP1 PUSH1 0x20 ADD KECCAK256 SWAP1 POP DUP2 PUSH1 0x80 ADD MLOAD DUP2 EQ PUSH2 0x2FC7 JUMPI PUSH1 0x40 MLOAD PUSH3 0x461BCD PUSH1 0xE5 SHL DUP2 MSTORE PUSH1 0x20 PUSH1 0x4 DUP3 ADD MSTORE PUSH1 0xF PUSH1 0x24 DUP3 ADD MSTORE PUSH15 0x496E636F7272656374204861736821 PUSH1 0x88 SHL PUSH1 0x44 DUP3 ADD MSTORE PUSH1 0x64 ADD PUSH2 0xC5A JUMP JUMPDEST TIMESTAMP PUSH1 0xC0 DUP4 ADD MSTORE PUSH0 PUSH1 0xE0 DUP4 ADD DUP2 SWAP1 MSTORE PUSH1 0x10 DUP1 SLOAD CALLER DUP4 MSTORE PUSH1 0x5 PUSH1 0x20 MSTORE PUSH1 0x40 SWAP3 DUP4 SWAP1 KECCAK256 PUSH1 0x6 ADD DUP1 SLOAD PUSH2 0xFFFF SWAP1 SWAP3 AND PUSH3 0x10000 MUL PUSH4 0xFFFF0000 NOT SWAP1 SWAP3 AND SWAP2 SWAP1 SWAP2 OR SWAP1 SSTORE SLOAD SWAP1 MLOAD PUSH32 0x69006E6563904066B3005AAF324A96C53889602AE777132507198179576E1BF SWAP1 PUSH2 0x3036 SWAP1 DUP6 SWAP1 PUSH2 0x5B3D JUMP JUMPDEST PUSH1 0x40 MLOAD DUP1 SWAP2 SUB SWAP1 LOG2 PUSH1 0x10 DUP1 SLOAD PUSH1 0x1 DUP2 ADD DUP3 SSTORE PUSH0 SWAP2 SWAP1 SWAP2 MSTORE DUP3 MLOAD DUP4 SWAP2 PUSH1 0x8 MUL PUSH32 0x1B6847DC741A1B0CD08D278845F9D819D87B734759AFB55FE2DE5CB82A9AE672 ADD SWAP1 DUP2 SWAP1 PUSH2 0x3083 SWAP1 DUP3 PUSH2 0x5C25 JUMP JUMPDEST POP PUSH1 0x20 DUP3 ADD MLOAD PUSH1 0x1 DUP3 ADD SWAP1 PUSH2 0x3098 SWAP1 DUP3 PUSH2 0x5C25 JUMP JUMPDEST POP PUSH1 0x40 DUP3 ADD MLOAD PUSH1 0x2 DUP3 ADD SWAP1 PUSH2 0x30AD SWAP1 DUP3 PUSH2 0x5C25 JUMP JUMPDEST POP PUSH1 0x60 DUP3 ADD MLOAD DUP1 MLOAD PUSH2 0x30C9 SWAP2 PUSH1 0x3 DUP5 ADD SWAP2 PUSH1 0x20 SWAP1 SWAP2 ADD SWAP1 PUSH2 0x4C4F JUMP JUMPDEST POP PUSH1 0x80 DUP3 ADD MLOAD PUSH1 0x4 DUP3 ADD SSTORE PUSH1 0xA0 DUP3 ADD MLOAD PUSH1 0x5 DUP3 ADD SWAP1 PUSH2 0x30E8 SWAP1 DUP3 PUSH2 0x5C25 JUMP JUMPDEST POP PUSH1 0xC0 DUP3 ADD MLOAD DUP2 PUSH1 0x6 ADD SSTORE PUSH1 0xE0 DUP3 ADD MLOAD DUP2 PUSH1 0x7 ADD SSTORE POP POP POP POP JUMP JUMPDEST PUSH1 0x10 DUP2 DUP2 SLOAD DUP2 LT PUSH2 0x3112 JUMPI PUSH0 DUP1 REVERT JUMPDEST SWAP1 PUSH0 MSTORE PUSH1 0x20 PUSH0 KECCAK256 SWAP1 PUSH1 0x8 MUL ADD PUSH0 SWAP2 POP SWAP1 POP DUP1 PUSH0 ADD DUP1 SLOAD PUSH2 0x3131 SWAP1 PUSH2 0x5710 JUMP JUMPDEST DUP1 PUSH1 0x1F ADD PUSH1 0x20 DUP1 SWAP2 DIV MUL PUSH1 0x20 ADD PUSH1 0x40 MLOAD SWAP1 DUP2 ADD PUSH1 0x40 MSTORE DUP1 SWAP3 SWAP2 SWAP1 DUP2 DUP2 MSTORE PUSH1 0x20 ADD DUP3 DUP1 SLOAD PUSH2 0x315D SWAP1 PUSH2 0x5710 JUMP JUMPDEST DUP1 ISZERO PUSH2 0x31A8 JUMPI DUP1 PUSH1 0x1F LT PUSH2 0x317F JUMPI PUSH2 0x100 DUP1 DUP4 SLOAD DIV MUL DUP4 MSTORE SWAP2 PUSH1 0x20 ADD SWAP2 PUSH2 0x31A8 JUMP JUMPDEST DUP3 ADD SWAP2 SWAP1 PUSH0 MSTORE PUSH1 0x20 PUSH0 KECCAK256 SWAP1 JUMPDEST DUP2 SLOAD DUP2 MSTORE SWAP1 PUSH1 0x1 ADD SWAP1 PUSH1 0x20 ADD DUP1 DUP4 GT PUSH2 0x318B JUMPI DUP3 SWAP1 SUB PUSH1 0x1F AND DUP3 ADD SWAP2 JUMPDEST POP POP POP POP POP SWAP1 DUP1 PUSH1 0x1 ADD DUP1 SLOAD PUSH2 0x31BD SWAP1 PUSH2 0x5710 JUMP JUMPDEST DUP1 PUSH1 0x1F ADD PUSH1 0x20 DUP1 SWAP2 DIV MUL PUSH1 0x20 ADD PUSH1 0x40 MLOAD SWAP1 DUP2 ADD PUSH1 0x40 MSTORE DUP1 SWAP3 SWAP2 SWAP1 DUP2 DUP2 MSTORE PUSH1 0x20 ADD DUP3 DUP1 SLOAD PUSH2 0x31E9 SWAP1 PUSH2 0x5710 JUMP JUMPDEST DUP1 ISZERO PUSH2 0x3234 JUMPI DUP1 PUSH1 0x1F LT PUSH2 0x320B JUMPI PUSH2 0x100 DUP1 DUP4 SLOAD DIV MUL DUP4 MSTORE SWAP2 PUSH1 0x20 ADD SWAP2 PUSH2 0x3234 JUMP JUMPDEST DUP3 ADD SWAP2 SWAP1 PUSH0 MSTORE PUSH1 0x20 PUSH0 KECCAK256 SWAP1 JUMPDEST DUP2 SLOAD DUP2 MSTORE SWAP1 PUSH1 0x1 ADD SWAP1 PUSH1 0x20 ADD DUP1 DUP4 GT PUSH2 0x3217 JUMPI DUP3 SWAP1 SUB PUSH1 0x1F AND DUP3 ADD SWAP2 JUMPDEST POP POP POP POP POP SWAP1 DUP1 PUSH1 0x2 ADD DUP1 SLOAD PUSH2 0x3249 SWAP1 PUSH2 0x5710 JUMP JUMPDEST DUP1 PUSH1 0x1F ADD PUSH1 0x20 DUP1 SWAP2 DIV MUL PUSH1 0x20 ADD PUSH1 0x40 MLOAD SWAP1 DUP2 ADD PUSH1 0x40 MSTORE DUP1 SWAP3 SWAP2 SWAP1 DUP2 DUP2 MSTORE PUSH1 0x20 ADD DUP3 DUP1 SLOAD PUSH2 0x3275 SWAP1 PUSH2 0x5710 JUMP JUMPDEST DUP1 ISZERO PUSH2 0x32C0 JUMPI DUP1 PUSH1 0x1F LT PUSH2 0x3297 JUMPI PUSH2 0x100 DUP1 DUP4 SLOAD DIV MUL DUP4 MSTORE SWAP2 PUSH1 0x20 ADD SWAP2 PUSH2 0x32C0 JUMP JUMPDEST DUP3 ADD SWAP2 SWAP1 PUSH0 MSTORE PUSH1 0x20 PUSH0 KECCAK256 SWAP1 JUMPDEST DUP2 SLOAD DUP2 MSTORE SWAP1 PUSH1 0x1 ADD SWAP1 PUSH1 0x20 ADD DUP1 DUP4 GT PUSH2 0x32A3 JUMPI DUP3 SWAP1 SUB PUSH1 0x1F AND DUP3 ADD SWAP2 JUMPDEST POP POP POP POP POP SWAP1 DUP1 PUSH1 0x4 ADD SLOAD SWAP1 DUP1 PUSH1 0x5 ADD DUP1 SLOAD PUSH2 0x32DB SWAP1 PUSH2 0x5710 JUMP JUMPDEST DUP1 PUSH1 0x1F ADD PUSH1 0x20 DUP1 SWAP2 DIV MUL PUSH1 0x20 ADD PUSH1 0x40 MLOAD SWAP1 DUP2 ADD PUSH1 0x40 MSTORE DUP1 SWAP3 SWAP2 SWAP1 DUP2 DUP2 MSTORE PUSH1 0x20 ADD DUP3 DUP1 SLOAD PUSH2 0x3307 SWAP1 PUSH2 0x5710 JUMP JUMPDEST DUP1 ISZERO PUSH2 0x3352 JUMPI DUP1 PUSH1 0x1F LT PUSH2 0x3329 JUMPI PUSH2 0x100 DUP1 DUP4 SLOAD DIV MUL DUP4 MSTORE SWAP2 PUSH1 0x20 ADD SWAP2 PUSH2 0x3352 JUMP JUMPDEST DUP3 ADD SWAP2 SWAP1 PUSH0 MSTORE PUSH1 0x20 PUSH0 KECCAK256 SWAP1 JUMPDEST DUP2 SLOAD DUP2 MSTORE SWAP1 PUSH1 0x1 ADD SWAP1 PUSH1 0x20 ADD DUP1 DUP4 GT PUSH2 0x3335 JUMPI DUP3 SWAP1 SUB PUSH1 0x1F AND DUP3 ADD SWAP2 JUMPDEST POP POP POP POP POP SWAP1 DUP1 PUSH1 0x6 ADD SLOAD SWAP1 DUP1 PUSH1 0x7 ADD SLOAD SWAP1 POP DUP8 JUMP JUMPDEST CALLER PUSH0 SWAP1 DUP2 MSTORE PUSH1 0x5 PUSH1 0x20 MSTORE PUSH1 0x40 DUP2 KECCAK256 PUSH1 0x4 ADD SLOAD PUSH3 0x10000 SWAP1 DIV PUSH1 0xFF AND PUSH2 0x33CF JUMPI PUSH1 0x40 MLOAD PUSH3 0x461BCD PUSH1 0xE5 SHL DUP2 MSTORE PUSH1 0x20 PUSH1 0x4 DUP3 ADD MSTORE PUSH1 0x18 PUSH1 0x24 DUP3 ADD MSTORE PUSH32 0x4F6E6C79206D656D626572732063616E2070726F706F73650000000000000000 PUSH1 0x44 DUP3 ADD MSTORE PUSH1 0x64 ADD PUSH2 0xC5A JUMP JUMPDEST PUSH2 0x1388 DUP3 GT ISZERO PUSH2 0x340E JUMPI PUSH1 0x40 MLOAD PUSH3 0x461BCD PUSH1 0xE5 SHL DUP2 MSTORE PUSH1 0x20 PUSH1 0x4 DUP3 ADD MSTORE PUSH1 0xA PUSH1 0x24 DUP3 ADD MSTORE PUSH10 0x52617465203E20353025 PUSH1 0xB0 SHL PUSH1 0x44 DUP3 ADD MSTORE PUSH1 0x64 ADD PUSH2 0xC5A JUMP JUMPDEST CALLER PUSH0 SWAP1 DUP2 MSTORE PUSH1 0x7F PUSH1 0x20 MSTORE PUSH1 0x40 DUP2 KECCAK256 SLOAD PUSH1 0xFF AND DUP2 DUP2 ISZERO DUP1 ISZERO PUSH2 0x3433 JUMPI POP PUSH1 0x80 SLOAD PUSH1 0xFF AND ISZERO ISZERO JUMPDEST ISZERO PUSH2 0x3474 JUMPI PUSH1 0x80 DUP1 SLOAD PUSH1 0xFF AND SWAP1 PUSH0 PUSH2 0x344A DUP4 PUSH2 0x5CDA JUMP JUMPDEST DUP3 SLOAD PUSH2 0x100 SWAP3 SWAP1 SWAP3 EXP PUSH1 0xFF DUP2 DUP2 MUL NOT SWAP1 SWAP4 AND SWAP2 DUP4 AND MUL OR SWAP1 SWAP2 SSTORE PUSH1 0x80 SLOAD PUSH0 SWAP6 POP AND SWAP2 POP PUSH2 0x3498 SWAP1 POP JUMP JUMPDEST PUSH1 0x1B DUP3 PUSH1 0xFF AND PUSH1 0x32 DUP2 LT PUSH2 0x348A JUMPI PUSH2 0x348A PUSH2 0x5748 JUMP JUMPDEST PUSH1 0x2 MUL ADD PUSH1 0x1 ADD SLOAD SWAP3 POP DUP2 SWAP1 POP JUMPDEST DUP3 DUP6 SUB PUSH2 0x350A JUMPI DUP5 PUSH0 SUB PUSH2 0x3502 JUMPI CALLER PUSH1 0x1B DUP3 PUSH1 0xFF AND PUSH1 0x32 DUP2 LT PUSH2 0x34BD JUMPI PUSH2 0x34BD PUSH2 0x5748 JUMP JUMPDEST PUSH1 0x2 MUL ADD DUP1 SLOAD PUSH1 0x1 PUSH1 0x1 PUSH1 0xA0 SHL SUB NOT AND PUSH1 0x1 PUSH1 0x1 PUSH1 0xA0 SHL SUB SWAP3 SWAP1 SWAP3 AND SWAP2 SWAP1 SWAP2 OR SWAP1 SSTORE CALLER PUSH0 SWAP1 DUP2 MSTORE PUSH1 0x7F PUSH1 0x20 MSTORE PUSH1 0x40 SWAP1 KECCAK256 DUP1 SLOAD PUSH1 0xFF NOT AND PUSH1 0xFF DUP4 AND OR SWAP1 SSTORE SWAP5 SWAP4 POP POP POP POP JUMP JUMPDEST POP SWAP4 SWAP3 POP POP POP JUMP JUMPDEST DUP3 DUP6 GT ISZERO PUSH2 0x362A JUMPI JUMPDEST PUSH2 0x351F PUSH1 0x1 PUSH1 0x32 PUSH2 0x5CF5 JUMP JUMPDEST PUSH1 0xFF AND DUP2 PUSH1 0xFF AND LT DUP1 ISZERO PUSH2 0x3559 JUMPI POP PUSH1 0x1B PUSH2 0x353B DUP3 PUSH1 0x1 PUSH2 0x5D0E JUMP JUMPDEST PUSH1 0xFF AND PUSH1 0x32 DUP2 LT PUSH2 0x354E JUMPI PUSH2 0x354E PUSH2 0x5748 JUMP JUMPDEST PUSH1 0x2 MUL ADD PUSH1 0x1 ADD SLOAD DUP6 GT JUMPDEST ISZERO PUSH2 0x3625 JUMPI PUSH1 0x1B PUSH2 0x356B DUP3 PUSH1 0x1 PUSH2 0x5D0E JUMP JUMPDEST PUSH1 0xFF AND PUSH1 0x32 DUP2 LT PUSH2 0x357E JUMPI PUSH2 0x357E PUSH2 0x5748 JUMP JUMPDEST PUSH1 0x2 MUL ADD PUSH1 0x1B DUP3 PUSH1 0xFF AND PUSH1 0x32 DUP2 LT PUSH2 0x3598 JUMPI PUSH2 0x3598 PUSH2 0x5748 JUMP JUMPDEST DUP3 SLOAD PUSH1 0x2 SWAP2 SWAP1 SWAP2 MUL SWAP2 SWAP1 SWAP2 ADD DUP1 SLOAD PUSH1 0x1 PUSH1 0x1 PUSH1 0xA0 SHL SUB NOT AND PUSH1 0x1 PUSH1 0x1 PUSH1 0xA0 SHL SUB SWAP1 SWAP3 AND SWAP2 SWAP1 SWAP2 OR DUP2 SSTORE PUSH1 0x1 SWAP2 DUP3 ADD SLOAD SWAP2 ADD SSTORE DUP1 PUSH1 0x7F PUSH0 PUSH1 0x1B PUSH1 0xFF DUP5 AND PUSH1 0x32 DUP2 LT PUSH2 0x35E4 JUMPI PUSH2 0x35E4 PUSH2 0x5748 JUMP JUMPDEST PUSH1 0x2 MUL ADD SLOAD PUSH1 0x1 PUSH1 0x1 PUSH1 0xA0 SHL SUB AND DUP2 MSTORE PUSH1 0x20 DUP2 ADD SWAP2 SWAP1 SWAP2 MSTORE PUSH1 0x40 ADD PUSH0 KECCAK256 DUP1 SLOAD PUSH1 0xFF NOT AND PUSH1 0xFF SWAP3 SWAP1 SWAP3 AND SWAP2 SWAP1 SWAP2 OR SWAP1 SSTORE DUP1 PUSH2 0x361D DUP2 PUSH2 0x5770 JUMP JUMPDEST SWAP2 POP POP PUSH2 0x3513 JUMP JUMPDEST PUSH2 0x372E JUMP JUMPDEST PUSH0 DUP2 PUSH1 0xFF AND GT DUP1 ISZERO PUSH2 0x3662 JUMPI POP PUSH1 0x1B PUSH2 0x3644 PUSH1 0x1 DUP4 PUSH2 0x5CF5 JUMP JUMPDEST PUSH1 0xFF AND PUSH1 0x32 DUP2 LT PUSH2 0x3657 JUMPI PUSH2 0x3657 PUSH2 0x5748 JUMP JUMPDEST PUSH1 0x2 MUL ADD PUSH1 0x1 ADD SLOAD DUP6 LT JUMPDEST ISZERO PUSH2 0x372E JUMPI PUSH1 0x1B PUSH2 0x3674 PUSH1 0x1 DUP4 PUSH2 0x5CF5 JUMP JUMPDEST PUSH1 0xFF AND PUSH1 0x32 DUP2 LT PUSH2 0x3687 JUMPI PUSH2 0x3687 PUSH2 0x5748 JUMP JUMPDEST PUSH1 0x2 MUL ADD PUSH1 0x1B DUP3 PUSH1 0xFF AND PUSH1 0x32 DUP2 LT PUSH2 0x36A1 JUMPI PUSH2 0x36A1 PUSH2 0x5748 JUMP JUMPDEST DUP3 SLOAD PUSH1 0x2 SWAP2 SWAP1 SWAP2 MUL SWAP2 SWAP1 SWAP2 ADD DUP1 SLOAD PUSH1 0x1 PUSH1 0x1 PUSH1 0xA0 SHL SUB NOT AND PUSH1 0x1 PUSH1 0x1 PUSH1 0xA0 SHL SUB SWAP1 SWAP3 AND SWAP2 SWAP1 SWAP2 OR DUP2 SSTORE PUSH1 0x1 SWAP2 DUP3 ADD SLOAD SWAP2 ADD SSTORE DUP1 PUSH1 0x7F PUSH0 PUSH1 0x1B PUSH1 0xFF DUP5 AND PUSH1 0x32 DUP2 LT PUSH2 0x36ED JUMPI PUSH2 0x36ED PUSH2 0x5748 JUMP JUMPDEST PUSH1 0x2 MUL ADD SLOAD PUSH1 0x1 PUSH1 0x1 PUSH1 0xA0 SHL SUB AND DUP2 MSTORE PUSH1 0x20 DUP2 ADD SWAP2 SWAP1 SWAP2 MSTORE PUSH1 0x40 ADD PUSH0 KECCAK256 DUP1 SLOAD PUSH1 0xFF NOT AND PUSH1 0xFF SWAP3 SWAP1 SWAP3 AND SWAP2 SWAP1 SWAP2 OR SWAP1 SSTORE DUP1 PUSH2 0x3726 DUP2 PUSH2 0x5CDA JUMP JUMPDEST SWAP2 POP POP PUSH2 0x362A JUMP JUMPDEST PUSH1 0x40 DUP1 MLOAD DUP1 DUP3 ADD SWAP1 SWAP2 MSTORE CALLER DUP2 MSTORE PUSH1 0x20 DUP2 ADD DUP7 SWAP1 MSTORE PUSH1 0x1B PUSH1 0xFF DUP4 AND PUSH1 0x32 DUP2 LT PUSH2 0x3758 JUMPI PUSH2 0x3758 PUSH2 0x5748 JUMP JUMPDEST DUP3 MLOAD PUSH1 0x2 SWAP2 SWAP1 SWAP2 MUL SWAP2 SWAP1 SWAP2 ADD DUP1 SLOAD PUSH1 0x1 PUSH1 0x1 PUSH1 0xA0 SHL SUB NOT AND PUSH1 0x1 PUSH1 0x1 PUSH1 0xA0 SHL SUB SWAP1 SWAP3 AND SWAP2 SWAP1 SWAP2 OR DUP2 SSTORE PUSH1 0x20 SWAP2 DUP3 ADD MLOAD PUSH1 0x1 SWAP1 SWAP2 ADD SSTORE CALLER PUSH0 DUP2 DUP2 MSTORE PUSH1 0x7F DUP4 MSTORE PUSH1 0x40 SWAP1 DUP2 SWAP1 KECCAK256 DUP1 SLOAD PUSH1 0xFF NOT AND PUSH1 0xFF DUP7 DUP2 AND SWAP2 DUP3 OR SWAP1 SWAP3 SSTORE DUP3 MLOAD DUP9 DUP2 MSTORE SWAP2 DUP8 AND SWAP5 DUP3 ADD SWAP5 SWAP1 SWAP5 MSTORE SWAP1 DUP2 ADD DUP9 SWAP1 MSTORE PUSH1 0x60 DUP2 ADD SWAP3 SWAP1 SWAP3 MSTORE SWAP1 PUSH32 0x1CE0BEAEC98D7537137A85C2D351C6C99900830D30FE8A7C353FA27225807E72 SWAP1 PUSH1 0x80 ADD PUSH1 0x40 MLOAD DUP1 SWAP2 SUB SWAP1 LOG2 PUSH1 0x1B PUSH2 0x3806 PUSH1 0x2 PUSH1 0x32 PUSH2 0x5D27 JUMP JUMPDEST PUSH1 0xFF AND PUSH1 0x32 DUP2 LT PUSH2 0x3819 JUMPI PUSH2 0x3819 PUSH2 0x5748 JUMP JUMPDEST PUSH1 0x2 MUL ADD PUSH1 0x1 ADD SLOAD PUSH1 0x18 SLOAD EQ PUSH2 0x390F JUMPI PUSH1 0x1B PUSH2 0x3837 PUSH1 0x2 PUSH1 0x32 PUSH2 0x5D27 JUMP JUMPDEST PUSH1 0xFF AND PUSH1 0x32 DUP2 LT PUSH2 0x384A JUMPI PUSH2 0x384A PUSH2 0x5748 JUMP JUMPDEST PUSH1 0x1 PUSH1 0x2 SWAP2 DUP3 MUL SWAP3 SWAP1 SWAP3 ADD DUP3 ADD SLOAD PUSH1 0x18 DUP2 DUP2 SSTORE PUSH1 0x40 DUP1 MLOAD DUP1 DUP3 ADD DUP3 MSTORE SWAP3 DUP4 MSTORE TIMESTAMP PUSH1 0x20 DUP5 ADD SWAP1 DUP2 MSTORE PUSH1 0x19 DUP1 SLOAD SWAP7 DUP8 ADD DUP2 SSTORE PUSH0 MSTORE SWAP3 MLOAD SWAP5 SWAP1 SWAP4 MUL PUSH32 0x944998273E477B495144FB8794C914197F3CCB46BE2900F4698FD0EF743C9695 DUP2 ADD SWAP5 SWAP1 SWAP5 SSTORE SWAP1 MLOAD PUSH32 0x944998273E477B495144FB8794C914197F3CCB46BE2900F4698FD0EF743C9696 SWAP1 SWAP4 ADD SWAP3 SWAP1 SWAP3 SSTORE SWAP1 SLOAD SWAP1 MLOAD PUSH32 0xA90E14BE5AA57B910AA6DC16C31FF1B5CDA380AE25A793B0D3F74DF6131A7D74 SWAP2 PUSH2 0x3906 SWAP2 SWAP1 DUP2 MSTORE PUSH1 0x20 ADD SWAP1 JUMP JUMPDEST PUSH1 0x40 MLOAD DUP1 SWAP2 SUB SWAP1 LOG1 JUMPDEST SWAP5 SWAP4 POP POP POP POP JUMP JUMPDEST TIMESTAMP PUSH3 0x5C4900 PUSH1 0x1 SLOAD PUSH2 0x3929 SWAP2 SWAP1 PUSH2 0x5BD5 JUMP JUMPDEST LT PUSH2 0x3976 JUMPI PUSH1 0x40 MLOAD PUSH3 0x461BCD PUSH1 0xE5 SHL DUP2 MSTORE PUSH1 0x20 PUSH1 0x4 DUP3 ADD MSTORE PUSH1 0x1B PUSH1 0x24 DUP3 ADD MSTORE PUSH32 0x43616E6E6F74207374617274207265666572656E64756D207965740000000000 PUSH1 0x44 DUP3 ADD MSTORE PUSH1 0x64 ADD PUSH2 0xC5A JUMP JUMPDEST PUSH1 0x14 SLOAD ISZERO PUSH2 0x39B9 JUMPI PUSH1 0x40 MLOAD PUSH3 0x461BCD PUSH1 0xE5 SHL DUP2 MSTORE PUSH1 0x20 PUSH1 0x4 DUP3 ADD MSTORE PUSH1 0x10 PUSH1 0x24 DUP3 ADD MSTORE PUSH16 0x105B1C9958591E481C985D1A599A5959 PUSH1 0x82 SHL PUSH1 0x44 DUP3 ADD MSTORE PUSH1 0x64 ADD PUSH2 0xC5A JUMP JUMPDEST PUSH1 0x10 SLOAD PUSH1 0xA LT PUSH2 0x39FF JUMPI PUSH1 0x40 MLOAD PUSH3 0x461BCD PUSH1 0xE5 SHL DUP2 MSTORE PUSH1 0x20 PUSH1 0x4 DUP3 ADD MSTORE PUSH1 0x11 PUSH1 0x24 DUP3 ADD MSTORE PUSH17 0x4E6F7420656E6F75676820647261667473 PUSH1 0x78 SHL PUSH1 0x44 DUP3 ADD MSTORE PUSH1 0x64 ADD PUSH2 0xC5A JUMP JUMPDEST PUSH1 0x13 SLOAD PUSH3 0xF4240 PUSH4 0xFFFFFFFF SWAP1 SWAP2 AND LT ISZERO PUSH2 0x3A50 JUMPI PUSH1 0x40 MLOAD PUSH3 0x461BCD PUSH1 0xE5 SHL DUP2 MSTORE PUSH1 0x20 PUSH1 0x4 DUP3 ADD MSTORE PUSH1 0x11 PUSH1 0x24 DUP3 ADD MSTORE PUSH17 0x4E6F7420656E6F75676820766F74657273 PUSH1 0x78 SHL PUSH1 0x44 DUP3 ADD MSTORE PUSH1 0x64 ADD PUSH2 0xC5A JUMP JUMPDEST PUSH2 0x3A5D TIMESTAMP PUSH3 0x15180 PUSH2 0x5BD5 JUMP JUMPDEST PUSH1 0x2 SSTORE PUSH1 0x40 MLOAD PUSH32 0xA0AB6B515144B30D8222A12E45D1C1DF7265286D8A0D9F73C23C8B06F6021871 SWAP1 PUSH0 SWAP1 LOG1 JUMP JUMPDEST PUSH1 0x2 SLOAD TIMESTAMP LT PUSH2 0x3AD1 JUMPI PUSH1 0x40 MLOAD PUSH3 0x461BCD PUSH1 0xE5 SHL DUP2 MSTORE PUSH1 0x20 PUSH1 0x4 DUP3 ADD MSTORE PUSH1 0x13 PUSH1 0x24 DUP3 ADD MSTORE PUSH19 0x4E6F74205265666572656E64756D2074696D65 PUSH1 0x68 SHL PUSH1 0x44 DUP3 ADD MSTORE PUSH1 0x64 ADD PUSH2 0xC5A JUMP JUMPDEST PUSH1 0x10 SLOAD DUP2 GT ISZERO PUSH2 0x3B18 JUMPI PUSH1 0x40 MLOAD PUSH3 0x461BCD PUSH1 0xE5 SHL DUP2 MSTORE PUSH1 0x20 PUSH1 0x4 DUP3 ADD MSTORE PUSH1 0x12 PUSH1 0x24 DUP3 ADD MSTORE PUSH18 0x125B9D985B1A5908191C98599D081B1A5CDD PUSH1 0x72 SHL PUSH1 0x44 DUP3 ADD MSTORE PUSH1 0x64 ADD PUSH2 0xC5A JUMP JUMPDEST CALLER PUSH0 SWAP1 DUP2 MSTORE PUSH1 0x12 PUSH1 0x20 MSTORE PUSH1 0x40 SWAP1 KECCAK256 SLOAD PUSH1 0x2 EQ PUSH2 0x3B76 JUMPI PUSH1 0x40 MLOAD PUSH3 0x461BCD PUSH1 0xE5 SHL DUP2 MSTORE PUSH1 0x20 PUSH1 0x4 DUP3 ADD MSTORE PUSH1 0x17 PUSH1 0x24 DUP3 ADD MSTORE PUSH32 0x566F746564206F72204E6F742072656769737465726564000000000000000000 PUSH1 0x44 DUP3 ADD MSTORE PUSH1 0x64 ADD PUSH2 0xC5A JUMP JUMPDEST PUSH1 0x10 SLOAD PUSH0 SWAP1 PUSH1 0x1 PUSH1 0x1 PUSH1 0x40 SHL SUB DUP2 GT ISZERO PUSH2 0x3B92 JUMPI PUSH2 0x3B92 PUSH2 0x52DA JUMP JUMPDEST PUSH1 0x40 MLOAD SWAP1 DUP1 DUP3 MSTORE DUP1 PUSH1 0x20 MUL PUSH1 0x20 ADD DUP3 ADD PUSH1 0x40 MSTORE DUP1 ISZERO PUSH2 0x3BBB JUMPI DUP2 PUSH1 0x20 ADD PUSH1 0x20 DUP3 MUL DUP1 CALLDATASIZE DUP4 CALLDATACOPY ADD SWAP1 POP JUMPDEST POP SWAP1 POP PUSH0 JUMPDEST DUP3 DUP2 LT ISZERO PUSH2 0x3CE8 JUMPI PUSH0 DUP5 DUP5 DUP4 DUP2 DUP2 LT PUSH2 0x3BDB JUMPI PUSH2 0x3BDB PUSH2 0x5748 JUMP JUMPDEST SWAP1 POP PUSH1 0x20 MUL ADD CALLDATALOAD SWAP1 POP PUSH1 0x10 DUP1 SLOAD SWAP1 POP DUP2 LT PUSH2 0x3C28 JUMPI PUSH1 0x40 MLOAD PUSH3 0x461BCD PUSH1 0xE5 SHL DUP2 MSTORE PUSH1 0x20 PUSH1 0x4 DUP3 ADD MSTORE PUSH1 0xD PUSH1 0x24 DUP3 ADD MSTORE PUSH13 0x125B9D985B1A5908191C98599D PUSH1 0x9A SHL PUSH1 0x44 DUP3 ADD MSTORE PUSH1 0x64 ADD PUSH2 0xC5A JUMP JUMPDEST DUP3 DUP2 DUP2 MLOAD DUP2 LT PUSH2 0x3C3A JUMPI PUSH2 0x3C3A PUSH2 0x5748 JUMP JUMPDEST PUSH1 0x20 MUL PUSH1 0x20 ADD ADD MLOAD ISZERO PUSH2 0x3C84 JUMPI PUSH1 0x40 MLOAD PUSH3 0x461BCD PUSH1 0xE5 SHL DUP2 MSTORE PUSH1 0x20 PUSH1 0x4 DUP3 ADD MSTORE PUSH1 0x12 PUSH1 0x24 DUP3 ADD MSTORE PUSH18 0x14995C195D1A5D1A5D9948191C98599D1259 PUSH1 0x72 SHL PUSH1 0x44 DUP3 ADD MSTORE PUSH1 0x64 ADD PUSH2 0xC5A JUMP JUMPDEST PUSH1 0x1 DUP4 DUP3 DUP2 MLOAD DUP2 LT PUSH2 0x3C98 JUMPI PUSH2 0x3C98 PUSH2 0x5748 JUMP JUMPDEST PUSH1 0x20 MUL PUSH1 0x20 ADD ADD SWAP1 ISZERO ISZERO SWAP1 DUP2 ISZERO ISZERO DUP2 MSTORE POP POP PUSH1 0x10 DUP2 DUP2 SLOAD DUP2 LT PUSH2 0x3CBD JUMPI PUSH2 0x3CBD PUSH2 0x5748 JUMP JUMPDEST PUSH0 SWAP2 DUP3 MSTORE PUSH1 0x20 DUP3 KECCAK256 PUSH1 0x7 PUSH1 0x8 SWAP1 SWAP3 MUL ADD ADD DUP1 SLOAD SWAP2 PUSH2 0x3CDA DUP4 PUSH2 0x5997 JUMP JUMPDEST SWAP1 SWAP2 SSTORE POP POP POP PUSH1 0x1 ADD PUSH2 0x3BC0 JUMP JUMPDEST POP CALLER PUSH0 DUP2 DUP2 MSTORE PUSH1 0x12 PUSH1 0x20 MSTORE PUSH1 0x40 DUP1 DUP3 KECCAK256 TIMESTAMP SWAP1 SSTORE MLOAD PUSH32 0x4B50B8927FD1B030F5404DC4394C2A5D30D7F6C6FA6D732C089FFE8C10F09421 SWAP2 SWAP1 LOG2 POP POP POP JUMP JUMPDEST PUSH1 0x11 PUSH1 0x20 MSTORE DUP2 PUSH0 MSTORE PUSH1 0x40 PUSH0 KECCAK256 DUP2 PUSH1 0x2 DUP2 LT PUSH2 0x3D3E JUMPI PUSH0 DUP1 REVERT JUMPDEST ADD SLOAD PUSH1 0x1 PUSH1 0x1 PUSH1 0xA0 SHL SUB AND SWAP2 POP DUP3 SWAP1 POP JUMP JUMPDEST PUSH1 0xE SLOAD DUP2 LT PUSH2 0x3D97 JUMPI PUSH1 0x40 MLOAD PUSH3 0x461BCD PUSH1 0xE5 SHL DUP2 MSTORE PUSH1 0x20 PUSH1 0x4 DUP3 ADD MSTORE PUSH1 0x13 PUSH1 0x24 DUP3 ADD MSTORE PUSH19 0x125B9D985B1A59081C1C9BDC1BDCD85B081251 PUSH1 0x6A SHL PUSH1 0x44 DUP3 ADD MSTORE PUSH1 0x64 ADD PUSH2 0xC5A JUMP JUMPDEST PUSH0 PUSH1 0xE DUP3 DUP2 SLOAD DUP2 LT PUSH2 0x3DAB JUMPI PUSH2 0x3DAB PUSH2 0x5748 JUMP JUMPDEST PUSH0 SWAP2 DUP3 MSTORE PUSH1 0x20 SWAP1 SWAP2 KECCAK256 PUSH1 0x5 SWAP1 SWAP2 MUL ADD DUP1 SLOAD SWAP1 SWAP2 POP PUSH1 0x1 PUSH1 0x1 PUSH1 0xA0 SHL SUB AND CALLER EQ PUSH2 0x3E16 JUMPI PUSH1 0x40 MLOAD PUSH3 0x461BCD PUSH1 0xE5 SHL DUP2 MSTORE PUSH1 0x20 PUSH1 0x4 DUP3 ADD MSTORE PUSH1 0x1E PUSH1 0x24 DUP3 ADD MSTORE PUSH32 0x4F6E6C79207468652070726F706F7365722063616E2077697468647261770000 PUSH1 0x44 DUP3 ADD MSTORE PUSH1 0x64 ADD PUSH2 0xC5A JUMP JUMPDEST PUSH1 0x2 DUP2 ADD SLOAD ISZERO PUSH2 0x3E5B JUMPI PUSH1 0x40 MLOAD PUSH3 0x461BCD PUSH1 0xE5 SHL DUP2 MSTORE PUSH1 0x20 PUSH1 0x4 DUP3 ADD MSTORE PUSH1 0x10 PUSH1 0x24 DUP3 ADD MSTORE PUSH16 0x105B1C9958591E48195E1958DD5D1959 PUSH1 0x82 SHL PUSH1 0x44 DUP3 ADD MSTORE PUSH1 0x64 ADD PUSH2 0xC5A JUMP JUMPDEST PUSH1 0x3 DUP2 ADD SLOAD PUSH1 0xFF AND ISZERO PUSH2 0x3EA4 JUMPI PUSH1 0x40 MLOAD PUSH3 0x461BCD PUSH1 0xE5 SHL DUP2 MSTORE PUSH1 0x20 PUSH1 0x4 DUP3 ADD MSTORE PUSH1 0x11 PUSH1 0x24 DUP3 ADD MSTORE PUSH17 0x20B63932B0B23C903BB4BA34323930BBB7 PUSH1 0x79 SHL PUSH1 0x44 DUP3 ADD MSTORE PUSH1 0x64 ADD PUSH2 0xC5A JUMP JUMPDEST PUSH1 0x3 DUP2 ADD DUP1 SLOAD PUSH1 0xFF NOT AND PUSH1 0x1 OR SWAP1 SSTORE CALLER PUSH0 SWAP1 DUP2 MSTORE PUSH1 0x5 PUSH1 0x20 MSTORE PUSH1 0x40 DUP1 DUP3 KECCAK256 PUSH1 0x6 ADD DUP1 SLOAD PUSH2 0xFFFF NOT AND SWAP1 SSTORE MLOAD DUP4 SWAP2 PUSH32 0x5CA6C0BBA519C857C8713FBA9F5F1B582ABE00C95DCCCEDCCEA41AD683BAD26D SWAP2 LOG2 POP POP JUMP JUMPDEST PUSH1 0x5 PUSH1 0x20 MSTORE PUSH0 SWAP1 DUP2 MSTORE PUSH1 0x40 SWAP1 KECCAK256 DUP1 SLOAD DUP2 SWAP1 PUSH2 0x3F12 SWAP1 PUSH2 0x5710 JUMP JUMPDEST DUP1 PUSH1 0x1F ADD PUSH1 0x20 DUP1 SWAP2 DIV MUL PUSH1 0x20 ADD PUSH1 0x40 MLOAD SWAP1 DUP2 ADD PUSH1 0x40 MSTORE DUP1 SWAP3 SWAP2 SWAP1 DUP2 DUP2 MSTORE PUSH1 0x20 ADD DUP3 DUP1 SLOAD PUSH2 0x3F3E SWAP1 PUSH2 0x5710 JUMP JUMPDEST DUP1 ISZERO PUSH2 0x3F89 JUMPI DUP1 PUSH1 0x1F LT PUSH2 0x3F60 JUMPI PUSH2 0x100 DUP1 DUP4 SLOAD DIV MUL DUP4 MSTORE SWAP2 PUSH1 0x20 ADD SWAP2 PUSH2 0x3F89 JUMP JUMPDEST DUP3 ADD SWAP2 SWAP1 PUSH0 MSTORE PUSH1 0x20 PUSH0 KECCAK256 SWAP1 JUMPDEST DUP2 SLOAD DUP2 MSTORE SWAP1 PUSH1 0x1 ADD SWAP1 PUSH1 0x20 ADD DUP1 DUP4 GT PUSH2 0x3F6C JUMPI DUP3 SWAP1 SUB PUSH1 0x1F AND DUP3 ADD SWAP2 JUMPDEST POP POP POP POP POP SWAP1 DUP1 PUSH1 0x1 ADD DUP1 SLOAD PUSH2 0x3F9E SWAP1 PUSH2 0x5710 JUMP JUMPDEST DUP1 PUSH1 0x1F ADD PUSH1 0x20 DUP1 SWAP2 DIV MUL PUSH1 0x20 ADD PUSH1 0x40 MLOAD SWAP1 DUP2 ADD PUSH1 0x40 MSTORE DUP1 SWAP3 SWAP2 SWAP1 DUP2 DUP2 MSTORE PUSH1 0x20 ADD DUP3 DUP1 SLOAD PUSH2 0x3FCA SWAP1 PUSH2 0x5710 JUMP JUMPDEST DUP1 ISZERO PUSH2 0x4015 JUMPI DUP1 PUSH1 0x1F LT PUSH2 0x3FEC JUMPI PUSH2 0x100 DUP1 DUP4 SLOAD DIV MUL DUP4 MSTORE SWAP2 PUSH1 0x20 ADD SWAP2 PUSH2 0x4015 JUMP JUMPDEST DUP3 ADD SWAP2 SWAP1 PUSH0 MSTORE PUSH1 0x20 PUSH0 KECCAK256 SWAP1 JUMPDEST DUP2 SLOAD DUP2 MSTORE SWAP1 PUSH1 0x1 ADD SWAP1 PUSH1 0x20 ADD DUP1 DUP4 GT PUSH2 0x3FF8 JUMPI DUP3 SWAP1 SUB PUSH1 0x1F AND DUP3 ADD SWAP2 JUMPDEST POP POP POP POP POP SWAP1 DUP1 PUSH1 0x2 ADD DUP1 SLOAD PUSH2 0x402A SWAP1 PUSH2 0x5710 JUMP JUMPDEST DUP1 PUSH1 0x1F ADD PUSH1 0x20 DUP1 SWAP2 DIV MUL PUSH1 0x20 ADD PUSH1 0x40 MLOAD SWAP1 DUP2 ADD PUSH1 0x40 MSTORE DUP1 SWAP3 SWAP2 SWAP1 DUP2 DUP2 MSTORE PUSH1 0x20 ADD DUP3 DUP1 SLOAD PUSH2 0x4056 SWAP1 PUSH2 0x5710 JUMP JUMPDEST DUP1 ISZERO PUSH2 0x40A1 JUMPI DUP1 PUSH1 0x1F LT PUSH2 0x4078 JUMPI PUSH2 0x100 DUP1 DUP4 SLOAD DIV MUL DUP4 MSTORE SWAP2 PUSH1 0x20 ADD SWAP2 PUSH2 0x40A1 JUMP JUMPDEST DUP3 ADD SWAP2 SWAP1 PUSH0 MSTORE PUSH1 0x20 PUSH0 KECCAK256 SWAP1 JUMPDEST DUP2 SLOAD DUP2 MSTORE SWAP1 PUSH1 0x1 ADD SWAP1 PUSH1 0x20 ADD DUP1 DUP4 GT PUSH2 0x4084 JUMPI DUP3 SWAP1 SUB PUSH1 0x1F AND DUP3 ADD SWAP2 JUMPDEST POP POP POP POP PUSH1 0x3 DUP4 ADD SLOAD PUSH1 0x4 DUP5 ADD SLOAD PUSH1 0x5 DUP6 ADD SLOAD PUSH1 0x6 SWAP1 SWAP6 ADD SLOAD SWAP4 SWAP5 SWAP2 SWAP4 PUSH2 0xFFFF DUP1 DUP4 AND SWAP5 POP PUSH3 0x10000 SWAP3 DUP4 SWAP1 DIV PUSH1 0xFF AND SWAP4 SWAP3 DUP2 DUP4 AND SWAP3 DIV AND DUP10 JUMP JUMPDEST CALLER PUSH0 SWAP1 DUP2 MSTORE PUSH1 0x9 PUSH1 0x20 MSTORE PUSH1 0x40 SWAP1 KECCAK256 SLOAD PUSH1 0xFF AND PUSH2 0x4129 JUMPI PUSH1 0x40 MLOAD PUSH3 0x461BCD PUSH1 0xE5 SHL DUP2 MSTORE PUSH1 0x20 PUSH1 0x4 DUP3 ADD MSTORE PUSH1 0xC PUSH1 0x24 DUP3 ADD MSTORE PUSH12 0x139BDD08185B881859D95B9D PUSH1 0xA2 SHL PUSH1 0x44 DUP3 ADD MSTORE PUSH1 0x64 ADD PUSH2 0xC5A JUMP JUMPDEST PUSH0 PUSH2 0x4132 PUSH2 0x27E7 JUMP JUMPDEST PUSH1 0x5 DUP2 GT ISZERO PUSH2 0x4143 JUMPI PUSH2 0x4143 PUSH2 0x5262 JUMP JUMPDEST EQ PUSH2 0x4190 JUMPI PUSH1 0x40 MLOAD PUSH3 0x461BCD PUSH1 0xE5 SHL DUP2 MSTORE PUSH1 0x20 PUSH1 0x4 DUP3 ADD MSTORE PUSH1 0x1A PUSH1 0x24 DUP3 ADD MSTORE PUSH32 0x526567697374726174696F6E20706572696F6420656E6465642E000000000000 PUSH1 0x44 DUP3 ADD MSTORE PUSH1 0x64 ADD PUSH2 0xC5A JUMP JUMPDEST PUSH1 0x3 SLOAD PUSH2 0x4B0 PUSH2 0xFFFF SWAP1 SWAP2 AND LT PUSH2 0x41E9 JUMPI PUSH1 0x40 MLOAD PUSH3 0x461BCD PUSH1 0xE5 SHL DUP2 MSTORE PUSH1 0x20 PUSH1 0x4 DUP3 ADD MSTORE PUSH1 0x19 PUSH1 0x24 DUP3 ADD MSTORE PUSH32 0x4D6178696D756D206E756D626572206F6620766F746572732E00000000000000 PUSH1 0x44 DUP3 ADD MSTORE PUSH1 0x64 ADD PUSH2 0xC5A JUMP JUMPDEST PUSH0 DUP1 JUMPDEST PUSH1 0xA PUSH1 0xFF DUP3 AND LT ISZERO PUSH2 0x448D JUMPI DUP3 DUP2 PUSH1 0xFF AND PUSH1 0xA DUP2 LT PUSH2 0x420D JUMPI PUSH2 0x420D PUSH2 0x5748 JUMP JUMPDEST PUSH1 0x60 MUL ADD PUSH0 ADD PUSH1 0x20 DUP2 ADD SWAP1 PUSH2 0x4222 SWAP2 SWAP1 PUSH2 0x5D54 JUMP JUMPDEST PUSH2 0xFFFF AND PUSH2 0x7A5 GT ISZERO DUP1 ISZERO PUSH2 0x4266 JUMPI POP PUSH2 0x7D6 DUP4 DUP3 PUSH1 0xFF AND PUSH1 0xA DUP2 LT PUSH2 0x424A JUMPI PUSH2 0x424A PUSH2 0x5748 JUMP JUMPDEST PUSH1 0x60 MUL ADD PUSH0 ADD PUSH1 0x20 DUP2 ADD SWAP1 PUSH2 0x425F SWAP2 SWAP1 PUSH2 0x5D54 JUMP JUMPDEST PUSH2 0xFFFF AND GT ISZERO JUMPDEST PUSH2 0x429F JUMPI PUSH1 0x40 MLOAD PUSH3 0x461BCD PUSH1 0xE5 SHL DUP2 MSTORE PUSH1 0x20 PUSH1 0x4 DUP3 ADD MSTORE PUSH1 0xA PUSH1 0x24 DUP3 ADD MSTORE PUSH10 0x2BB937B733902CB2B0B9 PUSH1 0xB1 SHL PUSH1 0x44 DUP3 ADD MSTORE PUSH1 0x64 ADD PUSH2 0xC5A JUMP JUMPDEST DUP3 DUP2 PUSH1 0xFF AND PUSH1 0xA DUP2 LT PUSH2 0x42B4 JUMPI PUSH2 0x42B4 PUSH2 0x5748 JUMP JUMPDEST PUSH1 0x60 MUL ADD PUSH1 0x20 ADD PUSH1 0x20 DUP2 ADD SWAP1 PUSH2 0x42CA SWAP2 SWAP1 PUSH2 0x5D6D JUMP JUMPDEST PUSH1 0xFF AND PUSH1 0x1 GT ISZERO DUP1 ISZERO PUSH2 0x430B JUMPI POP PUSH1 0xC DUP4 DUP3 PUSH1 0xFF AND PUSH1 0xA DUP2 LT PUSH2 0x42EF JUMPI PUSH2 0x42EF PUSH2 0x5748 JUMP JUMPDEST PUSH1 0x60 MUL ADD PUSH1 0x20 ADD PUSH1 0x20 DUP2 ADD SWAP1 PUSH2 0x4305 SWAP2 SWAP1 PUSH2 0x5D6D JUMP JUMPDEST PUSH1 0xFF AND GT ISZERO JUMPDEST PUSH2 0x4347 JUMPI PUSH1 0x40 MLOAD PUSH3 0x461BCD PUSH1 0xE5 SHL DUP2 MSTORE PUSH1 0x20 PUSH1 0x4 DUP3 ADD MSTORE PUSH1 0xD PUSH1 0x24 DUP3 ADD MSTORE PUSH13 0x92DCECC2D8D2C8409ADEDCE8D PUSH1 0x9B SHL PUSH1 0x44 DUP3 ADD MSTORE PUSH1 0x64 ADD PUSH2 0xC5A JUMP JUMPDEST DUP3 DUP2 PUSH1 0xFF AND PUSH1 0xA DUP2 LT PUSH2 0x435C JUMPI PUSH2 0x435C PUSH2 0x5748 JUMP JUMPDEST PUSH1 0x60 MUL ADD PUSH0 ADD PUSH1 0x20 DUP2 ADD SWAP1 PUSH2 0x4371 SWAP2 SWAP1 PUSH2 0x5D54 JUMP JUMPDEST DUP4 DUP3 PUSH1 0xFF AND PUSH1 0xA DUP2 LT PUSH2 0x4386 JUMPI PUSH2 0x4386 PUSH2 0x5748 JUMP JUMPDEST PUSH1 0x60 MUL ADD PUSH1 0x20 ADD PUSH1 0x20 DUP2 ADD SWAP1 PUSH2 0x439C SWAP2 SWAP1 PUSH2 0x5D6D JUMP JUMPDEST DUP5 DUP4 PUSH1 0xFF AND PUSH1 0xA DUP2 LT PUSH2 0x43B1 JUMPI PUSH2 0x43B1 PUSH2 0x5748 JUMP JUMPDEST PUSH1 0x60 MUL ADD PUSH1 0x40 ADD PUSH1 0x20 DUP2 ADD SWAP1 PUSH2 0x43C7 SWAP2 SWAP1 PUSH2 0x5D86 JUMP JUMPDEST PUSH1 0x40 MLOAD PUSH1 0x20 ADD PUSH2 0x43D9 SWAP4 SWAP3 SWAP2 SWAP1 PUSH2 0x5962 JUMP JUMPDEST PUSH1 0x40 DUP1 MLOAD PUSH1 0x1F NOT DUP2 DUP5 SUB ADD DUP2 MSTORE SWAP2 DUP2 MSTORE DUP2 MLOAD PUSH1 0x20 SWAP3 DUP4 ADD KECCAK256 PUSH0 DUP2 DUP2 MSTORE PUSH1 0xA DUP5 MSTORE DUP3 DUP2 KECCAK256 CALLER DUP3 MSTORE SWAP1 SWAP4 MSTORE SWAP2 KECCAK256 SLOAD SWAP1 SWAP3 POP PUSH1 0xFF AND ISZERO PUSH2 0x4458 JUMPI PUSH1 0x40 MLOAD PUSH3 0x461BCD PUSH1 0xE5 SHL DUP2 MSTORE PUSH1 0x20 PUSH1 0x4 DUP3 ADD MSTORE PUSH1 0x1B PUSH1 0x24 DUP3 ADD MSTORE PUSH32 0x416C7265616479205665726966696564207468697320566F7465720000000000 PUSH1 0x44 DUP3 ADD MSTORE PUSH1 0x64 ADD PUSH2 0xC5A JUMP JUMPDEST PUSH0 DUP3 DUP2 MSTORE PUSH1 0xA PUSH1 0x20 SWAP1 DUP2 MSTORE PUSH1 0x40 DUP1 DUP4 KECCAK256 CALLER DUP5 MSTORE SWAP1 SWAP2 MSTORE SWAP1 KECCAK256 DUP1 SLOAD PUSH1 0xFF NOT AND PUSH1 0x1 OR SWAP1 SSTORE DUP1 PUSH2 0x4485 DUP2 PUSH2 0x5770 JUMP JUMPDEST SWAP2 POP POP PUSH2 0x41EC JUMP JUMPDEST POP PUSH0 JUMPDEST PUSH1 0xA PUSH1 0xFF DUP3 AND LT ISZERO PUSH2 0x4624 JUMPI PUSH0 DUP5 PUSH1 0xFF DUP4 AND PUSH1 0xA DUP2 LT PUSH2 0x44B2 JUMPI PUSH2 0x44B2 PUSH2 0x5748 JUMP JUMPDEST PUSH1 0x20 MUL ADD PUSH1 0x20 DUP2 ADD SWAP1 PUSH2 0x44C5 SWAP2 SWAP1 PUSH2 0x4E81 JUMP JUMPDEST PUSH1 0x1 PUSH1 0x1 PUSH1 0xA0 SHL SUB AND SUB PUSH2 0x450D JUMPI PUSH1 0x40 MLOAD PUSH3 0x461BCD PUSH1 0xE5 SHL DUP2 MSTORE PUSH1 0x20 PUSH1 0x4 DUP3 ADD MSTORE PUSH1 0xF PUSH1 0x24 DUP3 ADD MSTORE PUSH15 0x496E76616C69642061646472657373 PUSH1 0x88 SHL PUSH1 0x44 DUP3 ADD MSTORE PUSH1 0x64 ADD PUSH2 0xC5A JUMP JUMPDEST PUSH1 0x3 PUSH1 0xB PUSH0 DUP7 PUSH1 0xFF DUP6 AND PUSH1 0xA DUP2 LT PUSH2 0x4527 JUMPI PUSH2 0x4527 PUSH2 0x5748 JUMP JUMPDEST PUSH1 0x20 MUL ADD PUSH1 0x20 DUP2 ADD SWAP1 PUSH2 0x453A SWAP2 SWAP1 PUSH2 0x4E81 JUMP JUMPDEST PUSH1 0x1 PUSH1 0x1 PUSH1 0xA0 SHL SUB AND PUSH1 0x1 PUSH1 0x1 PUSH1 0xA0 SHL SUB AND DUP2 MSTORE PUSH1 0x20 ADD SWAP1 DUP2 MSTORE PUSH1 0x20 ADD PUSH0 KECCAK256 SLOAD LT PUSH2 0x45BB JUMPI PUSH1 0x40 MLOAD PUSH3 0x461BCD PUSH1 0xE5 SHL DUP2 MSTORE PUSH1 0x20 PUSH1 0x4 DUP3 ADD MSTORE PUSH1 0x2B PUSH1 0x24 DUP3 ADD MSTORE PUSH32 0x416C72656164792072656769737465726564207468726963652E205265676973 PUSH1 0x44 DUP3 ADD MSTORE PUSH11 0x74726172204552524F5221 PUSH1 0xA8 SHL PUSH1 0x64 DUP3 ADD MSTORE PUSH1 0x84 ADD PUSH2 0xC5A JUMP JUMPDEST PUSH1 0xB PUSH0 DUP6 DUP4 PUSH1 0xFF AND PUSH1 0xA DUP2 LT PUSH2 0x45D3 JUMPI PUSH2 0x45D3 PUSH2 0x5748 JUMP JUMPDEST PUSH1 0x20 MUL ADD PUSH1 0x20 DUP2 ADD SWAP1 PUSH2 0x45E6 SWAP2 SWAP1 PUSH2 0x4E81 JUMP JUMPDEST PUSH1 0x1 PUSH1 0x1 PUSH1 0xA0 SHL SUB AND DUP2 MSTORE PUSH1 0x20 DUP2 ADD SWAP2 SWAP1 SWAP2 MSTORE PUSH1 0x40 ADD PUSH0 SWAP1 DUP2 KECCAK256 DUP1 SLOAD SWAP2 PUSH2 0x460C DUP4 PUSH2 0x5997 JUMP JUMPDEST SWAP2 SWAP1 POP SSTORE POP DUP1 DUP1 PUSH2 0x461C SWAP1 PUSH2 0x5770 JUMP JUMPDEST SWAP2 POP POP PUSH2 0x4490 JUMP JUMPDEST POP PUSH1 0x3 DUP1 SLOAD PUSH1 0xA SWAP2 SWAP1 PUSH0 SWAP1 PUSH2 0x463E SWAP1 DUP5 SWAP1 PUSH2 0xFFFF AND PUSH2 0x5D9F JUMP JUMPDEST SWAP3 POP PUSH2 0x100 EXP DUP2 SLOAD DUP2 PUSH2 0xFFFF MUL NOT AND SWAP1 DUP4 PUSH2 0xFFFF AND MUL OR SWAP1 SSTORE POP DUP3 PUSH1 0x40 MLOAD PUSH2 0x4666 SWAP2 SWAP1 PUSH2 0x5B6B JUMP JUMPDEST PUSH1 0x40 MLOAD SWAP1 DUP2 SWAP1 SUB DUP2 KECCAK256 PUSH1 0x3 SLOAD PUSH2 0xFFFF AND DUP3 MSTORE SWAP1 PUSH32 0x5ECF71B87B223B4E8C4D19850B2C7A727D326E44EDA6530FE642B505FF2C4F94 SWAP1 PUSH1 0x20 ADD PUSH1 0x40 MLOAD DUP1 SWAP2 SUB SWAP1 LOG2 POP POP POP JUMP JUMPDEST PUSH1 0xC SLOAD PUSH1 0x60 SWAP1 PUSH1 0xFF AND ISZERO PUSH2 0x4717 JUMPI PUSH1 0x4 DUP1 SLOAD DUP1 PUSH1 0x20 MUL PUSH1 0x20 ADD PUSH1 0x40 MLOAD SWAP1 DUP2 ADD PUSH1 0x40 MSTORE DUP1 SWAP3 SWAP2 SWAP1 DUP2 DUP2 MSTORE PUSH1 0x20 ADD DUP3 DUP1 SLOAD DUP1 ISZERO PUSH2 0x470D JUMPI PUSH1 0x20 MUL DUP3 ADD SWAP2 SWAP1 PUSH0 MSTORE PUSH1 0x20 PUSH0 KECCAK256 SWAP1 JUMPDEST DUP2 SLOAD PUSH1 0x1 PUSH1 0x1 PUSH1 0xA0 SHL SUB AND DUP2 MSTORE PUSH1 0x1 SWAP1 SWAP2 ADD SWAP1 PUSH1 0x20 ADD DUP1 DUP4 GT PUSH2 0x46EF JUMPI JUMPDEST POP POP POP POP POP SWAP1 POP SWAP1 JUMP JUMPDEST PUSH1 0x1 SLOAD TIMESTAMP GT PUSH2 0x475E JUMPI PUSH1 0x40 MLOAD PUSH3 0x461BCD PUSH1 0xE5 SHL DUP2 MSTORE PUSH1 0x20 PUSH1 0x4 DUP3 ADD MSTORE PUSH1 0x13 PUSH1 0x24 DUP3 ADD MSTORE PUSH19 0x21B0B6361030B33A32B91032B632B1BA34B7B7 PUSH1 0x69 SHL PUSH1 0x44 DUP3 ADD MSTORE PUSH1 0x64 ADD PUSH2 0xC5A JUMP JUMPDEST PUSH1 0x1 JUMPDEST PUSH1 0x32 PUSH1 0xFF DUP3 AND GT PUSH2 0x498F JUMPI PUSH1 0x4 SLOAD PUSH0 SWAP1 PUSH2 0x477D SWAP1 PUSH1 0x1 SWAP1 PUSH2 0x578E JUMP JUMPDEST SWAP1 POP JUMPDEST DUP1 DUP3 PUSH1 0xFF AND GT PUSH2 0x490D JUMPI PUSH1 0x5 PUSH0 PUSH1 0x4 PUSH2 0x479A PUSH1 0x1 DUP6 PUSH2 0x578E JUMP JUMPDEST DUP2 SLOAD DUP2 LT PUSH2 0x47AA JUMPI PUSH2 0x47AA PUSH2 0x5748 JUMP JUMPDEST PUSH0 SWAP2 DUP3 MSTORE PUSH1 0x20 DUP1 DUP4 KECCAK256 SWAP1 SWAP2 ADD SLOAD PUSH1 0x1 PUSH1 0x1 PUSH1 0xA0 SHL SUB AND DUP4 MSTORE DUP3 ADD SWAP3 SWAP1 SWAP3 MSTORE PUSH1 0x40 ADD DUP2 KECCAK256 PUSH1 0x4 SWAP1 DUP2 ADD SLOAD DUP2 SLOAD PUSH2 0xFFFF SWAP1 SWAP2 AND SWAP3 PUSH1 0x5 SWAP3 SWAP1 SWAP2 DUP6 SWAP1 DUP2 LT PUSH2 0x47F1 JUMPI PUSH2 0x47F1 PUSH2 0x5748 JUMP JUMPDEST PUSH0 SWAP2 DUP3 MSTORE PUSH1 0x20 DUP1 DUP4 KECCAK256 SWAP1 SWAP2 ADD SLOAD PUSH1 0x1 PUSH1 0x1 PUSH1 0xA0 SHL SUB AND DUP4 MSTORE DUP3 ADD SWAP3 SWAP1 SWAP3 MSTORE PUSH1 0x40 ADD SWAP1 KECCAK256 PUSH1 0x4 ADD SLOAD PUSH2 0xFFFF AND GT ISZERO PUSH2 0x48FB JUMPI PUSH1 0x4 PUSH2 0x482F PUSH1 0x1 DUP4 PUSH2 0x578E JUMP JUMPDEST DUP2 SLOAD DUP2 LT PUSH2 0x483F JUMPI PUSH2 0x483F PUSH2 0x5748 JUMP JUMPDEST PUSH0 SWAP2 DUP3 MSTORE PUSH1 0x20 SWAP1 SWAP2 KECCAK256 ADD SLOAD PUSH1 0x4 DUP1 SLOAD PUSH1 0x1 PUSH1 0x1 PUSH1 0xA0 SHL SUB SWAP1 SWAP3 AND SWAP2 DUP4 SWAP1 DUP2 LT PUSH2 0x486A JUMPI PUSH2 0x486A PUSH2 0x5748 JUMP JUMPDEST PUSH0 SWAP2 DUP3 MSTORE PUSH1 0x20 SWAP1 SWAP2 KECCAK256 ADD SLOAD PUSH1 0x4 DUP1 SLOAD PUSH1 0x1 PUSH1 0x1 PUSH1 0xA0 SHL SUB SWAP1 SWAP3 AND SWAP2 DUP5 SWAP1 DUP2 LT PUSH2 0x4895 JUMPI PUSH2 0x4895 PUSH2 0x5748 JUMP JUMPDEST PUSH0 SWAP2 DUP3 MSTORE PUSH1 0x20 DUP3 KECCAK256 ADD SWAP1 PUSH1 0x4 PUSH2 0x48AC PUSH1 0x1 DUP8 PUSH2 0x578E JUMP JUMPDEST DUP2 SLOAD DUP2 LT PUSH2 0x48BC JUMPI PUSH2 0x48BC PUSH2 0x5748 JUMP JUMPDEST PUSH0 SWAP2 DUP3 MSTORE PUSH1 0x20 SWAP1 SWAP2 KECCAK256 ADD DUP1 SLOAD PUSH1 0x1 PUSH1 0x1 PUSH1 0xA0 SHL SUB SWAP5 DUP6 AND PUSH1 0x1 PUSH1 0x1 PUSH1 0xA0 SHL SUB NOT SWAP1 SWAP2 AND OR SWAP1 SSTORE DUP2 SLOAD SWAP4 DUP4 AND PUSH2 0x100 SWAP2 SWAP1 SWAP2 EXP SWAP1 DUP2 MUL SWAP3 MUL NOT SWAP1 SWAP3 AND OR SWAP1 SSTORE JUMPDEST DUP1 PUSH2 0x4905 DUP2 PUSH2 0x59AF JUMP JUMPDEST SWAP2 POP POP PUSH2 0x4780 JUMP JUMPDEST POP PUSH2 0x4919 PUSH1 0x1 DUP3 PUSH2 0x5CF5 JUMP JUMPDEST PUSH1 0x5 PUSH0 PUSH1 0x4 PUSH2 0x4929 PUSH1 0x1 DUP7 PUSH2 0x5CF5 JUMP JUMPDEST PUSH1 0xFF AND DUP2 SLOAD DUP2 LT PUSH2 0x493C JUMPI PUSH2 0x493C PUSH2 0x5748 JUMP JUMPDEST PUSH0 SWAP2 DUP3 MSTORE PUSH1 0x20 DUP1 DUP4 KECCAK256 SWAP1 SWAP2 ADD SLOAD PUSH1 0x1 PUSH1 0x1 PUSH1 0xA0 SHL SUB AND DUP4 MSTORE DUP3 ADD SWAP3 SWAP1 SWAP3 MSTORE PUSH1 0x40 ADD SWAP1 KECCAK256 PUSH1 0x4 ADD DUP1 SLOAD PUSH1 0xFF SWAP3 SWAP1 SWAP3 AND PUSH3 0x10000 MUL PUSH3 0xFF0000 NOT SWAP1 SWAP3 AND SWAP2 SWAP1 SWAP2 OR SWAP1 SSTORE DUP1 PUSH2 0x4987 DUP2 PUSH2 0x5770 JUMP JUMPDEST SWAP2 POP POP PUSH2 0x4761 JUMP JUMPDEST POP PUSH1 0xC DUP1 SLOAD PUSH1 0xFF NOT AND PUSH1 0x1 OR SWAP1 SSTORE PUSH1 0x4 DUP1 SLOAD PUSH0 SWAP1 PUSH2 0x49AF JUMPI PUSH2 0x49AF PUSH2 0x5748 JUMP JUMPDEST PUSH0 SWAP2 DUP3 MSTORE PUSH1 0x20 DUP1 DUP4 KECCAK256 SWAP2 SWAP1 SWAP2 ADD SLOAD PUSH1 0xC DUP1 SLOAD PUSH2 0x100 PUSH1 0x1 PUSH1 0xA8 SHL SUB NOT AND PUSH2 0x100 PUSH1 0x1 PUSH1 0x1 PUSH1 0xA0 SHL SUB SWAP4 DUP5 AND DUP2 MUL SWAP2 SWAP1 SWAP2 OR SWAP2 DUP3 SWAP1 SSTORE PUSH1 0xD DUP6 SWAP1 SSTORE SWAP1 DIV AND DUP3 MSTORE PUSH1 0x5 SWAP1 DUP2 SWAP1 MSTORE PUSH1 0x40 SWAP2 DUP3 SWAP1 KECCAK256 TIMESTAMP SWAP2 ADD SSTORE MLOAD PUSH2 0x4A0B SWAP1 PUSH1 0x4 SWAP1 PUSH2 0x5DB9 JUMP JUMPDEST PUSH1 0x40 MLOAD SWAP1 DUP2 SWAP1 SUB DUP2 KECCAK256 PUSH1 0xC SLOAD PUSH2 0x100 SWAP1 DIV PUSH1 0x1 PUSH1 0x1 PUSH1 0xA0 SHL SUB AND DUP3 MSTORE SWAP1 PUSH32 0x55FD57A9F60ED79C2DA9B808929B82BED18D54127A828E4F6050A978600109B0 SWAP1 PUSH1 0x20 ADD PUSH1 0x40 MLOAD DUP1 SWAP2 SUB SWAP1 LOG2 PUSH1 0x4 DUP1 SLOAD DUP1 PUSH1 0x20 MUL PUSH1 0x20 ADD PUSH1 0x40 MLOAD SWAP1 DUP2 ADD PUSH1 0x40 MSTORE DUP1 SWAP3 SWAP2 SWAP1 DUP2 DUP2 MSTORE PUSH1 0x20 ADD DUP3 DUP1 SLOAD DUP1 ISZERO PUSH2 0x470D JUMPI PUSH1 0x20 MUL DUP3 ADD SWAP2 SWAP1 PUSH0 MSTORE PUSH1 0x20 PUSH0 KECCAK256 SWAP1 DUP2 SLOAD PUSH1 0x1 PUSH1 0x1 PUSH1 0xA0 SHL SUB AND DUP2 MSTORE PUSH1 0x1 SWAP1 SWAP2 ADD SWAP1 PUSH1 0x20 ADD DUP1 DUP4 GT PUSH2 0x46EF JUMPI POP POP POP POP POP SWAP1 POP SWAP1 JUMP JUMPDEST PUSH1 0x19 DUP2 DUP2 SLOAD DUP2 LT PUSH2 0x4AC0 JUMPI PUSH0 DUP1 REVERT JUMPDEST PUSH0 SWAP2 DUP3 MSTORE PUSH1 0x20 SWAP1 SWAP2 KECCAK256 PUSH1 0x2 SWAP1 SWAP2 MUL ADD DUP1 SLOAD PUSH1 0x1 SWAP1 SWAP2 ADD SLOAD SWAP1 SWAP2 POP DUP3 JUMP JUMPDEST PUSH0 PUSH1 0xE DUP3 DUP2 SLOAD DUP2 LT PUSH2 0x4AF1 JUMPI PUSH2 0x4AF1 PUSH2 0x5748 JUMP JUMPDEST SWAP1 PUSH0 MSTORE PUSH1 0x20 PUSH0 KECCAK256 SWAP1 PUSH1 0x5 MUL ADD SWAP1 POP PUSH0 JUMPDEST PUSH1 0x4 DUP3 ADD SLOAD DUP2 LT ISZERO PUSH2 0x4C4A JUMPI PUSH0 DUP3 PUSH1 0x4 ADD DUP3 DUP2 SLOAD DUP2 LT PUSH2 0x4B23 JUMPI PUSH2 0x4B23 PUSH2 0x5748 JUMP JUMPDEST SWAP1 PUSH0 MSTORE PUSH1 0x20 PUSH0 KECCAK256 SWAP1 PUSH1 0x3 MUL ADD PUSH1 0x40 MLOAD DUP1 PUSH1 0x60 ADD PUSH1 0x40 MSTORE SWAP1 DUP2 PUSH0 DUP3 ADD SLOAD DUP2 MSTORE PUSH1 0x20 ADD PUSH1 0x1 DUP3 ADD PUSH0 SWAP1 SLOAD SWAP1 PUSH2 0x100 EXP SWAP1 DIV PUSH1 0x1 PUSH1 0x1 PUSH1 0xA0 SHL SUB AND PUSH1 0x1 PUSH1 0x1 PUSH1 0xA0 SHL SUB AND PUSH1 0x1 PUSH1 0x1 PUSH1 0xA0 SHL SUB AND DUP2 MSTORE PUSH1 0x20 ADD PUSH1 0x2 DUP3 ADD DUP1 SLOAD PUSH2 0x4B81 SWAP1 PUSH2 0x5710 JUMP JUMPDEST DUP1 PUSH1 0x1F ADD PUSH1 0x20 DUP1 SWAP2 DIV MUL PUSH1 0x20 ADD PUSH1 0x40 MLOAD SWAP1 DUP2 ADD PUSH1 0x40 MSTORE DUP1 SWAP3 SWAP2 SWAP1 DUP2 DUP2 MSTORE PUSH1 0x20 ADD DUP3 DUP1 SLOAD PUSH2 0x4BAD SWAP1 PUSH2 0x5710 JUMP JUMPDEST DUP1 ISZERO PUSH2 0x4BF8 JUMPI DUP1 PUSH1 0x1F LT PUSH2 0x4BCF JUMPI PUSH2 0x100 DUP1 DUP4 SLOAD DIV MUL DUP4 MSTORE SWAP2 PUSH1 0x20 ADD SWAP2 PUSH2 0x4BF8 JUMP JUMPDEST DUP3 ADD SWAP2 SWAP1 PUSH0 MSTORE PUSH1 0x20 PUSH0 KECCAK256 SWAP1 JUMPDEST DUP2 SLOAD DUP2 MSTORE SWAP1 PUSH1 0x1 ADD SWAP1 PUSH1 0x20 ADD DUP1 DUP4 GT PUSH2 0x4BDB JUMPI DUP3 SWAP1 SUB PUSH1 0x1F AND DUP3 ADD SWAP2 JUMPDEST POP POP POP POP POP DUP2 MSTORE POP POP SWAP1 POP DUP1 PUSH1 0x20 ADD MLOAD PUSH1 0x1 PUSH1 0x1 PUSH1 0xA0 SHL SUB AND PUSH2 0x8FC DUP3 PUSH0 ADD MLOAD SWAP1 DUP2 ISZERO MUL SWAP1 PUSH1 0x40 MLOAD PUSH0 PUSH1 0x40 MLOAD DUP1 DUP4 SUB DUP2 DUP6 DUP9 DUP9 CALL SWAP4 POP POP POP POP ISZERO DUP1 ISZERO PUSH2 0x4C40 JUMPI RETURNDATASIZE PUSH0 DUP1 RETURNDATACOPY RETURNDATASIZE PUSH0 REVERT JUMPDEST POP POP PUSH1 0x1 ADD PUSH2 0x4B01 JUMP JUMPDEST POP POP POP JUMP JUMPDEST DUP3 DUP1 SLOAD DUP3 DUP3 SSTORE SWAP1 PUSH0 MSTORE PUSH1 0x20 PUSH0 KECCAK256 SWAP1 DUP2 ADD SWAP3 DUP3 ISZERO PUSH2 0x4C93 JUMPI SWAP2 PUSH1 0x20 MUL DUP3 ADD JUMPDEST DUP3 DUP2 GT ISZERO PUSH2 0x4C93 JUMPI DUP3 MLOAD DUP3 SWAP1 PUSH2 0x4C83 SWAP1 DUP3 PUSH2 0x5C25 JUMP JUMPDEST POP SWAP2 PUSH1 0x20 ADD SWAP2 SWAP1 PUSH1 0x1 ADD SWAP1 PUSH2 0x4C6D JUMP JUMPDEST POP PUSH2 0x1249 SWAP3 SWAP2 POP JUMPDEST DUP1 DUP3 GT ISZERO PUSH2 0x1249 JUMPI PUSH0 PUSH2 0x4CAE DUP3 DUP3 PUSH2 0x4CB7 JUMP JUMPDEST POP PUSH1 0x1 ADD PUSH2 0x4C9B JUMP JUMPDEST POP DUP1 SLOAD PUSH2 0x4CC3 SWAP1 PUSH2 0x5710 JUMP JUMPDEST PUSH0 DUP3 SSTORE DUP1 PUSH1 0x1F LT PUSH2 0x4CD2 JUMPI POP POP JUMP JUMPDEST PUSH1 0x1F ADD PUSH1 0x20 SWAP1 DIV SWAP1 PUSH0 MSTORE PUSH1 0x20 PUSH0 KECCAK256 SWAP1 DUP2 ADD SWAP1 PUSH2 0x4CEE SWAP2 SWAP1 PUSH2 0x4CF1 JUMP JUMPDEST POP JUMP JUMPDEST JUMPDEST DUP1 DUP3 GT ISZERO PUSH2 0x1249 JUMPI PUSH0 DUP2 SSTORE PUSH1 0x1 ADD PUSH2 0x4CF2 JUMP JUMPDEST PUSH0 PUSH1 0x20 DUP3 DUP5 SUB SLT ISZERO PUSH2 0x4D15 JUMPI PUSH0 DUP1 REVERT JUMPDEST POP CALLDATALOAD SWAP2 SWAP1 POP JUMP JUMPDEST PUSH0 DUP2 MLOAD DUP1 DUP5 MSTORE DUP1 PUSH1 0x20 DUP5 ADD PUSH1 0x20 DUP7 ADD MCOPY PUSH0 PUSH1 0x20 DUP3 DUP7 ADD ADD MSTORE PUSH1 0x20 PUSH1 0x1F NOT PUSH1 0x1F DUP4 ADD AND DUP6 ADD ADD SWAP2 POP POP SWAP3 SWAP2 POP POP JUMP JUMPDEST PUSH1 0x1 PUSH1 0x1 PUSH1 0xA0 SHL SUB DUP7 AND DUP2 MSTORE PUSH1 0xA0 PUSH1 0x20 DUP3 ADD DUP2 SWAP1 MSTORE PUSH0 SWAP1 PUSH2 0x4D6D SWAP1 DUP4 ADD DUP8 PUSH2 0x4D1C JUMP JUMPDEST PUSH1 0x40 DUP4 ADD SWAP6 SWAP1 SWAP6 MSTORE POP SWAP2 ISZERO ISZERO PUSH1 0x60 DUP4 ADD MSTORE PUSH1 0xFF AND PUSH1 0x80 SWAP1 SWAP2 ADD MSTORE SWAP3 SWAP2 POP POP JUMP JUMPDEST PUSH0 DUP1 DUP4 PUSH1 0x1F DUP5 ADD SLT PUSH2 0x4D9D JUMPI PUSH0 DUP1 REVERT JUMPDEST POP DUP2 CALLDATALOAD PUSH1 0x1 PUSH1 0x1 PUSH1 0x40 SHL SUB DUP2 GT ISZERO PUSH2 0x4DB3 JUMPI PUSH0 DUP1 REVERT JUMPDEST PUSH1 0x20 DUP4 ADD SWAP2 POP DUP4 PUSH1 0x20 DUP3 DUP6 ADD ADD GT ISZERO PUSH2 0x4DCA JUMPI PUSH0 DUP1 REVERT JUMPDEST SWAP3 POP SWAP3 SWAP1 POP JUMP JUMPDEST PUSH0 DUP1 PUSH0 DUP1 PUSH0 DUP1 PUSH1 0x60 DUP8 DUP10 SUB SLT ISZERO PUSH2 0x4DE6 JUMPI PUSH0 DUP1 REVERT JUMPDEST DUP7 CALLDATALOAD PUSH1 0x1 PUSH1 0x1 PUSH1 0x40 SHL SUB DUP2 GT ISZERO PUSH2 0x4DFB JUMPI PUSH0 DUP1 REVERT JUMPDEST PUSH2 0x4E07 DUP10 DUP3 DUP11 ADD PUSH2 0x4D8D JUMP JUMPDEST SWAP1 SWAP8 POP SWAP6 POP POP PUSH1 0x20 DUP8 ADD CALLDATALOAD PUSH1 0x1 PUSH1 0x1 PUSH1 0x40 SHL SUB DUP2 GT ISZERO PUSH2 0x4E25 JUMPI PUSH0 DUP1 REVERT JUMPDEST PUSH2 0x4E31 DUP10 DUP3 DUP11 ADD PUSH2 0x4D8D JUMP JUMPDEST SWAP1 SWAP6 POP SWAP4 POP POP PUSH1 0x40 DUP8 ADD CALLDATALOAD PUSH1 0x1 PUSH1 0x1 PUSH1 0x40 SHL SUB DUP2 GT ISZERO PUSH2 0x4E4F JUMPI PUSH0 DUP1 REVERT JUMPDEST PUSH2 0x4E5B DUP10 DUP3 DUP11 ADD PUSH2 0x4D8D JUMP JUMPDEST SWAP8 SWAP11 SWAP7 SWAP10 POP SWAP5 SWAP8 POP SWAP3 SWAP6 SWAP4 SWAP5 SWAP3 POP POP POP JUMP JUMPDEST PUSH1 0x1 PUSH1 0x1 PUSH1 0xA0 SHL SUB DUP2 AND DUP2 EQ PUSH2 0x4CEE JUMPI PUSH0 DUP1 REVERT JUMPDEST PUSH0 PUSH1 0x20 DUP3 DUP5 SUB SLT ISZERO PUSH2 0x4E91 JUMPI PUSH0 DUP1 REVERT JUMPDEST DUP2 CALLDATALOAD PUSH2 0x4E9C DUP2 PUSH2 0x4E6D JUMP JUMPDEST SWAP4 SWAP3 POP POP POP JUMP JUMPDEST DUP1 CALLDATALOAD PUSH2 0xFFFF DUP2 AND DUP2 EQ PUSH2 0x4EB4 JUMPI PUSH0 DUP1 REVERT JUMPDEST SWAP2 SWAP1 POP JUMP JUMPDEST DUP1 CALLDATALOAD PUSH1 0xFF DUP2 AND DUP2 EQ PUSH2 0x4EB4 JUMPI PUSH0 DUP1 REVERT JUMPDEST DUP1 CALLDATALOAD DUP1 ISZERO ISZERO DUP2 EQ PUSH2 0x4EB4 JUMPI PUSH0 DUP1 REVERT JUMPDEST PUSH0 DUP1 PUSH0 DUP1 PUSH1 0x80 DUP6 DUP8 SUB SLT ISZERO PUSH2 0x4EEB JUMPI PUSH0 DUP1 REVERT JUMPDEST DUP5 CALLDATALOAD PUSH2 0x4EF6 DUP2 PUSH2 0x4E6D JUMP JUMPDEST SWAP4 POP PUSH2 0x4F04 PUSH1 0x20 DUP7 ADD PUSH2 0x4EA3 JUMP JUMPDEST SWAP3 POP PUSH2 0x4F12 PUSH1 0x40 DUP7 ADD PUSH2 0x4EB9 JUMP JUMPDEST SWAP2 POP PUSH2 0x4F20 PUSH1 0x60 DUP7 ADD PUSH2 0x4EC9 JUMP JUMPDEST SWAP1 POP SWAP3 SWAP6 SWAP2 SWAP5 POP SWAP3 POP JUMP JUMPDEST PUSH0 DUP1 PUSH1 0x40 DUP4 DUP6 SUB SLT ISZERO PUSH2 0x4F3C JUMPI PUSH0 DUP1 REVERT JUMPDEST DUP3 CALLDATALOAD PUSH2 0x4F47 DUP2 PUSH2 0x4E6D JUMP JUMPDEST SWAP2 POP PUSH1 0x20 DUP4 ADD CALLDATALOAD PUSH0 DUP2 SWAP1 SIGNEXTEND DUP2 EQ PUSH2 0x4F5C JUMPI PUSH0 DUP1 REVERT JUMPDEST DUP1 SWAP2 POP POP SWAP3 POP SWAP3 SWAP1 POP JUMP JUMPDEST PUSH0 DUP1 DUP4 PUSH1 0x1F DUP5 ADD SLT PUSH2 0x4F77 JUMPI PUSH0 DUP1 REVERT JUMPDEST POP DUP2 CALLDATALOAD PUSH1 0x1 PUSH1 0x1 PUSH1 0x40 SHL SUB DUP2 GT ISZERO PUSH2 0x4F8D JUMPI PUSH0 DUP1 REVERT JUMPDEST PUSH1 0x20 DUP4 ADD SWAP2 POP DUP4 PUSH1 0x20 DUP3 PUSH1 0x5 SHL DUP6 ADD ADD GT ISZERO PUSH2 0x4DCA JUMPI PUSH0 DUP1 REVERT JUMPDEST PUSH0 DUP1 PUSH0 DUP1 PUSH1 0x40 DUP6 DUP8 SUB SLT ISZERO PUSH2 0x4FBA JUMPI PUSH0 DUP1 REVERT JUMPDEST DUP5 CALLDATALOAD PUSH1 0x1 PUSH1 0x1 PUSH1 0x40 SHL SUB DUP2 GT ISZERO PUSH2 0x4FCF JUMPI PUSH0 DUP1 REVERT JUMPDEST PUSH2 0x4FDB DUP8 DUP3 DUP9 ADD PUSH2 0x4D8D JUMP JUMPDEST SWAP1 SWAP6 POP SWAP4 POP POP PUSH1 0x20 DUP6 ADD CALLDATALOAD PUSH1 0x1 PUSH1 0x1 PUSH1 0x40 SHL SUB DUP2 GT ISZERO PUSH2 0x4FF9 JUMPI PUSH0 DUP1 REVERT JUMPDEST PUSH2 0x5005 DUP8 DUP3 DUP9 ADD PUSH2 0x4F67 JUMP JUMPDEST SWAP6 SWAP9 SWAP5 SWAP8 POP SWAP6 POP POP POP POP JUMP JUMPDEST PUSH0 DUP3 DUP3 MLOAD DUP1 DUP6 MSTORE PUSH1 0x20 DUP6 ADD SWAP5 POP PUSH1 0x20 DUP2 PUSH1 0x5 SHL DUP4 ADD ADD PUSH1 0x20 DUP6 ADD PUSH0 JUMPDEST DUP4 DUP2 LT ISZERO PUSH2 0x505F JUMPI PUSH1 0x1F NOT DUP6 DUP5 SUB ADD DUP9 MSTORE PUSH2 0x5049 DUP4 DUP4 MLOAD PUSH2 0x4D1C JUMP JUMPDEST PUSH1 0x20 SWAP9 DUP10 ADD SWAP9 SWAP1 SWAP4 POP SWAP2 SWAP1 SWAP2 ADD SWAP1 PUSH1 0x1 ADD PUSH2 0x502D JUMP JUMPDEST POP SWAP1 SWAP7 SWAP6 POP POP POP POP POP POP JUMP JUMPDEST PUSH0 DUP2 MLOAD PUSH2 0x100 DUP5 MSTORE PUSH2 0x5081 PUSH2 0x100 DUP6 ADD DUP3 PUSH2 0x4D1C JUMP JUMPDEST SWAP1 POP PUSH1 0x20 DUP4 ADD MLOAD DUP5 DUP3 SUB PUSH1 0x20 DUP7 ADD MSTORE PUSH2 0x509A DUP3 DUP3 PUSH2 0x4D1C JUMP JUMPDEST SWAP2 POP POP PUSH1 0x40 DUP4 ADD MLOAD DUP5 DUP3 SUB PUSH1 0x40 DUP7 ADD MSTORE PUSH2 0x50B4 DUP3 DUP3 PUSH2 0x4D1C JUMP JUMPDEST SWAP2 POP POP PUSH1 0x60 DUP4 ADD MLOAD DUP5 DUP3 SUB PUSH1 0x60 DUP7 ADD MSTORE PUSH2 0x50CE DUP3 DUP3 PUSH2 0x5011 JUMP JUMPDEST SWAP2 POP POP PUSH1 0x80 DUP4 ADD MLOAD PUSH1 0x80 DUP6 ADD MSTORE PUSH1 0xA0 DUP4 ADD MLOAD DUP5 DUP3 SUB PUSH1 0xA0 DUP7 ADD MSTORE PUSH2 0x50F2 DUP3 DUP3 PUSH2 0x4D1C JUMP JUMPDEST SWAP2 POP POP PUSH1 0xC0 DUP4 ADD MLOAD PUSH1 0xC0 DUP6 ADD MSTORE PUSH1 0xE0 DUP4 ADD MLOAD PUSH1 0xE0 DUP6 ADD MSTORE DUP1 SWAP2 POP POP SWAP3 SWAP2 POP POP JUMP JUMPDEST DUP3 DUP2 MSTORE PUSH1 0x40 PUSH1 0x20 DUP3 ADD MSTORE PUSH0 PUSH2 0x390F PUSH1 0x40 DUP4 ADD DUP5 PUSH2 0x506B JUMP JUMPDEST DUP1 PUSH2 0x140 DUP2 ADD DUP4 LT ISZERO PUSH2 0x513C JUMPI PUSH0 DUP1 REVERT JUMPDEST SWAP3 SWAP2 POP POP JUMP JUMPDEST PUSH0 DUP1 PUSH2 0x280 DUP4 DUP6 SUB SLT ISZERO PUSH2 0x5154 JUMPI PUSH0 DUP1 REVERT JUMPDEST PUSH2 0x515E DUP5 DUP5 PUSH2 0x512B JUMP JUMPDEST SWAP2 POP PUSH2 0x516E DUP5 PUSH2 0x140 DUP6 ADD PUSH2 0x512B JUMP JUMPDEST SWAP1 POP SWAP3 POP SWAP3 SWAP1 POP JUMP JUMPDEST PUSH0 DUP1 PUSH1 0x40 DUP4 DUP6 SUB SLT ISZERO PUSH2 0x5188 JUMPI PUSH0 DUP1 REVERT JUMPDEST DUP3 CALLDATALOAD PUSH2 0x5193 DUP2 PUSH2 0x4E6D JUMP JUMPDEST SWAP5 PUSH1 0x20 SWAP4 SWAP1 SWAP4 ADD CALLDATALOAD SWAP4 POP POP POP JUMP JUMPDEST PUSH1 0x20 DUP2 MSTORE PUSH0 DUP3 MLOAD PUSH2 0x120 PUSH1 0x20 DUP5 ADD MSTORE PUSH2 0x51BE PUSH2 0x140 DUP5 ADD DUP3 PUSH2 0x4D1C JUMP JUMPDEST SWAP1 POP PUSH1 0x20 DUP5 ADD MLOAD PUSH1 0x1F NOT DUP5 DUP4 SUB ADD PUSH1 0x40 DUP6 ADD MSTORE PUSH2 0x51DB DUP3 DUP3 PUSH2 0x4D1C JUMP JUMPDEST SWAP2 POP POP PUSH1 0x40 DUP5 ADD MLOAD PUSH1 0x1F NOT DUP5 DUP4 SUB ADD PUSH1 0x60 DUP6 ADD MSTORE PUSH2 0x51F9 DUP3 DUP3 PUSH2 0x4D1C JUMP JUMPDEST SWAP2 POP POP PUSH1 0x60 DUP5 ADD MLOAD PUSH1 0x80 DUP5 ADD MSTORE PUSH1 0x80 DUP5 ADD MLOAD PUSH2 0x521B PUSH1 0xA0 DUP6 ADD DUP3 PUSH2 0xFFFF AND SWAP1 MSTORE JUMP JUMPDEST POP PUSH1 0xA0 DUP5 ADD MLOAD PUSH1 0xFF DUP2 AND PUSH1 0xC0 DUP6 ADD MSTORE POP PUSH1 0xC0 DUP5 ADD MLOAD PUSH1 0xE0 DUP5 ADD MSTORE PUSH1 0xE0 DUP5 ADD MLOAD PUSH2 0x524B PUSH2 0x100 DUP6 ADD DUP3 PUSH2 0xFFFF AND SWAP1 MSTORE JUMP JUMPDEST POP PUSH2 0x100 DUP5 ADD MLOAD PUSH2 0xFFFF DUP2 AND PUSH2 0x120 DUP6 ADD MSTORE PUSH2 0x3502 JUMP JUMPDEST PUSH4 0x4E487B71 PUSH1 0xE0 SHL PUSH0 MSTORE PUSH1 0x21 PUSH1 0x4 MSTORE PUSH1 0x24 PUSH0 REVERT JUMPDEST PUSH1 0x20 DUP2 ADD PUSH1 0x6 DUP4 LT PUSH2 0x5296 JUMPI PUSH4 0x4E487B71 PUSH1 0xE0 SHL PUSH0 MSTORE PUSH1 0x21 PUSH1 0x4 MSTORE PUSH1 0x24 PUSH0 REVERT JUMPDEST SWAP2 SWAP1 MSTORE SWAP1 JUMP JUMPDEST PUSH0 DUP1 PUSH1 0x20 DUP4 DUP6 SUB SLT ISZERO PUSH2 0x52AD JUMPI PUSH0 DUP1 REVERT JUMPDEST DUP3 CALLDATALOAD PUSH1 0x1 PUSH1 0x1 PUSH1 0x40 SHL SUB DUP2 GT ISZERO PUSH2 0x52C2 JUMPI PUSH0 DUP1 REVERT JUMPDEST PUSH2 0x52CE DUP6 DUP3 DUP7 ADD PUSH2 0x4F67 JUMP JUMPDEST SWAP1 SWAP7 SWAP1 SWAP6 POP SWAP4 POP POP POP POP JUMP JUMPDEST PUSH4 0x4E487B71 PUSH1 0xE0 SHL PUSH0 MSTORE PUSH1 0x41 PUSH1 0x4 MSTORE PUSH1 0x24 PUSH0 REVERT JUMPDEST PUSH1 0x40 MLOAD PUSH2 0x100 DUP2 ADD PUSH1 0x1 PUSH1 0x1 PUSH1 0x40 SHL SUB DUP2 GT DUP3 DUP3 LT OR ISZERO PUSH2 0x5311 JUMPI PUSH2 0x5311 PUSH2 0x52DA JUMP JUMPDEST PUSH1 0x40 MSTORE SWAP1 JUMP JUMPDEST PUSH1 0x40 MLOAD PUSH1 0x1F DUP3 ADD PUSH1 0x1F NOT AND DUP2 ADD PUSH1 0x1 PUSH1 0x1 PUSH1 0x40 SHL SUB DUP2 GT DUP3 DUP3 LT OR ISZERO PUSH2 0x533F JUMPI PUSH2 0x533F PUSH2 0x52DA JUMP JUMPDEST PUSH1 0x40 MSTORE SWAP2 SWAP1 POP JUMP JUMPDEST PUSH0 DUP3 PUSH1 0x1F DUP4 ADD SLT PUSH2 0x5356 JUMPI PUSH0 DUP1 REVERT JUMPDEST DUP2 CALLDATALOAD PUSH1 0x1 PUSH1 0x1 PUSH1 0x40 SHL SUB DUP2 GT ISZERO PUSH2 0x536F JUMPI PUSH2 0x536F PUSH2 0x52DA JUMP JUMPDEST PUSH2 0x5382 PUSH1 0x1F DUP3 ADD PUSH1 0x1F NOT AND PUSH1 0x20 ADD PUSH2 0x5317 JUMP JUMPDEST DUP2 DUP2 MSTORE DUP5 PUSH1 0x20 DUP4 DUP7 ADD ADD GT ISZERO PUSH2 0x5396 JUMPI PUSH0 DUP1 REVERT JUMPDEST DUP2 PUSH1 0x20 DUP6 ADD PUSH1 0x20 DUP4 ADD CALLDATACOPY PUSH0 SWAP2 DUP2 ADD PUSH1 0x20 ADD SWAP2 SWAP1 SWAP2 MSTORE SWAP4 SWAP3 POP POP POP JUMP JUMPDEST PUSH0 DUP3 PUSH1 0x1F DUP4 ADD SLT PUSH2 0x53C1 JUMPI PUSH0 DUP1 REVERT JUMPDEST DUP2 CALLDATALOAD PUSH1 0x1 PUSH1 0x1 PUSH1 0x40 SHL SUB DUP2 GT ISZERO PUSH2 0x53DA JUMPI PUSH2 0x53DA PUSH2 0x52DA JUMP JUMPDEST DUP1 PUSH1 0x5 SHL PUSH2 0x53EA PUSH1 0x20 DUP3 ADD PUSH2 0x5317 JUMP JUMPDEST SWAP2 DUP3 MSTORE PUSH1 0x20 DUP2 DUP6 ADD DUP2 ADD SWAP3 SWAP1 DUP2 ADD SWAP1 DUP7 DUP5 GT ISZERO PUSH2 0x5405 JUMPI PUSH0 DUP1 REVERT JUMPDEST PUSH1 0x20 DUP7 ADD SWAP3 POP JUMPDEST DUP4 DUP4 LT ISZERO PUSH2 0x544A JUMPI DUP3 CALLDATALOAD PUSH1 0x1 PUSH1 0x1 PUSH1 0x40 SHL SUB DUP2 GT ISZERO PUSH2 0x5429 JUMPI PUSH0 DUP1 REVERT JUMPDEST PUSH2 0x5438 DUP9 PUSH1 0x20 DUP4 DUP11 ADD ADD PUSH2 0x5347 JUMP JUMPDEST DUP4 MSTORE POP PUSH1 0x20 SWAP3 DUP4 ADD SWAP3 SWAP1 SWAP2 ADD SWAP1 PUSH2 0x540C JUMP JUMPDEST SWAP7 SWAP6 POP POP POP POP POP POP JUMP JUMPDEST PUSH0 PUSH1 0x20 DUP3 DUP5 SUB SLT ISZERO PUSH2 0x5464 JUMPI PUSH0 DUP1 REVERT JUMPDEST DUP2 CALLDATALOAD PUSH1 0x1 PUSH1 0x1 PUSH1 0x40 SHL SUB DUP2 GT ISZERO PUSH2 0x5479 JUMPI PUSH0 DUP1 REVERT JUMPDEST DUP3 ADD PUSH2 0x100 DUP2 DUP6 SUB SLT ISZERO PUSH2 0x548B JUMPI PUSH0 DUP1 REVERT JUMPDEST PUSH2 0x5493 PUSH2 0x52EE JUMP JUMPDEST DUP2 CALLDATALOAD PUSH1 0x1 PUSH1 0x1 PUSH1 0x40 SHL SUB DUP2 GT ISZERO PUSH2 0x54A8 JUMPI PUSH0 DUP1 REVERT JUMPDEST PUSH2 0x54B4 DUP7 DUP3 DUP6 ADD PUSH2 0x5347 JUMP JUMPDEST DUP3 MSTORE POP PUSH1 0x20 DUP3 ADD CALLDATALOAD PUSH1 0x1 PUSH1 0x1 PUSH1 0x40 SHL SUB DUP2 GT ISZERO PUSH2 0x54CF JUMPI PUSH0 DUP1 REVERT JUMPDEST PUSH2 0x54DB DUP7 DUP3 DUP6 ADD PUSH2 0x5347 JUMP JUMPDEST PUSH1 0x20 DUP4 ADD MSTORE POP PUSH1 0x40 DUP3 ADD CALLDATALOAD PUSH1 0x1 PUSH1 0x1 PUSH1 0x40 SHL SUB DUP2 GT ISZERO PUSH2 0x54F9 JUMPI PUSH0 DUP1 REVERT JUMPDEST PUSH2 0x5505 DUP7 DUP3 DUP6 ADD PUSH2 0x5347 JUMP JUMPDEST PUSH1 0x40 DUP4 ADD MSTORE POP PUSH1 0x60 DUP3 ADD CALLDATALOAD PUSH1 0x1 PUSH1 0x1 PUSH1 0x40 SHL SUB DUP2 GT ISZERO PUSH2 0x5523 JUMPI PUSH0 DUP1 REVERT JUMPDEST PUSH2 0x552F DUP7 DUP3 DUP6 ADD PUSH2 0x53B2 JUMP JUMPDEST PUSH1 0x60 DUP4 ADD MSTORE POP PUSH1 0x80 DUP3 DUP2 ADD CALLDATALOAD SWAP1 DUP3 ADD MSTORE PUSH1 0xA0 DUP3 ADD CALLDATALOAD PUSH1 0x1 PUSH1 0x1 PUSH1 0x40 SHL SUB DUP2 GT ISZERO PUSH2 0x5557 JUMPI PUSH0 DUP1 REVERT JUMPDEST PUSH2 0x5563 DUP7 DUP3 DUP6 ADD PUSH2 0x5347 JUMP JUMPDEST PUSH1 0xA0 DUP4 ADD MSTORE POP PUSH1 0xC0 DUP3 DUP2 ADD CALLDATALOAD SWAP1 DUP3 ADD MSTORE PUSH1 0xE0 SWAP2 DUP3 ADD CALLDATALOAD SWAP2 DUP2 ADD SWAP2 SWAP1 SWAP2 MSTORE SWAP4 SWAP3 POP POP POP JUMP JUMPDEST PUSH1 0xE0 DUP2 MSTORE PUSH0 PUSH2 0x5599 PUSH1 0xE0 DUP4 ADD DUP11 PUSH2 0x4D1C JUMP JUMPDEST DUP3 DUP2 SUB PUSH1 0x20 DUP5 ADD MSTORE PUSH2 0x55AB DUP2 DUP11 PUSH2 0x4D1C JUMP JUMPDEST SWAP1 POP DUP3 DUP2 SUB PUSH1 0x40 DUP5 ADD MSTORE PUSH2 0x55BF DUP2 DUP10 PUSH2 0x4D1C JUMP JUMPDEST SWAP1 POP DUP7 PUSH1 0x60 DUP5 ADD MSTORE DUP3 DUP2 SUB PUSH1 0x80 DUP5 ADD MSTORE PUSH2 0x55D9 DUP2 DUP8 PUSH2 0x4D1C JUMP JUMPDEST PUSH1 0xA0 DUP5 ADD SWAP6 SWAP1 SWAP6 MSTORE POP POP PUSH1 0xC0 ADD MSTORE SWAP6 SWAP5 POP POP POP POP POP JUMP JUMPDEST PUSH0 DUP1 PUSH1 0x40 DUP4 DUP6 SUB SLT ISZERO PUSH2 0x5601 JUMPI PUSH0 DUP1 REVERT JUMPDEST POP POP DUP1 CALLDATALOAD SWAP3 PUSH1 0x20 SWAP1 SWAP2 ADD CALLDATALOAD SWAP2 POP JUMP JUMPDEST PUSH2 0x120 DUP2 MSTORE PUSH0 PUSH2 0x5624 PUSH2 0x120 DUP4 ADD DUP13 PUSH2 0x4D1C JUMP JUMPDEST DUP3 DUP2 SUB PUSH1 0x20 DUP5 ADD MSTORE PUSH2 0x5636 DUP2 DUP13 PUSH2 0x4D1C JUMP JUMPDEST SWAP1 POP DUP3 DUP2 SUB PUSH1 0x40 DUP5 ADD MSTORE PUSH2 0x564A DUP2 DUP12 PUSH2 0x4D1C JUMP JUMPDEST PUSH1 0x60 DUP5 ADD SWAP10 SWAP1 SWAP10 MSTORE POP POP PUSH2 0xFFFF SWAP6 DUP7 AND PUSH1 0x80 DUP3 ADD MSTORE PUSH1 0xFF SWAP5 SWAP1 SWAP5 AND PUSH1 0xA0 DUP6 ADD MSTORE PUSH1 0xC0 DUP5 ADD SWAP3 SWAP1 SWAP3 MSTORE DUP4 AND PUSH1 0xE0 DUP4 ADD MSTORE SWAP1 SWAP2 AND PUSH2 0x100 SWAP1 SWAP2 ADD MSTORE SWAP4 SWAP3 POP POP POP JUMP JUMPDEST PUSH0 DUP1 PUSH2 0x500 DUP4 DUP6 SUB SLT ISZERO PUSH2 0x569C JUMPI PUSH0 DUP1 REVERT JUMPDEST PUSH2 0x56A6 DUP5 DUP5 PUSH2 0x512B JUMP JUMPDEST SWAP2 POP DUP4 PUSH2 0x500 DUP5 ADD GT ISZERO PUSH2 0x56B8 JUMPI PUSH0 DUP1 REVERT JUMPDEST POP SWAP3 PUSH2 0x140 SWAP2 SWAP1 SWAP2 ADD SWAP2 POP JUMP JUMPDEST PUSH1 0x20 DUP1 DUP3 MSTORE DUP3 MLOAD DUP3 DUP3 ADD DUP2 SWAP1 MSTORE PUSH0 SWAP2 DUP5 ADD SWAP1 PUSH1 0x40 DUP5 ADD SWAP1 DUP4 JUMPDEST DUP2 DUP2 LT ISZERO PUSH2 0x5705 JUMPI DUP4 MLOAD PUSH1 0x1 PUSH1 0x1 PUSH1 0xA0 SHL SUB AND DUP4 MSTORE PUSH1 0x20 SWAP4 DUP5 ADD SWAP4 SWAP1 SWAP3 ADD SWAP2 PUSH1 0x1 ADD PUSH2 0x56DE JUMP JUMPDEST POP SWAP1 SWAP6 SWAP5 POP POP POP POP POP JUMP JUMPDEST PUSH1 0x1 DUP2 DUP2 SHR SWAP1 DUP3 AND DUP1 PUSH2 0x5724 JUMPI PUSH1 0x7F DUP3 AND SWAP2 POP JUMPDEST PUSH1 0x20 DUP3 LT DUP2 SUB PUSH2 0x5742 JUMPI PUSH4 0x4E487B71 PUSH1 0xE0 SHL PUSH0 MSTORE PUSH1 0x22 PUSH1 0x4 MSTORE PUSH1 0x24 PUSH0 REVERT JUMPDEST POP SWAP2 SWAP1 POP JUMP JUMPDEST PUSH4 0x4E487B71 PUSH1 0xE0 SHL PUSH0 MSTORE PUSH1 0x32 PUSH1 0x4 MSTORE PUSH1 0x24 PUSH0 REVERT JUMPDEST PUSH4 0x4E487B71 PUSH1 0xE0 SHL PUSH0 MSTORE PUSH1 0x11 PUSH1 0x4 MSTORE PUSH1 0x24 PUSH0 REVERT JUMPDEST PUSH0 PUSH1 0xFF DUP3 AND PUSH1 0xFF DUP2 SUB PUSH2 0x5785 JUMPI PUSH2 0x5785 PUSH2 0x575C JUMP JUMPDEST PUSH1 0x1 ADD SWAP3 SWAP2 POP POP JUMP JUMPDEST DUP2 DUP2 SUB DUP2 DUP2 GT ISZERO PUSH2 0x513C JUMPI PUSH2 0x513C PUSH2 0x575C JUMP JUMPDEST PUSH1 0x1F DUP3 GT ISZERO PUSH2 0x4C4A JUMPI DUP1 PUSH0 MSTORE PUSH1 0x20 PUSH0 KECCAK256 PUSH1 0x1F DUP5 ADD PUSH1 0x5 SHR DUP2 ADD PUSH1 0x20 DUP6 LT ISZERO PUSH2 0x57C6 JUMPI POP DUP1 JUMPDEST PUSH1 0x1F DUP5 ADD PUSH1 0x5 SHR DUP3 ADD SWAP2 POP JUMPDEST DUP2 DUP2 LT ISZERO PUSH2 0x57E5 JUMPI PUSH0 DUP2 SSTORE PUSH1 0x1 ADD PUSH2 0x57D2 JUMP JUMPDEST POP POP POP POP POP JUMP JUMPDEST PUSH0 NOT PUSH1 0x3 DUP4 SWAP1 SHL SHR NOT AND PUSH1 0x1 SWAP2 SWAP1 SWAP2 SHL OR SWAP1 JUMP JUMPDEST PUSH1 0x1 PUSH1 0x1 PUSH1 0x40 SHL SUB DUP4 GT ISZERO PUSH2 0x5817 JUMPI PUSH2 0x5817 PUSH2 0x52DA JUMP JUMPDEST PUSH2 0x582B DUP4 PUSH2 0x5825 DUP4 SLOAD PUSH2 0x5710 JUMP JUMPDEST DUP4 PUSH2 0x57A1 JUMP JUMPDEST PUSH0 PUSH1 0x1F DUP5 GT PUSH1 0x1 DUP2 EQ PUSH2 0x5857 JUMPI PUSH0 DUP6 ISZERO PUSH2 0x5845 JUMPI POP DUP4 DUP3 ADD CALLDATALOAD JUMPDEST PUSH2 0x584F DUP7 DUP3 PUSH2 0x57EC JUMP JUMPDEST DUP5 SSTORE POP PUSH2 0x57E5 JUMP JUMPDEST PUSH0 DUP4 DUP2 MSTORE PUSH1 0x20 DUP2 KECCAK256 PUSH1 0x1F NOT DUP8 AND SWAP2 JUMPDEST DUP3 DUP2 LT ISZERO PUSH2 0x5886 JUMPI DUP7 DUP6 ADD CALLDATALOAD DUP3 SSTORE PUSH1 0x20 SWAP5 DUP6 ADD SWAP5 PUSH1 0x1 SWAP1 SWAP3 ADD SWAP2 ADD PUSH2 0x5866 JUMP JUMPDEST POP DUP7 DUP3 LT ISZERO PUSH2 0x58A2 JUMPI PUSH0 NOT PUSH1 0xF8 DUP9 PUSH1 0x3 SHL AND SHR NOT DUP5 DUP8 ADD CALLDATALOAD AND DUP2 SSTORE JUMPDEST POP POP PUSH1 0x1 DUP6 PUSH1 0x1 SHL ADD DUP4 SSTORE POP POP POP POP POP JUMP JUMPDEST DUP2 DUP4 MSTORE DUP2 DUP2 PUSH1 0x20 DUP6 ADD CALLDATACOPY POP PUSH0 DUP3 DUP3 ADD PUSH1 0x20 SWAP1 DUP2 ADD SWAP2 SWAP1 SWAP2 MSTORE PUSH1 0x1F SWAP1 SWAP2 ADD PUSH1 0x1F NOT AND SWAP1 SWAP2 ADD ADD SWAP1 JUMP JUMPDEST PUSH1 0x60 DUP2 MSTORE PUSH0 PUSH2 0x58EF PUSH1 0x60 DUP4 ADD DUP9 DUP11 PUSH2 0x58B4 JUMP JUMPDEST DUP3 DUP2 SUB PUSH1 0x20 DUP5 ADD MSTORE PUSH2 0x5902 DUP2 DUP8 DUP10 PUSH2 0x58B4 JUMP JUMPDEST SWAP1 POP DUP3 DUP2 SUB PUSH1 0x40 DUP5 ADD MSTORE PUSH2 0x5917 DUP2 DUP6 DUP8 PUSH2 0x58B4 JUMP JUMPDEST SWAP10 SWAP9 POP POP POP POP POP POP POP POP POP JUMP JUMPDEST DUP1 DUP3 ADD DUP3 DUP2 SLT PUSH0 DUP4 SLT DUP1 ISZERO DUP3 AND DUP3 ISZERO DUP3 AND OR ISZERO PUSH2 0x5943 JUMPI PUSH2 0x5943 PUSH2 0x575C JUMP JUMPDEST POP POP SWAP3 SWAP2 POP POP JUMP JUMPDEST PUSH0 PUSH2 0xFFFF DUP3 AND PUSH2 0xFFFF DUP2 SUB PUSH2 0x5785 JUMPI PUSH2 0x5785 PUSH2 0x575C JUMP JUMPDEST PUSH1 0xF0 SWAP4 SWAP1 SWAP4 SHL PUSH1 0x1 PUSH1 0x1 PUSH1 0xF0 SHL SUB NOT AND DUP4 MSTORE PUSH1 0xF8 SWAP2 DUP3 SHL PUSH1 0x1 PUSH1 0x1 PUSH1 0xF8 SHL SUB NOT AND PUSH1 0x2 DUP5 ADD MSTORE ISZERO ISZERO SWAP1 SHL PUSH1 0x3 DUP3 ADD MSTORE PUSH1 0x4 ADD SWAP1 JUMP JUMPDEST PUSH0 PUSH1 0x1 DUP3 ADD PUSH2 0x59A8 JUMPI PUSH2 0x59A8 PUSH2 0x575C JUMP JUMPDEST POP PUSH1 0x1 ADD SWAP1 JUMP JUMPDEST PUSH0 DUP2 PUSH2 0x59BD JUMPI PUSH2 0x59BD PUSH2 0x575C JUMP JUMPDEST POP PUSH0 NOT ADD SWAP1 JUMP JUMPDEST PUSH0 DUP3 DUP2 SIGNEXTEND SWAP1 DUP3 SWAP1 SIGNEXTEND SUB PUSH1 0x7F NOT DUP2 SLT PUSH1 0x7F DUP3 SGT OR ISZERO PUSH2 0x513C JUMPI PUSH2 0x513C PUSH2 0x575C JUMP JUMPDEST PUSH0 DUP3 CALLDATALOAD PUSH1 0x5E NOT DUP4 CALLDATASIZE SUB ADD DUP2 SLT PUSH2 0x59F8 JUMPI PUSH0 DUP1 REVERT JUMPDEST SWAP2 SWAP1 SWAP2 ADD SWAP3 SWAP2 POP POP JUMP JUMPDEST DUP2 CALLDATALOAD DUP2 SSTORE PUSH1 0x1 DUP2 ADD PUSH1 0x20 DUP4 ADD CALLDATALOAD PUSH2 0x5A18 DUP2 PUSH2 0x4E6D JUMP JUMPDEST DUP2 SLOAD PUSH1 0x1 PUSH1 0x1 PUSH1 0xA0 SHL SUB NOT AND PUSH1 0x1 PUSH1 0x1 PUSH1 0xA0 SHL SUB SWAP2 SWAP1 SWAP2 AND OR SWAP1 SSTORE PUSH1 0x40 DUP3 ADD CALLDATALOAD CALLDATASIZE DUP4 SWAP1 SUB PUSH1 0x1E NOT ADD DUP2 SLT PUSH2 0x5A4A JUMPI PUSH0 DUP1 REVERT JUMPDEST DUP3 ADD DUP1 CALLDATALOAD PUSH1 0x1 PUSH1 0x1 PUSH1 0x40 SHL SUB DUP2 GT ISZERO PUSH2 0x5A61 JUMPI PUSH0 DUP1 REVERT JUMPDEST PUSH1 0x20 DUP3 ADD SWAP2 POP DUP1 CALLDATASIZE SUB DUP3 SGT ISZERO PUSH2 0x5A75 JUMPI PUSH0 DUP1 REVERT JUMPDEST PUSH1 0x2 DUP4 ADD PUSH1 0x1 PUSH1 0x1 PUSH1 0x40 SHL SUB DUP3 GT ISZERO PUSH2 0x5A90 JUMPI PUSH2 0x5A90 PUSH2 0x52DA JUMP JUMPDEST PUSH2 0x5A9E DUP3 PUSH2 0x5825 DUP4 SLOAD PUSH2 0x5710 JUMP JUMPDEST PUSH0 PUSH1 0x1F DUP4 GT PUSH1 0x1 DUP2 EQ PUSH2 0x5ACA JUMPI PUSH0 DUP5 ISZERO PUSH2 0x5AB8 JUMPI POP DUP5 DUP3 ADD CALLDATALOAD JUMPDEST PUSH2 0x5AC2 DUP6 DUP3 PUSH2 0x57EC JUMP JUMPDEST DUP5 SSTORE POP PUSH2 0x5B21 JUMP JUMPDEST PUSH0 DUP4 DUP2 MSTORE PUSH1 0x20 DUP2 KECCAK256 PUSH1 0x1F NOT DUP7 AND SWAP2 JUMPDEST DUP3 DUP2 LT ISZERO PUSH2 0x5AF9 JUMPI DUP8 DUP6 ADD CALLDATALOAD DUP3 SSTORE PUSH1 0x20 SWAP5 DUP6 ADD SWAP5 PUSH1 0x1 SWAP1 SWAP3 ADD SWAP2 ADD PUSH2 0x5AD9 JUMP JUMPDEST POP DUP6 DUP3 LT ISZERO PUSH2 0x5B15 JUMPI PUSH0 NOT PUSH1 0xF8 DUP8 PUSH1 0x3 SHL AND SHR NOT DUP5 DUP9 ADD CALLDATALOAD AND DUP2 SSTORE JUMPDEST POP POP PUSH1 0x1 DUP5 PUSH1 0x1 SHL ADD DUP4 SSTORE JUMPDEST POP POP POP POP POP POP POP JUMP JUMPDEST PUSH1 0x20 DUP2 MSTORE PUSH0 PUSH2 0x390F PUSH1 0x20 DUP4 ADD DUP5 DUP7 PUSH2 0x58B4 JUMP JUMPDEST PUSH1 0x20 DUP2 MSTORE PUSH0 PUSH2 0x4E9C PUSH1 0x20 DUP4 ADD DUP5 PUSH2 0x506B JUMP JUMPDEST PUSH4 0xFFFFFFFF DUP2 DUP2 AND DUP4 DUP3 AND ADD SWAP1 DUP2 GT ISZERO PUSH2 0x513C JUMPI PUSH2 0x513C PUSH2 0x575C JUMP JUMPDEST PUSH0 DUP2 DUP4 DUP3 JUMPDEST PUSH1 0xA DUP2 LT ISZERO PUSH2 0x5BA2 JUMPI DUP2 CALLDATALOAD PUSH2 0x5B84 DUP2 PUSH2 0x4E6D JUMP JUMPDEST PUSH1 0x1 PUSH1 0x1 PUSH1 0xA0 SHL SUB AND DUP4 MSTORE PUSH1 0x20 SWAP3 DUP4 ADD SWAP3 SWAP2 SWAP1 SWAP2 ADD SWAP1 PUSH1 0x1 ADD PUSH2 0x5B70 JUMP JUMPDEST POP POP POP PUSH2 0x140 DUP3 ADD SWAP1 POP SWAP3 SWAP2 POP POP JUMP JUMPDEST PUSH1 0xFF DUP2 DUP2 AND DUP4 DUP3 AND MUL SWAP1 DUP2 AND SWAP1 DUP2 DUP2 EQ PUSH2 0x5BCE JUMPI PUSH2 0x5BCE PUSH2 0x575C JUMP JUMPDEST POP SWAP3 SWAP2 POP POP JUMP JUMPDEST DUP1 DUP3 ADD DUP1 DUP3 GT ISZERO PUSH2 0x513C JUMPI PUSH2 0x513C PUSH2 0x575C JUMP JUMPDEST PUSH0 DUP2 MLOAD DUP1 PUSH1 0x20 DUP5 ADD DUP6 MCOPY PUSH0 SWAP4 ADD SWAP3 DUP4 MSTORE POP SWAP1 SWAP2 SWAP1 POP JUMP JUMPDEST PUSH0 PUSH2 0x5C1C PUSH2 0x5C16 PUSH2 0x5C10 DUP5 DUP9 PUSH2 0x5BE8 JUMP JUMPDEST DUP7 PUSH2 0x5BE8 JUMP JUMPDEST DUP5 PUSH2 0x5BE8 JUMP JUMPDEST SWAP6 SWAP5 POP POP POP POP POP JUMP JUMPDEST DUP2 MLOAD PUSH1 0x1 PUSH1 0x1 PUSH1 0x40 SHL SUB DUP2 GT ISZERO PUSH2 0x5C3E JUMPI PUSH2 0x5C3E PUSH2 0x52DA JUMP JUMPDEST PUSH2 0x5C52 DUP2 PUSH2 0x5C4C DUP5 SLOAD PUSH2 0x5710 JUMP JUMPDEST DUP5 PUSH2 0x57A1 JUMP JUMPDEST PUSH1 0x20 PUSH1 0x1F DUP3 GT PUSH1 0x1 DUP2 EQ PUSH2 0x5C7F JUMPI PUSH0 DUP4 ISZERO PUSH2 0x5C6D JUMPI POP DUP5 DUP3 ADD MLOAD JUMPDEST PUSH2 0x5C77 DUP5 DUP3 PUSH2 0x57EC JUMP JUMPDEST DUP6 SSTORE POP PUSH2 0x57E5 JUMP JUMPDEST PUSH0 DUP5 DUP2 MSTORE PUSH1 0x20 DUP2 KECCAK256 PUSH1 0x1F NOT DUP6 AND SWAP2 JUMPDEST DUP3 DUP2 LT ISZERO PUSH2 0x5CAE JUMPI DUP8 DUP6 ADD MLOAD DUP3 SSTORE PUSH1 0x20 SWAP5 DUP6 ADD SWAP5 PUSH1 0x1 SWAP1 SWAP3 ADD SWAP2 ADD PUSH2 0x5C8E JUMP JUMPDEST POP DUP5 DUP3 LT ISZERO PUSH2 0x5CCB JUMPI DUP7 DUP5 ADD MLOAD PUSH0 NOT PUSH1 0x3 DUP8 SWAP1 SHL PUSH1 0xF8 AND SHR NOT AND DUP2 SSTORE JUMPDEST POP POP POP POP PUSH1 0x1 SWAP1 DUP2 SHL ADD SWAP1 SSTORE POP JUMP JUMPDEST PUSH0 PUSH1 0xFF DUP3 AND DUP1 PUSH2 0x5CEC JUMPI PUSH2 0x5CEC PUSH2 0x575C JUMP JUMPDEST PUSH0 NOT ADD SWAP3 SWAP2 POP POP JUMP JUMPDEST PUSH1 0xFF DUP3 DUP2 AND DUP3 DUP3 AND SUB SWAP1 DUP2 GT ISZERO PUSH2 0x513C JUMPI PUSH2 0x513C PUSH2 0x575C JUMP JUMPDEST PUSH1 0xFF DUP2 DUP2 AND DUP4 DUP3 AND ADD SWAP1 DUP2 GT ISZERO PUSH2 0x513C JUMPI PUSH2 0x513C PUSH2 0x575C JUMP JUMPDEST PUSH0 PUSH1 0xFF DUP4 AND DUP1 PUSH2 0x5D45 JUMPI PUSH4 0x4E487B71 PUSH1 0xE0 SHL PUSH0 MSTORE PUSH1 0x12 PUSH1 0x4 MSTORE PUSH1 0x24 PUSH0 REVERT JUMPDEST DUP1 PUSH1 0xFF DUP5 AND DIV SWAP2 POP POP SWAP3 SWAP2 POP POP JUMP JUMPDEST PUSH0 PUSH1 0x20 DUP3 DUP5 SUB SLT ISZERO PUSH2 0x5D64 JUMPI PUSH0 DUP1 REVERT JUMPDEST PUSH2 0x4E9C DUP3 PUSH2 0x4EA3 JUMP JUMPDEST PUSH0 PUSH1 0x20 DUP3 DUP5 SUB SLT ISZERO PUSH2 0x5D7D JUMPI PUSH0 DUP1 REVERT JUMPDEST PUSH2 0x4E9C DUP3 PUSH2 0x4EB9 JUMP JUMPDEST PUSH0 PUSH1 0x20 DUP3 DUP5 SUB SLT ISZERO PUSH2 0x5D96 JUMPI PUSH0 DUP1 REVERT JUMPDEST PUSH2 0x4E9C DUP3 PUSH2 0x4EC9 JUMP JUMPDEST PUSH2 0xFFFF DUP2 DUP2 AND DUP4 DUP3 AND ADD SWAP1 DUP2 GT ISZERO PUSH2 0x513C JUMPI PUSH2 0x513C PUSH2 0x575C JUMP JUMPDEST PUSH0 DUP2 DUP4 SLOAD DUP4 SWAP2 POP DUP5 PUSH0 MSTORE PUSH1 0x20 PUSH0 KECCAK256 PUSH0 JUMPDEST DUP3 DUP2 LT ISZERO PUSH2 0x5DF0 JUMPI DUP2 SLOAD PUSH1 0x1 PUSH1 0x1 PUSH1 0xA0 SHL SUB AND DUP5 MSTORE PUSH1 0x20 SWAP1 SWAP4 ADD SWAP3 PUSH1 0x1 SWAP2 DUP3 ADD SWAP2 ADD PUSH2 0x5DC9 JUMP JUMPDEST POP SWAP2 SWAP6 SWAP5 POP POP POP POP POP JUMP INVALID LOG2 PUSH5 0x6970667358 0x22 SLT KECCAK256 SWAP13 0xC CALLDATASIZE AND MULMOD CALLDATASIZE 0xDF SDIV 0xD6 0xC3 SGT 0xDF 0xA5 CALLCODE DUP5 RETURN EXTCODESIZE 0x2F 0xE5 SLOAD RETURN EXTCODESIZE LOG1 0xB5 PUSH6 0x6D9791162231 0xC9 PUSH5 0x736F6C6343 STOP ADDMOD BYTE STOP CALLER "
		},
		"gasEstimates": {
			"creation": {
				"codeDepositCost": "4822600",
				"executionCost": "infinite",
				"totalCost": "infinite"
			},
			"external": {
				"CAMPAIGN_DURATION()": "285",
				"GOV_LENGTH()": "262",
				"LEAD_PERIOD()": "263",
				"LeaderAddress()": "2459",
				"LeaderId()": "2384",
				"LenderTxns(address,uint256)": "7024",
				"MAX_APPROVALS()": "327",
				"MIN_DRAFTS()": "270",
				"MIN_VOTERS()": "337",
				"NEUTRAL_AGENTS()": "270",
				"N_MEMBERS()": "336",
				"RANDOM_VOTERS()": "315",
				"REG_FEE()": "307",
				"REQUIRED_REG()": "285",
				"REQUIRED_SCORE()": "262",
				"RegistrationEnd()": "2404",
				"SUBMISSION_FEE()": "327",
				"SUPER_MAJORITY()": "337",
				"addVoter(address[10],(uint16,uint8,bool)[10])": "infinite",
				"addedVoterCount()": "2381",
				"agents(uint256)": "2545",
				"approveRegistrar(address,int8)": "80603",
				"candidateInfo(address)": "infinite",
				"candidateList(uint256)": "4679",
				"changeLeader()": "87190",
				"constitutionDrafts(uint256)": "infinite",
				"currentRate()": "2426",
				"electionEnd()": "2406",
				"getBalance()": "infinite",
				"getCandidateInfo(uint256)": "infinite",
				"getCurrentPhase()": "infinite",
				"getElectionResults()": "infinite",
				"getReferendumResults()": "infinite",
				"getVoterStatus(address,uint16,uint8,bool)": "infinite",
				"interestPeriods(uint256)": "6838",
				"isAgent(address)": "2613",
				"lend()": "70301",
				"memberRank(address)": "2658",
				"memberVoted(address,uint256)": "2727",
				"membersElected()": "2378",
				"noRates()": "2402",
				"proposals(uint256)": "infinite",
				"proposeProposal(string,(uint256,address,string)[])": "infinite",
				"proposeRate(uint256)": "infinite",
				"ratifiedConstitutionId()": "2382",
				"referendumEnd()": "2362",
				"referendumVoterCount()": "2379",
				"referendumVotingTime(address)": "2623",
				"registerAsCandidate(string,string,string)": "infinite",
				"registerVoterBatch(address[10],bytes32[10])": "infinite",
				"registrarScore(address)": "2621",
				"sortedRates(uint256)": "4741",
				"startReferendum()": "infinite",
				"startTime()": "infinite",
				"submitDraft((string,string,string,string[],bytes32,string,uint256,uint256))": "infinite",
				"voteCandidates(uint256[])": "infinite",
				"voteForProposal(uint256)": "infinite",
				"voteInReferendum(uint256[])": "infinite",
				"voteTime(address)": "2578",
				"voterRegistrars(bytes32,uint256)": "2633",
				"withdrawProposal(uint256)": "60731"
			}
		},
		"methodIdentifiers": {
			"CAMPAIGN_DURATION()": "08fd4cfa",
			"GOV_LENGTH()": "5004e24a",
			"LEAD_PERIOD()": "49066e79",
			"LeaderAddress()": "b3913777",
			"LeaderId()": "bb2c88a0",
			"LenderTxns(address,uint256)": "53fdc838",
			"MAX_APPROVALS()": "beb54795",
			"MIN_DRAFTS()": "86a0dd7d",
			"MIN_VOTERS()": "d1791ae0",
			"NEUTRAL_AGENTS()": "d7a87e23",
			"N_MEMBERS()": "e292bf16",
			"RANDOM_VOTERS()": "3def77b7",
			"REG_FEE()": "4ebeb109",
			"REQUIRED_REG()": "491de471",
			"REQUIRED_SCORE()": "54c17527",
			"RegistrationEnd()": "be07f0f8",
			"SUBMISSION_FEE()": "7d48536d",
			"SUPER_MAJORITY()": "b85c2292",
			"addVoter(address[10],(uint16,uint8,bool)[10])": "ea84f8c4",
			"addedVoterCount()": "1b408934",
			"agents(uint256)": "513856c8",
			"approveRegistrar(address,int8)": "29c83be1",
			"candidateInfo(address)": "e965b7c9",
			"candidateList(uint256)": "b13c744b",
			"changeLeader()": "a5f5b1bf",
			"constitutionDrafts(uint256)": "bbea6f0b",
			"currentRate()": "f9f8bdb7",
			"electionEnd()": "ce7ea161",
			"getBalance()": "12065fe0",
			"getCandidateInfo(uint256)": "70f67cfe",
			"getCurrentPhase()": "a3a40ea5",
			"getElectionResults()": "eccf1f10",
			"getReferendumResults()": "452d32bb",
			"getVoterStatus(address,uint16,uint8,bool)": "23929cc9",
			"interestPeriods(uint256)": "f33e9573",
			"isAgent(address)": "1ffbb064",
			"lend()": "97dffc61",
			"memberRank(address)": "eab536fc",
			"memberVoted(address,uint256)": "bbb8279d",
			"membersElected()": "089e35b8",
			"noRates()": "c8d7b9f1",
			"proposals(uint256)": "013cf08b",
			"proposeProposal(string,(uint256,address,string)[])": "3b497b28",
			"proposeRate(uint256)": "bdc8e7b3",
			"ratifiedConstitutionId()": "eedb2d28",
			"referendumEnd()": "bab752e5",
			"referendumVoterCount()": "e42a54c4",
			"referendumVotingTime(address)": "0f3a8bfa",
			"registerAsCandidate(string,string,string)": "079ddd11",
			"registerVoterBatch(address[10],bytes32[10])": "5204743a",
			"registrarScore(address)": "9a741327",
			"sortedRates(uint256)": "9dc99455",
			"startReferendum()": "be003ee6",
			"startTime()": "78e97925",
			"submitDraft((string,string,string,string[],bytes32,string,uint256,uint256))": "b13d8f15",
			"voteCandidates(uint256[])": "a6a5ad12",
			"voteForProposal(uint256)": "045c6ce0",
			"voteInReferendum(uint256[])": "c1b13157",
			"voteTime(address)": "30443320",
			"voterRegistrars(bytes32,uint256)": "e1564695",
			"withdrawProposal(uint256)": "e1f02ffa"
		}
	},
	"abi": [
		{
			"inputs": [
				{
					"internalType": "address[3]",
					"name": "_neutralAgents",
					"type": "address[3]"
				},
				{
					"internalType": "string",
					"name": "_interimConstitution",
					"type": "string"
				}
			],
			"stateMutability": "nonpayable",
			"type": "constructor"
		},
		{
			"anonymous": false,
			"inputs": [
				{
					"indexed": true,
					"internalType": "address",
					"name": "candidate",
					"type": "address"
				},
				{
					"indexed": false,
					"internalType": "string",
					"name": "fullName",
					"type": "string"
				},
				{
					"indexed": false,
					"internalType": "string",
					"name": "bio",
					"type": "string"
				},
				{
					"indexed": false,
					"internalType": "string",
					"name": "website",
					"type": "string"
				}
			],
			"name": "CandidateRegistered",
			"type": "event"
		},
		{
			"anonymous": false,
			"inputs": [
				{
					"indexed": true,
					"internalType": "uint256",
					"name": "draftId",
					"type": "uint256"
				},
				{
					"components": [
						{
							"internalType": "string",
							"name": "description",
							"type": "string"
						},
						{
							"internalType": "string",
							"name": "constitutionText",
							"type": "string"
						},
						{
							"internalType": "string",
							"name": "implementationCode",
							"type": "string"
						},
						{
							"internalType": "string[]",
							"name": "submitterIdentities",
							"type": "string[]"
						},
						{
							"internalType": "bytes32",
							"name": "hashedOffChain",
							"type": "bytes32"
						},
						{
							"internalType": "string",
							"name": "supportingMaterials",
							"type": "string"
						},
						{
							"internalType": "uint256",
							"name": "submittedAt",
							"type": "uint256"
						},
						{
							"internalType": "uint256",
							"name": "voteCount",
							"type": "uint256"
						}
					],
					"indexed": false,
					"internalType": "struct Referendum.ConstitutionDraft",
					"name": "draft",
					"type": "tuple"
				}
			],
			"name": "ConstitutionDraftSubmitted",
			"type": "event"
		},
		{
			"anonymous": false,
			"inputs": [
				{
					"indexed": true,
					"internalType": "uint256",
					"name": "winningProposalId",
					"type": "uint256"
				},
				{
					"components": [
						{
							"internalType": "string",
							"name": "description",
							"type": "string"
						},
						{
							"internalType": "string",
							"name": "constitutionText",
							"type": "string"
						},
						{
							"internalType": "string",
							"name": "implementationCode",
							"type": "string"
						},
						{
							"internalType": "string[]",
							"name": "submitterIdentities",
							"type": "string[]"
						},
						{
							"internalType": "bytes32",
							"name": "hashedOffChain",
							"type": "bytes32"
						},
						{
							"internalType": "string",
							"name": "supportingMaterials",
							"type": "string"
						},
						{
							"internalType": "uint256",
							"name": "submittedAt",
							"type": "uint256"
						},
						{
							"internalType": "uint256",
							"name": "voteCount",
							"type": "uint256"
						}
					],
					"indexed": false,
					"internalType": "struct Referendum.ConstitutionDraft",
					"name": "ratifiedConstitution",
					"type": "tuple"
				}
			],
			"name": "ConstitutionRatified",
			"type": "event"
		},
		{
			"anonymous": false,
			"inputs": [
				{
					"indexed": true,
					"internalType": "address[]",
					"name": "candidateList",
					"type": "address[]"
				},
				{
					"indexed": false,
					"internalType": "address",
					"name": "firstLeader",
					"type": "address"
				}
			],
			"name": "ElectionResults",
			"type": "event"
		},
		{
			"anonymous": false,
			"inputs": [
				{
					"indexed": false,
					"internalType": "uint256",
					"name": "newMedianRate",
					"type": "uint256"
				}
			],
			"name": "InterestRateUpdated",
			"type": "event"
		},
		{
			"anonymous": false,
			"inputs": [
				{
					"indexed": true,
					"internalType": "address",
					"name": "newLeader",
					"type": "address"
				}
			],
			"name": "LeadershipChanged",
			"type": "event"
		},
		{
			"anonymous": false,
			"inputs": [
				{
					"indexed": true,
					"internalType": "address",
					"name": "lender",
					"type": "address"
				},
				{
					"indexed": false,
					"internalType": "int256",
					"name": "amount",
					"type": "int256"
				}
			],
			"name": "LoanReceived",
			"type": "event"
		},
		{
			"anonymous": false,
			"inputs": [
				{
					"indexed": true,
					"internalType": "address",
					"name": "member",
					"type": "address"
				},
				{
					"indexed": false,
					"internalType": "uint256",
					"name": "oldRate",
					"type": "uint256"
				},
				{
					"indexed": false,
					"internalType": "uint8",
					"name": "oldRank",
					"type": "uint8"
				},
				{
					"indexed": false,
					"internalType": "uint256",
					"name": "newRate",
					"type": "uint256"
				},
				{
					"indexed": false,
					"internalType": "uint8",
					"name": "newRank",
					"type": "uint8"
				}
			],
			"name": "MemberRateChanged",
			"type": "event"
		},
		{
			"anonymous": false,
			"inputs": [
				{
					"indexed": true,
					"internalType": "uint256",
					"name": "proposalId",
					"type": "uint256"
				}
			],
			"name": "ProposalPassed",
			"type": "event"
		},
		{
			"anonymous": false,
			"inputs": [
				{
					"indexed": true,
					"internalType": "uint256",
					"name": "proposalId",
					"type": "uint256"
				},
				{
					"indexed": true,
					"internalType": "address",
					"name": "proposer",
					"type": "address"
				},
				{
					"indexed": false,
					"internalType": "string",
					"name": "provisions",
					"type": "string"
				}
			],
			"name": "ProposalProposed",
			"type": "event"
		},
		{
			"anonymous": false,
			"inputs": [
				{
					"indexed": true,
					"internalType": "uint256",
					"name": "proposalId",
					"type": "uint256"
				},
				{
					"indexed": true,
					"internalType": "address",
					"name": "voter",
					"type": "address"
				}
			],
			"name": "ProposalVoted",
			"type": "event"
		},
		{
			"anonymous": false,
			"inputs": [
				{
					"indexed": true,
					"internalType": "uint256",
					"name": "proposalId",
					"type": "uint256"
				}
			],
			"name": "ProposalWithdrawn",
			"type": "event"
		},
		{
			"anonymous": false,
			"inputs": [],
			"name": "ReferendumStarted",
			"type": "event"
		},
		{
			"anonymous": false,
			"inputs": [
				{
					"indexed": true,
					"internalType": "address",
					"name": "voter",
					"type": "address"
				}
			],
			"name": "ReferendumVoteCast",
			"type": "event"
		},
		{
			"anonymous": false,
			"inputs": [
				{
					"indexed": true,
					"internalType": "address",
					"name": "voter",
					"type": "address"
				}
			],
			"name": "VoteCast",
			"type": "event"
		},
		{
			"anonymous": false,
			"inputs": [
				{
					"indexed": true,
					"internalType": "address[10]",
					"name": "voter",
					"type": "address[10]"
				},
				{
					"indexed": false,
					"internalType": "uint256",
					"name": "addedVoterCount",
					"type": "uint256"
				}
			],
			"name": "VoterAdded",
			"type": "event"
		},
		{
			"anonymous": false,
			"inputs": [
				{
					"indexed": true,
					"internalType": "address[10]",
					"name": "voter",
					"type": "address[10]"
				},
				{
					"indexed": false,
					"internalType": "address",
					"name": "registrar",
					"type": "address"
				},
				{
					"indexed": false,
					"internalType": "uint256",
					"name": "referendumVoterCount",
					"type": "uint256"
				}
			],
			"name": "VoterRegistered",
			"type": "event"
		},
		{
			"inputs": [],
			"name": "CAMPAIGN_DURATION",
			"outputs": [
				{
					"internalType": "uint256",
					"name": "",
					"type": "uint256"
				}
			],
			"stateMutability": "view",
			"type": "function"
		},
		{
			"inputs": [],
			"name": "GOV_LENGTH",
			"outputs": [
				{
					"internalType": "uint256",
					"name": "",
					"type": "uint256"
				}
			],
			"stateMutability": "view",
			"type": "function"
		},
		{
			"inputs": [],
			"name": "LEAD_PERIOD",
			"outputs": [
				{
					"internalType": "uint256",
					"name": "",
					"type": "uint256"
				}
			],
			"stateMutability": "view",
			"type": "function"
		},
		{
			"inputs": [],
			"name": "LeaderAddress",
			"outputs": [
				{
					"internalType": "address",
					"name": "",
					"type": "address"
				}
			],
			"stateMutability": "view",
			"type": "function"
		},
		{
			"inputs": [],
			"name": "LeaderId",
			"outputs": [
				{
					"internalType": "uint256",
					"name": "",
					"type": "uint256"
				}
			],
			"stateMutability": "view",
			"type": "function"
		},
		{
			"inputs": [
				{
					"internalType": "address",
					"name": "",
					"type": "address"
				},
				{
					"internalType": "uint256",
					"name": "",
					"type": "uint256"
				}
			],
			"name": "LenderTxns",
			"outputs": [
				{
					"internalType": "int256",
					"name": "amount",
					"type": "int256"
				},
				{
					"internalType": "uint256",
					"name": "txnTime",
					"type": "uint256"
				}
			],
			"stateMutability": "view",
			"type": "function"
		},
		{
			"inputs": [],
			"name": "MAX_APPROVALS",
			"outputs": [
				{
					"internalType": "uint256",
					"name": "",
					"type": "uint256"
				}
			],
			"stateMutability": "view",
			"type": "function"
		},
		{
			"inputs": [],
			"name": "MIN_DRAFTS",
			"outputs": [
				{
					"internalType": "uint8",
					"name": "",
					"type": "uint8"
				}
			],
			"stateMutability": "view",
			"type": "function"
		},
		{
			"inputs": [],
			"name": "MIN_VOTERS",
			"outputs": [
				{
					"internalType": "uint32",
					"name": "",
					"type": "uint32"
				}
			],
			"stateMutability": "view",
			"type": "function"
		},
		{
			"inputs": [],
			"name": "NEUTRAL_AGENTS",
			"outputs": [
				{
					"internalType": "uint8",
					"name": "",
					"type": "uint8"
				}
			],
			"stateMutability": "view",
			"type": "function"
		},
		{
			"inputs": [],
			"name": "N_MEMBERS",
			"outputs": [
				{
					"internalType": "uint8",
					"name": "",
					"type": "uint8"
				}
			],
			"stateMutability": "view",
			"type": "function"
		},
		{
			"inputs": [],
			"name": "RANDOM_VOTERS",
			"outputs": [
				{
					"internalType": "uint16",
					"name": "",
					"type": "uint16"
				}
			],
			"stateMutability": "view",
			"type": "function"
		},
		{
			"inputs": [],
			"name": "REG_FEE",
			"outputs": [
				{
					"internalType": "uint256",
					"name": "",
					"type": "uint256"
				}
			],
			"stateMutability": "view",
			"type": "function"
		},
		{
			"inputs": [],
			"name": "REQUIRED_REG",
			"outputs": [
				{
					"internalType": "uint256",
					"name": "",
					"type": "uint256"
				}
			],
			"stateMutability": "view",
			"type": "function"
		},
		{
			"inputs": [],
			"name": "REQUIRED_SCORE",
			"outputs": [
				{
					"internalType": "int256",
					"name": "",
					"type": "int256"
				}
			],
			"stateMutability": "view",
			"type": "function"
		},
		{
			"inputs": [],
			"name": "RegistrationEnd",
			"outputs": [
				{
					"internalType": "uint256",
					"name": "",
					"type": "uint256"
				}
			],
			"stateMutability": "view",
			"type": "function"
		},
		{
			"inputs": [],
			"name": "SUBMISSION_FEE",
			"outputs": [
				{
					"internalType": "uint256",
					"name": "",
					"type": "uint256"
				}
			],
			"stateMutability": "view",
			"type": "function"
		},
		{
			"inputs": [],
			"name": "SUPER_MAJORITY",
			"outputs": [
				{
					"internalType": "uint8",
					"name": "",
					"type": "uint8"
				}
			],
			"stateMutability": "view",
			"type": "function"
		},
		{
			"inputs": [
				{
					"internalType": "address[10]",
					"name": "voterAddresses",
					"type": "address[10]"
				},
				{
					"components": [
						{
							"internalType": "uint16",
							"name": "birthYear",
							"type": "uint16"
						},
						{
							"internalType": "uint8",
							"name": "birthMonth",
							"type": "uint8"
						},
						{
							"internalType": "bool",
							"name": "gender",
							"type": "bool"
						}
					],
					"internalType": "struct Formation.Demographic[10]",
					"name": "voterDemos",
					"type": "tuple[10]"
				}
			],
			"name": "addVoter",
			"outputs": [],
			"stateMutability": "nonpayable",
			"type": "function"
		},
		{
			"inputs": [],
			"name": "addedVoterCount",
			"outputs": [
				{
					"internalType": "uint16",
					"name": "",
					"type": "uint16"
				}
			],
			"stateMutability": "view",
			"type": "function"
		},
		{
			"inputs": [
				{
					"internalType": "uint256",
					"name": "",
					"type": "uint256"
				}
			],
			"name": "agents",
			"outputs": [
				{
					"internalType": "address",
					"name": "",
					"type": "address"
				}
			],
			"stateMutability": "view",
			"type": "function"
		},
		{
			"inputs": [
				{
					"internalType": "address",
					"name": "registrar",
					"type": "address"
				},
				{
					"internalType": "int8",
					"name": "vote",
					"type": "int8"
				}
			],
			"name": "approveRegistrar",
			"outputs": [],
			"stateMutability": "nonpayable",
			"type": "function"
		},
		{
			"inputs": [
				{
					"internalType": "address",
					"name": "",
					"type": "address"
				}
			],
			"name": "candidateInfo",
			"outputs": [
				{
					"internalType": "string",
					"name": "fullName",
					"type": "string"
				},
				{
					"internalType": "string",
					"name": "bio",
					"type": "string"
				},
				{
					"internalType": "string",
					"name": "website",
					"type": "string"
				},
				{
					"internalType": "uint256",
					"name": "registeredAt",
					"type": "uint256"
				},
				{
					"internalType": "uint16",
					"name": "voteCount",
					"type": "uint16"
				},
				{
					"internalType": "uint8",
					"name": "memberID",
					"type": "uint8"
				},
				{
					"internalType": "uint256",
					"name": "leaderAt",
					"type": "uint256"
				},
				{
					"internalType": "uint16",
					"name": "activeProposal",
					"type": "uint16"
				},
				{
					"internalType": "uint16",
					"name": "submittedDraft",
					"type": "uint16"
				}
			],
			"stateMutability": "view",
			"type": "function"
		},
		{
			"inputs": [
				{
					"internalType": "uint256",
					"name": "",
					"type": "uint256"
				}
			],
			"name": "candidateList",
			"outputs": [
				{
					"internalType": "address",
					"name": "",
					"type": "address"
				}
			],
			"stateMutability": "view",
			"type": "function"
		},
		{
			"inputs": [],
			"name": "changeLeader",
			"outputs": [],
			"stateMutability": "nonpayable",
			"type": "function"
		},
		{
			"inputs": [
				{
					"internalType": "uint256",
					"name": "",
					"type": "uint256"
				}
			],
			"name": "constitutionDrafts",
			"outputs": [
				{
					"internalType": "string",
					"name": "description",
					"type": "string"
				},
				{
					"internalType": "string",
					"name": "constitutionText",
					"type": "string"
				},
				{
					"internalType": "string",
					"name": "implementationCode",
					"type": "string"
				},
				{
					"internalType": "bytes32",
					"name": "hashedOffChain",
					"type": "bytes32"
				},
				{
					"internalType": "string",
					"name": "supportingMaterials",
					"type": "string"
				},
				{
					"internalType": "uint256",
					"name": "submittedAt",
					"type": "uint256"
				},
				{
					"internalType": "uint256",
					"name": "voteCount",
					"type": "uint256"
				}
			],
			"stateMutability": "view",
			"type": "function"
		},
		{
			"inputs": [],
			"name": "currentRate",
			"outputs": [
				{
					"internalType": "uint256",
					"name": "",
					"type": "uint256"
				}
			],
			"stateMutability": "view",
			"type": "function"
		},
		{
			"inputs": [],
			"name": "electionEnd",
			"outputs": [
				{
					"internalType": "uint256",
					"name": "",
					"type": "uint256"
				}
			],
			"stateMutability": "view",
			"type": "function"
		},
		{
			"inputs": [],
			"name": "getBalance",
			"outputs": [
				{
					"internalType": "int256",
					"name": "_sum",
					"type": "int256"
				}
			],
			"stateMutability": "view",
			"type": "function"
		},
		{
			"inputs": [
				{
					"internalType": "uint256",
					"name": "candidateID",
					"type": "uint256"
				}
			],
			"name": "getCandidateInfo",
			"outputs": [
				{
					"components": [
						{
							"internalType": "string",
							"name": "fullName",
							"type": "string"
						},
						{
							"internalType": "string",
							"name": "bio",
							"type": "string"
						},
						{
							"internalType": "string",
							"name": "website",
							"type": "string"
						},
						{
							"internalType": "uint256",
							"name": "registeredAt",
							"type": "uint256"
						},
						{
							"internalType": "uint16",
							"name": "voteCount",
							"type": "uint16"
						},
						{
							"internalType": "uint8",
							"name": "memberID",
							"type": "uint8"
						},
						{
							"internalType": "uint256",
							"name": "leaderAt",
							"type": "uint256"
						},
						{
							"internalType": "uint16",
							"name": "activeProposal",
							"type": "uint16"
						},
						{
							"internalType": "uint16",
							"name": "submittedDraft",
							"type": "uint16"
						}
					],
					"internalType": "struct Candidate",
					"name": "",
					"type": "tuple"
				}
			],
			"stateMutability": "view",
			"type": "function"
		},
		{
			"inputs": [],
			"name": "getCurrentPhase",
			"outputs": [
				{
					"internalType": "enum Phase",
					"name": "",
					"type": "uint8"
				}
			],
			"stateMutability": "nonpayable",
			"type": "function"
		},
		{
			"inputs": [],
			"name": "getElectionResults",
			"outputs": [
				{
					"internalType": "address[]",
					"name": "",
					"type": "address[]"
				}
			],
			"stateMutability": "nonpayable",
			"type": "function"
		},
		{
			"inputs": [],
			"name": "getReferendumResults",
			"outputs": [
				{
					"internalType": "uint256",
					"name": "",
					"type": "uint256"
				},
				{
					"components": [
						{
							"internalType": "string",
							"name": "description",
							"type": "string"
						},
						{
							"internalType": "string",
							"name": "constitutionText",
							"type": "string"
						},
						{
							"internalType": "string",
							"name": "implementationCode",
							"type": "string"
						},
						{
							"internalType": "string[]",
							"name": "submitterIdentities",
							"type": "string[]"
						},
						{
							"internalType": "bytes32",
							"name": "hashedOffChain",
							"type": "bytes32"
						},
						{
							"internalType": "string",
							"name": "supportingMaterials",
							"type": "string"
						},
						{
							"internalType": "uint256",
							"name": "submittedAt",
							"type": "uint256"
						},
						{
							"internalType": "uint256",
							"name": "voteCount",
							"type": "uint256"
						}
					],
					"internalType": "struct Referendum.ConstitutionDraft",
					"name": "",
					"type": "tuple"
				}
			],
			"stateMutability": "nonpayable",
			"type": "function"
		},
		{
			"inputs": [
				{
					"internalType": "address",
					"name": "agentAddress",
					"type": "address"
				},
				{
					"internalType": "uint16",
					"name": "birthYear",
					"type": "uint16"
				},
				{
					"internalType": "uint8",
					"name": "birthMonth",
					"type": "uint8"
				},
				{
					"internalType": "bool",
					"name": "gender",
					"type": "bool"
				}
			],
			"name": "getVoterStatus",
			"outputs": [
				{
					"internalType": "bool",
					"name": "",
					"type": "bool"
				}
			],
			"stateMutability": "view",
			"type": "function"
		},
		{
			"inputs": [
				{
					"internalType": "uint256",
					"name": "",
					"type": "uint256"
				}
			],
			"name": "interestPeriods",
			"outputs": [
				{
					"internalType": "uint256",
					"name": "rate",
					"type": "uint256"
				},
				{
					"internalType": "uint256",
					"name": "startedAt",
					"type": "uint256"
				}
			],
			"stateMutability": "view",
			"type": "function"
		},
		{
			"inputs": [
				{
					"internalType": "address",
					"name": "",
					"type": "address"
				}
			],
			"name": "isAgent",
			"outputs": [
				{
					"internalType": "bool",
					"name": "",
					"type": "bool"
				}
			],
			"stateMutability": "view",
			"type": "function"
		},
		{
			"inputs": [],
			"name": "lend",
			"outputs": [],
			"stateMutability": "payable",
			"type": "function"
		},
		{
			"inputs": [
				{
					"internalType": "address",
					"name": "",
					"type": "address"
				}
			],
			"name": "memberRank",
			"outputs": [
				{
					"internalType": "uint8",
					"name": "",
					"type": "uint8"
				}
			],
			"stateMutability": "view",
			"type": "function"
		},
		{
			"inputs": [
				{
					"internalType": "address",
					"name": "",
					"type": "address"
				},
				{
					"internalType": "uint256",
					"name": "",
					"type": "uint256"
				}
			],
			"name": "memberVoted",
			"outputs": [
				{
					"internalType": "bool",
					"name": "",
					"type": "bool"
				}
			],
			"stateMutability": "view",
			"type": "function"
		},
		{
			"inputs": [],
			"name": "membersElected",
			"outputs": [
				{
					"internalType": "bool",
					"name": "",
					"type": "bool"
				}
			],
			"stateMutability": "view",
			"type": "function"
		},
		{
			"inputs": [],
			"name": "noRates",
			"outputs": [
				{
					"internalType": "uint8",
					"name": "",
					"type": "uint8"
				}
			],
			"stateMutability": "view",
			"type": "function"
		},
		{
			"inputs": [
				{
					"internalType": "uint256",
					"name": "",
					"type": "uint256"
				}
			],
			"name": "proposals",
			"outputs": [
				{
					"internalType": "address",
					"name": "proposer",
					"type": "address"
				},
				{
					"internalType": "string",
					"name": "provisions",
					"type": "string"
				},
				{
					"internalType": "uint256",
					"name": "executedAt",
					"type": "uint256"
				},
				{
					"internalType": "bool",
					"name": "withdrawn",
					"type": "bool"
				},
				{
					"internalType": "uint8",
					"name": "yesVotes",
					"type": "uint8"
				}
			],
			"stateMutability": "view",
			"type": "function"
		},
		{
			"inputs": [
				{
					"internalType": "string",
					"name": "_provisions",
					"type": "string"
				},
				{
					"components": [
						{
							"internalType": "uint256",
							"name": "amount",
							"type": "uint256"
						},
						{
							"internalType": "address",
							"name": "recipient",
							"type": "address"
						},
						{
							"internalType": "string",
							"name": "reason",
							"type": "string"
						}
					],
					"internalType": "struct Payment[]",
					"name": "_payments",
					"type": "tuple[]"
				}
			],
			"name": "proposeProposal",
			"outputs": [
				{
					"internalType": "uint256",
					"name": "",
					"type": "uint256"
				}
			],
			"stateMutability": "nonpayable",
			"type": "function"
		},
		{
			"inputs": [
				{
					"internalType": "uint256",
					"name": "newRate",
					"type": "uint256"
				}
			],
			"name": "proposeRate",
			"outputs": [
				{
					"internalType": "uint8",
					"name": "newRank",
					"type": "uint8"
				}
			],
			"stateMutability": "nonpayable",
			"type": "function"
		},
		{
			"inputs": [],
			"name": "ratifiedConstitutionId",
			"outputs": [
				{
					"internalType": "uint256",
					"name": "",
					"type": "uint256"
				}
			],
			"stateMutability": "view",
			"type": "function"
		},
		{
			"inputs": [],
			"name": "referendumEnd",
			"outputs": [
				{
					"internalType": "uint256",
					"name": "",
					"type": "uint256"
				}
			],
			"stateMutability": "view",
			"type": "function"
		},
		{
			"inputs": [],
			"name": "referendumVoterCount",
			"outputs": [
				{
					"internalType": "uint32",
					"name": "",
					"type": "uint32"
				}
			],
			"stateMutability": "view",
			"type": "function"
		},
		{
			"inputs": [
				{
					"internalType": "address",
					"name": "",
					"type": "address"
				}
			],
			"name": "referendumVotingTime",
			"outputs": [
				{
					"internalType": "uint256",
					"name": "",
					"type": "uint256"
				}
			],
			"stateMutability": "view",
			"type": "function"
		},
		{
			"inputs": [
				{
					"internalType": "string",
					"name": "_fullName",
					"type": "string"
				},
				{
					"internalType": "string",
					"name": "_bio",
					"type": "string"
				},
				{
					"internalType": "string",
					"name": "_website",
					"type": "string"
				}
			],
			"name": "registerAsCandidate",
			"outputs": [],
			"stateMutability": "payable",
			"type": "function"
		},
		{
			"inputs": [
				{
					"internalType": "address[10]",
					"name": "voterAddresses",
					"type": "address[10]"
				},
				{
					"internalType": "bytes32[10]",
					"name": "voterHashes",
					"type": "bytes32[10]"
				}
			],
			"name": "registerVoterBatch",
			"outputs": [],
			"stateMutability": "nonpayable",
			"type": "function"
		},
		{
			"inputs": [
				{
					"internalType": "address",
					"name": "",
					"type": "address"
				}
			],
			"name": "registrarScore",
			"outputs": [
				{
					"internalType": "int256",
					"name": "",
					"type": "int256"
				}
			],
			"stateMutability": "view",
			"type": "function"
		},
		{
			"inputs": [
				{
					"internalType": "uint256",
					"name": "",
					"type": "uint256"
				}
			],
			"name": "sortedRates",
			"outputs": [
				{
					"internalType": "address",
					"name": "member",
					"type": "address"
				},
				{
					"internalType": "uint256",
					"name": "rate",
					"type": "uint256"
				}
			],
			"stateMutability": "view",
			"type": "function"
		},
		{
			"inputs": [],
			"name": "startReferendum",
			"outputs": [],
			"stateMutability": "nonpayable",
			"type": "function"
		},
		{
			"inputs": [],
			"name": "startTime",
			"outputs": [
				{
					"internalType": "uint256",
					"name": "",
					"type": "uint256"
				}
			],
			"stateMutability": "view",
			"type": "function"
		},
		{
			"inputs": [
				{
					"components": [
						{
							"internalType": "string",
							"name": "description",
							"type": "string"
						},
						{
							"internalType": "string",
							"name": "constitutionText",
							"type": "string"
						},
						{
							"internalType": "string",
							"name": "implementationCode",
							"type": "string"
						},
						{
							"internalType": "string[]",
							"name": "submitterIdentities",
							"type": "string[]"
						},
						{
							"internalType": "bytes32",
							"name": "hashedOffChain",
							"type": "bytes32"
						},
						{
							"internalType": "string",
							"name": "supportingMaterials",
							"type": "string"
						},
						{
							"internalType": "uint256",
							"name": "submittedAt",
							"type": "uint256"
						},
						{
							"internalType": "uint256",
							"name": "voteCount",
							"type": "uint256"
						}
					],
					"internalType": "struct Referendum.ConstitutionDraft",
					"name": "draft",
					"type": "tuple"
				}
			],
			"name": "submitDraft",
			"outputs": [],
			"stateMutability": "payable",
			"type": "function"
		},
		{
			"inputs": [
				{
					"internalType": "uint256[]",
					"name": "_candidatesIds",
					"type": "uint256[]"
				}
			],
			"name": "voteCandidates",
			"outputs": [],
			"stateMutability": "nonpayable",
			"type": "function"
		},
		{
			"inputs": [
				{
					"internalType": "uint256",
					"name": "proposalId",
					"type": "uint256"
				}
			],
			"name": "voteForProposal",
			"outputs": [
				{
					"internalType": "uint8",
					"name": "",
					"type": "uint8"
				}
			],
			"stateMutability": "nonpayable",
			"type": "function"
		},
		{
			"inputs": [
				{
					"internalType": "uint256[]",
					"name": "_drafts",
					"type": "uint256[]"
				}
			],
			"name": "voteInReferendum",
			"outputs": [],
			"stateMutability": "nonpayable",
			"type": "function"
		},
		{
			"inputs": [
				{
					"internalType": "address",
					"name": "",
					"type": "address"
				}
			],
			"name": "voteTime",
			"outputs": [
				{
					"internalType": "uint256",
					"name": "",
					"type": "uint256"
				}
			],
			"stateMutability": "view",
			"type": "function"
		},
		{
			"inputs": [
				{
					"internalType": "bytes32",
					"name": "",
					"type": "bytes32"
				},
				{
					"internalType": "uint256",
					"name": "",
					"type": "uint256"
				}
			],
			"name": "voterRegistrars",
			"outputs": [
				{
					"internalType": "address",
					"name": "",
					"type": "address"
				}
			],
			"stateMutability": "view",
			"type": "function"
		},
		{
			"inputs": [
				{
					"internalType": "uint256",
					"name": "proposalId",
					"type": "uint256"
				}
			],
			"name": "withdrawProposal",
			"outputs": [],
			"stateMutability": "nonpayable",
			"type": "function"
		}
	]
}