{
	"data": {
		"bytecode": {
			"linkReferences": {},
			"object": "60a0604052603a805460ff1990811690915560ae80549091166032179055348015610028575f80fd5b506040516162bf3803806162bf83398101604081905261004791610134565b600180546001600160a01b0319166001600160a01b038416179055426080819052610076906212750090610203565b610081906001610203565b5f9081556004805460018101825591526007027f8a35acfbc15ff81a39ae7d344fd709f28e8600b4aa8c65c6b64bfe7fe36bd19b810180546001600160a01b03191633178155907f8a35acfbc15ff81a39ae7d344fd709f28e8600b4aa8c65c6b64bfe7fe36bd19c016100f483826102ac565b506080516002820181905560038201555f6004820155600501805460ff19166032179055506103669050565b634e487b7160e01b5f52604160045260245ffd5b5f8060408385031215610145575f80fd5b82516001600160a01b038116811461015b575f80fd5b60208401519092506001600160401b03811115610176575f80fd5b8301601f81018513610186575f80fd5b80516001600160401b0381111561019f5761019f610120565b604051601f8201601f19908116603f011681016001600160401b03811182821017156101cd576101cd610120565b6040528181528282016020018710156101e4575f80fd5b8160208401602083015e5f602083830101528093505050509250929050565b8082018082111561022257634e487b7160e01b5f52601160045260245ffd5b92915050565b600181811c9082168061023c57607f821691505b60208210810361025a57634e487b7160e01b5f52602260045260245ffd5b50919050565b601f8211156102a757805f5260205f20601f840160051c810160208510156102855750805b601f840160051c820191505b818110156102a4575f8155600101610291565b50505b505050565b81516001600160401b038111156102c5576102c5610120565b6102d9816102d38454610228565b84610260565b6020601f82116001811461030b575f83156102f45750848201515b5f19600385901b1c1916600184901b1784556102a4565b5f84815260208120601f198516915b8281101561033a578785015182556020948501946001909201910161031a565b508482101561035757868401515f19600387901b60f8161c191681555b50505050600190811b01905550565b608051615f4161037e5f395f6107680152615f415ff3fe6080604052600436106103b2575f3560e01c806386a0dd7d116101e9578063beb5479511610108578063e42a54c41161009d578063eedb2d281161006d578063eedb2d2814610b3d578063f33e957314610b52578063f3a4aba914610b71578063f9f8bdb714610b9d575f80fd5b8063e42a54c414610aa0578063e965b7c914610abc578063eab536fc14610aee578063eccf1f1014610b1c575f80fd5b8063d1791ae0116100d8578063d1791ae014610a23578063d90d7cd814610a39578063e1f02ffa14610a6d578063e292bf1614610a8c575f80fd5b8063beb54795146109c2578063c1b13157146109d7578063c8d7b9f1146109f6578063ce7ea16114610a0f575f80fd5b8063b0feb2601161017e578063bbea6f0b1161014e578063bbea6f0b14610930578063bc903cb814610963578063bdc8e7b31461098f578063be003ee6146109ae575f80fd5b8063b0feb260146108e8578063b13c744b146108fd578063b5ba9795146107dc578063b85c22921461091c575f80fd5b8063a3a40ea5116101b9578063a3a40ea514610869578063a5f5b1bf1461088a578063a6a5ad121461089e578063ac0af944146108bd575f80fd5b806386a0dd7d146107f057806397dffc611461080457806399b0d39c1461080c5780639dc994551461082b575f80fd5b806347f7b722116102d557806359297dbf1161026a5780637d48536d1161023a5780637d48536d1461066d5780637da4ce831461078a5780637f4241e7146107ae5780638325ed2d146107dc575f80fd5b806359297dbf146106e557806370f67cfe146106f757806378e3ef201461072357806378e9792514610757575f80fd5b80634ebeb109116102a55780634ebeb1091461066d5780635004e24a1461068757806353fdc8381461069d57806354c17527146106d1575f80fd5b806347f7b7221461060e57806349066e7914610624578063491de4711461063a5780634d0c87261461064e575f80fd5b80631b4089341161034b57806329c83be11161031b57806329c83be1146105995780633b497b28146105b85780633def77b7146105d7578063452d32bb146105ec575f80fd5b80631b408934146104d5578063214c3a891461050d5780632190bee81461054457806326c294491461057a575f80fd5b8063089e35b811610386578063089e35b81461044957806308ec6a191461047257806312065fe01461049e57806316392372146104c0575f80fd5b8062fa88e2146103b6578063013cf08b146103cb578063045c6ce014610405578063079ddd1114610436575b5f80fd5b6103c96103c4366004615091565b610bb2565b005b3480156103d6575f80fd5b506103ea6103e53660046151c4565b610ede565b6040516103fc96959493929190615209565b60405180910390f35b348015610410575f80fd5b5061042461041f3660046151c4565b610fb8565b60405160ff90911681526020016103fc565b6103c9610444366004615254565b6111f2565b348015610454575f80fd5b50603a546104629060ff1681565b60405190151581526020016103fc565b34801561047d575f80fd5b5061049161048c3660046151c4565b611578565b6040516103fc91906152df565b3480156104a9575f80fd5b506104b26115c8565b6040519081526020016103fc565b3480156104cb575f80fd5b506104b2603b5481565b3480156104e0575f80fd5b506001546104f890600160a01b900463ffffffff1681565b60405163ffffffff90911681526020016103fc565b348015610518575f80fd5b5061052c6105273660046151c4565b61163b565b6040516001600160a01b0390911681526020016103fc565b34801561054f575f80fd5b506104b261055e36600461532f565b603d60209081525f928352604080842090915290825290205481565b348015610585575f80fd5b506103c9610594366004615370565b61165a565b3480156105a4575f80fd5b506103c96105b33660046153a5565b611a7c565b3480156105c3575f80fd5b506104b26105d2366004615428565b611c85565b3480156105e2575f80fd5b506104f86104b081565b3480156105f7575f80fd5b50610600611eb4565b6040516103fc929190615565565b348015610619575f80fd5b506104b26212750081565b34801561062f575f80fd5b506104b262093a8081565b348015610645575f80fd5b506104b2600281565b348015610659575f80fd5b5060015461052c906001600160a01b031681565b348015610678575f80fd5b506104b266038d7ea4c6800081565b348015610692575f80fd5b506104b2625c490081565b3480156106a8575f80fd5b506106bc6106b736600461532f565b61261a565b604080519283526020830191909152016103fc565b3480156106dc575f80fd5b506104b2600a81565b3480156106f0575f80fd5b50476104b2565b348015610702575f80fd5b506107166107113660046151c4565b612652565b6040516103fc919061557d565b34801561072e575f80fd5b506104b261073d36600461560b565b6001600160a01b03165f9081526040602081905290205490565b348015610762575f80fd5b506104b27f000000000000000000000000000000000000000000000000000000000000000081565b348015610795575f80fd5b50603a5461052c9061010090046001600160a01b031681565b3480156107b9575f80fd5b506104626107c83660046151c4565b5f9081526006602052604090205460ff1690565b3480156107e7575f80fd5b506104f8600a81565b3480156107fb575f80fd5b50610424600a81565b6103c9612900565b348015610817575f80fd5b506103c9610826366004615370565b61297a565b348015610836575f80fd5b5061084a6108453660046151c4565b612e79565b604080516001600160a01b0390931683526020830191909152016103fc565b348015610874575f80fd5b5061087d612ea4565b6040516103fc9190615641565b348015610895575f80fd5b506103c9612f45565b3480156108a9575f80fd5b506103c96108b8366004615667565b6130bd565b3480156108c8575f80fd5b506104b26108d736600461560b565b603c6020525f908152604090205481565b3480156108f3575f80fd5b506104b260055481565b348015610908575f80fd5b5061052c6109173660046151c4565b6133b0565b348015610927575f80fd5b50610424601e81565b34801561093b575f80fd5b5061094f61094a3660046151c4565b6133d8565b6040516103fc9897969594939291906156a5565b34801561096e575f80fd5b5061098261097d3660046151c4565b6136c9565b6040516103fc9190615725565b34801561099a575f80fd5b506104246109a93660046151c4565b613950565b3480156109b9575f80fd5b506103c9613ef9565b3480156109cd575f80fd5b506104b26103e881565b3480156109e2575f80fd5b506103c96109f1366004615667565b614078565b348015610a01575f80fd5b5060ae546104249060ff1681565b348015610a1a575f80fd5b506104b25f5481565b348015610a2e575f80fd5b506104f8620f424081565b348015610a44575f80fd5b506104b2610a5336600461560b565b6001600160a01b03165f9081526007602052604090205490565b348015610a78575f80fd5b506103c9610a873660046151c4565b614322565b348015610a97575f80fd5b50610424603281565b348015610aab575f80fd5b506041546104f89063ffffffff1681565b348015610ac7575f80fd5b50610adb610ad636600461560b565b6144a8565b6040516103fc9796959493929190615815565b348015610af9575f80fd5b50610424610b0836600461560b565b60ad6020525f908152604090205460ff1681565b348015610b27575f80fd5b50610b3061467a565b6040516103fc9190615874565b348015610b48575f80fd5b506104b260425481565b348015610b5d575f80fd5b506106bc610b6c3660046151c4565b614a33565b348015610b7c575f80fd5b50610b90610b8b3660046151c4565b614a5f565b6040516103fc91906158a5565b348015610ba8575f80fd5b506104b260465481565b6002610bbc612ea4565b6004811115610bcd57610bcd61562d565b14610c0d5760405162461bcd60e51b815260206004820152600b60248201526a57726f6e6720706861736560a81b60448201526064015b60405180910390fd5b805151610c535760405162461bcd60e51b815260206004820152601460248201527311195cd8dc9a5c1d1a5bdb881c995c5d5a5c995960621b6044820152606401610c04565b5f81602001515111610ca75760405162461bcd60e51b815260206004820152601960248201527f636f6e737469747574696f6e54657874207265717569726564000000000000006044820152606401610c04565b5f81606001515111610cf45760405162461bcd60e51b8152602060048201526016602482015275141c9bdc1bdcd95c881b985b59481c995c5d5a5c995960521b6044820152606401610c04565b66038d7ea4c68000341015610d4b5760405162461bcd60e51b815260206004820152601b60248201527f496e73756666696369656e74207375626d697373696f6e2066656500000000006044820152606401610c04565b5f815f0151826040015183602001518460600151604051602001610d7294939291906158ce565b60405160208183030381529060405280519060200120905081608001518114610dcf5760405162461bcd60e51b815260206004820152600f60248201526e496e636f727265637420486173682160881b6044820152606401610c04565b4260c08301525f60e08301819052603e80546001810182559152825183916008027f8d800d6614d35eed73733ee453164a3b48076eb3138f466adeeb9dec7bb31f7001908190610e1f9082615995565b5060208201516001820190610e349082615995565b5060408201516002820190610e499082615995565b5060608201516003820190610e5e9082615995565b506080820151600482015560a08201516005820190610e7d9082615995565b5060c0820151600682015560e090910151600790910155603e54610ea390600190615a5e565b7ff20c47478412252c3f85e5881b3cbee3e68a1ab2b3cd2d3fd8633ee288582e2983604051610ed291906158a5565b60405180910390a25050565b60048181548110610eed575f80fd5b5f918252602090912060079091020180546001820180546001600160a01b03909216935090610f1b906158fe565b80601f0160208091040260200160405190810160405280929190818152602001828054610f47906158fe565b8015610f925780601f10610f6957610100808354040283529160200191610f92565b820191905f5260205f20905b815481529060010190602001808311610f7557829003601f168201915b505050506002830154600384015460048501546005909501549394919390925060ff1686565b335f9081526003602052604081206005015460ff166110115760405162461bcd60e51b81526020600482015260156024820152744f6e6c79206d656d626572732063616e20766f746560581b6044820152606401610c04565b60045482106110325760405162461bcd60e51b8152600401610c0490615a71565b5f6004838154811061104657611046615a9e565b905f5260205f209060070201905080600401545f1461109c5760405162461bcd60e51b8152602060048201526012602482015271283937b837b9b0b6103bb4ba34323930bbb760711b6044820152606401610c04565b335f908152603d60209081526040808320868452909152902054156110f35760405162461bcd60e51b815260206004820152600d60248201526c105b1c9958591e481d9bdd1959609a1b6044820152606401610c04565b335f908152603d60209081526040808320868452909152812042905560058201805460ff169161112283615ab2565b91906101000a81548160ff021916908360ff16021790555050336001600160a01b0316837f34647120636ce03d739347e28e9d1bdd34fd03d066ae60439fb1be2721ad16cd60405160405180910390a36005810154601e60ff9091161080159061118e57506003810154155b156111e55760405183907fe36f8b7448daff4a52e2945db0d1d7a436279cc1d527a45c27835dcbd27f336d905f90a242600382015580546001600160a01b03165f908152603c60205260408120556111e583614dd7565b6005015460ff1692915050565b5f835111801561120457506064835111155b61123f5760405162461bcd60e51b815260206004820152600c60248201526b496e76616c6964206e616d6560a01b6044820152606401610c04565b5f825111801561125257506103e8825111155b61128c5760405162461bcd60e51b815260206004820152600b60248201526a496e76616c69642062696f60a81b6044820152606401610c04565b5f815111801561129f57506103e8815111155b6112dd5760405162461bcd60e51b815260206004820152600f60248201526e496e76616c6964207765627369746560881b6044820152606401610c04565b3361131b5760405162461bcd60e51b815260206004820152600e60248201526d24b73b30b634b21039b2b73232b960911b6044820152606401610c04565b66038d7ea4c680003410156113725760405162461bcd60e51b815260206004820152601d60248201527f496e73756666696369656e7420726567697374726174696f6e206665650000006044820152606401610c04565b5f61137b612ea4565b600481111561138c5761138c61562d565b146113ea5760405162461bcd60e51b815260206004820152602860248201527f43616e64696461746520726567697374726174696f6e20706572696f64206861604482015267399032b73232b21760c11b6064820152608401610c04565b335f90815260036020819052604090912001541561143f5760405162461bcd60e51b8152602060048201526012602482015271105b1c9958591e481c9959da5cdd195c995960721b6044820152606401610c04565b6040805160e08101825284815260208082018590528183018490524260608301525f6080830181905260a0830181905260c08301819052338152600390915291909120815181906114909082615995565b50602082015160018201906114a59082615995565b50604082015160028201906114ba9082615995565b50606082015160038201556080820151600482015560a082015160058201805460ff191691151591909117905560c090910151600690910155600280546001810182555f919091527f405787fa12a823e0f2b7631cc41b3ba8828b3321ca811111fa75cd3aa3bb5ace018054336001600160a01b031990911681179091556040517ed6fea68f71a20d8149f227f87e8cf7e6ad320b2dad4b45465b14599b80ee099061156b90869086908690615ad0565b60405180910390a2505050565b611580614f49565b5f828152603f6020526040908190208151808301928390529160029082845b81546001600160a01b0316815260019091019060200180831161159f5750505050509050919050565b5f805b335f9081526048602052604090205461ffff8216101561163757335f908152604860205260409020805461ffff831690811061160957611609615a9e565b905f5260205f2090600202015f0154826116239190615b08565b91508061162f81615b2f565b9150506115cb565b5090565b6008816032811061164a575f80fd5b01546001600160a01b0316905081565b6001546001600160a01b031633146116ad5760405162461bcd60e51b8152602060048201526016602482015275139bdd08185d5d1a1bdc9a5e9959081b995d5d1c985b60521b6044820152606401610c04565b5f6116b6612ea4565b60048111156116c7576116c761562d565b146117145760405162461bcd60e51b815260206004820152601e60248201527f566f74657220616464696e6720706572696f642068617320656e6465642e00006044820152606401610c04565b6001546104b0600160a01b90910463ffffffff161061177f5760405162461bcd60e51b815260206004820152602160248201527f4d6178696d756d206e756d626572206f6620766f7465727320726561636865646044820152601760f91b6064820152608401610c04565b5f5b600a60ff821610156118625760065f848360ff16600a81106117a5576117a5615a9e565b6020908102919091013582528101919091526040015f205460ff161561180d5760405162461bcd60e51b815260206004820152601d60248201527f566f746572206861736820616c726561647920726567697374657265640000006044820152606401610c04565b600160065f858460ff16600a811061182757611827615a9e565b602002013581526020019081526020015f205f6101000a81548160ff021916908315150217905550808061185a90615ab2565b915050611781565b505f5b600a60ff821610156119e7575f8260ff8316600a811061188757611887615a9e565b60200201602081019061189a919061560b565b6001600160a01b0316036118e85760405162461bcd60e51b8152602060048201526015602482015274496e76616c696420766f746572206164647265737360581b6044820152606401610c04565b60075f838360ff16600a811061190057611900615a9e565b602002016020810190611913919061560b565b6001600160a01b0316815260208101919091526040015f20541561198f5760405162461bcd60e51b815260206004820152602d60248201527f416464726573737320616c726561647920726567697374657265642e2052656760448201526c697374726172204552524f522160981b6064820152608401610c04565b600160075f848460ff16600a81106119a9576119a9615a9e565b6020020160208101906119bc919061560b565b6001600160a01b0316815260208101919091526040015f2055806119df81615ab2565b915050611865565b50600a600160148282829054906101000a900463ffffffff16611a0a9190615b46565b92506101000a81548163ffffffff021916908363ffffffff16021790555080604051611a369190615b62565b604051908190038120600154600160a01b900463ffffffff168252907f5ecf71b87b223b4e8c4d19850b2c7a727d326e44eda6530fe642b505ff2c4f9490602001610ed2565b335f9081526003602052604090206005015460ff16611acc5760405162461bcd60e51b815260206004820152600c60248201526b2737ba10309036b2b6b132b960a11b6044820152606401610c04565b5f19815f0b12158015611ae257506001815f0b13155b611b2e5760405162461bcd60e51b815260206004820152601860248201527f566f7465206d757374206265202d312c20302c206f72203100000000000000006044820152606401610c04565b335f9081526043602090815260408083206001600160a01b0386168452909152812054900b80158015611b635750815f0b5f14155b15611bdf57335f908152604560205260409020546103e811611bbb5760405162461bcd60e51b815260206004820152601160248201527013585e081d9bdd195cc81c995858da1959607a1b6044820152606401610c04565b335f908152604560205260408120805491611bd583615ba9565b9190505550611c17565b805f0b5f14158015611bf25750815f0b5f145b15611c1757335f908152604560205260408120805491611c1183615bc1565b91905055505b335f9081526043602090815260408083206001600160a01b03871684529091529020805460ff191660ff8416179055611c508183615bd6565b6001600160a01b0384165f908152604460205260408120805492820b92909190611c7b908490615b08565b9091555050505050565b335f9081526003602052604081206005015460ff16611cf15760405162461bcd60e51b815260206004820152602260248201527f4f6e6c79206d656d626572732063616e2070726f706f73652070726f706f73616044820152616c7360f01b6064820152608401610c04565b83611d345760405162461bcd60e51b8152602060048201526013602482015272141c9bdd9a5cda5bdb9cc81c995c5d5a5c9959606a1b6044820152606401610c04565b335f908152603c602052604090205415611d9e5760405162461bcd60e51b815260206004820152602560248201527f4d656d62657220616c72656164792068617320616e206163746976652070726f6044820152641c1bdcd85b60da1b6064820152608401610c04565b60048054335f908152603c60205260408120829055600182018084558382529192909183908110611dd157611dd1615a9e565b5f918252602090912060079091020180546001600160a01b03191633178155905060018101611e01878983615bf6565b504260028201555f5b84811015611e655781600601868683818110611e2857611e28615a9e565b9050602002810190611e3a9190615caa565b81546001810183555f9283526020909220909160030201611e5b8282615cc8565b5050600101611e0a565b506004546040513391907f6fb266c3bffbf56760b26ba85968fa3e28f3ed50cea5c9704fb6e260dab31f1c90611e9e908b908b90615df0565b60405180910390a3505060045495945050505050565b5f611ebd614f67565b604254156121ed57604254603e60425481548110611edd57611edd615a9e565b905f5260205f20906008020180604051806101000160405290815f82018054611f05906158fe565b80601f0160208091040260200160405190810160405280929190818152602001828054611f31906158fe565b8015611f7c5780601f10611f5357610100808354040283529160200191611f7c565b820191905f5260205f20905b815481529060010190602001808311611f5f57829003601f168201915b50505050508152602001600182018054611f95906158fe565b80601f0160208091040260200160405190810160405280929190818152602001828054611fc1906158fe565b801561200c5780601f10611fe35761010080835404028352916020019161200c565b820191905f5260205f20905b815481529060010190602001808311611fef57829003601f168201915b50505050508152602001600282018054612025906158fe565b80601f0160208091040260200160405190810160405280929190818152602001828054612051906158fe565b801561209c5780601f106120735761010080835404028352916020019161209c565b820191905f5260205f20905b81548152906001019060200180831161207f57829003601f168201915b505050505081526020016003820180546120b5906158fe565b80601f01602080910402602001604051908101604052809291908181526020018280546120e1906158fe565b801561212c5780601f106121035761010080835404028352916020019161212c565b820191905f5260205f20905b81548152906001019060200180831161210f57829003601f168201915b505050505081526020016004820154815260200160058201805461214f906158fe565b80601f016020809104026020016040519081016040528092919081815260200182805461217b906158fe565b80156121c65780601f1061219d576101008083540402835291602001916121c6565b820191905f5260205f20905b8154815290600101906020018083116121a957829003601f168201915b50505050508152602001600682015481526020016007820154815250509050915091509091565b5f6005541180156121ff575042600554105b61224b5760405162461bcd60e51b815260206004820152601a60248201527f43616c6c206f6e6365206166746572205265666572656e64756d0000000000006044820152606401610c04565b5f80805b603e548110156122b45781603e828154811061226d5761226d615a9e565b905f5260205f2090600802016007015411156122ac57603e818154811061229657612296615a9e565b905f5260205f2090600802016007015491508092505b60010161224f565b50816042819055505f603e83815481106122d0576122d0615a9e565b905f5260205f209060080201604051806101000160405290815f820180546122f7906158fe565b80601f0160208091040260200160405190810160405280929190818152602001828054612323906158fe565b801561236e5780601f106123455761010080835404028352916020019161236e565b820191905f5260205f20905b81548152906001019060200180831161235157829003601f168201915b50505050508152602001600182018054612387906158fe565b80601f01602080910402602001604051908101604052809291908181526020018280546123b3906158fe565b80156123fe5780601f106123d5576101008083540402835291602001916123fe565b820191905f5260205f20905b8154815290600101906020018083116123e157829003601f168201915b50505050508152602001600282018054612417906158fe565b80601f0160208091040260200160405190810160405280929190818152602001828054612443906158fe565b801561248e5780601f106124655761010080835404028352916020019161248e565b820191905f5260205f20905b81548152906001019060200180831161247157829003601f168201915b505050505081526020016003820180546124a7906158fe565b80601f01602080910402602001604051908101604052809291908181526020018280546124d3906158fe565b801561251e5780601f106124f55761010080835404028352916020019161251e565b820191905f5260205f20905b81548152906001019060200180831161250157829003601f168201915b5050505050815260200160048201548152602001600582018054612541906158fe565b80601f016020809104026020016040519081016040528092919081815260200182805461256d906158fe565b80156125b85780601f1061258f576101008083540402835291602001916125b8565b820191905f5260205f20905b81548152906001019060200180831161259b57829003601f168201915b50505050508152602001600682015481526020016007820154815250509050827f5716523a05c9d13997b5a619d69a47eba3d34842ff0b403eed7ca3a75b05c7088260405161260791906158a5565b60405180910390a2919491935090915050565b6048602052815f5260405f208181548110612633575f80fd5b5f91825260209091206002909102018054600190910154909250905082565b6126906040518060e001604052806060815260200160608152602001606081526020015f81526020015f81526020015f151581526020015f81525090565b60025482106126d85760405162461bcd60e51b8152602060048201526014602482015273125b9d985b1a590810d85b991a59185d1948125160621b6044820152606401610c04565b60035f600284815481106126ee576126ee615a9e565b5f9182526020808320909101546001600160a01b031683528201929092526040908101909120815160e0810190925280548290829061272c906158fe565b80601f0160208091040260200160405190810160405280929190818152602001828054612758906158fe565b80156127a35780601f1061277a576101008083540402835291602001916127a3565b820191905f5260205f20905b81548152906001019060200180831161278657829003601f168201915b505050505081526020016001820180546127bc906158fe565b80601f01602080910402602001604051908101604052809291908181526020018280546127e8906158fe565b80156128335780601f1061280a57610100808354040283529160200191612833565b820191905f5260205f20905b81548152906001019060200180831161281657829003601f168201915b5050505050815260200160028201805461284c906158fe565b80601f0160208091040260200160405190810160405280929190818152602001828054612878906158fe565b80156128c35780601f1061289a576101008083540402835291602001916128c3565b820191905f5260205f20905b8154815290600101906020018083116128a657829003601f168201915b50505091835250506003820154602082015260048201546040820152600582015460ff161515606082015260069091015460809091015292915050565b60408051808201825234808252426020808401918252335f818152604883528681208054600180820183559183529184902087516002909302019182559351930192909255935191825291927f976be468429698a1b0ae0c20a0329bdb6e24722a3f834a2c54b84d63c1722f32910160405180910390a250565b335f90815260446020526040902054600a13156129cf5760405162461bcd60e51b8152602060048201526013602482015272139bdd08195b9bdd59da08185c1c1c9bdd985b606a1b6044820152606401610c04565b60026129d9612ea4565b60048111156129ea576129ea61562d565b14612a255760405162461bcd60e51b815260206004820152600b60248201526a57726f6e6720706861736560a81b6044820152606401610c04565b5f5b600a60ff82161015612c4f575f603f818560ff8516600a8110612a4c57612a4c615a9e565b602002013581526020019081526020015f205f60028110612a6f57612a6f615a9e565b01546001600160a01b031603612adf5733603f5f858460ff16600a8110612a9857612a98615a9e565b602002013581526020019081526020015f205f60028110612abb57612abb615a9e565b0180546001600160a01b0319166001600160a01b0392909216919091179055612c3d565b5f603f818560ff8516600a8110612af857612af8615a9e565b602002013581526020019081526020015f20600160028110612b1c57612b1c615a9e565b01546001600160a01b031603612bfd5733603f5f8560ff8516600a8110612b4557612b45615a9e565b602002013581526020019081526020015f205f60028110612b6857612b68615a9e565b01546001600160a01b031603612bc05760405162461bcd60e51b815260206004820152601b60248201527f526567697374726172206d75737420626520646966666572656e7400000000006044820152606401610c04565b33603f5f858460ff16600a8110612bd957612bd9615a9e565b602002013581526020019081526020015f20600160028110612abb57612abb615a9e565b60405162461bcd60e51b815260206004820152601560248201527412185cda08185b1c9958591e481c9958dbdc991959605a1b6044820152606401610c04565b80612c4781615ab2565b915050612a27565b505f5b600a60ff82161015612ded575f8260ff8316600a8110612c7457612c74615a9e565b602002016020810190612c87919061560b565b6001600160a01b031603612cd55760405162461bcd60e51b8152602060048201526015602482015274496e76616c696420766f746572206164647265737360581b6044820152606401610c04565b600260405f848460ff16600a8110612cef57612cef615a9e565b602002016020810190612d02919061560b565b6001600160a01b03166001600160a01b031681526020019081526020015f205410612d845760405162461bcd60e51b815260206004820152602c60248201527f4164647265737320616c7265616479207265676973746572656421205245474960448201526b5354524152204552524f522160a01b6064820152608401610c04565b60405f838360ff16600a8110612d9c57612d9c615a9e565b602002016020810190612daf919061560b565b6001600160a01b0316815260208101919091526040015f908120805491612dd583615ba9565b91905055508080612de590615ab2565b915050612c52565b5060418054600a91905f90612e0990849063ffffffff16615b46565b92506101000a81548163ffffffff021916908363ffffffff16021790555080604051612e359190615b62565b6040805191829003822060415433845263ffffffff166020840152917f2ba0aaa9c0e5919bf5cb9fde7b2825194f9dc6e9ab2a9174c59892a1585c446a9101610ed2565b60498160328110612e88575f80fd5b6002020180546001909101546001600160a01b03909116915082565b5f620151805f54612eb59190615a5e565b421015612ec157505f90565b5f54421015612f2057612ed660326002615e1e565b60ff166002805490501080612efc57506001546104b0600160a01b90910463ffffffff16105b15612f1a57621275005f54612f119190615e41565b5f908155919050565b50600190565b6005545f03612f2f5750600290565b600554421015612f3f5750600390565b50600490565b603a5460ff16612f875760405162461bcd60e51b815260206004820152600d60248201526c139bc81b195859195c881e595d609a1b6044820152606401610c04565b603a5461010090046001600160a01b03165f90815260036020526040902060060154612fb79062093a8090615e41565b4210156130115760405162461bcd60e51b815260206004820152602260248201527f43757272656e74206c65616465722773207465726d206e6f742066696e697368604482015261195960f21b6064820152608401610c04565b603b8054905f61302083615ba9565b91905055506032603b5410613034575f603b555b6008603b546032811061304957613049615a9e565b0154603a8054610100600160a81b0319166101006001600160a01b0393841681029190911780835581900483165f90815260036020526040808220426006909101559254925191909204909216917f8a84bb57bf3f6adefaa7a35a6a5067473f78164bfc14c2f6ae8b93e5b115b35a9190a2565b60016130c7612ea4565b60048111156130d8576130d861562d565b1461311d5760405162461bcd60e51b81526020600482015260156024820152744e6f7420696e20456c656374696f6e20706861736560581b6044820152606401610c04565b6002548111156131645760405162461bcd60e51b8152602060048201526012602482015271125b9d985b1a59081d9bdd194818dbdd5b9d60721b6044820152606401610c04565b335f908152600760205260409020546001146131d35760405162461bcd60e51b815260206004820152602860248201527f416c726561647920766f74656420283e3129206f72206e6f7420726567697374604482015267657265642028302960c01b6064820152608401610c04565b6002545f906001600160401b038111156131ef576131ef614fcb565b604051908082528060200260200182016040528015613218578160200160208202803683370190505b50335f818152600760205260408082204290555192935090917fb87a61d78bd15221c59b983f6ef032fbde0631e66bfe18d1421fe5a73c16741d9190a25f5b828110156133aa575f84848381811061327257613272615a9e565b90506020020135905060028054905081106132c75760405162461bcd60e51b81526020600482015260156024820152740aee4dedcce40c6c2dcc8d2c8c2e8ca40d2dcc8caf605b1b6044820152606401610c04565b8281815181106132d9576132d9615a9e565b60200260200101511561332e5760405162461bcd60e51b815260206004820152601a60248201527f526570657469746976652063616e64696461746520696e6465780000000000006044820152606401610c04565b600183828151811061334257613342615a9e565b60200260200101901515908115158152505060035f6002838154811061336a5761336a615a9e565b5f9182526020808320909101546001600160a01b03168352820192909252604001812060040180549161339c83615ba9565b909155505050600101613257565b50505050565b600281815481106133bf575f80fd5b5f918252602090912001546001600160a01b0316905081565b603e81815481106133e7575f80fd5b905f5260205f2090600802015f91509050805f018054613406906158fe565b80601f0160208091040260200160405190810160405280929190818152602001828054613432906158fe565b801561347d5780601f106134545761010080835404028352916020019161347d565b820191905f5260205f20905b81548152906001019060200180831161346057829003601f168201915b505050505090806001018054613492906158fe565b80601f01602080910402602001604051908101604052809291908181526020018280546134be906158fe565b80156135095780601f106134e057610100808354040283529160200191613509565b820191905f5260205f20905b8154815290600101906020018083116134ec57829003601f168201915b50505050509080600201805461351e906158fe565b80601f016020809104026020016040519081016040528092919081815260200182805461354a906158fe565b80156135955780601f1061356c57610100808354040283529160200191613595565b820191905f5260205f20905b81548152906001019060200180831161357857829003601f168201915b5050505050908060030180546135aa906158fe565b80601f01602080910402602001604051908101604052809291908181526020018280546135d6906158fe565b80156136215780601f106135f857610100808354040283529160200191613621565b820191905f5260205f20905b81548152906001019060200180831161360457829003601f168201915b50505050509080600401549080600501805461363c906158fe565b80601f0160208091040260200160405190810160405280929190818152602001828054613668906158fe565b80156136b35780601f1061368a576101008083540402835291602001916136b3565b820191905f5260205f20905b81548152906001019060200180831161369657829003601f168201915b5050505050908060060154908060070154905088565b6137106040518060e001604052805f6001600160a01b03168152602001606081526020015f81526020015f81526020015f81526020015f60ff168152602001606081525090565b60045482106137315760405162461bcd60e51b8152600401610c0490615a71565b6004828154811061374457613744615a9e565b5f9182526020918290206040805160e0810190915260079092020180546001600160a01b031682526001810180549293919291840191613783906158fe565b80601f01602080910402602001604051908101604052809291908181526020018280546137af906158fe565b80156137fa5780601f106137d1576101008083540402835291602001916137fa565b820191905f5260205f20905b8154815290600101906020018083116137dd57829003601f168201915b50505050508152602001600282015481526020016003820154815260200160048201548152602001600582015f9054906101000a900460ff1660ff1660ff16815260200160068201805480602002602001604051908101604052809291908181526020015f905b82821015613942575f84815260209081902060408051606081018252600386029092018054835260018101546001600160a01b031693830193909352600283018054929392918401916138b3906158fe565b80601f01602080910402602001604051908101604052809291908181526020018280546138df906158fe565b801561392a5780601f106139015761010080835404028352916020019161392a565b820191905f5260205f20905b81548152906001019060200180831161390d57829003601f168201915b50505050508152505081526020019060010190613861565b505050915250909392505050565b335f9081526003602052604081206005015460ff166139b15760405162461bcd60e51b815260206004820152601860248201527f4f6e6c79206d656d626572732063616e2070726f706f736500000000000000006044820152606401610c04565b6113888211156139f05760405162461bcd60e51b815260206004820152600a60248201526952617465203e2035302560b01b6044820152606401610c04565b335f90815260ad602052604081205460ff168181158015613a15575060ae5460ff1615155b15613a565760ae805460ff16905f613a2c83615e54565b82546101009290920a60ff81810219909316918316021790915560ae545f9550169150613a7a9050565b60498260ff1660328110613a6c57613a6c615a9e565b600202016001015492508190505b828503613aec57845f03613ae4573360498260ff1660328110613a9f57613a9f615a9e565b6002020180546001600160a01b0319166001600160a01b0392909216919091179055335f90815260ad60205260409020805460ff191660ff8316179055949350505050565b509392505050565b82851115613c0c575b613b0160016032615e6f565b60ff168160ff16108015613b3b57506049613b1d826001615e88565b60ff1660328110613b3057613b30615a9e565b600202016001015485115b15613c07576049613b4d826001615e88565b60ff1660328110613b6057613b60615a9e565b6002020160498260ff1660328110613b7a57613b7a615a9e565b82546002919091029190910180546001600160a01b0319166001600160a01b039092169190911781556001918201549101558060ad5f604960ff841660328110613bc657613bc6615a9e565b60020201546001600160a01b0316815260208101919091526040015f20805460ff191660ff9290921691909117905580613bff81615ab2565b915050613af5565b613d10565b5f8160ff16118015613c4457506049613c26600183615e6f565b60ff1660328110613c3957613c39615a9e565b600202016001015485105b15613d10576049613c56600183615e6f565b60ff1660328110613c6957613c69615a9e565b6002020160498260ff1660328110613c8357613c83615a9e565b82546002919091029190910180546001600160a01b0319166001600160a01b039092169190911781556001918201549101558060ad5f604960ff841660328110613ccf57613ccf615a9e565b60020201546001600160a01b0316815260208101919091526040015f20805460ff191660ff9290921691909117905580613d0881615e54565b915050613c0c565b6040805180820190915233815260208101869052604960ff831660328110613d3a57613d3a615a9e565b82516002919091029190910180546001600160a01b0319166001600160a01b03909216919091178155602091820151600190910155335f81815260ad8352604090819020805460ff191660ff8681169182179092558251888152918716948201949094529081018890526060810192909252907f1ce0beaec98d7537137a85c2d351c6c99900830d30fe8a7c353fa27225807e729060800160405180910390a26049613de860026032615ea1565b60ff1660328110613dfb57613dfb615a9e565b600202016001015460465414613ef1576049613e1960026032615ea1565b60ff1660328110613e2c57613e2c615a9e565b6001600291820292909201820154604681815560408051808201825292835242602084019081526047805496870181555f529251949093027fc43c1e24e1884c4e28a16bbd9506f60b5ca9f18fc90635e729d3cfe13abcf00181019490945590517fc43c1e24e1884c4e28a16bbd9506f60b5ca9f18fc90635e729d3cfe13abcf00290930192909255905490517fa90e14be5aa57b910aa6dc16c31ff1b5cda380ae25a793b0d3f74df6131a7d7491613ee89190815260200190565b60405180910390a15b949350505050565b42625c49005f54613f0a9190615e41565b10613f575760405162461bcd60e51b815260206004820152601b60248201527f43616e6e6f74207374617274207265666572656e64756d2079657400000000006044820152606401610c04565b60425415613fa75760405162461bcd60e51b815260206004820152601f60248201527f416c7265616479207261746966696564206120636f6e737469747574696f6e006044820152606401610c04565b603e54600a10613fed5760405162461bcd60e51b81526020600482015260116024820152704e6f7420656e6f7567682064726166747360781b6044820152606401610c04565b604154620f424063ffffffff909116101561403e5760405162461bcd60e51b81526020600482015260116024820152704e6f7420656e6f75676820766f7465727360781b6044820152606401610c04565b61404b4262015180615e41565b6005556040517fa0ab6b515144b30d8222a12e45d1c1df7265286d8a0d9f73c23c8b06f6021871905f90a1565b60055442106140c25760405162461bcd60e51b81526020600482015260166024820152754e6f7420696e205265666572656e64756d2074696d6560501b6044820152606401610c04565b603e548111156141095760405162461bcd60e51b8152602060048201526012602482015271125b9d985b1a5908191c98599d081b1a5cdd60721b6044820152606401610c04565b335f908152604060208190529020546002146141735760405162461bcd60e51b8152602060048201526024808201527f566f746564206f72204e6f74207265676973746572656420656e6f7567682074604482015263696d657360e01b6064820152608401610c04565b603e545f906001600160401b0381111561418f5761418f614fcb565b6040519080825280602002602001820160405280156141b8578160200160208202803683370190505b5090505f5b828110156142e5575f8484838181106141d8576141d8615a9e565b905060200201359050603e8054905081106142255760405162461bcd60e51b815260206004820152600d60248201526c125b9d985b1a5908191c98599d609a1b6044820152606401610c04565b82818151811061423757614237615a9e565b6020026020010151156142815760405162461bcd60e51b815260206004820152601260248201527114995c195d1a5d1a5d9948191c98599d125960721b6044820152606401610c04565b600183828151811061429557614295615a9e565b602002602001019015159081151581525050603e81815481106142ba576142ba615a9e565b5f918252602082206007600890920201018054916142d783615ba9565b9091555050506001016141bd565b50335f81815260406020819052808220429055517f4b50b8927fd1b030f5404dc4394c2a5d30d7f6c6fa6d732c089ffe8c10f094219190a2505050565b60045481106143435760405162461bcd60e51b8152600401610c0490615a71565b5f6004828154811061435757614357615a9e565b5f918252602090912060079091020180549091506001600160a01b031633146143c25760405162461bcd60e51b815260206004820152601e60248201527f4f6e6c79207468652070726f706f7365722063616e20776974686472617700006044820152606401610c04565b6003810154156144145760405162461bcd60e51b815260206004820152601960248201527f50726f706f73616c20616c7265616479206578656375746564000000000000006044820152606401610c04565b6004810154156144665760405162461bcd60e51b815260206004820152601a60248201527f50726f706f73616c20616c72656164792077697468647261776e0000000000006044820152606401610c04565b426004820155335f908152603c60205260408082208290555183917f5ca6c0bba519c857c8713fba9f5f1b582abe00c95dcccedccea41ad683bad26d91a25050565b60036020525f90815260409020805481906144c2906158fe565b80601f01602080910402602001604051908101604052809291908181526020018280546144ee906158fe565b80156145395780601f1061451057610100808354040283529160200191614539565b820191905f5260205f20905b81548152906001019060200180831161451c57829003601f168201915b50505050509080600101805461454e906158fe565b80601f016020809104026020016040519081016040528092919081815260200182805461457a906158fe565b80156145c55780601f1061459c576101008083540402835291602001916145c5565b820191905f5260205f20905b8154815290600101906020018083116145a857829003601f168201915b5050505050908060020180546145da906158fe565b80601f0160208091040260200160405190810160405280929190818152602001828054614606906158fe565b80156146515780601f1061462857610100808354040283529160200191614651565b820191905f5260205f20905b81548152906001019060200180831161463457829003601f168201915b5050506003840154600485015460058601546006909601549495919490935060ff909116915087565b614682614fac565b603a5460ff16156146cb57604080516106408101918290529060089060329082845b81546001600160a01b031681526001909101906020018083116146a4575050505050905090565b5f5442116147115760405162461bcd60e51b815260206004820152601360248201527221b0b6361030b33a32b91032b632b1ba34b7b760691b6044820152606401610c04565b60015b60328111614954575f5b6002548290038110156148975760035f6002836001018154811061474457614744615a9e565b905f5260205f20015f9054906101000a90046001600160a01b03166001600160a01b03166001600160a01b031681526020019081526020015f206004015460035f6002848154811061479857614798615a9e565b5f9182526020808320909101546001600160a01b03168352820192909252604001902060040154111561488f57600281600101815481106147db576147db615a9e565b5f91825260209091200154600280546001600160a01b03909216918390811061480657614806615a9e565b5f91825260209091200154600280546001600160a01b03909216918490811061483157614831615a9e565b905f5260205f20015f6002856001018154811061485057614850615a9e565b5f91825260209091200180546001600160a01b039485166001600160a01b031990911617905581549383166101009190910a9081029202199092161790555b60010161471e565b50600280548281039081106148ae576148ae615a9e565b5f918252602090912001546001600160a01b031660085f198301603281106148d8576148d8615a9e565b0180546001600160a01b0319166001600160a01b0392909216919091179055600280546001916003915f919085810390811061491657614916615a9e565b5f918252602080832091909101546001600160a01b031683528201929092526040019020600501805460ff1916911515919091179055600101614714565b50603a8054600880546001600160a01b039081166101009081026001600160a81b031990941693909317600117938490555f603b819055929093049092168152600360205260409081902042600690910155516149b19190615ece565b604051908190038120603a5461010090046001600160a01b03168252907f5befb7b9346d2adf55904a87bbd0d35bcede9d28085a00c081c6168ac5ed6c449060200160405180910390a260408051610640810191829052600880546001600160a01b0316825290916032906009602085018083116146a4575050505050905090565b60478181548110614a42575f80fd5b5f9182526020909120600290910201805460019091015490915082565b614a67614f67565b603e548210614ab85760405162461bcd60e51b815260206004820152601d60248201527f496e76616c696420636f6e737469747574696f6e2064726166742049440000006044820152606401610c04565b603e8281548110614acb57614acb615a9e565b905f5260205f209060080201604051806101000160405290815f82018054614af2906158fe565b80601f0160208091040260200160405190810160405280929190818152602001828054614b1e906158fe565b8015614b695780601f10614b4057610100808354040283529160200191614b69565b820191905f5260205f20905b815481529060010190602001808311614b4c57829003601f168201915b50505050508152602001600182018054614b82906158fe565b80601f0160208091040260200160405190810160405280929190818152602001828054614bae906158fe565b8015614bf95780601f10614bd057610100808354040283529160200191614bf9565b820191905f5260205f20905b815481529060010190602001808311614bdc57829003601f168201915b50505050508152602001600282018054614c12906158fe565b80601f0160208091040260200160405190810160405280929190818152602001828054614c3e906158fe565b8015614c895780601f10614c6057610100808354040283529160200191614c89565b820191905f5260205f20905b815481529060010190602001808311614c6c57829003601f168201915b50505050508152602001600382018054614ca2906158fe565b80601f0160208091040260200160405190810160405280929190818152602001828054614cce906158fe565b8015614d195780601f10614cf057610100808354040283529160200191614d19565b820191905f5260205f20905b815481529060010190602001808311614cfc57829003601f168201915b5050505050815260200160048201548152602001600582018054614d3c906158fe565b80601f0160208091040260200160405190810160405280929190818152602001828054614d68906158fe565b8015614db35780601f10614d8a57610100808354040283529160200191614db3565b820191905f5260205f20905b815481529060010190602001808311614d9657829003601f168201915b50505050508152602001600682015481526020016007820154815250509050919050565b5f60048281548110614deb57614deb615a9e565b905f5260205f20906007020190505f5b6006820154811015614f44575f826006018281548110614e1d57614e1d615a9e565b905f5260205f2090600302016040518060600160405290815f8201548152602001600182015f9054906101000a90046001600160a01b03166001600160a01b03166001600160a01b03168152602001600282018054614e7b906158fe565b80601f0160208091040260200160405190810160405280929190818152602001828054614ea7906158fe565b8015614ef25780601f10614ec957610100808354040283529160200191614ef2565b820191905f5260205f20905b815481529060010190602001808311614ed557829003601f168201915b505050505081525050905080602001516001600160a01b03166108fc825f015190811502906040515f60405180830381858888f19350505050158015614f3a573d5f803e3d5ffd5b5050600101614dfb565b505050565b60405180604001604052806002906020820280368337509192915050565b604051806101000160405280606081526020016060815260200160608152602001606081526020015f8019168152602001606081526020015f81526020015f81525090565b6040518061064001604052806032906020820280368337509192915050565b634e487b7160e01b5f52604160045260245ffd5b60405161010081016001600160401b038111828210171561500257615002614fcb565b60405290565b5f82601f830112615017575f80fd5b81356001600160401b0381111561503057615030614fcb565b604051601f8201601f19908116603f011681016001600160401b038111828210171561505e5761505e614fcb565b604052818152838201602001851015615075575f80fd5b816020850160208301375f918101602001919091529392505050565b5f602082840312156150a1575f80fd5b81356001600160401b038111156150b6575f80fd5b820161010081850312156150c8575f80fd5b6150d0614fdf565b81356001600160401b038111156150e5575f80fd5b6150f186828501615008565b82525060208201356001600160401b0381111561510c575f80fd5b61511886828501615008565b60208301525060408201356001600160401b03811115615136575f80fd5b61514286828501615008565b60408301525060608201356001600160401b03811115615160575f80fd5b61516c86828501615008565b6060830152506080828101359082015260a08201356001600160401b03811115615194575f80fd5b6151a086828501615008565b60a08301525060c0828101359082015260e091820135918101919091529392505050565b5f602082840312156151d4575f80fd5b5035919050565b5f81518084528060208401602086015e5f602082860101526020601f19601f83011685010191505092915050565b6001600160a01b038716815260c0602082018190525f9061522c908301886151db565b905085604083015284606083015283608083015260ff831660a0830152979650505050505050565b5f805f60608486031215615266575f80fd5b83356001600160401b0381111561527b575f80fd5b61528786828701615008565b93505060208401356001600160401b038111156152a2575f80fd5b6152ae86828701615008565b92505060408401356001600160401b038111156152c9575f80fd5b6152d586828701615008565b9150509250925092565b6040810181835f5b600281101561530f5781516001600160a01b03168352602092830192909101906001016152e7565b50505092915050565b6001600160a01b038116811461532c575f80fd5b50565b5f8060408385031215615340575f80fd5b823561534b81615318565b946020939093013593505050565b80610140810183101561536a575f80fd5b92915050565b5f806102808385031215615382575f80fd5b61538c8484615359565b915061539c846101408501615359565b90509250929050565b5f80604083850312156153b6575f80fd5b82356153c181615318565b915060208301355f81900b81146153d6575f80fd5b809150509250929050565b5f8083601f8401126153f1575f80fd5b5081356001600160401b03811115615407575f80fd5b6020830191508360208260051b8501011115615421575f80fd5b9250929050565b5f805f806040858703121561543b575f80fd5b84356001600160401b03811115615450575f80fd5b8501601f81018713615460575f80fd5b80356001600160401b03811115615475575f80fd5b876020828401011115615486575f80fd5b6020918201955093508501356001600160401b038111156154a5575f80fd5b6154b1878288016153e1565b95989497509550505050565b5f815161010084526154d36101008501826151db565b9050602083015184820360208601526154ec82826151db565b9150506040830151848203604086015261550682826151db565b9150506060830151848203606086015261552082826151db565b9150506080830151608085015260a083015184820360a086015261554482826151db565b91505060c083015160c085015260e083015160e08501528091505092915050565b828152604060208201525f613ef160408301846154bd565b602081525f825160e060208401526155996101008401826151db565b90506020840151601f198483030160408501526155b682826151db565b9150506040840151601f198483030160608501526155d482826151db565b91505060608401516080840152608084015160a084015260a0840151151560c084015260c084015160e08401528091505092915050565b5f6020828403121561561b575f80fd5b813561562681615318565b9392505050565b634e487b7160e01b5f52602160045260245ffd5b602081016005831061566157634e487b7160e01b5f52602160045260245ffd5b91905290565b5f8060208385031215615678575f80fd5b82356001600160401b0381111561568d575f80fd5b615699858286016153e1565b90969095509350505050565b61010081525f6156b961010083018b6151db565b82810360208401526156cb818b6151db565b905082810360408401526156df818a6151db565b905082810360608401526156f381896151db565b905086608084015282810360a084015261570d81876151db565b60c0840195909552505060e001529695505050505050565b602080825282516001600160a01b03168282015282015160e060408301525f906157536101008401826151db565b90506040840151606084015260608401516080840152608084015160a084015260ff60a08501511660c084015260c0840151601f198483030160e085015281815180845260208401915060208160051b8501016020840193505f5b8281101561580957858203601f190184528451805183526020808201516001600160a01b0316908401526040908101516060918401829052906157f3908401826151db565b60209687019695909501949250506001016157ae565b50979650505050505050565b60e081525f61582760e083018a6151db565b8281036020840152615839818a6151db565b9050828103604084015261584d81896151db565b60608401979097525050608081019390935290151560a083015260c0909101529392505050565b610640810181835f5b603281101561530f5781516001600160a01b031683526020928301929091019060010161587d565b602081525f61562660208301846154bd565b5f81518060208401855e5f93019283525090919050565b5f6158f46158ee6158e86158e2858a6158b7565b886158b7565b866158b7565b846158b7565b9695505050505050565b600181811c9082168061591257607f821691505b60208210810361593057634e487b7160e01b5f52602260045260245ffd5b50919050565b601f821115614f4457805f5260205f20601f840160051c8101602085101561595b5750805b601f840160051c820191505b8181101561597a575f8155600101615967565b5050505050565b5f19600383901b1c191660019190911b1790565b81516001600160401b038111156159ae576159ae614fcb565b6159c2816159bc84546158fe565b84615936565b6020601f8211600181146159ef575f83156159dd5750848201515b6159e78482615981565b85555061597a565b5f84815260208120601f198516915b82811015615a1e57878501518255602094850194600190920191016159fe565b5084821015615a3b57868401515f19600387901b60f8161c191681555b50505050600190811b01905550565b634e487b7160e01b5f52601160045260245ffd5b8181038181111561536a5761536a615a4a565b602080825260139082015272125b9d985b1a59081c1c9bdc1bdcd85b081251606a1b604082015260600190565b634e487b7160e01b5f52603260045260245ffd5b5f60ff821660ff8103615ac757615ac7615a4a565b60010192915050565b606081525f615ae260608301866151db565b8281036020840152615af481866151db565b905082810360408401526158f481856151db565b8082018281125f831280158216821582161715615b2757615b27615a4a565b505092915050565b5f61ffff821661ffff8103615ac757615ac7615a4a565b63ffffffff818116838216019081111561536a5761536a615a4a565b5f8183825b600a811015615b99578135615b7b81615318565b6001600160a01b031683526020928301929190910190600101615b67565b5050506101408201905092915050565b5f60018201615bba57615bba615a4a565b5060010190565b5f81615bcf57615bcf615a4a565b505f190190565b5f82810b9082900b03607f198112607f8213171561536a5761536a615a4a565b6001600160401b03831115615c0d57615c0d614fcb565b615c2183615c1b83546158fe565b83615936565b5f601f841160018114615c4d575f8515615c3b5750838201355b615c458682615981565b84555061597a565b5f83815260208120601f198716915b82811015615c7c5786850135825560209485019460019092019101615c5c565b5086821015615c98575f1960f88860031b161c19848701351681555b505060018560011b0183555050505050565b5f8235605e19833603018112615cbe575f80fd5b9190910192915050565b81358155600181016020830135615cde81615318565b81546001600160a01b0319166001600160a01b0391909116179055604082013536839003601e19018112615d10575f80fd5b820180356001600160401b03811115615d27575f80fd5b602082019150803603821315615d3b575f80fd5b600283016001600160401b03821115615d5657615d56614fcb565b615d6482615c1b83546158fe565b5f601f831160018114615d90575f8415615d7e5750848201355b615d888582615981565b845550615de7565b5f83815260208120601f198616915b82811015615dbf5787850135825560209485019460019092019101615d9f565b5085821015615ddb575f1960f88760031b161c19848801351681555b505060018460011b0183555b50505050505050565b60208152816020820152818360408301375f818301604090810191909152601f909201601f19160101919050565b60ff8181168382160290811690818114615e3a57615e3a615a4a565b5092915050565b8082018082111561536a5761536a615a4a565b5f60ff821680615e6657615e66615a4a565b5f190192915050565b60ff828116828216039081111561536a5761536a615a4a565b60ff818116838216019081111561536a5761536a615a4a565b5f60ff831680615ebf57634e487b7160e01b5f52601260045260245ffd5b8060ff84160491505092915050565b5f8183825b6032811015615efb5781546001600160a01b0316835260209092019160019182019101615ed3565b505050610640820190509291505056fea264697066735822122073218204342dfd425b2597c76e4e02f89e824f961b949a22aa78990cb07cddaa64736f6c634300081a0033",
			"opcodes": "PUSH1 0xA0 PUSH1 0x40 MSTORE PUSH1 0x3A DUP1 SLOAD PUSH1 0xFF NOT SWAP1 DUP2 AND SWAP1 SWAP2 SSTORE PUSH1 0xAE DUP1 SLOAD SWAP1 SWAP2 AND PUSH1 0x32 OR SWAP1 SSTORE CALLVALUE DUP1 ISZERO PUSH2 0x28 JUMPI PUSH0 DUP1 REVERT JUMPDEST POP PUSH1 0x40 MLOAD PUSH2 0x62BF CODESIZE SUB DUP1 PUSH2 0x62BF DUP4 CODECOPY DUP2 ADD PUSH1 0x40 DUP2 SWAP1 MSTORE PUSH2 0x47 SWAP2 PUSH2 0x134 JUMP JUMPDEST PUSH1 0x1 DUP1 SLOAD PUSH1 0x1 PUSH1 0x1 PUSH1 0xA0 SHL SUB NOT AND PUSH1 0x1 PUSH1 0x1 PUSH1 0xA0 SHL SUB DUP5 AND OR SWAP1 SSTORE TIMESTAMP PUSH1 0x80 DUP2 SWAP1 MSTORE PUSH2 0x76 SWAP1 PUSH3 0x127500 SWAP1 PUSH2 0x203 JUMP JUMPDEST PUSH2 0x81 SWAP1 PUSH1 0x1 PUSH2 0x203 JUMP JUMPDEST PUSH0 SWAP1 DUP2 SSTORE PUSH1 0x4 DUP1 SLOAD PUSH1 0x1 DUP2 ADD DUP3 SSTORE SWAP2 MSTORE PUSH1 0x7 MUL PUSH32 0x8A35ACFBC15FF81A39AE7D344FD709F28E8600B4AA8C65C6B64BFE7FE36BD19B DUP2 ADD DUP1 SLOAD PUSH1 0x1 PUSH1 0x1 PUSH1 0xA0 SHL SUB NOT AND CALLER OR DUP2 SSTORE SWAP1 PUSH32 0x8A35ACFBC15FF81A39AE7D344FD709F28E8600B4AA8C65C6B64BFE7FE36BD19C ADD PUSH2 0xF4 DUP4 DUP3 PUSH2 0x2AC JUMP JUMPDEST POP PUSH1 0x80 MLOAD PUSH1 0x2 DUP3 ADD DUP2 SWAP1 SSTORE PUSH1 0x3 DUP3 ADD SSTORE PUSH0 PUSH1 0x4 DUP3 ADD SSTORE PUSH1 0x5 ADD DUP1 SLOAD PUSH1 0xFF NOT AND PUSH1 0x32 OR SWAP1 SSTORE POP PUSH2 0x366 SWAP1 POP JUMP JUMPDEST PUSH4 0x4E487B71 PUSH1 0xE0 SHL PUSH0 MSTORE PUSH1 0x41 PUSH1 0x4 MSTORE PUSH1 0x24 PUSH0 REVERT JUMPDEST PUSH0 DUP1 PUSH1 0x40 DUP4 DUP6 SUB SLT ISZERO PUSH2 0x145 JUMPI PUSH0 DUP1 REVERT JUMPDEST DUP3 MLOAD PUSH1 0x1 PUSH1 0x1 PUSH1 0xA0 SHL SUB DUP2 AND DUP2 EQ PUSH2 0x15B JUMPI PUSH0 DUP1 REVERT JUMPDEST PUSH1 0x20 DUP5 ADD MLOAD SWAP1 SWAP3 POP PUSH1 0x1 PUSH1 0x1 PUSH1 0x40 SHL SUB DUP2 GT ISZERO PUSH2 0x176 JUMPI PUSH0 DUP1 REVERT JUMPDEST DUP4 ADD PUSH1 0x1F DUP2 ADD DUP6 SGT PUSH2 0x186 JUMPI PUSH0 DUP1 REVERT JUMPDEST DUP1 MLOAD PUSH1 0x1 PUSH1 0x1 PUSH1 0x40 SHL SUB DUP2 GT ISZERO PUSH2 0x19F JUMPI PUSH2 0x19F PUSH2 0x120 JUMP JUMPDEST PUSH1 0x40 MLOAD PUSH1 0x1F DUP3 ADD PUSH1 0x1F NOT SWAP1 DUP2 AND PUSH1 0x3F ADD AND DUP2 ADD PUSH1 0x1 PUSH1 0x1 PUSH1 0x40 SHL SUB DUP2 GT DUP3 DUP3 LT OR ISZERO PUSH2 0x1CD JUMPI PUSH2 0x1CD PUSH2 0x120 JUMP JUMPDEST PUSH1 0x40 MSTORE DUP2 DUP2 MSTORE DUP3 DUP3 ADD PUSH1 0x20 ADD DUP8 LT ISZERO PUSH2 0x1E4 JUMPI PUSH0 DUP1 REVERT JUMPDEST DUP2 PUSH1 0x20 DUP5 ADD PUSH1 0x20 DUP4 ADD MCOPY PUSH0 PUSH1 0x20 DUP4 DUP4 ADD ADD MSTORE DUP1 SWAP4 POP POP POP POP SWAP3 POP SWAP3 SWAP1 POP JUMP JUMPDEST DUP1 DUP3 ADD DUP1 DUP3 GT ISZERO PUSH2 0x222 JUMPI PUSH4 0x4E487B71 PUSH1 0xE0 SHL PUSH0 MSTORE PUSH1 0x11 PUSH1 0x4 MSTORE PUSH1 0x24 PUSH0 REVERT JUMPDEST SWAP3 SWAP2 POP POP JUMP JUMPDEST PUSH1 0x1 DUP2 DUP2 SHR SWAP1 DUP3 AND DUP1 PUSH2 0x23C JUMPI PUSH1 0x7F DUP3 AND SWAP2 POP JUMPDEST PUSH1 0x20 DUP3 LT DUP2 SUB PUSH2 0x25A JUMPI PUSH4 0x4E487B71 PUSH1 0xE0 SHL PUSH0 MSTORE PUSH1 0x22 PUSH1 0x4 MSTORE PUSH1 0x24 PUSH0 REVERT JUMPDEST POP SWAP2 SWAP1 POP JUMP JUMPDEST PUSH1 0x1F DUP3 GT ISZERO PUSH2 0x2A7 JUMPI DUP1 PUSH0 MSTORE PUSH1 0x20 PUSH0 KECCAK256 PUSH1 0x1F DUP5 ADD PUSH1 0x5 SHR DUP2 ADD PUSH1 0x20 DUP6 LT ISZERO PUSH2 0x285 JUMPI POP DUP1 JUMPDEST PUSH1 0x1F DUP5 ADD PUSH1 0x5 SHR DUP3 ADD SWAP2 POP JUMPDEST DUP2 DUP2 LT ISZERO PUSH2 0x2A4 JUMPI PUSH0 DUP2 SSTORE PUSH1 0x1 ADD PUSH2 0x291 JUMP JUMPDEST POP POP JUMPDEST POP POP POP JUMP JUMPDEST DUP2 MLOAD PUSH1 0x1 PUSH1 0x1 PUSH1 0x40 SHL SUB DUP2 GT ISZERO PUSH2 0x2C5 JUMPI PUSH2 0x2C5 PUSH2 0x120 JUMP JUMPDEST PUSH2 0x2D9 DUP2 PUSH2 0x2D3 DUP5 SLOAD PUSH2 0x228 JUMP JUMPDEST DUP5 PUSH2 0x260 JUMP JUMPDEST PUSH1 0x20 PUSH1 0x1F DUP3 GT PUSH1 0x1 DUP2 EQ PUSH2 0x30B JUMPI PUSH0 DUP4 ISZERO PUSH2 0x2F4 JUMPI POP DUP5 DUP3 ADD MLOAD JUMPDEST PUSH0 NOT PUSH1 0x3 DUP6 SWAP1 SHL SHR NOT AND PUSH1 0x1 DUP5 SWAP1 SHL OR DUP5 SSTORE PUSH2 0x2A4 JUMP JUMPDEST PUSH0 DUP5 DUP2 MSTORE PUSH1 0x20 DUP2 KECCAK256 PUSH1 0x1F NOT DUP6 AND SWAP2 JUMPDEST DUP3 DUP2 LT ISZERO PUSH2 0x33A JUMPI DUP8 DUP6 ADD MLOAD DUP3 SSTORE PUSH1 0x20 SWAP5 DUP6 ADD SWAP5 PUSH1 0x1 SWAP1 SWAP3 ADD SWAP2 ADD PUSH2 0x31A JUMP JUMPDEST POP DUP5 DUP3 LT ISZERO PUSH2 0x357 JUMPI DUP7 DUP5 ADD MLOAD PUSH0 NOT PUSH1 0x3 DUP8 SWAP1 SHL PUSH1 0xF8 AND SHR NOT AND DUP2 SSTORE JUMPDEST POP POP POP POP PUSH1 0x1 SWAP1 DUP2 SHL ADD SWAP1 SSTORE POP JUMP JUMPDEST PUSH1 0x80 MLOAD PUSH2 0x5F41 PUSH2 0x37E PUSH0 CODECOPY PUSH0 PUSH2 0x768 ADD MSTORE PUSH2 0x5F41 PUSH0 RETURN INVALID PUSH1 0x80 PUSH1 0x40 MSTORE PUSH1 0x4 CALLDATASIZE LT PUSH2 0x3B2 JUMPI PUSH0 CALLDATALOAD PUSH1 0xE0 SHR DUP1 PUSH4 0x86A0DD7D GT PUSH2 0x1E9 JUMPI DUP1 PUSH4 0xBEB54795 GT PUSH2 0x108 JUMPI DUP1 PUSH4 0xE42A54C4 GT PUSH2 0x9D JUMPI DUP1 PUSH4 0xEEDB2D28 GT PUSH2 0x6D JUMPI DUP1 PUSH4 0xEEDB2D28 EQ PUSH2 0xB3D JUMPI DUP1 PUSH4 0xF33E9573 EQ PUSH2 0xB52 JUMPI DUP1 PUSH4 0xF3A4ABA9 EQ PUSH2 0xB71 JUMPI DUP1 PUSH4 0xF9F8BDB7 EQ PUSH2 0xB9D JUMPI PUSH0 DUP1 REVERT JUMPDEST DUP1 PUSH4 0xE42A54C4 EQ PUSH2 0xAA0 JUMPI DUP1 PUSH4 0xE965B7C9 EQ PUSH2 0xABC JUMPI DUP1 PUSH4 0xEAB536FC EQ PUSH2 0xAEE JUMPI DUP1 PUSH4 0xECCF1F10 EQ PUSH2 0xB1C JUMPI PUSH0 DUP1 REVERT JUMPDEST DUP1 PUSH4 0xD1791AE0 GT PUSH2 0xD8 JUMPI DUP1 PUSH4 0xD1791AE0 EQ PUSH2 0xA23 JUMPI DUP1 PUSH4 0xD90D7CD8 EQ PUSH2 0xA39 JUMPI DUP1 PUSH4 0xE1F02FFA EQ PUSH2 0xA6D JUMPI DUP1 PUSH4 0xE292BF16 EQ PUSH2 0xA8C JUMPI PUSH0 DUP1 REVERT JUMPDEST DUP1 PUSH4 0xBEB54795 EQ PUSH2 0x9C2 JUMPI DUP1 PUSH4 0xC1B13157 EQ PUSH2 0x9D7 JUMPI DUP1 PUSH4 0xC8D7B9F1 EQ PUSH2 0x9F6 JUMPI DUP1 PUSH4 0xCE7EA161 EQ PUSH2 0xA0F JUMPI PUSH0 DUP1 REVERT JUMPDEST DUP1 PUSH4 0xB0FEB260 GT PUSH2 0x17E JUMPI DUP1 PUSH4 0xBBEA6F0B GT PUSH2 0x14E JUMPI DUP1 PUSH4 0xBBEA6F0B EQ PUSH2 0x930 JUMPI DUP1 PUSH4 0xBC903CB8 EQ PUSH2 0x963 JUMPI DUP1 PUSH4 0xBDC8E7B3 EQ PUSH2 0x98F JUMPI DUP1 PUSH4 0xBE003EE6 EQ PUSH2 0x9AE JUMPI PUSH0 DUP1 REVERT JUMPDEST DUP1 PUSH4 0xB0FEB260 EQ PUSH2 0x8E8 JUMPI DUP1 PUSH4 0xB13C744B EQ PUSH2 0x8FD JUMPI DUP1 PUSH4 0xB5BA9795 EQ PUSH2 0x7DC JUMPI DUP1 PUSH4 0xB85C2292 EQ PUSH2 0x91C JUMPI PUSH0 DUP1 REVERT JUMPDEST DUP1 PUSH4 0xA3A40EA5 GT PUSH2 0x1B9 JUMPI DUP1 PUSH4 0xA3A40EA5 EQ PUSH2 0x869 JUMPI DUP1 PUSH4 0xA5F5B1BF EQ PUSH2 0x88A JUMPI DUP1 PUSH4 0xA6A5AD12 EQ PUSH2 0x89E JUMPI DUP1 PUSH4 0xAC0AF944 EQ PUSH2 0x8BD JUMPI PUSH0 DUP1 REVERT JUMPDEST DUP1 PUSH4 0x86A0DD7D EQ PUSH2 0x7F0 JUMPI DUP1 PUSH4 0x97DFFC61 EQ PUSH2 0x804 JUMPI DUP1 PUSH4 0x99B0D39C EQ PUSH2 0x80C JUMPI DUP1 PUSH4 0x9DC99455 EQ PUSH2 0x82B JUMPI PUSH0 DUP1 REVERT JUMPDEST DUP1 PUSH4 0x47F7B722 GT PUSH2 0x2D5 JUMPI DUP1 PUSH4 0x59297DBF GT PUSH2 0x26A JUMPI DUP1 PUSH4 0x7D48536D GT PUSH2 0x23A JUMPI DUP1 PUSH4 0x7D48536D EQ PUSH2 0x66D JUMPI DUP1 PUSH4 0x7DA4CE83 EQ PUSH2 0x78A JUMPI DUP1 PUSH4 0x7F4241E7 EQ PUSH2 0x7AE JUMPI DUP1 PUSH4 0x8325ED2D EQ PUSH2 0x7DC JUMPI PUSH0 DUP1 REVERT JUMPDEST DUP1 PUSH4 0x59297DBF EQ PUSH2 0x6E5 JUMPI DUP1 PUSH4 0x70F67CFE EQ PUSH2 0x6F7 JUMPI DUP1 PUSH4 0x78E3EF20 EQ PUSH2 0x723 JUMPI DUP1 PUSH4 0x78E97925 EQ PUSH2 0x757 JUMPI PUSH0 DUP1 REVERT JUMPDEST DUP1 PUSH4 0x4EBEB109 GT PUSH2 0x2A5 JUMPI DUP1 PUSH4 0x4EBEB109 EQ PUSH2 0x66D JUMPI DUP1 PUSH4 0x5004E24A EQ PUSH2 0x687 JUMPI DUP1 PUSH4 0x53FDC838 EQ PUSH2 0x69D JUMPI DUP1 PUSH4 0x54C17527 EQ PUSH2 0x6D1 JUMPI PUSH0 DUP1 REVERT JUMPDEST DUP1 PUSH4 0x47F7B722 EQ PUSH2 0x60E JUMPI DUP1 PUSH4 0x49066E79 EQ PUSH2 0x624 JUMPI DUP1 PUSH4 0x491DE471 EQ PUSH2 0x63A JUMPI DUP1 PUSH4 0x4D0C8726 EQ PUSH2 0x64E JUMPI PUSH0 DUP1 REVERT JUMPDEST DUP1 PUSH4 0x1B408934 GT PUSH2 0x34B JUMPI DUP1 PUSH4 0x29C83BE1 GT PUSH2 0x31B JUMPI DUP1 PUSH4 0x29C83BE1 EQ PUSH2 0x599 JUMPI DUP1 PUSH4 0x3B497B28 EQ PUSH2 0x5B8 JUMPI DUP1 PUSH4 0x3DEF77B7 EQ PUSH2 0x5D7 JUMPI DUP1 PUSH4 0x452D32BB EQ PUSH2 0x5EC JUMPI PUSH0 DUP1 REVERT JUMPDEST DUP1 PUSH4 0x1B408934 EQ PUSH2 0x4D5 JUMPI DUP1 PUSH4 0x214C3A89 EQ PUSH2 0x50D JUMPI DUP1 PUSH4 0x2190BEE8 EQ PUSH2 0x544 JUMPI DUP1 PUSH4 0x26C29449 EQ PUSH2 0x57A JUMPI PUSH0 DUP1 REVERT JUMPDEST DUP1 PUSH4 0x89E35B8 GT PUSH2 0x386 JUMPI DUP1 PUSH4 0x89E35B8 EQ PUSH2 0x449 JUMPI DUP1 PUSH4 0x8EC6A19 EQ PUSH2 0x472 JUMPI DUP1 PUSH4 0x12065FE0 EQ PUSH2 0x49E JUMPI DUP1 PUSH4 0x16392372 EQ PUSH2 0x4C0 JUMPI PUSH0 DUP1 REVERT JUMPDEST DUP1 PUSH3 0xFA88E2 EQ PUSH2 0x3B6 JUMPI DUP1 PUSH4 0x13CF08B EQ PUSH2 0x3CB JUMPI DUP1 PUSH4 0x45C6CE0 EQ PUSH2 0x405 JUMPI DUP1 PUSH4 0x79DDD11 EQ PUSH2 0x436 JUMPI JUMPDEST PUSH0 DUP1 REVERT JUMPDEST PUSH2 0x3C9 PUSH2 0x3C4 CALLDATASIZE PUSH1 0x4 PUSH2 0x5091 JUMP JUMPDEST PUSH2 0xBB2 JUMP JUMPDEST STOP JUMPDEST CALLVALUE DUP1 ISZERO PUSH2 0x3D6 JUMPI PUSH0 DUP1 REVERT JUMPDEST POP PUSH2 0x3EA PUSH2 0x3E5 CALLDATASIZE PUSH1 0x4 PUSH2 0x51C4 JUMP JUMPDEST PUSH2 0xEDE JUMP JUMPDEST PUSH1 0x40 MLOAD PUSH2 0x3FC SWAP7 SWAP6 SWAP5 SWAP4 SWAP3 SWAP2 SWAP1 PUSH2 0x5209 JUMP JUMPDEST PUSH1 0x40 MLOAD DUP1 SWAP2 SUB SWAP1 RETURN JUMPDEST CALLVALUE DUP1 ISZERO PUSH2 0x410 JUMPI PUSH0 DUP1 REVERT JUMPDEST POP PUSH2 0x424 PUSH2 0x41F CALLDATASIZE PUSH1 0x4 PUSH2 0x51C4 JUMP JUMPDEST PUSH2 0xFB8 JUMP JUMPDEST PUSH1 0x40 MLOAD PUSH1 0xFF SWAP1 SWAP2 AND DUP2 MSTORE PUSH1 0x20 ADD PUSH2 0x3FC JUMP JUMPDEST PUSH2 0x3C9 PUSH2 0x444 CALLDATASIZE PUSH1 0x4 PUSH2 0x5254 JUMP JUMPDEST PUSH2 0x11F2 JUMP JUMPDEST CALLVALUE DUP1 ISZERO PUSH2 0x454 JUMPI PUSH0 DUP1 REVERT JUMPDEST POP PUSH1 0x3A SLOAD PUSH2 0x462 SWAP1 PUSH1 0xFF AND DUP2 JUMP JUMPDEST PUSH1 0x40 MLOAD SWAP1 ISZERO ISZERO DUP2 MSTORE PUSH1 0x20 ADD PUSH2 0x3FC JUMP JUMPDEST CALLVALUE DUP1 ISZERO PUSH2 0x47D JUMPI PUSH0 DUP1 REVERT JUMPDEST POP PUSH2 0x491 PUSH2 0x48C CALLDATASIZE PUSH1 0x4 PUSH2 0x51C4 JUMP JUMPDEST PUSH2 0x1578 JUMP JUMPDEST PUSH1 0x40 MLOAD PUSH2 0x3FC SWAP2 SWAP1 PUSH2 0x52DF JUMP JUMPDEST CALLVALUE DUP1 ISZERO PUSH2 0x4A9 JUMPI PUSH0 DUP1 REVERT JUMPDEST POP PUSH2 0x4B2 PUSH2 0x15C8 JUMP JUMPDEST PUSH1 0x40 MLOAD SWAP1 DUP2 MSTORE PUSH1 0x20 ADD PUSH2 0x3FC JUMP JUMPDEST CALLVALUE DUP1 ISZERO PUSH2 0x4CB JUMPI PUSH0 DUP1 REVERT JUMPDEST POP PUSH2 0x4B2 PUSH1 0x3B SLOAD DUP2 JUMP JUMPDEST CALLVALUE DUP1 ISZERO PUSH2 0x4E0 JUMPI PUSH0 DUP1 REVERT JUMPDEST POP PUSH1 0x1 SLOAD PUSH2 0x4F8 SWAP1 PUSH1 0x1 PUSH1 0xA0 SHL SWAP1 DIV PUSH4 0xFFFFFFFF AND DUP2 JUMP JUMPDEST PUSH1 0x40 MLOAD PUSH4 0xFFFFFFFF SWAP1 SWAP2 AND DUP2 MSTORE PUSH1 0x20 ADD PUSH2 0x3FC JUMP JUMPDEST CALLVALUE DUP1 ISZERO PUSH2 0x518 JUMPI PUSH0 DUP1 REVERT JUMPDEST POP PUSH2 0x52C PUSH2 0x527 CALLDATASIZE PUSH1 0x4 PUSH2 0x51C4 JUMP JUMPDEST PUSH2 0x163B JUMP JUMPDEST PUSH1 0x40 MLOAD PUSH1 0x1 PUSH1 0x1 PUSH1 0xA0 SHL SUB SWAP1 SWAP2 AND DUP2 MSTORE PUSH1 0x20 ADD PUSH2 0x3FC JUMP JUMPDEST CALLVALUE DUP1 ISZERO PUSH2 0x54F JUMPI PUSH0 DUP1 REVERT JUMPDEST POP PUSH2 0x4B2 PUSH2 0x55E CALLDATASIZE PUSH1 0x4 PUSH2 0x532F JUMP JUMPDEST PUSH1 0x3D PUSH1 0x20 SWAP1 DUP2 MSTORE PUSH0 SWAP3 DUP4 MSTORE PUSH1 0x40 DUP1 DUP5 KECCAK256 SWAP1 SWAP2 MSTORE SWAP1 DUP3 MSTORE SWAP1 KECCAK256 SLOAD DUP2 JUMP JUMPDEST CALLVALUE DUP1 ISZERO PUSH2 0x585 JUMPI PUSH0 DUP1 REVERT JUMPDEST POP PUSH2 0x3C9 PUSH2 0x594 CALLDATASIZE PUSH1 0x4 PUSH2 0x5370 JUMP JUMPDEST PUSH2 0x165A JUMP JUMPDEST CALLVALUE DUP1 ISZERO PUSH2 0x5A4 JUMPI PUSH0 DUP1 REVERT JUMPDEST POP PUSH2 0x3C9 PUSH2 0x5B3 CALLDATASIZE PUSH1 0x4 PUSH2 0x53A5 JUMP JUMPDEST PUSH2 0x1A7C JUMP JUMPDEST CALLVALUE DUP1 ISZERO PUSH2 0x5C3 JUMPI PUSH0 DUP1 REVERT JUMPDEST POP PUSH2 0x4B2 PUSH2 0x5D2 CALLDATASIZE PUSH1 0x4 PUSH2 0x5428 JUMP JUMPDEST PUSH2 0x1C85 JUMP JUMPDEST CALLVALUE DUP1 ISZERO PUSH2 0x5E2 JUMPI PUSH0 DUP1 REVERT JUMPDEST POP PUSH2 0x4F8 PUSH2 0x4B0 DUP2 JUMP JUMPDEST CALLVALUE DUP1 ISZERO PUSH2 0x5F7 JUMPI PUSH0 DUP1 REVERT JUMPDEST POP PUSH2 0x600 PUSH2 0x1EB4 JUMP JUMPDEST PUSH1 0x40 MLOAD PUSH2 0x3FC SWAP3 SWAP2 SWAP1 PUSH2 0x5565 JUMP JUMPDEST CALLVALUE DUP1 ISZERO PUSH2 0x619 JUMPI PUSH0 DUP1 REVERT JUMPDEST POP PUSH2 0x4B2 PUSH3 0x127500 DUP2 JUMP JUMPDEST CALLVALUE DUP1 ISZERO PUSH2 0x62F JUMPI PUSH0 DUP1 REVERT JUMPDEST POP PUSH2 0x4B2 PUSH3 0x93A80 DUP2 JUMP JUMPDEST CALLVALUE DUP1 ISZERO PUSH2 0x645 JUMPI PUSH0 DUP1 REVERT JUMPDEST POP PUSH2 0x4B2 PUSH1 0x2 DUP2 JUMP JUMPDEST CALLVALUE DUP1 ISZERO PUSH2 0x659 JUMPI PUSH0 DUP1 REVERT JUMPDEST POP PUSH1 0x1 SLOAD PUSH2 0x52C SWAP1 PUSH1 0x1 PUSH1 0x1 PUSH1 0xA0 SHL SUB AND DUP2 JUMP JUMPDEST CALLVALUE DUP1 ISZERO PUSH2 0x678 JUMPI PUSH0 DUP1 REVERT JUMPDEST POP PUSH2 0x4B2 PUSH7 0x38D7EA4C68000 DUP2 JUMP JUMPDEST CALLVALUE DUP1 ISZERO PUSH2 0x692 JUMPI PUSH0 DUP1 REVERT JUMPDEST POP PUSH2 0x4B2 PUSH3 0x5C4900 DUP2 JUMP JUMPDEST CALLVALUE DUP1 ISZERO PUSH2 0x6A8 JUMPI PUSH0 DUP1 REVERT JUMPDEST POP PUSH2 0x6BC PUSH2 0x6B7 CALLDATASIZE PUSH1 0x4 PUSH2 0x532F JUMP JUMPDEST PUSH2 0x261A JUMP JUMPDEST PUSH1 0x40 DUP1 MLOAD SWAP3 DUP4 MSTORE PUSH1 0x20 DUP4 ADD SWAP2 SWAP1 SWAP2 MSTORE ADD PUSH2 0x3FC JUMP JUMPDEST CALLVALUE DUP1 ISZERO PUSH2 0x6DC JUMPI PUSH0 DUP1 REVERT JUMPDEST POP PUSH2 0x4B2 PUSH1 0xA DUP2 JUMP JUMPDEST CALLVALUE DUP1 ISZERO PUSH2 0x6F0 JUMPI PUSH0 DUP1 REVERT JUMPDEST POP SELFBALANCE PUSH2 0x4B2 JUMP JUMPDEST CALLVALUE DUP1 ISZERO PUSH2 0x702 JUMPI PUSH0 DUP1 REVERT JUMPDEST POP PUSH2 0x716 PUSH2 0x711 CALLDATASIZE PUSH1 0x4 PUSH2 0x51C4 JUMP JUMPDEST PUSH2 0x2652 JUMP JUMPDEST PUSH1 0x40 MLOAD PUSH2 0x3FC SWAP2 SWAP1 PUSH2 0x557D JUMP JUMPDEST CALLVALUE DUP1 ISZERO PUSH2 0x72E JUMPI PUSH0 DUP1 REVERT JUMPDEST POP PUSH2 0x4B2 PUSH2 0x73D CALLDATASIZE PUSH1 0x4 PUSH2 0x560B JUMP JUMPDEST PUSH1 0x1 PUSH1 0x1 PUSH1 0xA0 SHL SUB AND PUSH0 SWAP1 DUP2 MSTORE PUSH1 0x40 PUSH1 0x20 DUP2 SWAP1 MSTORE SWAP1 KECCAK256 SLOAD SWAP1 JUMP JUMPDEST CALLVALUE DUP1 ISZERO PUSH2 0x762 JUMPI PUSH0 DUP1 REVERT JUMPDEST POP PUSH2 0x4B2 PUSH32 0x0 DUP2 JUMP JUMPDEST CALLVALUE DUP1 ISZERO PUSH2 0x795 JUMPI PUSH0 DUP1 REVERT JUMPDEST POP PUSH1 0x3A SLOAD PUSH2 0x52C SWAP1 PUSH2 0x100 SWAP1 DIV PUSH1 0x1 PUSH1 0x1 PUSH1 0xA0 SHL SUB AND DUP2 JUMP JUMPDEST CALLVALUE DUP1 ISZERO PUSH2 0x7B9 JUMPI PUSH0 DUP1 REVERT JUMPDEST POP PUSH2 0x462 PUSH2 0x7C8 CALLDATASIZE PUSH1 0x4 PUSH2 0x51C4 JUMP JUMPDEST PUSH0 SWAP1 DUP2 MSTORE PUSH1 0x6 PUSH1 0x20 MSTORE PUSH1 0x40 SWAP1 KECCAK256 SLOAD PUSH1 0xFF AND SWAP1 JUMP JUMPDEST CALLVALUE DUP1 ISZERO PUSH2 0x7E7 JUMPI PUSH0 DUP1 REVERT JUMPDEST POP PUSH2 0x4F8 PUSH1 0xA DUP2 JUMP JUMPDEST CALLVALUE DUP1 ISZERO PUSH2 0x7FB JUMPI PUSH0 DUP1 REVERT JUMPDEST POP PUSH2 0x424 PUSH1 0xA DUP2 JUMP JUMPDEST PUSH2 0x3C9 PUSH2 0x2900 JUMP JUMPDEST CALLVALUE DUP1 ISZERO PUSH2 0x817 JUMPI PUSH0 DUP1 REVERT JUMPDEST POP PUSH2 0x3C9 PUSH2 0x826 CALLDATASIZE PUSH1 0x4 PUSH2 0x5370 JUMP JUMPDEST PUSH2 0x297A JUMP JUMPDEST CALLVALUE DUP1 ISZERO PUSH2 0x836 JUMPI PUSH0 DUP1 REVERT JUMPDEST POP PUSH2 0x84A PUSH2 0x845 CALLDATASIZE PUSH1 0x4 PUSH2 0x51C4 JUMP JUMPDEST PUSH2 0x2E79 JUMP JUMPDEST PUSH1 0x40 DUP1 MLOAD PUSH1 0x1 PUSH1 0x1 PUSH1 0xA0 SHL SUB SWAP1 SWAP4 AND DUP4 MSTORE PUSH1 0x20 DUP4 ADD SWAP2 SWAP1 SWAP2 MSTORE ADD PUSH2 0x3FC JUMP JUMPDEST CALLVALUE DUP1 ISZERO PUSH2 0x874 JUMPI PUSH0 DUP1 REVERT JUMPDEST POP PUSH2 0x87D PUSH2 0x2EA4 JUMP JUMPDEST PUSH1 0x40 MLOAD PUSH2 0x3FC SWAP2 SWAP1 PUSH2 0x5641 JUMP JUMPDEST CALLVALUE DUP1 ISZERO PUSH2 0x895 JUMPI PUSH0 DUP1 REVERT JUMPDEST POP PUSH2 0x3C9 PUSH2 0x2F45 JUMP JUMPDEST CALLVALUE DUP1 ISZERO PUSH2 0x8A9 JUMPI PUSH0 DUP1 REVERT JUMPDEST POP PUSH2 0x3C9 PUSH2 0x8B8 CALLDATASIZE PUSH1 0x4 PUSH2 0x5667 JUMP JUMPDEST PUSH2 0x30BD JUMP JUMPDEST CALLVALUE DUP1 ISZERO PUSH2 0x8C8 JUMPI PUSH0 DUP1 REVERT JUMPDEST POP PUSH2 0x4B2 PUSH2 0x8D7 CALLDATASIZE PUSH1 0x4 PUSH2 0x560B JUMP JUMPDEST PUSH1 0x3C PUSH1 0x20 MSTORE PUSH0 SWAP1 DUP2 MSTORE PUSH1 0x40 SWAP1 KECCAK256 SLOAD DUP2 JUMP JUMPDEST CALLVALUE DUP1 ISZERO PUSH2 0x8F3 JUMPI PUSH0 DUP1 REVERT JUMPDEST POP PUSH2 0x4B2 PUSH1 0x5 SLOAD DUP2 JUMP JUMPDEST CALLVALUE DUP1 ISZERO PUSH2 0x908 JUMPI PUSH0 DUP1 REVERT JUMPDEST POP PUSH2 0x52C PUSH2 0x917 CALLDATASIZE PUSH1 0x4 PUSH2 0x51C4 JUMP JUMPDEST PUSH2 0x33B0 JUMP JUMPDEST CALLVALUE DUP1 ISZERO PUSH2 0x927 JUMPI PUSH0 DUP1 REVERT JUMPDEST POP PUSH2 0x424 PUSH1 0x1E DUP2 JUMP JUMPDEST CALLVALUE DUP1 ISZERO PUSH2 0x93B JUMPI PUSH0 DUP1 REVERT JUMPDEST POP PUSH2 0x94F PUSH2 0x94A CALLDATASIZE PUSH1 0x4 PUSH2 0x51C4 JUMP JUMPDEST PUSH2 0x33D8 JUMP JUMPDEST PUSH1 0x40 MLOAD PUSH2 0x3FC SWAP9 SWAP8 SWAP7 SWAP6 SWAP5 SWAP4 SWAP3 SWAP2 SWAP1 PUSH2 0x56A5 JUMP JUMPDEST CALLVALUE DUP1 ISZERO PUSH2 0x96E JUMPI PUSH0 DUP1 REVERT JUMPDEST POP PUSH2 0x982 PUSH2 0x97D CALLDATASIZE PUSH1 0x4 PUSH2 0x51C4 JUMP JUMPDEST PUSH2 0x36C9 JUMP JUMPDEST PUSH1 0x40 MLOAD PUSH2 0x3FC SWAP2 SWAP1 PUSH2 0x5725 JUMP JUMPDEST CALLVALUE DUP1 ISZERO PUSH2 0x99A JUMPI PUSH0 DUP1 REVERT JUMPDEST POP PUSH2 0x424 PUSH2 0x9A9 CALLDATASIZE PUSH1 0x4 PUSH2 0x51C4 JUMP JUMPDEST PUSH2 0x3950 JUMP JUMPDEST CALLVALUE DUP1 ISZERO PUSH2 0x9B9 JUMPI PUSH0 DUP1 REVERT JUMPDEST POP PUSH2 0x3C9 PUSH2 0x3EF9 JUMP JUMPDEST CALLVALUE DUP1 ISZERO PUSH2 0x9CD JUMPI PUSH0 DUP1 REVERT JUMPDEST POP PUSH2 0x4B2 PUSH2 0x3E8 DUP2 JUMP JUMPDEST CALLVALUE DUP1 ISZERO PUSH2 0x9E2 JUMPI PUSH0 DUP1 REVERT JUMPDEST POP PUSH2 0x3C9 PUSH2 0x9F1 CALLDATASIZE PUSH1 0x4 PUSH2 0x5667 JUMP JUMPDEST PUSH2 0x4078 JUMP JUMPDEST CALLVALUE DUP1 ISZERO PUSH2 0xA01 JUMPI PUSH0 DUP1 REVERT JUMPDEST POP PUSH1 0xAE SLOAD PUSH2 0x424 SWAP1 PUSH1 0xFF AND DUP2 JUMP JUMPDEST CALLVALUE DUP1 ISZERO PUSH2 0xA1A JUMPI PUSH0 DUP1 REVERT JUMPDEST POP PUSH2 0x4B2 PUSH0 SLOAD DUP2 JUMP JUMPDEST CALLVALUE DUP1 ISZERO PUSH2 0xA2E JUMPI PUSH0 DUP1 REVERT JUMPDEST POP PUSH2 0x4F8 PUSH3 0xF4240 DUP2 JUMP JUMPDEST CALLVALUE DUP1 ISZERO PUSH2 0xA44 JUMPI PUSH0 DUP1 REVERT JUMPDEST POP PUSH2 0x4B2 PUSH2 0xA53 CALLDATASIZE PUSH1 0x4 PUSH2 0x560B JUMP JUMPDEST PUSH1 0x1 PUSH1 0x1 PUSH1 0xA0 SHL SUB AND PUSH0 SWAP1 DUP2 MSTORE PUSH1 0x7 PUSH1 0x20 MSTORE PUSH1 0x40 SWAP1 KECCAK256 SLOAD SWAP1 JUMP JUMPDEST CALLVALUE DUP1 ISZERO PUSH2 0xA78 JUMPI PUSH0 DUP1 REVERT JUMPDEST POP PUSH2 0x3C9 PUSH2 0xA87 CALLDATASIZE PUSH1 0x4 PUSH2 0x51C4 JUMP JUMPDEST PUSH2 0x4322 JUMP JUMPDEST CALLVALUE DUP1 ISZERO PUSH2 0xA97 JUMPI PUSH0 DUP1 REVERT JUMPDEST POP PUSH2 0x424 PUSH1 0x32 DUP2 JUMP JUMPDEST CALLVALUE DUP1 ISZERO PUSH2 0xAAB JUMPI PUSH0 DUP1 REVERT JUMPDEST POP PUSH1 0x41 SLOAD PUSH2 0x4F8 SWAP1 PUSH4 0xFFFFFFFF AND DUP2 JUMP JUMPDEST CALLVALUE DUP1 ISZERO PUSH2 0xAC7 JUMPI PUSH0 DUP1 REVERT JUMPDEST POP PUSH2 0xADB PUSH2 0xAD6 CALLDATASIZE PUSH1 0x4 PUSH2 0x560B JUMP JUMPDEST PUSH2 0x44A8 JUMP JUMPDEST PUSH1 0x40 MLOAD PUSH2 0x3FC SWAP8 SWAP7 SWAP6 SWAP5 SWAP4 SWAP3 SWAP2 SWAP1 PUSH2 0x5815 JUMP JUMPDEST CALLVALUE DUP1 ISZERO PUSH2 0xAF9 JUMPI PUSH0 DUP1 REVERT JUMPDEST POP PUSH2 0x424 PUSH2 0xB08 CALLDATASIZE PUSH1 0x4 PUSH2 0x560B JUMP JUMPDEST PUSH1 0xAD PUSH1 0x20 MSTORE PUSH0 SWAP1 DUP2 MSTORE PUSH1 0x40 SWAP1 KECCAK256 SLOAD PUSH1 0xFF AND DUP2 JUMP JUMPDEST CALLVALUE DUP1 ISZERO PUSH2 0xB27 JUMPI PUSH0 DUP1 REVERT JUMPDEST POP PUSH2 0xB30 PUSH2 0x467A JUMP JUMPDEST PUSH1 0x40 MLOAD PUSH2 0x3FC SWAP2 SWAP1 PUSH2 0x5874 JUMP JUMPDEST CALLVALUE DUP1 ISZERO PUSH2 0xB48 JUMPI PUSH0 DUP1 REVERT JUMPDEST POP PUSH2 0x4B2 PUSH1 0x42 SLOAD DUP2 JUMP JUMPDEST CALLVALUE DUP1 ISZERO PUSH2 0xB5D JUMPI PUSH0 DUP1 REVERT JUMPDEST POP PUSH2 0x6BC PUSH2 0xB6C CALLDATASIZE PUSH1 0x4 PUSH2 0x51C4 JUMP JUMPDEST PUSH2 0x4A33 JUMP JUMPDEST CALLVALUE DUP1 ISZERO PUSH2 0xB7C JUMPI PUSH0 DUP1 REVERT JUMPDEST POP PUSH2 0xB90 PUSH2 0xB8B CALLDATASIZE PUSH1 0x4 PUSH2 0x51C4 JUMP JUMPDEST PUSH2 0x4A5F JUMP JUMPDEST PUSH1 0x40 MLOAD PUSH2 0x3FC SWAP2 SWAP1 PUSH2 0x58A5 JUMP JUMPDEST CALLVALUE DUP1 ISZERO PUSH2 0xBA8 JUMPI PUSH0 DUP1 REVERT JUMPDEST POP PUSH2 0x4B2 PUSH1 0x46 SLOAD DUP2 JUMP JUMPDEST PUSH1 0x2 PUSH2 0xBBC PUSH2 0x2EA4 JUMP JUMPDEST PUSH1 0x4 DUP2 GT ISZERO PUSH2 0xBCD JUMPI PUSH2 0xBCD PUSH2 0x562D JUMP JUMPDEST EQ PUSH2 0xC0D JUMPI PUSH1 0x40 MLOAD PUSH3 0x461BCD PUSH1 0xE5 SHL DUP2 MSTORE PUSH1 0x20 PUSH1 0x4 DUP3 ADD MSTORE PUSH1 0xB PUSH1 0x24 DUP3 ADD MSTORE PUSH11 0x57726F6E67207068617365 PUSH1 0xA8 SHL PUSH1 0x44 DUP3 ADD MSTORE PUSH1 0x64 ADD JUMPDEST PUSH1 0x40 MLOAD DUP1 SWAP2 SUB SWAP1 REVERT JUMPDEST DUP1 MLOAD MLOAD PUSH2 0xC53 JUMPI PUSH1 0x40 MLOAD PUSH3 0x461BCD PUSH1 0xE5 SHL DUP2 MSTORE PUSH1 0x20 PUSH1 0x4 DUP3 ADD MSTORE PUSH1 0x14 PUSH1 0x24 DUP3 ADD MSTORE PUSH20 0x11195CD8DC9A5C1D1A5BDB881C995C5D5A5C9959 PUSH1 0x62 SHL PUSH1 0x44 DUP3 ADD MSTORE PUSH1 0x64 ADD PUSH2 0xC04 JUMP JUMPDEST PUSH0 DUP2 PUSH1 0x20 ADD MLOAD MLOAD GT PUSH2 0xCA7 JUMPI PUSH1 0x40 MLOAD PUSH3 0x461BCD PUSH1 0xE5 SHL DUP2 MSTORE PUSH1 0x20 PUSH1 0x4 DUP3 ADD MSTORE PUSH1 0x19 PUSH1 0x24 DUP3 ADD MSTORE PUSH32 0x636F6E737469747574696F6E5465787420726571756972656400000000000000 PUSH1 0x44 DUP3 ADD MSTORE PUSH1 0x64 ADD PUSH2 0xC04 JUMP JUMPDEST PUSH0 DUP2 PUSH1 0x60 ADD MLOAD MLOAD GT PUSH2 0xCF4 JUMPI PUSH1 0x40 MLOAD PUSH3 0x461BCD PUSH1 0xE5 SHL DUP2 MSTORE PUSH1 0x20 PUSH1 0x4 DUP3 ADD MSTORE PUSH1 0x16 PUSH1 0x24 DUP3 ADD MSTORE PUSH22 0x141C9BDC1BDCD95C881B985B59481C995C5D5A5C9959 PUSH1 0x52 SHL PUSH1 0x44 DUP3 ADD MSTORE PUSH1 0x64 ADD PUSH2 0xC04 JUMP JUMPDEST PUSH7 0x38D7EA4C68000 CALLVALUE LT ISZERO PUSH2 0xD4B JUMPI PUSH1 0x40 MLOAD PUSH3 0x461BCD PUSH1 0xE5 SHL DUP2 MSTORE PUSH1 0x20 PUSH1 0x4 DUP3 ADD MSTORE PUSH1 0x1B PUSH1 0x24 DUP3 ADD MSTORE PUSH32 0x496E73756666696369656E74207375626D697373696F6E206665650000000000 PUSH1 0x44 DUP3 ADD MSTORE PUSH1 0x64 ADD PUSH2 0xC04 JUMP JUMPDEST PUSH0 DUP2 PUSH0 ADD MLOAD DUP3 PUSH1 0x40 ADD MLOAD DUP4 PUSH1 0x20 ADD MLOAD DUP5 PUSH1 0x60 ADD MLOAD PUSH1 0x40 MLOAD PUSH1 0x20 ADD PUSH2 0xD72 SWAP5 SWAP4 SWAP3 SWAP2 SWAP1 PUSH2 0x58CE JUMP JUMPDEST PUSH1 0x40 MLOAD PUSH1 0x20 DUP2 DUP4 SUB SUB DUP2 MSTORE SWAP1 PUSH1 0x40 MSTORE DUP1 MLOAD SWAP1 PUSH1 0x20 ADD KECCAK256 SWAP1 POP DUP2 PUSH1 0x80 ADD MLOAD DUP2 EQ PUSH2 0xDCF JUMPI PUSH1 0x40 MLOAD PUSH3 0x461BCD PUSH1 0xE5 SHL DUP2 MSTORE PUSH1 0x20 PUSH1 0x4 DUP3 ADD MSTORE PUSH1 0xF PUSH1 0x24 DUP3 ADD MSTORE PUSH15 0x496E636F7272656374204861736821 PUSH1 0x88 SHL PUSH1 0x44 DUP3 ADD MSTORE PUSH1 0x64 ADD PUSH2 0xC04 JUMP JUMPDEST TIMESTAMP PUSH1 0xC0 DUP4 ADD MSTORE PUSH0 PUSH1 0xE0 DUP4 ADD DUP2 SWAP1 MSTORE PUSH1 0x3E DUP1 SLOAD PUSH1 0x1 DUP2 ADD DUP3 SSTORE SWAP2 MSTORE DUP3 MLOAD DUP4 SWAP2 PUSH1 0x8 MUL PUSH32 0x8D800D6614D35EED73733EE453164A3B48076EB3138F466ADEEB9DEC7BB31F70 ADD SWAP1 DUP2 SWAP1 PUSH2 0xE1F SWAP1 DUP3 PUSH2 0x5995 JUMP JUMPDEST POP PUSH1 0x20 DUP3 ADD MLOAD PUSH1 0x1 DUP3 ADD SWAP1 PUSH2 0xE34 SWAP1 DUP3 PUSH2 0x5995 JUMP JUMPDEST POP PUSH1 0x40 DUP3 ADD MLOAD PUSH1 0x2 DUP3 ADD SWAP1 PUSH2 0xE49 SWAP1 DUP3 PUSH2 0x5995 JUMP JUMPDEST POP PUSH1 0x60 DUP3 ADD MLOAD PUSH1 0x3 DUP3 ADD SWAP1 PUSH2 0xE5E SWAP1 DUP3 PUSH2 0x5995 JUMP JUMPDEST POP PUSH1 0x80 DUP3 ADD MLOAD PUSH1 0x4 DUP3 ADD SSTORE PUSH1 0xA0 DUP3 ADD MLOAD PUSH1 0x5 DUP3 ADD SWAP1 PUSH2 0xE7D SWAP1 DUP3 PUSH2 0x5995 JUMP JUMPDEST POP PUSH1 0xC0 DUP3 ADD MLOAD PUSH1 0x6 DUP3 ADD SSTORE PUSH1 0xE0 SWAP1 SWAP2 ADD MLOAD PUSH1 0x7 SWAP1 SWAP2 ADD SSTORE PUSH1 0x3E SLOAD PUSH2 0xEA3 SWAP1 PUSH1 0x1 SWAP1 PUSH2 0x5A5E JUMP JUMPDEST PUSH32 0xF20C47478412252C3F85E5881B3CBEE3E68A1AB2B3CD2D3FD8633EE288582E29 DUP4 PUSH1 0x40 MLOAD PUSH2 0xED2 SWAP2 SWAP1 PUSH2 0x58A5 JUMP JUMPDEST PUSH1 0x40 MLOAD DUP1 SWAP2 SUB SWAP1 LOG2 POP POP JUMP JUMPDEST PUSH1 0x4 DUP2 DUP2 SLOAD DUP2 LT PUSH2 0xEED JUMPI PUSH0 DUP1 REVERT JUMPDEST PUSH0 SWAP2 DUP3 MSTORE PUSH1 0x20 SWAP1 SWAP2 KECCAK256 PUSH1 0x7 SWAP1 SWAP2 MUL ADD DUP1 SLOAD PUSH1 0x1 DUP3 ADD DUP1 SLOAD PUSH1 0x1 PUSH1 0x1 PUSH1 0xA0 SHL SUB SWAP1 SWAP3 AND SWAP4 POP SWAP1 PUSH2 0xF1B SWAP1 PUSH2 0x58FE JUMP JUMPDEST DUP1 PUSH1 0x1F ADD PUSH1 0x20 DUP1 SWAP2 DIV MUL PUSH1 0x20 ADD PUSH1 0x40 MLOAD SWAP1 DUP2 ADD PUSH1 0x40 MSTORE DUP1 SWAP3 SWAP2 SWAP1 DUP2 DUP2 MSTORE PUSH1 0x20 ADD DUP3 DUP1 SLOAD PUSH2 0xF47 SWAP1 PUSH2 0x58FE JUMP JUMPDEST DUP1 ISZERO PUSH2 0xF92 JUMPI DUP1 PUSH1 0x1F LT PUSH2 0xF69 JUMPI PUSH2 0x100 DUP1 DUP4 SLOAD DIV MUL DUP4 MSTORE SWAP2 PUSH1 0x20 ADD SWAP2 PUSH2 0xF92 JUMP JUMPDEST DUP3 ADD SWAP2 SWAP1 PUSH0 MSTORE PUSH1 0x20 PUSH0 KECCAK256 SWAP1 JUMPDEST DUP2 SLOAD DUP2 MSTORE SWAP1 PUSH1 0x1 ADD SWAP1 PUSH1 0x20 ADD DUP1 DUP4 GT PUSH2 0xF75 JUMPI DUP3 SWAP1 SUB PUSH1 0x1F AND DUP3 ADD SWAP2 JUMPDEST POP POP POP POP PUSH1 0x2 DUP4 ADD SLOAD PUSH1 0x3 DUP5 ADD SLOAD PUSH1 0x4 DUP6 ADD SLOAD PUSH1 0x5 SWAP1 SWAP6 ADD SLOAD SWAP4 SWAP5 SWAP2 SWAP4 SWAP1 SWAP3 POP PUSH1 0xFF AND DUP7 JUMP JUMPDEST CALLER PUSH0 SWAP1 DUP2 MSTORE PUSH1 0x3 PUSH1 0x20 MSTORE PUSH1 0x40 DUP2 KECCAK256 PUSH1 0x5 ADD SLOAD PUSH1 0xFF AND PUSH2 0x1011 JUMPI PUSH1 0x40 MLOAD PUSH3 0x461BCD PUSH1 0xE5 SHL DUP2 MSTORE PUSH1 0x20 PUSH1 0x4 DUP3 ADD MSTORE PUSH1 0x15 PUSH1 0x24 DUP3 ADD MSTORE PUSH21 0x4F6E6C79206D656D626572732063616E20766F7465 PUSH1 0x58 SHL PUSH1 0x44 DUP3 ADD MSTORE PUSH1 0x64 ADD PUSH2 0xC04 JUMP JUMPDEST PUSH1 0x4 SLOAD DUP3 LT PUSH2 0x1032 JUMPI PUSH1 0x40 MLOAD PUSH3 0x461BCD PUSH1 0xE5 SHL DUP2 MSTORE PUSH1 0x4 ADD PUSH2 0xC04 SWAP1 PUSH2 0x5A71 JUMP JUMPDEST PUSH0 PUSH1 0x4 DUP4 DUP2 SLOAD DUP2 LT PUSH2 0x1046 JUMPI PUSH2 0x1046 PUSH2 0x5A9E JUMP JUMPDEST SWAP1 PUSH0 MSTORE PUSH1 0x20 PUSH0 KECCAK256 SWAP1 PUSH1 0x7 MUL ADD SWAP1 POP DUP1 PUSH1 0x4 ADD SLOAD PUSH0 EQ PUSH2 0x109C JUMPI PUSH1 0x40 MLOAD PUSH3 0x461BCD PUSH1 0xE5 SHL DUP2 MSTORE PUSH1 0x20 PUSH1 0x4 DUP3 ADD MSTORE PUSH1 0x12 PUSH1 0x24 DUP3 ADD MSTORE PUSH18 0x283937B837B9B0B6103BB4BA34323930BBB7 PUSH1 0x71 SHL PUSH1 0x44 DUP3 ADD MSTORE PUSH1 0x64 ADD PUSH2 0xC04 JUMP JUMPDEST CALLER PUSH0 SWAP1 DUP2 MSTORE PUSH1 0x3D PUSH1 0x20 SWAP1 DUP2 MSTORE PUSH1 0x40 DUP1 DUP4 KECCAK256 DUP7 DUP5 MSTORE SWAP1 SWAP2 MSTORE SWAP1 KECCAK256 SLOAD ISZERO PUSH2 0x10F3 JUMPI PUSH1 0x40 MLOAD PUSH3 0x461BCD PUSH1 0xE5 SHL DUP2 MSTORE PUSH1 0x20 PUSH1 0x4 DUP3 ADD MSTORE PUSH1 0xD PUSH1 0x24 DUP3 ADD MSTORE PUSH13 0x105B1C9958591E481D9BDD1959 PUSH1 0x9A SHL PUSH1 0x44 DUP3 ADD MSTORE PUSH1 0x64 ADD PUSH2 0xC04 JUMP JUMPDEST CALLER PUSH0 SWAP1 DUP2 MSTORE PUSH1 0x3D PUSH1 0x20 SWAP1 DUP2 MSTORE PUSH1 0x40 DUP1 DUP4 KECCAK256 DUP7 DUP5 MSTORE SWAP1 SWAP2 MSTORE DUP2 KECCAK256 TIMESTAMP SWAP1 SSTORE PUSH1 0x5 DUP3 ADD DUP1 SLOAD PUSH1 0xFF AND SWAP2 PUSH2 0x1122 DUP4 PUSH2 0x5AB2 JUMP JUMPDEST SWAP2 SWAP1 PUSH2 0x100 EXP DUP2 SLOAD DUP2 PUSH1 0xFF MUL NOT AND SWAP1 DUP4 PUSH1 0xFF AND MUL OR SWAP1 SSTORE POP POP CALLER PUSH1 0x1 PUSH1 0x1 PUSH1 0xA0 SHL SUB AND DUP4 PUSH32 0x34647120636CE03D739347E28E9D1BDD34FD03D066AE60439FB1BE2721AD16CD PUSH1 0x40 MLOAD PUSH1 0x40 MLOAD DUP1 SWAP2 SUB SWAP1 LOG3 PUSH1 0x5 DUP2 ADD SLOAD PUSH1 0x1E PUSH1 0xFF SWAP1 SWAP2 AND LT DUP1 ISZERO SWAP1 PUSH2 0x118E JUMPI POP PUSH1 0x3 DUP2 ADD SLOAD ISZERO JUMPDEST ISZERO PUSH2 0x11E5 JUMPI PUSH1 0x40 MLOAD DUP4 SWAP1 PUSH32 0xE36F8B7448DAFF4A52E2945DB0D1D7A436279CC1D527A45C27835DCBD27F336D SWAP1 PUSH0 SWAP1 LOG2 TIMESTAMP PUSH1 0x3 DUP3 ADD SSTORE DUP1 SLOAD PUSH1 0x1 PUSH1 0x1 PUSH1 0xA0 SHL SUB AND PUSH0 SWAP1 DUP2 MSTORE PUSH1 0x3C PUSH1 0x20 MSTORE PUSH1 0x40 DUP2 KECCAK256 SSTORE PUSH2 0x11E5 DUP4 PUSH2 0x4DD7 JUMP JUMPDEST PUSH1 0x5 ADD SLOAD PUSH1 0xFF AND SWAP3 SWAP2 POP POP JUMP JUMPDEST PUSH0 DUP4 MLOAD GT DUP1 ISZERO PUSH2 0x1204 JUMPI POP PUSH1 0x64 DUP4 MLOAD GT ISZERO JUMPDEST PUSH2 0x123F JUMPI PUSH1 0x40 MLOAD PUSH3 0x461BCD PUSH1 0xE5 SHL DUP2 MSTORE PUSH1 0x20 PUSH1 0x4 DUP3 ADD MSTORE PUSH1 0xC PUSH1 0x24 DUP3 ADD MSTORE PUSH12 0x496E76616C6964206E616D65 PUSH1 0xA0 SHL PUSH1 0x44 DUP3 ADD MSTORE PUSH1 0x64 ADD PUSH2 0xC04 JUMP JUMPDEST PUSH0 DUP3 MLOAD GT DUP1 ISZERO PUSH2 0x1252 JUMPI POP PUSH2 0x3E8 DUP3 MLOAD GT ISZERO JUMPDEST PUSH2 0x128C JUMPI PUSH1 0x40 MLOAD PUSH3 0x461BCD PUSH1 0xE5 SHL DUP2 MSTORE PUSH1 0x20 PUSH1 0x4 DUP3 ADD MSTORE PUSH1 0xB PUSH1 0x24 DUP3 ADD MSTORE PUSH11 0x496E76616C69642062696F PUSH1 0xA8 SHL PUSH1 0x44 DUP3 ADD MSTORE PUSH1 0x64 ADD PUSH2 0xC04 JUMP JUMPDEST PUSH0 DUP2 MLOAD GT DUP1 ISZERO PUSH2 0x129F JUMPI POP PUSH2 0x3E8 DUP2 MLOAD GT ISZERO JUMPDEST PUSH2 0x12DD JUMPI PUSH1 0x40 MLOAD PUSH3 0x461BCD PUSH1 0xE5 SHL DUP2 MSTORE PUSH1 0x20 PUSH1 0x4 DUP3 ADD MSTORE PUSH1 0xF PUSH1 0x24 DUP3 ADD MSTORE PUSH15 0x496E76616C69642077656273697465 PUSH1 0x88 SHL PUSH1 0x44 DUP3 ADD MSTORE PUSH1 0x64 ADD PUSH2 0xC04 JUMP JUMPDEST CALLER PUSH2 0x131B JUMPI PUSH1 0x40 MLOAD PUSH3 0x461BCD PUSH1 0xE5 SHL DUP2 MSTORE PUSH1 0x20 PUSH1 0x4 DUP3 ADD MSTORE PUSH1 0xE PUSH1 0x24 DUP3 ADD MSTORE PUSH14 0x24B73B30B634B21039B2B73232B9 PUSH1 0x91 SHL PUSH1 0x44 DUP3 ADD MSTORE PUSH1 0x64 ADD PUSH2 0xC04 JUMP JUMPDEST PUSH7 0x38D7EA4C68000 CALLVALUE LT ISZERO PUSH2 0x1372 JUMPI PUSH1 0x40 MLOAD PUSH3 0x461BCD PUSH1 0xE5 SHL DUP2 MSTORE PUSH1 0x20 PUSH1 0x4 DUP3 ADD MSTORE PUSH1 0x1D PUSH1 0x24 DUP3 ADD MSTORE PUSH32 0x496E73756666696369656E7420726567697374726174696F6E20666565000000 PUSH1 0x44 DUP3 ADD MSTORE PUSH1 0x64 ADD PUSH2 0xC04 JUMP JUMPDEST PUSH0 PUSH2 0x137B PUSH2 0x2EA4 JUMP JUMPDEST PUSH1 0x4 DUP2 GT ISZERO PUSH2 0x138C JUMPI PUSH2 0x138C PUSH2 0x562D JUMP JUMPDEST EQ PUSH2 0x13EA JUMPI PUSH1 0x40 MLOAD PUSH3 0x461BCD PUSH1 0xE5 SHL DUP2 MSTORE PUSH1 0x20 PUSH1 0x4 DUP3 ADD MSTORE PUSH1 0x28 PUSH1 0x24 DUP3 ADD MSTORE PUSH32 0x43616E64696461746520726567697374726174696F6E20706572696F64206861 PUSH1 0x44 DUP3 ADD MSTORE PUSH8 0x399032B73232B217 PUSH1 0xC1 SHL PUSH1 0x64 DUP3 ADD MSTORE PUSH1 0x84 ADD PUSH2 0xC04 JUMP JUMPDEST CALLER PUSH0 SWAP1 DUP2 MSTORE PUSH1 0x3 PUSH1 0x20 DUP2 SWAP1 MSTORE PUSH1 0x40 SWAP1 SWAP2 KECCAK256 ADD SLOAD ISZERO PUSH2 0x143F JUMPI PUSH1 0x40 MLOAD PUSH3 0x461BCD PUSH1 0xE5 SHL DUP2 MSTORE PUSH1 0x20 PUSH1 0x4 DUP3 ADD MSTORE PUSH1 0x12 PUSH1 0x24 DUP3 ADD MSTORE PUSH18 0x105B1C9958591E481C9959DA5CDD195C9959 PUSH1 0x72 SHL PUSH1 0x44 DUP3 ADD MSTORE PUSH1 0x64 ADD PUSH2 0xC04 JUMP JUMPDEST PUSH1 0x40 DUP1 MLOAD PUSH1 0xE0 DUP2 ADD DUP3 MSTORE DUP5 DUP2 MSTORE PUSH1 0x20 DUP1 DUP3 ADD DUP6 SWAP1 MSTORE DUP2 DUP4 ADD DUP5 SWAP1 MSTORE TIMESTAMP PUSH1 0x60 DUP4 ADD MSTORE PUSH0 PUSH1 0x80 DUP4 ADD DUP2 SWAP1 MSTORE PUSH1 0xA0 DUP4 ADD DUP2 SWAP1 MSTORE PUSH1 0xC0 DUP4 ADD DUP2 SWAP1 MSTORE CALLER DUP2 MSTORE PUSH1 0x3 SWAP1 SWAP2 MSTORE SWAP2 SWAP1 SWAP2 KECCAK256 DUP2 MLOAD DUP2 SWAP1 PUSH2 0x1490 SWAP1 DUP3 PUSH2 0x5995 JUMP JUMPDEST POP PUSH1 0x20 DUP3 ADD MLOAD PUSH1 0x1 DUP3 ADD SWAP1 PUSH2 0x14A5 SWAP1 DUP3 PUSH2 0x5995 JUMP JUMPDEST POP PUSH1 0x40 DUP3 ADD MLOAD PUSH1 0x2 DUP3 ADD SWAP1 PUSH2 0x14BA SWAP1 DUP3 PUSH2 0x5995 JUMP JUMPDEST POP PUSH1 0x60 DUP3 ADD MLOAD PUSH1 0x3 DUP3 ADD SSTORE PUSH1 0x80 DUP3 ADD MLOAD PUSH1 0x4 DUP3 ADD SSTORE PUSH1 0xA0 DUP3 ADD MLOAD PUSH1 0x5 DUP3 ADD DUP1 SLOAD PUSH1 0xFF NOT AND SWAP2 ISZERO ISZERO SWAP2 SWAP1 SWAP2 OR SWAP1 SSTORE PUSH1 0xC0 SWAP1 SWAP2 ADD MLOAD PUSH1 0x6 SWAP1 SWAP2 ADD SSTORE PUSH1 0x2 DUP1 SLOAD PUSH1 0x1 DUP2 ADD DUP3 SSTORE PUSH0 SWAP2 SWAP1 SWAP2 MSTORE PUSH32 0x405787FA12A823E0F2B7631CC41B3BA8828B3321CA811111FA75CD3AA3BB5ACE ADD DUP1 SLOAD CALLER PUSH1 0x1 PUSH1 0x1 PUSH1 0xA0 SHL SUB NOT SWAP1 SWAP2 AND DUP2 OR SWAP1 SWAP2 SSTORE PUSH1 0x40 MLOAD PUSH31 0xD6FEA68F71A20D8149F227F87E8CF7E6AD320B2DAD4B45465B14599B80EE09 SWAP1 PUSH2 0x156B SWAP1 DUP7 SWAP1 DUP7 SWAP1 DUP7 SWAP1 PUSH2 0x5AD0 JUMP JUMPDEST PUSH1 0x40 MLOAD DUP1 SWAP2 SUB SWAP1 LOG2 POP POP POP JUMP JUMPDEST PUSH2 0x1580 PUSH2 0x4F49 JUMP JUMPDEST PUSH0 DUP3 DUP2 MSTORE PUSH1 0x3F PUSH1 0x20 MSTORE PUSH1 0x40 SWAP1 DUP2 SWAP1 KECCAK256 DUP2 MLOAD DUP1 DUP4 ADD SWAP3 DUP4 SWAP1 MSTORE SWAP2 PUSH1 0x2 SWAP1 DUP3 DUP5 JUMPDEST DUP2 SLOAD PUSH1 0x1 PUSH1 0x1 PUSH1 0xA0 SHL SUB AND DUP2 MSTORE PUSH1 0x1 SWAP1 SWAP2 ADD SWAP1 PUSH1 0x20 ADD DUP1 DUP4 GT PUSH2 0x159F JUMPI POP POP POP POP POP SWAP1 POP SWAP2 SWAP1 POP JUMP JUMPDEST PUSH0 DUP1 JUMPDEST CALLER PUSH0 SWAP1 DUP2 MSTORE PUSH1 0x48 PUSH1 0x20 MSTORE PUSH1 0x40 SWAP1 KECCAK256 SLOAD PUSH2 0xFFFF DUP3 AND LT ISZERO PUSH2 0x1637 JUMPI CALLER PUSH0 SWAP1 DUP2 MSTORE PUSH1 0x48 PUSH1 0x20 MSTORE PUSH1 0x40 SWAP1 KECCAK256 DUP1 SLOAD PUSH2 0xFFFF DUP4 AND SWAP1 DUP2 LT PUSH2 0x1609 JUMPI PUSH2 0x1609 PUSH2 0x5A9E JUMP JUMPDEST SWAP1 PUSH0 MSTORE PUSH1 0x20 PUSH0 KECCAK256 SWAP1 PUSH1 0x2 MUL ADD PUSH0 ADD SLOAD DUP3 PUSH2 0x1623 SWAP2 SWAP1 PUSH2 0x5B08 JUMP JUMPDEST SWAP2 POP DUP1 PUSH2 0x162F DUP2 PUSH2 0x5B2F JUMP JUMPDEST SWAP2 POP POP PUSH2 0x15CB JUMP JUMPDEST POP SWAP1 JUMP JUMPDEST PUSH1 0x8 DUP2 PUSH1 0x32 DUP2 LT PUSH2 0x164A JUMPI PUSH0 DUP1 REVERT JUMPDEST ADD SLOAD PUSH1 0x1 PUSH1 0x1 PUSH1 0xA0 SHL SUB AND SWAP1 POP DUP2 JUMP JUMPDEST PUSH1 0x1 SLOAD PUSH1 0x1 PUSH1 0x1 PUSH1 0xA0 SHL SUB AND CALLER EQ PUSH2 0x16AD JUMPI PUSH1 0x40 MLOAD PUSH3 0x461BCD PUSH1 0xE5 SHL DUP2 MSTORE PUSH1 0x20 PUSH1 0x4 DUP3 ADD MSTORE PUSH1 0x16 PUSH1 0x24 DUP3 ADD MSTORE PUSH22 0x139BDD08185D5D1A1BDC9A5E9959081B995D5D1C985B PUSH1 0x52 SHL PUSH1 0x44 DUP3 ADD MSTORE PUSH1 0x64 ADD PUSH2 0xC04 JUMP JUMPDEST PUSH0 PUSH2 0x16B6 PUSH2 0x2EA4 JUMP JUMPDEST PUSH1 0x4 DUP2 GT ISZERO PUSH2 0x16C7 JUMPI PUSH2 0x16C7 PUSH2 0x562D JUMP JUMPDEST EQ PUSH2 0x1714 JUMPI PUSH1 0x40 MLOAD PUSH3 0x461BCD PUSH1 0xE5 SHL DUP2 MSTORE PUSH1 0x20 PUSH1 0x4 DUP3 ADD MSTORE PUSH1 0x1E PUSH1 0x24 DUP3 ADD MSTORE PUSH32 0x566F74657220616464696E6720706572696F642068617320656E6465642E0000 PUSH1 0x44 DUP3 ADD MSTORE PUSH1 0x64 ADD PUSH2 0xC04 JUMP JUMPDEST PUSH1 0x1 SLOAD PUSH2 0x4B0 PUSH1 0x1 PUSH1 0xA0 SHL SWAP1 SWAP2 DIV PUSH4 0xFFFFFFFF AND LT PUSH2 0x177F JUMPI PUSH1 0x40 MLOAD PUSH3 0x461BCD PUSH1 0xE5 SHL DUP2 MSTORE PUSH1 0x20 PUSH1 0x4 DUP3 ADD MSTORE PUSH1 0x21 PUSH1 0x24 DUP3 ADD MSTORE PUSH32 0x4D6178696D756D206E756D626572206F6620766F746572732072656163686564 PUSH1 0x44 DUP3 ADD MSTORE PUSH1 0x17 PUSH1 0xF9 SHL PUSH1 0x64 DUP3 ADD MSTORE PUSH1 0x84 ADD PUSH2 0xC04 JUMP JUMPDEST PUSH0 JUMPDEST PUSH1 0xA PUSH1 0xFF DUP3 AND LT ISZERO PUSH2 0x1862 JUMPI PUSH1 0x6 PUSH0 DUP5 DUP4 PUSH1 0xFF AND PUSH1 0xA DUP2 LT PUSH2 0x17A5 JUMPI PUSH2 0x17A5 PUSH2 0x5A9E JUMP JUMPDEST PUSH1 0x20 SWAP1 DUP2 MUL SWAP2 SWAP1 SWAP2 ADD CALLDATALOAD DUP3 MSTORE DUP2 ADD SWAP2 SWAP1 SWAP2 MSTORE PUSH1 0x40 ADD PUSH0 KECCAK256 SLOAD PUSH1 0xFF AND ISZERO PUSH2 0x180D JUMPI PUSH1 0x40 MLOAD PUSH3 0x461BCD PUSH1 0xE5 SHL DUP2 MSTORE PUSH1 0x20 PUSH1 0x4 DUP3 ADD MSTORE PUSH1 0x1D PUSH1 0x24 DUP3 ADD MSTORE PUSH32 0x566F746572206861736820616C72656164792072656769737465726564000000 PUSH1 0x44 DUP3 ADD MSTORE PUSH1 0x64 ADD PUSH2 0xC04 JUMP JUMPDEST PUSH1 0x1 PUSH1 0x6 PUSH0 DUP6 DUP5 PUSH1 0xFF AND PUSH1 0xA DUP2 LT PUSH2 0x1827 JUMPI PUSH2 0x1827 PUSH2 0x5A9E JUMP JUMPDEST PUSH1 0x20 MUL ADD CALLDATALOAD DUP2 MSTORE PUSH1 0x20 ADD SWAP1 DUP2 MSTORE PUSH1 0x20 ADD PUSH0 KECCAK256 PUSH0 PUSH2 0x100 EXP DUP2 SLOAD DUP2 PUSH1 0xFF MUL NOT AND SWAP1 DUP4 ISZERO ISZERO MUL OR SWAP1 SSTORE POP DUP1 DUP1 PUSH2 0x185A SWAP1 PUSH2 0x5AB2 JUMP JUMPDEST SWAP2 POP POP PUSH2 0x1781 JUMP JUMPDEST POP PUSH0 JUMPDEST PUSH1 0xA PUSH1 0xFF DUP3 AND LT ISZERO PUSH2 0x19E7 JUMPI PUSH0 DUP3 PUSH1 0xFF DUP4 AND PUSH1 0xA DUP2 LT PUSH2 0x1887 JUMPI PUSH2 0x1887 PUSH2 0x5A9E JUMP JUMPDEST PUSH1 0x20 MUL ADD PUSH1 0x20 DUP2 ADD SWAP1 PUSH2 0x189A SWAP2 SWAP1 PUSH2 0x560B JUMP JUMPDEST PUSH1 0x1 PUSH1 0x1 PUSH1 0xA0 SHL SUB AND SUB PUSH2 0x18E8 JUMPI PUSH1 0x40 MLOAD PUSH3 0x461BCD PUSH1 0xE5 SHL DUP2 MSTORE PUSH1 0x20 PUSH1 0x4 DUP3 ADD MSTORE PUSH1 0x15 PUSH1 0x24 DUP3 ADD MSTORE PUSH21 0x496E76616C696420766F7465722061646472657373 PUSH1 0x58 SHL PUSH1 0x44 DUP3 ADD MSTORE PUSH1 0x64 ADD PUSH2 0xC04 JUMP JUMPDEST PUSH1 0x7 PUSH0 DUP4 DUP4 PUSH1 0xFF AND PUSH1 0xA DUP2 LT PUSH2 0x1900 JUMPI PUSH2 0x1900 PUSH2 0x5A9E JUMP JUMPDEST PUSH1 0x20 MUL ADD PUSH1 0x20 DUP2 ADD SWAP1 PUSH2 0x1913 SWAP2 SWAP1 PUSH2 0x560B JUMP JUMPDEST PUSH1 0x1 PUSH1 0x1 PUSH1 0xA0 SHL SUB AND DUP2 MSTORE PUSH1 0x20 DUP2 ADD SWAP2 SWAP1 SWAP2 MSTORE PUSH1 0x40 ADD PUSH0 KECCAK256 SLOAD ISZERO PUSH2 0x198F JUMPI PUSH1 0x40 MLOAD PUSH3 0x461BCD PUSH1 0xE5 SHL DUP2 MSTORE PUSH1 0x20 PUSH1 0x4 DUP3 ADD MSTORE PUSH1 0x2D PUSH1 0x24 DUP3 ADD MSTORE PUSH32 0x416464726573737320616C726561647920726567697374657265642E20526567 PUSH1 0x44 DUP3 ADD MSTORE PUSH13 0x697374726172204552524F5221 PUSH1 0x98 SHL PUSH1 0x64 DUP3 ADD MSTORE PUSH1 0x84 ADD PUSH2 0xC04 JUMP JUMPDEST PUSH1 0x1 PUSH1 0x7 PUSH0 DUP5 DUP5 PUSH1 0xFF AND PUSH1 0xA DUP2 LT PUSH2 0x19A9 JUMPI PUSH2 0x19A9 PUSH2 0x5A9E JUMP JUMPDEST PUSH1 0x20 MUL ADD PUSH1 0x20 DUP2 ADD SWAP1 PUSH2 0x19BC SWAP2 SWAP1 PUSH2 0x560B JUMP JUMPDEST PUSH1 0x1 PUSH1 0x1 PUSH1 0xA0 SHL SUB AND DUP2 MSTORE PUSH1 0x20 DUP2 ADD SWAP2 SWAP1 SWAP2 MSTORE PUSH1 0x40 ADD PUSH0 KECCAK256 SSTORE DUP1 PUSH2 0x19DF DUP2 PUSH2 0x5AB2 JUMP JUMPDEST SWAP2 POP POP PUSH2 0x1865 JUMP JUMPDEST POP PUSH1 0xA PUSH1 0x1 PUSH1 0x14 DUP3 DUP3 DUP3 SWAP1 SLOAD SWAP1 PUSH2 0x100 EXP SWAP1 DIV PUSH4 0xFFFFFFFF AND PUSH2 0x1A0A SWAP2 SWAP1 PUSH2 0x5B46 JUMP JUMPDEST SWAP3 POP PUSH2 0x100 EXP DUP2 SLOAD DUP2 PUSH4 0xFFFFFFFF MUL NOT AND SWAP1 DUP4 PUSH4 0xFFFFFFFF AND MUL OR SWAP1 SSTORE POP DUP1 PUSH1 0x40 MLOAD PUSH2 0x1A36 SWAP2 SWAP1 PUSH2 0x5B62 JUMP JUMPDEST PUSH1 0x40 MLOAD SWAP1 DUP2 SWAP1 SUB DUP2 KECCAK256 PUSH1 0x1 SLOAD PUSH1 0x1 PUSH1 0xA0 SHL SWAP1 DIV PUSH4 0xFFFFFFFF AND DUP3 MSTORE SWAP1 PUSH32 0x5ECF71B87B223B4E8C4D19850B2C7A727D326E44EDA6530FE642B505FF2C4F94 SWAP1 PUSH1 0x20 ADD PUSH2 0xED2 JUMP JUMPDEST CALLER PUSH0 SWAP1 DUP2 MSTORE PUSH1 0x3 PUSH1 0x20 MSTORE PUSH1 0x40 SWAP1 KECCAK256 PUSH1 0x5 ADD SLOAD PUSH1 0xFF AND PUSH2 0x1ACC JUMPI PUSH1 0x40 MLOAD PUSH3 0x461BCD PUSH1 0xE5 SHL DUP2 MSTORE PUSH1 0x20 PUSH1 0x4 DUP3 ADD MSTORE PUSH1 0xC PUSH1 0x24 DUP3 ADD MSTORE PUSH12 0x2737BA10309036B2B6B132B9 PUSH1 0xA1 SHL PUSH1 0x44 DUP3 ADD MSTORE PUSH1 0x64 ADD PUSH2 0xC04 JUMP JUMPDEST PUSH0 NOT DUP2 PUSH0 SIGNEXTEND SLT ISZERO DUP1 ISZERO PUSH2 0x1AE2 JUMPI POP PUSH1 0x1 DUP2 PUSH0 SIGNEXTEND SGT ISZERO JUMPDEST PUSH2 0x1B2E JUMPI PUSH1 0x40 MLOAD PUSH3 0x461BCD PUSH1 0xE5 SHL DUP2 MSTORE PUSH1 0x20 PUSH1 0x4 DUP3 ADD MSTORE PUSH1 0x18 PUSH1 0x24 DUP3 ADD MSTORE PUSH32 0x566F7465206D757374206265202D312C20302C206F7220310000000000000000 PUSH1 0x44 DUP3 ADD MSTORE PUSH1 0x64 ADD PUSH2 0xC04 JUMP JUMPDEST CALLER PUSH0 SWAP1 DUP2 MSTORE PUSH1 0x43 PUSH1 0x20 SWAP1 DUP2 MSTORE PUSH1 0x40 DUP1 DUP4 KECCAK256 PUSH1 0x1 PUSH1 0x1 PUSH1 0xA0 SHL SUB DUP7 AND DUP5 MSTORE SWAP1 SWAP2 MSTORE DUP2 KECCAK256 SLOAD SWAP1 SIGNEXTEND DUP1 ISZERO DUP1 ISZERO PUSH2 0x1B63 JUMPI POP DUP2 PUSH0 SIGNEXTEND PUSH0 EQ ISZERO JUMPDEST ISZERO PUSH2 0x1BDF JUMPI CALLER PUSH0 SWAP1 DUP2 MSTORE PUSH1 0x45 PUSH1 0x20 MSTORE PUSH1 0x40 SWAP1 KECCAK256 SLOAD PUSH2 0x3E8 GT PUSH2 0x1BBB JUMPI PUSH1 0x40 MLOAD PUSH3 0x461BCD PUSH1 0xE5 SHL DUP2 MSTORE PUSH1 0x20 PUSH1 0x4 DUP3 ADD MSTORE PUSH1 0x11 PUSH1 0x24 DUP3 ADD MSTORE PUSH17 0x13585E081D9BDD195CC81C995858DA1959 PUSH1 0x7A SHL PUSH1 0x44 DUP3 ADD MSTORE PUSH1 0x64 ADD PUSH2 0xC04 JUMP JUMPDEST CALLER PUSH0 SWAP1 DUP2 MSTORE PUSH1 0x45 PUSH1 0x20 MSTORE PUSH1 0x40 DUP2 KECCAK256 DUP1 SLOAD SWAP2 PUSH2 0x1BD5 DUP4 PUSH2 0x5BA9 JUMP JUMPDEST SWAP2 SWAP1 POP SSTORE POP PUSH2 0x1C17 JUMP JUMPDEST DUP1 PUSH0 SIGNEXTEND PUSH0 EQ ISZERO DUP1 ISZERO PUSH2 0x1BF2 JUMPI POP DUP2 PUSH0 SIGNEXTEND PUSH0 EQ JUMPDEST ISZERO PUSH2 0x1C17 JUMPI CALLER PUSH0 SWAP1 DUP2 MSTORE PUSH1 0x45 PUSH1 0x20 MSTORE PUSH1 0x40 DUP2 KECCAK256 DUP1 SLOAD SWAP2 PUSH2 0x1C11 DUP4 PUSH2 0x5BC1 JUMP JUMPDEST SWAP2 SWAP1 POP SSTORE POP JUMPDEST CALLER PUSH0 SWAP1 DUP2 MSTORE PUSH1 0x43 PUSH1 0x20 SWAP1 DUP2 MSTORE PUSH1 0x40 DUP1 DUP4 KECCAK256 PUSH1 0x1 PUSH1 0x1 PUSH1 0xA0 SHL SUB DUP8 AND DUP5 MSTORE SWAP1 SWAP2 MSTORE SWAP1 KECCAK256 DUP1 SLOAD PUSH1 0xFF NOT AND PUSH1 0xFF DUP5 AND OR SWAP1 SSTORE PUSH2 0x1C50 DUP2 DUP4 PUSH2 0x5BD6 JUMP JUMPDEST PUSH1 0x1 PUSH1 0x1 PUSH1 0xA0 SHL SUB DUP5 AND PUSH0 SWAP1 DUP2 MSTORE PUSH1 0x44 PUSH1 0x20 MSTORE PUSH1 0x40 DUP2 KECCAK256 DUP1 SLOAD SWAP3 DUP3 SIGNEXTEND SWAP3 SWAP1 SWAP2 SWAP1 PUSH2 0x1C7B SWAP1 DUP5 SWAP1 PUSH2 0x5B08 JUMP JUMPDEST SWAP1 SWAP2 SSTORE POP POP POP POP POP JUMP JUMPDEST CALLER PUSH0 SWAP1 DUP2 MSTORE PUSH1 0x3 PUSH1 0x20 MSTORE PUSH1 0x40 DUP2 KECCAK256 PUSH1 0x5 ADD SLOAD PUSH1 0xFF AND PUSH2 0x1CF1 JUMPI PUSH1 0x40 MLOAD PUSH3 0x461BCD PUSH1 0xE5 SHL DUP2 MSTORE PUSH1 0x20 PUSH1 0x4 DUP3 ADD MSTORE PUSH1 0x22 PUSH1 0x24 DUP3 ADD MSTORE PUSH32 0x4F6E6C79206D656D626572732063616E2070726F706F73652070726F706F7361 PUSH1 0x44 DUP3 ADD MSTORE PUSH2 0x6C73 PUSH1 0xF0 SHL PUSH1 0x64 DUP3 ADD MSTORE PUSH1 0x84 ADD PUSH2 0xC04 JUMP JUMPDEST DUP4 PUSH2 0x1D34 JUMPI PUSH1 0x40 MLOAD PUSH3 0x461BCD PUSH1 0xE5 SHL DUP2 MSTORE PUSH1 0x20 PUSH1 0x4 DUP3 ADD MSTORE PUSH1 0x13 PUSH1 0x24 DUP3 ADD MSTORE PUSH19 0x141C9BDD9A5CDA5BDB9CC81C995C5D5A5C9959 PUSH1 0x6A SHL PUSH1 0x44 DUP3 ADD MSTORE PUSH1 0x64 ADD PUSH2 0xC04 JUMP JUMPDEST CALLER PUSH0 SWAP1 DUP2 MSTORE PUSH1 0x3C PUSH1 0x20 MSTORE PUSH1 0x40 SWAP1 KECCAK256 SLOAD ISZERO PUSH2 0x1D9E JUMPI PUSH1 0x40 MLOAD PUSH3 0x461BCD PUSH1 0xE5 SHL DUP2 MSTORE PUSH1 0x20 PUSH1 0x4 DUP3 ADD MSTORE PUSH1 0x25 PUSH1 0x24 DUP3 ADD MSTORE PUSH32 0x4D656D62657220616C72656164792068617320616E206163746976652070726F PUSH1 0x44 DUP3 ADD MSTORE PUSH5 0x1C1BDCD85B PUSH1 0xDA SHL PUSH1 0x64 DUP3 ADD MSTORE PUSH1 0x84 ADD PUSH2 0xC04 JUMP JUMPDEST PUSH1 0x4 DUP1 SLOAD CALLER PUSH0 SWAP1 DUP2 MSTORE PUSH1 0x3C PUSH1 0x20 MSTORE PUSH1 0x40 DUP2 KECCAK256 DUP3 SWAP1 SSTORE PUSH1 0x1 DUP3 ADD DUP1 DUP5 SSTORE DUP4 DUP3 MSTORE SWAP2 SWAP3 SWAP1 SWAP2 DUP4 SWAP1 DUP2 LT PUSH2 0x1DD1 JUMPI PUSH2 0x1DD1 PUSH2 0x5A9E JUMP JUMPDEST PUSH0 SWAP2 DUP3 MSTORE PUSH1 0x20 SWAP1 SWAP2 KECCAK256 PUSH1 0x7 SWAP1 SWAP2 MUL ADD DUP1 SLOAD PUSH1 0x1 PUSH1 0x1 PUSH1 0xA0 SHL SUB NOT AND CALLER OR DUP2 SSTORE SWAP1 POP PUSH1 0x1 DUP2 ADD PUSH2 0x1E01 DUP8 DUP10 DUP4 PUSH2 0x5BF6 JUMP JUMPDEST POP TIMESTAMP PUSH1 0x2 DUP3 ADD SSTORE PUSH0 JUMPDEST DUP5 DUP2 LT ISZERO PUSH2 0x1E65 JUMPI DUP2 PUSH1 0x6 ADD DUP7 DUP7 DUP4 DUP2 DUP2 LT PUSH2 0x1E28 JUMPI PUSH2 0x1E28 PUSH2 0x5A9E JUMP JUMPDEST SWAP1 POP PUSH1 0x20 MUL DUP2 ADD SWAP1 PUSH2 0x1E3A SWAP2 SWAP1 PUSH2 0x5CAA JUMP JUMPDEST DUP2 SLOAD PUSH1 0x1 DUP2 ADD DUP4 SSTORE PUSH0 SWAP3 DUP4 MSTORE PUSH1 0x20 SWAP1 SWAP3 KECCAK256 SWAP1 SWAP2 PUSH1 0x3 MUL ADD PUSH2 0x1E5B DUP3 DUP3 PUSH2 0x5CC8 JUMP JUMPDEST POP POP PUSH1 0x1 ADD PUSH2 0x1E0A JUMP JUMPDEST POP PUSH1 0x4 SLOAD PUSH1 0x40 MLOAD CALLER SWAP2 SWAP1 PUSH32 0x6FB266C3BFFBF56760B26BA85968FA3E28F3ED50CEA5C9704FB6E260DAB31F1C SWAP1 PUSH2 0x1E9E SWAP1 DUP12 SWAP1 DUP12 SWAP1 PUSH2 0x5DF0 JUMP JUMPDEST PUSH1 0x40 MLOAD DUP1 SWAP2 SUB SWAP1 LOG3 POP POP PUSH1 0x4 SLOAD SWAP6 SWAP5 POP POP POP POP POP JUMP JUMPDEST PUSH0 PUSH2 0x1EBD PUSH2 0x4F67 JUMP JUMPDEST PUSH1 0x42 SLOAD ISZERO PUSH2 0x21ED JUMPI PUSH1 0x42 SLOAD PUSH1 0x3E PUSH1 0x42 SLOAD DUP2 SLOAD DUP2 LT PUSH2 0x1EDD JUMPI PUSH2 0x1EDD PUSH2 0x5A9E JUMP JUMPDEST SWAP1 PUSH0 MSTORE PUSH1 0x20 PUSH0 KECCAK256 SWAP1 PUSH1 0x8 MUL ADD DUP1 PUSH1 0x40 MLOAD DUP1 PUSH2 0x100 ADD PUSH1 0x40 MSTORE SWAP1 DUP2 PUSH0 DUP3 ADD DUP1 SLOAD PUSH2 0x1F05 SWAP1 PUSH2 0x58FE JUMP JUMPDEST DUP1 PUSH1 0x1F ADD PUSH1 0x20 DUP1 SWAP2 DIV MUL PUSH1 0x20 ADD PUSH1 0x40 MLOAD SWAP1 DUP2 ADD PUSH1 0x40 MSTORE DUP1 SWAP3 SWAP2 SWAP1 DUP2 DUP2 MSTORE PUSH1 0x20 ADD DUP3 DUP1 SLOAD PUSH2 0x1F31 SWAP1 PUSH2 0x58FE JUMP JUMPDEST DUP1 ISZERO PUSH2 0x1F7C JUMPI DUP1 PUSH1 0x1F LT PUSH2 0x1F53 JUMPI PUSH2 0x100 DUP1 DUP4 SLOAD DIV MUL DUP4 MSTORE SWAP2 PUSH1 0x20 ADD SWAP2 PUSH2 0x1F7C JUMP JUMPDEST DUP3 ADD SWAP2 SWAP1 PUSH0 MSTORE PUSH1 0x20 PUSH0 KECCAK256 SWAP1 JUMPDEST DUP2 SLOAD DUP2 MSTORE SWAP1 PUSH1 0x1 ADD SWAP1 PUSH1 0x20 ADD DUP1 DUP4 GT PUSH2 0x1F5F JUMPI DUP3 SWAP1 SUB PUSH1 0x1F AND DUP3 ADD SWAP2 JUMPDEST POP POP POP POP POP DUP2 MSTORE PUSH1 0x20 ADD PUSH1 0x1 DUP3 ADD DUP1 SLOAD PUSH2 0x1F95 SWAP1 PUSH2 0x58FE JUMP JUMPDEST DUP1 PUSH1 0x1F ADD PUSH1 0x20 DUP1 SWAP2 DIV MUL PUSH1 0x20 ADD PUSH1 0x40 MLOAD SWAP1 DUP2 ADD PUSH1 0x40 MSTORE DUP1 SWAP3 SWAP2 SWAP1 DUP2 DUP2 MSTORE PUSH1 0x20 ADD DUP3 DUP1 SLOAD PUSH2 0x1FC1 SWAP1 PUSH2 0x58FE JUMP JUMPDEST DUP1 ISZERO PUSH2 0x200C JUMPI DUP1 PUSH1 0x1F LT PUSH2 0x1FE3 JUMPI PUSH2 0x100 DUP1 DUP4 SLOAD DIV MUL DUP4 MSTORE SWAP2 PUSH1 0x20 ADD SWAP2 PUSH2 0x200C JUMP JUMPDEST DUP3 ADD SWAP2 SWAP1 PUSH0 MSTORE PUSH1 0x20 PUSH0 KECCAK256 SWAP1 JUMPDEST DUP2 SLOAD DUP2 MSTORE SWAP1 PUSH1 0x1 ADD SWAP1 PUSH1 0x20 ADD DUP1 DUP4 GT PUSH2 0x1FEF JUMPI DUP3 SWAP1 SUB PUSH1 0x1F AND DUP3 ADD SWAP2 JUMPDEST POP POP POP POP POP DUP2 MSTORE PUSH1 0x20 ADD PUSH1 0x2 DUP3 ADD DUP1 SLOAD PUSH2 0x2025 SWAP1 PUSH2 0x58FE JUMP JUMPDEST DUP1 PUSH1 0x1F ADD PUSH1 0x20 DUP1 SWAP2 DIV MUL PUSH1 0x20 ADD PUSH1 0x40 MLOAD SWAP1 DUP2 ADD PUSH1 0x40 MSTORE DUP1 SWAP3 SWAP2 SWAP1 DUP2 DUP2 MSTORE PUSH1 0x20 ADD DUP3 DUP1 SLOAD PUSH2 0x2051 SWAP1 PUSH2 0x58FE JUMP JUMPDEST DUP1 ISZERO PUSH2 0x209C JUMPI DUP1 PUSH1 0x1F LT PUSH2 0x2073 JUMPI PUSH2 0x100 DUP1 DUP4 SLOAD DIV MUL DUP4 MSTORE SWAP2 PUSH1 0x20 ADD SWAP2 PUSH2 0x209C JUMP JUMPDEST DUP3 ADD SWAP2 SWAP1 PUSH0 MSTORE PUSH1 0x20 PUSH0 KECCAK256 SWAP1 JUMPDEST DUP2 SLOAD DUP2 MSTORE SWAP1 PUSH1 0x1 ADD SWAP1 PUSH1 0x20 ADD DUP1 DUP4 GT PUSH2 0x207F JUMPI DUP3 SWAP1 SUB PUSH1 0x1F AND DUP3 ADD SWAP2 JUMPDEST POP POP POP POP POP DUP2 MSTORE PUSH1 0x20 ADD PUSH1 0x3 DUP3 ADD DUP1 SLOAD PUSH2 0x20B5 SWAP1 PUSH2 0x58FE JUMP JUMPDEST DUP1 PUSH1 0x1F ADD PUSH1 0x20 DUP1 SWAP2 DIV MUL PUSH1 0x20 ADD PUSH1 0x40 MLOAD SWAP1 DUP2 ADD PUSH1 0x40 MSTORE DUP1 SWAP3 SWAP2 SWAP1 DUP2 DUP2 MSTORE PUSH1 0x20 ADD DUP3 DUP1 SLOAD PUSH2 0x20E1 SWAP1 PUSH2 0x58FE JUMP JUMPDEST DUP1 ISZERO PUSH2 0x212C JUMPI DUP1 PUSH1 0x1F LT PUSH2 0x2103 JUMPI PUSH2 0x100 DUP1 DUP4 SLOAD DIV MUL DUP4 MSTORE SWAP2 PUSH1 0x20 ADD SWAP2 PUSH2 0x212C JUMP JUMPDEST DUP3 ADD SWAP2 SWAP1 PUSH0 MSTORE PUSH1 0x20 PUSH0 KECCAK256 SWAP1 JUMPDEST DUP2 SLOAD DUP2 MSTORE SWAP1 PUSH1 0x1 ADD SWAP1 PUSH1 0x20 ADD DUP1 DUP4 GT PUSH2 0x210F JUMPI DUP3 SWAP1 SUB PUSH1 0x1F AND DUP3 ADD SWAP2 JUMPDEST POP POP POP POP POP DUP2 MSTORE PUSH1 0x20 ADD PUSH1 0x4 DUP3 ADD SLOAD DUP2 MSTORE PUSH1 0x20 ADD PUSH1 0x5 DUP3 ADD DUP1 SLOAD PUSH2 0x214F SWAP1 PUSH2 0x58FE JUMP JUMPDEST DUP1 PUSH1 0x1F ADD PUSH1 0x20 DUP1 SWAP2 DIV MUL PUSH1 0x20 ADD PUSH1 0x40 MLOAD SWAP1 DUP2 ADD PUSH1 0x40 MSTORE DUP1 SWAP3 SWAP2 SWAP1 DUP2 DUP2 MSTORE PUSH1 0x20 ADD DUP3 DUP1 SLOAD PUSH2 0x217B SWAP1 PUSH2 0x58FE JUMP JUMPDEST DUP1 ISZERO PUSH2 0x21C6 JUMPI DUP1 PUSH1 0x1F LT PUSH2 0x219D JUMPI PUSH2 0x100 DUP1 DUP4 SLOAD DIV MUL DUP4 MSTORE SWAP2 PUSH1 0x20 ADD SWAP2 PUSH2 0x21C6 JUMP JUMPDEST DUP3 ADD SWAP2 SWAP1 PUSH0 MSTORE PUSH1 0x20 PUSH0 KECCAK256 SWAP1 JUMPDEST DUP2 SLOAD DUP2 MSTORE SWAP1 PUSH1 0x1 ADD SWAP1 PUSH1 0x20 ADD DUP1 DUP4 GT PUSH2 0x21A9 JUMPI DUP3 SWAP1 SUB PUSH1 0x1F AND DUP3 ADD SWAP2 JUMPDEST POP POP POP POP POP DUP2 MSTORE PUSH1 0x20 ADD PUSH1 0x6 DUP3 ADD SLOAD DUP2 MSTORE PUSH1 0x20 ADD PUSH1 0x7 DUP3 ADD SLOAD DUP2 MSTORE POP POP SWAP1 POP SWAP2 POP SWAP2 POP SWAP1 SWAP2 JUMP JUMPDEST PUSH0 PUSH1 0x5 SLOAD GT DUP1 ISZERO PUSH2 0x21FF JUMPI POP TIMESTAMP PUSH1 0x5 SLOAD LT JUMPDEST PUSH2 0x224B JUMPI PUSH1 0x40 MLOAD PUSH3 0x461BCD PUSH1 0xE5 SHL DUP2 MSTORE PUSH1 0x20 PUSH1 0x4 DUP3 ADD MSTORE PUSH1 0x1A PUSH1 0x24 DUP3 ADD MSTORE PUSH32 0x43616C6C206F6E6365206166746572205265666572656E64756D000000000000 PUSH1 0x44 DUP3 ADD MSTORE PUSH1 0x64 ADD PUSH2 0xC04 JUMP JUMPDEST PUSH0 DUP1 DUP1 JUMPDEST PUSH1 0x3E SLOAD DUP2 LT ISZERO PUSH2 0x22B4 JUMPI DUP2 PUSH1 0x3E DUP3 DUP2 SLOAD DUP2 LT PUSH2 0x226D JUMPI PUSH2 0x226D PUSH2 0x5A9E JUMP JUMPDEST SWAP1 PUSH0 MSTORE PUSH1 0x20 PUSH0 KECCAK256 SWAP1 PUSH1 0x8 MUL ADD PUSH1 0x7 ADD SLOAD GT ISZERO PUSH2 0x22AC JUMPI PUSH1 0x3E DUP2 DUP2 SLOAD DUP2 LT PUSH2 0x2296 JUMPI PUSH2 0x2296 PUSH2 0x5A9E JUMP JUMPDEST SWAP1 PUSH0 MSTORE PUSH1 0x20 PUSH0 KECCAK256 SWAP1 PUSH1 0x8 MUL ADD PUSH1 0x7 ADD SLOAD SWAP2 POP DUP1 SWAP3 POP JUMPDEST PUSH1 0x1 ADD PUSH2 0x224F JUMP JUMPDEST POP DUP2 PUSH1 0x42 DUP2 SWAP1 SSTORE POP PUSH0 PUSH1 0x3E DUP4 DUP2 SLOAD DUP2 LT PUSH2 0x22D0 JUMPI PUSH2 0x22D0 PUSH2 0x5A9E JUMP JUMPDEST SWAP1 PUSH0 MSTORE PUSH1 0x20 PUSH0 KECCAK256 SWAP1 PUSH1 0x8 MUL ADD PUSH1 0x40 MLOAD DUP1 PUSH2 0x100 ADD PUSH1 0x40 MSTORE SWAP1 DUP2 PUSH0 DUP3 ADD DUP1 SLOAD PUSH2 0x22F7 SWAP1 PUSH2 0x58FE JUMP JUMPDEST DUP1 PUSH1 0x1F ADD PUSH1 0x20 DUP1 SWAP2 DIV MUL PUSH1 0x20 ADD PUSH1 0x40 MLOAD SWAP1 DUP2 ADD PUSH1 0x40 MSTORE DUP1 SWAP3 SWAP2 SWAP1 DUP2 DUP2 MSTORE PUSH1 0x20 ADD DUP3 DUP1 SLOAD PUSH2 0x2323 SWAP1 PUSH2 0x58FE JUMP JUMPDEST DUP1 ISZERO PUSH2 0x236E JUMPI DUP1 PUSH1 0x1F LT PUSH2 0x2345 JUMPI PUSH2 0x100 DUP1 DUP4 SLOAD DIV MUL DUP4 MSTORE SWAP2 PUSH1 0x20 ADD SWAP2 PUSH2 0x236E JUMP JUMPDEST DUP3 ADD SWAP2 SWAP1 PUSH0 MSTORE PUSH1 0x20 PUSH0 KECCAK256 SWAP1 JUMPDEST DUP2 SLOAD DUP2 MSTORE SWAP1 PUSH1 0x1 ADD SWAP1 PUSH1 0x20 ADD DUP1 DUP4 GT PUSH2 0x2351 JUMPI DUP3 SWAP1 SUB PUSH1 0x1F AND DUP3 ADD SWAP2 JUMPDEST POP POP POP POP POP DUP2 MSTORE PUSH1 0x20 ADD PUSH1 0x1 DUP3 ADD DUP1 SLOAD PUSH2 0x2387 SWAP1 PUSH2 0x58FE JUMP JUMPDEST DUP1 PUSH1 0x1F ADD PUSH1 0x20 DUP1 SWAP2 DIV MUL PUSH1 0x20 ADD PUSH1 0x40 MLOAD SWAP1 DUP2 ADD PUSH1 0x40 MSTORE DUP1 SWAP3 SWAP2 SWAP1 DUP2 DUP2 MSTORE PUSH1 0x20 ADD DUP3 DUP1 SLOAD PUSH2 0x23B3 SWAP1 PUSH2 0x58FE JUMP JUMPDEST DUP1 ISZERO PUSH2 0x23FE JUMPI DUP1 PUSH1 0x1F LT PUSH2 0x23D5 JUMPI PUSH2 0x100 DUP1 DUP4 SLOAD DIV MUL DUP4 MSTORE SWAP2 PUSH1 0x20 ADD SWAP2 PUSH2 0x23FE JUMP JUMPDEST DUP3 ADD SWAP2 SWAP1 PUSH0 MSTORE PUSH1 0x20 PUSH0 KECCAK256 SWAP1 JUMPDEST DUP2 SLOAD DUP2 MSTORE SWAP1 PUSH1 0x1 ADD SWAP1 PUSH1 0x20 ADD DUP1 DUP4 GT PUSH2 0x23E1 JUMPI DUP3 SWAP1 SUB PUSH1 0x1F AND DUP3 ADD SWAP2 JUMPDEST POP POP POP POP POP DUP2 MSTORE PUSH1 0x20 ADD PUSH1 0x2 DUP3 ADD DUP1 SLOAD PUSH2 0x2417 SWAP1 PUSH2 0x58FE JUMP JUMPDEST DUP1 PUSH1 0x1F ADD PUSH1 0x20 DUP1 SWAP2 DIV MUL PUSH1 0x20 ADD PUSH1 0x40 MLOAD SWAP1 DUP2 ADD PUSH1 0x40 MSTORE DUP1 SWAP3 SWAP2 SWAP1 DUP2 DUP2 MSTORE PUSH1 0x20 ADD DUP3 DUP1 SLOAD PUSH2 0x2443 SWAP1 PUSH2 0x58FE JUMP JUMPDEST DUP1 ISZERO PUSH2 0x248E JUMPI DUP1 PUSH1 0x1F LT PUSH2 0x2465 JUMPI PUSH2 0x100 DUP1 DUP4 SLOAD DIV MUL DUP4 MSTORE SWAP2 PUSH1 0x20 ADD SWAP2 PUSH2 0x248E JUMP JUMPDEST DUP3 ADD SWAP2 SWAP1 PUSH0 MSTORE PUSH1 0x20 PUSH0 KECCAK256 SWAP1 JUMPDEST DUP2 SLOAD DUP2 MSTORE SWAP1 PUSH1 0x1 ADD SWAP1 PUSH1 0x20 ADD DUP1 DUP4 GT PUSH2 0x2471 JUMPI DUP3 SWAP1 SUB PUSH1 0x1F AND DUP3 ADD SWAP2 JUMPDEST POP POP POP POP POP DUP2 MSTORE PUSH1 0x20 ADD PUSH1 0x3 DUP3 ADD DUP1 SLOAD PUSH2 0x24A7 SWAP1 PUSH2 0x58FE JUMP JUMPDEST DUP1 PUSH1 0x1F ADD PUSH1 0x20 DUP1 SWAP2 DIV MUL PUSH1 0x20 ADD PUSH1 0x40 MLOAD SWAP1 DUP2 ADD PUSH1 0x40 MSTORE DUP1 SWAP3 SWAP2 SWAP1 DUP2 DUP2 MSTORE PUSH1 0x20 ADD DUP3 DUP1 SLOAD PUSH2 0x24D3 SWAP1 PUSH2 0x58FE JUMP JUMPDEST DUP1 ISZERO PUSH2 0x251E JUMPI DUP1 PUSH1 0x1F LT PUSH2 0x24F5 JUMPI PUSH2 0x100 DUP1 DUP4 SLOAD DIV MUL DUP4 MSTORE SWAP2 PUSH1 0x20 ADD SWAP2 PUSH2 0x251E JUMP JUMPDEST DUP3 ADD SWAP2 SWAP1 PUSH0 MSTORE PUSH1 0x20 PUSH0 KECCAK256 SWAP1 JUMPDEST DUP2 SLOAD DUP2 MSTORE SWAP1 PUSH1 0x1 ADD SWAP1 PUSH1 0x20 ADD DUP1 DUP4 GT PUSH2 0x2501 JUMPI DUP3 SWAP1 SUB PUSH1 0x1F AND DUP3 ADD SWAP2 JUMPDEST POP POP POP POP POP DUP2 MSTORE PUSH1 0x20 ADD PUSH1 0x4 DUP3 ADD SLOAD DUP2 MSTORE PUSH1 0x20 ADD PUSH1 0x5 DUP3 ADD DUP1 SLOAD PUSH2 0x2541 SWAP1 PUSH2 0x58FE JUMP JUMPDEST DUP1 PUSH1 0x1F ADD PUSH1 0x20 DUP1 SWAP2 DIV MUL PUSH1 0x20 ADD PUSH1 0x40 MLOAD SWAP1 DUP2 ADD PUSH1 0x40 MSTORE DUP1 SWAP3 SWAP2 SWAP1 DUP2 DUP2 MSTORE PUSH1 0x20 ADD DUP3 DUP1 SLOAD PUSH2 0x256D SWAP1 PUSH2 0x58FE JUMP JUMPDEST DUP1 ISZERO PUSH2 0x25B8 JUMPI DUP1 PUSH1 0x1F LT PUSH2 0x258F JUMPI PUSH2 0x100 DUP1 DUP4 SLOAD DIV MUL DUP4 MSTORE SWAP2 PUSH1 0x20 ADD SWAP2 PUSH2 0x25B8 JUMP JUMPDEST DUP3 ADD SWAP2 SWAP1 PUSH0 MSTORE PUSH1 0x20 PUSH0 KECCAK256 SWAP1 JUMPDEST DUP2 SLOAD DUP2 MSTORE SWAP1 PUSH1 0x1 ADD SWAP1 PUSH1 0x20 ADD DUP1 DUP4 GT PUSH2 0x259B JUMPI DUP3 SWAP1 SUB PUSH1 0x1F AND DUP3 ADD SWAP2 JUMPDEST POP POP POP POP POP DUP2 MSTORE PUSH1 0x20 ADD PUSH1 0x6 DUP3 ADD SLOAD DUP2 MSTORE PUSH1 0x20 ADD PUSH1 0x7 DUP3 ADD SLOAD DUP2 MSTORE POP POP SWAP1 POP DUP3 PUSH32 0x5716523A05C9D13997B5A619D69A47EBA3D34842FF0B403EED7CA3A75B05C708 DUP3 PUSH1 0x40 MLOAD PUSH2 0x2607 SWAP2 SWAP1 PUSH2 0x58A5 JUMP JUMPDEST PUSH1 0x40 MLOAD DUP1 SWAP2 SUB SWAP1 LOG2 SWAP2 SWAP5 SWAP2 SWAP4 POP SWAP1 SWAP2 POP POP JUMP JUMPDEST PUSH1 0x48 PUSH1 0x20 MSTORE DUP2 PUSH0 MSTORE PUSH1 0x40 PUSH0 KECCAK256 DUP2 DUP2 SLOAD DUP2 LT PUSH2 0x2633 JUMPI PUSH0 DUP1 REVERT JUMPDEST PUSH0 SWAP2 DUP3 MSTORE PUSH1 0x20 SWAP1 SWAP2 KECCAK256 PUSH1 0x2 SWAP1 SWAP2 MUL ADD DUP1 SLOAD PUSH1 0x1 SWAP1 SWAP2 ADD SLOAD SWAP1 SWAP3 POP SWAP1 POP DUP3 JUMP JUMPDEST PUSH2 0x2690 PUSH1 0x40 MLOAD DUP1 PUSH1 0xE0 ADD PUSH1 0x40 MSTORE DUP1 PUSH1 0x60 DUP2 MSTORE PUSH1 0x20 ADD PUSH1 0x60 DUP2 MSTORE PUSH1 0x20 ADD PUSH1 0x60 DUP2 MSTORE PUSH1 0x20 ADD PUSH0 DUP2 MSTORE PUSH1 0x20 ADD PUSH0 DUP2 MSTORE PUSH1 0x20 ADD PUSH0 ISZERO ISZERO DUP2 MSTORE PUSH1 0x20 ADD PUSH0 DUP2 MSTORE POP SWAP1 JUMP JUMPDEST PUSH1 0x2 SLOAD DUP3 LT PUSH2 0x26D8 JUMPI PUSH1 0x40 MLOAD PUSH3 0x461BCD PUSH1 0xE5 SHL DUP2 MSTORE PUSH1 0x20 PUSH1 0x4 DUP3 ADD MSTORE PUSH1 0x14 PUSH1 0x24 DUP3 ADD MSTORE PUSH20 0x125B9D985B1A590810D85B991A59185D19481251 PUSH1 0x62 SHL PUSH1 0x44 DUP3 ADD MSTORE PUSH1 0x64 ADD PUSH2 0xC04 JUMP JUMPDEST PUSH1 0x3 PUSH0 PUSH1 0x2 DUP5 DUP2 SLOAD DUP2 LT PUSH2 0x26EE JUMPI PUSH2 0x26EE PUSH2 0x5A9E JUMP JUMPDEST PUSH0 SWAP2 DUP3 MSTORE PUSH1 0x20 DUP1 DUP4 KECCAK256 SWAP1 SWAP2 ADD SLOAD PUSH1 0x1 PUSH1 0x1 PUSH1 0xA0 SHL SUB AND DUP4 MSTORE DUP3 ADD SWAP3 SWAP1 SWAP3 MSTORE PUSH1 0x40 SWAP1 DUP2 ADD SWAP1 SWAP2 KECCAK256 DUP2 MLOAD PUSH1 0xE0 DUP2 ADD SWAP1 SWAP3 MSTORE DUP1 SLOAD DUP3 SWAP1 DUP3 SWAP1 PUSH2 0x272C SWAP1 PUSH2 0x58FE JUMP JUMPDEST DUP1 PUSH1 0x1F ADD PUSH1 0x20 DUP1 SWAP2 DIV MUL PUSH1 0x20 ADD PUSH1 0x40 MLOAD SWAP1 DUP2 ADD PUSH1 0x40 MSTORE DUP1 SWAP3 SWAP2 SWAP1 DUP2 DUP2 MSTORE PUSH1 0x20 ADD DUP3 DUP1 SLOAD PUSH2 0x2758 SWAP1 PUSH2 0x58FE JUMP JUMPDEST DUP1 ISZERO PUSH2 0x27A3 JUMPI DUP1 PUSH1 0x1F LT PUSH2 0x277A JUMPI PUSH2 0x100 DUP1 DUP4 SLOAD DIV MUL DUP4 MSTORE SWAP2 PUSH1 0x20 ADD SWAP2 PUSH2 0x27A3 JUMP JUMPDEST DUP3 ADD SWAP2 SWAP1 PUSH0 MSTORE PUSH1 0x20 PUSH0 KECCAK256 SWAP1 JUMPDEST DUP2 SLOAD DUP2 MSTORE SWAP1 PUSH1 0x1 ADD SWAP1 PUSH1 0x20 ADD DUP1 DUP4 GT PUSH2 0x2786 JUMPI DUP3 SWAP1 SUB PUSH1 0x1F AND DUP3 ADD SWAP2 JUMPDEST POP POP POP POP POP DUP2 MSTORE PUSH1 0x20 ADD PUSH1 0x1 DUP3 ADD DUP1 SLOAD PUSH2 0x27BC SWAP1 PUSH2 0x58FE JUMP JUMPDEST DUP1 PUSH1 0x1F ADD PUSH1 0x20 DUP1 SWAP2 DIV MUL PUSH1 0x20 ADD PUSH1 0x40 MLOAD SWAP1 DUP2 ADD PUSH1 0x40 MSTORE DUP1 SWAP3 SWAP2 SWAP1 DUP2 DUP2 MSTORE PUSH1 0x20 ADD DUP3 DUP1 SLOAD PUSH2 0x27E8 SWAP1 PUSH2 0x58FE JUMP JUMPDEST DUP1 ISZERO PUSH2 0x2833 JUMPI DUP1 PUSH1 0x1F LT PUSH2 0x280A JUMPI PUSH2 0x100 DUP1 DUP4 SLOAD DIV MUL DUP4 MSTORE SWAP2 PUSH1 0x20 ADD SWAP2 PUSH2 0x2833 JUMP JUMPDEST DUP3 ADD SWAP2 SWAP1 PUSH0 MSTORE PUSH1 0x20 PUSH0 KECCAK256 SWAP1 JUMPDEST DUP2 SLOAD DUP2 MSTORE SWAP1 PUSH1 0x1 ADD SWAP1 PUSH1 0x20 ADD DUP1 DUP4 GT PUSH2 0x2816 JUMPI DUP3 SWAP1 SUB PUSH1 0x1F AND DUP3 ADD SWAP2 JUMPDEST POP POP POP POP POP DUP2 MSTORE PUSH1 0x20 ADD PUSH1 0x2 DUP3 ADD DUP1 SLOAD PUSH2 0x284C SWAP1 PUSH2 0x58FE JUMP JUMPDEST DUP1 PUSH1 0x1F ADD PUSH1 0x20 DUP1 SWAP2 DIV MUL PUSH1 0x20 ADD PUSH1 0x40 MLOAD SWAP1 DUP2 ADD PUSH1 0x40 MSTORE DUP1 SWAP3 SWAP2 SWAP1 DUP2 DUP2 MSTORE PUSH1 0x20 ADD DUP3 DUP1 SLOAD PUSH2 0x2878 SWAP1 PUSH2 0x58FE JUMP JUMPDEST DUP1 ISZERO PUSH2 0x28C3 JUMPI DUP1 PUSH1 0x1F LT PUSH2 0x289A JUMPI PUSH2 0x100 DUP1 DUP4 SLOAD DIV MUL DUP4 MSTORE SWAP2 PUSH1 0x20 ADD SWAP2 PUSH2 0x28C3 JUMP JUMPDEST DUP3 ADD SWAP2 SWAP1 PUSH0 MSTORE PUSH1 0x20 PUSH0 KECCAK256 SWAP1 JUMPDEST DUP2 SLOAD DUP2 MSTORE SWAP1 PUSH1 0x1 ADD SWAP1 PUSH1 0x20 ADD DUP1 DUP4 GT PUSH2 0x28A6 JUMPI DUP3 SWAP1 SUB PUSH1 0x1F AND DUP3 ADD SWAP2 JUMPDEST POP POP POP SWAP2 DUP4 MSTORE POP POP PUSH1 0x3 DUP3 ADD SLOAD PUSH1 0x20 DUP3 ADD MSTORE PUSH1 0x4 DUP3 ADD SLOAD PUSH1 0x40 DUP3 ADD MSTORE PUSH1 0x5 DUP3 ADD SLOAD PUSH1 0xFF AND ISZERO ISZERO PUSH1 0x60 DUP3 ADD MSTORE PUSH1 0x6 SWAP1 SWAP2 ADD SLOAD PUSH1 0x80 SWAP1 SWAP2 ADD MSTORE SWAP3 SWAP2 POP POP JUMP JUMPDEST PUSH1 0x40 DUP1 MLOAD DUP1 DUP3 ADD DUP3 MSTORE CALLVALUE DUP1 DUP3 MSTORE TIMESTAMP PUSH1 0x20 DUP1 DUP5 ADD SWAP2 DUP3 MSTORE CALLER PUSH0 DUP2 DUP2 MSTORE PUSH1 0x48 DUP4 MSTORE DUP7 DUP2 KECCAK256 DUP1 SLOAD PUSH1 0x1 DUP1 DUP3 ADD DUP4 SSTORE SWAP2 DUP4 MSTORE SWAP2 DUP5 SWAP1 KECCAK256 DUP8 MLOAD PUSH1 0x2 SWAP1 SWAP4 MUL ADD SWAP2 DUP3 SSTORE SWAP4 MLOAD SWAP4 ADD SWAP3 SWAP1 SWAP3 SSTORE SWAP4 MLOAD SWAP2 DUP3 MSTORE SWAP2 SWAP3 PUSH32 0x976BE468429698A1B0AE0C20A0329BDB6E24722A3F834A2C54B84D63C1722F32 SWAP2 ADD PUSH1 0x40 MLOAD DUP1 SWAP2 SUB SWAP1 LOG2 POP JUMP JUMPDEST CALLER PUSH0 SWAP1 DUP2 MSTORE PUSH1 0x44 PUSH1 0x20 MSTORE PUSH1 0x40 SWAP1 KECCAK256 SLOAD PUSH1 0xA SGT ISZERO PUSH2 0x29CF JUMPI PUSH1 0x40 MLOAD PUSH3 0x461BCD PUSH1 0xE5 SHL DUP2 MSTORE PUSH1 0x20 PUSH1 0x4 DUP3 ADD MSTORE PUSH1 0x13 PUSH1 0x24 DUP3 ADD MSTORE PUSH19 0x139BDD08195B9BDD59DA08185C1C1C9BDD985B PUSH1 0x6A SHL PUSH1 0x44 DUP3 ADD MSTORE PUSH1 0x64 ADD PUSH2 0xC04 JUMP JUMPDEST PUSH1 0x2 PUSH2 0x29D9 PUSH2 0x2EA4 JUMP JUMPDEST PUSH1 0x4 DUP2 GT ISZERO PUSH2 0x29EA JUMPI PUSH2 0x29EA PUSH2 0x562D JUMP JUMPDEST EQ PUSH2 0x2A25 JUMPI PUSH1 0x40 MLOAD PUSH3 0x461BCD PUSH1 0xE5 SHL DUP2 MSTORE PUSH1 0x20 PUSH1 0x4 DUP3 ADD MSTORE PUSH1 0xB PUSH1 0x24 DUP3 ADD MSTORE PUSH11 0x57726F6E67207068617365 PUSH1 0xA8 SHL PUSH1 0x44 DUP3 ADD MSTORE PUSH1 0x64 ADD PUSH2 0xC04 JUMP JUMPDEST PUSH0 JUMPDEST PUSH1 0xA PUSH1 0xFF DUP3 AND LT ISZERO PUSH2 0x2C4F JUMPI PUSH0 PUSH1 0x3F DUP2 DUP6 PUSH1 0xFF DUP6 AND PUSH1 0xA DUP2 LT PUSH2 0x2A4C JUMPI PUSH2 0x2A4C PUSH2 0x5A9E JUMP JUMPDEST PUSH1 0x20 MUL ADD CALLDATALOAD DUP2 MSTORE PUSH1 0x20 ADD SWAP1 DUP2 MSTORE PUSH1 0x20 ADD PUSH0 KECCAK256 PUSH0 PUSH1 0x2 DUP2 LT PUSH2 0x2A6F JUMPI PUSH2 0x2A6F PUSH2 0x5A9E JUMP JUMPDEST ADD SLOAD PUSH1 0x1 PUSH1 0x1 PUSH1 0xA0 SHL SUB AND SUB PUSH2 0x2ADF JUMPI CALLER PUSH1 0x3F PUSH0 DUP6 DUP5 PUSH1 0xFF AND PUSH1 0xA DUP2 LT PUSH2 0x2A98 JUMPI PUSH2 0x2A98 PUSH2 0x5A9E JUMP JUMPDEST PUSH1 0x20 MUL ADD CALLDATALOAD DUP2 MSTORE PUSH1 0x20 ADD SWAP1 DUP2 MSTORE PUSH1 0x20 ADD PUSH0 KECCAK256 PUSH0 PUSH1 0x2 DUP2 LT PUSH2 0x2ABB JUMPI PUSH2 0x2ABB PUSH2 0x5A9E JUMP JUMPDEST ADD DUP1 SLOAD PUSH1 0x1 PUSH1 0x1 PUSH1 0xA0 SHL SUB NOT AND PUSH1 0x1 PUSH1 0x1 PUSH1 0xA0 SHL SUB SWAP3 SWAP1 SWAP3 AND SWAP2 SWAP1 SWAP2 OR SWAP1 SSTORE PUSH2 0x2C3D JUMP JUMPDEST PUSH0 PUSH1 0x3F DUP2 DUP6 PUSH1 0xFF DUP6 AND PUSH1 0xA DUP2 LT PUSH2 0x2AF8 JUMPI PUSH2 0x2AF8 PUSH2 0x5A9E JUMP JUMPDEST PUSH1 0x20 MUL ADD CALLDATALOAD DUP2 MSTORE PUSH1 0x20 ADD SWAP1 DUP2 MSTORE PUSH1 0x20 ADD PUSH0 KECCAK256 PUSH1 0x1 PUSH1 0x2 DUP2 LT PUSH2 0x2B1C JUMPI PUSH2 0x2B1C PUSH2 0x5A9E JUMP JUMPDEST ADD SLOAD PUSH1 0x1 PUSH1 0x1 PUSH1 0xA0 SHL SUB AND SUB PUSH2 0x2BFD JUMPI CALLER PUSH1 0x3F PUSH0 DUP6 PUSH1 0xFF DUP6 AND PUSH1 0xA DUP2 LT PUSH2 0x2B45 JUMPI PUSH2 0x2B45 PUSH2 0x5A9E JUMP JUMPDEST PUSH1 0x20 MUL ADD CALLDATALOAD DUP2 MSTORE PUSH1 0x20 ADD SWAP1 DUP2 MSTORE PUSH1 0x20 ADD PUSH0 KECCAK256 PUSH0 PUSH1 0x2 DUP2 LT PUSH2 0x2B68 JUMPI PUSH2 0x2B68 PUSH2 0x5A9E JUMP JUMPDEST ADD SLOAD PUSH1 0x1 PUSH1 0x1 PUSH1 0xA0 SHL SUB AND SUB PUSH2 0x2BC0 JUMPI PUSH1 0x40 MLOAD PUSH3 0x461BCD PUSH1 0xE5 SHL DUP2 MSTORE PUSH1 0x20 PUSH1 0x4 DUP3 ADD MSTORE PUSH1 0x1B PUSH1 0x24 DUP3 ADD MSTORE PUSH32 0x526567697374726172206D75737420626520646966666572656E740000000000 PUSH1 0x44 DUP3 ADD MSTORE PUSH1 0x64 ADD PUSH2 0xC04 JUMP JUMPDEST CALLER PUSH1 0x3F PUSH0 DUP6 DUP5 PUSH1 0xFF AND PUSH1 0xA DUP2 LT PUSH2 0x2BD9 JUMPI PUSH2 0x2BD9 PUSH2 0x5A9E JUMP JUMPDEST PUSH1 0x20 MUL ADD CALLDATALOAD DUP2 MSTORE PUSH1 0x20 ADD SWAP1 DUP2 MSTORE PUSH1 0x20 ADD PUSH0 KECCAK256 PUSH1 0x1 PUSH1 0x2 DUP2 LT PUSH2 0x2ABB JUMPI PUSH2 0x2ABB PUSH2 0x5A9E JUMP JUMPDEST PUSH1 0x40 MLOAD PUSH3 0x461BCD PUSH1 0xE5 SHL DUP2 MSTORE PUSH1 0x20 PUSH1 0x4 DUP3 ADD MSTORE PUSH1 0x15 PUSH1 0x24 DUP3 ADD MSTORE PUSH21 0x12185CDA08185B1C9958591E481C9958DBDC991959 PUSH1 0x5A SHL PUSH1 0x44 DUP3 ADD MSTORE PUSH1 0x64 ADD PUSH2 0xC04 JUMP JUMPDEST DUP1 PUSH2 0x2C47 DUP2 PUSH2 0x5AB2 JUMP JUMPDEST SWAP2 POP POP PUSH2 0x2A27 JUMP JUMPDEST POP PUSH0 JUMPDEST PUSH1 0xA PUSH1 0xFF DUP3 AND LT ISZERO PUSH2 0x2DED JUMPI PUSH0 DUP3 PUSH1 0xFF DUP4 AND PUSH1 0xA DUP2 LT PUSH2 0x2C74 JUMPI PUSH2 0x2C74 PUSH2 0x5A9E JUMP JUMPDEST PUSH1 0x20 MUL ADD PUSH1 0x20 DUP2 ADD SWAP1 PUSH2 0x2C87 SWAP2 SWAP1 PUSH2 0x560B JUMP JUMPDEST PUSH1 0x1 PUSH1 0x1 PUSH1 0xA0 SHL SUB AND SUB PUSH2 0x2CD5 JUMPI PUSH1 0x40 MLOAD PUSH3 0x461BCD PUSH1 0xE5 SHL DUP2 MSTORE PUSH1 0x20 PUSH1 0x4 DUP3 ADD MSTORE PUSH1 0x15 PUSH1 0x24 DUP3 ADD MSTORE PUSH21 0x496E76616C696420766F7465722061646472657373 PUSH1 0x58 SHL PUSH1 0x44 DUP3 ADD MSTORE PUSH1 0x64 ADD PUSH2 0xC04 JUMP JUMPDEST PUSH1 0x2 PUSH1 0x40 PUSH0 DUP5 DUP5 PUSH1 0xFF AND PUSH1 0xA DUP2 LT PUSH2 0x2CEF JUMPI PUSH2 0x2CEF PUSH2 0x5A9E JUMP JUMPDEST PUSH1 0x20 MUL ADD PUSH1 0x20 DUP2 ADD SWAP1 PUSH2 0x2D02 SWAP2 SWAP1 PUSH2 0x560B JUMP JUMPDEST PUSH1 0x1 PUSH1 0x1 PUSH1 0xA0 SHL SUB AND PUSH1 0x1 PUSH1 0x1 PUSH1 0xA0 SHL SUB AND DUP2 MSTORE PUSH1 0x20 ADD SWAP1 DUP2 MSTORE PUSH1 0x20 ADD PUSH0 KECCAK256 SLOAD LT PUSH2 0x2D84 JUMPI PUSH1 0x40 MLOAD PUSH3 0x461BCD PUSH1 0xE5 SHL DUP2 MSTORE PUSH1 0x20 PUSH1 0x4 DUP3 ADD MSTORE PUSH1 0x2C PUSH1 0x24 DUP3 ADD MSTORE PUSH32 0x4164647265737320616C72656164792072656769737465726564212052454749 PUSH1 0x44 DUP3 ADD MSTORE PUSH12 0x5354524152204552524F5221 PUSH1 0xA0 SHL PUSH1 0x64 DUP3 ADD MSTORE PUSH1 0x84 ADD PUSH2 0xC04 JUMP JUMPDEST PUSH1 0x40 PUSH0 DUP4 DUP4 PUSH1 0xFF AND PUSH1 0xA DUP2 LT PUSH2 0x2D9C JUMPI PUSH2 0x2D9C PUSH2 0x5A9E JUMP JUMPDEST PUSH1 0x20 MUL ADD PUSH1 0x20 DUP2 ADD SWAP1 PUSH2 0x2DAF SWAP2 SWAP1 PUSH2 0x560B JUMP JUMPDEST PUSH1 0x1 PUSH1 0x1 PUSH1 0xA0 SHL SUB AND DUP2 MSTORE PUSH1 0x20 DUP2 ADD SWAP2 SWAP1 SWAP2 MSTORE PUSH1 0x40 ADD PUSH0 SWAP1 DUP2 KECCAK256 DUP1 SLOAD SWAP2 PUSH2 0x2DD5 DUP4 PUSH2 0x5BA9 JUMP JUMPDEST SWAP2 SWAP1 POP SSTORE POP DUP1 DUP1 PUSH2 0x2DE5 SWAP1 PUSH2 0x5AB2 JUMP JUMPDEST SWAP2 POP POP PUSH2 0x2C52 JUMP JUMPDEST POP PUSH1 0x41 DUP1 SLOAD PUSH1 0xA SWAP2 SWAP1 PUSH0 SWAP1 PUSH2 0x2E09 SWAP1 DUP5 SWAP1 PUSH4 0xFFFFFFFF AND PUSH2 0x5B46 JUMP JUMPDEST SWAP3 POP PUSH2 0x100 EXP DUP2 SLOAD DUP2 PUSH4 0xFFFFFFFF MUL NOT AND SWAP1 DUP4 PUSH4 0xFFFFFFFF AND MUL OR SWAP1 SSTORE POP DUP1 PUSH1 0x40 MLOAD PUSH2 0x2E35 SWAP2 SWAP1 PUSH2 0x5B62 JUMP JUMPDEST PUSH1 0x40 DUP1 MLOAD SWAP2 DUP3 SWAP1 SUB DUP3 KECCAK256 PUSH1 0x41 SLOAD CALLER DUP5 MSTORE PUSH4 0xFFFFFFFF AND PUSH1 0x20 DUP5 ADD MSTORE SWAP2 PUSH32 0x2BA0AAA9C0E5919BF5CB9FDE7B2825194F9DC6E9AB2A9174C59892A1585C446A SWAP2 ADD PUSH2 0xED2 JUMP JUMPDEST PUSH1 0x49 DUP2 PUSH1 0x32 DUP2 LT PUSH2 0x2E88 JUMPI PUSH0 DUP1 REVERT JUMPDEST PUSH1 0x2 MUL ADD DUP1 SLOAD PUSH1 0x1 SWAP1 SWAP2 ADD SLOAD PUSH1 0x1 PUSH1 0x1 PUSH1 0xA0 SHL SUB SWAP1 SWAP2 AND SWAP2 POP DUP3 JUMP JUMPDEST PUSH0 PUSH3 0x15180 PUSH0 SLOAD PUSH2 0x2EB5 SWAP2 SWAP1 PUSH2 0x5A5E JUMP JUMPDEST TIMESTAMP LT ISZERO PUSH2 0x2EC1 JUMPI POP PUSH0 SWAP1 JUMP JUMPDEST PUSH0 SLOAD TIMESTAMP LT ISZERO PUSH2 0x2F20 JUMPI PUSH2 0x2ED6 PUSH1 0x32 PUSH1 0x2 PUSH2 0x5E1E JUMP JUMPDEST PUSH1 0xFF AND PUSH1 0x2 DUP1 SLOAD SWAP1 POP LT DUP1 PUSH2 0x2EFC JUMPI POP PUSH1 0x1 SLOAD PUSH2 0x4B0 PUSH1 0x1 PUSH1 0xA0 SHL SWAP1 SWAP2 DIV PUSH4 0xFFFFFFFF AND LT JUMPDEST ISZERO PUSH2 0x2F1A JUMPI PUSH3 0x127500 PUSH0 SLOAD PUSH2 0x2F11 SWAP2 SWAP1 PUSH2 0x5E41 JUMP JUMPDEST PUSH0 SWAP1 DUP2 SSTORE SWAP2 SWAP1 POP JUMP JUMPDEST POP PUSH1 0x1 SWAP1 JUMP JUMPDEST PUSH1 0x5 SLOAD PUSH0 SUB PUSH2 0x2F2F JUMPI POP PUSH1 0x2 SWAP1 JUMP JUMPDEST PUSH1 0x5 SLOAD TIMESTAMP LT ISZERO PUSH2 0x2F3F JUMPI POP PUSH1 0x3 SWAP1 JUMP JUMPDEST POP PUSH1 0x4 SWAP1 JUMP JUMPDEST PUSH1 0x3A SLOAD PUSH1 0xFF AND PUSH2 0x2F87 JUMPI PUSH1 0x40 MLOAD PUSH3 0x461BCD PUSH1 0xE5 SHL DUP2 MSTORE PUSH1 0x20 PUSH1 0x4 DUP3 ADD MSTORE PUSH1 0xD PUSH1 0x24 DUP3 ADD MSTORE PUSH13 0x139BC81B195859195C881E595D PUSH1 0x9A SHL PUSH1 0x44 DUP3 ADD MSTORE PUSH1 0x64 ADD PUSH2 0xC04 JUMP JUMPDEST PUSH1 0x3A SLOAD PUSH2 0x100 SWAP1 DIV PUSH1 0x1 PUSH1 0x1 PUSH1 0xA0 SHL SUB AND PUSH0 SWAP1 DUP2 MSTORE PUSH1 0x3 PUSH1 0x20 MSTORE PUSH1 0x40 SWAP1 KECCAK256 PUSH1 0x6 ADD SLOAD PUSH2 0x2FB7 SWAP1 PUSH3 0x93A80 SWAP1 PUSH2 0x5E41 JUMP JUMPDEST TIMESTAMP LT ISZERO PUSH2 0x3011 JUMPI PUSH1 0x40 MLOAD PUSH3 0x461BCD PUSH1 0xE5 SHL DUP2 MSTORE PUSH1 0x20 PUSH1 0x4 DUP3 ADD MSTORE PUSH1 0x22 PUSH1 0x24 DUP3 ADD MSTORE PUSH32 0x43757272656E74206C65616465722773207465726D206E6F742066696E697368 PUSH1 0x44 DUP3 ADD MSTORE PUSH2 0x1959 PUSH1 0xF2 SHL PUSH1 0x64 DUP3 ADD MSTORE PUSH1 0x84 ADD PUSH2 0xC04 JUMP JUMPDEST PUSH1 0x3B DUP1 SLOAD SWAP1 PUSH0 PUSH2 0x3020 DUP4 PUSH2 0x5BA9 JUMP JUMPDEST SWAP2 SWAP1 POP SSTORE POP PUSH1 0x32 PUSH1 0x3B SLOAD LT PUSH2 0x3034 JUMPI PUSH0 PUSH1 0x3B SSTORE JUMPDEST PUSH1 0x8 PUSH1 0x3B SLOAD PUSH1 0x32 DUP2 LT PUSH2 0x3049 JUMPI PUSH2 0x3049 PUSH2 0x5A9E JUMP JUMPDEST ADD SLOAD PUSH1 0x3A DUP1 SLOAD PUSH2 0x100 PUSH1 0x1 PUSH1 0xA8 SHL SUB NOT AND PUSH2 0x100 PUSH1 0x1 PUSH1 0x1 PUSH1 0xA0 SHL SUB SWAP4 DUP5 AND DUP2 MUL SWAP2 SWAP1 SWAP2 OR DUP1 DUP4 SSTORE DUP2 SWAP1 DIV DUP4 AND PUSH0 SWAP1 DUP2 MSTORE PUSH1 0x3 PUSH1 0x20 MSTORE PUSH1 0x40 DUP1 DUP3 KECCAK256 TIMESTAMP PUSH1 0x6 SWAP1 SWAP2 ADD SSTORE SWAP3 SLOAD SWAP3 MLOAD SWAP2 SWAP1 SWAP3 DIV SWAP1 SWAP3 AND SWAP2 PUSH32 0x8A84BB57BF3F6ADEFAA7A35A6A5067473F78164BFC14C2F6AE8B93E5B115B35A SWAP2 SWAP1 LOG2 JUMP JUMPDEST PUSH1 0x1 PUSH2 0x30C7 PUSH2 0x2EA4 JUMP JUMPDEST PUSH1 0x4 DUP2 GT ISZERO PUSH2 0x30D8 JUMPI PUSH2 0x30D8 PUSH2 0x562D JUMP JUMPDEST EQ PUSH2 0x311D JUMPI PUSH1 0x40 MLOAD PUSH3 0x461BCD PUSH1 0xE5 SHL DUP2 MSTORE PUSH1 0x20 PUSH1 0x4 DUP3 ADD MSTORE PUSH1 0x15 PUSH1 0x24 DUP3 ADD MSTORE PUSH21 0x4E6F7420696E20456C656374696F6E207068617365 PUSH1 0x58 SHL PUSH1 0x44 DUP3 ADD MSTORE PUSH1 0x64 ADD PUSH2 0xC04 JUMP JUMPDEST PUSH1 0x2 SLOAD DUP2 GT ISZERO PUSH2 0x3164 JUMPI PUSH1 0x40 MLOAD PUSH3 0x461BCD PUSH1 0xE5 SHL DUP2 MSTORE PUSH1 0x20 PUSH1 0x4 DUP3 ADD MSTORE PUSH1 0x12 PUSH1 0x24 DUP3 ADD MSTORE PUSH18 0x125B9D985B1A59081D9BDD194818DBDD5B9D PUSH1 0x72 SHL PUSH1 0x44 DUP3 ADD MSTORE PUSH1 0x64 ADD PUSH2 0xC04 JUMP JUMPDEST CALLER PUSH0 SWAP1 DUP2 MSTORE PUSH1 0x7 PUSH1 0x20 MSTORE PUSH1 0x40 SWAP1 KECCAK256 SLOAD PUSH1 0x1 EQ PUSH2 0x31D3 JUMPI PUSH1 0x40 MLOAD PUSH3 0x461BCD PUSH1 0xE5 SHL DUP2 MSTORE PUSH1 0x20 PUSH1 0x4 DUP3 ADD MSTORE PUSH1 0x28 PUSH1 0x24 DUP3 ADD MSTORE PUSH32 0x416C726561647920766F74656420283E3129206F72206E6F7420726567697374 PUSH1 0x44 DUP3 ADD MSTORE PUSH8 0x6572656420283029 PUSH1 0xC0 SHL PUSH1 0x64 DUP3 ADD MSTORE PUSH1 0x84 ADD PUSH2 0xC04 JUMP JUMPDEST PUSH1 0x2 SLOAD PUSH0 SWAP1 PUSH1 0x1 PUSH1 0x1 PUSH1 0x40 SHL SUB DUP2 GT ISZERO PUSH2 0x31EF JUMPI PUSH2 0x31EF PUSH2 0x4FCB JUMP JUMPDEST PUSH1 0x40 MLOAD SWAP1 DUP1 DUP3 MSTORE DUP1 PUSH1 0x20 MUL PUSH1 0x20 ADD DUP3 ADD PUSH1 0x40 MSTORE DUP1 ISZERO PUSH2 0x3218 JUMPI DUP2 PUSH1 0x20 ADD PUSH1 0x20 DUP3 MUL DUP1 CALLDATASIZE DUP4 CALLDATACOPY ADD SWAP1 POP JUMPDEST POP CALLER PUSH0 DUP2 DUP2 MSTORE PUSH1 0x7 PUSH1 0x20 MSTORE PUSH1 0x40 DUP1 DUP3 KECCAK256 TIMESTAMP SWAP1 SSTORE MLOAD SWAP3 SWAP4 POP SWAP1 SWAP2 PUSH32 0xB87A61D78BD15221C59B983F6EF032FBDE0631E66BFE18D1421FE5A73C16741D SWAP2 SWAP1 LOG2 PUSH0 JUMPDEST DUP3 DUP2 LT ISZERO PUSH2 0x33AA JUMPI PUSH0 DUP5 DUP5 DUP4 DUP2 DUP2 LT PUSH2 0x3272 JUMPI PUSH2 0x3272 PUSH2 0x5A9E JUMP JUMPDEST SWAP1 POP PUSH1 0x20 MUL ADD CALLDATALOAD SWAP1 POP PUSH1 0x2 DUP1 SLOAD SWAP1 POP DUP2 LT PUSH2 0x32C7 JUMPI PUSH1 0x40 MLOAD PUSH3 0x461BCD PUSH1 0xE5 SHL DUP2 MSTORE PUSH1 0x20 PUSH1 0x4 DUP3 ADD MSTORE PUSH1 0x15 PUSH1 0x24 DUP3 ADD MSTORE PUSH21 0xAEE4DEDCCE40C6C2DCC8D2C8C2E8CA40D2DCC8CAF PUSH1 0x5B SHL PUSH1 0x44 DUP3 ADD MSTORE PUSH1 0x64 ADD PUSH2 0xC04 JUMP JUMPDEST DUP3 DUP2 DUP2 MLOAD DUP2 LT PUSH2 0x32D9 JUMPI PUSH2 0x32D9 PUSH2 0x5A9E JUMP JUMPDEST PUSH1 0x20 MUL PUSH1 0x20 ADD ADD MLOAD ISZERO PUSH2 0x332E JUMPI PUSH1 0x40 MLOAD PUSH3 0x461BCD PUSH1 0xE5 SHL DUP2 MSTORE PUSH1 0x20 PUSH1 0x4 DUP3 ADD MSTORE PUSH1 0x1A PUSH1 0x24 DUP3 ADD MSTORE PUSH32 0x526570657469746976652063616E64696461746520696E646578000000000000 PUSH1 0x44 DUP3 ADD MSTORE PUSH1 0x64 ADD PUSH2 0xC04 JUMP JUMPDEST PUSH1 0x1 DUP4 DUP3 DUP2 MLOAD DUP2 LT PUSH2 0x3342 JUMPI PUSH2 0x3342 PUSH2 0x5A9E JUMP JUMPDEST PUSH1 0x20 MUL PUSH1 0x20 ADD ADD SWAP1 ISZERO ISZERO SWAP1 DUP2 ISZERO ISZERO DUP2 MSTORE POP POP PUSH1 0x3 PUSH0 PUSH1 0x2 DUP4 DUP2 SLOAD DUP2 LT PUSH2 0x336A JUMPI PUSH2 0x336A PUSH2 0x5A9E JUMP JUMPDEST PUSH0 SWAP2 DUP3 MSTORE PUSH1 0x20 DUP1 DUP4 KECCAK256 SWAP1 SWAP2 ADD SLOAD PUSH1 0x1 PUSH1 0x1 PUSH1 0xA0 SHL SUB AND DUP4 MSTORE DUP3 ADD SWAP3 SWAP1 SWAP3 MSTORE PUSH1 0x40 ADD DUP2 KECCAK256 PUSH1 0x4 ADD DUP1 SLOAD SWAP2 PUSH2 0x339C DUP4 PUSH2 0x5BA9 JUMP JUMPDEST SWAP1 SWAP2 SSTORE POP POP POP PUSH1 0x1 ADD PUSH2 0x3257 JUMP JUMPDEST POP POP POP POP JUMP JUMPDEST PUSH1 0x2 DUP2 DUP2 SLOAD DUP2 LT PUSH2 0x33BF JUMPI PUSH0 DUP1 REVERT JUMPDEST PUSH0 SWAP2 DUP3 MSTORE PUSH1 0x20 SWAP1 SWAP2 KECCAK256 ADD SLOAD PUSH1 0x1 PUSH1 0x1 PUSH1 0xA0 SHL SUB AND SWAP1 POP DUP2 JUMP JUMPDEST PUSH1 0x3E DUP2 DUP2 SLOAD DUP2 LT PUSH2 0x33E7 JUMPI PUSH0 DUP1 REVERT JUMPDEST SWAP1 PUSH0 MSTORE PUSH1 0x20 PUSH0 KECCAK256 SWAP1 PUSH1 0x8 MUL ADD PUSH0 SWAP2 POP SWAP1 POP DUP1 PUSH0 ADD DUP1 SLOAD PUSH2 0x3406 SWAP1 PUSH2 0x58FE JUMP JUMPDEST DUP1 PUSH1 0x1F ADD PUSH1 0x20 DUP1 SWAP2 DIV MUL PUSH1 0x20 ADD PUSH1 0x40 MLOAD SWAP1 DUP2 ADD PUSH1 0x40 MSTORE DUP1 SWAP3 SWAP2 SWAP1 DUP2 DUP2 MSTORE PUSH1 0x20 ADD DUP3 DUP1 SLOAD PUSH2 0x3432 SWAP1 PUSH2 0x58FE JUMP JUMPDEST DUP1 ISZERO PUSH2 0x347D JUMPI DUP1 PUSH1 0x1F LT PUSH2 0x3454 JUMPI PUSH2 0x100 DUP1 DUP4 SLOAD DIV MUL DUP4 MSTORE SWAP2 PUSH1 0x20 ADD SWAP2 PUSH2 0x347D JUMP JUMPDEST DUP3 ADD SWAP2 SWAP1 PUSH0 MSTORE PUSH1 0x20 PUSH0 KECCAK256 SWAP1 JUMPDEST DUP2 SLOAD DUP2 MSTORE SWAP1 PUSH1 0x1 ADD SWAP1 PUSH1 0x20 ADD DUP1 DUP4 GT PUSH2 0x3460 JUMPI DUP3 SWAP1 SUB PUSH1 0x1F AND DUP3 ADD SWAP2 JUMPDEST POP POP POP POP POP SWAP1 DUP1 PUSH1 0x1 ADD DUP1 SLOAD PUSH2 0x3492 SWAP1 PUSH2 0x58FE JUMP JUMPDEST DUP1 PUSH1 0x1F ADD PUSH1 0x20 DUP1 SWAP2 DIV MUL PUSH1 0x20 ADD PUSH1 0x40 MLOAD SWAP1 DUP2 ADD PUSH1 0x40 MSTORE DUP1 SWAP3 SWAP2 SWAP1 DUP2 DUP2 MSTORE PUSH1 0x20 ADD DUP3 DUP1 SLOAD PUSH2 0x34BE SWAP1 PUSH2 0x58FE JUMP JUMPDEST DUP1 ISZERO PUSH2 0x3509 JUMPI DUP1 PUSH1 0x1F LT PUSH2 0x34E0 JUMPI PUSH2 0x100 DUP1 DUP4 SLOAD DIV MUL DUP4 MSTORE SWAP2 PUSH1 0x20 ADD SWAP2 PUSH2 0x3509 JUMP JUMPDEST DUP3 ADD SWAP2 SWAP1 PUSH0 MSTORE PUSH1 0x20 PUSH0 KECCAK256 SWAP1 JUMPDEST DUP2 SLOAD DUP2 MSTORE SWAP1 PUSH1 0x1 ADD SWAP1 PUSH1 0x20 ADD DUP1 DUP4 GT PUSH2 0x34EC JUMPI DUP3 SWAP1 SUB PUSH1 0x1F AND DUP3 ADD SWAP2 JUMPDEST POP POP POP POP POP SWAP1 DUP1 PUSH1 0x2 ADD DUP1 SLOAD PUSH2 0x351E SWAP1 PUSH2 0x58FE JUMP JUMPDEST DUP1 PUSH1 0x1F ADD PUSH1 0x20 DUP1 SWAP2 DIV MUL PUSH1 0x20 ADD PUSH1 0x40 MLOAD SWAP1 DUP2 ADD PUSH1 0x40 MSTORE DUP1 SWAP3 SWAP2 SWAP1 DUP2 DUP2 MSTORE PUSH1 0x20 ADD DUP3 DUP1 SLOAD PUSH2 0x354A SWAP1 PUSH2 0x58FE JUMP JUMPDEST DUP1 ISZERO PUSH2 0x3595 JUMPI DUP1 PUSH1 0x1F LT PUSH2 0x356C JUMPI PUSH2 0x100 DUP1 DUP4 SLOAD DIV MUL DUP4 MSTORE SWAP2 PUSH1 0x20 ADD SWAP2 PUSH2 0x3595 JUMP JUMPDEST DUP3 ADD SWAP2 SWAP1 PUSH0 MSTORE PUSH1 0x20 PUSH0 KECCAK256 SWAP1 JUMPDEST DUP2 SLOAD DUP2 MSTORE SWAP1 PUSH1 0x1 ADD SWAP1 PUSH1 0x20 ADD DUP1 DUP4 GT PUSH2 0x3578 JUMPI DUP3 SWAP1 SUB PUSH1 0x1F AND DUP3 ADD SWAP2 JUMPDEST POP POP POP POP POP SWAP1 DUP1 PUSH1 0x3 ADD DUP1 SLOAD PUSH2 0x35AA SWAP1 PUSH2 0x58FE JUMP JUMPDEST DUP1 PUSH1 0x1F ADD PUSH1 0x20 DUP1 SWAP2 DIV MUL PUSH1 0x20 ADD PUSH1 0x40 MLOAD SWAP1 DUP2 ADD PUSH1 0x40 MSTORE DUP1 SWAP3 SWAP2 SWAP1 DUP2 DUP2 MSTORE PUSH1 0x20 ADD DUP3 DUP1 SLOAD PUSH2 0x35D6 SWAP1 PUSH2 0x58FE JUMP JUMPDEST DUP1 ISZERO PUSH2 0x3621 JUMPI DUP1 PUSH1 0x1F LT PUSH2 0x35F8 JUMPI PUSH2 0x100 DUP1 DUP4 SLOAD DIV MUL DUP4 MSTORE SWAP2 PUSH1 0x20 ADD SWAP2 PUSH2 0x3621 JUMP JUMPDEST DUP3 ADD SWAP2 SWAP1 PUSH0 MSTORE PUSH1 0x20 PUSH0 KECCAK256 SWAP1 JUMPDEST DUP2 SLOAD DUP2 MSTORE SWAP1 PUSH1 0x1 ADD SWAP1 PUSH1 0x20 ADD DUP1 DUP4 GT PUSH2 0x3604 JUMPI DUP3 SWAP1 SUB PUSH1 0x1F AND DUP3 ADD SWAP2 JUMPDEST POP POP POP POP POP SWAP1 DUP1 PUSH1 0x4 ADD SLOAD SWAP1 DUP1 PUSH1 0x5 ADD DUP1 SLOAD PUSH2 0x363C SWAP1 PUSH2 0x58FE JUMP JUMPDEST DUP1 PUSH1 0x1F ADD PUSH1 0x20 DUP1 SWAP2 DIV MUL PUSH1 0x20 ADD PUSH1 0x40 MLOAD SWAP1 DUP2 ADD PUSH1 0x40 MSTORE DUP1 SWAP3 SWAP2 SWAP1 DUP2 DUP2 MSTORE PUSH1 0x20 ADD DUP3 DUP1 SLOAD PUSH2 0x3668 SWAP1 PUSH2 0x58FE JUMP JUMPDEST DUP1 ISZERO PUSH2 0x36B3 JUMPI DUP1 PUSH1 0x1F LT PUSH2 0x368A JUMPI PUSH2 0x100 DUP1 DUP4 SLOAD DIV MUL DUP4 MSTORE SWAP2 PUSH1 0x20 ADD SWAP2 PUSH2 0x36B3 JUMP JUMPDEST DUP3 ADD SWAP2 SWAP1 PUSH0 MSTORE PUSH1 0x20 PUSH0 KECCAK256 SWAP1 JUMPDEST DUP2 SLOAD DUP2 MSTORE SWAP1 PUSH1 0x1 ADD SWAP1 PUSH1 0x20 ADD DUP1 DUP4 GT PUSH2 0x3696 JUMPI DUP3 SWAP1 SUB PUSH1 0x1F AND DUP3 ADD SWAP2 JUMPDEST POP POP POP POP POP SWAP1 DUP1 PUSH1 0x6 ADD SLOAD SWAP1 DUP1 PUSH1 0x7 ADD SLOAD SWAP1 POP DUP9 JUMP JUMPDEST PUSH2 0x3710 PUSH1 0x40 MLOAD DUP1 PUSH1 0xE0 ADD PUSH1 0x40 MSTORE DUP1 PUSH0 PUSH1 0x1 PUSH1 0x1 PUSH1 0xA0 SHL SUB AND DUP2 MSTORE PUSH1 0x20 ADD PUSH1 0x60 DUP2 MSTORE PUSH1 0x20 ADD PUSH0 DUP2 MSTORE PUSH1 0x20 ADD PUSH0 DUP2 MSTORE PUSH1 0x20 ADD PUSH0 DUP2 MSTORE PUSH1 0x20 ADD PUSH0 PUSH1 0xFF AND DUP2 MSTORE PUSH1 0x20 ADD PUSH1 0x60 DUP2 MSTORE POP SWAP1 JUMP JUMPDEST PUSH1 0x4 SLOAD DUP3 LT PUSH2 0x3731 JUMPI PUSH1 0x40 MLOAD PUSH3 0x461BCD PUSH1 0xE5 SHL DUP2 MSTORE PUSH1 0x4 ADD PUSH2 0xC04 SWAP1 PUSH2 0x5A71 JUMP JUMPDEST PUSH1 0x4 DUP3 DUP2 SLOAD DUP2 LT PUSH2 0x3744 JUMPI PUSH2 0x3744 PUSH2 0x5A9E JUMP JUMPDEST PUSH0 SWAP2 DUP3 MSTORE PUSH1 0x20 SWAP2 DUP3 SWAP1 KECCAK256 PUSH1 0x40 DUP1 MLOAD PUSH1 0xE0 DUP2 ADD SWAP1 SWAP2 MSTORE PUSH1 0x7 SWAP1 SWAP3 MUL ADD DUP1 SLOAD PUSH1 0x1 PUSH1 0x1 PUSH1 0xA0 SHL SUB AND DUP3 MSTORE PUSH1 0x1 DUP2 ADD DUP1 SLOAD SWAP3 SWAP4 SWAP2 SWAP3 SWAP2 DUP5 ADD SWAP2 PUSH2 0x3783 SWAP1 PUSH2 0x58FE JUMP JUMPDEST DUP1 PUSH1 0x1F ADD PUSH1 0x20 DUP1 SWAP2 DIV MUL PUSH1 0x20 ADD PUSH1 0x40 MLOAD SWAP1 DUP2 ADD PUSH1 0x40 MSTORE DUP1 SWAP3 SWAP2 SWAP1 DUP2 DUP2 MSTORE PUSH1 0x20 ADD DUP3 DUP1 SLOAD PUSH2 0x37AF SWAP1 PUSH2 0x58FE JUMP JUMPDEST DUP1 ISZERO PUSH2 0x37FA JUMPI DUP1 PUSH1 0x1F LT PUSH2 0x37D1 JUMPI PUSH2 0x100 DUP1 DUP4 SLOAD DIV MUL DUP4 MSTORE SWAP2 PUSH1 0x20 ADD SWAP2 PUSH2 0x37FA JUMP JUMPDEST DUP3 ADD SWAP2 SWAP1 PUSH0 MSTORE PUSH1 0x20 PUSH0 KECCAK256 SWAP1 JUMPDEST DUP2 SLOAD DUP2 MSTORE SWAP1 PUSH1 0x1 ADD SWAP1 PUSH1 0x20 ADD DUP1 DUP4 GT PUSH2 0x37DD JUMPI DUP3 SWAP1 SUB PUSH1 0x1F AND DUP3 ADD SWAP2 JUMPDEST POP POP POP POP POP DUP2 MSTORE PUSH1 0x20 ADD PUSH1 0x2 DUP3 ADD SLOAD DUP2 MSTORE PUSH1 0x20 ADD PUSH1 0x3 DUP3 ADD SLOAD DUP2 MSTORE PUSH1 0x20 ADD PUSH1 0x4 DUP3 ADD SLOAD DUP2 MSTORE PUSH1 0x20 ADD PUSH1 0x5 DUP3 ADD PUSH0 SWAP1 SLOAD SWAP1 PUSH2 0x100 EXP SWAP1 DIV PUSH1 0xFF AND PUSH1 0xFF AND PUSH1 0xFF AND DUP2 MSTORE PUSH1 0x20 ADD PUSH1 0x6 DUP3 ADD DUP1 SLOAD DUP1 PUSH1 0x20 MUL PUSH1 0x20 ADD PUSH1 0x40 MLOAD SWAP1 DUP2 ADD PUSH1 0x40 MSTORE DUP1 SWAP3 SWAP2 SWAP1 DUP2 DUP2 MSTORE PUSH1 0x20 ADD PUSH0 SWAP1 JUMPDEST DUP3 DUP3 LT ISZERO PUSH2 0x3942 JUMPI PUSH0 DUP5 DUP2 MSTORE PUSH1 0x20 SWAP1 DUP2 SWAP1 KECCAK256 PUSH1 0x40 DUP1 MLOAD PUSH1 0x60 DUP2 ADD DUP3 MSTORE PUSH1 0x3 DUP7 MUL SWAP1 SWAP3 ADD DUP1 SLOAD DUP4 MSTORE PUSH1 0x1 DUP2 ADD SLOAD PUSH1 0x1 PUSH1 0x1 PUSH1 0xA0 SHL SUB AND SWAP4 DUP4 ADD SWAP4 SWAP1 SWAP4 MSTORE PUSH1 0x2 DUP4 ADD DUP1 SLOAD SWAP3 SWAP4 SWAP3 SWAP2 DUP5 ADD SWAP2 PUSH2 0x38B3 SWAP1 PUSH2 0x58FE JUMP JUMPDEST DUP1 PUSH1 0x1F ADD PUSH1 0x20 DUP1 SWAP2 DIV MUL PUSH1 0x20 ADD PUSH1 0x40 MLOAD SWAP1 DUP2 ADD PUSH1 0x40 MSTORE DUP1 SWAP3 SWAP2 SWAP1 DUP2 DUP2 MSTORE PUSH1 0x20 ADD DUP3 DUP1 SLOAD PUSH2 0x38DF SWAP1 PUSH2 0x58FE JUMP JUMPDEST DUP1 ISZERO PUSH2 0x392A JUMPI DUP1 PUSH1 0x1F LT PUSH2 0x3901 JUMPI PUSH2 0x100 DUP1 DUP4 SLOAD DIV MUL DUP4 MSTORE SWAP2 PUSH1 0x20 ADD SWAP2 PUSH2 0x392A JUMP JUMPDEST DUP3 ADD SWAP2 SWAP1 PUSH0 MSTORE PUSH1 0x20 PUSH0 KECCAK256 SWAP1 JUMPDEST DUP2 SLOAD DUP2 MSTORE SWAP1 PUSH1 0x1 ADD SWAP1 PUSH1 0x20 ADD DUP1 DUP4 GT PUSH2 0x390D JUMPI DUP3 SWAP1 SUB PUSH1 0x1F AND DUP3 ADD SWAP2 JUMPDEST POP POP POP POP POP DUP2 MSTORE POP POP DUP2 MSTORE PUSH1 0x20 ADD SWAP1 PUSH1 0x1 ADD SWAP1 PUSH2 0x3861 JUMP JUMPDEST POP POP POP SWAP2 MSTORE POP SWAP1 SWAP4 SWAP3 POP POP POP JUMP JUMPDEST CALLER PUSH0 SWAP1 DUP2 MSTORE PUSH1 0x3 PUSH1 0x20 MSTORE PUSH1 0x40 DUP2 KECCAK256 PUSH1 0x5 ADD SLOAD PUSH1 0xFF AND PUSH2 0x39B1 JUMPI PUSH1 0x40 MLOAD PUSH3 0x461BCD PUSH1 0xE5 SHL DUP2 MSTORE PUSH1 0x20 PUSH1 0x4 DUP3 ADD MSTORE PUSH1 0x18 PUSH1 0x24 DUP3 ADD MSTORE PUSH32 0x4F6E6C79206D656D626572732063616E2070726F706F73650000000000000000 PUSH1 0x44 DUP3 ADD MSTORE PUSH1 0x64 ADD PUSH2 0xC04 JUMP JUMPDEST PUSH2 0x1388 DUP3 GT ISZERO PUSH2 0x39F0 JUMPI PUSH1 0x40 MLOAD PUSH3 0x461BCD PUSH1 0xE5 SHL DUP2 MSTORE PUSH1 0x20 PUSH1 0x4 DUP3 ADD MSTORE PUSH1 0xA PUSH1 0x24 DUP3 ADD MSTORE PUSH10 0x52617465203E20353025 PUSH1 0xB0 SHL PUSH1 0x44 DUP3 ADD MSTORE PUSH1 0x64 ADD PUSH2 0xC04 JUMP JUMPDEST CALLER PUSH0 SWAP1 DUP2 MSTORE PUSH1 0xAD PUSH1 0x20 MSTORE PUSH1 0x40 DUP2 KECCAK256 SLOAD PUSH1 0xFF AND DUP2 DUP2 ISZERO DUP1 ISZERO PUSH2 0x3A15 JUMPI POP PUSH1 0xAE SLOAD PUSH1 0xFF AND ISZERO ISZERO JUMPDEST ISZERO PUSH2 0x3A56 JUMPI PUSH1 0xAE DUP1 SLOAD PUSH1 0xFF AND SWAP1 PUSH0 PUSH2 0x3A2C DUP4 PUSH2 0x5E54 JUMP JUMPDEST DUP3 SLOAD PUSH2 0x100 SWAP3 SWAP1 SWAP3 EXP PUSH1 0xFF DUP2 DUP2 MUL NOT SWAP1 SWAP4 AND SWAP2 DUP4 AND MUL OR SWAP1 SWAP2 SSTORE PUSH1 0xAE SLOAD PUSH0 SWAP6 POP AND SWAP2 POP PUSH2 0x3A7A SWAP1 POP JUMP JUMPDEST PUSH1 0x49 DUP3 PUSH1 0xFF AND PUSH1 0x32 DUP2 LT PUSH2 0x3A6C JUMPI PUSH2 0x3A6C PUSH2 0x5A9E JUMP JUMPDEST PUSH1 0x2 MUL ADD PUSH1 0x1 ADD SLOAD SWAP3 POP DUP2 SWAP1 POP JUMPDEST DUP3 DUP6 SUB PUSH2 0x3AEC JUMPI DUP5 PUSH0 SUB PUSH2 0x3AE4 JUMPI CALLER PUSH1 0x49 DUP3 PUSH1 0xFF AND PUSH1 0x32 DUP2 LT PUSH2 0x3A9F JUMPI PUSH2 0x3A9F PUSH2 0x5A9E JUMP JUMPDEST PUSH1 0x2 MUL ADD DUP1 SLOAD PUSH1 0x1 PUSH1 0x1 PUSH1 0xA0 SHL SUB NOT AND PUSH1 0x1 PUSH1 0x1 PUSH1 0xA0 SHL SUB SWAP3 SWAP1 SWAP3 AND SWAP2 SWAP1 SWAP2 OR SWAP1 SSTORE CALLER PUSH0 SWAP1 DUP2 MSTORE PUSH1 0xAD PUSH1 0x20 MSTORE PUSH1 0x40 SWAP1 KECCAK256 DUP1 SLOAD PUSH1 0xFF NOT AND PUSH1 0xFF DUP4 AND OR SWAP1 SSTORE SWAP5 SWAP4 POP POP POP POP JUMP JUMPDEST POP SWAP4 SWAP3 POP POP POP JUMP JUMPDEST DUP3 DUP6 GT ISZERO PUSH2 0x3C0C JUMPI JUMPDEST PUSH2 0x3B01 PUSH1 0x1 PUSH1 0x32 PUSH2 0x5E6F JUMP JUMPDEST PUSH1 0xFF AND DUP2 PUSH1 0xFF AND LT DUP1 ISZERO PUSH2 0x3B3B JUMPI POP PUSH1 0x49 PUSH2 0x3B1D DUP3 PUSH1 0x1 PUSH2 0x5E88 JUMP JUMPDEST PUSH1 0xFF AND PUSH1 0x32 DUP2 LT PUSH2 0x3B30 JUMPI PUSH2 0x3B30 PUSH2 0x5A9E JUMP JUMPDEST PUSH1 0x2 MUL ADD PUSH1 0x1 ADD SLOAD DUP6 GT JUMPDEST ISZERO PUSH2 0x3C07 JUMPI PUSH1 0x49 PUSH2 0x3B4D DUP3 PUSH1 0x1 PUSH2 0x5E88 JUMP JUMPDEST PUSH1 0xFF AND PUSH1 0x32 DUP2 LT PUSH2 0x3B60 JUMPI PUSH2 0x3B60 PUSH2 0x5A9E JUMP JUMPDEST PUSH1 0x2 MUL ADD PUSH1 0x49 DUP3 PUSH1 0xFF AND PUSH1 0x32 DUP2 LT PUSH2 0x3B7A JUMPI PUSH2 0x3B7A PUSH2 0x5A9E JUMP JUMPDEST DUP3 SLOAD PUSH1 0x2 SWAP2 SWAP1 SWAP2 MUL SWAP2 SWAP1 SWAP2 ADD DUP1 SLOAD PUSH1 0x1 PUSH1 0x1 PUSH1 0xA0 SHL SUB NOT AND PUSH1 0x1 PUSH1 0x1 PUSH1 0xA0 SHL SUB SWAP1 SWAP3 AND SWAP2 SWAP1 SWAP2 OR DUP2 SSTORE PUSH1 0x1 SWAP2 DUP3 ADD SLOAD SWAP2 ADD SSTORE DUP1 PUSH1 0xAD PUSH0 PUSH1 0x49 PUSH1 0xFF DUP5 AND PUSH1 0x32 DUP2 LT PUSH2 0x3BC6 JUMPI PUSH2 0x3BC6 PUSH2 0x5A9E JUMP JUMPDEST PUSH1 0x2 MUL ADD SLOAD PUSH1 0x1 PUSH1 0x1 PUSH1 0xA0 SHL SUB AND DUP2 MSTORE PUSH1 0x20 DUP2 ADD SWAP2 SWAP1 SWAP2 MSTORE PUSH1 0x40 ADD PUSH0 KECCAK256 DUP1 SLOAD PUSH1 0xFF NOT AND PUSH1 0xFF SWAP3 SWAP1 SWAP3 AND SWAP2 SWAP1 SWAP2 OR SWAP1 SSTORE DUP1 PUSH2 0x3BFF DUP2 PUSH2 0x5AB2 JUMP JUMPDEST SWAP2 POP POP PUSH2 0x3AF5 JUMP JUMPDEST PUSH2 0x3D10 JUMP JUMPDEST PUSH0 DUP2 PUSH1 0xFF AND GT DUP1 ISZERO PUSH2 0x3C44 JUMPI POP PUSH1 0x49 PUSH2 0x3C26 PUSH1 0x1 DUP4 PUSH2 0x5E6F JUMP JUMPDEST PUSH1 0xFF AND PUSH1 0x32 DUP2 LT PUSH2 0x3C39 JUMPI PUSH2 0x3C39 PUSH2 0x5A9E JUMP JUMPDEST PUSH1 0x2 MUL ADD PUSH1 0x1 ADD SLOAD DUP6 LT JUMPDEST ISZERO PUSH2 0x3D10 JUMPI PUSH1 0x49 PUSH2 0x3C56 PUSH1 0x1 DUP4 PUSH2 0x5E6F JUMP JUMPDEST PUSH1 0xFF AND PUSH1 0x32 DUP2 LT PUSH2 0x3C69 JUMPI PUSH2 0x3C69 PUSH2 0x5A9E JUMP JUMPDEST PUSH1 0x2 MUL ADD PUSH1 0x49 DUP3 PUSH1 0xFF AND PUSH1 0x32 DUP2 LT PUSH2 0x3C83 JUMPI PUSH2 0x3C83 PUSH2 0x5A9E JUMP JUMPDEST DUP3 SLOAD PUSH1 0x2 SWAP2 SWAP1 SWAP2 MUL SWAP2 SWAP1 SWAP2 ADD DUP1 SLOAD PUSH1 0x1 PUSH1 0x1 PUSH1 0xA0 SHL SUB NOT AND PUSH1 0x1 PUSH1 0x1 PUSH1 0xA0 SHL SUB SWAP1 SWAP3 AND SWAP2 SWAP1 SWAP2 OR DUP2 SSTORE PUSH1 0x1 SWAP2 DUP3 ADD SLOAD SWAP2 ADD SSTORE DUP1 PUSH1 0xAD PUSH0 PUSH1 0x49 PUSH1 0xFF DUP5 AND PUSH1 0x32 DUP2 LT PUSH2 0x3CCF JUMPI PUSH2 0x3CCF PUSH2 0x5A9E JUMP JUMPDEST PUSH1 0x2 MUL ADD SLOAD PUSH1 0x1 PUSH1 0x1 PUSH1 0xA0 SHL SUB AND DUP2 MSTORE PUSH1 0x20 DUP2 ADD SWAP2 SWAP1 SWAP2 MSTORE PUSH1 0x40 ADD PUSH0 KECCAK256 DUP1 SLOAD PUSH1 0xFF NOT AND PUSH1 0xFF SWAP3 SWAP1 SWAP3 AND SWAP2 SWAP1 SWAP2 OR SWAP1 SSTORE DUP1 PUSH2 0x3D08 DUP2 PUSH2 0x5E54 JUMP JUMPDEST SWAP2 POP POP PUSH2 0x3C0C JUMP JUMPDEST PUSH1 0x40 DUP1 MLOAD DUP1 DUP3 ADD SWAP1 SWAP2 MSTORE CALLER DUP2 MSTORE PUSH1 0x20 DUP2 ADD DUP7 SWAP1 MSTORE PUSH1 0x49 PUSH1 0xFF DUP4 AND PUSH1 0x32 DUP2 LT PUSH2 0x3D3A JUMPI PUSH2 0x3D3A PUSH2 0x5A9E JUMP JUMPDEST DUP3 MLOAD PUSH1 0x2 SWAP2 SWAP1 SWAP2 MUL SWAP2 SWAP1 SWAP2 ADD DUP1 SLOAD PUSH1 0x1 PUSH1 0x1 PUSH1 0xA0 SHL SUB NOT AND PUSH1 0x1 PUSH1 0x1 PUSH1 0xA0 SHL SUB SWAP1 SWAP3 AND SWAP2 SWAP1 SWAP2 OR DUP2 SSTORE PUSH1 0x20 SWAP2 DUP3 ADD MLOAD PUSH1 0x1 SWAP1 SWAP2 ADD SSTORE CALLER PUSH0 DUP2 DUP2 MSTORE PUSH1 0xAD DUP4 MSTORE PUSH1 0x40 SWAP1 DUP2 SWAP1 KECCAK256 DUP1 SLOAD PUSH1 0xFF NOT AND PUSH1 0xFF DUP7 DUP2 AND SWAP2 DUP3 OR SWAP1 SWAP3 SSTORE DUP3 MLOAD DUP9 DUP2 MSTORE SWAP2 DUP8 AND SWAP5 DUP3 ADD SWAP5 SWAP1 SWAP5 MSTORE SWAP1 DUP2 ADD DUP9 SWAP1 MSTORE PUSH1 0x60 DUP2 ADD SWAP3 SWAP1 SWAP3 MSTORE SWAP1 PUSH32 0x1CE0BEAEC98D7537137A85C2D351C6C99900830D30FE8A7C353FA27225807E72 SWAP1 PUSH1 0x80 ADD PUSH1 0x40 MLOAD DUP1 SWAP2 SUB SWAP1 LOG2 PUSH1 0x49 PUSH2 0x3DE8 PUSH1 0x2 PUSH1 0x32 PUSH2 0x5EA1 JUMP JUMPDEST PUSH1 0xFF AND PUSH1 0x32 DUP2 LT PUSH2 0x3DFB JUMPI PUSH2 0x3DFB PUSH2 0x5A9E JUMP JUMPDEST PUSH1 0x2 MUL ADD PUSH1 0x1 ADD SLOAD PUSH1 0x46 SLOAD EQ PUSH2 0x3EF1 JUMPI PUSH1 0x49 PUSH2 0x3E19 PUSH1 0x2 PUSH1 0x32 PUSH2 0x5EA1 JUMP JUMPDEST PUSH1 0xFF AND PUSH1 0x32 DUP2 LT PUSH2 0x3E2C JUMPI PUSH2 0x3E2C PUSH2 0x5A9E JUMP JUMPDEST PUSH1 0x1 PUSH1 0x2 SWAP2 DUP3 MUL SWAP3 SWAP1 SWAP3 ADD DUP3 ADD SLOAD PUSH1 0x46 DUP2 DUP2 SSTORE PUSH1 0x40 DUP1 MLOAD DUP1 DUP3 ADD DUP3 MSTORE SWAP3 DUP4 MSTORE TIMESTAMP PUSH1 0x20 DUP5 ADD SWAP1 DUP2 MSTORE PUSH1 0x47 DUP1 SLOAD SWAP7 DUP8 ADD DUP2 SSTORE PUSH0 MSTORE SWAP3 MLOAD SWAP5 SWAP1 SWAP4 MUL PUSH32 0xC43C1E24E1884C4E28A16BBD9506F60B5CA9F18FC90635E729D3CFE13ABCF001 DUP2 ADD SWAP5 SWAP1 SWAP5 SSTORE SWAP1 MLOAD PUSH32 0xC43C1E24E1884C4E28A16BBD9506F60B5CA9F18FC90635E729D3CFE13ABCF002 SWAP1 SWAP4 ADD SWAP3 SWAP1 SWAP3 SSTORE SWAP1 SLOAD SWAP1 MLOAD PUSH32 0xA90E14BE5AA57B910AA6DC16C31FF1B5CDA380AE25A793B0D3F74DF6131A7D74 SWAP2 PUSH2 0x3EE8 SWAP2 SWAP1 DUP2 MSTORE PUSH1 0x20 ADD SWAP1 JUMP JUMPDEST PUSH1 0x40 MLOAD DUP1 SWAP2 SUB SWAP1 LOG1 JUMPDEST SWAP5 SWAP4 POP POP POP POP JUMP JUMPDEST TIMESTAMP PUSH3 0x5C4900 PUSH0 SLOAD PUSH2 0x3F0A SWAP2 SWAP1 PUSH2 0x5E41 JUMP JUMPDEST LT PUSH2 0x3F57 JUMPI PUSH1 0x40 MLOAD PUSH3 0x461BCD PUSH1 0xE5 SHL DUP2 MSTORE PUSH1 0x20 PUSH1 0x4 DUP3 ADD MSTORE PUSH1 0x1B PUSH1 0x24 DUP3 ADD MSTORE PUSH32 0x43616E6E6F74207374617274207265666572656E64756D207965740000000000 PUSH1 0x44 DUP3 ADD MSTORE PUSH1 0x64 ADD PUSH2 0xC04 JUMP JUMPDEST PUSH1 0x42 SLOAD ISZERO PUSH2 0x3FA7 JUMPI PUSH1 0x40 MLOAD PUSH3 0x461BCD PUSH1 0xE5 SHL DUP2 MSTORE PUSH1 0x20 PUSH1 0x4 DUP3 ADD MSTORE PUSH1 0x1F PUSH1 0x24 DUP3 ADD MSTORE PUSH32 0x416C7265616479207261746966696564206120636F6E737469747574696F6E00 PUSH1 0x44 DUP3 ADD MSTORE PUSH1 0x64 ADD PUSH2 0xC04 JUMP JUMPDEST PUSH1 0x3E SLOAD PUSH1 0xA LT PUSH2 0x3FED JUMPI PUSH1 0x40 MLOAD PUSH3 0x461BCD PUSH1 0xE5 SHL DUP2 MSTORE PUSH1 0x20 PUSH1 0x4 DUP3 ADD MSTORE PUSH1 0x11 PUSH1 0x24 DUP3 ADD MSTORE PUSH17 0x4E6F7420656E6F75676820647261667473 PUSH1 0x78 SHL PUSH1 0x44 DUP3 ADD MSTORE PUSH1 0x64 ADD PUSH2 0xC04 JUMP JUMPDEST PUSH1 0x41 SLOAD PUSH3 0xF4240 PUSH4 0xFFFFFFFF SWAP1 SWAP2 AND LT ISZERO PUSH2 0x403E JUMPI PUSH1 0x40 MLOAD PUSH3 0x461BCD PUSH1 0xE5 SHL DUP2 MSTORE PUSH1 0x20 PUSH1 0x4 DUP3 ADD MSTORE PUSH1 0x11 PUSH1 0x24 DUP3 ADD MSTORE PUSH17 0x4E6F7420656E6F75676820766F74657273 PUSH1 0x78 SHL PUSH1 0x44 DUP3 ADD MSTORE PUSH1 0x64 ADD PUSH2 0xC04 JUMP JUMPDEST PUSH2 0x404B TIMESTAMP PUSH3 0x15180 PUSH2 0x5E41 JUMP JUMPDEST PUSH1 0x5 SSTORE PUSH1 0x40 MLOAD PUSH32 0xA0AB6B515144B30D8222A12E45D1C1DF7265286D8A0D9F73C23C8B06F6021871 SWAP1 PUSH0 SWAP1 LOG1 JUMP JUMPDEST PUSH1 0x5 SLOAD TIMESTAMP LT PUSH2 0x40C2 JUMPI PUSH1 0x40 MLOAD PUSH3 0x461BCD PUSH1 0xE5 SHL DUP2 MSTORE PUSH1 0x20 PUSH1 0x4 DUP3 ADD MSTORE PUSH1 0x16 PUSH1 0x24 DUP3 ADD MSTORE PUSH22 0x4E6F7420696E205265666572656E64756D2074696D65 PUSH1 0x50 SHL PUSH1 0x44 DUP3 ADD MSTORE PUSH1 0x64 ADD PUSH2 0xC04 JUMP JUMPDEST PUSH1 0x3E SLOAD DUP2 GT ISZERO PUSH2 0x4109 JUMPI PUSH1 0x40 MLOAD PUSH3 0x461BCD PUSH1 0xE5 SHL DUP2 MSTORE PUSH1 0x20 PUSH1 0x4 DUP3 ADD MSTORE PUSH1 0x12 PUSH1 0x24 DUP3 ADD MSTORE PUSH18 0x125B9D985B1A5908191C98599D081B1A5CDD PUSH1 0x72 SHL PUSH1 0x44 DUP3 ADD MSTORE PUSH1 0x64 ADD PUSH2 0xC04 JUMP JUMPDEST CALLER PUSH0 SWAP1 DUP2 MSTORE PUSH1 0x40 PUSH1 0x20 DUP2 SWAP1 MSTORE SWAP1 KECCAK256 SLOAD PUSH1 0x2 EQ PUSH2 0x4173 JUMPI PUSH1 0x40 MLOAD PUSH3 0x461BCD PUSH1 0xE5 SHL DUP2 MSTORE PUSH1 0x20 PUSH1 0x4 DUP3 ADD MSTORE PUSH1 0x24 DUP1 DUP3 ADD MSTORE PUSH32 0x566F746564206F72204E6F74207265676973746572656420656E6F7567682074 PUSH1 0x44 DUP3 ADD MSTORE PUSH4 0x696D6573 PUSH1 0xE0 SHL PUSH1 0x64 DUP3 ADD MSTORE PUSH1 0x84 ADD PUSH2 0xC04 JUMP JUMPDEST PUSH1 0x3E SLOAD PUSH0 SWAP1 PUSH1 0x1 PUSH1 0x1 PUSH1 0x40 SHL SUB DUP2 GT ISZERO PUSH2 0x418F JUMPI PUSH2 0x418F PUSH2 0x4FCB JUMP JUMPDEST PUSH1 0x40 MLOAD SWAP1 DUP1 DUP3 MSTORE DUP1 PUSH1 0x20 MUL PUSH1 0x20 ADD DUP3 ADD PUSH1 0x40 MSTORE DUP1 ISZERO PUSH2 0x41B8 JUMPI DUP2 PUSH1 0x20 ADD PUSH1 0x20 DUP3 MUL DUP1 CALLDATASIZE DUP4 CALLDATACOPY ADD SWAP1 POP JUMPDEST POP SWAP1 POP PUSH0 JUMPDEST DUP3 DUP2 LT ISZERO PUSH2 0x42E5 JUMPI PUSH0 DUP5 DUP5 DUP4 DUP2 DUP2 LT PUSH2 0x41D8 JUMPI PUSH2 0x41D8 PUSH2 0x5A9E JUMP JUMPDEST SWAP1 POP PUSH1 0x20 MUL ADD CALLDATALOAD SWAP1 POP PUSH1 0x3E DUP1 SLOAD SWAP1 POP DUP2 LT PUSH2 0x4225 JUMPI PUSH1 0x40 MLOAD PUSH3 0x461BCD PUSH1 0xE5 SHL DUP2 MSTORE PUSH1 0x20 PUSH1 0x4 DUP3 ADD MSTORE PUSH1 0xD PUSH1 0x24 DUP3 ADD MSTORE PUSH13 0x125B9D985B1A5908191C98599D PUSH1 0x9A SHL PUSH1 0x44 DUP3 ADD MSTORE PUSH1 0x64 ADD PUSH2 0xC04 JUMP JUMPDEST DUP3 DUP2 DUP2 MLOAD DUP2 LT PUSH2 0x4237 JUMPI PUSH2 0x4237 PUSH2 0x5A9E JUMP JUMPDEST PUSH1 0x20 MUL PUSH1 0x20 ADD ADD MLOAD ISZERO PUSH2 0x4281 JUMPI PUSH1 0x40 MLOAD PUSH3 0x461BCD PUSH1 0xE5 SHL DUP2 MSTORE PUSH1 0x20 PUSH1 0x4 DUP3 ADD MSTORE PUSH1 0x12 PUSH1 0x24 DUP3 ADD MSTORE PUSH18 0x14995C195D1A5D1A5D9948191C98599D1259 PUSH1 0x72 SHL PUSH1 0x44 DUP3 ADD MSTORE PUSH1 0x64 ADD PUSH2 0xC04 JUMP JUMPDEST PUSH1 0x1 DUP4 DUP3 DUP2 MLOAD DUP2 LT PUSH2 0x4295 JUMPI PUSH2 0x4295 PUSH2 0x5A9E JUMP JUMPDEST PUSH1 0x20 MUL PUSH1 0x20 ADD ADD SWAP1 ISZERO ISZERO SWAP1 DUP2 ISZERO ISZERO DUP2 MSTORE POP POP PUSH1 0x3E DUP2 DUP2 SLOAD DUP2 LT PUSH2 0x42BA JUMPI PUSH2 0x42BA PUSH2 0x5A9E JUMP JUMPDEST PUSH0 SWAP2 DUP3 MSTORE PUSH1 0x20 DUP3 KECCAK256 PUSH1 0x7 PUSH1 0x8 SWAP1 SWAP3 MUL ADD ADD DUP1 SLOAD SWAP2 PUSH2 0x42D7 DUP4 PUSH2 0x5BA9 JUMP JUMPDEST SWAP1 SWAP2 SSTORE POP POP POP PUSH1 0x1 ADD PUSH2 0x41BD JUMP JUMPDEST POP CALLER PUSH0 DUP2 DUP2 MSTORE PUSH1 0x40 PUSH1 0x20 DUP2 SWAP1 MSTORE DUP1 DUP3 KECCAK256 TIMESTAMP SWAP1 SSTORE MLOAD PUSH32 0x4B50B8927FD1B030F5404DC4394C2A5D30D7F6C6FA6D732C089FFE8C10F09421 SWAP2 SWAP1 LOG2 POP POP POP JUMP JUMPDEST PUSH1 0x4 SLOAD DUP2 LT PUSH2 0x4343 JUMPI PUSH1 0x40 MLOAD PUSH3 0x461BCD PUSH1 0xE5 SHL DUP2 MSTORE PUSH1 0x4 ADD PUSH2 0xC04 SWAP1 PUSH2 0x5A71 JUMP JUMPDEST PUSH0 PUSH1 0x4 DUP3 DUP2 SLOAD DUP2 LT PUSH2 0x4357 JUMPI PUSH2 0x4357 PUSH2 0x5A9E JUMP JUMPDEST PUSH0 SWAP2 DUP3 MSTORE PUSH1 0x20 SWAP1 SWAP2 KECCAK256 PUSH1 0x7 SWAP1 SWAP2 MUL ADD DUP1 SLOAD SWAP1 SWAP2 POP PUSH1 0x1 PUSH1 0x1 PUSH1 0xA0 SHL SUB AND CALLER EQ PUSH2 0x43C2 JUMPI PUSH1 0x40 MLOAD PUSH3 0x461BCD PUSH1 0xE5 SHL DUP2 MSTORE PUSH1 0x20 PUSH1 0x4 DUP3 ADD MSTORE PUSH1 0x1E PUSH1 0x24 DUP3 ADD MSTORE PUSH32 0x4F6E6C79207468652070726F706F7365722063616E2077697468647261770000 PUSH1 0x44 DUP3 ADD MSTORE PUSH1 0x64 ADD PUSH2 0xC04 JUMP JUMPDEST PUSH1 0x3 DUP2 ADD SLOAD ISZERO PUSH2 0x4414 JUMPI PUSH1 0x40 MLOAD PUSH3 0x461BCD PUSH1 0xE5 SHL DUP2 MSTORE PUSH1 0x20 PUSH1 0x4 DUP3 ADD MSTORE PUSH1 0x19 PUSH1 0x24 DUP3 ADD MSTORE PUSH32 0x50726F706F73616C20616C726561647920657865637574656400000000000000 PUSH1 0x44 DUP3 ADD MSTORE PUSH1 0x64 ADD PUSH2 0xC04 JUMP JUMPDEST PUSH1 0x4 DUP2 ADD SLOAD ISZERO PUSH2 0x4466 JUMPI PUSH1 0x40 MLOAD PUSH3 0x461BCD PUSH1 0xE5 SHL DUP2 MSTORE PUSH1 0x20 PUSH1 0x4 DUP3 ADD MSTORE PUSH1 0x1A PUSH1 0x24 DUP3 ADD MSTORE PUSH32 0x50726F706F73616C20616C72656164792077697468647261776E000000000000 PUSH1 0x44 DUP3 ADD MSTORE PUSH1 0x64 ADD PUSH2 0xC04 JUMP JUMPDEST TIMESTAMP PUSH1 0x4 DUP3 ADD SSTORE CALLER PUSH0 SWAP1 DUP2 MSTORE PUSH1 0x3C PUSH1 0x20 MSTORE PUSH1 0x40 DUP1 DUP3 KECCAK256 DUP3 SWAP1 SSTORE MLOAD DUP4 SWAP2 PUSH32 0x5CA6C0BBA519C857C8713FBA9F5F1B582ABE00C95DCCCEDCCEA41AD683BAD26D SWAP2 LOG2 POP POP JUMP JUMPDEST PUSH1 0x3 PUSH1 0x20 MSTORE PUSH0 SWAP1 DUP2 MSTORE PUSH1 0x40 SWAP1 KECCAK256 DUP1 SLOAD DUP2 SWAP1 PUSH2 0x44C2 SWAP1 PUSH2 0x58FE JUMP JUMPDEST DUP1 PUSH1 0x1F ADD PUSH1 0x20 DUP1 SWAP2 DIV MUL PUSH1 0x20 ADD PUSH1 0x40 MLOAD SWAP1 DUP2 ADD PUSH1 0x40 MSTORE DUP1 SWAP3 SWAP2 SWAP1 DUP2 DUP2 MSTORE PUSH1 0x20 ADD DUP3 DUP1 SLOAD PUSH2 0x44EE SWAP1 PUSH2 0x58FE JUMP JUMPDEST DUP1 ISZERO PUSH2 0x4539 JUMPI DUP1 PUSH1 0x1F LT PUSH2 0x4510 JUMPI PUSH2 0x100 DUP1 DUP4 SLOAD DIV MUL DUP4 MSTORE SWAP2 PUSH1 0x20 ADD SWAP2 PUSH2 0x4539 JUMP JUMPDEST DUP3 ADD SWAP2 SWAP1 PUSH0 MSTORE PUSH1 0x20 PUSH0 KECCAK256 SWAP1 JUMPDEST DUP2 SLOAD DUP2 MSTORE SWAP1 PUSH1 0x1 ADD SWAP1 PUSH1 0x20 ADD DUP1 DUP4 GT PUSH2 0x451C JUMPI DUP3 SWAP1 SUB PUSH1 0x1F AND DUP3 ADD SWAP2 JUMPDEST POP POP POP POP POP SWAP1 DUP1 PUSH1 0x1 ADD DUP1 SLOAD PUSH2 0x454E SWAP1 PUSH2 0x58FE JUMP JUMPDEST DUP1 PUSH1 0x1F ADD PUSH1 0x20 DUP1 SWAP2 DIV MUL PUSH1 0x20 ADD PUSH1 0x40 MLOAD SWAP1 DUP2 ADD PUSH1 0x40 MSTORE DUP1 SWAP3 SWAP2 SWAP1 DUP2 DUP2 MSTORE PUSH1 0x20 ADD DUP3 DUP1 SLOAD PUSH2 0x457A SWAP1 PUSH2 0x58FE JUMP JUMPDEST DUP1 ISZERO PUSH2 0x45C5 JUMPI DUP1 PUSH1 0x1F LT PUSH2 0x459C JUMPI PUSH2 0x100 DUP1 DUP4 SLOAD DIV MUL DUP4 MSTORE SWAP2 PUSH1 0x20 ADD SWAP2 PUSH2 0x45C5 JUMP JUMPDEST DUP3 ADD SWAP2 SWAP1 PUSH0 MSTORE PUSH1 0x20 PUSH0 KECCAK256 SWAP1 JUMPDEST DUP2 SLOAD DUP2 MSTORE SWAP1 PUSH1 0x1 ADD SWAP1 PUSH1 0x20 ADD DUP1 DUP4 GT PUSH2 0x45A8 JUMPI DUP3 SWAP1 SUB PUSH1 0x1F AND DUP3 ADD SWAP2 JUMPDEST POP POP POP POP POP SWAP1 DUP1 PUSH1 0x2 ADD DUP1 SLOAD PUSH2 0x45DA SWAP1 PUSH2 0x58FE JUMP JUMPDEST DUP1 PUSH1 0x1F ADD PUSH1 0x20 DUP1 SWAP2 DIV MUL PUSH1 0x20 ADD PUSH1 0x40 MLOAD SWAP1 DUP2 ADD PUSH1 0x40 MSTORE DUP1 SWAP3 SWAP2 SWAP1 DUP2 DUP2 MSTORE PUSH1 0x20 ADD DUP3 DUP1 SLOAD PUSH2 0x4606 SWAP1 PUSH2 0x58FE JUMP JUMPDEST DUP1 ISZERO PUSH2 0x4651 JUMPI DUP1 PUSH1 0x1F LT PUSH2 0x4628 JUMPI PUSH2 0x100 DUP1 DUP4 SLOAD DIV MUL DUP4 MSTORE SWAP2 PUSH1 0x20 ADD SWAP2 PUSH2 0x4651 JUMP JUMPDEST DUP3 ADD SWAP2 SWAP1 PUSH0 MSTORE PUSH1 0x20 PUSH0 KECCAK256 SWAP1 JUMPDEST DUP2 SLOAD DUP2 MSTORE SWAP1 PUSH1 0x1 ADD SWAP1 PUSH1 0x20 ADD DUP1 DUP4 GT PUSH2 0x4634 JUMPI DUP3 SWAP1 SUB PUSH1 0x1F AND DUP3 ADD SWAP2 JUMPDEST POP POP POP PUSH1 0x3 DUP5 ADD SLOAD PUSH1 0x4 DUP6 ADD SLOAD PUSH1 0x5 DUP7 ADD SLOAD PUSH1 0x6 SWAP1 SWAP7 ADD SLOAD SWAP5 SWAP6 SWAP2 SWAP5 SWAP1 SWAP4 POP PUSH1 0xFF SWAP1 SWAP2 AND SWAP2 POP DUP8 JUMP JUMPDEST PUSH2 0x4682 PUSH2 0x4FAC JUMP JUMPDEST PUSH1 0x3A SLOAD PUSH1 0xFF AND ISZERO PUSH2 0x46CB JUMPI PUSH1 0x40 DUP1 MLOAD PUSH2 0x640 DUP2 ADD SWAP2 DUP3 SWAP1 MSTORE SWAP1 PUSH1 0x8 SWAP1 PUSH1 0x32 SWAP1 DUP3 DUP5 JUMPDEST DUP2 SLOAD PUSH1 0x1 PUSH1 0x1 PUSH1 0xA0 SHL SUB AND DUP2 MSTORE PUSH1 0x1 SWAP1 SWAP2 ADD SWAP1 PUSH1 0x20 ADD DUP1 DUP4 GT PUSH2 0x46A4 JUMPI POP POP POP POP POP SWAP1 POP SWAP1 JUMP JUMPDEST PUSH0 SLOAD TIMESTAMP GT PUSH2 0x4711 JUMPI PUSH1 0x40 MLOAD PUSH3 0x461BCD PUSH1 0xE5 SHL DUP2 MSTORE PUSH1 0x20 PUSH1 0x4 DUP3 ADD MSTORE PUSH1 0x13 PUSH1 0x24 DUP3 ADD MSTORE PUSH19 0x21B0B6361030B33A32B91032B632B1BA34B7B7 PUSH1 0x69 SHL PUSH1 0x44 DUP3 ADD MSTORE PUSH1 0x64 ADD PUSH2 0xC04 JUMP JUMPDEST PUSH1 0x1 JUMPDEST PUSH1 0x32 DUP2 GT PUSH2 0x4954 JUMPI PUSH0 JUMPDEST PUSH1 0x2 SLOAD DUP3 SWAP1 SUB DUP2 LT ISZERO PUSH2 0x4897 JUMPI PUSH1 0x3 PUSH0 PUSH1 0x2 DUP4 PUSH1 0x1 ADD DUP2 SLOAD DUP2 LT PUSH2 0x4744 JUMPI PUSH2 0x4744 PUSH2 0x5A9E JUMP JUMPDEST SWAP1 PUSH0 MSTORE PUSH1 0x20 PUSH0 KECCAK256 ADD PUSH0 SWAP1 SLOAD SWAP1 PUSH2 0x100 EXP SWAP1 DIV PUSH1 0x1 PUSH1 0x1 PUSH1 0xA0 SHL SUB AND PUSH1 0x1 PUSH1 0x1 PUSH1 0xA0 SHL SUB AND PUSH1 0x1 PUSH1 0x1 PUSH1 0xA0 SHL SUB AND DUP2 MSTORE PUSH1 0x20 ADD SWAP1 DUP2 MSTORE PUSH1 0x20 ADD PUSH0 KECCAK256 PUSH1 0x4 ADD SLOAD PUSH1 0x3 PUSH0 PUSH1 0x2 DUP5 DUP2 SLOAD DUP2 LT PUSH2 0x4798 JUMPI PUSH2 0x4798 PUSH2 0x5A9E JUMP JUMPDEST PUSH0 SWAP2 DUP3 MSTORE PUSH1 0x20 DUP1 DUP4 KECCAK256 SWAP1 SWAP2 ADD SLOAD PUSH1 0x1 PUSH1 0x1 PUSH1 0xA0 SHL SUB AND DUP4 MSTORE DUP3 ADD SWAP3 SWAP1 SWAP3 MSTORE PUSH1 0x40 ADD SWAP1 KECCAK256 PUSH1 0x4 ADD SLOAD GT ISZERO PUSH2 0x488F JUMPI PUSH1 0x2 DUP2 PUSH1 0x1 ADD DUP2 SLOAD DUP2 LT PUSH2 0x47DB JUMPI PUSH2 0x47DB PUSH2 0x5A9E JUMP JUMPDEST PUSH0 SWAP2 DUP3 MSTORE PUSH1 0x20 SWAP1 SWAP2 KECCAK256 ADD SLOAD PUSH1 0x2 DUP1 SLOAD PUSH1 0x1 PUSH1 0x1 PUSH1 0xA0 SHL SUB SWAP1 SWAP3 AND SWAP2 DUP4 SWAP1 DUP2 LT PUSH2 0x4806 JUMPI PUSH2 0x4806 PUSH2 0x5A9E JUMP JUMPDEST PUSH0 SWAP2 DUP3 MSTORE PUSH1 0x20 SWAP1 SWAP2 KECCAK256 ADD SLOAD PUSH1 0x2 DUP1 SLOAD PUSH1 0x1 PUSH1 0x1 PUSH1 0xA0 SHL SUB SWAP1 SWAP3 AND SWAP2 DUP5 SWAP1 DUP2 LT PUSH2 0x4831 JUMPI PUSH2 0x4831 PUSH2 0x5A9E JUMP JUMPDEST SWAP1 PUSH0 MSTORE PUSH1 0x20 PUSH0 KECCAK256 ADD PUSH0 PUSH1 0x2 DUP6 PUSH1 0x1 ADD DUP2 SLOAD DUP2 LT PUSH2 0x4850 JUMPI PUSH2 0x4850 PUSH2 0x5A9E JUMP JUMPDEST PUSH0 SWAP2 DUP3 MSTORE PUSH1 0x20 SWAP1 SWAP2 KECCAK256 ADD DUP1 SLOAD PUSH1 0x1 PUSH1 0x1 PUSH1 0xA0 SHL SUB SWAP5 DUP6 AND PUSH1 0x1 PUSH1 0x1 PUSH1 0xA0 SHL SUB NOT SWAP1 SWAP2 AND OR SWAP1 SSTORE DUP2 SLOAD SWAP4 DUP4 AND PUSH2 0x100 SWAP2 SWAP1 SWAP2 EXP SWAP1 DUP2 MUL SWAP3 MUL NOT SWAP1 SWAP3 AND OR SWAP1 SSTORE JUMPDEST PUSH1 0x1 ADD PUSH2 0x471E JUMP JUMPDEST POP PUSH1 0x2 DUP1 SLOAD DUP3 DUP2 SUB SWAP1 DUP2 LT PUSH2 0x48AE JUMPI PUSH2 0x48AE PUSH2 0x5A9E JUMP JUMPDEST PUSH0 SWAP2 DUP3 MSTORE PUSH1 0x20 SWAP1 SWAP2 KECCAK256 ADD SLOAD PUSH1 0x1 PUSH1 0x1 PUSH1 0xA0 SHL SUB AND PUSH1 0x8 PUSH0 NOT DUP4 ADD PUSH1 0x32 DUP2 LT PUSH2 0x48D8 JUMPI PUSH2 0x48D8 PUSH2 0x5A9E JUMP JUMPDEST ADD DUP1 SLOAD PUSH1 0x1 PUSH1 0x1 PUSH1 0xA0 SHL SUB NOT AND PUSH1 0x1 PUSH1 0x1 PUSH1 0xA0 SHL SUB SWAP3 SWAP1 SWAP3 AND SWAP2 SWAP1 SWAP2 OR SWAP1 SSTORE PUSH1 0x2 DUP1 SLOAD PUSH1 0x1 SWAP2 PUSH1 0x3 SWAP2 PUSH0 SWAP2 SWAP1 DUP6 DUP2 SUB SWAP1 DUP2 LT PUSH2 0x4916 JUMPI PUSH2 0x4916 PUSH2 0x5A9E JUMP JUMPDEST PUSH0 SWAP2 DUP3 MSTORE PUSH1 0x20 DUP1 DUP4 KECCAK256 SWAP2 SWAP1 SWAP2 ADD SLOAD PUSH1 0x1 PUSH1 0x1 PUSH1 0xA0 SHL SUB AND DUP4 MSTORE DUP3 ADD SWAP3 SWAP1 SWAP3 MSTORE PUSH1 0x40 ADD SWAP1 KECCAK256 PUSH1 0x5 ADD DUP1 SLOAD PUSH1 0xFF NOT AND SWAP2 ISZERO ISZERO SWAP2 SWAP1 SWAP2 OR SWAP1 SSTORE PUSH1 0x1 ADD PUSH2 0x4714 JUMP JUMPDEST POP PUSH1 0x3A DUP1 SLOAD PUSH1 0x8 DUP1 SLOAD PUSH1 0x1 PUSH1 0x1 PUSH1 0xA0 SHL SUB SWAP1 DUP2 AND PUSH2 0x100 SWAP1 DUP2 MUL PUSH1 0x1 PUSH1 0x1 PUSH1 0xA8 SHL SUB NOT SWAP1 SWAP5 AND SWAP4 SWAP1 SWAP4 OR PUSH1 0x1 OR SWAP4 DUP5 SWAP1 SSTORE PUSH0 PUSH1 0x3B DUP2 SWAP1 SSTORE SWAP3 SWAP1 SWAP4 DIV SWAP1 SWAP3 AND DUP2 MSTORE PUSH1 0x3 PUSH1 0x20 MSTORE PUSH1 0x40 SWAP1 DUP2 SWAP1 KECCAK256 TIMESTAMP PUSH1 0x6 SWAP1 SWAP2 ADD SSTORE MLOAD PUSH2 0x49B1 SWAP2 SWAP1 PUSH2 0x5ECE JUMP JUMPDEST PUSH1 0x40 MLOAD SWAP1 DUP2 SWAP1 SUB DUP2 KECCAK256 PUSH1 0x3A SLOAD PUSH2 0x100 SWAP1 DIV PUSH1 0x1 PUSH1 0x1 PUSH1 0xA0 SHL SUB AND DUP3 MSTORE SWAP1 PUSH32 0x5BEFB7B9346D2ADF55904A87BBD0D35BCEDE9D28085A00C081C6168AC5ED6C44 SWAP1 PUSH1 0x20 ADD PUSH1 0x40 MLOAD DUP1 SWAP2 SUB SWAP1 LOG2 PUSH1 0x40 DUP1 MLOAD PUSH2 0x640 DUP2 ADD SWAP2 DUP3 SWAP1 MSTORE PUSH1 0x8 DUP1 SLOAD PUSH1 0x1 PUSH1 0x1 PUSH1 0xA0 SHL SUB AND DUP3 MSTORE SWAP1 SWAP2 PUSH1 0x32 SWAP1 PUSH1 0x9 PUSH1 0x20 DUP6 ADD DUP1 DUP4 GT PUSH2 0x46A4 JUMPI POP POP POP POP POP SWAP1 POP SWAP1 JUMP JUMPDEST PUSH1 0x47 DUP2 DUP2 SLOAD DUP2 LT PUSH2 0x4A42 JUMPI PUSH0 DUP1 REVERT JUMPDEST PUSH0 SWAP2 DUP3 MSTORE PUSH1 0x20 SWAP1 SWAP2 KECCAK256 PUSH1 0x2 SWAP1 SWAP2 MUL ADD DUP1 SLOAD PUSH1 0x1 SWAP1 SWAP2 ADD SLOAD SWAP1 SWAP2 POP DUP3 JUMP JUMPDEST PUSH2 0x4A67 PUSH2 0x4F67 JUMP JUMPDEST PUSH1 0x3E SLOAD DUP3 LT PUSH2 0x4AB8 JUMPI PUSH1 0x40 MLOAD PUSH3 0x461BCD PUSH1 0xE5 SHL DUP2 MSTORE PUSH1 0x20 PUSH1 0x4 DUP3 ADD MSTORE PUSH1 0x1D PUSH1 0x24 DUP3 ADD MSTORE PUSH32 0x496E76616C696420636F6E737469747574696F6E206472616674204944000000 PUSH1 0x44 DUP3 ADD MSTORE PUSH1 0x64 ADD PUSH2 0xC04 JUMP JUMPDEST PUSH1 0x3E DUP3 DUP2 SLOAD DUP2 LT PUSH2 0x4ACB JUMPI PUSH2 0x4ACB PUSH2 0x5A9E JUMP JUMPDEST SWAP1 PUSH0 MSTORE PUSH1 0x20 PUSH0 KECCAK256 SWAP1 PUSH1 0x8 MUL ADD PUSH1 0x40 MLOAD DUP1 PUSH2 0x100 ADD PUSH1 0x40 MSTORE SWAP1 DUP2 PUSH0 DUP3 ADD DUP1 SLOAD PUSH2 0x4AF2 SWAP1 PUSH2 0x58FE JUMP JUMPDEST DUP1 PUSH1 0x1F ADD PUSH1 0x20 DUP1 SWAP2 DIV MUL PUSH1 0x20 ADD PUSH1 0x40 MLOAD SWAP1 DUP2 ADD PUSH1 0x40 MSTORE DUP1 SWAP3 SWAP2 SWAP1 DUP2 DUP2 MSTORE PUSH1 0x20 ADD DUP3 DUP1 SLOAD PUSH2 0x4B1E SWAP1 PUSH2 0x58FE JUMP JUMPDEST DUP1 ISZERO PUSH2 0x4B69 JUMPI DUP1 PUSH1 0x1F LT PUSH2 0x4B40 JUMPI PUSH2 0x100 DUP1 DUP4 SLOAD DIV MUL DUP4 MSTORE SWAP2 PUSH1 0x20 ADD SWAP2 PUSH2 0x4B69 JUMP JUMPDEST DUP3 ADD SWAP2 SWAP1 PUSH0 MSTORE PUSH1 0x20 PUSH0 KECCAK256 SWAP1 JUMPDEST DUP2 SLOAD DUP2 MSTORE SWAP1 PUSH1 0x1 ADD SWAP1 PUSH1 0x20 ADD DUP1 DUP4 GT PUSH2 0x4B4C JUMPI DUP3 SWAP1 SUB PUSH1 0x1F AND DUP3 ADD SWAP2 JUMPDEST POP POP POP POP POP DUP2 MSTORE PUSH1 0x20 ADD PUSH1 0x1 DUP3 ADD DUP1 SLOAD PUSH2 0x4B82 SWAP1 PUSH2 0x58FE JUMP JUMPDEST DUP1 PUSH1 0x1F ADD PUSH1 0x20 DUP1 SWAP2 DIV MUL PUSH1 0x20 ADD PUSH1 0x40 MLOAD SWAP1 DUP2 ADD PUSH1 0x40 MSTORE DUP1 SWAP3 SWAP2 SWAP1 DUP2 DUP2 MSTORE PUSH1 0x20 ADD DUP3 DUP1 SLOAD PUSH2 0x4BAE SWAP1 PUSH2 0x58FE JUMP JUMPDEST DUP1 ISZERO PUSH2 0x4BF9 JUMPI DUP1 PUSH1 0x1F LT PUSH2 0x4BD0 JUMPI PUSH2 0x100 DUP1 DUP4 SLOAD DIV MUL DUP4 MSTORE SWAP2 PUSH1 0x20 ADD SWAP2 PUSH2 0x4BF9 JUMP JUMPDEST DUP3 ADD SWAP2 SWAP1 PUSH0 MSTORE PUSH1 0x20 PUSH0 KECCAK256 SWAP1 JUMPDEST DUP2 SLOAD DUP2 MSTORE SWAP1 PUSH1 0x1 ADD SWAP1 PUSH1 0x20 ADD DUP1 DUP4 GT PUSH2 0x4BDC JUMPI DUP3 SWAP1 SUB PUSH1 0x1F AND DUP3 ADD SWAP2 JUMPDEST POP POP POP POP POP DUP2 MSTORE PUSH1 0x20 ADD PUSH1 0x2 DUP3 ADD DUP1 SLOAD PUSH2 0x4C12 SWAP1 PUSH2 0x58FE JUMP JUMPDEST DUP1 PUSH1 0x1F ADD PUSH1 0x20 DUP1 SWAP2 DIV MUL PUSH1 0x20 ADD PUSH1 0x40 MLOAD SWAP1 DUP2 ADD PUSH1 0x40 MSTORE DUP1 SWAP3 SWAP2 SWAP1 DUP2 DUP2 MSTORE PUSH1 0x20 ADD DUP3 DUP1 SLOAD PUSH2 0x4C3E SWAP1 PUSH2 0x58FE JUMP JUMPDEST DUP1 ISZERO PUSH2 0x4C89 JUMPI DUP1 PUSH1 0x1F LT PUSH2 0x4C60 JUMPI PUSH2 0x100 DUP1 DUP4 SLOAD DIV MUL DUP4 MSTORE SWAP2 PUSH1 0x20 ADD SWAP2 PUSH2 0x4C89 JUMP JUMPDEST DUP3 ADD SWAP2 SWAP1 PUSH0 MSTORE PUSH1 0x20 PUSH0 KECCAK256 SWAP1 JUMPDEST DUP2 SLOAD DUP2 MSTORE SWAP1 PUSH1 0x1 ADD SWAP1 PUSH1 0x20 ADD DUP1 DUP4 GT PUSH2 0x4C6C JUMPI DUP3 SWAP1 SUB PUSH1 0x1F AND DUP3 ADD SWAP2 JUMPDEST POP POP POP POP POP DUP2 MSTORE PUSH1 0x20 ADD PUSH1 0x3 DUP3 ADD DUP1 SLOAD PUSH2 0x4CA2 SWAP1 PUSH2 0x58FE JUMP JUMPDEST DUP1 PUSH1 0x1F ADD PUSH1 0x20 DUP1 SWAP2 DIV MUL PUSH1 0x20 ADD PUSH1 0x40 MLOAD SWAP1 DUP2 ADD PUSH1 0x40 MSTORE DUP1 SWAP3 SWAP2 SWAP1 DUP2 DUP2 MSTORE PUSH1 0x20 ADD DUP3 DUP1 SLOAD PUSH2 0x4CCE SWAP1 PUSH2 0x58FE JUMP JUMPDEST DUP1 ISZERO PUSH2 0x4D19 JUMPI DUP1 PUSH1 0x1F LT PUSH2 0x4CF0 JUMPI PUSH2 0x100 DUP1 DUP4 SLOAD DIV MUL DUP4 MSTORE SWAP2 PUSH1 0x20 ADD SWAP2 PUSH2 0x4D19 JUMP JUMPDEST DUP3 ADD SWAP2 SWAP1 PUSH0 MSTORE PUSH1 0x20 PUSH0 KECCAK256 SWAP1 JUMPDEST DUP2 SLOAD DUP2 MSTORE SWAP1 PUSH1 0x1 ADD SWAP1 PUSH1 0x20 ADD DUP1 DUP4 GT PUSH2 0x4CFC JUMPI DUP3 SWAP1 SUB PUSH1 0x1F AND DUP3 ADD SWAP2 JUMPDEST POP POP POP POP POP DUP2 MSTORE PUSH1 0x20 ADD PUSH1 0x4 DUP3 ADD SLOAD DUP2 MSTORE PUSH1 0x20 ADD PUSH1 0x5 DUP3 ADD DUP1 SLOAD PUSH2 0x4D3C SWAP1 PUSH2 0x58FE JUMP JUMPDEST DUP1 PUSH1 0x1F ADD PUSH1 0x20 DUP1 SWAP2 DIV MUL PUSH1 0x20 ADD PUSH1 0x40 MLOAD SWAP1 DUP2 ADD PUSH1 0x40 MSTORE DUP1 SWAP3 SWAP2 SWAP1 DUP2 DUP2 MSTORE PUSH1 0x20 ADD DUP3 DUP1 SLOAD PUSH2 0x4D68 SWAP1 PUSH2 0x58FE JUMP JUMPDEST DUP1 ISZERO PUSH2 0x4DB3 JUMPI DUP1 PUSH1 0x1F LT PUSH2 0x4D8A JUMPI PUSH2 0x100 DUP1 DUP4 SLOAD DIV MUL DUP4 MSTORE SWAP2 PUSH1 0x20 ADD SWAP2 PUSH2 0x4DB3 JUMP JUMPDEST DUP3 ADD SWAP2 SWAP1 PUSH0 MSTORE PUSH1 0x20 PUSH0 KECCAK256 SWAP1 JUMPDEST DUP2 SLOAD DUP2 MSTORE SWAP1 PUSH1 0x1 ADD SWAP1 PUSH1 0x20 ADD DUP1 DUP4 GT PUSH2 0x4D96 JUMPI DUP3 SWAP1 SUB PUSH1 0x1F AND DUP3 ADD SWAP2 JUMPDEST POP POP POP POP POP DUP2 MSTORE PUSH1 0x20 ADD PUSH1 0x6 DUP3 ADD SLOAD DUP2 MSTORE PUSH1 0x20 ADD PUSH1 0x7 DUP3 ADD SLOAD DUP2 MSTORE POP POP SWAP1 POP SWAP2 SWAP1 POP JUMP JUMPDEST PUSH0 PUSH1 0x4 DUP3 DUP2 SLOAD DUP2 LT PUSH2 0x4DEB JUMPI PUSH2 0x4DEB PUSH2 0x5A9E JUMP JUMPDEST SWAP1 PUSH0 MSTORE PUSH1 0x20 PUSH0 KECCAK256 SWAP1 PUSH1 0x7 MUL ADD SWAP1 POP PUSH0 JUMPDEST PUSH1 0x6 DUP3 ADD SLOAD DUP2 LT ISZERO PUSH2 0x4F44 JUMPI PUSH0 DUP3 PUSH1 0x6 ADD DUP3 DUP2 SLOAD DUP2 LT PUSH2 0x4E1D JUMPI PUSH2 0x4E1D PUSH2 0x5A9E JUMP JUMPDEST SWAP1 PUSH0 MSTORE PUSH1 0x20 PUSH0 KECCAK256 SWAP1 PUSH1 0x3 MUL ADD PUSH1 0x40 MLOAD DUP1 PUSH1 0x60 ADD PUSH1 0x40 MSTORE SWAP1 DUP2 PUSH0 DUP3 ADD SLOAD DUP2 MSTORE PUSH1 0x20 ADD PUSH1 0x1 DUP3 ADD PUSH0 SWAP1 SLOAD SWAP1 PUSH2 0x100 EXP SWAP1 DIV PUSH1 0x1 PUSH1 0x1 PUSH1 0xA0 SHL SUB AND PUSH1 0x1 PUSH1 0x1 PUSH1 0xA0 SHL SUB AND PUSH1 0x1 PUSH1 0x1 PUSH1 0xA0 SHL SUB AND DUP2 MSTORE PUSH1 0x20 ADD PUSH1 0x2 DUP3 ADD DUP1 SLOAD PUSH2 0x4E7B SWAP1 PUSH2 0x58FE JUMP JUMPDEST DUP1 PUSH1 0x1F ADD PUSH1 0x20 DUP1 SWAP2 DIV MUL PUSH1 0x20 ADD PUSH1 0x40 MLOAD SWAP1 DUP2 ADD PUSH1 0x40 MSTORE DUP1 SWAP3 SWAP2 SWAP1 DUP2 DUP2 MSTORE PUSH1 0x20 ADD DUP3 DUP1 SLOAD PUSH2 0x4EA7 SWAP1 PUSH2 0x58FE JUMP JUMPDEST DUP1 ISZERO PUSH2 0x4EF2 JUMPI DUP1 PUSH1 0x1F LT PUSH2 0x4EC9 JUMPI PUSH2 0x100 DUP1 DUP4 SLOAD DIV MUL DUP4 MSTORE SWAP2 PUSH1 0x20 ADD SWAP2 PUSH2 0x4EF2 JUMP JUMPDEST DUP3 ADD SWAP2 SWAP1 PUSH0 MSTORE PUSH1 0x20 PUSH0 KECCAK256 SWAP1 JUMPDEST DUP2 SLOAD DUP2 MSTORE SWAP1 PUSH1 0x1 ADD SWAP1 PUSH1 0x20 ADD DUP1 DUP4 GT PUSH2 0x4ED5 JUMPI DUP3 SWAP1 SUB PUSH1 0x1F AND DUP3 ADD SWAP2 JUMPDEST POP POP POP POP POP DUP2 MSTORE POP POP SWAP1 POP DUP1 PUSH1 0x20 ADD MLOAD PUSH1 0x1 PUSH1 0x1 PUSH1 0xA0 SHL SUB AND PUSH2 0x8FC DUP3 PUSH0 ADD MLOAD SWAP1 DUP2 ISZERO MUL SWAP1 PUSH1 0x40 MLOAD PUSH0 PUSH1 0x40 MLOAD DUP1 DUP4 SUB DUP2 DUP6 DUP9 DUP9 CALL SWAP4 POP POP POP POP ISZERO DUP1 ISZERO PUSH2 0x4F3A JUMPI RETURNDATASIZE PUSH0 DUP1 RETURNDATACOPY RETURNDATASIZE PUSH0 REVERT JUMPDEST POP POP PUSH1 0x1 ADD PUSH2 0x4DFB JUMP JUMPDEST POP POP POP JUMP JUMPDEST PUSH1 0x40 MLOAD DUP1 PUSH1 0x40 ADD PUSH1 0x40 MSTORE DUP1 PUSH1 0x2 SWAP1 PUSH1 0x20 DUP3 MUL DUP1 CALLDATASIZE DUP4 CALLDATACOPY POP SWAP2 SWAP3 SWAP2 POP POP JUMP JUMPDEST PUSH1 0x40 MLOAD DUP1 PUSH2 0x100 ADD PUSH1 0x40 MSTORE DUP1 PUSH1 0x60 DUP2 MSTORE PUSH1 0x20 ADD PUSH1 0x60 DUP2 MSTORE PUSH1 0x20 ADD PUSH1 0x60 DUP2 MSTORE PUSH1 0x20 ADD PUSH1 0x60 DUP2 MSTORE PUSH1 0x20 ADD PUSH0 DUP1 NOT AND DUP2 MSTORE PUSH1 0x20 ADD PUSH1 0x60 DUP2 MSTORE PUSH1 0x20 ADD PUSH0 DUP2 MSTORE PUSH1 0x20 ADD PUSH0 DUP2 MSTORE POP SWAP1 JUMP JUMPDEST PUSH1 0x40 MLOAD DUP1 PUSH2 0x640 ADD PUSH1 0x40 MSTORE DUP1 PUSH1 0x32 SWAP1 PUSH1 0x20 DUP3 MUL DUP1 CALLDATASIZE DUP4 CALLDATACOPY POP SWAP2 SWAP3 SWAP2 POP POP JUMP JUMPDEST PUSH4 0x4E487B71 PUSH1 0xE0 SHL PUSH0 MSTORE PUSH1 0x41 PUSH1 0x4 MSTORE PUSH1 0x24 PUSH0 REVERT JUMPDEST PUSH1 0x40 MLOAD PUSH2 0x100 DUP2 ADD PUSH1 0x1 PUSH1 0x1 PUSH1 0x40 SHL SUB DUP2 GT DUP3 DUP3 LT OR ISZERO PUSH2 0x5002 JUMPI PUSH2 0x5002 PUSH2 0x4FCB JUMP JUMPDEST PUSH1 0x40 MSTORE SWAP1 JUMP JUMPDEST PUSH0 DUP3 PUSH1 0x1F DUP4 ADD SLT PUSH2 0x5017 JUMPI PUSH0 DUP1 REVERT JUMPDEST DUP2 CALLDATALOAD PUSH1 0x1 PUSH1 0x1 PUSH1 0x40 SHL SUB DUP2 GT ISZERO PUSH2 0x5030 JUMPI PUSH2 0x5030 PUSH2 0x4FCB JUMP JUMPDEST PUSH1 0x40 MLOAD PUSH1 0x1F DUP3 ADD PUSH1 0x1F NOT SWAP1 DUP2 AND PUSH1 0x3F ADD AND DUP2 ADD PUSH1 0x1 PUSH1 0x1 PUSH1 0x40 SHL SUB DUP2 GT DUP3 DUP3 LT OR ISZERO PUSH2 0x505E JUMPI PUSH2 0x505E PUSH2 0x4FCB JUMP JUMPDEST PUSH1 0x40 MSTORE DUP2 DUP2 MSTORE DUP4 DUP3 ADD PUSH1 0x20 ADD DUP6 LT ISZERO PUSH2 0x5075 JUMPI PUSH0 DUP1 REVERT JUMPDEST DUP2 PUSH1 0x20 DUP6 ADD PUSH1 0x20 DUP4 ADD CALLDATACOPY PUSH0 SWAP2 DUP2 ADD PUSH1 0x20 ADD SWAP2 SWAP1 SWAP2 MSTORE SWAP4 SWAP3 POP POP POP JUMP JUMPDEST PUSH0 PUSH1 0x20 DUP3 DUP5 SUB SLT ISZERO PUSH2 0x50A1 JUMPI PUSH0 DUP1 REVERT JUMPDEST DUP2 CALLDATALOAD PUSH1 0x1 PUSH1 0x1 PUSH1 0x40 SHL SUB DUP2 GT ISZERO PUSH2 0x50B6 JUMPI PUSH0 DUP1 REVERT JUMPDEST DUP3 ADD PUSH2 0x100 DUP2 DUP6 SUB SLT ISZERO PUSH2 0x50C8 JUMPI PUSH0 DUP1 REVERT JUMPDEST PUSH2 0x50D0 PUSH2 0x4FDF JUMP JUMPDEST DUP2 CALLDATALOAD PUSH1 0x1 PUSH1 0x1 PUSH1 0x40 SHL SUB DUP2 GT ISZERO PUSH2 0x50E5 JUMPI PUSH0 DUP1 REVERT JUMPDEST PUSH2 0x50F1 DUP7 DUP3 DUP6 ADD PUSH2 0x5008 JUMP JUMPDEST DUP3 MSTORE POP PUSH1 0x20 DUP3 ADD CALLDATALOAD PUSH1 0x1 PUSH1 0x1 PUSH1 0x40 SHL SUB DUP2 GT ISZERO PUSH2 0x510C JUMPI PUSH0 DUP1 REVERT JUMPDEST PUSH2 0x5118 DUP7 DUP3 DUP6 ADD PUSH2 0x5008 JUMP JUMPDEST PUSH1 0x20 DUP4 ADD MSTORE POP PUSH1 0x40 DUP3 ADD CALLDATALOAD PUSH1 0x1 PUSH1 0x1 PUSH1 0x40 SHL SUB DUP2 GT ISZERO PUSH2 0x5136 JUMPI PUSH0 DUP1 REVERT JUMPDEST PUSH2 0x5142 DUP7 DUP3 DUP6 ADD PUSH2 0x5008 JUMP JUMPDEST PUSH1 0x40 DUP4 ADD MSTORE POP PUSH1 0x60 DUP3 ADD CALLDATALOAD PUSH1 0x1 PUSH1 0x1 PUSH1 0x40 SHL SUB DUP2 GT ISZERO PUSH2 0x5160 JUMPI PUSH0 DUP1 REVERT JUMPDEST PUSH2 0x516C DUP7 DUP3 DUP6 ADD PUSH2 0x5008 JUMP JUMPDEST PUSH1 0x60 DUP4 ADD MSTORE POP PUSH1 0x80 DUP3 DUP2 ADD CALLDATALOAD SWAP1 DUP3 ADD MSTORE PUSH1 0xA0 DUP3 ADD CALLDATALOAD PUSH1 0x1 PUSH1 0x1 PUSH1 0x40 SHL SUB DUP2 GT ISZERO PUSH2 0x5194 JUMPI PUSH0 DUP1 REVERT JUMPDEST PUSH2 0x51A0 DUP7 DUP3 DUP6 ADD PUSH2 0x5008 JUMP JUMPDEST PUSH1 0xA0 DUP4 ADD MSTORE POP PUSH1 0xC0 DUP3 DUP2 ADD CALLDATALOAD SWAP1 DUP3 ADD MSTORE PUSH1 0xE0 SWAP2 DUP3 ADD CALLDATALOAD SWAP2 DUP2 ADD SWAP2 SWAP1 SWAP2 MSTORE SWAP4 SWAP3 POP POP POP JUMP JUMPDEST PUSH0 PUSH1 0x20 DUP3 DUP5 SUB SLT ISZERO PUSH2 0x51D4 JUMPI PUSH0 DUP1 REVERT JUMPDEST POP CALLDATALOAD SWAP2 SWAP1 POP JUMP JUMPDEST PUSH0 DUP2 MLOAD DUP1 DUP5 MSTORE DUP1 PUSH1 0x20 DUP5 ADD PUSH1 0x20 DUP7 ADD MCOPY PUSH0 PUSH1 0x20 DUP3 DUP7 ADD ADD MSTORE PUSH1 0x20 PUSH1 0x1F NOT PUSH1 0x1F DUP4 ADD AND DUP6 ADD ADD SWAP2 POP POP SWAP3 SWAP2 POP POP JUMP JUMPDEST PUSH1 0x1 PUSH1 0x1 PUSH1 0xA0 SHL SUB DUP8 AND DUP2 MSTORE PUSH1 0xC0 PUSH1 0x20 DUP3 ADD DUP2 SWAP1 MSTORE PUSH0 SWAP1 PUSH2 0x522C SWAP1 DUP4 ADD DUP9 PUSH2 0x51DB JUMP JUMPDEST SWAP1 POP DUP6 PUSH1 0x40 DUP4 ADD MSTORE DUP5 PUSH1 0x60 DUP4 ADD MSTORE DUP4 PUSH1 0x80 DUP4 ADD MSTORE PUSH1 0xFF DUP4 AND PUSH1 0xA0 DUP4 ADD MSTORE SWAP8 SWAP7 POP POP POP POP POP POP POP JUMP JUMPDEST PUSH0 DUP1 PUSH0 PUSH1 0x60 DUP5 DUP7 SUB SLT ISZERO PUSH2 0x5266 JUMPI PUSH0 DUP1 REVERT JUMPDEST DUP4 CALLDATALOAD PUSH1 0x1 PUSH1 0x1 PUSH1 0x40 SHL SUB DUP2 GT ISZERO PUSH2 0x527B JUMPI PUSH0 DUP1 REVERT JUMPDEST PUSH2 0x5287 DUP7 DUP3 DUP8 ADD PUSH2 0x5008 JUMP JUMPDEST SWAP4 POP POP PUSH1 0x20 DUP5 ADD CALLDATALOAD PUSH1 0x1 PUSH1 0x1 PUSH1 0x40 SHL SUB DUP2 GT ISZERO PUSH2 0x52A2 JUMPI PUSH0 DUP1 REVERT JUMPDEST PUSH2 0x52AE DUP7 DUP3 DUP8 ADD PUSH2 0x5008 JUMP JUMPDEST SWAP3 POP POP PUSH1 0x40 DUP5 ADD CALLDATALOAD PUSH1 0x1 PUSH1 0x1 PUSH1 0x40 SHL SUB DUP2 GT ISZERO PUSH2 0x52C9 JUMPI PUSH0 DUP1 REVERT JUMPDEST PUSH2 0x52D5 DUP7 DUP3 DUP8 ADD PUSH2 0x5008 JUMP JUMPDEST SWAP2 POP POP SWAP3 POP SWAP3 POP SWAP3 JUMP JUMPDEST PUSH1 0x40 DUP2 ADD DUP2 DUP4 PUSH0 JUMPDEST PUSH1 0x2 DUP2 LT ISZERO PUSH2 0x530F JUMPI DUP2 MLOAD PUSH1 0x1 PUSH1 0x1 PUSH1 0xA0 SHL SUB AND DUP4 MSTORE PUSH1 0x20 SWAP3 DUP4 ADD SWAP3 SWAP1 SWAP2 ADD SWAP1 PUSH1 0x1 ADD PUSH2 0x52E7 JUMP JUMPDEST POP POP POP SWAP3 SWAP2 POP POP JUMP JUMPDEST PUSH1 0x1 PUSH1 0x1 PUSH1 0xA0 SHL SUB DUP2 AND DUP2 EQ PUSH2 0x532C JUMPI PUSH0 DUP1 REVERT JUMPDEST POP JUMP JUMPDEST PUSH0 DUP1 PUSH1 0x40 DUP4 DUP6 SUB SLT ISZERO PUSH2 0x5340 JUMPI PUSH0 DUP1 REVERT JUMPDEST DUP3 CALLDATALOAD PUSH2 0x534B DUP2 PUSH2 0x5318 JUMP JUMPDEST SWAP5 PUSH1 0x20 SWAP4 SWAP1 SWAP4 ADD CALLDATALOAD SWAP4 POP POP POP JUMP JUMPDEST DUP1 PUSH2 0x140 DUP2 ADD DUP4 LT ISZERO PUSH2 0x536A JUMPI PUSH0 DUP1 REVERT JUMPDEST SWAP3 SWAP2 POP POP JUMP JUMPDEST PUSH0 DUP1 PUSH2 0x280 DUP4 DUP6 SUB SLT ISZERO PUSH2 0x5382 JUMPI PUSH0 DUP1 REVERT JUMPDEST PUSH2 0x538C DUP5 DUP5 PUSH2 0x5359 JUMP JUMPDEST SWAP2 POP PUSH2 0x539C DUP5 PUSH2 0x140 DUP6 ADD PUSH2 0x5359 JUMP JUMPDEST SWAP1 POP SWAP3 POP SWAP3 SWAP1 POP JUMP JUMPDEST PUSH0 DUP1 PUSH1 0x40 DUP4 DUP6 SUB SLT ISZERO PUSH2 0x53B6 JUMPI PUSH0 DUP1 REVERT JUMPDEST DUP3 CALLDATALOAD PUSH2 0x53C1 DUP2 PUSH2 0x5318 JUMP JUMPDEST SWAP2 POP PUSH1 0x20 DUP4 ADD CALLDATALOAD PUSH0 DUP2 SWAP1 SIGNEXTEND DUP2 EQ PUSH2 0x53D6 JUMPI PUSH0 DUP1 REVERT JUMPDEST DUP1 SWAP2 POP POP SWAP3 POP SWAP3 SWAP1 POP JUMP JUMPDEST PUSH0 DUP1 DUP4 PUSH1 0x1F DUP5 ADD SLT PUSH2 0x53F1 JUMPI PUSH0 DUP1 REVERT JUMPDEST POP DUP2 CALLDATALOAD PUSH1 0x1 PUSH1 0x1 PUSH1 0x40 SHL SUB DUP2 GT ISZERO PUSH2 0x5407 JUMPI PUSH0 DUP1 REVERT JUMPDEST PUSH1 0x20 DUP4 ADD SWAP2 POP DUP4 PUSH1 0x20 DUP3 PUSH1 0x5 SHL DUP6 ADD ADD GT ISZERO PUSH2 0x5421 JUMPI PUSH0 DUP1 REVERT JUMPDEST SWAP3 POP SWAP3 SWAP1 POP JUMP JUMPDEST PUSH0 DUP1 PUSH0 DUP1 PUSH1 0x40 DUP6 DUP8 SUB SLT ISZERO PUSH2 0x543B JUMPI PUSH0 DUP1 REVERT JUMPDEST DUP5 CALLDATALOAD PUSH1 0x1 PUSH1 0x1 PUSH1 0x40 SHL SUB DUP2 GT ISZERO PUSH2 0x5450 JUMPI PUSH0 DUP1 REVERT JUMPDEST DUP6 ADD PUSH1 0x1F DUP2 ADD DUP8 SGT PUSH2 0x5460 JUMPI PUSH0 DUP1 REVERT JUMPDEST DUP1 CALLDATALOAD PUSH1 0x1 PUSH1 0x1 PUSH1 0x40 SHL SUB DUP2 GT ISZERO PUSH2 0x5475 JUMPI PUSH0 DUP1 REVERT JUMPDEST DUP8 PUSH1 0x20 DUP3 DUP5 ADD ADD GT ISZERO PUSH2 0x5486 JUMPI PUSH0 DUP1 REVERT JUMPDEST PUSH1 0x20 SWAP2 DUP3 ADD SWAP6 POP SWAP4 POP DUP6 ADD CALLDATALOAD PUSH1 0x1 PUSH1 0x1 PUSH1 0x40 SHL SUB DUP2 GT ISZERO PUSH2 0x54A5 JUMPI PUSH0 DUP1 REVERT JUMPDEST PUSH2 0x54B1 DUP8 DUP3 DUP9 ADD PUSH2 0x53E1 JUMP JUMPDEST SWAP6 SWAP9 SWAP5 SWAP8 POP SWAP6 POP POP POP POP JUMP JUMPDEST PUSH0 DUP2 MLOAD PUSH2 0x100 DUP5 MSTORE PUSH2 0x54D3 PUSH2 0x100 DUP6 ADD DUP3 PUSH2 0x51DB JUMP JUMPDEST SWAP1 POP PUSH1 0x20 DUP4 ADD MLOAD DUP5 DUP3 SUB PUSH1 0x20 DUP7 ADD MSTORE PUSH2 0x54EC DUP3 DUP3 PUSH2 0x51DB JUMP JUMPDEST SWAP2 POP POP PUSH1 0x40 DUP4 ADD MLOAD DUP5 DUP3 SUB PUSH1 0x40 DUP7 ADD MSTORE PUSH2 0x5506 DUP3 DUP3 PUSH2 0x51DB JUMP JUMPDEST SWAP2 POP POP PUSH1 0x60 DUP4 ADD MLOAD DUP5 DUP3 SUB PUSH1 0x60 DUP7 ADD MSTORE PUSH2 0x5520 DUP3 DUP3 PUSH2 0x51DB JUMP JUMPDEST SWAP2 POP POP PUSH1 0x80 DUP4 ADD MLOAD PUSH1 0x80 DUP6 ADD MSTORE PUSH1 0xA0 DUP4 ADD MLOAD DUP5 DUP3 SUB PUSH1 0xA0 DUP7 ADD MSTORE PUSH2 0x5544 DUP3 DUP3 PUSH2 0x51DB JUMP JUMPDEST SWAP2 POP POP PUSH1 0xC0 DUP4 ADD MLOAD PUSH1 0xC0 DUP6 ADD MSTORE PUSH1 0xE0 DUP4 ADD MLOAD PUSH1 0xE0 DUP6 ADD MSTORE DUP1 SWAP2 POP POP SWAP3 SWAP2 POP POP JUMP JUMPDEST DUP3 DUP2 MSTORE PUSH1 0x40 PUSH1 0x20 DUP3 ADD MSTORE PUSH0 PUSH2 0x3EF1 PUSH1 0x40 DUP4 ADD DUP5 PUSH2 0x54BD JUMP JUMPDEST PUSH1 0x20 DUP2 MSTORE PUSH0 DUP3 MLOAD PUSH1 0xE0 PUSH1 0x20 DUP5 ADD MSTORE PUSH2 0x5599 PUSH2 0x100 DUP5 ADD DUP3 PUSH2 0x51DB JUMP JUMPDEST SWAP1 POP PUSH1 0x20 DUP5 ADD MLOAD PUSH1 0x1F NOT DUP5 DUP4 SUB ADD PUSH1 0x40 DUP6 ADD MSTORE PUSH2 0x55B6 DUP3 DUP3 PUSH2 0x51DB JUMP JUMPDEST SWAP2 POP POP PUSH1 0x40 DUP5 ADD MLOAD PUSH1 0x1F NOT DUP5 DUP4 SUB ADD PUSH1 0x60 DUP6 ADD MSTORE PUSH2 0x55D4 DUP3 DUP3 PUSH2 0x51DB JUMP JUMPDEST SWAP2 POP POP PUSH1 0x60 DUP5 ADD MLOAD PUSH1 0x80 DUP5 ADD MSTORE PUSH1 0x80 DUP5 ADD MLOAD PUSH1 0xA0 DUP5 ADD MSTORE PUSH1 0xA0 DUP5 ADD MLOAD ISZERO ISZERO PUSH1 0xC0 DUP5 ADD MSTORE PUSH1 0xC0 DUP5 ADD MLOAD PUSH1 0xE0 DUP5 ADD MSTORE DUP1 SWAP2 POP POP SWAP3 SWAP2 POP POP JUMP JUMPDEST PUSH0 PUSH1 0x20 DUP3 DUP5 SUB SLT ISZERO PUSH2 0x561B JUMPI PUSH0 DUP1 REVERT JUMPDEST DUP2 CALLDATALOAD PUSH2 0x5626 DUP2 PUSH2 0x5318 JUMP JUMPDEST SWAP4 SWAP3 POP POP POP JUMP JUMPDEST PUSH4 0x4E487B71 PUSH1 0xE0 SHL PUSH0 MSTORE PUSH1 0x21 PUSH1 0x4 MSTORE PUSH1 0x24 PUSH0 REVERT JUMPDEST PUSH1 0x20 DUP2 ADD PUSH1 0x5 DUP4 LT PUSH2 0x5661 JUMPI PUSH4 0x4E487B71 PUSH1 0xE0 SHL PUSH0 MSTORE PUSH1 0x21 PUSH1 0x4 MSTORE PUSH1 0x24 PUSH0 REVERT JUMPDEST SWAP2 SWAP1 MSTORE SWAP1 JUMP JUMPDEST PUSH0 DUP1 PUSH1 0x20 DUP4 DUP6 SUB SLT ISZERO PUSH2 0x5678 JUMPI PUSH0 DUP1 REVERT JUMPDEST DUP3 CALLDATALOAD PUSH1 0x1 PUSH1 0x1 PUSH1 0x40 SHL SUB DUP2 GT ISZERO PUSH2 0x568D JUMPI PUSH0 DUP1 REVERT JUMPDEST PUSH2 0x5699 DUP6 DUP3 DUP7 ADD PUSH2 0x53E1 JUMP JUMPDEST SWAP1 SWAP7 SWAP1 SWAP6 POP SWAP4 POP POP POP POP JUMP JUMPDEST PUSH2 0x100 DUP2 MSTORE PUSH0 PUSH2 0x56B9 PUSH2 0x100 DUP4 ADD DUP12 PUSH2 0x51DB JUMP JUMPDEST DUP3 DUP2 SUB PUSH1 0x20 DUP5 ADD MSTORE PUSH2 0x56CB DUP2 DUP12 PUSH2 0x51DB JUMP JUMPDEST SWAP1 POP DUP3 DUP2 SUB PUSH1 0x40 DUP5 ADD MSTORE PUSH2 0x56DF DUP2 DUP11 PUSH2 0x51DB JUMP JUMPDEST SWAP1 POP DUP3 DUP2 SUB PUSH1 0x60 DUP5 ADD MSTORE PUSH2 0x56F3 DUP2 DUP10 PUSH2 0x51DB JUMP JUMPDEST SWAP1 POP DUP7 PUSH1 0x80 DUP5 ADD MSTORE DUP3 DUP2 SUB PUSH1 0xA0 DUP5 ADD MSTORE PUSH2 0x570D DUP2 DUP8 PUSH2 0x51DB JUMP JUMPDEST PUSH1 0xC0 DUP5 ADD SWAP6 SWAP1 SWAP6 MSTORE POP POP PUSH1 0xE0 ADD MSTORE SWAP7 SWAP6 POP POP POP POP POP POP JUMP JUMPDEST PUSH1 0x20 DUP1 DUP3 MSTORE DUP3 MLOAD PUSH1 0x1 PUSH1 0x1 PUSH1 0xA0 SHL SUB AND DUP3 DUP3 ADD MSTORE DUP3 ADD MLOAD PUSH1 0xE0 PUSH1 0x40 DUP4 ADD MSTORE PUSH0 SWAP1 PUSH2 0x5753 PUSH2 0x100 DUP5 ADD DUP3 PUSH2 0x51DB JUMP JUMPDEST SWAP1 POP PUSH1 0x40 DUP5 ADD MLOAD PUSH1 0x60 DUP5 ADD MSTORE PUSH1 0x60 DUP5 ADD MLOAD PUSH1 0x80 DUP5 ADD MSTORE PUSH1 0x80 DUP5 ADD MLOAD PUSH1 0xA0 DUP5 ADD MSTORE PUSH1 0xFF PUSH1 0xA0 DUP6 ADD MLOAD AND PUSH1 0xC0 DUP5 ADD MSTORE PUSH1 0xC0 DUP5 ADD MLOAD PUSH1 0x1F NOT DUP5 DUP4 SUB ADD PUSH1 0xE0 DUP6 ADD MSTORE DUP2 DUP2 MLOAD DUP1 DUP5 MSTORE PUSH1 0x20 DUP5 ADD SWAP2 POP PUSH1 0x20 DUP2 PUSH1 0x5 SHL DUP6 ADD ADD PUSH1 0x20 DUP5 ADD SWAP4 POP PUSH0 JUMPDEST DUP3 DUP2 LT ISZERO PUSH2 0x5809 JUMPI DUP6 DUP3 SUB PUSH1 0x1F NOT ADD DUP5 MSTORE DUP5 MLOAD DUP1 MLOAD DUP4 MSTORE PUSH1 0x20 DUP1 DUP3 ADD MLOAD PUSH1 0x1 PUSH1 0x1 PUSH1 0xA0 SHL SUB AND SWAP1 DUP5 ADD MSTORE PUSH1 0x40 SWAP1 DUP2 ADD MLOAD PUSH1 0x60 SWAP2 DUP5 ADD DUP3 SWAP1 MSTORE SWAP1 PUSH2 0x57F3 SWAP1 DUP5 ADD DUP3 PUSH2 0x51DB JUMP JUMPDEST PUSH1 0x20 SWAP7 DUP8 ADD SWAP7 SWAP6 SWAP1 SWAP6 ADD SWAP5 SWAP3 POP POP PUSH1 0x1 ADD PUSH2 0x57AE JUMP JUMPDEST POP SWAP8 SWAP7 POP POP POP POP POP POP POP JUMP JUMPDEST PUSH1 0xE0 DUP2 MSTORE PUSH0 PUSH2 0x5827 PUSH1 0xE0 DUP4 ADD DUP11 PUSH2 0x51DB JUMP JUMPDEST DUP3 DUP2 SUB PUSH1 0x20 DUP5 ADD MSTORE PUSH2 0x5839 DUP2 DUP11 PUSH2 0x51DB JUMP JUMPDEST SWAP1 POP DUP3 DUP2 SUB PUSH1 0x40 DUP5 ADD MSTORE PUSH2 0x584D DUP2 DUP10 PUSH2 0x51DB JUMP JUMPDEST PUSH1 0x60 DUP5 ADD SWAP8 SWAP1 SWAP8 MSTORE POP POP PUSH1 0x80 DUP2 ADD SWAP4 SWAP1 SWAP4 MSTORE SWAP1 ISZERO ISZERO PUSH1 0xA0 DUP4 ADD MSTORE PUSH1 0xC0 SWAP1 SWAP2 ADD MSTORE SWAP4 SWAP3 POP POP POP JUMP JUMPDEST PUSH2 0x640 DUP2 ADD DUP2 DUP4 PUSH0 JUMPDEST PUSH1 0x32 DUP2 LT ISZERO PUSH2 0x530F JUMPI DUP2 MLOAD PUSH1 0x1 PUSH1 0x1 PUSH1 0xA0 SHL SUB AND DUP4 MSTORE PUSH1 0x20 SWAP3 DUP4 ADD SWAP3 SWAP1 SWAP2 ADD SWAP1 PUSH1 0x1 ADD PUSH2 0x587D JUMP JUMPDEST PUSH1 0x20 DUP2 MSTORE PUSH0 PUSH2 0x5626 PUSH1 0x20 DUP4 ADD DUP5 PUSH2 0x54BD JUMP JUMPDEST PUSH0 DUP2 MLOAD DUP1 PUSH1 0x20 DUP5 ADD DUP6 MCOPY PUSH0 SWAP4 ADD SWAP3 DUP4 MSTORE POP SWAP1 SWAP2 SWAP1 POP JUMP JUMPDEST PUSH0 PUSH2 0x58F4 PUSH2 0x58EE PUSH2 0x58E8 PUSH2 0x58E2 DUP6 DUP11 PUSH2 0x58B7 JUMP JUMPDEST DUP9 PUSH2 0x58B7 JUMP JUMPDEST DUP7 PUSH2 0x58B7 JUMP JUMPDEST DUP5 PUSH2 0x58B7 JUMP JUMPDEST SWAP7 SWAP6 POP POP POP POP POP POP JUMP JUMPDEST PUSH1 0x1 DUP2 DUP2 SHR SWAP1 DUP3 AND DUP1 PUSH2 0x5912 JUMPI PUSH1 0x7F DUP3 AND SWAP2 POP JUMPDEST PUSH1 0x20 DUP3 LT DUP2 SUB PUSH2 0x5930 JUMPI PUSH4 0x4E487B71 PUSH1 0xE0 SHL PUSH0 MSTORE PUSH1 0x22 PUSH1 0x4 MSTORE PUSH1 0x24 PUSH0 REVERT JUMPDEST POP SWAP2 SWAP1 POP JUMP JUMPDEST PUSH1 0x1F DUP3 GT ISZERO PUSH2 0x4F44 JUMPI DUP1 PUSH0 MSTORE PUSH1 0x20 PUSH0 KECCAK256 PUSH1 0x1F DUP5 ADD PUSH1 0x5 SHR DUP2 ADD PUSH1 0x20 DUP6 LT ISZERO PUSH2 0x595B JUMPI POP DUP1 JUMPDEST PUSH1 0x1F DUP5 ADD PUSH1 0x5 SHR DUP3 ADD SWAP2 POP JUMPDEST DUP2 DUP2 LT ISZERO PUSH2 0x597A JUMPI PUSH0 DUP2 SSTORE PUSH1 0x1 ADD PUSH2 0x5967 JUMP JUMPDEST POP POP POP POP POP JUMP JUMPDEST PUSH0 NOT PUSH1 0x3 DUP4 SWAP1 SHL SHR NOT AND PUSH1 0x1 SWAP2 SWAP1 SWAP2 SHL OR SWAP1 JUMP JUMPDEST DUP2 MLOAD PUSH1 0x1 PUSH1 0x1 PUSH1 0x40 SHL SUB DUP2 GT ISZERO PUSH2 0x59AE JUMPI PUSH2 0x59AE PUSH2 0x4FCB JUMP JUMPDEST PUSH2 0x59C2 DUP2 PUSH2 0x59BC DUP5 SLOAD PUSH2 0x58FE JUMP JUMPDEST DUP5 PUSH2 0x5936 JUMP JUMPDEST PUSH1 0x20 PUSH1 0x1F DUP3 GT PUSH1 0x1 DUP2 EQ PUSH2 0x59EF JUMPI PUSH0 DUP4 ISZERO PUSH2 0x59DD JUMPI POP DUP5 DUP3 ADD MLOAD JUMPDEST PUSH2 0x59E7 DUP5 DUP3 PUSH2 0x5981 JUMP JUMPDEST DUP6 SSTORE POP PUSH2 0x597A JUMP JUMPDEST PUSH0 DUP5 DUP2 MSTORE PUSH1 0x20 DUP2 KECCAK256 PUSH1 0x1F NOT DUP6 AND SWAP2 JUMPDEST DUP3 DUP2 LT ISZERO PUSH2 0x5A1E JUMPI DUP8 DUP6 ADD MLOAD DUP3 SSTORE PUSH1 0x20 SWAP5 DUP6 ADD SWAP5 PUSH1 0x1 SWAP1 SWAP3 ADD SWAP2 ADD PUSH2 0x59FE JUMP JUMPDEST POP DUP5 DUP3 LT ISZERO PUSH2 0x5A3B JUMPI DUP7 DUP5 ADD MLOAD PUSH0 NOT PUSH1 0x3 DUP8 SWAP1 SHL PUSH1 0xF8 AND SHR NOT AND DUP2 SSTORE JUMPDEST POP POP POP POP PUSH1 0x1 SWAP1 DUP2 SHL ADD SWAP1 SSTORE POP JUMP JUMPDEST PUSH4 0x4E487B71 PUSH1 0xE0 SHL PUSH0 MSTORE PUSH1 0x11 PUSH1 0x4 MSTORE PUSH1 0x24 PUSH0 REVERT JUMPDEST DUP2 DUP2 SUB DUP2 DUP2 GT ISZERO PUSH2 0x536A JUMPI PUSH2 0x536A PUSH2 0x5A4A JUMP JUMPDEST PUSH1 0x20 DUP1 DUP3 MSTORE PUSH1 0x13 SWAP1 DUP3 ADD MSTORE PUSH19 0x125B9D985B1A59081C1C9BDC1BDCD85B081251 PUSH1 0x6A SHL PUSH1 0x40 DUP3 ADD MSTORE PUSH1 0x60 ADD SWAP1 JUMP JUMPDEST PUSH4 0x4E487B71 PUSH1 0xE0 SHL PUSH0 MSTORE PUSH1 0x32 PUSH1 0x4 MSTORE PUSH1 0x24 PUSH0 REVERT JUMPDEST PUSH0 PUSH1 0xFF DUP3 AND PUSH1 0xFF DUP2 SUB PUSH2 0x5AC7 JUMPI PUSH2 0x5AC7 PUSH2 0x5A4A JUMP JUMPDEST PUSH1 0x1 ADD SWAP3 SWAP2 POP POP JUMP JUMPDEST PUSH1 0x60 DUP2 MSTORE PUSH0 PUSH2 0x5AE2 PUSH1 0x60 DUP4 ADD DUP7 PUSH2 0x51DB JUMP JUMPDEST DUP3 DUP2 SUB PUSH1 0x20 DUP5 ADD MSTORE PUSH2 0x5AF4 DUP2 DUP7 PUSH2 0x51DB JUMP JUMPDEST SWAP1 POP DUP3 DUP2 SUB PUSH1 0x40 DUP5 ADD MSTORE PUSH2 0x58F4 DUP2 DUP6 PUSH2 0x51DB JUMP JUMPDEST DUP1 DUP3 ADD DUP3 DUP2 SLT PUSH0 DUP4 SLT DUP1 ISZERO DUP3 AND DUP3 ISZERO DUP3 AND OR ISZERO PUSH2 0x5B27 JUMPI PUSH2 0x5B27 PUSH2 0x5A4A JUMP JUMPDEST POP POP SWAP3 SWAP2 POP POP JUMP JUMPDEST PUSH0 PUSH2 0xFFFF DUP3 AND PUSH2 0xFFFF DUP2 SUB PUSH2 0x5AC7 JUMPI PUSH2 0x5AC7 PUSH2 0x5A4A JUMP JUMPDEST PUSH4 0xFFFFFFFF DUP2 DUP2 AND DUP4 DUP3 AND ADD SWAP1 DUP2 GT ISZERO PUSH2 0x536A JUMPI PUSH2 0x536A PUSH2 0x5A4A JUMP JUMPDEST PUSH0 DUP2 DUP4 DUP3 JUMPDEST PUSH1 0xA DUP2 LT ISZERO PUSH2 0x5B99 JUMPI DUP2 CALLDATALOAD PUSH2 0x5B7B DUP2 PUSH2 0x5318 JUMP JUMPDEST PUSH1 0x1 PUSH1 0x1 PUSH1 0xA0 SHL SUB AND DUP4 MSTORE PUSH1 0x20 SWAP3 DUP4 ADD SWAP3 SWAP2 SWAP1 SWAP2 ADD SWAP1 PUSH1 0x1 ADD PUSH2 0x5B67 JUMP JUMPDEST POP POP POP PUSH2 0x140 DUP3 ADD SWAP1 POP SWAP3 SWAP2 POP POP JUMP JUMPDEST PUSH0 PUSH1 0x1 DUP3 ADD PUSH2 0x5BBA JUMPI PUSH2 0x5BBA PUSH2 0x5A4A JUMP JUMPDEST POP PUSH1 0x1 ADD SWAP1 JUMP JUMPDEST PUSH0 DUP2 PUSH2 0x5BCF JUMPI PUSH2 0x5BCF PUSH2 0x5A4A JUMP JUMPDEST POP PUSH0 NOT ADD SWAP1 JUMP JUMPDEST PUSH0 DUP3 DUP2 SIGNEXTEND SWAP1 DUP3 SWAP1 SIGNEXTEND SUB PUSH1 0x7F NOT DUP2 SLT PUSH1 0x7F DUP3 SGT OR ISZERO PUSH2 0x536A JUMPI PUSH2 0x536A PUSH2 0x5A4A JUMP JUMPDEST PUSH1 0x1 PUSH1 0x1 PUSH1 0x40 SHL SUB DUP4 GT ISZERO PUSH2 0x5C0D JUMPI PUSH2 0x5C0D PUSH2 0x4FCB JUMP JUMPDEST PUSH2 0x5C21 DUP4 PUSH2 0x5C1B DUP4 SLOAD PUSH2 0x58FE JUMP JUMPDEST DUP4 PUSH2 0x5936 JUMP JUMPDEST PUSH0 PUSH1 0x1F DUP5 GT PUSH1 0x1 DUP2 EQ PUSH2 0x5C4D JUMPI PUSH0 DUP6 ISZERO PUSH2 0x5C3B JUMPI POP DUP4 DUP3 ADD CALLDATALOAD JUMPDEST PUSH2 0x5C45 DUP7 DUP3 PUSH2 0x5981 JUMP JUMPDEST DUP5 SSTORE POP PUSH2 0x597A JUMP JUMPDEST PUSH0 DUP4 DUP2 MSTORE PUSH1 0x20 DUP2 KECCAK256 PUSH1 0x1F NOT DUP8 AND SWAP2 JUMPDEST DUP3 DUP2 LT ISZERO PUSH2 0x5C7C JUMPI DUP7 DUP6 ADD CALLDATALOAD DUP3 SSTORE PUSH1 0x20 SWAP5 DUP6 ADD SWAP5 PUSH1 0x1 SWAP1 SWAP3 ADD SWAP2 ADD PUSH2 0x5C5C JUMP JUMPDEST POP DUP7 DUP3 LT ISZERO PUSH2 0x5C98 JUMPI PUSH0 NOT PUSH1 0xF8 DUP9 PUSH1 0x3 SHL AND SHR NOT DUP5 DUP8 ADD CALLDATALOAD AND DUP2 SSTORE JUMPDEST POP POP PUSH1 0x1 DUP6 PUSH1 0x1 SHL ADD DUP4 SSTORE POP POP POP POP POP JUMP JUMPDEST PUSH0 DUP3 CALLDATALOAD PUSH1 0x5E NOT DUP4 CALLDATASIZE SUB ADD DUP2 SLT PUSH2 0x5CBE JUMPI PUSH0 DUP1 REVERT JUMPDEST SWAP2 SWAP1 SWAP2 ADD SWAP3 SWAP2 POP POP JUMP JUMPDEST DUP2 CALLDATALOAD DUP2 SSTORE PUSH1 0x1 DUP2 ADD PUSH1 0x20 DUP4 ADD CALLDATALOAD PUSH2 0x5CDE DUP2 PUSH2 0x5318 JUMP JUMPDEST DUP2 SLOAD PUSH1 0x1 PUSH1 0x1 PUSH1 0xA0 SHL SUB NOT AND PUSH1 0x1 PUSH1 0x1 PUSH1 0xA0 SHL SUB SWAP2 SWAP1 SWAP2 AND OR SWAP1 SSTORE PUSH1 0x40 DUP3 ADD CALLDATALOAD CALLDATASIZE DUP4 SWAP1 SUB PUSH1 0x1E NOT ADD DUP2 SLT PUSH2 0x5D10 JUMPI PUSH0 DUP1 REVERT JUMPDEST DUP3 ADD DUP1 CALLDATALOAD PUSH1 0x1 PUSH1 0x1 PUSH1 0x40 SHL SUB DUP2 GT ISZERO PUSH2 0x5D27 JUMPI PUSH0 DUP1 REVERT JUMPDEST PUSH1 0x20 DUP3 ADD SWAP2 POP DUP1 CALLDATASIZE SUB DUP3 SGT ISZERO PUSH2 0x5D3B JUMPI PUSH0 DUP1 REVERT JUMPDEST PUSH1 0x2 DUP4 ADD PUSH1 0x1 PUSH1 0x1 PUSH1 0x40 SHL SUB DUP3 GT ISZERO PUSH2 0x5D56 JUMPI PUSH2 0x5D56 PUSH2 0x4FCB JUMP JUMPDEST PUSH2 0x5D64 DUP3 PUSH2 0x5C1B DUP4 SLOAD PUSH2 0x58FE JUMP JUMPDEST PUSH0 PUSH1 0x1F DUP4 GT PUSH1 0x1 DUP2 EQ PUSH2 0x5D90 JUMPI PUSH0 DUP5 ISZERO PUSH2 0x5D7E JUMPI POP DUP5 DUP3 ADD CALLDATALOAD JUMPDEST PUSH2 0x5D88 DUP6 DUP3 PUSH2 0x5981 JUMP JUMPDEST DUP5 SSTORE POP PUSH2 0x5DE7 JUMP JUMPDEST PUSH0 DUP4 DUP2 MSTORE PUSH1 0x20 DUP2 KECCAK256 PUSH1 0x1F NOT DUP7 AND SWAP2 JUMPDEST DUP3 DUP2 LT ISZERO PUSH2 0x5DBF JUMPI DUP8 DUP6 ADD CALLDATALOAD DUP3 SSTORE PUSH1 0x20 SWAP5 DUP6 ADD SWAP5 PUSH1 0x1 SWAP1 SWAP3 ADD SWAP2 ADD PUSH2 0x5D9F JUMP JUMPDEST POP DUP6 DUP3 LT ISZERO PUSH2 0x5DDB JUMPI PUSH0 NOT PUSH1 0xF8 DUP8 PUSH1 0x3 SHL AND SHR NOT DUP5 DUP9 ADD CALLDATALOAD AND DUP2 SSTORE JUMPDEST POP POP PUSH1 0x1 DUP5 PUSH1 0x1 SHL ADD DUP4 SSTORE JUMPDEST POP POP POP POP POP POP POP JUMP JUMPDEST PUSH1 0x20 DUP2 MSTORE DUP2 PUSH1 0x20 DUP3 ADD MSTORE DUP2 DUP4 PUSH1 0x40 DUP4 ADD CALLDATACOPY PUSH0 DUP2 DUP4 ADD PUSH1 0x40 SWAP1 DUP2 ADD SWAP2 SWAP1 SWAP2 MSTORE PUSH1 0x1F SWAP1 SWAP3 ADD PUSH1 0x1F NOT AND ADD ADD SWAP2 SWAP1 POP JUMP JUMPDEST PUSH1 0xFF DUP2 DUP2 AND DUP4 DUP3 AND MUL SWAP1 DUP2 AND SWAP1 DUP2 DUP2 EQ PUSH2 0x5E3A JUMPI PUSH2 0x5E3A PUSH2 0x5A4A JUMP JUMPDEST POP SWAP3 SWAP2 POP POP JUMP JUMPDEST DUP1 DUP3 ADD DUP1 DUP3 GT ISZERO PUSH2 0x536A JUMPI PUSH2 0x536A PUSH2 0x5A4A JUMP JUMPDEST PUSH0 PUSH1 0xFF DUP3 AND DUP1 PUSH2 0x5E66 JUMPI PUSH2 0x5E66 PUSH2 0x5A4A JUMP JUMPDEST PUSH0 NOT ADD SWAP3 SWAP2 POP POP JUMP JUMPDEST PUSH1 0xFF DUP3 DUP2 AND DUP3 DUP3 AND SUB SWAP1 DUP2 GT ISZERO PUSH2 0x536A JUMPI PUSH2 0x536A PUSH2 0x5A4A JUMP JUMPDEST PUSH1 0xFF DUP2 DUP2 AND DUP4 DUP3 AND ADD SWAP1 DUP2 GT ISZERO PUSH2 0x536A JUMPI PUSH2 0x536A PUSH2 0x5A4A JUMP JUMPDEST PUSH0 PUSH1 0xFF DUP4 AND DUP1 PUSH2 0x5EBF JUMPI PUSH4 0x4E487B71 PUSH1 0xE0 SHL PUSH0 MSTORE PUSH1 0x12 PUSH1 0x4 MSTORE PUSH1 0x24 PUSH0 REVERT JUMPDEST DUP1 PUSH1 0xFF DUP5 AND DIV SWAP2 POP POP SWAP3 SWAP2 POP POP JUMP JUMPDEST PUSH0 DUP2 DUP4 DUP3 JUMPDEST PUSH1 0x32 DUP2 LT ISZERO PUSH2 0x5EFB JUMPI DUP2 SLOAD PUSH1 0x1 PUSH1 0x1 PUSH1 0xA0 SHL SUB AND DUP4 MSTORE PUSH1 0x20 SWAP1 SWAP3 ADD SWAP2 PUSH1 0x1 SWAP2 DUP3 ADD SWAP2 ADD PUSH2 0x5ED3 JUMP JUMPDEST POP POP POP PUSH2 0x640 DUP3 ADD SWAP1 POP SWAP3 SWAP2 POP POP JUMP INVALID LOG2 PUSH5 0x6970667358 0x22 SLT KECCAK256 PUSH20 0x218204342DFD425B2597C76E4E02F89E824F961B SWAP5 SWAP11 0x22 0xAA PUSH25 0x990CB07CDDAA64736F6C634300081A00330000000000000000 "
		},
		"gasEstimates": {
			"creation": {
				"codeDepositCost": "4877000",
				"executionCost": "infinite",
				"totalCost": "infinite"
			},
			"external": {
				"GOV_LENGTH()": "284",
				"LEAD_PERIOD()": "285",
				"LenderTxns(address,uint256)": "7002",
				"MAX_APPROVALS()": "262",
				"MIN_DRAFTS()": "272",
				"MIN_VOTERS()": "270",
				"N_MEMBERS()": "336",
				"RANDOM_VOTERS()": "315",
				"REF_VOTER_BATCH()": "336",
				"REG_FEE()": "262",
				"REG_TIME()": "263",
				"REQUIRED_REG()": "307",
				"REQUIRED_SCORE()": "328",
				"SUBMISSION_FEE()": "261",
				"SUPER_MAJORITY()": "337",
				"VOTER_BATCH()": "315",
				"activeProposalByMember(address)": "2644",
				"addVoter(bytes32[10],address[10])": "infinite",
				"addedVoterCount()": "2398",
				"approveRegistrar(address,int8)": "80525",
				"candidateInfo(address)": "infinite",
				"candidateList(uint256)": "4701",
				"changeLeader()": "92157",
				"constitutionDrafts(uint256)": "infinite",
				"currentLeaderAddress()": "2436",
				"currentLeaderNumber()": "2429",
				"currentRate()": "2426",
				"electedMembers(uint256)": "2546",
				"electionEnd()": "2427",
				"getBalance()": "infinite",
				"getCandidateInfo(uint256)": "infinite",
				"getConstitution(uint256)": "infinite",
				"getCurrentPhase()": "infinite",
				"getElectionResults()": "infinite",
				"getHashStatus(bytes32)": "2558",
				"getProposalInfo(uint256)": "infinite",
				"getReferendumResults()": "infinite",
				"getRegistrarsOfHash(bytes32)": "infinite",
				"getVoteTime(address)": "2617",
				"getVoterStatus(address)": "2643",
				"interestPeriods(uint256)": "6816",
				"lend()": "70303",
				"memberRank(address)": "2636",
				"memberVotedAt(address,uint256)": "2716",
				"membersElected()": "2378",
				"neutral()": "2471",
				"noRates()": "2424",
				"proposals(uint256)": "infinite",
				"proposeProposal(string,(uint256,address,string)[])": "infinite",
				"proposeRate(uint256)": "infinite",
				"ratifiedConstitutionId()": "2360",
				"referendumEndTime()": "2362",
				"referendumVoterCount()": "2379",
				"registerAsCandidate(string,string,string)": "infinite",
				"registerVoterBatch(bytes32[10],address[10])": "infinite",
				"sortedRates(uint256)": "4743",
				"startReferendum()": "infinite",
				"startTime()": "infinite",
				"submitDraft((string,string,string,string,bytes32,string,uint256,uint256))": "infinite",
				"treasuryReserve()": "261",
				"voteCandidates(uint256[])": "infinite",
				"voteForProposal(uint256)": "infinite",
				"voteInReferendum(uint256[])": "infinite",
				"withdrawProposal(uint256)": "39391"
			}
		},
		"methodIdentifiers": {
			"GOV_LENGTH()": "5004e24a",
			"LEAD_PERIOD()": "49066e79",
			"LenderTxns(address,uint256)": "53fdc838",
			"MAX_APPROVALS()": "beb54795",
			"MIN_DRAFTS()": "86a0dd7d",
			"MIN_VOTERS()": "d1791ae0",
			"N_MEMBERS()": "e292bf16",
			"RANDOM_VOTERS()": "3def77b7",
			"REF_VOTER_BATCH()": "8325ed2d",
			"REG_FEE()": "4ebeb109",
			"REG_TIME()": "47f7b722",
			"REQUIRED_REG()": "491de471",
			"REQUIRED_SCORE()": "54c17527",
			"SUBMISSION_FEE()": "7d48536d",
			"SUPER_MAJORITY()": "b85c2292",
			"VOTER_BATCH()": "b5ba9795",
			"activeProposalByMember(address)": "ac0af944",
			"addVoter(bytes32[10],address[10])": "26c29449",
			"addedVoterCount()": "1b408934",
			"approveRegistrar(address,int8)": "29c83be1",
			"candidateInfo(address)": "e965b7c9",
			"candidateList(uint256)": "b13c744b",
			"changeLeader()": "a5f5b1bf",
			"constitutionDrafts(uint256)": "bbea6f0b",
			"currentLeaderAddress()": "7da4ce83",
			"currentLeaderNumber()": "16392372",
			"currentRate()": "f9f8bdb7",
			"electedMembers(uint256)": "214c3a89",
			"electionEnd()": "ce7ea161",
			"getBalance()": "12065fe0",
			"getCandidateInfo(uint256)": "70f67cfe",
			"getConstitution(uint256)": "f3a4aba9",
			"getCurrentPhase()": "a3a40ea5",
			"getElectionResults()": "eccf1f10",
			"getHashStatus(bytes32)": "7f4241e7",
			"getProposalInfo(uint256)": "bc903cb8",
			"getReferendumResults()": "452d32bb",
			"getRegistrarsOfHash(bytes32)": "08ec6a19",
			"getVoteTime(address)": "d90d7cd8",
			"getVoterStatus(address)": "78e3ef20",
			"interestPeriods(uint256)": "f33e9573",
			"lend()": "97dffc61",
			"memberRank(address)": "eab536fc",
			"memberVotedAt(address,uint256)": "2190bee8",
			"membersElected()": "089e35b8",
			"neutral()": "4d0c8726",
			"noRates()": "c8d7b9f1",
			"proposals(uint256)": "013cf08b",
			"proposeProposal(string,(uint256,address,string)[])": "3b497b28",
			"proposeRate(uint256)": "bdc8e7b3",
			"ratifiedConstitutionId()": "eedb2d28",
			"referendumEndTime()": "b0feb260",
			"referendumVoterCount()": "e42a54c4",
			"registerAsCandidate(string,string,string)": "079ddd11",
			"registerVoterBatch(bytes32[10],address[10])": "99b0d39c",
			"sortedRates(uint256)": "9dc99455",
			"startReferendum()": "be003ee6",
			"startTime()": "78e97925",
			"submitDraft((string,string,string,string,bytes32,string,uint256,uint256))": "00fa88e2",
			"treasuryReserve()": "59297dbf",
			"voteCandidates(uint256[])": "a6a5ad12",
			"voteForProposal(uint256)": "045c6ce0",
			"voteInReferendum(uint256[])": "c1b13157",
			"withdrawProposal(uint256)": "e1f02ffa"
		}
	},
	"abi": [
		{
			"inputs": [
				{
					"internalType": "address",
					"name": "neutralEntity",
					"type": "address"
				},
				{
					"internalType": "string",
					"name": "interimConstitution",
					"type": "string"
				}
			],
			"stateMutability": "nonpayable",
			"type": "constructor"
		},
		{
			"anonymous": false,
			"inputs": [
				{
					"indexed": true,
					"internalType": "address",
					"name": "candidate",
					"type": "address"
				},
				{
					"indexed": false,
					"internalType": "string",
					"name": "fullName",
					"type": "string"
				},
				{
					"indexed": false,
					"internalType": "string",
					"name": "bio",
					"type": "string"
				},
				{
					"indexed": false,
					"internalType": "string",
					"name": "website",
					"type": "string"
				}
			],
			"name": "CandidateRegistered",
			"type": "event"
		},
		{
			"anonymous": false,
			"inputs": [
				{
					"indexed": true,
					"internalType": "uint256",
					"name": "draftId",
					"type": "uint256"
				},
				{
					"components": [
						{
							"internalType": "string",
							"name": "description",
							"type": "string"
						},
						{
							"internalType": "string",
							"name": "constitutionText",
							"type": "string"
						},
						{
							"internalType": "string",
							"name": "implementationCode",
							"type": "string"
						},
						{
							"internalType": "string",
							"name": "submitterIdentity",
							"type": "string"
						},
						{
							"internalType": "bytes32",
							"name": "hashedOffChain",
							"type": "bytes32"
						},
						{
							"internalType": "string",
							"name": "supportingMaterials",
							"type": "string"
						},
						{
							"internalType": "uint256",
							"name": "submittedAt",
							"type": "uint256"
						},
						{
							"internalType": "uint256",
							"name": "voteCount",
							"type": "uint256"
						}
					],
					"indexed": false,
					"internalType": "struct Referendum.ConstitutionDraft",
					"name": "draft",
					"type": "tuple"
				}
			],
			"name": "ConstitutionDraftSubmitted",
			"type": "event"
		},
		{
			"anonymous": false,
			"inputs": [
				{
					"indexed": true,
					"internalType": "uint256",
					"name": "winningProposalId",
					"type": "uint256"
				},
				{
					"components": [
						{
							"internalType": "string",
							"name": "description",
							"type": "string"
						},
						{
							"internalType": "string",
							"name": "constitutionText",
							"type": "string"
						},
						{
							"internalType": "string",
							"name": "implementationCode",
							"type": "string"
						},
						{
							"internalType": "string",
							"name": "submitterIdentity",
							"type": "string"
						},
						{
							"internalType": "bytes32",
							"name": "hashedOffChain",
							"type": "bytes32"
						},
						{
							"internalType": "string",
							"name": "supportingMaterials",
							"type": "string"
						},
						{
							"internalType": "uint256",
							"name": "submittedAt",
							"type": "uint256"
						},
						{
							"internalType": "uint256",
							"name": "voteCount",
							"type": "uint256"
						}
					],
					"indexed": false,
					"internalType": "struct Referendum.ConstitutionDraft",
					"name": "ratifiedConstitution",
					"type": "tuple"
				}
			],
			"name": "ConstitutionRatified",
			"type": "event"
		},
		{
			"anonymous": false,
			"inputs": [
				{
					"indexed": true,
					"internalType": "address[50]",
					"name": "electedMembers",
					"type": "address[50]"
				},
				{
					"indexed": false,
					"internalType": "address",
					"name": "firstLeader",
					"type": "address"
				}
			],
			"name": "ElectionResults",
			"type": "event"
		},
		{
			"anonymous": false,
			"inputs": [
				{
					"indexed": false,
					"internalType": "uint256",
					"name": "newMedianRate",
					"type": "uint256"
				}
			],
			"name": "InterestRateUpdated",
			"type": "event"
		},
		{
			"anonymous": false,
			"inputs": [
				{
					"indexed": true,
					"internalType": "address",
					"name": "newLeader",
					"type": "address"
				}
			],
			"name": "LeadershipChanged",
			"type": "event"
		},
		{
			"anonymous": false,
			"inputs": [
				{
					"indexed": true,
					"internalType": "address",
					"name": "lender",
					"type": "address"
				},
				{
					"indexed": false,
					"internalType": "int256",
					"name": "amount",
					"type": "int256"
				}
			],
			"name": "LoanReceived",
			"type": "event"
		},
		{
			"anonymous": false,
			"inputs": [
				{
					"indexed": true,
					"internalType": "address",
					"name": "member",
					"type": "address"
				},
				{
					"indexed": false,
					"internalType": "uint256",
					"name": "oldRate",
					"type": "uint256"
				},
				{
					"indexed": false,
					"internalType": "uint8",
					"name": "oldRank",
					"type": "uint8"
				},
				{
					"indexed": false,
					"internalType": "uint256",
					"name": "newRate",
					"type": "uint256"
				},
				{
					"indexed": false,
					"internalType": "uint8",
					"name": "newRank",
					"type": "uint8"
				}
			],
			"name": "MemberRateChanged",
			"type": "event"
		},
		{
			"anonymous": false,
			"inputs": [
				{
					"indexed": true,
					"internalType": "uint256",
					"name": "proposalId",
					"type": "uint256"
				}
			],
			"name": "ProposalPassed",
			"type": "event"
		},
		{
			"anonymous": false,
			"inputs": [
				{
					"indexed": true,
					"internalType": "uint256",
					"name": "proposalId",
					"type": "uint256"
				},
				{
					"indexed": true,
					"internalType": "address",
					"name": "proposer",
					"type": "address"
				},
				{
					"indexed": false,
					"internalType": "string",
					"name": "provisions",
					"type": "string"
				}
			],
			"name": "ProposalProposed",
			"type": "event"
		},
		{
			"anonymous": false,
			"inputs": [
				{
					"indexed": true,
					"internalType": "uint256",
					"name": "proposalId",
					"type": "uint256"
				},
				{
					"indexed": true,
					"internalType": "address",
					"name": "voter",
					"type": "address"
				}
			],
			"name": "ProposalVoted",
			"type": "event"
		},
		{
			"anonymous": false,
			"inputs": [
				{
					"indexed": true,
					"internalType": "uint256",
					"name": "proposalId",
					"type": "uint256"
				}
			],
			"name": "ProposalWithdrawn",
			"type": "event"
		},
		{
			"anonymous": false,
			"inputs": [],
			"name": "ReferendumStarted",
			"type": "event"
		},
		{
			"anonymous": false,
			"inputs": [
				{
					"indexed": true,
					"internalType": "address",
					"name": "voter",
					"type": "address"
				}
			],
			"name": "ReferendumVoteCast",
			"type": "event"
		},
		{
			"anonymous": false,
			"inputs": [
				{
					"indexed": true,
					"internalType": "address",
					"name": "voter",
					"type": "address"
				}
			],
			"name": "VoteCast",
			"type": "event"
		},
		{
			"anonymous": false,
			"inputs": [
				{
					"indexed": true,
					"internalType": "address[10]",
					"name": "voter",
					"type": "address[10]"
				},
				{
					"indexed": false,
					"internalType": "uint256",
					"name": "addedVoterCount",
					"type": "uint256"
				}
			],
			"name": "VoterAdded",
			"type": "event"
		},
		{
			"anonymous": false,
			"inputs": [
				{
					"indexed": true,
					"internalType": "address[10]",
					"name": "voter",
					"type": "address[10]"
				},
				{
					"indexed": false,
					"internalType": "address",
					"name": "registrar",
					"type": "address"
				},
				{
					"indexed": false,
					"internalType": "uint256",
					"name": "referendumVoterCount",
					"type": "uint256"
				}
			],
			"name": "VoterRegistered",
			"type": "event"
		},
		{
			"inputs": [],
			"name": "GOV_LENGTH",
			"outputs": [
				{
					"internalType": "uint256",
					"name": "",
					"type": "uint256"
				}
			],
			"stateMutability": "view",
			"type": "function"
		},
		{
			"inputs": [],
			"name": "LEAD_PERIOD",
			"outputs": [
				{
					"internalType": "uint256",
					"name": "",
					"type": "uint256"
				}
			],
			"stateMutability": "view",
			"type": "function"
		},
		{
			"inputs": [
				{
					"internalType": "address",
					"name": "",
					"type": "address"
				},
				{
					"internalType": "uint256",
					"name": "",
					"type": "uint256"
				}
			],
			"name": "LenderTxns",
			"outputs": [
				{
					"internalType": "int256",
					"name": "amount",
					"type": "int256"
				},
				{
					"internalType": "uint256",
					"name": "txnTime",
					"type": "uint256"
				}
			],
			"stateMutability": "view",
			"type": "function"
		},
		{
			"inputs": [],
			"name": "MAX_APPROVALS",
			"outputs": [
				{
					"internalType": "uint256",
					"name": "",
					"type": "uint256"
				}
			],
			"stateMutability": "view",
			"type": "function"
		},
		{
			"inputs": [],
			"name": "MIN_DRAFTS",
			"outputs": [
				{
					"internalType": "uint8",
					"name": "",
					"type": "uint8"
				}
			],
			"stateMutability": "view",
			"type": "function"
		},
		{
			"inputs": [],
			"name": "MIN_VOTERS",
			"outputs": [
				{
					"internalType": "uint32",
					"name": "",
					"type": "uint32"
				}
			],
			"stateMutability": "view",
			"type": "function"
		},
		{
			"inputs": [],
			"name": "N_MEMBERS",
			"outputs": [
				{
					"internalType": "uint8",
					"name": "",
					"type": "uint8"
				}
			],
			"stateMutability": "view",
			"type": "function"
		},
		{
			"inputs": [],
			"name": "RANDOM_VOTERS",
			"outputs": [
				{
					"internalType": "uint32",
					"name": "",
					"type": "uint32"
				}
			],
			"stateMutability": "view",
			"type": "function"
		},
		{
			"inputs": [],
			"name": "REF_VOTER_BATCH",
			"outputs": [
				{
					"internalType": "uint32",
					"name": "",
					"type": "uint32"
				}
			],
			"stateMutability": "view",
			"type": "function"
		},
		{
			"inputs": [],
			"name": "REG_FEE",
			"outputs": [
				{
					"internalType": "uint256",
					"name": "",
					"type": "uint256"
				}
			],
			"stateMutability": "view",
			"type": "function"
		},
		{
			"inputs": [],
			"name": "REG_TIME",
			"outputs": [
				{
					"internalType": "uint256",
					"name": "",
					"type": "uint256"
				}
			],
			"stateMutability": "view",
			"type": "function"
		},
		{
			"inputs": [],
			"name": "REQUIRED_REG",
			"outputs": [
				{
					"internalType": "uint256",
					"name": "",
					"type": "uint256"
				}
			],
			"stateMutability": "view",
			"type": "function"
		},
		{
			"inputs": [],
			"name": "REQUIRED_SCORE",
			"outputs": [
				{
					"internalType": "int256",
					"name": "",
					"type": "int256"
				}
			],
			"stateMutability": "view",
			"type": "function"
		},
		{
			"inputs": [],
			"name": "SUBMISSION_FEE",
			"outputs": [
				{
					"internalType": "uint256",
					"name": "",
					"type": "uint256"
				}
			],
			"stateMutability": "view",
			"type": "function"
		},
		{
			"inputs": [],
			"name": "SUPER_MAJORITY",
			"outputs": [
				{
					"internalType": "uint8",
					"name": "",
					"type": "uint8"
				}
			],
			"stateMutability": "view",
			"type": "function"
		},
		{
			"inputs": [],
			"name": "VOTER_BATCH",
			"outputs": [
				{
					"internalType": "uint32",
					"name": "",
					"type": "uint32"
				}
			],
			"stateMutability": "view",
			"type": "function"
		},
		{
			"inputs": [
				{
					"internalType": "address",
					"name": "",
					"type": "address"
				}
			],
			"name": "activeProposalByMember",
			"outputs": [
				{
					"internalType": "uint256",
					"name": "",
					"type": "uint256"
				}
			],
			"stateMutability": "view",
			"type": "function"
		},
		{
			"inputs": [
				{
					"internalType": "bytes32[10]",
					"name": "voterHashes",
					"type": "bytes32[10]"
				},
				{
					"internalType": "address[10]",
					"name": "voterAddresses",
					"type": "address[10]"
				}
			],
			"name": "addVoter",
			"outputs": [],
			"stateMutability": "nonpayable",
			"type": "function"
		},
		{
			"inputs": [],
			"name": "addedVoterCount",
			"outputs": [
				{
					"internalType": "uint32",
					"name": "",
					"type": "uint32"
				}
			],
			"stateMutability": "view",
			"type": "function"
		},
		{
			"inputs": [
				{
					"internalType": "address",
					"name": "registrar",
					"type": "address"
				},
				{
					"internalType": "int8",
					"name": "vote",
					"type": "int8"
				}
			],
			"name": "approveRegistrar",
			"outputs": [],
			"stateMutability": "nonpayable",
			"type": "function"
		},
		{
			"inputs": [
				{
					"internalType": "address",
					"name": "",
					"type": "address"
				}
			],
			"name": "candidateInfo",
			"outputs": [
				{
					"internalType": "string",
					"name": "fullName",
					"type": "string"
				},
				{
					"internalType": "string",
					"name": "bio",
					"type": "string"
				},
				{
					"internalType": "string",
					"name": "website",
					"type": "string"
				},
				{
					"internalType": "uint256",
					"name": "registeredAt",
					"type": "uint256"
				},
				{
					"internalType": "uint256",
					"name": "voteCount",
					"type": "uint256"
				},
				{
					"internalType": "bool",
					"name": "electedMember",
					"type": "bool"
				},
				{
					"internalType": "uint256",
					"name": "leaderAt",
					"type": "uint256"
				}
			],
			"stateMutability": "view",
			"type": "function"
		},
		{
			"inputs": [
				{
					"internalType": "uint256",
					"name": "",
					"type": "uint256"
				}
			],
			"name": "candidateList",
			"outputs": [
				{
					"internalType": "address",
					"name": "",
					"type": "address"
				}
			],
			"stateMutability": "view",
			"type": "function"
		},
		{
			"inputs": [],
			"name": "changeLeader",
			"outputs": [],
			"stateMutability": "nonpayable",
			"type": "function"
		},
		{
			"inputs": [
				{
					"internalType": "uint256",
					"name": "",
					"type": "uint256"
				}
			],
			"name": "constitutionDrafts",
			"outputs": [
				{
					"internalType": "string",
					"name": "description",
					"type": "string"
				},
				{
					"internalType": "string",
					"name": "constitutionText",
					"type": "string"
				},
				{
					"internalType": "string",
					"name": "implementationCode",
					"type": "string"
				},
				{
					"internalType": "string",
					"name": "submitterIdentity",
					"type": "string"
				},
				{
					"internalType": "bytes32",
					"name": "hashedOffChain",
					"type": "bytes32"
				},
				{
					"internalType": "string",
					"name": "supportingMaterials",
					"type": "string"
				},
				{
					"internalType": "uint256",
					"name": "submittedAt",
					"type": "uint256"
				},
				{
					"internalType": "uint256",
					"name": "voteCount",
					"type": "uint256"
				}
			],
			"stateMutability": "view",
			"type": "function"
		},
		{
			"inputs": [],
			"name": "currentLeaderAddress",
			"outputs": [
				{
					"internalType": "address",
					"name": "",
					"type": "address"
				}
			],
			"stateMutability": "view",
			"type": "function"
		},
		{
			"inputs": [],
			"name": "currentLeaderNumber",
			"outputs": [
				{
					"internalType": "uint256",
					"name": "",
					"type": "uint256"
				}
			],
			"stateMutability": "view",
			"type": "function"
		},
		{
			"inputs": [],
			"name": "currentRate",
			"outputs": [
				{
					"internalType": "uint256",
					"name": "",
					"type": "uint256"
				}
			],
			"stateMutability": "view",
			"type": "function"
		},
		{
			"inputs": [
				{
					"internalType": "uint256",
					"name": "",
					"type": "uint256"
				}
			],
			"name": "electedMembers",
			"outputs": [
				{
					"internalType": "address",
					"name": "",
					"type": "address"
				}
			],
			"stateMutability": "view",
			"type": "function"
		},
		{
			"inputs": [],
			"name": "electionEnd",
			"outputs": [
				{
					"internalType": "uint256",
					"name": "",
					"type": "uint256"
				}
			],
			"stateMutability": "view",
			"type": "function"
		},
		{
			"inputs": [],
			"name": "getBalance",
			"outputs": [
				{
					"internalType": "int256",
					"name": "_sum",
					"type": "int256"
				}
			],
			"stateMutability": "view",
			"type": "function"
		},
		{
			"inputs": [
				{
					"internalType": "uint256",
					"name": "candidateID",
					"type": "uint256"
				}
			],
			"name": "getCandidateInfo",
			"outputs": [
				{
					"components": [
						{
							"internalType": "string",
							"name": "fullName",
							"type": "string"
						},
						{
							"internalType": "string",
							"name": "bio",
							"type": "string"
						},
						{
							"internalType": "string",
							"name": "website",
							"type": "string"
						},
						{
							"internalType": "uint256",
							"name": "registeredAt",
							"type": "uint256"
						},
						{
							"internalType": "uint256",
							"name": "voteCount",
							"type": "uint256"
						},
						{
							"internalType": "bool",
							"name": "electedMember",
							"type": "bool"
						},
						{
							"internalType": "uint256",
							"name": "leaderAt",
							"type": "uint256"
						}
					],
					"internalType": "struct Candidate",
					"name": "",
					"type": "tuple"
				}
			],
			"stateMutability": "view",
			"type": "function"
		},
		{
			"inputs": [
				{
					"internalType": "uint256",
					"name": "draftId",
					"type": "uint256"
				}
			],
			"name": "getConstitution",
			"outputs": [
				{
					"components": [
						{
							"internalType": "string",
							"name": "description",
							"type": "string"
						},
						{
							"internalType": "string",
							"name": "constitutionText",
							"type": "string"
						},
						{
							"internalType": "string",
							"name": "implementationCode",
							"type": "string"
						},
						{
							"internalType": "string",
							"name": "submitterIdentity",
							"type": "string"
						},
						{
							"internalType": "bytes32",
							"name": "hashedOffChain",
							"type": "bytes32"
						},
						{
							"internalType": "string",
							"name": "supportingMaterials",
							"type": "string"
						},
						{
							"internalType": "uint256",
							"name": "submittedAt",
							"type": "uint256"
						},
						{
							"internalType": "uint256",
							"name": "voteCount",
							"type": "uint256"
						}
					],
					"internalType": "struct Referendum.ConstitutionDraft",
					"name": "",
					"type": "tuple"
				}
			],
			"stateMutability": "view",
			"type": "function"
		},
		{
			"inputs": [],
			"name": "getCurrentPhase",
			"outputs": [
				{
					"internalType": "enum Phase",
					"name": "",
					"type": "uint8"
				}
			],
			"stateMutability": "nonpayable",
			"type": "function"
		},
		{
			"inputs": [],
			"name": "getElectionResults",
			"outputs": [
				{
					"internalType": "address[50]",
					"name": "",
					"type": "address[50]"
				}
			],
			"stateMutability": "nonpayable",
			"type": "function"
		},
		{
			"inputs": [
				{
					"internalType": "bytes32",
					"name": "voterHash",
					"type": "bytes32"
				}
			],
			"name": "getHashStatus",
			"outputs": [
				{
					"internalType": "bool",
					"name": "",
					"type": "bool"
				}
			],
			"stateMutability": "view",
			"type": "function"
		},
		{
			"inputs": [
				{
					"internalType": "uint256",
					"name": "proposalId",
					"type": "uint256"
				}
			],
			"name": "getProposalInfo",
			"outputs": [
				{
					"components": [
						{
							"internalType": "address",
							"name": "proposer",
							"type": "address"
						},
						{
							"internalType": "string",
							"name": "provisions",
							"type": "string"
						},
						{
							"internalType": "uint256",
							"name": "proposedAt",
							"type": "uint256"
						},
						{
							"internalType": "uint256",
							"name": "executedAt",
							"type": "uint256"
						},
						{
							"internalType": "uint256",
							"name": "withdrawnAt",
							"type": "uint256"
						},
						{
							"internalType": "uint8",
							"name": "yesVotes",
							"type": "uint8"
						},
						{
							"components": [
								{
									"internalType": "uint256",
									"name": "amount",
									"type": "uint256"
								},
								{
									"internalType": "address",
									"name": "recipient",
									"type": "address"
								},
								{
									"internalType": "string",
									"name": "reason",
									"type": "string"
								}
							],
							"internalType": "struct Payment[]",
							"name": "payments",
							"type": "tuple[]"
						}
					],
					"internalType": "struct Proposal",
					"name": "",
					"type": "tuple"
				}
			],
			"stateMutability": "view",
			"type": "function"
		},
		{
			"inputs": [],
			"name": "getReferendumResults",
			"outputs": [
				{
					"internalType": "uint256",
					"name": "",
					"type": "uint256"
				},
				{
					"components": [
						{
							"internalType": "string",
							"name": "description",
							"type": "string"
						},
						{
							"internalType": "string",
							"name": "constitutionText",
							"type": "string"
						},
						{
							"internalType": "string",
							"name": "implementationCode",
							"type": "string"
						},
						{
							"internalType": "string",
							"name": "submitterIdentity",
							"type": "string"
						},
						{
							"internalType": "bytes32",
							"name": "hashedOffChain",
							"type": "bytes32"
						},
						{
							"internalType": "string",
							"name": "supportingMaterials",
							"type": "string"
						},
						{
							"internalType": "uint256",
							"name": "submittedAt",
							"type": "uint256"
						},
						{
							"internalType": "uint256",
							"name": "voteCount",
							"type": "uint256"
						}
					],
					"internalType": "struct Referendum.ConstitutionDraft",
					"name": "",
					"type": "tuple"
				}
			],
			"stateMutability": "nonpayable",
			"type": "function"
		},
		{
			"inputs": [
				{
					"internalType": "bytes32",
					"name": "voterHash",
					"type": "bytes32"
				}
			],
			"name": "getRegistrarsOfHash",
			"outputs": [
				{
					"internalType": "address[2]",
					"name": "",
					"type": "address[2]"
				}
			],
			"stateMutability": "view",
			"type": "function"
		},
		{
			"inputs": [
				{
					"internalType": "address",
					"name": "voterAddress",
					"type": "address"
				}
			],
			"name": "getVoteTime",
			"outputs": [
				{
					"internalType": "uint256",
					"name": "",
					"type": "uint256"
				}
			],
			"stateMutability": "view",
			"type": "function"
		},
		{
			"inputs": [
				{
					"internalType": "address",
					"name": "voterAddress",
					"type": "address"
				}
			],
			"name": "getVoterStatus",
			"outputs": [
				{
					"internalType": "uint256",
					"name": "",
					"type": "uint256"
				}
			],
			"stateMutability": "view",
			"type": "function"
		},
		{
			"inputs": [
				{
					"internalType": "uint256",
					"name": "",
					"type": "uint256"
				}
			],
			"name": "interestPeriods",
			"outputs": [
				{
					"internalType": "uint256",
					"name": "rate",
					"type": "uint256"
				},
				{
					"internalType": "uint256",
					"name": "startedAt",
					"type": "uint256"
				}
			],
			"stateMutability": "view",
			"type": "function"
		},
		{
			"inputs": [],
			"name": "lend",
			"outputs": [],
			"stateMutability": "payable",
			"type": "function"
		},
		{
			"inputs": [
				{
					"internalType": "address",
					"name": "",
					"type": "address"
				}
			],
			"name": "memberRank",
			"outputs": [
				{
					"internalType": "uint8",
					"name": "",
					"type": "uint8"
				}
			],
			"stateMutability": "view",
			"type": "function"
		},
		{
			"inputs": [
				{
					"internalType": "address",
					"name": "",
					"type": "address"
				},
				{
					"internalType": "uint256",
					"name": "",
					"type": "uint256"
				}
			],
			"name": "memberVotedAt",
			"outputs": [
				{
					"internalType": "uint256",
					"name": "",
					"type": "uint256"
				}
			],
			"stateMutability": "view",
			"type": "function"
		},
		{
			"inputs": [],
			"name": "membersElected",
			"outputs": [
				{
					"internalType": "bool",
					"name": "",
					"type": "bool"
				}
			],
			"stateMutability": "view",
			"type": "function"
		},
		{
			"inputs": [],
			"name": "neutral",
			"outputs": [
				{
					"internalType": "address",
					"name": "",
					"type": "address"
				}
			],
			"stateMutability": "view",
			"type": "function"
		},
		{
			"inputs": [],
			"name": "noRates",
			"outputs": [
				{
					"internalType": "uint8",
					"name": "",
					"type": "uint8"
				}
			],
			"stateMutability": "view",
			"type": "function"
		},
		{
			"inputs": [
				{
					"internalType": "uint256",
					"name": "",
					"type": "uint256"
				}
			],
			"name": "proposals",
			"outputs": [
				{
					"internalType": "address",
					"name": "proposer",
					"type": "address"
				},
				{
					"internalType": "string",
					"name": "provisions",
					"type": "string"
				},
				{
					"internalType": "uint256",
					"name": "proposedAt",
					"type": "uint256"
				},
				{
					"internalType": "uint256",
					"name": "executedAt",
					"type": "uint256"
				},
				{
					"internalType": "uint256",
					"name": "withdrawnAt",
					"type": "uint256"
				},
				{
					"internalType": "uint8",
					"name": "yesVotes",
					"type": "uint8"
				}
			],
			"stateMutability": "view",
			"type": "function"
		},
		{
			"inputs": [
				{
					"internalType": "string",
					"name": "_provisions",
					"type": "string"
				},
				{
					"components": [
						{
							"internalType": "uint256",
							"name": "amount",
							"type": "uint256"
						},
						{
							"internalType": "address",
							"name": "recipient",
							"type": "address"
						},
						{
							"internalType": "string",
							"name": "reason",
							"type": "string"
						}
					],
					"internalType": "struct Payment[]",
					"name": "_payments",
					"type": "tuple[]"
				}
			],
			"name": "proposeProposal",
			"outputs": [
				{
					"internalType": "uint256",
					"name": "",
					"type": "uint256"
				}
			],
			"stateMutability": "nonpayable",
			"type": "function"
		},
		{
			"inputs": [
				{
					"internalType": "uint256",
					"name": "newRate",
					"type": "uint256"
				}
			],
			"name": "proposeRate",
			"outputs": [
				{
					"internalType": "uint8",
					"name": "newRank",
					"type": "uint8"
				}
			],
			"stateMutability": "nonpayable",
			"type": "function"
		},
		{
			"inputs": [],
			"name": "ratifiedConstitutionId",
			"outputs": [
				{
					"internalType": "uint256",
					"name": "",
					"type": "uint256"
				}
			],
			"stateMutability": "view",
			"type": "function"
		},
		{
			"inputs": [],
			"name": "referendumEndTime",
			"outputs": [
				{
					"internalType": "uint256",
					"name": "",
					"type": "uint256"
				}
			],
			"stateMutability": "view",
			"type": "function"
		},
		{
			"inputs": [],
			"name": "referendumVoterCount",
			"outputs": [
				{
					"internalType": "uint32",
					"name": "",
					"type": "uint32"
				}
			],
			"stateMutability": "view",
			"type": "function"
		},
		{
			"inputs": [
				{
					"internalType": "string",
					"name": "_fullName",
					"type": "string"
				},
				{
					"internalType": "string",
					"name": "_bio",
					"type": "string"
				},
				{
					"internalType": "string",
					"name": "_website",
					"type": "string"
				}
			],
			"name": "registerAsCandidate",
			"outputs": [],
			"stateMutability": "payable",
			"type": "function"
		},
		{
			"inputs": [
				{
					"internalType": "bytes32[10]",
					"name": "voterHashes",
					"type": "bytes32[10]"
				},
				{
					"internalType": "address[10]",
					"name": "voterAddresses",
					"type": "address[10]"
				}
			],
			"name": "registerVoterBatch",
			"outputs": [],
			"stateMutability": "nonpayable",
			"type": "function"
		},
		{
			"inputs": [
				{
					"internalType": "uint256",
					"name": "",
					"type": "uint256"
				}
			],
			"name": "sortedRates",
			"outputs": [
				{
					"internalType": "address",
					"name": "member",
					"type": "address"
				},
				{
					"internalType": "uint256",
					"name": "rate",
					"type": "uint256"
				}
			],
			"stateMutability": "view",
			"type": "function"
		},
		{
			"inputs": [],
			"name": "startReferendum",
			"outputs": [],
			"stateMutability": "nonpayable",
			"type": "function"
		},
		{
			"inputs": [],
			"name": "startTime",
			"outputs": [
				{
					"internalType": "uint256",
					"name": "",
					"type": "uint256"
				}
			],
			"stateMutability": "view",
			"type": "function"
		},
		{
			"inputs": [
				{
					"components": [
						{
							"internalType": "string",
							"name": "description",
							"type": "string"
						},
						{
							"internalType": "string",
							"name": "constitutionText",
							"type": "string"
						},
						{
							"internalType": "string",
							"name": "implementationCode",
							"type": "string"
						},
						{
							"internalType": "string",
							"name": "submitterIdentity",
							"type": "string"
						},
						{
							"internalType": "bytes32",
							"name": "hashedOffChain",
							"type": "bytes32"
						},
						{
							"internalType": "string",
							"name": "supportingMaterials",
							"type": "string"
						},
						{
							"internalType": "uint256",
							"name": "submittedAt",
							"type": "uint256"
						},
						{
							"internalType": "uint256",
							"name": "voteCount",
							"type": "uint256"
						}
					],
					"internalType": "struct Referendum.ConstitutionDraft",
					"name": "_draft",
					"type": "tuple"
				}
			],
			"name": "submitDraft",
			"outputs": [],
			"stateMutability": "payable",
			"type": "function"
		},
		{
			"inputs": [],
			"name": "treasuryReserve",
			"outputs": [
				{
					"internalType": "uint256",
					"name": "",
					"type": "uint256"
				}
			],
			"stateMutability": "view",
			"type": "function"
		},
		{
			"inputs": [
				{
					"internalType": "uint256[]",
					"name": "_candidatesIds",
					"type": "uint256[]"
				}
			],
			"name": "voteCandidates",
			"outputs": [],
			"stateMutability": "nonpayable",
			"type": "function"
		},
		{
			"inputs": [
				{
					"internalType": "uint256",
					"name": "proposalId",
					"type": "uint256"
				}
			],
			"name": "voteForProposal",
			"outputs": [
				{
					"internalType": "uint8",
					"name": "",
					"type": "uint8"
				}
			],
			"stateMutability": "nonpayable",
			"type": "function"
		},
		{
			"inputs": [
				{
					"internalType": "uint256[]",
					"name": "_drafts",
					"type": "uint256[]"
				}
			],
			"name": "voteInReferendum",
			"outputs": [],
			"stateMutability": "nonpayable",
			"type": "function"
		},
		{
			"inputs": [
				{
					"internalType": "uint256",
					"name": "proposalId",
					"type": "uint256"
				}
			],
			"name": "withdrawProposal",
			"outputs": [],
			"stateMutability": "nonpayable",
			"type": "function"
		}
	]
}