{
	"data": {
		"bytecode": {
			"linkReferences": {},
			"object": "60a06040526009805460ff19908116909155607c80549091166032179055348015610028575f80fd5b50604051615ffd380380615ffd8339810160408190526100479161013c565b600280546001600160a01b0319166001600160a01b038416179055426080819052610075906224ea0061020b565b5f81905561008790621275009061020b565b610094906201518061020b565b60019081556005805491820181555f819052027f036b6384b5eca791c62761152d0c79bb0604c104a5fb6f4eb0703f3154bb3db0810180546001600160a01b03191633178155907f036b6384b5eca791c62761152d0c79bb0604c104a5fb6f4eb0703f3154bb3db10161010783826102b4565b506080516002820155600301805461ffff19166132001790555061036e9050565b634e487b7160e01b5f52604160045260245ffd5b5f806040838503121561014d575f80fd5b82516001600160a01b0381168114610163575f80fd5b60208401519092506001600160401b0381111561017e575f80fd5b8301601f8101851361018e575f80fd5b80516001600160401b038111156101a7576101a7610128565b604051601f8201601f19908116603f011681016001600160401b03811182821017156101d5576101d5610128565b6040528181528282016020018710156101ec575f80fd5b8160208401602083015e5f602083830101528093505050509250929050565b8082018082111561022a57634e487b7160e01b5f52601160045260245ffd5b92915050565b600181811c9082168061024457607f821691505b60208210810361026257634e487b7160e01b5f52602260045260245ffd5b50919050565b601f8211156102af57805f5260205f20601f840160051c8101602085101561028d5750805b601f840160051c820191505b818110156102ac575f8155600101610299565b50505b505050565b81516001600160401b038111156102cd576102cd610128565b6102e1816102db8454610230565b84610268565b6020601f821160018114610313575f83156102fc5750848201515b5f19600385901b1c1916600184901b1784556102ac565b5f84815260208120601f198516915b828110156103425787850151825560209485019460019092019101610322565b508482101561035f57868401515f19600387901b60f8161c191681555b50505050600190811b01905550565b608051615c776103865f395f6106020152615c775ff3fe608060405260043610610341575f3560e01c8063a6a5ad12116101bd578063c1b13157116100f2578063e965b7c911610092578063eccf1f101161006d578063eccf1f1014610992578063eedb2d28146109b3578063f33e9573146109c8578063f9f8bdb7146109e7575f80fd5b8063e965b7c914610911578063ea84f8c414610945578063eab536fc14610964575f80fd5b8063d1791ae0116100cd578063d1791ae0146108ac578063e1f02ffa146108c2578063e292bf16146108e1578063e42a54c4146108f5575f80fd5b8063c1b131571461085f578063c8d7b9f11461087e578063ce7ea16114610897575f80fd5b8063bb3aa2d31161015d578063bdc8e7b311610138578063bdc8e7b314610803578063be003ee614610822578063be07f0f814610836578063beb547951461084a575f80fd5b8063bb3aa2d314610779578063bbb8279d14610798578063bbea6f0b146107d1575f80fd5b8063b391377711610198578063b391377714610717578063b85c22921461073b578063bab752e51461074f578063bb2c88a014610764575f80fd5b8063a6a5ad12146106c6578063b13c744b146106e5578063b13d8f1514610704575f80fd5b80634d0c87261161029357806378e979251161023357806397dffc611161020e57806397dffc611461064b5780639dc9945514610653578063a3a40ea514610691578063a5f5b1bf146106b2575f80fd5b806378e97925146105f15780637d48536d1461062457806386a0dd7d14610637575f80fd5b80635204743a1161026e5780635204743a1461055e57806353fdc8381461057d57806354c17527146105b157806370f67cfe146105c5575f80fd5b80634d0c8726146104f75780634ebeb1091461052e5780635004e24a14610548575f80fd5b80631b408934116102fe5780633def77b7116102d95780633def77b714610497578063452d32bb146104c157806349066e79146103ed578063491de471146104e3575f80fd5b80631b4089341461042557806329c83be1146104595780633b497b2814610478575f80fd5b8063013cf08b14610345578063045c6ce01461037e578063079ddd11146103af578063089e35b8146103c457806308fd4cfa146103ed57806312065fe014610411575b5f80fd5b348015610350575f80fd5b5061036461035f366004614b7e565b6109fc565b604051610375959493929190614bc3565b60405180910390f35b348015610389575f80fd5b5061039d610398366004614b7e565b610ad3565b60405160ff9091168152602001610375565b6103c26103bd366004614c4a565b610d6b565b005b3480156103cf575f80fd5b506009546103dd9060ff1681565b6040519015158152602001610375565b3480156103f8575f80fd5b506104036212750081565b604051908152602001610375565b34801561041c575f80fd5b506104036110b0565b348015610430575f80fd5b5060025461044690600160a01b900461ffff1681565b60405161ffff9091168152602001610375565b348015610464575f80fd5b506103c2610473366004614cfa565b611123565b348015610483575f80fd5b50610403610492366004614d76565b611333565b3480156104a2575f80fd5b506104ac6104b081565b60405163ffffffff9091168152602001610375565b3480156104cc575f80fd5b506104d5611566565b604051610375929190614ee2565b3480156104ee575f80fd5b50610403600281565b348015610502575f80fd5b50600254610516906001600160a01b031681565b6040516001600160a01b039091168152602001610375565b348015610539575f80fd5b5061040366038d7ea4c6800081565b348015610553575f80fd5b50610403625c490081565b348015610569575f80fd5b506103c2610578366004614f11565b611d8c565b348015610588575f80fd5b5061059c610597366004614f46565b612283565b60408051928352602083019190915201610375565b3480156105bc575f80fd5b50610403600a81565b3480156105d0575f80fd5b506105e46105df366004614b7e565b6122bb565b6040516103759190614f70565b3480156105fc575f80fd5b506104037f000000000000000000000000000000000000000000000000000000000000000081565b34801561062f575f80fd5b506104035f81565b348015610642575f80fd5b5061039d600a81565b6103c26125a1565b34801561065e575f80fd5b5061067261066d366004614b7e565b61261b565b604080516001600160a01b039093168352602083019190915201610375565b34801561069c575f80fd5b506106a5612646565b6040516103759190615045565b3480156106bd575f80fd5b506103c2612714565b3480156106d1575f80fd5b506103c26106e036600461506b565b612883565b3480156106f0575f80fd5b506105166106ff366004614b7e565b612b95565b6103c2610712366004615223565b612bbd565b348015610722575f80fd5b506009546105169061010090046001600160a01b031681565b348015610746575f80fd5b5061039d601e81565b34801561075a575f80fd5b5061040360065481565b34801561076f575f80fd5b50610403600a5481565b348015610784575f80fd5b506103dd61079336600461538b565b612f68565b3480156107a3575f80fd5b506103dd6107b2366004614f46565b600b60209081525f928352604080842090915290825290205460ff1681565b3480156107dc575f80fd5b506107f06107eb366004614b7e565b612faf565b60405161037597969594939291906153cb565b34801561080e575f80fd5b5061039d61081d366004614b7e565b613214565b34801561082d575f80fd5b506103c26137c3565b348015610841575f80fd5b506104035f5481565b348015610855575f80fd5b506104036103e881565b34801561086a575f80fd5b506103c261087936600461506b565b613936565b348015610889575f80fd5b50607c5461039d9060ff1681565b3480156108a2575f80fd5b5061040360015481565b3480156108b7575f80fd5b506104ac620f424081565b3480156108cd575f80fd5b506103c26108dc366004614b7e565b613bd1565b3480156108ec575f80fd5b5061039d603281565b348015610900575f80fd5b50600f546104ac9063ffffffff1681565b34801561091c575f80fd5b5061093061092b366004615434565b613d79565b60405161037599989796959493929190615456565b348015610950575f80fd5b506103c261095f3660046154d0565b613f5d565b34801561096f575f80fd5b5061039d61097e366004615434565b607b6020525f908152604090205460ff1681565b34801561099d575f80fd5b506109a6614525565b604051610375919061550b565b3480156109be575f80fd5b5061040360105481565b3480156109d3575f80fd5b5061059c6109e2366004614b7e565b61492a565b3480156109f2575f80fd5b5061040360145481565b60058181548110610a0b575f80fd5b5f918252602090912060059091020180546001820180546001600160a01b03909216935090610a3990615556565b80601f0160208091040260200160405190810160405280929190818152602001828054610a6590615556565b8015610ab05780601f10610a8757610100808354040283529160200191610ab0565b820191905f5260205f20905b815481529060010190602001808311610a9357829003601f168201915b50505050600283015460039093015491929160ff80821692506101009091041685565b335f9081526004602081905260408220015462010000900460ff16610b375760405162461bcd60e51b81526020600482015260156024820152744f6e6c79206d656d626572732063616e20766f746560581b60448201526064015b60405180910390fd5b6005548210610b7e5760405162461bcd60e51b8152602060048201526013602482015272125b9d985b1a59081c1c9bdc1bdcd85b081251606a1b6044820152606401610b2e565b5f60058381548110610b9257610b9261558e565b5f9182526020909120600590910201600381015490915060ff1615610bee5760405162461bcd60e51b8152602060048201526012602482015271283937b837b9b0b6103bb4ba34323930bbb760711b6044820152606401610b2e565b335f908152600b6020908152604080832086845290915290205460ff1615610c485760405162461bcd60e51b815260206004820152600d60248201526c105b1c9958591e481d9bdd1959609a1b6044820152606401610b2e565b335f908152600b602090815260408083208684529091529020805460ff19166001908117909155600382018054610100900460ff1691610c87836155b6565b91906101000a81548160ff021916908360ff16021790555050336001600160a01b0316837f34647120636ce03d739347e28e9d1bdd34fd03d066ae60439fb1be2721ad16cd60405160405180910390a36003810154601e61010090910460ff1610801590610cf757506002810154155b15610d595760405183907fe36f8b7448daff4a52e2945db0d1d7a436279cc1d527a45c27835dcbd27f336d905f90a242600282015580546001600160a01b03165f908152600460205260409020600601805461ffff19169055610d5983614956565b60030154610100900460ff1692915050565b8415801590610d7b575060648511155b610db65760405162461bcd60e51b815260206004820152600c60248201526b496e76616c6964206e616d6560a01b6044820152606401610b2e565b8215801590610dc757506103e88311155b610e015760405162461bcd60e51b815260206004820152600b60248201526a496e76616c69642062696f60a81b6044820152606401610b2e565b8015801590610e1257506103e88111155b610e505760405162461bcd60e51b815260206004820152600f60248201526e496e76616c6964207765627369746560881b6044820152606401610b2e565b33610e8e5760405162461bcd60e51b815260206004820152600e60248201526d24b73b30b634b21039b2b73232b960911b6044820152606401610b2e565b66038d7ea4c680003410610edc57336108fc610eb166038d7ea4c68000346155d4565b6040518115909202915f818181858888f19350505050158015610ed6573d5f803e3d5ffd5b50610f24565b60405162461bcd60e51b815260206004820152601a60248201527f5061796d656e74203c20726567697374726174696f6e206665650000000000006044820152606401610b2e565b5f610f2d612646565b6005811115610f3e57610f3e615031565b14610f8b5760405162461bcd60e51b815260206004820152601960248201527f526567697374726174696f6e20706572696f6420656e646564000000000000006044820152606401610b2e565b335f9081526004602052604090206003015415610fdf5760405162461bcd60e51b8152602060048201526012602482015271105b1c9958591e481c9959da5cdd195c995960721b6044820152606401610b2e565b335f90815260046020526040902080610ff9878983615646565b5060018101611009858783615646565b5060028101611019838583615646565b504260038083019190915580546001810182555f919091527fc2575a0e9e593c00f959f8c92f12db2869c3395a3b0502d05e2516446f71f85b0180546001600160a01b031916339081179091556040517ed6fea68f71a20d8149f227f87e8cf7e6ad320b2dad4b45465b14599b80ee099061109f908a908a908a908a908a908a90615722565b60405180910390a250505050505050565b5f805b335f9081526016602052604090205461ffff8216101561111f57335f908152601660205260409020805461ffff83169081106110f1576110f161558e565b905f5260205f2090600202015f01548261110b919061576a565b91508061111781615791565b9150506110b3565b5090565b335f908152600460208190526040909120015462010000900460ff1661117a5760405162461bcd60e51b815260206004820152600c60248201526b2737ba10309036b2b6b132b960a11b6044820152606401610b2e565b5f19815f0b1215801561119057506001815f0b13155b6111dc5760405162461bcd60e51b815260206004820152601860248201527f566f7465206d757374206265202d312c20302c206f72203100000000000000006044820152606401610b2e565b335f9081526011602090815260408083206001600160a01b0386168452909152812054900b801580156112115750815f0b5f14155b1561128d57335f908152601360205260409020546103e8116112695760405162461bcd60e51b815260206004820152601160248201527013585e081d9bdd195cc81c995858da1959607a1b6044820152606401610b2e565b335f908152601360205260408120805491611283836157a8565b91905055506112c5565b805f0b5f141580156112a05750815f0b5f145b156112c557335f9081526013602052604081208054916112bf836157c0565b91905055505b335f9081526011602090815260408083206001600160a01b03871684529091529020805460ff191660ff84161790556112fe81836157d5565b6001600160a01b0384165f908152601260205260408120805492820b9290919061132990849061576a565b9091555050505050565b5f836113775760405162461bcd60e51b8152602060048201526013602482015272141c9bdd9a5cda5bdb9cc81c995c5d5a5c9959606a1b6044820152606401610b2e565b335f908152600460208190526040909120015462010000900460ff166113ea5760405162461bcd60e51b815260206004820152602260248201527f4f6e6c79206d656d626572732063616e2070726f706f73652070726f706f73616044820152616c7360f01b6064820152608401610b2e565b335f9081526004602052604090206006015461ffff16156114465760405162461bcd60e51b815260206004820152601660248201527512185cc8185b881858dd1a5d99481c1c9bdc1bdcd85b60521b6044820152606401610b2e565b60058054335f908152600460205260408120600601805461ffff191660ff841690811790915583546001018085558483529293919281106114895761148961558e565b5f918252602090912060059091020180546001600160a01b031916331781559050600181016114b9878983615646565b505f5b8481101561151757816004018686838181106114da576114da61558e565b90506020028101906114ec91906157f5565b81546001810183555f928352602090922090916003020161150d8282615813565b50506001016114bc565b506005546040513391907f6fb266c3bffbf56760b26ba85968fa3e28f3ed50cea5c9704fb6e260dab31f1c90611550908b908b9061593b565b60405180910390a3505060055495945050505050565b5f6115af604051806101000160405280606081526020016060815260200160608152602001606081526020015f8019168152602001606081526020015f81526020015f81525090565b6010541561192357601054600c601054815481106115cf576115cf61558e565b905f5260205f20906008020180604051806101000160405290815f820180546115f790615556565b80601f016020809104026020016040519081016040528092919081815260200182805461162390615556565b801561166e5780601f106116455761010080835404028352916020019161166e565b820191905f5260205f20905b81548152906001019060200180831161165157829003601f168201915b5050505050815260200160018201805461168790615556565b80601f01602080910402602001604051908101604052809291908181526020018280546116b390615556565b80156116fe5780601f106116d5576101008083540402835291602001916116fe565b820191905f5260205f20905b8154815290600101906020018083116116e157829003601f168201915b5050505050815260200160028201805461171790615556565b80601f016020809104026020016040519081016040528092919081815260200182805461174390615556565b801561178e5780601f106117655761010080835404028352916020019161178e565b820191905f5260205f20905b81548152906001019060200180831161177157829003601f168201915b5050505050815260200160038201805480602002602001604051908101604052809291908181526020015f905b82821015611863578382905f5260205f200180546117d890615556565b80601f016020809104026020016040519081016040528092919081815260200182805461180490615556565b801561184f5780601f106118265761010080835404028352916020019161184f565b820191905f5260205f20905b81548152906001019060200180831161183257829003601f168201915b5050505050815260200190600101906117bb565b5050505081526020016004820154815260200160058201805461188590615556565b80601f01602080910402602001604051908101604052809291908181526020018280546118b190615556565b80156118fc5780601f106118d3576101008083540402835291602001916118fc565b820191905f5260205f20905b8154815290600101906020018083116118df57829003601f168201915b50505050508152602001600682015481526020016007820154815250509050915091509091565b5f600654118015611935575042600654105b6119795760405162461bcd60e51b815260206004820152601560248201527443616c6c206166746572205265666572656e64756d60581b6044820152606401610b2e565b5f80805b600c548110156119e25781600c828154811061199b5761199b61558e565b905f5260205f2090600802016007015411156119da57600c81815481106119c4576119c461558e565b905f5260205f2090600802016007015491508092505b60010161197d565b50816010819055505f600c83815481106119fe576119fe61558e565b905f5260205f209060080201604051806101000160405290815f82018054611a2590615556565b80601f0160208091040260200160405190810160405280929190818152602001828054611a5190615556565b8015611a9c5780601f10611a7357610100808354040283529160200191611a9c565b820191905f5260205f20905b815481529060010190602001808311611a7f57829003601f168201915b50505050508152602001600182018054611ab590615556565b80601f0160208091040260200160405190810160405280929190818152602001828054611ae190615556565b8015611b2c5780601f10611b0357610100808354040283529160200191611b2c565b820191905f5260205f20905b815481529060010190602001808311611b0f57829003601f168201915b50505050508152602001600282018054611b4590615556565b80601f0160208091040260200160405190810160405280929190818152602001828054611b7190615556565b8015611bbc5780601f10611b9357610100808354040283529160200191611bbc565b820191905f5260205f20905b815481529060010190602001808311611b9f57829003601f168201915b5050505050815260200160038201805480602002602001604051908101604052809291908181526020015f905b82821015611c91578382905f5260205f20018054611c0690615556565b80601f0160208091040260200160405190810160405280929190818152602001828054611c3290615556565b8015611c7d5780601f10611c5457610100808354040283529160200191611c7d565b820191905f5260205f20905b815481529060010190602001808311611c6057829003601f168201915b505050505081526020019060010190611be9565b50505050815260200160048201548152602001600582018054611cb390615556565b80601f0160208091040260200160405190810160405280929190818152602001828054611cdf90615556565b8015611d2a5780601f10611d0157610100808354040283529160200191611d2a565b820191905f5260205f20905b815481529060010190602001808311611d0d57829003601f168201915b50505050508152602001600682015481526020016007820154815250509050827f2f46f361090df30bbdb7f29d5979456b44f5d7e8bad93955ae0ce3ec4b1d289482604051611d79919061594e565b60405180910390a2919491935090915050565b335f90815260126020526040902054600a1315611de15760405162461bcd60e51b8152602060048201526013602482015272139bdd08195b9bdd59da08185c1c1c9bdd985b606a1b6044820152606401610b2e565b6003611deb612646565b6005811115611dfc57611dfc615031565b14611e375760405162461bcd60e51b815260206004820152600b60248201526a57726f6e6720706861736560a81b6044820152606401610b2e565b5f5b600a60ff82161015612052575f600d818460ff8516600a8110611e5e57611e5e61558e565b602002013581526020019081526020015f205f60028110611e8157611e8161558e565b01546001600160a01b031603611ef15733600d5f848460ff16600a8110611eaa57611eaa61558e565b602002013581526020019081526020015f205f60028110611ecd57611ecd61558e565b0180546001600160a01b0319166001600160a01b0392909216919091179055612040565b5f600d818460ff8516600a8110611f0a57611f0a61558e565b602002013581526020019081526020015f20600160028110611f2e57611f2e61558e565b01546001600160a01b0316036120005733600d5f8460ff8516600a8110611f5757611f5761558e565b602002013581526020019081526020015f205f60028110611f7a57611f7a61558e565b01546001600160a01b031603611fc35760405162461bcd60e51b815260206004820152600e60248201526d29b0b6b2902932b3b4b9ba3930b960911b6044820152606401610b2e565b33600d5f848460ff16600a8110611fdc57611fdc61558e565b602002013581526020019081526020015f20600160028110611ecd57611ecd61558e565b60405162461bcd60e51b815260206004820152601560248201527412185cda08185b1c9958591e481c9958dbdc991959605a1b6044820152606401610b2e565b8061204a816155b6565b915050611e39565b505f5b600a60ff821610156121f0575f8360ff8316600a81106120775761207761558e565b60200201602081019061208a9190615434565b6001600160a01b0316036120d85760405162461bcd60e51b8152602060048201526015602482015274496e76616c696420766f746572206164647265737360581b6044820152606401610b2e565b6002600e5f858460ff16600a81106120f2576120f261558e565b6020020160208101906121059190615434565b6001600160a01b03166001600160a01b031681526020019081526020015f2054106121875760405162461bcd60e51b815260206004820152602c60248201527f4164647265737320616c7265616479207265676973746572656421205245474960448201526b5354524152204552524f522160a01b6064820152608401610b2e565b600e5f848360ff16600a811061219f5761219f61558e565b6020020160208101906121b29190615434565b6001600160a01b0316815260208101919091526040015f9081208054916121d8836157a8565b919050555080806121e8906155b6565b915050612055565b50600f8054600a91905f9061220c90849063ffffffff16615960565b92506101000a81548163ffffffff021916908363ffffffff16021790555081604051612238919061597c565b60408051918290038220600f5433845263ffffffff166020840152917f2ba0aaa9c0e5919bf5cb9fde7b2825194f9dc6e9ab2a9174c59892a1585c446a910160405180910390a25050565b6016602052815f5260405f20818154811061229c575f80fd5b5f91825260209091206002909102018054600190910154909250905082565b6123136040518061012001604052806060815260200160608152602001606081526020015f81526020015f61ffff1681526020015f60ff1681526020015f81526020015f61ffff1681526020015f61ffff1681525090565b600354821061235b5760405162461bcd60e51b8152602060048201526014602482015273125b9d985b1a590810d85b991a59185d1948125160621b6044820152606401610b2e565b60045f600384815481106123715761237161558e565b5f9182526020808320909101546001600160a01b031683528201929092526040908101909120815161012081019092528054829082906123b090615556565b80601f01602080910402602001604051908101604052809291908181526020018280546123dc90615556565b80156124275780601f106123fe57610100808354040283529160200191612427565b820191905f5260205f20905b81548152906001019060200180831161240a57829003601f168201915b5050505050815260200160018201805461244090615556565b80601f016020809104026020016040519081016040528092919081815260200182805461246c90615556565b80156124b75780601f1061248e576101008083540402835291602001916124b7565b820191905f5260205f20905b81548152906001019060200180831161249a57829003601f168201915b505050505081526020016002820180546124d090615556565b80601f01602080910402602001604051908101604052809291908181526020018280546124fc90615556565b80156125475780601f1061251e57610100808354040283529160200191612547565b820191905f5260205f20905b81548152906001019060200180831161252a57829003601f168201915b505050918352505060038201546020820152600482015461ffff808216604084015260ff62010000928390041660608401526005840154608084015260069093015480841660a08401520490911660c09091015292915050565b60408051808201825234808252426020808401918252335f818152601683528681208054600180820183559183529184902087516002909302019182559351930192909255935191825291927f976be468429698a1b0ae0c20a0329bdb6e24722a3f834a2c54b84d63c1722f32910160405180910390a250565b6017816032811061262a575f80fd5b6002020180546001909101546001600160a01b03909116915082565b5f805442101561265557505f90565b612661603260026159c3565b60ff16600380549050108061268557506002546104b0600160a01b90910461ffff16105b1561269257505f80805590565b5f545f036126c457425f8190556126ad9062127500906159e6565b6126ba90620151806159e6565b6001908155919050565b600180546126d291906155d4565b4210156126df5750600190565b6001544210156126ef5750600290565b6006545f036126fe5750600390565b60065442101561270e5750600490565b50600590565b60095460ff166127565760405162461bcd60e51b815260206004820152600d60248201526c139bc81b195859195c881e595d609a1b6044820152606401610b2e565b60095461010090046001600160a01b03165f908152600460205260409020600501546127869062127500906159e6565b4210156127e05760405162461bcd60e51b815260206004820152602260248201527f43757272656e74206c65616465722773207465726d206e6f742066696e697368604482015261195960f21b6064820152608401610b2e565b600a8054905f6127ef836157a8565b91905055506003600a54815481106128095761280961558e565b5f9182526020808320919091015460098054610100600160a81b0319166101006001600160a01b039384168102919091178083558190048316855260049093526040808520426005909101559054905192900416917f8a84bb57bf3f6adefaa7a35a6a5067473f78164bfc14c2f6ae8b93e5b115b35a91a2565b600261288d612646565b600581111561289e5761289e615031565b146128e35760405162461bcd60e51b81526020600482015260156024820152744e6f7420696e20456c656374696f6e20706861736560581b6044820152606401610b2e565b60035481111561292a5760405162461bcd60e51b8152602060048201526012602482015271125b9d985b1a59081d9bdd194818dbdd5b9d60721b6044820152606401610b2e565b335f908152600860205260409020546001146129995760405162461bcd60e51b815260206004820152602860248201527f416c726561647920766f74656420283e3129206f72206e6f7420726567697374604482015267657265642028302960c01b6064820152608401610b2e565b6003545f906001600160401b038111156129b5576129b56150a9565b6040519080825280602002602001820160405280156129de578160200160208202803683370190505b50335f818152600860205260408082204290555192935090917fb87a61d78bd15221c59b983f6ef032fbde0631e66bfe18d1421fe5a73c16741d9190a25f5b82811015612b8f575f848483818110612a3857612a3861558e565b9050602002013590506003805490508110612a8d5760405162461bcd60e51b81526020600482015260156024820152740aee4dedcce40c6c2dcc8d2c8c2e8ca40d2dcc8caf605b1b6044820152606401610b2e565b828181518110612a9f57612a9f61558e565b602002602001015115612af45760405162461bcd60e51b815260206004820152601a60248201527f526570657469746976652063616e64696461746520696e6465780000000000006044820152606401610b2e565b6001838281518110612b0857612b0861558e565b60200260200101901515908115158152505060045f60038381548110612b3057612b3061558e565b5f9182526020808320909101546001600160a01b031683528201929092526040018120600401805461ffff1691612b6683615791565b91906101000a81548161ffff021916908361ffff16021790555050508080600101915050612a1d565b50505050565b60038181548110612ba4575f80fd5b5f918252602090912001546001600160a01b0316905081565b335f908152600460208190526040909120015462010000900460ff16612c145760405162461bcd60e51b815260206004820152600c60248201526b2737ba10309036b2b6b132b960a11b6044820152606401610b2e565b335f9081526004602052604090206006015462010000900461ffff1615612c715760405162461bcd60e51b8152602060048201526011602482015270105b1c9958591e481cdd589b5a5d1d1959607a1b6044820152606401610b2e565b6003612c7b612646565b6005811115612c8c57612c8c615031565b14612cc75760405162461bcd60e51b815260206004820152600b60248201526a57726f6e6720706861736560a81b6044820152606401610b2e565b805151612d0d5760405162461bcd60e51b815260206004820152601460248201527311195cd8dc9a5c1d1a5bdb881c995c5d5a5c995960621b6044820152606401610b2e565b5f81602001515111612d615760405162461bcd60e51b815260206004820152601960248201527f636f6e737469747574696f6e54657874207265717569726564000000000000006044820152606401610b2e565b5f81606001515111612dae5760405162461bcd60e51b815260206004820152601660248201527520ba103632b0b9ba1037b7329039bab136b4ba3a32b960511b6044820152606401610b2e565b5f815f015182604001518360200151604051602001612dcf93929190615a10565b60405160208183030381529060405280519060200120905081608001518114612e2c5760405162461bcd60e51b815260206004820152600f60248201526e496e636f727265637420486173682160881b6044820152606401610b2e565b4260c08301525f60e08301819052600c80543383526004602052604092839020600601805461ffff909216620100000263ffff0000199092169190911790555490517f069006e6563904066b3005aaf324a96c53889602ae777132507198179576e1bf90612e9b90859061594e565b60405180910390a2600c80546001810182555f91909152825183916008027fdf6966c971051c3d54ec59162606531493a51404a002842f56009d7e5cf4a8c701908190612ee89082615a36565b5060208201516001820190612efd9082615a36565b5060408201516002820190612f129082615a36565b5060608201518051612f2e916003840191602090910190614ac8565b506080820151600482015560a08201516005820190612f4d9082615a36565b5060c0820151816006015560e0820151816007015550505050565b5f80848484604051602001612f7f93929190615aeb565b60408051808303601f1901815291815281516020928301205f908152600790925290205460ff1695945050505050565b600c8181548110612fbe575f80fd5b905f5260205f2090600802015f91509050805f018054612fdd90615556565b80601f016020809104026020016040519081016040528092919081815260200182805461300990615556565b80156130545780601f1061302b57610100808354040283529160200191613054565b820191905f5260205f20905b81548152906001019060200180831161303757829003601f168201915b50505050509080600101805461306990615556565b80601f016020809104026020016040519081016040528092919081815260200182805461309590615556565b80156130e05780601f106130b7576101008083540402835291602001916130e0565b820191905f5260205f20905b8154815290600101906020018083116130c357829003601f168201915b5050505050908060020180546130f590615556565b80601f016020809104026020016040519081016040528092919081815260200182805461312190615556565b801561316c5780601f106131435761010080835404028352916020019161316c565b820191905f5260205f20905b81548152906001019060200180831161314f57829003601f168201915b50505050509080600401549080600501805461318790615556565b80601f01602080910402602001604051908101604052809291908181526020018280546131b390615556565b80156131fe5780601f106131d5576101008083540402835291602001916131fe565b820191905f5260205f20905b8154815290600101906020018083116131e157829003601f168201915b5050505050908060060154908060070154905087565b335f9081526004602081905260408220015462010000900460ff1661327b5760405162461bcd60e51b815260206004820152601860248201527f4f6e6c79206d656d626572732063616e2070726f706f736500000000000000006044820152606401610b2e565b6113888211156132ba5760405162461bcd60e51b815260206004820152600a60248201526952617465203e2035302560b01b6044820152606401610b2e565b335f908152607b602052604081205460ff1681811580156132df5750607c5460ff1615155b1561332057607c805460ff16905f6132f683615b20565b82546101009290920a60ff818102199093169183160217909155607c545f95501691506133449050565b60178260ff16603281106133365761333661558e565b600202016001015492508190505b8285036133b657845f036133ae573360178260ff16603281106133695761336961558e565b6002020180546001600160a01b0319166001600160a01b0392909216919091179055335f908152607b60205260409020805460ff191660ff8316179055949350505050565b509392505050565b828511156134d6575b6133cb60016032615b3b565b60ff168160ff16108015613405575060176133e7826001615b54565b60ff16603281106133fa576133fa61558e565b600202016001015485115b156134d1576017613417826001615b54565b60ff166032811061342a5761342a61558e565b6002020160178260ff16603281106134445761344461558e565b82546002919091029190910180546001600160a01b0319166001600160a01b0390921691909117815560019182015491015580607b5f601760ff8416603281106134905761349061558e565b60020201546001600160a01b0316815260208101919091526040015f20805460ff191660ff92909216919091179055806134c9816155b6565b9150506133bf565b6135da565b5f8160ff1611801561350e575060176134f0600183615b3b565b60ff16603281106135035761350361558e565b600202016001015485105b156135da576017613520600183615b3b565b60ff16603281106135335761353361558e565b6002020160178260ff166032811061354d5761354d61558e565b82546002919091029190910180546001600160a01b0319166001600160a01b0390921691909117815560019182015491015580607b5f601760ff8416603281106135995761359961558e565b60020201546001600160a01b0316815260208101919091526040015f20805460ff191660ff92909216919091179055806135d281615b20565b9150506134d6565b6040805180820190915233815260208101869052601760ff8316603281106136045761360461558e565b82516002919091029190910180546001600160a01b0319166001600160a01b03909216919091178155602091820151600190910155335f818152607b8352604090819020805460ff191660ff8681169182179092558251888152918716948201949094529081018890526060810192909252907f1ce0beaec98d7537137a85c2d351c6c99900830d30fe8a7c353fa27225807e729060800160405180910390a260176136b260026032615b6d565b60ff16603281106136c5576136c561558e565b6002020160010154601454146137bb5760176136e360026032615b6d565b60ff16603281106136f6576136f661558e565b6001600291820292909201820154601481815560408051808201825292835242602084019081526015805496870181555f529251949093027f55f448fdea98c4d29eb340757ef0a66cd03dbb9538908a6a81d96026b71ec47581019490945590517f55f448fdea98c4d29eb340757ef0a66cd03dbb9538908a6a81d96026b71ec47690930192909255905490517fa90e14be5aa57b910aa6dc16c31ff1b5cda380ae25a793b0d3f74df6131a7d74916137b29190815260200190565b60405180910390a15b949350505050565b42625c49006001546137d591906159e6565b106138225760405162461bcd60e51b815260206004820152601b60248201527f43616e6e6f74207374617274207265666572656e64756d2079657400000000006044820152606401610b2e565b601054156138655760405162461bcd60e51b815260206004820152601060248201526f105b1c9958591e481c985d1a599a595960821b6044820152606401610b2e565b600c54600a106138ab5760405162461bcd60e51b81526020600482015260116024820152704e6f7420656e6f7567682064726166747360781b6044820152606401610b2e565b600f54620f424063ffffffff90911610156138fc5760405162461bcd60e51b81526020600482015260116024820152704e6f7420656e6f75676820766f7465727360781b6044820152606401610b2e565b61390942620151806159e6565b6006556040517fa0ab6b515144b30d8222a12e45d1c1df7265286d8a0d9f73c23c8b06f6021871905f90a1565b600654421061397d5760405162461bcd60e51b81526020600482015260136024820152724e6f74205265666572656e64756d2074696d6560681b6044820152606401610b2e565b600c548111156139c45760405162461bcd60e51b8152602060048201526012602482015271125b9d985b1a5908191c98599d081b1a5cdd60721b6044820152606401610b2e565b335f908152600e6020526040902054600214613a225760405162461bcd60e51b815260206004820152601760248201527f566f746564206f72204e6f7420726567697374657265640000000000000000006044820152606401610b2e565b600c545f906001600160401b03811115613a3e57613a3e6150a9565b604051908082528060200260200182016040528015613a67578160200160208202803683370190505b5090505f5b82811015613b94575f848483818110613a8757613a8761558e565b905060200201359050600c805490508110613ad45760405162461bcd60e51b815260206004820152600d60248201526c125b9d985b1a5908191c98599d609a1b6044820152606401610b2e565b828181518110613ae657613ae661558e565b602002602001015115613b305760405162461bcd60e51b815260206004820152601260248201527114995c195d1a5d1a5d9948191c98599d125960721b6044820152606401610b2e565b6001838281518110613b4457613b4461558e565b602002602001019015159081151581525050600c8181548110613b6957613b6961558e565b5f91825260208220600760089092020101805491613b86836157a8565b909155505050600101613a6c565b50335f818152600e6020526040808220429055517f4b50b8927fd1b030f5404dc4394c2a5d30d7f6c6fa6d732c089ffe8c10f094219190a2505050565b6005548110613c185760405162461bcd60e51b8152602060048201526013602482015272125b9d985b1a59081c1c9bdc1bdcd85b081251606a1b6044820152606401610b2e565b5f60058281548110613c2c57613c2c61558e565b5f918252602090912060059091020180549091506001600160a01b03163314613c975760405162461bcd60e51b815260206004820152601e60248201527f4f6e6c79207468652070726f706f7365722063616e20776974686472617700006044820152606401610b2e565b600281015415613cdc5760405162461bcd60e51b815260206004820152601060248201526f105b1c9958591e48195e1958dd5d195960821b6044820152606401610b2e565b600381015460ff1615613d255760405162461bcd60e51b815260206004820152601160248201527020b63932b0b23c903bb4ba34323930bbb760791b6044820152606401610b2e565b60038101805460ff19166001179055335f90815260046020526040808220600601805461ffff191690555183917f5ca6c0bba519c857c8713fba9f5f1b582abe00c95dcccedccea41ad683bad26d91a25050565b60046020525f9081526040902080548190613d9390615556565b80601f0160208091040260200160405190810160405280929190818152602001828054613dbf90615556565b8015613e0a5780601f10613de157610100808354040283529160200191613e0a565b820191905f5260205f20905b815481529060010190602001808311613ded57829003601f168201915b505050505090806001018054613e1f90615556565b80601f0160208091040260200160405190810160405280929190818152602001828054613e4b90615556565b8015613e965780601f10613e6d57610100808354040283529160200191613e96565b820191905f5260205f20905b815481529060010190602001808311613e7957829003601f168201915b505050505090806002018054613eab90615556565b80601f0160208091040260200160405190810160405280929190818152602001828054613ed790615556565b8015613f225780601f10613ef957610100808354040283529160200191613f22565b820191905f5260205f20905b815481529060010190602001808311613f0557829003601f168201915b505050506003830154600484015460058501546006909501549394919361ffff8083169450620100009283900460ff16939281831692041689565b6002546001600160a01b03163314613fb05760405162461bcd60e51b8152602060048201526016602482015275139bdd08185d5d1a1bdc9a5e9959081b995d5d1c985b60521b6044820152606401610b2e565b5f613fb9612646565b6005811115613fca57613fca615031565b146140175760405162461bcd60e51b815260206004820152601a60248201527f566f74657220616464696e6720706572696f6420656e6465642e0000000000006044820152606401610b2e565b6002546104b0600160a01b90910461ffff16106140805760405162461bcd60e51b815260206004820152602160248201527f4d6178696d756d206e756d626572206f6620766f7465727320726561636865646044820152601760f91b6064820152608401610b2e565b5f805b600a60ff8216101561431157828160ff16600a81106140a4576140a461558e565b606002015f0160208101906140b99190615b9a565b61ffff166107a5111580156140fd57506107d6838260ff16600a81106140e1576140e161558e565b606002015f0160208101906140f69190615b9a565b61ffff1611155b6141365760405162461bcd60e51b815260206004820152600a6024820152692bb937b733902cb2b0b960b11b6044820152606401610b2e565b828160ff16600a811061414b5761414b61558e565b6060020160200160208101906141619190615bb3565b60ff166001111580156141a25750600c838260ff16600a81106141865761418661558e565b60600201602001602081019061419c9190615bb3565b60ff1611155b6141de5760405162461bcd60e51b815260206004820152600d60248201526c092dcecc2d8d2c8409adedce8d609b1b6044820152606401610b2e565b828160ff16600a81106141f3576141f361558e565b606002015f0160208101906142089190615b9a565b838260ff16600a811061421d5761421d61558e565b6060020160200160208101906142339190615bb3565b848360ff16600a81106142485761424861558e565b60600201604001602081019061425e9190615bcc565b60405160200161427093929190615aeb565b60408051601f1981840301815291815281516020928301205f818152600790935291205490925060ff16156142e75760405162461bcd60e51b815260206004820152601d60248201527f566f746572206861736820616c726561647920726567697374657265640000006044820152606401610b2e565b5f828152600760205260409020805460ff1916600117905580614309816155b6565b915050614083565b505f5b600a60ff82161015614490575f8460ff8316600a81106143365761433661558e565b6020020160208101906143499190615434565b6001600160a01b0316036143915760405162461bcd60e51b815260206004820152600f60248201526e496e76616c6964206164647265737360881b6044820152606401610b2e565b60085f858360ff16600a81106143a9576143a961558e565b6020020160208101906143bc9190615434565b6001600160a01b0316815260208101919091526040015f2054156144385760405162461bcd60e51b815260206004820152602d60248201527f416464726573737320616c726561647920726567697374657265642e2052656760448201526c697374726172204552524f522160981b6064820152608401610b2e565b600160085f868460ff16600a81106144525761445261558e565b6020020160208101906144659190615434565b6001600160a01b0316815260208101919091526040015f205580614488816155b6565b915050614314565b50600a600260148282829054906101000a900461ffff166144b19190615be5565b92506101000a81548161ffff021916908361ffff160217905550826040516144d9919061597c565b604051908190038120600254600160a01b900461ffff168252907f5ecf71b87b223b4e8c4d19850b2c7a727d326e44eda6530fe642b505ff2c4f949060200160405180910390a2505050565b60095460609060ff161561459157600380548060200260200160405190810160405280929190818152602001828054801561458757602002820191905f5260205f20905b81546001600160a01b03168152600190910190602001808311614569575b5050505050905090565b60015442116145d85760405162461bcd60e51b815260206004820152601360248201527221b0b6361030b33a32b91032b632b1ba34b7b760691b6044820152606401610b2e565b60015b603260ff821611614807576003545f906145f7906001906155d4565b90505b808260ff16116147855760045f60036146146001856155d4565b815481106146245761462461558e565b5f9182526020808320909101546001600160a01b0316835282019290925260400181206004908101546003805461ffff9092169391859081106146695761466961558e565b5f9182526020808320909101546001600160a01b0316835282019290925260400190206004015461ffff1611156147735760036146a76001836155d4565b815481106146b7576146b761558e565b5f91825260209091200154600380546001600160a01b0390921691839081106146e2576146e261558e565b5f91825260209091200154600380546001600160a01b03909216918490811061470d5761470d61558e565b5f91825260208220019060036147246001876155d4565b815481106147345761473461558e565b5f91825260209091200180546001600160a01b039485166001600160a01b031990911617905581549383166101009190910a9081029202199092161790555b8061477d816157c0565b9150506145fa565b50614791600182615b3b565b60045f60036147a1600186615b3b565b60ff16815481106147b4576147b461558e565b5f9182526020808320909101546001600160a01b031683528201929092526040019020600401805460ff92909216620100000262ff000019909216919091179055806147ff816155b6565b9150506145db565b506009805460ff19166001179055600380545f906148275761482761558e565b5f9182526020808320919091015460098054610100600160a81b0319166101006001600160a01b0393841681029190911791829055600a859055900416825260049052604090819020426005909101555161488490600390615bff565b60405190819003812060095461010090046001600160a01b03168252907f55fd57a9f60ed79c2da9b808929b82bed18d54127a828e4f6050a978600109b09060200160405180910390a2600380548060200260200160405190810160405280929190818152602001828054801561458757602002820191905f5260205f209081546001600160a01b03168152600190910190602001808311614569575050505050905090565b60158181548110614939575f80fd5b5f9182526020909120600290910201805460019091015490915082565b5f6005828154811061496a5761496a61558e565b905f5260205f20906005020190505f5b6004820154811015614ac3575f82600401828154811061499c5761499c61558e565b905f5260205f2090600302016040518060600160405290815f8201548152602001600182015f9054906101000a90046001600160a01b03166001600160a01b03166001600160a01b031681526020016002820180546149fa90615556565b80601f0160208091040260200160405190810160405280929190818152602001828054614a2690615556565b8015614a715780601f10614a4857610100808354040283529160200191614a71565b820191905f5260205f20905b815481529060010190602001808311614a5457829003601f168201915b505050505081525050905080602001516001600160a01b03166108fc825f015190811502906040515f60405180830381858888f19350505050158015614ab9573d5f803e3d5ffd5b505060010161497a565b505050565b828054828255905f5260205f20908101928215614b0c579160200282015b82811115614b0c5782518290614afc9082615a36565b5091602001919060010190614ae6565b5061111f9291505b8082111561111f575f614b278282614b30565b50600101614b14565b508054614b3c90615556565b5f825580601f10614b4b575050565b601f0160209004905f5260205f2090810190614b679190614b6a565b50565b5b8082111561111f575f8155600101614b6b565b5f60208284031215614b8e575f80fd5b5035919050565b5f81518084528060208401602086015e5f602082860101526020601f19601f83011685010191505092915050565b6001600160a01b038616815260a0602082018190525f90614be690830187614b95565b604083019590955250911515606083015260ff1660809091015292915050565b5f8083601f840112614c16575f80fd5b5081356001600160401b03811115614c2c575f80fd5b602083019150836020828501011115614c43575f80fd5b9250929050565b5f805f805f8060608789031215614c5f575f80fd5b86356001600160401b03811115614c74575f80fd5b614c8089828a01614c06565b90975095505060208701356001600160401b03811115614c9e575f80fd5b614caa89828a01614c06565b90955093505060408701356001600160401b03811115614cc8575f80fd5b614cd489828a01614c06565b979a9699509497509295939492505050565b6001600160a01b0381168114614b67575f80fd5b5f8060408385031215614d0b575f80fd5b8235614d1681614ce6565b915060208301355f81900b8114614d2b575f80fd5b809150509250929050565b5f8083601f840112614d46575f80fd5b5081356001600160401b03811115614d5c575f80fd5b6020830191508360208260051b8501011115614c43575f80fd5b5f805f8060408587031215614d89575f80fd5b84356001600160401b03811115614d9e575f80fd5b614daa87828801614c06565b90955093505060208501356001600160401b03811115614dc8575f80fd5b614dd487828801614d36565b95989497509550505050565b5f82825180855260208501945060208160051b830101602085015f5b83811015614e2e57601f19858403018852614e18838351614b95565b6020988901989093509190910190600101614dfc565b50909695505050505050565b5f81516101008452614e50610100850182614b95565b905060208301518482036020860152614e698282614b95565b91505060408301518482036040860152614e838282614b95565b91505060608301518482036060860152614e9d8282614de0565b9150506080830151608085015260a083015184820360a0860152614ec18282614b95565b91505060c083015160c085015260e083015160e08501528091505092915050565b828152604060208201525f6137bb6040830184614e3a565b806101408101831015614f0b575f80fd5b92915050565b5f806102808385031215614f23575f80fd5b614f2d8484614efa565b9150614f3d846101408501614efa565b90509250929050565b5f8060408385031215614f57575f80fd5b8235614f6281614ce6565b946020939093013593505050565b602081525f82516101206020840152614f8d610140840182614b95565b90506020840151601f19848303016040850152614faa8282614b95565b9150506040840151601f19848303016060850152614fc88282614b95565b915050606084015160808401526080840151614fea60a085018261ffff169052565b5060a084015160ff811660c08501525060c084015160e084015260e084015161501a61010085018261ffff169052565b5061010084015161ffff81166101208501526133ae565b634e487b7160e01b5f52602160045260245ffd5b602081016006831061506557634e487b7160e01b5f52602160045260245ffd5b91905290565b5f806020838503121561507c575f80fd5b82356001600160401b03811115615091575f80fd5b61509d85828601614d36565b90969095509350505050565b634e487b7160e01b5f52604160045260245ffd5b60405161010081016001600160401b03811182821017156150e0576150e06150a9565b60405290565b604051601f8201601f191681016001600160401b038111828210171561510e5761510e6150a9565b604052919050565b5f82601f830112615125575f80fd5b81356001600160401b0381111561513e5761513e6150a9565b615151601f8201601f19166020016150e6565b818152846020838601011115615165575f80fd5b816020850160208301375f918101602001919091529392505050565b5f82601f830112615190575f80fd5b81356001600160401b038111156151a9576151a96150a9565b8060051b6151b9602082016150e6565b918252602081850181019290810190868411156151d4575f80fd5b6020860192505b838310156152195782356001600160401b038111156151f8575f80fd5b615207886020838a0101615116565b835250602092830192909101906151db565b9695505050505050565b5f60208284031215615233575f80fd5b81356001600160401b03811115615248575f80fd5b8201610100818503121561525a575f80fd5b6152626150bd565b81356001600160401b03811115615277575f80fd5b61528386828501615116565b82525060208201356001600160401b0381111561529e575f80fd5b6152aa86828501615116565b60208301525060408201356001600160401b038111156152c8575f80fd5b6152d486828501615116565b60408301525060608201356001600160401b038111156152f2575f80fd5b6152fe86828501615181565b6060830152506080828101359082015260a08201356001600160401b03811115615326575f80fd5b61533286828501615116565b60a08301525060c0828101359082015260e091820135918101919091529392505050565b803561ffff81168114615367575f80fd5b919050565b803560ff81168114615367575f80fd5b80358015158114615367575f80fd5b5f805f6060848603121561539d575f80fd5b6153a684615356565b92506153b46020850161536c565b91506153c26040850161537c565b90509250925092565b60e081525f6153dd60e083018a614b95565b82810360208401526153ef818a614b95565b905082810360408401526154038189614b95565b9050866060840152828103608084015261541d8187614b95565b60a0840195909552505060c0015295945050505050565b5f60208284031215615444575f80fd5b813561544f81614ce6565b9392505050565b61012081525f61546a61012083018c614b95565b828103602084015261547c818c614b95565b90508281036040840152615490818b614b95565b6060840199909952505061ffff958616608082015260ff9490941660a085015260c0840192909252831660e0830152909116610100909101529392505050565b5f8061050083850312156154e2575f80fd5b6154ec8484614efa565b915083610500840111156154fe575f80fd5b5092610140919091019150565b602080825282518282018190525f918401906040840190835b8181101561554b5783516001600160a01b0316835260209384019390920191600101615524565b509095945050505050565b600181811c9082168061556a57607f821691505b60208210810361558857634e487b7160e01b5f52602260045260245ffd5b50919050565b634e487b7160e01b5f52603260045260245ffd5b634e487b7160e01b5f52601160045260245ffd5b5f60ff821660ff81036155cb576155cb6155a2565b60010192915050565b81810381811115614f0b57614f0b6155a2565b601f821115614ac357805f5260205f20601f840160051c8101602085101561560c5750805b601f840160051c820191505b8181101561562b575f8155600101615618565b5050505050565b5f19600383901b1c191660019190911b1790565b6001600160401b0383111561565d5761565d6150a9565b6156718361566b8354615556565b836155e7565b5f601f84116001811461569d575f851561568b5750838201355b6156958682615632565b84555061562b565b5f83815260208120601f198716915b828110156156cc57868501358255602094850194600190920191016156ac565b50868210156156e8575f1960f88860031b161c19848701351681555b505060018560011b0183555050505050565b81835281816020850137505f828201602090810191909152601f909101601f19169091010190565b606081525f61573560608301888a6156fa565b82810360208401526157488187896156fa565b9050828103604084015261575d8185876156fa565b9998505050505050505050565b8082018281125f831280158216821582161715615789576157896155a2565b505092915050565b5f61ffff821661ffff81036155cb576155cb6155a2565b5f600182016157b9576157b96155a2565b5060010190565b5f816157ce576157ce6155a2565b505f190190565b5f82810b9082900b03607f198112607f82131715614f0b57614f0b6155a2565b5f8235605e19833603018112615809575f80fd5b9190910192915050565b8135815560018101602083013561582981614ce6565b81546001600160a01b0319166001600160a01b0391909116179055604082013536839003601e1901811261585b575f80fd5b820180356001600160401b03811115615872575f80fd5b602082019150803603821315615886575f80fd5b600283016001600160401b038211156158a1576158a16150a9565b6158af8261566b8354615556565b5f601f8311600181146158db575f84156158c95750848201355b6158d38582615632565b845550615932565b5f83815260208120601f198616915b8281101561590a57878501358255602094850194600190920191016158ea565b5085821015615926575f1960f88760031b161c19848801351681555b505060018460011b0183555b50505050505050565b602081525f6137bb6020830184866156fa565b602081525f61544f6020830184614e3a565b63ffffffff8181168382160190811115614f0b57614f0b6155a2565b5f8183825b600a8110156159b357813561599581614ce6565b6001600160a01b031683526020928301929190910190600101615981565b5050506101408201905092915050565b60ff81811683821602908116908181146159df576159df6155a2565b5092915050565b80820180821115614f0b57614f0b6155a2565b5f81518060208401855e5f93019283525090919050565b5f615a2d615a27615a2184886159f9565b866159f9565b846159f9565b95945050505050565b81516001600160401b03811115615a4f57615a4f6150a9565b615a6381615a5d8454615556565b846155e7565b6020601f821160018114615a90575f8315615a7e5750848201515b615a888482615632565b85555061562b565b5f84815260208120601f198516915b82811015615abf5787850151825560209485019460019092019101615a9f565b5084821015615adc57868401515f19600387901b60f8161c191681555b50505050600190811b01905550565b60f09390931b6001600160f01b031916835260f891821b6001600160f81b03191660028401521515901b600382015260040190565b5f60ff821680615b3257615b326155a2565b5f190192915050565b60ff8281168282160390811115614f0b57614f0b6155a2565b60ff8181168382160190811115614f0b57614f0b6155a2565b5f60ff831680615b8b57634e487b7160e01b5f52601260045260245ffd5b8060ff84160491505092915050565b5f60208284031215615baa575f80fd5b61544f82615356565b5f60208284031215615bc3575f80fd5b61544f8261536c565b5f60208284031215615bdc575f80fd5b61544f8261537c565b61ffff8181168382160190811115614f0b57614f0b6155a2565b5f818354839150845f5260205f205f5b82811015615c365781546001600160a01b0316845260209093019260019182019101615c0f565b50919594505050505056fea264697066735822122025ac8653bc388043d6c9a7997694d2c8b8fd5a6c3f4d112c854aedc64698698f64736f6c634300081a0033",
			"opcodes": "PUSH1 0xA0 PUSH1 0x40 MSTORE PUSH1 0x9 DUP1 SLOAD PUSH1 0xFF NOT SWAP1 DUP2 AND SWAP1 SWAP2 SSTORE PUSH1 0x7C DUP1 SLOAD SWAP1 SWAP2 AND PUSH1 0x32 OR SWAP1 SSTORE CALLVALUE DUP1 ISZERO PUSH2 0x28 JUMPI PUSH0 DUP1 REVERT JUMPDEST POP PUSH1 0x40 MLOAD PUSH2 0x5FFD CODESIZE SUB DUP1 PUSH2 0x5FFD DUP4 CODECOPY DUP2 ADD PUSH1 0x40 DUP2 SWAP1 MSTORE PUSH2 0x47 SWAP2 PUSH2 0x13C JUMP JUMPDEST PUSH1 0x2 DUP1 SLOAD PUSH1 0x1 PUSH1 0x1 PUSH1 0xA0 SHL SUB NOT AND PUSH1 0x1 PUSH1 0x1 PUSH1 0xA0 SHL SUB DUP5 AND OR SWAP1 SSTORE TIMESTAMP PUSH1 0x80 DUP2 SWAP1 MSTORE PUSH2 0x75 SWAP1 PUSH3 0x24EA00 PUSH2 0x20B JUMP JUMPDEST PUSH0 DUP2 SWAP1 SSTORE PUSH2 0x87 SWAP1 PUSH3 0x127500 SWAP1 PUSH2 0x20B JUMP JUMPDEST PUSH2 0x94 SWAP1 PUSH3 0x15180 PUSH2 0x20B JUMP JUMPDEST PUSH1 0x1 SWAP1 DUP2 SSTORE PUSH1 0x5 DUP1 SLOAD SWAP2 DUP3 ADD DUP2 SSTORE PUSH0 DUP2 SWAP1 MSTORE MUL PUSH32 0x36B6384B5ECA791C62761152D0C79BB0604C104A5FB6F4EB0703F3154BB3DB0 DUP2 ADD DUP1 SLOAD PUSH1 0x1 PUSH1 0x1 PUSH1 0xA0 SHL SUB NOT AND CALLER OR DUP2 SSTORE SWAP1 PUSH32 0x36B6384B5ECA791C62761152D0C79BB0604C104A5FB6F4EB0703F3154BB3DB1 ADD PUSH2 0x107 DUP4 DUP3 PUSH2 0x2B4 JUMP JUMPDEST POP PUSH1 0x80 MLOAD PUSH1 0x2 DUP3 ADD SSTORE PUSH1 0x3 ADD DUP1 SLOAD PUSH2 0xFFFF NOT AND PUSH2 0x3200 OR SWAP1 SSTORE POP PUSH2 0x36E SWAP1 POP JUMP JUMPDEST PUSH4 0x4E487B71 PUSH1 0xE0 SHL PUSH0 MSTORE PUSH1 0x41 PUSH1 0x4 MSTORE PUSH1 0x24 PUSH0 REVERT JUMPDEST PUSH0 DUP1 PUSH1 0x40 DUP4 DUP6 SUB SLT ISZERO PUSH2 0x14D JUMPI PUSH0 DUP1 REVERT JUMPDEST DUP3 MLOAD PUSH1 0x1 PUSH1 0x1 PUSH1 0xA0 SHL SUB DUP2 AND DUP2 EQ PUSH2 0x163 JUMPI PUSH0 DUP1 REVERT JUMPDEST PUSH1 0x20 DUP5 ADD MLOAD SWAP1 SWAP3 POP PUSH1 0x1 PUSH1 0x1 PUSH1 0x40 SHL SUB DUP2 GT ISZERO PUSH2 0x17E JUMPI PUSH0 DUP1 REVERT JUMPDEST DUP4 ADD PUSH1 0x1F DUP2 ADD DUP6 SGT PUSH2 0x18E JUMPI PUSH0 DUP1 REVERT JUMPDEST DUP1 MLOAD PUSH1 0x1 PUSH1 0x1 PUSH1 0x40 SHL SUB DUP2 GT ISZERO PUSH2 0x1A7 JUMPI PUSH2 0x1A7 PUSH2 0x128 JUMP JUMPDEST PUSH1 0x40 MLOAD PUSH1 0x1F DUP3 ADD PUSH1 0x1F NOT SWAP1 DUP2 AND PUSH1 0x3F ADD AND DUP2 ADD PUSH1 0x1 PUSH1 0x1 PUSH1 0x40 SHL SUB DUP2 GT DUP3 DUP3 LT OR ISZERO PUSH2 0x1D5 JUMPI PUSH2 0x1D5 PUSH2 0x128 JUMP JUMPDEST PUSH1 0x40 MSTORE DUP2 DUP2 MSTORE DUP3 DUP3 ADD PUSH1 0x20 ADD DUP8 LT ISZERO PUSH2 0x1EC JUMPI PUSH0 DUP1 REVERT JUMPDEST DUP2 PUSH1 0x20 DUP5 ADD PUSH1 0x20 DUP4 ADD MCOPY PUSH0 PUSH1 0x20 DUP4 DUP4 ADD ADD MSTORE DUP1 SWAP4 POP POP POP POP SWAP3 POP SWAP3 SWAP1 POP JUMP JUMPDEST DUP1 DUP3 ADD DUP1 DUP3 GT ISZERO PUSH2 0x22A JUMPI PUSH4 0x4E487B71 PUSH1 0xE0 SHL PUSH0 MSTORE PUSH1 0x11 PUSH1 0x4 MSTORE PUSH1 0x24 PUSH0 REVERT JUMPDEST SWAP3 SWAP2 POP POP JUMP JUMPDEST PUSH1 0x1 DUP2 DUP2 SHR SWAP1 DUP3 AND DUP1 PUSH2 0x244 JUMPI PUSH1 0x7F DUP3 AND SWAP2 POP JUMPDEST PUSH1 0x20 DUP3 LT DUP2 SUB PUSH2 0x262 JUMPI PUSH4 0x4E487B71 PUSH1 0xE0 SHL PUSH0 MSTORE PUSH1 0x22 PUSH1 0x4 MSTORE PUSH1 0x24 PUSH0 REVERT JUMPDEST POP SWAP2 SWAP1 POP JUMP JUMPDEST PUSH1 0x1F DUP3 GT ISZERO PUSH2 0x2AF JUMPI DUP1 PUSH0 MSTORE PUSH1 0x20 PUSH0 KECCAK256 PUSH1 0x1F DUP5 ADD PUSH1 0x5 SHR DUP2 ADD PUSH1 0x20 DUP6 LT ISZERO PUSH2 0x28D JUMPI POP DUP1 JUMPDEST PUSH1 0x1F DUP5 ADD PUSH1 0x5 SHR DUP3 ADD SWAP2 POP JUMPDEST DUP2 DUP2 LT ISZERO PUSH2 0x2AC JUMPI PUSH0 DUP2 SSTORE PUSH1 0x1 ADD PUSH2 0x299 JUMP JUMPDEST POP POP JUMPDEST POP POP POP JUMP JUMPDEST DUP2 MLOAD PUSH1 0x1 PUSH1 0x1 PUSH1 0x40 SHL SUB DUP2 GT ISZERO PUSH2 0x2CD JUMPI PUSH2 0x2CD PUSH2 0x128 JUMP JUMPDEST PUSH2 0x2E1 DUP2 PUSH2 0x2DB DUP5 SLOAD PUSH2 0x230 JUMP JUMPDEST DUP5 PUSH2 0x268 JUMP JUMPDEST PUSH1 0x20 PUSH1 0x1F DUP3 GT PUSH1 0x1 DUP2 EQ PUSH2 0x313 JUMPI PUSH0 DUP4 ISZERO PUSH2 0x2FC JUMPI POP DUP5 DUP3 ADD MLOAD JUMPDEST PUSH0 NOT PUSH1 0x3 DUP6 SWAP1 SHL SHR NOT AND PUSH1 0x1 DUP5 SWAP1 SHL OR DUP5 SSTORE PUSH2 0x2AC JUMP JUMPDEST PUSH0 DUP5 DUP2 MSTORE PUSH1 0x20 DUP2 KECCAK256 PUSH1 0x1F NOT DUP6 AND SWAP2 JUMPDEST DUP3 DUP2 LT ISZERO PUSH2 0x342 JUMPI DUP8 DUP6 ADD MLOAD DUP3 SSTORE PUSH1 0x20 SWAP5 DUP6 ADD SWAP5 PUSH1 0x1 SWAP1 SWAP3 ADD SWAP2 ADD PUSH2 0x322 JUMP JUMPDEST POP DUP5 DUP3 LT ISZERO PUSH2 0x35F JUMPI DUP7 DUP5 ADD MLOAD PUSH0 NOT PUSH1 0x3 DUP8 SWAP1 SHL PUSH1 0xF8 AND SHR NOT AND DUP2 SSTORE JUMPDEST POP POP POP POP PUSH1 0x1 SWAP1 DUP2 SHL ADD SWAP1 SSTORE POP JUMP JUMPDEST PUSH1 0x80 MLOAD PUSH2 0x5C77 PUSH2 0x386 PUSH0 CODECOPY PUSH0 PUSH2 0x602 ADD MSTORE PUSH2 0x5C77 PUSH0 RETURN INVALID PUSH1 0x80 PUSH1 0x40 MSTORE PUSH1 0x4 CALLDATASIZE LT PUSH2 0x341 JUMPI PUSH0 CALLDATALOAD PUSH1 0xE0 SHR DUP1 PUSH4 0xA6A5AD12 GT PUSH2 0x1BD JUMPI DUP1 PUSH4 0xC1B13157 GT PUSH2 0xF2 JUMPI DUP1 PUSH4 0xE965B7C9 GT PUSH2 0x92 JUMPI DUP1 PUSH4 0xECCF1F10 GT PUSH2 0x6D JUMPI DUP1 PUSH4 0xECCF1F10 EQ PUSH2 0x992 JUMPI DUP1 PUSH4 0xEEDB2D28 EQ PUSH2 0x9B3 JUMPI DUP1 PUSH4 0xF33E9573 EQ PUSH2 0x9C8 JUMPI DUP1 PUSH4 0xF9F8BDB7 EQ PUSH2 0x9E7 JUMPI PUSH0 DUP1 REVERT JUMPDEST DUP1 PUSH4 0xE965B7C9 EQ PUSH2 0x911 JUMPI DUP1 PUSH4 0xEA84F8C4 EQ PUSH2 0x945 JUMPI DUP1 PUSH4 0xEAB536FC EQ PUSH2 0x964 JUMPI PUSH0 DUP1 REVERT JUMPDEST DUP1 PUSH4 0xD1791AE0 GT PUSH2 0xCD JUMPI DUP1 PUSH4 0xD1791AE0 EQ PUSH2 0x8AC JUMPI DUP1 PUSH4 0xE1F02FFA EQ PUSH2 0x8C2 JUMPI DUP1 PUSH4 0xE292BF16 EQ PUSH2 0x8E1 JUMPI DUP1 PUSH4 0xE42A54C4 EQ PUSH2 0x8F5 JUMPI PUSH0 DUP1 REVERT JUMPDEST DUP1 PUSH4 0xC1B13157 EQ PUSH2 0x85F JUMPI DUP1 PUSH4 0xC8D7B9F1 EQ PUSH2 0x87E JUMPI DUP1 PUSH4 0xCE7EA161 EQ PUSH2 0x897 JUMPI PUSH0 DUP1 REVERT JUMPDEST DUP1 PUSH4 0xBB3AA2D3 GT PUSH2 0x15D JUMPI DUP1 PUSH4 0xBDC8E7B3 GT PUSH2 0x138 JUMPI DUP1 PUSH4 0xBDC8E7B3 EQ PUSH2 0x803 JUMPI DUP1 PUSH4 0xBE003EE6 EQ PUSH2 0x822 JUMPI DUP1 PUSH4 0xBE07F0F8 EQ PUSH2 0x836 JUMPI DUP1 PUSH4 0xBEB54795 EQ PUSH2 0x84A JUMPI PUSH0 DUP1 REVERT JUMPDEST DUP1 PUSH4 0xBB3AA2D3 EQ PUSH2 0x779 JUMPI DUP1 PUSH4 0xBBB8279D EQ PUSH2 0x798 JUMPI DUP1 PUSH4 0xBBEA6F0B EQ PUSH2 0x7D1 JUMPI PUSH0 DUP1 REVERT JUMPDEST DUP1 PUSH4 0xB3913777 GT PUSH2 0x198 JUMPI DUP1 PUSH4 0xB3913777 EQ PUSH2 0x717 JUMPI DUP1 PUSH4 0xB85C2292 EQ PUSH2 0x73B JUMPI DUP1 PUSH4 0xBAB752E5 EQ PUSH2 0x74F JUMPI DUP1 PUSH4 0xBB2C88A0 EQ PUSH2 0x764 JUMPI PUSH0 DUP1 REVERT JUMPDEST DUP1 PUSH4 0xA6A5AD12 EQ PUSH2 0x6C6 JUMPI DUP1 PUSH4 0xB13C744B EQ PUSH2 0x6E5 JUMPI DUP1 PUSH4 0xB13D8F15 EQ PUSH2 0x704 JUMPI PUSH0 DUP1 REVERT JUMPDEST DUP1 PUSH4 0x4D0C8726 GT PUSH2 0x293 JUMPI DUP1 PUSH4 0x78E97925 GT PUSH2 0x233 JUMPI DUP1 PUSH4 0x97DFFC61 GT PUSH2 0x20E JUMPI DUP1 PUSH4 0x97DFFC61 EQ PUSH2 0x64B JUMPI DUP1 PUSH4 0x9DC99455 EQ PUSH2 0x653 JUMPI DUP1 PUSH4 0xA3A40EA5 EQ PUSH2 0x691 JUMPI DUP1 PUSH4 0xA5F5B1BF EQ PUSH2 0x6B2 JUMPI PUSH0 DUP1 REVERT JUMPDEST DUP1 PUSH4 0x78E97925 EQ PUSH2 0x5F1 JUMPI DUP1 PUSH4 0x7D48536D EQ PUSH2 0x624 JUMPI DUP1 PUSH4 0x86A0DD7D EQ PUSH2 0x637 JUMPI PUSH0 DUP1 REVERT JUMPDEST DUP1 PUSH4 0x5204743A GT PUSH2 0x26E JUMPI DUP1 PUSH4 0x5204743A EQ PUSH2 0x55E JUMPI DUP1 PUSH4 0x53FDC838 EQ PUSH2 0x57D JUMPI DUP1 PUSH4 0x54C17527 EQ PUSH2 0x5B1 JUMPI DUP1 PUSH4 0x70F67CFE EQ PUSH2 0x5C5 JUMPI PUSH0 DUP1 REVERT JUMPDEST DUP1 PUSH4 0x4D0C8726 EQ PUSH2 0x4F7 JUMPI DUP1 PUSH4 0x4EBEB109 EQ PUSH2 0x52E JUMPI DUP1 PUSH4 0x5004E24A EQ PUSH2 0x548 JUMPI PUSH0 DUP1 REVERT JUMPDEST DUP1 PUSH4 0x1B408934 GT PUSH2 0x2FE JUMPI DUP1 PUSH4 0x3DEF77B7 GT PUSH2 0x2D9 JUMPI DUP1 PUSH4 0x3DEF77B7 EQ PUSH2 0x497 JUMPI DUP1 PUSH4 0x452D32BB EQ PUSH2 0x4C1 JUMPI DUP1 PUSH4 0x49066E79 EQ PUSH2 0x3ED JUMPI DUP1 PUSH4 0x491DE471 EQ PUSH2 0x4E3 JUMPI PUSH0 DUP1 REVERT JUMPDEST DUP1 PUSH4 0x1B408934 EQ PUSH2 0x425 JUMPI DUP1 PUSH4 0x29C83BE1 EQ PUSH2 0x459 JUMPI DUP1 PUSH4 0x3B497B28 EQ PUSH2 0x478 JUMPI PUSH0 DUP1 REVERT JUMPDEST DUP1 PUSH4 0x13CF08B EQ PUSH2 0x345 JUMPI DUP1 PUSH4 0x45C6CE0 EQ PUSH2 0x37E JUMPI DUP1 PUSH4 0x79DDD11 EQ PUSH2 0x3AF JUMPI DUP1 PUSH4 0x89E35B8 EQ PUSH2 0x3C4 JUMPI DUP1 PUSH4 0x8FD4CFA EQ PUSH2 0x3ED JUMPI DUP1 PUSH4 0x12065FE0 EQ PUSH2 0x411 JUMPI JUMPDEST PUSH0 DUP1 REVERT JUMPDEST CALLVALUE DUP1 ISZERO PUSH2 0x350 JUMPI PUSH0 DUP1 REVERT JUMPDEST POP PUSH2 0x364 PUSH2 0x35F CALLDATASIZE PUSH1 0x4 PUSH2 0x4B7E JUMP JUMPDEST PUSH2 0x9FC JUMP JUMPDEST PUSH1 0x40 MLOAD PUSH2 0x375 SWAP6 SWAP5 SWAP4 SWAP3 SWAP2 SWAP1 PUSH2 0x4BC3 JUMP JUMPDEST PUSH1 0x40 MLOAD DUP1 SWAP2 SUB SWAP1 RETURN JUMPDEST CALLVALUE DUP1 ISZERO PUSH2 0x389 JUMPI PUSH0 DUP1 REVERT JUMPDEST POP PUSH2 0x39D PUSH2 0x398 CALLDATASIZE PUSH1 0x4 PUSH2 0x4B7E JUMP JUMPDEST PUSH2 0xAD3 JUMP JUMPDEST PUSH1 0x40 MLOAD PUSH1 0xFF SWAP1 SWAP2 AND DUP2 MSTORE PUSH1 0x20 ADD PUSH2 0x375 JUMP JUMPDEST PUSH2 0x3C2 PUSH2 0x3BD CALLDATASIZE PUSH1 0x4 PUSH2 0x4C4A JUMP JUMPDEST PUSH2 0xD6B JUMP JUMPDEST STOP JUMPDEST CALLVALUE DUP1 ISZERO PUSH2 0x3CF JUMPI PUSH0 DUP1 REVERT JUMPDEST POP PUSH1 0x9 SLOAD PUSH2 0x3DD SWAP1 PUSH1 0xFF AND DUP2 JUMP JUMPDEST PUSH1 0x40 MLOAD SWAP1 ISZERO ISZERO DUP2 MSTORE PUSH1 0x20 ADD PUSH2 0x375 JUMP JUMPDEST CALLVALUE DUP1 ISZERO PUSH2 0x3F8 JUMPI PUSH0 DUP1 REVERT JUMPDEST POP PUSH2 0x403 PUSH3 0x127500 DUP2 JUMP JUMPDEST PUSH1 0x40 MLOAD SWAP1 DUP2 MSTORE PUSH1 0x20 ADD PUSH2 0x375 JUMP JUMPDEST CALLVALUE DUP1 ISZERO PUSH2 0x41C JUMPI PUSH0 DUP1 REVERT JUMPDEST POP PUSH2 0x403 PUSH2 0x10B0 JUMP JUMPDEST CALLVALUE DUP1 ISZERO PUSH2 0x430 JUMPI PUSH0 DUP1 REVERT JUMPDEST POP PUSH1 0x2 SLOAD PUSH2 0x446 SWAP1 PUSH1 0x1 PUSH1 0xA0 SHL SWAP1 DIV PUSH2 0xFFFF AND DUP2 JUMP JUMPDEST PUSH1 0x40 MLOAD PUSH2 0xFFFF SWAP1 SWAP2 AND DUP2 MSTORE PUSH1 0x20 ADD PUSH2 0x375 JUMP JUMPDEST CALLVALUE DUP1 ISZERO PUSH2 0x464 JUMPI PUSH0 DUP1 REVERT JUMPDEST POP PUSH2 0x3C2 PUSH2 0x473 CALLDATASIZE PUSH1 0x4 PUSH2 0x4CFA JUMP JUMPDEST PUSH2 0x1123 JUMP JUMPDEST CALLVALUE DUP1 ISZERO PUSH2 0x483 JUMPI PUSH0 DUP1 REVERT JUMPDEST POP PUSH2 0x403 PUSH2 0x492 CALLDATASIZE PUSH1 0x4 PUSH2 0x4D76 JUMP JUMPDEST PUSH2 0x1333 JUMP JUMPDEST CALLVALUE DUP1 ISZERO PUSH2 0x4A2 JUMPI PUSH0 DUP1 REVERT JUMPDEST POP PUSH2 0x4AC PUSH2 0x4B0 DUP2 JUMP JUMPDEST PUSH1 0x40 MLOAD PUSH4 0xFFFFFFFF SWAP1 SWAP2 AND DUP2 MSTORE PUSH1 0x20 ADD PUSH2 0x375 JUMP JUMPDEST CALLVALUE DUP1 ISZERO PUSH2 0x4CC JUMPI PUSH0 DUP1 REVERT JUMPDEST POP PUSH2 0x4D5 PUSH2 0x1566 JUMP JUMPDEST PUSH1 0x40 MLOAD PUSH2 0x375 SWAP3 SWAP2 SWAP1 PUSH2 0x4EE2 JUMP JUMPDEST CALLVALUE DUP1 ISZERO PUSH2 0x4EE JUMPI PUSH0 DUP1 REVERT JUMPDEST POP PUSH2 0x403 PUSH1 0x2 DUP2 JUMP JUMPDEST CALLVALUE DUP1 ISZERO PUSH2 0x502 JUMPI PUSH0 DUP1 REVERT JUMPDEST POP PUSH1 0x2 SLOAD PUSH2 0x516 SWAP1 PUSH1 0x1 PUSH1 0x1 PUSH1 0xA0 SHL SUB AND DUP2 JUMP JUMPDEST PUSH1 0x40 MLOAD PUSH1 0x1 PUSH1 0x1 PUSH1 0xA0 SHL SUB SWAP1 SWAP2 AND DUP2 MSTORE PUSH1 0x20 ADD PUSH2 0x375 JUMP JUMPDEST CALLVALUE DUP1 ISZERO PUSH2 0x539 JUMPI PUSH0 DUP1 REVERT JUMPDEST POP PUSH2 0x403 PUSH7 0x38D7EA4C68000 DUP2 JUMP JUMPDEST CALLVALUE DUP1 ISZERO PUSH2 0x553 JUMPI PUSH0 DUP1 REVERT JUMPDEST POP PUSH2 0x403 PUSH3 0x5C4900 DUP2 JUMP JUMPDEST CALLVALUE DUP1 ISZERO PUSH2 0x569 JUMPI PUSH0 DUP1 REVERT JUMPDEST POP PUSH2 0x3C2 PUSH2 0x578 CALLDATASIZE PUSH1 0x4 PUSH2 0x4F11 JUMP JUMPDEST PUSH2 0x1D8C JUMP JUMPDEST CALLVALUE DUP1 ISZERO PUSH2 0x588 JUMPI PUSH0 DUP1 REVERT JUMPDEST POP PUSH2 0x59C PUSH2 0x597 CALLDATASIZE PUSH1 0x4 PUSH2 0x4F46 JUMP JUMPDEST PUSH2 0x2283 JUMP JUMPDEST PUSH1 0x40 DUP1 MLOAD SWAP3 DUP4 MSTORE PUSH1 0x20 DUP4 ADD SWAP2 SWAP1 SWAP2 MSTORE ADD PUSH2 0x375 JUMP JUMPDEST CALLVALUE DUP1 ISZERO PUSH2 0x5BC JUMPI PUSH0 DUP1 REVERT JUMPDEST POP PUSH2 0x403 PUSH1 0xA DUP2 JUMP JUMPDEST CALLVALUE DUP1 ISZERO PUSH2 0x5D0 JUMPI PUSH0 DUP1 REVERT JUMPDEST POP PUSH2 0x5E4 PUSH2 0x5DF CALLDATASIZE PUSH1 0x4 PUSH2 0x4B7E JUMP JUMPDEST PUSH2 0x22BB JUMP JUMPDEST PUSH1 0x40 MLOAD PUSH2 0x375 SWAP2 SWAP1 PUSH2 0x4F70 JUMP JUMPDEST CALLVALUE DUP1 ISZERO PUSH2 0x5FC JUMPI PUSH0 DUP1 REVERT JUMPDEST POP PUSH2 0x403 PUSH32 0x0 DUP2 JUMP JUMPDEST CALLVALUE DUP1 ISZERO PUSH2 0x62F JUMPI PUSH0 DUP1 REVERT JUMPDEST POP PUSH2 0x403 PUSH0 DUP2 JUMP JUMPDEST CALLVALUE DUP1 ISZERO PUSH2 0x642 JUMPI PUSH0 DUP1 REVERT JUMPDEST POP PUSH2 0x39D PUSH1 0xA DUP2 JUMP JUMPDEST PUSH2 0x3C2 PUSH2 0x25A1 JUMP JUMPDEST CALLVALUE DUP1 ISZERO PUSH2 0x65E JUMPI PUSH0 DUP1 REVERT JUMPDEST POP PUSH2 0x672 PUSH2 0x66D CALLDATASIZE PUSH1 0x4 PUSH2 0x4B7E JUMP JUMPDEST PUSH2 0x261B JUMP JUMPDEST PUSH1 0x40 DUP1 MLOAD PUSH1 0x1 PUSH1 0x1 PUSH1 0xA0 SHL SUB SWAP1 SWAP4 AND DUP4 MSTORE PUSH1 0x20 DUP4 ADD SWAP2 SWAP1 SWAP2 MSTORE ADD PUSH2 0x375 JUMP JUMPDEST CALLVALUE DUP1 ISZERO PUSH2 0x69C JUMPI PUSH0 DUP1 REVERT JUMPDEST POP PUSH2 0x6A5 PUSH2 0x2646 JUMP JUMPDEST PUSH1 0x40 MLOAD PUSH2 0x375 SWAP2 SWAP1 PUSH2 0x5045 JUMP JUMPDEST CALLVALUE DUP1 ISZERO PUSH2 0x6BD JUMPI PUSH0 DUP1 REVERT JUMPDEST POP PUSH2 0x3C2 PUSH2 0x2714 JUMP JUMPDEST CALLVALUE DUP1 ISZERO PUSH2 0x6D1 JUMPI PUSH0 DUP1 REVERT JUMPDEST POP PUSH2 0x3C2 PUSH2 0x6E0 CALLDATASIZE PUSH1 0x4 PUSH2 0x506B JUMP JUMPDEST PUSH2 0x2883 JUMP JUMPDEST CALLVALUE DUP1 ISZERO PUSH2 0x6F0 JUMPI PUSH0 DUP1 REVERT JUMPDEST POP PUSH2 0x516 PUSH2 0x6FF CALLDATASIZE PUSH1 0x4 PUSH2 0x4B7E JUMP JUMPDEST PUSH2 0x2B95 JUMP JUMPDEST PUSH2 0x3C2 PUSH2 0x712 CALLDATASIZE PUSH1 0x4 PUSH2 0x5223 JUMP JUMPDEST PUSH2 0x2BBD JUMP JUMPDEST CALLVALUE DUP1 ISZERO PUSH2 0x722 JUMPI PUSH0 DUP1 REVERT JUMPDEST POP PUSH1 0x9 SLOAD PUSH2 0x516 SWAP1 PUSH2 0x100 SWAP1 DIV PUSH1 0x1 PUSH1 0x1 PUSH1 0xA0 SHL SUB AND DUP2 JUMP JUMPDEST CALLVALUE DUP1 ISZERO PUSH2 0x746 JUMPI PUSH0 DUP1 REVERT JUMPDEST POP PUSH2 0x39D PUSH1 0x1E DUP2 JUMP JUMPDEST CALLVALUE DUP1 ISZERO PUSH2 0x75A JUMPI PUSH0 DUP1 REVERT JUMPDEST POP PUSH2 0x403 PUSH1 0x6 SLOAD DUP2 JUMP JUMPDEST CALLVALUE DUP1 ISZERO PUSH2 0x76F JUMPI PUSH0 DUP1 REVERT JUMPDEST POP PUSH2 0x403 PUSH1 0xA SLOAD DUP2 JUMP JUMPDEST CALLVALUE DUP1 ISZERO PUSH2 0x784 JUMPI PUSH0 DUP1 REVERT JUMPDEST POP PUSH2 0x3DD PUSH2 0x793 CALLDATASIZE PUSH1 0x4 PUSH2 0x538B JUMP JUMPDEST PUSH2 0x2F68 JUMP JUMPDEST CALLVALUE DUP1 ISZERO PUSH2 0x7A3 JUMPI PUSH0 DUP1 REVERT JUMPDEST POP PUSH2 0x3DD PUSH2 0x7B2 CALLDATASIZE PUSH1 0x4 PUSH2 0x4F46 JUMP JUMPDEST PUSH1 0xB PUSH1 0x20 SWAP1 DUP2 MSTORE PUSH0 SWAP3 DUP4 MSTORE PUSH1 0x40 DUP1 DUP5 KECCAK256 SWAP1 SWAP2 MSTORE SWAP1 DUP3 MSTORE SWAP1 KECCAK256 SLOAD PUSH1 0xFF AND DUP2 JUMP JUMPDEST CALLVALUE DUP1 ISZERO PUSH2 0x7DC JUMPI PUSH0 DUP1 REVERT JUMPDEST POP PUSH2 0x7F0 PUSH2 0x7EB CALLDATASIZE PUSH1 0x4 PUSH2 0x4B7E JUMP JUMPDEST PUSH2 0x2FAF JUMP JUMPDEST PUSH1 0x40 MLOAD PUSH2 0x375 SWAP8 SWAP7 SWAP6 SWAP5 SWAP4 SWAP3 SWAP2 SWAP1 PUSH2 0x53CB JUMP JUMPDEST CALLVALUE DUP1 ISZERO PUSH2 0x80E JUMPI PUSH0 DUP1 REVERT JUMPDEST POP PUSH2 0x39D PUSH2 0x81D CALLDATASIZE PUSH1 0x4 PUSH2 0x4B7E JUMP JUMPDEST PUSH2 0x3214 JUMP JUMPDEST CALLVALUE DUP1 ISZERO PUSH2 0x82D JUMPI PUSH0 DUP1 REVERT JUMPDEST POP PUSH2 0x3C2 PUSH2 0x37C3 JUMP JUMPDEST CALLVALUE DUP1 ISZERO PUSH2 0x841 JUMPI PUSH0 DUP1 REVERT JUMPDEST POP PUSH2 0x403 PUSH0 SLOAD DUP2 JUMP JUMPDEST CALLVALUE DUP1 ISZERO PUSH2 0x855 JUMPI PUSH0 DUP1 REVERT JUMPDEST POP PUSH2 0x403 PUSH2 0x3E8 DUP2 JUMP JUMPDEST CALLVALUE DUP1 ISZERO PUSH2 0x86A JUMPI PUSH0 DUP1 REVERT JUMPDEST POP PUSH2 0x3C2 PUSH2 0x879 CALLDATASIZE PUSH1 0x4 PUSH2 0x506B JUMP JUMPDEST PUSH2 0x3936 JUMP JUMPDEST CALLVALUE DUP1 ISZERO PUSH2 0x889 JUMPI PUSH0 DUP1 REVERT JUMPDEST POP PUSH1 0x7C SLOAD PUSH2 0x39D SWAP1 PUSH1 0xFF AND DUP2 JUMP JUMPDEST CALLVALUE DUP1 ISZERO PUSH2 0x8A2 JUMPI PUSH0 DUP1 REVERT JUMPDEST POP PUSH2 0x403 PUSH1 0x1 SLOAD DUP2 JUMP JUMPDEST CALLVALUE DUP1 ISZERO PUSH2 0x8B7 JUMPI PUSH0 DUP1 REVERT JUMPDEST POP PUSH2 0x4AC PUSH3 0xF4240 DUP2 JUMP JUMPDEST CALLVALUE DUP1 ISZERO PUSH2 0x8CD JUMPI PUSH0 DUP1 REVERT JUMPDEST POP PUSH2 0x3C2 PUSH2 0x8DC CALLDATASIZE PUSH1 0x4 PUSH2 0x4B7E JUMP JUMPDEST PUSH2 0x3BD1 JUMP JUMPDEST CALLVALUE DUP1 ISZERO PUSH2 0x8EC JUMPI PUSH0 DUP1 REVERT JUMPDEST POP PUSH2 0x39D PUSH1 0x32 DUP2 JUMP JUMPDEST CALLVALUE DUP1 ISZERO PUSH2 0x900 JUMPI PUSH0 DUP1 REVERT JUMPDEST POP PUSH1 0xF SLOAD PUSH2 0x4AC SWAP1 PUSH4 0xFFFFFFFF AND DUP2 JUMP JUMPDEST CALLVALUE DUP1 ISZERO PUSH2 0x91C JUMPI PUSH0 DUP1 REVERT JUMPDEST POP PUSH2 0x930 PUSH2 0x92B CALLDATASIZE PUSH1 0x4 PUSH2 0x5434 JUMP JUMPDEST PUSH2 0x3D79 JUMP JUMPDEST PUSH1 0x40 MLOAD PUSH2 0x375 SWAP10 SWAP9 SWAP8 SWAP7 SWAP6 SWAP5 SWAP4 SWAP3 SWAP2 SWAP1 PUSH2 0x5456 JUMP JUMPDEST CALLVALUE DUP1 ISZERO PUSH2 0x950 JUMPI PUSH0 DUP1 REVERT JUMPDEST POP PUSH2 0x3C2 PUSH2 0x95F CALLDATASIZE PUSH1 0x4 PUSH2 0x54D0 JUMP JUMPDEST PUSH2 0x3F5D JUMP JUMPDEST CALLVALUE DUP1 ISZERO PUSH2 0x96F JUMPI PUSH0 DUP1 REVERT JUMPDEST POP PUSH2 0x39D PUSH2 0x97E CALLDATASIZE PUSH1 0x4 PUSH2 0x5434 JUMP JUMPDEST PUSH1 0x7B PUSH1 0x20 MSTORE PUSH0 SWAP1 DUP2 MSTORE PUSH1 0x40 SWAP1 KECCAK256 SLOAD PUSH1 0xFF AND DUP2 JUMP JUMPDEST CALLVALUE DUP1 ISZERO PUSH2 0x99D JUMPI PUSH0 DUP1 REVERT JUMPDEST POP PUSH2 0x9A6 PUSH2 0x4525 JUMP JUMPDEST PUSH1 0x40 MLOAD PUSH2 0x375 SWAP2 SWAP1 PUSH2 0x550B JUMP JUMPDEST CALLVALUE DUP1 ISZERO PUSH2 0x9BE JUMPI PUSH0 DUP1 REVERT JUMPDEST POP PUSH2 0x403 PUSH1 0x10 SLOAD DUP2 JUMP JUMPDEST CALLVALUE DUP1 ISZERO PUSH2 0x9D3 JUMPI PUSH0 DUP1 REVERT JUMPDEST POP PUSH2 0x59C PUSH2 0x9E2 CALLDATASIZE PUSH1 0x4 PUSH2 0x4B7E JUMP JUMPDEST PUSH2 0x492A JUMP JUMPDEST CALLVALUE DUP1 ISZERO PUSH2 0x9F2 JUMPI PUSH0 DUP1 REVERT JUMPDEST POP PUSH2 0x403 PUSH1 0x14 SLOAD DUP2 JUMP JUMPDEST PUSH1 0x5 DUP2 DUP2 SLOAD DUP2 LT PUSH2 0xA0B JUMPI PUSH0 DUP1 REVERT JUMPDEST PUSH0 SWAP2 DUP3 MSTORE PUSH1 0x20 SWAP1 SWAP2 KECCAK256 PUSH1 0x5 SWAP1 SWAP2 MUL ADD DUP1 SLOAD PUSH1 0x1 DUP3 ADD DUP1 SLOAD PUSH1 0x1 PUSH1 0x1 PUSH1 0xA0 SHL SUB SWAP1 SWAP3 AND SWAP4 POP SWAP1 PUSH2 0xA39 SWAP1 PUSH2 0x5556 JUMP JUMPDEST DUP1 PUSH1 0x1F ADD PUSH1 0x20 DUP1 SWAP2 DIV MUL PUSH1 0x20 ADD PUSH1 0x40 MLOAD SWAP1 DUP2 ADD PUSH1 0x40 MSTORE DUP1 SWAP3 SWAP2 SWAP1 DUP2 DUP2 MSTORE PUSH1 0x20 ADD DUP3 DUP1 SLOAD PUSH2 0xA65 SWAP1 PUSH2 0x5556 JUMP JUMPDEST DUP1 ISZERO PUSH2 0xAB0 JUMPI DUP1 PUSH1 0x1F LT PUSH2 0xA87 JUMPI PUSH2 0x100 DUP1 DUP4 SLOAD DIV MUL DUP4 MSTORE SWAP2 PUSH1 0x20 ADD SWAP2 PUSH2 0xAB0 JUMP JUMPDEST DUP3 ADD SWAP2 SWAP1 PUSH0 MSTORE PUSH1 0x20 PUSH0 KECCAK256 SWAP1 JUMPDEST DUP2 SLOAD DUP2 MSTORE SWAP1 PUSH1 0x1 ADD SWAP1 PUSH1 0x20 ADD DUP1 DUP4 GT PUSH2 0xA93 JUMPI DUP3 SWAP1 SUB PUSH1 0x1F AND DUP3 ADD SWAP2 JUMPDEST POP POP POP POP PUSH1 0x2 DUP4 ADD SLOAD PUSH1 0x3 SWAP1 SWAP4 ADD SLOAD SWAP2 SWAP3 SWAP2 PUSH1 0xFF DUP1 DUP3 AND SWAP3 POP PUSH2 0x100 SWAP1 SWAP2 DIV AND DUP6 JUMP JUMPDEST CALLER PUSH0 SWAP1 DUP2 MSTORE PUSH1 0x4 PUSH1 0x20 DUP2 SWAP1 MSTORE PUSH1 0x40 DUP3 KECCAK256 ADD SLOAD PUSH3 0x10000 SWAP1 DIV PUSH1 0xFF AND PUSH2 0xB37 JUMPI PUSH1 0x40 MLOAD PUSH3 0x461BCD PUSH1 0xE5 SHL DUP2 MSTORE PUSH1 0x20 PUSH1 0x4 DUP3 ADD MSTORE PUSH1 0x15 PUSH1 0x24 DUP3 ADD MSTORE PUSH21 0x4F6E6C79206D656D626572732063616E20766F7465 PUSH1 0x58 SHL PUSH1 0x44 DUP3 ADD MSTORE PUSH1 0x64 ADD JUMPDEST PUSH1 0x40 MLOAD DUP1 SWAP2 SUB SWAP1 REVERT JUMPDEST PUSH1 0x5 SLOAD DUP3 LT PUSH2 0xB7E JUMPI PUSH1 0x40 MLOAD PUSH3 0x461BCD PUSH1 0xE5 SHL DUP2 MSTORE PUSH1 0x20 PUSH1 0x4 DUP3 ADD MSTORE PUSH1 0x13 PUSH1 0x24 DUP3 ADD MSTORE PUSH19 0x125B9D985B1A59081C1C9BDC1BDCD85B081251 PUSH1 0x6A SHL PUSH1 0x44 DUP3 ADD MSTORE PUSH1 0x64 ADD PUSH2 0xB2E JUMP JUMPDEST PUSH0 PUSH1 0x5 DUP4 DUP2 SLOAD DUP2 LT PUSH2 0xB92 JUMPI PUSH2 0xB92 PUSH2 0x558E JUMP JUMPDEST PUSH0 SWAP2 DUP3 MSTORE PUSH1 0x20 SWAP1 SWAP2 KECCAK256 PUSH1 0x5 SWAP1 SWAP2 MUL ADD PUSH1 0x3 DUP2 ADD SLOAD SWAP1 SWAP2 POP PUSH1 0xFF AND ISZERO PUSH2 0xBEE JUMPI PUSH1 0x40 MLOAD PUSH3 0x461BCD PUSH1 0xE5 SHL DUP2 MSTORE PUSH1 0x20 PUSH1 0x4 DUP3 ADD MSTORE PUSH1 0x12 PUSH1 0x24 DUP3 ADD MSTORE PUSH18 0x283937B837B9B0B6103BB4BA34323930BBB7 PUSH1 0x71 SHL PUSH1 0x44 DUP3 ADD MSTORE PUSH1 0x64 ADD PUSH2 0xB2E JUMP JUMPDEST CALLER PUSH0 SWAP1 DUP2 MSTORE PUSH1 0xB PUSH1 0x20 SWAP1 DUP2 MSTORE PUSH1 0x40 DUP1 DUP4 KECCAK256 DUP7 DUP5 MSTORE SWAP1 SWAP2 MSTORE SWAP1 KECCAK256 SLOAD PUSH1 0xFF AND ISZERO PUSH2 0xC48 JUMPI PUSH1 0x40 MLOAD PUSH3 0x461BCD PUSH1 0xE5 SHL DUP2 MSTORE PUSH1 0x20 PUSH1 0x4 DUP3 ADD MSTORE PUSH1 0xD PUSH1 0x24 DUP3 ADD MSTORE PUSH13 0x105B1C9958591E481D9BDD1959 PUSH1 0x9A SHL PUSH1 0x44 DUP3 ADD MSTORE PUSH1 0x64 ADD PUSH2 0xB2E JUMP JUMPDEST CALLER PUSH0 SWAP1 DUP2 MSTORE PUSH1 0xB PUSH1 0x20 SWAP1 DUP2 MSTORE PUSH1 0x40 DUP1 DUP4 KECCAK256 DUP7 DUP5 MSTORE SWAP1 SWAP2 MSTORE SWAP1 KECCAK256 DUP1 SLOAD PUSH1 0xFF NOT AND PUSH1 0x1 SWAP1 DUP2 OR SWAP1 SWAP2 SSTORE PUSH1 0x3 DUP3 ADD DUP1 SLOAD PUSH2 0x100 SWAP1 DIV PUSH1 0xFF AND SWAP2 PUSH2 0xC87 DUP4 PUSH2 0x55B6 JUMP JUMPDEST SWAP2 SWAP1 PUSH2 0x100 EXP DUP2 SLOAD DUP2 PUSH1 0xFF MUL NOT AND SWAP1 DUP4 PUSH1 0xFF AND MUL OR SWAP1 SSTORE POP POP CALLER PUSH1 0x1 PUSH1 0x1 PUSH1 0xA0 SHL SUB AND DUP4 PUSH32 0x34647120636CE03D739347E28E9D1BDD34FD03D066AE60439FB1BE2721AD16CD PUSH1 0x40 MLOAD PUSH1 0x40 MLOAD DUP1 SWAP2 SUB SWAP1 LOG3 PUSH1 0x3 DUP2 ADD SLOAD PUSH1 0x1E PUSH2 0x100 SWAP1 SWAP2 DIV PUSH1 0xFF AND LT DUP1 ISZERO SWAP1 PUSH2 0xCF7 JUMPI POP PUSH1 0x2 DUP2 ADD SLOAD ISZERO JUMPDEST ISZERO PUSH2 0xD59 JUMPI PUSH1 0x40 MLOAD DUP4 SWAP1 PUSH32 0xE36F8B7448DAFF4A52E2945DB0D1D7A436279CC1D527A45C27835DCBD27F336D SWAP1 PUSH0 SWAP1 LOG2 TIMESTAMP PUSH1 0x2 DUP3 ADD SSTORE DUP1 SLOAD PUSH1 0x1 PUSH1 0x1 PUSH1 0xA0 SHL SUB AND PUSH0 SWAP1 DUP2 MSTORE PUSH1 0x4 PUSH1 0x20 MSTORE PUSH1 0x40 SWAP1 KECCAK256 PUSH1 0x6 ADD DUP1 SLOAD PUSH2 0xFFFF NOT AND SWAP1 SSTORE PUSH2 0xD59 DUP4 PUSH2 0x4956 JUMP JUMPDEST PUSH1 0x3 ADD SLOAD PUSH2 0x100 SWAP1 DIV PUSH1 0xFF AND SWAP3 SWAP2 POP POP JUMP JUMPDEST DUP5 ISZERO DUP1 ISZERO SWAP1 PUSH2 0xD7B JUMPI POP PUSH1 0x64 DUP6 GT ISZERO JUMPDEST PUSH2 0xDB6 JUMPI PUSH1 0x40 MLOAD PUSH3 0x461BCD PUSH1 0xE5 SHL DUP2 MSTORE PUSH1 0x20 PUSH1 0x4 DUP3 ADD MSTORE PUSH1 0xC PUSH1 0x24 DUP3 ADD MSTORE PUSH12 0x496E76616C6964206E616D65 PUSH1 0xA0 SHL PUSH1 0x44 DUP3 ADD MSTORE PUSH1 0x64 ADD PUSH2 0xB2E JUMP JUMPDEST DUP3 ISZERO DUP1 ISZERO SWAP1 PUSH2 0xDC7 JUMPI POP PUSH2 0x3E8 DUP4 GT ISZERO JUMPDEST PUSH2 0xE01 JUMPI PUSH1 0x40 MLOAD PUSH3 0x461BCD PUSH1 0xE5 SHL DUP2 MSTORE PUSH1 0x20 PUSH1 0x4 DUP3 ADD MSTORE PUSH1 0xB PUSH1 0x24 DUP3 ADD MSTORE PUSH11 0x496E76616C69642062696F PUSH1 0xA8 SHL PUSH1 0x44 DUP3 ADD MSTORE PUSH1 0x64 ADD PUSH2 0xB2E JUMP JUMPDEST DUP1 ISZERO DUP1 ISZERO SWAP1 PUSH2 0xE12 JUMPI POP PUSH2 0x3E8 DUP2 GT ISZERO JUMPDEST PUSH2 0xE50 JUMPI PUSH1 0x40 MLOAD PUSH3 0x461BCD PUSH1 0xE5 SHL DUP2 MSTORE PUSH1 0x20 PUSH1 0x4 DUP3 ADD MSTORE PUSH1 0xF PUSH1 0x24 DUP3 ADD MSTORE PUSH15 0x496E76616C69642077656273697465 PUSH1 0x88 SHL PUSH1 0x44 DUP3 ADD MSTORE PUSH1 0x64 ADD PUSH2 0xB2E JUMP JUMPDEST CALLER PUSH2 0xE8E JUMPI PUSH1 0x40 MLOAD PUSH3 0x461BCD PUSH1 0xE5 SHL DUP2 MSTORE PUSH1 0x20 PUSH1 0x4 DUP3 ADD MSTORE PUSH1 0xE PUSH1 0x24 DUP3 ADD MSTORE PUSH14 0x24B73B30B634B21039B2B73232B9 PUSH1 0x91 SHL PUSH1 0x44 DUP3 ADD MSTORE PUSH1 0x64 ADD PUSH2 0xB2E JUMP JUMPDEST PUSH7 0x38D7EA4C68000 CALLVALUE LT PUSH2 0xEDC JUMPI CALLER PUSH2 0x8FC PUSH2 0xEB1 PUSH7 0x38D7EA4C68000 CALLVALUE PUSH2 0x55D4 JUMP JUMPDEST PUSH1 0x40 MLOAD DUP2 ISZERO SWAP1 SWAP3 MUL SWAP2 PUSH0 DUP2 DUP2 DUP2 DUP6 DUP9 DUP9 CALL SWAP4 POP POP POP POP ISZERO DUP1 ISZERO PUSH2 0xED6 JUMPI RETURNDATASIZE PUSH0 DUP1 RETURNDATACOPY RETURNDATASIZE PUSH0 REVERT JUMPDEST POP PUSH2 0xF24 JUMP JUMPDEST PUSH1 0x40 MLOAD PUSH3 0x461BCD PUSH1 0xE5 SHL DUP2 MSTORE PUSH1 0x20 PUSH1 0x4 DUP3 ADD MSTORE PUSH1 0x1A PUSH1 0x24 DUP3 ADD MSTORE PUSH32 0x5061796D656E74203C20726567697374726174696F6E20666565000000000000 PUSH1 0x44 DUP3 ADD MSTORE PUSH1 0x64 ADD PUSH2 0xB2E JUMP JUMPDEST PUSH0 PUSH2 0xF2D PUSH2 0x2646 JUMP JUMPDEST PUSH1 0x5 DUP2 GT ISZERO PUSH2 0xF3E JUMPI PUSH2 0xF3E PUSH2 0x5031 JUMP JUMPDEST EQ PUSH2 0xF8B JUMPI PUSH1 0x40 MLOAD PUSH3 0x461BCD PUSH1 0xE5 SHL DUP2 MSTORE PUSH1 0x20 PUSH1 0x4 DUP3 ADD MSTORE PUSH1 0x19 PUSH1 0x24 DUP3 ADD MSTORE PUSH32 0x526567697374726174696F6E20706572696F6420656E64656400000000000000 PUSH1 0x44 DUP3 ADD MSTORE PUSH1 0x64 ADD PUSH2 0xB2E JUMP JUMPDEST CALLER PUSH0 SWAP1 DUP2 MSTORE PUSH1 0x4 PUSH1 0x20 MSTORE PUSH1 0x40 SWAP1 KECCAK256 PUSH1 0x3 ADD SLOAD ISZERO PUSH2 0xFDF JUMPI PUSH1 0x40 MLOAD PUSH3 0x461BCD PUSH1 0xE5 SHL DUP2 MSTORE PUSH1 0x20 PUSH1 0x4 DUP3 ADD MSTORE PUSH1 0x12 PUSH1 0x24 DUP3 ADD MSTORE PUSH18 0x105B1C9958591E481C9959DA5CDD195C9959 PUSH1 0x72 SHL PUSH1 0x44 DUP3 ADD MSTORE PUSH1 0x64 ADD PUSH2 0xB2E JUMP JUMPDEST CALLER PUSH0 SWAP1 DUP2 MSTORE PUSH1 0x4 PUSH1 0x20 MSTORE PUSH1 0x40 SWAP1 KECCAK256 DUP1 PUSH2 0xFF9 DUP8 DUP10 DUP4 PUSH2 0x5646 JUMP JUMPDEST POP PUSH1 0x1 DUP2 ADD PUSH2 0x1009 DUP6 DUP8 DUP4 PUSH2 0x5646 JUMP JUMPDEST POP PUSH1 0x2 DUP2 ADD PUSH2 0x1019 DUP4 DUP6 DUP4 PUSH2 0x5646 JUMP JUMPDEST POP TIMESTAMP PUSH1 0x3 DUP1 DUP4 ADD SWAP2 SWAP1 SWAP2 SSTORE DUP1 SLOAD PUSH1 0x1 DUP2 ADD DUP3 SSTORE PUSH0 SWAP2 SWAP1 SWAP2 MSTORE PUSH32 0xC2575A0E9E593C00F959F8C92F12DB2869C3395A3B0502D05E2516446F71F85B ADD DUP1 SLOAD PUSH1 0x1 PUSH1 0x1 PUSH1 0xA0 SHL SUB NOT AND CALLER SWAP1 DUP2 OR SWAP1 SWAP2 SSTORE PUSH1 0x40 MLOAD PUSH31 0xD6FEA68F71A20D8149F227F87E8CF7E6AD320B2DAD4B45465B14599B80EE09 SWAP1 PUSH2 0x109F SWAP1 DUP11 SWAP1 DUP11 SWAP1 DUP11 SWAP1 DUP11 SWAP1 DUP11 SWAP1 DUP11 SWAP1 PUSH2 0x5722 JUMP JUMPDEST PUSH1 0x40 MLOAD DUP1 SWAP2 SUB SWAP1 LOG2 POP POP POP POP POP POP POP JUMP JUMPDEST PUSH0 DUP1 JUMPDEST CALLER PUSH0 SWAP1 DUP2 MSTORE PUSH1 0x16 PUSH1 0x20 MSTORE PUSH1 0x40 SWAP1 KECCAK256 SLOAD PUSH2 0xFFFF DUP3 AND LT ISZERO PUSH2 0x111F JUMPI CALLER PUSH0 SWAP1 DUP2 MSTORE PUSH1 0x16 PUSH1 0x20 MSTORE PUSH1 0x40 SWAP1 KECCAK256 DUP1 SLOAD PUSH2 0xFFFF DUP4 AND SWAP1 DUP2 LT PUSH2 0x10F1 JUMPI PUSH2 0x10F1 PUSH2 0x558E JUMP JUMPDEST SWAP1 PUSH0 MSTORE PUSH1 0x20 PUSH0 KECCAK256 SWAP1 PUSH1 0x2 MUL ADD PUSH0 ADD SLOAD DUP3 PUSH2 0x110B SWAP2 SWAP1 PUSH2 0x576A JUMP JUMPDEST SWAP2 POP DUP1 PUSH2 0x1117 DUP2 PUSH2 0x5791 JUMP JUMPDEST SWAP2 POP POP PUSH2 0x10B3 JUMP JUMPDEST POP SWAP1 JUMP JUMPDEST CALLER PUSH0 SWAP1 DUP2 MSTORE PUSH1 0x4 PUSH1 0x20 DUP2 SWAP1 MSTORE PUSH1 0x40 SWAP1 SWAP2 KECCAK256 ADD SLOAD PUSH3 0x10000 SWAP1 DIV PUSH1 0xFF AND PUSH2 0x117A JUMPI PUSH1 0x40 MLOAD PUSH3 0x461BCD PUSH1 0xE5 SHL DUP2 MSTORE PUSH1 0x20 PUSH1 0x4 DUP3 ADD MSTORE PUSH1 0xC PUSH1 0x24 DUP3 ADD MSTORE PUSH12 0x2737BA10309036B2B6B132B9 PUSH1 0xA1 SHL PUSH1 0x44 DUP3 ADD MSTORE PUSH1 0x64 ADD PUSH2 0xB2E JUMP JUMPDEST PUSH0 NOT DUP2 PUSH0 SIGNEXTEND SLT ISZERO DUP1 ISZERO PUSH2 0x1190 JUMPI POP PUSH1 0x1 DUP2 PUSH0 SIGNEXTEND SGT ISZERO JUMPDEST PUSH2 0x11DC JUMPI PUSH1 0x40 MLOAD PUSH3 0x461BCD PUSH1 0xE5 SHL DUP2 MSTORE PUSH1 0x20 PUSH1 0x4 DUP3 ADD MSTORE PUSH1 0x18 PUSH1 0x24 DUP3 ADD MSTORE PUSH32 0x566F7465206D757374206265202D312C20302C206F7220310000000000000000 PUSH1 0x44 DUP3 ADD MSTORE PUSH1 0x64 ADD PUSH2 0xB2E JUMP JUMPDEST CALLER PUSH0 SWAP1 DUP2 MSTORE PUSH1 0x11 PUSH1 0x20 SWAP1 DUP2 MSTORE PUSH1 0x40 DUP1 DUP4 KECCAK256 PUSH1 0x1 PUSH1 0x1 PUSH1 0xA0 SHL SUB DUP7 AND DUP5 MSTORE SWAP1 SWAP2 MSTORE DUP2 KECCAK256 SLOAD SWAP1 SIGNEXTEND DUP1 ISZERO DUP1 ISZERO PUSH2 0x1211 JUMPI POP DUP2 PUSH0 SIGNEXTEND PUSH0 EQ ISZERO JUMPDEST ISZERO PUSH2 0x128D JUMPI CALLER PUSH0 SWAP1 DUP2 MSTORE PUSH1 0x13 PUSH1 0x20 MSTORE PUSH1 0x40 SWAP1 KECCAK256 SLOAD PUSH2 0x3E8 GT PUSH2 0x1269 JUMPI PUSH1 0x40 MLOAD PUSH3 0x461BCD PUSH1 0xE5 SHL DUP2 MSTORE PUSH1 0x20 PUSH1 0x4 DUP3 ADD MSTORE PUSH1 0x11 PUSH1 0x24 DUP3 ADD MSTORE PUSH17 0x13585E081D9BDD195CC81C995858DA1959 PUSH1 0x7A SHL PUSH1 0x44 DUP3 ADD MSTORE PUSH1 0x64 ADD PUSH2 0xB2E JUMP JUMPDEST CALLER PUSH0 SWAP1 DUP2 MSTORE PUSH1 0x13 PUSH1 0x20 MSTORE PUSH1 0x40 DUP2 KECCAK256 DUP1 SLOAD SWAP2 PUSH2 0x1283 DUP4 PUSH2 0x57A8 JUMP JUMPDEST SWAP2 SWAP1 POP SSTORE POP PUSH2 0x12C5 JUMP JUMPDEST DUP1 PUSH0 SIGNEXTEND PUSH0 EQ ISZERO DUP1 ISZERO PUSH2 0x12A0 JUMPI POP DUP2 PUSH0 SIGNEXTEND PUSH0 EQ JUMPDEST ISZERO PUSH2 0x12C5 JUMPI CALLER PUSH0 SWAP1 DUP2 MSTORE PUSH1 0x13 PUSH1 0x20 MSTORE PUSH1 0x40 DUP2 KECCAK256 DUP1 SLOAD SWAP2 PUSH2 0x12BF DUP4 PUSH2 0x57C0 JUMP JUMPDEST SWAP2 SWAP1 POP SSTORE POP JUMPDEST CALLER PUSH0 SWAP1 DUP2 MSTORE PUSH1 0x11 PUSH1 0x20 SWAP1 DUP2 MSTORE PUSH1 0x40 DUP1 DUP4 KECCAK256 PUSH1 0x1 PUSH1 0x1 PUSH1 0xA0 SHL SUB DUP8 AND DUP5 MSTORE SWAP1 SWAP2 MSTORE SWAP1 KECCAK256 DUP1 SLOAD PUSH1 0xFF NOT AND PUSH1 0xFF DUP5 AND OR SWAP1 SSTORE PUSH2 0x12FE DUP2 DUP4 PUSH2 0x57D5 JUMP JUMPDEST PUSH1 0x1 PUSH1 0x1 PUSH1 0xA0 SHL SUB DUP5 AND PUSH0 SWAP1 DUP2 MSTORE PUSH1 0x12 PUSH1 0x20 MSTORE PUSH1 0x40 DUP2 KECCAK256 DUP1 SLOAD SWAP3 DUP3 SIGNEXTEND SWAP3 SWAP1 SWAP2 SWAP1 PUSH2 0x1329 SWAP1 DUP5 SWAP1 PUSH2 0x576A JUMP JUMPDEST SWAP1 SWAP2 SSTORE POP POP POP POP POP JUMP JUMPDEST PUSH0 DUP4 PUSH2 0x1377 JUMPI PUSH1 0x40 MLOAD PUSH3 0x461BCD PUSH1 0xE5 SHL DUP2 MSTORE PUSH1 0x20 PUSH1 0x4 DUP3 ADD MSTORE PUSH1 0x13 PUSH1 0x24 DUP3 ADD MSTORE PUSH19 0x141C9BDD9A5CDA5BDB9CC81C995C5D5A5C9959 PUSH1 0x6A SHL PUSH1 0x44 DUP3 ADD MSTORE PUSH1 0x64 ADD PUSH2 0xB2E JUMP JUMPDEST CALLER PUSH0 SWAP1 DUP2 MSTORE PUSH1 0x4 PUSH1 0x20 DUP2 SWAP1 MSTORE PUSH1 0x40 SWAP1 SWAP2 KECCAK256 ADD SLOAD PUSH3 0x10000 SWAP1 DIV PUSH1 0xFF AND PUSH2 0x13EA JUMPI PUSH1 0x40 MLOAD PUSH3 0x461BCD PUSH1 0xE5 SHL DUP2 MSTORE PUSH1 0x20 PUSH1 0x4 DUP3 ADD MSTORE PUSH1 0x22 PUSH1 0x24 DUP3 ADD MSTORE PUSH32 0x4F6E6C79206D656D626572732063616E2070726F706F73652070726F706F7361 PUSH1 0x44 DUP3 ADD MSTORE PUSH2 0x6C73 PUSH1 0xF0 SHL PUSH1 0x64 DUP3 ADD MSTORE PUSH1 0x84 ADD PUSH2 0xB2E JUMP JUMPDEST CALLER PUSH0 SWAP1 DUP2 MSTORE PUSH1 0x4 PUSH1 0x20 MSTORE PUSH1 0x40 SWAP1 KECCAK256 PUSH1 0x6 ADD SLOAD PUSH2 0xFFFF AND ISZERO PUSH2 0x1446 JUMPI PUSH1 0x40 MLOAD PUSH3 0x461BCD PUSH1 0xE5 SHL DUP2 MSTORE PUSH1 0x20 PUSH1 0x4 DUP3 ADD MSTORE PUSH1 0x16 PUSH1 0x24 DUP3 ADD MSTORE PUSH22 0x12185CC8185B881858DD1A5D99481C1C9BDC1BDCD85B PUSH1 0x52 SHL PUSH1 0x44 DUP3 ADD MSTORE PUSH1 0x64 ADD PUSH2 0xB2E JUMP JUMPDEST PUSH1 0x5 DUP1 SLOAD CALLER PUSH0 SWAP1 DUP2 MSTORE PUSH1 0x4 PUSH1 0x20 MSTORE PUSH1 0x40 DUP2 KECCAK256 PUSH1 0x6 ADD DUP1 SLOAD PUSH2 0xFFFF NOT AND PUSH1 0xFF DUP5 AND SWAP1 DUP2 OR SWAP1 SWAP2 SSTORE DUP4 SLOAD PUSH1 0x1 ADD DUP1 DUP6 SSTORE DUP5 DUP4 MSTORE SWAP3 SWAP4 SWAP2 SWAP3 DUP2 LT PUSH2 0x1489 JUMPI PUSH2 0x1489 PUSH2 0x558E JUMP JUMPDEST PUSH0 SWAP2 DUP3 MSTORE PUSH1 0x20 SWAP1 SWAP2 KECCAK256 PUSH1 0x5 SWAP1 SWAP2 MUL ADD DUP1 SLOAD PUSH1 0x1 PUSH1 0x1 PUSH1 0xA0 SHL SUB NOT AND CALLER OR DUP2 SSTORE SWAP1 POP PUSH1 0x1 DUP2 ADD PUSH2 0x14B9 DUP8 DUP10 DUP4 PUSH2 0x5646 JUMP JUMPDEST POP PUSH0 JUMPDEST DUP5 DUP2 LT ISZERO PUSH2 0x1517 JUMPI DUP2 PUSH1 0x4 ADD DUP7 DUP7 DUP4 DUP2 DUP2 LT PUSH2 0x14DA JUMPI PUSH2 0x14DA PUSH2 0x558E JUMP JUMPDEST SWAP1 POP PUSH1 0x20 MUL DUP2 ADD SWAP1 PUSH2 0x14EC SWAP2 SWAP1 PUSH2 0x57F5 JUMP JUMPDEST DUP2 SLOAD PUSH1 0x1 DUP2 ADD DUP4 SSTORE PUSH0 SWAP3 DUP4 MSTORE PUSH1 0x20 SWAP1 SWAP3 KECCAK256 SWAP1 SWAP2 PUSH1 0x3 MUL ADD PUSH2 0x150D DUP3 DUP3 PUSH2 0x5813 JUMP JUMPDEST POP POP PUSH1 0x1 ADD PUSH2 0x14BC JUMP JUMPDEST POP PUSH1 0x5 SLOAD PUSH1 0x40 MLOAD CALLER SWAP2 SWAP1 PUSH32 0x6FB266C3BFFBF56760B26BA85968FA3E28F3ED50CEA5C9704FB6E260DAB31F1C SWAP1 PUSH2 0x1550 SWAP1 DUP12 SWAP1 DUP12 SWAP1 PUSH2 0x593B JUMP JUMPDEST PUSH1 0x40 MLOAD DUP1 SWAP2 SUB SWAP1 LOG3 POP POP PUSH1 0x5 SLOAD SWAP6 SWAP5 POP POP POP POP POP JUMP JUMPDEST PUSH0 PUSH2 0x15AF PUSH1 0x40 MLOAD DUP1 PUSH2 0x100 ADD PUSH1 0x40 MSTORE DUP1 PUSH1 0x60 DUP2 MSTORE PUSH1 0x20 ADD PUSH1 0x60 DUP2 MSTORE PUSH1 0x20 ADD PUSH1 0x60 DUP2 MSTORE PUSH1 0x20 ADD PUSH1 0x60 DUP2 MSTORE PUSH1 0x20 ADD PUSH0 DUP1 NOT AND DUP2 MSTORE PUSH1 0x20 ADD PUSH1 0x60 DUP2 MSTORE PUSH1 0x20 ADD PUSH0 DUP2 MSTORE PUSH1 0x20 ADD PUSH0 DUP2 MSTORE POP SWAP1 JUMP JUMPDEST PUSH1 0x10 SLOAD ISZERO PUSH2 0x1923 JUMPI PUSH1 0x10 SLOAD PUSH1 0xC PUSH1 0x10 SLOAD DUP2 SLOAD DUP2 LT PUSH2 0x15CF JUMPI PUSH2 0x15CF PUSH2 0x558E JUMP JUMPDEST SWAP1 PUSH0 MSTORE PUSH1 0x20 PUSH0 KECCAK256 SWAP1 PUSH1 0x8 MUL ADD DUP1 PUSH1 0x40 MLOAD DUP1 PUSH2 0x100 ADD PUSH1 0x40 MSTORE SWAP1 DUP2 PUSH0 DUP3 ADD DUP1 SLOAD PUSH2 0x15F7 SWAP1 PUSH2 0x5556 JUMP JUMPDEST DUP1 PUSH1 0x1F ADD PUSH1 0x20 DUP1 SWAP2 DIV MUL PUSH1 0x20 ADD PUSH1 0x40 MLOAD SWAP1 DUP2 ADD PUSH1 0x40 MSTORE DUP1 SWAP3 SWAP2 SWAP1 DUP2 DUP2 MSTORE PUSH1 0x20 ADD DUP3 DUP1 SLOAD PUSH2 0x1623 SWAP1 PUSH2 0x5556 JUMP JUMPDEST DUP1 ISZERO PUSH2 0x166E JUMPI DUP1 PUSH1 0x1F LT PUSH2 0x1645 JUMPI PUSH2 0x100 DUP1 DUP4 SLOAD DIV MUL DUP4 MSTORE SWAP2 PUSH1 0x20 ADD SWAP2 PUSH2 0x166E JUMP JUMPDEST DUP3 ADD SWAP2 SWAP1 PUSH0 MSTORE PUSH1 0x20 PUSH0 KECCAK256 SWAP1 JUMPDEST DUP2 SLOAD DUP2 MSTORE SWAP1 PUSH1 0x1 ADD SWAP1 PUSH1 0x20 ADD DUP1 DUP4 GT PUSH2 0x1651 JUMPI DUP3 SWAP1 SUB PUSH1 0x1F AND DUP3 ADD SWAP2 JUMPDEST POP POP POP POP POP DUP2 MSTORE PUSH1 0x20 ADD PUSH1 0x1 DUP3 ADD DUP1 SLOAD PUSH2 0x1687 SWAP1 PUSH2 0x5556 JUMP JUMPDEST DUP1 PUSH1 0x1F ADD PUSH1 0x20 DUP1 SWAP2 DIV MUL PUSH1 0x20 ADD PUSH1 0x40 MLOAD SWAP1 DUP2 ADD PUSH1 0x40 MSTORE DUP1 SWAP3 SWAP2 SWAP1 DUP2 DUP2 MSTORE PUSH1 0x20 ADD DUP3 DUP1 SLOAD PUSH2 0x16B3 SWAP1 PUSH2 0x5556 JUMP JUMPDEST DUP1 ISZERO PUSH2 0x16FE JUMPI DUP1 PUSH1 0x1F LT PUSH2 0x16D5 JUMPI PUSH2 0x100 DUP1 DUP4 SLOAD DIV MUL DUP4 MSTORE SWAP2 PUSH1 0x20 ADD SWAP2 PUSH2 0x16FE JUMP JUMPDEST DUP3 ADD SWAP2 SWAP1 PUSH0 MSTORE PUSH1 0x20 PUSH0 KECCAK256 SWAP1 JUMPDEST DUP2 SLOAD DUP2 MSTORE SWAP1 PUSH1 0x1 ADD SWAP1 PUSH1 0x20 ADD DUP1 DUP4 GT PUSH2 0x16E1 JUMPI DUP3 SWAP1 SUB PUSH1 0x1F AND DUP3 ADD SWAP2 JUMPDEST POP POP POP POP POP DUP2 MSTORE PUSH1 0x20 ADD PUSH1 0x2 DUP3 ADD DUP1 SLOAD PUSH2 0x1717 SWAP1 PUSH2 0x5556 JUMP JUMPDEST DUP1 PUSH1 0x1F ADD PUSH1 0x20 DUP1 SWAP2 DIV MUL PUSH1 0x20 ADD PUSH1 0x40 MLOAD SWAP1 DUP2 ADD PUSH1 0x40 MSTORE DUP1 SWAP3 SWAP2 SWAP1 DUP2 DUP2 MSTORE PUSH1 0x20 ADD DUP3 DUP1 SLOAD PUSH2 0x1743 SWAP1 PUSH2 0x5556 JUMP JUMPDEST DUP1 ISZERO PUSH2 0x178E JUMPI DUP1 PUSH1 0x1F LT PUSH2 0x1765 JUMPI PUSH2 0x100 DUP1 DUP4 SLOAD DIV MUL DUP4 MSTORE SWAP2 PUSH1 0x20 ADD SWAP2 PUSH2 0x178E JUMP JUMPDEST DUP3 ADD SWAP2 SWAP1 PUSH0 MSTORE PUSH1 0x20 PUSH0 KECCAK256 SWAP1 JUMPDEST DUP2 SLOAD DUP2 MSTORE SWAP1 PUSH1 0x1 ADD SWAP1 PUSH1 0x20 ADD DUP1 DUP4 GT PUSH2 0x1771 JUMPI DUP3 SWAP1 SUB PUSH1 0x1F AND DUP3 ADD SWAP2 JUMPDEST POP POP POP POP POP DUP2 MSTORE PUSH1 0x20 ADD PUSH1 0x3 DUP3 ADD DUP1 SLOAD DUP1 PUSH1 0x20 MUL PUSH1 0x20 ADD PUSH1 0x40 MLOAD SWAP1 DUP2 ADD PUSH1 0x40 MSTORE DUP1 SWAP3 SWAP2 SWAP1 DUP2 DUP2 MSTORE PUSH1 0x20 ADD PUSH0 SWAP1 JUMPDEST DUP3 DUP3 LT ISZERO PUSH2 0x1863 JUMPI DUP4 DUP3 SWAP1 PUSH0 MSTORE PUSH1 0x20 PUSH0 KECCAK256 ADD DUP1 SLOAD PUSH2 0x17D8 SWAP1 PUSH2 0x5556 JUMP JUMPDEST DUP1 PUSH1 0x1F ADD PUSH1 0x20 DUP1 SWAP2 DIV MUL PUSH1 0x20 ADD PUSH1 0x40 MLOAD SWAP1 DUP2 ADD PUSH1 0x40 MSTORE DUP1 SWAP3 SWAP2 SWAP1 DUP2 DUP2 MSTORE PUSH1 0x20 ADD DUP3 DUP1 SLOAD PUSH2 0x1804 SWAP1 PUSH2 0x5556 JUMP JUMPDEST DUP1 ISZERO PUSH2 0x184F JUMPI DUP1 PUSH1 0x1F LT PUSH2 0x1826 JUMPI PUSH2 0x100 DUP1 DUP4 SLOAD DIV MUL DUP4 MSTORE SWAP2 PUSH1 0x20 ADD SWAP2 PUSH2 0x184F JUMP JUMPDEST DUP3 ADD SWAP2 SWAP1 PUSH0 MSTORE PUSH1 0x20 PUSH0 KECCAK256 SWAP1 JUMPDEST DUP2 SLOAD DUP2 MSTORE SWAP1 PUSH1 0x1 ADD SWAP1 PUSH1 0x20 ADD DUP1 DUP4 GT PUSH2 0x1832 JUMPI DUP3 SWAP1 SUB PUSH1 0x1F AND DUP3 ADD SWAP2 JUMPDEST POP POP POP POP POP DUP2 MSTORE PUSH1 0x20 ADD SWAP1 PUSH1 0x1 ADD SWAP1 PUSH2 0x17BB JUMP JUMPDEST POP POP POP POP DUP2 MSTORE PUSH1 0x20 ADD PUSH1 0x4 DUP3 ADD SLOAD DUP2 MSTORE PUSH1 0x20 ADD PUSH1 0x5 DUP3 ADD DUP1 SLOAD PUSH2 0x1885 SWAP1 PUSH2 0x5556 JUMP JUMPDEST DUP1 PUSH1 0x1F ADD PUSH1 0x20 DUP1 SWAP2 DIV MUL PUSH1 0x20 ADD PUSH1 0x40 MLOAD SWAP1 DUP2 ADD PUSH1 0x40 MSTORE DUP1 SWAP3 SWAP2 SWAP1 DUP2 DUP2 MSTORE PUSH1 0x20 ADD DUP3 DUP1 SLOAD PUSH2 0x18B1 SWAP1 PUSH2 0x5556 JUMP JUMPDEST DUP1 ISZERO PUSH2 0x18FC JUMPI DUP1 PUSH1 0x1F LT PUSH2 0x18D3 JUMPI PUSH2 0x100 DUP1 DUP4 SLOAD DIV MUL DUP4 MSTORE SWAP2 PUSH1 0x20 ADD SWAP2 PUSH2 0x18FC JUMP JUMPDEST DUP3 ADD SWAP2 SWAP1 PUSH0 MSTORE PUSH1 0x20 PUSH0 KECCAK256 SWAP1 JUMPDEST DUP2 SLOAD DUP2 MSTORE SWAP1 PUSH1 0x1 ADD SWAP1 PUSH1 0x20 ADD DUP1 DUP4 GT PUSH2 0x18DF JUMPI DUP3 SWAP1 SUB PUSH1 0x1F AND DUP3 ADD SWAP2 JUMPDEST POP POP POP POP POP DUP2 MSTORE PUSH1 0x20 ADD PUSH1 0x6 DUP3 ADD SLOAD DUP2 MSTORE PUSH1 0x20 ADD PUSH1 0x7 DUP3 ADD SLOAD DUP2 MSTORE POP POP SWAP1 POP SWAP2 POP SWAP2 POP SWAP1 SWAP2 JUMP JUMPDEST PUSH0 PUSH1 0x6 SLOAD GT DUP1 ISZERO PUSH2 0x1935 JUMPI POP TIMESTAMP PUSH1 0x6 SLOAD LT JUMPDEST PUSH2 0x1979 JUMPI PUSH1 0x40 MLOAD PUSH3 0x461BCD PUSH1 0xE5 SHL DUP2 MSTORE PUSH1 0x20 PUSH1 0x4 DUP3 ADD MSTORE PUSH1 0x15 PUSH1 0x24 DUP3 ADD MSTORE PUSH21 0x43616C6C206166746572205265666572656E64756D PUSH1 0x58 SHL PUSH1 0x44 DUP3 ADD MSTORE PUSH1 0x64 ADD PUSH2 0xB2E JUMP JUMPDEST PUSH0 DUP1 DUP1 JUMPDEST PUSH1 0xC SLOAD DUP2 LT ISZERO PUSH2 0x19E2 JUMPI DUP2 PUSH1 0xC DUP3 DUP2 SLOAD DUP2 LT PUSH2 0x199B JUMPI PUSH2 0x199B PUSH2 0x558E JUMP JUMPDEST SWAP1 PUSH0 MSTORE PUSH1 0x20 PUSH0 KECCAK256 SWAP1 PUSH1 0x8 MUL ADD PUSH1 0x7 ADD SLOAD GT ISZERO PUSH2 0x19DA JUMPI PUSH1 0xC DUP2 DUP2 SLOAD DUP2 LT PUSH2 0x19C4 JUMPI PUSH2 0x19C4 PUSH2 0x558E JUMP JUMPDEST SWAP1 PUSH0 MSTORE PUSH1 0x20 PUSH0 KECCAK256 SWAP1 PUSH1 0x8 MUL ADD PUSH1 0x7 ADD SLOAD SWAP2 POP DUP1 SWAP3 POP JUMPDEST PUSH1 0x1 ADD PUSH2 0x197D JUMP JUMPDEST POP DUP2 PUSH1 0x10 DUP2 SWAP1 SSTORE POP PUSH0 PUSH1 0xC DUP4 DUP2 SLOAD DUP2 LT PUSH2 0x19FE JUMPI PUSH2 0x19FE PUSH2 0x558E JUMP JUMPDEST SWAP1 PUSH0 MSTORE PUSH1 0x20 PUSH0 KECCAK256 SWAP1 PUSH1 0x8 MUL ADD PUSH1 0x40 MLOAD DUP1 PUSH2 0x100 ADD PUSH1 0x40 MSTORE SWAP1 DUP2 PUSH0 DUP3 ADD DUP1 SLOAD PUSH2 0x1A25 SWAP1 PUSH2 0x5556 JUMP JUMPDEST DUP1 PUSH1 0x1F ADD PUSH1 0x20 DUP1 SWAP2 DIV MUL PUSH1 0x20 ADD PUSH1 0x40 MLOAD SWAP1 DUP2 ADD PUSH1 0x40 MSTORE DUP1 SWAP3 SWAP2 SWAP1 DUP2 DUP2 MSTORE PUSH1 0x20 ADD DUP3 DUP1 SLOAD PUSH2 0x1A51 SWAP1 PUSH2 0x5556 JUMP JUMPDEST DUP1 ISZERO PUSH2 0x1A9C JUMPI DUP1 PUSH1 0x1F LT PUSH2 0x1A73 JUMPI PUSH2 0x100 DUP1 DUP4 SLOAD DIV MUL DUP4 MSTORE SWAP2 PUSH1 0x20 ADD SWAP2 PUSH2 0x1A9C JUMP JUMPDEST DUP3 ADD SWAP2 SWAP1 PUSH0 MSTORE PUSH1 0x20 PUSH0 KECCAK256 SWAP1 JUMPDEST DUP2 SLOAD DUP2 MSTORE SWAP1 PUSH1 0x1 ADD SWAP1 PUSH1 0x20 ADD DUP1 DUP4 GT PUSH2 0x1A7F JUMPI DUP3 SWAP1 SUB PUSH1 0x1F AND DUP3 ADD SWAP2 JUMPDEST POP POP POP POP POP DUP2 MSTORE PUSH1 0x20 ADD PUSH1 0x1 DUP3 ADD DUP1 SLOAD PUSH2 0x1AB5 SWAP1 PUSH2 0x5556 JUMP JUMPDEST DUP1 PUSH1 0x1F ADD PUSH1 0x20 DUP1 SWAP2 DIV MUL PUSH1 0x20 ADD PUSH1 0x40 MLOAD SWAP1 DUP2 ADD PUSH1 0x40 MSTORE DUP1 SWAP3 SWAP2 SWAP1 DUP2 DUP2 MSTORE PUSH1 0x20 ADD DUP3 DUP1 SLOAD PUSH2 0x1AE1 SWAP1 PUSH2 0x5556 JUMP JUMPDEST DUP1 ISZERO PUSH2 0x1B2C JUMPI DUP1 PUSH1 0x1F LT PUSH2 0x1B03 JUMPI PUSH2 0x100 DUP1 DUP4 SLOAD DIV MUL DUP4 MSTORE SWAP2 PUSH1 0x20 ADD SWAP2 PUSH2 0x1B2C JUMP JUMPDEST DUP3 ADD SWAP2 SWAP1 PUSH0 MSTORE PUSH1 0x20 PUSH0 KECCAK256 SWAP1 JUMPDEST DUP2 SLOAD DUP2 MSTORE SWAP1 PUSH1 0x1 ADD SWAP1 PUSH1 0x20 ADD DUP1 DUP4 GT PUSH2 0x1B0F JUMPI DUP3 SWAP1 SUB PUSH1 0x1F AND DUP3 ADD SWAP2 JUMPDEST POP POP POP POP POP DUP2 MSTORE PUSH1 0x20 ADD PUSH1 0x2 DUP3 ADD DUP1 SLOAD PUSH2 0x1B45 SWAP1 PUSH2 0x5556 JUMP JUMPDEST DUP1 PUSH1 0x1F ADD PUSH1 0x20 DUP1 SWAP2 DIV MUL PUSH1 0x20 ADD PUSH1 0x40 MLOAD SWAP1 DUP2 ADD PUSH1 0x40 MSTORE DUP1 SWAP3 SWAP2 SWAP1 DUP2 DUP2 MSTORE PUSH1 0x20 ADD DUP3 DUP1 SLOAD PUSH2 0x1B71 SWAP1 PUSH2 0x5556 JUMP JUMPDEST DUP1 ISZERO PUSH2 0x1BBC JUMPI DUP1 PUSH1 0x1F LT PUSH2 0x1B93 JUMPI PUSH2 0x100 DUP1 DUP4 SLOAD DIV MUL DUP4 MSTORE SWAP2 PUSH1 0x20 ADD SWAP2 PUSH2 0x1BBC JUMP JUMPDEST DUP3 ADD SWAP2 SWAP1 PUSH0 MSTORE PUSH1 0x20 PUSH0 KECCAK256 SWAP1 JUMPDEST DUP2 SLOAD DUP2 MSTORE SWAP1 PUSH1 0x1 ADD SWAP1 PUSH1 0x20 ADD DUP1 DUP4 GT PUSH2 0x1B9F JUMPI DUP3 SWAP1 SUB PUSH1 0x1F AND DUP3 ADD SWAP2 JUMPDEST POP POP POP POP POP DUP2 MSTORE PUSH1 0x20 ADD PUSH1 0x3 DUP3 ADD DUP1 SLOAD DUP1 PUSH1 0x20 MUL PUSH1 0x20 ADD PUSH1 0x40 MLOAD SWAP1 DUP2 ADD PUSH1 0x40 MSTORE DUP1 SWAP3 SWAP2 SWAP1 DUP2 DUP2 MSTORE PUSH1 0x20 ADD PUSH0 SWAP1 JUMPDEST DUP3 DUP3 LT ISZERO PUSH2 0x1C91 JUMPI DUP4 DUP3 SWAP1 PUSH0 MSTORE PUSH1 0x20 PUSH0 KECCAK256 ADD DUP1 SLOAD PUSH2 0x1C06 SWAP1 PUSH2 0x5556 JUMP JUMPDEST DUP1 PUSH1 0x1F ADD PUSH1 0x20 DUP1 SWAP2 DIV MUL PUSH1 0x20 ADD PUSH1 0x40 MLOAD SWAP1 DUP2 ADD PUSH1 0x40 MSTORE DUP1 SWAP3 SWAP2 SWAP1 DUP2 DUP2 MSTORE PUSH1 0x20 ADD DUP3 DUP1 SLOAD PUSH2 0x1C32 SWAP1 PUSH2 0x5556 JUMP JUMPDEST DUP1 ISZERO PUSH2 0x1C7D JUMPI DUP1 PUSH1 0x1F LT PUSH2 0x1C54 JUMPI PUSH2 0x100 DUP1 DUP4 SLOAD DIV MUL DUP4 MSTORE SWAP2 PUSH1 0x20 ADD SWAP2 PUSH2 0x1C7D JUMP JUMPDEST DUP3 ADD SWAP2 SWAP1 PUSH0 MSTORE PUSH1 0x20 PUSH0 KECCAK256 SWAP1 JUMPDEST DUP2 SLOAD DUP2 MSTORE SWAP1 PUSH1 0x1 ADD SWAP1 PUSH1 0x20 ADD DUP1 DUP4 GT PUSH2 0x1C60 JUMPI DUP3 SWAP1 SUB PUSH1 0x1F AND DUP3 ADD SWAP2 JUMPDEST POP POP POP POP POP DUP2 MSTORE PUSH1 0x20 ADD SWAP1 PUSH1 0x1 ADD SWAP1 PUSH2 0x1BE9 JUMP JUMPDEST POP POP POP POP DUP2 MSTORE PUSH1 0x20 ADD PUSH1 0x4 DUP3 ADD SLOAD DUP2 MSTORE PUSH1 0x20 ADD PUSH1 0x5 DUP3 ADD DUP1 SLOAD PUSH2 0x1CB3 SWAP1 PUSH2 0x5556 JUMP JUMPDEST DUP1 PUSH1 0x1F ADD PUSH1 0x20 DUP1 SWAP2 DIV MUL PUSH1 0x20 ADD PUSH1 0x40 MLOAD SWAP1 DUP2 ADD PUSH1 0x40 MSTORE DUP1 SWAP3 SWAP2 SWAP1 DUP2 DUP2 MSTORE PUSH1 0x20 ADD DUP3 DUP1 SLOAD PUSH2 0x1CDF SWAP1 PUSH2 0x5556 JUMP JUMPDEST DUP1 ISZERO PUSH2 0x1D2A JUMPI DUP1 PUSH1 0x1F LT PUSH2 0x1D01 JUMPI PUSH2 0x100 DUP1 DUP4 SLOAD DIV MUL DUP4 MSTORE SWAP2 PUSH1 0x20 ADD SWAP2 PUSH2 0x1D2A JUMP JUMPDEST DUP3 ADD SWAP2 SWAP1 PUSH0 MSTORE PUSH1 0x20 PUSH0 KECCAK256 SWAP1 JUMPDEST DUP2 SLOAD DUP2 MSTORE SWAP1 PUSH1 0x1 ADD SWAP1 PUSH1 0x20 ADD DUP1 DUP4 GT PUSH2 0x1D0D JUMPI DUP3 SWAP1 SUB PUSH1 0x1F AND DUP3 ADD SWAP2 JUMPDEST POP POP POP POP POP DUP2 MSTORE PUSH1 0x20 ADD PUSH1 0x6 DUP3 ADD SLOAD DUP2 MSTORE PUSH1 0x20 ADD PUSH1 0x7 DUP3 ADD SLOAD DUP2 MSTORE POP POP SWAP1 POP DUP3 PUSH32 0x2F46F361090DF30BBDB7F29D5979456B44F5D7E8BAD93955AE0CE3EC4B1D2894 DUP3 PUSH1 0x40 MLOAD PUSH2 0x1D79 SWAP2 SWAP1 PUSH2 0x594E JUMP JUMPDEST PUSH1 0x40 MLOAD DUP1 SWAP2 SUB SWAP1 LOG2 SWAP2 SWAP5 SWAP2 SWAP4 POP SWAP1 SWAP2 POP POP JUMP JUMPDEST CALLER PUSH0 SWAP1 DUP2 MSTORE PUSH1 0x12 PUSH1 0x20 MSTORE PUSH1 0x40 SWAP1 KECCAK256 SLOAD PUSH1 0xA SGT ISZERO PUSH2 0x1DE1 JUMPI PUSH1 0x40 MLOAD PUSH3 0x461BCD PUSH1 0xE5 SHL DUP2 MSTORE PUSH1 0x20 PUSH1 0x4 DUP3 ADD MSTORE PUSH1 0x13 PUSH1 0x24 DUP3 ADD MSTORE PUSH19 0x139BDD08195B9BDD59DA08185C1C1C9BDD985B PUSH1 0x6A SHL PUSH1 0x44 DUP3 ADD MSTORE PUSH1 0x64 ADD PUSH2 0xB2E JUMP JUMPDEST PUSH1 0x3 PUSH2 0x1DEB PUSH2 0x2646 JUMP JUMPDEST PUSH1 0x5 DUP2 GT ISZERO PUSH2 0x1DFC JUMPI PUSH2 0x1DFC PUSH2 0x5031 JUMP JUMPDEST EQ PUSH2 0x1E37 JUMPI PUSH1 0x40 MLOAD PUSH3 0x461BCD PUSH1 0xE5 SHL DUP2 MSTORE PUSH1 0x20 PUSH1 0x4 DUP3 ADD MSTORE PUSH1 0xB PUSH1 0x24 DUP3 ADD MSTORE PUSH11 0x57726F6E67207068617365 PUSH1 0xA8 SHL PUSH1 0x44 DUP3 ADD MSTORE PUSH1 0x64 ADD PUSH2 0xB2E JUMP JUMPDEST PUSH0 JUMPDEST PUSH1 0xA PUSH1 0xFF DUP3 AND LT ISZERO PUSH2 0x2052 JUMPI PUSH0 PUSH1 0xD DUP2 DUP5 PUSH1 0xFF DUP6 AND PUSH1 0xA DUP2 LT PUSH2 0x1E5E JUMPI PUSH2 0x1E5E PUSH2 0x558E JUMP JUMPDEST PUSH1 0x20 MUL ADD CALLDATALOAD DUP2 MSTORE PUSH1 0x20 ADD SWAP1 DUP2 MSTORE PUSH1 0x20 ADD PUSH0 KECCAK256 PUSH0 PUSH1 0x2 DUP2 LT PUSH2 0x1E81 JUMPI PUSH2 0x1E81 PUSH2 0x558E JUMP JUMPDEST ADD SLOAD PUSH1 0x1 PUSH1 0x1 PUSH1 0xA0 SHL SUB AND SUB PUSH2 0x1EF1 JUMPI CALLER PUSH1 0xD PUSH0 DUP5 DUP5 PUSH1 0xFF AND PUSH1 0xA DUP2 LT PUSH2 0x1EAA JUMPI PUSH2 0x1EAA PUSH2 0x558E JUMP JUMPDEST PUSH1 0x20 MUL ADD CALLDATALOAD DUP2 MSTORE PUSH1 0x20 ADD SWAP1 DUP2 MSTORE PUSH1 0x20 ADD PUSH0 KECCAK256 PUSH0 PUSH1 0x2 DUP2 LT PUSH2 0x1ECD JUMPI PUSH2 0x1ECD PUSH2 0x558E JUMP JUMPDEST ADD DUP1 SLOAD PUSH1 0x1 PUSH1 0x1 PUSH1 0xA0 SHL SUB NOT AND PUSH1 0x1 PUSH1 0x1 PUSH1 0xA0 SHL SUB SWAP3 SWAP1 SWAP3 AND SWAP2 SWAP1 SWAP2 OR SWAP1 SSTORE PUSH2 0x2040 JUMP JUMPDEST PUSH0 PUSH1 0xD DUP2 DUP5 PUSH1 0xFF DUP6 AND PUSH1 0xA DUP2 LT PUSH2 0x1F0A JUMPI PUSH2 0x1F0A PUSH2 0x558E JUMP JUMPDEST PUSH1 0x20 MUL ADD CALLDATALOAD DUP2 MSTORE PUSH1 0x20 ADD SWAP1 DUP2 MSTORE PUSH1 0x20 ADD PUSH0 KECCAK256 PUSH1 0x1 PUSH1 0x2 DUP2 LT PUSH2 0x1F2E JUMPI PUSH2 0x1F2E PUSH2 0x558E JUMP JUMPDEST ADD SLOAD PUSH1 0x1 PUSH1 0x1 PUSH1 0xA0 SHL SUB AND SUB PUSH2 0x2000 JUMPI CALLER PUSH1 0xD PUSH0 DUP5 PUSH1 0xFF DUP6 AND PUSH1 0xA DUP2 LT PUSH2 0x1F57 JUMPI PUSH2 0x1F57 PUSH2 0x558E JUMP JUMPDEST PUSH1 0x20 MUL ADD CALLDATALOAD DUP2 MSTORE PUSH1 0x20 ADD SWAP1 DUP2 MSTORE PUSH1 0x20 ADD PUSH0 KECCAK256 PUSH0 PUSH1 0x2 DUP2 LT PUSH2 0x1F7A JUMPI PUSH2 0x1F7A PUSH2 0x558E JUMP JUMPDEST ADD SLOAD PUSH1 0x1 PUSH1 0x1 PUSH1 0xA0 SHL SUB AND SUB PUSH2 0x1FC3 JUMPI PUSH1 0x40 MLOAD PUSH3 0x461BCD PUSH1 0xE5 SHL DUP2 MSTORE PUSH1 0x20 PUSH1 0x4 DUP3 ADD MSTORE PUSH1 0xE PUSH1 0x24 DUP3 ADD MSTORE PUSH14 0x29B0B6B2902932B3B4B9BA3930B9 PUSH1 0x91 SHL PUSH1 0x44 DUP3 ADD MSTORE PUSH1 0x64 ADD PUSH2 0xB2E JUMP JUMPDEST CALLER PUSH1 0xD PUSH0 DUP5 DUP5 PUSH1 0xFF AND PUSH1 0xA DUP2 LT PUSH2 0x1FDC JUMPI PUSH2 0x1FDC PUSH2 0x558E JUMP JUMPDEST PUSH1 0x20 MUL ADD CALLDATALOAD DUP2 MSTORE PUSH1 0x20 ADD SWAP1 DUP2 MSTORE PUSH1 0x20 ADD PUSH0 KECCAK256 PUSH1 0x1 PUSH1 0x2 DUP2 LT PUSH2 0x1ECD JUMPI PUSH2 0x1ECD PUSH2 0x558E JUMP JUMPDEST PUSH1 0x40 MLOAD PUSH3 0x461BCD PUSH1 0xE5 SHL DUP2 MSTORE PUSH1 0x20 PUSH1 0x4 DUP3 ADD MSTORE PUSH1 0x15 PUSH1 0x24 DUP3 ADD MSTORE PUSH21 0x12185CDA08185B1C9958591E481C9958DBDC991959 PUSH1 0x5A SHL PUSH1 0x44 DUP3 ADD MSTORE PUSH1 0x64 ADD PUSH2 0xB2E JUMP JUMPDEST DUP1 PUSH2 0x204A DUP2 PUSH2 0x55B6 JUMP JUMPDEST SWAP2 POP POP PUSH2 0x1E39 JUMP JUMPDEST POP PUSH0 JUMPDEST PUSH1 0xA PUSH1 0xFF DUP3 AND LT ISZERO PUSH2 0x21F0 JUMPI PUSH0 DUP4 PUSH1 0xFF DUP4 AND PUSH1 0xA DUP2 LT PUSH2 0x2077 JUMPI PUSH2 0x2077 PUSH2 0x558E JUMP JUMPDEST PUSH1 0x20 MUL ADD PUSH1 0x20 DUP2 ADD SWAP1 PUSH2 0x208A SWAP2 SWAP1 PUSH2 0x5434 JUMP JUMPDEST PUSH1 0x1 PUSH1 0x1 PUSH1 0xA0 SHL SUB AND SUB PUSH2 0x20D8 JUMPI PUSH1 0x40 MLOAD PUSH3 0x461BCD PUSH1 0xE5 SHL DUP2 MSTORE PUSH1 0x20 PUSH1 0x4 DUP3 ADD MSTORE PUSH1 0x15 PUSH1 0x24 DUP3 ADD MSTORE PUSH21 0x496E76616C696420766F7465722061646472657373 PUSH1 0x58 SHL PUSH1 0x44 DUP3 ADD MSTORE PUSH1 0x64 ADD PUSH2 0xB2E JUMP JUMPDEST PUSH1 0x2 PUSH1 0xE PUSH0 DUP6 DUP5 PUSH1 0xFF AND PUSH1 0xA DUP2 LT PUSH2 0x20F2 JUMPI PUSH2 0x20F2 PUSH2 0x558E JUMP JUMPDEST PUSH1 0x20 MUL ADD PUSH1 0x20 DUP2 ADD SWAP1 PUSH2 0x2105 SWAP2 SWAP1 PUSH2 0x5434 JUMP JUMPDEST PUSH1 0x1 PUSH1 0x1 PUSH1 0xA0 SHL SUB AND PUSH1 0x1 PUSH1 0x1 PUSH1 0xA0 SHL SUB AND DUP2 MSTORE PUSH1 0x20 ADD SWAP1 DUP2 MSTORE PUSH1 0x20 ADD PUSH0 KECCAK256 SLOAD LT PUSH2 0x2187 JUMPI PUSH1 0x40 MLOAD PUSH3 0x461BCD PUSH1 0xE5 SHL DUP2 MSTORE PUSH1 0x20 PUSH1 0x4 DUP3 ADD MSTORE PUSH1 0x2C PUSH1 0x24 DUP3 ADD MSTORE PUSH32 0x4164647265737320616C72656164792072656769737465726564212052454749 PUSH1 0x44 DUP3 ADD MSTORE PUSH12 0x5354524152204552524F5221 PUSH1 0xA0 SHL PUSH1 0x64 DUP3 ADD MSTORE PUSH1 0x84 ADD PUSH2 0xB2E JUMP JUMPDEST PUSH1 0xE PUSH0 DUP5 DUP4 PUSH1 0xFF AND PUSH1 0xA DUP2 LT PUSH2 0x219F JUMPI PUSH2 0x219F PUSH2 0x558E JUMP JUMPDEST PUSH1 0x20 MUL ADD PUSH1 0x20 DUP2 ADD SWAP1 PUSH2 0x21B2 SWAP2 SWAP1 PUSH2 0x5434 JUMP JUMPDEST PUSH1 0x1 PUSH1 0x1 PUSH1 0xA0 SHL SUB AND DUP2 MSTORE PUSH1 0x20 DUP2 ADD SWAP2 SWAP1 SWAP2 MSTORE PUSH1 0x40 ADD PUSH0 SWAP1 DUP2 KECCAK256 DUP1 SLOAD SWAP2 PUSH2 0x21D8 DUP4 PUSH2 0x57A8 JUMP JUMPDEST SWAP2 SWAP1 POP SSTORE POP DUP1 DUP1 PUSH2 0x21E8 SWAP1 PUSH2 0x55B6 JUMP JUMPDEST SWAP2 POP POP PUSH2 0x2055 JUMP JUMPDEST POP PUSH1 0xF DUP1 SLOAD PUSH1 0xA SWAP2 SWAP1 PUSH0 SWAP1 PUSH2 0x220C SWAP1 DUP5 SWAP1 PUSH4 0xFFFFFFFF AND PUSH2 0x5960 JUMP JUMPDEST SWAP3 POP PUSH2 0x100 EXP DUP2 SLOAD DUP2 PUSH4 0xFFFFFFFF MUL NOT AND SWAP1 DUP4 PUSH4 0xFFFFFFFF AND MUL OR SWAP1 SSTORE POP DUP2 PUSH1 0x40 MLOAD PUSH2 0x2238 SWAP2 SWAP1 PUSH2 0x597C JUMP JUMPDEST PUSH1 0x40 DUP1 MLOAD SWAP2 DUP3 SWAP1 SUB DUP3 KECCAK256 PUSH1 0xF SLOAD CALLER DUP5 MSTORE PUSH4 0xFFFFFFFF AND PUSH1 0x20 DUP5 ADD MSTORE SWAP2 PUSH32 0x2BA0AAA9C0E5919BF5CB9FDE7B2825194F9DC6E9AB2A9174C59892A1585C446A SWAP2 ADD PUSH1 0x40 MLOAD DUP1 SWAP2 SUB SWAP1 LOG2 POP POP JUMP JUMPDEST PUSH1 0x16 PUSH1 0x20 MSTORE DUP2 PUSH0 MSTORE PUSH1 0x40 PUSH0 KECCAK256 DUP2 DUP2 SLOAD DUP2 LT PUSH2 0x229C JUMPI PUSH0 DUP1 REVERT JUMPDEST PUSH0 SWAP2 DUP3 MSTORE PUSH1 0x20 SWAP1 SWAP2 KECCAK256 PUSH1 0x2 SWAP1 SWAP2 MUL ADD DUP1 SLOAD PUSH1 0x1 SWAP1 SWAP2 ADD SLOAD SWAP1 SWAP3 POP SWAP1 POP DUP3 JUMP JUMPDEST PUSH2 0x2313 PUSH1 0x40 MLOAD DUP1 PUSH2 0x120 ADD PUSH1 0x40 MSTORE DUP1 PUSH1 0x60 DUP2 MSTORE PUSH1 0x20 ADD PUSH1 0x60 DUP2 MSTORE PUSH1 0x20 ADD PUSH1 0x60 DUP2 MSTORE PUSH1 0x20 ADD PUSH0 DUP2 MSTORE PUSH1 0x20 ADD PUSH0 PUSH2 0xFFFF AND DUP2 MSTORE PUSH1 0x20 ADD PUSH0 PUSH1 0xFF AND DUP2 MSTORE PUSH1 0x20 ADD PUSH0 DUP2 MSTORE PUSH1 0x20 ADD PUSH0 PUSH2 0xFFFF AND DUP2 MSTORE PUSH1 0x20 ADD PUSH0 PUSH2 0xFFFF AND DUP2 MSTORE POP SWAP1 JUMP JUMPDEST PUSH1 0x3 SLOAD DUP3 LT PUSH2 0x235B JUMPI PUSH1 0x40 MLOAD PUSH3 0x461BCD PUSH1 0xE5 SHL DUP2 MSTORE PUSH1 0x20 PUSH1 0x4 DUP3 ADD MSTORE PUSH1 0x14 PUSH1 0x24 DUP3 ADD MSTORE PUSH20 0x125B9D985B1A590810D85B991A59185D19481251 PUSH1 0x62 SHL PUSH1 0x44 DUP3 ADD MSTORE PUSH1 0x64 ADD PUSH2 0xB2E JUMP JUMPDEST PUSH1 0x4 PUSH0 PUSH1 0x3 DUP5 DUP2 SLOAD DUP2 LT PUSH2 0x2371 JUMPI PUSH2 0x2371 PUSH2 0x558E JUMP JUMPDEST PUSH0 SWAP2 DUP3 MSTORE PUSH1 0x20 DUP1 DUP4 KECCAK256 SWAP1 SWAP2 ADD SLOAD PUSH1 0x1 PUSH1 0x1 PUSH1 0xA0 SHL SUB AND DUP4 MSTORE DUP3 ADD SWAP3 SWAP1 SWAP3 MSTORE PUSH1 0x40 SWAP1 DUP2 ADD SWAP1 SWAP2 KECCAK256 DUP2 MLOAD PUSH2 0x120 DUP2 ADD SWAP1 SWAP3 MSTORE DUP1 SLOAD DUP3 SWAP1 DUP3 SWAP1 PUSH2 0x23B0 SWAP1 PUSH2 0x5556 JUMP JUMPDEST DUP1 PUSH1 0x1F ADD PUSH1 0x20 DUP1 SWAP2 DIV MUL PUSH1 0x20 ADD PUSH1 0x40 MLOAD SWAP1 DUP2 ADD PUSH1 0x40 MSTORE DUP1 SWAP3 SWAP2 SWAP1 DUP2 DUP2 MSTORE PUSH1 0x20 ADD DUP3 DUP1 SLOAD PUSH2 0x23DC SWAP1 PUSH2 0x5556 JUMP JUMPDEST DUP1 ISZERO PUSH2 0x2427 JUMPI DUP1 PUSH1 0x1F LT PUSH2 0x23FE JUMPI PUSH2 0x100 DUP1 DUP4 SLOAD DIV MUL DUP4 MSTORE SWAP2 PUSH1 0x20 ADD SWAP2 PUSH2 0x2427 JUMP JUMPDEST DUP3 ADD SWAP2 SWAP1 PUSH0 MSTORE PUSH1 0x20 PUSH0 KECCAK256 SWAP1 JUMPDEST DUP2 SLOAD DUP2 MSTORE SWAP1 PUSH1 0x1 ADD SWAP1 PUSH1 0x20 ADD DUP1 DUP4 GT PUSH2 0x240A JUMPI DUP3 SWAP1 SUB PUSH1 0x1F AND DUP3 ADD SWAP2 JUMPDEST POP POP POP POP POP DUP2 MSTORE PUSH1 0x20 ADD PUSH1 0x1 DUP3 ADD DUP1 SLOAD PUSH2 0x2440 SWAP1 PUSH2 0x5556 JUMP JUMPDEST DUP1 PUSH1 0x1F ADD PUSH1 0x20 DUP1 SWAP2 DIV MUL PUSH1 0x20 ADD PUSH1 0x40 MLOAD SWAP1 DUP2 ADD PUSH1 0x40 MSTORE DUP1 SWAP3 SWAP2 SWAP1 DUP2 DUP2 MSTORE PUSH1 0x20 ADD DUP3 DUP1 SLOAD PUSH2 0x246C SWAP1 PUSH2 0x5556 JUMP JUMPDEST DUP1 ISZERO PUSH2 0x24B7 JUMPI DUP1 PUSH1 0x1F LT PUSH2 0x248E JUMPI PUSH2 0x100 DUP1 DUP4 SLOAD DIV MUL DUP4 MSTORE SWAP2 PUSH1 0x20 ADD SWAP2 PUSH2 0x24B7 JUMP JUMPDEST DUP3 ADD SWAP2 SWAP1 PUSH0 MSTORE PUSH1 0x20 PUSH0 KECCAK256 SWAP1 JUMPDEST DUP2 SLOAD DUP2 MSTORE SWAP1 PUSH1 0x1 ADD SWAP1 PUSH1 0x20 ADD DUP1 DUP4 GT PUSH2 0x249A JUMPI DUP3 SWAP1 SUB PUSH1 0x1F AND DUP3 ADD SWAP2 JUMPDEST POP POP POP POP POP DUP2 MSTORE PUSH1 0x20 ADD PUSH1 0x2 DUP3 ADD DUP1 SLOAD PUSH2 0x24D0 SWAP1 PUSH2 0x5556 JUMP JUMPDEST DUP1 PUSH1 0x1F ADD PUSH1 0x20 DUP1 SWAP2 DIV MUL PUSH1 0x20 ADD PUSH1 0x40 MLOAD SWAP1 DUP2 ADD PUSH1 0x40 MSTORE DUP1 SWAP3 SWAP2 SWAP1 DUP2 DUP2 MSTORE PUSH1 0x20 ADD DUP3 DUP1 SLOAD PUSH2 0x24FC SWAP1 PUSH2 0x5556 JUMP JUMPDEST DUP1 ISZERO PUSH2 0x2547 JUMPI DUP1 PUSH1 0x1F LT PUSH2 0x251E JUMPI PUSH2 0x100 DUP1 DUP4 SLOAD DIV MUL DUP4 MSTORE SWAP2 PUSH1 0x20 ADD SWAP2 PUSH2 0x2547 JUMP JUMPDEST DUP3 ADD SWAP2 SWAP1 PUSH0 MSTORE PUSH1 0x20 PUSH0 KECCAK256 SWAP1 JUMPDEST DUP2 SLOAD DUP2 MSTORE SWAP1 PUSH1 0x1 ADD SWAP1 PUSH1 0x20 ADD DUP1 DUP4 GT PUSH2 0x252A JUMPI DUP3 SWAP1 SUB PUSH1 0x1F AND DUP3 ADD SWAP2 JUMPDEST POP POP POP SWAP2 DUP4 MSTORE POP POP PUSH1 0x3 DUP3 ADD SLOAD PUSH1 0x20 DUP3 ADD MSTORE PUSH1 0x4 DUP3 ADD SLOAD PUSH2 0xFFFF DUP1 DUP3 AND PUSH1 0x40 DUP5 ADD MSTORE PUSH1 0xFF PUSH3 0x10000 SWAP3 DUP4 SWAP1 DIV AND PUSH1 0x60 DUP5 ADD MSTORE PUSH1 0x5 DUP5 ADD SLOAD PUSH1 0x80 DUP5 ADD MSTORE PUSH1 0x6 SWAP1 SWAP4 ADD SLOAD DUP1 DUP5 AND PUSH1 0xA0 DUP5 ADD MSTORE DIV SWAP1 SWAP2 AND PUSH1 0xC0 SWAP1 SWAP2 ADD MSTORE SWAP3 SWAP2 POP POP JUMP JUMPDEST PUSH1 0x40 DUP1 MLOAD DUP1 DUP3 ADD DUP3 MSTORE CALLVALUE DUP1 DUP3 MSTORE TIMESTAMP PUSH1 0x20 DUP1 DUP5 ADD SWAP2 DUP3 MSTORE CALLER PUSH0 DUP2 DUP2 MSTORE PUSH1 0x16 DUP4 MSTORE DUP7 DUP2 KECCAK256 DUP1 SLOAD PUSH1 0x1 DUP1 DUP3 ADD DUP4 SSTORE SWAP2 DUP4 MSTORE SWAP2 DUP5 SWAP1 KECCAK256 DUP8 MLOAD PUSH1 0x2 SWAP1 SWAP4 MUL ADD SWAP2 DUP3 SSTORE SWAP4 MLOAD SWAP4 ADD SWAP3 SWAP1 SWAP3 SSTORE SWAP4 MLOAD SWAP2 DUP3 MSTORE SWAP2 SWAP3 PUSH32 0x976BE468429698A1B0AE0C20A0329BDB6E24722A3F834A2C54B84D63C1722F32 SWAP2 ADD PUSH1 0x40 MLOAD DUP1 SWAP2 SUB SWAP1 LOG2 POP JUMP JUMPDEST PUSH1 0x17 DUP2 PUSH1 0x32 DUP2 LT PUSH2 0x262A JUMPI PUSH0 DUP1 REVERT JUMPDEST PUSH1 0x2 MUL ADD DUP1 SLOAD PUSH1 0x1 SWAP1 SWAP2 ADD SLOAD PUSH1 0x1 PUSH1 0x1 PUSH1 0xA0 SHL SUB SWAP1 SWAP2 AND SWAP2 POP DUP3 JUMP JUMPDEST PUSH0 DUP1 SLOAD TIMESTAMP LT ISZERO PUSH2 0x2655 JUMPI POP PUSH0 SWAP1 JUMP JUMPDEST PUSH2 0x2661 PUSH1 0x32 PUSH1 0x2 PUSH2 0x59C3 JUMP JUMPDEST PUSH1 0xFF AND PUSH1 0x3 DUP1 SLOAD SWAP1 POP LT DUP1 PUSH2 0x2685 JUMPI POP PUSH1 0x2 SLOAD PUSH2 0x4B0 PUSH1 0x1 PUSH1 0xA0 SHL SWAP1 SWAP2 DIV PUSH2 0xFFFF AND LT JUMPDEST ISZERO PUSH2 0x2692 JUMPI POP PUSH0 DUP1 DUP1 SSTORE SWAP1 JUMP JUMPDEST PUSH0 SLOAD PUSH0 SUB PUSH2 0x26C4 JUMPI TIMESTAMP PUSH0 DUP2 SWAP1 SSTORE PUSH2 0x26AD SWAP1 PUSH3 0x127500 SWAP1 PUSH2 0x59E6 JUMP JUMPDEST PUSH2 0x26BA SWAP1 PUSH3 0x15180 PUSH2 0x59E6 JUMP JUMPDEST PUSH1 0x1 SWAP1 DUP2 SSTORE SWAP2 SWAP1 POP JUMP JUMPDEST PUSH1 0x1 DUP1 SLOAD PUSH2 0x26D2 SWAP2 SWAP1 PUSH2 0x55D4 JUMP JUMPDEST TIMESTAMP LT ISZERO PUSH2 0x26DF JUMPI POP PUSH1 0x1 SWAP1 JUMP JUMPDEST PUSH1 0x1 SLOAD TIMESTAMP LT ISZERO PUSH2 0x26EF JUMPI POP PUSH1 0x2 SWAP1 JUMP JUMPDEST PUSH1 0x6 SLOAD PUSH0 SUB PUSH2 0x26FE JUMPI POP PUSH1 0x3 SWAP1 JUMP JUMPDEST PUSH1 0x6 SLOAD TIMESTAMP LT ISZERO PUSH2 0x270E JUMPI POP PUSH1 0x4 SWAP1 JUMP JUMPDEST POP PUSH1 0x5 SWAP1 JUMP JUMPDEST PUSH1 0x9 SLOAD PUSH1 0xFF AND PUSH2 0x2756 JUMPI PUSH1 0x40 MLOAD PUSH3 0x461BCD PUSH1 0xE5 SHL DUP2 MSTORE PUSH1 0x20 PUSH1 0x4 DUP3 ADD MSTORE PUSH1 0xD PUSH1 0x24 DUP3 ADD MSTORE PUSH13 0x139BC81B195859195C881E595D PUSH1 0x9A SHL PUSH1 0x44 DUP3 ADD MSTORE PUSH1 0x64 ADD PUSH2 0xB2E JUMP JUMPDEST PUSH1 0x9 SLOAD PUSH2 0x100 SWAP1 DIV PUSH1 0x1 PUSH1 0x1 PUSH1 0xA0 SHL SUB AND PUSH0 SWAP1 DUP2 MSTORE PUSH1 0x4 PUSH1 0x20 MSTORE PUSH1 0x40 SWAP1 KECCAK256 PUSH1 0x5 ADD SLOAD PUSH2 0x2786 SWAP1 PUSH3 0x127500 SWAP1 PUSH2 0x59E6 JUMP JUMPDEST TIMESTAMP LT ISZERO PUSH2 0x27E0 JUMPI PUSH1 0x40 MLOAD PUSH3 0x461BCD PUSH1 0xE5 SHL DUP2 MSTORE PUSH1 0x20 PUSH1 0x4 DUP3 ADD MSTORE PUSH1 0x22 PUSH1 0x24 DUP3 ADD MSTORE PUSH32 0x43757272656E74206C65616465722773207465726D206E6F742066696E697368 PUSH1 0x44 DUP3 ADD MSTORE PUSH2 0x1959 PUSH1 0xF2 SHL PUSH1 0x64 DUP3 ADD MSTORE PUSH1 0x84 ADD PUSH2 0xB2E JUMP JUMPDEST PUSH1 0xA DUP1 SLOAD SWAP1 PUSH0 PUSH2 0x27EF DUP4 PUSH2 0x57A8 JUMP JUMPDEST SWAP2 SWAP1 POP SSTORE POP PUSH1 0x3 PUSH1 0xA SLOAD DUP2 SLOAD DUP2 LT PUSH2 0x2809 JUMPI PUSH2 0x2809 PUSH2 0x558E JUMP JUMPDEST PUSH0 SWAP2 DUP3 MSTORE PUSH1 0x20 DUP1 DUP4 KECCAK256 SWAP2 SWAP1 SWAP2 ADD SLOAD PUSH1 0x9 DUP1 SLOAD PUSH2 0x100 PUSH1 0x1 PUSH1 0xA8 SHL SUB NOT AND PUSH2 0x100 PUSH1 0x1 PUSH1 0x1 PUSH1 0xA0 SHL SUB SWAP4 DUP5 AND DUP2 MUL SWAP2 SWAP1 SWAP2 OR DUP1 DUP4 SSTORE DUP2 SWAP1 DIV DUP4 AND DUP6 MSTORE PUSH1 0x4 SWAP1 SWAP4 MSTORE PUSH1 0x40 DUP1 DUP6 KECCAK256 TIMESTAMP PUSH1 0x5 SWAP1 SWAP2 ADD SSTORE SWAP1 SLOAD SWAP1 MLOAD SWAP3 SWAP1 DIV AND SWAP2 PUSH32 0x8A84BB57BF3F6ADEFAA7A35A6A5067473F78164BFC14C2F6AE8B93E5B115B35A SWAP2 LOG2 JUMP JUMPDEST PUSH1 0x2 PUSH2 0x288D PUSH2 0x2646 JUMP JUMPDEST PUSH1 0x5 DUP2 GT ISZERO PUSH2 0x289E JUMPI PUSH2 0x289E PUSH2 0x5031 JUMP JUMPDEST EQ PUSH2 0x28E3 JUMPI PUSH1 0x40 MLOAD PUSH3 0x461BCD PUSH1 0xE5 SHL DUP2 MSTORE PUSH1 0x20 PUSH1 0x4 DUP3 ADD MSTORE PUSH1 0x15 PUSH1 0x24 DUP3 ADD MSTORE PUSH21 0x4E6F7420696E20456C656374696F6E207068617365 PUSH1 0x58 SHL PUSH1 0x44 DUP3 ADD MSTORE PUSH1 0x64 ADD PUSH2 0xB2E JUMP JUMPDEST PUSH1 0x3 SLOAD DUP2 GT ISZERO PUSH2 0x292A JUMPI PUSH1 0x40 MLOAD PUSH3 0x461BCD PUSH1 0xE5 SHL DUP2 MSTORE PUSH1 0x20 PUSH1 0x4 DUP3 ADD MSTORE PUSH1 0x12 PUSH1 0x24 DUP3 ADD MSTORE PUSH18 0x125B9D985B1A59081D9BDD194818DBDD5B9D PUSH1 0x72 SHL PUSH1 0x44 DUP3 ADD MSTORE PUSH1 0x64 ADD PUSH2 0xB2E JUMP JUMPDEST CALLER PUSH0 SWAP1 DUP2 MSTORE PUSH1 0x8 PUSH1 0x20 MSTORE PUSH1 0x40 SWAP1 KECCAK256 SLOAD PUSH1 0x1 EQ PUSH2 0x2999 JUMPI PUSH1 0x40 MLOAD PUSH3 0x461BCD PUSH1 0xE5 SHL DUP2 MSTORE PUSH1 0x20 PUSH1 0x4 DUP3 ADD MSTORE PUSH1 0x28 PUSH1 0x24 DUP3 ADD MSTORE PUSH32 0x416C726561647920766F74656420283E3129206F72206E6F7420726567697374 PUSH1 0x44 DUP3 ADD MSTORE PUSH8 0x6572656420283029 PUSH1 0xC0 SHL PUSH1 0x64 DUP3 ADD MSTORE PUSH1 0x84 ADD PUSH2 0xB2E JUMP JUMPDEST PUSH1 0x3 SLOAD PUSH0 SWAP1 PUSH1 0x1 PUSH1 0x1 PUSH1 0x40 SHL SUB DUP2 GT ISZERO PUSH2 0x29B5 JUMPI PUSH2 0x29B5 PUSH2 0x50A9 JUMP JUMPDEST PUSH1 0x40 MLOAD SWAP1 DUP1 DUP3 MSTORE DUP1 PUSH1 0x20 MUL PUSH1 0x20 ADD DUP3 ADD PUSH1 0x40 MSTORE DUP1 ISZERO PUSH2 0x29DE JUMPI DUP2 PUSH1 0x20 ADD PUSH1 0x20 DUP3 MUL DUP1 CALLDATASIZE DUP4 CALLDATACOPY ADD SWAP1 POP JUMPDEST POP CALLER PUSH0 DUP2 DUP2 MSTORE PUSH1 0x8 PUSH1 0x20 MSTORE PUSH1 0x40 DUP1 DUP3 KECCAK256 TIMESTAMP SWAP1 SSTORE MLOAD SWAP3 SWAP4 POP SWAP1 SWAP2 PUSH32 0xB87A61D78BD15221C59B983F6EF032FBDE0631E66BFE18D1421FE5A73C16741D SWAP2 SWAP1 LOG2 PUSH0 JUMPDEST DUP3 DUP2 LT ISZERO PUSH2 0x2B8F JUMPI PUSH0 DUP5 DUP5 DUP4 DUP2 DUP2 LT PUSH2 0x2A38 JUMPI PUSH2 0x2A38 PUSH2 0x558E JUMP JUMPDEST SWAP1 POP PUSH1 0x20 MUL ADD CALLDATALOAD SWAP1 POP PUSH1 0x3 DUP1 SLOAD SWAP1 POP DUP2 LT PUSH2 0x2A8D JUMPI PUSH1 0x40 MLOAD PUSH3 0x461BCD PUSH1 0xE5 SHL DUP2 MSTORE PUSH1 0x20 PUSH1 0x4 DUP3 ADD MSTORE PUSH1 0x15 PUSH1 0x24 DUP3 ADD MSTORE PUSH21 0xAEE4DEDCCE40C6C2DCC8D2C8C2E8CA40D2DCC8CAF PUSH1 0x5B SHL PUSH1 0x44 DUP3 ADD MSTORE PUSH1 0x64 ADD PUSH2 0xB2E JUMP JUMPDEST DUP3 DUP2 DUP2 MLOAD DUP2 LT PUSH2 0x2A9F JUMPI PUSH2 0x2A9F PUSH2 0x558E JUMP JUMPDEST PUSH1 0x20 MUL PUSH1 0x20 ADD ADD MLOAD ISZERO PUSH2 0x2AF4 JUMPI PUSH1 0x40 MLOAD PUSH3 0x461BCD PUSH1 0xE5 SHL DUP2 MSTORE PUSH1 0x20 PUSH1 0x4 DUP3 ADD MSTORE PUSH1 0x1A PUSH1 0x24 DUP3 ADD MSTORE PUSH32 0x526570657469746976652063616E64696461746520696E646578000000000000 PUSH1 0x44 DUP3 ADD MSTORE PUSH1 0x64 ADD PUSH2 0xB2E JUMP JUMPDEST PUSH1 0x1 DUP4 DUP3 DUP2 MLOAD DUP2 LT PUSH2 0x2B08 JUMPI PUSH2 0x2B08 PUSH2 0x558E JUMP JUMPDEST PUSH1 0x20 MUL PUSH1 0x20 ADD ADD SWAP1 ISZERO ISZERO SWAP1 DUP2 ISZERO ISZERO DUP2 MSTORE POP POP PUSH1 0x4 PUSH0 PUSH1 0x3 DUP4 DUP2 SLOAD DUP2 LT PUSH2 0x2B30 JUMPI PUSH2 0x2B30 PUSH2 0x558E JUMP JUMPDEST PUSH0 SWAP2 DUP3 MSTORE PUSH1 0x20 DUP1 DUP4 KECCAK256 SWAP1 SWAP2 ADD SLOAD PUSH1 0x1 PUSH1 0x1 PUSH1 0xA0 SHL SUB AND DUP4 MSTORE DUP3 ADD SWAP3 SWAP1 SWAP3 MSTORE PUSH1 0x40 ADD DUP2 KECCAK256 PUSH1 0x4 ADD DUP1 SLOAD PUSH2 0xFFFF AND SWAP2 PUSH2 0x2B66 DUP4 PUSH2 0x5791 JUMP JUMPDEST SWAP2 SWAP1 PUSH2 0x100 EXP DUP2 SLOAD DUP2 PUSH2 0xFFFF MUL NOT AND SWAP1 DUP4 PUSH2 0xFFFF AND MUL OR SWAP1 SSTORE POP POP POP DUP1 DUP1 PUSH1 0x1 ADD SWAP2 POP POP PUSH2 0x2A1D JUMP JUMPDEST POP POP POP POP JUMP JUMPDEST PUSH1 0x3 DUP2 DUP2 SLOAD DUP2 LT PUSH2 0x2BA4 JUMPI PUSH0 DUP1 REVERT JUMPDEST PUSH0 SWAP2 DUP3 MSTORE PUSH1 0x20 SWAP1 SWAP2 KECCAK256 ADD SLOAD PUSH1 0x1 PUSH1 0x1 PUSH1 0xA0 SHL SUB AND SWAP1 POP DUP2 JUMP JUMPDEST CALLER PUSH0 SWAP1 DUP2 MSTORE PUSH1 0x4 PUSH1 0x20 DUP2 SWAP1 MSTORE PUSH1 0x40 SWAP1 SWAP2 KECCAK256 ADD SLOAD PUSH3 0x10000 SWAP1 DIV PUSH1 0xFF AND PUSH2 0x2C14 JUMPI PUSH1 0x40 MLOAD PUSH3 0x461BCD PUSH1 0xE5 SHL DUP2 MSTORE PUSH1 0x20 PUSH1 0x4 DUP3 ADD MSTORE PUSH1 0xC PUSH1 0x24 DUP3 ADD MSTORE PUSH12 0x2737BA10309036B2B6B132B9 PUSH1 0xA1 SHL PUSH1 0x44 DUP3 ADD MSTORE PUSH1 0x64 ADD PUSH2 0xB2E JUMP JUMPDEST CALLER PUSH0 SWAP1 DUP2 MSTORE PUSH1 0x4 PUSH1 0x20 MSTORE PUSH1 0x40 SWAP1 KECCAK256 PUSH1 0x6 ADD SLOAD PUSH3 0x10000 SWAP1 DIV PUSH2 0xFFFF AND ISZERO PUSH2 0x2C71 JUMPI PUSH1 0x40 MLOAD PUSH3 0x461BCD PUSH1 0xE5 SHL DUP2 MSTORE PUSH1 0x20 PUSH1 0x4 DUP3 ADD MSTORE PUSH1 0x11 PUSH1 0x24 DUP3 ADD MSTORE PUSH17 0x105B1C9958591E481CDD589B5A5D1D1959 PUSH1 0x7A SHL PUSH1 0x44 DUP3 ADD MSTORE PUSH1 0x64 ADD PUSH2 0xB2E JUMP JUMPDEST PUSH1 0x3 PUSH2 0x2C7B PUSH2 0x2646 JUMP JUMPDEST PUSH1 0x5 DUP2 GT ISZERO PUSH2 0x2C8C JUMPI PUSH2 0x2C8C PUSH2 0x5031 JUMP JUMPDEST EQ PUSH2 0x2CC7 JUMPI PUSH1 0x40 MLOAD PUSH3 0x461BCD PUSH1 0xE5 SHL DUP2 MSTORE PUSH1 0x20 PUSH1 0x4 DUP3 ADD MSTORE PUSH1 0xB PUSH1 0x24 DUP3 ADD MSTORE PUSH11 0x57726F6E67207068617365 PUSH1 0xA8 SHL PUSH1 0x44 DUP3 ADD MSTORE PUSH1 0x64 ADD PUSH2 0xB2E JUMP JUMPDEST DUP1 MLOAD MLOAD PUSH2 0x2D0D JUMPI PUSH1 0x40 MLOAD PUSH3 0x461BCD PUSH1 0xE5 SHL DUP2 MSTORE PUSH1 0x20 PUSH1 0x4 DUP3 ADD MSTORE PUSH1 0x14 PUSH1 0x24 DUP3 ADD MSTORE PUSH20 0x11195CD8DC9A5C1D1A5BDB881C995C5D5A5C9959 PUSH1 0x62 SHL PUSH1 0x44 DUP3 ADD MSTORE PUSH1 0x64 ADD PUSH2 0xB2E JUMP JUMPDEST PUSH0 DUP2 PUSH1 0x20 ADD MLOAD MLOAD GT PUSH2 0x2D61 JUMPI PUSH1 0x40 MLOAD PUSH3 0x461BCD PUSH1 0xE5 SHL DUP2 MSTORE PUSH1 0x20 PUSH1 0x4 DUP3 ADD MSTORE PUSH1 0x19 PUSH1 0x24 DUP3 ADD MSTORE PUSH32 0x636F6E737469747574696F6E5465787420726571756972656400000000000000 PUSH1 0x44 DUP3 ADD MSTORE PUSH1 0x64 ADD PUSH2 0xB2E JUMP JUMPDEST PUSH0 DUP2 PUSH1 0x60 ADD MLOAD MLOAD GT PUSH2 0x2DAE JUMPI PUSH1 0x40 MLOAD PUSH3 0x461BCD PUSH1 0xE5 SHL DUP2 MSTORE PUSH1 0x20 PUSH1 0x4 DUP3 ADD MSTORE PUSH1 0x16 PUSH1 0x24 DUP3 ADD MSTORE PUSH22 0x20BA103632B0B9BA1037B7329039BAB136B4BA3A32B9 PUSH1 0x51 SHL PUSH1 0x44 DUP3 ADD MSTORE PUSH1 0x64 ADD PUSH2 0xB2E JUMP JUMPDEST PUSH0 DUP2 PUSH0 ADD MLOAD DUP3 PUSH1 0x40 ADD MLOAD DUP4 PUSH1 0x20 ADD MLOAD PUSH1 0x40 MLOAD PUSH1 0x20 ADD PUSH2 0x2DCF SWAP4 SWAP3 SWAP2 SWAP1 PUSH2 0x5A10 JUMP JUMPDEST PUSH1 0x40 MLOAD PUSH1 0x20 DUP2 DUP4 SUB SUB DUP2 MSTORE SWAP1 PUSH1 0x40 MSTORE DUP1 MLOAD SWAP1 PUSH1 0x20 ADD KECCAK256 SWAP1 POP DUP2 PUSH1 0x80 ADD MLOAD DUP2 EQ PUSH2 0x2E2C JUMPI PUSH1 0x40 MLOAD PUSH3 0x461BCD PUSH1 0xE5 SHL DUP2 MSTORE PUSH1 0x20 PUSH1 0x4 DUP3 ADD MSTORE PUSH1 0xF PUSH1 0x24 DUP3 ADD MSTORE PUSH15 0x496E636F7272656374204861736821 PUSH1 0x88 SHL PUSH1 0x44 DUP3 ADD MSTORE PUSH1 0x64 ADD PUSH2 0xB2E JUMP JUMPDEST TIMESTAMP PUSH1 0xC0 DUP4 ADD MSTORE PUSH0 PUSH1 0xE0 DUP4 ADD DUP2 SWAP1 MSTORE PUSH1 0xC DUP1 SLOAD CALLER DUP4 MSTORE PUSH1 0x4 PUSH1 0x20 MSTORE PUSH1 0x40 SWAP3 DUP4 SWAP1 KECCAK256 PUSH1 0x6 ADD DUP1 SLOAD PUSH2 0xFFFF SWAP1 SWAP3 AND PUSH3 0x10000 MUL PUSH4 0xFFFF0000 NOT SWAP1 SWAP3 AND SWAP2 SWAP1 SWAP2 OR SWAP1 SSTORE SLOAD SWAP1 MLOAD PUSH32 0x69006E6563904066B3005AAF324A96C53889602AE777132507198179576E1BF SWAP1 PUSH2 0x2E9B SWAP1 DUP6 SWAP1 PUSH2 0x594E JUMP JUMPDEST PUSH1 0x40 MLOAD DUP1 SWAP2 SUB SWAP1 LOG2 PUSH1 0xC DUP1 SLOAD PUSH1 0x1 DUP2 ADD DUP3 SSTORE PUSH0 SWAP2 SWAP1 SWAP2 MSTORE DUP3 MLOAD DUP4 SWAP2 PUSH1 0x8 MUL PUSH32 0xDF6966C971051C3D54EC59162606531493A51404A002842F56009D7E5CF4A8C7 ADD SWAP1 DUP2 SWAP1 PUSH2 0x2EE8 SWAP1 DUP3 PUSH2 0x5A36 JUMP JUMPDEST POP PUSH1 0x20 DUP3 ADD MLOAD PUSH1 0x1 DUP3 ADD SWAP1 PUSH2 0x2EFD SWAP1 DUP3 PUSH2 0x5A36 JUMP JUMPDEST POP PUSH1 0x40 DUP3 ADD MLOAD PUSH1 0x2 DUP3 ADD SWAP1 PUSH2 0x2F12 SWAP1 DUP3 PUSH2 0x5A36 JUMP JUMPDEST POP PUSH1 0x60 DUP3 ADD MLOAD DUP1 MLOAD PUSH2 0x2F2E SWAP2 PUSH1 0x3 DUP5 ADD SWAP2 PUSH1 0x20 SWAP1 SWAP2 ADD SWAP1 PUSH2 0x4AC8 JUMP JUMPDEST POP PUSH1 0x80 DUP3 ADD MLOAD PUSH1 0x4 DUP3 ADD SSTORE PUSH1 0xA0 DUP3 ADD MLOAD PUSH1 0x5 DUP3 ADD SWAP1 PUSH2 0x2F4D SWAP1 DUP3 PUSH2 0x5A36 JUMP JUMPDEST POP PUSH1 0xC0 DUP3 ADD MLOAD DUP2 PUSH1 0x6 ADD SSTORE PUSH1 0xE0 DUP3 ADD MLOAD DUP2 PUSH1 0x7 ADD SSTORE POP POP POP POP JUMP JUMPDEST PUSH0 DUP1 DUP5 DUP5 DUP5 PUSH1 0x40 MLOAD PUSH1 0x20 ADD PUSH2 0x2F7F SWAP4 SWAP3 SWAP2 SWAP1 PUSH2 0x5AEB JUMP JUMPDEST PUSH1 0x40 DUP1 MLOAD DUP1 DUP4 SUB PUSH1 0x1F NOT ADD DUP2 MSTORE SWAP2 DUP2 MSTORE DUP2 MLOAD PUSH1 0x20 SWAP3 DUP4 ADD KECCAK256 PUSH0 SWAP1 DUP2 MSTORE PUSH1 0x7 SWAP1 SWAP3 MSTORE SWAP1 KECCAK256 SLOAD PUSH1 0xFF AND SWAP6 SWAP5 POP POP POP POP POP JUMP JUMPDEST PUSH1 0xC DUP2 DUP2 SLOAD DUP2 LT PUSH2 0x2FBE JUMPI PUSH0 DUP1 REVERT JUMPDEST SWAP1 PUSH0 MSTORE PUSH1 0x20 PUSH0 KECCAK256 SWAP1 PUSH1 0x8 MUL ADD PUSH0 SWAP2 POP SWAP1 POP DUP1 PUSH0 ADD DUP1 SLOAD PUSH2 0x2FDD SWAP1 PUSH2 0x5556 JUMP JUMPDEST DUP1 PUSH1 0x1F ADD PUSH1 0x20 DUP1 SWAP2 DIV MUL PUSH1 0x20 ADD PUSH1 0x40 MLOAD SWAP1 DUP2 ADD PUSH1 0x40 MSTORE DUP1 SWAP3 SWAP2 SWAP1 DUP2 DUP2 MSTORE PUSH1 0x20 ADD DUP3 DUP1 SLOAD PUSH2 0x3009 SWAP1 PUSH2 0x5556 JUMP JUMPDEST DUP1 ISZERO PUSH2 0x3054 JUMPI DUP1 PUSH1 0x1F LT PUSH2 0x302B JUMPI PUSH2 0x100 DUP1 DUP4 SLOAD DIV MUL DUP4 MSTORE SWAP2 PUSH1 0x20 ADD SWAP2 PUSH2 0x3054 JUMP JUMPDEST DUP3 ADD SWAP2 SWAP1 PUSH0 MSTORE PUSH1 0x20 PUSH0 KECCAK256 SWAP1 JUMPDEST DUP2 SLOAD DUP2 MSTORE SWAP1 PUSH1 0x1 ADD SWAP1 PUSH1 0x20 ADD DUP1 DUP4 GT PUSH2 0x3037 JUMPI DUP3 SWAP1 SUB PUSH1 0x1F AND DUP3 ADD SWAP2 JUMPDEST POP POP POP POP POP SWAP1 DUP1 PUSH1 0x1 ADD DUP1 SLOAD PUSH2 0x3069 SWAP1 PUSH2 0x5556 JUMP JUMPDEST DUP1 PUSH1 0x1F ADD PUSH1 0x20 DUP1 SWAP2 DIV MUL PUSH1 0x20 ADD PUSH1 0x40 MLOAD SWAP1 DUP2 ADD PUSH1 0x40 MSTORE DUP1 SWAP3 SWAP2 SWAP1 DUP2 DUP2 MSTORE PUSH1 0x20 ADD DUP3 DUP1 SLOAD PUSH2 0x3095 SWAP1 PUSH2 0x5556 JUMP JUMPDEST DUP1 ISZERO PUSH2 0x30E0 JUMPI DUP1 PUSH1 0x1F LT PUSH2 0x30B7 JUMPI PUSH2 0x100 DUP1 DUP4 SLOAD DIV MUL DUP4 MSTORE SWAP2 PUSH1 0x20 ADD SWAP2 PUSH2 0x30E0 JUMP JUMPDEST DUP3 ADD SWAP2 SWAP1 PUSH0 MSTORE PUSH1 0x20 PUSH0 KECCAK256 SWAP1 JUMPDEST DUP2 SLOAD DUP2 MSTORE SWAP1 PUSH1 0x1 ADD SWAP1 PUSH1 0x20 ADD DUP1 DUP4 GT PUSH2 0x30C3 JUMPI DUP3 SWAP1 SUB PUSH1 0x1F AND DUP3 ADD SWAP2 JUMPDEST POP POP POP POP POP SWAP1 DUP1 PUSH1 0x2 ADD DUP1 SLOAD PUSH2 0x30F5 SWAP1 PUSH2 0x5556 JUMP JUMPDEST DUP1 PUSH1 0x1F ADD PUSH1 0x20 DUP1 SWAP2 DIV MUL PUSH1 0x20 ADD PUSH1 0x40 MLOAD SWAP1 DUP2 ADD PUSH1 0x40 MSTORE DUP1 SWAP3 SWAP2 SWAP1 DUP2 DUP2 MSTORE PUSH1 0x20 ADD DUP3 DUP1 SLOAD PUSH2 0x3121 SWAP1 PUSH2 0x5556 JUMP JUMPDEST DUP1 ISZERO PUSH2 0x316C JUMPI DUP1 PUSH1 0x1F LT PUSH2 0x3143 JUMPI PUSH2 0x100 DUP1 DUP4 SLOAD DIV MUL DUP4 MSTORE SWAP2 PUSH1 0x20 ADD SWAP2 PUSH2 0x316C JUMP JUMPDEST DUP3 ADD SWAP2 SWAP1 PUSH0 MSTORE PUSH1 0x20 PUSH0 KECCAK256 SWAP1 JUMPDEST DUP2 SLOAD DUP2 MSTORE SWAP1 PUSH1 0x1 ADD SWAP1 PUSH1 0x20 ADD DUP1 DUP4 GT PUSH2 0x314F JUMPI DUP3 SWAP1 SUB PUSH1 0x1F AND DUP3 ADD SWAP2 JUMPDEST POP POP POP POP POP SWAP1 DUP1 PUSH1 0x4 ADD SLOAD SWAP1 DUP1 PUSH1 0x5 ADD DUP1 SLOAD PUSH2 0x3187 SWAP1 PUSH2 0x5556 JUMP JUMPDEST DUP1 PUSH1 0x1F ADD PUSH1 0x20 DUP1 SWAP2 DIV MUL PUSH1 0x20 ADD PUSH1 0x40 MLOAD SWAP1 DUP2 ADD PUSH1 0x40 MSTORE DUP1 SWAP3 SWAP2 SWAP1 DUP2 DUP2 MSTORE PUSH1 0x20 ADD DUP3 DUP1 SLOAD PUSH2 0x31B3 SWAP1 PUSH2 0x5556 JUMP JUMPDEST DUP1 ISZERO PUSH2 0x31FE JUMPI DUP1 PUSH1 0x1F LT PUSH2 0x31D5 JUMPI PUSH2 0x100 DUP1 DUP4 SLOAD DIV MUL DUP4 MSTORE SWAP2 PUSH1 0x20 ADD SWAP2 PUSH2 0x31FE JUMP JUMPDEST DUP3 ADD SWAP2 SWAP1 PUSH0 MSTORE PUSH1 0x20 PUSH0 KECCAK256 SWAP1 JUMPDEST DUP2 SLOAD DUP2 MSTORE SWAP1 PUSH1 0x1 ADD SWAP1 PUSH1 0x20 ADD DUP1 DUP4 GT PUSH2 0x31E1 JUMPI DUP3 SWAP1 SUB PUSH1 0x1F AND DUP3 ADD SWAP2 JUMPDEST POP POP POP POP POP SWAP1 DUP1 PUSH1 0x6 ADD SLOAD SWAP1 DUP1 PUSH1 0x7 ADD SLOAD SWAP1 POP DUP8 JUMP JUMPDEST CALLER PUSH0 SWAP1 DUP2 MSTORE PUSH1 0x4 PUSH1 0x20 DUP2 SWAP1 MSTORE PUSH1 0x40 DUP3 KECCAK256 ADD SLOAD PUSH3 0x10000 SWAP1 DIV PUSH1 0xFF AND PUSH2 0x327B JUMPI PUSH1 0x40 MLOAD PUSH3 0x461BCD PUSH1 0xE5 SHL DUP2 MSTORE PUSH1 0x20 PUSH1 0x4 DUP3 ADD MSTORE PUSH1 0x18 PUSH1 0x24 DUP3 ADD MSTORE PUSH32 0x4F6E6C79206D656D626572732063616E2070726F706F73650000000000000000 PUSH1 0x44 DUP3 ADD MSTORE PUSH1 0x64 ADD PUSH2 0xB2E JUMP JUMPDEST PUSH2 0x1388 DUP3 GT ISZERO PUSH2 0x32BA JUMPI PUSH1 0x40 MLOAD PUSH3 0x461BCD PUSH1 0xE5 SHL DUP2 MSTORE PUSH1 0x20 PUSH1 0x4 DUP3 ADD MSTORE PUSH1 0xA PUSH1 0x24 DUP3 ADD MSTORE PUSH10 0x52617465203E20353025 PUSH1 0xB0 SHL PUSH1 0x44 DUP3 ADD MSTORE PUSH1 0x64 ADD PUSH2 0xB2E JUMP JUMPDEST CALLER PUSH0 SWAP1 DUP2 MSTORE PUSH1 0x7B PUSH1 0x20 MSTORE PUSH1 0x40 DUP2 KECCAK256 SLOAD PUSH1 0xFF AND DUP2 DUP2 ISZERO DUP1 ISZERO PUSH2 0x32DF JUMPI POP PUSH1 0x7C SLOAD PUSH1 0xFF AND ISZERO ISZERO JUMPDEST ISZERO PUSH2 0x3320 JUMPI PUSH1 0x7C DUP1 SLOAD PUSH1 0xFF AND SWAP1 PUSH0 PUSH2 0x32F6 DUP4 PUSH2 0x5B20 JUMP JUMPDEST DUP3 SLOAD PUSH2 0x100 SWAP3 SWAP1 SWAP3 EXP PUSH1 0xFF DUP2 DUP2 MUL NOT SWAP1 SWAP4 AND SWAP2 DUP4 AND MUL OR SWAP1 SWAP2 SSTORE PUSH1 0x7C SLOAD PUSH0 SWAP6 POP AND SWAP2 POP PUSH2 0x3344 SWAP1 POP JUMP JUMPDEST PUSH1 0x17 DUP3 PUSH1 0xFF AND PUSH1 0x32 DUP2 LT PUSH2 0x3336 JUMPI PUSH2 0x3336 PUSH2 0x558E JUMP JUMPDEST PUSH1 0x2 MUL ADD PUSH1 0x1 ADD SLOAD SWAP3 POP DUP2 SWAP1 POP JUMPDEST DUP3 DUP6 SUB PUSH2 0x33B6 JUMPI DUP5 PUSH0 SUB PUSH2 0x33AE JUMPI CALLER PUSH1 0x17 DUP3 PUSH1 0xFF AND PUSH1 0x32 DUP2 LT PUSH2 0x3369 JUMPI PUSH2 0x3369 PUSH2 0x558E JUMP JUMPDEST PUSH1 0x2 MUL ADD DUP1 SLOAD PUSH1 0x1 PUSH1 0x1 PUSH1 0xA0 SHL SUB NOT AND PUSH1 0x1 PUSH1 0x1 PUSH1 0xA0 SHL SUB SWAP3 SWAP1 SWAP3 AND SWAP2 SWAP1 SWAP2 OR SWAP1 SSTORE CALLER PUSH0 SWAP1 DUP2 MSTORE PUSH1 0x7B PUSH1 0x20 MSTORE PUSH1 0x40 SWAP1 KECCAK256 DUP1 SLOAD PUSH1 0xFF NOT AND PUSH1 0xFF DUP4 AND OR SWAP1 SSTORE SWAP5 SWAP4 POP POP POP POP JUMP JUMPDEST POP SWAP4 SWAP3 POP POP POP JUMP JUMPDEST DUP3 DUP6 GT ISZERO PUSH2 0x34D6 JUMPI JUMPDEST PUSH2 0x33CB PUSH1 0x1 PUSH1 0x32 PUSH2 0x5B3B JUMP JUMPDEST PUSH1 0xFF AND DUP2 PUSH1 0xFF AND LT DUP1 ISZERO PUSH2 0x3405 JUMPI POP PUSH1 0x17 PUSH2 0x33E7 DUP3 PUSH1 0x1 PUSH2 0x5B54 JUMP JUMPDEST PUSH1 0xFF AND PUSH1 0x32 DUP2 LT PUSH2 0x33FA JUMPI PUSH2 0x33FA PUSH2 0x558E JUMP JUMPDEST PUSH1 0x2 MUL ADD PUSH1 0x1 ADD SLOAD DUP6 GT JUMPDEST ISZERO PUSH2 0x34D1 JUMPI PUSH1 0x17 PUSH2 0x3417 DUP3 PUSH1 0x1 PUSH2 0x5B54 JUMP JUMPDEST PUSH1 0xFF AND PUSH1 0x32 DUP2 LT PUSH2 0x342A JUMPI PUSH2 0x342A PUSH2 0x558E JUMP JUMPDEST PUSH1 0x2 MUL ADD PUSH1 0x17 DUP3 PUSH1 0xFF AND PUSH1 0x32 DUP2 LT PUSH2 0x3444 JUMPI PUSH2 0x3444 PUSH2 0x558E JUMP JUMPDEST DUP3 SLOAD PUSH1 0x2 SWAP2 SWAP1 SWAP2 MUL SWAP2 SWAP1 SWAP2 ADD DUP1 SLOAD PUSH1 0x1 PUSH1 0x1 PUSH1 0xA0 SHL SUB NOT AND PUSH1 0x1 PUSH1 0x1 PUSH1 0xA0 SHL SUB SWAP1 SWAP3 AND SWAP2 SWAP1 SWAP2 OR DUP2 SSTORE PUSH1 0x1 SWAP2 DUP3 ADD SLOAD SWAP2 ADD SSTORE DUP1 PUSH1 0x7B PUSH0 PUSH1 0x17 PUSH1 0xFF DUP5 AND PUSH1 0x32 DUP2 LT PUSH2 0x3490 JUMPI PUSH2 0x3490 PUSH2 0x558E JUMP JUMPDEST PUSH1 0x2 MUL ADD SLOAD PUSH1 0x1 PUSH1 0x1 PUSH1 0xA0 SHL SUB AND DUP2 MSTORE PUSH1 0x20 DUP2 ADD SWAP2 SWAP1 SWAP2 MSTORE PUSH1 0x40 ADD PUSH0 KECCAK256 DUP1 SLOAD PUSH1 0xFF NOT AND PUSH1 0xFF SWAP3 SWAP1 SWAP3 AND SWAP2 SWAP1 SWAP2 OR SWAP1 SSTORE DUP1 PUSH2 0x34C9 DUP2 PUSH2 0x55B6 JUMP JUMPDEST SWAP2 POP POP PUSH2 0x33BF JUMP JUMPDEST PUSH2 0x35DA JUMP JUMPDEST PUSH0 DUP2 PUSH1 0xFF AND GT DUP1 ISZERO PUSH2 0x350E JUMPI POP PUSH1 0x17 PUSH2 0x34F0 PUSH1 0x1 DUP4 PUSH2 0x5B3B JUMP JUMPDEST PUSH1 0xFF AND PUSH1 0x32 DUP2 LT PUSH2 0x3503 JUMPI PUSH2 0x3503 PUSH2 0x558E JUMP JUMPDEST PUSH1 0x2 MUL ADD PUSH1 0x1 ADD SLOAD DUP6 LT JUMPDEST ISZERO PUSH2 0x35DA JUMPI PUSH1 0x17 PUSH2 0x3520 PUSH1 0x1 DUP4 PUSH2 0x5B3B JUMP JUMPDEST PUSH1 0xFF AND PUSH1 0x32 DUP2 LT PUSH2 0x3533 JUMPI PUSH2 0x3533 PUSH2 0x558E JUMP JUMPDEST PUSH1 0x2 MUL ADD PUSH1 0x17 DUP3 PUSH1 0xFF AND PUSH1 0x32 DUP2 LT PUSH2 0x354D JUMPI PUSH2 0x354D PUSH2 0x558E JUMP JUMPDEST DUP3 SLOAD PUSH1 0x2 SWAP2 SWAP1 SWAP2 MUL SWAP2 SWAP1 SWAP2 ADD DUP1 SLOAD PUSH1 0x1 PUSH1 0x1 PUSH1 0xA0 SHL SUB NOT AND PUSH1 0x1 PUSH1 0x1 PUSH1 0xA0 SHL SUB SWAP1 SWAP3 AND SWAP2 SWAP1 SWAP2 OR DUP2 SSTORE PUSH1 0x1 SWAP2 DUP3 ADD SLOAD SWAP2 ADD SSTORE DUP1 PUSH1 0x7B PUSH0 PUSH1 0x17 PUSH1 0xFF DUP5 AND PUSH1 0x32 DUP2 LT PUSH2 0x3599 JUMPI PUSH2 0x3599 PUSH2 0x558E JUMP JUMPDEST PUSH1 0x2 MUL ADD SLOAD PUSH1 0x1 PUSH1 0x1 PUSH1 0xA0 SHL SUB AND DUP2 MSTORE PUSH1 0x20 DUP2 ADD SWAP2 SWAP1 SWAP2 MSTORE PUSH1 0x40 ADD PUSH0 KECCAK256 DUP1 SLOAD PUSH1 0xFF NOT AND PUSH1 0xFF SWAP3 SWAP1 SWAP3 AND SWAP2 SWAP1 SWAP2 OR SWAP1 SSTORE DUP1 PUSH2 0x35D2 DUP2 PUSH2 0x5B20 JUMP JUMPDEST SWAP2 POP POP PUSH2 0x34D6 JUMP JUMPDEST PUSH1 0x40 DUP1 MLOAD DUP1 DUP3 ADD SWAP1 SWAP2 MSTORE CALLER DUP2 MSTORE PUSH1 0x20 DUP2 ADD DUP7 SWAP1 MSTORE PUSH1 0x17 PUSH1 0xFF DUP4 AND PUSH1 0x32 DUP2 LT PUSH2 0x3604 JUMPI PUSH2 0x3604 PUSH2 0x558E JUMP JUMPDEST DUP3 MLOAD PUSH1 0x2 SWAP2 SWAP1 SWAP2 MUL SWAP2 SWAP1 SWAP2 ADD DUP1 SLOAD PUSH1 0x1 PUSH1 0x1 PUSH1 0xA0 SHL SUB NOT AND PUSH1 0x1 PUSH1 0x1 PUSH1 0xA0 SHL SUB SWAP1 SWAP3 AND SWAP2 SWAP1 SWAP2 OR DUP2 SSTORE PUSH1 0x20 SWAP2 DUP3 ADD MLOAD PUSH1 0x1 SWAP1 SWAP2 ADD SSTORE CALLER PUSH0 DUP2 DUP2 MSTORE PUSH1 0x7B DUP4 MSTORE PUSH1 0x40 SWAP1 DUP2 SWAP1 KECCAK256 DUP1 SLOAD PUSH1 0xFF NOT AND PUSH1 0xFF DUP7 DUP2 AND SWAP2 DUP3 OR SWAP1 SWAP3 SSTORE DUP3 MLOAD DUP9 DUP2 MSTORE SWAP2 DUP8 AND SWAP5 DUP3 ADD SWAP5 SWAP1 SWAP5 MSTORE SWAP1 DUP2 ADD DUP9 SWAP1 MSTORE PUSH1 0x60 DUP2 ADD SWAP3 SWAP1 SWAP3 MSTORE SWAP1 PUSH32 0x1CE0BEAEC98D7537137A85C2D351C6C99900830D30FE8A7C353FA27225807E72 SWAP1 PUSH1 0x80 ADD PUSH1 0x40 MLOAD DUP1 SWAP2 SUB SWAP1 LOG2 PUSH1 0x17 PUSH2 0x36B2 PUSH1 0x2 PUSH1 0x32 PUSH2 0x5B6D JUMP JUMPDEST PUSH1 0xFF AND PUSH1 0x32 DUP2 LT PUSH2 0x36C5 JUMPI PUSH2 0x36C5 PUSH2 0x558E JUMP JUMPDEST PUSH1 0x2 MUL ADD PUSH1 0x1 ADD SLOAD PUSH1 0x14 SLOAD EQ PUSH2 0x37BB JUMPI PUSH1 0x17 PUSH2 0x36E3 PUSH1 0x2 PUSH1 0x32 PUSH2 0x5B6D JUMP JUMPDEST PUSH1 0xFF AND PUSH1 0x32 DUP2 LT PUSH2 0x36F6 JUMPI PUSH2 0x36F6 PUSH2 0x558E JUMP JUMPDEST PUSH1 0x1 PUSH1 0x2 SWAP2 DUP3 MUL SWAP3 SWAP1 SWAP3 ADD DUP3 ADD SLOAD PUSH1 0x14 DUP2 DUP2 SSTORE PUSH1 0x40 DUP1 MLOAD DUP1 DUP3 ADD DUP3 MSTORE SWAP3 DUP4 MSTORE TIMESTAMP PUSH1 0x20 DUP5 ADD SWAP1 DUP2 MSTORE PUSH1 0x15 DUP1 SLOAD SWAP7 DUP8 ADD DUP2 SSTORE PUSH0 MSTORE SWAP3 MLOAD SWAP5 SWAP1 SWAP4 MUL PUSH32 0x55F448FDEA98C4D29EB340757EF0A66CD03DBB9538908A6A81D96026B71EC475 DUP2 ADD SWAP5 SWAP1 SWAP5 SSTORE SWAP1 MLOAD PUSH32 0x55F448FDEA98C4D29EB340757EF0A66CD03DBB9538908A6A81D96026B71EC476 SWAP1 SWAP4 ADD SWAP3 SWAP1 SWAP3 SSTORE SWAP1 SLOAD SWAP1 MLOAD PUSH32 0xA90E14BE5AA57B910AA6DC16C31FF1B5CDA380AE25A793B0D3F74DF6131A7D74 SWAP2 PUSH2 0x37B2 SWAP2 SWAP1 DUP2 MSTORE PUSH1 0x20 ADD SWAP1 JUMP JUMPDEST PUSH1 0x40 MLOAD DUP1 SWAP2 SUB SWAP1 LOG1 JUMPDEST SWAP5 SWAP4 POP POP POP POP JUMP JUMPDEST TIMESTAMP PUSH3 0x5C4900 PUSH1 0x1 SLOAD PUSH2 0x37D5 SWAP2 SWAP1 PUSH2 0x59E6 JUMP JUMPDEST LT PUSH2 0x3822 JUMPI PUSH1 0x40 MLOAD PUSH3 0x461BCD PUSH1 0xE5 SHL DUP2 MSTORE PUSH1 0x20 PUSH1 0x4 DUP3 ADD MSTORE PUSH1 0x1B PUSH1 0x24 DUP3 ADD MSTORE PUSH32 0x43616E6E6F74207374617274207265666572656E64756D207965740000000000 PUSH1 0x44 DUP3 ADD MSTORE PUSH1 0x64 ADD PUSH2 0xB2E JUMP JUMPDEST PUSH1 0x10 SLOAD ISZERO PUSH2 0x3865 JUMPI PUSH1 0x40 MLOAD PUSH3 0x461BCD PUSH1 0xE5 SHL DUP2 MSTORE PUSH1 0x20 PUSH1 0x4 DUP3 ADD MSTORE PUSH1 0x10 PUSH1 0x24 DUP3 ADD MSTORE PUSH16 0x105B1C9958591E481C985D1A599A5959 PUSH1 0x82 SHL PUSH1 0x44 DUP3 ADD MSTORE PUSH1 0x64 ADD PUSH2 0xB2E JUMP JUMPDEST PUSH1 0xC SLOAD PUSH1 0xA LT PUSH2 0x38AB JUMPI PUSH1 0x40 MLOAD PUSH3 0x461BCD PUSH1 0xE5 SHL DUP2 MSTORE PUSH1 0x20 PUSH1 0x4 DUP3 ADD MSTORE PUSH1 0x11 PUSH1 0x24 DUP3 ADD MSTORE PUSH17 0x4E6F7420656E6F75676820647261667473 PUSH1 0x78 SHL PUSH1 0x44 DUP3 ADD MSTORE PUSH1 0x64 ADD PUSH2 0xB2E JUMP JUMPDEST PUSH1 0xF SLOAD PUSH3 0xF4240 PUSH4 0xFFFFFFFF SWAP1 SWAP2 AND LT ISZERO PUSH2 0x38FC JUMPI PUSH1 0x40 MLOAD PUSH3 0x461BCD PUSH1 0xE5 SHL DUP2 MSTORE PUSH1 0x20 PUSH1 0x4 DUP3 ADD MSTORE PUSH1 0x11 PUSH1 0x24 DUP3 ADD MSTORE PUSH17 0x4E6F7420656E6F75676820766F74657273 PUSH1 0x78 SHL PUSH1 0x44 DUP3 ADD MSTORE PUSH1 0x64 ADD PUSH2 0xB2E JUMP JUMPDEST PUSH2 0x3909 TIMESTAMP PUSH3 0x15180 PUSH2 0x59E6 JUMP JUMPDEST PUSH1 0x6 SSTORE PUSH1 0x40 MLOAD PUSH32 0xA0AB6B515144B30D8222A12E45D1C1DF7265286D8A0D9F73C23C8B06F6021871 SWAP1 PUSH0 SWAP1 LOG1 JUMP JUMPDEST PUSH1 0x6 SLOAD TIMESTAMP LT PUSH2 0x397D JUMPI PUSH1 0x40 MLOAD PUSH3 0x461BCD PUSH1 0xE5 SHL DUP2 MSTORE PUSH1 0x20 PUSH1 0x4 DUP3 ADD MSTORE PUSH1 0x13 PUSH1 0x24 DUP3 ADD MSTORE PUSH19 0x4E6F74205265666572656E64756D2074696D65 PUSH1 0x68 SHL PUSH1 0x44 DUP3 ADD MSTORE PUSH1 0x64 ADD PUSH2 0xB2E JUMP JUMPDEST PUSH1 0xC SLOAD DUP2 GT ISZERO PUSH2 0x39C4 JUMPI PUSH1 0x40 MLOAD PUSH3 0x461BCD PUSH1 0xE5 SHL DUP2 MSTORE PUSH1 0x20 PUSH1 0x4 DUP3 ADD MSTORE PUSH1 0x12 PUSH1 0x24 DUP3 ADD MSTORE PUSH18 0x125B9D985B1A5908191C98599D081B1A5CDD PUSH1 0x72 SHL PUSH1 0x44 DUP3 ADD MSTORE PUSH1 0x64 ADD PUSH2 0xB2E JUMP JUMPDEST CALLER PUSH0 SWAP1 DUP2 MSTORE PUSH1 0xE PUSH1 0x20 MSTORE PUSH1 0x40 SWAP1 KECCAK256 SLOAD PUSH1 0x2 EQ PUSH2 0x3A22 JUMPI PUSH1 0x40 MLOAD PUSH3 0x461BCD PUSH1 0xE5 SHL DUP2 MSTORE PUSH1 0x20 PUSH1 0x4 DUP3 ADD MSTORE PUSH1 0x17 PUSH1 0x24 DUP3 ADD MSTORE PUSH32 0x566F746564206F72204E6F742072656769737465726564000000000000000000 PUSH1 0x44 DUP3 ADD MSTORE PUSH1 0x64 ADD PUSH2 0xB2E JUMP JUMPDEST PUSH1 0xC SLOAD PUSH0 SWAP1 PUSH1 0x1 PUSH1 0x1 PUSH1 0x40 SHL SUB DUP2 GT ISZERO PUSH2 0x3A3E JUMPI PUSH2 0x3A3E PUSH2 0x50A9 JUMP JUMPDEST PUSH1 0x40 MLOAD SWAP1 DUP1 DUP3 MSTORE DUP1 PUSH1 0x20 MUL PUSH1 0x20 ADD DUP3 ADD PUSH1 0x40 MSTORE DUP1 ISZERO PUSH2 0x3A67 JUMPI DUP2 PUSH1 0x20 ADD PUSH1 0x20 DUP3 MUL DUP1 CALLDATASIZE DUP4 CALLDATACOPY ADD SWAP1 POP JUMPDEST POP SWAP1 POP PUSH0 JUMPDEST DUP3 DUP2 LT ISZERO PUSH2 0x3B94 JUMPI PUSH0 DUP5 DUP5 DUP4 DUP2 DUP2 LT PUSH2 0x3A87 JUMPI PUSH2 0x3A87 PUSH2 0x558E JUMP JUMPDEST SWAP1 POP PUSH1 0x20 MUL ADD CALLDATALOAD SWAP1 POP PUSH1 0xC DUP1 SLOAD SWAP1 POP DUP2 LT PUSH2 0x3AD4 JUMPI PUSH1 0x40 MLOAD PUSH3 0x461BCD PUSH1 0xE5 SHL DUP2 MSTORE PUSH1 0x20 PUSH1 0x4 DUP3 ADD MSTORE PUSH1 0xD PUSH1 0x24 DUP3 ADD MSTORE PUSH13 0x125B9D985B1A5908191C98599D PUSH1 0x9A SHL PUSH1 0x44 DUP3 ADD MSTORE PUSH1 0x64 ADD PUSH2 0xB2E JUMP JUMPDEST DUP3 DUP2 DUP2 MLOAD DUP2 LT PUSH2 0x3AE6 JUMPI PUSH2 0x3AE6 PUSH2 0x558E JUMP JUMPDEST PUSH1 0x20 MUL PUSH1 0x20 ADD ADD MLOAD ISZERO PUSH2 0x3B30 JUMPI PUSH1 0x40 MLOAD PUSH3 0x461BCD PUSH1 0xE5 SHL DUP2 MSTORE PUSH1 0x20 PUSH1 0x4 DUP3 ADD MSTORE PUSH1 0x12 PUSH1 0x24 DUP3 ADD MSTORE PUSH18 0x14995C195D1A5D1A5D9948191C98599D1259 PUSH1 0x72 SHL PUSH1 0x44 DUP3 ADD MSTORE PUSH1 0x64 ADD PUSH2 0xB2E JUMP JUMPDEST PUSH1 0x1 DUP4 DUP3 DUP2 MLOAD DUP2 LT PUSH2 0x3B44 JUMPI PUSH2 0x3B44 PUSH2 0x558E JUMP JUMPDEST PUSH1 0x20 MUL PUSH1 0x20 ADD ADD SWAP1 ISZERO ISZERO SWAP1 DUP2 ISZERO ISZERO DUP2 MSTORE POP POP PUSH1 0xC DUP2 DUP2 SLOAD DUP2 LT PUSH2 0x3B69 JUMPI PUSH2 0x3B69 PUSH2 0x558E JUMP JUMPDEST PUSH0 SWAP2 DUP3 MSTORE PUSH1 0x20 DUP3 KECCAK256 PUSH1 0x7 PUSH1 0x8 SWAP1 SWAP3 MUL ADD ADD DUP1 SLOAD SWAP2 PUSH2 0x3B86 DUP4 PUSH2 0x57A8 JUMP JUMPDEST SWAP1 SWAP2 SSTORE POP POP POP PUSH1 0x1 ADD PUSH2 0x3A6C JUMP JUMPDEST POP CALLER PUSH0 DUP2 DUP2 MSTORE PUSH1 0xE PUSH1 0x20 MSTORE PUSH1 0x40 DUP1 DUP3 KECCAK256 TIMESTAMP SWAP1 SSTORE MLOAD PUSH32 0x4B50B8927FD1B030F5404DC4394C2A5D30D7F6C6FA6D732C089FFE8C10F09421 SWAP2 SWAP1 LOG2 POP POP POP JUMP JUMPDEST PUSH1 0x5 SLOAD DUP2 LT PUSH2 0x3C18 JUMPI PUSH1 0x40 MLOAD PUSH3 0x461BCD PUSH1 0xE5 SHL DUP2 MSTORE PUSH1 0x20 PUSH1 0x4 DUP3 ADD MSTORE PUSH1 0x13 PUSH1 0x24 DUP3 ADD MSTORE PUSH19 0x125B9D985B1A59081C1C9BDC1BDCD85B081251 PUSH1 0x6A SHL PUSH1 0x44 DUP3 ADD MSTORE PUSH1 0x64 ADD PUSH2 0xB2E JUMP JUMPDEST PUSH0 PUSH1 0x5 DUP3 DUP2 SLOAD DUP2 LT PUSH2 0x3C2C JUMPI PUSH2 0x3C2C PUSH2 0x558E JUMP JUMPDEST PUSH0 SWAP2 DUP3 MSTORE PUSH1 0x20 SWAP1 SWAP2 KECCAK256 PUSH1 0x5 SWAP1 SWAP2 MUL ADD DUP1 SLOAD SWAP1 SWAP2 POP PUSH1 0x1 PUSH1 0x1 PUSH1 0xA0 SHL SUB AND CALLER EQ PUSH2 0x3C97 JUMPI PUSH1 0x40 MLOAD PUSH3 0x461BCD PUSH1 0xE5 SHL DUP2 MSTORE PUSH1 0x20 PUSH1 0x4 DUP3 ADD MSTORE PUSH1 0x1E PUSH1 0x24 DUP3 ADD MSTORE PUSH32 0x4F6E6C79207468652070726F706F7365722063616E2077697468647261770000 PUSH1 0x44 DUP3 ADD MSTORE PUSH1 0x64 ADD PUSH2 0xB2E JUMP JUMPDEST PUSH1 0x2 DUP2 ADD SLOAD ISZERO PUSH2 0x3CDC JUMPI PUSH1 0x40 MLOAD PUSH3 0x461BCD PUSH1 0xE5 SHL DUP2 MSTORE PUSH1 0x20 PUSH1 0x4 DUP3 ADD MSTORE PUSH1 0x10 PUSH1 0x24 DUP3 ADD MSTORE PUSH16 0x105B1C9958591E48195E1958DD5D1959 PUSH1 0x82 SHL PUSH1 0x44 DUP3 ADD MSTORE PUSH1 0x64 ADD PUSH2 0xB2E JUMP JUMPDEST PUSH1 0x3 DUP2 ADD SLOAD PUSH1 0xFF AND ISZERO PUSH2 0x3D25 JUMPI PUSH1 0x40 MLOAD PUSH3 0x461BCD PUSH1 0xE5 SHL DUP2 MSTORE PUSH1 0x20 PUSH1 0x4 DUP3 ADD MSTORE PUSH1 0x11 PUSH1 0x24 DUP3 ADD MSTORE PUSH17 0x20B63932B0B23C903BB4BA34323930BBB7 PUSH1 0x79 SHL PUSH1 0x44 DUP3 ADD MSTORE PUSH1 0x64 ADD PUSH2 0xB2E JUMP JUMPDEST PUSH1 0x3 DUP2 ADD DUP1 SLOAD PUSH1 0xFF NOT AND PUSH1 0x1 OR SWAP1 SSTORE CALLER PUSH0 SWAP1 DUP2 MSTORE PUSH1 0x4 PUSH1 0x20 MSTORE PUSH1 0x40 DUP1 DUP3 KECCAK256 PUSH1 0x6 ADD DUP1 SLOAD PUSH2 0xFFFF NOT AND SWAP1 SSTORE MLOAD DUP4 SWAP2 PUSH32 0x5CA6C0BBA519C857C8713FBA9F5F1B582ABE00C95DCCCEDCCEA41AD683BAD26D SWAP2 LOG2 POP POP JUMP JUMPDEST PUSH1 0x4 PUSH1 0x20 MSTORE PUSH0 SWAP1 DUP2 MSTORE PUSH1 0x40 SWAP1 KECCAK256 DUP1 SLOAD DUP2 SWAP1 PUSH2 0x3D93 SWAP1 PUSH2 0x5556 JUMP JUMPDEST DUP1 PUSH1 0x1F ADD PUSH1 0x20 DUP1 SWAP2 DIV MUL PUSH1 0x20 ADD PUSH1 0x40 MLOAD SWAP1 DUP2 ADD PUSH1 0x40 MSTORE DUP1 SWAP3 SWAP2 SWAP1 DUP2 DUP2 MSTORE PUSH1 0x20 ADD DUP3 DUP1 SLOAD PUSH2 0x3DBF SWAP1 PUSH2 0x5556 JUMP JUMPDEST DUP1 ISZERO PUSH2 0x3E0A JUMPI DUP1 PUSH1 0x1F LT PUSH2 0x3DE1 JUMPI PUSH2 0x100 DUP1 DUP4 SLOAD DIV MUL DUP4 MSTORE SWAP2 PUSH1 0x20 ADD SWAP2 PUSH2 0x3E0A JUMP JUMPDEST DUP3 ADD SWAP2 SWAP1 PUSH0 MSTORE PUSH1 0x20 PUSH0 KECCAK256 SWAP1 JUMPDEST DUP2 SLOAD DUP2 MSTORE SWAP1 PUSH1 0x1 ADD SWAP1 PUSH1 0x20 ADD DUP1 DUP4 GT PUSH2 0x3DED JUMPI DUP3 SWAP1 SUB PUSH1 0x1F AND DUP3 ADD SWAP2 JUMPDEST POP POP POP POP POP SWAP1 DUP1 PUSH1 0x1 ADD DUP1 SLOAD PUSH2 0x3E1F SWAP1 PUSH2 0x5556 JUMP JUMPDEST DUP1 PUSH1 0x1F ADD PUSH1 0x20 DUP1 SWAP2 DIV MUL PUSH1 0x20 ADD PUSH1 0x40 MLOAD SWAP1 DUP2 ADD PUSH1 0x40 MSTORE DUP1 SWAP3 SWAP2 SWAP1 DUP2 DUP2 MSTORE PUSH1 0x20 ADD DUP3 DUP1 SLOAD PUSH2 0x3E4B SWAP1 PUSH2 0x5556 JUMP JUMPDEST DUP1 ISZERO PUSH2 0x3E96 JUMPI DUP1 PUSH1 0x1F LT PUSH2 0x3E6D JUMPI PUSH2 0x100 DUP1 DUP4 SLOAD DIV MUL DUP4 MSTORE SWAP2 PUSH1 0x20 ADD SWAP2 PUSH2 0x3E96 JUMP JUMPDEST DUP3 ADD SWAP2 SWAP1 PUSH0 MSTORE PUSH1 0x20 PUSH0 KECCAK256 SWAP1 JUMPDEST DUP2 SLOAD DUP2 MSTORE SWAP1 PUSH1 0x1 ADD SWAP1 PUSH1 0x20 ADD DUP1 DUP4 GT PUSH2 0x3E79 JUMPI DUP3 SWAP1 SUB PUSH1 0x1F AND DUP3 ADD SWAP2 JUMPDEST POP POP POP POP POP SWAP1 DUP1 PUSH1 0x2 ADD DUP1 SLOAD PUSH2 0x3EAB SWAP1 PUSH2 0x5556 JUMP JUMPDEST DUP1 PUSH1 0x1F ADD PUSH1 0x20 DUP1 SWAP2 DIV MUL PUSH1 0x20 ADD PUSH1 0x40 MLOAD SWAP1 DUP2 ADD PUSH1 0x40 MSTORE DUP1 SWAP3 SWAP2 SWAP1 DUP2 DUP2 MSTORE PUSH1 0x20 ADD DUP3 DUP1 SLOAD PUSH2 0x3ED7 SWAP1 PUSH2 0x5556 JUMP JUMPDEST DUP1 ISZERO PUSH2 0x3F22 JUMPI DUP1 PUSH1 0x1F LT PUSH2 0x3EF9 JUMPI PUSH2 0x100 DUP1 DUP4 SLOAD DIV MUL DUP4 MSTORE SWAP2 PUSH1 0x20 ADD SWAP2 PUSH2 0x3F22 JUMP JUMPDEST DUP3 ADD SWAP2 SWAP1 PUSH0 MSTORE PUSH1 0x20 PUSH0 KECCAK256 SWAP1 JUMPDEST DUP2 SLOAD DUP2 MSTORE SWAP1 PUSH1 0x1 ADD SWAP1 PUSH1 0x20 ADD DUP1 DUP4 GT PUSH2 0x3F05 JUMPI DUP3 SWAP1 SUB PUSH1 0x1F AND DUP3 ADD SWAP2 JUMPDEST POP POP POP POP PUSH1 0x3 DUP4 ADD SLOAD PUSH1 0x4 DUP5 ADD SLOAD PUSH1 0x5 DUP6 ADD SLOAD PUSH1 0x6 SWAP1 SWAP6 ADD SLOAD SWAP4 SWAP5 SWAP2 SWAP4 PUSH2 0xFFFF DUP1 DUP4 AND SWAP5 POP PUSH3 0x10000 SWAP3 DUP4 SWAP1 DIV PUSH1 0xFF AND SWAP4 SWAP3 DUP2 DUP4 AND SWAP3 DIV AND DUP10 JUMP JUMPDEST PUSH1 0x2 SLOAD PUSH1 0x1 PUSH1 0x1 PUSH1 0xA0 SHL SUB AND CALLER EQ PUSH2 0x3FB0 JUMPI PUSH1 0x40 MLOAD PUSH3 0x461BCD PUSH1 0xE5 SHL DUP2 MSTORE PUSH1 0x20 PUSH1 0x4 DUP3 ADD MSTORE PUSH1 0x16 PUSH1 0x24 DUP3 ADD MSTORE PUSH22 0x139BDD08185D5D1A1BDC9A5E9959081B995D5D1C985B PUSH1 0x52 SHL PUSH1 0x44 DUP3 ADD MSTORE PUSH1 0x64 ADD PUSH2 0xB2E JUMP JUMPDEST PUSH0 PUSH2 0x3FB9 PUSH2 0x2646 JUMP JUMPDEST PUSH1 0x5 DUP2 GT ISZERO PUSH2 0x3FCA JUMPI PUSH2 0x3FCA PUSH2 0x5031 JUMP JUMPDEST EQ PUSH2 0x4017 JUMPI PUSH1 0x40 MLOAD PUSH3 0x461BCD PUSH1 0xE5 SHL DUP2 MSTORE PUSH1 0x20 PUSH1 0x4 DUP3 ADD MSTORE PUSH1 0x1A PUSH1 0x24 DUP3 ADD MSTORE PUSH32 0x566F74657220616464696E6720706572696F6420656E6465642E000000000000 PUSH1 0x44 DUP3 ADD MSTORE PUSH1 0x64 ADD PUSH2 0xB2E JUMP JUMPDEST PUSH1 0x2 SLOAD PUSH2 0x4B0 PUSH1 0x1 PUSH1 0xA0 SHL SWAP1 SWAP2 DIV PUSH2 0xFFFF AND LT PUSH2 0x4080 JUMPI PUSH1 0x40 MLOAD PUSH3 0x461BCD PUSH1 0xE5 SHL DUP2 MSTORE PUSH1 0x20 PUSH1 0x4 DUP3 ADD MSTORE PUSH1 0x21 PUSH1 0x24 DUP3 ADD MSTORE PUSH32 0x4D6178696D756D206E756D626572206F6620766F746572732072656163686564 PUSH1 0x44 DUP3 ADD MSTORE PUSH1 0x17 PUSH1 0xF9 SHL PUSH1 0x64 DUP3 ADD MSTORE PUSH1 0x84 ADD PUSH2 0xB2E JUMP JUMPDEST PUSH0 DUP1 JUMPDEST PUSH1 0xA PUSH1 0xFF DUP3 AND LT ISZERO PUSH2 0x4311 JUMPI DUP3 DUP2 PUSH1 0xFF AND PUSH1 0xA DUP2 LT PUSH2 0x40A4 JUMPI PUSH2 0x40A4 PUSH2 0x558E JUMP JUMPDEST PUSH1 0x60 MUL ADD PUSH0 ADD PUSH1 0x20 DUP2 ADD SWAP1 PUSH2 0x40B9 SWAP2 SWAP1 PUSH2 0x5B9A JUMP JUMPDEST PUSH2 0xFFFF AND PUSH2 0x7A5 GT ISZERO DUP1 ISZERO PUSH2 0x40FD JUMPI POP PUSH2 0x7D6 DUP4 DUP3 PUSH1 0xFF AND PUSH1 0xA DUP2 LT PUSH2 0x40E1 JUMPI PUSH2 0x40E1 PUSH2 0x558E JUMP JUMPDEST PUSH1 0x60 MUL ADD PUSH0 ADD PUSH1 0x20 DUP2 ADD SWAP1 PUSH2 0x40F6 SWAP2 SWAP1 PUSH2 0x5B9A JUMP JUMPDEST PUSH2 0xFFFF AND GT ISZERO JUMPDEST PUSH2 0x4136 JUMPI PUSH1 0x40 MLOAD PUSH3 0x461BCD PUSH1 0xE5 SHL DUP2 MSTORE PUSH1 0x20 PUSH1 0x4 DUP3 ADD MSTORE PUSH1 0xA PUSH1 0x24 DUP3 ADD MSTORE PUSH10 0x2BB937B733902CB2B0B9 PUSH1 0xB1 SHL PUSH1 0x44 DUP3 ADD MSTORE PUSH1 0x64 ADD PUSH2 0xB2E JUMP JUMPDEST DUP3 DUP2 PUSH1 0xFF AND PUSH1 0xA DUP2 LT PUSH2 0x414B JUMPI PUSH2 0x414B PUSH2 0x558E JUMP JUMPDEST PUSH1 0x60 MUL ADD PUSH1 0x20 ADD PUSH1 0x20 DUP2 ADD SWAP1 PUSH2 0x4161 SWAP2 SWAP1 PUSH2 0x5BB3 JUMP JUMPDEST PUSH1 0xFF AND PUSH1 0x1 GT ISZERO DUP1 ISZERO PUSH2 0x41A2 JUMPI POP PUSH1 0xC DUP4 DUP3 PUSH1 0xFF AND PUSH1 0xA DUP2 LT PUSH2 0x4186 JUMPI PUSH2 0x4186 PUSH2 0x558E JUMP JUMPDEST PUSH1 0x60 MUL ADD PUSH1 0x20 ADD PUSH1 0x20 DUP2 ADD SWAP1 PUSH2 0x419C SWAP2 SWAP1 PUSH2 0x5BB3 JUMP JUMPDEST PUSH1 0xFF AND GT ISZERO JUMPDEST PUSH2 0x41DE JUMPI PUSH1 0x40 MLOAD PUSH3 0x461BCD PUSH1 0xE5 SHL DUP2 MSTORE PUSH1 0x20 PUSH1 0x4 DUP3 ADD MSTORE PUSH1 0xD PUSH1 0x24 DUP3 ADD MSTORE PUSH13 0x92DCECC2D8D2C8409ADEDCE8D PUSH1 0x9B SHL PUSH1 0x44 DUP3 ADD MSTORE PUSH1 0x64 ADD PUSH2 0xB2E JUMP JUMPDEST DUP3 DUP2 PUSH1 0xFF AND PUSH1 0xA DUP2 LT PUSH2 0x41F3 JUMPI PUSH2 0x41F3 PUSH2 0x558E JUMP JUMPDEST PUSH1 0x60 MUL ADD PUSH0 ADD PUSH1 0x20 DUP2 ADD SWAP1 PUSH2 0x4208 SWAP2 SWAP1 PUSH2 0x5B9A JUMP JUMPDEST DUP4 DUP3 PUSH1 0xFF AND PUSH1 0xA DUP2 LT PUSH2 0x421D JUMPI PUSH2 0x421D PUSH2 0x558E JUMP JUMPDEST PUSH1 0x60 MUL ADD PUSH1 0x20 ADD PUSH1 0x20 DUP2 ADD SWAP1 PUSH2 0x4233 SWAP2 SWAP1 PUSH2 0x5BB3 JUMP JUMPDEST DUP5 DUP4 PUSH1 0xFF AND PUSH1 0xA DUP2 LT PUSH2 0x4248 JUMPI PUSH2 0x4248 PUSH2 0x558E JUMP JUMPDEST PUSH1 0x60 MUL ADD PUSH1 0x40 ADD PUSH1 0x20 DUP2 ADD SWAP1 PUSH2 0x425E SWAP2 SWAP1 PUSH2 0x5BCC JUMP JUMPDEST PUSH1 0x40 MLOAD PUSH1 0x20 ADD PUSH2 0x4270 SWAP4 SWAP3 SWAP2 SWAP1 PUSH2 0x5AEB JUMP JUMPDEST PUSH1 0x40 DUP1 MLOAD PUSH1 0x1F NOT DUP2 DUP5 SUB ADD DUP2 MSTORE SWAP2 DUP2 MSTORE DUP2 MLOAD PUSH1 0x20 SWAP3 DUP4 ADD KECCAK256 PUSH0 DUP2 DUP2 MSTORE PUSH1 0x7 SWAP1 SWAP4 MSTORE SWAP2 KECCAK256 SLOAD SWAP1 SWAP3 POP PUSH1 0xFF AND ISZERO PUSH2 0x42E7 JUMPI PUSH1 0x40 MLOAD PUSH3 0x461BCD PUSH1 0xE5 SHL DUP2 MSTORE PUSH1 0x20 PUSH1 0x4 DUP3 ADD MSTORE PUSH1 0x1D PUSH1 0x24 DUP3 ADD MSTORE PUSH32 0x566F746572206861736820616C72656164792072656769737465726564000000 PUSH1 0x44 DUP3 ADD MSTORE PUSH1 0x64 ADD PUSH2 0xB2E JUMP JUMPDEST PUSH0 DUP3 DUP2 MSTORE PUSH1 0x7 PUSH1 0x20 MSTORE PUSH1 0x40 SWAP1 KECCAK256 DUP1 SLOAD PUSH1 0xFF NOT AND PUSH1 0x1 OR SWAP1 SSTORE DUP1 PUSH2 0x4309 DUP2 PUSH2 0x55B6 JUMP JUMPDEST SWAP2 POP POP PUSH2 0x4083 JUMP JUMPDEST POP PUSH0 JUMPDEST PUSH1 0xA PUSH1 0xFF DUP3 AND LT ISZERO PUSH2 0x4490 JUMPI PUSH0 DUP5 PUSH1 0xFF DUP4 AND PUSH1 0xA DUP2 LT PUSH2 0x4336 JUMPI PUSH2 0x4336 PUSH2 0x558E JUMP JUMPDEST PUSH1 0x20 MUL ADD PUSH1 0x20 DUP2 ADD SWAP1 PUSH2 0x4349 SWAP2 SWAP1 PUSH2 0x5434 JUMP JUMPDEST PUSH1 0x1 PUSH1 0x1 PUSH1 0xA0 SHL SUB AND SUB PUSH2 0x4391 JUMPI PUSH1 0x40 MLOAD PUSH3 0x461BCD PUSH1 0xE5 SHL DUP2 MSTORE PUSH1 0x20 PUSH1 0x4 DUP3 ADD MSTORE PUSH1 0xF PUSH1 0x24 DUP3 ADD MSTORE PUSH15 0x496E76616C69642061646472657373 PUSH1 0x88 SHL PUSH1 0x44 DUP3 ADD MSTORE PUSH1 0x64 ADD PUSH2 0xB2E JUMP JUMPDEST PUSH1 0x8 PUSH0 DUP6 DUP4 PUSH1 0xFF AND PUSH1 0xA DUP2 LT PUSH2 0x43A9 JUMPI PUSH2 0x43A9 PUSH2 0x558E JUMP JUMPDEST PUSH1 0x20 MUL ADD PUSH1 0x20 DUP2 ADD SWAP1 PUSH2 0x43BC SWAP2 SWAP1 PUSH2 0x5434 JUMP JUMPDEST PUSH1 0x1 PUSH1 0x1 PUSH1 0xA0 SHL SUB AND DUP2 MSTORE PUSH1 0x20 DUP2 ADD SWAP2 SWAP1 SWAP2 MSTORE PUSH1 0x40 ADD PUSH0 KECCAK256 SLOAD ISZERO PUSH2 0x4438 JUMPI PUSH1 0x40 MLOAD PUSH3 0x461BCD PUSH1 0xE5 SHL DUP2 MSTORE PUSH1 0x20 PUSH1 0x4 DUP3 ADD MSTORE PUSH1 0x2D PUSH1 0x24 DUP3 ADD MSTORE PUSH32 0x416464726573737320616C726561647920726567697374657265642E20526567 PUSH1 0x44 DUP3 ADD MSTORE PUSH13 0x697374726172204552524F5221 PUSH1 0x98 SHL PUSH1 0x64 DUP3 ADD MSTORE PUSH1 0x84 ADD PUSH2 0xB2E JUMP JUMPDEST PUSH1 0x1 PUSH1 0x8 PUSH0 DUP7 DUP5 PUSH1 0xFF AND PUSH1 0xA DUP2 LT PUSH2 0x4452 JUMPI PUSH2 0x4452 PUSH2 0x558E JUMP JUMPDEST PUSH1 0x20 MUL ADD PUSH1 0x20 DUP2 ADD SWAP1 PUSH2 0x4465 SWAP2 SWAP1 PUSH2 0x5434 JUMP JUMPDEST PUSH1 0x1 PUSH1 0x1 PUSH1 0xA0 SHL SUB AND DUP2 MSTORE PUSH1 0x20 DUP2 ADD SWAP2 SWAP1 SWAP2 MSTORE PUSH1 0x40 ADD PUSH0 KECCAK256 SSTORE DUP1 PUSH2 0x4488 DUP2 PUSH2 0x55B6 JUMP JUMPDEST SWAP2 POP POP PUSH2 0x4314 JUMP JUMPDEST POP PUSH1 0xA PUSH1 0x2 PUSH1 0x14 DUP3 DUP3 DUP3 SWAP1 SLOAD SWAP1 PUSH2 0x100 EXP SWAP1 DIV PUSH2 0xFFFF AND PUSH2 0x44B1 SWAP2 SWAP1 PUSH2 0x5BE5 JUMP JUMPDEST SWAP3 POP PUSH2 0x100 EXP DUP2 SLOAD DUP2 PUSH2 0xFFFF MUL NOT AND SWAP1 DUP4 PUSH2 0xFFFF AND MUL OR SWAP1 SSTORE POP DUP3 PUSH1 0x40 MLOAD PUSH2 0x44D9 SWAP2 SWAP1 PUSH2 0x597C JUMP JUMPDEST PUSH1 0x40 MLOAD SWAP1 DUP2 SWAP1 SUB DUP2 KECCAK256 PUSH1 0x2 SLOAD PUSH1 0x1 PUSH1 0xA0 SHL SWAP1 DIV PUSH2 0xFFFF AND DUP3 MSTORE SWAP1 PUSH32 0x5ECF71B87B223B4E8C4D19850B2C7A727D326E44EDA6530FE642B505FF2C4F94 SWAP1 PUSH1 0x20 ADD PUSH1 0x40 MLOAD DUP1 SWAP2 SUB SWAP1 LOG2 POP POP POP JUMP JUMPDEST PUSH1 0x9 SLOAD PUSH1 0x60 SWAP1 PUSH1 0xFF AND ISZERO PUSH2 0x4591 JUMPI PUSH1 0x3 DUP1 SLOAD DUP1 PUSH1 0x20 MUL PUSH1 0x20 ADD PUSH1 0x40 MLOAD SWAP1 DUP2 ADD PUSH1 0x40 MSTORE DUP1 SWAP3 SWAP2 SWAP1 DUP2 DUP2 MSTORE PUSH1 0x20 ADD DUP3 DUP1 SLOAD DUP1 ISZERO PUSH2 0x4587 JUMPI PUSH1 0x20 MUL DUP3 ADD SWAP2 SWAP1 PUSH0 MSTORE PUSH1 0x20 PUSH0 KECCAK256 SWAP1 JUMPDEST DUP2 SLOAD PUSH1 0x1 PUSH1 0x1 PUSH1 0xA0 SHL SUB AND DUP2 MSTORE PUSH1 0x1 SWAP1 SWAP2 ADD SWAP1 PUSH1 0x20 ADD DUP1 DUP4 GT PUSH2 0x4569 JUMPI JUMPDEST POP POP POP POP POP SWAP1 POP SWAP1 JUMP JUMPDEST PUSH1 0x1 SLOAD TIMESTAMP GT PUSH2 0x45D8 JUMPI PUSH1 0x40 MLOAD PUSH3 0x461BCD PUSH1 0xE5 SHL DUP2 MSTORE PUSH1 0x20 PUSH1 0x4 DUP3 ADD MSTORE PUSH1 0x13 PUSH1 0x24 DUP3 ADD MSTORE PUSH19 0x21B0B6361030B33A32B91032B632B1BA34B7B7 PUSH1 0x69 SHL PUSH1 0x44 DUP3 ADD MSTORE PUSH1 0x64 ADD PUSH2 0xB2E JUMP JUMPDEST PUSH1 0x1 JUMPDEST PUSH1 0x32 PUSH1 0xFF DUP3 AND GT PUSH2 0x4807 JUMPI PUSH1 0x3 SLOAD PUSH0 SWAP1 PUSH2 0x45F7 SWAP1 PUSH1 0x1 SWAP1 PUSH2 0x55D4 JUMP JUMPDEST SWAP1 POP JUMPDEST DUP1 DUP3 PUSH1 0xFF AND GT PUSH2 0x4785 JUMPI PUSH1 0x4 PUSH0 PUSH1 0x3 PUSH2 0x4614 PUSH1 0x1 DUP6 PUSH2 0x55D4 JUMP JUMPDEST DUP2 SLOAD DUP2 LT PUSH2 0x4624 JUMPI PUSH2 0x4624 PUSH2 0x558E JUMP JUMPDEST PUSH0 SWAP2 DUP3 MSTORE PUSH1 0x20 DUP1 DUP4 KECCAK256 SWAP1 SWAP2 ADD SLOAD PUSH1 0x1 PUSH1 0x1 PUSH1 0xA0 SHL SUB AND DUP4 MSTORE DUP3 ADD SWAP3 SWAP1 SWAP3 MSTORE PUSH1 0x40 ADD DUP2 KECCAK256 PUSH1 0x4 SWAP1 DUP2 ADD SLOAD PUSH1 0x3 DUP1 SLOAD PUSH2 0xFFFF SWAP1 SWAP3 AND SWAP4 SWAP2 DUP6 SWAP1 DUP2 LT PUSH2 0x4669 JUMPI PUSH2 0x4669 PUSH2 0x558E JUMP JUMPDEST PUSH0 SWAP2 DUP3 MSTORE PUSH1 0x20 DUP1 DUP4 KECCAK256 SWAP1 SWAP2 ADD SLOAD PUSH1 0x1 PUSH1 0x1 PUSH1 0xA0 SHL SUB AND DUP4 MSTORE DUP3 ADD SWAP3 SWAP1 SWAP3 MSTORE PUSH1 0x40 ADD SWAP1 KECCAK256 PUSH1 0x4 ADD SLOAD PUSH2 0xFFFF AND GT ISZERO PUSH2 0x4773 JUMPI PUSH1 0x3 PUSH2 0x46A7 PUSH1 0x1 DUP4 PUSH2 0x55D4 JUMP JUMPDEST DUP2 SLOAD DUP2 LT PUSH2 0x46B7 JUMPI PUSH2 0x46B7 PUSH2 0x558E JUMP JUMPDEST PUSH0 SWAP2 DUP3 MSTORE PUSH1 0x20 SWAP1 SWAP2 KECCAK256 ADD SLOAD PUSH1 0x3 DUP1 SLOAD PUSH1 0x1 PUSH1 0x1 PUSH1 0xA0 SHL SUB SWAP1 SWAP3 AND SWAP2 DUP4 SWAP1 DUP2 LT PUSH2 0x46E2 JUMPI PUSH2 0x46E2 PUSH2 0x558E JUMP JUMPDEST PUSH0 SWAP2 DUP3 MSTORE PUSH1 0x20 SWAP1 SWAP2 KECCAK256 ADD SLOAD PUSH1 0x3 DUP1 SLOAD PUSH1 0x1 PUSH1 0x1 PUSH1 0xA0 SHL SUB SWAP1 SWAP3 AND SWAP2 DUP5 SWAP1 DUP2 LT PUSH2 0x470D JUMPI PUSH2 0x470D PUSH2 0x558E JUMP JUMPDEST PUSH0 SWAP2 DUP3 MSTORE PUSH1 0x20 DUP3 KECCAK256 ADD SWAP1 PUSH1 0x3 PUSH2 0x4724 PUSH1 0x1 DUP8 PUSH2 0x55D4 JUMP JUMPDEST DUP2 SLOAD DUP2 LT PUSH2 0x4734 JUMPI PUSH2 0x4734 PUSH2 0x558E JUMP JUMPDEST PUSH0 SWAP2 DUP3 MSTORE PUSH1 0x20 SWAP1 SWAP2 KECCAK256 ADD DUP1 SLOAD PUSH1 0x1 PUSH1 0x1 PUSH1 0xA0 SHL SUB SWAP5 DUP6 AND PUSH1 0x1 PUSH1 0x1 PUSH1 0xA0 SHL SUB NOT SWAP1 SWAP2 AND OR SWAP1 SSTORE DUP2 SLOAD SWAP4 DUP4 AND PUSH2 0x100 SWAP2 SWAP1 SWAP2 EXP SWAP1 DUP2 MUL SWAP3 MUL NOT SWAP1 SWAP3 AND OR SWAP1 SSTORE JUMPDEST DUP1 PUSH2 0x477D DUP2 PUSH2 0x57C0 JUMP JUMPDEST SWAP2 POP POP PUSH2 0x45FA JUMP JUMPDEST POP PUSH2 0x4791 PUSH1 0x1 DUP3 PUSH2 0x5B3B JUMP JUMPDEST PUSH1 0x4 PUSH0 PUSH1 0x3 PUSH2 0x47A1 PUSH1 0x1 DUP7 PUSH2 0x5B3B JUMP JUMPDEST PUSH1 0xFF AND DUP2 SLOAD DUP2 LT PUSH2 0x47B4 JUMPI PUSH2 0x47B4 PUSH2 0x558E JUMP JUMPDEST PUSH0 SWAP2 DUP3 MSTORE PUSH1 0x20 DUP1 DUP4 KECCAK256 SWAP1 SWAP2 ADD SLOAD PUSH1 0x1 PUSH1 0x1 PUSH1 0xA0 SHL SUB AND DUP4 MSTORE DUP3 ADD SWAP3 SWAP1 SWAP3 MSTORE PUSH1 0x40 ADD SWAP1 KECCAK256 PUSH1 0x4 ADD DUP1 SLOAD PUSH1 0xFF SWAP3 SWAP1 SWAP3 AND PUSH3 0x10000 MUL PUSH3 0xFF0000 NOT SWAP1 SWAP3 AND SWAP2 SWAP1 SWAP2 OR SWAP1 SSTORE DUP1 PUSH2 0x47FF DUP2 PUSH2 0x55B6 JUMP JUMPDEST SWAP2 POP POP PUSH2 0x45DB JUMP JUMPDEST POP PUSH1 0x9 DUP1 SLOAD PUSH1 0xFF NOT AND PUSH1 0x1 OR SWAP1 SSTORE PUSH1 0x3 DUP1 SLOAD PUSH0 SWAP1 PUSH2 0x4827 JUMPI PUSH2 0x4827 PUSH2 0x558E JUMP JUMPDEST PUSH0 SWAP2 DUP3 MSTORE PUSH1 0x20 DUP1 DUP4 KECCAK256 SWAP2 SWAP1 SWAP2 ADD SLOAD PUSH1 0x9 DUP1 SLOAD PUSH2 0x100 PUSH1 0x1 PUSH1 0xA8 SHL SUB NOT AND PUSH2 0x100 PUSH1 0x1 PUSH1 0x1 PUSH1 0xA0 SHL SUB SWAP4 DUP5 AND DUP2 MUL SWAP2 SWAP1 SWAP2 OR SWAP2 DUP3 SWAP1 SSTORE PUSH1 0xA DUP6 SWAP1 SSTORE SWAP1 DIV AND DUP3 MSTORE PUSH1 0x4 SWAP1 MSTORE PUSH1 0x40 SWAP1 DUP2 SWAP1 KECCAK256 TIMESTAMP PUSH1 0x5 SWAP1 SWAP2 ADD SSTORE MLOAD PUSH2 0x4884 SWAP1 PUSH1 0x3 SWAP1 PUSH2 0x5BFF JUMP JUMPDEST PUSH1 0x40 MLOAD SWAP1 DUP2 SWAP1 SUB DUP2 KECCAK256 PUSH1 0x9 SLOAD PUSH2 0x100 SWAP1 DIV PUSH1 0x1 PUSH1 0x1 PUSH1 0xA0 SHL SUB AND DUP3 MSTORE SWAP1 PUSH32 0x55FD57A9F60ED79C2DA9B808929B82BED18D54127A828E4F6050A978600109B0 SWAP1 PUSH1 0x20 ADD PUSH1 0x40 MLOAD DUP1 SWAP2 SUB SWAP1 LOG2 PUSH1 0x3 DUP1 SLOAD DUP1 PUSH1 0x20 MUL PUSH1 0x20 ADD PUSH1 0x40 MLOAD SWAP1 DUP2 ADD PUSH1 0x40 MSTORE DUP1 SWAP3 SWAP2 SWAP1 DUP2 DUP2 MSTORE PUSH1 0x20 ADD DUP3 DUP1 SLOAD DUP1 ISZERO PUSH2 0x4587 JUMPI PUSH1 0x20 MUL DUP3 ADD SWAP2 SWAP1 PUSH0 MSTORE PUSH1 0x20 PUSH0 KECCAK256 SWAP1 DUP2 SLOAD PUSH1 0x1 PUSH1 0x1 PUSH1 0xA0 SHL SUB AND DUP2 MSTORE PUSH1 0x1 SWAP1 SWAP2 ADD SWAP1 PUSH1 0x20 ADD DUP1 DUP4 GT PUSH2 0x4569 JUMPI POP POP POP POP POP SWAP1 POP SWAP1 JUMP JUMPDEST PUSH1 0x15 DUP2 DUP2 SLOAD DUP2 LT PUSH2 0x4939 JUMPI PUSH0 DUP1 REVERT JUMPDEST PUSH0 SWAP2 DUP3 MSTORE PUSH1 0x20 SWAP1 SWAP2 KECCAK256 PUSH1 0x2 SWAP1 SWAP2 MUL ADD DUP1 SLOAD PUSH1 0x1 SWAP1 SWAP2 ADD SLOAD SWAP1 SWAP2 POP DUP3 JUMP JUMPDEST PUSH0 PUSH1 0x5 DUP3 DUP2 SLOAD DUP2 LT PUSH2 0x496A JUMPI PUSH2 0x496A PUSH2 0x558E JUMP JUMPDEST SWAP1 PUSH0 MSTORE PUSH1 0x20 PUSH0 KECCAK256 SWAP1 PUSH1 0x5 MUL ADD SWAP1 POP PUSH0 JUMPDEST PUSH1 0x4 DUP3 ADD SLOAD DUP2 LT ISZERO PUSH2 0x4AC3 JUMPI PUSH0 DUP3 PUSH1 0x4 ADD DUP3 DUP2 SLOAD DUP2 LT PUSH2 0x499C JUMPI PUSH2 0x499C PUSH2 0x558E JUMP JUMPDEST SWAP1 PUSH0 MSTORE PUSH1 0x20 PUSH0 KECCAK256 SWAP1 PUSH1 0x3 MUL ADD PUSH1 0x40 MLOAD DUP1 PUSH1 0x60 ADD PUSH1 0x40 MSTORE SWAP1 DUP2 PUSH0 DUP3 ADD SLOAD DUP2 MSTORE PUSH1 0x20 ADD PUSH1 0x1 DUP3 ADD PUSH0 SWAP1 SLOAD SWAP1 PUSH2 0x100 EXP SWAP1 DIV PUSH1 0x1 PUSH1 0x1 PUSH1 0xA0 SHL SUB AND PUSH1 0x1 PUSH1 0x1 PUSH1 0xA0 SHL SUB AND PUSH1 0x1 PUSH1 0x1 PUSH1 0xA0 SHL SUB AND DUP2 MSTORE PUSH1 0x20 ADD PUSH1 0x2 DUP3 ADD DUP1 SLOAD PUSH2 0x49FA SWAP1 PUSH2 0x5556 JUMP JUMPDEST DUP1 PUSH1 0x1F ADD PUSH1 0x20 DUP1 SWAP2 DIV MUL PUSH1 0x20 ADD PUSH1 0x40 MLOAD SWAP1 DUP2 ADD PUSH1 0x40 MSTORE DUP1 SWAP3 SWAP2 SWAP1 DUP2 DUP2 MSTORE PUSH1 0x20 ADD DUP3 DUP1 SLOAD PUSH2 0x4A26 SWAP1 PUSH2 0x5556 JUMP JUMPDEST DUP1 ISZERO PUSH2 0x4A71 JUMPI DUP1 PUSH1 0x1F LT PUSH2 0x4A48 JUMPI PUSH2 0x100 DUP1 DUP4 SLOAD DIV MUL DUP4 MSTORE SWAP2 PUSH1 0x20 ADD SWAP2 PUSH2 0x4A71 JUMP JUMPDEST DUP3 ADD SWAP2 SWAP1 PUSH0 MSTORE PUSH1 0x20 PUSH0 KECCAK256 SWAP1 JUMPDEST DUP2 SLOAD DUP2 MSTORE SWAP1 PUSH1 0x1 ADD SWAP1 PUSH1 0x20 ADD DUP1 DUP4 GT PUSH2 0x4A54 JUMPI DUP3 SWAP1 SUB PUSH1 0x1F AND DUP3 ADD SWAP2 JUMPDEST POP POP POP POP POP DUP2 MSTORE POP POP SWAP1 POP DUP1 PUSH1 0x20 ADD MLOAD PUSH1 0x1 PUSH1 0x1 PUSH1 0xA0 SHL SUB AND PUSH2 0x8FC DUP3 PUSH0 ADD MLOAD SWAP1 DUP2 ISZERO MUL SWAP1 PUSH1 0x40 MLOAD PUSH0 PUSH1 0x40 MLOAD DUP1 DUP4 SUB DUP2 DUP6 DUP9 DUP9 CALL SWAP4 POP POP POP POP ISZERO DUP1 ISZERO PUSH2 0x4AB9 JUMPI RETURNDATASIZE PUSH0 DUP1 RETURNDATACOPY RETURNDATASIZE PUSH0 REVERT JUMPDEST POP POP PUSH1 0x1 ADD PUSH2 0x497A JUMP JUMPDEST POP POP POP JUMP JUMPDEST DUP3 DUP1 SLOAD DUP3 DUP3 SSTORE SWAP1 PUSH0 MSTORE PUSH1 0x20 PUSH0 KECCAK256 SWAP1 DUP2 ADD SWAP3 DUP3 ISZERO PUSH2 0x4B0C JUMPI SWAP2 PUSH1 0x20 MUL DUP3 ADD JUMPDEST DUP3 DUP2 GT ISZERO PUSH2 0x4B0C JUMPI DUP3 MLOAD DUP3 SWAP1 PUSH2 0x4AFC SWAP1 DUP3 PUSH2 0x5A36 JUMP JUMPDEST POP SWAP2 PUSH1 0x20 ADD SWAP2 SWAP1 PUSH1 0x1 ADD SWAP1 PUSH2 0x4AE6 JUMP JUMPDEST POP PUSH2 0x111F SWAP3 SWAP2 POP JUMPDEST DUP1 DUP3 GT ISZERO PUSH2 0x111F JUMPI PUSH0 PUSH2 0x4B27 DUP3 DUP3 PUSH2 0x4B30 JUMP JUMPDEST POP PUSH1 0x1 ADD PUSH2 0x4B14 JUMP JUMPDEST POP DUP1 SLOAD PUSH2 0x4B3C SWAP1 PUSH2 0x5556 JUMP JUMPDEST PUSH0 DUP3 SSTORE DUP1 PUSH1 0x1F LT PUSH2 0x4B4B JUMPI POP POP JUMP JUMPDEST PUSH1 0x1F ADD PUSH1 0x20 SWAP1 DIV SWAP1 PUSH0 MSTORE PUSH1 0x20 PUSH0 KECCAK256 SWAP1 DUP2 ADD SWAP1 PUSH2 0x4B67 SWAP2 SWAP1 PUSH2 0x4B6A JUMP JUMPDEST POP JUMP JUMPDEST JUMPDEST DUP1 DUP3 GT ISZERO PUSH2 0x111F JUMPI PUSH0 DUP2 SSTORE PUSH1 0x1 ADD PUSH2 0x4B6B JUMP JUMPDEST PUSH0 PUSH1 0x20 DUP3 DUP5 SUB SLT ISZERO PUSH2 0x4B8E JUMPI PUSH0 DUP1 REVERT JUMPDEST POP CALLDATALOAD SWAP2 SWAP1 POP JUMP JUMPDEST PUSH0 DUP2 MLOAD DUP1 DUP5 MSTORE DUP1 PUSH1 0x20 DUP5 ADD PUSH1 0x20 DUP7 ADD MCOPY PUSH0 PUSH1 0x20 DUP3 DUP7 ADD ADD MSTORE PUSH1 0x20 PUSH1 0x1F NOT PUSH1 0x1F DUP4 ADD AND DUP6 ADD ADD SWAP2 POP POP SWAP3 SWAP2 POP POP JUMP JUMPDEST PUSH1 0x1 PUSH1 0x1 PUSH1 0xA0 SHL SUB DUP7 AND DUP2 MSTORE PUSH1 0xA0 PUSH1 0x20 DUP3 ADD DUP2 SWAP1 MSTORE PUSH0 SWAP1 PUSH2 0x4BE6 SWAP1 DUP4 ADD DUP8 PUSH2 0x4B95 JUMP JUMPDEST PUSH1 0x40 DUP4 ADD SWAP6 SWAP1 SWAP6 MSTORE POP SWAP2 ISZERO ISZERO PUSH1 0x60 DUP4 ADD MSTORE PUSH1 0xFF AND PUSH1 0x80 SWAP1 SWAP2 ADD MSTORE SWAP3 SWAP2 POP POP JUMP JUMPDEST PUSH0 DUP1 DUP4 PUSH1 0x1F DUP5 ADD SLT PUSH2 0x4C16 JUMPI PUSH0 DUP1 REVERT JUMPDEST POP DUP2 CALLDATALOAD PUSH1 0x1 PUSH1 0x1 PUSH1 0x40 SHL SUB DUP2 GT ISZERO PUSH2 0x4C2C JUMPI PUSH0 DUP1 REVERT JUMPDEST PUSH1 0x20 DUP4 ADD SWAP2 POP DUP4 PUSH1 0x20 DUP3 DUP6 ADD ADD GT ISZERO PUSH2 0x4C43 JUMPI PUSH0 DUP1 REVERT JUMPDEST SWAP3 POP SWAP3 SWAP1 POP JUMP JUMPDEST PUSH0 DUP1 PUSH0 DUP1 PUSH0 DUP1 PUSH1 0x60 DUP8 DUP10 SUB SLT ISZERO PUSH2 0x4C5F JUMPI PUSH0 DUP1 REVERT JUMPDEST DUP7 CALLDATALOAD PUSH1 0x1 PUSH1 0x1 PUSH1 0x40 SHL SUB DUP2 GT ISZERO PUSH2 0x4C74 JUMPI PUSH0 DUP1 REVERT JUMPDEST PUSH2 0x4C80 DUP10 DUP3 DUP11 ADD PUSH2 0x4C06 JUMP JUMPDEST SWAP1 SWAP8 POP SWAP6 POP POP PUSH1 0x20 DUP8 ADD CALLDATALOAD PUSH1 0x1 PUSH1 0x1 PUSH1 0x40 SHL SUB DUP2 GT ISZERO PUSH2 0x4C9E JUMPI PUSH0 DUP1 REVERT JUMPDEST PUSH2 0x4CAA DUP10 DUP3 DUP11 ADD PUSH2 0x4C06 JUMP JUMPDEST SWAP1 SWAP6 POP SWAP4 POP POP PUSH1 0x40 DUP8 ADD CALLDATALOAD PUSH1 0x1 PUSH1 0x1 PUSH1 0x40 SHL SUB DUP2 GT ISZERO PUSH2 0x4CC8 JUMPI PUSH0 DUP1 REVERT JUMPDEST PUSH2 0x4CD4 DUP10 DUP3 DUP11 ADD PUSH2 0x4C06 JUMP JUMPDEST SWAP8 SWAP11 SWAP7 SWAP10 POP SWAP5 SWAP8 POP SWAP3 SWAP6 SWAP4 SWAP5 SWAP3 POP POP POP JUMP JUMPDEST PUSH1 0x1 PUSH1 0x1 PUSH1 0xA0 SHL SUB DUP2 AND DUP2 EQ PUSH2 0x4B67 JUMPI PUSH0 DUP1 REVERT JUMPDEST PUSH0 DUP1 PUSH1 0x40 DUP4 DUP6 SUB SLT ISZERO PUSH2 0x4D0B JUMPI PUSH0 DUP1 REVERT JUMPDEST DUP3 CALLDATALOAD PUSH2 0x4D16 DUP2 PUSH2 0x4CE6 JUMP JUMPDEST SWAP2 POP PUSH1 0x20 DUP4 ADD CALLDATALOAD PUSH0 DUP2 SWAP1 SIGNEXTEND DUP2 EQ PUSH2 0x4D2B JUMPI PUSH0 DUP1 REVERT JUMPDEST DUP1 SWAP2 POP POP SWAP3 POP SWAP3 SWAP1 POP JUMP JUMPDEST PUSH0 DUP1 DUP4 PUSH1 0x1F DUP5 ADD SLT PUSH2 0x4D46 JUMPI PUSH0 DUP1 REVERT JUMPDEST POP DUP2 CALLDATALOAD PUSH1 0x1 PUSH1 0x1 PUSH1 0x40 SHL SUB DUP2 GT ISZERO PUSH2 0x4D5C JUMPI PUSH0 DUP1 REVERT JUMPDEST PUSH1 0x20 DUP4 ADD SWAP2 POP DUP4 PUSH1 0x20 DUP3 PUSH1 0x5 SHL DUP6 ADD ADD GT ISZERO PUSH2 0x4C43 JUMPI PUSH0 DUP1 REVERT JUMPDEST PUSH0 DUP1 PUSH0 DUP1 PUSH1 0x40 DUP6 DUP8 SUB SLT ISZERO PUSH2 0x4D89 JUMPI PUSH0 DUP1 REVERT JUMPDEST DUP5 CALLDATALOAD PUSH1 0x1 PUSH1 0x1 PUSH1 0x40 SHL SUB DUP2 GT ISZERO PUSH2 0x4D9E JUMPI PUSH0 DUP1 REVERT JUMPDEST PUSH2 0x4DAA DUP8 DUP3 DUP9 ADD PUSH2 0x4C06 JUMP JUMPDEST SWAP1 SWAP6 POP SWAP4 POP POP PUSH1 0x20 DUP6 ADD CALLDATALOAD PUSH1 0x1 PUSH1 0x1 PUSH1 0x40 SHL SUB DUP2 GT ISZERO PUSH2 0x4DC8 JUMPI PUSH0 DUP1 REVERT JUMPDEST PUSH2 0x4DD4 DUP8 DUP3 DUP9 ADD PUSH2 0x4D36 JUMP JUMPDEST SWAP6 SWAP9 SWAP5 SWAP8 POP SWAP6 POP POP POP POP JUMP JUMPDEST PUSH0 DUP3 DUP3 MLOAD DUP1 DUP6 MSTORE PUSH1 0x20 DUP6 ADD SWAP5 POP PUSH1 0x20 DUP2 PUSH1 0x5 SHL DUP4 ADD ADD PUSH1 0x20 DUP6 ADD PUSH0 JUMPDEST DUP4 DUP2 LT ISZERO PUSH2 0x4E2E JUMPI PUSH1 0x1F NOT DUP6 DUP5 SUB ADD DUP9 MSTORE PUSH2 0x4E18 DUP4 DUP4 MLOAD PUSH2 0x4B95 JUMP JUMPDEST PUSH1 0x20 SWAP9 DUP10 ADD SWAP9 SWAP1 SWAP4 POP SWAP2 SWAP1 SWAP2 ADD SWAP1 PUSH1 0x1 ADD PUSH2 0x4DFC JUMP JUMPDEST POP SWAP1 SWAP7 SWAP6 POP POP POP POP POP POP JUMP JUMPDEST PUSH0 DUP2 MLOAD PUSH2 0x100 DUP5 MSTORE PUSH2 0x4E50 PUSH2 0x100 DUP6 ADD DUP3 PUSH2 0x4B95 JUMP JUMPDEST SWAP1 POP PUSH1 0x20 DUP4 ADD MLOAD DUP5 DUP3 SUB PUSH1 0x20 DUP7 ADD MSTORE PUSH2 0x4E69 DUP3 DUP3 PUSH2 0x4B95 JUMP JUMPDEST SWAP2 POP POP PUSH1 0x40 DUP4 ADD MLOAD DUP5 DUP3 SUB PUSH1 0x40 DUP7 ADD MSTORE PUSH2 0x4E83 DUP3 DUP3 PUSH2 0x4B95 JUMP JUMPDEST SWAP2 POP POP PUSH1 0x60 DUP4 ADD MLOAD DUP5 DUP3 SUB PUSH1 0x60 DUP7 ADD MSTORE PUSH2 0x4E9D DUP3 DUP3 PUSH2 0x4DE0 JUMP JUMPDEST SWAP2 POP POP PUSH1 0x80 DUP4 ADD MLOAD PUSH1 0x80 DUP6 ADD MSTORE PUSH1 0xA0 DUP4 ADD MLOAD DUP5 DUP3 SUB PUSH1 0xA0 DUP7 ADD MSTORE PUSH2 0x4EC1 DUP3 DUP3 PUSH2 0x4B95 JUMP JUMPDEST SWAP2 POP POP PUSH1 0xC0 DUP4 ADD MLOAD PUSH1 0xC0 DUP6 ADD MSTORE PUSH1 0xE0 DUP4 ADD MLOAD PUSH1 0xE0 DUP6 ADD MSTORE DUP1 SWAP2 POP POP SWAP3 SWAP2 POP POP JUMP JUMPDEST DUP3 DUP2 MSTORE PUSH1 0x40 PUSH1 0x20 DUP3 ADD MSTORE PUSH0 PUSH2 0x37BB PUSH1 0x40 DUP4 ADD DUP5 PUSH2 0x4E3A JUMP JUMPDEST DUP1 PUSH2 0x140 DUP2 ADD DUP4 LT ISZERO PUSH2 0x4F0B JUMPI PUSH0 DUP1 REVERT JUMPDEST SWAP3 SWAP2 POP POP JUMP JUMPDEST PUSH0 DUP1 PUSH2 0x280 DUP4 DUP6 SUB SLT ISZERO PUSH2 0x4F23 JUMPI PUSH0 DUP1 REVERT JUMPDEST PUSH2 0x4F2D DUP5 DUP5 PUSH2 0x4EFA JUMP JUMPDEST SWAP2 POP PUSH2 0x4F3D DUP5 PUSH2 0x140 DUP6 ADD PUSH2 0x4EFA JUMP JUMPDEST SWAP1 POP SWAP3 POP SWAP3 SWAP1 POP JUMP JUMPDEST PUSH0 DUP1 PUSH1 0x40 DUP4 DUP6 SUB SLT ISZERO PUSH2 0x4F57 JUMPI PUSH0 DUP1 REVERT JUMPDEST DUP3 CALLDATALOAD PUSH2 0x4F62 DUP2 PUSH2 0x4CE6 JUMP JUMPDEST SWAP5 PUSH1 0x20 SWAP4 SWAP1 SWAP4 ADD CALLDATALOAD SWAP4 POP POP POP JUMP JUMPDEST PUSH1 0x20 DUP2 MSTORE PUSH0 DUP3 MLOAD PUSH2 0x120 PUSH1 0x20 DUP5 ADD MSTORE PUSH2 0x4F8D PUSH2 0x140 DUP5 ADD DUP3 PUSH2 0x4B95 JUMP JUMPDEST SWAP1 POP PUSH1 0x20 DUP5 ADD MLOAD PUSH1 0x1F NOT DUP5 DUP4 SUB ADD PUSH1 0x40 DUP6 ADD MSTORE PUSH2 0x4FAA DUP3 DUP3 PUSH2 0x4B95 JUMP JUMPDEST SWAP2 POP POP PUSH1 0x40 DUP5 ADD MLOAD PUSH1 0x1F NOT DUP5 DUP4 SUB ADD PUSH1 0x60 DUP6 ADD MSTORE PUSH2 0x4FC8 DUP3 DUP3 PUSH2 0x4B95 JUMP JUMPDEST SWAP2 POP POP PUSH1 0x60 DUP5 ADD MLOAD PUSH1 0x80 DUP5 ADD MSTORE PUSH1 0x80 DUP5 ADD MLOAD PUSH2 0x4FEA PUSH1 0xA0 DUP6 ADD DUP3 PUSH2 0xFFFF AND SWAP1 MSTORE JUMP JUMPDEST POP PUSH1 0xA0 DUP5 ADD MLOAD PUSH1 0xFF DUP2 AND PUSH1 0xC0 DUP6 ADD MSTORE POP PUSH1 0xC0 DUP5 ADD MLOAD PUSH1 0xE0 DUP5 ADD MSTORE PUSH1 0xE0 DUP5 ADD MLOAD PUSH2 0x501A PUSH2 0x100 DUP6 ADD DUP3 PUSH2 0xFFFF AND SWAP1 MSTORE JUMP JUMPDEST POP PUSH2 0x100 DUP5 ADD MLOAD PUSH2 0xFFFF DUP2 AND PUSH2 0x120 DUP6 ADD MSTORE PUSH2 0x33AE JUMP JUMPDEST PUSH4 0x4E487B71 PUSH1 0xE0 SHL PUSH0 MSTORE PUSH1 0x21 PUSH1 0x4 MSTORE PUSH1 0x24 PUSH0 REVERT JUMPDEST PUSH1 0x20 DUP2 ADD PUSH1 0x6 DUP4 LT PUSH2 0x5065 JUMPI PUSH4 0x4E487B71 PUSH1 0xE0 SHL PUSH0 MSTORE PUSH1 0x21 PUSH1 0x4 MSTORE PUSH1 0x24 PUSH0 REVERT JUMPDEST SWAP2 SWAP1 MSTORE SWAP1 JUMP JUMPDEST PUSH0 DUP1 PUSH1 0x20 DUP4 DUP6 SUB SLT ISZERO PUSH2 0x507C JUMPI PUSH0 DUP1 REVERT JUMPDEST DUP3 CALLDATALOAD PUSH1 0x1 PUSH1 0x1 PUSH1 0x40 SHL SUB DUP2 GT ISZERO PUSH2 0x5091 JUMPI PUSH0 DUP1 REVERT JUMPDEST PUSH2 0x509D DUP6 DUP3 DUP7 ADD PUSH2 0x4D36 JUMP JUMPDEST SWAP1 SWAP7 SWAP1 SWAP6 POP SWAP4 POP POP POP POP JUMP JUMPDEST PUSH4 0x4E487B71 PUSH1 0xE0 SHL PUSH0 MSTORE PUSH1 0x41 PUSH1 0x4 MSTORE PUSH1 0x24 PUSH0 REVERT JUMPDEST PUSH1 0x40 MLOAD PUSH2 0x100 DUP2 ADD PUSH1 0x1 PUSH1 0x1 PUSH1 0x40 SHL SUB DUP2 GT DUP3 DUP3 LT OR ISZERO PUSH2 0x50E0 JUMPI PUSH2 0x50E0 PUSH2 0x50A9 JUMP JUMPDEST PUSH1 0x40 MSTORE SWAP1 JUMP JUMPDEST PUSH1 0x40 MLOAD PUSH1 0x1F DUP3 ADD PUSH1 0x1F NOT AND DUP2 ADD PUSH1 0x1 PUSH1 0x1 PUSH1 0x40 SHL SUB DUP2 GT DUP3 DUP3 LT OR ISZERO PUSH2 0x510E JUMPI PUSH2 0x510E PUSH2 0x50A9 JUMP JUMPDEST PUSH1 0x40 MSTORE SWAP2 SWAP1 POP JUMP JUMPDEST PUSH0 DUP3 PUSH1 0x1F DUP4 ADD SLT PUSH2 0x5125 JUMPI PUSH0 DUP1 REVERT JUMPDEST DUP2 CALLDATALOAD PUSH1 0x1 PUSH1 0x1 PUSH1 0x40 SHL SUB DUP2 GT ISZERO PUSH2 0x513E JUMPI PUSH2 0x513E PUSH2 0x50A9 JUMP JUMPDEST PUSH2 0x5151 PUSH1 0x1F DUP3 ADD PUSH1 0x1F NOT AND PUSH1 0x20 ADD PUSH2 0x50E6 JUMP JUMPDEST DUP2 DUP2 MSTORE DUP5 PUSH1 0x20 DUP4 DUP7 ADD ADD GT ISZERO PUSH2 0x5165 JUMPI PUSH0 DUP1 REVERT JUMPDEST DUP2 PUSH1 0x20 DUP6 ADD PUSH1 0x20 DUP4 ADD CALLDATACOPY PUSH0 SWAP2 DUP2 ADD PUSH1 0x20 ADD SWAP2 SWAP1 SWAP2 MSTORE SWAP4 SWAP3 POP POP POP JUMP JUMPDEST PUSH0 DUP3 PUSH1 0x1F DUP4 ADD SLT PUSH2 0x5190 JUMPI PUSH0 DUP1 REVERT JUMPDEST DUP2 CALLDATALOAD PUSH1 0x1 PUSH1 0x1 PUSH1 0x40 SHL SUB DUP2 GT ISZERO PUSH2 0x51A9 JUMPI PUSH2 0x51A9 PUSH2 0x50A9 JUMP JUMPDEST DUP1 PUSH1 0x5 SHL PUSH2 0x51B9 PUSH1 0x20 DUP3 ADD PUSH2 0x50E6 JUMP JUMPDEST SWAP2 DUP3 MSTORE PUSH1 0x20 DUP2 DUP6 ADD DUP2 ADD SWAP3 SWAP1 DUP2 ADD SWAP1 DUP7 DUP5 GT ISZERO PUSH2 0x51D4 JUMPI PUSH0 DUP1 REVERT JUMPDEST PUSH1 0x20 DUP7 ADD SWAP3 POP JUMPDEST DUP4 DUP4 LT ISZERO PUSH2 0x5219 JUMPI DUP3 CALLDATALOAD PUSH1 0x1 PUSH1 0x1 PUSH1 0x40 SHL SUB DUP2 GT ISZERO PUSH2 0x51F8 JUMPI PUSH0 DUP1 REVERT JUMPDEST PUSH2 0x5207 DUP9 PUSH1 0x20 DUP4 DUP11 ADD ADD PUSH2 0x5116 JUMP JUMPDEST DUP4 MSTORE POP PUSH1 0x20 SWAP3 DUP4 ADD SWAP3 SWAP1 SWAP2 ADD SWAP1 PUSH2 0x51DB JUMP JUMPDEST SWAP7 SWAP6 POP POP POP POP POP POP JUMP JUMPDEST PUSH0 PUSH1 0x20 DUP3 DUP5 SUB SLT ISZERO PUSH2 0x5233 JUMPI PUSH0 DUP1 REVERT JUMPDEST DUP2 CALLDATALOAD PUSH1 0x1 PUSH1 0x1 PUSH1 0x40 SHL SUB DUP2 GT ISZERO PUSH2 0x5248 JUMPI PUSH0 DUP1 REVERT JUMPDEST DUP3 ADD PUSH2 0x100 DUP2 DUP6 SUB SLT ISZERO PUSH2 0x525A JUMPI PUSH0 DUP1 REVERT JUMPDEST PUSH2 0x5262 PUSH2 0x50BD JUMP JUMPDEST DUP2 CALLDATALOAD PUSH1 0x1 PUSH1 0x1 PUSH1 0x40 SHL SUB DUP2 GT ISZERO PUSH2 0x5277 JUMPI PUSH0 DUP1 REVERT JUMPDEST PUSH2 0x5283 DUP7 DUP3 DUP6 ADD PUSH2 0x5116 JUMP JUMPDEST DUP3 MSTORE POP PUSH1 0x20 DUP3 ADD CALLDATALOAD PUSH1 0x1 PUSH1 0x1 PUSH1 0x40 SHL SUB DUP2 GT ISZERO PUSH2 0x529E JUMPI PUSH0 DUP1 REVERT JUMPDEST PUSH2 0x52AA DUP7 DUP3 DUP6 ADD PUSH2 0x5116 JUMP JUMPDEST PUSH1 0x20 DUP4 ADD MSTORE POP PUSH1 0x40 DUP3 ADD CALLDATALOAD PUSH1 0x1 PUSH1 0x1 PUSH1 0x40 SHL SUB DUP2 GT ISZERO PUSH2 0x52C8 JUMPI PUSH0 DUP1 REVERT JUMPDEST PUSH2 0x52D4 DUP7 DUP3 DUP6 ADD PUSH2 0x5116 JUMP JUMPDEST PUSH1 0x40 DUP4 ADD MSTORE POP PUSH1 0x60 DUP3 ADD CALLDATALOAD PUSH1 0x1 PUSH1 0x1 PUSH1 0x40 SHL SUB DUP2 GT ISZERO PUSH2 0x52F2 JUMPI PUSH0 DUP1 REVERT JUMPDEST PUSH2 0x52FE DUP7 DUP3 DUP6 ADD PUSH2 0x5181 JUMP JUMPDEST PUSH1 0x60 DUP4 ADD MSTORE POP PUSH1 0x80 DUP3 DUP2 ADD CALLDATALOAD SWAP1 DUP3 ADD MSTORE PUSH1 0xA0 DUP3 ADD CALLDATALOAD PUSH1 0x1 PUSH1 0x1 PUSH1 0x40 SHL SUB DUP2 GT ISZERO PUSH2 0x5326 JUMPI PUSH0 DUP1 REVERT JUMPDEST PUSH2 0x5332 DUP7 DUP3 DUP6 ADD PUSH2 0x5116 JUMP JUMPDEST PUSH1 0xA0 DUP4 ADD MSTORE POP PUSH1 0xC0 DUP3 DUP2 ADD CALLDATALOAD SWAP1 DUP3 ADD MSTORE PUSH1 0xE0 SWAP2 DUP3 ADD CALLDATALOAD SWAP2 DUP2 ADD SWAP2 SWAP1 SWAP2 MSTORE SWAP4 SWAP3 POP POP POP JUMP JUMPDEST DUP1 CALLDATALOAD PUSH2 0xFFFF DUP2 AND DUP2 EQ PUSH2 0x5367 JUMPI PUSH0 DUP1 REVERT JUMPDEST SWAP2 SWAP1 POP JUMP JUMPDEST DUP1 CALLDATALOAD PUSH1 0xFF DUP2 AND DUP2 EQ PUSH2 0x5367 JUMPI PUSH0 DUP1 REVERT JUMPDEST DUP1 CALLDATALOAD DUP1 ISZERO ISZERO DUP2 EQ PUSH2 0x5367 JUMPI PUSH0 DUP1 REVERT JUMPDEST PUSH0 DUP1 PUSH0 PUSH1 0x60 DUP5 DUP7 SUB SLT ISZERO PUSH2 0x539D JUMPI PUSH0 DUP1 REVERT JUMPDEST PUSH2 0x53A6 DUP5 PUSH2 0x5356 JUMP JUMPDEST SWAP3 POP PUSH2 0x53B4 PUSH1 0x20 DUP6 ADD PUSH2 0x536C JUMP JUMPDEST SWAP2 POP PUSH2 0x53C2 PUSH1 0x40 DUP6 ADD PUSH2 0x537C JUMP JUMPDEST SWAP1 POP SWAP3 POP SWAP3 POP SWAP3 JUMP JUMPDEST PUSH1 0xE0 DUP2 MSTORE PUSH0 PUSH2 0x53DD PUSH1 0xE0 DUP4 ADD DUP11 PUSH2 0x4B95 JUMP JUMPDEST DUP3 DUP2 SUB PUSH1 0x20 DUP5 ADD MSTORE PUSH2 0x53EF DUP2 DUP11 PUSH2 0x4B95 JUMP JUMPDEST SWAP1 POP DUP3 DUP2 SUB PUSH1 0x40 DUP5 ADD MSTORE PUSH2 0x5403 DUP2 DUP10 PUSH2 0x4B95 JUMP JUMPDEST SWAP1 POP DUP7 PUSH1 0x60 DUP5 ADD MSTORE DUP3 DUP2 SUB PUSH1 0x80 DUP5 ADD MSTORE PUSH2 0x541D DUP2 DUP8 PUSH2 0x4B95 JUMP JUMPDEST PUSH1 0xA0 DUP5 ADD SWAP6 SWAP1 SWAP6 MSTORE POP POP PUSH1 0xC0 ADD MSTORE SWAP6 SWAP5 POP POP POP POP POP JUMP JUMPDEST PUSH0 PUSH1 0x20 DUP3 DUP5 SUB SLT ISZERO PUSH2 0x5444 JUMPI PUSH0 DUP1 REVERT JUMPDEST DUP2 CALLDATALOAD PUSH2 0x544F DUP2 PUSH2 0x4CE6 JUMP JUMPDEST SWAP4 SWAP3 POP POP POP JUMP JUMPDEST PUSH2 0x120 DUP2 MSTORE PUSH0 PUSH2 0x546A PUSH2 0x120 DUP4 ADD DUP13 PUSH2 0x4B95 JUMP JUMPDEST DUP3 DUP2 SUB PUSH1 0x20 DUP5 ADD MSTORE PUSH2 0x547C DUP2 DUP13 PUSH2 0x4B95 JUMP JUMPDEST SWAP1 POP DUP3 DUP2 SUB PUSH1 0x40 DUP5 ADD MSTORE PUSH2 0x5490 DUP2 DUP12 PUSH2 0x4B95 JUMP JUMPDEST PUSH1 0x60 DUP5 ADD SWAP10 SWAP1 SWAP10 MSTORE POP POP PUSH2 0xFFFF SWAP6 DUP7 AND PUSH1 0x80 DUP3 ADD MSTORE PUSH1 0xFF SWAP5 SWAP1 SWAP5 AND PUSH1 0xA0 DUP6 ADD MSTORE PUSH1 0xC0 DUP5 ADD SWAP3 SWAP1 SWAP3 MSTORE DUP4 AND PUSH1 0xE0 DUP4 ADD MSTORE SWAP1 SWAP2 AND PUSH2 0x100 SWAP1 SWAP2 ADD MSTORE SWAP4 SWAP3 POP POP POP JUMP JUMPDEST PUSH0 DUP1 PUSH2 0x500 DUP4 DUP6 SUB SLT ISZERO PUSH2 0x54E2 JUMPI PUSH0 DUP1 REVERT JUMPDEST PUSH2 0x54EC DUP5 DUP5 PUSH2 0x4EFA JUMP JUMPDEST SWAP2 POP DUP4 PUSH2 0x500 DUP5 ADD GT ISZERO PUSH2 0x54FE JUMPI PUSH0 DUP1 REVERT JUMPDEST POP SWAP3 PUSH2 0x140 SWAP2 SWAP1 SWAP2 ADD SWAP2 POP JUMP JUMPDEST PUSH1 0x20 DUP1 DUP3 MSTORE DUP3 MLOAD DUP3 DUP3 ADD DUP2 SWAP1 MSTORE PUSH0 SWAP2 DUP5 ADD SWAP1 PUSH1 0x40 DUP5 ADD SWAP1 DUP4 JUMPDEST DUP2 DUP2 LT ISZERO PUSH2 0x554B JUMPI DUP4 MLOAD PUSH1 0x1 PUSH1 0x1 PUSH1 0xA0 SHL SUB AND DUP4 MSTORE PUSH1 0x20 SWAP4 DUP5 ADD SWAP4 SWAP1 SWAP3 ADD SWAP2 PUSH1 0x1 ADD PUSH2 0x5524 JUMP JUMPDEST POP SWAP1 SWAP6 SWAP5 POP POP POP POP POP JUMP JUMPDEST PUSH1 0x1 DUP2 DUP2 SHR SWAP1 DUP3 AND DUP1 PUSH2 0x556A JUMPI PUSH1 0x7F DUP3 AND SWAP2 POP JUMPDEST PUSH1 0x20 DUP3 LT DUP2 SUB PUSH2 0x5588 JUMPI PUSH4 0x4E487B71 PUSH1 0xE0 SHL PUSH0 MSTORE PUSH1 0x22 PUSH1 0x4 MSTORE PUSH1 0x24 PUSH0 REVERT JUMPDEST POP SWAP2 SWAP1 POP JUMP JUMPDEST PUSH4 0x4E487B71 PUSH1 0xE0 SHL PUSH0 MSTORE PUSH1 0x32 PUSH1 0x4 MSTORE PUSH1 0x24 PUSH0 REVERT JUMPDEST PUSH4 0x4E487B71 PUSH1 0xE0 SHL PUSH0 MSTORE PUSH1 0x11 PUSH1 0x4 MSTORE PUSH1 0x24 PUSH0 REVERT JUMPDEST PUSH0 PUSH1 0xFF DUP3 AND PUSH1 0xFF DUP2 SUB PUSH2 0x55CB JUMPI PUSH2 0x55CB PUSH2 0x55A2 JUMP JUMPDEST PUSH1 0x1 ADD SWAP3 SWAP2 POP POP JUMP JUMPDEST DUP2 DUP2 SUB DUP2 DUP2 GT ISZERO PUSH2 0x4F0B JUMPI PUSH2 0x4F0B PUSH2 0x55A2 JUMP JUMPDEST PUSH1 0x1F DUP3 GT ISZERO PUSH2 0x4AC3 JUMPI DUP1 PUSH0 MSTORE PUSH1 0x20 PUSH0 KECCAK256 PUSH1 0x1F DUP5 ADD PUSH1 0x5 SHR DUP2 ADD PUSH1 0x20 DUP6 LT ISZERO PUSH2 0x560C JUMPI POP DUP1 JUMPDEST PUSH1 0x1F DUP5 ADD PUSH1 0x5 SHR DUP3 ADD SWAP2 POP JUMPDEST DUP2 DUP2 LT ISZERO PUSH2 0x562B JUMPI PUSH0 DUP2 SSTORE PUSH1 0x1 ADD PUSH2 0x5618 JUMP JUMPDEST POP POP POP POP POP JUMP JUMPDEST PUSH0 NOT PUSH1 0x3 DUP4 SWAP1 SHL SHR NOT AND PUSH1 0x1 SWAP2 SWAP1 SWAP2 SHL OR SWAP1 JUMP JUMPDEST PUSH1 0x1 PUSH1 0x1 PUSH1 0x40 SHL SUB DUP4 GT ISZERO PUSH2 0x565D JUMPI PUSH2 0x565D PUSH2 0x50A9 JUMP JUMPDEST PUSH2 0x5671 DUP4 PUSH2 0x566B DUP4 SLOAD PUSH2 0x5556 JUMP JUMPDEST DUP4 PUSH2 0x55E7 JUMP JUMPDEST PUSH0 PUSH1 0x1F DUP5 GT PUSH1 0x1 DUP2 EQ PUSH2 0x569D JUMPI PUSH0 DUP6 ISZERO PUSH2 0x568B JUMPI POP DUP4 DUP3 ADD CALLDATALOAD JUMPDEST PUSH2 0x5695 DUP7 DUP3 PUSH2 0x5632 JUMP JUMPDEST DUP5 SSTORE POP PUSH2 0x562B JUMP JUMPDEST PUSH0 DUP4 DUP2 MSTORE PUSH1 0x20 DUP2 KECCAK256 PUSH1 0x1F NOT DUP8 AND SWAP2 JUMPDEST DUP3 DUP2 LT ISZERO PUSH2 0x56CC JUMPI DUP7 DUP6 ADD CALLDATALOAD DUP3 SSTORE PUSH1 0x20 SWAP5 DUP6 ADD SWAP5 PUSH1 0x1 SWAP1 SWAP3 ADD SWAP2 ADD PUSH2 0x56AC JUMP JUMPDEST POP DUP7 DUP3 LT ISZERO PUSH2 0x56E8 JUMPI PUSH0 NOT PUSH1 0xF8 DUP9 PUSH1 0x3 SHL AND SHR NOT DUP5 DUP8 ADD CALLDATALOAD AND DUP2 SSTORE JUMPDEST POP POP PUSH1 0x1 DUP6 PUSH1 0x1 SHL ADD DUP4 SSTORE POP POP POP POP POP JUMP JUMPDEST DUP2 DUP4 MSTORE DUP2 DUP2 PUSH1 0x20 DUP6 ADD CALLDATACOPY POP PUSH0 DUP3 DUP3 ADD PUSH1 0x20 SWAP1 DUP2 ADD SWAP2 SWAP1 SWAP2 MSTORE PUSH1 0x1F SWAP1 SWAP2 ADD PUSH1 0x1F NOT AND SWAP1 SWAP2 ADD ADD SWAP1 JUMP JUMPDEST PUSH1 0x60 DUP2 MSTORE PUSH0 PUSH2 0x5735 PUSH1 0x60 DUP4 ADD DUP9 DUP11 PUSH2 0x56FA JUMP JUMPDEST DUP3 DUP2 SUB PUSH1 0x20 DUP5 ADD MSTORE PUSH2 0x5748 DUP2 DUP8 DUP10 PUSH2 0x56FA JUMP JUMPDEST SWAP1 POP DUP3 DUP2 SUB PUSH1 0x40 DUP5 ADD MSTORE PUSH2 0x575D DUP2 DUP6 DUP8 PUSH2 0x56FA JUMP JUMPDEST SWAP10 SWAP9 POP POP POP POP POP POP POP POP POP JUMP JUMPDEST DUP1 DUP3 ADD DUP3 DUP2 SLT PUSH0 DUP4 SLT DUP1 ISZERO DUP3 AND DUP3 ISZERO DUP3 AND OR ISZERO PUSH2 0x5789 JUMPI PUSH2 0x5789 PUSH2 0x55A2 JUMP JUMPDEST POP POP SWAP3 SWAP2 POP POP JUMP JUMPDEST PUSH0 PUSH2 0xFFFF DUP3 AND PUSH2 0xFFFF DUP2 SUB PUSH2 0x55CB JUMPI PUSH2 0x55CB PUSH2 0x55A2 JUMP JUMPDEST PUSH0 PUSH1 0x1 DUP3 ADD PUSH2 0x57B9 JUMPI PUSH2 0x57B9 PUSH2 0x55A2 JUMP JUMPDEST POP PUSH1 0x1 ADD SWAP1 JUMP JUMPDEST PUSH0 DUP2 PUSH2 0x57CE JUMPI PUSH2 0x57CE PUSH2 0x55A2 JUMP JUMPDEST POP PUSH0 NOT ADD SWAP1 JUMP JUMPDEST PUSH0 DUP3 DUP2 SIGNEXTEND SWAP1 DUP3 SWAP1 SIGNEXTEND SUB PUSH1 0x7F NOT DUP2 SLT PUSH1 0x7F DUP3 SGT OR ISZERO PUSH2 0x4F0B JUMPI PUSH2 0x4F0B PUSH2 0x55A2 JUMP JUMPDEST PUSH0 DUP3 CALLDATALOAD PUSH1 0x5E NOT DUP4 CALLDATASIZE SUB ADD DUP2 SLT PUSH2 0x5809 JUMPI PUSH0 DUP1 REVERT JUMPDEST SWAP2 SWAP1 SWAP2 ADD SWAP3 SWAP2 POP POP JUMP JUMPDEST DUP2 CALLDATALOAD DUP2 SSTORE PUSH1 0x1 DUP2 ADD PUSH1 0x20 DUP4 ADD CALLDATALOAD PUSH2 0x5829 DUP2 PUSH2 0x4CE6 JUMP JUMPDEST DUP2 SLOAD PUSH1 0x1 PUSH1 0x1 PUSH1 0xA0 SHL SUB NOT AND PUSH1 0x1 PUSH1 0x1 PUSH1 0xA0 SHL SUB SWAP2 SWAP1 SWAP2 AND OR SWAP1 SSTORE PUSH1 0x40 DUP3 ADD CALLDATALOAD CALLDATASIZE DUP4 SWAP1 SUB PUSH1 0x1E NOT ADD DUP2 SLT PUSH2 0x585B JUMPI PUSH0 DUP1 REVERT JUMPDEST DUP3 ADD DUP1 CALLDATALOAD PUSH1 0x1 PUSH1 0x1 PUSH1 0x40 SHL SUB DUP2 GT ISZERO PUSH2 0x5872 JUMPI PUSH0 DUP1 REVERT JUMPDEST PUSH1 0x20 DUP3 ADD SWAP2 POP DUP1 CALLDATASIZE SUB DUP3 SGT ISZERO PUSH2 0x5886 JUMPI PUSH0 DUP1 REVERT JUMPDEST PUSH1 0x2 DUP4 ADD PUSH1 0x1 PUSH1 0x1 PUSH1 0x40 SHL SUB DUP3 GT ISZERO PUSH2 0x58A1 JUMPI PUSH2 0x58A1 PUSH2 0x50A9 JUMP JUMPDEST PUSH2 0x58AF DUP3 PUSH2 0x566B DUP4 SLOAD PUSH2 0x5556 JUMP JUMPDEST PUSH0 PUSH1 0x1F DUP4 GT PUSH1 0x1 DUP2 EQ PUSH2 0x58DB JUMPI PUSH0 DUP5 ISZERO PUSH2 0x58C9 JUMPI POP DUP5 DUP3 ADD CALLDATALOAD JUMPDEST PUSH2 0x58D3 DUP6 DUP3 PUSH2 0x5632 JUMP JUMPDEST DUP5 SSTORE POP PUSH2 0x5932 JUMP JUMPDEST PUSH0 DUP4 DUP2 MSTORE PUSH1 0x20 DUP2 KECCAK256 PUSH1 0x1F NOT DUP7 AND SWAP2 JUMPDEST DUP3 DUP2 LT ISZERO PUSH2 0x590A JUMPI DUP8 DUP6 ADD CALLDATALOAD DUP3 SSTORE PUSH1 0x20 SWAP5 DUP6 ADD SWAP5 PUSH1 0x1 SWAP1 SWAP3 ADD SWAP2 ADD PUSH2 0x58EA JUMP JUMPDEST POP DUP6 DUP3 LT ISZERO PUSH2 0x5926 JUMPI PUSH0 NOT PUSH1 0xF8 DUP8 PUSH1 0x3 SHL AND SHR NOT DUP5 DUP9 ADD CALLDATALOAD AND DUP2 SSTORE JUMPDEST POP POP PUSH1 0x1 DUP5 PUSH1 0x1 SHL ADD DUP4 SSTORE JUMPDEST POP POP POP POP POP POP POP JUMP JUMPDEST PUSH1 0x20 DUP2 MSTORE PUSH0 PUSH2 0x37BB PUSH1 0x20 DUP4 ADD DUP5 DUP7 PUSH2 0x56FA JUMP JUMPDEST PUSH1 0x20 DUP2 MSTORE PUSH0 PUSH2 0x544F PUSH1 0x20 DUP4 ADD DUP5 PUSH2 0x4E3A JUMP JUMPDEST PUSH4 0xFFFFFFFF DUP2 DUP2 AND DUP4 DUP3 AND ADD SWAP1 DUP2 GT ISZERO PUSH2 0x4F0B JUMPI PUSH2 0x4F0B PUSH2 0x55A2 JUMP JUMPDEST PUSH0 DUP2 DUP4 DUP3 JUMPDEST PUSH1 0xA DUP2 LT ISZERO PUSH2 0x59B3 JUMPI DUP2 CALLDATALOAD PUSH2 0x5995 DUP2 PUSH2 0x4CE6 JUMP JUMPDEST PUSH1 0x1 PUSH1 0x1 PUSH1 0xA0 SHL SUB AND DUP4 MSTORE PUSH1 0x20 SWAP3 DUP4 ADD SWAP3 SWAP2 SWAP1 SWAP2 ADD SWAP1 PUSH1 0x1 ADD PUSH2 0x5981 JUMP JUMPDEST POP POP POP PUSH2 0x140 DUP3 ADD SWAP1 POP SWAP3 SWAP2 POP POP JUMP JUMPDEST PUSH1 0xFF DUP2 DUP2 AND DUP4 DUP3 AND MUL SWAP1 DUP2 AND SWAP1 DUP2 DUP2 EQ PUSH2 0x59DF JUMPI PUSH2 0x59DF PUSH2 0x55A2 JUMP JUMPDEST POP SWAP3 SWAP2 POP POP JUMP JUMPDEST DUP1 DUP3 ADD DUP1 DUP3 GT ISZERO PUSH2 0x4F0B JUMPI PUSH2 0x4F0B PUSH2 0x55A2 JUMP JUMPDEST PUSH0 DUP2 MLOAD DUP1 PUSH1 0x20 DUP5 ADD DUP6 MCOPY PUSH0 SWAP4 ADD SWAP3 DUP4 MSTORE POP SWAP1 SWAP2 SWAP1 POP JUMP JUMPDEST PUSH0 PUSH2 0x5A2D PUSH2 0x5A27 PUSH2 0x5A21 DUP5 DUP9 PUSH2 0x59F9 JUMP JUMPDEST DUP7 PUSH2 0x59F9 JUMP JUMPDEST DUP5 PUSH2 0x59F9 JUMP JUMPDEST SWAP6 SWAP5 POP POP POP POP POP JUMP JUMPDEST DUP2 MLOAD PUSH1 0x1 PUSH1 0x1 PUSH1 0x40 SHL SUB DUP2 GT ISZERO PUSH2 0x5A4F JUMPI PUSH2 0x5A4F PUSH2 0x50A9 JUMP JUMPDEST PUSH2 0x5A63 DUP2 PUSH2 0x5A5D DUP5 SLOAD PUSH2 0x5556 JUMP JUMPDEST DUP5 PUSH2 0x55E7 JUMP JUMPDEST PUSH1 0x20 PUSH1 0x1F DUP3 GT PUSH1 0x1 DUP2 EQ PUSH2 0x5A90 JUMPI PUSH0 DUP4 ISZERO PUSH2 0x5A7E JUMPI POP DUP5 DUP3 ADD MLOAD JUMPDEST PUSH2 0x5A88 DUP5 DUP3 PUSH2 0x5632 JUMP JUMPDEST DUP6 SSTORE POP PUSH2 0x562B JUMP JUMPDEST PUSH0 DUP5 DUP2 MSTORE PUSH1 0x20 DUP2 KECCAK256 PUSH1 0x1F NOT DUP6 AND SWAP2 JUMPDEST DUP3 DUP2 LT ISZERO PUSH2 0x5ABF JUMPI DUP8 DUP6 ADD MLOAD DUP3 SSTORE PUSH1 0x20 SWAP5 DUP6 ADD SWAP5 PUSH1 0x1 SWAP1 SWAP3 ADD SWAP2 ADD PUSH2 0x5A9F JUMP JUMPDEST POP DUP5 DUP3 LT ISZERO PUSH2 0x5ADC JUMPI DUP7 DUP5 ADD MLOAD PUSH0 NOT PUSH1 0x3 DUP8 SWAP1 SHL PUSH1 0xF8 AND SHR NOT AND DUP2 SSTORE JUMPDEST POP POP POP POP PUSH1 0x1 SWAP1 DUP2 SHL ADD SWAP1 SSTORE POP JUMP JUMPDEST PUSH1 0xF0 SWAP4 SWAP1 SWAP4 SHL PUSH1 0x1 PUSH1 0x1 PUSH1 0xF0 SHL SUB NOT AND DUP4 MSTORE PUSH1 0xF8 SWAP2 DUP3 SHL PUSH1 0x1 PUSH1 0x1 PUSH1 0xF8 SHL SUB NOT AND PUSH1 0x2 DUP5 ADD MSTORE ISZERO ISZERO SWAP1 SHL PUSH1 0x3 DUP3 ADD MSTORE PUSH1 0x4 ADD SWAP1 JUMP JUMPDEST PUSH0 PUSH1 0xFF DUP3 AND DUP1 PUSH2 0x5B32 JUMPI PUSH2 0x5B32 PUSH2 0x55A2 JUMP JUMPDEST PUSH0 NOT ADD SWAP3 SWAP2 POP POP JUMP JUMPDEST PUSH1 0xFF DUP3 DUP2 AND DUP3 DUP3 AND SUB SWAP1 DUP2 GT ISZERO PUSH2 0x4F0B JUMPI PUSH2 0x4F0B PUSH2 0x55A2 JUMP JUMPDEST PUSH1 0xFF DUP2 DUP2 AND DUP4 DUP3 AND ADD SWAP1 DUP2 GT ISZERO PUSH2 0x4F0B JUMPI PUSH2 0x4F0B PUSH2 0x55A2 JUMP JUMPDEST PUSH0 PUSH1 0xFF DUP4 AND DUP1 PUSH2 0x5B8B JUMPI PUSH4 0x4E487B71 PUSH1 0xE0 SHL PUSH0 MSTORE PUSH1 0x12 PUSH1 0x4 MSTORE PUSH1 0x24 PUSH0 REVERT JUMPDEST DUP1 PUSH1 0xFF DUP5 AND DIV SWAP2 POP POP SWAP3 SWAP2 POP POP JUMP JUMPDEST PUSH0 PUSH1 0x20 DUP3 DUP5 SUB SLT ISZERO PUSH2 0x5BAA JUMPI PUSH0 DUP1 REVERT JUMPDEST PUSH2 0x544F DUP3 PUSH2 0x5356 JUMP JUMPDEST PUSH0 PUSH1 0x20 DUP3 DUP5 SUB SLT ISZERO PUSH2 0x5BC3 JUMPI PUSH0 DUP1 REVERT JUMPDEST PUSH2 0x544F DUP3 PUSH2 0x536C JUMP JUMPDEST PUSH0 PUSH1 0x20 DUP3 DUP5 SUB SLT ISZERO PUSH2 0x5BDC JUMPI PUSH0 DUP1 REVERT JUMPDEST PUSH2 0x544F DUP3 PUSH2 0x537C JUMP JUMPDEST PUSH2 0xFFFF DUP2 DUP2 AND DUP4 DUP3 AND ADD SWAP1 DUP2 GT ISZERO PUSH2 0x4F0B JUMPI PUSH2 0x4F0B PUSH2 0x55A2 JUMP JUMPDEST PUSH0 DUP2 DUP4 SLOAD DUP4 SWAP2 POP DUP5 PUSH0 MSTORE PUSH1 0x20 PUSH0 KECCAK256 PUSH0 JUMPDEST DUP3 DUP2 LT ISZERO PUSH2 0x5C36 JUMPI DUP2 SLOAD PUSH1 0x1 PUSH1 0x1 PUSH1 0xA0 SHL SUB AND DUP5 MSTORE PUSH1 0x20 SWAP1 SWAP4 ADD SWAP3 PUSH1 0x1 SWAP2 DUP3 ADD SWAP2 ADD PUSH2 0x5C0F JUMP JUMPDEST POP SWAP2 SWAP6 SWAP5 POP POP POP POP POP JUMP INVALID LOG2 PUSH5 0x6970667358 0x22 SLT KECCAK256 0x25 0xAC DUP7 MSTORE8 0xBC CODESIZE DUP1 NUMBER 0xD6 0xC9 0xA7 SWAP10 PUSH23 0x94D2C8B8FD5A6C3F4D112C854AEDC64698698F64736F6C PUSH4 0x4300081A STOP CALLER "
		},
		"gasEstimates": {
			"creation": {
				"codeDepositCost": "4734200",
				"executionCost": "infinite",
				"totalCost": "infinite"
			},
			"external": {
				"CAMPAIGN_DURATION()": "329",
				"GOV_LENGTH()": "307",
				"LEAD_PERIOD()": "306",
				"LeaderAddress()": "2415",
				"LeaderId()": "2428",
				"LenderTxns(address,uint256)": "6980",
				"MAX_APPROVALS()": "327",
				"MIN_DRAFTS()": "315",
				"MIN_VOTERS()": "270",
				"N_MEMBERS()": "314",
				"RANDOM_VOTERS()": "271",
				"REG_FEE()": "285",
				"REQUIRED_REG()": "328",
				"REQUIRED_SCORE()": "306",
				"RegistrationEnd()": "2404",
				"SUBMISSION_FEE()": "283",
				"SUPER_MAJORITY()": "293",
				"addVoter(address[10],(uint16,uint8,bool)[10])": "infinite",
				"addedVoterCount()": "2398",
				"approveRegistrar(address,int8)": "80565",
				"candidateInfo(address)": "infinite",
				"candidateList(uint256)": "4702",
				"changeLeader()": "87223",
				"constitutionDrafts(uint256)": "infinite",
				"currentRate()": "2426",
				"electionEnd()": "2406",
				"getBalance()": "infinite",
				"getCandidateInfo(uint256)": "infinite",
				"getCurrentPhase()": "infinite",
				"getElectionResults()": "infinite",
				"getReferendumResults()": "infinite",
				"getVoterStatus(uint16,uint8,bool)": "infinite",
				"interestPeriods(uint256)": "6838",
				"lend()": "70279",
				"memberRank(address)": "2636",
				"memberVoted(address,uint256)": "2705",
				"membersElected()": "2422",
				"neutral()": "2405",
				"noRates()": "2402",
				"proposals(uint256)": "infinite",
				"proposeProposal(string,(uint256,address,string)[])": "infinite",
				"proposeRate(uint256)": "infinite",
				"ratifiedConstitutionId()": "2382",
				"referendumEnd()": "2406",
				"referendumVoterCount()": "2445",
				"registerAsCandidate(string,string,string)": "infinite",
				"registerVoterBatch(address[10],bytes32[10])": "infinite",
				"sortedRates(uint256)": "4697",
				"startReferendum()": "infinite",
				"startTime()": "infinite",
				"submitDraft((string,string,string,string[],bytes32,string,uint256,uint256))": "infinite",
				"voteCandidates(uint256[])": "infinite",
				"voteForProposal(uint256)": "infinite",
				"voteInReferendum(uint256[])": "infinite",
				"withdrawProposal(uint256)": "60709"
			}
		},
		"methodIdentifiers": {
			"CAMPAIGN_DURATION()": "08fd4cfa",
			"GOV_LENGTH()": "5004e24a",
			"LEAD_PERIOD()": "49066e79",
			"LeaderAddress()": "b3913777",
			"LeaderId()": "bb2c88a0",
			"LenderTxns(address,uint256)": "53fdc838",
			"MAX_APPROVALS()": "beb54795",
			"MIN_DRAFTS()": "86a0dd7d",
			"MIN_VOTERS()": "d1791ae0",
			"N_MEMBERS()": "e292bf16",
			"RANDOM_VOTERS()": "3def77b7",
			"REG_FEE()": "4ebeb109",
			"REQUIRED_REG()": "491de471",
			"REQUIRED_SCORE()": "54c17527",
			"RegistrationEnd()": "be07f0f8",
			"SUBMISSION_FEE()": "7d48536d",
			"SUPER_MAJORITY()": "b85c2292",
			"addVoter(address[10],(uint16,uint8,bool)[10])": "ea84f8c4",
			"addedVoterCount()": "1b408934",
			"approveRegistrar(address,int8)": "29c83be1",
			"candidateInfo(address)": "e965b7c9",
			"candidateList(uint256)": "b13c744b",
			"changeLeader()": "a5f5b1bf",
			"constitutionDrafts(uint256)": "bbea6f0b",
			"currentRate()": "f9f8bdb7",
			"electionEnd()": "ce7ea161",
			"getBalance()": "12065fe0",
			"getCandidateInfo(uint256)": "70f67cfe",
			"getCurrentPhase()": "a3a40ea5",
			"getElectionResults()": "eccf1f10",
			"getReferendumResults()": "452d32bb",
			"getVoterStatus(uint16,uint8,bool)": "bb3aa2d3",
			"interestPeriods(uint256)": "f33e9573",
			"lend()": "97dffc61",
			"memberRank(address)": "eab536fc",
			"memberVoted(address,uint256)": "bbb8279d",
			"membersElected()": "089e35b8",
			"neutral()": "4d0c8726",
			"noRates()": "c8d7b9f1",
			"proposals(uint256)": "013cf08b",
			"proposeProposal(string,(uint256,address,string)[])": "3b497b28",
			"proposeRate(uint256)": "bdc8e7b3",
			"ratifiedConstitutionId()": "eedb2d28",
			"referendumEnd()": "bab752e5",
			"referendumVoterCount()": "e42a54c4",
			"registerAsCandidate(string,string,string)": "079ddd11",
			"registerVoterBatch(address[10],bytes32[10])": "5204743a",
			"sortedRates(uint256)": "9dc99455",
			"startReferendum()": "be003ee6",
			"startTime()": "78e97925",
			"submitDraft((string,string,string,string[],bytes32,string,uint256,uint256))": "b13d8f15",
			"voteCandidates(uint256[])": "a6a5ad12",
			"voteForProposal(uint256)": "045c6ce0",
			"voteInReferendum(uint256[])": "c1b13157",
			"withdrawProposal(uint256)": "e1f02ffa"
		}
	},
	"abi": [
		{
			"inputs": [
				{
					"internalType": "address",
					"name": "neutralEntity",
					"type": "address"
				},
				{
					"internalType": "string",
					"name": "interimConstitution",
					"type": "string"
				}
			],
			"stateMutability": "nonpayable",
			"type": "constructor"
		},
		{
			"anonymous": false,
			"inputs": [
				{
					"indexed": true,
					"internalType": "address",
					"name": "candidate",
					"type": "address"
				},
				{
					"indexed": false,
					"internalType": "string",
					"name": "fullName",
					"type": "string"
				},
				{
					"indexed": false,
					"internalType": "string",
					"name": "bio",
					"type": "string"
				},
				{
					"indexed": false,
					"internalType": "string",
					"name": "website",
					"type": "string"
				}
			],
			"name": "CandidateRegistered",
			"type": "event"
		},
		{
			"anonymous": false,
			"inputs": [
				{
					"indexed": true,
					"internalType": "uint256",
					"name": "draftId",
					"type": "uint256"
				},
				{
					"components": [
						{
							"internalType": "string",
							"name": "description",
							"type": "string"
						},
						{
							"internalType": "string",
							"name": "constitutionText",
							"type": "string"
						},
						{
							"internalType": "string",
							"name": "implementationCode",
							"type": "string"
						},
						{
							"internalType": "string[]",
							"name": "submitterIdentities",
							"type": "string[]"
						},
						{
							"internalType": "bytes32",
							"name": "hashedOffChain",
							"type": "bytes32"
						},
						{
							"internalType": "string",
							"name": "supportingMaterials",
							"type": "string"
						},
						{
							"internalType": "uint256",
							"name": "submittedAt",
							"type": "uint256"
						},
						{
							"internalType": "uint256",
							"name": "voteCount",
							"type": "uint256"
						}
					],
					"indexed": false,
					"internalType": "struct Referendum.ConstitutionDraft",
					"name": "draft",
					"type": "tuple"
				}
			],
			"name": "ConstitutionDraftSubmitted",
			"type": "event"
		},
		{
			"anonymous": false,
			"inputs": [
				{
					"indexed": true,
					"internalType": "uint256",
					"name": "winningProposalId",
					"type": "uint256"
				},
				{
					"components": [
						{
							"internalType": "string",
							"name": "description",
							"type": "string"
						},
						{
							"internalType": "string",
							"name": "constitutionText",
							"type": "string"
						},
						{
							"internalType": "string",
							"name": "implementationCode",
							"type": "string"
						},
						{
							"internalType": "string[]",
							"name": "submitterIdentities",
							"type": "string[]"
						},
						{
							"internalType": "bytes32",
							"name": "hashedOffChain",
							"type": "bytes32"
						},
						{
							"internalType": "string",
							"name": "supportingMaterials",
							"type": "string"
						},
						{
							"internalType": "uint256",
							"name": "submittedAt",
							"type": "uint256"
						},
						{
							"internalType": "uint256",
							"name": "voteCount",
							"type": "uint256"
						}
					],
					"indexed": false,
					"internalType": "struct Referendum.ConstitutionDraft",
					"name": "ratifiedConstitution",
					"type": "tuple"
				}
			],
			"name": "ConstitutionRatified",
			"type": "event"
		},
		{
			"anonymous": false,
			"inputs": [
				{
					"indexed": true,
					"internalType": "address[]",
					"name": "candidateList",
					"type": "address[]"
				},
				{
					"indexed": false,
					"internalType": "address",
					"name": "firstLeader",
					"type": "address"
				}
			],
			"name": "ElectionResults",
			"type": "event"
		},
		{
			"anonymous": false,
			"inputs": [
				{
					"indexed": false,
					"internalType": "uint256",
					"name": "newMedianRate",
					"type": "uint256"
				}
			],
			"name": "InterestRateUpdated",
			"type": "event"
		},
		{
			"anonymous": false,
			"inputs": [
				{
					"indexed": true,
					"internalType": "address",
					"name": "newLeader",
					"type": "address"
				}
			],
			"name": "LeadershipChanged",
			"type": "event"
		},
		{
			"anonymous": false,
			"inputs": [
				{
					"indexed": true,
					"internalType": "address",
					"name": "lender",
					"type": "address"
				},
				{
					"indexed": false,
					"internalType": "int256",
					"name": "amount",
					"type": "int256"
				}
			],
			"name": "LoanReceived",
			"type": "event"
		},
		{
			"anonymous": false,
			"inputs": [
				{
					"indexed": true,
					"internalType": "address",
					"name": "member",
					"type": "address"
				},
				{
					"indexed": false,
					"internalType": "uint256",
					"name": "oldRate",
					"type": "uint256"
				},
				{
					"indexed": false,
					"internalType": "uint8",
					"name": "oldRank",
					"type": "uint8"
				},
				{
					"indexed": false,
					"internalType": "uint256",
					"name": "newRate",
					"type": "uint256"
				},
				{
					"indexed": false,
					"internalType": "uint8",
					"name": "newRank",
					"type": "uint8"
				}
			],
			"name": "MemberRateChanged",
			"type": "event"
		},
		{
			"anonymous": false,
			"inputs": [
				{
					"indexed": true,
					"internalType": "uint256",
					"name": "proposalId",
					"type": "uint256"
				}
			],
			"name": "ProposalPassed",
			"type": "event"
		},
		{
			"anonymous": false,
			"inputs": [
				{
					"indexed": true,
					"internalType": "uint256",
					"name": "proposalId",
					"type": "uint256"
				},
				{
					"indexed": true,
					"internalType": "address",
					"name": "proposer",
					"type": "address"
				},
				{
					"indexed": false,
					"internalType": "string",
					"name": "provisions",
					"type": "string"
				}
			],
			"name": "ProposalProposed",
			"type": "event"
		},
		{
			"anonymous": false,
			"inputs": [
				{
					"indexed": true,
					"internalType": "uint256",
					"name": "proposalId",
					"type": "uint256"
				},
				{
					"indexed": true,
					"internalType": "address",
					"name": "voter",
					"type": "address"
				}
			],
			"name": "ProposalVoted",
			"type": "event"
		},
		{
			"anonymous": false,
			"inputs": [
				{
					"indexed": true,
					"internalType": "uint256",
					"name": "proposalId",
					"type": "uint256"
				}
			],
			"name": "ProposalWithdrawn",
			"type": "event"
		},
		{
			"anonymous": false,
			"inputs": [],
			"name": "ReferendumStarted",
			"type": "event"
		},
		{
			"anonymous": false,
			"inputs": [
				{
					"indexed": true,
					"internalType": "address",
					"name": "voter",
					"type": "address"
				}
			],
			"name": "ReferendumVoteCast",
			"type": "event"
		},
		{
			"anonymous": false,
			"inputs": [
				{
					"indexed": true,
					"internalType": "address",
					"name": "voter",
					"type": "address"
				}
			],
			"name": "VoteCast",
			"type": "event"
		},
		{
			"anonymous": false,
			"inputs": [
				{
					"indexed": true,
					"internalType": "address[10]",
					"name": "voter",
					"type": "address[10]"
				},
				{
					"indexed": false,
					"internalType": "uint256",
					"name": "addedVoterCount",
					"type": "uint256"
				}
			],
			"name": "VoterAdded",
			"type": "event"
		},
		{
			"anonymous": false,
			"inputs": [
				{
					"indexed": true,
					"internalType": "address[10]",
					"name": "voter",
					"type": "address[10]"
				},
				{
					"indexed": false,
					"internalType": "address",
					"name": "registrar",
					"type": "address"
				},
				{
					"indexed": false,
					"internalType": "uint256",
					"name": "referendumVoterCount",
					"type": "uint256"
				}
			],
			"name": "VoterRegistered",
			"type": "event"
		},
		{
			"inputs": [],
			"name": "CAMPAIGN_DURATION",
			"outputs": [
				{
					"internalType": "uint256",
					"name": "",
					"type": "uint256"
				}
			],
			"stateMutability": "view",
			"type": "function"
		},
		{
			"inputs": [],
			"name": "GOV_LENGTH",
			"outputs": [
				{
					"internalType": "uint256",
					"name": "",
					"type": "uint256"
				}
			],
			"stateMutability": "view",
			"type": "function"
		},
		{
			"inputs": [],
			"name": "LEAD_PERIOD",
			"outputs": [
				{
					"internalType": "uint256",
					"name": "",
					"type": "uint256"
				}
			],
			"stateMutability": "view",
			"type": "function"
		},
		{
			"inputs": [],
			"name": "LeaderAddress",
			"outputs": [
				{
					"internalType": "address",
					"name": "",
					"type": "address"
				}
			],
			"stateMutability": "view",
			"type": "function"
		},
		{
			"inputs": [],
			"name": "LeaderId",
			"outputs": [
				{
					"internalType": "uint256",
					"name": "",
					"type": "uint256"
				}
			],
			"stateMutability": "view",
			"type": "function"
		},
		{
			"inputs": [
				{
					"internalType": "address",
					"name": "",
					"type": "address"
				},
				{
					"internalType": "uint256",
					"name": "",
					"type": "uint256"
				}
			],
			"name": "LenderTxns",
			"outputs": [
				{
					"internalType": "int256",
					"name": "amount",
					"type": "int256"
				},
				{
					"internalType": "uint256",
					"name": "txnTime",
					"type": "uint256"
				}
			],
			"stateMutability": "view",
			"type": "function"
		},
		{
			"inputs": [],
			"name": "MAX_APPROVALS",
			"outputs": [
				{
					"internalType": "uint256",
					"name": "",
					"type": "uint256"
				}
			],
			"stateMutability": "view",
			"type": "function"
		},
		{
			"inputs": [],
			"name": "MIN_DRAFTS",
			"outputs": [
				{
					"internalType": "uint8",
					"name": "",
					"type": "uint8"
				}
			],
			"stateMutability": "view",
			"type": "function"
		},
		{
			"inputs": [],
			"name": "MIN_VOTERS",
			"outputs": [
				{
					"internalType": "uint32",
					"name": "",
					"type": "uint32"
				}
			],
			"stateMutability": "view",
			"type": "function"
		},
		{
			"inputs": [],
			"name": "N_MEMBERS",
			"outputs": [
				{
					"internalType": "uint8",
					"name": "",
					"type": "uint8"
				}
			],
			"stateMutability": "view",
			"type": "function"
		},
		{
			"inputs": [],
			"name": "RANDOM_VOTERS",
			"outputs": [
				{
					"internalType": "uint32",
					"name": "",
					"type": "uint32"
				}
			],
			"stateMutability": "view",
			"type": "function"
		},
		{
			"inputs": [],
			"name": "REG_FEE",
			"outputs": [
				{
					"internalType": "uint256",
					"name": "",
					"type": "uint256"
				}
			],
			"stateMutability": "view",
			"type": "function"
		},
		{
			"inputs": [],
			"name": "REQUIRED_REG",
			"outputs": [
				{
					"internalType": "uint256",
					"name": "",
					"type": "uint256"
				}
			],
			"stateMutability": "view",
			"type": "function"
		},
		{
			"inputs": [],
			"name": "REQUIRED_SCORE",
			"outputs": [
				{
					"internalType": "int256",
					"name": "",
					"type": "int256"
				}
			],
			"stateMutability": "view",
			"type": "function"
		},
		{
			"inputs": [],
			"name": "RegistrationEnd",
			"outputs": [
				{
					"internalType": "uint256",
					"name": "",
					"type": "uint256"
				}
			],
			"stateMutability": "view",
			"type": "function"
		},
		{
			"inputs": [],
			"name": "SUBMISSION_FEE",
			"outputs": [
				{
					"internalType": "uint256",
					"name": "",
					"type": "uint256"
				}
			],
			"stateMutability": "view",
			"type": "function"
		},
		{
			"inputs": [],
			"name": "SUPER_MAJORITY",
			"outputs": [
				{
					"internalType": "uint8",
					"name": "",
					"type": "uint8"
				}
			],
			"stateMutability": "view",
			"type": "function"
		},
		{
			"inputs": [
				{
					"internalType": "address[10]",
					"name": "voterAddresses",
					"type": "address[10]"
				},
				{
					"components": [
						{
							"internalType": "uint16",
							"name": "birthYear",
							"type": "uint16"
						},
						{
							"internalType": "uint8",
							"name": "birthMonth",
							"type": "uint8"
						},
						{
							"internalType": "bool",
							"name": "gender",
							"type": "bool"
						}
					],
					"internalType": "struct Formation.Demographic[10]",
					"name": "voterDemos",
					"type": "tuple[10]"
				}
			],
			"name": "addVoter",
			"outputs": [],
			"stateMutability": "nonpayable",
			"type": "function"
		},
		{
			"inputs": [],
			"name": "addedVoterCount",
			"outputs": [
				{
					"internalType": "uint16",
					"name": "",
					"type": "uint16"
				}
			],
			"stateMutability": "view",
			"type": "function"
		},
		{
			"inputs": [
				{
					"internalType": "address",
					"name": "registrar",
					"type": "address"
				},
				{
					"internalType": "int8",
					"name": "vote",
					"type": "int8"
				}
			],
			"name": "approveRegistrar",
			"outputs": [],
			"stateMutability": "nonpayable",
			"type": "function"
		},
		{
			"inputs": [
				{
					"internalType": "address",
					"name": "",
					"type": "address"
				}
			],
			"name": "candidateInfo",
			"outputs": [
				{
					"internalType": "string",
					"name": "fullName",
					"type": "string"
				},
				{
					"internalType": "string",
					"name": "bio",
					"type": "string"
				},
				{
					"internalType": "string",
					"name": "website",
					"type": "string"
				},
				{
					"internalType": "uint256",
					"name": "registeredAt",
					"type": "uint256"
				},
				{
					"internalType": "uint16",
					"name": "voteCount",
					"type": "uint16"
				},
				{
					"internalType": "uint8",
					"name": "memberID",
					"type": "uint8"
				},
				{
					"internalType": "uint256",
					"name": "leaderAt",
					"type": "uint256"
				},
				{
					"internalType": "uint16",
					"name": "activeProposal",
					"type": "uint16"
				},
				{
					"internalType": "uint16",
					"name": "submittedDraft",
					"type": "uint16"
				}
			],
			"stateMutability": "view",
			"type": "function"
		},
		{
			"inputs": [
				{
					"internalType": "uint256",
					"name": "",
					"type": "uint256"
				}
			],
			"name": "candidateList",
			"outputs": [
				{
					"internalType": "address",
					"name": "",
					"type": "address"
				}
			],
			"stateMutability": "view",
			"type": "function"
		},
		{
			"inputs": [],
			"name": "changeLeader",
			"outputs": [],
			"stateMutability": "nonpayable",
			"type": "function"
		},
		{
			"inputs": [
				{
					"internalType": "uint256",
					"name": "",
					"type": "uint256"
				}
			],
			"name": "constitutionDrafts",
			"outputs": [
				{
					"internalType": "string",
					"name": "description",
					"type": "string"
				},
				{
					"internalType": "string",
					"name": "constitutionText",
					"type": "string"
				},
				{
					"internalType": "string",
					"name": "implementationCode",
					"type": "string"
				},
				{
					"internalType": "bytes32",
					"name": "hashedOffChain",
					"type": "bytes32"
				},
				{
					"internalType": "string",
					"name": "supportingMaterials",
					"type": "string"
				},
				{
					"internalType": "uint256",
					"name": "submittedAt",
					"type": "uint256"
				},
				{
					"internalType": "uint256",
					"name": "voteCount",
					"type": "uint256"
				}
			],
			"stateMutability": "view",
			"type": "function"
		},
		{
			"inputs": [],
			"name": "currentRate",
			"outputs": [
				{
					"internalType": "uint256",
					"name": "",
					"type": "uint256"
				}
			],
			"stateMutability": "view",
			"type": "function"
		},
		{
			"inputs": [],
			"name": "electionEnd",
			"outputs": [
				{
					"internalType": "uint256",
					"name": "",
					"type": "uint256"
				}
			],
			"stateMutability": "view",
			"type": "function"
		},
		{
			"inputs": [],
			"name": "getBalance",
			"outputs": [
				{
					"internalType": "int256",
					"name": "_sum",
					"type": "int256"
				}
			],
			"stateMutability": "view",
			"type": "function"
		},
		{
			"inputs": [
				{
					"internalType": "uint256",
					"name": "candidateID",
					"type": "uint256"
				}
			],
			"name": "getCandidateInfo",
			"outputs": [
				{
					"components": [
						{
							"internalType": "string",
							"name": "fullName",
							"type": "string"
						},
						{
							"internalType": "string",
							"name": "bio",
							"type": "string"
						},
						{
							"internalType": "string",
							"name": "website",
							"type": "string"
						},
						{
							"internalType": "uint256",
							"name": "registeredAt",
							"type": "uint256"
						},
						{
							"internalType": "uint16",
							"name": "voteCount",
							"type": "uint16"
						},
						{
							"internalType": "uint8",
							"name": "memberID",
							"type": "uint8"
						},
						{
							"internalType": "uint256",
							"name": "leaderAt",
							"type": "uint256"
						},
						{
							"internalType": "uint16",
							"name": "activeProposal",
							"type": "uint16"
						},
						{
							"internalType": "uint16",
							"name": "submittedDraft",
							"type": "uint16"
						}
					],
					"internalType": "struct Candidate",
					"name": "",
					"type": "tuple"
				}
			],
			"stateMutability": "view",
			"type": "function"
		},
		{
			"inputs": [],
			"name": "getCurrentPhase",
			"outputs": [
				{
					"internalType": "enum Phase",
					"name": "",
					"type": "uint8"
				}
			],
			"stateMutability": "nonpayable",
			"type": "function"
		},
		{
			"inputs": [],
			"name": "getElectionResults",
			"outputs": [
				{
					"internalType": "address[]",
					"name": "",
					"type": "address[]"
				}
			],
			"stateMutability": "nonpayable",
			"type": "function"
		},
		{
			"inputs": [],
			"name": "getReferendumResults",
			"outputs": [
				{
					"internalType": "uint256",
					"name": "",
					"type": "uint256"
				},
				{
					"components": [
						{
							"internalType": "string",
							"name": "description",
							"type": "string"
						},
						{
							"internalType": "string",
							"name": "constitutionText",
							"type": "string"
						},
						{
							"internalType": "string",
							"name": "implementationCode",
							"type": "string"
						},
						{
							"internalType": "string[]",
							"name": "submitterIdentities",
							"type": "string[]"
						},
						{
							"internalType": "bytes32",
							"name": "hashedOffChain",
							"type": "bytes32"
						},
						{
							"internalType": "string",
							"name": "supportingMaterials",
							"type": "string"
						},
						{
							"internalType": "uint256",
							"name": "submittedAt",
							"type": "uint256"
						},
						{
							"internalType": "uint256",
							"name": "voteCount",
							"type": "uint256"
						}
					],
					"internalType": "struct Referendum.ConstitutionDraft",
					"name": "",
					"type": "tuple"
				}
			],
			"stateMutability": "nonpayable",
			"type": "function"
		},
		{
			"inputs": [
				{
					"internalType": "uint16",
					"name": "birthYear",
					"type": "uint16"
				},
				{
					"internalType": "uint8",
					"name": "birthMonth",
					"type": "uint8"
				},
				{
					"internalType": "bool",
					"name": "gender",
					"type": "bool"
				}
			],
			"name": "getVoterStatus",
			"outputs": [
				{
					"internalType": "bool",
					"name": "",
					"type": "bool"
				}
			],
			"stateMutability": "view",
			"type": "function"
		},
		{
			"inputs": [
				{
					"internalType": "uint256",
					"name": "",
					"type": "uint256"
				}
			],
			"name": "interestPeriods",
			"outputs": [
				{
					"internalType": "uint256",
					"name": "rate",
					"type": "uint256"
				},
				{
					"internalType": "uint256",
					"name": "startedAt",
					"type": "uint256"
				}
			],
			"stateMutability": "view",
			"type": "function"
		},
		{
			"inputs": [],
			"name": "lend",
			"outputs": [],
			"stateMutability": "payable",
			"type": "function"
		},
		{
			"inputs": [
				{
					"internalType": "address",
					"name": "",
					"type": "address"
				}
			],
			"name": "memberRank",
			"outputs": [
				{
					"internalType": "uint8",
					"name": "",
					"type": "uint8"
				}
			],
			"stateMutability": "view",
			"type": "function"
		},
		{
			"inputs": [
				{
					"internalType": "address",
					"name": "",
					"type": "address"
				},
				{
					"internalType": "uint256",
					"name": "",
					"type": "uint256"
				}
			],
			"name": "memberVoted",
			"outputs": [
				{
					"internalType": "bool",
					"name": "",
					"type": "bool"
				}
			],
			"stateMutability": "view",
			"type": "function"
		},
		{
			"inputs": [],
			"name": "membersElected",
			"outputs": [
				{
					"internalType": "bool",
					"name": "",
					"type": "bool"
				}
			],
			"stateMutability": "view",
			"type": "function"
		},
		{
			"inputs": [],
			"name": "neutral",
			"outputs": [
				{
					"internalType": "address",
					"name": "",
					"type": "address"
				}
			],
			"stateMutability": "view",
			"type": "function"
		},
		{
			"inputs": [],
			"name": "noRates",
			"outputs": [
				{
					"internalType": "uint8",
					"name": "",
					"type": "uint8"
				}
			],
			"stateMutability": "view",
			"type": "function"
		},
		{
			"inputs": [
				{
					"internalType": "uint256",
					"name": "",
					"type": "uint256"
				}
			],
			"name": "proposals",
			"outputs": [
				{
					"internalType": "address",
					"name": "proposer",
					"type": "address"
				},
				{
					"internalType": "string",
					"name": "provisions",
					"type": "string"
				},
				{
					"internalType": "uint256",
					"name": "executedAt",
					"type": "uint256"
				},
				{
					"internalType": "bool",
					"name": "withdrawn",
					"type": "bool"
				},
				{
					"internalType": "uint8",
					"name": "yesVotes",
					"type": "uint8"
				}
			],
			"stateMutability": "view",
			"type": "function"
		},
		{
			"inputs": [
				{
					"internalType": "string",
					"name": "_provisions",
					"type": "string"
				},
				{
					"components": [
						{
							"internalType": "uint256",
							"name": "amount",
							"type": "uint256"
						},
						{
							"internalType": "address",
							"name": "recipient",
							"type": "address"
						},
						{
							"internalType": "string",
							"name": "reason",
							"type": "string"
						}
					],
					"internalType": "struct Payment[]",
					"name": "_payments",
					"type": "tuple[]"
				}
			],
			"name": "proposeProposal",
			"outputs": [
				{
					"internalType": "uint256",
					"name": "",
					"type": "uint256"
				}
			],
			"stateMutability": "nonpayable",
			"type": "function"
		},
		{
			"inputs": [
				{
					"internalType": "uint256",
					"name": "newRate",
					"type": "uint256"
				}
			],
			"name": "proposeRate",
			"outputs": [
				{
					"internalType": "uint8",
					"name": "newRank",
					"type": "uint8"
				}
			],
			"stateMutability": "nonpayable",
			"type": "function"
		},
		{
			"inputs": [],
			"name": "ratifiedConstitutionId",
			"outputs": [
				{
					"internalType": "uint256",
					"name": "",
					"type": "uint256"
				}
			],
			"stateMutability": "view",
			"type": "function"
		},
		{
			"inputs": [],
			"name": "referendumEnd",
			"outputs": [
				{
					"internalType": "uint256",
					"name": "",
					"type": "uint256"
				}
			],
			"stateMutability": "view",
			"type": "function"
		},
		{
			"inputs": [],
			"name": "referendumVoterCount",
			"outputs": [
				{
					"internalType": "uint32",
					"name": "",
					"type": "uint32"
				}
			],
			"stateMutability": "view",
			"type": "function"
		},
		{
			"inputs": [
				{
					"internalType": "string",
					"name": "_fullName",
					"type": "string"
				},
				{
					"internalType": "string",
					"name": "_bio",
					"type": "string"
				},
				{
					"internalType": "string",
					"name": "_website",
					"type": "string"
				}
			],
			"name": "registerAsCandidate",
			"outputs": [],
			"stateMutability": "payable",
			"type": "function"
		},
		{
			"inputs": [
				{
					"internalType": "address[10]",
					"name": "voterAddresses",
					"type": "address[10]"
				},
				{
					"internalType": "bytes32[10]",
					"name": "voterHashes",
					"type": "bytes32[10]"
				}
			],
			"name": "registerVoterBatch",
			"outputs": [],
			"stateMutability": "nonpayable",
			"type": "function"
		},
		{
			"inputs": [
				{
					"internalType": "uint256",
					"name": "",
					"type": "uint256"
				}
			],
			"name": "sortedRates",
			"outputs": [
				{
					"internalType": "address",
					"name": "member",
					"type": "address"
				},
				{
					"internalType": "uint256",
					"name": "rate",
					"type": "uint256"
				}
			],
			"stateMutability": "view",
			"type": "function"
		},
		{
			"inputs": [],
			"name": "startReferendum",
			"outputs": [],
			"stateMutability": "nonpayable",
			"type": "function"
		},
		{
			"inputs": [],
			"name": "startTime",
			"outputs": [
				{
					"internalType": "uint256",
					"name": "",
					"type": "uint256"
				}
			],
			"stateMutability": "view",
			"type": "function"
		},
		{
			"inputs": [
				{
					"components": [
						{
							"internalType": "string",
							"name": "description",
							"type": "string"
						},
						{
							"internalType": "string",
							"name": "constitutionText",
							"type": "string"
						},
						{
							"internalType": "string",
							"name": "implementationCode",
							"type": "string"
						},
						{
							"internalType": "string[]",
							"name": "submitterIdentities",
							"type": "string[]"
						},
						{
							"internalType": "bytes32",
							"name": "hashedOffChain",
							"type": "bytes32"
						},
						{
							"internalType": "string",
							"name": "supportingMaterials",
							"type": "string"
						},
						{
							"internalType": "uint256",
							"name": "submittedAt",
							"type": "uint256"
						},
						{
							"internalType": "uint256",
							"name": "voteCount",
							"type": "uint256"
						}
					],
					"internalType": "struct Referendum.ConstitutionDraft",
					"name": "_draft",
					"type": "tuple"
				}
			],
			"name": "submitDraft",
			"outputs": [],
			"stateMutability": "payable",
			"type": "function"
		},
		{
			"inputs": [
				{
					"internalType": "uint256[]",
					"name": "_candidatesIds",
					"type": "uint256[]"
				}
			],
			"name": "voteCandidates",
			"outputs": [],
			"stateMutability": "nonpayable",
			"type": "function"
		},
		{
			"inputs": [
				{
					"internalType": "uint256",
					"name": "proposalId",
					"type": "uint256"
				}
			],
			"name": "voteForProposal",
			"outputs": [
				{
					"internalType": "uint8",
					"name": "",
					"type": "uint8"
				}
			],
			"stateMutability": "nonpayable",
			"type": "function"
		},
		{
			"inputs": [
				{
					"internalType": "uint256[]",
					"name": "_drafts",
					"type": "uint256[]"
				}
			],
			"name": "voteInReferendum",
			"outputs": [],
			"stateMutability": "nonpayable",
			"type": "function"
		},
		{
			"inputs": [
				{
					"internalType": "uint256",
					"name": "proposalId",
					"type": "uint256"
				}
			],
			"name": "withdrawProposal",
			"outputs": [],
			"stateMutability": "nonpayable",
			"type": "function"
		}
	]
}