{
	"data": {
		"bytecode": {
			"linkReferences": {},
			"object": "60a06040525f60395f6101000a81548160ff0219169083151502179055505f60ad5f6101000a81548160ff021916908360ff160217905550348015610042575f80fd5b5060405161a39c38038061a39c8339818101604052810190610064919061032d565b815f806101000a81548173ffffffffffffffffffffffffffffffffffffffff021916908373ffffffffffffffffffffffffffffffffffffffff16021790555042608081815250506001621275006080516100be91906103bd565b6100c891906103bd565b6001819055505f603b60018160018154018082558091505003905f5260205f209060070201905033815f015f6101000a81548173ffffffffffffffffffffffffffffffffffffffff021916908373ffffffffffffffffffffffffffffffffffffffff1602179055508181600101908161014191906105f4565b50608051816002018190555060805181600301819055505f81600401819055506032816005015f6101000a81548160ff021916908360ff1602179055505050506106c3565b5f604051905090565b5f80fd5b5f80fd5b5f73ffffffffffffffffffffffffffffffffffffffff82169050919050565b5f6101c082610197565b9050919050565b6101d0816101b6565b81146101da575f80fd5b50565b5f815190506101eb816101c7565b92915050565b5f80fd5b5f80fd5b5f601f19601f8301169050919050565b7f4e487b71000000000000000000000000000000000000000000000000000000005f52604160045260245ffd5b61023f826101f9565b810181811067ffffffffffffffff8211171561025e5761025d610209565b5b80604052505050565b5f610270610186565b905061027c8282610236565b919050565b5f67ffffffffffffffff82111561029b5761029a610209565b5b6102a4826101f9565b9050602081019050919050565b8281835e5f83830152505050565b5f6102d16102cc84610281565b610267565b9050828152602081018484840111156102ed576102ec6101f5565b5b6102f88482856102b1565b509392505050565b5f82601f830112610314576103136101f1565b5b81516103248482602086016102bf565b91505092915050565b5f80604083850312156103435761034261018f565b5b5f610350858286016101dd565b925050602083015167ffffffffffffffff81111561037157610370610193565b5b61037d85828601610300565b9150509250929050565b5f819050919050565b7f4e487b71000000000000000000000000000000000000000000000000000000005f52601160045260245ffd5b5f6103c782610387565b91506103d283610387565b92508282019050808211156103ea576103e9610390565b5b92915050565b5f81519050919050565b7f4e487b71000000000000000000000000000000000000000000000000000000005f52602260045260245ffd5b5f600282049050600182168061043e57607f821691505b602082108103610451576104506103fa565b5b50919050565b5f819050815f5260205f209050919050565b5f6020601f8301049050919050565b5f82821b905092915050565b5f600883026104b37fffffffffffffffffffffffffffffffffffffffffffffffffffffffffffffffff82610478565b6104bd8683610478565b95508019841693508086168417925050509392505050565b5f819050919050565b5f6104f86104f36104ee84610387565b6104d5565b610387565b9050919050565b5f819050919050565b610511836104de565b61052561051d826104ff565b848454610484565b825550505050565b5f90565b61053961052d565b610544818484610508565b505050565b5b818110156105675761055c5f82610531565b60018101905061054a565b5050565b601f8211156105ac5761057d81610457565b61058684610469565b81016020851015610595578190505b6105a96105a185610469565b830182610549565b50505b505050565b5f82821c905092915050565b5f6105cc5f19846008026105b1565b1980831691505092915050565b5f6105e483836105bd565b9150826002028217905092915050565b6105fd826103f0565b67ffffffffffffffff81111561061657610615610209565b5b6106208254610427565b61062b82828561056b565b5f60209050601f83116001811461065c575f841561064a578287015190505b61065485826105d9565b8655506106bb565b601f19841661066a86610457565b5f5b828110156106915784890151825560018201915060208501945060208101905061066c565b868310156106ae57848901516106aa601f8916826105bd565b8355505b6001600288020188555050505b505050505050565b608051619cc16106db5f395f61388f0152619cc15ff3fe6080604052600436106103cd575f3560e01c80637f4241e7116101fc578063beb5479511610117578063e42a54c4116100aa578063eedb2d2811610079578063eedb2d2814610ed8578063f10fb58414610f02578063f33e957314610f2c578063f3a4aba914610f69578063f9f8bdb714610fa5576103cd565b8063e42a54c414610e06578063e965b7c914610e30578063eab536fc14610e72578063eccf1f1014610eae576103cd565b8063d90d7cd8116100e6578063d90d7cd814610d3a578063d9688f0314610d76578063da35c66414610db2578063e292bf1614610ddc576103cd565b8063beb5479514610c94578063c1b1315714610cbe578063ce7ea16114610ce6578063d1791ae014610d10576103cd565b8063a5f5b1bf1161018f578063b5ba97951161015e578063b5ba979514610c02578063b85c229214610c2c578063bdc8e7b314610c56578063be003ee614610c7e576103cd565b8063a5f5b1bf14610b5e578063a6a5ad1214610b74578063b0feb26014610b9c578063b13c744b14610bc6576103cd565b806399b0d39c116101cb57806399b0d39c14610a935780639a74132714610abb5780639dc9945514610af7578063a3a40ea514610b34576103cd565b80637f4241e7146109e75780638e0ca5ad14610a235780638f3218df14610a5f57806397dffc6114610a89576103cd565b806349066e79116102ec5780635e8523a91161027f57806378e3ef201161024e57806378e3ef201461092d57806378e97925146109695780637d48536d146109935780637da4ce83146109bd576103cd565b80635e8523a91461085c5780635f02b56d146108985780636becc9f3146108b457806370f67cfe146108f1576103cd565b806354c17527116102bb57806354c17527146107a457806358e1cbee146107ce57806359297dbf146107f65780635bd03e9d14610820576103cd565b806349066e79146106ea5780634ebeb109146107145780635004e24a1461073e57806352f61b0514610768576103cd565b806328bdcde8116103645780633def77b7116103335780633def77b714610628578063428027ac14610652578063452d32bb1461069557806347f7b722146106c0576103cd565b806328bdcde81461055957806329c83be11461059a57806330814200146105c25780633590c0fd146105ec576103cd565b806316392372116103a0578063163923721461048f578063198ccd2c146104b95780632190bee8146104f557806326c2944914610531576103cd565b8063071a3474146103d1578063079ddd111461040d578063089e35b81461042957806308ec6a1914610453575b5f80fd5b3480156103dc575f80fd5b506103f760048036038101906103f2919061659d565b610fcf565b60405161040491906165f5565b60405180910390f35b6104276004803603810190610422919061674a565b610ff8565b005b348015610434575f80fd5b5061043d61143c565b60405161044a9190616808565b60405180910390f35b34801561045e575f80fd5b5061047960048036038101906104749190616854565b61144e565b6040516104869190616924565b60405180910390f35b34801561049a575f80fd5b506104a36114df565b6040516104b09190616955565b60405180910390f35b3480156104c4575f80fd5b506104df60048036038101906104da919061696e565b6114e5565b6040516104ec9190616955565b60405180910390f35b348015610500575f80fd5b5061051b600480360381019061051691906169c3565b6114fa565b6040516105289190616955565b60405180910390f35b34801561053c575f80fd5b5061055760048036038101906105529190616a47565b61151a565b005b348015610564575f80fd5b5061057f600480360381019061057a9190616a87565b611a33565b60405161059196959493929190616b3c565b60405180910390f35b3480156105a5575f80fd5b506105c060048036038101906105bb9190616bcc565b611b2b565b005b3480156105cd575f80fd5b506105d6611f05565b6040516105e39190616c0a565b60405180910390f35b3480156105f7575f80fd5b50610612600480360381019061060d919061696e565b611f0a565b60405161061f9190616955565b60405180910390f35b348015610633575f80fd5b5061063c611f1f565b6040516106499190616c41565b60405180910390f35b34801561065d575f80fd5b5061067860048036038101906106739190616a87565b611f25565b60405161068c989796959493929190616c69565b60405180910390f35b3480156106a0575f80fd5b506106a9612216565b6040516106b7929190616e37565b60405180910390f35b3480156106cb575f80fd5b506106d4612671565b6040516106e19190616955565b60405180910390f35b3480156106f5575f80fd5b506106fe612678565b60405161070b9190616955565b60405180910390f35b34801561071f575f80fd5b5061072861267f565b6040516107359190616955565b60405180910390f35b348015610749575f80fd5b5061075261268a565b60405161075f9190616955565b60405180910390f35b348015610773575f80fd5b5061078e60048036038101906107899190616a87565b612691565b60405161079b919061701c565b60405180910390f35b3480156107af575f80fd5b506107b861297a565b6040516107c59190617054565b60405180910390f35b3480156107d9575f80fd5b506107f460048036038101906107ef9190616a87565b61297f565b005b348015610801575f80fd5b5061080a612b81565b6040516108179190616955565b60405180910390f35b34801561082b575f80fd5b5061084660048036038101906108419190616a87565b612b88565b6040516108539190616c0a565b60405180910390f35b348015610867575f80fd5b50610882600480360381019061087d919061711b565b612f0d565b60405161088f9190616955565b60405180910390f35b6108b260048036038101906108ad91906172f4565b613226565b005b3480156108bf575f80fd5b506108da60048036038101906108d591906169c3565b61354d565b6040516108e892919061733b565b60405180910390f35b3480156108fc575f80fd5b5061091760048036038101906109129190616a87565b613587565b6040516109249190617418565b60405180910390f35b348015610938575f80fd5b50610953600480360381019061094e919061696e565b613847565b6040516109609190616955565b60405180910390f35b348015610974575f80fd5b5061097d61388d565b60405161098a9190616955565b60405180910390f35b34801561099e575f80fd5b506109a76138b1565b6040516109b49190616955565b60405180910390f35b3480156109c8575f80fd5b506109d16138bc565b6040516109de9190617438565b60405180910390f35b3480156109f2575f80fd5b50610a0d6004803603810190610a089190616854565b6138e2565b604051610a1a9190616808565b60405180910390f35b348015610a2e575f80fd5b50610a496004803603810190610a44919061696e565b613908565b604051610a569190616955565b60405180910390f35b348015610a6a575f80fd5b50610a736139da565b604051610a809190616c0a565b60405180910390f35b610a916139ec565b005b348015610a9e575f80fd5b50610ab96004803603810190610ab49190616a47565b613acd565b005b348015610ac6575f80fd5b50610ae16004803603810190610adc919061696e565b614124565b604051610aee9190617054565b60405180910390f35b348015610b02575f80fd5b50610b1d6004803603810190610b189190616a87565b614139565b604051610b2b929190617451565b60405180910390f35b348015610b3f575f80fd5b50610b4861417f565b604051610b5591906174eb565b60405180910390f35b348015610b69575f80fd5b50610b72614245565b005b348015610b7f575f80fd5b50610b9a6004803603810190610b959190617559565b614466565b005b348015610ba7575f80fd5b50610bb061480c565b604051610bbd9190616955565b60405180910390f35b348015610bd1575f80fd5b50610bec6004803603810190610be79190616a87565b614812565b604051610bf99190617438565b60405180910390f35b348015610c0d575f80fd5b50610c1661484d565b604051610c239190616c41565b60405180910390f35b348015610c37575f80fd5b50610c40614852565b604051610c4d9190616c0a565b60405180910390f35b348015610c61575f80fd5b50610c7c6004803603810190610c779190616a87565b614857565b005b348015610c89575f80fd5b50610c92614fef565b005b348015610c9f575f80fd5b50610ca8615176565b604051610cb59190616955565b60405180910390f35b348015610cc9575f80fd5b50610ce46004803603810190610cdf9190617559565b61517c565b005b348015610cf1575f80fd5b50610cfa6154a0565b604051610d079190616955565b60405180910390f35b348015610d1b575f80fd5b50610d246154a6565b604051610d319190616c41565b60405180910390f35b348015610d45575f80fd5b50610d606004803603810190610d5b919061696e565b6154ad565b604051610d6d9190616955565b60405180910390f35b348015610d81575f80fd5b50610d9c6004803603810190610d9791906175a4565b6154f3565b604051610da99190616955565b60405180910390f35b348015610dbd575f80fd5b50610dc661561c565b604051610dd39190616955565b60405180910390f35b348015610de7575f80fd5b50610df0615622565b604051610dfd9190616c0a565b60405180910390f35b348015610e11575f80fd5b50610e1a615627565b604051610e279190616c41565b60405180910390f35b348015610e3b575f80fd5b50610e566004803603810190610e51919061696e565b61563c565b604051610e6997969594939291906175e2565b60405180910390f35b348015610e7d575f80fd5b50610e986004803603810190610e93919061696e565b615818565b604051610ea59190616c0a565b60405180910390f35b348015610eb9575f80fd5b50610ec2615835565b604051610ecf91906176e3565b60405180910390f35b348015610ee3575f80fd5b50610eec615e9f565b604051610ef99190616955565b60405180910390f35b348015610f0d575f80fd5b50610f16615ea5565b604051610f239190617438565b60405180910390f35b348015610f37575f80fd5b50610f526004803603810190610f4d9190616a87565b615ec8565b604051610f609291906176fd565b60405180910390f35b348015610f74575f80fd5b50610f8f6004803603810190610f8a9190616a87565b615ef7565b604051610f9c9190617724565b60405180910390f35b348015610fb0575f80fd5b50610fb9616266565b604051610fc69190616955565b60405180910390f35b60ae602052815f5260405f20602052805f5260405f205f915091509054906101000a90045f0b81565b5f835111801561100a57506064835111155b611049576040517f08c379a00000000000000000000000000000000000000000000000000000000081526004016110409061778e565b60405180910390fd5b5f825111801561105c57506103e8825111155b61109b576040517f08c379a0000000000000000000000000000000000000000000000000000000008152600401611092906177f6565b60405180910390fd5b5f81511180156110ae57506107d0815111155b6110ed576040517f08c379a00000000000000000000000000000000000000000000000000000000081526004016110e49061785e565b60405180910390fd5b5f73ffffffffffffffffffffffffffffffffffffffff163373ffffffffffffffffffffffffffffffffffffffff160361115b576040517f08c379a0000000000000000000000000000000000000000000000000000000008152600401611152906178c6565b60405180910390fd5b66038d7ea4c680003410156111a5576040517f08c379a000000000000000000000000000000000000000000000000000000000815260040161119c9061792e565b60405180910390fd5b5f60048111156111b8576111b7617478565b5b6111c061417f565b60048111156111d2576111d1617478565b5b14611212576040517f08c379a0000000000000000000000000000000000000000000000000000000008152600401611209906179bc565b60405180910390fd5b5f60055f3373ffffffffffffffffffffffffffffffffffffffff1673ffffffffffffffffffffffffffffffffffffffff1681526020019081526020015f206003015414611294576040517f08c379a000000000000000000000000000000000000000000000000000000000815260040161128b90617a24565b60405180910390fd5b6040518060e001604052808481526020018381526020018281526020014281526020015f81526020015f151581526020015f81525060055f3373ffffffffffffffffffffffffffffffffffffffff1673ffffffffffffffffffffffffffffffffffffffff1681526020019081526020015f205f820151815f0190816113199190617c3c565b50602082015181600101908161132f9190617c3c565b5060408201518160020190816113459190617c3c565b50606082015181600301556080820151816004015560a0820151816005015f6101000a81548160ff02191690831515021790555060c08201518160060155905050600633908060018154018082558091505060019003905f5260205f20015f9091909190916101000a81548173ffffffffffffffffffffffffffffffffffffffff021916908373ffffffffffffffffffffffffffffffffffffffff1602179055503373ffffffffffffffffffffffffffffffffffffffff167ed6fea68f71a20d8149f227f87e8cf7e6ad320b2dad4b45465b14599b80ee0984848460405161142f93929190617d0b565b60405180910390a2505050565b60395f9054906101000a900460ff1681565b61145661641c565b60405f8381526020019081526020015f206002806020026040519081016040528092919082600280156114d3576020028201915b815f9054906101000a900473ffffffffffffffffffffffffffffffffffffffff1673ffffffffffffffffffffffffffffffffffffffff168152602001906001019080831161148a575b50505050509050919050565b603a5481565b603c602052805f5260405f205f915090505481565b603d602052815f5260405f20602052805f5260405f205f91509150505481565b5f8054906101000a900473ffffffffffffffffffffffffffffffffffffffff1673ffffffffffffffffffffffffffffffffffffffff163373ffffffffffffffffffffffffffffffffffffffff16146115a7576040517f08c379a000000000000000000000000000000000000000000000000000000000815260040161159e90617d9f565b60405180910390fd5b5f60048111156115ba576115b9617478565b5b6115c261417f565b60048111156115d4576115d3617478565b5b14611614576040517f08c379a000000000000000000000000000000000000000000000000000000000815260040161160b90617e07565b60405180910390fd5b6103e860026116239190617e52565b63ffffffff1660045f9054906101000a900463ffffffff1663ffffffff161115611682576040517f08c379a000000000000000000000000000000000000000000000000000000000815260040161167990617efe565b60405180910390fd5b600a63ffffffff16600a1480156116a05750600a63ffffffff16600a145b6116df576040517f08c379a00000000000000000000000000000000000000000000000000000000081526004016116d690617f66565b60405180910390fd5b5f5b600a63ffffffff168160ff1610156117c15760025f848360ff16600a811061170c5761170b617f84565b5b602002013581526020019081526020015f205f9054906101000a900460ff161561176b576040517f08c379a000000000000000000000000000000000000000000000000000000000815260040161176290617ffb565b60405180910390fd5b600160025f858460ff16600a811061178657611785617f84565b5b602002013581526020019081526020015f205f6101000a81548160ff02191690831515021790555080806117b990618019565b9150506116e1565b505f5b600a63ffffffff168160ff161015611991575f73ffffffffffffffffffffffffffffffffffffffff16828260ff16600a811061180357611802617f84565b5b602002016020810190611816919061696e565b73ffffffffffffffffffffffffffffffffffffffff160361186c576040517f08c379a00000000000000000000000000000000000000000000000000000000081526004016118639061808b565b60405180910390fd5b5f60035f848460ff16600a811061188657611885617f84565b5b602002016020810190611899919061696e565b73ffffffffffffffffffffffffffffffffffffffff1673ffffffffffffffffffffffffffffffffffffffff1681526020019081526020015f205414611913576040517f08c379a000000000000000000000000000000000000000000000000000000000815260040161190a90618119565b60405180910390fd5b600160035f848460ff16600a811061192e5761192d617f84565b5b602002016020810190611941919061696e565b73ffffffffffffffffffffffffffffffffffffffff1673ffffffffffffffffffffffffffffffffffffffff1681526020019081526020015f2081905550808061198990618019565b9150506117c4565b50600a60045f8282829054906101000a900463ffffffff166119b39190618137565b92506101000a81548163ffffffff021916908363ffffffff160217905550806040516119df9190618231565b60405180910390207f5ecf71b87b223b4e8c4d19850b2c7a727d326e44eda6530fe642b505ff2c4f9460045f9054906101000a900463ffffffff16604051611a27919061827c565b60405180910390a25050565b603b8181548110611a42575f80fd5b905f5260205f2090600702015f91509050805f015f9054906101000a900473ffffffffffffffffffffffffffffffffffffffff1690806001018054611a8690617a6f565b80601f0160208091040260200160405190810160405280929190818152602001828054611ab290617a6f565b8015611afd5780601f10611ad457610100808354040283529160200191611afd565b820191905f5260205f20905b815481529060010190602001808311611ae057829003601f168201915b505050505090806002015490806003015490806004015490806005015f9054906101000a900460ff16905086565b60055f3373ffffffffffffffffffffffffffffffffffffffff1673ffffffffffffffffffffffffffffffffffffffff1681526020019081526020015f206005015f9054906101000a900460ff16611bb7576040517f08c379a0000000000000000000000000000000000000000000000000000000008152600401611bae906182df565b60405180910390fd5b7fffffffffffffffffffffffffffffffffffffffffffffffffffffffffffffffff815f0b12158015611bec57506001815f0b13155b611c2b576040517f08c379a0000000000000000000000000000000000000000000000000000000008152600401611c2290618347565b60405180910390fd5b5f60ae5f3373ffffffffffffffffffffffffffffffffffffffff1673ffffffffffffffffffffffffffffffffffffffff1681526020019081526020015f205f8473ffffffffffffffffffffffffffffffffffffffff1673ffffffffffffffffffffffffffffffffffffffff1681526020019081526020015f205f9054906101000a90045f0b90505f815f0b148015611cc557505f825f0b14155b15611da2576103e860b05f3373ffffffffffffffffffffffffffffffffffffffff1673ffffffffffffffffffffffffffffffffffffffff1681526020019081526020015f205410611d4b576040517f08c379a0000000000000000000000000000000000000000000000000000000008152600401611d42906183af565b60405180910390fd5b60b05f3373ffffffffffffffffffffffffffffffffffffffff1673ffffffffffffffffffffffffffffffffffffffff1681526020019081526020015f205f815480929190611d98906183cd565b9190505550611e0e565b5f815f0b14158015611db557505f825f0b145b15611e0d5760b05f3373ffffffffffffffffffffffffffffffffffffffff1673ffffffffffffffffffffffffffffffffffffffff1681526020019081526020015f205f815480929190611e0790618414565b91905055505b5b8160ae5f3373ffffffffffffffffffffffffffffffffffffffff1673ffffffffffffffffffffffffffffffffffffffff1681526020019081526020015f205f8573ffffffffffffffffffffffffffffffffffffffff1673ffffffffffffffffffffffffffffffffffffffff1681526020019081526020015f205f6101000a81548160ff02191690835f0b60ff1602179055508082611eac919061843b565b5f0b60af5f8573ffffffffffffffffffffffffffffffffffffffff1673ffffffffffffffffffffffffffffffffffffffff1681526020019081526020015f205f828254611ef99190618493565b92505081905550505050565b600a81565b60b0602052805f5260405f205f915090505481565b6103e881565b603f8181548110611f34575f80fd5b905f5260205f2090600802015f91509050805f018054611f5390617a6f565b80601f0160208091040260200160405190810160405280929190818152602001828054611f7f90617a6f565b8015611fca5780601f10611fa157610100808354040283529160200191611fca565b820191905f5260205f20905b815481529060010190602001808311611fad57829003601f168201915b505050505090806001018054611fdf90617a6f565b80601f016020809104026020016040519081016040528092919081815260200182805461200b90617a6f565b80156120565780601f1061202d57610100808354040283529160200191612056565b820191905f5260205f20905b81548152906001019060200180831161203957829003601f168201915b50505050509080600201805461206b90617a6f565b80601f016020809104026020016040519081016040528092919081815260200182805461209790617a6f565b80156120e25780601f106120b9576101008083540402835291602001916120e2565b820191905f5260205f20905b8154815290600101906020018083116120c557829003601f168201915b5050505050908060030180546120f790617a6f565b80601f016020809104026020016040519081016040528092919081815260200182805461212390617a6f565b801561216e5780601f106121455761010080835404028352916020019161216e565b820191905f5260205f20905b81548152906001019060200180831161215157829003601f168201915b50505050509080600401549080600501805461218990617a6f565b80601f01602080910402602001604051908101604052809291908181526020018280546121b590617a6f565b80156122005780601f106121d757610100808354040283529160200191612200565b820191905f5260205f20905b8154815290600101906020018083116121e357829003601f168201915b5050505050908060060154908060070154905088565b5f61221f61643e565b5f604454111561224057604454612237604454615ef7565b9150915061266d565b5f604354118015612252575042604354105b612291576040517f08c379a00000000000000000000000000000000000000000000000000000000081526004016122889061851e565b60405180910390fd5b5f805f90505f5b603f805490508110156123075781603f82815481106122ba576122b9617f84565b5b905f5260205f2090600802016007015411156122fa57603f81815481106122e4576122e3617f84565b5b905f5260205f2090600802016007015491508092505b8080600101915050612298565b50816044819055505f603f838154811061232457612323617f84565b5b905f5260205f209060080201604051806101000160405290815f8201805461234b90617a6f565b80601f016020809104026020016040519081016040528092919081815260200182805461237790617a6f565b80156123c25780601f10612399576101008083540402835291602001916123c2565b820191905f5260205f20905b8154815290600101906020018083116123a557829003601f168201915b505050505081526020016001820180546123db90617a6f565b80601f016020809104026020016040519081016040528092919081815260200182805461240790617a6f565b80156124525780601f1061242957610100808354040283529160200191612452565b820191905f5260205f20905b81548152906001019060200180831161243557829003601f168201915b5050505050815260200160028201805461246b90617a6f565b80601f016020809104026020016040519081016040528092919081815260200182805461249790617a6f565b80156124e25780601f106124b9576101008083540402835291602001916124e2565b820191905f5260205f20905b8154815290600101906020018083116124c557829003601f168201915b505050505081526020016003820180546124fb90617a6f565b80601f016020809104026020016040519081016040528092919081815260200182805461252790617a6f565b80156125725780601f1061254957610100808354040283529160200191612572565b820191905f5260205f20905b81548152906001019060200180831161255557829003601f168201915b505050505081526020016004820154815260200160058201805461259590617a6f565b80601f01602080910402602001604051908101604052809291908181526020018280546125c190617a6f565b801561260c5780601f106125e35761010080835404028352916020019161260c565b820191905f5260205f20905b8154815290600101906020018083116125ef57829003601f168201915b50505050508152602001600682015481526020016007820154815250509050827f5716523a05c9d13997b5a619d69a47eba3d34842ff0b403eed7ca3a75b05c7088260405161265b9190617724565b60405180910390a28281945094505050505b9091565b6212750081565b62093a8081565b66038d7ea4c6800081565b625c490081565b612699616483565b603b8054905082106126e0576040517f08c379a00000000000000000000000000000000000000000000000000000000081526004016126d790618586565b60405180910390fd5b603b82815481106126f4576126f3617f84565b5b905f5260205f2090600702016040518060e00160405290815f82015f9054906101000a900473ffffffffffffffffffffffffffffffffffffffff1673ffffffffffffffffffffffffffffffffffffffff1673ffffffffffffffffffffffffffffffffffffffff16815260200160018201805461276f90617a6f565b80601f016020809104026020016040519081016040528092919081815260200182805461279b90617a6f565b80156127e65780601f106127bd576101008083540402835291602001916127e6565b820191905f5260205f20905b8154815290600101906020018083116127c957829003601f168201915b50505050508152602001600282015481526020016003820154815260200160048201548152602001600582015f9054906101000a900460ff1660ff1660ff16815260200160068201805480602002602001604051908101604052809291908181526020015f905b8282101561296b578382905f5260205f2090600302016040518060600160405290815f8201548152602001600182015f9054906101000a900473ffffffffffffffffffffffffffffffffffffffff1673ffffffffffffffffffffffffffffffffffffffff1673ffffffffffffffffffffffffffffffffffffffff1681526020016002820180546128dc90617a6f565b80601f016020809104026020016040519081016040528092919081815260200182805461290890617a6f565b80156129535780601f1061292a57610100808354040283529160200191612953565b820191905f5260205f20905b81548152906001019060200180831161293657829003601f168201915b5050505050815250508152602001906001019061284d565b50505050815250509050919050565b600a81565b603b8054905081106129c6576040517f08c379a00000000000000000000000000000000000000000000000000000000081526004016129bd90618586565b60405180910390fd5b5f603b82815481106129db576129da617f84565b5b905f5260205f20906007020190503373ffffffffffffffffffffffffffffffffffffffff16815f015f9054906101000a900473ffffffffffffffffffffffffffffffffffffffff1673ffffffffffffffffffffffffffffffffffffffff1614612a79576040517f08c379a0000000000000000000000000000000000000000000000000000000008152600401612a70906185ee565b60405180910390fd5b5f816003015414612abf576040517f08c379a0000000000000000000000000000000000000000000000000000000008152600401612ab690618656565b60405180910390fd5b5f816004015414612b05576040517f08c379a0000000000000000000000000000000000000000000000000000000008152600401612afc906186be565b60405180910390fd5b4281600401819055505f603c5f3373ffffffffffffffffffffffffffffffffffffffff1673ffffffffffffffffffffffffffffffffffffffff1681526020019081526020015f2081905550817fd12dc0e743799a2fd79586130583cbaeed3a9b49d47291f1319569a523efe39a60405160405180910390a25050565b5f47905090565b5f60055f3373ffffffffffffffffffffffffffffffffffffffff1673ffffffffffffffffffffffffffffffffffffffff1681526020019081526020015f206005015f9054906101000a900460ff16612c15576040517f08c379a0000000000000000000000000000000000000000000000000000000008152600401612c0c90618726565b60405180910390fd5b603b805490508210612c5c576040517f08c379a0000000000000000000000000000000000000000000000000000000008152600401612c5390618586565b60405180910390fd5b5f603b8381548110612c7157612c70617f84565b5b905f5260205f20906007020190505f816004015414612cc5576040517f08c379a0000000000000000000000000000000000000000000000000000000008152600401612cbc9061878e565b60405180910390fd5b5f603d5f3373ffffffffffffffffffffffffffffffffffffffff1673ffffffffffffffffffffffffffffffffffffffff1681526020019081526020015f205f8581526020019081526020015f205414612d53576040517f08c379a0000000000000000000000000000000000000000000000000000000008152600401612d4a906187f6565b60405180910390fd5b42603d5f3373ffffffffffffffffffffffffffffffffffffffff1673ffffffffffffffffffffffffffffffffffffffff1681526020019081526020015f205f8581526020019081526020015f2081905550806005015f81819054906101000a900460ff1680929190612dc490618019565b91906101000a81548160ff021916908360ff160217905550503373ffffffffffffffffffffffffffffffffffffffff16837f3aeb8ab967e7a5ca0c4be4e02bf008efeb5a16ed14153472ca601d43b19bd4f160405160405180910390a3601e60ff16816005015f9054906101000a900460ff1660ff1610158015612e4b57505f8160030154145b15612ef457827f2ccc8a7792343a50763432c0b3baf786caabce7a3443756a81f743b21084fdb360405160405180910390a24281600301819055505f603c5f835f015f9054906101000a900473ffffffffffffffffffffffffffffffffffffffff1673ffffffffffffffffffffffffffffffffffffffff1673ffffffffffffffffffffffffffffffffffffffff1681526020019081526020015f2081905550612ef38361626c565b5b806005015f9054906101000a900460ff16915050919050565b5f60055f3373ffffffffffffffffffffffffffffffffffffffff1673ffffffffffffffffffffffffffffffffffffffff1681526020019081526020015f206005015f9054906101000a900460ff16612f9a576040517f08c379a0000000000000000000000000000000000000000000000000000000008152600401612f919061885e565b60405180910390fd5b5f8585905011612fdf576040517f08c379a0000000000000000000000000000000000000000000000000000000008152600401612fd6906188c6565b60405180910390fd5b5f603c5f3373ffffffffffffffffffffffffffffffffffffffff1673ffffffffffffffffffffffffffffffffffffffff1681526020019081526020015f20541461305e576040517f08c379a000000000000000000000000000000000000000000000000000000000815260040161305590618954565b60405180910390fd5b5f603b80549050905080603c5f3373ffffffffffffffffffffffffffffffffffffffff1673ffffffffffffffffffffffffffffffffffffffff1681526020019081526020015f2081905550603b60018160018154018082558091505003905f5260205f209050505f603b82815481106130da576130d9617f84565b5b905f5260205f209060070201905033815f015f6101000a81548173ffffffffffffffffffffffffffffffffffffffff021916908373ffffffffffffffffffffffffffffffffffffffff160217905550868682600101918261313c92919061897c565b504281600201819055505f5b858590508110156131bd578160060186868381811061316a57613169617f84565b5b905060200281019061317c9190618a55565b908060018154018082558091505060019003905f5260205f2090600302015f9091909190915081816131ae9190618c90565b50508080600101915050613148565b503373ffffffffffffffffffffffffffffffffffffffff16603b805490507ff5d77876858b5ad3802640c28e52b951551a2e4774baab2a284ea51d40271889898960405161320c929190618cca565b60405180910390a3603b8054905092505050949350505050565b6002600481111561323a57613239617478565b5b61324261417f565b600481111561325457613253617478565b5b14613294576040517f08c379a000000000000000000000000000000000000000000000000000000000815260040161328b90618d36565b60405180910390fd5b5f815f015151116132da576040517f08c379a00000000000000000000000000000000000000000000000000000000081526004016132d190618d9e565b60405180910390fd5b5f81602001515111613321576040517f08c379a000000000000000000000000000000000000000000000000000000000815260040161331890618e06565b60405180910390fd5b5f81606001515111613368576040517f08c379a000000000000000000000000000000000000000000000000000000000815260040161335f90618e6e565b60405180910390fd5b66038d7ea4c680003410156133b2576040517f08c379a00000000000000000000000000000000000000000000000000000000081526004016133a990618ed6565b60405180910390fd5b5f815f01518260400151836020015184606001516040516020016133d99493929190618f2e565b60405160208183030381529060405280519060200120905081608001518114613437576040517f08c379a000000000000000000000000000000000000000000000000000000000815260040161342e90618fb5565b60405180910390fd5b428260c00181815250505f8260e0018181525050603f82908060018154018082558091505060019003905f5260205f2090600802015f909190919091505f820151815f0190816134879190617c3c565b50602082015181600101908161349d9190617c3c565b5060408201518160020190816134b39190617c3c565b5060608201518160030190816134c99190617c3c565b506080820151816004015560a08201518160050190816134e99190617c3c565b5060c0820151816006015560e0820151816007015550506001603f805490506135129190618fd3565b7f0d75e0f38fa86696dcbaabfd45a3d7b9a804228a74d63ad451cd89bac51f89b6836040516135419190617724565b60405180910390a25050565b6047602052815f5260405f208181548110613566575f80fd5b905f5260205f2090600202015f9150915050805f0154908060010154905082565b61358f6164d4565b60068054905082106135d6576040517f08c379a00000000000000000000000000000000000000000000000000000000081526004016135cd90619050565b60405180910390fd5b60055f600684815481106135ed576135ec617f84565b5b905f5260205f20015f9054906101000a900473ffffffffffffffffffffffffffffffffffffffff1673ffffffffffffffffffffffffffffffffffffffff1673ffffffffffffffffffffffffffffffffffffffff1681526020019081526020015f206040518060e00160405290815f8201805461366890617a6f565b80601f016020809104026020016040519081016040528092919081815260200182805461369490617a6f565b80156136df5780601f106136b6576101008083540402835291602001916136df565b820191905f5260205f20905b8154815290600101906020018083116136c257829003601f168201915b505050505081526020016001820180546136f890617a6f565b80601f016020809104026020016040519081016040528092919081815260200182805461372490617a6f565b801561376f5780601f106137465761010080835404028352916020019161376f565b820191905f5260205f20905b81548152906001019060200180831161375257829003601f168201915b5050505050815260200160028201805461378890617a6f565b80601f01602080910402602001604051908101604052809291908181526020018280546137b490617a6f565b80156137ff5780601f106137d6576101008083540402835291602001916137ff565b820191905f5260205f20905b8154815290600101906020018083116137e257829003601f168201915b505050505081526020016003820154815260200160048201548152602001600582015f9054906101000a900460ff161515151581526020016006820154815250509050919050565b5f60415f8373ffffffffffffffffffffffffffffffffffffffff1673ffffffffffffffffffffffffffffffffffffffff1681526020019081526020015f20549050919050565b7f000000000000000000000000000000000000000000000000000000000000000081565b66038d7ea4c6800081565b603960019054906101000a900473ffffffffffffffffffffffffffffffffffffffff1681565b5f60025f8381526020019081526020015f205f9054906101000a900460ff169050919050565b5f60055f8373ffffffffffffffffffffffffffffffffffffffff1673ffffffffffffffffffffffffffffffffffffffff1681526020019081526020015f206005015f9054906101000a900460ff16613995576040517f08c379a000000000000000000000000000000000000000000000000000000000815260040161398c906190b8565b60405180910390fd5b603c5f8373ffffffffffffffffffffffffffffffffffffffff1673ffffffffffffffffffffffffffffffffffffffff1681526020019081526020015f20549050919050565b60ad5f9054906101000a900460ff1681565b5f604051806040016040528034815260200142815250905060475f3373ffffffffffffffffffffffffffffffffffffffff1673ffffffffffffffffffffffffffffffffffffffff1681526020019081526020015f2081908060018154018082558091505060019003905f5260205f2090600202015f909190919091505f820151815f01556020820151816001015550503373ffffffffffffffffffffffffffffffffffffffff167f976be468429698a1b0ae0c20a0329bdb6e24722a3f834a2c54b84d63c1722f3234604051613ac29190617054565b60405180910390a250565b600a60af5f3373ffffffffffffffffffffffffffffffffffffffff1673ffffffffffffffffffffffffffffffffffffffff1681526020019081526020015f20541215613b4e576040517f08c379a0000000000000000000000000000000000000000000000000000000008152600401613b4590619120565b60405180910390fd5b60026004811115613b6257613b61617478565b5b613b6a61417f565b6004811115613b7c57613b7b617478565b5b14613bbc576040517f08c379a0000000000000000000000000000000000000000000000000000000008152600401613bb390618d36565b60405180910390fd5b600a63ffffffff16600a148015613bda5750600a63ffffffff16600a145b613c19576040517f08c379a0000000000000000000000000000000000000000000000000000000008152600401613c1090617f66565b60405180910390fd5b5f5b600a63ffffffff168160ff161015613ea0575f73ffffffffffffffffffffffffffffffffffffffff1660405f858460ff16600a8110613c5d57613c5c617f84565b5b602002013581526020019081526020015f205f60028110613c8157613c80617f84565b5b015f9054906101000a900473ffffffffffffffffffffffffffffffffffffffff1673ffffffffffffffffffffffffffffffffffffffff1603613d3e573360405f858460ff16600a8110613cd757613cd6617f84565b5b602002013581526020019081526020015f205f60028110613cfb57613cfa617f84565b5b015f6101000a81548173ffffffffffffffffffffffffffffffffffffffff021916908373ffffffffffffffffffffffffffffffffffffffff160217905550613e8d565b5f73ffffffffffffffffffffffffffffffffffffffff1660405f858460ff16600a8110613d6e57613d6d617f84565b5b602002013581526020019081526020015f20600160028110613d9357613d92617f84565b5b015f9054906101000a900473ffffffffffffffffffffffffffffffffffffffff1673ffffffffffffffffffffffffffffffffffffffff1603613e51573360405f858460ff16600a8110613de957613de8617f84565b5b602002013581526020019081526020015f20600160028110613e0e57613e0d617f84565b5b015f6101000a81548173ffffffffffffffffffffffffffffffffffffffff021916908373ffffffffffffffffffffffffffffffffffffffff160217905550613e8c565b6040517f08c379a0000000000000000000000000000000000000000000000000000000008152600401613e8390619188565b60405180910390fd5b5b8080613e9890618019565b915050613c1b565b505f5b600a63ffffffff168160ff161015614080575f73ffffffffffffffffffffffffffffffffffffffff16828260ff16600a8110613ee257613ee1617f84565b5b602002016020810190613ef5919061696e565b73ffffffffffffffffffffffffffffffffffffffff1603613f4b576040517f08c379a0000000000000000000000000000000000000000000000000000000008152600401613f429061808b565b60405180910390fd5b600260415f848460ff16600a8110613f6657613f65617f84565b5b602002016020810190613f79919061696e565b73ffffffffffffffffffffffffffffffffffffffff1673ffffffffffffffffffffffffffffffffffffffff1681526020019081526020015f205410613ff3576040517f08c379a0000000000000000000000000000000000000000000000000000000008152600401613fea90618119565b60405180910390fd5b60415f838360ff16600a811061400c5761400b617f84565b5b60200201602081019061401f919061696e565b73ffffffffffffffffffffffffffffffffffffffff1673ffffffffffffffffffffffffffffffffffffffff1681526020019081526020015f205f815480929190614068906183cd565b9190505550808061407890618019565b915050613ea3565b50600a60425f8282829054906101000a900463ffffffff166140a29190618137565b92506101000a81548163ffffffff021916908363ffffffff160217905550806040516140ce9190618231565b60405180910390207f2ba0aaa9c0e5919bf5cb9fde7b2825194f9dc6e9ab2a9174c59892a1585c446a3360425f9054906101000a900463ffffffff166040516141189291906191a6565b60405180910390a25050565b60af602052805f5260405f205f915090505481565b60488160328110614148575f80fd5b600202015f91509050805f015f9054906101000a900473ffffffffffffffffffffffffffffffffffffffff16908060010154905082565b5f620151806001546141919190618fd3565b4210156141a0575f9050614242565b60015442101561421857603260026141b891906191cd565b60ff1660068054905010806141eb57506103e863ffffffff1660045f9054906101000a900463ffffffff1663ffffffff16105b1561420f57621275006001546142019190619209565b6001819055505f9050614242565b60019050614242565b5f6043540361422a5760029050614242565b60435442101561423d5760039050614242565b600490505b90565b62093a8060055f603960019054906101000a900473ffffffffffffffffffffffffffffffffffffffff1673ffffffffffffffffffffffffffffffffffffffff1673ffffffffffffffffffffffffffffffffffffffff1681526020019081526020015f20600601546142b69190619209565b4210156142f8576040517f08c379a00000000000000000000000000000000000000000000000000000000081526004016142ef906192ac565b60405180910390fd5b603a5f81548092919061430a906183cd565b91905055506032603a5410614321575f603a819055505b6007603a546032811061433757614336617f84565b5b015f9054906101000a900473ffffffffffffffffffffffffffffffffffffffff16603960016101000a81548173ffffffffffffffffffffffffffffffffffffffff021916908373ffffffffffffffffffffffffffffffffffffffff1602179055504260055f603960019054906101000a900473ffffffffffffffffffffffffffffffffffffffff1673ffffffffffffffffffffffffffffffffffffffff1673ffffffffffffffffffffffffffffffffffffffff1681526020019081526020015f2060060181905550603960019054906101000a900473ffffffffffffffffffffffffffffffffffffffff1673ffffffffffffffffffffffffffffffffffffffff167f8a84bb57bf3f6adefaa7a35a6a5067473f78164bfc14c2f6ae8b93e5b115b35a60405160405180910390a2565b6001600481111561447a57614479617478565b5b61448261417f565b600481111561449457614493617478565b5b146144d4576040517f08c379a00000000000000000000000000000000000000000000000000000000081526004016144cb90619314565b60405180910390fd5b60068054905082829050111561451f576040517f08c379a00000000000000000000000000000000000000000000000000000000081526004016145169061937c565b60405180910390fd5b600160035f3373ffffffffffffffffffffffffffffffffffffffff1673ffffffffffffffffffffffffffffffffffffffff1681526020019081526020015f20541461459f576040517f08c379a00000000000000000000000000000000000000000000000000000000081526004016145969061940a565b60405180910390fd5b5f60068054905067ffffffffffffffff8111156145bf576145be616626565b5b6040519080825280602002602001820160405280156145ed5781602001602082028036833780820191505090505b5090504260035f3373ffffffffffffffffffffffffffffffffffffffff1673ffffffffffffffffffffffffffffffffffffffff1681526020019081526020015f20819055503373ffffffffffffffffffffffffffffffffffffffff167fb87a61d78bd15221c59b983f6ef032fbde0631e66bfe18d1421fe5a73c16741d60405160405180910390a25f5b83839050811015614806575f84848381811061469657614695617f84565b5b90506020020135905060068054905081106146e6576040517f08c379a00000000000000000000000000000000000000000000000000000000081526004016146dd90619472565b60405180910390fd5b8281815181106146f9576146f8617f84565b5b602002602001015115614741576040517f08c379a0000000000000000000000000000000000000000000000000000000008152600401614738906194da565b60405180910390fd5b600183828151811061475657614755617f84565b5b60200260200101901515908115158152505060055f6006838154811061477f5761477e617f84565b5b905f5260205f20015f9054906101000a900473ffffffffffffffffffffffffffffffffffffffff1673ffffffffffffffffffffffffffffffffffffffff1673ffffffffffffffffffffffffffffffffffffffff1681526020019081526020015f206004015f8154809291906147f3906183cd565b9190505550508080600101915050614677565b50505050565b60435481565b60068181548110614821575f80fd5b905f5260205f20015f915054906101000a900473ffffffffffffffffffffffffffffffffffffffff1681565b600a81565b601e81565b60055f3373ffffffffffffffffffffffffffffffffffffffff1673ffffffffffffffffffffffffffffffffffffffff1681526020019081526020015f206005015f9054906101000a900460ff166148e3576040517f08c379a00000000000000000000000000000000000000000000000000000000081526004016148da90619542565b60405180910390fd5b611388811115614928576040517f08c379a000000000000000000000000000000000000000000000000000000000815260040161491f906195aa565b60405180910390fd5b5f8060ac5f3373ffffffffffffffffffffffffffffffffffffffff1673ffffffffffffffffffffffffffffffffffffffff1681526020019081526020015f205f9054906101000a900460ff1690505f8160ff161480156149f057503373ffffffffffffffffffffffffffffffffffffffff1660488260ff16603281106149b1576149b0617f84565b5b600202015f015f9054906101000a900473ffffffffffffffffffffffffffffffffffffffff1673ffffffffffffffffffffffffffffffffffffffff1614155b15614a345760ad5f81819054906101000a900460ff1680929190614a1390618019565b91906101000a81548160ff021916908360ff160217905550505f9150614a56565b60488160ff1660328110614a4b57614a4a617f84565b5b600202016001015491505b5f819050828403614a6957505050614fec565b82841115614c1d575b60016032614a8091906195c8565b60ff168160ff16108015614abd57506048600182614a9e91906195fc565b60ff1660328110614ab257614ab1617f84565b5b600202016001015484115b15614c18576048600182614ad191906195fc565b60ff1660328110614ae557614ae4617f84565b5b6002020160488260ff1660328110614b0057614aff617f84565b5b600202015f82015f9054906101000a900473ffffffffffffffffffffffffffffffffffffffff16815f015f6101000a81548173ffffffffffffffffffffffffffffffffffffffff021916908373ffffffffffffffffffffffffffffffffffffffff160217905550600182015481600101559050508060ac5f60488460ff1660328110614b8f57614b8e617f84565b5b600202015f015f9054906101000a900473ffffffffffffffffffffffffffffffffffffffff1673ffffffffffffffffffffffffffffffffffffffff1673ffffffffffffffffffffffffffffffffffffffff1681526020019081526020015f205f6101000a81548160ff021916908360ff1602179055508080614c1090618019565b915050614a72565b614db5565b5b5f8160ff16118015614c5957506048600182614c3a91906195c8565b60ff1660328110614c4e57614c4d617f84565b5b600202016001015484105b15614db4576048600182614c6d91906195c8565b60ff1660328110614c8157614c80617f84565b5b6002020160488260ff1660328110614c9c57614c9b617f84565b5b600202015f82015f9054906101000a900473ffffffffffffffffffffffffffffffffffffffff16815f015f6101000a81548173ffffffffffffffffffffffffffffffffffffffff021916908373ffffffffffffffffffffffffffffffffffffffff160217905550600182015481600101559050508060ac5f60488460ff1660328110614d2b57614d2a617f84565b5b600202015f015f9054906101000a900473ffffffffffffffffffffffffffffffffffffffff1673ffffffffffffffffffffffffffffffffffffffff1673ffffffffffffffffffffffffffffffffffffffff1681526020019081526020015f205f6101000a81548160ff021916908360ff1602179055508080614dac90619630565b915050614c1e565b5b60405180604001604052803373ffffffffffffffffffffffffffffffffffffffff1681526020018581525060488260ff1660328110614df757614df6617f84565b5b600202015f820151815f015f6101000a81548173ffffffffffffffffffffffffffffffffffffffff021916908373ffffffffffffffffffffffffffffffffffffffff160217905550602082015181600101559050508060ac5f3373ffffffffffffffffffffffffffffffffffffffff1673ffffffffffffffffffffffffffffffffffffffff1681526020019081526020015f205f6101000a81548160ff021916908360ff1602179055503373ffffffffffffffffffffffffffffffffffffffff167f1ce0beaec98d7537137a85c2d351c6c99900830d30fe8a7c353fa27225807e7284848785604051614eed9493929190619657565b60405180910390a2604860026032614f0591906196c7565b60ff1660328110614f1957614f18617f84565b5b600202016001015460455414614fe857604860026032614f3991906196c7565b60ff1660328110614f4d57614f4c617f84565b5b600202016001015460458190555060466040518060400160405280604554815260200142815250908060018154018082558091505060019003905f5260205f2090600202015f909190919091505f820151815f01556020820151816001015550507fa90e14be5aa57b910aa6dc16c31ff1b5cda380ae25a793b0d3f74df6131a7d74604554604051614fdf9190616955565b60405180910390a15b5050505b50565b42625c49006001546150019190619209565b10615041576040517f08c379a000000000000000000000000000000000000000000000000000000000815260040161503890619741565b60405180910390fd5b5f60445414615085576040517f08c379a000000000000000000000000000000000000000000000000000000000815260040161507c906197a9565b60405180910390fd5b600a60ff16603f80549050116150d0576040517f08c379a00000000000000000000000000000000000000000000000000000000081526004016150c790619811565b60405180910390fd5b620f424063ffffffff1660425f9054906101000a900463ffffffff1663ffffffff161015615133576040517f08c379a000000000000000000000000000000000000000000000000000000000815260040161512a90619879565b60405180910390fd5b62015180426151429190619209565b6043819055507fa0ab6b515144b30d8222a12e45d1c1df7265286d8a0d9f73c23c8b06f602187160405160405180910390a1565b6103e881565b60435442106151c0576040517f08c379a00000000000000000000000000000000000000000000000000000000081526004016151b7906198e1565b60405180910390fd5b603f8054905082829050111561520b576040517f08c379a000000000000000000000000000000000000000000000000000000000815260040161520290619949565b60405180910390fd5b600260415f3373ffffffffffffffffffffffffffffffffffffffff1673ffffffffffffffffffffffffffffffffffffffff1681526020019081526020015f20541461528b576040517f08c379a0000000000000000000000000000000000000000000000000000000008152600401615282906199d7565b60405180910390fd5b5f603f8054905067ffffffffffffffff8111156152ab576152aa616626565b5b6040519080825280602002602001820160405280156152d95781602001602082028036833780820191505090505b5090505f5b83839050811015615415575f8484838181106152fd576152fc617f84565b5b905060200201359050603f80549050811061534d576040517f08c379a000000000000000000000000000000000000000000000000000000000815260040161534490619a3f565b60405180910390fd5b8281815181106153605761535f617f84565b5b6020026020010151156153a8576040517f08c379a000000000000000000000000000000000000000000000000000000000815260040161539f90619aa7565b60405180910390fd5b60018382815181106153bd576153bc617f84565b5b602002602001019015159081151581525050603f81815481106153e3576153e2617f84565b5b905f5260205f2090600802016007015f815480929190615402906183cd565b91905055505080806001019150506152de565b504260415f3373ffffffffffffffffffffffffffffffffffffffff1673ffffffffffffffffffffffffffffffffffffffff1681526020019081526020015f20819055503373ffffffffffffffffffffffffffffffffffffffff167f4b50b8927fd1b030f5404dc4394c2a5d30d7f6c6fa6d732c089ffe8c10f0942160405160405180910390a2505050565b60015481565b620f424081565b5f60035f8373ffffffffffffffffffffffffffffffffffffffff1673ffffffffffffffffffffffffffffffffffffffff1681526020019081526020015f20549050919050565b5f603b80549050831061553b576040517f08c379a000000000000000000000000000000000000000000000000000000000815260040161553290618586565b60405180910390fd5b60055f8373ffffffffffffffffffffffffffffffffffffffff1673ffffffffffffffffffffffffffffffffffffffff1681526020019081526020015f206005015f9054906101000a900460ff166155c7576040517f08c379a00000000000000000000000000000000000000000000000000000000081526004016155be906190b8565b60405180910390fd5b603d5f8373ffffffffffffffffffffffffffffffffffffffff1673ffffffffffffffffffffffffffffffffffffffff1681526020019081526020015f205f8481526020019081526020015f2054905092915050565b603e5481565b603281565b60425f9054906101000a900463ffffffff1681565b6005602052805f5260405f205f91509050805f01805461565b90617a6f565b80601f016020809104026020016040519081016040528092919081815260200182805461568790617a6f565b80156156d25780601f106156a9576101008083540402835291602001916156d2565b820191905f5260205f20905b8154815290600101906020018083116156b557829003601f168201915b5050505050908060010180546156e790617a6f565b80601f016020809104026020016040519081016040528092919081815260200182805461571390617a6f565b801561575e5780601f106157355761010080835404028352916020019161575e565b820191905f5260205f20905b81548152906001019060200180831161574157829003601f168201915b50505050509080600201805461577390617a6f565b80601f016020809104026020016040519081016040528092919081815260200182805461579f90617a6f565b80156157ea5780601f106157c1576101008083540402835291602001916157ea565b820191905f5260205f20905b8154815290600101906020018083116157cd57829003601f168201915b505050505090806003015490806004015490806005015f9054906101000a900460ff16908060060154905087565b60ac602052805f5260405f205f915054906101000a900460ff1681565b61583d61650f565b60395f9054906101000a900460ff16156158cb5760076032806020026040519081016040528092919082603280156158bf576020028201915b815f9054906101000a900473ffffffffffffffffffffffffffffffffffffffff1673ffffffffffffffffffffffffffffffffffffffff1681526020019060010190808311615876575b50505050509050615e9c565b600154421161590f576040517f08c379a000000000000000000000000000000000000000000000000000000000815260040161590690619b0f565b60405180910390fd5b5f600190505b603260ff168111615cb8575f5b8160068054905003811015615b785760055f6006600184018154811061594b5761594a617f84565b5b905f5260205f20015f9054906101000a900473ffffffffffffffffffffffffffffffffffffffff1673ffffffffffffffffffffffffffffffffffffffff1673ffffffffffffffffffffffffffffffffffffffff1681526020019081526020015f206004015460055f600684815481106159c7576159c6617f84565b5b905f5260205f20015f9054906101000a900473ffffffffffffffffffffffffffffffffffffffff1673ffffffffffffffffffffffffffffffffffffffff1673ffffffffffffffffffffffffffffffffffffffff1681526020019081526020015f20600401541115615b6b5760066001820181548110615a4957615a48617f84565b5b905f5260205f20015f9054906101000a900473ffffffffffffffffffffffffffffffffffffffff1660068281548110615a8557615a84617f84565b5b905f5260205f20015f9054906101000a900473ffffffffffffffffffffffffffffffffffffffff1660068381548110615ac157615ac0617f84565b5b905f5260205f20015f60066001860181548110615ae157615ae0617f84565b5b905f5260205f20015f8491906101000a81548173ffffffffffffffffffffffffffffffffffffffff021916908373ffffffffffffffffffffffffffffffffffffffff1602179055508391906101000a81548173ffffffffffffffffffffffffffffffffffffffff021916908373ffffffffffffffffffffffffffffffffffffffff16021790555050505b8080600101915050615922565b506006816006805490500381548110615b9457615b93617f84565b5b905f5260205f20015f9054906101000a900473ffffffffffffffffffffffffffffffffffffffff1660076001830360328110615bd357615bd2617f84565b5b015f6101000a81548173ffffffffffffffffffffffffffffffffffffffff021916908373ffffffffffffffffffffffffffffffffffffffff160217905550600160055f6006846006805490500381548110615c3157615c30617f84565b5b905f5260205f20015f9054906101000a900473ffffffffffffffffffffffffffffffffffffffff1673ffffffffffffffffffffffffffffffffffffffff1673ffffffffffffffffffffffffffffffffffffffff1681526020019081526020015f206005015f6101000a81548160ff0219169083151502179055508080600101915050615915565b50600160395f6101000a81548160ff02191690831515021790555060075f60328110615ce757615ce6617f84565b5b015f9054906101000a900473ffffffffffffffffffffffffffffffffffffffff16603960016101000a81548173ffffffffffffffffffffffffffffffffffffffff021916908373ffffffffffffffffffffffffffffffffffffffff1602179055505f603a819055504260055f603960019054906101000a900473ffffffffffffffffffffffffffffffffffffffff1673ffffffffffffffffffffffffffffffffffffffff1673ffffffffffffffffffffffffffffffffffffffff1681526020019081526020015f20600601819055506007604051615dc59190619c08565b60405180910390207f5befb7b9346d2adf55904a87bbd0d35bcede9d28085a00c081c6168ac5ed6c44603960019054906101000a900473ffffffffffffffffffffffffffffffffffffffff16604051615e1e9190617438565b60405180910390a26007603280602002604051908101604052809291908260328015615e94576020028201915b815f9054906101000a900473ffffffffffffffffffffffffffffffffffffffff1673ffffffffffffffffffffffffffffffffffffffff1681526020019060010190808311615e4b575b505050505090505b90565b60445481565b5f8054906101000a900473ffffffffffffffffffffffffffffffffffffffff1681565b60468181548110615ed7575f80fd5b905f5260205f2090600202015f91509050805f0154908060010154905082565b615eff61643e565b603f805490508210615f46576040517f08c379a0000000000000000000000000000000000000000000000000000000008152600401615f3d90619c6d565b60405180910390fd5b603f8281548110615f5a57615f59617f84565b5b905f5260205f209060080201604051806101000160405290815f82018054615f8190617a6f565b80601f0160208091040260200160405190810160405280929190818152602001828054615fad90617a6f565b8015615ff85780601f10615fcf57610100808354040283529160200191615ff8565b820191905f5260205f20905b815481529060010190602001808311615fdb57829003601f168201915b5050505050815260200160018201805461601190617a6f565b80601f016020809104026020016040519081016040528092919081815260200182805461603d90617a6f565b80156160885780601f1061605f57610100808354040283529160200191616088565b820191905f5260205f20905b81548152906001019060200180831161606b57829003601f168201915b505050505081526020016002820180546160a190617a6f565b80601f01602080910402602001604051908101604052809291908181526020018280546160cd90617a6f565b80156161185780601f106160ef57610100808354040283529160200191616118565b820191905f5260205f20905b8154815290600101906020018083116160fb57829003601f168201915b5050505050815260200160038201805461613190617a6f565b80601f016020809104026020016040519081016040528092919081815260200182805461615d90617a6f565b80156161a85780601f1061617f576101008083540402835291602001916161a8565b820191905f5260205f20905b81548152906001019060200180831161618b57829003601f168201915b50505050508152602001600482015481526020016005820180546161cb90617a6f565b80601f01602080910402602001604051908101604052809291908181526020018280546161f790617a6f565b80156162425780601f1061621957610100808354040283529160200191616242565b820191905f5260205f20905b81548152906001019060200180831161622557829003601f168201915b50505050508152602001600682015481526020016007820154815250509050919050565b60455481565b5f603b828154811061628157616280617f84565b5b905f5260205f20906007020190505f5b8160060180549050811015616417575f8260060182815481106162b7576162b6617f84565b5b905f5260205f2090600302016040518060600160405290815f8201548152602001600182015f9054906101000a900473ffffffffffffffffffffffffffffffffffffffff1673ffffffffffffffffffffffffffffffffffffffff1673ffffffffffffffffffffffffffffffffffffffff16815260200160028201805461633c90617a6f565b80601f016020809104026020016040519081016040528092919081815260200182805461636890617a6f565b80156163b35780601f1061638a576101008083540402835291602001916163b3565b820191905f5260205f20905b81548152906001019060200180831161639657829003601f168201915b5050505050815250509050806020015173ffffffffffffffffffffffffffffffffffffffff166108fc825f015190811502906040515f60405180830381858888f19350505050158015616408573d5f803e3d5ffd5b50508080600101915050616291565b505050565b6040518060400160405280600290602082028036833780820191505090505090565b604051806101000160405280606081526020016060815260200160608152602001606081526020015f8019168152602001606081526020015f81526020015f81525090565b6040518060e001604052805f73ffffffffffffffffffffffffffffffffffffffff168152602001606081526020015f81526020015f81526020015f81526020015f60ff168152602001606081525090565b6040518060e001604052806060815260200160608152602001606081526020015f81526020015f81526020015f151581526020015f81525090565b604051806106400160405280603290602082028036833780820191505090505090565b5f604051905090565b5f80fd5b5f80fd5b5f73ffffffffffffffffffffffffffffffffffffffff82169050919050565b5f61656c82616543565b9050919050565b61657c81616562565b8114616586575f80fd5b50565b5f8135905061659781616573565b92915050565b5f80604083850312156165b3576165b261653b565b5b5f6165c085828601616589565b92505060206165d185828601616589565b9150509250929050565b5f815f0b9050919050565b6165ef816165db565b82525050565b5f6020820190506166085f8301846165e6565b92915050565b5f80fd5b5f80fd5b5f601f19601f8301169050919050565b7f4e487b71000000000000000000000000000000000000000000000000000000005f52604160045260245ffd5b61665c82616616565b810181811067ffffffffffffffff8211171561667b5761667a616626565b5b80604052505050565b5f61668d616532565b90506166998282616653565b919050565b5f67ffffffffffffffff8211156166b8576166b7616626565b5b6166c182616616565b9050602081019050919050565b828183375f83830152505050565b5f6166ee6166e98461669e565b616684565b90508281526020810184848401111561670a57616709616612565b5b6167158482856166ce565b509392505050565b5f82601f8301126167315761673061660e565b5b81356167418482602086016166dc565b91505092915050565b5f805f606084860312156167615761676061653b565b5b5f84013567ffffffffffffffff81111561677e5761677d61653f565b5b61678a8682870161671d565b935050602084013567ffffffffffffffff8111156167ab576167aa61653f565b5b6167b78682870161671d565b925050604084013567ffffffffffffffff8111156167d8576167d761653f565b5b6167e48682870161671d565b9150509250925092565b5f8115159050919050565b616802816167ee565b82525050565b5f60208201905061681b5f8301846167f9565b92915050565b5f819050919050565b61683381616821565b811461683d575f80fd5b50565b5f8135905061684e8161682a565b92915050565b5f602082840312156168695761686861653b565b5b5f61687684828501616840565b91505092915050565b5f60029050919050565b5f81905092915050565b5f819050919050565b6168a581616562565b82525050565b5f6168b6838361689c565b60208301905092915050565b5f602082019050919050565b6168d78161687f565b6168e18184616889565b92506168ec82616893565b805f5b8381101561691c57815161690387826168ab565b965061690e836168c2565b9250506001810190506168ef565b505050505050565b5f6040820190506169375f8301846168ce565b92915050565b5f819050919050565b61694f8161693d565b82525050565b5f6020820190506169685f830184616946565b92915050565b5f602082840312156169835761698261653b565b5b5f61699084828501616589565b91505092915050565b6169a28161693d565b81146169ac575f80fd5b50565b5f813590506169bd81616999565b92915050565b5f80604083850312156169d9576169d861653b565b5b5f6169e685828601616589565b92505060206169f7858286016169af565b9150509250929050565b5f80fd5b5f819050826020600a0282011115616a2057616a1f616a01565b5b92915050565b5f819050826020600a0282011115616a4157616a40616a01565b5b92915050565b5f806102808385031215616a5e57616a5d61653b565b5b5f616a6b85828601616a05565b925050610140616a7d85828601616a26565b9150509250929050565b5f60208284031215616a9c57616a9b61653b565b5b5f616aa9848285016169af565b91505092915050565b616abb81616562565b82525050565b5f81519050919050565b5f82825260208201905092915050565b8281835e5f83830152505050565b5f616af382616ac1565b616afd8185616acb565b9350616b0d818560208601616adb565b616b1681616616565b840191505092915050565b5f60ff82169050919050565b616b3681616b21565b82525050565b5f60c082019050616b4f5f830189616ab2565b8181036020830152616b618188616ae9565b9050616b706040830187616946565b616b7d6060830186616946565b616b8a6080830185616946565b616b9760a0830184616b2d565b979650505050505050565b616bab816165db565b8114616bb5575f80fd5b50565b5f81359050616bc681616ba2565b92915050565b5f8060408385031215616be257616be161653b565b5b5f616bef85828601616589565b9250506020616c0085828601616bb8565b9150509250929050565b5f602082019050616c1d5f830184616b2d565b92915050565b5f63ffffffff82169050919050565b616c3b81616c23565b82525050565b5f602082019050616c545f830184616c32565b92915050565b616c6381616821565b82525050565b5f610100820190508181035f830152616c82818b616ae9565b90508181036020830152616c96818a616ae9565b90508181036040830152616caa8189616ae9565b90508181036060830152616cbe8188616ae9565b9050616ccd6080830187616c5a565b81810360a0830152616cdf8186616ae9565b9050616cee60c0830185616946565b616cfb60e0830184616946565b9998505050505050505050565b5f82825260208201905092915050565b5f616d2282616ac1565b616d2c8185616d08565b9350616d3c818560208601616adb565b616d4581616616565b840191505092915050565b616d5981616821565b82525050565b616d688161693d565b82525050565b5f61010083015f8301518482035f860152616d898282616d18565b91505060208301518482036020860152616da38282616d18565b91505060408301518482036040860152616dbd8282616d18565b91505060608301518482036060860152616dd78282616d18565b9150506080830151616dec6080860182616d50565b5060a083015184820360a0860152616e048282616d18565b91505060c0830151616e1960c0860182616d5f565b5060e0830151616e2c60e0860182616d5f565b508091505092915050565b5f604082019050616e4a5f830185616946565b8181036020830152616e5c8184616d6e565b90509392505050565b616e6e81616b21565b82525050565b5f81519050919050565b5f82825260208201905092915050565b5f819050602082019050919050565b5f606083015f830151616eb25f860182616d5f565b506020830151616ec5602086018261689c565b5060408301518482036040860152616edd8282616d18565b9150508091505092915050565b5f616ef58383616e9d565b905092915050565b5f602082019050919050565b5f616f1382616e74565b616f1d8185616e7e565b935083602082028501616f2f85616e8e565b805f5b85811015616f6a5784840389528151616f4b8582616eea565b9450616f5683616efd565b925060208a01995050600181019050616f32565b50829750879550505050505092915050565b5f60e083015f830151616f915f86018261689c565b5060208301518482036020860152616fa98282616d18565b9150506040830151616fbe6040860182616d5f565b506060830151616fd16060860182616d5f565b506080830151616fe46080860182616d5f565b5060a0830151616ff760a0860182616e65565b5060c083015184820360c086015261700f8282616f09565b9150508091505092915050565b5f6020820190508181035f8301526170348184616f7c565b905092915050565b5f819050919050565b61704e8161703c565b82525050565b5f6020820190506170675f830184617045565b92915050565b5f80fd5b5f8083601f8401126170865761708561660e565b5b8235905067ffffffffffffffff8111156170a3576170a261706d565b5b6020830191508360018202830111156170bf576170be616a01565b5b9250929050565b5f8083601f8401126170db576170da61660e565b5b8235905067ffffffffffffffff8111156170f8576170f761706d565b5b60208301915083602082028301111561711457617113616a01565b5b9250929050565b5f805f80604085870312156171335761713261653b565b5b5f85013567ffffffffffffffff8111156171505761714f61653f565b5b61715c87828801617071565b9450945050602085013567ffffffffffffffff81111561717f5761717e61653f565b5b61718b878288016170c6565b925092505092959194509250565b5f80fd5b5f80fd5b5f61010082840312156171b7576171b6617199565b5b6171c2610100616684565b90505f82013567ffffffffffffffff8111156171e1576171e061719d565b5b6171ed8482850161671d565b5f83015250602082013567ffffffffffffffff8111156172105761720f61719d565b5b61721c8482850161671d565b602083015250604082013567ffffffffffffffff8111156172405761723f61719d565b5b61724c8482850161671d565b604083015250606082013567ffffffffffffffff8111156172705761726f61719d565b5b61727c8482850161671d565b606083015250608061729084828501616840565b60808301525060a082013567ffffffffffffffff8111156172b4576172b361719d565b5b6172c08482850161671d565b60a08301525060c06172d4848285016169af565b60c08301525060e06172e8848285016169af565b60e08301525092915050565b5f602082840312156173095761730861653b565b5b5f82013567ffffffffffffffff8111156173265761732561653f565b5b617332848285016171a1565b91505092915050565b5f60408201905061734e5f830185617045565b61735b6020830184616946565b9392505050565b61736b816167ee565b82525050565b5f60e083015f8301518482035f86015261738b8282616d18565b915050602083015184820360208601526173a58282616d18565b915050604083015184820360408601526173bf8282616d18565b91505060608301516173d46060860182616d5f565b5060808301516173e76080860182616d5f565b5060a08301516173fa60a0860182617362565b5060c083015161740d60c0860182616d5f565b508091505092915050565b5f6020820190508181035f8301526174308184617371565b905092915050565b5f60208201905061744b5f830184616ab2565b92915050565b5f6040820190506174645f830185616ab2565b6174716020830184616946565b9392505050565b7f4e487b71000000000000000000000000000000000000000000000000000000005f52602160045260245ffd5b600581106174b6576174b5617478565b5b50565b5f8190506174c6826174a5565b919050565b5f6174d5826174b9565b9050919050565b6174e5816174cb565b82525050565b5f6020820190506174fe5f8301846174dc565b92915050565b5f8083601f8401126175195761751861660e565b5b8235905067ffffffffffffffff8111156175365761753561706d565b5b60208301915083602082028301111561755257617551616a01565b5b9250929050565b5f806020838503121561756f5761756e61653b565b5b5f83013567ffffffffffffffff81111561758c5761758b61653f565b5b61759885828601617504565b92509250509250929050565b5f80604083850312156175ba576175b961653b565b5b5f6175c7858286016169af565b92505060206175d885828601616589565b9150509250929050565b5f60e0820190508181035f8301526175fa818a616ae9565b9050818103602083015261760e8189616ae9565b905081810360408301526176228188616ae9565b90506176316060830187616946565b61763e6080830186616946565b61764b60a08301856167f9565b61765860c0830184616946565b98975050505050505050565b5f60329050919050565b5f81905092915050565b5f819050919050565b5f602082019050919050565b61769681617664565b6176a0818461766e565b92506176ab82617678565b805f5b838110156176db5781516176c287826168ab565b96506176cd83617681565b9250506001810190506176ae565b505050505050565b5f610640820190506176f75f83018461768d565b92915050565b5f6040820190506177105f830185616946565b61771d6020830184616946565b9392505050565b5f6020820190508181035f83015261773c8184616d6e565b905092915050565b7f496e76616c6964206e616d6500000000000000000000000000000000000000005f82015250565b5f617778600c83616acb565b915061778382617744565b602082019050919050565b5f6020820190508181035f8301526177a58161776c565b9050919050565b7f496e76616c69642062696f0000000000000000000000000000000000000000005f82015250565b5f6177e0600b83616acb565b91506177eb826177ac565b602082019050919050565b5f6020820190508181035f83015261780d816177d4565b9050919050565b7f496e76616c6964207765627369746500000000000000000000000000000000005f82015250565b5f617848600f83616acb565b915061785382617814565b602082019050919050565b5f6020820190508181035f8301526178758161783c565b9050919050565b7f496e76616c69642073656e6465720000000000000000000000000000000000005f82015250565b5f6178b0600e83616acb565b91506178bb8261787c565b602082019050919050565b5f6020820190508181035f8301526178dd816178a4565b9050919050565b7f496e73756666696369656e7420726567697374726174696f6e206665650000005f82015250565b5f617918601d83616acb565b9150617923826178e4565b602082019050919050565b5f6020820190508181035f8301526179458161790c565b9050919050565b7f43616e64696461746520726567697374726174696f6e20706572696f642068615f8201527f7320656e6465642e000000000000000000000000000000000000000000000000602082015250565b5f6179a6602883616acb565b91506179b18261794c565b604082019050919050565b5f6020820190508181035f8301526179d38161799a565b9050919050565b7f416c7265616479207265676973746572656400000000000000000000000000005f82015250565b5f617a0e601283616acb565b9150617a19826179da565b602082019050919050565b5f6020820190508181035f830152617a3b81617a02565b9050919050565b7f4e487b71000000000000000000000000000000000000000000000000000000005f52602260045260245ffd5b5f6002820490506001821680617a8657607f821691505b602082108103617a9957617a98617a42565b5b50919050565b5f819050815f5260205f209050919050565b5f6020601f8301049050919050565b5f82821b905092915050565b5f60088302617afb7fffffffffffffffffffffffffffffffffffffffffffffffffffffffffffffffff82617ac0565b617b058683617ac0565b95508019841693508086168417925050509392505050565b5f819050919050565b5f617b40617b3b617b368461693d565b617b1d565b61693d565b9050919050565b5f819050919050565b617b5983617b26565b617b6d617b6582617b47565b848454617acc565b825550505050565b5f90565b617b81617b75565b617b8c818484617b50565b505050565b5b81811015617baf57617ba45f82617b79565b600181019050617b92565b5050565b601f821115617bf457617bc581617a9f565b617bce84617ab1565b81016020851015617bdd578190505b617bf1617be985617ab1565b830182617b91565b50505b505050565b5f82821c905092915050565b5f617c145f1984600802617bf9565b1980831691505092915050565b5f617c2c8383617c05565b9150826002028217905092915050565b617c4582616ac1565b67ffffffffffffffff811115617c5e57617c5d616626565b5b617c688254617a6f565b617c73828285617bb3565b5f60209050601f831160018114617ca4575f8415617c92578287015190505b617c9c8582617c21565b865550617d03565b601f198416617cb286617a9f565b5f5b82811015617cd957848901518255600182019150602085019450602081019050617cb4565b86831015617cf65784890151617cf2601f891682617c05565b8355505b6001600288020188555050505b505050505050565b5f6060820190508181035f830152617d238186616ae9565b90508181036020830152617d378185616ae9565b90508181036040830152617d4b8184616ae9565b9050949350505050565b7f4e6f7420617574686f72697a65642072616e646f6d697a6572000000000000005f82015250565b5f617d89601983616acb565b9150617d9482617d55565b602082019050919050565b5f6020820190508181035f830152617db681617d7d565b9050919050565b7f566f74657220616464696e6720706572696f642068617320656e6465642e00005f82015250565b5f617df1601e83616acb565b9150617dfc82617dbd565b602082019050919050565b5f6020820190508181035f830152617e1e81617de5565b9050919050565b7f4e487b71000000000000000000000000000000000000000000000000000000005f52601160045260245ffd5b5f617e5c82616c23565b9150617e6783616c23565b9250828202617e7581616c23565b9150808214617e8757617e86617e25565b5b5092915050565b7f4d6178696d756d206e756d626572206f6620766f7465727320726561636865645f8201527f2e00000000000000000000000000000000000000000000000000000000000000602082015250565b5f617ee8602183616acb565b9150617ef382617e8e565b604082019050919050565b5f6020820190508181035f830152617f1581617edc565b9050919050565b7f496e636f72726563742062617463682073697a650000000000000000000000005f82015250565b5f617f50601483616acb565b9150617f5b82617f1c565b602082019050919050565b5f6020820190508181035f830152617f7d81617f44565b9050919050565b7f4e487b71000000000000000000000000000000000000000000000000000000005f52603260045260245ffd5b7f566f746572206861736820616c726561647920726567697374657265640000005f82015250565b5f617fe5601d83616acb565b9150617ff082617fb1565b602082019050919050565b5f6020820190508181035f83015261801281617fd9565b9050919050565b5f61802382616b21565b915060ff820361803657618035617e25565b5b600182019050919050565b7f496e76616c696420766f746572206164647265737300000000000000000000005f82015250565b5f618075601583616acb565b915061808082618041565b602082019050919050565b5f6020820190508181035f8301526180a281618069565b9050919050565b7f416464726573737320616c726561647920726567697374657265642e205265675f8201527f697374726172204552524f522100000000000000000000000000000000000000602082015250565b5f618103602d83616acb565b915061810e826180a9565b604082019050919050565b5f6020820190508181035f830152618130816180f7565b9050919050565b5f61814182616c23565b915061814c83616c23565b9250828201905063ffffffff81111561816857618167617e25565b5b92915050565b5f600a9050919050565b5f81905092915050565b5f819050919050565b61819481616562565b82525050565b5f6181a5838361818b565b60208301905092915050565b5f6181bf6020840184616589565b905092915050565b5f602082019050919050565b6181dc8161816e565b6181e68184618178565b92506181f182618182565b805f5b838110156182295761820682846181b1565b618210878261819a565b965061821b836181c7565b9250506001810190506181f4565b505050505050565b5f61823c82846181d3565b6101408201915081905092915050565b5f61826661826161825c84616c23565b617b1d565b61693d565b9050919050565b6182768161824c565b82525050565b5f60208201905061828f5f83018461826d565b92915050565b7f4e6f742061206d656d62657200000000000000000000000000000000000000005f82015250565b5f6182c9600c83616acb565b91506182d482618295565b602082019050919050565b5f6020820190508181035f8301526182f6816182bd565b9050919050565b7f566f7465206d757374206265202d312c20302c206f72203100000000000000005f82015250565b5f618331601883616acb565b915061833c826182fd565b602082019050919050565b5f6020820190508181035f83015261835e81618325565b9050919050565b7f4d617820766f74657320726561636865640000000000000000000000000000005f82015250565b5f618399601183616acb565b91506183a482618365565b602082019050919050565b5f6020820190508181035f8301526183c68161838d565b9050919050565b5f6183d78261693d565b91507fffffffffffffffffffffffffffffffffffffffffffffffffffffffffffffffff820361840957618408617e25565b5b600182019050919050565b5f61841e8261693d565b91505f82036184305761842f617e25565b5b600182039050919050565b5f618445826165db565b9150618450836165db565b92508282039050607f81137fffffffffffffffffffffffffffffffffffffffffffffffffffffffffffffff808212171561848d5761848c617e25565b5b92915050565b5f61849d8261703c565b91506184a88361703c565b92508282019050828112155f8312168382125f8412151617156184ce576184cd617e25565b5b92915050565b7f43616c6c206f6e6365206166746572205265666572656e64756d0000000000005f82015250565b5f618508601a83616acb565b9150618513826184d4565b602082019050919050565b5f6020820190508181035f830152618535816184fc565b9050919050565b7f496e76616c69642062696c6c20494400000000000000000000000000000000005f82015250565b5f618570600f83616acb565b915061857b8261853c565b602082019050919050565b5f6020820190508181035f83015261859d81618564565b9050919050565b7f4f6e6c79207468652070726f706f7365722063616e20776974686472617700005f82015250565b5f6185d8601e83616acb565b91506185e3826185a4565b602082019050919050565b5f6020820190508181035f830152618605816185cc565b9050919050565b7f42696c6c20616c726561647920657865637574656400000000000000000000005f82015250565b5f618640601583616acb565b915061864b8261860c565b602082019050919050565b5f6020820190508181035f83015261866d81618634565b9050919050565b7f42696c6c20616c72656164792077697468647261776e000000000000000000005f82015250565b5f6186a8601683616acb565b91506186b382618674565b602082019050919050565b5f6020820190508181035f8301526186d58161869c565b9050919050565b7f4f6e6c79206d656d626572732063616e20766f746500000000000000000000005f82015250565b5f618710601583616acb565b915061871b826186dc565b602082019050919050565b5f6020820190508181035f83015261873d81618704565b9050919050565b7f42696c6c2077697468647261776e0000000000000000000000000000000000005f82015250565b5f618778600e83616acb565b915061878382618744565b602082019050919050565b5f6020820190508181035f8301526187a58161876c565b9050919050565b7f416c726561647920766f746564000000000000000000000000000000000000005f82015250565b5f6187e0600d83616acb565b91506187eb826187ac565b602082019050919050565b5f6020820190508181035f83015261880d816187d4565b9050919050565b7f4f6e6c79206d656d626572732063616e2070726f706f73652062696c6c7300005f82015250565b5f618848601e83616acb565b915061885382618814565b602082019050919050565b5f6020820190508181035f8301526188758161883c565b9050919050565b7f50726f766973696f6e73207265717569726564000000000000000000000000005f82015250565b5f6188b0601383616acb565b91506188bb8261887c565b602082019050919050565b5f6020820190508181035f8301526188dd816188a4565b9050919050565b7f4d656d62657220616c72656164792068617320616e206163746976652062696c5f8201527f6c00000000000000000000000000000000000000000000000000000000000000602082015250565b5f61893e602183616acb565b9150618949826188e4565b604082019050919050565b5f6020820190508181035f83015261896b81618932565b9050919050565b5f82905092915050565b6189868383618972565b67ffffffffffffffff81111561899f5761899e616626565b5b6189a98254617a6f565b6189b4828285617bb3565b5f601f8311600181146189e1575f84156189cf578287013590505b6189d98582617c21565b865550618a40565b601f1984166189ef86617a9f565b5f5b82811015618a16578489013582556001820191506020850194506020810190506189f1565b86831015618a335784890135618a2f601f891682617c05565b8355505b6001600288020188555050505b50505050505050565b5f80fd5b5f80fd5b5f80fd5b5f82356001606003833603038112618a7057618a6f618a49565b5b80830191505092915050565b5f8135618a8881616999565b80915050919050565b5f815f1b9050919050565b5f7fffffffffffffffffffffffffffffffffffffffffffffffffffffffffffffffff618ac784618a91565b9350801983169250808416831791505092915050565b618ae682617b26565b618af9618af282617b47565b8354618a9c565b8255505050565b5f8135618b0c81616573565b80915050919050565b5f73ffffffffffffffffffffffffffffffffffffffff618b3484618a91565b9350801983169250808416831791505092915050565b5f618b64618b5f618b5a84616543565b617b1d565b616543565b9050919050565b5f618b7582618b4a565b9050919050565b5f618b8682618b6b565b9050919050565b5f819050919050565b618b9f82618b7c565b618bb2618bab82618b8d565b8354618b15565b8255505050565b5f8083356001602003843603038112618bd557618bd4618a49565b5b80840192508235915067ffffffffffffffff821115618bf757618bf6618a4d565b5b602083019250600182023603831315618c1357618c12618a51565b5b509250929050565b618c2683838361897c565b505050565b5f81015f830180618c3b81618a7c565b9050618c478184618add565b505050600181016020830180618c5c81618b00565b9050618c688184618b96565b5050506002810160408301618c7d8185618bb9565b618c88818386618c1b565b505050505050565b618c9a8282618c2b565b5050565b5f618ca98385616acb565b9350618cb68385846166ce565b618cbf83616616565b840190509392505050565b5f6020820190508181035f830152618ce3818486618c9e565b90509392505050565b7f57726f6e672070686173650000000000000000000000000000000000000000005f82015250565b5f618d20600b83616acb565b9150618d2b82618cec565b602082019050919050565b5f6020820190508181035f830152618d4d81618d14565b9050919050565b7f4465736372697074696f6e2072657175697265640000000000000000000000005f82015250565b5f618d88601483616acb565b9150618d9382618d54565b602082019050919050565b5f6020820190508181035f830152618db581618d7c565b9050919050565b7f636f6e737469747574696f6e54657874207265717569726564000000000000005f82015250565b5f618df0601983616acb565b9150618dfb82618dbc565b602082019050919050565b5f6020820190508181035f830152618e1d81618de4565b9050919050565b7f50726f706f736572206e616d65207265717569726564000000000000000000005f82015250565b5f618e58601683616acb565b9150618e6382618e24565b602082019050919050565b5f6020820190508181035f830152618e8581618e4c565b9050919050565b7f496e73756666696369656e74207375626d697373696f6e2066656500000000005f82015250565b5f618ec0601b83616acb565b9150618ecb82618e8c565b602082019050919050565b5f6020820190508181035f830152618eed81618eb4565b9050919050565b5f81905092915050565b5f618f0882616ac1565b618f128185618ef4565b9350618f22818560208601616adb565b80840191505092915050565b5f618f398287618efe565b9150618f458286618efe565b9150618f518285618efe565b9150618f5d8284618efe565b915081905095945050505050565b7f496e636f727265637420486173682100000000000000000000000000000000005f82015250565b5f618f9f600f83616acb565b9150618faa82618f6b565b602082019050919050565b5f6020820190508181035f830152618fcc81618f93565b9050919050565b5f618fdd8261693d565b9150618fe88361693d565b925082820390508181111561900057618fff617e25565b5b92915050565b7f496e76616c69642043616e6469646174652049440000000000000000000000005f82015250565b5f61903a601483616acb565b915061904582619006565b602082019050919050565b5f6020820190508181035f8301526190678161902e565b9050919050565b7f4e6f742061204d656d62657200000000000000000000000000000000000000005f82015250565b5f6190a2600c83616acb565b91506190ad8261906e565b602082019050919050565b5f6020820190508181035f8301526190cf81619096565b9050919050565b7f4e6f7420656e6f75676820617070726f76616c000000000000000000000000005f82015250565b5f61910a601383616acb565b9150619115826190d6565b602082019050919050565b5f6020820190508181035f830152619137816190fe565b9050919050565b7f566f746572206861736820616c726561647920726567697374657265642e00005f82015250565b5f619172601e83616acb565b915061917d8261913e565b602082019050919050565b5f6020820190508181035f83015261919f81619166565b9050919050565b5f6040820190506191b95f830185616ab2565b6191c6602083018461826d565b9392505050565b5f6191d782616b21565b91506191e283616b21565b92508282026191f081616b21565b915080821461920257619201617e25565b5b5092915050565b5f6192138261693d565b915061921e8361693d565b925082820190508082111561923657619235617e25565b5b92915050565b7f43757272656e74206c65616465722773207465726d206e6f742066696e6973685f8201527f6564000000000000000000000000000000000000000000000000000000000000602082015250565b5f619296602283616acb565b91506192a18261923c565b604082019050919050565b5f6020820190508181035f8301526192c38161928a565b9050919050565b7f4e6f7420696e20456c656374696f6e20706861736500000000000000000000005f82015250565b5f6192fe601583616acb565b9150619309826192ca565b602082019050919050565b5f6020820190508181035f83015261932b816192f2565b9050919050565b7f496e76616c696420766f746520636f756e7400000000000000000000000000005f82015250565b5f619366601283616acb565b915061937182619332565b602082019050919050565b5f6020820190508181035f8301526193938161935a565b9050919050565b7f416c726561647920766f74656420283e3129206f72206e6f74207265676973745f8201527f6572656420283029000000000000000000000000000000000000000000000000602082015250565b5f6193f4602883616acb565b91506193ff8261939a565b604082019050919050565b5f6020820190508181035f830152619421816193e8565b9050919050565b7f57726f6e672063616e64696461746520696e64657800000000000000000000005f82015250565b5f61945c601583616acb565b915061946782619428565b602082019050919050565b5f6020820190508181035f83015261948981619450565b9050919050565b7f526570657469746976652063616e64696461746520696e6465780000000000005f82015250565b5f6194c4601a83616acb565b91506194cf82619490565b602082019050919050565b5f6020820190508181035f8301526194f1816194b8565b9050919050565b7f4f6e6c79206d656d626572732063616e2070726f706f736500000000000000005f82015250565b5f61952c601883616acb565b9150619537826194f8565b602082019050919050565b5f6020820190508181035f83015261955981619520565b9050919050565b7f526174652063616e6e6f742065786365656420353025000000000000000000005f82015250565b5f619594601683616acb565b915061959f82619560565b602082019050919050565b5f6020820190508181035f8301526195c181619588565b9050919050565b5f6195d282616b21565b91506195dd83616b21565b9250828203905060ff8111156195f6576195f5617e25565b5b92915050565b5f61960682616b21565b915061961183616b21565b9250828201905060ff81111561962a57619629617e25565b5b92915050565b5f61963a82616b21565b91505f820361964c5761964b617e25565b5b600182039050919050565b5f60808201905061966a5f830187616946565b6196776020830186616b2d565b6196846040830185616946565b6196916060830184616b2d565b95945050505050565b7f4e487b71000000000000000000000000000000000000000000000000000000005f52601260045260245ffd5b5f6196d182616b21565b91506196dc83616b21565b9250826196ec576196eb61969a565b5b828204905092915050565b7f43616e6e6f74207374617274207265666572656e64756d2079657400000000005f82015250565b5f61972b601b83616acb565b9150619736826196f7565b602082019050919050565b5f6020820190508181035f8301526197588161971f565b9050919050565b7f416c7265616479207261746966696564206120636f6e737469747574696f6e005f82015250565b5f619793601f83616acb565b915061979e8261975f565b602082019050919050565b5f6020820190508181035f8301526197c081619787565b9050919050565b7f4e6f7420656e6f7567682070726f706f73616c730000000000000000000000005f82015250565b5f6197fb601483616acb565b9150619806826197c7565b602082019050919050565b5f6020820190508181035f830152619828816197ef565b9050919050565b7f4e6f7420656e6f75676820766f746572730000000000000000000000000000005f82015250565b5f619863601183616acb565b915061986e8261982f565b602082019050919050565b5f6020820190508181035f83015261989081619857565b9050919050565b7f4e6f7420696e205265666572656e64756d2074696d65000000000000000000005f82015250565b5f6198cb601683616acb565b91506198d682619897565b602082019050919050565b5f6020820190508181035f8301526198f8816198bf565b9050919050565b7f496e76616c69642070726f706f73616c206c69737400000000000000000000005f82015250565b5f619933601583616acb565b915061993e826198ff565b602082019050919050565b5f6020820190508181035f83015261996081619927565b9050919050565b7f566f746564206f72204e6f74207265676973746572656420656e6f75676820745f8201527f696d657300000000000000000000000000000000000000000000000000000000602082015250565b5f6199c1602483616acb565b91506199cc82619967565b604082019050919050565b5f6020820190508181035f8301526199ee816199b5565b9050919050565b7f496e76616c69642070726f706f73616c000000000000000000000000000000005f82015250565b5f619a29601083616acb565b9150619a34826199f5565b602082019050919050565b5f6020820190508181035f830152619a5681619a1d565b9050919050565b7f526570657469746976652070726f706f73616c496400000000000000000000005f82015250565b5f619a91601583616acb565b9150619a9c82619a5d565b602082019050919050565b5f6020820190508181035f830152619abe81619a85565b9050919050565b7f43616c6c20616674657220656c656374696f6e000000000000000000000000005f82015250565b5f619af9601383616acb565b9150619b0482619ac5565b602082019050919050565b5f6020820190508181035f830152619b2681619aed565b9050919050565b5f60329050919050565b5f81905092915050565b5f819050919050565b5f815f1c9050919050565b5f73ffffffffffffffffffffffffffffffffffffffff82169050919050565b5f619b86619b8183619b4a565b619b55565b9050919050565b5f619b988254619b74565b9050919050565b5f600182019050919050565b619bb481619b2d565b619bbe8184619b37565b9250619bc982619b41565b805f5b83811015619c0057619bdd82619b8d565b619be7878261819a565b9650619bf283619b9f565b925050600181019050619bcc565b505050505050565b5f619c138284619bab565b6106408201915081905092915050565b7f496e76616c696420636f6e737469747574696f6e2070726f706f73616c2049445f82015250565b5f619c57602083616acb565b9150619c6282619c23565b602082019050919050565b5f6020820190508181035f830152619c8481619c4b565b905091905056fea2646970667358221220f4554b1a133c8b10f952d3e4d08591e05141cb3fad0376c5760f96cdaedfd2c564736f6c634300081a0033",
			"opcodes": "PUSH1 0xA0 PUSH1 0x40 MSTORE PUSH0 PUSH1 0x39 PUSH0 PUSH2 0x100 EXP DUP2 SLOAD DUP2 PUSH1 0xFF MUL NOT AND SWAP1 DUP4 ISZERO ISZERO MUL OR SWAP1 SSTORE POP PUSH0 PUSH1 0xAD PUSH0 PUSH2 0x100 EXP DUP2 SLOAD DUP2 PUSH1 0xFF MUL NOT AND SWAP1 DUP4 PUSH1 0xFF AND MUL OR SWAP1 SSTORE POP CALLVALUE DUP1 ISZERO PUSH2 0x42 JUMPI PUSH0 DUP1 REVERT JUMPDEST POP PUSH1 0x40 MLOAD PUSH2 0xA39C CODESIZE SUB DUP1 PUSH2 0xA39C DUP4 CODECOPY DUP2 DUP2 ADD PUSH1 0x40 MSTORE DUP2 ADD SWAP1 PUSH2 0x64 SWAP2 SWAP1 PUSH2 0x32D JUMP JUMPDEST DUP2 PUSH0 DUP1 PUSH2 0x100 EXP DUP2 SLOAD DUP2 PUSH20 0xFFFFFFFFFFFFFFFFFFFFFFFFFFFFFFFFFFFFFFFF MUL NOT AND SWAP1 DUP4 PUSH20 0xFFFFFFFFFFFFFFFFFFFFFFFFFFFFFFFFFFFFFFFF AND MUL OR SWAP1 SSTORE POP TIMESTAMP PUSH1 0x80 DUP2 DUP2 MSTORE POP POP PUSH1 0x1 PUSH3 0x127500 PUSH1 0x80 MLOAD PUSH2 0xBE SWAP2 SWAP1 PUSH2 0x3BD JUMP JUMPDEST PUSH2 0xC8 SWAP2 SWAP1 PUSH2 0x3BD JUMP JUMPDEST PUSH1 0x1 DUP2 SWAP1 SSTORE POP PUSH0 PUSH1 0x3B PUSH1 0x1 DUP2 PUSH1 0x1 DUP2 SLOAD ADD DUP1 DUP3 SSTORE DUP1 SWAP2 POP POP SUB SWAP1 PUSH0 MSTORE PUSH1 0x20 PUSH0 KECCAK256 SWAP1 PUSH1 0x7 MUL ADD SWAP1 POP CALLER DUP2 PUSH0 ADD PUSH0 PUSH2 0x100 EXP DUP2 SLOAD DUP2 PUSH20 0xFFFFFFFFFFFFFFFFFFFFFFFFFFFFFFFFFFFFFFFF MUL NOT AND SWAP1 DUP4 PUSH20 0xFFFFFFFFFFFFFFFFFFFFFFFFFFFFFFFFFFFFFFFF AND MUL OR SWAP1 SSTORE POP DUP2 DUP2 PUSH1 0x1 ADD SWAP1 DUP2 PUSH2 0x141 SWAP2 SWAP1 PUSH2 0x5F4 JUMP JUMPDEST POP PUSH1 0x80 MLOAD DUP2 PUSH1 0x2 ADD DUP2 SWAP1 SSTORE POP PUSH1 0x80 MLOAD DUP2 PUSH1 0x3 ADD DUP2 SWAP1 SSTORE POP PUSH0 DUP2 PUSH1 0x4 ADD DUP2 SWAP1 SSTORE POP PUSH1 0x32 DUP2 PUSH1 0x5 ADD PUSH0 PUSH2 0x100 EXP DUP2 SLOAD DUP2 PUSH1 0xFF MUL NOT AND SWAP1 DUP4 PUSH1 0xFF AND MUL OR SWAP1 SSTORE POP POP POP POP PUSH2 0x6C3 JUMP JUMPDEST PUSH0 PUSH1 0x40 MLOAD SWAP1 POP SWAP1 JUMP JUMPDEST PUSH0 DUP1 REVERT JUMPDEST PUSH0 DUP1 REVERT JUMPDEST PUSH0 PUSH20 0xFFFFFFFFFFFFFFFFFFFFFFFFFFFFFFFFFFFFFFFF DUP3 AND SWAP1 POP SWAP2 SWAP1 POP JUMP JUMPDEST PUSH0 PUSH2 0x1C0 DUP3 PUSH2 0x197 JUMP JUMPDEST SWAP1 POP SWAP2 SWAP1 POP JUMP JUMPDEST PUSH2 0x1D0 DUP2 PUSH2 0x1B6 JUMP JUMPDEST DUP2 EQ PUSH2 0x1DA JUMPI PUSH0 DUP1 REVERT JUMPDEST POP JUMP JUMPDEST PUSH0 DUP2 MLOAD SWAP1 POP PUSH2 0x1EB DUP2 PUSH2 0x1C7 JUMP JUMPDEST SWAP3 SWAP2 POP POP JUMP JUMPDEST PUSH0 DUP1 REVERT JUMPDEST PUSH0 DUP1 REVERT JUMPDEST PUSH0 PUSH1 0x1F NOT PUSH1 0x1F DUP4 ADD AND SWAP1 POP SWAP2 SWAP1 POP JUMP JUMPDEST PUSH32 0x4E487B7100000000000000000000000000000000000000000000000000000000 PUSH0 MSTORE PUSH1 0x41 PUSH1 0x4 MSTORE PUSH1 0x24 PUSH0 REVERT JUMPDEST PUSH2 0x23F DUP3 PUSH2 0x1F9 JUMP JUMPDEST DUP2 ADD DUP2 DUP2 LT PUSH8 0xFFFFFFFFFFFFFFFF DUP3 GT OR ISZERO PUSH2 0x25E JUMPI PUSH2 0x25D PUSH2 0x209 JUMP JUMPDEST JUMPDEST DUP1 PUSH1 0x40 MSTORE POP POP POP JUMP JUMPDEST PUSH0 PUSH2 0x270 PUSH2 0x186 JUMP JUMPDEST SWAP1 POP PUSH2 0x27C DUP3 DUP3 PUSH2 0x236 JUMP JUMPDEST SWAP2 SWAP1 POP JUMP JUMPDEST PUSH0 PUSH8 0xFFFFFFFFFFFFFFFF DUP3 GT ISZERO PUSH2 0x29B JUMPI PUSH2 0x29A PUSH2 0x209 JUMP JUMPDEST JUMPDEST PUSH2 0x2A4 DUP3 PUSH2 0x1F9 JUMP JUMPDEST SWAP1 POP PUSH1 0x20 DUP2 ADD SWAP1 POP SWAP2 SWAP1 POP JUMP JUMPDEST DUP3 DUP2 DUP4 MCOPY PUSH0 DUP4 DUP4 ADD MSTORE POP POP POP JUMP JUMPDEST PUSH0 PUSH2 0x2D1 PUSH2 0x2CC DUP5 PUSH2 0x281 JUMP JUMPDEST PUSH2 0x267 JUMP JUMPDEST SWAP1 POP DUP3 DUP2 MSTORE PUSH1 0x20 DUP2 ADD DUP5 DUP5 DUP5 ADD GT ISZERO PUSH2 0x2ED JUMPI PUSH2 0x2EC PUSH2 0x1F5 JUMP JUMPDEST JUMPDEST PUSH2 0x2F8 DUP5 DUP3 DUP6 PUSH2 0x2B1 JUMP JUMPDEST POP SWAP4 SWAP3 POP POP POP JUMP JUMPDEST PUSH0 DUP3 PUSH1 0x1F DUP4 ADD SLT PUSH2 0x314 JUMPI PUSH2 0x313 PUSH2 0x1F1 JUMP JUMPDEST JUMPDEST DUP2 MLOAD PUSH2 0x324 DUP5 DUP3 PUSH1 0x20 DUP7 ADD PUSH2 0x2BF JUMP JUMPDEST SWAP2 POP POP SWAP3 SWAP2 POP POP JUMP JUMPDEST PUSH0 DUP1 PUSH1 0x40 DUP4 DUP6 SUB SLT ISZERO PUSH2 0x343 JUMPI PUSH2 0x342 PUSH2 0x18F JUMP JUMPDEST JUMPDEST PUSH0 PUSH2 0x350 DUP6 DUP3 DUP7 ADD PUSH2 0x1DD JUMP JUMPDEST SWAP3 POP POP PUSH1 0x20 DUP4 ADD MLOAD PUSH8 0xFFFFFFFFFFFFFFFF DUP2 GT ISZERO PUSH2 0x371 JUMPI PUSH2 0x370 PUSH2 0x193 JUMP JUMPDEST JUMPDEST PUSH2 0x37D DUP6 DUP3 DUP7 ADD PUSH2 0x300 JUMP JUMPDEST SWAP2 POP POP SWAP3 POP SWAP3 SWAP1 POP JUMP JUMPDEST PUSH0 DUP2 SWAP1 POP SWAP2 SWAP1 POP JUMP JUMPDEST PUSH32 0x4E487B7100000000000000000000000000000000000000000000000000000000 PUSH0 MSTORE PUSH1 0x11 PUSH1 0x4 MSTORE PUSH1 0x24 PUSH0 REVERT JUMPDEST PUSH0 PUSH2 0x3C7 DUP3 PUSH2 0x387 JUMP JUMPDEST SWAP2 POP PUSH2 0x3D2 DUP4 PUSH2 0x387 JUMP JUMPDEST SWAP3 POP DUP3 DUP3 ADD SWAP1 POP DUP1 DUP3 GT ISZERO PUSH2 0x3EA JUMPI PUSH2 0x3E9 PUSH2 0x390 JUMP JUMPDEST JUMPDEST SWAP3 SWAP2 POP POP JUMP JUMPDEST PUSH0 DUP2 MLOAD SWAP1 POP SWAP2 SWAP1 POP JUMP JUMPDEST PUSH32 0x4E487B7100000000000000000000000000000000000000000000000000000000 PUSH0 MSTORE PUSH1 0x22 PUSH1 0x4 MSTORE PUSH1 0x24 PUSH0 REVERT JUMPDEST PUSH0 PUSH1 0x2 DUP3 DIV SWAP1 POP PUSH1 0x1 DUP3 AND DUP1 PUSH2 0x43E JUMPI PUSH1 0x7F DUP3 AND SWAP2 POP JUMPDEST PUSH1 0x20 DUP3 LT DUP2 SUB PUSH2 0x451 JUMPI PUSH2 0x450 PUSH2 0x3FA JUMP JUMPDEST JUMPDEST POP SWAP2 SWAP1 POP JUMP JUMPDEST PUSH0 DUP2 SWAP1 POP DUP2 PUSH0 MSTORE PUSH1 0x20 PUSH0 KECCAK256 SWAP1 POP SWAP2 SWAP1 POP JUMP JUMPDEST PUSH0 PUSH1 0x20 PUSH1 0x1F DUP4 ADD DIV SWAP1 POP SWAP2 SWAP1 POP JUMP JUMPDEST PUSH0 DUP3 DUP3 SHL SWAP1 POP SWAP3 SWAP2 POP POP JUMP JUMPDEST PUSH0 PUSH1 0x8 DUP4 MUL PUSH2 0x4B3 PUSH32 0xFFFFFFFFFFFFFFFFFFFFFFFFFFFFFFFFFFFFFFFFFFFFFFFFFFFFFFFFFFFFFFFF DUP3 PUSH2 0x478 JUMP JUMPDEST PUSH2 0x4BD DUP7 DUP4 PUSH2 0x478 JUMP JUMPDEST SWAP6 POP DUP1 NOT DUP5 AND SWAP4 POP DUP1 DUP7 AND DUP5 OR SWAP3 POP POP POP SWAP4 SWAP3 POP POP POP JUMP JUMPDEST PUSH0 DUP2 SWAP1 POP SWAP2 SWAP1 POP JUMP JUMPDEST PUSH0 PUSH2 0x4F8 PUSH2 0x4F3 PUSH2 0x4EE DUP5 PUSH2 0x387 JUMP JUMPDEST PUSH2 0x4D5 JUMP JUMPDEST PUSH2 0x387 JUMP JUMPDEST SWAP1 POP SWAP2 SWAP1 POP JUMP JUMPDEST PUSH0 DUP2 SWAP1 POP SWAP2 SWAP1 POP JUMP JUMPDEST PUSH2 0x511 DUP4 PUSH2 0x4DE JUMP JUMPDEST PUSH2 0x525 PUSH2 0x51D DUP3 PUSH2 0x4FF JUMP JUMPDEST DUP5 DUP5 SLOAD PUSH2 0x484 JUMP JUMPDEST DUP3 SSTORE POP POP POP POP JUMP JUMPDEST PUSH0 SWAP1 JUMP JUMPDEST PUSH2 0x539 PUSH2 0x52D JUMP JUMPDEST PUSH2 0x544 DUP2 DUP5 DUP5 PUSH2 0x508 JUMP JUMPDEST POP POP POP JUMP JUMPDEST JUMPDEST DUP2 DUP2 LT ISZERO PUSH2 0x567 JUMPI PUSH2 0x55C PUSH0 DUP3 PUSH2 0x531 JUMP JUMPDEST PUSH1 0x1 DUP2 ADD SWAP1 POP PUSH2 0x54A JUMP JUMPDEST POP POP JUMP JUMPDEST PUSH1 0x1F DUP3 GT ISZERO PUSH2 0x5AC JUMPI PUSH2 0x57D DUP2 PUSH2 0x457 JUMP JUMPDEST PUSH2 0x586 DUP5 PUSH2 0x469 JUMP JUMPDEST DUP2 ADD PUSH1 0x20 DUP6 LT ISZERO PUSH2 0x595 JUMPI DUP2 SWAP1 POP JUMPDEST PUSH2 0x5A9 PUSH2 0x5A1 DUP6 PUSH2 0x469 JUMP JUMPDEST DUP4 ADD DUP3 PUSH2 0x549 JUMP JUMPDEST POP POP JUMPDEST POP POP POP JUMP JUMPDEST PUSH0 DUP3 DUP3 SHR SWAP1 POP SWAP3 SWAP2 POP POP JUMP JUMPDEST PUSH0 PUSH2 0x5CC PUSH0 NOT DUP5 PUSH1 0x8 MUL PUSH2 0x5B1 JUMP JUMPDEST NOT DUP1 DUP4 AND SWAP2 POP POP SWAP3 SWAP2 POP POP JUMP JUMPDEST PUSH0 PUSH2 0x5E4 DUP4 DUP4 PUSH2 0x5BD JUMP JUMPDEST SWAP2 POP DUP3 PUSH1 0x2 MUL DUP3 OR SWAP1 POP SWAP3 SWAP2 POP POP JUMP JUMPDEST PUSH2 0x5FD DUP3 PUSH2 0x3F0 JUMP JUMPDEST PUSH8 0xFFFFFFFFFFFFFFFF DUP2 GT ISZERO PUSH2 0x616 JUMPI PUSH2 0x615 PUSH2 0x209 JUMP JUMPDEST JUMPDEST PUSH2 0x620 DUP3 SLOAD PUSH2 0x427 JUMP JUMPDEST PUSH2 0x62B DUP3 DUP3 DUP6 PUSH2 0x56B JUMP JUMPDEST PUSH0 PUSH1 0x20 SWAP1 POP PUSH1 0x1F DUP4 GT PUSH1 0x1 DUP2 EQ PUSH2 0x65C JUMPI PUSH0 DUP5 ISZERO PUSH2 0x64A JUMPI DUP3 DUP8 ADD MLOAD SWAP1 POP JUMPDEST PUSH2 0x654 DUP6 DUP3 PUSH2 0x5D9 JUMP JUMPDEST DUP7 SSTORE POP PUSH2 0x6BB JUMP JUMPDEST PUSH1 0x1F NOT DUP5 AND PUSH2 0x66A DUP7 PUSH2 0x457 JUMP JUMPDEST PUSH0 JUMPDEST DUP3 DUP2 LT ISZERO PUSH2 0x691 JUMPI DUP5 DUP10 ADD MLOAD DUP3 SSTORE PUSH1 0x1 DUP3 ADD SWAP2 POP PUSH1 0x20 DUP6 ADD SWAP5 POP PUSH1 0x20 DUP2 ADD SWAP1 POP PUSH2 0x66C JUMP JUMPDEST DUP7 DUP4 LT ISZERO PUSH2 0x6AE JUMPI DUP5 DUP10 ADD MLOAD PUSH2 0x6AA PUSH1 0x1F DUP10 AND DUP3 PUSH2 0x5BD JUMP JUMPDEST DUP4 SSTORE POP JUMPDEST PUSH1 0x1 PUSH1 0x2 DUP9 MUL ADD DUP9 SSTORE POP POP POP JUMPDEST POP POP POP POP POP POP JUMP JUMPDEST PUSH1 0x80 MLOAD PUSH2 0x9CC1 PUSH2 0x6DB PUSH0 CODECOPY PUSH0 PUSH2 0x388F ADD MSTORE PUSH2 0x9CC1 PUSH0 RETURN INVALID PUSH1 0x80 PUSH1 0x40 MSTORE PUSH1 0x4 CALLDATASIZE LT PUSH2 0x3CD JUMPI PUSH0 CALLDATALOAD PUSH1 0xE0 SHR DUP1 PUSH4 0x7F4241E7 GT PUSH2 0x1FC JUMPI DUP1 PUSH4 0xBEB54795 GT PUSH2 0x117 JUMPI DUP1 PUSH4 0xE42A54C4 GT PUSH2 0xAA JUMPI DUP1 PUSH4 0xEEDB2D28 GT PUSH2 0x79 JUMPI DUP1 PUSH4 0xEEDB2D28 EQ PUSH2 0xED8 JUMPI DUP1 PUSH4 0xF10FB584 EQ PUSH2 0xF02 JUMPI DUP1 PUSH4 0xF33E9573 EQ PUSH2 0xF2C JUMPI DUP1 PUSH4 0xF3A4ABA9 EQ PUSH2 0xF69 JUMPI DUP1 PUSH4 0xF9F8BDB7 EQ PUSH2 0xFA5 JUMPI PUSH2 0x3CD JUMP JUMPDEST DUP1 PUSH4 0xE42A54C4 EQ PUSH2 0xE06 JUMPI DUP1 PUSH4 0xE965B7C9 EQ PUSH2 0xE30 JUMPI DUP1 PUSH4 0xEAB536FC EQ PUSH2 0xE72 JUMPI DUP1 PUSH4 0xECCF1F10 EQ PUSH2 0xEAE JUMPI PUSH2 0x3CD JUMP JUMPDEST DUP1 PUSH4 0xD90D7CD8 GT PUSH2 0xE6 JUMPI DUP1 PUSH4 0xD90D7CD8 EQ PUSH2 0xD3A JUMPI DUP1 PUSH4 0xD9688F03 EQ PUSH2 0xD76 JUMPI DUP1 PUSH4 0xDA35C664 EQ PUSH2 0xDB2 JUMPI DUP1 PUSH4 0xE292BF16 EQ PUSH2 0xDDC JUMPI PUSH2 0x3CD JUMP JUMPDEST DUP1 PUSH4 0xBEB54795 EQ PUSH2 0xC94 JUMPI DUP1 PUSH4 0xC1B13157 EQ PUSH2 0xCBE JUMPI DUP1 PUSH4 0xCE7EA161 EQ PUSH2 0xCE6 JUMPI DUP1 PUSH4 0xD1791AE0 EQ PUSH2 0xD10 JUMPI PUSH2 0x3CD JUMP JUMPDEST DUP1 PUSH4 0xA5F5B1BF GT PUSH2 0x18F JUMPI DUP1 PUSH4 0xB5BA9795 GT PUSH2 0x15E JUMPI DUP1 PUSH4 0xB5BA9795 EQ PUSH2 0xC02 JUMPI DUP1 PUSH4 0xB85C2292 EQ PUSH2 0xC2C JUMPI DUP1 PUSH4 0xBDC8E7B3 EQ PUSH2 0xC56 JUMPI DUP1 PUSH4 0xBE003EE6 EQ PUSH2 0xC7E JUMPI PUSH2 0x3CD JUMP JUMPDEST DUP1 PUSH4 0xA5F5B1BF EQ PUSH2 0xB5E JUMPI DUP1 PUSH4 0xA6A5AD12 EQ PUSH2 0xB74 JUMPI DUP1 PUSH4 0xB0FEB260 EQ PUSH2 0xB9C JUMPI DUP1 PUSH4 0xB13C744B EQ PUSH2 0xBC6 JUMPI PUSH2 0x3CD JUMP JUMPDEST DUP1 PUSH4 0x99B0D39C GT PUSH2 0x1CB JUMPI DUP1 PUSH4 0x99B0D39C EQ PUSH2 0xA93 JUMPI DUP1 PUSH4 0x9A741327 EQ PUSH2 0xABB JUMPI DUP1 PUSH4 0x9DC99455 EQ PUSH2 0xAF7 JUMPI DUP1 PUSH4 0xA3A40EA5 EQ PUSH2 0xB34 JUMPI PUSH2 0x3CD JUMP JUMPDEST DUP1 PUSH4 0x7F4241E7 EQ PUSH2 0x9E7 JUMPI DUP1 PUSH4 0x8E0CA5AD EQ PUSH2 0xA23 JUMPI DUP1 PUSH4 0x8F3218DF EQ PUSH2 0xA5F JUMPI DUP1 PUSH4 0x97DFFC61 EQ PUSH2 0xA89 JUMPI PUSH2 0x3CD JUMP JUMPDEST DUP1 PUSH4 0x49066E79 GT PUSH2 0x2EC JUMPI DUP1 PUSH4 0x5E8523A9 GT PUSH2 0x27F JUMPI DUP1 PUSH4 0x78E3EF20 GT PUSH2 0x24E JUMPI DUP1 PUSH4 0x78E3EF20 EQ PUSH2 0x92D JUMPI DUP1 PUSH4 0x78E97925 EQ PUSH2 0x969 JUMPI DUP1 PUSH4 0x7D48536D EQ PUSH2 0x993 JUMPI DUP1 PUSH4 0x7DA4CE83 EQ PUSH2 0x9BD JUMPI PUSH2 0x3CD JUMP JUMPDEST DUP1 PUSH4 0x5E8523A9 EQ PUSH2 0x85C JUMPI DUP1 PUSH4 0x5F02B56D EQ PUSH2 0x898 JUMPI DUP1 PUSH4 0x6BECC9F3 EQ PUSH2 0x8B4 JUMPI DUP1 PUSH4 0x70F67CFE EQ PUSH2 0x8F1 JUMPI PUSH2 0x3CD JUMP JUMPDEST DUP1 PUSH4 0x54C17527 GT PUSH2 0x2BB JUMPI DUP1 PUSH4 0x54C17527 EQ PUSH2 0x7A4 JUMPI DUP1 PUSH4 0x58E1CBEE EQ PUSH2 0x7CE JUMPI DUP1 PUSH4 0x59297DBF EQ PUSH2 0x7F6 JUMPI DUP1 PUSH4 0x5BD03E9D EQ PUSH2 0x820 JUMPI PUSH2 0x3CD JUMP JUMPDEST DUP1 PUSH4 0x49066E79 EQ PUSH2 0x6EA JUMPI DUP1 PUSH4 0x4EBEB109 EQ PUSH2 0x714 JUMPI DUP1 PUSH4 0x5004E24A EQ PUSH2 0x73E JUMPI DUP1 PUSH4 0x52F61B05 EQ PUSH2 0x768 JUMPI PUSH2 0x3CD JUMP JUMPDEST DUP1 PUSH4 0x28BDCDE8 GT PUSH2 0x364 JUMPI DUP1 PUSH4 0x3DEF77B7 GT PUSH2 0x333 JUMPI DUP1 PUSH4 0x3DEF77B7 EQ PUSH2 0x628 JUMPI DUP1 PUSH4 0x428027AC EQ PUSH2 0x652 JUMPI DUP1 PUSH4 0x452D32BB EQ PUSH2 0x695 JUMPI DUP1 PUSH4 0x47F7B722 EQ PUSH2 0x6C0 JUMPI PUSH2 0x3CD JUMP JUMPDEST DUP1 PUSH4 0x28BDCDE8 EQ PUSH2 0x559 JUMPI DUP1 PUSH4 0x29C83BE1 EQ PUSH2 0x59A JUMPI DUP1 PUSH4 0x30814200 EQ PUSH2 0x5C2 JUMPI DUP1 PUSH4 0x3590C0FD EQ PUSH2 0x5EC JUMPI PUSH2 0x3CD JUMP JUMPDEST DUP1 PUSH4 0x16392372 GT PUSH2 0x3A0 JUMPI DUP1 PUSH4 0x16392372 EQ PUSH2 0x48F JUMPI DUP1 PUSH4 0x198CCD2C EQ PUSH2 0x4B9 JUMPI DUP1 PUSH4 0x2190BEE8 EQ PUSH2 0x4F5 JUMPI DUP1 PUSH4 0x26C29449 EQ PUSH2 0x531 JUMPI PUSH2 0x3CD JUMP JUMPDEST DUP1 PUSH4 0x71A3474 EQ PUSH2 0x3D1 JUMPI DUP1 PUSH4 0x79DDD11 EQ PUSH2 0x40D JUMPI DUP1 PUSH4 0x89E35B8 EQ PUSH2 0x429 JUMPI DUP1 PUSH4 0x8EC6A19 EQ PUSH2 0x453 JUMPI JUMPDEST PUSH0 DUP1 REVERT JUMPDEST CALLVALUE DUP1 ISZERO PUSH2 0x3DC JUMPI PUSH0 DUP1 REVERT JUMPDEST POP PUSH2 0x3F7 PUSH1 0x4 DUP1 CALLDATASIZE SUB DUP2 ADD SWAP1 PUSH2 0x3F2 SWAP2 SWAP1 PUSH2 0x659D JUMP JUMPDEST PUSH2 0xFCF JUMP JUMPDEST PUSH1 0x40 MLOAD PUSH2 0x404 SWAP2 SWAP1 PUSH2 0x65F5 JUMP JUMPDEST PUSH1 0x40 MLOAD DUP1 SWAP2 SUB SWAP1 RETURN JUMPDEST PUSH2 0x427 PUSH1 0x4 DUP1 CALLDATASIZE SUB DUP2 ADD SWAP1 PUSH2 0x422 SWAP2 SWAP1 PUSH2 0x674A JUMP JUMPDEST PUSH2 0xFF8 JUMP JUMPDEST STOP JUMPDEST CALLVALUE DUP1 ISZERO PUSH2 0x434 JUMPI PUSH0 DUP1 REVERT JUMPDEST POP PUSH2 0x43D PUSH2 0x143C JUMP JUMPDEST PUSH1 0x40 MLOAD PUSH2 0x44A SWAP2 SWAP1 PUSH2 0x6808 JUMP JUMPDEST PUSH1 0x40 MLOAD DUP1 SWAP2 SUB SWAP1 RETURN JUMPDEST CALLVALUE DUP1 ISZERO PUSH2 0x45E JUMPI PUSH0 DUP1 REVERT JUMPDEST POP PUSH2 0x479 PUSH1 0x4 DUP1 CALLDATASIZE SUB DUP2 ADD SWAP1 PUSH2 0x474 SWAP2 SWAP1 PUSH2 0x6854 JUMP JUMPDEST PUSH2 0x144E JUMP JUMPDEST PUSH1 0x40 MLOAD PUSH2 0x486 SWAP2 SWAP1 PUSH2 0x6924 JUMP JUMPDEST PUSH1 0x40 MLOAD DUP1 SWAP2 SUB SWAP1 RETURN JUMPDEST CALLVALUE DUP1 ISZERO PUSH2 0x49A JUMPI PUSH0 DUP1 REVERT JUMPDEST POP PUSH2 0x4A3 PUSH2 0x14DF JUMP JUMPDEST PUSH1 0x40 MLOAD PUSH2 0x4B0 SWAP2 SWAP1 PUSH2 0x6955 JUMP JUMPDEST PUSH1 0x40 MLOAD DUP1 SWAP2 SUB SWAP1 RETURN JUMPDEST CALLVALUE DUP1 ISZERO PUSH2 0x4C4 JUMPI PUSH0 DUP1 REVERT JUMPDEST POP PUSH2 0x4DF PUSH1 0x4 DUP1 CALLDATASIZE SUB DUP2 ADD SWAP1 PUSH2 0x4DA SWAP2 SWAP1 PUSH2 0x696E JUMP JUMPDEST PUSH2 0x14E5 JUMP JUMPDEST PUSH1 0x40 MLOAD PUSH2 0x4EC SWAP2 SWAP1 PUSH2 0x6955 JUMP JUMPDEST PUSH1 0x40 MLOAD DUP1 SWAP2 SUB SWAP1 RETURN JUMPDEST CALLVALUE DUP1 ISZERO PUSH2 0x500 JUMPI PUSH0 DUP1 REVERT JUMPDEST POP PUSH2 0x51B PUSH1 0x4 DUP1 CALLDATASIZE SUB DUP2 ADD SWAP1 PUSH2 0x516 SWAP2 SWAP1 PUSH2 0x69C3 JUMP JUMPDEST PUSH2 0x14FA JUMP JUMPDEST PUSH1 0x40 MLOAD PUSH2 0x528 SWAP2 SWAP1 PUSH2 0x6955 JUMP JUMPDEST PUSH1 0x40 MLOAD DUP1 SWAP2 SUB SWAP1 RETURN JUMPDEST CALLVALUE DUP1 ISZERO PUSH2 0x53C JUMPI PUSH0 DUP1 REVERT JUMPDEST POP PUSH2 0x557 PUSH1 0x4 DUP1 CALLDATASIZE SUB DUP2 ADD SWAP1 PUSH2 0x552 SWAP2 SWAP1 PUSH2 0x6A47 JUMP JUMPDEST PUSH2 0x151A JUMP JUMPDEST STOP JUMPDEST CALLVALUE DUP1 ISZERO PUSH2 0x564 JUMPI PUSH0 DUP1 REVERT JUMPDEST POP PUSH2 0x57F PUSH1 0x4 DUP1 CALLDATASIZE SUB DUP2 ADD SWAP1 PUSH2 0x57A SWAP2 SWAP1 PUSH2 0x6A87 JUMP JUMPDEST PUSH2 0x1A33 JUMP JUMPDEST PUSH1 0x40 MLOAD PUSH2 0x591 SWAP7 SWAP6 SWAP5 SWAP4 SWAP3 SWAP2 SWAP1 PUSH2 0x6B3C JUMP JUMPDEST PUSH1 0x40 MLOAD DUP1 SWAP2 SUB SWAP1 RETURN JUMPDEST CALLVALUE DUP1 ISZERO PUSH2 0x5A5 JUMPI PUSH0 DUP1 REVERT JUMPDEST POP PUSH2 0x5C0 PUSH1 0x4 DUP1 CALLDATASIZE SUB DUP2 ADD SWAP1 PUSH2 0x5BB SWAP2 SWAP1 PUSH2 0x6BCC JUMP JUMPDEST PUSH2 0x1B2B JUMP JUMPDEST STOP JUMPDEST CALLVALUE DUP1 ISZERO PUSH2 0x5CD JUMPI PUSH0 DUP1 REVERT JUMPDEST POP PUSH2 0x5D6 PUSH2 0x1F05 JUMP JUMPDEST PUSH1 0x40 MLOAD PUSH2 0x5E3 SWAP2 SWAP1 PUSH2 0x6C0A JUMP JUMPDEST PUSH1 0x40 MLOAD DUP1 SWAP2 SUB SWAP1 RETURN JUMPDEST CALLVALUE DUP1 ISZERO PUSH2 0x5F7 JUMPI PUSH0 DUP1 REVERT JUMPDEST POP PUSH2 0x612 PUSH1 0x4 DUP1 CALLDATASIZE SUB DUP2 ADD SWAP1 PUSH2 0x60D SWAP2 SWAP1 PUSH2 0x696E JUMP JUMPDEST PUSH2 0x1F0A JUMP JUMPDEST PUSH1 0x40 MLOAD PUSH2 0x61F SWAP2 SWAP1 PUSH2 0x6955 JUMP JUMPDEST PUSH1 0x40 MLOAD DUP1 SWAP2 SUB SWAP1 RETURN JUMPDEST CALLVALUE DUP1 ISZERO PUSH2 0x633 JUMPI PUSH0 DUP1 REVERT JUMPDEST POP PUSH2 0x63C PUSH2 0x1F1F JUMP JUMPDEST PUSH1 0x40 MLOAD PUSH2 0x649 SWAP2 SWAP1 PUSH2 0x6C41 JUMP JUMPDEST PUSH1 0x40 MLOAD DUP1 SWAP2 SUB SWAP1 RETURN JUMPDEST CALLVALUE DUP1 ISZERO PUSH2 0x65D JUMPI PUSH0 DUP1 REVERT JUMPDEST POP PUSH2 0x678 PUSH1 0x4 DUP1 CALLDATASIZE SUB DUP2 ADD SWAP1 PUSH2 0x673 SWAP2 SWAP1 PUSH2 0x6A87 JUMP JUMPDEST PUSH2 0x1F25 JUMP JUMPDEST PUSH1 0x40 MLOAD PUSH2 0x68C SWAP9 SWAP8 SWAP7 SWAP6 SWAP5 SWAP4 SWAP3 SWAP2 SWAP1 PUSH2 0x6C69 JUMP JUMPDEST PUSH1 0x40 MLOAD DUP1 SWAP2 SUB SWAP1 RETURN JUMPDEST CALLVALUE DUP1 ISZERO PUSH2 0x6A0 JUMPI PUSH0 DUP1 REVERT JUMPDEST POP PUSH2 0x6A9 PUSH2 0x2216 JUMP JUMPDEST PUSH1 0x40 MLOAD PUSH2 0x6B7 SWAP3 SWAP2 SWAP1 PUSH2 0x6E37 JUMP JUMPDEST PUSH1 0x40 MLOAD DUP1 SWAP2 SUB SWAP1 RETURN JUMPDEST CALLVALUE DUP1 ISZERO PUSH2 0x6CB JUMPI PUSH0 DUP1 REVERT JUMPDEST POP PUSH2 0x6D4 PUSH2 0x2671 JUMP JUMPDEST PUSH1 0x40 MLOAD PUSH2 0x6E1 SWAP2 SWAP1 PUSH2 0x6955 JUMP JUMPDEST PUSH1 0x40 MLOAD DUP1 SWAP2 SUB SWAP1 RETURN JUMPDEST CALLVALUE DUP1 ISZERO PUSH2 0x6F5 JUMPI PUSH0 DUP1 REVERT JUMPDEST POP PUSH2 0x6FE PUSH2 0x2678 JUMP JUMPDEST PUSH1 0x40 MLOAD PUSH2 0x70B SWAP2 SWAP1 PUSH2 0x6955 JUMP JUMPDEST PUSH1 0x40 MLOAD DUP1 SWAP2 SUB SWAP1 RETURN JUMPDEST CALLVALUE DUP1 ISZERO PUSH2 0x71F JUMPI PUSH0 DUP1 REVERT JUMPDEST POP PUSH2 0x728 PUSH2 0x267F JUMP JUMPDEST PUSH1 0x40 MLOAD PUSH2 0x735 SWAP2 SWAP1 PUSH2 0x6955 JUMP JUMPDEST PUSH1 0x40 MLOAD DUP1 SWAP2 SUB SWAP1 RETURN JUMPDEST CALLVALUE DUP1 ISZERO PUSH2 0x749 JUMPI PUSH0 DUP1 REVERT JUMPDEST POP PUSH2 0x752 PUSH2 0x268A JUMP JUMPDEST PUSH1 0x40 MLOAD PUSH2 0x75F SWAP2 SWAP1 PUSH2 0x6955 JUMP JUMPDEST PUSH1 0x40 MLOAD DUP1 SWAP2 SUB SWAP1 RETURN JUMPDEST CALLVALUE DUP1 ISZERO PUSH2 0x773 JUMPI PUSH0 DUP1 REVERT JUMPDEST POP PUSH2 0x78E PUSH1 0x4 DUP1 CALLDATASIZE SUB DUP2 ADD SWAP1 PUSH2 0x789 SWAP2 SWAP1 PUSH2 0x6A87 JUMP JUMPDEST PUSH2 0x2691 JUMP JUMPDEST PUSH1 0x40 MLOAD PUSH2 0x79B SWAP2 SWAP1 PUSH2 0x701C JUMP JUMPDEST PUSH1 0x40 MLOAD DUP1 SWAP2 SUB SWAP1 RETURN JUMPDEST CALLVALUE DUP1 ISZERO PUSH2 0x7AF JUMPI PUSH0 DUP1 REVERT JUMPDEST POP PUSH2 0x7B8 PUSH2 0x297A JUMP JUMPDEST PUSH1 0x40 MLOAD PUSH2 0x7C5 SWAP2 SWAP1 PUSH2 0x7054 JUMP JUMPDEST PUSH1 0x40 MLOAD DUP1 SWAP2 SUB SWAP1 RETURN JUMPDEST CALLVALUE DUP1 ISZERO PUSH2 0x7D9 JUMPI PUSH0 DUP1 REVERT JUMPDEST POP PUSH2 0x7F4 PUSH1 0x4 DUP1 CALLDATASIZE SUB DUP2 ADD SWAP1 PUSH2 0x7EF SWAP2 SWAP1 PUSH2 0x6A87 JUMP JUMPDEST PUSH2 0x297F JUMP JUMPDEST STOP JUMPDEST CALLVALUE DUP1 ISZERO PUSH2 0x801 JUMPI PUSH0 DUP1 REVERT JUMPDEST POP PUSH2 0x80A PUSH2 0x2B81 JUMP JUMPDEST PUSH1 0x40 MLOAD PUSH2 0x817 SWAP2 SWAP1 PUSH2 0x6955 JUMP JUMPDEST PUSH1 0x40 MLOAD DUP1 SWAP2 SUB SWAP1 RETURN JUMPDEST CALLVALUE DUP1 ISZERO PUSH2 0x82B JUMPI PUSH0 DUP1 REVERT JUMPDEST POP PUSH2 0x846 PUSH1 0x4 DUP1 CALLDATASIZE SUB DUP2 ADD SWAP1 PUSH2 0x841 SWAP2 SWAP1 PUSH2 0x6A87 JUMP JUMPDEST PUSH2 0x2B88 JUMP JUMPDEST PUSH1 0x40 MLOAD PUSH2 0x853 SWAP2 SWAP1 PUSH2 0x6C0A JUMP JUMPDEST PUSH1 0x40 MLOAD DUP1 SWAP2 SUB SWAP1 RETURN JUMPDEST CALLVALUE DUP1 ISZERO PUSH2 0x867 JUMPI PUSH0 DUP1 REVERT JUMPDEST POP PUSH2 0x882 PUSH1 0x4 DUP1 CALLDATASIZE SUB DUP2 ADD SWAP1 PUSH2 0x87D SWAP2 SWAP1 PUSH2 0x711B JUMP JUMPDEST PUSH2 0x2F0D JUMP JUMPDEST PUSH1 0x40 MLOAD PUSH2 0x88F SWAP2 SWAP1 PUSH2 0x6955 JUMP JUMPDEST PUSH1 0x40 MLOAD DUP1 SWAP2 SUB SWAP1 RETURN JUMPDEST PUSH2 0x8B2 PUSH1 0x4 DUP1 CALLDATASIZE SUB DUP2 ADD SWAP1 PUSH2 0x8AD SWAP2 SWAP1 PUSH2 0x72F4 JUMP JUMPDEST PUSH2 0x3226 JUMP JUMPDEST STOP JUMPDEST CALLVALUE DUP1 ISZERO PUSH2 0x8BF JUMPI PUSH0 DUP1 REVERT JUMPDEST POP PUSH2 0x8DA PUSH1 0x4 DUP1 CALLDATASIZE SUB DUP2 ADD SWAP1 PUSH2 0x8D5 SWAP2 SWAP1 PUSH2 0x69C3 JUMP JUMPDEST PUSH2 0x354D JUMP JUMPDEST PUSH1 0x40 MLOAD PUSH2 0x8E8 SWAP3 SWAP2 SWAP1 PUSH2 0x733B JUMP JUMPDEST PUSH1 0x40 MLOAD DUP1 SWAP2 SUB SWAP1 RETURN JUMPDEST CALLVALUE DUP1 ISZERO PUSH2 0x8FC JUMPI PUSH0 DUP1 REVERT JUMPDEST POP PUSH2 0x917 PUSH1 0x4 DUP1 CALLDATASIZE SUB DUP2 ADD SWAP1 PUSH2 0x912 SWAP2 SWAP1 PUSH2 0x6A87 JUMP JUMPDEST PUSH2 0x3587 JUMP JUMPDEST PUSH1 0x40 MLOAD PUSH2 0x924 SWAP2 SWAP1 PUSH2 0x7418 JUMP JUMPDEST PUSH1 0x40 MLOAD DUP1 SWAP2 SUB SWAP1 RETURN JUMPDEST CALLVALUE DUP1 ISZERO PUSH2 0x938 JUMPI PUSH0 DUP1 REVERT JUMPDEST POP PUSH2 0x953 PUSH1 0x4 DUP1 CALLDATASIZE SUB DUP2 ADD SWAP1 PUSH2 0x94E SWAP2 SWAP1 PUSH2 0x696E JUMP JUMPDEST PUSH2 0x3847 JUMP JUMPDEST PUSH1 0x40 MLOAD PUSH2 0x960 SWAP2 SWAP1 PUSH2 0x6955 JUMP JUMPDEST PUSH1 0x40 MLOAD DUP1 SWAP2 SUB SWAP1 RETURN JUMPDEST CALLVALUE DUP1 ISZERO PUSH2 0x974 JUMPI PUSH0 DUP1 REVERT JUMPDEST POP PUSH2 0x97D PUSH2 0x388D JUMP JUMPDEST PUSH1 0x40 MLOAD PUSH2 0x98A SWAP2 SWAP1 PUSH2 0x6955 JUMP JUMPDEST PUSH1 0x40 MLOAD DUP1 SWAP2 SUB SWAP1 RETURN JUMPDEST CALLVALUE DUP1 ISZERO PUSH2 0x99E JUMPI PUSH0 DUP1 REVERT JUMPDEST POP PUSH2 0x9A7 PUSH2 0x38B1 JUMP JUMPDEST PUSH1 0x40 MLOAD PUSH2 0x9B4 SWAP2 SWAP1 PUSH2 0x6955 JUMP JUMPDEST PUSH1 0x40 MLOAD DUP1 SWAP2 SUB SWAP1 RETURN JUMPDEST CALLVALUE DUP1 ISZERO PUSH2 0x9C8 JUMPI PUSH0 DUP1 REVERT JUMPDEST POP PUSH2 0x9D1 PUSH2 0x38BC JUMP JUMPDEST PUSH1 0x40 MLOAD PUSH2 0x9DE SWAP2 SWAP1 PUSH2 0x7438 JUMP JUMPDEST PUSH1 0x40 MLOAD DUP1 SWAP2 SUB SWAP1 RETURN JUMPDEST CALLVALUE DUP1 ISZERO PUSH2 0x9F2 JUMPI PUSH0 DUP1 REVERT JUMPDEST POP PUSH2 0xA0D PUSH1 0x4 DUP1 CALLDATASIZE SUB DUP2 ADD SWAP1 PUSH2 0xA08 SWAP2 SWAP1 PUSH2 0x6854 JUMP JUMPDEST PUSH2 0x38E2 JUMP JUMPDEST PUSH1 0x40 MLOAD PUSH2 0xA1A SWAP2 SWAP1 PUSH2 0x6808 JUMP JUMPDEST PUSH1 0x40 MLOAD DUP1 SWAP2 SUB SWAP1 RETURN JUMPDEST CALLVALUE DUP1 ISZERO PUSH2 0xA2E JUMPI PUSH0 DUP1 REVERT JUMPDEST POP PUSH2 0xA49 PUSH1 0x4 DUP1 CALLDATASIZE SUB DUP2 ADD SWAP1 PUSH2 0xA44 SWAP2 SWAP1 PUSH2 0x696E JUMP JUMPDEST PUSH2 0x3908 JUMP JUMPDEST PUSH1 0x40 MLOAD PUSH2 0xA56 SWAP2 SWAP1 PUSH2 0x6955 JUMP JUMPDEST PUSH1 0x40 MLOAD DUP1 SWAP2 SUB SWAP1 RETURN JUMPDEST CALLVALUE DUP1 ISZERO PUSH2 0xA6A JUMPI PUSH0 DUP1 REVERT JUMPDEST POP PUSH2 0xA73 PUSH2 0x39DA JUMP JUMPDEST PUSH1 0x40 MLOAD PUSH2 0xA80 SWAP2 SWAP1 PUSH2 0x6C0A JUMP JUMPDEST PUSH1 0x40 MLOAD DUP1 SWAP2 SUB SWAP1 RETURN JUMPDEST PUSH2 0xA91 PUSH2 0x39EC JUMP JUMPDEST STOP JUMPDEST CALLVALUE DUP1 ISZERO PUSH2 0xA9E JUMPI PUSH0 DUP1 REVERT JUMPDEST POP PUSH2 0xAB9 PUSH1 0x4 DUP1 CALLDATASIZE SUB DUP2 ADD SWAP1 PUSH2 0xAB4 SWAP2 SWAP1 PUSH2 0x6A47 JUMP JUMPDEST PUSH2 0x3ACD JUMP JUMPDEST STOP JUMPDEST CALLVALUE DUP1 ISZERO PUSH2 0xAC6 JUMPI PUSH0 DUP1 REVERT JUMPDEST POP PUSH2 0xAE1 PUSH1 0x4 DUP1 CALLDATASIZE SUB DUP2 ADD SWAP1 PUSH2 0xADC SWAP2 SWAP1 PUSH2 0x696E JUMP JUMPDEST PUSH2 0x4124 JUMP JUMPDEST PUSH1 0x40 MLOAD PUSH2 0xAEE SWAP2 SWAP1 PUSH2 0x7054 JUMP JUMPDEST PUSH1 0x40 MLOAD DUP1 SWAP2 SUB SWAP1 RETURN JUMPDEST CALLVALUE DUP1 ISZERO PUSH2 0xB02 JUMPI PUSH0 DUP1 REVERT JUMPDEST POP PUSH2 0xB1D PUSH1 0x4 DUP1 CALLDATASIZE SUB DUP2 ADD SWAP1 PUSH2 0xB18 SWAP2 SWAP1 PUSH2 0x6A87 JUMP JUMPDEST PUSH2 0x4139 JUMP JUMPDEST PUSH1 0x40 MLOAD PUSH2 0xB2B SWAP3 SWAP2 SWAP1 PUSH2 0x7451 JUMP JUMPDEST PUSH1 0x40 MLOAD DUP1 SWAP2 SUB SWAP1 RETURN JUMPDEST CALLVALUE DUP1 ISZERO PUSH2 0xB3F JUMPI PUSH0 DUP1 REVERT JUMPDEST POP PUSH2 0xB48 PUSH2 0x417F JUMP JUMPDEST PUSH1 0x40 MLOAD PUSH2 0xB55 SWAP2 SWAP1 PUSH2 0x74EB JUMP JUMPDEST PUSH1 0x40 MLOAD DUP1 SWAP2 SUB SWAP1 RETURN JUMPDEST CALLVALUE DUP1 ISZERO PUSH2 0xB69 JUMPI PUSH0 DUP1 REVERT JUMPDEST POP PUSH2 0xB72 PUSH2 0x4245 JUMP JUMPDEST STOP JUMPDEST CALLVALUE DUP1 ISZERO PUSH2 0xB7F JUMPI PUSH0 DUP1 REVERT JUMPDEST POP PUSH2 0xB9A PUSH1 0x4 DUP1 CALLDATASIZE SUB DUP2 ADD SWAP1 PUSH2 0xB95 SWAP2 SWAP1 PUSH2 0x7559 JUMP JUMPDEST PUSH2 0x4466 JUMP JUMPDEST STOP JUMPDEST CALLVALUE DUP1 ISZERO PUSH2 0xBA7 JUMPI PUSH0 DUP1 REVERT JUMPDEST POP PUSH2 0xBB0 PUSH2 0x480C JUMP JUMPDEST PUSH1 0x40 MLOAD PUSH2 0xBBD SWAP2 SWAP1 PUSH2 0x6955 JUMP JUMPDEST PUSH1 0x40 MLOAD DUP1 SWAP2 SUB SWAP1 RETURN JUMPDEST CALLVALUE DUP1 ISZERO PUSH2 0xBD1 JUMPI PUSH0 DUP1 REVERT JUMPDEST POP PUSH2 0xBEC PUSH1 0x4 DUP1 CALLDATASIZE SUB DUP2 ADD SWAP1 PUSH2 0xBE7 SWAP2 SWAP1 PUSH2 0x6A87 JUMP JUMPDEST PUSH2 0x4812 JUMP JUMPDEST PUSH1 0x40 MLOAD PUSH2 0xBF9 SWAP2 SWAP1 PUSH2 0x7438 JUMP JUMPDEST PUSH1 0x40 MLOAD DUP1 SWAP2 SUB SWAP1 RETURN JUMPDEST CALLVALUE DUP1 ISZERO PUSH2 0xC0D JUMPI PUSH0 DUP1 REVERT JUMPDEST POP PUSH2 0xC16 PUSH2 0x484D JUMP JUMPDEST PUSH1 0x40 MLOAD PUSH2 0xC23 SWAP2 SWAP1 PUSH2 0x6C41 JUMP JUMPDEST PUSH1 0x40 MLOAD DUP1 SWAP2 SUB SWAP1 RETURN JUMPDEST CALLVALUE DUP1 ISZERO PUSH2 0xC37 JUMPI PUSH0 DUP1 REVERT JUMPDEST POP PUSH2 0xC40 PUSH2 0x4852 JUMP JUMPDEST PUSH1 0x40 MLOAD PUSH2 0xC4D SWAP2 SWAP1 PUSH2 0x6C0A JUMP JUMPDEST PUSH1 0x40 MLOAD DUP1 SWAP2 SUB SWAP1 RETURN JUMPDEST CALLVALUE DUP1 ISZERO PUSH2 0xC61 JUMPI PUSH0 DUP1 REVERT JUMPDEST POP PUSH2 0xC7C PUSH1 0x4 DUP1 CALLDATASIZE SUB DUP2 ADD SWAP1 PUSH2 0xC77 SWAP2 SWAP1 PUSH2 0x6A87 JUMP JUMPDEST PUSH2 0x4857 JUMP JUMPDEST STOP JUMPDEST CALLVALUE DUP1 ISZERO PUSH2 0xC89 JUMPI PUSH0 DUP1 REVERT JUMPDEST POP PUSH2 0xC92 PUSH2 0x4FEF JUMP JUMPDEST STOP JUMPDEST CALLVALUE DUP1 ISZERO PUSH2 0xC9F JUMPI PUSH0 DUP1 REVERT JUMPDEST POP PUSH2 0xCA8 PUSH2 0x5176 JUMP JUMPDEST PUSH1 0x40 MLOAD PUSH2 0xCB5 SWAP2 SWAP1 PUSH2 0x6955 JUMP JUMPDEST PUSH1 0x40 MLOAD DUP1 SWAP2 SUB SWAP1 RETURN JUMPDEST CALLVALUE DUP1 ISZERO PUSH2 0xCC9 JUMPI PUSH0 DUP1 REVERT JUMPDEST POP PUSH2 0xCE4 PUSH1 0x4 DUP1 CALLDATASIZE SUB DUP2 ADD SWAP1 PUSH2 0xCDF SWAP2 SWAP1 PUSH2 0x7559 JUMP JUMPDEST PUSH2 0x517C JUMP JUMPDEST STOP JUMPDEST CALLVALUE DUP1 ISZERO PUSH2 0xCF1 JUMPI PUSH0 DUP1 REVERT JUMPDEST POP PUSH2 0xCFA PUSH2 0x54A0 JUMP JUMPDEST PUSH1 0x40 MLOAD PUSH2 0xD07 SWAP2 SWAP1 PUSH2 0x6955 JUMP JUMPDEST PUSH1 0x40 MLOAD DUP1 SWAP2 SUB SWAP1 RETURN JUMPDEST CALLVALUE DUP1 ISZERO PUSH2 0xD1B JUMPI PUSH0 DUP1 REVERT JUMPDEST POP PUSH2 0xD24 PUSH2 0x54A6 JUMP JUMPDEST PUSH1 0x40 MLOAD PUSH2 0xD31 SWAP2 SWAP1 PUSH2 0x6C41 JUMP JUMPDEST PUSH1 0x40 MLOAD DUP1 SWAP2 SUB SWAP1 RETURN JUMPDEST CALLVALUE DUP1 ISZERO PUSH2 0xD45 JUMPI PUSH0 DUP1 REVERT JUMPDEST POP PUSH2 0xD60 PUSH1 0x4 DUP1 CALLDATASIZE SUB DUP2 ADD SWAP1 PUSH2 0xD5B SWAP2 SWAP1 PUSH2 0x696E JUMP JUMPDEST PUSH2 0x54AD JUMP JUMPDEST PUSH1 0x40 MLOAD PUSH2 0xD6D SWAP2 SWAP1 PUSH2 0x6955 JUMP JUMPDEST PUSH1 0x40 MLOAD DUP1 SWAP2 SUB SWAP1 RETURN JUMPDEST CALLVALUE DUP1 ISZERO PUSH2 0xD81 JUMPI PUSH0 DUP1 REVERT JUMPDEST POP PUSH2 0xD9C PUSH1 0x4 DUP1 CALLDATASIZE SUB DUP2 ADD SWAP1 PUSH2 0xD97 SWAP2 SWAP1 PUSH2 0x75A4 JUMP JUMPDEST PUSH2 0x54F3 JUMP JUMPDEST PUSH1 0x40 MLOAD PUSH2 0xDA9 SWAP2 SWAP1 PUSH2 0x6955 JUMP JUMPDEST PUSH1 0x40 MLOAD DUP1 SWAP2 SUB SWAP1 RETURN JUMPDEST CALLVALUE DUP1 ISZERO PUSH2 0xDBD JUMPI PUSH0 DUP1 REVERT JUMPDEST POP PUSH2 0xDC6 PUSH2 0x561C JUMP JUMPDEST PUSH1 0x40 MLOAD PUSH2 0xDD3 SWAP2 SWAP1 PUSH2 0x6955 JUMP JUMPDEST PUSH1 0x40 MLOAD DUP1 SWAP2 SUB SWAP1 RETURN JUMPDEST CALLVALUE DUP1 ISZERO PUSH2 0xDE7 JUMPI PUSH0 DUP1 REVERT JUMPDEST POP PUSH2 0xDF0 PUSH2 0x5622 JUMP JUMPDEST PUSH1 0x40 MLOAD PUSH2 0xDFD SWAP2 SWAP1 PUSH2 0x6C0A JUMP JUMPDEST PUSH1 0x40 MLOAD DUP1 SWAP2 SUB SWAP1 RETURN JUMPDEST CALLVALUE DUP1 ISZERO PUSH2 0xE11 JUMPI PUSH0 DUP1 REVERT JUMPDEST POP PUSH2 0xE1A PUSH2 0x5627 JUMP JUMPDEST PUSH1 0x40 MLOAD PUSH2 0xE27 SWAP2 SWAP1 PUSH2 0x6C41 JUMP JUMPDEST PUSH1 0x40 MLOAD DUP1 SWAP2 SUB SWAP1 RETURN JUMPDEST CALLVALUE DUP1 ISZERO PUSH2 0xE3B JUMPI PUSH0 DUP1 REVERT JUMPDEST POP PUSH2 0xE56 PUSH1 0x4 DUP1 CALLDATASIZE SUB DUP2 ADD SWAP1 PUSH2 0xE51 SWAP2 SWAP1 PUSH2 0x696E JUMP JUMPDEST PUSH2 0x563C JUMP JUMPDEST PUSH1 0x40 MLOAD PUSH2 0xE69 SWAP8 SWAP7 SWAP6 SWAP5 SWAP4 SWAP3 SWAP2 SWAP1 PUSH2 0x75E2 JUMP JUMPDEST PUSH1 0x40 MLOAD DUP1 SWAP2 SUB SWAP1 RETURN JUMPDEST CALLVALUE DUP1 ISZERO PUSH2 0xE7D JUMPI PUSH0 DUP1 REVERT JUMPDEST POP PUSH2 0xE98 PUSH1 0x4 DUP1 CALLDATASIZE SUB DUP2 ADD SWAP1 PUSH2 0xE93 SWAP2 SWAP1 PUSH2 0x696E JUMP JUMPDEST PUSH2 0x5818 JUMP JUMPDEST PUSH1 0x40 MLOAD PUSH2 0xEA5 SWAP2 SWAP1 PUSH2 0x6C0A JUMP JUMPDEST PUSH1 0x40 MLOAD DUP1 SWAP2 SUB SWAP1 RETURN JUMPDEST CALLVALUE DUP1 ISZERO PUSH2 0xEB9 JUMPI PUSH0 DUP1 REVERT JUMPDEST POP PUSH2 0xEC2 PUSH2 0x5835 JUMP JUMPDEST PUSH1 0x40 MLOAD PUSH2 0xECF SWAP2 SWAP1 PUSH2 0x76E3 JUMP JUMPDEST PUSH1 0x40 MLOAD DUP1 SWAP2 SUB SWAP1 RETURN JUMPDEST CALLVALUE DUP1 ISZERO PUSH2 0xEE3 JUMPI PUSH0 DUP1 REVERT JUMPDEST POP PUSH2 0xEEC PUSH2 0x5E9F JUMP JUMPDEST PUSH1 0x40 MLOAD PUSH2 0xEF9 SWAP2 SWAP1 PUSH2 0x6955 JUMP JUMPDEST PUSH1 0x40 MLOAD DUP1 SWAP2 SUB SWAP1 RETURN JUMPDEST CALLVALUE DUP1 ISZERO PUSH2 0xF0D JUMPI PUSH0 DUP1 REVERT JUMPDEST POP PUSH2 0xF16 PUSH2 0x5EA5 JUMP JUMPDEST PUSH1 0x40 MLOAD PUSH2 0xF23 SWAP2 SWAP1 PUSH2 0x7438 JUMP JUMPDEST PUSH1 0x40 MLOAD DUP1 SWAP2 SUB SWAP1 RETURN JUMPDEST CALLVALUE DUP1 ISZERO PUSH2 0xF37 JUMPI PUSH0 DUP1 REVERT JUMPDEST POP PUSH2 0xF52 PUSH1 0x4 DUP1 CALLDATASIZE SUB DUP2 ADD SWAP1 PUSH2 0xF4D SWAP2 SWAP1 PUSH2 0x6A87 JUMP JUMPDEST PUSH2 0x5EC8 JUMP JUMPDEST PUSH1 0x40 MLOAD PUSH2 0xF60 SWAP3 SWAP2 SWAP1 PUSH2 0x76FD JUMP JUMPDEST PUSH1 0x40 MLOAD DUP1 SWAP2 SUB SWAP1 RETURN JUMPDEST CALLVALUE DUP1 ISZERO PUSH2 0xF74 JUMPI PUSH0 DUP1 REVERT JUMPDEST POP PUSH2 0xF8F PUSH1 0x4 DUP1 CALLDATASIZE SUB DUP2 ADD SWAP1 PUSH2 0xF8A SWAP2 SWAP1 PUSH2 0x6A87 JUMP JUMPDEST PUSH2 0x5EF7 JUMP JUMPDEST PUSH1 0x40 MLOAD PUSH2 0xF9C SWAP2 SWAP1 PUSH2 0x7724 JUMP JUMPDEST PUSH1 0x40 MLOAD DUP1 SWAP2 SUB SWAP1 RETURN JUMPDEST CALLVALUE DUP1 ISZERO PUSH2 0xFB0 JUMPI PUSH0 DUP1 REVERT JUMPDEST POP PUSH2 0xFB9 PUSH2 0x6266 JUMP JUMPDEST PUSH1 0x40 MLOAD PUSH2 0xFC6 SWAP2 SWAP1 PUSH2 0x6955 JUMP JUMPDEST PUSH1 0x40 MLOAD DUP1 SWAP2 SUB SWAP1 RETURN JUMPDEST PUSH1 0xAE PUSH1 0x20 MSTORE DUP2 PUSH0 MSTORE PUSH1 0x40 PUSH0 KECCAK256 PUSH1 0x20 MSTORE DUP1 PUSH0 MSTORE PUSH1 0x40 PUSH0 KECCAK256 PUSH0 SWAP2 POP SWAP2 POP SWAP1 SLOAD SWAP1 PUSH2 0x100 EXP SWAP1 DIV PUSH0 SIGNEXTEND DUP2 JUMP JUMPDEST PUSH0 DUP4 MLOAD GT DUP1 ISZERO PUSH2 0x100A JUMPI POP PUSH1 0x64 DUP4 MLOAD GT ISZERO JUMPDEST PUSH2 0x1049 JUMPI PUSH1 0x40 MLOAD PUSH32 0x8C379A000000000000000000000000000000000000000000000000000000000 DUP2 MSTORE PUSH1 0x4 ADD PUSH2 0x1040 SWAP1 PUSH2 0x778E JUMP JUMPDEST PUSH1 0x40 MLOAD DUP1 SWAP2 SUB SWAP1 REVERT JUMPDEST PUSH0 DUP3 MLOAD GT DUP1 ISZERO PUSH2 0x105C JUMPI POP PUSH2 0x3E8 DUP3 MLOAD GT ISZERO JUMPDEST PUSH2 0x109B JUMPI PUSH1 0x40 MLOAD PUSH32 0x8C379A000000000000000000000000000000000000000000000000000000000 DUP2 MSTORE PUSH1 0x4 ADD PUSH2 0x1092 SWAP1 PUSH2 0x77F6 JUMP JUMPDEST PUSH1 0x40 MLOAD DUP1 SWAP2 SUB SWAP1 REVERT JUMPDEST PUSH0 DUP2 MLOAD GT DUP1 ISZERO PUSH2 0x10AE JUMPI POP PUSH2 0x7D0 DUP2 MLOAD GT ISZERO JUMPDEST PUSH2 0x10ED JUMPI PUSH1 0x40 MLOAD PUSH32 0x8C379A000000000000000000000000000000000000000000000000000000000 DUP2 MSTORE PUSH1 0x4 ADD PUSH2 0x10E4 SWAP1 PUSH2 0x785E JUMP JUMPDEST PUSH1 0x40 MLOAD DUP1 SWAP2 SUB SWAP1 REVERT JUMPDEST PUSH0 PUSH20 0xFFFFFFFFFFFFFFFFFFFFFFFFFFFFFFFFFFFFFFFF AND CALLER PUSH20 0xFFFFFFFFFFFFFFFFFFFFFFFFFFFFFFFFFFFFFFFF AND SUB PUSH2 0x115B JUMPI PUSH1 0x40 MLOAD PUSH32 0x8C379A000000000000000000000000000000000000000000000000000000000 DUP2 MSTORE PUSH1 0x4 ADD PUSH2 0x1152 SWAP1 PUSH2 0x78C6 JUMP JUMPDEST PUSH1 0x40 MLOAD DUP1 SWAP2 SUB SWAP1 REVERT JUMPDEST PUSH7 0x38D7EA4C68000 CALLVALUE LT ISZERO PUSH2 0x11A5 JUMPI PUSH1 0x40 MLOAD PUSH32 0x8C379A000000000000000000000000000000000000000000000000000000000 DUP2 MSTORE PUSH1 0x4 ADD PUSH2 0x119C SWAP1 PUSH2 0x792E JUMP JUMPDEST PUSH1 0x40 MLOAD DUP1 SWAP2 SUB SWAP1 REVERT JUMPDEST PUSH0 PUSH1 0x4 DUP2 GT ISZERO PUSH2 0x11B8 JUMPI PUSH2 0x11B7 PUSH2 0x7478 JUMP JUMPDEST JUMPDEST PUSH2 0x11C0 PUSH2 0x417F JUMP JUMPDEST PUSH1 0x4 DUP2 GT ISZERO PUSH2 0x11D2 JUMPI PUSH2 0x11D1 PUSH2 0x7478 JUMP JUMPDEST JUMPDEST EQ PUSH2 0x1212 JUMPI PUSH1 0x40 MLOAD PUSH32 0x8C379A000000000000000000000000000000000000000000000000000000000 DUP2 MSTORE PUSH1 0x4 ADD PUSH2 0x1209 SWAP1 PUSH2 0x79BC JUMP JUMPDEST PUSH1 0x40 MLOAD DUP1 SWAP2 SUB SWAP1 REVERT JUMPDEST PUSH0 PUSH1 0x5 PUSH0 CALLER PUSH20 0xFFFFFFFFFFFFFFFFFFFFFFFFFFFFFFFFFFFFFFFF AND PUSH20 0xFFFFFFFFFFFFFFFFFFFFFFFFFFFFFFFFFFFFFFFF AND DUP2 MSTORE PUSH1 0x20 ADD SWAP1 DUP2 MSTORE PUSH1 0x20 ADD PUSH0 KECCAK256 PUSH1 0x3 ADD SLOAD EQ PUSH2 0x1294 JUMPI PUSH1 0x40 MLOAD PUSH32 0x8C379A000000000000000000000000000000000000000000000000000000000 DUP2 MSTORE PUSH1 0x4 ADD PUSH2 0x128B SWAP1 PUSH2 0x7A24 JUMP JUMPDEST PUSH1 0x40 MLOAD DUP1 SWAP2 SUB SWAP1 REVERT JUMPDEST PUSH1 0x40 MLOAD DUP1 PUSH1 0xE0 ADD PUSH1 0x40 MSTORE DUP1 DUP5 DUP2 MSTORE PUSH1 0x20 ADD DUP4 DUP2 MSTORE PUSH1 0x20 ADD DUP3 DUP2 MSTORE PUSH1 0x20 ADD TIMESTAMP DUP2 MSTORE PUSH1 0x20 ADD PUSH0 DUP2 MSTORE PUSH1 0x20 ADD PUSH0 ISZERO ISZERO DUP2 MSTORE PUSH1 0x20 ADD PUSH0 DUP2 MSTORE POP PUSH1 0x5 PUSH0 CALLER PUSH20 0xFFFFFFFFFFFFFFFFFFFFFFFFFFFFFFFFFFFFFFFF AND PUSH20 0xFFFFFFFFFFFFFFFFFFFFFFFFFFFFFFFFFFFFFFFF AND DUP2 MSTORE PUSH1 0x20 ADD SWAP1 DUP2 MSTORE PUSH1 0x20 ADD PUSH0 KECCAK256 PUSH0 DUP3 ADD MLOAD DUP2 PUSH0 ADD SWAP1 DUP2 PUSH2 0x1319 SWAP2 SWAP1 PUSH2 0x7C3C JUMP JUMPDEST POP PUSH1 0x20 DUP3 ADD MLOAD DUP2 PUSH1 0x1 ADD SWAP1 DUP2 PUSH2 0x132F SWAP2 SWAP1 PUSH2 0x7C3C JUMP JUMPDEST POP PUSH1 0x40 DUP3 ADD MLOAD DUP2 PUSH1 0x2 ADD SWAP1 DUP2 PUSH2 0x1345 SWAP2 SWAP1 PUSH2 0x7C3C JUMP JUMPDEST POP PUSH1 0x60 DUP3 ADD MLOAD DUP2 PUSH1 0x3 ADD SSTORE PUSH1 0x80 DUP3 ADD MLOAD DUP2 PUSH1 0x4 ADD SSTORE PUSH1 0xA0 DUP3 ADD MLOAD DUP2 PUSH1 0x5 ADD PUSH0 PUSH2 0x100 EXP DUP2 SLOAD DUP2 PUSH1 0xFF MUL NOT AND SWAP1 DUP4 ISZERO ISZERO MUL OR SWAP1 SSTORE POP PUSH1 0xC0 DUP3 ADD MLOAD DUP2 PUSH1 0x6 ADD SSTORE SWAP1 POP POP PUSH1 0x6 CALLER SWAP1 DUP1 PUSH1 0x1 DUP2 SLOAD ADD DUP1 DUP3 SSTORE DUP1 SWAP2 POP POP PUSH1 0x1 SWAP1 SUB SWAP1 PUSH0 MSTORE PUSH1 0x20 PUSH0 KECCAK256 ADD PUSH0 SWAP1 SWAP2 SWAP1 SWAP2 SWAP1 SWAP2 PUSH2 0x100 EXP DUP2 SLOAD DUP2 PUSH20 0xFFFFFFFFFFFFFFFFFFFFFFFFFFFFFFFFFFFFFFFF MUL NOT AND SWAP1 DUP4 PUSH20 0xFFFFFFFFFFFFFFFFFFFFFFFFFFFFFFFFFFFFFFFF AND MUL OR SWAP1 SSTORE POP CALLER PUSH20 0xFFFFFFFFFFFFFFFFFFFFFFFFFFFFFFFFFFFFFFFF AND PUSH31 0xD6FEA68F71A20D8149F227F87E8CF7E6AD320B2DAD4B45465B14599B80EE09 DUP5 DUP5 DUP5 PUSH1 0x40 MLOAD PUSH2 0x142F SWAP4 SWAP3 SWAP2 SWAP1 PUSH2 0x7D0B JUMP JUMPDEST PUSH1 0x40 MLOAD DUP1 SWAP2 SUB SWAP1 LOG2 POP POP POP JUMP JUMPDEST PUSH1 0x39 PUSH0 SWAP1 SLOAD SWAP1 PUSH2 0x100 EXP SWAP1 DIV PUSH1 0xFF AND DUP2 JUMP JUMPDEST PUSH2 0x1456 PUSH2 0x641C JUMP JUMPDEST PUSH1 0x40 PUSH0 DUP4 DUP2 MSTORE PUSH1 0x20 ADD SWAP1 DUP2 MSTORE PUSH1 0x20 ADD PUSH0 KECCAK256 PUSH1 0x2 DUP1 PUSH1 0x20 MUL PUSH1 0x40 MLOAD SWAP1 DUP2 ADD PUSH1 0x40 MSTORE DUP1 SWAP3 SWAP2 SWAP1 DUP3 PUSH1 0x2 DUP1 ISZERO PUSH2 0x14D3 JUMPI PUSH1 0x20 MUL DUP3 ADD SWAP2 JUMPDEST DUP2 PUSH0 SWAP1 SLOAD SWAP1 PUSH2 0x100 EXP SWAP1 DIV PUSH20 0xFFFFFFFFFFFFFFFFFFFFFFFFFFFFFFFFFFFFFFFF AND PUSH20 0xFFFFFFFFFFFFFFFFFFFFFFFFFFFFFFFFFFFFFFFF AND DUP2 MSTORE PUSH1 0x20 ADD SWAP1 PUSH1 0x1 ADD SWAP1 DUP1 DUP4 GT PUSH2 0x148A JUMPI JUMPDEST POP POP POP POP POP SWAP1 POP SWAP2 SWAP1 POP JUMP JUMPDEST PUSH1 0x3A SLOAD DUP2 JUMP JUMPDEST PUSH1 0x3C PUSH1 0x20 MSTORE DUP1 PUSH0 MSTORE PUSH1 0x40 PUSH0 KECCAK256 PUSH0 SWAP2 POP SWAP1 POP SLOAD DUP2 JUMP JUMPDEST PUSH1 0x3D PUSH1 0x20 MSTORE DUP2 PUSH0 MSTORE PUSH1 0x40 PUSH0 KECCAK256 PUSH1 0x20 MSTORE DUP1 PUSH0 MSTORE PUSH1 0x40 PUSH0 KECCAK256 PUSH0 SWAP2 POP SWAP2 POP POP SLOAD DUP2 JUMP JUMPDEST PUSH0 DUP1 SLOAD SWAP1 PUSH2 0x100 EXP SWAP1 DIV PUSH20 0xFFFFFFFFFFFFFFFFFFFFFFFFFFFFFFFFFFFFFFFF AND PUSH20 0xFFFFFFFFFFFFFFFFFFFFFFFFFFFFFFFFFFFFFFFF AND CALLER PUSH20 0xFFFFFFFFFFFFFFFFFFFFFFFFFFFFFFFFFFFFFFFF AND EQ PUSH2 0x15A7 JUMPI PUSH1 0x40 MLOAD PUSH32 0x8C379A000000000000000000000000000000000000000000000000000000000 DUP2 MSTORE PUSH1 0x4 ADD PUSH2 0x159E SWAP1 PUSH2 0x7D9F JUMP JUMPDEST PUSH1 0x40 MLOAD DUP1 SWAP2 SUB SWAP1 REVERT JUMPDEST PUSH0 PUSH1 0x4 DUP2 GT ISZERO PUSH2 0x15BA JUMPI PUSH2 0x15B9 PUSH2 0x7478 JUMP JUMPDEST JUMPDEST PUSH2 0x15C2 PUSH2 0x417F JUMP JUMPDEST PUSH1 0x4 DUP2 GT ISZERO PUSH2 0x15D4 JUMPI PUSH2 0x15D3 PUSH2 0x7478 JUMP JUMPDEST JUMPDEST EQ PUSH2 0x1614 JUMPI PUSH1 0x40 MLOAD PUSH32 0x8C379A000000000000000000000000000000000000000000000000000000000 DUP2 MSTORE PUSH1 0x4 ADD PUSH2 0x160B SWAP1 PUSH2 0x7E07 JUMP JUMPDEST PUSH1 0x40 MLOAD DUP1 SWAP2 SUB SWAP1 REVERT JUMPDEST PUSH2 0x3E8 PUSH1 0x2 PUSH2 0x1623 SWAP2 SWAP1 PUSH2 0x7E52 JUMP JUMPDEST PUSH4 0xFFFFFFFF AND PUSH1 0x4 PUSH0 SWAP1 SLOAD SWAP1 PUSH2 0x100 EXP SWAP1 DIV PUSH4 0xFFFFFFFF AND PUSH4 0xFFFFFFFF AND GT ISZERO PUSH2 0x1682 JUMPI PUSH1 0x40 MLOAD PUSH32 0x8C379A000000000000000000000000000000000000000000000000000000000 DUP2 MSTORE PUSH1 0x4 ADD PUSH2 0x1679 SWAP1 PUSH2 0x7EFE JUMP JUMPDEST PUSH1 0x40 MLOAD DUP1 SWAP2 SUB SWAP1 REVERT JUMPDEST PUSH1 0xA PUSH4 0xFFFFFFFF AND PUSH1 0xA EQ DUP1 ISZERO PUSH2 0x16A0 JUMPI POP PUSH1 0xA PUSH4 0xFFFFFFFF AND PUSH1 0xA EQ JUMPDEST PUSH2 0x16DF JUMPI PUSH1 0x40 MLOAD PUSH32 0x8C379A000000000000000000000000000000000000000000000000000000000 DUP2 MSTORE PUSH1 0x4 ADD PUSH2 0x16D6 SWAP1 PUSH2 0x7F66 JUMP JUMPDEST PUSH1 0x40 MLOAD DUP1 SWAP2 SUB SWAP1 REVERT JUMPDEST PUSH0 JUMPDEST PUSH1 0xA PUSH4 0xFFFFFFFF AND DUP2 PUSH1 0xFF AND LT ISZERO PUSH2 0x17C1 JUMPI PUSH1 0x2 PUSH0 DUP5 DUP4 PUSH1 0xFF AND PUSH1 0xA DUP2 LT PUSH2 0x170C JUMPI PUSH2 0x170B PUSH2 0x7F84 JUMP JUMPDEST JUMPDEST PUSH1 0x20 MUL ADD CALLDATALOAD DUP2 MSTORE PUSH1 0x20 ADD SWAP1 DUP2 MSTORE PUSH1 0x20 ADD PUSH0 KECCAK256 PUSH0 SWAP1 SLOAD SWAP1 PUSH2 0x100 EXP SWAP1 DIV PUSH1 0xFF AND ISZERO PUSH2 0x176B JUMPI PUSH1 0x40 MLOAD PUSH32 0x8C379A000000000000000000000000000000000000000000000000000000000 DUP2 MSTORE PUSH1 0x4 ADD PUSH2 0x1762 SWAP1 PUSH2 0x7FFB JUMP JUMPDEST PUSH1 0x40 MLOAD DUP1 SWAP2 SUB SWAP1 REVERT JUMPDEST PUSH1 0x1 PUSH1 0x2 PUSH0 DUP6 DUP5 PUSH1 0xFF AND PUSH1 0xA DUP2 LT PUSH2 0x1786 JUMPI PUSH2 0x1785 PUSH2 0x7F84 JUMP JUMPDEST JUMPDEST PUSH1 0x20 MUL ADD CALLDATALOAD DUP2 MSTORE PUSH1 0x20 ADD SWAP1 DUP2 MSTORE PUSH1 0x20 ADD PUSH0 KECCAK256 PUSH0 PUSH2 0x100 EXP DUP2 SLOAD DUP2 PUSH1 0xFF MUL NOT AND SWAP1 DUP4 ISZERO ISZERO MUL OR SWAP1 SSTORE POP DUP1 DUP1 PUSH2 0x17B9 SWAP1 PUSH2 0x8019 JUMP JUMPDEST SWAP2 POP POP PUSH2 0x16E1 JUMP JUMPDEST POP PUSH0 JUMPDEST PUSH1 0xA PUSH4 0xFFFFFFFF AND DUP2 PUSH1 0xFF AND LT ISZERO PUSH2 0x1991 JUMPI PUSH0 PUSH20 0xFFFFFFFFFFFFFFFFFFFFFFFFFFFFFFFFFFFFFFFF AND DUP3 DUP3 PUSH1 0xFF AND PUSH1 0xA DUP2 LT PUSH2 0x1803 JUMPI PUSH2 0x1802 PUSH2 0x7F84 JUMP JUMPDEST JUMPDEST PUSH1 0x20 MUL ADD PUSH1 0x20 DUP2 ADD SWAP1 PUSH2 0x1816 SWAP2 SWAP1 PUSH2 0x696E JUMP JUMPDEST PUSH20 0xFFFFFFFFFFFFFFFFFFFFFFFFFFFFFFFFFFFFFFFF AND SUB PUSH2 0x186C JUMPI PUSH1 0x40 MLOAD PUSH32 0x8C379A000000000000000000000000000000000000000000000000000000000 DUP2 MSTORE PUSH1 0x4 ADD PUSH2 0x1863 SWAP1 PUSH2 0x808B JUMP JUMPDEST PUSH1 0x40 MLOAD DUP1 SWAP2 SUB SWAP1 REVERT JUMPDEST PUSH0 PUSH1 0x3 PUSH0 DUP5 DUP5 PUSH1 0xFF AND PUSH1 0xA DUP2 LT PUSH2 0x1886 JUMPI PUSH2 0x1885 PUSH2 0x7F84 JUMP JUMPDEST JUMPDEST PUSH1 0x20 MUL ADD PUSH1 0x20 DUP2 ADD SWAP1 PUSH2 0x1899 SWAP2 SWAP1 PUSH2 0x696E JUMP JUMPDEST PUSH20 0xFFFFFFFFFFFFFFFFFFFFFFFFFFFFFFFFFFFFFFFF AND PUSH20 0xFFFFFFFFFFFFFFFFFFFFFFFFFFFFFFFFFFFFFFFF AND DUP2 MSTORE PUSH1 0x20 ADD SWAP1 DUP2 MSTORE PUSH1 0x20 ADD PUSH0 KECCAK256 SLOAD EQ PUSH2 0x1913 JUMPI PUSH1 0x40 MLOAD PUSH32 0x8C379A000000000000000000000000000000000000000000000000000000000 DUP2 MSTORE PUSH1 0x4 ADD PUSH2 0x190A SWAP1 PUSH2 0x8119 JUMP JUMPDEST PUSH1 0x40 MLOAD DUP1 SWAP2 SUB SWAP1 REVERT JUMPDEST PUSH1 0x1 PUSH1 0x3 PUSH0 DUP5 DUP5 PUSH1 0xFF AND PUSH1 0xA DUP2 LT PUSH2 0x192E JUMPI PUSH2 0x192D PUSH2 0x7F84 JUMP JUMPDEST JUMPDEST PUSH1 0x20 MUL ADD PUSH1 0x20 DUP2 ADD SWAP1 PUSH2 0x1941 SWAP2 SWAP1 PUSH2 0x696E JUMP JUMPDEST PUSH20 0xFFFFFFFFFFFFFFFFFFFFFFFFFFFFFFFFFFFFFFFF AND PUSH20 0xFFFFFFFFFFFFFFFFFFFFFFFFFFFFFFFFFFFFFFFF AND DUP2 MSTORE PUSH1 0x20 ADD SWAP1 DUP2 MSTORE PUSH1 0x20 ADD PUSH0 KECCAK256 DUP2 SWAP1 SSTORE POP DUP1 DUP1 PUSH2 0x1989 SWAP1 PUSH2 0x8019 JUMP JUMPDEST SWAP2 POP POP PUSH2 0x17C4 JUMP JUMPDEST POP PUSH1 0xA PUSH1 0x4 PUSH0 DUP3 DUP3 DUP3 SWAP1 SLOAD SWAP1 PUSH2 0x100 EXP SWAP1 DIV PUSH4 0xFFFFFFFF AND PUSH2 0x19B3 SWAP2 SWAP1 PUSH2 0x8137 JUMP JUMPDEST SWAP3 POP PUSH2 0x100 EXP DUP2 SLOAD DUP2 PUSH4 0xFFFFFFFF MUL NOT AND SWAP1 DUP4 PUSH4 0xFFFFFFFF AND MUL OR SWAP1 SSTORE POP DUP1 PUSH1 0x40 MLOAD PUSH2 0x19DF SWAP2 SWAP1 PUSH2 0x8231 JUMP JUMPDEST PUSH1 0x40 MLOAD DUP1 SWAP2 SUB SWAP1 KECCAK256 PUSH32 0x5ECF71B87B223B4E8C4D19850B2C7A727D326E44EDA6530FE642B505FF2C4F94 PUSH1 0x4 PUSH0 SWAP1 SLOAD SWAP1 PUSH2 0x100 EXP SWAP1 DIV PUSH4 0xFFFFFFFF AND PUSH1 0x40 MLOAD PUSH2 0x1A27 SWAP2 SWAP1 PUSH2 0x827C JUMP JUMPDEST PUSH1 0x40 MLOAD DUP1 SWAP2 SUB SWAP1 LOG2 POP POP JUMP JUMPDEST PUSH1 0x3B DUP2 DUP2 SLOAD DUP2 LT PUSH2 0x1A42 JUMPI PUSH0 DUP1 REVERT JUMPDEST SWAP1 PUSH0 MSTORE PUSH1 0x20 PUSH0 KECCAK256 SWAP1 PUSH1 0x7 MUL ADD PUSH0 SWAP2 POP SWAP1 POP DUP1 PUSH0 ADD PUSH0 SWAP1 SLOAD SWAP1 PUSH2 0x100 EXP SWAP1 DIV PUSH20 0xFFFFFFFFFFFFFFFFFFFFFFFFFFFFFFFFFFFFFFFF AND SWAP1 DUP1 PUSH1 0x1 ADD DUP1 SLOAD PUSH2 0x1A86 SWAP1 PUSH2 0x7A6F JUMP JUMPDEST DUP1 PUSH1 0x1F ADD PUSH1 0x20 DUP1 SWAP2 DIV MUL PUSH1 0x20 ADD PUSH1 0x40 MLOAD SWAP1 DUP2 ADD PUSH1 0x40 MSTORE DUP1 SWAP3 SWAP2 SWAP1 DUP2 DUP2 MSTORE PUSH1 0x20 ADD DUP3 DUP1 SLOAD PUSH2 0x1AB2 SWAP1 PUSH2 0x7A6F JUMP JUMPDEST DUP1 ISZERO PUSH2 0x1AFD JUMPI DUP1 PUSH1 0x1F LT PUSH2 0x1AD4 JUMPI PUSH2 0x100 DUP1 DUP4 SLOAD DIV MUL DUP4 MSTORE SWAP2 PUSH1 0x20 ADD SWAP2 PUSH2 0x1AFD JUMP JUMPDEST DUP3 ADD SWAP2 SWAP1 PUSH0 MSTORE PUSH1 0x20 PUSH0 KECCAK256 SWAP1 JUMPDEST DUP2 SLOAD DUP2 MSTORE SWAP1 PUSH1 0x1 ADD SWAP1 PUSH1 0x20 ADD DUP1 DUP4 GT PUSH2 0x1AE0 JUMPI DUP3 SWAP1 SUB PUSH1 0x1F AND DUP3 ADD SWAP2 JUMPDEST POP POP POP POP POP SWAP1 DUP1 PUSH1 0x2 ADD SLOAD SWAP1 DUP1 PUSH1 0x3 ADD SLOAD SWAP1 DUP1 PUSH1 0x4 ADD SLOAD SWAP1 DUP1 PUSH1 0x5 ADD PUSH0 SWAP1 SLOAD SWAP1 PUSH2 0x100 EXP SWAP1 DIV PUSH1 0xFF AND SWAP1 POP DUP7 JUMP JUMPDEST PUSH1 0x5 PUSH0 CALLER PUSH20 0xFFFFFFFFFFFFFFFFFFFFFFFFFFFFFFFFFFFFFFFF AND PUSH20 0xFFFFFFFFFFFFFFFFFFFFFFFFFFFFFFFFFFFFFFFF AND DUP2 MSTORE PUSH1 0x20 ADD SWAP1 DUP2 MSTORE PUSH1 0x20 ADD PUSH0 KECCAK256 PUSH1 0x5 ADD PUSH0 SWAP1 SLOAD SWAP1 PUSH2 0x100 EXP SWAP1 DIV PUSH1 0xFF AND PUSH2 0x1BB7 JUMPI PUSH1 0x40 MLOAD PUSH32 0x8C379A000000000000000000000000000000000000000000000000000000000 DUP2 MSTORE PUSH1 0x4 ADD PUSH2 0x1BAE SWAP1 PUSH2 0x82DF JUMP JUMPDEST PUSH1 0x40 MLOAD DUP1 SWAP2 SUB SWAP1 REVERT JUMPDEST PUSH32 0xFFFFFFFFFFFFFFFFFFFFFFFFFFFFFFFFFFFFFFFFFFFFFFFFFFFFFFFFFFFFFFFF DUP2 PUSH0 SIGNEXTEND SLT ISZERO DUP1 ISZERO PUSH2 0x1BEC JUMPI POP PUSH1 0x1 DUP2 PUSH0 SIGNEXTEND SGT ISZERO JUMPDEST PUSH2 0x1C2B JUMPI PUSH1 0x40 MLOAD PUSH32 0x8C379A000000000000000000000000000000000000000000000000000000000 DUP2 MSTORE PUSH1 0x4 ADD PUSH2 0x1C22 SWAP1 PUSH2 0x8347 JUMP JUMPDEST PUSH1 0x40 MLOAD DUP1 SWAP2 SUB SWAP1 REVERT JUMPDEST PUSH0 PUSH1 0xAE PUSH0 CALLER PUSH20 0xFFFFFFFFFFFFFFFFFFFFFFFFFFFFFFFFFFFFFFFF AND PUSH20 0xFFFFFFFFFFFFFFFFFFFFFFFFFFFFFFFFFFFFFFFF AND DUP2 MSTORE PUSH1 0x20 ADD SWAP1 DUP2 MSTORE PUSH1 0x20 ADD PUSH0 KECCAK256 PUSH0 DUP5 PUSH20 0xFFFFFFFFFFFFFFFFFFFFFFFFFFFFFFFFFFFFFFFF AND PUSH20 0xFFFFFFFFFFFFFFFFFFFFFFFFFFFFFFFFFFFFFFFF AND DUP2 MSTORE PUSH1 0x20 ADD SWAP1 DUP2 MSTORE PUSH1 0x20 ADD PUSH0 KECCAK256 PUSH0 SWAP1 SLOAD SWAP1 PUSH2 0x100 EXP SWAP1 DIV PUSH0 SIGNEXTEND SWAP1 POP PUSH0 DUP2 PUSH0 SIGNEXTEND EQ DUP1 ISZERO PUSH2 0x1CC5 JUMPI POP PUSH0 DUP3 PUSH0 SIGNEXTEND EQ ISZERO JUMPDEST ISZERO PUSH2 0x1DA2 JUMPI PUSH2 0x3E8 PUSH1 0xB0 PUSH0 CALLER PUSH20 0xFFFFFFFFFFFFFFFFFFFFFFFFFFFFFFFFFFFFFFFF AND PUSH20 0xFFFFFFFFFFFFFFFFFFFFFFFFFFFFFFFFFFFFFFFF AND DUP2 MSTORE PUSH1 0x20 ADD SWAP1 DUP2 MSTORE PUSH1 0x20 ADD PUSH0 KECCAK256 SLOAD LT PUSH2 0x1D4B JUMPI PUSH1 0x40 MLOAD PUSH32 0x8C379A000000000000000000000000000000000000000000000000000000000 DUP2 MSTORE PUSH1 0x4 ADD PUSH2 0x1D42 SWAP1 PUSH2 0x83AF JUMP JUMPDEST PUSH1 0x40 MLOAD DUP1 SWAP2 SUB SWAP1 REVERT JUMPDEST PUSH1 0xB0 PUSH0 CALLER PUSH20 0xFFFFFFFFFFFFFFFFFFFFFFFFFFFFFFFFFFFFFFFF AND PUSH20 0xFFFFFFFFFFFFFFFFFFFFFFFFFFFFFFFFFFFFFFFF AND DUP2 MSTORE PUSH1 0x20 ADD SWAP1 DUP2 MSTORE PUSH1 0x20 ADD PUSH0 KECCAK256 PUSH0 DUP2 SLOAD DUP1 SWAP3 SWAP2 SWAP1 PUSH2 0x1D98 SWAP1 PUSH2 0x83CD JUMP JUMPDEST SWAP2 SWAP1 POP SSTORE POP PUSH2 0x1E0E JUMP JUMPDEST PUSH0 DUP2 PUSH0 SIGNEXTEND EQ ISZERO DUP1 ISZERO PUSH2 0x1DB5 JUMPI POP PUSH0 DUP3 PUSH0 SIGNEXTEND EQ JUMPDEST ISZERO PUSH2 0x1E0D JUMPI PUSH1 0xB0 PUSH0 CALLER PUSH20 0xFFFFFFFFFFFFFFFFFFFFFFFFFFFFFFFFFFFFFFFF AND PUSH20 0xFFFFFFFFFFFFFFFFFFFFFFFFFFFFFFFFFFFFFFFF AND DUP2 MSTORE PUSH1 0x20 ADD SWAP1 DUP2 MSTORE PUSH1 0x20 ADD PUSH0 KECCAK256 PUSH0 DUP2 SLOAD DUP1 SWAP3 SWAP2 SWAP1 PUSH2 0x1E07 SWAP1 PUSH2 0x8414 JUMP JUMPDEST SWAP2 SWAP1 POP SSTORE POP JUMPDEST JUMPDEST DUP2 PUSH1 0xAE PUSH0 CALLER PUSH20 0xFFFFFFFFFFFFFFFFFFFFFFFFFFFFFFFFFFFFFFFF AND PUSH20 0xFFFFFFFFFFFFFFFFFFFFFFFFFFFFFFFFFFFFFFFF AND DUP2 MSTORE PUSH1 0x20 ADD SWAP1 DUP2 MSTORE PUSH1 0x20 ADD PUSH0 KECCAK256 PUSH0 DUP6 PUSH20 0xFFFFFFFFFFFFFFFFFFFFFFFFFFFFFFFFFFFFFFFF AND PUSH20 0xFFFFFFFFFFFFFFFFFFFFFFFFFFFFFFFFFFFFFFFF AND DUP2 MSTORE PUSH1 0x20 ADD SWAP1 DUP2 MSTORE PUSH1 0x20 ADD PUSH0 KECCAK256 PUSH0 PUSH2 0x100 EXP DUP2 SLOAD DUP2 PUSH1 0xFF MUL NOT AND SWAP1 DUP4 PUSH0 SIGNEXTEND PUSH1 0xFF AND MUL OR SWAP1 SSTORE POP DUP1 DUP3 PUSH2 0x1EAC SWAP2 SWAP1 PUSH2 0x843B JUMP JUMPDEST PUSH0 SIGNEXTEND PUSH1 0xAF PUSH0 DUP6 PUSH20 0xFFFFFFFFFFFFFFFFFFFFFFFFFFFFFFFFFFFFFFFF AND PUSH20 0xFFFFFFFFFFFFFFFFFFFFFFFFFFFFFFFFFFFFFFFF AND DUP2 MSTORE PUSH1 0x20 ADD SWAP1 DUP2 MSTORE PUSH1 0x20 ADD PUSH0 KECCAK256 PUSH0 DUP3 DUP3 SLOAD PUSH2 0x1EF9 SWAP2 SWAP1 PUSH2 0x8493 JUMP JUMPDEST SWAP3 POP POP DUP2 SWAP1 SSTORE POP POP POP POP JUMP JUMPDEST PUSH1 0xA DUP2 JUMP JUMPDEST PUSH1 0xB0 PUSH1 0x20 MSTORE DUP1 PUSH0 MSTORE PUSH1 0x40 PUSH0 KECCAK256 PUSH0 SWAP2 POP SWAP1 POP SLOAD DUP2 JUMP JUMPDEST PUSH2 0x3E8 DUP2 JUMP JUMPDEST PUSH1 0x3F DUP2 DUP2 SLOAD DUP2 LT PUSH2 0x1F34 JUMPI PUSH0 DUP1 REVERT JUMPDEST SWAP1 PUSH0 MSTORE PUSH1 0x20 PUSH0 KECCAK256 SWAP1 PUSH1 0x8 MUL ADD PUSH0 SWAP2 POP SWAP1 POP DUP1 PUSH0 ADD DUP1 SLOAD PUSH2 0x1F53 SWAP1 PUSH2 0x7A6F JUMP JUMPDEST DUP1 PUSH1 0x1F ADD PUSH1 0x20 DUP1 SWAP2 DIV MUL PUSH1 0x20 ADD PUSH1 0x40 MLOAD SWAP1 DUP2 ADD PUSH1 0x40 MSTORE DUP1 SWAP3 SWAP2 SWAP1 DUP2 DUP2 MSTORE PUSH1 0x20 ADD DUP3 DUP1 SLOAD PUSH2 0x1F7F SWAP1 PUSH2 0x7A6F JUMP JUMPDEST DUP1 ISZERO PUSH2 0x1FCA JUMPI DUP1 PUSH1 0x1F LT PUSH2 0x1FA1 JUMPI PUSH2 0x100 DUP1 DUP4 SLOAD DIV MUL DUP4 MSTORE SWAP2 PUSH1 0x20 ADD SWAP2 PUSH2 0x1FCA JUMP JUMPDEST DUP3 ADD SWAP2 SWAP1 PUSH0 MSTORE PUSH1 0x20 PUSH0 KECCAK256 SWAP1 JUMPDEST DUP2 SLOAD DUP2 MSTORE SWAP1 PUSH1 0x1 ADD SWAP1 PUSH1 0x20 ADD DUP1 DUP4 GT PUSH2 0x1FAD JUMPI DUP3 SWAP1 SUB PUSH1 0x1F AND DUP3 ADD SWAP2 JUMPDEST POP POP POP POP POP SWAP1 DUP1 PUSH1 0x1 ADD DUP1 SLOAD PUSH2 0x1FDF SWAP1 PUSH2 0x7A6F JUMP JUMPDEST DUP1 PUSH1 0x1F ADD PUSH1 0x20 DUP1 SWAP2 DIV MUL PUSH1 0x20 ADD PUSH1 0x40 MLOAD SWAP1 DUP2 ADD PUSH1 0x40 MSTORE DUP1 SWAP3 SWAP2 SWAP1 DUP2 DUP2 MSTORE PUSH1 0x20 ADD DUP3 DUP1 SLOAD PUSH2 0x200B SWAP1 PUSH2 0x7A6F JUMP JUMPDEST DUP1 ISZERO PUSH2 0x2056 JUMPI DUP1 PUSH1 0x1F LT PUSH2 0x202D JUMPI PUSH2 0x100 DUP1 DUP4 SLOAD DIV MUL DUP4 MSTORE SWAP2 PUSH1 0x20 ADD SWAP2 PUSH2 0x2056 JUMP JUMPDEST DUP3 ADD SWAP2 SWAP1 PUSH0 MSTORE PUSH1 0x20 PUSH0 KECCAK256 SWAP1 JUMPDEST DUP2 SLOAD DUP2 MSTORE SWAP1 PUSH1 0x1 ADD SWAP1 PUSH1 0x20 ADD DUP1 DUP4 GT PUSH2 0x2039 JUMPI DUP3 SWAP1 SUB PUSH1 0x1F AND DUP3 ADD SWAP2 JUMPDEST POP POP POP POP POP SWAP1 DUP1 PUSH1 0x2 ADD DUP1 SLOAD PUSH2 0x206B SWAP1 PUSH2 0x7A6F JUMP JUMPDEST DUP1 PUSH1 0x1F ADD PUSH1 0x20 DUP1 SWAP2 DIV MUL PUSH1 0x20 ADD PUSH1 0x40 MLOAD SWAP1 DUP2 ADD PUSH1 0x40 MSTORE DUP1 SWAP3 SWAP2 SWAP1 DUP2 DUP2 MSTORE PUSH1 0x20 ADD DUP3 DUP1 SLOAD PUSH2 0x2097 SWAP1 PUSH2 0x7A6F JUMP JUMPDEST DUP1 ISZERO PUSH2 0x20E2 JUMPI DUP1 PUSH1 0x1F LT PUSH2 0x20B9 JUMPI PUSH2 0x100 DUP1 DUP4 SLOAD DIV MUL DUP4 MSTORE SWAP2 PUSH1 0x20 ADD SWAP2 PUSH2 0x20E2 JUMP JUMPDEST DUP3 ADD SWAP2 SWAP1 PUSH0 MSTORE PUSH1 0x20 PUSH0 KECCAK256 SWAP1 JUMPDEST DUP2 SLOAD DUP2 MSTORE SWAP1 PUSH1 0x1 ADD SWAP1 PUSH1 0x20 ADD DUP1 DUP4 GT PUSH2 0x20C5 JUMPI DUP3 SWAP1 SUB PUSH1 0x1F AND DUP3 ADD SWAP2 JUMPDEST POP POP POP POP POP SWAP1 DUP1 PUSH1 0x3 ADD DUP1 SLOAD PUSH2 0x20F7 SWAP1 PUSH2 0x7A6F JUMP JUMPDEST DUP1 PUSH1 0x1F ADD PUSH1 0x20 DUP1 SWAP2 DIV MUL PUSH1 0x20 ADD PUSH1 0x40 MLOAD SWAP1 DUP2 ADD PUSH1 0x40 MSTORE DUP1 SWAP3 SWAP2 SWAP1 DUP2 DUP2 MSTORE PUSH1 0x20 ADD DUP3 DUP1 SLOAD PUSH2 0x2123 SWAP1 PUSH2 0x7A6F JUMP JUMPDEST DUP1 ISZERO PUSH2 0x216E JUMPI DUP1 PUSH1 0x1F LT PUSH2 0x2145 JUMPI PUSH2 0x100 DUP1 DUP4 SLOAD DIV MUL DUP4 MSTORE SWAP2 PUSH1 0x20 ADD SWAP2 PUSH2 0x216E JUMP JUMPDEST DUP3 ADD SWAP2 SWAP1 PUSH0 MSTORE PUSH1 0x20 PUSH0 KECCAK256 SWAP1 JUMPDEST DUP2 SLOAD DUP2 MSTORE SWAP1 PUSH1 0x1 ADD SWAP1 PUSH1 0x20 ADD DUP1 DUP4 GT PUSH2 0x2151 JUMPI DUP3 SWAP1 SUB PUSH1 0x1F AND DUP3 ADD SWAP2 JUMPDEST POP POP POP POP POP SWAP1 DUP1 PUSH1 0x4 ADD SLOAD SWAP1 DUP1 PUSH1 0x5 ADD DUP1 SLOAD PUSH2 0x2189 SWAP1 PUSH2 0x7A6F JUMP JUMPDEST DUP1 PUSH1 0x1F ADD PUSH1 0x20 DUP1 SWAP2 DIV MUL PUSH1 0x20 ADD PUSH1 0x40 MLOAD SWAP1 DUP2 ADD PUSH1 0x40 MSTORE DUP1 SWAP3 SWAP2 SWAP1 DUP2 DUP2 MSTORE PUSH1 0x20 ADD DUP3 DUP1 SLOAD PUSH2 0x21B5 SWAP1 PUSH2 0x7A6F JUMP JUMPDEST DUP1 ISZERO PUSH2 0x2200 JUMPI DUP1 PUSH1 0x1F LT PUSH2 0x21D7 JUMPI PUSH2 0x100 DUP1 DUP4 SLOAD DIV MUL DUP4 MSTORE SWAP2 PUSH1 0x20 ADD SWAP2 PUSH2 0x2200 JUMP JUMPDEST DUP3 ADD SWAP2 SWAP1 PUSH0 MSTORE PUSH1 0x20 PUSH0 KECCAK256 SWAP1 JUMPDEST DUP2 SLOAD DUP2 MSTORE SWAP1 PUSH1 0x1 ADD SWAP1 PUSH1 0x20 ADD DUP1 DUP4 GT PUSH2 0x21E3 JUMPI DUP3 SWAP1 SUB PUSH1 0x1F AND DUP3 ADD SWAP2 JUMPDEST POP POP POP POP POP SWAP1 DUP1 PUSH1 0x6 ADD SLOAD SWAP1 DUP1 PUSH1 0x7 ADD SLOAD SWAP1 POP DUP9 JUMP JUMPDEST PUSH0 PUSH2 0x221F PUSH2 0x643E JUMP JUMPDEST PUSH0 PUSH1 0x44 SLOAD GT ISZERO PUSH2 0x2240 JUMPI PUSH1 0x44 SLOAD PUSH2 0x2237 PUSH1 0x44 SLOAD PUSH2 0x5EF7 JUMP JUMPDEST SWAP2 POP SWAP2 POP PUSH2 0x266D JUMP JUMPDEST PUSH0 PUSH1 0x43 SLOAD GT DUP1 ISZERO PUSH2 0x2252 JUMPI POP TIMESTAMP PUSH1 0x43 SLOAD LT JUMPDEST PUSH2 0x2291 JUMPI PUSH1 0x40 MLOAD PUSH32 0x8C379A000000000000000000000000000000000000000000000000000000000 DUP2 MSTORE PUSH1 0x4 ADD PUSH2 0x2288 SWAP1 PUSH2 0x851E JUMP JUMPDEST PUSH1 0x40 MLOAD DUP1 SWAP2 SUB SWAP1 REVERT JUMPDEST PUSH0 DUP1 PUSH0 SWAP1 POP PUSH0 JUMPDEST PUSH1 0x3F DUP1 SLOAD SWAP1 POP DUP2 LT ISZERO PUSH2 0x2307 JUMPI DUP2 PUSH1 0x3F DUP3 DUP2 SLOAD DUP2 LT PUSH2 0x22BA JUMPI PUSH2 0x22B9 PUSH2 0x7F84 JUMP JUMPDEST JUMPDEST SWAP1 PUSH0 MSTORE PUSH1 0x20 PUSH0 KECCAK256 SWAP1 PUSH1 0x8 MUL ADD PUSH1 0x7 ADD SLOAD GT ISZERO PUSH2 0x22FA JUMPI PUSH1 0x3F DUP2 DUP2 SLOAD DUP2 LT PUSH2 0x22E4 JUMPI PUSH2 0x22E3 PUSH2 0x7F84 JUMP JUMPDEST JUMPDEST SWAP1 PUSH0 MSTORE PUSH1 0x20 PUSH0 KECCAK256 SWAP1 PUSH1 0x8 MUL ADD PUSH1 0x7 ADD SLOAD SWAP2 POP DUP1 SWAP3 POP JUMPDEST DUP1 DUP1 PUSH1 0x1 ADD SWAP2 POP POP PUSH2 0x2298 JUMP JUMPDEST POP DUP2 PUSH1 0x44 DUP2 SWAP1 SSTORE POP PUSH0 PUSH1 0x3F DUP4 DUP2 SLOAD DUP2 LT PUSH2 0x2324 JUMPI PUSH2 0x2323 PUSH2 0x7F84 JUMP JUMPDEST JUMPDEST SWAP1 PUSH0 MSTORE PUSH1 0x20 PUSH0 KECCAK256 SWAP1 PUSH1 0x8 MUL ADD PUSH1 0x40 MLOAD DUP1 PUSH2 0x100 ADD PUSH1 0x40 MSTORE SWAP1 DUP2 PUSH0 DUP3 ADD DUP1 SLOAD PUSH2 0x234B SWAP1 PUSH2 0x7A6F JUMP JUMPDEST DUP1 PUSH1 0x1F ADD PUSH1 0x20 DUP1 SWAP2 DIV MUL PUSH1 0x20 ADD PUSH1 0x40 MLOAD SWAP1 DUP2 ADD PUSH1 0x40 MSTORE DUP1 SWAP3 SWAP2 SWAP1 DUP2 DUP2 MSTORE PUSH1 0x20 ADD DUP3 DUP1 SLOAD PUSH2 0x2377 SWAP1 PUSH2 0x7A6F JUMP JUMPDEST DUP1 ISZERO PUSH2 0x23C2 JUMPI DUP1 PUSH1 0x1F LT PUSH2 0x2399 JUMPI PUSH2 0x100 DUP1 DUP4 SLOAD DIV MUL DUP4 MSTORE SWAP2 PUSH1 0x20 ADD SWAP2 PUSH2 0x23C2 JUMP JUMPDEST DUP3 ADD SWAP2 SWAP1 PUSH0 MSTORE PUSH1 0x20 PUSH0 KECCAK256 SWAP1 JUMPDEST DUP2 SLOAD DUP2 MSTORE SWAP1 PUSH1 0x1 ADD SWAP1 PUSH1 0x20 ADD DUP1 DUP4 GT PUSH2 0x23A5 JUMPI DUP3 SWAP1 SUB PUSH1 0x1F AND DUP3 ADD SWAP2 JUMPDEST POP POP POP POP POP DUP2 MSTORE PUSH1 0x20 ADD PUSH1 0x1 DUP3 ADD DUP1 SLOAD PUSH2 0x23DB SWAP1 PUSH2 0x7A6F JUMP JUMPDEST DUP1 PUSH1 0x1F ADD PUSH1 0x20 DUP1 SWAP2 DIV MUL PUSH1 0x20 ADD PUSH1 0x40 MLOAD SWAP1 DUP2 ADD PUSH1 0x40 MSTORE DUP1 SWAP3 SWAP2 SWAP1 DUP2 DUP2 MSTORE PUSH1 0x20 ADD DUP3 DUP1 SLOAD PUSH2 0x2407 SWAP1 PUSH2 0x7A6F JUMP JUMPDEST DUP1 ISZERO PUSH2 0x2452 JUMPI DUP1 PUSH1 0x1F LT PUSH2 0x2429 JUMPI PUSH2 0x100 DUP1 DUP4 SLOAD DIV MUL DUP4 MSTORE SWAP2 PUSH1 0x20 ADD SWAP2 PUSH2 0x2452 JUMP JUMPDEST DUP3 ADD SWAP2 SWAP1 PUSH0 MSTORE PUSH1 0x20 PUSH0 KECCAK256 SWAP1 JUMPDEST DUP2 SLOAD DUP2 MSTORE SWAP1 PUSH1 0x1 ADD SWAP1 PUSH1 0x20 ADD DUP1 DUP4 GT PUSH2 0x2435 JUMPI DUP3 SWAP1 SUB PUSH1 0x1F AND DUP3 ADD SWAP2 JUMPDEST POP POP POP POP POP DUP2 MSTORE PUSH1 0x20 ADD PUSH1 0x2 DUP3 ADD DUP1 SLOAD PUSH2 0x246B SWAP1 PUSH2 0x7A6F JUMP JUMPDEST DUP1 PUSH1 0x1F ADD PUSH1 0x20 DUP1 SWAP2 DIV MUL PUSH1 0x20 ADD PUSH1 0x40 MLOAD SWAP1 DUP2 ADD PUSH1 0x40 MSTORE DUP1 SWAP3 SWAP2 SWAP1 DUP2 DUP2 MSTORE PUSH1 0x20 ADD DUP3 DUP1 SLOAD PUSH2 0x2497 SWAP1 PUSH2 0x7A6F JUMP JUMPDEST DUP1 ISZERO PUSH2 0x24E2 JUMPI DUP1 PUSH1 0x1F LT PUSH2 0x24B9 JUMPI PUSH2 0x100 DUP1 DUP4 SLOAD DIV MUL DUP4 MSTORE SWAP2 PUSH1 0x20 ADD SWAP2 PUSH2 0x24E2 JUMP JUMPDEST DUP3 ADD SWAP2 SWAP1 PUSH0 MSTORE PUSH1 0x20 PUSH0 KECCAK256 SWAP1 JUMPDEST DUP2 SLOAD DUP2 MSTORE SWAP1 PUSH1 0x1 ADD SWAP1 PUSH1 0x20 ADD DUP1 DUP4 GT PUSH2 0x24C5 JUMPI DUP3 SWAP1 SUB PUSH1 0x1F AND DUP3 ADD SWAP2 JUMPDEST POP POP POP POP POP DUP2 MSTORE PUSH1 0x20 ADD PUSH1 0x3 DUP3 ADD DUP1 SLOAD PUSH2 0x24FB SWAP1 PUSH2 0x7A6F JUMP JUMPDEST DUP1 PUSH1 0x1F ADD PUSH1 0x20 DUP1 SWAP2 DIV MUL PUSH1 0x20 ADD PUSH1 0x40 MLOAD SWAP1 DUP2 ADD PUSH1 0x40 MSTORE DUP1 SWAP3 SWAP2 SWAP1 DUP2 DUP2 MSTORE PUSH1 0x20 ADD DUP3 DUP1 SLOAD PUSH2 0x2527 SWAP1 PUSH2 0x7A6F JUMP JUMPDEST DUP1 ISZERO PUSH2 0x2572 JUMPI DUP1 PUSH1 0x1F LT PUSH2 0x2549 JUMPI PUSH2 0x100 DUP1 DUP4 SLOAD DIV MUL DUP4 MSTORE SWAP2 PUSH1 0x20 ADD SWAP2 PUSH2 0x2572 JUMP JUMPDEST DUP3 ADD SWAP2 SWAP1 PUSH0 MSTORE PUSH1 0x20 PUSH0 KECCAK256 SWAP1 JUMPDEST DUP2 SLOAD DUP2 MSTORE SWAP1 PUSH1 0x1 ADD SWAP1 PUSH1 0x20 ADD DUP1 DUP4 GT PUSH2 0x2555 JUMPI DUP3 SWAP1 SUB PUSH1 0x1F AND DUP3 ADD SWAP2 JUMPDEST POP POP POP POP POP DUP2 MSTORE PUSH1 0x20 ADD PUSH1 0x4 DUP3 ADD SLOAD DUP2 MSTORE PUSH1 0x20 ADD PUSH1 0x5 DUP3 ADD DUP1 SLOAD PUSH2 0x2595 SWAP1 PUSH2 0x7A6F JUMP JUMPDEST DUP1 PUSH1 0x1F ADD PUSH1 0x20 DUP1 SWAP2 DIV MUL PUSH1 0x20 ADD PUSH1 0x40 MLOAD SWAP1 DUP2 ADD PUSH1 0x40 MSTORE DUP1 SWAP3 SWAP2 SWAP1 DUP2 DUP2 MSTORE PUSH1 0x20 ADD DUP3 DUP1 SLOAD PUSH2 0x25C1 SWAP1 PUSH2 0x7A6F JUMP JUMPDEST DUP1 ISZERO PUSH2 0x260C JUMPI DUP1 PUSH1 0x1F LT PUSH2 0x25E3 JUMPI PUSH2 0x100 DUP1 DUP4 SLOAD DIV MUL DUP4 MSTORE SWAP2 PUSH1 0x20 ADD SWAP2 PUSH2 0x260C JUMP JUMPDEST DUP3 ADD SWAP2 SWAP1 PUSH0 MSTORE PUSH1 0x20 PUSH0 KECCAK256 SWAP1 JUMPDEST DUP2 SLOAD DUP2 MSTORE SWAP1 PUSH1 0x1 ADD SWAP1 PUSH1 0x20 ADD DUP1 DUP4 GT PUSH2 0x25EF JUMPI DUP3 SWAP1 SUB PUSH1 0x1F AND DUP3 ADD SWAP2 JUMPDEST POP POP POP POP POP DUP2 MSTORE PUSH1 0x20 ADD PUSH1 0x6 DUP3 ADD SLOAD DUP2 MSTORE PUSH1 0x20 ADD PUSH1 0x7 DUP3 ADD SLOAD DUP2 MSTORE POP POP SWAP1 POP DUP3 PUSH32 0x5716523A05C9D13997B5A619D69A47EBA3D34842FF0B403EED7CA3A75B05C708 DUP3 PUSH1 0x40 MLOAD PUSH2 0x265B SWAP2 SWAP1 PUSH2 0x7724 JUMP JUMPDEST PUSH1 0x40 MLOAD DUP1 SWAP2 SUB SWAP1 LOG2 DUP3 DUP2 SWAP5 POP SWAP5 POP POP POP POP JUMPDEST SWAP1 SWAP2 JUMP JUMPDEST PUSH3 0x127500 DUP2 JUMP JUMPDEST PUSH3 0x93A80 DUP2 JUMP JUMPDEST PUSH7 0x38D7EA4C68000 DUP2 JUMP JUMPDEST PUSH3 0x5C4900 DUP2 JUMP JUMPDEST PUSH2 0x2699 PUSH2 0x6483 JUMP JUMPDEST PUSH1 0x3B DUP1 SLOAD SWAP1 POP DUP3 LT PUSH2 0x26E0 JUMPI PUSH1 0x40 MLOAD PUSH32 0x8C379A000000000000000000000000000000000000000000000000000000000 DUP2 MSTORE PUSH1 0x4 ADD PUSH2 0x26D7 SWAP1 PUSH2 0x8586 JUMP JUMPDEST PUSH1 0x40 MLOAD DUP1 SWAP2 SUB SWAP1 REVERT JUMPDEST PUSH1 0x3B DUP3 DUP2 SLOAD DUP2 LT PUSH2 0x26F4 JUMPI PUSH2 0x26F3 PUSH2 0x7F84 JUMP JUMPDEST JUMPDEST SWAP1 PUSH0 MSTORE PUSH1 0x20 PUSH0 KECCAK256 SWAP1 PUSH1 0x7 MUL ADD PUSH1 0x40 MLOAD DUP1 PUSH1 0xE0 ADD PUSH1 0x40 MSTORE SWAP1 DUP2 PUSH0 DUP3 ADD PUSH0 SWAP1 SLOAD SWAP1 PUSH2 0x100 EXP SWAP1 DIV PUSH20 0xFFFFFFFFFFFFFFFFFFFFFFFFFFFFFFFFFFFFFFFF AND PUSH20 0xFFFFFFFFFFFFFFFFFFFFFFFFFFFFFFFFFFFFFFFF AND PUSH20 0xFFFFFFFFFFFFFFFFFFFFFFFFFFFFFFFFFFFFFFFF AND DUP2 MSTORE PUSH1 0x20 ADD PUSH1 0x1 DUP3 ADD DUP1 SLOAD PUSH2 0x276F SWAP1 PUSH2 0x7A6F JUMP JUMPDEST DUP1 PUSH1 0x1F ADD PUSH1 0x20 DUP1 SWAP2 DIV MUL PUSH1 0x20 ADD PUSH1 0x40 MLOAD SWAP1 DUP2 ADD PUSH1 0x40 MSTORE DUP1 SWAP3 SWAP2 SWAP1 DUP2 DUP2 MSTORE PUSH1 0x20 ADD DUP3 DUP1 SLOAD PUSH2 0x279B SWAP1 PUSH2 0x7A6F JUMP JUMPDEST DUP1 ISZERO PUSH2 0x27E6 JUMPI DUP1 PUSH1 0x1F LT PUSH2 0x27BD JUMPI PUSH2 0x100 DUP1 DUP4 SLOAD DIV MUL DUP4 MSTORE SWAP2 PUSH1 0x20 ADD SWAP2 PUSH2 0x27E6 JUMP JUMPDEST DUP3 ADD SWAP2 SWAP1 PUSH0 MSTORE PUSH1 0x20 PUSH0 KECCAK256 SWAP1 JUMPDEST DUP2 SLOAD DUP2 MSTORE SWAP1 PUSH1 0x1 ADD SWAP1 PUSH1 0x20 ADD DUP1 DUP4 GT PUSH2 0x27C9 JUMPI DUP3 SWAP1 SUB PUSH1 0x1F AND DUP3 ADD SWAP2 JUMPDEST POP POP POP POP POP DUP2 MSTORE PUSH1 0x20 ADD PUSH1 0x2 DUP3 ADD SLOAD DUP2 MSTORE PUSH1 0x20 ADD PUSH1 0x3 DUP3 ADD SLOAD DUP2 MSTORE PUSH1 0x20 ADD PUSH1 0x4 DUP3 ADD SLOAD DUP2 MSTORE PUSH1 0x20 ADD PUSH1 0x5 DUP3 ADD PUSH0 SWAP1 SLOAD SWAP1 PUSH2 0x100 EXP SWAP1 DIV PUSH1 0xFF AND PUSH1 0xFF AND PUSH1 0xFF AND DUP2 MSTORE PUSH1 0x20 ADD PUSH1 0x6 DUP3 ADD DUP1 SLOAD DUP1 PUSH1 0x20 MUL PUSH1 0x20 ADD PUSH1 0x40 MLOAD SWAP1 DUP2 ADD PUSH1 0x40 MSTORE DUP1 SWAP3 SWAP2 SWAP1 DUP2 DUP2 MSTORE PUSH1 0x20 ADD PUSH0 SWAP1 JUMPDEST DUP3 DUP3 LT ISZERO PUSH2 0x296B JUMPI DUP4 DUP3 SWAP1 PUSH0 MSTORE PUSH1 0x20 PUSH0 KECCAK256 SWAP1 PUSH1 0x3 MUL ADD PUSH1 0x40 MLOAD DUP1 PUSH1 0x60 ADD PUSH1 0x40 MSTORE SWAP1 DUP2 PUSH0 DUP3 ADD SLOAD DUP2 MSTORE PUSH1 0x20 ADD PUSH1 0x1 DUP3 ADD PUSH0 SWAP1 SLOAD SWAP1 PUSH2 0x100 EXP SWAP1 DIV PUSH20 0xFFFFFFFFFFFFFFFFFFFFFFFFFFFFFFFFFFFFFFFF AND PUSH20 0xFFFFFFFFFFFFFFFFFFFFFFFFFFFFFFFFFFFFFFFF AND PUSH20 0xFFFFFFFFFFFFFFFFFFFFFFFFFFFFFFFFFFFFFFFF AND DUP2 MSTORE PUSH1 0x20 ADD PUSH1 0x2 DUP3 ADD DUP1 SLOAD PUSH2 0x28DC SWAP1 PUSH2 0x7A6F JUMP JUMPDEST DUP1 PUSH1 0x1F ADD PUSH1 0x20 DUP1 SWAP2 DIV MUL PUSH1 0x20 ADD PUSH1 0x40 MLOAD SWAP1 DUP2 ADD PUSH1 0x40 MSTORE DUP1 SWAP3 SWAP2 SWAP1 DUP2 DUP2 MSTORE PUSH1 0x20 ADD DUP3 DUP1 SLOAD PUSH2 0x2908 SWAP1 PUSH2 0x7A6F JUMP JUMPDEST DUP1 ISZERO PUSH2 0x2953 JUMPI DUP1 PUSH1 0x1F LT PUSH2 0x292A JUMPI PUSH2 0x100 DUP1 DUP4 SLOAD DIV MUL DUP4 MSTORE SWAP2 PUSH1 0x20 ADD SWAP2 PUSH2 0x2953 JUMP JUMPDEST DUP3 ADD SWAP2 SWAP1 PUSH0 MSTORE PUSH1 0x20 PUSH0 KECCAK256 SWAP1 JUMPDEST DUP2 SLOAD DUP2 MSTORE SWAP1 PUSH1 0x1 ADD SWAP1 PUSH1 0x20 ADD DUP1 DUP4 GT PUSH2 0x2936 JUMPI DUP3 SWAP1 SUB PUSH1 0x1F AND DUP3 ADD SWAP2 JUMPDEST POP POP POP POP POP DUP2 MSTORE POP POP DUP2 MSTORE PUSH1 0x20 ADD SWAP1 PUSH1 0x1 ADD SWAP1 PUSH2 0x284D JUMP JUMPDEST POP POP POP POP DUP2 MSTORE POP POP SWAP1 POP SWAP2 SWAP1 POP JUMP JUMPDEST PUSH1 0xA DUP2 JUMP JUMPDEST PUSH1 0x3B DUP1 SLOAD SWAP1 POP DUP2 LT PUSH2 0x29C6 JUMPI PUSH1 0x40 MLOAD PUSH32 0x8C379A000000000000000000000000000000000000000000000000000000000 DUP2 MSTORE PUSH1 0x4 ADD PUSH2 0x29BD SWAP1 PUSH2 0x8586 JUMP JUMPDEST PUSH1 0x40 MLOAD DUP1 SWAP2 SUB SWAP1 REVERT JUMPDEST PUSH0 PUSH1 0x3B DUP3 DUP2 SLOAD DUP2 LT PUSH2 0x29DB JUMPI PUSH2 0x29DA PUSH2 0x7F84 JUMP JUMPDEST JUMPDEST SWAP1 PUSH0 MSTORE PUSH1 0x20 PUSH0 KECCAK256 SWAP1 PUSH1 0x7 MUL ADD SWAP1 POP CALLER PUSH20 0xFFFFFFFFFFFFFFFFFFFFFFFFFFFFFFFFFFFFFFFF AND DUP2 PUSH0 ADD PUSH0 SWAP1 SLOAD SWAP1 PUSH2 0x100 EXP SWAP1 DIV PUSH20 0xFFFFFFFFFFFFFFFFFFFFFFFFFFFFFFFFFFFFFFFF AND PUSH20 0xFFFFFFFFFFFFFFFFFFFFFFFFFFFFFFFFFFFFFFFF AND EQ PUSH2 0x2A79 JUMPI PUSH1 0x40 MLOAD PUSH32 0x8C379A000000000000000000000000000000000000000000000000000000000 DUP2 MSTORE PUSH1 0x4 ADD PUSH2 0x2A70 SWAP1 PUSH2 0x85EE JUMP JUMPDEST PUSH1 0x40 MLOAD DUP1 SWAP2 SUB SWAP1 REVERT JUMPDEST PUSH0 DUP2 PUSH1 0x3 ADD SLOAD EQ PUSH2 0x2ABF JUMPI PUSH1 0x40 MLOAD PUSH32 0x8C379A000000000000000000000000000000000000000000000000000000000 DUP2 MSTORE PUSH1 0x4 ADD PUSH2 0x2AB6 SWAP1 PUSH2 0x8656 JUMP JUMPDEST PUSH1 0x40 MLOAD DUP1 SWAP2 SUB SWAP1 REVERT JUMPDEST PUSH0 DUP2 PUSH1 0x4 ADD SLOAD EQ PUSH2 0x2B05 JUMPI PUSH1 0x40 MLOAD PUSH32 0x8C379A000000000000000000000000000000000000000000000000000000000 DUP2 MSTORE PUSH1 0x4 ADD PUSH2 0x2AFC SWAP1 PUSH2 0x86BE JUMP JUMPDEST PUSH1 0x40 MLOAD DUP1 SWAP2 SUB SWAP1 REVERT JUMPDEST TIMESTAMP DUP2 PUSH1 0x4 ADD DUP2 SWAP1 SSTORE POP PUSH0 PUSH1 0x3C PUSH0 CALLER PUSH20 0xFFFFFFFFFFFFFFFFFFFFFFFFFFFFFFFFFFFFFFFF AND PUSH20 0xFFFFFFFFFFFFFFFFFFFFFFFFFFFFFFFFFFFFFFFF AND DUP2 MSTORE PUSH1 0x20 ADD SWAP1 DUP2 MSTORE PUSH1 0x20 ADD PUSH0 KECCAK256 DUP2 SWAP1 SSTORE POP DUP2 PUSH32 0xD12DC0E743799A2FD79586130583CBAEED3A9B49D47291F1319569A523EFE39A PUSH1 0x40 MLOAD PUSH1 0x40 MLOAD DUP1 SWAP2 SUB SWAP1 LOG2 POP POP JUMP JUMPDEST PUSH0 SELFBALANCE SWAP1 POP SWAP1 JUMP JUMPDEST PUSH0 PUSH1 0x5 PUSH0 CALLER PUSH20 0xFFFFFFFFFFFFFFFFFFFFFFFFFFFFFFFFFFFFFFFF AND PUSH20 0xFFFFFFFFFFFFFFFFFFFFFFFFFFFFFFFFFFFFFFFF AND DUP2 MSTORE PUSH1 0x20 ADD SWAP1 DUP2 MSTORE PUSH1 0x20 ADD PUSH0 KECCAK256 PUSH1 0x5 ADD PUSH0 SWAP1 SLOAD SWAP1 PUSH2 0x100 EXP SWAP1 DIV PUSH1 0xFF AND PUSH2 0x2C15 JUMPI PUSH1 0x40 MLOAD PUSH32 0x8C379A000000000000000000000000000000000000000000000000000000000 DUP2 MSTORE PUSH1 0x4 ADD PUSH2 0x2C0C SWAP1 PUSH2 0x8726 JUMP JUMPDEST PUSH1 0x40 MLOAD DUP1 SWAP2 SUB SWAP1 REVERT JUMPDEST PUSH1 0x3B DUP1 SLOAD SWAP1 POP DUP3 LT PUSH2 0x2C5C JUMPI PUSH1 0x40 MLOAD PUSH32 0x8C379A000000000000000000000000000000000000000000000000000000000 DUP2 MSTORE PUSH1 0x4 ADD PUSH2 0x2C53 SWAP1 PUSH2 0x8586 JUMP JUMPDEST PUSH1 0x40 MLOAD DUP1 SWAP2 SUB SWAP1 REVERT JUMPDEST PUSH0 PUSH1 0x3B DUP4 DUP2 SLOAD DUP2 LT PUSH2 0x2C71 JUMPI PUSH2 0x2C70 PUSH2 0x7F84 JUMP JUMPDEST JUMPDEST SWAP1 PUSH0 MSTORE PUSH1 0x20 PUSH0 KECCAK256 SWAP1 PUSH1 0x7 MUL ADD SWAP1 POP PUSH0 DUP2 PUSH1 0x4 ADD SLOAD EQ PUSH2 0x2CC5 JUMPI PUSH1 0x40 MLOAD PUSH32 0x8C379A000000000000000000000000000000000000000000000000000000000 DUP2 MSTORE PUSH1 0x4 ADD PUSH2 0x2CBC SWAP1 PUSH2 0x878E JUMP JUMPDEST PUSH1 0x40 MLOAD DUP1 SWAP2 SUB SWAP1 REVERT JUMPDEST PUSH0 PUSH1 0x3D PUSH0 CALLER PUSH20 0xFFFFFFFFFFFFFFFFFFFFFFFFFFFFFFFFFFFFFFFF AND PUSH20 0xFFFFFFFFFFFFFFFFFFFFFFFFFFFFFFFFFFFFFFFF AND DUP2 MSTORE PUSH1 0x20 ADD SWAP1 DUP2 MSTORE PUSH1 0x20 ADD PUSH0 KECCAK256 PUSH0 DUP6 DUP2 MSTORE PUSH1 0x20 ADD SWAP1 DUP2 MSTORE PUSH1 0x20 ADD PUSH0 KECCAK256 SLOAD EQ PUSH2 0x2D53 JUMPI PUSH1 0x40 MLOAD PUSH32 0x8C379A000000000000000000000000000000000000000000000000000000000 DUP2 MSTORE PUSH1 0x4 ADD PUSH2 0x2D4A SWAP1 PUSH2 0x87F6 JUMP JUMPDEST PUSH1 0x40 MLOAD DUP1 SWAP2 SUB SWAP1 REVERT JUMPDEST TIMESTAMP PUSH1 0x3D PUSH0 CALLER PUSH20 0xFFFFFFFFFFFFFFFFFFFFFFFFFFFFFFFFFFFFFFFF AND PUSH20 0xFFFFFFFFFFFFFFFFFFFFFFFFFFFFFFFFFFFFFFFF AND DUP2 MSTORE PUSH1 0x20 ADD SWAP1 DUP2 MSTORE PUSH1 0x20 ADD PUSH0 KECCAK256 PUSH0 DUP6 DUP2 MSTORE PUSH1 0x20 ADD SWAP1 DUP2 MSTORE PUSH1 0x20 ADD PUSH0 KECCAK256 DUP2 SWAP1 SSTORE POP DUP1 PUSH1 0x5 ADD PUSH0 DUP2 DUP2 SWAP1 SLOAD SWAP1 PUSH2 0x100 EXP SWAP1 DIV PUSH1 0xFF AND DUP1 SWAP3 SWAP2 SWAP1 PUSH2 0x2DC4 SWAP1 PUSH2 0x8019 JUMP JUMPDEST SWAP2 SWAP1 PUSH2 0x100 EXP DUP2 SLOAD DUP2 PUSH1 0xFF MUL NOT AND SWAP1 DUP4 PUSH1 0xFF AND MUL OR SWAP1 SSTORE POP POP CALLER PUSH20 0xFFFFFFFFFFFFFFFFFFFFFFFFFFFFFFFFFFFFFFFF AND DUP4 PUSH32 0x3AEB8AB967E7A5CA0C4BE4E02BF008EFEB5A16ED14153472CA601D43B19BD4F1 PUSH1 0x40 MLOAD PUSH1 0x40 MLOAD DUP1 SWAP2 SUB SWAP1 LOG3 PUSH1 0x1E PUSH1 0xFF AND DUP2 PUSH1 0x5 ADD PUSH0 SWAP1 SLOAD SWAP1 PUSH2 0x100 EXP SWAP1 DIV PUSH1 0xFF AND PUSH1 0xFF AND LT ISZERO DUP1 ISZERO PUSH2 0x2E4B JUMPI POP PUSH0 DUP2 PUSH1 0x3 ADD SLOAD EQ JUMPDEST ISZERO PUSH2 0x2EF4 JUMPI DUP3 PUSH32 0x2CCC8A7792343A50763432C0B3BAF786CAABCE7A3443756A81F743B21084FDB3 PUSH1 0x40 MLOAD PUSH1 0x40 MLOAD DUP1 SWAP2 SUB SWAP1 LOG2 TIMESTAMP DUP2 PUSH1 0x3 ADD DUP2 SWAP1 SSTORE POP PUSH0 PUSH1 0x3C PUSH0 DUP4 PUSH0 ADD PUSH0 SWAP1 SLOAD SWAP1 PUSH2 0x100 EXP SWAP1 DIV PUSH20 0xFFFFFFFFFFFFFFFFFFFFFFFFFFFFFFFFFFFFFFFF AND PUSH20 0xFFFFFFFFFFFFFFFFFFFFFFFFFFFFFFFFFFFFFFFF AND PUSH20 0xFFFFFFFFFFFFFFFFFFFFFFFFFFFFFFFFFFFFFFFF AND DUP2 MSTORE PUSH1 0x20 ADD SWAP1 DUP2 MSTORE PUSH1 0x20 ADD PUSH0 KECCAK256 DUP2 SWAP1 SSTORE POP PUSH2 0x2EF3 DUP4 PUSH2 0x626C JUMP JUMPDEST JUMPDEST DUP1 PUSH1 0x5 ADD PUSH0 SWAP1 SLOAD SWAP1 PUSH2 0x100 EXP SWAP1 DIV PUSH1 0xFF AND SWAP2 POP POP SWAP2 SWAP1 POP JUMP JUMPDEST PUSH0 PUSH1 0x5 PUSH0 CALLER PUSH20 0xFFFFFFFFFFFFFFFFFFFFFFFFFFFFFFFFFFFFFFFF AND PUSH20 0xFFFFFFFFFFFFFFFFFFFFFFFFFFFFFFFFFFFFFFFF AND DUP2 MSTORE PUSH1 0x20 ADD SWAP1 DUP2 MSTORE PUSH1 0x20 ADD PUSH0 KECCAK256 PUSH1 0x5 ADD PUSH0 SWAP1 SLOAD SWAP1 PUSH2 0x100 EXP SWAP1 DIV PUSH1 0xFF AND PUSH2 0x2F9A JUMPI PUSH1 0x40 MLOAD PUSH32 0x8C379A000000000000000000000000000000000000000000000000000000000 DUP2 MSTORE PUSH1 0x4 ADD PUSH2 0x2F91 SWAP1 PUSH2 0x885E JUMP JUMPDEST PUSH1 0x40 MLOAD DUP1 SWAP2 SUB SWAP1 REVERT JUMPDEST PUSH0 DUP6 DUP6 SWAP1 POP GT PUSH2 0x2FDF JUMPI PUSH1 0x40 MLOAD PUSH32 0x8C379A000000000000000000000000000000000000000000000000000000000 DUP2 MSTORE PUSH1 0x4 ADD PUSH2 0x2FD6 SWAP1 PUSH2 0x88C6 JUMP JUMPDEST PUSH1 0x40 MLOAD DUP1 SWAP2 SUB SWAP1 REVERT JUMPDEST PUSH0 PUSH1 0x3C PUSH0 CALLER PUSH20 0xFFFFFFFFFFFFFFFFFFFFFFFFFFFFFFFFFFFFFFFF AND PUSH20 0xFFFFFFFFFFFFFFFFFFFFFFFFFFFFFFFFFFFFFFFF AND DUP2 MSTORE PUSH1 0x20 ADD SWAP1 DUP2 MSTORE PUSH1 0x20 ADD PUSH0 KECCAK256 SLOAD EQ PUSH2 0x305E JUMPI PUSH1 0x40 MLOAD PUSH32 0x8C379A000000000000000000000000000000000000000000000000000000000 DUP2 MSTORE PUSH1 0x4 ADD PUSH2 0x3055 SWAP1 PUSH2 0x8954 JUMP JUMPDEST PUSH1 0x40 MLOAD DUP1 SWAP2 SUB SWAP1 REVERT JUMPDEST PUSH0 PUSH1 0x3B DUP1 SLOAD SWAP1 POP SWAP1 POP DUP1 PUSH1 0x3C PUSH0 CALLER PUSH20 0xFFFFFFFFFFFFFFFFFFFFFFFFFFFFFFFFFFFFFFFF AND PUSH20 0xFFFFFFFFFFFFFFFFFFFFFFFFFFFFFFFFFFFFFFFF AND DUP2 MSTORE PUSH1 0x20 ADD SWAP1 DUP2 MSTORE PUSH1 0x20 ADD PUSH0 KECCAK256 DUP2 SWAP1 SSTORE POP PUSH1 0x3B PUSH1 0x1 DUP2 PUSH1 0x1 DUP2 SLOAD ADD DUP1 DUP3 SSTORE DUP1 SWAP2 POP POP SUB SWAP1 PUSH0 MSTORE PUSH1 0x20 PUSH0 KECCAK256 SWAP1 POP POP PUSH0 PUSH1 0x3B DUP3 DUP2 SLOAD DUP2 LT PUSH2 0x30DA JUMPI PUSH2 0x30D9 PUSH2 0x7F84 JUMP JUMPDEST JUMPDEST SWAP1 PUSH0 MSTORE PUSH1 0x20 PUSH0 KECCAK256 SWAP1 PUSH1 0x7 MUL ADD SWAP1 POP CALLER DUP2 PUSH0 ADD PUSH0 PUSH2 0x100 EXP DUP2 SLOAD DUP2 PUSH20 0xFFFFFFFFFFFFFFFFFFFFFFFFFFFFFFFFFFFFFFFF MUL NOT AND SWAP1 DUP4 PUSH20 0xFFFFFFFFFFFFFFFFFFFFFFFFFFFFFFFFFFFFFFFF AND MUL OR SWAP1 SSTORE POP DUP7 DUP7 DUP3 PUSH1 0x1 ADD SWAP2 DUP3 PUSH2 0x313C SWAP3 SWAP2 SWAP1 PUSH2 0x897C JUMP JUMPDEST POP TIMESTAMP DUP2 PUSH1 0x2 ADD DUP2 SWAP1 SSTORE POP PUSH0 JUMPDEST DUP6 DUP6 SWAP1 POP DUP2 LT ISZERO PUSH2 0x31BD JUMPI DUP2 PUSH1 0x6 ADD DUP7 DUP7 DUP4 DUP2 DUP2 LT PUSH2 0x316A JUMPI PUSH2 0x3169 PUSH2 0x7F84 JUMP JUMPDEST JUMPDEST SWAP1 POP PUSH1 0x20 MUL DUP2 ADD SWAP1 PUSH2 0x317C SWAP2 SWAP1 PUSH2 0x8A55 JUMP JUMPDEST SWAP1 DUP1 PUSH1 0x1 DUP2 SLOAD ADD DUP1 DUP3 SSTORE DUP1 SWAP2 POP POP PUSH1 0x1 SWAP1 SUB SWAP1 PUSH0 MSTORE PUSH1 0x20 PUSH0 KECCAK256 SWAP1 PUSH1 0x3 MUL ADD PUSH0 SWAP1 SWAP2 SWAP1 SWAP2 SWAP1 SWAP2 POP DUP2 DUP2 PUSH2 0x31AE SWAP2 SWAP1 PUSH2 0x8C90 JUMP JUMPDEST POP POP DUP1 DUP1 PUSH1 0x1 ADD SWAP2 POP POP PUSH2 0x3148 JUMP JUMPDEST POP CALLER PUSH20 0xFFFFFFFFFFFFFFFFFFFFFFFFFFFFFFFFFFFFFFFF AND PUSH1 0x3B DUP1 SLOAD SWAP1 POP PUSH32 0xF5D77876858B5AD3802640C28E52B951551A2E4774BAAB2A284EA51D40271889 DUP10 DUP10 PUSH1 0x40 MLOAD PUSH2 0x320C SWAP3 SWAP2 SWAP1 PUSH2 0x8CCA JUMP JUMPDEST PUSH1 0x40 MLOAD DUP1 SWAP2 SUB SWAP1 LOG3 PUSH1 0x3B DUP1 SLOAD SWAP1 POP SWAP3 POP POP POP SWAP5 SWAP4 POP POP POP POP JUMP JUMPDEST PUSH1 0x2 PUSH1 0x4 DUP2 GT ISZERO PUSH2 0x323A JUMPI PUSH2 0x3239 PUSH2 0x7478 JUMP JUMPDEST JUMPDEST PUSH2 0x3242 PUSH2 0x417F JUMP JUMPDEST PUSH1 0x4 DUP2 GT ISZERO PUSH2 0x3254 JUMPI PUSH2 0x3253 PUSH2 0x7478 JUMP JUMPDEST JUMPDEST EQ PUSH2 0x3294 JUMPI PUSH1 0x40 MLOAD PUSH32 0x8C379A000000000000000000000000000000000000000000000000000000000 DUP2 MSTORE PUSH1 0x4 ADD PUSH2 0x328B SWAP1 PUSH2 0x8D36 JUMP JUMPDEST PUSH1 0x40 MLOAD DUP1 SWAP2 SUB SWAP1 REVERT JUMPDEST PUSH0 DUP2 PUSH0 ADD MLOAD MLOAD GT PUSH2 0x32DA JUMPI PUSH1 0x40 MLOAD PUSH32 0x8C379A000000000000000000000000000000000000000000000000000000000 DUP2 MSTORE PUSH1 0x4 ADD PUSH2 0x32D1 SWAP1 PUSH2 0x8D9E JUMP JUMPDEST PUSH1 0x40 MLOAD DUP1 SWAP2 SUB SWAP1 REVERT JUMPDEST PUSH0 DUP2 PUSH1 0x20 ADD MLOAD MLOAD GT PUSH2 0x3321 JUMPI PUSH1 0x40 MLOAD PUSH32 0x8C379A000000000000000000000000000000000000000000000000000000000 DUP2 MSTORE PUSH1 0x4 ADD PUSH2 0x3318 SWAP1 PUSH2 0x8E06 JUMP JUMPDEST PUSH1 0x40 MLOAD DUP1 SWAP2 SUB SWAP1 REVERT JUMPDEST PUSH0 DUP2 PUSH1 0x60 ADD MLOAD MLOAD GT PUSH2 0x3368 JUMPI PUSH1 0x40 MLOAD PUSH32 0x8C379A000000000000000000000000000000000000000000000000000000000 DUP2 MSTORE PUSH1 0x4 ADD PUSH2 0x335F SWAP1 PUSH2 0x8E6E JUMP JUMPDEST PUSH1 0x40 MLOAD DUP1 SWAP2 SUB SWAP1 REVERT JUMPDEST PUSH7 0x38D7EA4C68000 CALLVALUE LT ISZERO PUSH2 0x33B2 JUMPI PUSH1 0x40 MLOAD PUSH32 0x8C379A000000000000000000000000000000000000000000000000000000000 DUP2 MSTORE PUSH1 0x4 ADD PUSH2 0x33A9 SWAP1 PUSH2 0x8ED6 JUMP JUMPDEST PUSH1 0x40 MLOAD DUP1 SWAP2 SUB SWAP1 REVERT JUMPDEST PUSH0 DUP2 PUSH0 ADD MLOAD DUP3 PUSH1 0x40 ADD MLOAD DUP4 PUSH1 0x20 ADD MLOAD DUP5 PUSH1 0x60 ADD MLOAD PUSH1 0x40 MLOAD PUSH1 0x20 ADD PUSH2 0x33D9 SWAP5 SWAP4 SWAP3 SWAP2 SWAP1 PUSH2 0x8F2E JUMP JUMPDEST PUSH1 0x40 MLOAD PUSH1 0x20 DUP2 DUP4 SUB SUB DUP2 MSTORE SWAP1 PUSH1 0x40 MSTORE DUP1 MLOAD SWAP1 PUSH1 0x20 ADD KECCAK256 SWAP1 POP DUP2 PUSH1 0x80 ADD MLOAD DUP2 EQ PUSH2 0x3437 JUMPI PUSH1 0x40 MLOAD PUSH32 0x8C379A000000000000000000000000000000000000000000000000000000000 DUP2 MSTORE PUSH1 0x4 ADD PUSH2 0x342E SWAP1 PUSH2 0x8FB5 JUMP JUMPDEST PUSH1 0x40 MLOAD DUP1 SWAP2 SUB SWAP1 REVERT JUMPDEST TIMESTAMP DUP3 PUSH1 0xC0 ADD DUP2 DUP2 MSTORE POP POP PUSH0 DUP3 PUSH1 0xE0 ADD DUP2 DUP2 MSTORE POP POP PUSH1 0x3F DUP3 SWAP1 DUP1 PUSH1 0x1 DUP2 SLOAD ADD DUP1 DUP3 SSTORE DUP1 SWAP2 POP POP PUSH1 0x1 SWAP1 SUB SWAP1 PUSH0 MSTORE PUSH1 0x20 PUSH0 KECCAK256 SWAP1 PUSH1 0x8 MUL ADD PUSH0 SWAP1 SWAP2 SWAP1 SWAP2 SWAP1 SWAP2 POP PUSH0 DUP3 ADD MLOAD DUP2 PUSH0 ADD SWAP1 DUP2 PUSH2 0x3487 SWAP2 SWAP1 PUSH2 0x7C3C JUMP JUMPDEST POP PUSH1 0x20 DUP3 ADD MLOAD DUP2 PUSH1 0x1 ADD SWAP1 DUP2 PUSH2 0x349D SWAP2 SWAP1 PUSH2 0x7C3C JUMP JUMPDEST POP PUSH1 0x40 DUP3 ADD MLOAD DUP2 PUSH1 0x2 ADD SWAP1 DUP2 PUSH2 0x34B3 SWAP2 SWAP1 PUSH2 0x7C3C JUMP JUMPDEST POP PUSH1 0x60 DUP3 ADD MLOAD DUP2 PUSH1 0x3 ADD SWAP1 DUP2 PUSH2 0x34C9 SWAP2 SWAP1 PUSH2 0x7C3C JUMP JUMPDEST POP PUSH1 0x80 DUP3 ADD MLOAD DUP2 PUSH1 0x4 ADD SSTORE PUSH1 0xA0 DUP3 ADD MLOAD DUP2 PUSH1 0x5 ADD SWAP1 DUP2 PUSH2 0x34E9 SWAP2 SWAP1 PUSH2 0x7C3C JUMP JUMPDEST POP PUSH1 0xC0 DUP3 ADD MLOAD DUP2 PUSH1 0x6 ADD SSTORE PUSH1 0xE0 DUP3 ADD MLOAD DUP2 PUSH1 0x7 ADD SSTORE POP POP PUSH1 0x1 PUSH1 0x3F DUP1 SLOAD SWAP1 POP PUSH2 0x3512 SWAP2 SWAP1 PUSH2 0x8FD3 JUMP JUMPDEST PUSH32 0xD75E0F38FA86696DCBAABFD45A3D7B9A804228A74D63AD451CD89BAC51F89B6 DUP4 PUSH1 0x40 MLOAD PUSH2 0x3541 SWAP2 SWAP1 PUSH2 0x7724 JUMP JUMPDEST PUSH1 0x40 MLOAD DUP1 SWAP2 SUB SWAP1 LOG2 POP POP JUMP JUMPDEST PUSH1 0x47 PUSH1 0x20 MSTORE DUP2 PUSH0 MSTORE PUSH1 0x40 PUSH0 KECCAK256 DUP2 DUP2 SLOAD DUP2 LT PUSH2 0x3566 JUMPI PUSH0 DUP1 REVERT JUMPDEST SWAP1 PUSH0 MSTORE PUSH1 0x20 PUSH0 KECCAK256 SWAP1 PUSH1 0x2 MUL ADD PUSH0 SWAP2 POP SWAP2 POP POP DUP1 PUSH0 ADD SLOAD SWAP1 DUP1 PUSH1 0x1 ADD SLOAD SWAP1 POP DUP3 JUMP JUMPDEST PUSH2 0x358F PUSH2 0x64D4 JUMP JUMPDEST PUSH1 0x6 DUP1 SLOAD SWAP1 POP DUP3 LT PUSH2 0x35D6 JUMPI PUSH1 0x40 MLOAD PUSH32 0x8C379A000000000000000000000000000000000000000000000000000000000 DUP2 MSTORE PUSH1 0x4 ADD PUSH2 0x35CD SWAP1 PUSH2 0x9050 JUMP JUMPDEST PUSH1 0x40 MLOAD DUP1 SWAP2 SUB SWAP1 REVERT JUMPDEST PUSH1 0x5 PUSH0 PUSH1 0x6 DUP5 DUP2 SLOAD DUP2 LT PUSH2 0x35ED JUMPI PUSH2 0x35EC PUSH2 0x7F84 JUMP JUMPDEST JUMPDEST SWAP1 PUSH0 MSTORE PUSH1 0x20 PUSH0 KECCAK256 ADD PUSH0 SWAP1 SLOAD SWAP1 PUSH2 0x100 EXP SWAP1 DIV PUSH20 0xFFFFFFFFFFFFFFFFFFFFFFFFFFFFFFFFFFFFFFFF AND PUSH20 0xFFFFFFFFFFFFFFFFFFFFFFFFFFFFFFFFFFFFFFFF AND PUSH20 0xFFFFFFFFFFFFFFFFFFFFFFFFFFFFFFFFFFFFFFFF AND DUP2 MSTORE PUSH1 0x20 ADD SWAP1 DUP2 MSTORE PUSH1 0x20 ADD PUSH0 KECCAK256 PUSH1 0x40 MLOAD DUP1 PUSH1 0xE0 ADD PUSH1 0x40 MSTORE SWAP1 DUP2 PUSH0 DUP3 ADD DUP1 SLOAD PUSH2 0x3668 SWAP1 PUSH2 0x7A6F JUMP JUMPDEST DUP1 PUSH1 0x1F ADD PUSH1 0x20 DUP1 SWAP2 DIV MUL PUSH1 0x20 ADD PUSH1 0x40 MLOAD SWAP1 DUP2 ADD PUSH1 0x40 MSTORE DUP1 SWAP3 SWAP2 SWAP1 DUP2 DUP2 MSTORE PUSH1 0x20 ADD DUP3 DUP1 SLOAD PUSH2 0x3694 SWAP1 PUSH2 0x7A6F JUMP JUMPDEST DUP1 ISZERO PUSH2 0x36DF JUMPI DUP1 PUSH1 0x1F LT PUSH2 0x36B6 JUMPI PUSH2 0x100 DUP1 DUP4 SLOAD DIV MUL DUP4 MSTORE SWAP2 PUSH1 0x20 ADD SWAP2 PUSH2 0x36DF JUMP JUMPDEST DUP3 ADD SWAP2 SWAP1 PUSH0 MSTORE PUSH1 0x20 PUSH0 KECCAK256 SWAP1 JUMPDEST DUP2 SLOAD DUP2 MSTORE SWAP1 PUSH1 0x1 ADD SWAP1 PUSH1 0x20 ADD DUP1 DUP4 GT PUSH2 0x36C2 JUMPI DUP3 SWAP1 SUB PUSH1 0x1F AND DUP3 ADD SWAP2 JUMPDEST POP POP POP POP POP DUP2 MSTORE PUSH1 0x20 ADD PUSH1 0x1 DUP3 ADD DUP1 SLOAD PUSH2 0x36F8 SWAP1 PUSH2 0x7A6F JUMP JUMPDEST DUP1 PUSH1 0x1F ADD PUSH1 0x20 DUP1 SWAP2 DIV MUL PUSH1 0x20 ADD PUSH1 0x40 MLOAD SWAP1 DUP2 ADD PUSH1 0x40 MSTORE DUP1 SWAP3 SWAP2 SWAP1 DUP2 DUP2 MSTORE PUSH1 0x20 ADD DUP3 DUP1 SLOAD PUSH2 0x3724 SWAP1 PUSH2 0x7A6F JUMP JUMPDEST DUP1 ISZERO PUSH2 0x376F JUMPI DUP1 PUSH1 0x1F LT PUSH2 0x3746 JUMPI PUSH2 0x100 DUP1 DUP4 SLOAD DIV MUL DUP4 MSTORE SWAP2 PUSH1 0x20 ADD SWAP2 PUSH2 0x376F JUMP JUMPDEST DUP3 ADD SWAP2 SWAP1 PUSH0 MSTORE PUSH1 0x20 PUSH0 KECCAK256 SWAP1 JUMPDEST DUP2 SLOAD DUP2 MSTORE SWAP1 PUSH1 0x1 ADD SWAP1 PUSH1 0x20 ADD DUP1 DUP4 GT PUSH2 0x3752 JUMPI DUP3 SWAP1 SUB PUSH1 0x1F AND DUP3 ADD SWAP2 JUMPDEST POP POP POP POP POP DUP2 MSTORE PUSH1 0x20 ADD PUSH1 0x2 DUP3 ADD DUP1 SLOAD PUSH2 0x3788 SWAP1 PUSH2 0x7A6F JUMP JUMPDEST DUP1 PUSH1 0x1F ADD PUSH1 0x20 DUP1 SWAP2 DIV MUL PUSH1 0x20 ADD PUSH1 0x40 MLOAD SWAP1 DUP2 ADD PUSH1 0x40 MSTORE DUP1 SWAP3 SWAP2 SWAP1 DUP2 DUP2 MSTORE PUSH1 0x20 ADD DUP3 DUP1 SLOAD PUSH2 0x37B4 SWAP1 PUSH2 0x7A6F JUMP JUMPDEST DUP1 ISZERO PUSH2 0x37FF JUMPI DUP1 PUSH1 0x1F LT PUSH2 0x37D6 JUMPI PUSH2 0x100 DUP1 DUP4 SLOAD DIV MUL DUP4 MSTORE SWAP2 PUSH1 0x20 ADD SWAP2 PUSH2 0x37FF JUMP JUMPDEST DUP3 ADD SWAP2 SWAP1 PUSH0 MSTORE PUSH1 0x20 PUSH0 KECCAK256 SWAP1 JUMPDEST DUP2 SLOAD DUP2 MSTORE SWAP1 PUSH1 0x1 ADD SWAP1 PUSH1 0x20 ADD DUP1 DUP4 GT PUSH2 0x37E2 JUMPI DUP3 SWAP1 SUB PUSH1 0x1F AND DUP3 ADD SWAP2 JUMPDEST POP POP POP POP POP DUP2 MSTORE PUSH1 0x20 ADD PUSH1 0x3 DUP3 ADD SLOAD DUP2 MSTORE PUSH1 0x20 ADD PUSH1 0x4 DUP3 ADD SLOAD DUP2 MSTORE PUSH1 0x20 ADD PUSH1 0x5 DUP3 ADD PUSH0 SWAP1 SLOAD SWAP1 PUSH2 0x100 EXP SWAP1 DIV PUSH1 0xFF AND ISZERO ISZERO ISZERO ISZERO DUP2 MSTORE PUSH1 0x20 ADD PUSH1 0x6 DUP3 ADD SLOAD DUP2 MSTORE POP POP SWAP1 POP SWAP2 SWAP1 POP JUMP JUMPDEST PUSH0 PUSH1 0x41 PUSH0 DUP4 PUSH20 0xFFFFFFFFFFFFFFFFFFFFFFFFFFFFFFFFFFFFFFFF AND PUSH20 0xFFFFFFFFFFFFFFFFFFFFFFFFFFFFFFFFFFFFFFFF AND DUP2 MSTORE PUSH1 0x20 ADD SWAP1 DUP2 MSTORE PUSH1 0x20 ADD PUSH0 KECCAK256 SLOAD SWAP1 POP SWAP2 SWAP1 POP JUMP JUMPDEST PUSH32 0x0 DUP2 JUMP JUMPDEST PUSH7 0x38D7EA4C68000 DUP2 JUMP JUMPDEST PUSH1 0x39 PUSH1 0x1 SWAP1 SLOAD SWAP1 PUSH2 0x100 EXP SWAP1 DIV PUSH20 0xFFFFFFFFFFFFFFFFFFFFFFFFFFFFFFFFFFFFFFFF AND DUP2 JUMP JUMPDEST PUSH0 PUSH1 0x2 PUSH0 DUP4 DUP2 MSTORE PUSH1 0x20 ADD SWAP1 DUP2 MSTORE PUSH1 0x20 ADD PUSH0 KECCAK256 PUSH0 SWAP1 SLOAD SWAP1 PUSH2 0x100 EXP SWAP1 DIV PUSH1 0xFF AND SWAP1 POP SWAP2 SWAP1 POP JUMP JUMPDEST PUSH0 PUSH1 0x5 PUSH0 DUP4 PUSH20 0xFFFFFFFFFFFFFFFFFFFFFFFFFFFFFFFFFFFFFFFF AND PUSH20 0xFFFFFFFFFFFFFFFFFFFFFFFFFFFFFFFFFFFFFFFF AND DUP2 MSTORE PUSH1 0x20 ADD SWAP1 DUP2 MSTORE PUSH1 0x20 ADD PUSH0 KECCAK256 PUSH1 0x5 ADD PUSH0 SWAP1 SLOAD SWAP1 PUSH2 0x100 EXP SWAP1 DIV PUSH1 0xFF AND PUSH2 0x3995 JUMPI PUSH1 0x40 MLOAD PUSH32 0x8C379A000000000000000000000000000000000000000000000000000000000 DUP2 MSTORE PUSH1 0x4 ADD PUSH2 0x398C SWAP1 PUSH2 0x90B8 JUMP JUMPDEST PUSH1 0x40 MLOAD DUP1 SWAP2 SUB SWAP1 REVERT JUMPDEST PUSH1 0x3C PUSH0 DUP4 PUSH20 0xFFFFFFFFFFFFFFFFFFFFFFFFFFFFFFFFFFFFFFFF AND PUSH20 0xFFFFFFFFFFFFFFFFFFFFFFFFFFFFFFFFFFFFFFFF AND DUP2 MSTORE PUSH1 0x20 ADD SWAP1 DUP2 MSTORE PUSH1 0x20 ADD PUSH0 KECCAK256 SLOAD SWAP1 POP SWAP2 SWAP1 POP JUMP JUMPDEST PUSH1 0xAD PUSH0 SWAP1 SLOAD SWAP1 PUSH2 0x100 EXP SWAP1 DIV PUSH1 0xFF AND DUP2 JUMP JUMPDEST PUSH0 PUSH1 0x40 MLOAD DUP1 PUSH1 0x40 ADD PUSH1 0x40 MSTORE DUP1 CALLVALUE DUP2 MSTORE PUSH1 0x20 ADD TIMESTAMP DUP2 MSTORE POP SWAP1 POP PUSH1 0x47 PUSH0 CALLER PUSH20 0xFFFFFFFFFFFFFFFFFFFFFFFFFFFFFFFFFFFFFFFF AND PUSH20 0xFFFFFFFFFFFFFFFFFFFFFFFFFFFFFFFFFFFFFFFF AND DUP2 MSTORE PUSH1 0x20 ADD SWAP1 DUP2 MSTORE PUSH1 0x20 ADD PUSH0 KECCAK256 DUP2 SWAP1 DUP1 PUSH1 0x1 DUP2 SLOAD ADD DUP1 DUP3 SSTORE DUP1 SWAP2 POP POP PUSH1 0x1 SWAP1 SUB SWAP1 PUSH0 MSTORE PUSH1 0x20 PUSH0 KECCAK256 SWAP1 PUSH1 0x2 MUL ADD PUSH0 SWAP1 SWAP2 SWAP1 SWAP2 SWAP1 SWAP2 POP PUSH0 DUP3 ADD MLOAD DUP2 PUSH0 ADD SSTORE PUSH1 0x20 DUP3 ADD MLOAD DUP2 PUSH1 0x1 ADD SSTORE POP POP CALLER PUSH20 0xFFFFFFFFFFFFFFFFFFFFFFFFFFFFFFFFFFFFFFFF AND PUSH32 0x976BE468429698A1B0AE0C20A0329BDB6E24722A3F834A2C54B84D63C1722F32 CALLVALUE PUSH1 0x40 MLOAD PUSH2 0x3AC2 SWAP2 SWAP1 PUSH2 0x7054 JUMP JUMPDEST PUSH1 0x40 MLOAD DUP1 SWAP2 SUB SWAP1 LOG2 POP JUMP JUMPDEST PUSH1 0xA PUSH1 0xAF PUSH0 CALLER PUSH20 0xFFFFFFFFFFFFFFFFFFFFFFFFFFFFFFFFFFFFFFFF AND PUSH20 0xFFFFFFFFFFFFFFFFFFFFFFFFFFFFFFFFFFFFFFFF AND DUP2 MSTORE PUSH1 0x20 ADD SWAP1 DUP2 MSTORE PUSH1 0x20 ADD PUSH0 KECCAK256 SLOAD SLT ISZERO PUSH2 0x3B4E JUMPI PUSH1 0x40 MLOAD PUSH32 0x8C379A000000000000000000000000000000000000000000000000000000000 DUP2 MSTORE PUSH1 0x4 ADD PUSH2 0x3B45 SWAP1 PUSH2 0x9120 JUMP JUMPDEST PUSH1 0x40 MLOAD DUP1 SWAP2 SUB SWAP1 REVERT JUMPDEST PUSH1 0x2 PUSH1 0x4 DUP2 GT ISZERO PUSH2 0x3B62 JUMPI PUSH2 0x3B61 PUSH2 0x7478 JUMP JUMPDEST JUMPDEST PUSH2 0x3B6A PUSH2 0x417F JUMP JUMPDEST PUSH1 0x4 DUP2 GT ISZERO PUSH2 0x3B7C JUMPI PUSH2 0x3B7B PUSH2 0x7478 JUMP JUMPDEST JUMPDEST EQ PUSH2 0x3BBC JUMPI PUSH1 0x40 MLOAD PUSH32 0x8C379A000000000000000000000000000000000000000000000000000000000 DUP2 MSTORE PUSH1 0x4 ADD PUSH2 0x3BB3 SWAP1 PUSH2 0x8D36 JUMP JUMPDEST PUSH1 0x40 MLOAD DUP1 SWAP2 SUB SWAP1 REVERT JUMPDEST PUSH1 0xA PUSH4 0xFFFFFFFF AND PUSH1 0xA EQ DUP1 ISZERO PUSH2 0x3BDA JUMPI POP PUSH1 0xA PUSH4 0xFFFFFFFF AND PUSH1 0xA EQ JUMPDEST PUSH2 0x3C19 JUMPI PUSH1 0x40 MLOAD PUSH32 0x8C379A000000000000000000000000000000000000000000000000000000000 DUP2 MSTORE PUSH1 0x4 ADD PUSH2 0x3C10 SWAP1 PUSH2 0x7F66 JUMP JUMPDEST PUSH1 0x40 MLOAD DUP1 SWAP2 SUB SWAP1 REVERT JUMPDEST PUSH0 JUMPDEST PUSH1 0xA PUSH4 0xFFFFFFFF AND DUP2 PUSH1 0xFF AND LT ISZERO PUSH2 0x3EA0 JUMPI PUSH0 PUSH20 0xFFFFFFFFFFFFFFFFFFFFFFFFFFFFFFFFFFFFFFFF AND PUSH1 0x40 PUSH0 DUP6 DUP5 PUSH1 0xFF AND PUSH1 0xA DUP2 LT PUSH2 0x3C5D JUMPI PUSH2 0x3C5C PUSH2 0x7F84 JUMP JUMPDEST JUMPDEST PUSH1 0x20 MUL ADD CALLDATALOAD DUP2 MSTORE PUSH1 0x20 ADD SWAP1 DUP2 MSTORE PUSH1 0x20 ADD PUSH0 KECCAK256 PUSH0 PUSH1 0x2 DUP2 LT PUSH2 0x3C81 JUMPI PUSH2 0x3C80 PUSH2 0x7F84 JUMP JUMPDEST JUMPDEST ADD PUSH0 SWAP1 SLOAD SWAP1 PUSH2 0x100 EXP SWAP1 DIV PUSH20 0xFFFFFFFFFFFFFFFFFFFFFFFFFFFFFFFFFFFFFFFF AND PUSH20 0xFFFFFFFFFFFFFFFFFFFFFFFFFFFFFFFFFFFFFFFF AND SUB PUSH2 0x3D3E JUMPI CALLER PUSH1 0x40 PUSH0 DUP6 DUP5 PUSH1 0xFF AND PUSH1 0xA DUP2 LT PUSH2 0x3CD7 JUMPI PUSH2 0x3CD6 PUSH2 0x7F84 JUMP JUMPDEST JUMPDEST PUSH1 0x20 MUL ADD CALLDATALOAD DUP2 MSTORE PUSH1 0x20 ADD SWAP1 DUP2 MSTORE PUSH1 0x20 ADD PUSH0 KECCAK256 PUSH0 PUSH1 0x2 DUP2 LT PUSH2 0x3CFB JUMPI PUSH2 0x3CFA PUSH2 0x7F84 JUMP JUMPDEST JUMPDEST ADD PUSH0 PUSH2 0x100 EXP DUP2 SLOAD DUP2 PUSH20 0xFFFFFFFFFFFFFFFFFFFFFFFFFFFFFFFFFFFFFFFF MUL NOT AND SWAP1 DUP4 PUSH20 0xFFFFFFFFFFFFFFFFFFFFFFFFFFFFFFFFFFFFFFFF AND MUL OR SWAP1 SSTORE POP PUSH2 0x3E8D JUMP JUMPDEST PUSH0 PUSH20 0xFFFFFFFFFFFFFFFFFFFFFFFFFFFFFFFFFFFFFFFF AND PUSH1 0x40 PUSH0 DUP6 DUP5 PUSH1 0xFF AND PUSH1 0xA DUP2 LT PUSH2 0x3D6E JUMPI PUSH2 0x3D6D PUSH2 0x7F84 JUMP JUMPDEST JUMPDEST PUSH1 0x20 MUL ADD CALLDATALOAD DUP2 MSTORE PUSH1 0x20 ADD SWAP1 DUP2 MSTORE PUSH1 0x20 ADD PUSH0 KECCAK256 PUSH1 0x1 PUSH1 0x2 DUP2 LT PUSH2 0x3D93 JUMPI PUSH2 0x3D92 PUSH2 0x7F84 JUMP JUMPDEST JUMPDEST ADD PUSH0 SWAP1 SLOAD SWAP1 PUSH2 0x100 EXP SWAP1 DIV PUSH20 0xFFFFFFFFFFFFFFFFFFFFFFFFFFFFFFFFFFFFFFFF AND PUSH20 0xFFFFFFFFFFFFFFFFFFFFFFFFFFFFFFFFFFFFFFFF AND SUB PUSH2 0x3E51 JUMPI CALLER PUSH1 0x40 PUSH0 DUP6 DUP5 PUSH1 0xFF AND PUSH1 0xA DUP2 LT PUSH2 0x3DE9 JUMPI PUSH2 0x3DE8 PUSH2 0x7F84 JUMP JUMPDEST JUMPDEST PUSH1 0x20 MUL ADD CALLDATALOAD DUP2 MSTORE PUSH1 0x20 ADD SWAP1 DUP2 MSTORE PUSH1 0x20 ADD PUSH0 KECCAK256 PUSH1 0x1 PUSH1 0x2 DUP2 LT PUSH2 0x3E0E JUMPI PUSH2 0x3E0D PUSH2 0x7F84 JUMP JUMPDEST JUMPDEST ADD PUSH0 PUSH2 0x100 EXP DUP2 SLOAD DUP2 PUSH20 0xFFFFFFFFFFFFFFFFFFFFFFFFFFFFFFFFFFFFFFFF MUL NOT AND SWAP1 DUP4 PUSH20 0xFFFFFFFFFFFFFFFFFFFFFFFFFFFFFFFFFFFFFFFF AND MUL OR SWAP1 SSTORE POP PUSH2 0x3E8C JUMP JUMPDEST PUSH1 0x40 MLOAD PUSH32 0x8C379A000000000000000000000000000000000000000000000000000000000 DUP2 MSTORE PUSH1 0x4 ADD PUSH2 0x3E83 SWAP1 PUSH2 0x9188 JUMP JUMPDEST PUSH1 0x40 MLOAD DUP1 SWAP2 SUB SWAP1 REVERT JUMPDEST JUMPDEST DUP1 DUP1 PUSH2 0x3E98 SWAP1 PUSH2 0x8019 JUMP JUMPDEST SWAP2 POP POP PUSH2 0x3C1B JUMP JUMPDEST POP PUSH0 JUMPDEST PUSH1 0xA PUSH4 0xFFFFFFFF AND DUP2 PUSH1 0xFF AND LT ISZERO PUSH2 0x4080 JUMPI PUSH0 PUSH20 0xFFFFFFFFFFFFFFFFFFFFFFFFFFFFFFFFFFFFFFFF AND DUP3 DUP3 PUSH1 0xFF AND PUSH1 0xA DUP2 LT PUSH2 0x3EE2 JUMPI PUSH2 0x3EE1 PUSH2 0x7F84 JUMP JUMPDEST JUMPDEST PUSH1 0x20 MUL ADD PUSH1 0x20 DUP2 ADD SWAP1 PUSH2 0x3EF5 SWAP2 SWAP1 PUSH2 0x696E JUMP JUMPDEST PUSH20 0xFFFFFFFFFFFFFFFFFFFFFFFFFFFFFFFFFFFFFFFF AND SUB PUSH2 0x3F4B JUMPI PUSH1 0x40 MLOAD PUSH32 0x8C379A000000000000000000000000000000000000000000000000000000000 DUP2 MSTORE PUSH1 0x4 ADD PUSH2 0x3F42 SWAP1 PUSH2 0x808B JUMP JUMPDEST PUSH1 0x40 MLOAD DUP1 SWAP2 SUB SWAP1 REVERT JUMPDEST PUSH1 0x2 PUSH1 0x41 PUSH0 DUP5 DUP5 PUSH1 0xFF AND PUSH1 0xA DUP2 LT PUSH2 0x3F66 JUMPI PUSH2 0x3F65 PUSH2 0x7F84 JUMP JUMPDEST JUMPDEST PUSH1 0x20 MUL ADD PUSH1 0x20 DUP2 ADD SWAP1 PUSH2 0x3F79 SWAP2 SWAP1 PUSH2 0x696E JUMP JUMPDEST PUSH20 0xFFFFFFFFFFFFFFFFFFFFFFFFFFFFFFFFFFFFFFFF AND PUSH20 0xFFFFFFFFFFFFFFFFFFFFFFFFFFFFFFFFFFFFFFFF AND DUP2 MSTORE PUSH1 0x20 ADD SWAP1 DUP2 MSTORE PUSH1 0x20 ADD PUSH0 KECCAK256 SLOAD LT PUSH2 0x3FF3 JUMPI PUSH1 0x40 MLOAD PUSH32 0x8C379A000000000000000000000000000000000000000000000000000000000 DUP2 MSTORE PUSH1 0x4 ADD PUSH2 0x3FEA SWAP1 PUSH2 0x8119 JUMP JUMPDEST PUSH1 0x40 MLOAD DUP1 SWAP2 SUB SWAP1 REVERT JUMPDEST PUSH1 0x41 PUSH0 DUP4 DUP4 PUSH1 0xFF AND PUSH1 0xA DUP2 LT PUSH2 0x400C JUMPI PUSH2 0x400B PUSH2 0x7F84 JUMP JUMPDEST JUMPDEST PUSH1 0x20 MUL ADD PUSH1 0x20 DUP2 ADD SWAP1 PUSH2 0x401F SWAP2 SWAP1 PUSH2 0x696E JUMP JUMPDEST PUSH20 0xFFFFFFFFFFFFFFFFFFFFFFFFFFFFFFFFFFFFFFFF AND PUSH20 0xFFFFFFFFFFFFFFFFFFFFFFFFFFFFFFFFFFFFFFFF AND DUP2 MSTORE PUSH1 0x20 ADD SWAP1 DUP2 MSTORE PUSH1 0x20 ADD PUSH0 KECCAK256 PUSH0 DUP2 SLOAD DUP1 SWAP3 SWAP2 SWAP1 PUSH2 0x4068 SWAP1 PUSH2 0x83CD JUMP JUMPDEST SWAP2 SWAP1 POP SSTORE POP DUP1 DUP1 PUSH2 0x4078 SWAP1 PUSH2 0x8019 JUMP JUMPDEST SWAP2 POP POP PUSH2 0x3EA3 JUMP JUMPDEST POP PUSH1 0xA PUSH1 0x42 PUSH0 DUP3 DUP3 DUP3 SWAP1 SLOAD SWAP1 PUSH2 0x100 EXP SWAP1 DIV PUSH4 0xFFFFFFFF AND PUSH2 0x40A2 SWAP2 SWAP1 PUSH2 0x8137 JUMP JUMPDEST SWAP3 POP PUSH2 0x100 EXP DUP2 SLOAD DUP2 PUSH4 0xFFFFFFFF MUL NOT AND SWAP1 DUP4 PUSH4 0xFFFFFFFF AND MUL OR SWAP1 SSTORE POP DUP1 PUSH1 0x40 MLOAD PUSH2 0x40CE SWAP2 SWAP1 PUSH2 0x8231 JUMP JUMPDEST PUSH1 0x40 MLOAD DUP1 SWAP2 SUB SWAP1 KECCAK256 PUSH32 0x2BA0AAA9C0E5919BF5CB9FDE7B2825194F9DC6E9AB2A9174C59892A1585C446A CALLER PUSH1 0x42 PUSH0 SWAP1 SLOAD SWAP1 PUSH2 0x100 EXP SWAP1 DIV PUSH4 0xFFFFFFFF AND PUSH1 0x40 MLOAD PUSH2 0x4118 SWAP3 SWAP2 SWAP1 PUSH2 0x91A6 JUMP JUMPDEST PUSH1 0x40 MLOAD DUP1 SWAP2 SUB SWAP1 LOG2 POP POP JUMP JUMPDEST PUSH1 0xAF PUSH1 0x20 MSTORE DUP1 PUSH0 MSTORE PUSH1 0x40 PUSH0 KECCAK256 PUSH0 SWAP2 POP SWAP1 POP SLOAD DUP2 JUMP JUMPDEST PUSH1 0x48 DUP2 PUSH1 0x32 DUP2 LT PUSH2 0x4148 JUMPI PUSH0 DUP1 REVERT JUMPDEST PUSH1 0x2 MUL ADD PUSH0 SWAP2 POP SWAP1 POP DUP1 PUSH0 ADD PUSH0 SWAP1 SLOAD SWAP1 PUSH2 0x100 EXP SWAP1 DIV PUSH20 0xFFFFFFFFFFFFFFFFFFFFFFFFFFFFFFFFFFFFFFFF AND SWAP1 DUP1 PUSH1 0x1 ADD SLOAD SWAP1 POP DUP3 JUMP JUMPDEST PUSH0 PUSH3 0x15180 PUSH1 0x1 SLOAD PUSH2 0x4191 SWAP2 SWAP1 PUSH2 0x8FD3 JUMP JUMPDEST TIMESTAMP LT ISZERO PUSH2 0x41A0 JUMPI PUSH0 SWAP1 POP PUSH2 0x4242 JUMP JUMPDEST PUSH1 0x1 SLOAD TIMESTAMP LT ISZERO PUSH2 0x4218 JUMPI PUSH1 0x32 PUSH1 0x2 PUSH2 0x41B8 SWAP2 SWAP1 PUSH2 0x91CD JUMP JUMPDEST PUSH1 0xFF AND PUSH1 0x6 DUP1 SLOAD SWAP1 POP LT DUP1 PUSH2 0x41EB JUMPI POP PUSH2 0x3E8 PUSH4 0xFFFFFFFF AND PUSH1 0x4 PUSH0 SWAP1 SLOAD SWAP1 PUSH2 0x100 EXP SWAP1 DIV PUSH4 0xFFFFFFFF AND PUSH4 0xFFFFFFFF AND LT JUMPDEST ISZERO PUSH2 0x420F JUMPI PUSH3 0x127500 PUSH1 0x1 SLOAD PUSH2 0x4201 SWAP2 SWAP1 PUSH2 0x9209 JUMP JUMPDEST PUSH1 0x1 DUP2 SWAP1 SSTORE POP PUSH0 SWAP1 POP PUSH2 0x4242 JUMP JUMPDEST PUSH1 0x1 SWAP1 POP PUSH2 0x4242 JUMP JUMPDEST PUSH0 PUSH1 0x43 SLOAD SUB PUSH2 0x422A JUMPI PUSH1 0x2 SWAP1 POP PUSH2 0x4242 JUMP JUMPDEST PUSH1 0x43 SLOAD TIMESTAMP LT ISZERO PUSH2 0x423D JUMPI PUSH1 0x3 SWAP1 POP PUSH2 0x4242 JUMP JUMPDEST PUSH1 0x4 SWAP1 POP JUMPDEST SWAP1 JUMP JUMPDEST PUSH3 0x93A80 PUSH1 0x5 PUSH0 PUSH1 0x39 PUSH1 0x1 SWAP1 SLOAD SWAP1 PUSH2 0x100 EXP SWAP1 DIV PUSH20 0xFFFFFFFFFFFFFFFFFFFFFFFFFFFFFFFFFFFFFFFF AND PUSH20 0xFFFFFFFFFFFFFFFFFFFFFFFFFFFFFFFFFFFFFFFF AND PUSH20 0xFFFFFFFFFFFFFFFFFFFFFFFFFFFFFFFFFFFFFFFF AND DUP2 MSTORE PUSH1 0x20 ADD SWAP1 DUP2 MSTORE PUSH1 0x20 ADD PUSH0 KECCAK256 PUSH1 0x6 ADD SLOAD PUSH2 0x42B6 SWAP2 SWAP1 PUSH2 0x9209 JUMP JUMPDEST TIMESTAMP LT ISZERO PUSH2 0x42F8 JUMPI PUSH1 0x40 MLOAD PUSH32 0x8C379A000000000000000000000000000000000000000000000000000000000 DUP2 MSTORE PUSH1 0x4 ADD PUSH2 0x42EF SWAP1 PUSH2 0x92AC JUMP JUMPDEST PUSH1 0x40 MLOAD DUP1 SWAP2 SUB SWAP1 REVERT JUMPDEST PUSH1 0x3A PUSH0 DUP2 SLOAD DUP1 SWAP3 SWAP2 SWAP1 PUSH2 0x430A SWAP1 PUSH2 0x83CD JUMP JUMPDEST SWAP2 SWAP1 POP SSTORE POP PUSH1 0x32 PUSH1 0x3A SLOAD LT PUSH2 0x4321 JUMPI PUSH0 PUSH1 0x3A DUP2 SWAP1 SSTORE POP JUMPDEST PUSH1 0x7 PUSH1 0x3A SLOAD PUSH1 0x32 DUP2 LT PUSH2 0x4337 JUMPI PUSH2 0x4336 PUSH2 0x7F84 JUMP JUMPDEST JUMPDEST ADD PUSH0 SWAP1 SLOAD SWAP1 PUSH2 0x100 EXP SWAP1 DIV PUSH20 0xFFFFFFFFFFFFFFFFFFFFFFFFFFFFFFFFFFFFFFFF AND PUSH1 0x39 PUSH1 0x1 PUSH2 0x100 EXP DUP2 SLOAD DUP2 PUSH20 0xFFFFFFFFFFFFFFFFFFFFFFFFFFFFFFFFFFFFFFFF MUL NOT AND SWAP1 DUP4 PUSH20 0xFFFFFFFFFFFFFFFFFFFFFFFFFFFFFFFFFFFFFFFF AND MUL OR SWAP1 SSTORE POP TIMESTAMP PUSH1 0x5 PUSH0 PUSH1 0x39 PUSH1 0x1 SWAP1 SLOAD SWAP1 PUSH2 0x100 EXP SWAP1 DIV PUSH20 0xFFFFFFFFFFFFFFFFFFFFFFFFFFFFFFFFFFFFFFFF AND PUSH20 0xFFFFFFFFFFFFFFFFFFFFFFFFFFFFFFFFFFFFFFFF AND PUSH20 0xFFFFFFFFFFFFFFFFFFFFFFFFFFFFFFFFFFFFFFFF AND DUP2 MSTORE PUSH1 0x20 ADD SWAP1 DUP2 MSTORE PUSH1 0x20 ADD PUSH0 KECCAK256 PUSH1 0x6 ADD DUP2 SWAP1 SSTORE POP PUSH1 0x39 PUSH1 0x1 SWAP1 SLOAD SWAP1 PUSH2 0x100 EXP SWAP1 DIV PUSH20 0xFFFFFFFFFFFFFFFFFFFFFFFFFFFFFFFFFFFFFFFF AND PUSH20 0xFFFFFFFFFFFFFFFFFFFFFFFFFFFFFFFFFFFFFFFF AND PUSH32 0x8A84BB57BF3F6ADEFAA7A35A6A5067473F78164BFC14C2F6AE8B93E5B115B35A PUSH1 0x40 MLOAD PUSH1 0x40 MLOAD DUP1 SWAP2 SUB SWAP1 LOG2 JUMP JUMPDEST PUSH1 0x1 PUSH1 0x4 DUP2 GT ISZERO PUSH2 0x447A JUMPI PUSH2 0x4479 PUSH2 0x7478 JUMP JUMPDEST JUMPDEST PUSH2 0x4482 PUSH2 0x417F JUMP JUMPDEST PUSH1 0x4 DUP2 GT ISZERO PUSH2 0x4494 JUMPI PUSH2 0x4493 PUSH2 0x7478 JUMP JUMPDEST JUMPDEST EQ PUSH2 0x44D4 JUMPI PUSH1 0x40 MLOAD PUSH32 0x8C379A000000000000000000000000000000000000000000000000000000000 DUP2 MSTORE PUSH1 0x4 ADD PUSH2 0x44CB SWAP1 PUSH2 0x9314 JUMP JUMPDEST PUSH1 0x40 MLOAD DUP1 SWAP2 SUB SWAP1 REVERT JUMPDEST PUSH1 0x6 DUP1 SLOAD SWAP1 POP DUP3 DUP3 SWAP1 POP GT ISZERO PUSH2 0x451F JUMPI PUSH1 0x40 MLOAD PUSH32 0x8C379A000000000000000000000000000000000000000000000000000000000 DUP2 MSTORE PUSH1 0x4 ADD PUSH2 0x4516 SWAP1 PUSH2 0x937C JUMP JUMPDEST PUSH1 0x40 MLOAD DUP1 SWAP2 SUB SWAP1 REVERT JUMPDEST PUSH1 0x1 PUSH1 0x3 PUSH0 CALLER PUSH20 0xFFFFFFFFFFFFFFFFFFFFFFFFFFFFFFFFFFFFFFFF AND PUSH20 0xFFFFFFFFFFFFFFFFFFFFFFFFFFFFFFFFFFFFFFFF AND DUP2 MSTORE PUSH1 0x20 ADD SWAP1 DUP2 MSTORE PUSH1 0x20 ADD PUSH0 KECCAK256 SLOAD EQ PUSH2 0x459F JUMPI PUSH1 0x40 MLOAD PUSH32 0x8C379A000000000000000000000000000000000000000000000000000000000 DUP2 MSTORE PUSH1 0x4 ADD PUSH2 0x4596 SWAP1 PUSH2 0x940A JUMP JUMPDEST PUSH1 0x40 MLOAD DUP1 SWAP2 SUB SWAP1 REVERT JUMPDEST PUSH0 PUSH1 0x6 DUP1 SLOAD SWAP1 POP PUSH8 0xFFFFFFFFFFFFFFFF DUP2 GT ISZERO PUSH2 0x45BF JUMPI PUSH2 0x45BE PUSH2 0x6626 JUMP JUMPDEST JUMPDEST PUSH1 0x40 MLOAD SWAP1 DUP1 DUP3 MSTORE DUP1 PUSH1 0x20 MUL PUSH1 0x20 ADD DUP3 ADD PUSH1 0x40 MSTORE DUP1 ISZERO PUSH2 0x45ED JUMPI DUP2 PUSH1 0x20 ADD PUSH1 0x20 DUP3 MUL DUP1 CALLDATASIZE DUP4 CALLDATACOPY DUP1 DUP3 ADD SWAP2 POP POP SWAP1 POP JUMPDEST POP SWAP1 POP TIMESTAMP PUSH1 0x3 PUSH0 CALLER PUSH20 0xFFFFFFFFFFFFFFFFFFFFFFFFFFFFFFFFFFFFFFFF AND PUSH20 0xFFFFFFFFFFFFFFFFFFFFFFFFFFFFFFFFFFFFFFFF AND DUP2 MSTORE PUSH1 0x20 ADD SWAP1 DUP2 MSTORE PUSH1 0x20 ADD PUSH0 KECCAK256 DUP2 SWAP1 SSTORE POP CALLER PUSH20 0xFFFFFFFFFFFFFFFFFFFFFFFFFFFFFFFFFFFFFFFF AND PUSH32 0xB87A61D78BD15221C59B983F6EF032FBDE0631E66BFE18D1421FE5A73C16741D PUSH1 0x40 MLOAD PUSH1 0x40 MLOAD DUP1 SWAP2 SUB SWAP1 LOG2 PUSH0 JUMPDEST DUP4 DUP4 SWAP1 POP DUP2 LT ISZERO PUSH2 0x4806 JUMPI PUSH0 DUP5 DUP5 DUP4 DUP2 DUP2 LT PUSH2 0x4696 JUMPI PUSH2 0x4695 PUSH2 0x7F84 JUMP JUMPDEST JUMPDEST SWAP1 POP PUSH1 0x20 MUL ADD CALLDATALOAD SWAP1 POP PUSH1 0x6 DUP1 SLOAD SWAP1 POP DUP2 LT PUSH2 0x46E6 JUMPI PUSH1 0x40 MLOAD PUSH32 0x8C379A000000000000000000000000000000000000000000000000000000000 DUP2 MSTORE PUSH1 0x4 ADD PUSH2 0x46DD SWAP1 PUSH2 0x9472 JUMP JUMPDEST PUSH1 0x40 MLOAD DUP1 SWAP2 SUB SWAP1 REVERT JUMPDEST DUP3 DUP2 DUP2 MLOAD DUP2 LT PUSH2 0x46F9 JUMPI PUSH2 0x46F8 PUSH2 0x7F84 JUMP JUMPDEST JUMPDEST PUSH1 0x20 MUL PUSH1 0x20 ADD ADD MLOAD ISZERO PUSH2 0x4741 JUMPI PUSH1 0x40 MLOAD PUSH32 0x8C379A000000000000000000000000000000000000000000000000000000000 DUP2 MSTORE PUSH1 0x4 ADD PUSH2 0x4738 SWAP1 PUSH2 0x94DA JUMP JUMPDEST PUSH1 0x40 MLOAD DUP1 SWAP2 SUB SWAP1 REVERT JUMPDEST PUSH1 0x1 DUP4 DUP3 DUP2 MLOAD DUP2 LT PUSH2 0x4756 JUMPI PUSH2 0x4755 PUSH2 0x7F84 JUMP JUMPDEST JUMPDEST PUSH1 0x20 MUL PUSH1 0x20 ADD ADD SWAP1 ISZERO ISZERO SWAP1 DUP2 ISZERO ISZERO DUP2 MSTORE POP POP PUSH1 0x5 PUSH0 PUSH1 0x6 DUP4 DUP2 SLOAD DUP2 LT PUSH2 0x477F JUMPI PUSH2 0x477E PUSH2 0x7F84 JUMP JUMPDEST JUMPDEST SWAP1 PUSH0 MSTORE PUSH1 0x20 PUSH0 KECCAK256 ADD PUSH0 SWAP1 SLOAD SWAP1 PUSH2 0x100 EXP SWAP1 DIV PUSH20 0xFFFFFFFFFFFFFFFFFFFFFFFFFFFFFFFFFFFFFFFF AND PUSH20 0xFFFFFFFFFFFFFFFFFFFFFFFFFFFFFFFFFFFFFFFF AND PUSH20 0xFFFFFFFFFFFFFFFFFFFFFFFFFFFFFFFFFFFFFFFF AND DUP2 MSTORE PUSH1 0x20 ADD SWAP1 DUP2 MSTORE PUSH1 0x20 ADD PUSH0 KECCAK256 PUSH1 0x4 ADD PUSH0 DUP2 SLOAD DUP1 SWAP3 SWAP2 SWAP1 PUSH2 0x47F3 SWAP1 PUSH2 0x83CD JUMP JUMPDEST SWAP2 SWAP1 POP SSTORE POP POP DUP1 DUP1 PUSH1 0x1 ADD SWAP2 POP POP PUSH2 0x4677 JUMP JUMPDEST POP POP POP POP JUMP JUMPDEST PUSH1 0x43 SLOAD DUP2 JUMP JUMPDEST PUSH1 0x6 DUP2 DUP2 SLOAD DUP2 LT PUSH2 0x4821 JUMPI PUSH0 DUP1 REVERT JUMPDEST SWAP1 PUSH0 MSTORE PUSH1 0x20 PUSH0 KECCAK256 ADD PUSH0 SWAP2 POP SLOAD SWAP1 PUSH2 0x100 EXP SWAP1 DIV PUSH20 0xFFFFFFFFFFFFFFFFFFFFFFFFFFFFFFFFFFFFFFFF AND DUP2 JUMP JUMPDEST PUSH1 0xA DUP2 JUMP JUMPDEST PUSH1 0x1E DUP2 JUMP JUMPDEST PUSH1 0x5 PUSH0 CALLER PUSH20 0xFFFFFFFFFFFFFFFFFFFFFFFFFFFFFFFFFFFFFFFF AND PUSH20 0xFFFFFFFFFFFFFFFFFFFFFFFFFFFFFFFFFFFFFFFF AND DUP2 MSTORE PUSH1 0x20 ADD SWAP1 DUP2 MSTORE PUSH1 0x20 ADD PUSH0 KECCAK256 PUSH1 0x5 ADD PUSH0 SWAP1 SLOAD SWAP1 PUSH2 0x100 EXP SWAP1 DIV PUSH1 0xFF AND PUSH2 0x48E3 JUMPI PUSH1 0x40 MLOAD PUSH32 0x8C379A000000000000000000000000000000000000000000000000000000000 DUP2 MSTORE PUSH1 0x4 ADD PUSH2 0x48DA SWAP1 PUSH2 0x9542 JUMP JUMPDEST PUSH1 0x40 MLOAD DUP1 SWAP2 SUB SWAP1 REVERT JUMPDEST PUSH2 0x1388 DUP2 GT ISZERO PUSH2 0x4928 JUMPI PUSH1 0x40 MLOAD PUSH32 0x8C379A000000000000000000000000000000000000000000000000000000000 DUP2 MSTORE PUSH1 0x4 ADD PUSH2 0x491F SWAP1 PUSH2 0x95AA JUMP JUMPDEST PUSH1 0x40 MLOAD DUP1 SWAP2 SUB SWAP1 REVERT JUMPDEST PUSH0 DUP1 PUSH1 0xAC PUSH0 CALLER PUSH20 0xFFFFFFFFFFFFFFFFFFFFFFFFFFFFFFFFFFFFFFFF AND PUSH20 0xFFFFFFFFFFFFFFFFFFFFFFFFFFFFFFFFFFFFFFFF AND DUP2 MSTORE PUSH1 0x20 ADD SWAP1 DUP2 MSTORE PUSH1 0x20 ADD PUSH0 KECCAK256 PUSH0 SWAP1 SLOAD SWAP1 PUSH2 0x100 EXP SWAP1 DIV PUSH1 0xFF AND SWAP1 POP PUSH0 DUP2 PUSH1 0xFF AND EQ DUP1 ISZERO PUSH2 0x49F0 JUMPI POP CALLER PUSH20 0xFFFFFFFFFFFFFFFFFFFFFFFFFFFFFFFFFFFFFFFF AND PUSH1 0x48 DUP3 PUSH1 0xFF AND PUSH1 0x32 DUP2 LT PUSH2 0x49B1 JUMPI PUSH2 0x49B0 PUSH2 0x7F84 JUMP JUMPDEST JUMPDEST PUSH1 0x2 MUL ADD PUSH0 ADD PUSH0 SWAP1 SLOAD SWAP1 PUSH2 0x100 EXP SWAP1 DIV PUSH20 0xFFFFFFFFFFFFFFFFFFFFFFFFFFFFFFFFFFFFFFFF AND PUSH20 0xFFFFFFFFFFFFFFFFFFFFFFFFFFFFFFFFFFFFFFFF AND EQ ISZERO JUMPDEST ISZERO PUSH2 0x4A34 JUMPI PUSH1 0xAD PUSH0 DUP2 DUP2 SWAP1 SLOAD SWAP1 PUSH2 0x100 EXP SWAP1 DIV PUSH1 0xFF AND DUP1 SWAP3 SWAP2 SWAP1 PUSH2 0x4A13 SWAP1 PUSH2 0x8019 JUMP JUMPDEST SWAP2 SWAP1 PUSH2 0x100 EXP DUP2 SLOAD DUP2 PUSH1 0xFF MUL NOT AND SWAP1 DUP4 PUSH1 0xFF AND MUL OR SWAP1 SSTORE POP POP PUSH0 SWAP2 POP PUSH2 0x4A56 JUMP JUMPDEST PUSH1 0x48 DUP2 PUSH1 0xFF AND PUSH1 0x32 DUP2 LT PUSH2 0x4A4B JUMPI PUSH2 0x4A4A PUSH2 0x7F84 JUMP JUMPDEST JUMPDEST PUSH1 0x2 MUL ADD PUSH1 0x1 ADD SLOAD SWAP2 POP JUMPDEST PUSH0 DUP2 SWAP1 POP DUP3 DUP5 SUB PUSH2 0x4A69 JUMPI POP POP POP PUSH2 0x4FEC JUMP JUMPDEST DUP3 DUP5 GT ISZERO PUSH2 0x4C1D JUMPI JUMPDEST PUSH1 0x1 PUSH1 0x32 PUSH2 0x4A80 SWAP2 SWAP1 PUSH2 0x95C8 JUMP JUMPDEST PUSH1 0xFF AND DUP2 PUSH1 0xFF AND LT DUP1 ISZERO PUSH2 0x4ABD JUMPI POP PUSH1 0x48 PUSH1 0x1 DUP3 PUSH2 0x4A9E SWAP2 SWAP1 PUSH2 0x95FC JUMP JUMPDEST PUSH1 0xFF AND PUSH1 0x32 DUP2 LT PUSH2 0x4AB2 JUMPI PUSH2 0x4AB1 PUSH2 0x7F84 JUMP JUMPDEST JUMPDEST PUSH1 0x2 MUL ADD PUSH1 0x1 ADD SLOAD DUP5 GT JUMPDEST ISZERO PUSH2 0x4C18 JUMPI PUSH1 0x48 PUSH1 0x1 DUP3 PUSH2 0x4AD1 SWAP2 SWAP1 PUSH2 0x95FC JUMP JUMPDEST PUSH1 0xFF AND PUSH1 0x32 DUP2 LT PUSH2 0x4AE5 JUMPI PUSH2 0x4AE4 PUSH2 0x7F84 JUMP JUMPDEST JUMPDEST PUSH1 0x2 MUL ADD PUSH1 0x48 DUP3 PUSH1 0xFF AND PUSH1 0x32 DUP2 LT PUSH2 0x4B00 JUMPI PUSH2 0x4AFF PUSH2 0x7F84 JUMP JUMPDEST JUMPDEST PUSH1 0x2 MUL ADD PUSH0 DUP3 ADD PUSH0 SWAP1 SLOAD SWAP1 PUSH2 0x100 EXP SWAP1 DIV PUSH20 0xFFFFFFFFFFFFFFFFFFFFFFFFFFFFFFFFFFFFFFFF AND DUP2 PUSH0 ADD PUSH0 PUSH2 0x100 EXP DUP2 SLOAD DUP2 PUSH20 0xFFFFFFFFFFFFFFFFFFFFFFFFFFFFFFFFFFFFFFFF MUL NOT AND SWAP1 DUP4 PUSH20 0xFFFFFFFFFFFFFFFFFFFFFFFFFFFFFFFFFFFFFFFF AND MUL OR SWAP1 SSTORE POP PUSH1 0x1 DUP3 ADD SLOAD DUP2 PUSH1 0x1 ADD SSTORE SWAP1 POP POP DUP1 PUSH1 0xAC PUSH0 PUSH1 0x48 DUP5 PUSH1 0xFF AND PUSH1 0x32 DUP2 LT PUSH2 0x4B8F JUMPI PUSH2 0x4B8E PUSH2 0x7F84 JUMP JUMPDEST JUMPDEST PUSH1 0x2 MUL ADD PUSH0 ADD PUSH0 SWAP1 SLOAD SWAP1 PUSH2 0x100 EXP SWAP1 DIV PUSH20 0xFFFFFFFFFFFFFFFFFFFFFFFFFFFFFFFFFFFFFFFF AND PUSH20 0xFFFFFFFFFFFFFFFFFFFFFFFFFFFFFFFFFFFFFFFF AND PUSH20 0xFFFFFFFFFFFFFFFFFFFFFFFFFFFFFFFFFFFFFFFF AND DUP2 MSTORE PUSH1 0x20 ADD SWAP1 DUP2 MSTORE PUSH1 0x20 ADD PUSH0 KECCAK256 PUSH0 PUSH2 0x100 EXP DUP2 SLOAD DUP2 PUSH1 0xFF MUL NOT AND SWAP1 DUP4 PUSH1 0xFF AND MUL OR SWAP1 SSTORE POP DUP1 DUP1 PUSH2 0x4C10 SWAP1 PUSH2 0x8019 JUMP JUMPDEST SWAP2 POP POP PUSH2 0x4A72 JUMP JUMPDEST PUSH2 0x4DB5 JUMP JUMPDEST JUMPDEST PUSH0 DUP2 PUSH1 0xFF AND GT DUP1 ISZERO PUSH2 0x4C59 JUMPI POP PUSH1 0x48 PUSH1 0x1 DUP3 PUSH2 0x4C3A SWAP2 SWAP1 PUSH2 0x95C8 JUMP JUMPDEST PUSH1 0xFF AND PUSH1 0x32 DUP2 LT PUSH2 0x4C4E JUMPI PUSH2 0x4C4D PUSH2 0x7F84 JUMP JUMPDEST JUMPDEST PUSH1 0x2 MUL ADD PUSH1 0x1 ADD SLOAD DUP5 LT JUMPDEST ISZERO PUSH2 0x4DB4 JUMPI PUSH1 0x48 PUSH1 0x1 DUP3 PUSH2 0x4C6D SWAP2 SWAP1 PUSH2 0x95C8 JUMP JUMPDEST PUSH1 0xFF AND PUSH1 0x32 DUP2 LT PUSH2 0x4C81 JUMPI PUSH2 0x4C80 PUSH2 0x7F84 JUMP JUMPDEST JUMPDEST PUSH1 0x2 MUL ADD PUSH1 0x48 DUP3 PUSH1 0xFF AND PUSH1 0x32 DUP2 LT PUSH2 0x4C9C JUMPI PUSH2 0x4C9B PUSH2 0x7F84 JUMP JUMPDEST JUMPDEST PUSH1 0x2 MUL ADD PUSH0 DUP3 ADD PUSH0 SWAP1 SLOAD SWAP1 PUSH2 0x100 EXP SWAP1 DIV PUSH20 0xFFFFFFFFFFFFFFFFFFFFFFFFFFFFFFFFFFFFFFFF AND DUP2 PUSH0 ADD PUSH0 PUSH2 0x100 EXP DUP2 SLOAD DUP2 PUSH20 0xFFFFFFFFFFFFFFFFFFFFFFFFFFFFFFFFFFFFFFFF MUL NOT AND SWAP1 DUP4 PUSH20 0xFFFFFFFFFFFFFFFFFFFFFFFFFFFFFFFFFFFFFFFF AND MUL OR SWAP1 SSTORE POP PUSH1 0x1 DUP3 ADD SLOAD DUP2 PUSH1 0x1 ADD SSTORE SWAP1 POP POP DUP1 PUSH1 0xAC PUSH0 PUSH1 0x48 DUP5 PUSH1 0xFF AND PUSH1 0x32 DUP2 LT PUSH2 0x4D2B JUMPI PUSH2 0x4D2A PUSH2 0x7F84 JUMP JUMPDEST JUMPDEST PUSH1 0x2 MUL ADD PUSH0 ADD PUSH0 SWAP1 SLOAD SWAP1 PUSH2 0x100 EXP SWAP1 DIV PUSH20 0xFFFFFFFFFFFFFFFFFFFFFFFFFFFFFFFFFFFFFFFF AND PUSH20 0xFFFFFFFFFFFFFFFFFFFFFFFFFFFFFFFFFFFFFFFF AND PUSH20 0xFFFFFFFFFFFFFFFFFFFFFFFFFFFFFFFFFFFFFFFF AND DUP2 MSTORE PUSH1 0x20 ADD SWAP1 DUP2 MSTORE PUSH1 0x20 ADD PUSH0 KECCAK256 PUSH0 PUSH2 0x100 EXP DUP2 SLOAD DUP2 PUSH1 0xFF MUL NOT AND SWAP1 DUP4 PUSH1 0xFF AND MUL OR SWAP1 SSTORE POP DUP1 DUP1 PUSH2 0x4DAC SWAP1 PUSH2 0x9630 JUMP JUMPDEST SWAP2 POP POP PUSH2 0x4C1E JUMP JUMPDEST JUMPDEST PUSH1 0x40 MLOAD DUP1 PUSH1 0x40 ADD PUSH1 0x40 MSTORE DUP1 CALLER PUSH20 0xFFFFFFFFFFFFFFFFFFFFFFFFFFFFFFFFFFFFFFFF AND DUP2 MSTORE PUSH1 0x20 ADD DUP6 DUP2 MSTORE POP PUSH1 0x48 DUP3 PUSH1 0xFF AND PUSH1 0x32 DUP2 LT PUSH2 0x4DF7 JUMPI PUSH2 0x4DF6 PUSH2 0x7F84 JUMP JUMPDEST JUMPDEST PUSH1 0x2 MUL ADD PUSH0 DUP3 ADD MLOAD DUP2 PUSH0 ADD PUSH0 PUSH2 0x100 EXP DUP2 SLOAD DUP2 PUSH20 0xFFFFFFFFFFFFFFFFFFFFFFFFFFFFFFFFFFFFFFFF MUL NOT AND SWAP1 DUP4 PUSH20 0xFFFFFFFFFFFFFFFFFFFFFFFFFFFFFFFFFFFFFFFF AND MUL OR SWAP1 SSTORE POP PUSH1 0x20 DUP3 ADD MLOAD DUP2 PUSH1 0x1 ADD SSTORE SWAP1 POP POP DUP1 PUSH1 0xAC PUSH0 CALLER PUSH20 0xFFFFFFFFFFFFFFFFFFFFFFFFFFFFFFFFFFFFFFFF AND PUSH20 0xFFFFFFFFFFFFFFFFFFFFFFFFFFFFFFFFFFFFFFFF AND DUP2 MSTORE PUSH1 0x20 ADD SWAP1 DUP2 MSTORE PUSH1 0x20 ADD PUSH0 KECCAK256 PUSH0 PUSH2 0x100 EXP DUP2 SLOAD DUP2 PUSH1 0xFF MUL NOT AND SWAP1 DUP4 PUSH1 0xFF AND MUL OR SWAP1 SSTORE POP CALLER PUSH20 0xFFFFFFFFFFFFFFFFFFFFFFFFFFFFFFFFFFFFFFFF AND PUSH32 0x1CE0BEAEC98D7537137A85C2D351C6C99900830D30FE8A7C353FA27225807E72 DUP5 DUP5 DUP8 DUP6 PUSH1 0x40 MLOAD PUSH2 0x4EED SWAP5 SWAP4 SWAP3 SWAP2 SWAP1 PUSH2 0x9657 JUMP JUMPDEST PUSH1 0x40 MLOAD DUP1 SWAP2 SUB SWAP1 LOG2 PUSH1 0x48 PUSH1 0x2 PUSH1 0x32 PUSH2 0x4F05 SWAP2 SWAP1 PUSH2 0x96C7 JUMP JUMPDEST PUSH1 0xFF AND PUSH1 0x32 DUP2 LT PUSH2 0x4F19 JUMPI PUSH2 0x4F18 PUSH2 0x7F84 JUMP JUMPDEST JUMPDEST PUSH1 0x2 MUL ADD PUSH1 0x1 ADD SLOAD PUSH1 0x45 SLOAD EQ PUSH2 0x4FE8 JUMPI PUSH1 0x48 PUSH1 0x2 PUSH1 0x32 PUSH2 0x4F39 SWAP2 SWAP1 PUSH2 0x96C7 JUMP JUMPDEST PUSH1 0xFF AND PUSH1 0x32 DUP2 LT PUSH2 0x4F4D JUMPI PUSH2 0x4F4C PUSH2 0x7F84 JUMP JUMPDEST JUMPDEST PUSH1 0x2 MUL ADD PUSH1 0x1 ADD SLOAD PUSH1 0x45 DUP2 SWAP1 SSTORE POP PUSH1 0x46 PUSH1 0x40 MLOAD DUP1 PUSH1 0x40 ADD PUSH1 0x40 MSTORE DUP1 PUSH1 0x45 SLOAD DUP2 MSTORE PUSH1 0x20 ADD TIMESTAMP DUP2 MSTORE POP SWAP1 DUP1 PUSH1 0x1 DUP2 SLOAD ADD DUP1 DUP3 SSTORE DUP1 SWAP2 POP POP PUSH1 0x1 SWAP1 SUB SWAP1 PUSH0 MSTORE PUSH1 0x20 PUSH0 KECCAK256 SWAP1 PUSH1 0x2 MUL ADD PUSH0 SWAP1 SWAP2 SWAP1 SWAP2 SWAP1 SWAP2 POP PUSH0 DUP3 ADD MLOAD DUP2 PUSH0 ADD SSTORE PUSH1 0x20 DUP3 ADD MLOAD DUP2 PUSH1 0x1 ADD SSTORE POP POP PUSH32 0xA90E14BE5AA57B910AA6DC16C31FF1B5CDA380AE25A793B0D3F74DF6131A7D74 PUSH1 0x45 SLOAD PUSH1 0x40 MLOAD PUSH2 0x4FDF SWAP2 SWAP1 PUSH2 0x6955 JUMP JUMPDEST PUSH1 0x40 MLOAD DUP1 SWAP2 SUB SWAP1 LOG1 JUMPDEST POP POP POP JUMPDEST POP JUMP JUMPDEST TIMESTAMP PUSH3 0x5C4900 PUSH1 0x1 SLOAD PUSH2 0x5001 SWAP2 SWAP1 PUSH2 0x9209 JUMP JUMPDEST LT PUSH2 0x5041 JUMPI PUSH1 0x40 MLOAD PUSH32 0x8C379A000000000000000000000000000000000000000000000000000000000 DUP2 MSTORE PUSH1 0x4 ADD PUSH2 0x5038 SWAP1 PUSH2 0x9741 JUMP JUMPDEST PUSH1 0x40 MLOAD DUP1 SWAP2 SUB SWAP1 REVERT JUMPDEST PUSH0 PUSH1 0x44 SLOAD EQ PUSH2 0x5085 JUMPI PUSH1 0x40 MLOAD PUSH32 0x8C379A000000000000000000000000000000000000000000000000000000000 DUP2 MSTORE PUSH1 0x4 ADD PUSH2 0x507C SWAP1 PUSH2 0x97A9 JUMP JUMPDEST PUSH1 0x40 MLOAD DUP1 SWAP2 SUB SWAP1 REVERT JUMPDEST PUSH1 0xA PUSH1 0xFF AND PUSH1 0x3F DUP1 SLOAD SWAP1 POP GT PUSH2 0x50D0 JUMPI PUSH1 0x40 MLOAD PUSH32 0x8C379A000000000000000000000000000000000000000000000000000000000 DUP2 MSTORE PUSH1 0x4 ADD PUSH2 0x50C7 SWAP1 PUSH2 0x9811 JUMP JUMPDEST PUSH1 0x40 MLOAD DUP1 SWAP2 SUB SWAP1 REVERT JUMPDEST PUSH3 0xF4240 PUSH4 0xFFFFFFFF AND PUSH1 0x42 PUSH0 SWAP1 SLOAD SWAP1 PUSH2 0x100 EXP SWAP1 DIV PUSH4 0xFFFFFFFF AND PUSH4 0xFFFFFFFF AND LT ISZERO PUSH2 0x5133 JUMPI PUSH1 0x40 MLOAD PUSH32 0x8C379A000000000000000000000000000000000000000000000000000000000 DUP2 MSTORE PUSH1 0x4 ADD PUSH2 0x512A SWAP1 PUSH2 0x9879 JUMP JUMPDEST PUSH1 0x40 MLOAD DUP1 SWAP2 SUB SWAP1 REVERT JUMPDEST PUSH3 0x15180 TIMESTAMP PUSH2 0x5142 SWAP2 SWAP1 PUSH2 0x9209 JUMP JUMPDEST PUSH1 0x43 DUP2 SWAP1 SSTORE POP PUSH32 0xA0AB6B515144B30D8222A12E45D1C1DF7265286D8A0D9F73C23C8B06F6021871 PUSH1 0x40 MLOAD PUSH1 0x40 MLOAD DUP1 SWAP2 SUB SWAP1 LOG1 JUMP JUMPDEST PUSH2 0x3E8 DUP2 JUMP JUMPDEST PUSH1 0x43 SLOAD TIMESTAMP LT PUSH2 0x51C0 JUMPI PUSH1 0x40 MLOAD PUSH32 0x8C379A000000000000000000000000000000000000000000000000000000000 DUP2 MSTORE PUSH1 0x4 ADD PUSH2 0x51B7 SWAP1 PUSH2 0x98E1 JUMP JUMPDEST PUSH1 0x40 MLOAD DUP1 SWAP2 SUB SWAP1 REVERT JUMPDEST PUSH1 0x3F DUP1 SLOAD SWAP1 POP DUP3 DUP3 SWAP1 POP GT ISZERO PUSH2 0x520B JUMPI PUSH1 0x40 MLOAD PUSH32 0x8C379A000000000000000000000000000000000000000000000000000000000 DUP2 MSTORE PUSH1 0x4 ADD PUSH2 0x5202 SWAP1 PUSH2 0x9949 JUMP JUMPDEST PUSH1 0x40 MLOAD DUP1 SWAP2 SUB SWAP1 REVERT JUMPDEST PUSH1 0x2 PUSH1 0x41 PUSH0 CALLER PUSH20 0xFFFFFFFFFFFFFFFFFFFFFFFFFFFFFFFFFFFFFFFF AND PUSH20 0xFFFFFFFFFFFFFFFFFFFFFFFFFFFFFFFFFFFFFFFF AND DUP2 MSTORE PUSH1 0x20 ADD SWAP1 DUP2 MSTORE PUSH1 0x20 ADD PUSH0 KECCAK256 SLOAD EQ PUSH2 0x528B JUMPI PUSH1 0x40 MLOAD PUSH32 0x8C379A000000000000000000000000000000000000000000000000000000000 DUP2 MSTORE PUSH1 0x4 ADD PUSH2 0x5282 SWAP1 PUSH2 0x99D7 JUMP JUMPDEST PUSH1 0x40 MLOAD DUP1 SWAP2 SUB SWAP1 REVERT JUMPDEST PUSH0 PUSH1 0x3F DUP1 SLOAD SWAP1 POP PUSH8 0xFFFFFFFFFFFFFFFF DUP2 GT ISZERO PUSH2 0x52AB JUMPI PUSH2 0x52AA PUSH2 0x6626 JUMP JUMPDEST JUMPDEST PUSH1 0x40 MLOAD SWAP1 DUP1 DUP3 MSTORE DUP1 PUSH1 0x20 MUL PUSH1 0x20 ADD DUP3 ADD PUSH1 0x40 MSTORE DUP1 ISZERO PUSH2 0x52D9 JUMPI DUP2 PUSH1 0x20 ADD PUSH1 0x20 DUP3 MUL DUP1 CALLDATASIZE DUP4 CALLDATACOPY DUP1 DUP3 ADD SWAP2 POP POP SWAP1 POP JUMPDEST POP SWAP1 POP PUSH0 JUMPDEST DUP4 DUP4 SWAP1 POP DUP2 LT ISZERO PUSH2 0x5415 JUMPI PUSH0 DUP5 DUP5 DUP4 DUP2 DUP2 LT PUSH2 0x52FD JUMPI PUSH2 0x52FC PUSH2 0x7F84 JUMP JUMPDEST JUMPDEST SWAP1 POP PUSH1 0x20 MUL ADD CALLDATALOAD SWAP1 POP PUSH1 0x3F DUP1 SLOAD SWAP1 POP DUP2 LT PUSH2 0x534D JUMPI PUSH1 0x40 MLOAD PUSH32 0x8C379A000000000000000000000000000000000000000000000000000000000 DUP2 MSTORE PUSH1 0x4 ADD PUSH2 0x5344 SWAP1 PUSH2 0x9A3F JUMP JUMPDEST PUSH1 0x40 MLOAD DUP1 SWAP2 SUB SWAP1 REVERT JUMPDEST DUP3 DUP2 DUP2 MLOAD DUP2 LT PUSH2 0x5360 JUMPI PUSH2 0x535F PUSH2 0x7F84 JUMP JUMPDEST JUMPDEST PUSH1 0x20 MUL PUSH1 0x20 ADD ADD MLOAD ISZERO PUSH2 0x53A8 JUMPI PUSH1 0x40 MLOAD PUSH32 0x8C379A000000000000000000000000000000000000000000000000000000000 DUP2 MSTORE PUSH1 0x4 ADD PUSH2 0x539F SWAP1 PUSH2 0x9AA7 JUMP JUMPDEST PUSH1 0x40 MLOAD DUP1 SWAP2 SUB SWAP1 REVERT JUMPDEST PUSH1 0x1 DUP4 DUP3 DUP2 MLOAD DUP2 LT PUSH2 0x53BD JUMPI PUSH2 0x53BC PUSH2 0x7F84 JUMP JUMPDEST JUMPDEST PUSH1 0x20 MUL PUSH1 0x20 ADD ADD SWAP1 ISZERO ISZERO SWAP1 DUP2 ISZERO ISZERO DUP2 MSTORE POP POP PUSH1 0x3F DUP2 DUP2 SLOAD DUP2 LT PUSH2 0x53E3 JUMPI PUSH2 0x53E2 PUSH2 0x7F84 JUMP JUMPDEST JUMPDEST SWAP1 PUSH0 MSTORE PUSH1 0x20 PUSH0 KECCAK256 SWAP1 PUSH1 0x8 MUL ADD PUSH1 0x7 ADD PUSH0 DUP2 SLOAD DUP1 SWAP3 SWAP2 SWAP1 PUSH2 0x5402 SWAP1 PUSH2 0x83CD JUMP JUMPDEST SWAP2 SWAP1 POP SSTORE POP POP DUP1 DUP1 PUSH1 0x1 ADD SWAP2 POP POP PUSH2 0x52DE JUMP JUMPDEST POP TIMESTAMP PUSH1 0x41 PUSH0 CALLER PUSH20 0xFFFFFFFFFFFFFFFFFFFFFFFFFFFFFFFFFFFFFFFF AND PUSH20 0xFFFFFFFFFFFFFFFFFFFFFFFFFFFFFFFFFFFFFFFF AND DUP2 MSTORE PUSH1 0x20 ADD SWAP1 DUP2 MSTORE PUSH1 0x20 ADD PUSH0 KECCAK256 DUP2 SWAP1 SSTORE POP CALLER PUSH20 0xFFFFFFFFFFFFFFFFFFFFFFFFFFFFFFFFFFFFFFFF AND PUSH32 0x4B50B8927FD1B030F5404DC4394C2A5D30D7F6C6FA6D732C089FFE8C10F09421 PUSH1 0x40 MLOAD PUSH1 0x40 MLOAD DUP1 SWAP2 SUB SWAP1 LOG2 POP POP POP JUMP JUMPDEST PUSH1 0x1 SLOAD DUP2 JUMP JUMPDEST PUSH3 0xF4240 DUP2 JUMP JUMPDEST PUSH0 PUSH1 0x3 PUSH0 DUP4 PUSH20 0xFFFFFFFFFFFFFFFFFFFFFFFFFFFFFFFFFFFFFFFF AND PUSH20 0xFFFFFFFFFFFFFFFFFFFFFFFFFFFFFFFFFFFFFFFF AND DUP2 MSTORE PUSH1 0x20 ADD SWAP1 DUP2 MSTORE PUSH1 0x20 ADD PUSH0 KECCAK256 SLOAD SWAP1 POP SWAP2 SWAP1 POP JUMP JUMPDEST PUSH0 PUSH1 0x3B DUP1 SLOAD SWAP1 POP DUP4 LT PUSH2 0x553B JUMPI PUSH1 0x40 MLOAD PUSH32 0x8C379A000000000000000000000000000000000000000000000000000000000 DUP2 MSTORE PUSH1 0x4 ADD PUSH2 0x5532 SWAP1 PUSH2 0x8586 JUMP JUMPDEST PUSH1 0x40 MLOAD DUP1 SWAP2 SUB SWAP1 REVERT JUMPDEST PUSH1 0x5 PUSH0 DUP4 PUSH20 0xFFFFFFFFFFFFFFFFFFFFFFFFFFFFFFFFFFFFFFFF AND PUSH20 0xFFFFFFFFFFFFFFFFFFFFFFFFFFFFFFFFFFFFFFFF AND DUP2 MSTORE PUSH1 0x20 ADD SWAP1 DUP2 MSTORE PUSH1 0x20 ADD PUSH0 KECCAK256 PUSH1 0x5 ADD PUSH0 SWAP1 SLOAD SWAP1 PUSH2 0x100 EXP SWAP1 DIV PUSH1 0xFF AND PUSH2 0x55C7 JUMPI PUSH1 0x40 MLOAD PUSH32 0x8C379A000000000000000000000000000000000000000000000000000000000 DUP2 MSTORE PUSH1 0x4 ADD PUSH2 0x55BE SWAP1 PUSH2 0x90B8 JUMP JUMPDEST PUSH1 0x40 MLOAD DUP1 SWAP2 SUB SWAP1 REVERT JUMPDEST PUSH1 0x3D PUSH0 DUP4 PUSH20 0xFFFFFFFFFFFFFFFFFFFFFFFFFFFFFFFFFFFFFFFF AND PUSH20 0xFFFFFFFFFFFFFFFFFFFFFFFFFFFFFFFFFFFFFFFF AND DUP2 MSTORE PUSH1 0x20 ADD SWAP1 DUP2 MSTORE PUSH1 0x20 ADD PUSH0 KECCAK256 PUSH0 DUP5 DUP2 MSTORE PUSH1 0x20 ADD SWAP1 DUP2 MSTORE PUSH1 0x20 ADD PUSH0 KECCAK256 SLOAD SWAP1 POP SWAP3 SWAP2 POP POP JUMP JUMPDEST PUSH1 0x3E SLOAD DUP2 JUMP JUMPDEST PUSH1 0x32 DUP2 JUMP JUMPDEST PUSH1 0x42 PUSH0 SWAP1 SLOAD SWAP1 PUSH2 0x100 EXP SWAP1 DIV PUSH4 0xFFFFFFFF AND DUP2 JUMP JUMPDEST PUSH1 0x5 PUSH1 0x20 MSTORE DUP1 PUSH0 MSTORE PUSH1 0x40 PUSH0 KECCAK256 PUSH0 SWAP2 POP SWAP1 POP DUP1 PUSH0 ADD DUP1 SLOAD PUSH2 0x565B SWAP1 PUSH2 0x7A6F JUMP JUMPDEST DUP1 PUSH1 0x1F ADD PUSH1 0x20 DUP1 SWAP2 DIV MUL PUSH1 0x20 ADD PUSH1 0x40 MLOAD SWAP1 DUP2 ADD PUSH1 0x40 MSTORE DUP1 SWAP3 SWAP2 SWAP1 DUP2 DUP2 MSTORE PUSH1 0x20 ADD DUP3 DUP1 SLOAD PUSH2 0x5687 SWAP1 PUSH2 0x7A6F JUMP JUMPDEST DUP1 ISZERO PUSH2 0x56D2 JUMPI DUP1 PUSH1 0x1F LT PUSH2 0x56A9 JUMPI PUSH2 0x100 DUP1 DUP4 SLOAD DIV MUL DUP4 MSTORE SWAP2 PUSH1 0x20 ADD SWAP2 PUSH2 0x56D2 JUMP JUMPDEST DUP3 ADD SWAP2 SWAP1 PUSH0 MSTORE PUSH1 0x20 PUSH0 KECCAK256 SWAP1 JUMPDEST DUP2 SLOAD DUP2 MSTORE SWAP1 PUSH1 0x1 ADD SWAP1 PUSH1 0x20 ADD DUP1 DUP4 GT PUSH2 0x56B5 JUMPI DUP3 SWAP1 SUB PUSH1 0x1F AND DUP3 ADD SWAP2 JUMPDEST POP POP POP POP POP SWAP1 DUP1 PUSH1 0x1 ADD DUP1 SLOAD PUSH2 0x56E7 SWAP1 PUSH2 0x7A6F JUMP JUMPDEST DUP1 PUSH1 0x1F ADD PUSH1 0x20 DUP1 SWAP2 DIV MUL PUSH1 0x20 ADD PUSH1 0x40 MLOAD SWAP1 DUP2 ADD PUSH1 0x40 MSTORE DUP1 SWAP3 SWAP2 SWAP1 DUP2 DUP2 MSTORE PUSH1 0x20 ADD DUP3 DUP1 SLOAD PUSH2 0x5713 SWAP1 PUSH2 0x7A6F JUMP JUMPDEST DUP1 ISZERO PUSH2 0x575E JUMPI DUP1 PUSH1 0x1F LT PUSH2 0x5735 JUMPI PUSH2 0x100 DUP1 DUP4 SLOAD DIV MUL DUP4 MSTORE SWAP2 PUSH1 0x20 ADD SWAP2 PUSH2 0x575E JUMP JUMPDEST DUP3 ADD SWAP2 SWAP1 PUSH0 MSTORE PUSH1 0x20 PUSH0 KECCAK256 SWAP1 JUMPDEST DUP2 SLOAD DUP2 MSTORE SWAP1 PUSH1 0x1 ADD SWAP1 PUSH1 0x20 ADD DUP1 DUP4 GT PUSH2 0x5741 JUMPI DUP3 SWAP1 SUB PUSH1 0x1F AND DUP3 ADD SWAP2 JUMPDEST POP POP POP POP POP SWAP1 DUP1 PUSH1 0x2 ADD DUP1 SLOAD PUSH2 0x5773 SWAP1 PUSH2 0x7A6F JUMP JUMPDEST DUP1 PUSH1 0x1F ADD PUSH1 0x20 DUP1 SWAP2 DIV MUL PUSH1 0x20 ADD PUSH1 0x40 MLOAD SWAP1 DUP2 ADD PUSH1 0x40 MSTORE DUP1 SWAP3 SWAP2 SWAP1 DUP2 DUP2 MSTORE PUSH1 0x20 ADD DUP3 DUP1 SLOAD PUSH2 0x579F SWAP1 PUSH2 0x7A6F JUMP JUMPDEST DUP1 ISZERO PUSH2 0x57EA JUMPI DUP1 PUSH1 0x1F LT PUSH2 0x57C1 JUMPI PUSH2 0x100 DUP1 DUP4 SLOAD DIV MUL DUP4 MSTORE SWAP2 PUSH1 0x20 ADD SWAP2 PUSH2 0x57EA JUMP JUMPDEST DUP3 ADD SWAP2 SWAP1 PUSH0 MSTORE PUSH1 0x20 PUSH0 KECCAK256 SWAP1 JUMPDEST DUP2 SLOAD DUP2 MSTORE SWAP1 PUSH1 0x1 ADD SWAP1 PUSH1 0x20 ADD DUP1 DUP4 GT PUSH2 0x57CD JUMPI DUP3 SWAP1 SUB PUSH1 0x1F AND DUP3 ADD SWAP2 JUMPDEST POP POP POP POP POP SWAP1 DUP1 PUSH1 0x3 ADD SLOAD SWAP1 DUP1 PUSH1 0x4 ADD SLOAD SWAP1 DUP1 PUSH1 0x5 ADD PUSH0 SWAP1 SLOAD SWAP1 PUSH2 0x100 EXP SWAP1 DIV PUSH1 0xFF AND SWAP1 DUP1 PUSH1 0x6 ADD SLOAD SWAP1 POP DUP8 JUMP JUMPDEST PUSH1 0xAC PUSH1 0x20 MSTORE DUP1 PUSH0 MSTORE PUSH1 0x40 PUSH0 KECCAK256 PUSH0 SWAP2 POP SLOAD SWAP1 PUSH2 0x100 EXP SWAP1 DIV PUSH1 0xFF AND DUP2 JUMP JUMPDEST PUSH2 0x583D PUSH2 0x650F JUMP JUMPDEST PUSH1 0x39 PUSH0 SWAP1 SLOAD SWAP1 PUSH2 0x100 EXP SWAP1 DIV PUSH1 0xFF AND ISZERO PUSH2 0x58CB JUMPI PUSH1 0x7 PUSH1 0x32 DUP1 PUSH1 0x20 MUL PUSH1 0x40 MLOAD SWAP1 DUP2 ADD PUSH1 0x40 MSTORE DUP1 SWAP3 SWAP2 SWAP1 DUP3 PUSH1 0x32 DUP1 ISZERO PUSH2 0x58BF JUMPI PUSH1 0x20 MUL DUP3 ADD SWAP2 JUMPDEST DUP2 PUSH0 SWAP1 SLOAD SWAP1 PUSH2 0x100 EXP SWAP1 DIV PUSH20 0xFFFFFFFFFFFFFFFFFFFFFFFFFFFFFFFFFFFFFFFF AND PUSH20 0xFFFFFFFFFFFFFFFFFFFFFFFFFFFFFFFFFFFFFFFF AND DUP2 MSTORE PUSH1 0x20 ADD SWAP1 PUSH1 0x1 ADD SWAP1 DUP1 DUP4 GT PUSH2 0x5876 JUMPI JUMPDEST POP POP POP POP POP SWAP1 POP PUSH2 0x5E9C JUMP JUMPDEST PUSH1 0x1 SLOAD TIMESTAMP GT PUSH2 0x590F JUMPI PUSH1 0x40 MLOAD PUSH32 0x8C379A000000000000000000000000000000000000000000000000000000000 DUP2 MSTORE PUSH1 0x4 ADD PUSH2 0x5906 SWAP1 PUSH2 0x9B0F JUMP JUMPDEST PUSH1 0x40 MLOAD DUP1 SWAP2 SUB SWAP1 REVERT JUMPDEST PUSH0 PUSH1 0x1 SWAP1 POP JUMPDEST PUSH1 0x32 PUSH1 0xFF AND DUP2 GT PUSH2 0x5CB8 JUMPI PUSH0 JUMPDEST DUP2 PUSH1 0x6 DUP1 SLOAD SWAP1 POP SUB DUP2 LT ISZERO PUSH2 0x5B78 JUMPI PUSH1 0x5 PUSH0 PUSH1 0x6 PUSH1 0x1 DUP5 ADD DUP2 SLOAD DUP2 LT PUSH2 0x594B JUMPI PUSH2 0x594A PUSH2 0x7F84 JUMP JUMPDEST JUMPDEST SWAP1 PUSH0 MSTORE PUSH1 0x20 PUSH0 KECCAK256 ADD PUSH0 SWAP1 SLOAD SWAP1 PUSH2 0x100 EXP SWAP1 DIV PUSH20 0xFFFFFFFFFFFFFFFFFFFFFFFFFFFFFFFFFFFFFFFF AND PUSH20 0xFFFFFFFFFFFFFFFFFFFFFFFFFFFFFFFFFFFFFFFF AND PUSH20 0xFFFFFFFFFFFFFFFFFFFFFFFFFFFFFFFFFFFFFFFF AND DUP2 MSTORE PUSH1 0x20 ADD SWAP1 DUP2 MSTORE PUSH1 0x20 ADD PUSH0 KECCAK256 PUSH1 0x4 ADD SLOAD PUSH1 0x5 PUSH0 PUSH1 0x6 DUP5 DUP2 SLOAD DUP2 LT PUSH2 0x59C7 JUMPI PUSH2 0x59C6 PUSH2 0x7F84 JUMP JUMPDEST JUMPDEST SWAP1 PUSH0 MSTORE PUSH1 0x20 PUSH0 KECCAK256 ADD PUSH0 SWAP1 SLOAD SWAP1 PUSH2 0x100 EXP SWAP1 DIV PUSH20 0xFFFFFFFFFFFFFFFFFFFFFFFFFFFFFFFFFFFFFFFF AND PUSH20 0xFFFFFFFFFFFFFFFFFFFFFFFFFFFFFFFFFFFFFFFF AND PUSH20 0xFFFFFFFFFFFFFFFFFFFFFFFFFFFFFFFFFFFFFFFF AND DUP2 MSTORE PUSH1 0x20 ADD SWAP1 DUP2 MSTORE PUSH1 0x20 ADD PUSH0 KECCAK256 PUSH1 0x4 ADD SLOAD GT ISZERO PUSH2 0x5B6B JUMPI PUSH1 0x6 PUSH1 0x1 DUP3 ADD DUP2 SLOAD DUP2 LT PUSH2 0x5A49 JUMPI PUSH2 0x5A48 PUSH2 0x7F84 JUMP JUMPDEST JUMPDEST SWAP1 PUSH0 MSTORE PUSH1 0x20 PUSH0 KECCAK256 ADD PUSH0 SWAP1 SLOAD SWAP1 PUSH2 0x100 EXP SWAP1 DIV PUSH20 0xFFFFFFFFFFFFFFFFFFFFFFFFFFFFFFFFFFFFFFFF AND PUSH1 0x6 DUP3 DUP2 SLOAD DUP2 LT PUSH2 0x5A85 JUMPI PUSH2 0x5A84 PUSH2 0x7F84 JUMP JUMPDEST JUMPDEST SWAP1 PUSH0 MSTORE PUSH1 0x20 PUSH0 KECCAK256 ADD PUSH0 SWAP1 SLOAD SWAP1 PUSH2 0x100 EXP SWAP1 DIV PUSH20 0xFFFFFFFFFFFFFFFFFFFFFFFFFFFFFFFFFFFFFFFF AND PUSH1 0x6 DUP4 DUP2 SLOAD DUP2 LT PUSH2 0x5AC1 JUMPI PUSH2 0x5AC0 PUSH2 0x7F84 JUMP JUMPDEST JUMPDEST SWAP1 PUSH0 MSTORE PUSH1 0x20 PUSH0 KECCAK256 ADD PUSH0 PUSH1 0x6 PUSH1 0x1 DUP7 ADD DUP2 SLOAD DUP2 LT PUSH2 0x5AE1 JUMPI PUSH2 0x5AE0 PUSH2 0x7F84 JUMP JUMPDEST JUMPDEST SWAP1 PUSH0 MSTORE PUSH1 0x20 PUSH0 KECCAK256 ADD PUSH0 DUP5 SWAP2 SWAP1 PUSH2 0x100 EXP DUP2 SLOAD DUP2 PUSH20 0xFFFFFFFFFFFFFFFFFFFFFFFFFFFFFFFFFFFFFFFF MUL NOT AND SWAP1 DUP4 PUSH20 0xFFFFFFFFFFFFFFFFFFFFFFFFFFFFFFFFFFFFFFFF AND MUL OR SWAP1 SSTORE POP DUP4 SWAP2 SWAP1 PUSH2 0x100 EXP DUP2 SLOAD DUP2 PUSH20 0xFFFFFFFFFFFFFFFFFFFFFFFFFFFFFFFFFFFFFFFF MUL NOT AND SWAP1 DUP4 PUSH20 0xFFFFFFFFFFFFFFFFFFFFFFFFFFFFFFFFFFFFFFFF AND MUL OR SWAP1 SSTORE POP POP POP JUMPDEST DUP1 DUP1 PUSH1 0x1 ADD SWAP2 POP POP PUSH2 0x5922 JUMP JUMPDEST POP PUSH1 0x6 DUP2 PUSH1 0x6 DUP1 SLOAD SWAP1 POP SUB DUP2 SLOAD DUP2 LT PUSH2 0x5B94 JUMPI PUSH2 0x5B93 PUSH2 0x7F84 JUMP JUMPDEST JUMPDEST SWAP1 PUSH0 MSTORE PUSH1 0x20 PUSH0 KECCAK256 ADD PUSH0 SWAP1 SLOAD SWAP1 PUSH2 0x100 EXP SWAP1 DIV PUSH20 0xFFFFFFFFFFFFFFFFFFFFFFFFFFFFFFFFFFFFFFFF AND PUSH1 0x7 PUSH1 0x1 DUP4 SUB PUSH1 0x32 DUP2 LT PUSH2 0x5BD3 JUMPI PUSH2 0x5BD2 PUSH2 0x7F84 JUMP JUMPDEST JUMPDEST ADD PUSH0 PUSH2 0x100 EXP DUP2 SLOAD DUP2 PUSH20 0xFFFFFFFFFFFFFFFFFFFFFFFFFFFFFFFFFFFFFFFF MUL NOT AND SWAP1 DUP4 PUSH20 0xFFFFFFFFFFFFFFFFFFFFFFFFFFFFFFFFFFFFFFFF AND MUL OR SWAP1 SSTORE POP PUSH1 0x1 PUSH1 0x5 PUSH0 PUSH1 0x6 DUP5 PUSH1 0x6 DUP1 SLOAD SWAP1 POP SUB DUP2 SLOAD DUP2 LT PUSH2 0x5C31 JUMPI PUSH2 0x5C30 PUSH2 0x7F84 JUMP JUMPDEST JUMPDEST SWAP1 PUSH0 MSTORE PUSH1 0x20 PUSH0 KECCAK256 ADD PUSH0 SWAP1 SLOAD SWAP1 PUSH2 0x100 EXP SWAP1 DIV PUSH20 0xFFFFFFFFFFFFFFFFFFFFFFFFFFFFFFFFFFFFFFFF AND PUSH20 0xFFFFFFFFFFFFFFFFFFFFFFFFFFFFFFFFFFFFFFFF AND PUSH20 0xFFFFFFFFFFFFFFFFFFFFFFFFFFFFFFFFFFFFFFFF AND DUP2 MSTORE PUSH1 0x20 ADD SWAP1 DUP2 MSTORE PUSH1 0x20 ADD PUSH0 KECCAK256 PUSH1 0x5 ADD PUSH0 PUSH2 0x100 EXP DUP2 SLOAD DUP2 PUSH1 0xFF MUL NOT AND SWAP1 DUP4 ISZERO ISZERO MUL OR SWAP1 SSTORE POP DUP1 DUP1 PUSH1 0x1 ADD SWAP2 POP POP PUSH2 0x5915 JUMP JUMPDEST POP PUSH1 0x1 PUSH1 0x39 PUSH0 PUSH2 0x100 EXP DUP2 SLOAD DUP2 PUSH1 0xFF MUL NOT AND SWAP1 DUP4 ISZERO ISZERO MUL OR SWAP1 SSTORE POP PUSH1 0x7 PUSH0 PUSH1 0x32 DUP2 LT PUSH2 0x5CE7 JUMPI PUSH2 0x5CE6 PUSH2 0x7F84 JUMP JUMPDEST JUMPDEST ADD PUSH0 SWAP1 SLOAD SWAP1 PUSH2 0x100 EXP SWAP1 DIV PUSH20 0xFFFFFFFFFFFFFFFFFFFFFFFFFFFFFFFFFFFFFFFF AND PUSH1 0x39 PUSH1 0x1 PUSH2 0x100 EXP DUP2 SLOAD DUP2 PUSH20 0xFFFFFFFFFFFFFFFFFFFFFFFFFFFFFFFFFFFFFFFF MUL NOT AND SWAP1 DUP4 PUSH20 0xFFFFFFFFFFFFFFFFFFFFFFFFFFFFFFFFFFFFFFFF AND MUL OR SWAP1 SSTORE POP PUSH0 PUSH1 0x3A DUP2 SWAP1 SSTORE POP TIMESTAMP PUSH1 0x5 PUSH0 PUSH1 0x39 PUSH1 0x1 SWAP1 SLOAD SWAP1 PUSH2 0x100 EXP SWAP1 DIV PUSH20 0xFFFFFFFFFFFFFFFFFFFFFFFFFFFFFFFFFFFFFFFF AND PUSH20 0xFFFFFFFFFFFFFFFFFFFFFFFFFFFFFFFFFFFFFFFF AND PUSH20 0xFFFFFFFFFFFFFFFFFFFFFFFFFFFFFFFFFFFFFFFF AND DUP2 MSTORE PUSH1 0x20 ADD SWAP1 DUP2 MSTORE PUSH1 0x20 ADD PUSH0 KECCAK256 PUSH1 0x6 ADD DUP2 SWAP1 SSTORE POP PUSH1 0x7 PUSH1 0x40 MLOAD PUSH2 0x5DC5 SWAP2 SWAP1 PUSH2 0x9C08 JUMP JUMPDEST PUSH1 0x40 MLOAD DUP1 SWAP2 SUB SWAP1 KECCAK256 PUSH32 0x5BEFB7B9346D2ADF55904A87BBD0D35BCEDE9D28085A00C081C6168AC5ED6C44 PUSH1 0x39 PUSH1 0x1 SWAP1 SLOAD SWAP1 PUSH2 0x100 EXP SWAP1 DIV PUSH20 0xFFFFFFFFFFFFFFFFFFFFFFFFFFFFFFFFFFFFFFFF AND PUSH1 0x40 MLOAD PUSH2 0x5E1E SWAP2 SWAP1 PUSH2 0x7438 JUMP JUMPDEST PUSH1 0x40 MLOAD DUP1 SWAP2 SUB SWAP1 LOG2 PUSH1 0x7 PUSH1 0x32 DUP1 PUSH1 0x20 MUL PUSH1 0x40 MLOAD SWAP1 DUP2 ADD PUSH1 0x40 MSTORE DUP1 SWAP3 SWAP2 SWAP1 DUP3 PUSH1 0x32 DUP1 ISZERO PUSH2 0x5E94 JUMPI PUSH1 0x20 MUL DUP3 ADD SWAP2 JUMPDEST DUP2 PUSH0 SWAP1 SLOAD SWAP1 PUSH2 0x100 EXP SWAP1 DIV PUSH20 0xFFFFFFFFFFFFFFFFFFFFFFFFFFFFFFFFFFFFFFFF AND PUSH20 0xFFFFFFFFFFFFFFFFFFFFFFFFFFFFFFFFFFFFFFFF AND DUP2 MSTORE PUSH1 0x20 ADD SWAP1 PUSH1 0x1 ADD SWAP1 DUP1 DUP4 GT PUSH2 0x5E4B JUMPI JUMPDEST POP POP POP POP POP SWAP1 POP JUMPDEST SWAP1 JUMP JUMPDEST PUSH1 0x44 SLOAD DUP2 JUMP JUMPDEST PUSH0 DUP1 SLOAD SWAP1 PUSH2 0x100 EXP SWAP1 DIV PUSH20 0xFFFFFFFFFFFFFFFFFFFFFFFFFFFFFFFFFFFFFFFF AND DUP2 JUMP JUMPDEST PUSH1 0x46 DUP2 DUP2 SLOAD DUP2 LT PUSH2 0x5ED7 JUMPI PUSH0 DUP1 REVERT JUMPDEST SWAP1 PUSH0 MSTORE PUSH1 0x20 PUSH0 KECCAK256 SWAP1 PUSH1 0x2 MUL ADD PUSH0 SWAP2 POP SWAP1 POP DUP1 PUSH0 ADD SLOAD SWAP1 DUP1 PUSH1 0x1 ADD SLOAD SWAP1 POP DUP3 JUMP JUMPDEST PUSH2 0x5EFF PUSH2 0x643E JUMP JUMPDEST PUSH1 0x3F DUP1 SLOAD SWAP1 POP DUP3 LT PUSH2 0x5F46 JUMPI PUSH1 0x40 MLOAD PUSH32 0x8C379A000000000000000000000000000000000000000000000000000000000 DUP2 MSTORE PUSH1 0x4 ADD PUSH2 0x5F3D SWAP1 PUSH2 0x9C6D JUMP JUMPDEST PUSH1 0x40 MLOAD DUP1 SWAP2 SUB SWAP1 REVERT JUMPDEST PUSH1 0x3F DUP3 DUP2 SLOAD DUP2 LT PUSH2 0x5F5A JUMPI PUSH2 0x5F59 PUSH2 0x7F84 JUMP JUMPDEST JUMPDEST SWAP1 PUSH0 MSTORE PUSH1 0x20 PUSH0 KECCAK256 SWAP1 PUSH1 0x8 MUL ADD PUSH1 0x40 MLOAD DUP1 PUSH2 0x100 ADD PUSH1 0x40 MSTORE SWAP1 DUP2 PUSH0 DUP3 ADD DUP1 SLOAD PUSH2 0x5F81 SWAP1 PUSH2 0x7A6F JUMP JUMPDEST DUP1 PUSH1 0x1F ADD PUSH1 0x20 DUP1 SWAP2 DIV MUL PUSH1 0x20 ADD PUSH1 0x40 MLOAD SWAP1 DUP2 ADD PUSH1 0x40 MSTORE DUP1 SWAP3 SWAP2 SWAP1 DUP2 DUP2 MSTORE PUSH1 0x20 ADD DUP3 DUP1 SLOAD PUSH2 0x5FAD SWAP1 PUSH2 0x7A6F JUMP JUMPDEST DUP1 ISZERO PUSH2 0x5FF8 JUMPI DUP1 PUSH1 0x1F LT PUSH2 0x5FCF JUMPI PUSH2 0x100 DUP1 DUP4 SLOAD DIV MUL DUP4 MSTORE SWAP2 PUSH1 0x20 ADD SWAP2 PUSH2 0x5FF8 JUMP JUMPDEST DUP3 ADD SWAP2 SWAP1 PUSH0 MSTORE PUSH1 0x20 PUSH0 KECCAK256 SWAP1 JUMPDEST DUP2 SLOAD DUP2 MSTORE SWAP1 PUSH1 0x1 ADD SWAP1 PUSH1 0x20 ADD DUP1 DUP4 GT PUSH2 0x5FDB JUMPI DUP3 SWAP1 SUB PUSH1 0x1F AND DUP3 ADD SWAP2 JUMPDEST POP POP POP POP POP DUP2 MSTORE PUSH1 0x20 ADD PUSH1 0x1 DUP3 ADD DUP1 SLOAD PUSH2 0x6011 SWAP1 PUSH2 0x7A6F JUMP JUMPDEST DUP1 PUSH1 0x1F ADD PUSH1 0x20 DUP1 SWAP2 DIV MUL PUSH1 0x20 ADD PUSH1 0x40 MLOAD SWAP1 DUP2 ADD PUSH1 0x40 MSTORE DUP1 SWAP3 SWAP2 SWAP1 DUP2 DUP2 MSTORE PUSH1 0x20 ADD DUP3 DUP1 SLOAD PUSH2 0x603D SWAP1 PUSH2 0x7A6F JUMP JUMPDEST DUP1 ISZERO PUSH2 0x6088 JUMPI DUP1 PUSH1 0x1F LT PUSH2 0x605F JUMPI PUSH2 0x100 DUP1 DUP4 SLOAD DIV MUL DUP4 MSTORE SWAP2 PUSH1 0x20 ADD SWAP2 PUSH2 0x6088 JUMP JUMPDEST DUP3 ADD SWAP2 SWAP1 PUSH0 MSTORE PUSH1 0x20 PUSH0 KECCAK256 SWAP1 JUMPDEST DUP2 SLOAD DUP2 MSTORE SWAP1 PUSH1 0x1 ADD SWAP1 PUSH1 0x20 ADD DUP1 DUP4 GT PUSH2 0x606B JUMPI DUP3 SWAP1 SUB PUSH1 0x1F AND DUP3 ADD SWAP2 JUMPDEST POP POP POP POP POP DUP2 MSTORE PUSH1 0x20 ADD PUSH1 0x2 DUP3 ADD DUP1 SLOAD PUSH2 0x60A1 SWAP1 PUSH2 0x7A6F JUMP JUMPDEST DUP1 PUSH1 0x1F ADD PUSH1 0x20 DUP1 SWAP2 DIV MUL PUSH1 0x20 ADD PUSH1 0x40 MLOAD SWAP1 DUP2 ADD PUSH1 0x40 MSTORE DUP1 SWAP3 SWAP2 SWAP1 DUP2 DUP2 MSTORE PUSH1 0x20 ADD DUP3 DUP1 SLOAD PUSH2 0x60CD SWAP1 PUSH2 0x7A6F JUMP JUMPDEST DUP1 ISZERO PUSH2 0x6118 JUMPI DUP1 PUSH1 0x1F LT PUSH2 0x60EF JUMPI PUSH2 0x100 DUP1 DUP4 SLOAD DIV MUL DUP4 MSTORE SWAP2 PUSH1 0x20 ADD SWAP2 PUSH2 0x6118 JUMP JUMPDEST DUP3 ADD SWAP2 SWAP1 PUSH0 MSTORE PUSH1 0x20 PUSH0 KECCAK256 SWAP1 JUMPDEST DUP2 SLOAD DUP2 MSTORE SWAP1 PUSH1 0x1 ADD SWAP1 PUSH1 0x20 ADD DUP1 DUP4 GT PUSH2 0x60FB JUMPI DUP3 SWAP1 SUB PUSH1 0x1F AND DUP3 ADD SWAP2 JUMPDEST POP POP POP POP POP DUP2 MSTORE PUSH1 0x20 ADD PUSH1 0x3 DUP3 ADD DUP1 SLOAD PUSH2 0x6131 SWAP1 PUSH2 0x7A6F JUMP JUMPDEST DUP1 PUSH1 0x1F ADD PUSH1 0x20 DUP1 SWAP2 DIV MUL PUSH1 0x20 ADD PUSH1 0x40 MLOAD SWAP1 DUP2 ADD PUSH1 0x40 MSTORE DUP1 SWAP3 SWAP2 SWAP1 DUP2 DUP2 MSTORE PUSH1 0x20 ADD DUP3 DUP1 SLOAD PUSH2 0x615D SWAP1 PUSH2 0x7A6F JUMP JUMPDEST DUP1 ISZERO PUSH2 0x61A8 JUMPI DUP1 PUSH1 0x1F LT PUSH2 0x617F JUMPI PUSH2 0x100 DUP1 DUP4 SLOAD DIV MUL DUP4 MSTORE SWAP2 PUSH1 0x20 ADD SWAP2 PUSH2 0x61A8 JUMP JUMPDEST DUP3 ADD SWAP2 SWAP1 PUSH0 MSTORE PUSH1 0x20 PUSH0 KECCAK256 SWAP1 JUMPDEST DUP2 SLOAD DUP2 MSTORE SWAP1 PUSH1 0x1 ADD SWAP1 PUSH1 0x20 ADD DUP1 DUP4 GT PUSH2 0x618B JUMPI DUP3 SWAP1 SUB PUSH1 0x1F AND DUP3 ADD SWAP2 JUMPDEST POP POP POP POP POP DUP2 MSTORE PUSH1 0x20 ADD PUSH1 0x4 DUP3 ADD SLOAD DUP2 MSTORE PUSH1 0x20 ADD PUSH1 0x5 DUP3 ADD DUP1 SLOAD PUSH2 0x61CB SWAP1 PUSH2 0x7A6F JUMP JUMPDEST DUP1 PUSH1 0x1F ADD PUSH1 0x20 DUP1 SWAP2 DIV MUL PUSH1 0x20 ADD PUSH1 0x40 MLOAD SWAP1 DUP2 ADD PUSH1 0x40 MSTORE DUP1 SWAP3 SWAP2 SWAP1 DUP2 DUP2 MSTORE PUSH1 0x20 ADD DUP3 DUP1 SLOAD PUSH2 0x61F7 SWAP1 PUSH2 0x7A6F JUMP JUMPDEST DUP1 ISZERO PUSH2 0x6242 JUMPI DUP1 PUSH1 0x1F LT PUSH2 0x6219 JUMPI PUSH2 0x100 DUP1 DUP4 SLOAD DIV MUL DUP4 MSTORE SWAP2 PUSH1 0x20 ADD SWAP2 PUSH2 0x6242 JUMP JUMPDEST DUP3 ADD SWAP2 SWAP1 PUSH0 MSTORE PUSH1 0x20 PUSH0 KECCAK256 SWAP1 JUMPDEST DUP2 SLOAD DUP2 MSTORE SWAP1 PUSH1 0x1 ADD SWAP1 PUSH1 0x20 ADD DUP1 DUP4 GT PUSH2 0x6225 JUMPI DUP3 SWAP1 SUB PUSH1 0x1F AND DUP3 ADD SWAP2 JUMPDEST POP POP POP POP POP DUP2 MSTORE PUSH1 0x20 ADD PUSH1 0x6 DUP3 ADD SLOAD DUP2 MSTORE PUSH1 0x20 ADD PUSH1 0x7 DUP3 ADD SLOAD DUP2 MSTORE POP POP SWAP1 POP SWAP2 SWAP1 POP JUMP JUMPDEST PUSH1 0x45 SLOAD DUP2 JUMP JUMPDEST PUSH0 PUSH1 0x3B DUP3 DUP2 SLOAD DUP2 LT PUSH2 0x6281 JUMPI PUSH2 0x6280 PUSH2 0x7F84 JUMP JUMPDEST JUMPDEST SWAP1 PUSH0 MSTORE PUSH1 0x20 PUSH0 KECCAK256 SWAP1 PUSH1 0x7 MUL ADD SWAP1 POP PUSH0 JUMPDEST DUP2 PUSH1 0x6 ADD DUP1 SLOAD SWAP1 POP DUP2 LT ISZERO PUSH2 0x6417 JUMPI PUSH0 DUP3 PUSH1 0x6 ADD DUP3 DUP2 SLOAD DUP2 LT PUSH2 0x62B7 JUMPI PUSH2 0x62B6 PUSH2 0x7F84 JUMP JUMPDEST JUMPDEST SWAP1 PUSH0 MSTORE PUSH1 0x20 PUSH0 KECCAK256 SWAP1 PUSH1 0x3 MUL ADD PUSH1 0x40 MLOAD DUP1 PUSH1 0x60 ADD PUSH1 0x40 MSTORE SWAP1 DUP2 PUSH0 DUP3 ADD SLOAD DUP2 MSTORE PUSH1 0x20 ADD PUSH1 0x1 DUP3 ADD PUSH0 SWAP1 SLOAD SWAP1 PUSH2 0x100 EXP SWAP1 DIV PUSH20 0xFFFFFFFFFFFFFFFFFFFFFFFFFFFFFFFFFFFFFFFF AND PUSH20 0xFFFFFFFFFFFFFFFFFFFFFFFFFFFFFFFFFFFFFFFF AND PUSH20 0xFFFFFFFFFFFFFFFFFFFFFFFFFFFFFFFFFFFFFFFF AND DUP2 MSTORE PUSH1 0x20 ADD PUSH1 0x2 DUP3 ADD DUP1 SLOAD PUSH2 0x633C SWAP1 PUSH2 0x7A6F JUMP JUMPDEST DUP1 PUSH1 0x1F ADD PUSH1 0x20 DUP1 SWAP2 DIV MUL PUSH1 0x20 ADD PUSH1 0x40 MLOAD SWAP1 DUP2 ADD PUSH1 0x40 MSTORE DUP1 SWAP3 SWAP2 SWAP1 DUP2 DUP2 MSTORE PUSH1 0x20 ADD DUP3 DUP1 SLOAD PUSH2 0x6368 SWAP1 PUSH2 0x7A6F JUMP JUMPDEST DUP1 ISZERO PUSH2 0x63B3 JUMPI DUP1 PUSH1 0x1F LT PUSH2 0x638A JUMPI PUSH2 0x100 DUP1 DUP4 SLOAD DIV MUL DUP4 MSTORE SWAP2 PUSH1 0x20 ADD SWAP2 PUSH2 0x63B3 JUMP JUMPDEST DUP3 ADD SWAP2 SWAP1 PUSH0 MSTORE PUSH1 0x20 PUSH0 KECCAK256 SWAP1 JUMPDEST DUP2 SLOAD DUP2 MSTORE SWAP1 PUSH1 0x1 ADD SWAP1 PUSH1 0x20 ADD DUP1 DUP4 GT PUSH2 0x6396 JUMPI DUP3 SWAP1 SUB PUSH1 0x1F AND DUP3 ADD SWAP2 JUMPDEST POP POP POP POP POP DUP2 MSTORE POP POP SWAP1 POP DUP1 PUSH1 0x20 ADD MLOAD PUSH20 0xFFFFFFFFFFFFFFFFFFFFFFFFFFFFFFFFFFFFFFFF AND PUSH2 0x8FC DUP3 PUSH0 ADD MLOAD SWAP1 DUP2 ISZERO MUL SWAP1 PUSH1 0x40 MLOAD PUSH0 PUSH1 0x40 MLOAD DUP1 DUP4 SUB DUP2 DUP6 DUP9 DUP9 CALL SWAP4 POP POP POP POP ISZERO DUP1 ISZERO PUSH2 0x6408 JUMPI RETURNDATASIZE PUSH0 DUP1 RETURNDATACOPY RETURNDATASIZE PUSH0 REVERT JUMPDEST POP POP DUP1 DUP1 PUSH1 0x1 ADD SWAP2 POP POP PUSH2 0x6291 JUMP JUMPDEST POP POP POP JUMP JUMPDEST PUSH1 0x40 MLOAD DUP1 PUSH1 0x40 ADD PUSH1 0x40 MSTORE DUP1 PUSH1 0x2 SWAP1 PUSH1 0x20 DUP3 MUL DUP1 CALLDATASIZE DUP4 CALLDATACOPY DUP1 DUP3 ADD SWAP2 POP POP SWAP1 POP POP SWAP1 JUMP JUMPDEST PUSH1 0x40 MLOAD DUP1 PUSH2 0x100 ADD PUSH1 0x40 MSTORE DUP1 PUSH1 0x60 DUP2 MSTORE PUSH1 0x20 ADD PUSH1 0x60 DUP2 MSTORE PUSH1 0x20 ADD PUSH1 0x60 DUP2 MSTORE PUSH1 0x20 ADD PUSH1 0x60 DUP2 MSTORE PUSH1 0x20 ADD PUSH0 DUP1 NOT AND DUP2 MSTORE PUSH1 0x20 ADD PUSH1 0x60 DUP2 MSTORE PUSH1 0x20 ADD PUSH0 DUP2 MSTORE PUSH1 0x20 ADD PUSH0 DUP2 MSTORE POP SWAP1 JUMP JUMPDEST PUSH1 0x40 MLOAD DUP1 PUSH1 0xE0 ADD PUSH1 0x40 MSTORE DUP1 PUSH0 PUSH20 0xFFFFFFFFFFFFFFFFFFFFFFFFFFFFFFFFFFFFFFFF AND DUP2 MSTORE PUSH1 0x20 ADD PUSH1 0x60 DUP2 MSTORE PUSH1 0x20 ADD PUSH0 DUP2 MSTORE PUSH1 0x20 ADD PUSH0 DUP2 MSTORE PUSH1 0x20 ADD PUSH0 DUP2 MSTORE PUSH1 0x20 ADD PUSH0 PUSH1 0xFF AND DUP2 MSTORE PUSH1 0x20 ADD PUSH1 0x60 DUP2 MSTORE POP SWAP1 JUMP JUMPDEST PUSH1 0x40 MLOAD DUP1 PUSH1 0xE0 ADD PUSH1 0x40 MSTORE DUP1 PUSH1 0x60 DUP2 MSTORE PUSH1 0x20 ADD PUSH1 0x60 DUP2 MSTORE PUSH1 0x20 ADD PUSH1 0x60 DUP2 MSTORE PUSH1 0x20 ADD PUSH0 DUP2 MSTORE PUSH1 0x20 ADD PUSH0 DUP2 MSTORE PUSH1 0x20 ADD PUSH0 ISZERO ISZERO DUP2 MSTORE PUSH1 0x20 ADD PUSH0 DUP2 MSTORE POP SWAP1 JUMP JUMPDEST PUSH1 0x40 MLOAD DUP1 PUSH2 0x640 ADD PUSH1 0x40 MSTORE DUP1 PUSH1 0x32 SWAP1 PUSH1 0x20 DUP3 MUL DUP1 CALLDATASIZE DUP4 CALLDATACOPY DUP1 DUP3 ADD SWAP2 POP POP SWAP1 POP POP SWAP1 JUMP JUMPDEST PUSH0 PUSH1 0x40 MLOAD SWAP1 POP SWAP1 JUMP JUMPDEST PUSH0 DUP1 REVERT JUMPDEST PUSH0 DUP1 REVERT JUMPDEST PUSH0 PUSH20 0xFFFFFFFFFFFFFFFFFFFFFFFFFFFFFFFFFFFFFFFF DUP3 AND SWAP1 POP SWAP2 SWAP1 POP JUMP JUMPDEST PUSH0 PUSH2 0x656C DUP3 PUSH2 0x6543 JUMP JUMPDEST SWAP1 POP SWAP2 SWAP1 POP JUMP JUMPDEST PUSH2 0x657C DUP2 PUSH2 0x6562 JUMP JUMPDEST DUP2 EQ PUSH2 0x6586 JUMPI PUSH0 DUP1 REVERT JUMPDEST POP JUMP JUMPDEST PUSH0 DUP2 CALLDATALOAD SWAP1 POP PUSH2 0x6597 DUP2 PUSH2 0x6573 JUMP JUMPDEST SWAP3 SWAP2 POP POP JUMP JUMPDEST PUSH0 DUP1 PUSH1 0x40 DUP4 DUP6 SUB SLT ISZERO PUSH2 0x65B3 JUMPI PUSH2 0x65B2 PUSH2 0x653B JUMP JUMPDEST JUMPDEST PUSH0 PUSH2 0x65C0 DUP6 DUP3 DUP7 ADD PUSH2 0x6589 JUMP JUMPDEST SWAP3 POP POP PUSH1 0x20 PUSH2 0x65D1 DUP6 DUP3 DUP7 ADD PUSH2 0x6589 JUMP JUMPDEST SWAP2 POP POP SWAP3 POP SWAP3 SWAP1 POP JUMP JUMPDEST PUSH0 DUP2 PUSH0 SIGNEXTEND SWAP1 POP SWAP2 SWAP1 POP JUMP JUMPDEST PUSH2 0x65EF DUP2 PUSH2 0x65DB JUMP JUMPDEST DUP3 MSTORE POP POP JUMP JUMPDEST PUSH0 PUSH1 0x20 DUP3 ADD SWAP1 POP PUSH2 0x6608 PUSH0 DUP4 ADD DUP5 PUSH2 0x65E6 JUMP JUMPDEST SWAP3 SWAP2 POP POP JUMP JUMPDEST PUSH0 DUP1 REVERT JUMPDEST PUSH0 DUP1 REVERT JUMPDEST PUSH0 PUSH1 0x1F NOT PUSH1 0x1F DUP4 ADD AND SWAP1 POP SWAP2 SWAP1 POP JUMP JUMPDEST PUSH32 0x4E487B7100000000000000000000000000000000000000000000000000000000 PUSH0 MSTORE PUSH1 0x41 PUSH1 0x4 MSTORE PUSH1 0x24 PUSH0 REVERT JUMPDEST PUSH2 0x665C DUP3 PUSH2 0x6616 JUMP JUMPDEST DUP2 ADD DUP2 DUP2 LT PUSH8 0xFFFFFFFFFFFFFFFF DUP3 GT OR ISZERO PUSH2 0x667B JUMPI PUSH2 0x667A PUSH2 0x6626 JUMP JUMPDEST JUMPDEST DUP1 PUSH1 0x40 MSTORE POP POP POP JUMP JUMPDEST PUSH0 PUSH2 0x668D PUSH2 0x6532 JUMP JUMPDEST SWAP1 POP PUSH2 0x6699 DUP3 DUP3 PUSH2 0x6653 JUMP JUMPDEST SWAP2 SWAP1 POP JUMP JUMPDEST PUSH0 PUSH8 0xFFFFFFFFFFFFFFFF DUP3 GT ISZERO PUSH2 0x66B8 JUMPI PUSH2 0x66B7 PUSH2 0x6626 JUMP JUMPDEST JUMPDEST PUSH2 0x66C1 DUP3 PUSH2 0x6616 JUMP JUMPDEST SWAP1 POP PUSH1 0x20 DUP2 ADD SWAP1 POP SWAP2 SWAP1 POP JUMP JUMPDEST DUP3 DUP2 DUP4 CALLDATACOPY PUSH0 DUP4 DUP4 ADD MSTORE POP POP POP JUMP JUMPDEST PUSH0 PUSH2 0x66EE PUSH2 0x66E9 DUP5 PUSH2 0x669E JUMP JUMPDEST PUSH2 0x6684 JUMP JUMPDEST SWAP1 POP DUP3 DUP2 MSTORE PUSH1 0x20 DUP2 ADD DUP5 DUP5 DUP5 ADD GT ISZERO PUSH2 0x670A JUMPI PUSH2 0x6709 PUSH2 0x6612 JUMP JUMPDEST JUMPDEST PUSH2 0x6715 DUP5 DUP3 DUP6 PUSH2 0x66CE JUMP JUMPDEST POP SWAP4 SWAP3 POP POP POP JUMP JUMPDEST PUSH0 DUP3 PUSH1 0x1F DUP4 ADD SLT PUSH2 0x6731 JUMPI PUSH2 0x6730 PUSH2 0x660E JUMP JUMPDEST JUMPDEST DUP2 CALLDATALOAD PUSH2 0x6741 DUP5 DUP3 PUSH1 0x20 DUP7 ADD PUSH2 0x66DC JUMP JUMPDEST SWAP2 POP POP SWAP3 SWAP2 POP POP JUMP JUMPDEST PUSH0 DUP1 PUSH0 PUSH1 0x60 DUP5 DUP7 SUB SLT ISZERO PUSH2 0x6761 JUMPI PUSH2 0x6760 PUSH2 0x653B JUMP JUMPDEST JUMPDEST PUSH0 DUP5 ADD CALLDATALOAD PUSH8 0xFFFFFFFFFFFFFFFF DUP2 GT ISZERO PUSH2 0x677E JUMPI PUSH2 0x677D PUSH2 0x653F JUMP JUMPDEST JUMPDEST PUSH2 0x678A DUP7 DUP3 DUP8 ADD PUSH2 0x671D JUMP JUMPDEST SWAP4 POP POP PUSH1 0x20 DUP5 ADD CALLDATALOAD PUSH8 0xFFFFFFFFFFFFFFFF DUP2 GT ISZERO PUSH2 0x67AB JUMPI PUSH2 0x67AA PUSH2 0x653F JUMP JUMPDEST JUMPDEST PUSH2 0x67B7 DUP7 DUP3 DUP8 ADD PUSH2 0x671D JUMP JUMPDEST SWAP3 POP POP PUSH1 0x40 DUP5 ADD CALLDATALOAD PUSH8 0xFFFFFFFFFFFFFFFF DUP2 GT ISZERO PUSH2 0x67D8 JUMPI PUSH2 0x67D7 PUSH2 0x653F JUMP JUMPDEST JUMPDEST PUSH2 0x67E4 DUP7 DUP3 DUP8 ADD PUSH2 0x671D JUMP JUMPDEST SWAP2 POP POP SWAP3 POP SWAP3 POP SWAP3 JUMP JUMPDEST PUSH0 DUP2 ISZERO ISZERO SWAP1 POP SWAP2 SWAP1 POP JUMP JUMPDEST PUSH2 0x6802 DUP2 PUSH2 0x67EE JUMP JUMPDEST DUP3 MSTORE POP POP JUMP JUMPDEST PUSH0 PUSH1 0x20 DUP3 ADD SWAP1 POP PUSH2 0x681B PUSH0 DUP4 ADD DUP5 PUSH2 0x67F9 JUMP JUMPDEST SWAP3 SWAP2 POP POP JUMP JUMPDEST PUSH0 DUP2 SWAP1 POP SWAP2 SWAP1 POP JUMP JUMPDEST PUSH2 0x6833 DUP2 PUSH2 0x6821 JUMP JUMPDEST DUP2 EQ PUSH2 0x683D JUMPI PUSH0 DUP1 REVERT JUMPDEST POP JUMP JUMPDEST PUSH0 DUP2 CALLDATALOAD SWAP1 POP PUSH2 0x684E DUP2 PUSH2 0x682A JUMP JUMPDEST SWAP3 SWAP2 POP POP JUMP JUMPDEST PUSH0 PUSH1 0x20 DUP3 DUP5 SUB SLT ISZERO PUSH2 0x6869 JUMPI PUSH2 0x6868 PUSH2 0x653B JUMP JUMPDEST JUMPDEST PUSH0 PUSH2 0x6876 DUP5 DUP3 DUP6 ADD PUSH2 0x6840 JUMP JUMPDEST SWAP2 POP POP SWAP3 SWAP2 POP POP JUMP JUMPDEST PUSH0 PUSH1 0x2 SWAP1 POP SWAP2 SWAP1 POP JUMP JUMPDEST PUSH0 DUP2 SWAP1 POP SWAP3 SWAP2 POP POP JUMP JUMPDEST PUSH0 DUP2 SWAP1 POP SWAP2 SWAP1 POP JUMP JUMPDEST PUSH2 0x68A5 DUP2 PUSH2 0x6562 JUMP JUMPDEST DUP3 MSTORE POP POP JUMP JUMPDEST PUSH0 PUSH2 0x68B6 DUP4 DUP4 PUSH2 0x689C JUMP JUMPDEST PUSH1 0x20 DUP4 ADD SWAP1 POP SWAP3 SWAP2 POP POP JUMP JUMPDEST PUSH0 PUSH1 0x20 DUP3 ADD SWAP1 POP SWAP2 SWAP1 POP JUMP JUMPDEST PUSH2 0x68D7 DUP2 PUSH2 0x687F JUMP JUMPDEST PUSH2 0x68E1 DUP2 DUP5 PUSH2 0x6889 JUMP JUMPDEST SWAP3 POP PUSH2 0x68EC DUP3 PUSH2 0x6893 JUMP JUMPDEST DUP1 PUSH0 JUMPDEST DUP4 DUP2 LT ISZERO PUSH2 0x691C JUMPI DUP2 MLOAD PUSH2 0x6903 DUP8 DUP3 PUSH2 0x68AB JUMP JUMPDEST SWAP7 POP PUSH2 0x690E DUP4 PUSH2 0x68C2 JUMP JUMPDEST SWAP3 POP POP PUSH1 0x1 DUP2 ADD SWAP1 POP PUSH2 0x68EF JUMP JUMPDEST POP POP POP POP POP POP JUMP JUMPDEST PUSH0 PUSH1 0x40 DUP3 ADD SWAP1 POP PUSH2 0x6937 PUSH0 DUP4 ADD DUP5 PUSH2 0x68CE JUMP JUMPDEST SWAP3 SWAP2 POP POP JUMP JUMPDEST PUSH0 DUP2 SWAP1 POP SWAP2 SWAP1 POP JUMP JUMPDEST PUSH2 0x694F DUP2 PUSH2 0x693D JUMP JUMPDEST DUP3 MSTORE POP POP JUMP JUMPDEST PUSH0 PUSH1 0x20 DUP3 ADD SWAP1 POP PUSH2 0x6968 PUSH0 DUP4 ADD DUP5 PUSH2 0x6946 JUMP JUMPDEST SWAP3 SWAP2 POP POP JUMP JUMPDEST PUSH0 PUSH1 0x20 DUP3 DUP5 SUB SLT ISZERO PUSH2 0x6983 JUMPI PUSH2 0x6982 PUSH2 0x653B JUMP JUMPDEST JUMPDEST PUSH0 PUSH2 0x6990 DUP5 DUP3 DUP6 ADD PUSH2 0x6589 JUMP JUMPDEST SWAP2 POP POP SWAP3 SWAP2 POP POP JUMP JUMPDEST PUSH2 0x69A2 DUP2 PUSH2 0x693D JUMP JUMPDEST DUP2 EQ PUSH2 0x69AC JUMPI PUSH0 DUP1 REVERT JUMPDEST POP JUMP JUMPDEST PUSH0 DUP2 CALLDATALOAD SWAP1 POP PUSH2 0x69BD DUP2 PUSH2 0x6999 JUMP JUMPDEST SWAP3 SWAP2 POP POP JUMP JUMPDEST PUSH0 DUP1 PUSH1 0x40 DUP4 DUP6 SUB SLT ISZERO PUSH2 0x69D9 JUMPI PUSH2 0x69D8 PUSH2 0x653B JUMP JUMPDEST JUMPDEST PUSH0 PUSH2 0x69E6 DUP6 DUP3 DUP7 ADD PUSH2 0x6589 JUMP JUMPDEST SWAP3 POP POP PUSH1 0x20 PUSH2 0x69F7 DUP6 DUP3 DUP7 ADD PUSH2 0x69AF JUMP JUMPDEST SWAP2 POP POP SWAP3 POP SWAP3 SWAP1 POP JUMP JUMPDEST PUSH0 DUP1 REVERT JUMPDEST PUSH0 DUP2 SWAP1 POP DUP3 PUSH1 0x20 PUSH1 0xA MUL DUP3 ADD GT ISZERO PUSH2 0x6A20 JUMPI PUSH2 0x6A1F PUSH2 0x6A01 JUMP JUMPDEST JUMPDEST SWAP3 SWAP2 POP POP JUMP JUMPDEST PUSH0 DUP2 SWAP1 POP DUP3 PUSH1 0x20 PUSH1 0xA MUL DUP3 ADD GT ISZERO PUSH2 0x6A41 JUMPI PUSH2 0x6A40 PUSH2 0x6A01 JUMP JUMPDEST JUMPDEST SWAP3 SWAP2 POP POP JUMP JUMPDEST PUSH0 DUP1 PUSH2 0x280 DUP4 DUP6 SUB SLT ISZERO PUSH2 0x6A5E JUMPI PUSH2 0x6A5D PUSH2 0x653B JUMP JUMPDEST JUMPDEST PUSH0 PUSH2 0x6A6B DUP6 DUP3 DUP7 ADD PUSH2 0x6A05 JUMP JUMPDEST SWAP3 POP POP PUSH2 0x140 PUSH2 0x6A7D DUP6 DUP3 DUP7 ADD PUSH2 0x6A26 JUMP JUMPDEST SWAP2 POP POP SWAP3 POP SWAP3 SWAP1 POP JUMP JUMPDEST PUSH0 PUSH1 0x20 DUP3 DUP5 SUB SLT ISZERO PUSH2 0x6A9C JUMPI PUSH2 0x6A9B PUSH2 0x653B JUMP JUMPDEST JUMPDEST PUSH0 PUSH2 0x6AA9 DUP5 DUP3 DUP6 ADD PUSH2 0x69AF JUMP JUMPDEST SWAP2 POP POP SWAP3 SWAP2 POP POP JUMP JUMPDEST PUSH2 0x6ABB DUP2 PUSH2 0x6562 JUMP JUMPDEST DUP3 MSTORE POP POP JUMP JUMPDEST PUSH0 DUP2 MLOAD SWAP1 POP SWAP2 SWAP1 POP JUMP JUMPDEST PUSH0 DUP3 DUP3 MSTORE PUSH1 0x20 DUP3 ADD SWAP1 POP SWAP3 SWAP2 POP POP JUMP JUMPDEST DUP3 DUP2 DUP4 MCOPY PUSH0 DUP4 DUP4 ADD MSTORE POP POP POP JUMP JUMPDEST PUSH0 PUSH2 0x6AF3 DUP3 PUSH2 0x6AC1 JUMP JUMPDEST PUSH2 0x6AFD DUP2 DUP6 PUSH2 0x6ACB JUMP JUMPDEST SWAP4 POP PUSH2 0x6B0D DUP2 DUP6 PUSH1 0x20 DUP7 ADD PUSH2 0x6ADB JUMP JUMPDEST PUSH2 0x6B16 DUP2 PUSH2 0x6616 JUMP JUMPDEST DUP5 ADD SWAP2 POP POP SWAP3 SWAP2 POP POP JUMP JUMPDEST PUSH0 PUSH1 0xFF DUP3 AND SWAP1 POP SWAP2 SWAP1 POP JUMP JUMPDEST PUSH2 0x6B36 DUP2 PUSH2 0x6B21 JUMP JUMPDEST DUP3 MSTORE POP POP JUMP JUMPDEST PUSH0 PUSH1 0xC0 DUP3 ADD SWAP1 POP PUSH2 0x6B4F PUSH0 DUP4 ADD DUP10 PUSH2 0x6AB2 JUMP JUMPDEST DUP2 DUP2 SUB PUSH1 0x20 DUP4 ADD MSTORE PUSH2 0x6B61 DUP2 DUP9 PUSH2 0x6AE9 JUMP JUMPDEST SWAP1 POP PUSH2 0x6B70 PUSH1 0x40 DUP4 ADD DUP8 PUSH2 0x6946 JUMP JUMPDEST PUSH2 0x6B7D PUSH1 0x60 DUP4 ADD DUP7 PUSH2 0x6946 JUMP JUMPDEST PUSH2 0x6B8A PUSH1 0x80 DUP4 ADD DUP6 PUSH2 0x6946 JUMP JUMPDEST PUSH2 0x6B97 PUSH1 0xA0 DUP4 ADD DUP5 PUSH2 0x6B2D JUMP JUMPDEST SWAP8 SWAP7 POP POP POP POP POP POP POP JUMP JUMPDEST PUSH2 0x6BAB DUP2 PUSH2 0x65DB JUMP JUMPDEST DUP2 EQ PUSH2 0x6BB5 JUMPI PUSH0 DUP1 REVERT JUMPDEST POP JUMP JUMPDEST PUSH0 DUP2 CALLDATALOAD SWAP1 POP PUSH2 0x6BC6 DUP2 PUSH2 0x6BA2 JUMP JUMPDEST SWAP3 SWAP2 POP POP JUMP JUMPDEST PUSH0 DUP1 PUSH1 0x40 DUP4 DUP6 SUB SLT ISZERO PUSH2 0x6BE2 JUMPI PUSH2 0x6BE1 PUSH2 0x653B JUMP JUMPDEST JUMPDEST PUSH0 PUSH2 0x6BEF DUP6 DUP3 DUP7 ADD PUSH2 0x6589 JUMP JUMPDEST SWAP3 POP POP PUSH1 0x20 PUSH2 0x6C00 DUP6 DUP3 DUP7 ADD PUSH2 0x6BB8 JUMP JUMPDEST SWAP2 POP POP SWAP3 POP SWAP3 SWAP1 POP JUMP JUMPDEST PUSH0 PUSH1 0x20 DUP3 ADD SWAP1 POP PUSH2 0x6C1D PUSH0 DUP4 ADD DUP5 PUSH2 0x6B2D JUMP JUMPDEST SWAP3 SWAP2 POP POP JUMP JUMPDEST PUSH0 PUSH4 0xFFFFFFFF DUP3 AND SWAP1 POP SWAP2 SWAP1 POP JUMP JUMPDEST PUSH2 0x6C3B DUP2 PUSH2 0x6C23 JUMP JUMPDEST DUP3 MSTORE POP POP JUMP JUMPDEST PUSH0 PUSH1 0x20 DUP3 ADD SWAP1 POP PUSH2 0x6C54 PUSH0 DUP4 ADD DUP5 PUSH2 0x6C32 JUMP JUMPDEST SWAP3 SWAP2 POP POP JUMP JUMPDEST PUSH2 0x6C63 DUP2 PUSH2 0x6821 JUMP JUMPDEST DUP3 MSTORE POP POP JUMP JUMPDEST PUSH0 PUSH2 0x100 DUP3 ADD SWAP1 POP DUP2 DUP2 SUB PUSH0 DUP4 ADD MSTORE PUSH2 0x6C82 DUP2 DUP12 PUSH2 0x6AE9 JUMP JUMPDEST SWAP1 POP DUP2 DUP2 SUB PUSH1 0x20 DUP4 ADD MSTORE PUSH2 0x6C96 DUP2 DUP11 PUSH2 0x6AE9 JUMP JUMPDEST SWAP1 POP DUP2 DUP2 SUB PUSH1 0x40 DUP4 ADD MSTORE PUSH2 0x6CAA DUP2 DUP10 PUSH2 0x6AE9 JUMP JUMPDEST SWAP1 POP DUP2 DUP2 SUB PUSH1 0x60 DUP4 ADD MSTORE PUSH2 0x6CBE DUP2 DUP9 PUSH2 0x6AE9 JUMP JUMPDEST SWAP1 POP PUSH2 0x6CCD PUSH1 0x80 DUP4 ADD DUP8 PUSH2 0x6C5A JUMP JUMPDEST DUP2 DUP2 SUB PUSH1 0xA0 DUP4 ADD MSTORE PUSH2 0x6CDF DUP2 DUP7 PUSH2 0x6AE9 JUMP JUMPDEST SWAP1 POP PUSH2 0x6CEE PUSH1 0xC0 DUP4 ADD DUP6 PUSH2 0x6946 JUMP JUMPDEST PUSH2 0x6CFB PUSH1 0xE0 DUP4 ADD DUP5 PUSH2 0x6946 JUMP JUMPDEST SWAP10 SWAP9 POP POP POP POP POP POP POP POP POP JUMP JUMPDEST PUSH0 DUP3 DUP3 MSTORE PUSH1 0x20 DUP3 ADD SWAP1 POP SWAP3 SWAP2 POP POP JUMP JUMPDEST PUSH0 PUSH2 0x6D22 DUP3 PUSH2 0x6AC1 JUMP JUMPDEST PUSH2 0x6D2C DUP2 DUP6 PUSH2 0x6D08 JUMP JUMPDEST SWAP4 POP PUSH2 0x6D3C DUP2 DUP6 PUSH1 0x20 DUP7 ADD PUSH2 0x6ADB JUMP JUMPDEST PUSH2 0x6D45 DUP2 PUSH2 0x6616 JUMP JUMPDEST DUP5 ADD SWAP2 POP POP SWAP3 SWAP2 POP POP JUMP JUMPDEST PUSH2 0x6D59 DUP2 PUSH2 0x6821 JUMP JUMPDEST DUP3 MSTORE POP POP JUMP JUMPDEST PUSH2 0x6D68 DUP2 PUSH2 0x693D JUMP JUMPDEST DUP3 MSTORE POP POP JUMP JUMPDEST PUSH0 PUSH2 0x100 DUP4 ADD PUSH0 DUP4 ADD MLOAD DUP5 DUP3 SUB PUSH0 DUP7 ADD MSTORE PUSH2 0x6D89 DUP3 DUP3 PUSH2 0x6D18 JUMP JUMPDEST SWAP2 POP POP PUSH1 0x20 DUP4 ADD MLOAD DUP5 DUP3 SUB PUSH1 0x20 DUP7 ADD MSTORE PUSH2 0x6DA3 DUP3 DUP3 PUSH2 0x6D18 JUMP JUMPDEST SWAP2 POP POP PUSH1 0x40 DUP4 ADD MLOAD DUP5 DUP3 SUB PUSH1 0x40 DUP7 ADD MSTORE PUSH2 0x6DBD DUP3 DUP3 PUSH2 0x6D18 JUMP JUMPDEST SWAP2 POP POP PUSH1 0x60 DUP4 ADD MLOAD DUP5 DUP3 SUB PUSH1 0x60 DUP7 ADD MSTORE PUSH2 0x6DD7 DUP3 DUP3 PUSH2 0x6D18 JUMP JUMPDEST SWAP2 POP POP PUSH1 0x80 DUP4 ADD MLOAD PUSH2 0x6DEC PUSH1 0x80 DUP7 ADD DUP3 PUSH2 0x6D50 JUMP JUMPDEST POP PUSH1 0xA0 DUP4 ADD MLOAD DUP5 DUP3 SUB PUSH1 0xA0 DUP7 ADD MSTORE PUSH2 0x6E04 DUP3 DUP3 PUSH2 0x6D18 JUMP JUMPDEST SWAP2 POP POP PUSH1 0xC0 DUP4 ADD MLOAD PUSH2 0x6E19 PUSH1 0xC0 DUP7 ADD DUP3 PUSH2 0x6D5F JUMP JUMPDEST POP PUSH1 0xE0 DUP4 ADD MLOAD PUSH2 0x6E2C PUSH1 0xE0 DUP7 ADD DUP3 PUSH2 0x6D5F JUMP JUMPDEST POP DUP1 SWAP2 POP POP SWAP3 SWAP2 POP POP JUMP JUMPDEST PUSH0 PUSH1 0x40 DUP3 ADD SWAP1 POP PUSH2 0x6E4A PUSH0 DUP4 ADD DUP6 PUSH2 0x6946 JUMP JUMPDEST DUP2 DUP2 SUB PUSH1 0x20 DUP4 ADD MSTORE PUSH2 0x6E5C DUP2 DUP5 PUSH2 0x6D6E JUMP JUMPDEST SWAP1 POP SWAP4 SWAP3 POP POP POP JUMP JUMPDEST PUSH2 0x6E6E DUP2 PUSH2 0x6B21 JUMP JUMPDEST DUP3 MSTORE POP POP JUMP JUMPDEST PUSH0 DUP2 MLOAD SWAP1 POP SWAP2 SWAP1 POP JUMP JUMPDEST PUSH0 DUP3 DUP3 MSTORE PUSH1 0x20 DUP3 ADD SWAP1 POP SWAP3 SWAP2 POP POP JUMP JUMPDEST PUSH0 DUP2 SWAP1 POP PUSH1 0x20 DUP3 ADD SWAP1 POP SWAP2 SWAP1 POP JUMP JUMPDEST PUSH0 PUSH1 0x60 DUP4 ADD PUSH0 DUP4 ADD MLOAD PUSH2 0x6EB2 PUSH0 DUP7 ADD DUP3 PUSH2 0x6D5F JUMP JUMPDEST POP PUSH1 0x20 DUP4 ADD MLOAD PUSH2 0x6EC5 PUSH1 0x20 DUP7 ADD DUP3 PUSH2 0x689C JUMP JUMPDEST POP PUSH1 0x40 DUP4 ADD MLOAD DUP5 DUP3 SUB PUSH1 0x40 DUP7 ADD MSTORE PUSH2 0x6EDD DUP3 DUP3 PUSH2 0x6D18 JUMP JUMPDEST SWAP2 POP POP DUP1 SWAP2 POP POP SWAP3 SWAP2 POP POP JUMP JUMPDEST PUSH0 PUSH2 0x6EF5 DUP4 DUP4 PUSH2 0x6E9D JUMP JUMPDEST SWAP1 POP SWAP3 SWAP2 POP POP JUMP JUMPDEST PUSH0 PUSH1 0x20 DUP3 ADD SWAP1 POP SWAP2 SWAP1 POP JUMP JUMPDEST PUSH0 PUSH2 0x6F13 DUP3 PUSH2 0x6E74 JUMP JUMPDEST PUSH2 0x6F1D DUP2 DUP6 PUSH2 0x6E7E JUMP JUMPDEST SWAP4 POP DUP4 PUSH1 0x20 DUP3 MUL DUP6 ADD PUSH2 0x6F2F DUP6 PUSH2 0x6E8E JUMP JUMPDEST DUP1 PUSH0 JUMPDEST DUP6 DUP2 LT ISZERO PUSH2 0x6F6A JUMPI DUP5 DUP5 SUB DUP10 MSTORE DUP2 MLOAD PUSH2 0x6F4B DUP6 DUP3 PUSH2 0x6EEA JUMP JUMPDEST SWAP5 POP PUSH2 0x6F56 DUP4 PUSH2 0x6EFD JUMP JUMPDEST SWAP3 POP PUSH1 0x20 DUP11 ADD SWAP10 POP POP PUSH1 0x1 DUP2 ADD SWAP1 POP PUSH2 0x6F32 JUMP JUMPDEST POP DUP3 SWAP8 POP DUP8 SWAP6 POP POP POP POP POP POP SWAP3 SWAP2 POP POP JUMP JUMPDEST PUSH0 PUSH1 0xE0 DUP4 ADD PUSH0 DUP4 ADD MLOAD PUSH2 0x6F91 PUSH0 DUP7 ADD DUP3 PUSH2 0x689C JUMP JUMPDEST POP PUSH1 0x20 DUP4 ADD MLOAD DUP5 DUP3 SUB PUSH1 0x20 DUP7 ADD MSTORE PUSH2 0x6FA9 DUP3 DUP3 PUSH2 0x6D18 JUMP JUMPDEST SWAP2 POP POP PUSH1 0x40 DUP4 ADD MLOAD PUSH2 0x6FBE PUSH1 0x40 DUP7 ADD DUP3 PUSH2 0x6D5F JUMP JUMPDEST POP PUSH1 0x60 DUP4 ADD MLOAD PUSH2 0x6FD1 PUSH1 0x60 DUP7 ADD DUP3 PUSH2 0x6D5F JUMP JUMPDEST POP PUSH1 0x80 DUP4 ADD MLOAD PUSH2 0x6FE4 PUSH1 0x80 DUP7 ADD DUP3 PUSH2 0x6D5F JUMP JUMPDEST POP PUSH1 0xA0 DUP4 ADD MLOAD PUSH2 0x6FF7 PUSH1 0xA0 DUP7 ADD DUP3 PUSH2 0x6E65 JUMP JUMPDEST POP PUSH1 0xC0 DUP4 ADD MLOAD DUP5 DUP3 SUB PUSH1 0xC0 DUP7 ADD MSTORE PUSH2 0x700F DUP3 DUP3 PUSH2 0x6F09 JUMP JUMPDEST SWAP2 POP POP DUP1 SWAP2 POP POP SWAP3 SWAP2 POP POP JUMP JUMPDEST PUSH0 PUSH1 0x20 DUP3 ADD SWAP1 POP DUP2 DUP2 SUB PUSH0 DUP4 ADD MSTORE PUSH2 0x7034 DUP2 DUP5 PUSH2 0x6F7C JUMP JUMPDEST SWAP1 POP SWAP3 SWAP2 POP POP JUMP JUMPDEST PUSH0 DUP2 SWAP1 POP SWAP2 SWAP1 POP JUMP JUMPDEST PUSH2 0x704E DUP2 PUSH2 0x703C JUMP JUMPDEST DUP3 MSTORE POP POP JUMP JUMPDEST PUSH0 PUSH1 0x20 DUP3 ADD SWAP1 POP PUSH2 0x7067 PUSH0 DUP4 ADD DUP5 PUSH2 0x7045 JUMP JUMPDEST SWAP3 SWAP2 POP POP JUMP JUMPDEST PUSH0 DUP1 REVERT JUMPDEST PUSH0 DUP1 DUP4 PUSH1 0x1F DUP5 ADD SLT PUSH2 0x7086 JUMPI PUSH2 0x7085 PUSH2 0x660E JUMP JUMPDEST JUMPDEST DUP3 CALLDATALOAD SWAP1 POP PUSH8 0xFFFFFFFFFFFFFFFF DUP2 GT ISZERO PUSH2 0x70A3 JUMPI PUSH2 0x70A2 PUSH2 0x706D JUMP JUMPDEST JUMPDEST PUSH1 0x20 DUP4 ADD SWAP2 POP DUP4 PUSH1 0x1 DUP3 MUL DUP4 ADD GT ISZERO PUSH2 0x70BF JUMPI PUSH2 0x70BE PUSH2 0x6A01 JUMP JUMPDEST JUMPDEST SWAP3 POP SWAP3 SWAP1 POP JUMP JUMPDEST PUSH0 DUP1 DUP4 PUSH1 0x1F DUP5 ADD SLT PUSH2 0x70DB JUMPI PUSH2 0x70DA PUSH2 0x660E JUMP JUMPDEST JUMPDEST DUP3 CALLDATALOAD SWAP1 POP PUSH8 0xFFFFFFFFFFFFFFFF DUP2 GT ISZERO PUSH2 0x70F8 JUMPI PUSH2 0x70F7 PUSH2 0x706D JUMP JUMPDEST JUMPDEST PUSH1 0x20 DUP4 ADD SWAP2 POP DUP4 PUSH1 0x20 DUP3 MUL DUP4 ADD GT ISZERO PUSH2 0x7114 JUMPI PUSH2 0x7113 PUSH2 0x6A01 JUMP JUMPDEST JUMPDEST SWAP3 POP SWAP3 SWAP1 POP JUMP JUMPDEST PUSH0 DUP1 PUSH0 DUP1 PUSH1 0x40 DUP6 DUP8 SUB SLT ISZERO PUSH2 0x7133 JUMPI PUSH2 0x7132 PUSH2 0x653B JUMP JUMPDEST JUMPDEST PUSH0 DUP6 ADD CALLDATALOAD PUSH8 0xFFFFFFFFFFFFFFFF DUP2 GT ISZERO PUSH2 0x7150 JUMPI PUSH2 0x714F PUSH2 0x653F JUMP JUMPDEST JUMPDEST PUSH2 0x715C DUP8 DUP3 DUP9 ADD PUSH2 0x7071 JUMP JUMPDEST SWAP5 POP SWAP5 POP POP PUSH1 0x20 DUP6 ADD CALLDATALOAD PUSH8 0xFFFFFFFFFFFFFFFF DUP2 GT ISZERO PUSH2 0x717F JUMPI PUSH2 0x717E PUSH2 0x653F JUMP JUMPDEST JUMPDEST PUSH2 0x718B DUP8 DUP3 DUP9 ADD PUSH2 0x70C6 JUMP JUMPDEST SWAP3 POP SWAP3 POP POP SWAP3 SWAP6 SWAP2 SWAP5 POP SWAP3 POP JUMP JUMPDEST PUSH0 DUP1 REVERT JUMPDEST PUSH0 DUP1 REVERT JUMPDEST PUSH0 PUSH2 0x100 DUP3 DUP5 SUB SLT ISZERO PUSH2 0x71B7 JUMPI PUSH2 0x71B6 PUSH2 0x7199 JUMP JUMPDEST JUMPDEST PUSH2 0x71C2 PUSH2 0x100 PUSH2 0x6684 JUMP JUMPDEST SWAP1 POP PUSH0 DUP3 ADD CALLDATALOAD PUSH8 0xFFFFFFFFFFFFFFFF DUP2 GT ISZERO PUSH2 0x71E1 JUMPI PUSH2 0x71E0 PUSH2 0x719D JUMP JUMPDEST JUMPDEST PUSH2 0x71ED DUP5 DUP3 DUP6 ADD PUSH2 0x671D JUMP JUMPDEST PUSH0 DUP4 ADD MSTORE POP PUSH1 0x20 DUP3 ADD CALLDATALOAD PUSH8 0xFFFFFFFFFFFFFFFF DUP2 GT ISZERO PUSH2 0x7210 JUMPI PUSH2 0x720F PUSH2 0x719D JUMP JUMPDEST JUMPDEST PUSH2 0x721C DUP5 DUP3 DUP6 ADD PUSH2 0x671D JUMP JUMPDEST PUSH1 0x20 DUP4 ADD MSTORE POP PUSH1 0x40 DUP3 ADD CALLDATALOAD PUSH8 0xFFFFFFFFFFFFFFFF DUP2 GT ISZERO PUSH2 0x7240 JUMPI PUSH2 0x723F PUSH2 0x719D JUMP JUMPDEST JUMPDEST PUSH2 0x724C DUP5 DUP3 DUP6 ADD PUSH2 0x671D JUMP JUMPDEST PUSH1 0x40 DUP4 ADD MSTORE POP PUSH1 0x60 DUP3 ADD CALLDATALOAD PUSH8 0xFFFFFFFFFFFFFFFF DUP2 GT ISZERO PUSH2 0x7270 JUMPI PUSH2 0x726F PUSH2 0x719D JUMP JUMPDEST JUMPDEST PUSH2 0x727C DUP5 DUP3 DUP6 ADD PUSH2 0x671D JUMP JUMPDEST PUSH1 0x60 DUP4 ADD MSTORE POP PUSH1 0x80 PUSH2 0x7290 DUP5 DUP3 DUP6 ADD PUSH2 0x6840 JUMP JUMPDEST PUSH1 0x80 DUP4 ADD MSTORE POP PUSH1 0xA0 DUP3 ADD CALLDATALOAD PUSH8 0xFFFFFFFFFFFFFFFF DUP2 GT ISZERO PUSH2 0x72B4 JUMPI PUSH2 0x72B3 PUSH2 0x719D JUMP JUMPDEST JUMPDEST PUSH2 0x72C0 DUP5 DUP3 DUP6 ADD PUSH2 0x671D JUMP JUMPDEST PUSH1 0xA0 DUP4 ADD MSTORE POP PUSH1 0xC0 PUSH2 0x72D4 DUP5 DUP3 DUP6 ADD PUSH2 0x69AF JUMP JUMPDEST PUSH1 0xC0 DUP4 ADD MSTORE POP PUSH1 0xE0 PUSH2 0x72E8 DUP5 DUP3 DUP6 ADD PUSH2 0x69AF JUMP JUMPDEST PUSH1 0xE0 DUP4 ADD MSTORE POP SWAP3 SWAP2 POP POP JUMP JUMPDEST PUSH0 PUSH1 0x20 DUP3 DUP5 SUB SLT ISZERO PUSH2 0x7309 JUMPI PUSH2 0x7308 PUSH2 0x653B JUMP JUMPDEST JUMPDEST PUSH0 DUP3 ADD CALLDATALOAD PUSH8 0xFFFFFFFFFFFFFFFF DUP2 GT ISZERO PUSH2 0x7326 JUMPI PUSH2 0x7325 PUSH2 0x653F JUMP JUMPDEST JUMPDEST PUSH2 0x7332 DUP5 DUP3 DUP6 ADD PUSH2 0x71A1 JUMP JUMPDEST SWAP2 POP POP SWAP3 SWAP2 POP POP JUMP JUMPDEST PUSH0 PUSH1 0x40 DUP3 ADD SWAP1 POP PUSH2 0x734E PUSH0 DUP4 ADD DUP6 PUSH2 0x7045 JUMP JUMPDEST PUSH2 0x735B PUSH1 0x20 DUP4 ADD DUP5 PUSH2 0x6946 JUMP JUMPDEST SWAP4 SWAP3 POP POP POP JUMP JUMPDEST PUSH2 0x736B DUP2 PUSH2 0x67EE JUMP JUMPDEST DUP3 MSTORE POP POP JUMP JUMPDEST PUSH0 PUSH1 0xE0 DUP4 ADD PUSH0 DUP4 ADD MLOAD DUP5 DUP3 SUB PUSH0 DUP7 ADD MSTORE PUSH2 0x738B DUP3 DUP3 PUSH2 0x6D18 JUMP JUMPDEST SWAP2 POP POP PUSH1 0x20 DUP4 ADD MLOAD DUP5 DUP3 SUB PUSH1 0x20 DUP7 ADD MSTORE PUSH2 0x73A5 DUP3 DUP3 PUSH2 0x6D18 JUMP JUMPDEST SWAP2 POP POP PUSH1 0x40 DUP4 ADD MLOAD DUP5 DUP3 SUB PUSH1 0x40 DUP7 ADD MSTORE PUSH2 0x73BF DUP3 DUP3 PUSH2 0x6D18 JUMP JUMPDEST SWAP2 POP POP PUSH1 0x60 DUP4 ADD MLOAD PUSH2 0x73D4 PUSH1 0x60 DUP7 ADD DUP3 PUSH2 0x6D5F JUMP JUMPDEST POP PUSH1 0x80 DUP4 ADD MLOAD PUSH2 0x73E7 PUSH1 0x80 DUP7 ADD DUP3 PUSH2 0x6D5F JUMP JUMPDEST POP PUSH1 0xA0 DUP4 ADD MLOAD PUSH2 0x73FA PUSH1 0xA0 DUP7 ADD DUP3 PUSH2 0x7362 JUMP JUMPDEST POP PUSH1 0xC0 DUP4 ADD MLOAD PUSH2 0x740D PUSH1 0xC0 DUP7 ADD DUP3 PUSH2 0x6D5F JUMP JUMPDEST POP DUP1 SWAP2 POP POP SWAP3 SWAP2 POP POP JUMP JUMPDEST PUSH0 PUSH1 0x20 DUP3 ADD SWAP1 POP DUP2 DUP2 SUB PUSH0 DUP4 ADD MSTORE PUSH2 0x7430 DUP2 DUP5 PUSH2 0x7371 JUMP JUMPDEST SWAP1 POP SWAP3 SWAP2 POP POP JUMP JUMPDEST PUSH0 PUSH1 0x20 DUP3 ADD SWAP1 POP PUSH2 0x744B PUSH0 DUP4 ADD DUP5 PUSH2 0x6AB2 JUMP JUMPDEST SWAP3 SWAP2 POP POP JUMP JUMPDEST PUSH0 PUSH1 0x40 DUP3 ADD SWAP1 POP PUSH2 0x7464 PUSH0 DUP4 ADD DUP6 PUSH2 0x6AB2 JUMP JUMPDEST PUSH2 0x7471 PUSH1 0x20 DUP4 ADD DUP5 PUSH2 0x6946 JUMP JUMPDEST SWAP4 SWAP3 POP POP POP JUMP JUMPDEST PUSH32 0x4E487B7100000000000000000000000000000000000000000000000000000000 PUSH0 MSTORE PUSH1 0x21 PUSH1 0x4 MSTORE PUSH1 0x24 PUSH0 REVERT JUMPDEST PUSH1 0x5 DUP2 LT PUSH2 0x74B6 JUMPI PUSH2 0x74B5 PUSH2 0x7478 JUMP JUMPDEST JUMPDEST POP JUMP JUMPDEST PUSH0 DUP2 SWAP1 POP PUSH2 0x74C6 DUP3 PUSH2 0x74A5 JUMP JUMPDEST SWAP2 SWAP1 POP JUMP JUMPDEST PUSH0 PUSH2 0x74D5 DUP3 PUSH2 0x74B9 JUMP JUMPDEST SWAP1 POP SWAP2 SWAP1 POP JUMP JUMPDEST PUSH2 0x74E5 DUP2 PUSH2 0x74CB JUMP JUMPDEST DUP3 MSTORE POP POP JUMP JUMPDEST PUSH0 PUSH1 0x20 DUP3 ADD SWAP1 POP PUSH2 0x74FE PUSH0 DUP4 ADD DUP5 PUSH2 0x74DC JUMP JUMPDEST SWAP3 SWAP2 POP POP JUMP JUMPDEST PUSH0 DUP1 DUP4 PUSH1 0x1F DUP5 ADD SLT PUSH2 0x7519 JUMPI PUSH2 0x7518 PUSH2 0x660E JUMP JUMPDEST JUMPDEST DUP3 CALLDATALOAD SWAP1 POP PUSH8 0xFFFFFFFFFFFFFFFF DUP2 GT ISZERO PUSH2 0x7536 JUMPI PUSH2 0x7535 PUSH2 0x706D JUMP JUMPDEST JUMPDEST PUSH1 0x20 DUP4 ADD SWAP2 POP DUP4 PUSH1 0x20 DUP3 MUL DUP4 ADD GT ISZERO PUSH2 0x7552 JUMPI PUSH2 0x7551 PUSH2 0x6A01 JUMP JUMPDEST JUMPDEST SWAP3 POP SWAP3 SWAP1 POP JUMP JUMPDEST PUSH0 DUP1 PUSH1 0x20 DUP4 DUP6 SUB SLT ISZERO PUSH2 0x756F JUMPI PUSH2 0x756E PUSH2 0x653B JUMP JUMPDEST JUMPDEST PUSH0 DUP4 ADD CALLDATALOAD PUSH8 0xFFFFFFFFFFFFFFFF DUP2 GT ISZERO PUSH2 0x758C JUMPI PUSH2 0x758B PUSH2 0x653F JUMP JUMPDEST JUMPDEST PUSH2 0x7598 DUP6 DUP3 DUP7 ADD PUSH2 0x7504 JUMP JUMPDEST SWAP3 POP SWAP3 POP POP SWAP3 POP SWAP3 SWAP1 POP JUMP JUMPDEST PUSH0 DUP1 PUSH1 0x40 DUP4 DUP6 SUB SLT ISZERO PUSH2 0x75BA JUMPI PUSH2 0x75B9 PUSH2 0x653B JUMP JUMPDEST JUMPDEST PUSH0 PUSH2 0x75C7 DUP6 DUP3 DUP7 ADD PUSH2 0x69AF JUMP JUMPDEST SWAP3 POP POP PUSH1 0x20 PUSH2 0x75D8 DUP6 DUP3 DUP7 ADD PUSH2 0x6589 JUMP JUMPDEST SWAP2 POP POP SWAP3 POP SWAP3 SWAP1 POP JUMP JUMPDEST PUSH0 PUSH1 0xE0 DUP3 ADD SWAP1 POP DUP2 DUP2 SUB PUSH0 DUP4 ADD MSTORE PUSH2 0x75FA DUP2 DUP11 PUSH2 0x6AE9 JUMP JUMPDEST SWAP1 POP DUP2 DUP2 SUB PUSH1 0x20 DUP4 ADD MSTORE PUSH2 0x760E DUP2 DUP10 PUSH2 0x6AE9 JUMP JUMPDEST SWAP1 POP DUP2 DUP2 SUB PUSH1 0x40 DUP4 ADD MSTORE PUSH2 0x7622 DUP2 DUP9 PUSH2 0x6AE9 JUMP JUMPDEST SWAP1 POP PUSH2 0x7631 PUSH1 0x60 DUP4 ADD DUP8 PUSH2 0x6946 JUMP JUMPDEST PUSH2 0x763E PUSH1 0x80 DUP4 ADD DUP7 PUSH2 0x6946 JUMP JUMPDEST PUSH2 0x764B PUSH1 0xA0 DUP4 ADD DUP6 PUSH2 0x67F9 JUMP JUMPDEST PUSH2 0x7658 PUSH1 0xC0 DUP4 ADD DUP5 PUSH2 0x6946 JUMP JUMPDEST SWAP9 SWAP8 POP POP POP POP POP POP POP POP JUMP JUMPDEST PUSH0 PUSH1 0x32 SWAP1 POP SWAP2 SWAP1 POP JUMP JUMPDEST PUSH0 DUP2 SWAP1 POP SWAP3 SWAP2 POP POP JUMP JUMPDEST PUSH0 DUP2 SWAP1 POP SWAP2 SWAP1 POP JUMP JUMPDEST PUSH0 PUSH1 0x20 DUP3 ADD SWAP1 POP SWAP2 SWAP1 POP JUMP JUMPDEST PUSH2 0x7696 DUP2 PUSH2 0x7664 JUMP JUMPDEST PUSH2 0x76A0 DUP2 DUP5 PUSH2 0x766E JUMP JUMPDEST SWAP3 POP PUSH2 0x76AB DUP3 PUSH2 0x7678 JUMP JUMPDEST DUP1 PUSH0 JUMPDEST DUP4 DUP2 LT ISZERO PUSH2 0x76DB JUMPI DUP2 MLOAD PUSH2 0x76C2 DUP8 DUP3 PUSH2 0x68AB JUMP JUMPDEST SWAP7 POP PUSH2 0x76CD DUP4 PUSH2 0x7681 JUMP JUMPDEST SWAP3 POP POP PUSH1 0x1 DUP2 ADD SWAP1 POP PUSH2 0x76AE JUMP JUMPDEST POP POP POP POP POP POP JUMP JUMPDEST PUSH0 PUSH2 0x640 DUP3 ADD SWAP1 POP PUSH2 0x76F7 PUSH0 DUP4 ADD DUP5 PUSH2 0x768D JUMP JUMPDEST SWAP3 SWAP2 POP POP JUMP JUMPDEST PUSH0 PUSH1 0x40 DUP3 ADD SWAP1 POP PUSH2 0x7710 PUSH0 DUP4 ADD DUP6 PUSH2 0x6946 JUMP JUMPDEST PUSH2 0x771D PUSH1 0x20 DUP4 ADD DUP5 PUSH2 0x6946 JUMP JUMPDEST SWAP4 SWAP3 POP POP POP JUMP JUMPDEST PUSH0 PUSH1 0x20 DUP3 ADD SWAP1 POP DUP2 DUP2 SUB PUSH0 DUP4 ADD MSTORE PUSH2 0x773C DUP2 DUP5 PUSH2 0x6D6E JUMP JUMPDEST SWAP1 POP SWAP3 SWAP2 POP POP JUMP JUMPDEST PUSH32 0x496E76616C6964206E616D650000000000000000000000000000000000000000 PUSH0 DUP3 ADD MSTORE POP JUMP JUMPDEST PUSH0 PUSH2 0x7778 PUSH1 0xC DUP4 PUSH2 0x6ACB JUMP JUMPDEST SWAP2 POP PUSH2 0x7783 DUP3 PUSH2 0x7744 JUMP JUMPDEST PUSH1 0x20 DUP3 ADD SWAP1 POP SWAP2 SWAP1 POP JUMP JUMPDEST PUSH0 PUSH1 0x20 DUP3 ADD SWAP1 POP DUP2 DUP2 SUB PUSH0 DUP4 ADD MSTORE PUSH2 0x77A5 DUP2 PUSH2 0x776C JUMP JUMPDEST SWAP1 POP SWAP2 SWAP1 POP JUMP JUMPDEST PUSH32 0x496E76616C69642062696F000000000000000000000000000000000000000000 PUSH0 DUP3 ADD MSTORE POP JUMP JUMPDEST PUSH0 PUSH2 0x77E0 PUSH1 0xB DUP4 PUSH2 0x6ACB JUMP JUMPDEST SWAP2 POP PUSH2 0x77EB DUP3 PUSH2 0x77AC JUMP JUMPDEST PUSH1 0x20 DUP3 ADD SWAP1 POP SWAP2 SWAP1 POP JUMP JUMPDEST PUSH0 PUSH1 0x20 DUP3 ADD SWAP1 POP DUP2 DUP2 SUB PUSH0 DUP4 ADD MSTORE PUSH2 0x780D DUP2 PUSH2 0x77D4 JUMP JUMPDEST SWAP1 POP SWAP2 SWAP1 POP JUMP JUMPDEST PUSH32 0x496E76616C696420776562736974650000000000000000000000000000000000 PUSH0 DUP3 ADD MSTORE POP JUMP JUMPDEST PUSH0 PUSH2 0x7848 PUSH1 0xF DUP4 PUSH2 0x6ACB JUMP JUMPDEST SWAP2 POP PUSH2 0x7853 DUP3 PUSH2 0x7814 JUMP JUMPDEST PUSH1 0x20 DUP3 ADD SWAP1 POP SWAP2 SWAP1 POP JUMP JUMPDEST PUSH0 PUSH1 0x20 DUP3 ADD SWAP1 POP DUP2 DUP2 SUB PUSH0 DUP4 ADD MSTORE PUSH2 0x7875 DUP2 PUSH2 0x783C JUMP JUMPDEST SWAP1 POP SWAP2 SWAP1 POP JUMP JUMPDEST PUSH32 0x496E76616C69642073656E646572000000000000000000000000000000000000 PUSH0 DUP3 ADD MSTORE POP JUMP JUMPDEST PUSH0 PUSH2 0x78B0 PUSH1 0xE DUP4 PUSH2 0x6ACB JUMP JUMPDEST SWAP2 POP PUSH2 0x78BB DUP3 PUSH2 0x787C JUMP JUMPDEST PUSH1 0x20 DUP3 ADD SWAP1 POP SWAP2 SWAP1 POP JUMP JUMPDEST PUSH0 PUSH1 0x20 DUP3 ADD SWAP1 POP DUP2 DUP2 SUB PUSH0 DUP4 ADD MSTORE PUSH2 0x78DD DUP2 PUSH2 0x78A4 JUMP JUMPDEST SWAP1 POP SWAP2 SWAP1 POP JUMP JUMPDEST PUSH32 0x496E73756666696369656E7420726567697374726174696F6E20666565000000 PUSH0 DUP3 ADD MSTORE POP JUMP JUMPDEST PUSH0 PUSH2 0x7918 PUSH1 0x1D DUP4 PUSH2 0x6ACB JUMP JUMPDEST SWAP2 POP PUSH2 0x7923 DUP3 PUSH2 0x78E4 JUMP JUMPDEST PUSH1 0x20 DUP3 ADD SWAP1 POP SWAP2 SWAP1 POP JUMP JUMPDEST PUSH0 PUSH1 0x20 DUP3 ADD SWAP1 POP DUP2 DUP2 SUB PUSH0 DUP4 ADD MSTORE PUSH2 0x7945 DUP2 PUSH2 0x790C JUMP JUMPDEST SWAP1 POP SWAP2 SWAP1 POP JUMP JUMPDEST PUSH32 0x43616E64696461746520726567697374726174696F6E20706572696F64206861 PUSH0 DUP3 ADD MSTORE PUSH32 0x7320656E6465642E000000000000000000000000000000000000000000000000 PUSH1 0x20 DUP3 ADD MSTORE POP JUMP JUMPDEST PUSH0 PUSH2 0x79A6 PUSH1 0x28 DUP4 PUSH2 0x6ACB JUMP JUMPDEST SWAP2 POP PUSH2 0x79B1 DUP3 PUSH2 0x794C JUMP JUMPDEST PUSH1 0x40 DUP3 ADD SWAP1 POP SWAP2 SWAP1 POP JUMP JUMPDEST PUSH0 PUSH1 0x20 DUP3 ADD SWAP1 POP DUP2 DUP2 SUB PUSH0 DUP4 ADD MSTORE PUSH2 0x79D3 DUP2 PUSH2 0x799A JUMP JUMPDEST SWAP1 POP SWAP2 SWAP1 POP JUMP JUMPDEST PUSH32 0x416C726561647920726567697374657265640000000000000000000000000000 PUSH0 DUP3 ADD MSTORE POP JUMP JUMPDEST PUSH0 PUSH2 0x7A0E PUSH1 0x12 DUP4 PUSH2 0x6ACB JUMP JUMPDEST SWAP2 POP PUSH2 0x7A19 DUP3 PUSH2 0x79DA JUMP JUMPDEST PUSH1 0x20 DUP3 ADD SWAP1 POP SWAP2 SWAP1 POP JUMP JUMPDEST PUSH0 PUSH1 0x20 DUP3 ADD SWAP1 POP DUP2 DUP2 SUB PUSH0 DUP4 ADD MSTORE PUSH2 0x7A3B DUP2 PUSH2 0x7A02 JUMP JUMPDEST SWAP1 POP SWAP2 SWAP1 POP JUMP JUMPDEST PUSH32 0x4E487B7100000000000000000000000000000000000000000000000000000000 PUSH0 MSTORE PUSH1 0x22 PUSH1 0x4 MSTORE PUSH1 0x24 PUSH0 REVERT JUMPDEST PUSH0 PUSH1 0x2 DUP3 DIV SWAP1 POP PUSH1 0x1 DUP3 AND DUP1 PUSH2 0x7A86 JUMPI PUSH1 0x7F DUP3 AND SWAP2 POP JUMPDEST PUSH1 0x20 DUP3 LT DUP2 SUB PUSH2 0x7A99 JUMPI PUSH2 0x7A98 PUSH2 0x7A42 JUMP JUMPDEST JUMPDEST POP SWAP2 SWAP1 POP JUMP JUMPDEST PUSH0 DUP2 SWAP1 POP DUP2 PUSH0 MSTORE PUSH1 0x20 PUSH0 KECCAK256 SWAP1 POP SWAP2 SWAP1 POP JUMP JUMPDEST PUSH0 PUSH1 0x20 PUSH1 0x1F DUP4 ADD DIV SWAP1 POP SWAP2 SWAP1 POP JUMP JUMPDEST PUSH0 DUP3 DUP3 SHL SWAP1 POP SWAP3 SWAP2 POP POP JUMP JUMPDEST PUSH0 PUSH1 0x8 DUP4 MUL PUSH2 0x7AFB PUSH32 0xFFFFFFFFFFFFFFFFFFFFFFFFFFFFFFFFFFFFFFFFFFFFFFFFFFFFFFFFFFFFFFFF DUP3 PUSH2 0x7AC0 JUMP JUMPDEST PUSH2 0x7B05 DUP7 DUP4 PUSH2 0x7AC0 JUMP JUMPDEST SWAP6 POP DUP1 NOT DUP5 AND SWAP4 POP DUP1 DUP7 AND DUP5 OR SWAP3 POP POP POP SWAP4 SWAP3 POP POP POP JUMP JUMPDEST PUSH0 DUP2 SWAP1 POP SWAP2 SWAP1 POP JUMP JUMPDEST PUSH0 PUSH2 0x7B40 PUSH2 0x7B3B PUSH2 0x7B36 DUP5 PUSH2 0x693D JUMP JUMPDEST PUSH2 0x7B1D JUMP JUMPDEST PUSH2 0x693D JUMP JUMPDEST SWAP1 POP SWAP2 SWAP1 POP JUMP JUMPDEST PUSH0 DUP2 SWAP1 POP SWAP2 SWAP1 POP JUMP JUMPDEST PUSH2 0x7B59 DUP4 PUSH2 0x7B26 JUMP JUMPDEST PUSH2 0x7B6D PUSH2 0x7B65 DUP3 PUSH2 0x7B47 JUMP JUMPDEST DUP5 DUP5 SLOAD PUSH2 0x7ACC JUMP JUMPDEST DUP3 SSTORE POP POP POP POP JUMP JUMPDEST PUSH0 SWAP1 JUMP JUMPDEST PUSH2 0x7B81 PUSH2 0x7B75 JUMP JUMPDEST PUSH2 0x7B8C DUP2 DUP5 DUP5 PUSH2 0x7B50 JUMP JUMPDEST POP POP POP JUMP JUMPDEST JUMPDEST DUP2 DUP2 LT ISZERO PUSH2 0x7BAF JUMPI PUSH2 0x7BA4 PUSH0 DUP3 PUSH2 0x7B79 JUMP JUMPDEST PUSH1 0x1 DUP2 ADD SWAP1 POP PUSH2 0x7B92 JUMP JUMPDEST POP POP JUMP JUMPDEST PUSH1 0x1F DUP3 GT ISZERO PUSH2 0x7BF4 JUMPI PUSH2 0x7BC5 DUP2 PUSH2 0x7A9F JUMP JUMPDEST PUSH2 0x7BCE DUP5 PUSH2 0x7AB1 JUMP JUMPDEST DUP2 ADD PUSH1 0x20 DUP6 LT ISZERO PUSH2 0x7BDD JUMPI DUP2 SWAP1 POP JUMPDEST PUSH2 0x7BF1 PUSH2 0x7BE9 DUP6 PUSH2 0x7AB1 JUMP JUMPDEST DUP4 ADD DUP3 PUSH2 0x7B91 JUMP JUMPDEST POP POP JUMPDEST POP POP POP JUMP JUMPDEST PUSH0 DUP3 DUP3 SHR SWAP1 POP SWAP3 SWAP2 POP POP JUMP JUMPDEST PUSH0 PUSH2 0x7C14 PUSH0 NOT DUP5 PUSH1 0x8 MUL PUSH2 0x7BF9 JUMP JUMPDEST NOT DUP1 DUP4 AND SWAP2 POP POP SWAP3 SWAP2 POP POP JUMP JUMPDEST PUSH0 PUSH2 0x7C2C DUP4 DUP4 PUSH2 0x7C05 JUMP JUMPDEST SWAP2 POP DUP3 PUSH1 0x2 MUL DUP3 OR SWAP1 POP SWAP3 SWAP2 POP POP JUMP JUMPDEST PUSH2 0x7C45 DUP3 PUSH2 0x6AC1 JUMP JUMPDEST PUSH8 0xFFFFFFFFFFFFFFFF DUP2 GT ISZERO PUSH2 0x7C5E JUMPI PUSH2 0x7C5D PUSH2 0x6626 JUMP JUMPDEST JUMPDEST PUSH2 0x7C68 DUP3 SLOAD PUSH2 0x7A6F JUMP JUMPDEST PUSH2 0x7C73 DUP3 DUP3 DUP6 PUSH2 0x7BB3 JUMP JUMPDEST PUSH0 PUSH1 0x20 SWAP1 POP PUSH1 0x1F DUP4 GT PUSH1 0x1 DUP2 EQ PUSH2 0x7CA4 JUMPI PUSH0 DUP5 ISZERO PUSH2 0x7C92 JUMPI DUP3 DUP8 ADD MLOAD SWAP1 POP JUMPDEST PUSH2 0x7C9C DUP6 DUP3 PUSH2 0x7C21 JUMP JUMPDEST DUP7 SSTORE POP PUSH2 0x7D03 JUMP JUMPDEST PUSH1 0x1F NOT DUP5 AND PUSH2 0x7CB2 DUP7 PUSH2 0x7A9F JUMP JUMPDEST PUSH0 JUMPDEST DUP3 DUP2 LT ISZERO PUSH2 0x7CD9 JUMPI DUP5 DUP10 ADD MLOAD DUP3 SSTORE PUSH1 0x1 DUP3 ADD SWAP2 POP PUSH1 0x20 DUP6 ADD SWAP5 POP PUSH1 0x20 DUP2 ADD SWAP1 POP PUSH2 0x7CB4 JUMP JUMPDEST DUP7 DUP4 LT ISZERO PUSH2 0x7CF6 JUMPI DUP5 DUP10 ADD MLOAD PUSH2 0x7CF2 PUSH1 0x1F DUP10 AND DUP3 PUSH2 0x7C05 JUMP JUMPDEST DUP4 SSTORE POP JUMPDEST PUSH1 0x1 PUSH1 0x2 DUP9 MUL ADD DUP9 SSTORE POP POP POP JUMPDEST POP POP POP POP POP POP JUMP JUMPDEST PUSH0 PUSH1 0x60 DUP3 ADD SWAP1 POP DUP2 DUP2 SUB PUSH0 DUP4 ADD MSTORE PUSH2 0x7D23 DUP2 DUP7 PUSH2 0x6AE9 JUMP JUMPDEST SWAP1 POP DUP2 DUP2 SUB PUSH1 0x20 DUP4 ADD MSTORE PUSH2 0x7D37 DUP2 DUP6 PUSH2 0x6AE9 JUMP JUMPDEST SWAP1 POP DUP2 DUP2 SUB PUSH1 0x40 DUP4 ADD MSTORE PUSH2 0x7D4B DUP2 DUP5 PUSH2 0x6AE9 JUMP JUMPDEST SWAP1 POP SWAP5 SWAP4 POP POP POP POP JUMP JUMPDEST PUSH32 0x4E6F7420617574686F72697A65642072616E646F6D697A657200000000000000 PUSH0 DUP3 ADD MSTORE POP JUMP JUMPDEST PUSH0 PUSH2 0x7D89 PUSH1 0x19 DUP4 PUSH2 0x6ACB JUMP JUMPDEST SWAP2 POP PUSH2 0x7D94 DUP3 PUSH2 0x7D55 JUMP JUMPDEST PUSH1 0x20 DUP3 ADD SWAP1 POP SWAP2 SWAP1 POP JUMP JUMPDEST PUSH0 PUSH1 0x20 DUP3 ADD SWAP1 POP DUP2 DUP2 SUB PUSH0 DUP4 ADD MSTORE PUSH2 0x7DB6 DUP2 PUSH2 0x7D7D JUMP JUMPDEST SWAP1 POP SWAP2 SWAP1 POP JUMP JUMPDEST PUSH32 0x566F74657220616464696E6720706572696F642068617320656E6465642E0000 PUSH0 DUP3 ADD MSTORE POP JUMP JUMPDEST PUSH0 PUSH2 0x7DF1 PUSH1 0x1E DUP4 PUSH2 0x6ACB JUMP JUMPDEST SWAP2 POP PUSH2 0x7DFC DUP3 PUSH2 0x7DBD JUMP JUMPDEST PUSH1 0x20 DUP3 ADD SWAP1 POP SWAP2 SWAP1 POP JUMP JUMPDEST PUSH0 PUSH1 0x20 DUP3 ADD SWAP1 POP DUP2 DUP2 SUB PUSH0 DUP4 ADD MSTORE PUSH2 0x7E1E DUP2 PUSH2 0x7DE5 JUMP JUMPDEST SWAP1 POP SWAP2 SWAP1 POP JUMP JUMPDEST PUSH32 0x4E487B7100000000000000000000000000000000000000000000000000000000 PUSH0 MSTORE PUSH1 0x11 PUSH1 0x4 MSTORE PUSH1 0x24 PUSH0 REVERT JUMPDEST PUSH0 PUSH2 0x7E5C DUP3 PUSH2 0x6C23 JUMP JUMPDEST SWAP2 POP PUSH2 0x7E67 DUP4 PUSH2 0x6C23 JUMP JUMPDEST SWAP3 POP DUP3 DUP3 MUL PUSH2 0x7E75 DUP2 PUSH2 0x6C23 JUMP JUMPDEST SWAP2 POP DUP1 DUP3 EQ PUSH2 0x7E87 JUMPI PUSH2 0x7E86 PUSH2 0x7E25 JUMP JUMPDEST JUMPDEST POP SWAP3 SWAP2 POP POP JUMP JUMPDEST PUSH32 0x4D6178696D756D206E756D626572206F6620766F746572732072656163686564 PUSH0 DUP3 ADD MSTORE PUSH32 0x2E00000000000000000000000000000000000000000000000000000000000000 PUSH1 0x20 DUP3 ADD MSTORE POP JUMP JUMPDEST PUSH0 PUSH2 0x7EE8 PUSH1 0x21 DUP4 PUSH2 0x6ACB JUMP JUMPDEST SWAP2 POP PUSH2 0x7EF3 DUP3 PUSH2 0x7E8E JUMP JUMPDEST PUSH1 0x40 DUP3 ADD SWAP1 POP SWAP2 SWAP1 POP JUMP JUMPDEST PUSH0 PUSH1 0x20 DUP3 ADD SWAP1 POP DUP2 DUP2 SUB PUSH0 DUP4 ADD MSTORE PUSH2 0x7F15 DUP2 PUSH2 0x7EDC JUMP JUMPDEST SWAP1 POP SWAP2 SWAP1 POP JUMP JUMPDEST PUSH32 0x496E636F72726563742062617463682073697A65000000000000000000000000 PUSH0 DUP3 ADD MSTORE POP JUMP JUMPDEST PUSH0 PUSH2 0x7F50 PUSH1 0x14 DUP4 PUSH2 0x6ACB JUMP JUMPDEST SWAP2 POP PUSH2 0x7F5B DUP3 PUSH2 0x7F1C JUMP JUMPDEST PUSH1 0x20 DUP3 ADD SWAP1 POP SWAP2 SWAP1 POP JUMP JUMPDEST PUSH0 PUSH1 0x20 DUP3 ADD SWAP1 POP DUP2 DUP2 SUB PUSH0 DUP4 ADD MSTORE PUSH2 0x7F7D DUP2 PUSH2 0x7F44 JUMP JUMPDEST SWAP1 POP SWAP2 SWAP1 POP JUMP JUMPDEST PUSH32 0x4E487B7100000000000000000000000000000000000000000000000000000000 PUSH0 MSTORE PUSH1 0x32 PUSH1 0x4 MSTORE PUSH1 0x24 PUSH0 REVERT JUMPDEST PUSH32 0x566F746572206861736820616C72656164792072656769737465726564000000 PUSH0 DUP3 ADD MSTORE POP JUMP JUMPDEST PUSH0 PUSH2 0x7FE5 PUSH1 0x1D DUP4 PUSH2 0x6ACB JUMP JUMPDEST SWAP2 POP PUSH2 0x7FF0 DUP3 PUSH2 0x7FB1 JUMP JUMPDEST PUSH1 0x20 DUP3 ADD SWAP1 POP SWAP2 SWAP1 POP JUMP JUMPDEST PUSH0 PUSH1 0x20 DUP3 ADD SWAP1 POP DUP2 DUP2 SUB PUSH0 DUP4 ADD MSTORE PUSH2 0x8012 DUP2 PUSH2 0x7FD9 JUMP JUMPDEST SWAP1 POP SWAP2 SWAP1 POP JUMP JUMPDEST PUSH0 PUSH2 0x8023 DUP3 PUSH2 0x6B21 JUMP JUMPDEST SWAP2 POP PUSH1 0xFF DUP3 SUB PUSH2 0x8036 JUMPI PUSH2 0x8035 PUSH2 0x7E25 JUMP JUMPDEST JUMPDEST PUSH1 0x1 DUP3 ADD SWAP1 POP SWAP2 SWAP1 POP JUMP JUMPDEST PUSH32 0x496E76616C696420766F74657220616464726573730000000000000000000000 PUSH0 DUP3 ADD MSTORE POP JUMP JUMPDEST PUSH0 PUSH2 0x8075 PUSH1 0x15 DUP4 PUSH2 0x6ACB JUMP JUMPDEST SWAP2 POP PUSH2 0x8080 DUP3 PUSH2 0x8041 JUMP JUMPDEST PUSH1 0x20 DUP3 ADD SWAP1 POP SWAP2 SWAP1 POP JUMP JUMPDEST PUSH0 PUSH1 0x20 DUP3 ADD SWAP1 POP DUP2 DUP2 SUB PUSH0 DUP4 ADD MSTORE PUSH2 0x80A2 DUP2 PUSH2 0x8069 JUMP JUMPDEST SWAP1 POP SWAP2 SWAP1 POP JUMP JUMPDEST PUSH32 0x416464726573737320616C726561647920726567697374657265642E20526567 PUSH0 DUP3 ADD MSTORE PUSH32 0x697374726172204552524F522100000000000000000000000000000000000000 PUSH1 0x20 DUP3 ADD MSTORE POP JUMP JUMPDEST PUSH0 PUSH2 0x8103 PUSH1 0x2D DUP4 PUSH2 0x6ACB JUMP JUMPDEST SWAP2 POP PUSH2 0x810E DUP3 PUSH2 0x80A9 JUMP JUMPDEST PUSH1 0x40 DUP3 ADD SWAP1 POP SWAP2 SWAP1 POP JUMP JUMPDEST PUSH0 PUSH1 0x20 DUP3 ADD SWAP1 POP DUP2 DUP2 SUB PUSH0 DUP4 ADD MSTORE PUSH2 0x8130 DUP2 PUSH2 0x80F7 JUMP JUMPDEST SWAP1 POP SWAP2 SWAP1 POP JUMP JUMPDEST PUSH0 PUSH2 0x8141 DUP3 PUSH2 0x6C23 JUMP JUMPDEST SWAP2 POP PUSH2 0x814C DUP4 PUSH2 0x6C23 JUMP JUMPDEST SWAP3 POP DUP3 DUP3 ADD SWAP1 POP PUSH4 0xFFFFFFFF DUP2 GT ISZERO PUSH2 0x8168 JUMPI PUSH2 0x8167 PUSH2 0x7E25 JUMP JUMPDEST JUMPDEST SWAP3 SWAP2 POP POP JUMP JUMPDEST PUSH0 PUSH1 0xA SWAP1 POP SWAP2 SWAP1 POP JUMP JUMPDEST PUSH0 DUP2 SWAP1 POP SWAP3 SWAP2 POP POP JUMP JUMPDEST PUSH0 DUP2 SWAP1 POP SWAP2 SWAP1 POP JUMP JUMPDEST PUSH2 0x8194 DUP2 PUSH2 0x6562 JUMP JUMPDEST DUP3 MSTORE POP POP JUMP JUMPDEST PUSH0 PUSH2 0x81A5 DUP4 DUP4 PUSH2 0x818B JUMP JUMPDEST PUSH1 0x20 DUP4 ADD SWAP1 POP SWAP3 SWAP2 POP POP JUMP JUMPDEST PUSH0 PUSH2 0x81BF PUSH1 0x20 DUP5 ADD DUP5 PUSH2 0x6589 JUMP JUMPDEST SWAP1 POP SWAP3 SWAP2 POP POP JUMP JUMPDEST PUSH0 PUSH1 0x20 DUP3 ADD SWAP1 POP SWAP2 SWAP1 POP JUMP JUMPDEST PUSH2 0x81DC DUP2 PUSH2 0x816E JUMP JUMPDEST PUSH2 0x81E6 DUP2 DUP5 PUSH2 0x8178 JUMP JUMPDEST SWAP3 POP PUSH2 0x81F1 DUP3 PUSH2 0x8182 JUMP JUMPDEST DUP1 PUSH0 JUMPDEST DUP4 DUP2 LT ISZERO PUSH2 0x8229 JUMPI PUSH2 0x8206 DUP3 DUP5 PUSH2 0x81B1 JUMP JUMPDEST PUSH2 0x8210 DUP8 DUP3 PUSH2 0x819A JUMP JUMPDEST SWAP7 POP PUSH2 0x821B DUP4 PUSH2 0x81C7 JUMP JUMPDEST SWAP3 POP POP PUSH1 0x1 DUP2 ADD SWAP1 POP PUSH2 0x81F4 JUMP JUMPDEST POP POP POP POP POP POP JUMP JUMPDEST PUSH0 PUSH2 0x823C DUP3 DUP5 PUSH2 0x81D3 JUMP JUMPDEST PUSH2 0x140 DUP3 ADD SWAP2 POP DUP2 SWAP1 POP SWAP3 SWAP2 POP POP JUMP JUMPDEST PUSH0 PUSH2 0x8266 PUSH2 0x8261 PUSH2 0x825C DUP5 PUSH2 0x6C23 JUMP JUMPDEST PUSH2 0x7B1D JUMP JUMPDEST PUSH2 0x693D JUMP JUMPDEST SWAP1 POP SWAP2 SWAP1 POP JUMP JUMPDEST PUSH2 0x8276 DUP2 PUSH2 0x824C JUMP JUMPDEST DUP3 MSTORE POP POP JUMP JUMPDEST PUSH0 PUSH1 0x20 DUP3 ADD SWAP1 POP PUSH2 0x828F PUSH0 DUP4 ADD DUP5 PUSH2 0x826D JUMP JUMPDEST SWAP3 SWAP2 POP POP JUMP JUMPDEST PUSH32 0x4E6F742061206D656D6265720000000000000000000000000000000000000000 PUSH0 DUP3 ADD MSTORE POP JUMP JUMPDEST PUSH0 PUSH2 0x82C9 PUSH1 0xC DUP4 PUSH2 0x6ACB JUMP JUMPDEST SWAP2 POP PUSH2 0x82D4 DUP3 PUSH2 0x8295 JUMP JUMPDEST PUSH1 0x20 DUP3 ADD SWAP1 POP SWAP2 SWAP1 POP JUMP JUMPDEST PUSH0 PUSH1 0x20 DUP3 ADD SWAP1 POP DUP2 DUP2 SUB PUSH0 DUP4 ADD MSTORE PUSH2 0x82F6 DUP2 PUSH2 0x82BD JUMP JUMPDEST SWAP1 POP SWAP2 SWAP1 POP JUMP JUMPDEST PUSH32 0x566F7465206D757374206265202D312C20302C206F7220310000000000000000 PUSH0 DUP3 ADD MSTORE POP JUMP JUMPDEST PUSH0 PUSH2 0x8331 PUSH1 0x18 DUP4 PUSH2 0x6ACB JUMP JUMPDEST SWAP2 POP PUSH2 0x833C DUP3 PUSH2 0x82FD JUMP JUMPDEST PUSH1 0x20 DUP3 ADD SWAP1 POP SWAP2 SWAP1 POP JUMP JUMPDEST PUSH0 PUSH1 0x20 DUP3 ADD SWAP1 POP DUP2 DUP2 SUB PUSH0 DUP4 ADD MSTORE PUSH2 0x835E DUP2 PUSH2 0x8325 JUMP JUMPDEST SWAP1 POP SWAP2 SWAP1 POP JUMP JUMPDEST PUSH32 0x4D617820766F7465732072656163686564000000000000000000000000000000 PUSH0 DUP3 ADD MSTORE POP JUMP JUMPDEST PUSH0 PUSH2 0x8399 PUSH1 0x11 DUP4 PUSH2 0x6ACB JUMP JUMPDEST SWAP2 POP PUSH2 0x83A4 DUP3 PUSH2 0x8365 JUMP JUMPDEST PUSH1 0x20 DUP3 ADD SWAP1 POP SWAP2 SWAP1 POP JUMP JUMPDEST PUSH0 PUSH1 0x20 DUP3 ADD SWAP1 POP DUP2 DUP2 SUB PUSH0 DUP4 ADD MSTORE PUSH2 0x83C6 DUP2 PUSH2 0x838D JUMP JUMPDEST SWAP1 POP SWAP2 SWAP1 POP JUMP JUMPDEST PUSH0 PUSH2 0x83D7 DUP3 PUSH2 0x693D JUMP JUMPDEST SWAP2 POP PUSH32 0xFFFFFFFFFFFFFFFFFFFFFFFFFFFFFFFFFFFFFFFFFFFFFFFFFFFFFFFFFFFFFFFF DUP3 SUB PUSH2 0x8409 JUMPI PUSH2 0x8408 PUSH2 0x7E25 JUMP JUMPDEST JUMPDEST PUSH1 0x1 DUP3 ADD SWAP1 POP SWAP2 SWAP1 POP JUMP JUMPDEST PUSH0 PUSH2 0x841E DUP3 PUSH2 0x693D JUMP JUMPDEST SWAP2 POP PUSH0 DUP3 SUB PUSH2 0x8430 JUMPI PUSH2 0x842F PUSH2 0x7E25 JUMP JUMPDEST JUMPDEST PUSH1 0x1 DUP3 SUB SWAP1 POP SWAP2 SWAP1 POP JUMP JUMPDEST PUSH0 PUSH2 0x8445 DUP3 PUSH2 0x65DB JUMP JUMPDEST SWAP2 POP PUSH2 0x8450 DUP4 PUSH2 0x65DB JUMP JUMPDEST SWAP3 POP DUP3 DUP3 SUB SWAP1 POP PUSH1 0x7F DUP2 SGT PUSH32 0xFFFFFFFFFFFFFFFFFFFFFFFFFFFFFFFFFFFFFFFFFFFFFFFFFFFFFFFFFFFFFF80 DUP3 SLT OR ISZERO PUSH2 0x848D JUMPI PUSH2 0x848C PUSH2 0x7E25 JUMP JUMPDEST JUMPDEST SWAP3 SWAP2 POP POP JUMP JUMPDEST PUSH0 PUSH2 0x849D DUP3 PUSH2 0x703C JUMP JUMPDEST SWAP2 POP PUSH2 0x84A8 DUP4 PUSH2 0x703C JUMP JUMPDEST SWAP3 POP DUP3 DUP3 ADD SWAP1 POP DUP3 DUP2 SLT ISZERO PUSH0 DUP4 SLT AND DUP4 DUP3 SLT PUSH0 DUP5 SLT ISZERO AND OR ISZERO PUSH2 0x84CE JUMPI PUSH2 0x84CD PUSH2 0x7E25 JUMP JUMPDEST JUMPDEST SWAP3 SWAP2 POP POP JUMP JUMPDEST PUSH32 0x43616C6C206F6E6365206166746572205265666572656E64756D000000000000 PUSH0 DUP3 ADD MSTORE POP JUMP JUMPDEST PUSH0 PUSH2 0x8508 PUSH1 0x1A DUP4 PUSH2 0x6ACB JUMP JUMPDEST SWAP2 POP PUSH2 0x8513 DUP3 PUSH2 0x84D4 JUMP JUMPDEST PUSH1 0x20 DUP3 ADD SWAP1 POP SWAP2 SWAP1 POP JUMP JUMPDEST PUSH0 PUSH1 0x20 DUP3 ADD SWAP1 POP DUP2 DUP2 SUB PUSH0 DUP4 ADD MSTORE PUSH2 0x8535 DUP2 PUSH2 0x84FC JUMP JUMPDEST SWAP1 POP SWAP2 SWAP1 POP JUMP JUMPDEST PUSH32 0x496E76616C69642062696C6C2049440000000000000000000000000000000000 PUSH0 DUP3 ADD MSTORE POP JUMP JUMPDEST PUSH0 PUSH2 0x8570 PUSH1 0xF DUP4 PUSH2 0x6ACB JUMP JUMPDEST SWAP2 POP PUSH2 0x857B DUP3 PUSH2 0x853C JUMP JUMPDEST PUSH1 0x20 DUP3 ADD SWAP1 POP SWAP2 SWAP1 POP JUMP JUMPDEST PUSH0 PUSH1 0x20 DUP3 ADD SWAP1 POP DUP2 DUP2 SUB PUSH0 DUP4 ADD MSTORE PUSH2 0x859D DUP2 PUSH2 0x8564 JUMP JUMPDEST SWAP1 POP SWAP2 SWAP1 POP JUMP JUMPDEST PUSH32 0x4F6E6C79207468652070726F706F7365722063616E2077697468647261770000 PUSH0 DUP3 ADD MSTORE POP JUMP JUMPDEST PUSH0 PUSH2 0x85D8 PUSH1 0x1E DUP4 PUSH2 0x6ACB JUMP JUMPDEST SWAP2 POP PUSH2 0x85E3 DUP3 PUSH2 0x85A4 JUMP JUMPDEST PUSH1 0x20 DUP3 ADD SWAP1 POP SWAP2 SWAP1 POP JUMP JUMPDEST PUSH0 PUSH1 0x20 DUP3 ADD SWAP1 POP DUP2 DUP2 SUB PUSH0 DUP4 ADD MSTORE PUSH2 0x8605 DUP2 PUSH2 0x85CC JUMP JUMPDEST SWAP1 POP SWAP2 SWAP1 POP JUMP JUMPDEST PUSH32 0x42696C6C20616C72656164792065786563757465640000000000000000000000 PUSH0 DUP3 ADD MSTORE POP JUMP JUMPDEST PUSH0 PUSH2 0x8640 PUSH1 0x15 DUP4 PUSH2 0x6ACB JUMP JUMPDEST SWAP2 POP PUSH2 0x864B DUP3 PUSH2 0x860C JUMP JUMPDEST PUSH1 0x20 DUP3 ADD SWAP1 POP SWAP2 SWAP1 POP JUMP JUMPDEST PUSH0 PUSH1 0x20 DUP3 ADD SWAP1 POP DUP2 DUP2 SUB PUSH0 DUP4 ADD MSTORE PUSH2 0x866D DUP2 PUSH2 0x8634 JUMP JUMPDEST SWAP1 POP SWAP2 SWAP1 POP JUMP JUMPDEST PUSH32 0x42696C6C20616C72656164792077697468647261776E00000000000000000000 PUSH0 DUP3 ADD MSTORE POP JUMP JUMPDEST PUSH0 PUSH2 0x86A8 PUSH1 0x16 DUP4 PUSH2 0x6ACB JUMP JUMPDEST SWAP2 POP PUSH2 0x86B3 DUP3 PUSH2 0x8674 JUMP JUMPDEST PUSH1 0x20 DUP3 ADD SWAP1 POP SWAP2 SWAP1 POP JUMP JUMPDEST PUSH0 PUSH1 0x20 DUP3 ADD SWAP1 POP DUP2 DUP2 SUB PUSH0 DUP4 ADD MSTORE PUSH2 0x86D5 DUP2 PUSH2 0x869C JUMP JUMPDEST SWAP1 POP SWAP2 SWAP1 POP JUMP JUMPDEST PUSH32 0x4F6E6C79206D656D626572732063616E20766F74650000000000000000000000 PUSH0 DUP3 ADD MSTORE POP JUMP JUMPDEST PUSH0 PUSH2 0x8710 PUSH1 0x15 DUP4 PUSH2 0x6ACB JUMP JUMPDEST SWAP2 POP PUSH2 0x871B DUP3 PUSH2 0x86DC JUMP JUMPDEST PUSH1 0x20 DUP3 ADD SWAP1 POP SWAP2 SWAP1 POP JUMP JUMPDEST PUSH0 PUSH1 0x20 DUP3 ADD SWAP1 POP DUP2 DUP2 SUB PUSH0 DUP4 ADD MSTORE PUSH2 0x873D DUP2 PUSH2 0x8704 JUMP JUMPDEST SWAP1 POP SWAP2 SWAP1 POP JUMP JUMPDEST PUSH32 0x42696C6C2077697468647261776E000000000000000000000000000000000000 PUSH0 DUP3 ADD MSTORE POP JUMP JUMPDEST PUSH0 PUSH2 0x8778 PUSH1 0xE DUP4 PUSH2 0x6ACB JUMP JUMPDEST SWAP2 POP PUSH2 0x8783 DUP3 PUSH2 0x8744 JUMP JUMPDEST PUSH1 0x20 DUP3 ADD SWAP1 POP SWAP2 SWAP1 POP JUMP JUMPDEST PUSH0 PUSH1 0x20 DUP3 ADD SWAP1 POP DUP2 DUP2 SUB PUSH0 DUP4 ADD MSTORE PUSH2 0x87A5 DUP2 PUSH2 0x876C JUMP JUMPDEST SWAP1 POP SWAP2 SWAP1 POP JUMP JUMPDEST PUSH32 0x416C726561647920766F74656400000000000000000000000000000000000000 PUSH0 DUP3 ADD MSTORE POP JUMP JUMPDEST PUSH0 PUSH2 0x87E0 PUSH1 0xD DUP4 PUSH2 0x6ACB JUMP JUMPDEST SWAP2 POP PUSH2 0x87EB DUP3 PUSH2 0x87AC JUMP JUMPDEST PUSH1 0x20 DUP3 ADD SWAP1 POP SWAP2 SWAP1 POP JUMP JUMPDEST PUSH0 PUSH1 0x20 DUP3 ADD SWAP1 POP DUP2 DUP2 SUB PUSH0 DUP4 ADD MSTORE PUSH2 0x880D DUP2 PUSH2 0x87D4 JUMP JUMPDEST SWAP1 POP SWAP2 SWAP1 POP JUMP JUMPDEST PUSH32 0x4F6E6C79206D656D626572732063616E2070726F706F73652062696C6C730000 PUSH0 DUP3 ADD MSTORE POP JUMP JUMPDEST PUSH0 PUSH2 0x8848 PUSH1 0x1E DUP4 PUSH2 0x6ACB JUMP JUMPDEST SWAP2 POP PUSH2 0x8853 DUP3 PUSH2 0x8814 JUMP JUMPDEST PUSH1 0x20 DUP3 ADD SWAP1 POP SWAP2 SWAP1 POP JUMP JUMPDEST PUSH0 PUSH1 0x20 DUP3 ADD SWAP1 POP DUP2 DUP2 SUB PUSH0 DUP4 ADD MSTORE PUSH2 0x8875 DUP2 PUSH2 0x883C JUMP JUMPDEST SWAP1 POP SWAP2 SWAP1 POP JUMP JUMPDEST PUSH32 0x50726F766973696F6E7320726571756972656400000000000000000000000000 PUSH0 DUP3 ADD MSTORE POP JUMP JUMPDEST PUSH0 PUSH2 0x88B0 PUSH1 0x13 DUP4 PUSH2 0x6ACB JUMP JUMPDEST SWAP2 POP PUSH2 0x88BB DUP3 PUSH2 0x887C JUMP JUMPDEST PUSH1 0x20 DUP3 ADD SWAP1 POP SWAP2 SWAP1 POP JUMP JUMPDEST PUSH0 PUSH1 0x20 DUP3 ADD SWAP1 POP DUP2 DUP2 SUB PUSH0 DUP4 ADD MSTORE PUSH2 0x88DD DUP2 PUSH2 0x88A4 JUMP JUMPDEST SWAP1 POP SWAP2 SWAP1 POP JUMP JUMPDEST PUSH32 0x4D656D62657220616C72656164792068617320616E206163746976652062696C PUSH0 DUP3 ADD MSTORE PUSH32 0x6C00000000000000000000000000000000000000000000000000000000000000 PUSH1 0x20 DUP3 ADD MSTORE POP JUMP JUMPDEST PUSH0 PUSH2 0x893E PUSH1 0x21 DUP4 PUSH2 0x6ACB JUMP JUMPDEST SWAP2 POP PUSH2 0x8949 DUP3 PUSH2 0x88E4 JUMP JUMPDEST PUSH1 0x40 DUP3 ADD SWAP1 POP SWAP2 SWAP1 POP JUMP JUMPDEST PUSH0 PUSH1 0x20 DUP3 ADD SWAP1 POP DUP2 DUP2 SUB PUSH0 DUP4 ADD MSTORE PUSH2 0x896B DUP2 PUSH2 0x8932 JUMP JUMPDEST SWAP1 POP SWAP2 SWAP1 POP JUMP JUMPDEST PUSH0 DUP3 SWAP1 POP SWAP3 SWAP2 POP POP JUMP JUMPDEST PUSH2 0x8986 DUP4 DUP4 PUSH2 0x8972 JUMP JUMPDEST PUSH8 0xFFFFFFFFFFFFFFFF DUP2 GT ISZERO PUSH2 0x899F JUMPI PUSH2 0x899E PUSH2 0x6626 JUMP JUMPDEST JUMPDEST PUSH2 0x89A9 DUP3 SLOAD PUSH2 0x7A6F JUMP JUMPDEST PUSH2 0x89B4 DUP3 DUP3 DUP6 PUSH2 0x7BB3 JUMP JUMPDEST PUSH0 PUSH1 0x1F DUP4 GT PUSH1 0x1 DUP2 EQ PUSH2 0x89E1 JUMPI PUSH0 DUP5 ISZERO PUSH2 0x89CF JUMPI DUP3 DUP8 ADD CALLDATALOAD SWAP1 POP JUMPDEST PUSH2 0x89D9 DUP6 DUP3 PUSH2 0x7C21 JUMP JUMPDEST DUP7 SSTORE POP PUSH2 0x8A40 JUMP JUMPDEST PUSH1 0x1F NOT DUP5 AND PUSH2 0x89EF DUP7 PUSH2 0x7A9F JUMP JUMPDEST PUSH0 JUMPDEST DUP3 DUP2 LT ISZERO PUSH2 0x8A16 JUMPI DUP5 DUP10 ADD CALLDATALOAD DUP3 SSTORE PUSH1 0x1 DUP3 ADD SWAP2 POP PUSH1 0x20 DUP6 ADD SWAP5 POP PUSH1 0x20 DUP2 ADD SWAP1 POP PUSH2 0x89F1 JUMP JUMPDEST DUP7 DUP4 LT ISZERO PUSH2 0x8A33 JUMPI DUP5 DUP10 ADD CALLDATALOAD PUSH2 0x8A2F PUSH1 0x1F DUP10 AND DUP3 PUSH2 0x7C05 JUMP JUMPDEST DUP4 SSTORE POP JUMPDEST PUSH1 0x1 PUSH1 0x2 DUP9 MUL ADD DUP9 SSTORE POP POP POP JUMPDEST POP POP POP POP POP POP POP JUMP JUMPDEST PUSH0 DUP1 REVERT JUMPDEST PUSH0 DUP1 REVERT JUMPDEST PUSH0 DUP1 REVERT JUMPDEST PUSH0 DUP3 CALLDATALOAD PUSH1 0x1 PUSH1 0x60 SUB DUP4 CALLDATASIZE SUB SUB DUP2 SLT PUSH2 0x8A70 JUMPI PUSH2 0x8A6F PUSH2 0x8A49 JUMP JUMPDEST JUMPDEST DUP1 DUP4 ADD SWAP2 POP POP SWAP3 SWAP2 POP POP JUMP JUMPDEST PUSH0 DUP2 CALLDATALOAD PUSH2 0x8A88 DUP2 PUSH2 0x6999 JUMP JUMPDEST DUP1 SWAP2 POP POP SWAP2 SWAP1 POP JUMP JUMPDEST PUSH0 DUP2 PUSH0 SHL SWAP1 POP SWAP2 SWAP1 POP JUMP JUMPDEST PUSH0 PUSH32 0xFFFFFFFFFFFFFFFFFFFFFFFFFFFFFFFFFFFFFFFFFFFFFFFFFFFFFFFFFFFFFFFF PUSH2 0x8AC7 DUP5 PUSH2 0x8A91 JUMP JUMPDEST SWAP4 POP DUP1 NOT DUP4 AND SWAP3 POP DUP1 DUP5 AND DUP4 OR SWAP2 POP POP SWAP3 SWAP2 POP POP JUMP JUMPDEST PUSH2 0x8AE6 DUP3 PUSH2 0x7B26 JUMP JUMPDEST PUSH2 0x8AF9 PUSH2 0x8AF2 DUP3 PUSH2 0x7B47 JUMP JUMPDEST DUP4 SLOAD PUSH2 0x8A9C JUMP JUMPDEST DUP3 SSTORE POP POP POP JUMP JUMPDEST PUSH0 DUP2 CALLDATALOAD PUSH2 0x8B0C DUP2 PUSH2 0x6573 JUMP JUMPDEST DUP1 SWAP2 POP POP SWAP2 SWAP1 POP JUMP JUMPDEST PUSH0 PUSH20 0xFFFFFFFFFFFFFFFFFFFFFFFFFFFFFFFFFFFFFFFF PUSH2 0x8B34 DUP5 PUSH2 0x8A91 JUMP JUMPDEST SWAP4 POP DUP1 NOT DUP4 AND SWAP3 POP DUP1 DUP5 AND DUP4 OR SWAP2 POP POP SWAP3 SWAP2 POP POP JUMP JUMPDEST PUSH0 PUSH2 0x8B64 PUSH2 0x8B5F PUSH2 0x8B5A DUP5 PUSH2 0x6543 JUMP JUMPDEST PUSH2 0x7B1D JUMP JUMPDEST PUSH2 0x6543 JUMP JUMPDEST SWAP1 POP SWAP2 SWAP1 POP JUMP JUMPDEST PUSH0 PUSH2 0x8B75 DUP3 PUSH2 0x8B4A JUMP JUMPDEST SWAP1 POP SWAP2 SWAP1 POP JUMP JUMPDEST PUSH0 PUSH2 0x8B86 DUP3 PUSH2 0x8B6B JUMP JUMPDEST SWAP1 POP SWAP2 SWAP1 POP JUMP JUMPDEST PUSH0 DUP2 SWAP1 POP SWAP2 SWAP1 POP JUMP JUMPDEST PUSH2 0x8B9F DUP3 PUSH2 0x8B7C JUMP JUMPDEST PUSH2 0x8BB2 PUSH2 0x8BAB DUP3 PUSH2 0x8B8D JUMP JUMPDEST DUP4 SLOAD PUSH2 0x8B15 JUMP JUMPDEST DUP3 SSTORE POP POP POP JUMP JUMPDEST PUSH0 DUP1 DUP4 CALLDATALOAD PUSH1 0x1 PUSH1 0x20 SUB DUP5 CALLDATASIZE SUB SUB DUP2 SLT PUSH2 0x8BD5 JUMPI PUSH2 0x8BD4 PUSH2 0x8A49 JUMP JUMPDEST JUMPDEST DUP1 DUP5 ADD SWAP3 POP DUP3 CALLDATALOAD SWAP2 POP PUSH8 0xFFFFFFFFFFFFFFFF DUP3 GT ISZERO PUSH2 0x8BF7 JUMPI PUSH2 0x8BF6 PUSH2 0x8A4D JUMP JUMPDEST JUMPDEST PUSH1 0x20 DUP4 ADD SWAP3 POP PUSH1 0x1 DUP3 MUL CALLDATASIZE SUB DUP4 SGT ISZERO PUSH2 0x8C13 JUMPI PUSH2 0x8C12 PUSH2 0x8A51 JUMP JUMPDEST JUMPDEST POP SWAP3 POP SWAP3 SWAP1 POP JUMP JUMPDEST PUSH2 0x8C26 DUP4 DUP4 DUP4 PUSH2 0x897C JUMP JUMPDEST POP POP POP JUMP JUMPDEST PUSH0 DUP2 ADD PUSH0 DUP4 ADD DUP1 PUSH2 0x8C3B DUP2 PUSH2 0x8A7C JUMP JUMPDEST SWAP1 POP PUSH2 0x8C47 DUP2 DUP5 PUSH2 0x8ADD JUMP JUMPDEST POP POP POP PUSH1 0x1 DUP2 ADD PUSH1 0x20 DUP4 ADD DUP1 PUSH2 0x8C5C DUP2 PUSH2 0x8B00 JUMP JUMPDEST SWAP1 POP PUSH2 0x8C68 DUP2 DUP5 PUSH2 0x8B96 JUMP JUMPDEST POP POP POP PUSH1 0x2 DUP2 ADD PUSH1 0x40 DUP4 ADD PUSH2 0x8C7D DUP2 DUP6 PUSH2 0x8BB9 JUMP JUMPDEST PUSH2 0x8C88 DUP2 DUP4 DUP7 PUSH2 0x8C1B JUMP JUMPDEST POP POP POP POP POP POP JUMP JUMPDEST PUSH2 0x8C9A DUP3 DUP3 PUSH2 0x8C2B JUMP JUMPDEST POP POP JUMP JUMPDEST PUSH0 PUSH2 0x8CA9 DUP4 DUP6 PUSH2 0x6ACB JUMP JUMPDEST SWAP4 POP PUSH2 0x8CB6 DUP4 DUP6 DUP5 PUSH2 0x66CE JUMP JUMPDEST PUSH2 0x8CBF DUP4 PUSH2 0x6616 JUMP JUMPDEST DUP5 ADD SWAP1 POP SWAP4 SWAP3 POP POP POP JUMP JUMPDEST PUSH0 PUSH1 0x20 DUP3 ADD SWAP1 POP DUP2 DUP2 SUB PUSH0 DUP4 ADD MSTORE PUSH2 0x8CE3 DUP2 DUP5 DUP7 PUSH2 0x8C9E JUMP JUMPDEST SWAP1 POP SWAP4 SWAP3 POP POP POP JUMP JUMPDEST PUSH32 0x57726F6E67207068617365000000000000000000000000000000000000000000 PUSH0 DUP3 ADD MSTORE POP JUMP JUMPDEST PUSH0 PUSH2 0x8D20 PUSH1 0xB DUP4 PUSH2 0x6ACB JUMP JUMPDEST SWAP2 POP PUSH2 0x8D2B DUP3 PUSH2 0x8CEC JUMP JUMPDEST PUSH1 0x20 DUP3 ADD SWAP1 POP SWAP2 SWAP1 POP JUMP JUMPDEST PUSH0 PUSH1 0x20 DUP3 ADD SWAP1 POP DUP2 DUP2 SUB PUSH0 DUP4 ADD MSTORE PUSH2 0x8D4D DUP2 PUSH2 0x8D14 JUMP JUMPDEST SWAP1 POP SWAP2 SWAP1 POP JUMP JUMPDEST PUSH32 0x4465736372697074696F6E207265717569726564000000000000000000000000 PUSH0 DUP3 ADD MSTORE POP JUMP JUMPDEST PUSH0 PUSH2 0x8D88 PUSH1 0x14 DUP4 PUSH2 0x6ACB JUMP JUMPDEST SWAP2 POP PUSH2 0x8D93 DUP3 PUSH2 0x8D54 JUMP JUMPDEST PUSH1 0x20 DUP3 ADD SWAP1 POP SWAP2 SWAP1 POP JUMP JUMPDEST PUSH0 PUSH1 0x20 DUP3 ADD SWAP1 POP DUP2 DUP2 SUB PUSH0 DUP4 ADD MSTORE PUSH2 0x8DB5 DUP2 PUSH2 0x8D7C JUMP JUMPDEST SWAP1 POP SWAP2 SWAP1 POP JUMP JUMPDEST PUSH32 0x636F6E737469747574696F6E5465787420726571756972656400000000000000 PUSH0 DUP3 ADD MSTORE POP JUMP JUMPDEST PUSH0 PUSH2 0x8DF0 PUSH1 0x19 DUP4 PUSH2 0x6ACB JUMP JUMPDEST SWAP2 POP PUSH2 0x8DFB DUP3 PUSH2 0x8DBC JUMP JUMPDEST PUSH1 0x20 DUP3 ADD SWAP1 POP SWAP2 SWAP1 POP JUMP JUMPDEST PUSH0 PUSH1 0x20 DUP3 ADD SWAP1 POP DUP2 DUP2 SUB PUSH0 DUP4 ADD MSTORE PUSH2 0x8E1D DUP2 PUSH2 0x8DE4 JUMP JUMPDEST SWAP1 POP SWAP2 SWAP1 POP JUMP JUMPDEST PUSH32 0x50726F706F736572206E616D6520726571756972656400000000000000000000 PUSH0 DUP3 ADD MSTORE POP JUMP JUMPDEST PUSH0 PUSH2 0x8E58 PUSH1 0x16 DUP4 PUSH2 0x6ACB JUMP JUMPDEST SWAP2 POP PUSH2 0x8E63 DUP3 PUSH2 0x8E24 JUMP JUMPDEST PUSH1 0x20 DUP3 ADD SWAP1 POP SWAP2 SWAP1 POP JUMP JUMPDEST PUSH0 PUSH1 0x20 DUP3 ADD SWAP1 POP DUP2 DUP2 SUB PUSH0 DUP4 ADD MSTORE PUSH2 0x8E85 DUP2 PUSH2 0x8E4C JUMP JUMPDEST SWAP1 POP SWAP2 SWAP1 POP JUMP JUMPDEST PUSH32 0x496E73756666696369656E74207375626D697373696F6E206665650000000000 PUSH0 DUP3 ADD MSTORE POP JUMP JUMPDEST PUSH0 PUSH2 0x8EC0 PUSH1 0x1B DUP4 PUSH2 0x6ACB JUMP JUMPDEST SWAP2 POP PUSH2 0x8ECB DUP3 PUSH2 0x8E8C JUMP JUMPDEST PUSH1 0x20 DUP3 ADD SWAP1 POP SWAP2 SWAP1 POP JUMP JUMPDEST PUSH0 PUSH1 0x20 DUP3 ADD SWAP1 POP DUP2 DUP2 SUB PUSH0 DUP4 ADD MSTORE PUSH2 0x8EED DUP2 PUSH2 0x8EB4 JUMP JUMPDEST SWAP1 POP SWAP2 SWAP1 POP JUMP JUMPDEST PUSH0 DUP2 SWAP1 POP SWAP3 SWAP2 POP POP JUMP JUMPDEST PUSH0 PUSH2 0x8F08 DUP3 PUSH2 0x6AC1 JUMP JUMPDEST PUSH2 0x8F12 DUP2 DUP6 PUSH2 0x8EF4 JUMP JUMPDEST SWAP4 POP PUSH2 0x8F22 DUP2 DUP6 PUSH1 0x20 DUP7 ADD PUSH2 0x6ADB JUMP JUMPDEST DUP1 DUP5 ADD SWAP2 POP POP SWAP3 SWAP2 POP POP JUMP JUMPDEST PUSH0 PUSH2 0x8F39 DUP3 DUP8 PUSH2 0x8EFE JUMP JUMPDEST SWAP2 POP PUSH2 0x8F45 DUP3 DUP7 PUSH2 0x8EFE JUMP JUMPDEST SWAP2 POP PUSH2 0x8F51 DUP3 DUP6 PUSH2 0x8EFE JUMP JUMPDEST SWAP2 POP PUSH2 0x8F5D DUP3 DUP5 PUSH2 0x8EFE JUMP JUMPDEST SWAP2 POP DUP2 SWAP1 POP SWAP6 SWAP5 POP POP POP POP POP JUMP JUMPDEST PUSH32 0x496E636F72726563742048617368210000000000000000000000000000000000 PUSH0 DUP3 ADD MSTORE POP JUMP JUMPDEST PUSH0 PUSH2 0x8F9F PUSH1 0xF DUP4 PUSH2 0x6ACB JUMP JUMPDEST SWAP2 POP PUSH2 0x8FAA DUP3 PUSH2 0x8F6B JUMP JUMPDEST PUSH1 0x20 DUP3 ADD SWAP1 POP SWAP2 SWAP1 POP JUMP JUMPDEST PUSH0 PUSH1 0x20 DUP3 ADD SWAP1 POP DUP2 DUP2 SUB PUSH0 DUP4 ADD MSTORE PUSH2 0x8FCC DUP2 PUSH2 0x8F93 JUMP JUMPDEST SWAP1 POP SWAP2 SWAP1 POP JUMP JUMPDEST PUSH0 PUSH2 0x8FDD DUP3 PUSH2 0x693D JUMP JUMPDEST SWAP2 POP PUSH2 0x8FE8 DUP4 PUSH2 0x693D JUMP JUMPDEST SWAP3 POP DUP3 DUP3 SUB SWAP1 POP DUP2 DUP2 GT ISZERO PUSH2 0x9000 JUMPI PUSH2 0x8FFF PUSH2 0x7E25 JUMP JUMPDEST JUMPDEST SWAP3 SWAP2 POP POP JUMP JUMPDEST PUSH32 0x496E76616C69642043616E646964617465204944000000000000000000000000 PUSH0 DUP3 ADD MSTORE POP JUMP JUMPDEST PUSH0 PUSH2 0x903A PUSH1 0x14 DUP4 PUSH2 0x6ACB JUMP JUMPDEST SWAP2 POP PUSH2 0x9045 DUP3 PUSH2 0x9006 JUMP JUMPDEST PUSH1 0x20 DUP3 ADD SWAP1 POP SWAP2 SWAP1 POP JUMP JUMPDEST PUSH0 PUSH1 0x20 DUP3 ADD SWAP1 POP DUP2 DUP2 SUB PUSH0 DUP4 ADD MSTORE PUSH2 0x9067 DUP2 PUSH2 0x902E JUMP JUMPDEST SWAP1 POP SWAP2 SWAP1 POP JUMP JUMPDEST PUSH32 0x4E6F742061204D656D6265720000000000000000000000000000000000000000 PUSH0 DUP3 ADD MSTORE POP JUMP JUMPDEST PUSH0 PUSH2 0x90A2 PUSH1 0xC DUP4 PUSH2 0x6ACB JUMP JUMPDEST SWAP2 POP PUSH2 0x90AD DUP3 PUSH2 0x906E JUMP JUMPDEST PUSH1 0x20 DUP3 ADD SWAP1 POP SWAP2 SWAP1 POP JUMP JUMPDEST PUSH0 PUSH1 0x20 DUP3 ADD SWAP1 POP DUP2 DUP2 SUB PUSH0 DUP4 ADD MSTORE PUSH2 0x90CF DUP2 PUSH2 0x9096 JUMP JUMPDEST SWAP1 POP SWAP2 SWAP1 POP JUMP JUMPDEST PUSH32 0x4E6F7420656E6F75676820617070726F76616C00000000000000000000000000 PUSH0 DUP3 ADD MSTORE POP JUMP JUMPDEST PUSH0 PUSH2 0x910A PUSH1 0x13 DUP4 PUSH2 0x6ACB JUMP JUMPDEST SWAP2 POP PUSH2 0x9115 DUP3 PUSH2 0x90D6 JUMP JUMPDEST PUSH1 0x20 DUP3 ADD SWAP1 POP SWAP2 SWAP1 POP JUMP JUMPDEST PUSH0 PUSH1 0x20 DUP3 ADD SWAP1 POP DUP2 DUP2 SUB PUSH0 DUP4 ADD MSTORE PUSH2 0x9137 DUP2 PUSH2 0x90FE JUMP JUMPDEST SWAP1 POP SWAP2 SWAP1 POP JUMP JUMPDEST PUSH32 0x566F746572206861736820616C726561647920726567697374657265642E0000 PUSH0 DUP3 ADD MSTORE POP JUMP JUMPDEST PUSH0 PUSH2 0x9172 PUSH1 0x1E DUP4 PUSH2 0x6ACB JUMP JUMPDEST SWAP2 POP PUSH2 0x917D DUP3 PUSH2 0x913E JUMP JUMPDEST PUSH1 0x20 DUP3 ADD SWAP1 POP SWAP2 SWAP1 POP JUMP JUMPDEST PUSH0 PUSH1 0x20 DUP3 ADD SWAP1 POP DUP2 DUP2 SUB PUSH0 DUP4 ADD MSTORE PUSH2 0x919F DUP2 PUSH2 0x9166 JUMP JUMPDEST SWAP1 POP SWAP2 SWAP1 POP JUMP JUMPDEST PUSH0 PUSH1 0x40 DUP3 ADD SWAP1 POP PUSH2 0x91B9 PUSH0 DUP4 ADD DUP6 PUSH2 0x6AB2 JUMP JUMPDEST PUSH2 0x91C6 PUSH1 0x20 DUP4 ADD DUP5 PUSH2 0x826D JUMP JUMPDEST SWAP4 SWAP3 POP POP POP JUMP JUMPDEST PUSH0 PUSH2 0x91D7 DUP3 PUSH2 0x6B21 JUMP JUMPDEST SWAP2 POP PUSH2 0x91E2 DUP4 PUSH2 0x6B21 JUMP JUMPDEST SWAP3 POP DUP3 DUP3 MUL PUSH2 0x91F0 DUP2 PUSH2 0x6B21 JUMP JUMPDEST SWAP2 POP DUP1 DUP3 EQ PUSH2 0x9202 JUMPI PUSH2 0x9201 PUSH2 0x7E25 JUMP JUMPDEST JUMPDEST POP SWAP3 SWAP2 POP POP JUMP JUMPDEST PUSH0 PUSH2 0x9213 DUP3 PUSH2 0x693D JUMP JUMPDEST SWAP2 POP PUSH2 0x921E DUP4 PUSH2 0x693D JUMP JUMPDEST SWAP3 POP DUP3 DUP3 ADD SWAP1 POP DUP1 DUP3 GT ISZERO PUSH2 0x9236 JUMPI PUSH2 0x9235 PUSH2 0x7E25 JUMP JUMPDEST JUMPDEST SWAP3 SWAP2 POP POP JUMP JUMPDEST PUSH32 0x43757272656E74206C65616465722773207465726D206E6F742066696E697368 PUSH0 DUP3 ADD MSTORE PUSH32 0x6564000000000000000000000000000000000000000000000000000000000000 PUSH1 0x20 DUP3 ADD MSTORE POP JUMP JUMPDEST PUSH0 PUSH2 0x9296 PUSH1 0x22 DUP4 PUSH2 0x6ACB JUMP JUMPDEST SWAP2 POP PUSH2 0x92A1 DUP3 PUSH2 0x923C JUMP JUMPDEST PUSH1 0x40 DUP3 ADD SWAP1 POP SWAP2 SWAP1 POP JUMP JUMPDEST PUSH0 PUSH1 0x20 DUP3 ADD SWAP1 POP DUP2 DUP2 SUB PUSH0 DUP4 ADD MSTORE PUSH2 0x92C3 DUP2 PUSH2 0x928A JUMP JUMPDEST SWAP1 POP SWAP2 SWAP1 POP JUMP JUMPDEST PUSH32 0x4E6F7420696E20456C656374696F6E2070686173650000000000000000000000 PUSH0 DUP3 ADD MSTORE POP JUMP JUMPDEST PUSH0 PUSH2 0x92FE PUSH1 0x15 DUP4 PUSH2 0x6ACB JUMP JUMPDEST SWAP2 POP PUSH2 0x9309 DUP3 PUSH2 0x92CA JUMP JUMPDEST PUSH1 0x20 DUP3 ADD SWAP1 POP SWAP2 SWAP1 POP JUMP JUMPDEST PUSH0 PUSH1 0x20 DUP3 ADD SWAP1 POP DUP2 DUP2 SUB PUSH0 DUP4 ADD MSTORE PUSH2 0x932B DUP2 PUSH2 0x92F2 JUMP JUMPDEST SWAP1 POP SWAP2 SWAP1 POP JUMP JUMPDEST PUSH32 0x496E76616C696420766F746520636F756E740000000000000000000000000000 PUSH0 DUP3 ADD MSTORE POP JUMP JUMPDEST PUSH0 PUSH2 0x9366 PUSH1 0x12 DUP4 PUSH2 0x6ACB JUMP JUMPDEST SWAP2 POP PUSH2 0x9371 DUP3 PUSH2 0x9332 JUMP JUMPDEST PUSH1 0x20 DUP3 ADD SWAP1 POP SWAP2 SWAP1 POP JUMP JUMPDEST PUSH0 PUSH1 0x20 DUP3 ADD SWAP1 POP DUP2 DUP2 SUB PUSH0 DUP4 ADD MSTORE PUSH2 0x9393 DUP2 PUSH2 0x935A JUMP JUMPDEST SWAP1 POP SWAP2 SWAP1 POP JUMP JUMPDEST PUSH32 0x416C726561647920766F74656420283E3129206F72206E6F7420726567697374 PUSH0 DUP3 ADD MSTORE PUSH32 0x6572656420283029000000000000000000000000000000000000000000000000 PUSH1 0x20 DUP3 ADD MSTORE POP JUMP JUMPDEST PUSH0 PUSH2 0x93F4 PUSH1 0x28 DUP4 PUSH2 0x6ACB JUMP JUMPDEST SWAP2 POP PUSH2 0x93FF DUP3 PUSH2 0x939A JUMP JUMPDEST PUSH1 0x40 DUP3 ADD SWAP1 POP SWAP2 SWAP1 POP JUMP JUMPDEST PUSH0 PUSH1 0x20 DUP3 ADD SWAP1 POP DUP2 DUP2 SUB PUSH0 DUP4 ADD MSTORE PUSH2 0x9421 DUP2 PUSH2 0x93E8 JUMP JUMPDEST SWAP1 POP SWAP2 SWAP1 POP JUMP JUMPDEST PUSH32 0x57726F6E672063616E64696461746520696E6465780000000000000000000000 PUSH0 DUP3 ADD MSTORE POP JUMP JUMPDEST PUSH0 PUSH2 0x945C PUSH1 0x15 DUP4 PUSH2 0x6ACB JUMP JUMPDEST SWAP2 POP PUSH2 0x9467 DUP3 PUSH2 0x9428 JUMP JUMPDEST PUSH1 0x20 DUP3 ADD SWAP1 POP SWAP2 SWAP1 POP JUMP JUMPDEST PUSH0 PUSH1 0x20 DUP3 ADD SWAP1 POP DUP2 DUP2 SUB PUSH0 DUP4 ADD MSTORE PUSH2 0x9489 DUP2 PUSH2 0x9450 JUMP JUMPDEST SWAP1 POP SWAP2 SWAP1 POP JUMP JUMPDEST PUSH32 0x526570657469746976652063616E64696461746520696E646578000000000000 PUSH0 DUP3 ADD MSTORE POP JUMP JUMPDEST PUSH0 PUSH2 0x94C4 PUSH1 0x1A DUP4 PUSH2 0x6ACB JUMP JUMPDEST SWAP2 POP PUSH2 0x94CF DUP3 PUSH2 0x9490 JUMP JUMPDEST PUSH1 0x20 DUP3 ADD SWAP1 POP SWAP2 SWAP1 POP JUMP JUMPDEST PUSH0 PUSH1 0x20 DUP3 ADD SWAP1 POP DUP2 DUP2 SUB PUSH0 DUP4 ADD MSTORE PUSH2 0x94F1 DUP2 PUSH2 0x94B8 JUMP JUMPDEST SWAP1 POP SWAP2 SWAP1 POP JUMP JUMPDEST PUSH32 0x4F6E6C79206D656D626572732063616E2070726F706F73650000000000000000 PUSH0 DUP3 ADD MSTORE POP JUMP JUMPDEST PUSH0 PUSH2 0x952C PUSH1 0x18 DUP4 PUSH2 0x6ACB JUMP JUMPDEST SWAP2 POP PUSH2 0x9537 DUP3 PUSH2 0x94F8 JUMP JUMPDEST PUSH1 0x20 DUP3 ADD SWAP1 POP SWAP2 SWAP1 POP JUMP JUMPDEST PUSH0 PUSH1 0x20 DUP3 ADD SWAP1 POP DUP2 DUP2 SUB PUSH0 DUP4 ADD MSTORE PUSH2 0x9559 DUP2 PUSH2 0x9520 JUMP JUMPDEST SWAP1 POP SWAP2 SWAP1 POP JUMP JUMPDEST PUSH32 0x526174652063616E6E6F74206578636565642035302500000000000000000000 PUSH0 DUP3 ADD MSTORE POP JUMP JUMPDEST PUSH0 PUSH2 0x9594 PUSH1 0x16 DUP4 PUSH2 0x6ACB JUMP JUMPDEST SWAP2 POP PUSH2 0x959F DUP3 PUSH2 0x9560 JUMP JUMPDEST PUSH1 0x20 DUP3 ADD SWAP1 POP SWAP2 SWAP1 POP JUMP JUMPDEST PUSH0 PUSH1 0x20 DUP3 ADD SWAP1 POP DUP2 DUP2 SUB PUSH0 DUP4 ADD MSTORE PUSH2 0x95C1 DUP2 PUSH2 0x9588 JUMP JUMPDEST SWAP1 POP SWAP2 SWAP1 POP JUMP JUMPDEST PUSH0 PUSH2 0x95D2 DUP3 PUSH2 0x6B21 JUMP JUMPDEST SWAP2 POP PUSH2 0x95DD DUP4 PUSH2 0x6B21 JUMP JUMPDEST SWAP3 POP DUP3 DUP3 SUB SWAP1 POP PUSH1 0xFF DUP2 GT ISZERO PUSH2 0x95F6 JUMPI PUSH2 0x95F5 PUSH2 0x7E25 JUMP JUMPDEST JUMPDEST SWAP3 SWAP2 POP POP JUMP JUMPDEST PUSH0 PUSH2 0x9606 DUP3 PUSH2 0x6B21 JUMP JUMPDEST SWAP2 POP PUSH2 0x9611 DUP4 PUSH2 0x6B21 JUMP JUMPDEST SWAP3 POP DUP3 DUP3 ADD SWAP1 POP PUSH1 0xFF DUP2 GT ISZERO PUSH2 0x962A JUMPI PUSH2 0x9629 PUSH2 0x7E25 JUMP JUMPDEST JUMPDEST SWAP3 SWAP2 POP POP JUMP JUMPDEST PUSH0 PUSH2 0x963A DUP3 PUSH2 0x6B21 JUMP JUMPDEST SWAP2 POP PUSH0 DUP3 SUB PUSH2 0x964C JUMPI PUSH2 0x964B PUSH2 0x7E25 JUMP JUMPDEST JUMPDEST PUSH1 0x1 DUP3 SUB SWAP1 POP SWAP2 SWAP1 POP JUMP JUMPDEST PUSH0 PUSH1 0x80 DUP3 ADD SWAP1 POP PUSH2 0x966A PUSH0 DUP4 ADD DUP8 PUSH2 0x6946 JUMP JUMPDEST PUSH2 0x9677 PUSH1 0x20 DUP4 ADD DUP7 PUSH2 0x6B2D JUMP JUMPDEST PUSH2 0x9684 PUSH1 0x40 DUP4 ADD DUP6 PUSH2 0x6946 JUMP JUMPDEST PUSH2 0x9691 PUSH1 0x60 DUP4 ADD DUP5 PUSH2 0x6B2D JUMP JUMPDEST SWAP6 SWAP5 POP POP POP POP POP JUMP JUMPDEST PUSH32 0x4E487B7100000000000000000000000000000000000000000000000000000000 PUSH0 MSTORE PUSH1 0x12 PUSH1 0x4 MSTORE PUSH1 0x24 PUSH0 REVERT JUMPDEST PUSH0 PUSH2 0x96D1 DUP3 PUSH2 0x6B21 JUMP JUMPDEST SWAP2 POP PUSH2 0x96DC DUP4 PUSH2 0x6B21 JUMP JUMPDEST SWAP3 POP DUP3 PUSH2 0x96EC JUMPI PUSH2 0x96EB PUSH2 0x969A JUMP JUMPDEST JUMPDEST DUP3 DUP3 DIV SWAP1 POP SWAP3 SWAP2 POP POP JUMP JUMPDEST PUSH32 0x43616E6E6F74207374617274207265666572656E64756D207965740000000000 PUSH0 DUP3 ADD MSTORE POP JUMP JUMPDEST PUSH0 PUSH2 0x972B PUSH1 0x1B DUP4 PUSH2 0x6ACB JUMP JUMPDEST SWAP2 POP PUSH2 0x9736 DUP3 PUSH2 0x96F7 JUMP JUMPDEST PUSH1 0x20 DUP3 ADD SWAP1 POP SWAP2 SWAP1 POP JUMP JUMPDEST PUSH0 PUSH1 0x20 DUP3 ADD SWAP1 POP DUP2 DUP2 SUB PUSH0 DUP4 ADD MSTORE PUSH2 0x9758 DUP2 PUSH2 0x971F JUMP JUMPDEST SWAP1 POP SWAP2 SWAP1 POP JUMP JUMPDEST PUSH32 0x416C7265616479207261746966696564206120636F6E737469747574696F6E00 PUSH0 DUP3 ADD MSTORE POP JUMP JUMPDEST PUSH0 PUSH2 0x9793 PUSH1 0x1F DUP4 PUSH2 0x6ACB JUMP JUMPDEST SWAP2 POP PUSH2 0x979E DUP3 PUSH2 0x975F JUMP JUMPDEST PUSH1 0x20 DUP3 ADD SWAP1 POP SWAP2 SWAP1 POP JUMP JUMPDEST PUSH0 PUSH1 0x20 DUP3 ADD SWAP1 POP DUP2 DUP2 SUB PUSH0 DUP4 ADD MSTORE PUSH2 0x97C0 DUP2 PUSH2 0x9787 JUMP JUMPDEST SWAP1 POP SWAP2 SWAP1 POP JUMP JUMPDEST PUSH32 0x4E6F7420656E6F7567682070726F706F73616C73000000000000000000000000 PUSH0 DUP3 ADD MSTORE POP JUMP JUMPDEST PUSH0 PUSH2 0x97FB PUSH1 0x14 DUP4 PUSH2 0x6ACB JUMP JUMPDEST SWAP2 POP PUSH2 0x9806 DUP3 PUSH2 0x97C7 JUMP JUMPDEST PUSH1 0x20 DUP3 ADD SWAP1 POP SWAP2 SWAP1 POP JUMP JUMPDEST PUSH0 PUSH1 0x20 DUP3 ADD SWAP1 POP DUP2 DUP2 SUB PUSH0 DUP4 ADD MSTORE PUSH2 0x9828 DUP2 PUSH2 0x97EF JUMP JUMPDEST SWAP1 POP SWAP2 SWAP1 POP JUMP JUMPDEST PUSH32 0x4E6F7420656E6F75676820766F74657273000000000000000000000000000000 PUSH0 DUP3 ADD MSTORE POP JUMP JUMPDEST PUSH0 PUSH2 0x9863 PUSH1 0x11 DUP4 PUSH2 0x6ACB JUMP JUMPDEST SWAP2 POP PUSH2 0x986E DUP3 PUSH2 0x982F JUMP JUMPDEST PUSH1 0x20 DUP3 ADD SWAP1 POP SWAP2 SWAP1 POP JUMP JUMPDEST PUSH0 PUSH1 0x20 DUP3 ADD SWAP1 POP DUP2 DUP2 SUB PUSH0 DUP4 ADD MSTORE PUSH2 0x9890 DUP2 PUSH2 0x9857 JUMP JUMPDEST SWAP1 POP SWAP2 SWAP1 POP JUMP JUMPDEST PUSH32 0x4E6F7420696E205265666572656E64756D2074696D6500000000000000000000 PUSH0 DUP3 ADD MSTORE POP JUMP JUMPDEST PUSH0 PUSH2 0x98CB PUSH1 0x16 DUP4 PUSH2 0x6ACB JUMP JUMPDEST SWAP2 POP PUSH2 0x98D6 DUP3 PUSH2 0x9897 JUMP JUMPDEST PUSH1 0x20 DUP3 ADD SWAP1 POP SWAP2 SWAP1 POP JUMP JUMPDEST PUSH0 PUSH1 0x20 DUP3 ADD SWAP1 POP DUP2 DUP2 SUB PUSH0 DUP4 ADD MSTORE PUSH2 0x98F8 DUP2 PUSH2 0x98BF JUMP JUMPDEST SWAP1 POP SWAP2 SWAP1 POP JUMP JUMPDEST PUSH32 0x496E76616C69642070726F706F73616C206C6973740000000000000000000000 PUSH0 DUP3 ADD MSTORE POP JUMP JUMPDEST PUSH0 PUSH2 0x9933 PUSH1 0x15 DUP4 PUSH2 0x6ACB JUMP JUMPDEST SWAP2 POP PUSH2 0x993E DUP3 PUSH2 0x98FF JUMP JUMPDEST PUSH1 0x20 DUP3 ADD SWAP1 POP SWAP2 SWAP1 POP JUMP JUMPDEST PUSH0 PUSH1 0x20 DUP3 ADD SWAP1 POP DUP2 DUP2 SUB PUSH0 DUP4 ADD MSTORE PUSH2 0x9960 DUP2 PUSH2 0x9927 JUMP JUMPDEST SWAP1 POP SWAP2 SWAP1 POP JUMP JUMPDEST PUSH32 0x566F746564206F72204E6F74207265676973746572656420656E6F7567682074 PUSH0 DUP3 ADD MSTORE PUSH32 0x696D657300000000000000000000000000000000000000000000000000000000 PUSH1 0x20 DUP3 ADD MSTORE POP JUMP JUMPDEST PUSH0 PUSH2 0x99C1 PUSH1 0x24 DUP4 PUSH2 0x6ACB JUMP JUMPDEST SWAP2 POP PUSH2 0x99CC DUP3 PUSH2 0x9967 JUMP JUMPDEST PUSH1 0x40 DUP3 ADD SWAP1 POP SWAP2 SWAP1 POP JUMP JUMPDEST PUSH0 PUSH1 0x20 DUP3 ADD SWAP1 POP DUP2 DUP2 SUB PUSH0 DUP4 ADD MSTORE PUSH2 0x99EE DUP2 PUSH2 0x99B5 JUMP JUMPDEST SWAP1 POP SWAP2 SWAP1 POP JUMP JUMPDEST PUSH32 0x496E76616C69642070726F706F73616C00000000000000000000000000000000 PUSH0 DUP3 ADD MSTORE POP JUMP JUMPDEST PUSH0 PUSH2 0x9A29 PUSH1 0x10 DUP4 PUSH2 0x6ACB JUMP JUMPDEST SWAP2 POP PUSH2 0x9A34 DUP3 PUSH2 0x99F5 JUMP JUMPDEST PUSH1 0x20 DUP3 ADD SWAP1 POP SWAP2 SWAP1 POP JUMP JUMPDEST PUSH0 PUSH1 0x20 DUP3 ADD SWAP1 POP DUP2 DUP2 SUB PUSH0 DUP4 ADD MSTORE PUSH2 0x9A56 DUP2 PUSH2 0x9A1D JUMP JUMPDEST SWAP1 POP SWAP2 SWAP1 POP JUMP JUMPDEST PUSH32 0x526570657469746976652070726F706F73616C49640000000000000000000000 PUSH0 DUP3 ADD MSTORE POP JUMP JUMPDEST PUSH0 PUSH2 0x9A91 PUSH1 0x15 DUP4 PUSH2 0x6ACB JUMP JUMPDEST SWAP2 POP PUSH2 0x9A9C DUP3 PUSH2 0x9A5D JUMP JUMPDEST PUSH1 0x20 DUP3 ADD SWAP1 POP SWAP2 SWAP1 POP JUMP JUMPDEST PUSH0 PUSH1 0x20 DUP3 ADD SWAP1 POP DUP2 DUP2 SUB PUSH0 DUP4 ADD MSTORE PUSH2 0x9ABE DUP2 PUSH2 0x9A85 JUMP JUMPDEST SWAP1 POP SWAP2 SWAP1 POP JUMP JUMPDEST PUSH32 0x43616C6C20616674657220656C656374696F6E00000000000000000000000000 PUSH0 DUP3 ADD MSTORE POP JUMP JUMPDEST PUSH0 PUSH2 0x9AF9 PUSH1 0x13 DUP4 PUSH2 0x6ACB JUMP JUMPDEST SWAP2 POP PUSH2 0x9B04 DUP3 PUSH2 0x9AC5 JUMP JUMPDEST PUSH1 0x20 DUP3 ADD SWAP1 POP SWAP2 SWAP1 POP JUMP JUMPDEST PUSH0 PUSH1 0x20 DUP3 ADD SWAP1 POP DUP2 DUP2 SUB PUSH0 DUP4 ADD MSTORE PUSH2 0x9B26 DUP2 PUSH2 0x9AED JUMP JUMPDEST SWAP1 POP SWAP2 SWAP1 POP JUMP JUMPDEST PUSH0 PUSH1 0x32 SWAP1 POP SWAP2 SWAP1 POP JUMP JUMPDEST PUSH0 DUP2 SWAP1 POP SWAP3 SWAP2 POP POP JUMP JUMPDEST PUSH0 DUP2 SWAP1 POP SWAP2 SWAP1 POP JUMP JUMPDEST PUSH0 DUP2 PUSH0 SHR SWAP1 POP SWAP2 SWAP1 POP JUMP JUMPDEST PUSH0 PUSH20 0xFFFFFFFFFFFFFFFFFFFFFFFFFFFFFFFFFFFFFFFF DUP3 AND SWAP1 POP SWAP2 SWAP1 POP JUMP JUMPDEST PUSH0 PUSH2 0x9B86 PUSH2 0x9B81 DUP4 PUSH2 0x9B4A JUMP JUMPDEST PUSH2 0x9B55 JUMP JUMPDEST SWAP1 POP SWAP2 SWAP1 POP JUMP JUMPDEST PUSH0 PUSH2 0x9B98 DUP3 SLOAD PUSH2 0x9B74 JUMP JUMPDEST SWAP1 POP SWAP2 SWAP1 POP JUMP JUMPDEST PUSH0 PUSH1 0x1 DUP3 ADD SWAP1 POP SWAP2 SWAP1 POP JUMP JUMPDEST PUSH2 0x9BB4 DUP2 PUSH2 0x9B2D JUMP JUMPDEST PUSH2 0x9BBE DUP2 DUP5 PUSH2 0x9B37 JUMP JUMPDEST SWAP3 POP PUSH2 0x9BC9 DUP3 PUSH2 0x9B41 JUMP JUMPDEST DUP1 PUSH0 JUMPDEST DUP4 DUP2 LT ISZERO PUSH2 0x9C00 JUMPI PUSH2 0x9BDD DUP3 PUSH2 0x9B8D JUMP JUMPDEST PUSH2 0x9BE7 DUP8 DUP3 PUSH2 0x819A JUMP JUMPDEST SWAP7 POP PUSH2 0x9BF2 DUP4 PUSH2 0x9B9F JUMP JUMPDEST SWAP3 POP POP PUSH1 0x1 DUP2 ADD SWAP1 POP PUSH2 0x9BCC JUMP JUMPDEST POP POP POP POP POP POP JUMP JUMPDEST PUSH0 PUSH2 0x9C13 DUP3 DUP5 PUSH2 0x9BAB JUMP JUMPDEST PUSH2 0x640 DUP3 ADD SWAP2 POP DUP2 SWAP1 POP SWAP3 SWAP2 POP POP JUMP JUMPDEST PUSH32 0x496E76616C696420636F6E737469747574696F6E2070726F706F73616C204944 PUSH0 DUP3 ADD MSTORE POP JUMP JUMPDEST PUSH0 PUSH2 0x9C57 PUSH1 0x20 DUP4 PUSH2 0x6ACB JUMP JUMPDEST SWAP2 POP PUSH2 0x9C62 DUP3 PUSH2 0x9C23 JUMP JUMPDEST PUSH1 0x20 DUP3 ADD SWAP1 POP SWAP2 SWAP1 POP JUMP JUMPDEST PUSH0 PUSH1 0x20 DUP3 ADD SWAP1 POP DUP2 DUP2 SUB PUSH0 DUP4 ADD MSTORE PUSH2 0x9C84 DUP2 PUSH2 0x9C4B JUMP JUMPDEST SWAP1 POP SWAP2 SWAP1 POP JUMP INVALID LOG2 PUSH5 0x6970667358 0x22 SLT KECCAK256 DELEGATECALL SSTORE 0x4B BYTE SGT EXTCODECOPY DUP12 LT 0xF9 MSTORE 0xD3 0xE4 0xD0 DUP6 SWAP2 0xE0 MLOAD COINBASE 0xCB EXTCODEHASH 0xAD SUB PUSH23 0xC5760F96CDAEDFD2C564736F6C634300081A0033000000 "
		},
		"gasEstimates": {
			"creation": {
				"codeDepositCost": "8025800",
				"executionCost": "infinite",
				"totalCost": "infinite"
			},
			"external": {
				"GOV_LENGTH()": "438",
				"LEAD_PERIOD()": "394",
				"MAX_APPROVALS()": "393",
				"MIN_PROPOSALS()": "444",
				"MIN_VOTERS()": "465",
				"N_MEMBERS()": "464",
				"RANDOM_VOTERS()": "399",
				"REG_FEE()": "416",
				"REG_TIME()": "459",
				"REQUIRED_SCORE()": "393",
				"SUBMISSION_FEE()": "436",
				"SUPER_MAJORITY()": "420",
				"VOTER_BATCH()": "398",
				"activeBillByMember(address)": "2893",
				"addVoter(bytes32[10],address[10])": "infinite",
				"approveRegistrar(address,int8)": "infinite",
				"bills(uint256)": "infinite",
				"candidateInfo(address)": "infinite",
				"candidateList(uint256)": "5078",
				"changeLeader()": "infinite",
				"constitutionProposals(uint256)": "infinite",
				"currentLeaderAddress()": "2692",
				"currentLeaderNumber()": "2494",
				"currentRate()": "2579",
				"electionEnd()": "2537",
				"getBillInfo(uint256)": "infinite",
				"getCandidateInfo(uint256)": "infinite",
				"getConstitution(uint256)": "infinite",
				"getCurrentPhase()": "infinite",
				"getElectionResults()": "infinite",
				"getHashStatus(bytes32)": "2879",
				"getMemberActiveBill(address)": "5166",
				"getReferendumResults()": "infinite",
				"getRegistrarsOfHash(bytes32)": "infinite",
				"getVoteTime(address)": "2896",
				"getVoterStatus(address)": "2896",
				"getVotingTimeBill(uint256,address)": "infinite",
				"interestPeriods(uint256)": "infinite",
				"lend()": "70549",
				"loansByLender(address,uint256)": "infinite",
				"memberApprovalCount(address)": "2937",
				"memberRank(address)": "2944",
				"memberRegistrar(address,address)": "infinite",
				"memberVotedAt(address,uint256)": "infinite",
				"membersElected()": "2580",
				"numberOfRates()": "2579",
				"proposalCount()": "2536",
				"proposeBill(string,(uint256,address,string)[])": "infinite",
				"proposeConstitution((string,string,string,string,bytes32,string,uint256,uint256))": "infinite",
				"proposeRate(uint256)": "infinite",
				"randomizer()": "2593",
				"ratifiedConstitutionId()": "2491",
				"referendumEndTime()": "2537",
				"referendumVoterCount()": "2533",
				"registerAsCandidate(string,string,string)": "infinite",
				"registerVoterBatch(bytes32[10],address[10])": "infinite",
				"registrarScore(address)": "2892",
				"sortedRates(uint256)": "infinite",
				"startReferendum()": "infinite",
				"startTime()": "infinite",
				"treasuryReserve()": "446",
				"voteCandidates(uint256[])": "infinite",
				"voteForBill(uint256)": "infinite",
				"voteInReferendum(uint256[])": "infinite",
				"withdrawBill(uint256)": "39627"
			},
			"internal": {
				"_executeBill(uint256)": "infinite"
			}
		},
		"methodIdentifiers": {
			"GOV_LENGTH()": "5004e24a",
			"LEAD_PERIOD()": "49066e79",
			"MAX_APPROVALS()": "beb54795",
			"MIN_PROPOSALS()": "30814200",
			"MIN_VOTERS()": "d1791ae0",
			"N_MEMBERS()": "e292bf16",
			"RANDOM_VOTERS()": "3def77b7",
			"REG_FEE()": "4ebeb109",
			"REG_TIME()": "47f7b722",
			"REQUIRED_SCORE()": "54c17527",
			"SUBMISSION_FEE()": "7d48536d",
			"SUPER_MAJORITY()": "b85c2292",
			"VOTER_BATCH()": "b5ba9795",
			"activeBillByMember(address)": "198ccd2c",
			"addVoter(bytes32[10],address[10])": "26c29449",
			"approveRegistrar(address,int8)": "29c83be1",
			"bills(uint256)": "28bdcde8",
			"candidateInfo(address)": "e965b7c9",
			"candidateList(uint256)": "b13c744b",
			"changeLeader()": "a5f5b1bf",
			"constitutionProposals(uint256)": "428027ac",
			"currentLeaderAddress()": "7da4ce83",
			"currentLeaderNumber()": "16392372",
			"currentRate()": "f9f8bdb7",
			"electionEnd()": "ce7ea161",
			"getBillInfo(uint256)": "52f61b05",
			"getCandidateInfo(uint256)": "70f67cfe",
			"getConstitution(uint256)": "f3a4aba9",
			"getCurrentPhase()": "a3a40ea5",
			"getElectionResults()": "eccf1f10",
			"getHashStatus(bytes32)": "7f4241e7",
			"getMemberActiveBill(address)": "8e0ca5ad",
			"getReferendumResults()": "452d32bb",
			"getRegistrarsOfHash(bytes32)": "08ec6a19",
			"getVoteTime(address)": "d90d7cd8",
			"getVoterStatus(address)": "78e3ef20",
			"getVotingTimeBill(uint256,address)": "d9688f03",
			"interestPeriods(uint256)": "f33e9573",
			"lend()": "97dffc61",
			"loansByLender(address,uint256)": "6becc9f3",
			"memberApprovalCount(address)": "3590c0fd",
			"memberRank(address)": "eab536fc",
			"memberRegistrar(address,address)": "071a3474",
			"memberVotedAt(address,uint256)": "2190bee8",
			"membersElected()": "089e35b8",
			"numberOfRates()": "8f3218df",
			"proposalCount()": "da35c664",
			"proposeBill(string,(uint256,address,string)[])": "5e8523a9",
			"proposeConstitution((string,string,string,string,bytes32,string,uint256,uint256))": "5f02b56d",
			"proposeRate(uint256)": "bdc8e7b3",
			"randomizer()": "f10fb584",
			"ratifiedConstitutionId()": "eedb2d28",
			"referendumEndTime()": "b0feb260",
			"referendumVoterCount()": "e42a54c4",
			"registerAsCandidate(string,string,string)": "079ddd11",
			"registerVoterBatch(bytes32[10],address[10])": "99b0d39c",
			"registrarScore(address)": "9a741327",
			"sortedRates(uint256)": "9dc99455",
			"startReferendum()": "be003ee6",
			"startTime()": "78e97925",
			"treasuryReserve()": "59297dbf",
			"voteCandidates(uint256[])": "a6a5ad12",
			"voteForBill(uint256)": "5bd03e9d",
			"voteInReferendum(uint256[])": "c1b13157",
			"withdrawBill(uint256)": "58e1cbee"
		}
	},
	"abi": [
		{
			"inputs": [
				{
					"internalType": "address",
					"name": "_randomizer",
					"type": "address"
				},
				{
					"internalType": "string",
					"name": "_provisions",
					"type": "string"
				}
			],
			"stateMutability": "nonpayable",
			"type": "constructor"
		},
		{
			"anonymous": false,
			"inputs": [
				{
					"indexed": true,
					"internalType": "uint256",
					"name": "billId",
					"type": "uint256"
				}
			],
			"name": "BillPassed",
			"type": "event"
		},
		{
			"anonymous": false,
			"inputs": [
				{
					"indexed": true,
					"internalType": "uint256",
					"name": "billId",
					"type": "uint256"
				},
				{
					"indexed": true,
					"internalType": "address",
					"name": "proposer",
					"type": "address"
				},
				{
					"indexed": false,
					"internalType": "string",
					"name": "provisions",
					"type": "string"
				}
			],
			"name": "BillProposed",
			"type": "event"
		},
		{
			"anonymous": false,
			"inputs": [
				{
					"indexed": true,
					"internalType": "uint256",
					"name": "billId",
					"type": "uint256"
				},
				{
					"indexed": true,
					"internalType": "address",
					"name": "voter",
					"type": "address"
				}
			],
			"name": "BillVoted",
			"type": "event"
		},
		{
			"anonymous": false,
			"inputs": [
				{
					"indexed": true,
					"internalType": "uint256",
					"name": "billId",
					"type": "uint256"
				}
			],
			"name": "BillWithdrawn",
			"type": "event"
		},
		{
			"anonymous": false,
			"inputs": [
				{
					"indexed": true,
					"internalType": "address",
					"name": "candidate",
					"type": "address"
				},
				{
					"indexed": false,
					"internalType": "string",
					"name": "fullName",
					"type": "string"
				},
				{
					"indexed": false,
					"internalType": "string",
					"name": "bio",
					"type": "string"
				},
				{
					"indexed": false,
					"internalType": "string",
					"name": "website",
					"type": "string"
				}
			],
			"name": "CandidateRegistered",
			"type": "event"
		},
		{
			"anonymous": false,
			"inputs": [
				{
					"indexed": true,
					"internalType": "uint256",
					"name": "proposalId",
					"type": "uint256"
				},
				{
					"components": [
						{
							"internalType": "string",
							"name": "description",
							"type": "string"
						},
						{
							"internalType": "string",
							"name": "constitutionText",
							"type": "string"
						},
						{
							"internalType": "string",
							"name": "implementationCode",
							"type": "string"
						},
						{
							"internalType": "string",
							"name": "proposerIdentity",
							"type": "string"
						},
						{
							"internalType": "bytes32",
							"name": "hashedOffChain",
							"type": "bytes32"
						},
						{
							"internalType": "string",
							"name": "supportingMaterials",
							"type": "string"
						},
						{
							"internalType": "uint256",
							"name": "submittedAt",
							"type": "uint256"
						},
						{
							"internalType": "uint256",
							"name": "voteCount",
							"type": "uint256"
						}
					],
					"indexed": false,
					"internalType": "struct SmartConstitution.ConstitutionProposal",
					"name": "proposal",
					"type": "tuple"
				}
			],
			"name": "ConstitutionProposalSubmitted",
			"type": "event"
		},
		{
			"anonymous": false,
			"inputs": [
				{
					"indexed": true,
					"internalType": "uint256",
					"name": "winningProposalId",
					"type": "uint256"
				},
				{
					"components": [
						{
							"internalType": "string",
							"name": "description",
							"type": "string"
						},
						{
							"internalType": "string",
							"name": "constitutionText",
							"type": "string"
						},
						{
							"internalType": "string",
							"name": "implementationCode",
							"type": "string"
						},
						{
							"internalType": "string",
							"name": "proposerIdentity",
							"type": "string"
						},
						{
							"internalType": "bytes32",
							"name": "hashedOffChain",
							"type": "bytes32"
						},
						{
							"internalType": "string",
							"name": "supportingMaterials",
							"type": "string"
						},
						{
							"internalType": "uint256",
							"name": "submittedAt",
							"type": "uint256"
						},
						{
							"internalType": "uint256",
							"name": "voteCount",
							"type": "uint256"
						}
					],
					"indexed": false,
					"internalType": "struct SmartConstitution.ConstitutionProposal",
					"name": "ratifiedConstitution",
					"type": "tuple"
				}
			],
			"name": "ConstitutionRatified",
			"type": "event"
		},
		{
			"anonymous": false,
			"inputs": [
				{
					"indexed": true,
					"internalType": "address[50]",
					"name": "electedMembers",
					"type": "address[50]"
				},
				{
					"indexed": false,
					"internalType": "address",
					"name": "firstLeader",
					"type": "address"
				}
			],
			"name": "ElectionResults",
			"type": "event"
		},
		{
			"anonymous": false,
			"inputs": [
				{
					"indexed": false,
					"internalType": "uint256",
					"name": "newMedianRate",
					"type": "uint256"
				}
			],
			"name": "InterestRateUpdated",
			"type": "event"
		},
		{
			"anonymous": false,
			"inputs": [
				{
					"indexed": true,
					"internalType": "address",
					"name": "newLeader",
					"type": "address"
				}
			],
			"name": "LeadershipChanged",
			"type": "event"
		},
		{
			"anonymous": false,
			"inputs": [
				{
					"indexed": true,
					"internalType": "address",
					"name": "lender",
					"type": "address"
				},
				{
					"indexed": false,
					"internalType": "int256",
					"name": "amount",
					"type": "int256"
				}
			],
			"name": "LoanReceived",
			"type": "event"
		},
		{
			"anonymous": false,
			"inputs": [
				{
					"indexed": true,
					"internalType": "address",
					"name": "member",
					"type": "address"
				},
				{
					"indexed": false,
					"internalType": "uint256",
					"name": "oldRate",
					"type": "uint256"
				},
				{
					"indexed": false,
					"internalType": "uint8",
					"name": "oldRank",
					"type": "uint8"
				},
				{
					"indexed": false,
					"internalType": "uint256",
					"name": "newRate",
					"type": "uint256"
				},
				{
					"indexed": false,
					"internalType": "uint8",
					"name": "newRank",
					"type": "uint8"
				}
			],
			"name": "MemberRateChanged",
			"type": "event"
		},
		{
			"anonymous": false,
			"inputs": [],
			"name": "ReferendumStarted",
			"type": "event"
		},
		{
			"anonymous": false,
			"inputs": [
				{
					"indexed": true,
					"internalType": "address",
					"name": "voter",
					"type": "address"
				}
			],
			"name": "ReferendumVoteCast",
			"type": "event"
		},
		{
			"anonymous": false,
			"inputs": [
				{
					"indexed": true,
					"internalType": "address",
					"name": "voter",
					"type": "address"
				}
			],
			"name": "VoteCast",
			"type": "event"
		},
		{
			"anonymous": false,
			"inputs": [
				{
					"indexed": true,
					"internalType": "address[10]",
					"name": "voter",
					"type": "address[10]"
				},
				{
					"indexed": false,
					"internalType": "uint256",
					"name": "addedVoterCount",
					"type": "uint256"
				}
			],
			"name": "VoterAdded",
			"type": "event"
		},
		{
			"anonymous": false,
			"inputs": [
				{
					"indexed": true,
					"internalType": "address[10]",
					"name": "voter",
					"type": "address[10]"
				},
				{
					"indexed": false,
					"internalType": "address",
					"name": "registrar",
					"type": "address"
				},
				{
					"indexed": false,
					"internalType": "uint256",
					"name": "referendumVoterCount",
					"type": "uint256"
				}
			],
			"name": "VoterRegistered",
			"type": "event"
		},
		{
			"inputs": [],
			"name": "GOV_LENGTH",
			"outputs": [
				{
					"internalType": "uint256",
					"name": "",
					"type": "uint256"
				}
			],
			"stateMutability": "view",
			"type": "function"
		},
		{
			"inputs": [],
			"name": "LEAD_PERIOD",
			"outputs": [
				{
					"internalType": "uint256",
					"name": "",
					"type": "uint256"
				}
			],
			"stateMutability": "view",
			"type": "function"
		},
		{
			"inputs": [],
			"name": "MAX_APPROVALS",
			"outputs": [
				{
					"internalType": "uint256",
					"name": "",
					"type": "uint256"
				}
			],
			"stateMutability": "view",
			"type": "function"
		},
		{
			"inputs": [],
			"name": "MIN_PROPOSALS",
			"outputs": [
				{
					"internalType": "uint8",
					"name": "",
					"type": "uint8"
				}
			],
			"stateMutability": "view",
			"type": "function"
		},
		{
			"inputs": [],
			"name": "MIN_VOTERS",
			"outputs": [
				{
					"internalType": "uint32",
					"name": "",
					"type": "uint32"
				}
			],
			"stateMutability": "view",
			"type": "function"
		},
		{
			"inputs": [],
			"name": "N_MEMBERS",
			"outputs": [
				{
					"internalType": "uint8",
					"name": "",
					"type": "uint8"
				}
			],
			"stateMutability": "view",
			"type": "function"
		},
		{
			"inputs": [],
			"name": "RANDOM_VOTERS",
			"outputs": [
				{
					"internalType": "uint32",
					"name": "",
					"type": "uint32"
				}
			],
			"stateMutability": "view",
			"type": "function"
		},
		{
			"inputs": [],
			"name": "REG_FEE",
			"outputs": [
				{
					"internalType": "uint256",
					"name": "",
					"type": "uint256"
				}
			],
			"stateMutability": "view",
			"type": "function"
		},
		{
			"inputs": [],
			"name": "REG_TIME",
			"outputs": [
				{
					"internalType": "uint256",
					"name": "",
					"type": "uint256"
				}
			],
			"stateMutability": "view",
			"type": "function"
		},
		{
			"inputs": [],
			"name": "REQUIRED_SCORE",
			"outputs": [
				{
					"internalType": "int256",
					"name": "",
					"type": "int256"
				}
			],
			"stateMutability": "view",
			"type": "function"
		},
		{
			"inputs": [],
			"name": "SUBMISSION_FEE",
			"outputs": [
				{
					"internalType": "uint256",
					"name": "",
					"type": "uint256"
				}
			],
			"stateMutability": "view",
			"type": "function"
		},
		{
			"inputs": [],
			"name": "SUPER_MAJORITY",
			"outputs": [
				{
					"internalType": "uint8",
					"name": "",
					"type": "uint8"
				}
			],
			"stateMutability": "view",
			"type": "function"
		},
		{
			"inputs": [],
			"name": "VOTER_BATCH",
			"outputs": [
				{
					"internalType": "uint32",
					"name": "",
					"type": "uint32"
				}
			],
			"stateMutability": "view",
			"type": "function"
		},
		{
			"inputs": [
				{
					"internalType": "address",
					"name": "",
					"type": "address"
				}
			],
			"name": "activeBillByMember",
			"outputs": [
				{
					"internalType": "uint256",
					"name": "",
					"type": "uint256"
				}
			],
			"stateMutability": "view",
			"type": "function"
		},
		{
			"inputs": [
				{
					"internalType": "bytes32[10]",
					"name": "voterHashes",
					"type": "bytes32[10]"
				},
				{
					"internalType": "address[10]",
					"name": "voterAddresses",
					"type": "address[10]"
				}
			],
			"name": "addVoter",
			"outputs": [],
			"stateMutability": "nonpayable",
			"type": "function"
		},
		{
			"inputs": [
				{
					"internalType": "address",
					"name": "registrar",
					"type": "address"
				},
				{
					"internalType": "int8",
					"name": "vote",
					"type": "int8"
				}
			],
			"name": "approveRegistrar",
			"outputs": [],
			"stateMutability": "nonpayable",
			"type": "function"
		},
		{
			"inputs": [
				{
					"internalType": "uint256",
					"name": "",
					"type": "uint256"
				}
			],
			"name": "bills",
			"outputs": [
				{
					"internalType": "address",
					"name": "proposer",
					"type": "address"
				},
				{
					"internalType": "string",
					"name": "provisions",
					"type": "string"
				},
				{
					"internalType": "uint256",
					"name": "proposedAt",
					"type": "uint256"
				},
				{
					"internalType": "uint256",
					"name": "executedAt",
					"type": "uint256"
				},
				{
					"internalType": "uint256",
					"name": "withdrawnAt",
					"type": "uint256"
				},
				{
					"internalType": "uint8",
					"name": "yesVotes",
					"type": "uint8"
				}
			],
			"stateMutability": "view",
			"type": "function"
		},
		{
			"inputs": [
				{
					"internalType": "address",
					"name": "",
					"type": "address"
				}
			],
			"name": "candidateInfo",
			"outputs": [
				{
					"internalType": "string",
					"name": "fullName",
					"type": "string"
				},
				{
					"internalType": "string",
					"name": "bio",
					"type": "string"
				},
				{
					"internalType": "string",
					"name": "website",
					"type": "string"
				},
				{
					"internalType": "uint256",
					"name": "registeredAt",
					"type": "uint256"
				},
				{
					"internalType": "uint256",
					"name": "voteCount",
					"type": "uint256"
				},
				{
					"internalType": "bool",
					"name": "electedMember",
					"type": "bool"
				},
				{
					"internalType": "uint256",
					"name": "leaderAt",
					"type": "uint256"
				}
			],
			"stateMutability": "view",
			"type": "function"
		},
		{
			"inputs": [
				{
					"internalType": "uint256",
					"name": "",
					"type": "uint256"
				}
			],
			"name": "candidateList",
			"outputs": [
				{
					"internalType": "address",
					"name": "",
					"type": "address"
				}
			],
			"stateMutability": "view",
			"type": "function"
		},
		{
			"inputs": [],
			"name": "changeLeader",
			"outputs": [],
			"stateMutability": "nonpayable",
			"type": "function"
		},
		{
			"inputs": [
				{
					"internalType": "uint256",
					"name": "",
					"type": "uint256"
				}
			],
			"name": "constitutionProposals",
			"outputs": [
				{
					"internalType": "string",
					"name": "description",
					"type": "string"
				},
				{
					"internalType": "string",
					"name": "constitutionText",
					"type": "string"
				},
				{
					"internalType": "string",
					"name": "implementationCode",
					"type": "string"
				},
				{
					"internalType": "string",
					"name": "proposerIdentity",
					"type": "string"
				},
				{
					"internalType": "bytes32",
					"name": "hashedOffChain",
					"type": "bytes32"
				},
				{
					"internalType": "string",
					"name": "supportingMaterials",
					"type": "string"
				},
				{
					"internalType": "uint256",
					"name": "submittedAt",
					"type": "uint256"
				},
				{
					"internalType": "uint256",
					"name": "voteCount",
					"type": "uint256"
				}
			],
			"stateMutability": "view",
			"type": "function"
		},
		{
			"inputs": [],
			"name": "currentLeaderAddress",
			"outputs": [
				{
					"internalType": "address",
					"name": "",
					"type": "address"
				}
			],
			"stateMutability": "view",
			"type": "function"
		},
		{
			"inputs": [],
			"name": "currentLeaderNumber",
			"outputs": [
				{
					"internalType": "uint256",
					"name": "",
					"type": "uint256"
				}
			],
			"stateMutability": "view",
			"type": "function"
		},
		{
			"inputs": [],
			"name": "currentRate",
			"outputs": [
				{
					"internalType": "uint256",
					"name": "",
					"type": "uint256"
				}
			],
			"stateMutability": "view",
			"type": "function"
		},
		{
			"inputs": [],
			"name": "electionEnd",
			"outputs": [
				{
					"internalType": "uint256",
					"name": "",
					"type": "uint256"
				}
			],
			"stateMutability": "view",
			"type": "function"
		},
		{
			"inputs": [
				{
					"internalType": "uint256",
					"name": "billId",
					"type": "uint256"
				}
			],
			"name": "getBillInfo",
			"outputs": [
				{
					"components": [
						{
							"internalType": "address",
							"name": "proposer",
							"type": "address"
						},
						{
							"internalType": "string",
							"name": "provisions",
							"type": "string"
						},
						{
							"internalType": "uint256",
							"name": "proposedAt",
							"type": "uint256"
						},
						{
							"internalType": "uint256",
							"name": "executedAt",
							"type": "uint256"
						},
						{
							"internalType": "uint256",
							"name": "withdrawnAt",
							"type": "uint256"
						},
						{
							"internalType": "uint8",
							"name": "yesVotes",
							"type": "uint8"
						},
						{
							"components": [
								{
									"internalType": "uint256",
									"name": "amount",
									"type": "uint256"
								},
								{
									"internalType": "address",
									"name": "recipient",
									"type": "address"
								},
								{
									"internalType": "string",
									"name": "reason",
									"type": "string"
								}
							],
							"internalType": "struct SmartConstitution.Payment[]",
							"name": "payments",
							"type": "tuple[]"
						}
					],
					"internalType": "struct SmartConstitution.Bill",
					"name": "",
					"type": "tuple"
				}
			],
			"stateMutability": "view",
			"type": "function"
		},
		{
			"inputs": [
				{
					"internalType": "uint256",
					"name": "candidateID",
					"type": "uint256"
				}
			],
			"name": "getCandidateInfo",
			"outputs": [
				{
					"components": [
						{
							"internalType": "string",
							"name": "fullName",
							"type": "string"
						},
						{
							"internalType": "string",
							"name": "bio",
							"type": "string"
						},
						{
							"internalType": "string",
							"name": "website",
							"type": "string"
						},
						{
							"internalType": "uint256",
							"name": "registeredAt",
							"type": "uint256"
						},
						{
							"internalType": "uint256",
							"name": "voteCount",
							"type": "uint256"
						},
						{
							"internalType": "bool",
							"name": "electedMember",
							"type": "bool"
						},
						{
							"internalType": "uint256",
							"name": "leaderAt",
							"type": "uint256"
						}
					],
					"internalType": "struct SmartConstitution.Candidate",
					"name": "",
					"type": "tuple"
				}
			],
			"stateMutability": "view",
			"type": "function"
		},
		{
			"inputs": [
				{
					"internalType": "uint256",
					"name": "proposalId",
					"type": "uint256"
				}
			],
			"name": "getConstitution",
			"outputs": [
				{
					"components": [
						{
							"internalType": "string",
							"name": "description",
							"type": "string"
						},
						{
							"internalType": "string",
							"name": "constitutionText",
							"type": "string"
						},
						{
							"internalType": "string",
							"name": "implementationCode",
							"type": "string"
						},
						{
							"internalType": "string",
							"name": "proposerIdentity",
							"type": "string"
						},
						{
							"internalType": "bytes32",
							"name": "hashedOffChain",
							"type": "bytes32"
						},
						{
							"internalType": "string",
							"name": "supportingMaterials",
							"type": "string"
						},
						{
							"internalType": "uint256",
							"name": "submittedAt",
							"type": "uint256"
						},
						{
							"internalType": "uint256",
							"name": "voteCount",
							"type": "uint256"
						}
					],
					"internalType": "struct SmartConstitution.ConstitutionProposal",
					"name": "",
					"type": "tuple"
				}
			],
			"stateMutability": "view",
			"type": "function"
		},
		{
			"inputs": [],
			"name": "getCurrentPhase",
			"outputs": [
				{
					"internalType": "enum SmartConstitution.Phase",
					"name": "",
					"type": "uint8"
				}
			],
			"stateMutability": "nonpayable",
			"type": "function"
		},
		{
			"inputs": [],
			"name": "getElectionResults",
			"outputs": [
				{
					"internalType": "address[50]",
					"name": "",
					"type": "address[50]"
				}
			],
			"stateMutability": "nonpayable",
			"type": "function"
		},
		{
			"inputs": [
				{
					"internalType": "bytes32",
					"name": "voterHash",
					"type": "bytes32"
				}
			],
			"name": "getHashStatus",
			"outputs": [
				{
					"internalType": "bool",
					"name": "",
					"type": "bool"
				}
			],
			"stateMutability": "view",
			"type": "function"
		},
		{
			"inputs": [
				{
					"internalType": "address",
					"name": "memberAddress",
					"type": "address"
				}
			],
			"name": "getMemberActiveBill",
			"outputs": [
				{
					"internalType": "uint256",
					"name": "",
					"type": "uint256"
				}
			],
			"stateMutability": "view",
			"type": "function"
		},
		{
			"inputs": [],
			"name": "getReferendumResults",
			"outputs": [
				{
					"internalType": "uint256",
					"name": "",
					"type": "uint256"
				},
				{
					"components": [
						{
							"internalType": "string",
							"name": "description",
							"type": "string"
						},
						{
							"internalType": "string",
							"name": "constitutionText",
							"type": "string"
						},
						{
							"internalType": "string",
							"name": "implementationCode",
							"type": "string"
						},
						{
							"internalType": "string",
							"name": "proposerIdentity",
							"type": "string"
						},
						{
							"internalType": "bytes32",
							"name": "hashedOffChain",
							"type": "bytes32"
						},
						{
							"internalType": "string",
							"name": "supportingMaterials",
							"type": "string"
						},
						{
							"internalType": "uint256",
							"name": "submittedAt",
							"type": "uint256"
						},
						{
							"internalType": "uint256",
							"name": "voteCount",
							"type": "uint256"
						}
					],
					"internalType": "struct SmartConstitution.ConstitutionProposal",
					"name": "",
					"type": "tuple"
				}
			],
			"stateMutability": "nonpayable",
			"type": "function"
		},
		{
			"inputs": [
				{
					"internalType": "bytes32",
					"name": "voterHash",
					"type": "bytes32"
				}
			],
			"name": "getRegistrarsOfHash",
			"outputs": [
				{
					"internalType": "address[2]",
					"name": "",
					"type": "address[2]"
				}
			],
			"stateMutability": "view",
			"type": "function"
		},
		{
			"inputs": [
				{
					"internalType": "address",
					"name": "voterAddress",
					"type": "address"
				}
			],
			"name": "getVoteTime",
			"outputs": [
				{
					"internalType": "uint256",
					"name": "",
					"type": "uint256"
				}
			],
			"stateMutability": "view",
			"type": "function"
		},
		{
			"inputs": [
				{
					"internalType": "address",
					"name": "voterAddress",
					"type": "address"
				}
			],
			"name": "getVoterStatus",
			"outputs": [
				{
					"internalType": "uint256",
					"name": "",
					"type": "uint256"
				}
			],
			"stateMutability": "view",
			"type": "function"
		},
		{
			"inputs": [
				{
					"internalType": "uint256",
					"name": "billId",
					"type": "uint256"
				},
				{
					"internalType": "address",
					"name": "memberAddress",
					"type": "address"
				}
			],
			"name": "getVotingTimeBill",
			"outputs": [
				{
					"internalType": "uint256",
					"name": "",
					"type": "uint256"
				}
			],
			"stateMutability": "view",
			"type": "function"
		},
		{
			"inputs": [
				{
					"internalType": "uint256",
					"name": "",
					"type": "uint256"
				}
			],
			"name": "interestPeriods",
			"outputs": [
				{
					"internalType": "uint256",
					"name": "rate",
					"type": "uint256"
				},
				{
					"internalType": "uint256",
					"name": "startedAt",
					"type": "uint256"
				}
			],
			"stateMutability": "view",
			"type": "function"
		},
		{
			"inputs": [],
			"name": "lend",
			"outputs": [],
			"stateMutability": "payable",
			"type": "function"
		},
		{
			"inputs": [
				{
					"internalType": "address",
					"name": "",
					"type": "address"
				},
				{
					"internalType": "uint256",
					"name": "",
					"type": "uint256"
				}
			],
			"name": "loansByLender",
			"outputs": [
				{
					"internalType": "int256",
					"name": "amount",
					"type": "int256"
				},
				{
					"internalType": "uint256",
					"name": "timestamp",
					"type": "uint256"
				}
			],
			"stateMutability": "view",
			"type": "function"
		},
		{
			"inputs": [
				{
					"internalType": "address",
					"name": "",
					"type": "address"
				}
			],
			"name": "memberApprovalCount",
			"outputs": [
				{
					"internalType": "uint256",
					"name": "",
					"type": "uint256"
				}
			],
			"stateMutability": "view",
			"type": "function"
		},
		{
			"inputs": [
				{
					"internalType": "address",
					"name": "",
					"type": "address"
				}
			],
			"name": "memberRank",
			"outputs": [
				{
					"internalType": "uint8",
					"name": "",
					"type": "uint8"
				}
			],
			"stateMutability": "view",
			"type": "function"
		},
		{
			"inputs": [
				{
					"internalType": "address",
					"name": "",
					"type": "address"
				},
				{
					"internalType": "address",
					"name": "",
					"type": "address"
				}
			],
			"name": "memberRegistrar",
			"outputs": [
				{
					"internalType": "int8",
					"name": "",
					"type": "int8"
				}
			],
			"stateMutability": "view",
			"type": "function"
		},
		{
			"inputs": [
				{
					"internalType": "address",
					"name": "",
					"type": "address"
				},
				{
					"internalType": "uint256",
					"name": "",
					"type": "uint256"
				}
			],
			"name": "memberVotedAt",
			"outputs": [
				{
					"internalType": "uint256",
					"name": "",
					"type": "uint256"
				}
			],
			"stateMutability": "view",
			"type": "function"
		},
		{
			"inputs": [],
			"name": "membersElected",
			"outputs": [
				{
					"internalType": "bool",
					"name": "",
					"type": "bool"
				}
			],
			"stateMutability": "view",
			"type": "function"
		},
		{
			"inputs": [],
			"name": "numberOfRates",
			"outputs": [
				{
					"internalType": "uint8",
					"name": "",
					"type": "uint8"
				}
			],
			"stateMutability": "view",
			"type": "function"
		},
		{
			"inputs": [],
			"name": "proposalCount",
			"outputs": [
				{
					"internalType": "uint256",
					"name": "",
					"type": "uint256"
				}
			],
			"stateMutability": "view",
			"type": "function"
		},
		{
			"inputs": [
				{
					"internalType": "string",
					"name": "_provisions",
					"type": "string"
				},
				{
					"components": [
						{
							"internalType": "uint256",
							"name": "amount",
							"type": "uint256"
						},
						{
							"internalType": "address",
							"name": "recipient",
							"type": "address"
						},
						{
							"internalType": "string",
							"name": "reason",
							"type": "string"
						}
					],
					"internalType": "struct SmartConstitution.Payment[]",
					"name": "_payments",
					"type": "tuple[]"
				}
			],
			"name": "proposeBill",
			"outputs": [
				{
					"internalType": "uint256",
					"name": "",
					"type": "uint256"
				}
			],
			"stateMutability": "nonpayable",
			"type": "function"
		},
		{
			"inputs": [
				{
					"components": [
						{
							"internalType": "string",
							"name": "description",
							"type": "string"
						},
						{
							"internalType": "string",
							"name": "constitutionText",
							"type": "string"
						},
						{
							"internalType": "string",
							"name": "implementationCode",
							"type": "string"
						},
						{
							"internalType": "string",
							"name": "proposerIdentity",
							"type": "string"
						},
						{
							"internalType": "bytes32",
							"name": "hashedOffChain",
							"type": "bytes32"
						},
						{
							"internalType": "string",
							"name": "supportingMaterials",
							"type": "string"
						},
						{
							"internalType": "uint256",
							"name": "submittedAt",
							"type": "uint256"
						},
						{
							"internalType": "uint256",
							"name": "voteCount",
							"type": "uint256"
						}
					],
					"internalType": "struct SmartConstitution.ConstitutionProposal",
					"name": "_proposal",
					"type": "tuple"
				}
			],
			"name": "proposeConstitution",
			"outputs": [],
			"stateMutability": "payable",
			"type": "function"
		},
		{
			"inputs": [
				{
					"internalType": "uint256",
					"name": "newRate",
					"type": "uint256"
				}
			],
			"name": "proposeRate",
			"outputs": [],
			"stateMutability": "nonpayable",
			"type": "function"
		},
		{
			"inputs": [],
			"name": "randomizer",
			"outputs": [
				{
					"internalType": "address",
					"name": "",
					"type": "address"
				}
			],
			"stateMutability": "view",
			"type": "function"
		},
		{
			"inputs": [],
			"name": "ratifiedConstitutionId",
			"outputs": [
				{
					"internalType": "uint256",
					"name": "",
					"type": "uint256"
				}
			],
			"stateMutability": "view",
			"type": "function"
		},
		{
			"inputs": [],
			"name": "referendumEndTime",
			"outputs": [
				{
					"internalType": "uint256",
					"name": "",
					"type": "uint256"
				}
			],
			"stateMutability": "view",
			"type": "function"
		},
		{
			"inputs": [],
			"name": "referendumVoterCount",
			"outputs": [
				{
					"internalType": "uint32",
					"name": "",
					"type": "uint32"
				}
			],
			"stateMutability": "view",
			"type": "function"
		},
		{
			"inputs": [
				{
					"internalType": "string",
					"name": "_fullName",
					"type": "string"
				},
				{
					"internalType": "string",
					"name": "_bio",
					"type": "string"
				},
				{
					"internalType": "string",
					"name": "_website",
					"type": "string"
				}
			],
			"name": "registerAsCandidate",
			"outputs": [],
			"stateMutability": "payable",
			"type": "function"
		},
		{
			"inputs": [
				{
					"internalType": "bytes32[10]",
					"name": "voterHashes",
					"type": "bytes32[10]"
				},
				{
					"internalType": "address[10]",
					"name": "voterAddresses",
					"type": "address[10]"
				}
			],
			"name": "registerVoterBatch",
			"outputs": [],
			"stateMutability": "nonpayable",
			"type": "function"
		},
		{
			"inputs": [
				{
					"internalType": "address",
					"name": "",
					"type": "address"
				}
			],
			"name": "registrarScore",
			"outputs": [
				{
					"internalType": "int256",
					"name": "",
					"type": "int256"
				}
			],
			"stateMutability": "view",
			"type": "function"
		},
		{
			"inputs": [
				{
					"internalType": "uint256",
					"name": "",
					"type": "uint256"
				}
			],
			"name": "sortedRates",
			"outputs": [
				{
					"internalType": "address",
					"name": "member",
					"type": "address"
				},
				{
					"internalType": "uint256",
					"name": "rate",
					"type": "uint256"
				}
			],
			"stateMutability": "view",
			"type": "function"
		},
		{
			"inputs": [],
			"name": "startReferendum",
			"outputs": [],
			"stateMutability": "nonpayable",
			"type": "function"
		},
		{
			"inputs": [],
			"name": "startTime",
			"outputs": [
				{
					"internalType": "uint256",
					"name": "",
					"type": "uint256"
				}
			],
			"stateMutability": "view",
			"type": "function"
		},
		{
			"inputs": [],
			"name": "treasuryReserve",
			"outputs": [
				{
					"internalType": "uint256",
					"name": "",
					"type": "uint256"
				}
			],
			"stateMutability": "view",
			"type": "function"
		},
		{
			"inputs": [
				{
					"internalType": "uint256[]",
					"name": "_candidatesIds",
					"type": "uint256[]"
				}
			],
			"name": "voteCandidates",
			"outputs": [],
			"stateMutability": "nonpayable",
			"type": "function"
		},
		{
			"inputs": [
				{
					"internalType": "uint256",
					"name": "billId",
					"type": "uint256"
				}
			],
			"name": "voteForBill",
			"outputs": [
				{
					"internalType": "uint8",
					"name": "",
					"type": "uint8"
				}
			],
			"stateMutability": "nonpayable",
			"type": "function"
		},
		{
			"inputs": [
				{
					"internalType": "uint256[]",
					"name": "_proposals",
					"type": "uint256[]"
				}
			],
			"name": "voteInReferendum",
			"outputs": [],
			"stateMutability": "nonpayable",
			"type": "function"
		},
		{
			"inputs": [
				{
					"internalType": "uint256",
					"name": "billId",
					"type": "uint256"
				}
			],
			"name": "withdrawBill",
			"outputs": [],
			"stateMutability": "nonpayable",
			"type": "function"
		}
	]
}