{
	"data": {
		"bytecode": {
			"linkReferences": {},
			"object": "60a06040525f603a5f6101000a81548160ff0219169083151502179055505f60ae5f6101000a81548160ff021916908360ff160217905550348015610042575f80fd5b5060405161a4b838038061a4b88339818101604052810190610064919061032d565b8160015f6101000a81548173ffffffffffffffffffffffffffffffffffffffff021916908373ffffffffffffffffffffffffffffffffffffffff16021790555042608081815250506001621275006080516100bf91906103bd565b6100c991906103bd565b5f819055505f600460018160018154018082558091505003905f5260205f209060070201905033815f015f6101000a81548173ffffffffffffffffffffffffffffffffffffffff021916908373ffffffffffffffffffffffffffffffffffffffff1602179055508181600101908161014191906105f4565b50608051816002018190555060805181600301819055505f81600401819055506032816005015f6101000a81548160ff021916908360ff1602179055505050506106c3565b5f604051905090565b5f80fd5b5f80fd5b5f73ffffffffffffffffffffffffffffffffffffffff82169050919050565b5f6101c082610197565b9050919050565b6101d0816101b6565b81146101da575f80fd5b50565b5f815190506101eb816101c7565b92915050565b5f80fd5b5f80fd5b5f601f19601f8301169050919050565b7f4e487b71000000000000000000000000000000000000000000000000000000005f52604160045260245ffd5b61023f826101f9565b810181811067ffffffffffffffff8211171561025e5761025d610209565b5b80604052505050565b5f610270610186565b905061027c8282610236565b919050565b5f67ffffffffffffffff82111561029b5761029a610209565b5b6102a4826101f9565b9050602081019050919050565b8281835e5f83830152505050565b5f6102d16102cc84610281565b610267565b9050828152602081018484840111156102ed576102ec6101f5565b5b6102f88482856102b1565b509392505050565b5f82601f830112610314576103136101f1565b5b81516103248482602086016102bf565b91505092915050565b5f80604083850312156103435761034261018f565b5b5f610350858286016101dd565b925050602083015167ffffffffffffffff81111561037157610370610193565b5b61037d85828601610300565b9150509250929050565b5f819050919050565b7f4e487b71000000000000000000000000000000000000000000000000000000005f52601160045260245ffd5b5f6103c782610387565b91506103d283610387565b92508282019050808211156103ea576103e9610390565b5b92915050565b5f81519050919050565b7f4e487b71000000000000000000000000000000000000000000000000000000005f52602260045260245ffd5b5f600282049050600182168061043e57607f821691505b602082108103610451576104506103fa565b5b50919050565b5f819050815f5260205f209050919050565b5f6020601f8301049050919050565b5f82821b905092915050565b5f600883026104b37fffffffffffffffffffffffffffffffffffffffffffffffffffffffffffffffff82610478565b6104bd8683610478565b95508019841693508086168417925050509392505050565b5f819050919050565b5f6104f86104f36104ee84610387565b6104d5565b610387565b9050919050565b5f819050919050565b610511836104de565b61052561051d826104ff565b848454610484565b825550505050565b5f90565b61053961052d565b610544818484610508565b505050565b5b818110156105675761055c5f82610531565b60018101905061054a565b5050565b601f8211156105ac5761057d81610457565b61058684610469565b81016020851015610595578190505b6105a96105a185610469565b830182610549565b50505b505050565b5f82821c905092915050565b5f6105cc5f19846008026105b1565b1980831691505092915050565b5f6105e483836105bd565b9150826002028217905092915050565b6105fd826103f0565b67ffffffffffffffff81111561061657610615610209565b5b6106208254610427565b61062b82828561056b565b5f60209050601f83116001811461065c575f841561064a578287015190505b61065485826105d9565b8655506106bb565b601f19841661066a86610457565b5f5b828110156106915784890151825560018201915060208501945060208101905061066c565b868310156106ae57848901516106aa601f8916826105bd565b8355505b6001600288020188555050505b505050505050565b608051619ddd6106db5f395f6131bf0152619ddd5ff3fe6080604052600436106103d7575f3560e01c80638f3218df116101fc578063bdc8e7b311610117578063e292bf16116100aa578063eccf1f1011610079578063eccf1f1014610f0c578063eedb2d2814610f36578063f33e957314610f60578063f3a4aba914610f9d578063f9f8bdb714610fd9576103d7565b8063e292bf1614610e3a578063e42a54c414610e64578063e965b7c914610e8e578063eab536fc14610ed0576103d7565b8063ce7ea161116100e6578063ce7ea16114610d82578063d1791ae014610dac578063d90d7cd814610dd6578063e1f02ffa14610e12576103d7565b8063bdc8e7b314610cf2578063be003ee614610d1a578063beb5479514610d30578063c1b1315714610d5a576103d7565b8063a6a5ad121161018f578063b5ba97951161015e578063b5ba979514610c1f578063b85c229214610c49578063bbea6f0b14610c73578063bc903cb814610cb6576103d7565b8063a6a5ad1214610b55578063ac0af94414610b7d578063b0feb26014610bb9578063b13c744b14610be3576103d7565b80639dc55056116101cb5780639dc5505614610a9c5780639dc9945514610ad8578063a3a40ea514610b15578063a5f5b1bf14610b3f576103d7565b80638f3218df14610a0457806397dffc6114610a2e57806399b0d39c14610a385780639a74132714610a60576103d7565b806347f7b722116102f757806370f67cfe1161028a5780637da4ce83116102595780637da4ce831461090e5780637e8c2da8146109385780637f4241e7146109745780638325ed2d146109b057806386a0dd7d146109da576103d7565b806370f67cfe1461084257806378e3ef201461087e57806378e97925146108ba5780637d48536d146108e4576103d7565b80635004e24a116102c65780635004e24a1461078757806353fdc838146107b157806354c17527146107ee57806359297dbf14610818576103d7565b806347f7b722146106df57806349066e79146107095780634d0c8726146107335780634ebeb1091461075d576103d7565b8063163923721161036f5780633590c0fd1161033e5780633590c0fd146106125780633b497b281461064e5780633def77b71461068a578063452d32bb146106b4576103d7565b8063163923721461055c5780632190bee81461058657806326c29449146105c257806329c83be1146105ea576103d7565b8063079ddd11116103ab578063079ddd11146104b0578063089e35b8146104cc57806308ec6a19146104f657806312065fe014610532576103d7565b8062fa88e2146103db578063013cf08b146103f7578063045c6ce014610438578063071a347414610474575b5f80fd5b6103f560048036038101906103f0919061693c565b611003565b005b348015610402575f80fd5b5061041d60048036038101906104189190616983565b61132a565b60405161042f96959493929190616a77565b60405180910390f35b348015610443575f80fd5b5061045e60048036038101906104599190616983565b611422565b60405161046b9190616add565b60405180910390f35b34801561047f575f80fd5b5061049a60048036038101906104959190616b20565b6117a7565b6040516104a79190616b78565b60405180910390f35b6104ca60048036038101906104c59190616b91565b6117d0565b005b3480156104d7575f80fd5b506104e0611c14565b6040516104ed9190616c4f565b60405180910390f35b348015610501575f80fd5b5061051c60048036038101906105179190616c68565b611c26565b6040516105299190616d38565b60405180910390f35b34801561053d575f80fd5b50610546611cb7565b6040516105539190616d69565b60405180910390f35b348015610567575f80fd5b50610570611d8c565b60405161057d9190616d82565b60405180910390f35b348015610591575f80fd5b506105ac60048036038101906105a79190616d9b565b611d92565b6040516105b99190616d82565b60405180910390f35b3480156105cd575f80fd5b506105e860048036038101906105e39190616e1f565b611db2565b005b3480156105f5575f80fd5b50610610600480360381019061060b9190616e89565b6122c3565b005b34801561061d575f80fd5b5061063860048036038101906106339190616ec7565b61269d565b6040516106459190616d82565b60405180910390f35b348015610659575f80fd5b50610674600480360381019061066f9190616fa0565b6126b2565b6040516106819190616d82565b60405180910390f35b348015610695575f80fd5b5061069e6129cb565b6040516106ab919061703c565b60405180910390f35b3480156106bf575f80fd5b506106c86129d1565b6040516106d6929190617184565b60405180910390f35b3480156106ea575f80fd5b506106f3612e2c565b6040516107009190616d82565b60405180910390f35b348015610714575f80fd5b5061071d612e33565b60405161072a9190616d82565b60405180910390f35b34801561073e575f80fd5b50610747612e3a565b60405161075491906171b2565b60405180910390f35b348015610768575f80fd5b50610771612e5f565b60405161077e9190616d82565b60405180910390f35b348015610792575f80fd5b5061079b612e6a565b6040516107a89190616d82565b60405180910390f35b3480156107bc575f80fd5b506107d760048036038101906107d29190616d9b565b612e71565b6040516107e59291906171cb565b60405180910390f35b3480156107f9575f80fd5b50610802612eab565b60405161080f9190616d69565b60405180910390f35b348015610823575f80fd5b5061082c612eb0565b6040516108399190616d82565b60405180910390f35b34801561084d575f80fd5b5061086860048036038101906108639190616983565b612eb7565b60405161087591906172a8565b60405180910390f35b348015610889575f80fd5b506108a4600480360381019061089f9190616ec7565b613177565b6040516108b19190616d82565b60405180910390f35b3480156108c5575f80fd5b506108ce6131bd565b6040516108db9190616d82565b60405180910390f35b3480156108ef575f80fd5b506108f86131e1565b6040516109059190616d82565b60405180910390f35b348015610919575f80fd5b506109226131ec565b60405161092f91906171b2565b60405180910390f35b348015610943575f80fd5b5061095e600480360381019061095991906172c8565b613212565b60405161096b9190616d82565b60405180910390f35b34801561097f575f80fd5b5061099a60048036038101906109959190616c68565b61333b565b6040516109a79190616c4f565b60405180910390f35b3480156109bb575f80fd5b506109c4613361565b6040516109d1919061703c565b60405180910390f35b3480156109e5575f80fd5b506109ee613366565b6040516109fb9190616add565b60405180910390f35b348015610a0f575f80fd5b50610a1861336b565b604051610a259190616add565b60405180910390f35b610a3661337d565b005b348015610a43575f80fd5b50610a5e6004803603810190610a599190616e1f565b61345e565b005b348015610a6b575f80fd5b50610a866004803603810190610a819190616ec7565b613ab5565b604051610a939190616d69565b60405180910390f35b348015610aa7575f80fd5b50610ac26004803603810190610abd9190616ec7565b613aca565b604051610acf9190616d82565b60405180910390f35b348015610ae3575f80fd5b50610afe6004803603810190610af99190616983565b613b9c565b604051610b0c929190617306565b60405180910390f35b348015610b20575f80fd5b50610b29613be2565b604051610b3691906173a0565b60405180910390f35b348015610b4a575f80fd5b50610b53613ca5565b005b348015610b60575f80fd5b50610b7b6004803603810190610b76919061740e565b613ec6565b005b348015610b88575f80fd5b50610ba36004803603810190610b9e9190616ec7565b61426c565b604051610bb09190616d82565b60405180910390f35b348015610bc4575f80fd5b50610bcd614281565b604051610bda9190616d82565b60405180910390f35b348015610bee575f80fd5b50610c096004803603810190610c049190616983565b614287565b604051610c1691906171b2565b60405180910390f35b348015610c2a575f80fd5b50610c336142c2565b604051610c40919061703c565b60405180910390f35b348015610c54575f80fd5b50610c5d6142c7565b604051610c6a9190616add565b60405180910390f35b348015610c7e575f80fd5b50610c996004803603810190610c949190616983565b6142cc565b604051610cad989796959493929190617468565b60405180910390f35b348015610cc1575f80fd5b50610cdc6004803603810190610cd79190616983565b6145bd565b604051610ce991906176be565b60405180910390f35b348015610cfd575f80fd5b50610d186004803603810190610d139190616983565b6148a6565b005b348015610d25575f80fd5b50610d2e61503e565b005b348015610d3b575f80fd5b50610d446151c4565b604051610d519190616d82565b60405180910390f35b348015610d65575f80fd5b50610d806004803603810190610d7b919061740e565b6151ca565b005b348015610d8d575f80fd5b50610d966154ee565b604051610da39190616d82565b60405180910390f35b348015610db7575f80fd5b50610dc06154f3565b604051610dcd919061703c565b60405180910390f35b348015610de1575f80fd5b50610dfc6004803603810190610df79190616ec7565b6154fa565b604051610e099190616d82565b60405180910390f35b348015610e1d575f80fd5b50610e386004803603810190610e339190616983565b615540565b005b348015610e45575f80fd5b50610e4e615742565b604051610e5b9190616add565b60405180910390f35b348015610e6f575f80fd5b50610e78615747565b604051610e85919061703c565b60405180910390f35b348015610e99575f80fd5b50610eb46004803603810190610eaf9190616ec7565b61575c565b604051610ec797969594939291906176de565b60405180910390f35b348015610edb575f80fd5b50610ef66004803603810190610ef19190616ec7565b615938565b604051610f039190616add565b60405180910390f35b348015610f17575f80fd5b50610f20615955565b604051610f2d91906177df565b60405180910390f35b348015610f41575f80fd5b50610f4a615fbe565b604051610f579190616d82565b60405180910390f35b348015610f6b575f80fd5b50610f866004803603810190610f819190616983565b615fc4565b604051610f949291906177f9565b60405180910390f35b348015610fa8575f80fd5b50610fc36004803603810190610fbe9190616983565b615ff3565b604051610fd09190617820565b60405180910390f35b348015610fe4575f80fd5b50610fed616362565b604051610ffa9190616d82565b60405180910390f35b600260048111156110175761101661732d565b5b61101f613be2565b60048111156110315761103061732d565b5b14611071576040517f08c379a00000000000000000000000000000000000000000000000000000000081526004016110689061788a565b60405180910390fd5b5f815f015151116110b7576040517f08c379a00000000000000000000000000000000000000000000000000000000081526004016110ae906178f2565b60405180910390fd5b5f816020015151116110fe576040517f08c379a00000000000000000000000000000000000000000000000000000000081526004016110f59061795a565b60405180910390fd5b5f81606001515111611145576040517f08c379a000000000000000000000000000000000000000000000000000000000815260040161113c906179c2565b60405180910390fd5b66038d7ea4c6800034101561118f576040517f08c379a000000000000000000000000000000000000000000000000000000000815260040161118690617a2a565b60405180910390fd5b5f815f01518260400151836020015184606001516040516020016111b69493929190617a82565b60405160208183030381529060405280519060200120905081608001518114611214576040517f08c379a000000000000000000000000000000000000000000000000000000000815260040161120b90617b09565b60405180910390fd5b428260c00181815250505f8260e0018181525050603e82908060018154018082558091505060019003905f5260205f2090600802015f909190919091505f820151815f0190816112649190617d21565b50602082015181600101908161127a9190617d21565b5060408201518160020190816112909190617d21565b5060608201518160030190816112a69190617d21565b506080820151816004015560a08201518160050190816112c69190617d21565b5060c0820151816006015560e0820151816007015550506001603e805490506112ef9190617e1d565b7ff20c47478412252c3f85e5881b3cbee3e68a1ab2b3cd2d3fd8633ee288582e298360405161131e9190617820565b60405180910390a25050565b60048181548110611339575f80fd5b905f5260205f2090600702015f91509050805f015f9054906101000a900473ffffffffffffffffffffffffffffffffffffffff169080600101805461137d90617b54565b80601f01602080910402602001604051908101604052809291908181526020018280546113a990617b54565b80156113f45780601f106113cb576101008083540402835291602001916113f4565b820191905f5260205f20905b8154815290600101906020018083116113d757829003601f168201915b505050505090806002015490806003015490806004015490806005015f9054906101000a900460ff16905086565b5f60035f3373ffffffffffffffffffffffffffffffffffffffff1673ffffffffffffffffffffffffffffffffffffffff1681526020019081526020015f206005015f9054906101000a900460ff166114af576040517f08c379a00000000000000000000000000000000000000000000000000000000081526004016114a690617e9a565b60405180910390fd5b60048054905082106114f6576040517f08c379a00000000000000000000000000000000000000000000000000000000081526004016114ed90617f02565b60405180910390fd5b5f6004838154811061150b5761150a617f20565b5b905f5260205f20906007020190505f81600401541461155f576040517f08c379a000000000000000000000000000000000000000000000000000000000815260040161155690617f97565b60405180910390fd5b5f603d5f3373ffffffffffffffffffffffffffffffffffffffff1673ffffffffffffffffffffffffffffffffffffffff1681526020019081526020015f205f8581526020019081526020015f2054146115ed576040517f08c379a00000000000000000000000000000000000000000000000000000000081526004016115e490617fff565b60405180910390fd5b42603d5f3373ffffffffffffffffffffffffffffffffffffffff1673ffffffffffffffffffffffffffffffffffffffff1681526020019081526020015f205f8581526020019081526020015f2081905550806005015f81819054906101000a900460ff168092919061165e9061801d565b91906101000a81548160ff021916908360ff160217905550503373ffffffffffffffffffffffffffffffffffffffff16837f34647120636ce03d739347e28e9d1bdd34fd03d066ae60439fb1be2721ad16cd60405160405180910390a3601e60ff16816005015f9054906101000a900460ff1660ff16101580156116e557505f8160030154145b1561178e57827fe36f8b7448daff4a52e2945db0d1d7a436279cc1d527a45c27835dcbd27f336d60405160405180910390a24281600301819055505f603c5f835f015f9054906101000a900473ffffffffffffffffffffffffffffffffffffffff1673ffffffffffffffffffffffffffffffffffffffff1673ffffffffffffffffffffffffffffffffffffffff1681526020019081526020015f208190555061178d83616368565b5b806005015f9054906101000a900460ff16915050919050565b6043602052815f5260405f20602052805f5260405f205f915091509054906101000a90045f0b81565b5f83511180156117e257506064835111155b611821576040517f08c379a00000000000000000000000000000000000000000000000000000000081526004016118189061808f565b60405180910390fd5b5f825111801561183457506103e8825111155b611873576040517f08c379a000000000000000000000000000000000000000000000000000000000815260040161186a906180f7565b60405180910390fd5b5f815111801561188657506107d0815111155b6118c5576040517f08c379a00000000000000000000000000000000000000000000000000000000081526004016118bc9061815f565b60405180910390fd5b5f73ffffffffffffffffffffffffffffffffffffffff163373ffffffffffffffffffffffffffffffffffffffff1603611933576040517f08c379a000000000000000000000000000000000000000000000000000000000815260040161192a906181c7565b60405180910390fd5b66038d7ea4c6800034101561197d576040517f08c379a00000000000000000000000000000000000000000000000000000000081526004016119749061822f565b60405180910390fd5b5f60048111156119905761198f61732d565b5b611998613be2565b60048111156119aa576119a961732d565b5b146119ea576040517f08c379a00000000000000000000000000000000000000000000000000000000081526004016119e1906182bd565b60405180910390fd5b5f60035f3373ffffffffffffffffffffffffffffffffffffffff1673ffffffffffffffffffffffffffffffffffffffff1681526020019081526020015f206003015414611a6c576040517f08c379a0000000000000000000000000000000000000000000000000000000008152600401611a6390618325565b60405180910390fd5b6040518060e001604052808481526020018381526020018281526020014281526020015f81526020015f151581526020015f81525060035f3373ffffffffffffffffffffffffffffffffffffffff1673ffffffffffffffffffffffffffffffffffffffff1681526020019081526020015f205f820151815f019081611af19190617d21565b506020820151816001019081611b079190617d21565b506040820151816002019081611b1d9190617d21565b50606082015181600301556080820151816004015560a0820151816005015f6101000a81548160ff02191690831515021790555060c08201518160060155905050600233908060018154018082558091505060019003905f5260205f20015f9091909190916101000a81548173ffffffffffffffffffffffffffffffffffffffff021916908373ffffffffffffffffffffffffffffffffffffffff1602179055503373ffffffffffffffffffffffffffffffffffffffff167ed6fea68f71a20d8149f227f87e8cf7e6ad320b2dad4b45465b14599b80ee09848484604051611c0793929190618343565b60405180910390a2505050565b603a5f9054906101000a900460ff1681565b611c2e616518565b603f5f8381526020019081526020015f20600280602002604051908101604052809291908260028015611cab576020028201915b815f9054906101000a900473ffffffffffffffffffffffffffffffffffffffff1673ffffffffffffffffffffffffffffffffffffffff1681526020019060010190808311611c62575b50505050509050919050565b5f805b60485f3373ffffffffffffffffffffffffffffffffffffffff1673ffffffffffffffffffffffffffffffffffffffff1681526020019081526020015f20805490508161ffff161015611d885760485f3373ffffffffffffffffffffffffffffffffffffffff1673ffffffffffffffffffffffffffffffffffffffff1681526020019081526020015f208161ffff1681548110611d5957611d58617f20565b5b905f5260205f2090600202015f015482611d73919061838d565b91508080611d80906183db565b915050611cba565b5090565b603b5481565b603d602052815f5260405f20602052805f5260405f205f91509150505481565b60015f9054906101000a900473ffffffffffffffffffffffffffffffffffffffff1673ffffffffffffffffffffffffffffffffffffffff163373ffffffffffffffffffffffffffffffffffffffff1614611e41576040517f08c379a0000000000000000000000000000000000000000000000000000000008152600401611e389061844e565b60405180910390fd5b5f6004811115611e5457611e5361732d565b5b611e5c613be2565b6004811115611e6e57611e6d61732d565b5b14611eae576040517f08c379a0000000000000000000000000000000000000000000000000000000008152600401611ea5906184b6565b60405180910390fd5b6103e863ffffffff16600160149054906101000a900463ffffffff1663ffffffff1610611f10576040517f08c379a0000000000000000000000000000000000000000000000000000000008152600401611f0790618544565b60405180910390fd5b600a63ffffffff16600a148015611f2e5750600a63ffffffff16600a145b611f6d576040517f08c379a0000000000000000000000000000000000000000000000000000000008152600401611f64906185ac565b60405180910390fd5b5f5b600a63ffffffff168160ff16101561204f5760065f848360ff16600a8110611f9a57611f99617f20565b5b602002013581526020019081526020015f205f9054906101000a900460ff1615611ff9576040517f08c379a0000000000000000000000000000000000000000000000000000000008152600401611ff090618614565b60405180910390fd5b600160065f858460ff16600a811061201457612013617f20565b5b602002013581526020019081526020015f205f6101000a81548160ff02191690831515021790555080806120479061801d565b915050611f6f565b505f5b600a63ffffffff168160ff16101561221f575f73ffffffffffffffffffffffffffffffffffffffff16828260ff16600a811061209157612090617f20565b5b6020020160208101906120a49190616ec7565b73ffffffffffffffffffffffffffffffffffffffff16036120fa576040517f08c379a00000000000000000000000000000000000000000000000000000000081526004016120f19061867c565b60405180910390fd5b5f60075f848460ff16600a811061211457612113617f20565b5b6020020160208101906121279190616ec7565b73ffffffffffffffffffffffffffffffffffffffff1673ffffffffffffffffffffffffffffffffffffffff1681526020019081526020015f2054146121a1576040517f08c379a00000000000000000000000000000000000000000000000000000000081526004016121989061870a565b60405180910390fd5b600160075f848460ff16600a81106121bc576121bb617f20565b5b6020020160208101906121cf9190616ec7565b73ffffffffffffffffffffffffffffffffffffffff1673ffffffffffffffffffffffffffffffffffffffff1681526020019081526020015f208190555080806122179061801d565b915050612052565b50600a600160148282829054906101000a900463ffffffff166122429190618728565b92506101000a81548163ffffffff021916908363ffffffff1602179055508060405161226e9190618822565b60405180910390207f5ecf71b87b223b4e8c4d19850b2c7a727d326e44eda6530fe642b505ff2c4f94600160149054906101000a900463ffffffff166040516122b7919061886d565b60405180910390a25050565b60035f3373ffffffffffffffffffffffffffffffffffffffff1673ffffffffffffffffffffffffffffffffffffffff1681526020019081526020015f206005015f9054906101000a900460ff1661234f576040517f08c379a0000000000000000000000000000000000000000000000000000000008152600401612346906188d0565b60405180910390fd5b7fffffffffffffffffffffffffffffffffffffffffffffffffffffffffffffffff815f0b1215801561238457506001815f0b13155b6123c3576040517f08c379a00000000000000000000000000000000000000000000000000000000081526004016123ba90618938565b60405180910390fd5b5f60435f3373ffffffffffffffffffffffffffffffffffffffff1673ffffffffffffffffffffffffffffffffffffffff1681526020019081526020015f205f8473ffffffffffffffffffffffffffffffffffffffff1673ffffffffffffffffffffffffffffffffffffffff1681526020019081526020015f205f9054906101000a90045f0b90505f815f0b14801561245d57505f825f0b14155b1561253a576103e860455f3373ffffffffffffffffffffffffffffffffffffffff1673ffffffffffffffffffffffffffffffffffffffff1681526020019081526020015f2054106124e3576040517f08c379a00000000000000000000000000000000000000000000000000000000081526004016124da906189a0565b60405180910390fd5b60455f3373ffffffffffffffffffffffffffffffffffffffff1673ffffffffffffffffffffffffffffffffffffffff1681526020019081526020015f205f815480929190612530906189be565b91905055506125a6565b5f815f0b1415801561254d57505f825f0b145b156125a55760455f3373ffffffffffffffffffffffffffffffffffffffff1673ffffffffffffffffffffffffffffffffffffffff1681526020019081526020015f205f81548092919061259f90618a05565b91905055505b5b8160435f3373ffffffffffffffffffffffffffffffffffffffff1673ffffffffffffffffffffffffffffffffffffffff1681526020019081526020015f205f8573ffffffffffffffffffffffffffffffffffffffff1673ffffffffffffffffffffffffffffffffffffffff1681526020019081526020015f205f6101000a81548160ff02191690835f0b60ff16021790555080826126449190618a2c565b5f0b60445f8573ffffffffffffffffffffffffffffffffffffffff1673ffffffffffffffffffffffffffffffffffffffff1681526020019081526020015f205f828254612691919061838d565b92505081905550505050565b6045602052805f5260405f205f915090505481565b5f60035f3373ffffffffffffffffffffffffffffffffffffffff1673ffffffffffffffffffffffffffffffffffffffff1681526020019081526020015f206005015f9054906101000a900460ff1661273f576040517f08c379a000000000000000000000000000000000000000000000000000000000815260040161273690618af4565b60405180910390fd5b5f8585905011612784576040517f08c379a000000000000000000000000000000000000000000000000000000000815260040161277b90618b5c565b60405180910390fd5b5f603c5f3373ffffffffffffffffffffffffffffffffffffffff1673ffffffffffffffffffffffffffffffffffffffff1681526020019081526020015f205414612803576040517f08c379a00000000000000000000000000000000000000000000000000000000081526004016127fa90618bea565b60405180910390fd5b5f600480549050905080603c5f3373ffffffffffffffffffffffffffffffffffffffff1673ffffffffffffffffffffffffffffffffffffffff1681526020019081526020015f2081905550600460018160018154018082558091505003905f5260205f209050505f6004828154811061287f5761287e617f20565b5b905f5260205f209060070201905033815f015f6101000a81548173ffffffffffffffffffffffffffffffffffffffff021916908373ffffffffffffffffffffffffffffffffffffffff16021790555086868260010191826128e1929190618c12565b504281600201819055505f5b85859050811015612962578160060186868381811061290f5761290e617f20565b5b90506020028101906129219190618ceb565b908060018154018082558091505060019003905f5260205f2090600302015f9091909190915081816129539190618f26565b505080806001019150506128ed565b503373ffffffffffffffffffffffffffffffffffffffff166004805490507f6fb266c3bffbf56760b26ba85968fa3e28f3ed50cea5c9704fb6e260dab31f1c89896040516129b1929190618f60565b60405180910390a360048054905092505050949350505050565b6103e881565b5f6129da61653a565b5f60425411156129fb576042546129f2604254615ff3565b91509150612e28565b5f600554118015612a0d575042600554105b612a4c576040517f08c379a0000000000000000000000000000000000000000000000000000000008152600401612a4390618fcc565b60405180910390fd5b5f805f90505f5b603e80549050811015612ac25781603e8281548110612a7557612a74617f20565b5b905f5260205f209060080201600701541115612ab557603e8181548110612a9f57612a9e617f20565b5b905f5260205f2090600802016007015491508092505b8080600101915050612a53565b50816042819055505f603e8381548110612adf57612ade617f20565b5b905f5260205f209060080201604051806101000160405290815f82018054612b0690617b54565b80601f0160208091040260200160405190810160405280929190818152602001828054612b3290617b54565b8015612b7d5780601f10612b5457610100808354040283529160200191612b7d565b820191905f5260205f20905b815481529060010190602001808311612b6057829003601f168201915b50505050508152602001600182018054612b9690617b54565b80601f0160208091040260200160405190810160405280929190818152602001828054612bc290617b54565b8015612c0d5780601f10612be457610100808354040283529160200191612c0d565b820191905f5260205f20905b815481529060010190602001808311612bf057829003601f168201915b50505050508152602001600282018054612c2690617b54565b80601f0160208091040260200160405190810160405280929190818152602001828054612c5290617b54565b8015612c9d5780601f10612c7457610100808354040283529160200191612c9d565b820191905f5260205f20905b815481529060010190602001808311612c8057829003601f168201915b50505050508152602001600382018054612cb690617b54565b80601f0160208091040260200160405190810160405280929190818152602001828054612ce290617b54565b8015612d2d5780601f10612d0457610100808354040283529160200191612d2d565b820191905f5260205f20905b815481529060010190602001808311612d1057829003601f168201915b5050505050815260200160048201548152602001600582018054612d5090617b54565b80601f0160208091040260200160405190810160405280929190818152602001828054612d7c90617b54565b8015612dc75780601f10612d9e57610100808354040283529160200191612dc7565b820191905f5260205f20905b815481529060010190602001808311612daa57829003601f168201915b50505050508152602001600682015481526020016007820154815250509050827f5716523a05c9d13997b5a619d69a47eba3d34842ff0b403eed7ca3a75b05c70882604051612e169190617820565b60405180910390a28281945094505050505b9091565b6212750081565b62093a8081565b60015f9054906101000a900473ffffffffffffffffffffffffffffffffffffffff1681565b66038d7ea4c6800081565b625c490081565b6048602052815f5260405f208181548110612e8a575f80fd5b905f5260205f2090600202015f9150915050805f0154908060010154905082565b600a81565b5f47905090565b612ebf61657f565b6002805490508210612f06576040517f08c379a0000000000000000000000000000000000000000000000000000000008152600401612efd90619034565b60405180910390fd5b60035f60028481548110612f1d57612f1c617f20565b5b905f5260205f20015f9054906101000a900473ffffffffffffffffffffffffffffffffffffffff1673ffffffffffffffffffffffffffffffffffffffff1673ffffffffffffffffffffffffffffffffffffffff1681526020019081526020015f206040518060e00160405290815f82018054612f9890617b54565b80601f0160208091040260200160405190810160405280929190818152602001828054612fc490617b54565b801561300f5780601f10612fe65761010080835404028352916020019161300f565b820191905f5260205f20905b815481529060010190602001808311612ff257829003601f168201915b5050505050815260200160018201805461302890617b54565b80601f016020809104026020016040519081016040528092919081815260200182805461305490617b54565b801561309f5780601f106130765761010080835404028352916020019161309f565b820191905f5260205f20905b81548152906001019060200180831161308257829003601f168201915b505050505081526020016002820180546130b890617b54565b80601f01602080910402602001604051908101604052809291908181526020018280546130e490617b54565b801561312f5780601f106131065761010080835404028352916020019161312f565b820191905f5260205f20905b81548152906001019060200180831161311257829003601f168201915b505050505081526020016003820154815260200160048201548152602001600582015f9054906101000a900460ff161515151581526020016006820154815250509050919050565b5f60405f8373ffffffffffffffffffffffffffffffffffffffff1673ffffffffffffffffffffffffffffffffffffffff1681526020019081526020015f20549050919050565b7f000000000000000000000000000000000000000000000000000000000000000081565b66038d7ea4c6800081565b603a60019054906101000a900473ffffffffffffffffffffffffffffffffffffffff1681565b5f600480549050831061325a576040517f08c379a000000000000000000000000000000000000000000000000000000000815260040161325190617f02565b60405180910390fd5b60035f8373ffffffffffffffffffffffffffffffffffffffff1673ffffffffffffffffffffffffffffffffffffffff1681526020019081526020015f206005015f9054906101000a900460ff166132e6576040517f08c379a00000000000000000000000000000000000000000000000000000000081526004016132dd9061909c565b60405180910390fd5b603d5f8373ffffffffffffffffffffffffffffffffffffffff1673ffffffffffffffffffffffffffffffffffffffff1681526020019081526020015f205f8481526020019081526020015f2054905092915050565b5f60065f8381526020019081526020015f205f9054906101000a900460ff169050919050565b600a81565b600a81565b60ae5f9054906101000a900460ff1681565b5f604051806040016040528034815260200142815250905060485f3373ffffffffffffffffffffffffffffffffffffffff1673ffffffffffffffffffffffffffffffffffffffff1681526020019081526020015f2081908060018154018082558091505060019003905f5260205f2090600202015f909190919091505f820151815f01556020820151816001015550503373ffffffffffffffffffffffffffffffffffffffff167f976be468429698a1b0ae0c20a0329bdb6e24722a3f834a2c54b84d63c1722f32346040516134539190616d69565b60405180910390a250565b600a60445f3373ffffffffffffffffffffffffffffffffffffffff1673ffffffffffffffffffffffffffffffffffffffff1681526020019081526020015f205412156134df576040517f08c379a00000000000000000000000000000000000000000000000000000000081526004016134d690619104565b60405180910390fd5b600260048111156134f3576134f261732d565b5b6134fb613be2565b600481111561350d5761350c61732d565b5b1461354d576040517f08c379a00000000000000000000000000000000000000000000000000000000081526004016135449061788a565b60405180910390fd5b600a63ffffffff16600a14801561356b5750600a63ffffffff16600a145b6135aa576040517f08c379a00000000000000000000000000000000000000000000000000000000081526004016135a1906185ac565b60405180910390fd5b5f5b600a63ffffffff168160ff161015613831575f73ffffffffffffffffffffffffffffffffffffffff16603f5f858460ff16600a81106135ee576135ed617f20565b5b602002013581526020019081526020015f205f6002811061361257613611617f20565b5b015f9054906101000a900473ffffffffffffffffffffffffffffffffffffffff1673ffffffffffffffffffffffffffffffffffffffff16036136cf5733603f5f858460ff16600a811061366857613667617f20565b5b602002013581526020019081526020015f205f6002811061368c5761368b617f20565b5b015f6101000a81548173ffffffffffffffffffffffffffffffffffffffff021916908373ffffffffffffffffffffffffffffffffffffffff16021790555061381e565b5f73ffffffffffffffffffffffffffffffffffffffff16603f5f858460ff16600a81106136ff576136fe617f20565b5b602002013581526020019081526020015f2060016002811061372457613723617f20565b5b015f9054906101000a900473ffffffffffffffffffffffffffffffffffffffff1673ffffffffffffffffffffffffffffffffffffffff16036137e25733603f5f858460ff16600a811061377a57613779617f20565b5b602002013581526020019081526020015f2060016002811061379f5761379e617f20565b5b015f6101000a81548173ffffffffffffffffffffffffffffffffffffffff021916908373ffffffffffffffffffffffffffffffffffffffff16021790555061381d565b6040517f08c379a00000000000000000000000000000000000000000000000000000000081526004016138149061916c565b60405180910390fd5b5b80806138299061801d565b9150506135ac565b505f5b600a63ffffffff168160ff161015613a11575f73ffffffffffffffffffffffffffffffffffffffff16828260ff16600a811061387357613872617f20565b5b6020020160208101906138869190616ec7565b73ffffffffffffffffffffffffffffffffffffffff16036138dc576040517f08c379a00000000000000000000000000000000000000000000000000000000081526004016138d39061867c565b60405180910390fd5b600260405f848460ff16600a81106138f7576138f6617f20565b5b60200201602081019061390a9190616ec7565b73ffffffffffffffffffffffffffffffffffffffff1673ffffffffffffffffffffffffffffffffffffffff1681526020019081526020015f205410613984576040517f08c379a000000000000000000000000000000000000000000000000000000000815260040161397b9061870a565b60405180910390fd5b60405f838360ff16600a811061399d5761399c617f20565b5b6020020160208101906139b09190616ec7565b73ffffffffffffffffffffffffffffffffffffffff1673ffffffffffffffffffffffffffffffffffffffff1681526020019081526020015f205f8154809291906139f9906189be565b91905055508080613a099061801d565b915050613834565b50600a60415f8282829054906101000a900463ffffffff16613a339190618728565b92506101000a81548163ffffffff021916908363ffffffff16021790555080604051613a5f9190618822565b60405180910390207f2ba0aaa9c0e5919bf5cb9fde7b2825194f9dc6e9ab2a9174c59892a1585c446a3360415f9054906101000a900463ffffffff16604051613aa992919061918a565b60405180910390a25050565b6044602052805f5260405f205f915090505481565b5f60035f8373ffffffffffffffffffffffffffffffffffffffff1673ffffffffffffffffffffffffffffffffffffffff1681526020019081526020015f206005015f9054906101000a900460ff16613b57576040517f08c379a0000000000000000000000000000000000000000000000000000000008152600401613b4e9061909c565b60405180910390fd5b603c5f8373ffffffffffffffffffffffffffffffffffffffff1673ffffffffffffffffffffffffffffffffffffffff1681526020019081526020015f20549050919050565b60498160328110613bab575f80fd5b600202015f91509050805f015f9054906101000a900473ffffffffffffffffffffffffffffffffffffffff16908060010154905082565b5f620151805f54613bf39190617e1d565b421015613c02575f9050613ca2565b5f54421015613c785760326002613c1991906191b1565b60ff166002805490501080613c4d57506103e863ffffffff16600160149054906101000a900463ffffffff1663ffffffff16105b15613c6f57621275005f54613c6291906191ed565b5f819055505f9050613ca2565b60019050613ca2565b5f60055403613c8a5760029050613ca2565b600554421015613c9d5760039050613ca2565b600490505b90565b62093a8060035f603a60019054906101000a900473ffffffffffffffffffffffffffffffffffffffff1673ffffffffffffffffffffffffffffffffffffffff1673ffffffffffffffffffffffffffffffffffffffff1681526020019081526020015f2060060154613d1691906191ed565b421015613d58576040517f08c379a0000000000000000000000000000000000000000000000000000000008152600401613d4f90619290565b60405180910390fd5b603b5f815480929190613d6a906189be565b91905055506032603b5410613d81575f603b819055505b6008603b5460328110613d9757613d96617f20565b5b015f9054906101000a900473ffffffffffffffffffffffffffffffffffffffff16603a60016101000a81548173ffffffffffffffffffffffffffffffffffffffff021916908373ffffffffffffffffffffffffffffffffffffffff1602179055504260035f603a60019054906101000a900473ffffffffffffffffffffffffffffffffffffffff1673ffffffffffffffffffffffffffffffffffffffff1673ffffffffffffffffffffffffffffffffffffffff1681526020019081526020015f2060060181905550603a60019054906101000a900473ffffffffffffffffffffffffffffffffffffffff1673ffffffffffffffffffffffffffffffffffffffff167f8a84bb57bf3f6adefaa7a35a6a5067473f78164bfc14c2f6ae8b93e5b115b35a60405160405180910390a2565b60016004811115613eda57613ed961732d565b5b613ee2613be2565b6004811115613ef457613ef361732d565b5b14613f34576040517f08c379a0000000000000000000000000000000000000000000000000000000008152600401613f2b906192f8565b60405180910390fd5b600280549050828290501115613f7f576040517f08c379a0000000000000000000000000000000000000000000000000000000008152600401613f7690619360565b60405180910390fd5b600160075f3373ffffffffffffffffffffffffffffffffffffffff1673ffffffffffffffffffffffffffffffffffffffff1681526020019081526020015f205414613fff576040517f08c379a0000000000000000000000000000000000000000000000000000000008152600401613ff6906193ee565b60405180910390fd5b5f60028054905067ffffffffffffffff81111561401f5761401e616653565b5b60405190808252806020026020018201604052801561404d5781602001602082028036833780820191505090505b5090504260075f3373ffffffffffffffffffffffffffffffffffffffff1673ffffffffffffffffffffffffffffffffffffffff1681526020019081526020015f20819055503373ffffffffffffffffffffffffffffffffffffffff167fb87a61d78bd15221c59b983f6ef032fbde0631e66bfe18d1421fe5a73c16741d60405160405180910390a25f5b83839050811015614266575f8484838181106140f6576140f5617f20565b5b9050602002013590506002805490508110614146576040517f08c379a000000000000000000000000000000000000000000000000000000000815260040161413d90619456565b60405180910390fd5b82818151811061415957614158617f20565b5b6020026020010151156141a1576040517f08c379a0000000000000000000000000000000000000000000000000000000008152600401614198906194be565b60405180910390fd5b60018382815181106141b6576141b5617f20565b5b60200260200101901515908115158152505060035f600283815481106141df576141de617f20565b5b905f5260205f20015f9054906101000a900473ffffffffffffffffffffffffffffffffffffffff1673ffffffffffffffffffffffffffffffffffffffff1673ffffffffffffffffffffffffffffffffffffffff1681526020019081526020015f206004015f815480929190614253906189be565b91905055505080806001019150506140d7565b50505050565b603c602052805f5260405f205f915090505481565b60055481565b60028181548110614296575f80fd5b905f5260205f20015f915054906101000a900473ffffffffffffffffffffffffffffffffffffffff1681565b600a81565b601e81565b603e81815481106142db575f80fd5b905f5260205f2090600802015f91509050805f0180546142fa90617b54565b80601f016020809104026020016040519081016040528092919081815260200182805461432690617b54565b80156143715780601f1061434857610100808354040283529160200191614371565b820191905f5260205f20905b81548152906001019060200180831161435457829003601f168201915b50505050509080600101805461438690617b54565b80601f01602080910402602001604051908101604052809291908181526020018280546143b290617b54565b80156143fd5780601f106143d4576101008083540402835291602001916143fd565b820191905f5260205f20905b8154815290600101906020018083116143e057829003601f168201915b50505050509080600201805461441290617b54565b80601f016020809104026020016040519081016040528092919081815260200182805461443e90617b54565b80156144895780601f1061446057610100808354040283529160200191614489565b820191905f5260205f20905b81548152906001019060200180831161446c57829003601f168201915b50505050509080600301805461449e90617b54565b80601f01602080910402602001604051908101604052809291908181526020018280546144ca90617b54565b80156145155780601f106144ec57610100808354040283529160200191614515565b820191905f5260205f20905b8154815290600101906020018083116144f857829003601f168201915b50505050509080600401549080600501805461453090617b54565b80601f016020809104026020016040519081016040528092919081815260200182805461455c90617b54565b80156145a75780601f1061457e576101008083540402835291602001916145a7565b820191905f5260205f20905b81548152906001019060200180831161458a57829003601f168201915b5050505050908060060154908060070154905088565b6145c56165ba565b600480549050821061460c576040517f08c379a000000000000000000000000000000000000000000000000000000000815260040161460390617f02565b60405180910390fd5b600482815481106146205761461f617f20565b5b905f5260205f2090600702016040518060e00160405290815f82015f9054906101000a900473ffffffffffffffffffffffffffffffffffffffff1673ffffffffffffffffffffffffffffffffffffffff1673ffffffffffffffffffffffffffffffffffffffff16815260200160018201805461469b90617b54565b80601f01602080910402602001604051908101604052809291908181526020018280546146c790617b54565b80156147125780601f106146e957610100808354040283529160200191614712565b820191905f5260205f20905b8154815290600101906020018083116146f557829003601f168201915b50505050508152602001600282015481526020016003820154815260200160048201548152602001600582015f9054906101000a900460ff1660ff1660ff16815260200160068201805480602002602001604051908101604052809291908181526020015f905b82821015614897578382905f5260205f2090600302016040518060600160405290815f8201548152602001600182015f9054906101000a900473ffffffffffffffffffffffffffffffffffffffff1673ffffffffffffffffffffffffffffffffffffffff1673ffffffffffffffffffffffffffffffffffffffff16815260200160028201805461480890617b54565b80601f016020809104026020016040519081016040528092919081815260200182805461483490617b54565b801561487f5780601f106148565761010080835404028352916020019161487f565b820191905f5260205f20905b81548152906001019060200180831161486257829003601f168201915b50505050508152505081526020019060010190614779565b50505050815250509050919050565b60035f3373ffffffffffffffffffffffffffffffffffffffff1673ffffffffffffffffffffffffffffffffffffffff1681526020019081526020015f206005015f9054906101000a900460ff16614932576040517f08c379a000000000000000000000000000000000000000000000000000000000815260040161492990619526565b60405180910390fd5b611388811115614977576040517f08c379a000000000000000000000000000000000000000000000000000000000815260040161496e9061958e565b60405180910390fd5b5f8060ad5f3373ffffffffffffffffffffffffffffffffffffffff1673ffffffffffffffffffffffffffffffffffffffff1681526020019081526020015f205f9054906101000a900460ff1690505f8160ff16148015614a3f57503373ffffffffffffffffffffffffffffffffffffffff1660498260ff1660328110614a00576149ff617f20565b5b600202015f015f9054906101000a900473ffffffffffffffffffffffffffffffffffffffff1673ffffffffffffffffffffffffffffffffffffffff1614155b15614a835760ae5f81819054906101000a900460ff1680929190614a629061801d565b91906101000a81548160ff021916908360ff160217905550505f9150614aa5565b60498160ff1660328110614a9a57614a99617f20565b5b600202016001015491505b5f819050828403614ab85750505061503b565b82841115614c6c575b60016032614acf91906195ac565b60ff168160ff16108015614b0c57506049600182614aed91906195e0565b60ff1660328110614b0157614b00617f20565b5b600202016001015484115b15614c67576049600182614b2091906195e0565b60ff1660328110614b3457614b33617f20565b5b6002020160498260ff1660328110614b4f57614b4e617f20565b5b600202015f82015f9054906101000a900473ffffffffffffffffffffffffffffffffffffffff16815f015f6101000a81548173ffffffffffffffffffffffffffffffffffffffff021916908373ffffffffffffffffffffffffffffffffffffffff160217905550600182015481600101559050508060ad5f60498460ff1660328110614bde57614bdd617f20565b5b600202015f015f9054906101000a900473ffffffffffffffffffffffffffffffffffffffff1673ffffffffffffffffffffffffffffffffffffffff1673ffffffffffffffffffffffffffffffffffffffff1681526020019081526020015f205f6101000a81548160ff021916908360ff1602179055508080614c5f9061801d565b915050614ac1565b614e04565b5b5f8160ff16118015614ca857506049600182614c8991906195ac565b60ff1660328110614c9d57614c9c617f20565b5b600202016001015484105b15614e03576049600182614cbc91906195ac565b60ff1660328110614cd057614ccf617f20565b5b6002020160498260ff1660328110614ceb57614cea617f20565b5b600202015f82015f9054906101000a900473ffffffffffffffffffffffffffffffffffffffff16815f015f6101000a81548173ffffffffffffffffffffffffffffffffffffffff021916908373ffffffffffffffffffffffffffffffffffffffff160217905550600182015481600101559050508060ad5f60498460ff1660328110614d7a57614d79617f20565b5b600202015f015f9054906101000a900473ffffffffffffffffffffffffffffffffffffffff1673ffffffffffffffffffffffffffffffffffffffff1673ffffffffffffffffffffffffffffffffffffffff1681526020019081526020015f205f6101000a81548160ff021916908360ff1602179055508080614dfb90619614565b915050614c6d565b5b60405180604001604052803373ffffffffffffffffffffffffffffffffffffffff1681526020018581525060498260ff1660328110614e4657614e45617f20565b5b600202015f820151815f015f6101000a81548173ffffffffffffffffffffffffffffffffffffffff021916908373ffffffffffffffffffffffffffffffffffffffff160217905550602082015181600101559050508060ad5f3373ffffffffffffffffffffffffffffffffffffffff1673ffffffffffffffffffffffffffffffffffffffff1681526020019081526020015f205f6101000a81548160ff021916908360ff1602179055503373ffffffffffffffffffffffffffffffffffffffff167f1ce0beaec98d7537137a85c2d351c6c99900830d30fe8a7c353fa27225807e7284848785604051614f3c949392919061963b565b60405180910390a2604960026032614f5491906196ab565b60ff1660328110614f6857614f67617f20565b5b60020201600101546046541461503757604960026032614f8891906196ab565b60ff1660328110614f9c57614f9b617f20565b5b600202016001015460468190555060476040518060400160405280604654815260200142815250908060018154018082558091505060019003905f5260205f2090600202015f909190919091505f820151815f01556020820151816001015550507fa90e14be5aa57b910aa6dc16c31ff1b5cda380ae25a793b0d3f74df6131a7d7460465460405161502e9190616d82565b60405180910390a15b5050505b50565b42625c49005f5461504f91906191ed565b1061508f576040517f08c379a000000000000000000000000000000000000000000000000000000000815260040161508690619725565b60405180910390fd5b5f604254146150d3576040517f08c379a00000000000000000000000000000000000000000000000000000000081526004016150ca9061978d565b60405180910390fd5b600a60ff16603e805490501161511e576040517f08c379a0000000000000000000000000000000000000000000000000000000008152600401615115906197f5565b60405180910390fd5b620f424063ffffffff1660415f9054906101000a900463ffffffff1663ffffffff161015615181576040517f08c379a00000000000000000000000000000000000000000000000000000000081526004016151789061985d565b60405180910390fd5b620151804261519091906191ed565b6005819055507fa0ab6b515144b30d8222a12e45d1c1df7265286d8a0d9f73c23c8b06f602187160405160405180910390a1565b6103e881565b600554421061520e576040517f08c379a0000000000000000000000000000000000000000000000000000000008152600401615205906198c5565b60405180910390fd5b603e80549050828290501115615259576040517f08c379a00000000000000000000000000000000000000000000000000000000081526004016152509061992d565b60405180910390fd5b600260405f3373ffffffffffffffffffffffffffffffffffffffff1673ffffffffffffffffffffffffffffffffffffffff1681526020019081526020015f2054146152d9576040517f08c379a00000000000000000000000000000000000000000000000000000000081526004016152d0906199bb565b60405180910390fd5b5f603e8054905067ffffffffffffffff8111156152f9576152f8616653565b5b6040519080825280602002602001820160405280156153275781602001602082028036833780820191505090505b5090505f5b83839050811015615463575f84848381811061534b5761534a617f20565b5b905060200201359050603e80549050811061539b576040517f08c379a000000000000000000000000000000000000000000000000000000000815260040161539290619a23565b60405180910390fd5b8281815181106153ae576153ad617f20565b5b6020026020010151156153f6576040517f08c379a00000000000000000000000000000000000000000000000000000000081526004016153ed90619a8b565b60405180910390fd5b600183828151811061540b5761540a617f20565b5b602002602001019015159081151581525050603e818154811061543157615430617f20565b5b905f5260205f2090600802016007015f815480929190615450906189be565b919050555050808060010191505061532c565b504260405f3373ffffffffffffffffffffffffffffffffffffffff1673ffffffffffffffffffffffffffffffffffffffff1681526020019081526020015f20819055503373ffffffffffffffffffffffffffffffffffffffff167f4b50b8927fd1b030f5404dc4394c2a5d30d7f6c6fa6d732c089ffe8c10f0942160405160405180910390a2505050565b5f5481565b620f424081565b5f60075f8373ffffffffffffffffffffffffffffffffffffffff1673ffffffffffffffffffffffffffffffffffffffff1681526020019081526020015f20549050919050565b6004805490508110615587576040517f08c379a000000000000000000000000000000000000000000000000000000000815260040161557e90617f02565b60405180910390fd5b5f6004828154811061559c5761559b617f20565b5b905f5260205f20906007020190503373ffffffffffffffffffffffffffffffffffffffff16815f015f9054906101000a900473ffffffffffffffffffffffffffffffffffffffff1673ffffffffffffffffffffffffffffffffffffffff161461563a576040517f08c379a000000000000000000000000000000000000000000000000000000000815260040161563190619af3565b60405180910390fd5b5f816003015414615680576040517f08c379a000000000000000000000000000000000000000000000000000000000815260040161567790619b5b565b60405180910390fd5b5f8160040154146156c6576040517f08c379a00000000000000000000000000000000000000000000000000000000081526004016156bd90619bc3565b60405180910390fd5b4281600401819055505f603c5f3373ffffffffffffffffffffffffffffffffffffffff1673ffffffffffffffffffffffffffffffffffffffff1681526020019081526020015f2081905550817f5ca6c0bba519c857c8713fba9f5f1b582abe00c95dcccedccea41ad683bad26d60405160405180910390a25050565b603281565b60415f9054906101000a900463ffffffff1681565b6003602052805f5260405f205f91509050805f01805461577b90617b54565b80601f01602080910402602001604051908101604052809291908181526020018280546157a790617b54565b80156157f25780601f106157c9576101008083540402835291602001916157f2565b820191905f5260205f20905b8154815290600101906020018083116157d557829003601f168201915b50505050509080600101805461580790617b54565b80601f016020809104026020016040519081016040528092919081815260200182805461583390617b54565b801561587e5780601f106158555761010080835404028352916020019161587e565b820191905f5260205f20905b81548152906001019060200180831161586157829003601f168201915b50505050509080600201805461589390617b54565b80601f01602080910402602001604051908101604052809291908181526020018280546158bf90617b54565b801561590a5780601f106158e15761010080835404028352916020019161590a565b820191905f5260205f20905b8154815290600101906020018083116158ed57829003601f168201915b505050505090806003015490806004015490806005015f9054906101000a900460ff16908060060154905087565b60ad602052805f5260405f205f915054906101000a900460ff1681565b61595d61660b565b603a5f9054906101000a900460ff16156159eb5760086032806020026040519081016040528092919082603280156159df576020028201915b815f9054906101000a900473ffffffffffffffffffffffffffffffffffffffff1673ffffffffffffffffffffffffffffffffffffffff1681526020019060010190808311615996575b50505050509050615fbb565b5f544211615a2e576040517f08c379a0000000000000000000000000000000000000000000000000000000008152600401615a2590619c2b565b60405180910390fd5b5f600190505b603260ff168111615dd7575f5b8160028054905003811015615c975760035f60026001840181548110615a6a57615a69617f20565b5b905f5260205f20015f9054906101000a900473ffffffffffffffffffffffffffffffffffffffff1673ffffffffffffffffffffffffffffffffffffffff1673ffffffffffffffffffffffffffffffffffffffff1681526020019081526020015f206004015460035f60028481548110615ae657615ae5617f20565b5b905f5260205f20015f9054906101000a900473ffffffffffffffffffffffffffffffffffffffff1673ffffffffffffffffffffffffffffffffffffffff1673ffffffffffffffffffffffffffffffffffffffff1681526020019081526020015f20600401541115615c8a5760026001820181548110615b6857615b67617f20565b5b905f5260205f20015f9054906101000a900473ffffffffffffffffffffffffffffffffffffffff1660028281548110615ba457615ba3617f20565b5b905f5260205f20015f9054906101000a900473ffffffffffffffffffffffffffffffffffffffff1660028381548110615be057615bdf617f20565b5b905f5260205f20015f60026001860181548110615c0057615bff617f20565b5b905f5260205f20015f8491906101000a81548173ffffffffffffffffffffffffffffffffffffffff021916908373ffffffffffffffffffffffffffffffffffffffff1602179055508391906101000a81548173ffffffffffffffffffffffffffffffffffffffff021916908373ffffffffffffffffffffffffffffffffffffffff16021790555050505b8080600101915050615a41565b506002816002805490500381548110615cb357615cb2617f20565b5b905f5260205f20015f9054906101000a900473ffffffffffffffffffffffffffffffffffffffff1660086001830360328110615cf257615cf1617f20565b5b015f6101000a81548173ffffffffffffffffffffffffffffffffffffffff021916908373ffffffffffffffffffffffffffffffffffffffff160217905550600160035f6002846002805490500381548110615d5057615d4f617f20565b5b905f5260205f20015f9054906101000a900473ffffffffffffffffffffffffffffffffffffffff1673ffffffffffffffffffffffffffffffffffffffff1673ffffffffffffffffffffffffffffffffffffffff1681526020019081526020015f206005015f6101000a81548160ff0219169083151502179055508080600101915050615a34565b506001603a5f6101000a81548160ff02191690831515021790555060085f60328110615e0657615e05617f20565b5b015f9054906101000a900473ffffffffffffffffffffffffffffffffffffffff16603a60016101000a81548173ffffffffffffffffffffffffffffffffffffffff021916908373ffffffffffffffffffffffffffffffffffffffff1602179055505f603b819055504260035f603a60019054906101000a900473ffffffffffffffffffffffffffffffffffffffff1673ffffffffffffffffffffffffffffffffffffffff1673ffffffffffffffffffffffffffffffffffffffff1681526020019081526020015f20600601819055506008604051615ee49190619d24565b60405180910390207f5befb7b9346d2adf55904a87bbd0d35bcede9d28085a00c081c6168ac5ed6c44603a60019054906101000a900473ffffffffffffffffffffffffffffffffffffffff16604051615f3d91906171b2565b60405180910390a26008603280602002604051908101604052809291908260328015615fb3576020028201915b815f9054906101000a900473ffffffffffffffffffffffffffffffffffffffff1673ffffffffffffffffffffffffffffffffffffffff1681526020019060010190808311615f6a575b505050505090505b90565b60425481565b60478181548110615fd3575f80fd5b905f5260205f2090600202015f91509050805f0154908060010154905082565b615ffb61653a565b603e805490508210616042576040517f08c379a000000000000000000000000000000000000000000000000000000000815260040161603990619d89565b60405180910390fd5b603e828154811061605657616055617f20565b5b905f5260205f209060080201604051806101000160405290815f8201805461607d90617b54565b80601f01602080910402602001604051908101604052809291908181526020018280546160a990617b54565b80156160f45780601f106160cb576101008083540402835291602001916160f4565b820191905f5260205f20905b8154815290600101906020018083116160d757829003601f168201915b5050505050815260200160018201805461610d90617b54565b80601f016020809104026020016040519081016040528092919081815260200182805461613990617b54565b80156161845780601f1061615b57610100808354040283529160200191616184565b820191905f5260205f20905b81548152906001019060200180831161616757829003601f168201915b5050505050815260200160028201805461619d90617b54565b80601f01602080910402602001604051908101604052809291908181526020018280546161c990617b54565b80156162145780601f106161eb57610100808354040283529160200191616214565b820191905f5260205f20905b8154815290600101906020018083116161f757829003601f168201915b5050505050815260200160038201805461622d90617b54565b80601f016020809104026020016040519081016040528092919081815260200182805461625990617b54565b80156162a45780601f1061627b576101008083540402835291602001916162a4565b820191905f5260205f20905b81548152906001019060200180831161628757829003601f168201915b50505050508152602001600482015481526020016005820180546162c790617b54565b80601f01602080910402602001604051908101604052809291908181526020018280546162f390617b54565b801561633e5780601f106163155761010080835404028352916020019161633e565b820191905f5260205f20905b81548152906001019060200180831161632157829003601f168201915b50505050508152602001600682015481526020016007820154815250509050919050565b60465481565b5f6004828154811061637d5761637c617f20565b5b905f5260205f20906007020190505f5b8160060180549050811015616513575f8260060182815481106163b3576163b2617f20565b5b905f5260205f2090600302016040518060600160405290815f8201548152602001600182015f9054906101000a900473ffffffffffffffffffffffffffffffffffffffff1673ffffffffffffffffffffffffffffffffffffffff1673ffffffffffffffffffffffffffffffffffffffff16815260200160028201805461643890617b54565b80601f016020809104026020016040519081016040528092919081815260200182805461646490617b54565b80156164af5780601f10616486576101008083540402835291602001916164af565b820191905f5260205f20905b81548152906001019060200180831161649257829003601f168201915b5050505050815250509050806020015173ffffffffffffffffffffffffffffffffffffffff166108fc825f015190811502906040515f60405180830381858888f19350505050158015616504573d5f803e3d5ffd5b5050808060010191505061638d565b505050565b6040518060400160405280600290602082028036833780820191505090505090565b604051806101000160405280606081526020016060815260200160608152602001606081526020015f8019168152602001606081526020015f81526020015f81525090565b6040518060e001604052806060815260200160608152602001606081526020015f81526020015f81526020015f151581526020015f81525090565b6040518060e001604052805f73ffffffffffffffffffffffffffffffffffffffff168152602001606081526020015f81526020015f81526020015f81526020015f60ff168152602001606081525090565b604051806106400160405280603290602082028036833780820191505090505090565b5f604051905090565b5f80fd5b5f80fd5b5f80fd5b5f601f19601f8301169050919050565b7f4e487b71000000000000000000000000000000000000000000000000000000005f52604160045260245ffd5b61668982616643565b810181811067ffffffffffffffff821117156166a8576166a7616653565b5b80604052505050565b5f6166ba61662e565b90506166c68282616680565b919050565b5f80fd5b5f80fd5b5f80fd5b5f67ffffffffffffffff8211156166f1576166f0616653565b5b6166fa82616643565b9050602081019050919050565b828183375f83830152505050565b5f616727616722846166d7565b6166b1565b905082815260208101848484011115616743576167426166d3565b5b61674e848285616707565b509392505050565b5f82601f83011261676a576167696166cf565b5b813561677a848260208601616715565b91505092915050565b5f819050919050565b61679581616783565b811461679f575f80fd5b50565b5f813590506167b08161678c565b92915050565b5f819050919050565b6167c8816167b6565b81146167d2575f80fd5b50565b5f813590506167e3816167bf565b92915050565b5f61010082840312156167ff576167fe61663f565b5b61680a6101006166b1565b90505f82013567ffffffffffffffff811115616829576168286166cb565b5b61683584828501616756565b5f83015250602082013567ffffffffffffffff811115616858576168576166cb565b5b61686484828501616756565b602083015250604082013567ffffffffffffffff811115616888576168876166cb565b5b61689484828501616756565b604083015250606082013567ffffffffffffffff8111156168b8576168b76166cb565b5b6168c484828501616756565b60608301525060806168d8848285016167a2565b60808301525060a082013567ffffffffffffffff8111156168fc576168fb6166cb565b5b61690884828501616756565b60a08301525060c061691c848285016167d5565b60c08301525060e0616930848285016167d5565b60e08301525092915050565b5f6020828403121561695157616950616637565b5b5f82013567ffffffffffffffff81111561696e5761696d61663b565b5b61697a848285016167e9565b91505092915050565b5f6020828403121561699857616997616637565b5b5f6169a5848285016167d5565b91505092915050565b5f73ffffffffffffffffffffffffffffffffffffffff82169050919050565b5f6169d7826169ae565b9050919050565b6169e7816169cd565b82525050565b5f81519050919050565b5f82825260208201905092915050565b8281835e5f83830152505050565b5f616a1f826169ed565b616a2981856169f7565b9350616a39818560208601616a07565b616a4281616643565b840191505092915050565b616a56816167b6565b82525050565b5f60ff82169050919050565b616a7181616a5c565b82525050565b5f60c082019050616a8a5f8301896169de565b8181036020830152616a9c8188616a15565b9050616aab6040830187616a4d565b616ab86060830186616a4d565b616ac56080830185616a4d565b616ad260a0830184616a68565b979650505050505050565b5f602082019050616af05f830184616a68565b92915050565b616aff816169cd565b8114616b09575f80fd5b50565b5f81359050616b1a81616af6565b92915050565b5f8060408385031215616b3657616b35616637565b5b5f616b4385828601616b0c565b9250506020616b5485828601616b0c565b9150509250929050565b5f815f0b9050919050565b616b7281616b5e565b82525050565b5f602082019050616b8b5f830184616b69565b92915050565b5f805f60608486031215616ba857616ba7616637565b5b5f84013567ffffffffffffffff811115616bc557616bc461663b565b5b616bd186828701616756565b935050602084013567ffffffffffffffff811115616bf257616bf161663b565b5b616bfe86828701616756565b925050604084013567ffffffffffffffff811115616c1f57616c1e61663b565b5b616c2b86828701616756565b9150509250925092565b5f8115159050919050565b616c4981616c35565b82525050565b5f602082019050616c625f830184616c40565b92915050565b5f60208284031215616c7d57616c7c616637565b5b5f616c8a848285016167a2565b91505092915050565b5f60029050919050565b5f81905092915050565b5f819050919050565b616cb9816169cd565b82525050565b5f616cca8383616cb0565b60208301905092915050565b5f602082019050919050565b616ceb81616c93565b616cf58184616c9d565b9250616d0082616ca7565b805f5b83811015616d30578151616d178782616cbf565b9650616d2283616cd6565b925050600181019050616d03565b505050505050565b5f604082019050616d4b5f830184616ce2565b92915050565b5f819050919050565b616d6381616d51565b82525050565b5f602082019050616d7c5f830184616d5a565b92915050565b5f602082019050616d955f830184616a4d565b92915050565b5f8060408385031215616db157616db0616637565b5b5f616dbe85828601616b0c565b9250506020616dcf858286016167d5565b9150509250929050565b5f80fd5b5f819050826020600a0282011115616df857616df7616dd9565b5b92915050565b5f819050826020600a0282011115616e1957616e18616dd9565b5b92915050565b5f806102808385031215616e3657616e35616637565b5b5f616e4385828601616ddd565b925050610140616e5585828601616dfe565b9150509250929050565b616e6881616b5e565b8114616e72575f80fd5b50565b5f81359050616e8381616e5f565b92915050565b5f8060408385031215616e9f57616e9e616637565b5b5f616eac85828601616b0c565b9250506020616ebd85828601616e75565b9150509250929050565b5f60208284031215616edc57616edb616637565b5b5f616ee984828501616b0c565b91505092915050565b5f80fd5b5f8083601f840112616f0b57616f0a6166cf565b5b8235905067ffffffffffffffff811115616f2857616f27616ef2565b5b602083019150836001820283011115616f4457616f43616dd9565b5b9250929050565b5f8083601f840112616f6057616f5f6166cf565b5b8235905067ffffffffffffffff811115616f7d57616f7c616ef2565b5b602083019150836020820283011115616f9957616f98616dd9565b5b9250929050565b5f805f8060408587031215616fb857616fb7616637565b5b5f85013567ffffffffffffffff811115616fd557616fd461663b565b5b616fe187828801616ef6565b9450945050602085013567ffffffffffffffff8111156170045761700361663b565b5b61701087828801616f4b565b925092505092959194509250565b5f63ffffffff82169050919050565b6170368161701e565b82525050565b5f60208201905061704f5f83018461702d565b92915050565b5f82825260208201905092915050565b5f61706f826169ed565b6170798185617055565b9350617089818560208601616a07565b61709281616643565b840191505092915050565b6170a681616783565b82525050565b6170b5816167b6565b82525050565b5f61010083015f8301518482035f8601526170d68282617065565b915050602083015184820360208601526170f08282617065565b9150506040830151848203604086015261710a8282617065565b915050606083015184820360608601526171248282617065565b9150506080830151617139608086018261709d565b5060a083015184820360a08601526171518282617065565b91505060c083015161716660c08601826170ac565b5060e083015161717960e08601826170ac565b508091505092915050565b5f6040820190506171975f830185616a4d565b81810360208301526171a981846170bb565b90509392505050565b5f6020820190506171c55f8301846169de565b92915050565b5f6040820190506171de5f830185616d5a565b6171eb6020830184616a4d565b9392505050565b6171fb81616c35565b82525050565b5f60e083015f8301518482035f86015261721b8282617065565b915050602083015184820360208601526172358282617065565b9150506040830151848203604086015261724f8282617065565b915050606083015161726460608601826170ac565b50608083015161727760808601826170ac565b5060a083015161728a60a08601826171f2565b5060c083015161729d60c08601826170ac565b508091505092915050565b5f6020820190508181035f8301526172c08184617201565b905092915050565b5f80604083850312156172de576172dd616637565b5b5f6172eb858286016167d5565b92505060206172fc85828601616b0c565b9150509250929050565b5f6040820190506173195f8301856169de565b6173266020830184616a4d565b9392505050565b7f4e487b71000000000000000000000000000000000000000000000000000000005f52602160045260245ffd5b6005811061736b5761736a61732d565b5b50565b5f81905061737b8261735a565b919050565b5f61738a8261736e565b9050919050565b61739a81617380565b82525050565b5f6020820190506173b35f830184617391565b92915050565b5f8083601f8401126173ce576173cd6166cf565b5b8235905067ffffffffffffffff8111156173eb576173ea616ef2565b5b60208301915083602082028301111561740757617406616dd9565b5b9250929050565b5f806020838503121561742457617423616637565b5b5f83013567ffffffffffffffff8111156174415761744061663b565b5b61744d858286016173b9565b92509250509250929050565b61746281616783565b82525050565b5f610100820190508181035f830152617481818b616a15565b90508181036020830152617495818a616a15565b905081810360408301526174a98189616a15565b905081810360608301526174bd8188616a15565b90506174cc6080830187617459565b81810360a08301526174de8186616a15565b90506174ed60c0830185616a4d565b6174fa60e0830184616a4d565b9998505050505050505050565b61751081616a5c565b82525050565b5f81519050919050565b5f82825260208201905092915050565b5f819050602082019050919050565b5f606083015f8301516175545f8601826170ac565b5060208301516175676020860182616cb0565b506040830151848203604086015261757f8282617065565b9150508091505092915050565b5f617597838361753f565b905092915050565b5f602082019050919050565b5f6175b582617516565b6175bf8185617520565b9350836020820285016175d185617530565b805f5b8581101561760c57848403895281516175ed858261758c565b94506175f88361759f565b925060208a019950506001810190506175d4565b50829750879550505050505092915050565b5f60e083015f8301516176335f860182616cb0565b506020830151848203602086015261764b8282617065565b915050604083015161766060408601826170ac565b50606083015161767360608601826170ac565b50608083015161768660808601826170ac565b5060a083015161769960a0860182617507565b5060c083015184820360c08601526176b182826175ab565b9150508091505092915050565b5f6020820190508181035f8301526176d6818461761e565b905092915050565b5f60e0820190508181035f8301526176f6818a616a15565b9050818103602083015261770a8189616a15565b9050818103604083015261771e8188616a15565b905061772d6060830187616a4d565b61773a6080830186616a4d565b61774760a0830185616c40565b61775460c0830184616a4d565b98975050505050505050565b5f60329050919050565b5f81905092915050565b5f819050919050565b5f602082019050919050565b61779281617760565b61779c818461776a565b92506177a782617774565b805f5b838110156177d75781516177be8782616cbf565b96506177c98361777d565b9250506001810190506177aa565b505050505050565b5f610640820190506177f35f830184617789565b92915050565b5f60408201905061780c5f830185616a4d565b6178196020830184616a4d565b9392505050565b5f6020820190508181035f83015261783881846170bb565b905092915050565b7f57726f6e672070686173650000000000000000000000000000000000000000005f82015250565b5f617874600b836169f7565b915061787f82617840565b602082019050919050565b5f6020820190508181035f8301526178a181617868565b9050919050565b7f4465736372697074696f6e2072657175697265640000000000000000000000005f82015250565b5f6178dc6014836169f7565b91506178e7826178a8565b602082019050919050565b5f6020820190508181035f830152617909816178d0565b9050919050565b7f636f6e737469747574696f6e54657874207265717569726564000000000000005f82015250565b5f6179446019836169f7565b915061794f82617910565b602082019050919050565b5f6020820190508181035f83015261797181617938565b9050919050565b7f50726f706f736572206e616d65207265717569726564000000000000000000005f82015250565b5f6179ac6016836169f7565b91506179b782617978565b602082019050919050565b5f6020820190508181035f8301526179d9816179a0565b9050919050565b7f496e73756666696369656e74207375626d697373696f6e2066656500000000005f82015250565b5f617a14601b836169f7565b9150617a1f826179e0565b602082019050919050565b5f6020820190508181035f830152617a4181617a08565b9050919050565b5f81905092915050565b5f617a5c826169ed565b617a668185617a48565b9350617a76818560208601616a07565b80840191505092915050565b5f617a8d8287617a52565b9150617a998286617a52565b9150617aa58285617a52565b9150617ab18284617a52565b915081905095945050505050565b7f496e636f727265637420486173682100000000000000000000000000000000005f82015250565b5f617af3600f836169f7565b9150617afe82617abf565b602082019050919050565b5f6020820190508181035f830152617b2081617ae7565b9050919050565b7f4e487b71000000000000000000000000000000000000000000000000000000005f52602260045260245ffd5b5f6002820490506001821680617b6b57607f821691505b602082108103617b7e57617b7d617b27565b5b50919050565b5f819050815f5260205f209050919050565b5f6020601f8301049050919050565b5f82821b905092915050565b5f60088302617be07fffffffffffffffffffffffffffffffffffffffffffffffffffffffffffffffff82617ba5565b617bea8683617ba5565b95508019841693508086168417925050509392505050565b5f819050919050565b5f617c25617c20617c1b846167b6565b617c02565b6167b6565b9050919050565b5f819050919050565b617c3e83617c0b565b617c52617c4a82617c2c565b848454617bb1565b825550505050565b5f90565b617c66617c5a565b617c71818484617c35565b505050565b5b81811015617c9457617c895f82617c5e565b600181019050617c77565b5050565b601f821115617cd957617caa81617b84565b617cb384617b96565b81016020851015617cc2578190505b617cd6617cce85617b96565b830182617c76565b50505b505050565b5f82821c905092915050565b5f617cf95f1984600802617cde565b1980831691505092915050565b5f617d118383617cea565b9150826002028217905092915050565b617d2a826169ed565b67ffffffffffffffff811115617d4357617d42616653565b5b617d4d8254617b54565b617d58828285617c98565b5f60209050601f831160018114617d89575f8415617d77578287015190505b617d818582617d06565b865550617de8565b601f198416617d9786617b84565b5f5b82811015617dbe57848901518255600182019150602085019450602081019050617d99565b86831015617ddb5784890151617dd7601f891682617cea565b8355505b6001600288020188555050505b505050505050565b7f4e487b71000000000000000000000000000000000000000000000000000000005f52601160045260245ffd5b5f617e27826167b6565b9150617e32836167b6565b9250828203905081811115617e4a57617e49617df0565b5b92915050565b7f4f6e6c79206d656d626572732063616e20766f746500000000000000000000005f82015250565b5f617e846015836169f7565b9150617e8f82617e50565b602082019050919050565b5f6020820190508181035f830152617eb181617e78565b9050919050565b7f496e76616c69642070726f706f73616c204944000000000000000000000000005f82015250565b5f617eec6013836169f7565b9150617ef782617eb8565b602082019050919050565b5f6020820190508181035f830152617f1981617ee0565b9050919050565b7f4e487b71000000000000000000000000000000000000000000000000000000005f52603260045260245ffd5b7f50726f706f73616c2077697468647261776e00000000000000000000000000005f82015250565b5f617f816012836169f7565b9150617f8c82617f4d565b602082019050919050565b5f6020820190508181035f830152617fae81617f75565b9050919050565b7f416c726561647920766f746564000000000000000000000000000000000000005f82015250565b5f617fe9600d836169f7565b9150617ff482617fb5565b602082019050919050565b5f6020820190508181035f83015261801681617fdd565b9050919050565b5f61802782616a5c565b915060ff820361803a57618039617df0565b5b600182019050919050565b7f496e76616c6964206e616d6500000000000000000000000000000000000000005f82015250565b5f618079600c836169f7565b915061808482618045565b602082019050919050565b5f6020820190508181035f8301526180a68161806d565b9050919050565b7f496e76616c69642062696f0000000000000000000000000000000000000000005f82015250565b5f6180e1600b836169f7565b91506180ec826180ad565b602082019050919050565b5f6020820190508181035f83015261810e816180d5565b9050919050565b7f496e76616c6964207765627369746500000000000000000000000000000000005f82015250565b5f618149600f836169f7565b915061815482618115565b602082019050919050565b5f6020820190508181035f8301526181768161813d565b9050919050565b7f496e76616c69642073656e6465720000000000000000000000000000000000005f82015250565b5f6181b1600e836169f7565b91506181bc8261817d565b602082019050919050565b5f6020820190508181035f8301526181de816181a5565b9050919050565b7f496e73756666696369656e7420726567697374726174696f6e206665650000005f82015250565b5f618219601d836169f7565b9150618224826181e5565b602082019050919050565b5f6020820190508181035f8301526182468161820d565b9050919050565b7f43616e64696461746520726567697374726174696f6e20706572696f642068615f8201527f7320656e6465642e000000000000000000000000000000000000000000000000602082015250565b5f6182a76028836169f7565b91506182b28261824d565b604082019050919050565b5f6020820190508181035f8301526182d48161829b565b9050919050565b7f416c7265616479207265676973746572656400000000000000000000000000005f82015250565b5f61830f6012836169f7565b915061831a826182db565b602082019050919050565b5f6020820190508181035f83015261833c81618303565b9050919050565b5f6060820190508181035f83015261835b8186616a15565b9050818103602083015261836f8185616a15565b905081810360408301526183838184616a15565b9050949350505050565b5f61839782616d51565b91506183a283616d51565b92508282019050828112155f8312168382125f8412151617156183c8576183c7617df0565b5b92915050565b5f61ffff82169050919050565b5f6183e5826183ce565b915061ffff82036183f9576183f8617df0565b5b600182019050919050565b7f4e6f7420617574686f72697a6564206e65757472616c000000000000000000005f82015250565b5f6184386016836169f7565b915061844382618404565b602082019050919050565b5f6020820190508181035f8301526184658161842c565b9050919050565b7f566f74657220616464696e6720706572696f642068617320656e6465642e00005f82015250565b5f6184a0601e836169f7565b91506184ab8261846c565b602082019050919050565b5f6020820190508181035f8301526184cd81618494565b9050919050565b7f4d6178696d756d206e756d626572206f6620766f7465727320726561636865645f8201527f2e00000000000000000000000000000000000000000000000000000000000000602082015250565b5f61852e6021836169f7565b9150618539826184d4565b604082019050919050565b5f6020820190508181035f83015261855b81618522565b9050919050565b7f496e636f72726563742062617463682073697a650000000000000000000000005f82015250565b5f6185966014836169f7565b91506185a182618562565b602082019050919050565b5f6020820190508181035f8301526185c38161858a565b9050919050565b7f566f746572206861736820616c726561647920726567697374657265640000005f82015250565b5f6185fe601d836169f7565b9150618609826185ca565b602082019050919050565b5f6020820190508181035f83015261862b816185f2565b9050919050565b7f496e76616c696420766f746572206164647265737300000000000000000000005f82015250565b5f6186666015836169f7565b915061867182618632565b602082019050919050565b5f6020820190508181035f8301526186938161865a565b9050919050565b7f416464726573737320616c726561647920726567697374657265642e205265675f8201527f697374726172204552524f522100000000000000000000000000000000000000602082015250565b5f6186f4602d836169f7565b91506186ff8261869a565b604082019050919050565b5f6020820190508181035f830152618721816186e8565b9050919050565b5f6187328261701e565b915061873d8361701e565b9250828201905063ffffffff81111561875957618758617df0565b5b92915050565b5f600a9050919050565b5f81905092915050565b5f819050919050565b618785816169cd565b82525050565b5f618796838361877c565b60208301905092915050565b5f6187b06020840184616b0c565b905092915050565b5f602082019050919050565b6187cd8161875f565b6187d78184618769565b92506187e282618773565b805f5b8381101561881a576187f782846187a2565b618801878261878b565b965061880c836187b8565b9250506001810190506187e5565b505050505050565b5f61882d82846187c4565b6101408201915081905092915050565b5f61885761885261884d8461701e565b617c02565b6167b6565b9050919050565b6188678161883d565b82525050565b5f6020820190506188805f83018461885e565b92915050565b7f4e6f742061206d656d62657200000000000000000000000000000000000000005f82015250565b5f6188ba600c836169f7565b91506188c582618886565b602082019050919050565b5f6020820190508181035f8301526188e7816188ae565b9050919050565b7f566f7465206d757374206265202d312c20302c206f72203100000000000000005f82015250565b5f6189226018836169f7565b915061892d826188ee565b602082019050919050565b5f6020820190508181035f83015261894f81618916565b9050919050565b7f4d617820766f74657320726561636865640000000000000000000000000000005f82015250565b5f61898a6011836169f7565b915061899582618956565b602082019050919050565b5f6020820190508181035f8301526189b78161897e565b9050919050565b5f6189c8826167b6565b91507fffffffffffffffffffffffffffffffffffffffffffffffffffffffffffffffff82036189fa576189f9617df0565b5b600182019050919050565b5f618a0f826167b6565b91505f8203618a2157618a20617df0565b5b600182039050919050565b5f618a3682616b5e565b9150618a4183616b5e565b92508282039050607f81137fffffffffffffffffffffffffffffffffffffffffffffffffffffffffffffff8082121715618a7e57618a7d617df0565b5b92915050565b7f4f6e6c79206d656d626572732063616e2070726f706f73652070726f706f73615f8201527f6c73000000000000000000000000000000000000000000000000000000000000602082015250565b5f618ade6022836169f7565b9150618ae982618a84565b604082019050919050565b5f6020820190508181035f830152618b0b81618ad2565b9050919050565b7f50726f766973696f6e73207265717569726564000000000000000000000000005f82015250565b5f618b466013836169f7565b9150618b5182618b12565b602082019050919050565b5f6020820190508181035f830152618b7381618b3a565b9050919050565b7f4d656d62657220616c72656164792068617320616e206163746976652070726f5f8201527f706f73616c000000000000000000000000000000000000000000000000000000602082015250565b5f618bd46025836169f7565b9150618bdf82618b7a565b604082019050919050565b5f6020820190508181035f830152618c0181618bc8565b9050919050565b5f82905092915050565b618c1c8383618c08565b67ffffffffffffffff811115618c3557618c34616653565b5b618c3f8254617b54565b618c4a828285617c98565b5f601f831160018114618c77575f8415618c65578287013590505b618c6f8582617d06565b865550618cd6565b601f198416618c8586617b84565b5f5b82811015618cac57848901358255600182019150602085019450602081019050618c87565b86831015618cc95784890135618cc5601f891682617cea565b8355505b6001600288020188555050505b50505050505050565b5f80fd5b5f80fd5b5f80fd5b5f82356001606003833603038112618d0657618d05618cdf565b5b80830191505092915050565b5f8135618d1e816167bf565b80915050919050565b5f815f1b9050919050565b5f7fffffffffffffffffffffffffffffffffffffffffffffffffffffffffffffffff618d5d84618d27565b9350801983169250808416831791505092915050565b618d7c82617c0b565b618d8f618d8882617c2c565b8354618d32565b8255505050565b5f8135618da281616af6565b80915050919050565b5f73ffffffffffffffffffffffffffffffffffffffff618dca84618d27565b9350801983169250808416831791505092915050565b5f618dfa618df5618df0846169ae565b617c02565b6169ae565b9050919050565b5f618e0b82618de0565b9050919050565b5f618e1c82618e01565b9050919050565b5f819050919050565b618e3582618e12565b618e48618e4182618e23565b8354618dab565b8255505050565b5f8083356001602003843603038112618e6b57618e6a618cdf565b5b80840192508235915067ffffffffffffffff821115618e8d57618e8c618ce3565b5b602083019250600182023603831315618ea957618ea8618ce7565b5b509250929050565b618ebc838383618c12565b505050565b5f81015f830180618ed181618d12565b9050618edd8184618d73565b505050600181016020830180618ef281618d96565b9050618efe8184618e2c565b5050506002810160408301618f138185618e4f565b618f1e818386618eb1565b505050505050565b618f308282618ec1565b5050565b5f618f3f83856169f7565b9350618f4c838584616707565b618f5583616643565b840190509392505050565b5f6020820190508181035f830152618f79818486618f34565b90509392505050565b7f43616c6c206f6e6365206166746572205265666572656e64756d0000000000005f82015250565b5f618fb6601a836169f7565b9150618fc182618f82565b602082019050919050565b5f6020820190508181035f830152618fe381618faa565b9050919050565b7f496e76616c69642043616e6469646174652049440000000000000000000000005f82015250565b5f61901e6014836169f7565b915061902982618fea565b602082019050919050565b5f6020820190508181035f83015261904b81619012565b9050919050565b7f4e6f742061204d656d62657200000000000000000000000000000000000000005f82015250565b5f619086600c836169f7565b915061909182619052565b602082019050919050565b5f6020820190508181035f8301526190b38161907a565b9050919050565b7f4e6f7420656e6f75676820617070726f76616c000000000000000000000000005f82015250565b5f6190ee6013836169f7565b91506190f9826190ba565b602082019050919050565b5f6020820190508181035f83015261911b816190e2565b9050919050565b7f566f746572206861736820616c726561647920726567697374657265642e00005f82015250565b5f619156601e836169f7565b915061916182619122565b602082019050919050565b5f6020820190508181035f8301526191838161914a565b9050919050565b5f60408201905061919d5f8301856169de565b6191aa602083018461885e565b9392505050565b5f6191bb82616a5c565b91506191c683616a5c565b92508282026191d481616a5c565b91508082146191e6576191e5617df0565b5b5092915050565b5f6191f7826167b6565b9150619202836167b6565b925082820190508082111561921a57619219617df0565b5b92915050565b7f43757272656e74206c65616465722773207465726d206e6f742066696e6973685f8201527f6564000000000000000000000000000000000000000000000000000000000000602082015250565b5f61927a6022836169f7565b915061928582619220565b604082019050919050565b5f6020820190508181035f8301526192a78161926e565b9050919050565b7f4e6f7420696e20456c656374696f6e20706861736500000000000000000000005f82015250565b5f6192e26015836169f7565b91506192ed826192ae565b602082019050919050565b5f6020820190508181035f83015261930f816192d6565b9050919050565b7f496e76616c696420766f746520636f756e7400000000000000000000000000005f82015250565b5f61934a6012836169f7565b915061935582619316565b602082019050919050565b5f6020820190508181035f8301526193778161933e565b9050919050565b7f416c726561647920766f74656420283e3129206f72206e6f74207265676973745f8201527f6572656420283029000000000000000000000000000000000000000000000000602082015250565b5f6193d86028836169f7565b91506193e38261937e565b604082019050919050565b5f6020820190508181035f830152619405816193cc565b9050919050565b7f57726f6e672063616e64696461746520696e64657800000000000000000000005f82015250565b5f6194406015836169f7565b915061944b8261940c565b602082019050919050565b5f6020820190508181035f83015261946d81619434565b9050919050565b7f526570657469746976652063616e64696461746520696e6465780000000000005f82015250565b5f6194a8601a836169f7565b91506194b382619474565b602082019050919050565b5f6020820190508181035f8301526194d58161949c565b9050919050565b7f4f6e6c79206d656d626572732063616e2070726f706f736500000000000000005f82015250565b5f6195106018836169f7565b915061951b826194dc565b602082019050919050565b5f6020820190508181035f83015261953d81619504565b9050919050565b7f526174652063616e6e6f742065786365656420353025000000000000000000005f82015250565b5f6195786016836169f7565b915061958382619544565b602082019050919050565b5f6020820190508181035f8301526195a58161956c565b9050919050565b5f6195b682616a5c565b91506195c183616a5c565b9250828203905060ff8111156195da576195d9617df0565b5b92915050565b5f6195ea82616a5c565b91506195f583616a5c565b9250828201905060ff81111561960e5761960d617df0565b5b92915050565b5f61961e82616a5c565b91505f82036196305761962f617df0565b5b600182039050919050565b5f60808201905061964e5f830187616a4d565b61965b6020830186616a68565b6196686040830185616a4d565b6196756060830184616a68565b95945050505050565b7f4e487b71000000000000000000000000000000000000000000000000000000005f52601260045260245ffd5b5f6196b582616a5c565b91506196c083616a5c565b9250826196d0576196cf61967e565b5b828204905092915050565b7f43616e6e6f74207374617274207265666572656e64756d2079657400000000005f82015250565b5f61970f601b836169f7565b915061971a826196db565b602082019050919050565b5f6020820190508181035f83015261973c81619703565b9050919050565b7f416c7265616479207261746966696564206120636f6e737469747574696f6e005f82015250565b5f619777601f836169f7565b915061978282619743565b602082019050919050565b5f6020820190508181035f8301526197a48161976b565b9050919050565b7f4e6f7420656e6f756768206472616674730000000000000000000000000000005f82015250565b5f6197df6011836169f7565b91506197ea826197ab565b602082019050919050565b5f6020820190508181035f83015261980c816197d3565b9050919050565b7f4e6f7420656e6f75676820766f746572730000000000000000000000000000005f82015250565b5f6198476011836169f7565b915061985282619813565b602082019050919050565b5f6020820190508181035f8301526198748161983b565b9050919050565b7f4e6f7420696e205265666572656e64756d2074696d65000000000000000000005f82015250565b5f6198af6016836169f7565b91506198ba8261987b565b602082019050919050565b5f6020820190508181035f8301526198dc816198a3565b9050919050565b7f496e76616c6964206472616674206c69737400000000000000000000000000005f82015250565b5f6199176012836169f7565b9150619922826198e3565b602082019050919050565b5f6020820190508181035f8301526199448161990b565b9050919050565b7f566f746564206f72204e6f74207265676973746572656420656e6f75676820745f8201527f696d657300000000000000000000000000000000000000000000000000000000602082015250565b5f6199a56024836169f7565b91506199b08261994b565b604082019050919050565b5f6020820190508181035f8301526199d281619999565b9050919050565b7f496e76616c6964206472616674000000000000000000000000000000000000005f82015250565b5f619a0d600d836169f7565b9150619a18826199d9565b602082019050919050565b5f6020820190508181035f830152619a3a81619a01565b9050919050565b7f52657065746974697665206472616674496400000000000000000000000000005f82015250565b5f619a756012836169f7565b9150619a8082619a41565b602082019050919050565b5f6020820190508181035f830152619aa281619a69565b9050919050565b7f4f6e6c79207468652070726f706f7365722063616e20776974686472617700005f82015250565b5f619add601e836169f7565b9150619ae882619aa9565b602082019050919050565b5f6020820190508181035f830152619b0a81619ad1565b9050919050565b7f50726f706f73616c20616c7265616479206578656375746564000000000000005f82015250565b5f619b456019836169f7565b9150619b5082619b11565b602082019050919050565b5f6020820190508181035f830152619b7281619b39565b9050919050565b7f50726f706f73616c20616c72656164792077697468647261776e0000000000005f82015250565b5f619bad601a836169f7565b9150619bb882619b79565b602082019050919050565b5f6020820190508181035f830152619bda81619ba1565b9050919050565b7f43616c6c20616674657220656c656374696f6e000000000000000000000000005f82015250565b5f619c156013836169f7565b9150619c2082619be1565b602082019050919050565b5f6020820190508181035f830152619c4281619c09565b9050919050565b5f60329050919050565b5f81905092915050565b5f819050919050565b5f815f1c9050919050565b5f73ffffffffffffffffffffffffffffffffffffffff82169050919050565b5f619ca2619c9d83619c66565b619c71565b9050919050565b5f619cb48254619c90565b9050919050565b5f600182019050919050565b619cd081619c49565b619cda8184619c53565b9250619ce582619c5d565b805f5b83811015619d1c57619cf982619ca9565b619d03878261878b565b9650619d0e83619cbb565b925050600181019050619ce8565b505050505050565b5f619d2f8284619cc7565b6106408201915081905092915050565b7f496e76616c696420636f6e737469747574696f6e2064726166742049440000005f82015250565b5f619d73601d836169f7565b9150619d7e82619d3f565b602082019050919050565b5f6020820190508181035f830152619da081619d67565b905091905056fea2646970667358221220d1be975aea921a1248423ec11e18b0aaaa3d89b1924d930b68b69822dd2f967b64736f6c634300081a0033",
			"opcodes": "PUSH1 0xA0 PUSH1 0x40 MSTORE PUSH0 PUSH1 0x3A PUSH0 PUSH2 0x100 EXP DUP2 SLOAD DUP2 PUSH1 0xFF MUL NOT AND SWAP1 DUP4 ISZERO ISZERO MUL OR SWAP1 SSTORE POP PUSH0 PUSH1 0xAE PUSH0 PUSH2 0x100 EXP DUP2 SLOAD DUP2 PUSH1 0xFF MUL NOT AND SWAP1 DUP4 PUSH1 0xFF AND MUL OR SWAP1 SSTORE POP CALLVALUE DUP1 ISZERO PUSH2 0x42 JUMPI PUSH0 DUP1 REVERT JUMPDEST POP PUSH1 0x40 MLOAD PUSH2 0xA4B8 CODESIZE SUB DUP1 PUSH2 0xA4B8 DUP4 CODECOPY DUP2 DUP2 ADD PUSH1 0x40 MSTORE DUP2 ADD SWAP1 PUSH2 0x64 SWAP2 SWAP1 PUSH2 0x32D JUMP JUMPDEST DUP2 PUSH1 0x1 PUSH0 PUSH2 0x100 EXP DUP2 SLOAD DUP2 PUSH20 0xFFFFFFFFFFFFFFFFFFFFFFFFFFFFFFFFFFFFFFFF MUL NOT AND SWAP1 DUP4 PUSH20 0xFFFFFFFFFFFFFFFFFFFFFFFFFFFFFFFFFFFFFFFF AND MUL OR SWAP1 SSTORE POP TIMESTAMP PUSH1 0x80 DUP2 DUP2 MSTORE POP POP PUSH1 0x1 PUSH3 0x127500 PUSH1 0x80 MLOAD PUSH2 0xBF SWAP2 SWAP1 PUSH2 0x3BD JUMP JUMPDEST PUSH2 0xC9 SWAP2 SWAP1 PUSH2 0x3BD JUMP JUMPDEST PUSH0 DUP2 SWAP1 SSTORE POP PUSH0 PUSH1 0x4 PUSH1 0x1 DUP2 PUSH1 0x1 DUP2 SLOAD ADD DUP1 DUP3 SSTORE DUP1 SWAP2 POP POP SUB SWAP1 PUSH0 MSTORE PUSH1 0x20 PUSH0 KECCAK256 SWAP1 PUSH1 0x7 MUL ADD SWAP1 POP CALLER DUP2 PUSH0 ADD PUSH0 PUSH2 0x100 EXP DUP2 SLOAD DUP2 PUSH20 0xFFFFFFFFFFFFFFFFFFFFFFFFFFFFFFFFFFFFFFFF MUL NOT AND SWAP1 DUP4 PUSH20 0xFFFFFFFFFFFFFFFFFFFFFFFFFFFFFFFFFFFFFFFF AND MUL OR SWAP1 SSTORE POP DUP2 DUP2 PUSH1 0x1 ADD SWAP1 DUP2 PUSH2 0x141 SWAP2 SWAP1 PUSH2 0x5F4 JUMP JUMPDEST POP PUSH1 0x80 MLOAD DUP2 PUSH1 0x2 ADD DUP2 SWAP1 SSTORE POP PUSH1 0x80 MLOAD DUP2 PUSH1 0x3 ADD DUP2 SWAP1 SSTORE POP PUSH0 DUP2 PUSH1 0x4 ADD DUP2 SWAP1 SSTORE POP PUSH1 0x32 DUP2 PUSH1 0x5 ADD PUSH0 PUSH2 0x100 EXP DUP2 SLOAD DUP2 PUSH1 0xFF MUL NOT AND SWAP1 DUP4 PUSH1 0xFF AND MUL OR SWAP1 SSTORE POP POP POP POP PUSH2 0x6C3 JUMP JUMPDEST PUSH0 PUSH1 0x40 MLOAD SWAP1 POP SWAP1 JUMP JUMPDEST PUSH0 DUP1 REVERT JUMPDEST PUSH0 DUP1 REVERT JUMPDEST PUSH0 PUSH20 0xFFFFFFFFFFFFFFFFFFFFFFFFFFFFFFFFFFFFFFFF DUP3 AND SWAP1 POP SWAP2 SWAP1 POP JUMP JUMPDEST PUSH0 PUSH2 0x1C0 DUP3 PUSH2 0x197 JUMP JUMPDEST SWAP1 POP SWAP2 SWAP1 POP JUMP JUMPDEST PUSH2 0x1D0 DUP2 PUSH2 0x1B6 JUMP JUMPDEST DUP2 EQ PUSH2 0x1DA JUMPI PUSH0 DUP1 REVERT JUMPDEST POP JUMP JUMPDEST PUSH0 DUP2 MLOAD SWAP1 POP PUSH2 0x1EB DUP2 PUSH2 0x1C7 JUMP JUMPDEST SWAP3 SWAP2 POP POP JUMP JUMPDEST PUSH0 DUP1 REVERT JUMPDEST PUSH0 DUP1 REVERT JUMPDEST PUSH0 PUSH1 0x1F NOT PUSH1 0x1F DUP4 ADD AND SWAP1 POP SWAP2 SWAP1 POP JUMP JUMPDEST PUSH32 0x4E487B7100000000000000000000000000000000000000000000000000000000 PUSH0 MSTORE PUSH1 0x41 PUSH1 0x4 MSTORE PUSH1 0x24 PUSH0 REVERT JUMPDEST PUSH2 0x23F DUP3 PUSH2 0x1F9 JUMP JUMPDEST DUP2 ADD DUP2 DUP2 LT PUSH8 0xFFFFFFFFFFFFFFFF DUP3 GT OR ISZERO PUSH2 0x25E JUMPI PUSH2 0x25D PUSH2 0x209 JUMP JUMPDEST JUMPDEST DUP1 PUSH1 0x40 MSTORE POP POP POP JUMP JUMPDEST PUSH0 PUSH2 0x270 PUSH2 0x186 JUMP JUMPDEST SWAP1 POP PUSH2 0x27C DUP3 DUP3 PUSH2 0x236 JUMP JUMPDEST SWAP2 SWAP1 POP JUMP JUMPDEST PUSH0 PUSH8 0xFFFFFFFFFFFFFFFF DUP3 GT ISZERO PUSH2 0x29B JUMPI PUSH2 0x29A PUSH2 0x209 JUMP JUMPDEST JUMPDEST PUSH2 0x2A4 DUP3 PUSH2 0x1F9 JUMP JUMPDEST SWAP1 POP PUSH1 0x20 DUP2 ADD SWAP1 POP SWAP2 SWAP1 POP JUMP JUMPDEST DUP3 DUP2 DUP4 MCOPY PUSH0 DUP4 DUP4 ADD MSTORE POP POP POP JUMP JUMPDEST PUSH0 PUSH2 0x2D1 PUSH2 0x2CC DUP5 PUSH2 0x281 JUMP JUMPDEST PUSH2 0x267 JUMP JUMPDEST SWAP1 POP DUP3 DUP2 MSTORE PUSH1 0x20 DUP2 ADD DUP5 DUP5 DUP5 ADD GT ISZERO PUSH2 0x2ED JUMPI PUSH2 0x2EC PUSH2 0x1F5 JUMP JUMPDEST JUMPDEST PUSH2 0x2F8 DUP5 DUP3 DUP6 PUSH2 0x2B1 JUMP JUMPDEST POP SWAP4 SWAP3 POP POP POP JUMP JUMPDEST PUSH0 DUP3 PUSH1 0x1F DUP4 ADD SLT PUSH2 0x314 JUMPI PUSH2 0x313 PUSH2 0x1F1 JUMP JUMPDEST JUMPDEST DUP2 MLOAD PUSH2 0x324 DUP5 DUP3 PUSH1 0x20 DUP7 ADD PUSH2 0x2BF JUMP JUMPDEST SWAP2 POP POP SWAP3 SWAP2 POP POP JUMP JUMPDEST PUSH0 DUP1 PUSH1 0x40 DUP4 DUP6 SUB SLT ISZERO PUSH2 0x343 JUMPI PUSH2 0x342 PUSH2 0x18F JUMP JUMPDEST JUMPDEST PUSH0 PUSH2 0x350 DUP6 DUP3 DUP7 ADD PUSH2 0x1DD JUMP JUMPDEST SWAP3 POP POP PUSH1 0x20 DUP4 ADD MLOAD PUSH8 0xFFFFFFFFFFFFFFFF DUP2 GT ISZERO PUSH2 0x371 JUMPI PUSH2 0x370 PUSH2 0x193 JUMP JUMPDEST JUMPDEST PUSH2 0x37D DUP6 DUP3 DUP7 ADD PUSH2 0x300 JUMP JUMPDEST SWAP2 POP POP SWAP3 POP SWAP3 SWAP1 POP JUMP JUMPDEST PUSH0 DUP2 SWAP1 POP SWAP2 SWAP1 POP JUMP JUMPDEST PUSH32 0x4E487B7100000000000000000000000000000000000000000000000000000000 PUSH0 MSTORE PUSH1 0x11 PUSH1 0x4 MSTORE PUSH1 0x24 PUSH0 REVERT JUMPDEST PUSH0 PUSH2 0x3C7 DUP3 PUSH2 0x387 JUMP JUMPDEST SWAP2 POP PUSH2 0x3D2 DUP4 PUSH2 0x387 JUMP JUMPDEST SWAP3 POP DUP3 DUP3 ADD SWAP1 POP DUP1 DUP3 GT ISZERO PUSH2 0x3EA JUMPI PUSH2 0x3E9 PUSH2 0x390 JUMP JUMPDEST JUMPDEST SWAP3 SWAP2 POP POP JUMP JUMPDEST PUSH0 DUP2 MLOAD SWAP1 POP SWAP2 SWAP1 POP JUMP JUMPDEST PUSH32 0x4E487B7100000000000000000000000000000000000000000000000000000000 PUSH0 MSTORE PUSH1 0x22 PUSH1 0x4 MSTORE PUSH1 0x24 PUSH0 REVERT JUMPDEST PUSH0 PUSH1 0x2 DUP3 DIV SWAP1 POP PUSH1 0x1 DUP3 AND DUP1 PUSH2 0x43E JUMPI PUSH1 0x7F DUP3 AND SWAP2 POP JUMPDEST PUSH1 0x20 DUP3 LT DUP2 SUB PUSH2 0x451 JUMPI PUSH2 0x450 PUSH2 0x3FA JUMP JUMPDEST JUMPDEST POP SWAP2 SWAP1 POP JUMP JUMPDEST PUSH0 DUP2 SWAP1 POP DUP2 PUSH0 MSTORE PUSH1 0x20 PUSH0 KECCAK256 SWAP1 POP SWAP2 SWAP1 POP JUMP JUMPDEST PUSH0 PUSH1 0x20 PUSH1 0x1F DUP4 ADD DIV SWAP1 POP SWAP2 SWAP1 POP JUMP JUMPDEST PUSH0 DUP3 DUP3 SHL SWAP1 POP SWAP3 SWAP2 POP POP JUMP JUMPDEST PUSH0 PUSH1 0x8 DUP4 MUL PUSH2 0x4B3 PUSH32 0xFFFFFFFFFFFFFFFFFFFFFFFFFFFFFFFFFFFFFFFFFFFFFFFFFFFFFFFFFFFFFFFF DUP3 PUSH2 0x478 JUMP JUMPDEST PUSH2 0x4BD DUP7 DUP4 PUSH2 0x478 JUMP JUMPDEST SWAP6 POP DUP1 NOT DUP5 AND SWAP4 POP DUP1 DUP7 AND DUP5 OR SWAP3 POP POP POP SWAP4 SWAP3 POP POP POP JUMP JUMPDEST PUSH0 DUP2 SWAP1 POP SWAP2 SWAP1 POP JUMP JUMPDEST PUSH0 PUSH2 0x4F8 PUSH2 0x4F3 PUSH2 0x4EE DUP5 PUSH2 0x387 JUMP JUMPDEST PUSH2 0x4D5 JUMP JUMPDEST PUSH2 0x387 JUMP JUMPDEST SWAP1 POP SWAP2 SWAP1 POP JUMP JUMPDEST PUSH0 DUP2 SWAP1 POP SWAP2 SWAP1 POP JUMP JUMPDEST PUSH2 0x511 DUP4 PUSH2 0x4DE JUMP JUMPDEST PUSH2 0x525 PUSH2 0x51D DUP3 PUSH2 0x4FF JUMP JUMPDEST DUP5 DUP5 SLOAD PUSH2 0x484 JUMP JUMPDEST DUP3 SSTORE POP POP POP POP JUMP JUMPDEST PUSH0 SWAP1 JUMP JUMPDEST PUSH2 0x539 PUSH2 0x52D JUMP JUMPDEST PUSH2 0x544 DUP2 DUP5 DUP5 PUSH2 0x508 JUMP JUMPDEST POP POP POP JUMP JUMPDEST JUMPDEST DUP2 DUP2 LT ISZERO PUSH2 0x567 JUMPI PUSH2 0x55C PUSH0 DUP3 PUSH2 0x531 JUMP JUMPDEST PUSH1 0x1 DUP2 ADD SWAP1 POP PUSH2 0x54A JUMP JUMPDEST POP POP JUMP JUMPDEST PUSH1 0x1F DUP3 GT ISZERO PUSH2 0x5AC JUMPI PUSH2 0x57D DUP2 PUSH2 0x457 JUMP JUMPDEST PUSH2 0x586 DUP5 PUSH2 0x469 JUMP JUMPDEST DUP2 ADD PUSH1 0x20 DUP6 LT ISZERO PUSH2 0x595 JUMPI DUP2 SWAP1 POP JUMPDEST PUSH2 0x5A9 PUSH2 0x5A1 DUP6 PUSH2 0x469 JUMP JUMPDEST DUP4 ADD DUP3 PUSH2 0x549 JUMP JUMPDEST POP POP JUMPDEST POP POP POP JUMP JUMPDEST PUSH0 DUP3 DUP3 SHR SWAP1 POP SWAP3 SWAP2 POP POP JUMP JUMPDEST PUSH0 PUSH2 0x5CC PUSH0 NOT DUP5 PUSH1 0x8 MUL PUSH2 0x5B1 JUMP JUMPDEST NOT DUP1 DUP4 AND SWAP2 POP POP SWAP3 SWAP2 POP POP JUMP JUMPDEST PUSH0 PUSH2 0x5E4 DUP4 DUP4 PUSH2 0x5BD JUMP JUMPDEST SWAP2 POP DUP3 PUSH1 0x2 MUL DUP3 OR SWAP1 POP SWAP3 SWAP2 POP POP JUMP JUMPDEST PUSH2 0x5FD DUP3 PUSH2 0x3F0 JUMP JUMPDEST PUSH8 0xFFFFFFFFFFFFFFFF DUP2 GT ISZERO PUSH2 0x616 JUMPI PUSH2 0x615 PUSH2 0x209 JUMP JUMPDEST JUMPDEST PUSH2 0x620 DUP3 SLOAD PUSH2 0x427 JUMP JUMPDEST PUSH2 0x62B DUP3 DUP3 DUP6 PUSH2 0x56B JUMP JUMPDEST PUSH0 PUSH1 0x20 SWAP1 POP PUSH1 0x1F DUP4 GT PUSH1 0x1 DUP2 EQ PUSH2 0x65C JUMPI PUSH0 DUP5 ISZERO PUSH2 0x64A JUMPI DUP3 DUP8 ADD MLOAD SWAP1 POP JUMPDEST PUSH2 0x654 DUP6 DUP3 PUSH2 0x5D9 JUMP JUMPDEST DUP7 SSTORE POP PUSH2 0x6BB JUMP JUMPDEST PUSH1 0x1F NOT DUP5 AND PUSH2 0x66A DUP7 PUSH2 0x457 JUMP JUMPDEST PUSH0 JUMPDEST DUP3 DUP2 LT ISZERO PUSH2 0x691 JUMPI DUP5 DUP10 ADD MLOAD DUP3 SSTORE PUSH1 0x1 DUP3 ADD SWAP2 POP PUSH1 0x20 DUP6 ADD SWAP5 POP PUSH1 0x20 DUP2 ADD SWAP1 POP PUSH2 0x66C JUMP JUMPDEST DUP7 DUP4 LT ISZERO PUSH2 0x6AE JUMPI DUP5 DUP10 ADD MLOAD PUSH2 0x6AA PUSH1 0x1F DUP10 AND DUP3 PUSH2 0x5BD JUMP JUMPDEST DUP4 SSTORE POP JUMPDEST PUSH1 0x1 PUSH1 0x2 DUP9 MUL ADD DUP9 SSTORE POP POP POP JUMPDEST POP POP POP POP POP POP JUMP JUMPDEST PUSH1 0x80 MLOAD PUSH2 0x9DDD PUSH2 0x6DB PUSH0 CODECOPY PUSH0 PUSH2 0x31BF ADD MSTORE PUSH2 0x9DDD PUSH0 RETURN INVALID PUSH1 0x80 PUSH1 0x40 MSTORE PUSH1 0x4 CALLDATASIZE LT PUSH2 0x3D7 JUMPI PUSH0 CALLDATALOAD PUSH1 0xE0 SHR DUP1 PUSH4 0x8F3218DF GT PUSH2 0x1FC JUMPI DUP1 PUSH4 0xBDC8E7B3 GT PUSH2 0x117 JUMPI DUP1 PUSH4 0xE292BF16 GT PUSH2 0xAA JUMPI DUP1 PUSH4 0xECCF1F10 GT PUSH2 0x79 JUMPI DUP1 PUSH4 0xECCF1F10 EQ PUSH2 0xF0C JUMPI DUP1 PUSH4 0xEEDB2D28 EQ PUSH2 0xF36 JUMPI DUP1 PUSH4 0xF33E9573 EQ PUSH2 0xF60 JUMPI DUP1 PUSH4 0xF3A4ABA9 EQ PUSH2 0xF9D JUMPI DUP1 PUSH4 0xF9F8BDB7 EQ PUSH2 0xFD9 JUMPI PUSH2 0x3D7 JUMP JUMPDEST DUP1 PUSH4 0xE292BF16 EQ PUSH2 0xE3A JUMPI DUP1 PUSH4 0xE42A54C4 EQ PUSH2 0xE64 JUMPI DUP1 PUSH4 0xE965B7C9 EQ PUSH2 0xE8E JUMPI DUP1 PUSH4 0xEAB536FC EQ PUSH2 0xED0 JUMPI PUSH2 0x3D7 JUMP JUMPDEST DUP1 PUSH4 0xCE7EA161 GT PUSH2 0xE6 JUMPI DUP1 PUSH4 0xCE7EA161 EQ PUSH2 0xD82 JUMPI DUP1 PUSH4 0xD1791AE0 EQ PUSH2 0xDAC JUMPI DUP1 PUSH4 0xD90D7CD8 EQ PUSH2 0xDD6 JUMPI DUP1 PUSH4 0xE1F02FFA EQ PUSH2 0xE12 JUMPI PUSH2 0x3D7 JUMP JUMPDEST DUP1 PUSH4 0xBDC8E7B3 EQ PUSH2 0xCF2 JUMPI DUP1 PUSH4 0xBE003EE6 EQ PUSH2 0xD1A JUMPI DUP1 PUSH4 0xBEB54795 EQ PUSH2 0xD30 JUMPI DUP1 PUSH4 0xC1B13157 EQ PUSH2 0xD5A JUMPI PUSH2 0x3D7 JUMP JUMPDEST DUP1 PUSH4 0xA6A5AD12 GT PUSH2 0x18F JUMPI DUP1 PUSH4 0xB5BA9795 GT PUSH2 0x15E JUMPI DUP1 PUSH4 0xB5BA9795 EQ PUSH2 0xC1F JUMPI DUP1 PUSH4 0xB85C2292 EQ PUSH2 0xC49 JUMPI DUP1 PUSH4 0xBBEA6F0B EQ PUSH2 0xC73 JUMPI DUP1 PUSH4 0xBC903CB8 EQ PUSH2 0xCB6 JUMPI PUSH2 0x3D7 JUMP JUMPDEST DUP1 PUSH4 0xA6A5AD12 EQ PUSH2 0xB55 JUMPI DUP1 PUSH4 0xAC0AF944 EQ PUSH2 0xB7D JUMPI DUP1 PUSH4 0xB0FEB260 EQ PUSH2 0xBB9 JUMPI DUP1 PUSH4 0xB13C744B EQ PUSH2 0xBE3 JUMPI PUSH2 0x3D7 JUMP JUMPDEST DUP1 PUSH4 0x9DC55056 GT PUSH2 0x1CB JUMPI DUP1 PUSH4 0x9DC55056 EQ PUSH2 0xA9C JUMPI DUP1 PUSH4 0x9DC99455 EQ PUSH2 0xAD8 JUMPI DUP1 PUSH4 0xA3A40EA5 EQ PUSH2 0xB15 JUMPI DUP1 PUSH4 0xA5F5B1BF EQ PUSH2 0xB3F JUMPI PUSH2 0x3D7 JUMP JUMPDEST DUP1 PUSH4 0x8F3218DF EQ PUSH2 0xA04 JUMPI DUP1 PUSH4 0x97DFFC61 EQ PUSH2 0xA2E JUMPI DUP1 PUSH4 0x99B0D39C EQ PUSH2 0xA38 JUMPI DUP1 PUSH4 0x9A741327 EQ PUSH2 0xA60 JUMPI PUSH2 0x3D7 JUMP JUMPDEST DUP1 PUSH4 0x47F7B722 GT PUSH2 0x2F7 JUMPI DUP1 PUSH4 0x70F67CFE GT PUSH2 0x28A JUMPI DUP1 PUSH4 0x7DA4CE83 GT PUSH2 0x259 JUMPI DUP1 PUSH4 0x7DA4CE83 EQ PUSH2 0x90E JUMPI DUP1 PUSH4 0x7E8C2DA8 EQ PUSH2 0x938 JUMPI DUP1 PUSH4 0x7F4241E7 EQ PUSH2 0x974 JUMPI DUP1 PUSH4 0x8325ED2D EQ PUSH2 0x9B0 JUMPI DUP1 PUSH4 0x86A0DD7D EQ PUSH2 0x9DA JUMPI PUSH2 0x3D7 JUMP JUMPDEST DUP1 PUSH4 0x70F67CFE EQ PUSH2 0x842 JUMPI DUP1 PUSH4 0x78E3EF20 EQ PUSH2 0x87E JUMPI DUP1 PUSH4 0x78E97925 EQ PUSH2 0x8BA JUMPI DUP1 PUSH4 0x7D48536D EQ PUSH2 0x8E4 JUMPI PUSH2 0x3D7 JUMP JUMPDEST DUP1 PUSH4 0x5004E24A GT PUSH2 0x2C6 JUMPI DUP1 PUSH4 0x5004E24A EQ PUSH2 0x787 JUMPI DUP1 PUSH4 0x53FDC838 EQ PUSH2 0x7B1 JUMPI DUP1 PUSH4 0x54C17527 EQ PUSH2 0x7EE JUMPI DUP1 PUSH4 0x59297DBF EQ PUSH2 0x818 JUMPI PUSH2 0x3D7 JUMP JUMPDEST DUP1 PUSH4 0x47F7B722 EQ PUSH2 0x6DF JUMPI DUP1 PUSH4 0x49066E79 EQ PUSH2 0x709 JUMPI DUP1 PUSH4 0x4D0C8726 EQ PUSH2 0x733 JUMPI DUP1 PUSH4 0x4EBEB109 EQ PUSH2 0x75D JUMPI PUSH2 0x3D7 JUMP JUMPDEST DUP1 PUSH4 0x16392372 GT PUSH2 0x36F JUMPI DUP1 PUSH4 0x3590C0FD GT PUSH2 0x33E JUMPI DUP1 PUSH4 0x3590C0FD EQ PUSH2 0x612 JUMPI DUP1 PUSH4 0x3B497B28 EQ PUSH2 0x64E JUMPI DUP1 PUSH4 0x3DEF77B7 EQ PUSH2 0x68A JUMPI DUP1 PUSH4 0x452D32BB EQ PUSH2 0x6B4 JUMPI PUSH2 0x3D7 JUMP JUMPDEST DUP1 PUSH4 0x16392372 EQ PUSH2 0x55C JUMPI DUP1 PUSH4 0x2190BEE8 EQ PUSH2 0x586 JUMPI DUP1 PUSH4 0x26C29449 EQ PUSH2 0x5C2 JUMPI DUP1 PUSH4 0x29C83BE1 EQ PUSH2 0x5EA JUMPI PUSH2 0x3D7 JUMP JUMPDEST DUP1 PUSH4 0x79DDD11 GT PUSH2 0x3AB JUMPI DUP1 PUSH4 0x79DDD11 EQ PUSH2 0x4B0 JUMPI DUP1 PUSH4 0x89E35B8 EQ PUSH2 0x4CC JUMPI DUP1 PUSH4 0x8EC6A19 EQ PUSH2 0x4F6 JUMPI DUP1 PUSH4 0x12065FE0 EQ PUSH2 0x532 JUMPI PUSH2 0x3D7 JUMP JUMPDEST DUP1 PUSH3 0xFA88E2 EQ PUSH2 0x3DB JUMPI DUP1 PUSH4 0x13CF08B EQ PUSH2 0x3F7 JUMPI DUP1 PUSH4 0x45C6CE0 EQ PUSH2 0x438 JUMPI DUP1 PUSH4 0x71A3474 EQ PUSH2 0x474 JUMPI JUMPDEST PUSH0 DUP1 REVERT JUMPDEST PUSH2 0x3F5 PUSH1 0x4 DUP1 CALLDATASIZE SUB DUP2 ADD SWAP1 PUSH2 0x3F0 SWAP2 SWAP1 PUSH2 0x693C JUMP JUMPDEST PUSH2 0x1003 JUMP JUMPDEST STOP JUMPDEST CALLVALUE DUP1 ISZERO PUSH2 0x402 JUMPI PUSH0 DUP1 REVERT JUMPDEST POP PUSH2 0x41D PUSH1 0x4 DUP1 CALLDATASIZE SUB DUP2 ADD SWAP1 PUSH2 0x418 SWAP2 SWAP1 PUSH2 0x6983 JUMP JUMPDEST PUSH2 0x132A JUMP JUMPDEST PUSH1 0x40 MLOAD PUSH2 0x42F SWAP7 SWAP6 SWAP5 SWAP4 SWAP3 SWAP2 SWAP1 PUSH2 0x6A77 JUMP JUMPDEST PUSH1 0x40 MLOAD DUP1 SWAP2 SUB SWAP1 RETURN JUMPDEST CALLVALUE DUP1 ISZERO PUSH2 0x443 JUMPI PUSH0 DUP1 REVERT JUMPDEST POP PUSH2 0x45E PUSH1 0x4 DUP1 CALLDATASIZE SUB DUP2 ADD SWAP1 PUSH2 0x459 SWAP2 SWAP1 PUSH2 0x6983 JUMP JUMPDEST PUSH2 0x1422 JUMP JUMPDEST PUSH1 0x40 MLOAD PUSH2 0x46B SWAP2 SWAP1 PUSH2 0x6ADD JUMP JUMPDEST PUSH1 0x40 MLOAD DUP1 SWAP2 SUB SWAP1 RETURN JUMPDEST CALLVALUE DUP1 ISZERO PUSH2 0x47F JUMPI PUSH0 DUP1 REVERT JUMPDEST POP PUSH2 0x49A PUSH1 0x4 DUP1 CALLDATASIZE SUB DUP2 ADD SWAP1 PUSH2 0x495 SWAP2 SWAP1 PUSH2 0x6B20 JUMP JUMPDEST PUSH2 0x17A7 JUMP JUMPDEST PUSH1 0x40 MLOAD PUSH2 0x4A7 SWAP2 SWAP1 PUSH2 0x6B78 JUMP JUMPDEST PUSH1 0x40 MLOAD DUP1 SWAP2 SUB SWAP1 RETURN JUMPDEST PUSH2 0x4CA PUSH1 0x4 DUP1 CALLDATASIZE SUB DUP2 ADD SWAP1 PUSH2 0x4C5 SWAP2 SWAP1 PUSH2 0x6B91 JUMP JUMPDEST PUSH2 0x17D0 JUMP JUMPDEST STOP JUMPDEST CALLVALUE DUP1 ISZERO PUSH2 0x4D7 JUMPI PUSH0 DUP1 REVERT JUMPDEST POP PUSH2 0x4E0 PUSH2 0x1C14 JUMP JUMPDEST PUSH1 0x40 MLOAD PUSH2 0x4ED SWAP2 SWAP1 PUSH2 0x6C4F JUMP JUMPDEST PUSH1 0x40 MLOAD DUP1 SWAP2 SUB SWAP1 RETURN JUMPDEST CALLVALUE DUP1 ISZERO PUSH2 0x501 JUMPI PUSH0 DUP1 REVERT JUMPDEST POP PUSH2 0x51C PUSH1 0x4 DUP1 CALLDATASIZE SUB DUP2 ADD SWAP1 PUSH2 0x517 SWAP2 SWAP1 PUSH2 0x6C68 JUMP JUMPDEST PUSH2 0x1C26 JUMP JUMPDEST PUSH1 0x40 MLOAD PUSH2 0x529 SWAP2 SWAP1 PUSH2 0x6D38 JUMP JUMPDEST PUSH1 0x40 MLOAD DUP1 SWAP2 SUB SWAP1 RETURN JUMPDEST CALLVALUE DUP1 ISZERO PUSH2 0x53D JUMPI PUSH0 DUP1 REVERT JUMPDEST POP PUSH2 0x546 PUSH2 0x1CB7 JUMP JUMPDEST PUSH1 0x40 MLOAD PUSH2 0x553 SWAP2 SWAP1 PUSH2 0x6D69 JUMP JUMPDEST PUSH1 0x40 MLOAD DUP1 SWAP2 SUB SWAP1 RETURN JUMPDEST CALLVALUE DUP1 ISZERO PUSH2 0x567 JUMPI PUSH0 DUP1 REVERT JUMPDEST POP PUSH2 0x570 PUSH2 0x1D8C JUMP JUMPDEST PUSH1 0x40 MLOAD PUSH2 0x57D SWAP2 SWAP1 PUSH2 0x6D82 JUMP JUMPDEST PUSH1 0x40 MLOAD DUP1 SWAP2 SUB SWAP1 RETURN JUMPDEST CALLVALUE DUP1 ISZERO PUSH2 0x591 JUMPI PUSH0 DUP1 REVERT JUMPDEST POP PUSH2 0x5AC PUSH1 0x4 DUP1 CALLDATASIZE SUB DUP2 ADD SWAP1 PUSH2 0x5A7 SWAP2 SWAP1 PUSH2 0x6D9B JUMP JUMPDEST PUSH2 0x1D92 JUMP JUMPDEST PUSH1 0x40 MLOAD PUSH2 0x5B9 SWAP2 SWAP1 PUSH2 0x6D82 JUMP JUMPDEST PUSH1 0x40 MLOAD DUP1 SWAP2 SUB SWAP1 RETURN JUMPDEST CALLVALUE DUP1 ISZERO PUSH2 0x5CD JUMPI PUSH0 DUP1 REVERT JUMPDEST POP PUSH2 0x5E8 PUSH1 0x4 DUP1 CALLDATASIZE SUB DUP2 ADD SWAP1 PUSH2 0x5E3 SWAP2 SWAP1 PUSH2 0x6E1F JUMP JUMPDEST PUSH2 0x1DB2 JUMP JUMPDEST STOP JUMPDEST CALLVALUE DUP1 ISZERO PUSH2 0x5F5 JUMPI PUSH0 DUP1 REVERT JUMPDEST POP PUSH2 0x610 PUSH1 0x4 DUP1 CALLDATASIZE SUB DUP2 ADD SWAP1 PUSH2 0x60B SWAP2 SWAP1 PUSH2 0x6E89 JUMP JUMPDEST PUSH2 0x22C3 JUMP JUMPDEST STOP JUMPDEST CALLVALUE DUP1 ISZERO PUSH2 0x61D JUMPI PUSH0 DUP1 REVERT JUMPDEST POP PUSH2 0x638 PUSH1 0x4 DUP1 CALLDATASIZE SUB DUP2 ADD SWAP1 PUSH2 0x633 SWAP2 SWAP1 PUSH2 0x6EC7 JUMP JUMPDEST PUSH2 0x269D JUMP JUMPDEST PUSH1 0x40 MLOAD PUSH2 0x645 SWAP2 SWAP1 PUSH2 0x6D82 JUMP JUMPDEST PUSH1 0x40 MLOAD DUP1 SWAP2 SUB SWAP1 RETURN JUMPDEST CALLVALUE DUP1 ISZERO PUSH2 0x659 JUMPI PUSH0 DUP1 REVERT JUMPDEST POP PUSH2 0x674 PUSH1 0x4 DUP1 CALLDATASIZE SUB DUP2 ADD SWAP1 PUSH2 0x66F SWAP2 SWAP1 PUSH2 0x6FA0 JUMP JUMPDEST PUSH2 0x26B2 JUMP JUMPDEST PUSH1 0x40 MLOAD PUSH2 0x681 SWAP2 SWAP1 PUSH2 0x6D82 JUMP JUMPDEST PUSH1 0x40 MLOAD DUP1 SWAP2 SUB SWAP1 RETURN JUMPDEST CALLVALUE DUP1 ISZERO PUSH2 0x695 JUMPI PUSH0 DUP1 REVERT JUMPDEST POP PUSH2 0x69E PUSH2 0x29CB JUMP JUMPDEST PUSH1 0x40 MLOAD PUSH2 0x6AB SWAP2 SWAP1 PUSH2 0x703C JUMP JUMPDEST PUSH1 0x40 MLOAD DUP1 SWAP2 SUB SWAP1 RETURN JUMPDEST CALLVALUE DUP1 ISZERO PUSH2 0x6BF JUMPI PUSH0 DUP1 REVERT JUMPDEST POP PUSH2 0x6C8 PUSH2 0x29D1 JUMP JUMPDEST PUSH1 0x40 MLOAD PUSH2 0x6D6 SWAP3 SWAP2 SWAP1 PUSH2 0x7184 JUMP JUMPDEST PUSH1 0x40 MLOAD DUP1 SWAP2 SUB SWAP1 RETURN JUMPDEST CALLVALUE DUP1 ISZERO PUSH2 0x6EA JUMPI PUSH0 DUP1 REVERT JUMPDEST POP PUSH2 0x6F3 PUSH2 0x2E2C JUMP JUMPDEST PUSH1 0x40 MLOAD PUSH2 0x700 SWAP2 SWAP1 PUSH2 0x6D82 JUMP JUMPDEST PUSH1 0x40 MLOAD DUP1 SWAP2 SUB SWAP1 RETURN JUMPDEST CALLVALUE DUP1 ISZERO PUSH2 0x714 JUMPI PUSH0 DUP1 REVERT JUMPDEST POP PUSH2 0x71D PUSH2 0x2E33 JUMP JUMPDEST PUSH1 0x40 MLOAD PUSH2 0x72A SWAP2 SWAP1 PUSH2 0x6D82 JUMP JUMPDEST PUSH1 0x40 MLOAD DUP1 SWAP2 SUB SWAP1 RETURN JUMPDEST CALLVALUE DUP1 ISZERO PUSH2 0x73E JUMPI PUSH0 DUP1 REVERT JUMPDEST POP PUSH2 0x747 PUSH2 0x2E3A JUMP JUMPDEST PUSH1 0x40 MLOAD PUSH2 0x754 SWAP2 SWAP1 PUSH2 0x71B2 JUMP JUMPDEST PUSH1 0x40 MLOAD DUP1 SWAP2 SUB SWAP1 RETURN JUMPDEST CALLVALUE DUP1 ISZERO PUSH2 0x768 JUMPI PUSH0 DUP1 REVERT JUMPDEST POP PUSH2 0x771 PUSH2 0x2E5F JUMP JUMPDEST PUSH1 0x40 MLOAD PUSH2 0x77E SWAP2 SWAP1 PUSH2 0x6D82 JUMP JUMPDEST PUSH1 0x40 MLOAD DUP1 SWAP2 SUB SWAP1 RETURN JUMPDEST CALLVALUE DUP1 ISZERO PUSH2 0x792 JUMPI PUSH0 DUP1 REVERT JUMPDEST POP PUSH2 0x79B PUSH2 0x2E6A JUMP JUMPDEST PUSH1 0x40 MLOAD PUSH2 0x7A8 SWAP2 SWAP1 PUSH2 0x6D82 JUMP JUMPDEST PUSH1 0x40 MLOAD DUP1 SWAP2 SUB SWAP1 RETURN JUMPDEST CALLVALUE DUP1 ISZERO PUSH2 0x7BC JUMPI PUSH0 DUP1 REVERT JUMPDEST POP PUSH2 0x7D7 PUSH1 0x4 DUP1 CALLDATASIZE SUB DUP2 ADD SWAP1 PUSH2 0x7D2 SWAP2 SWAP1 PUSH2 0x6D9B JUMP JUMPDEST PUSH2 0x2E71 JUMP JUMPDEST PUSH1 0x40 MLOAD PUSH2 0x7E5 SWAP3 SWAP2 SWAP1 PUSH2 0x71CB JUMP JUMPDEST PUSH1 0x40 MLOAD DUP1 SWAP2 SUB SWAP1 RETURN JUMPDEST CALLVALUE DUP1 ISZERO PUSH2 0x7F9 JUMPI PUSH0 DUP1 REVERT JUMPDEST POP PUSH2 0x802 PUSH2 0x2EAB JUMP JUMPDEST PUSH1 0x40 MLOAD PUSH2 0x80F SWAP2 SWAP1 PUSH2 0x6D69 JUMP JUMPDEST PUSH1 0x40 MLOAD DUP1 SWAP2 SUB SWAP1 RETURN JUMPDEST CALLVALUE DUP1 ISZERO PUSH2 0x823 JUMPI PUSH0 DUP1 REVERT JUMPDEST POP PUSH2 0x82C PUSH2 0x2EB0 JUMP JUMPDEST PUSH1 0x40 MLOAD PUSH2 0x839 SWAP2 SWAP1 PUSH2 0x6D82 JUMP JUMPDEST PUSH1 0x40 MLOAD DUP1 SWAP2 SUB SWAP1 RETURN JUMPDEST CALLVALUE DUP1 ISZERO PUSH2 0x84D JUMPI PUSH0 DUP1 REVERT JUMPDEST POP PUSH2 0x868 PUSH1 0x4 DUP1 CALLDATASIZE SUB DUP2 ADD SWAP1 PUSH2 0x863 SWAP2 SWAP1 PUSH2 0x6983 JUMP JUMPDEST PUSH2 0x2EB7 JUMP JUMPDEST PUSH1 0x40 MLOAD PUSH2 0x875 SWAP2 SWAP1 PUSH2 0x72A8 JUMP JUMPDEST PUSH1 0x40 MLOAD DUP1 SWAP2 SUB SWAP1 RETURN JUMPDEST CALLVALUE DUP1 ISZERO PUSH2 0x889 JUMPI PUSH0 DUP1 REVERT JUMPDEST POP PUSH2 0x8A4 PUSH1 0x4 DUP1 CALLDATASIZE SUB DUP2 ADD SWAP1 PUSH2 0x89F SWAP2 SWAP1 PUSH2 0x6EC7 JUMP JUMPDEST PUSH2 0x3177 JUMP JUMPDEST PUSH1 0x40 MLOAD PUSH2 0x8B1 SWAP2 SWAP1 PUSH2 0x6D82 JUMP JUMPDEST PUSH1 0x40 MLOAD DUP1 SWAP2 SUB SWAP1 RETURN JUMPDEST CALLVALUE DUP1 ISZERO PUSH2 0x8C5 JUMPI PUSH0 DUP1 REVERT JUMPDEST POP PUSH2 0x8CE PUSH2 0x31BD JUMP JUMPDEST PUSH1 0x40 MLOAD PUSH2 0x8DB SWAP2 SWAP1 PUSH2 0x6D82 JUMP JUMPDEST PUSH1 0x40 MLOAD DUP1 SWAP2 SUB SWAP1 RETURN JUMPDEST CALLVALUE DUP1 ISZERO PUSH2 0x8EF JUMPI PUSH0 DUP1 REVERT JUMPDEST POP PUSH2 0x8F8 PUSH2 0x31E1 JUMP JUMPDEST PUSH1 0x40 MLOAD PUSH2 0x905 SWAP2 SWAP1 PUSH2 0x6D82 JUMP JUMPDEST PUSH1 0x40 MLOAD DUP1 SWAP2 SUB SWAP1 RETURN JUMPDEST CALLVALUE DUP1 ISZERO PUSH2 0x919 JUMPI PUSH0 DUP1 REVERT JUMPDEST POP PUSH2 0x922 PUSH2 0x31EC JUMP JUMPDEST PUSH1 0x40 MLOAD PUSH2 0x92F SWAP2 SWAP1 PUSH2 0x71B2 JUMP JUMPDEST PUSH1 0x40 MLOAD DUP1 SWAP2 SUB SWAP1 RETURN JUMPDEST CALLVALUE DUP1 ISZERO PUSH2 0x943 JUMPI PUSH0 DUP1 REVERT JUMPDEST POP PUSH2 0x95E PUSH1 0x4 DUP1 CALLDATASIZE SUB DUP2 ADD SWAP1 PUSH2 0x959 SWAP2 SWAP1 PUSH2 0x72C8 JUMP JUMPDEST PUSH2 0x3212 JUMP JUMPDEST PUSH1 0x40 MLOAD PUSH2 0x96B SWAP2 SWAP1 PUSH2 0x6D82 JUMP JUMPDEST PUSH1 0x40 MLOAD DUP1 SWAP2 SUB SWAP1 RETURN JUMPDEST CALLVALUE DUP1 ISZERO PUSH2 0x97F JUMPI PUSH0 DUP1 REVERT JUMPDEST POP PUSH2 0x99A PUSH1 0x4 DUP1 CALLDATASIZE SUB DUP2 ADD SWAP1 PUSH2 0x995 SWAP2 SWAP1 PUSH2 0x6C68 JUMP JUMPDEST PUSH2 0x333B JUMP JUMPDEST PUSH1 0x40 MLOAD PUSH2 0x9A7 SWAP2 SWAP1 PUSH2 0x6C4F JUMP JUMPDEST PUSH1 0x40 MLOAD DUP1 SWAP2 SUB SWAP1 RETURN JUMPDEST CALLVALUE DUP1 ISZERO PUSH2 0x9BB JUMPI PUSH0 DUP1 REVERT JUMPDEST POP PUSH2 0x9C4 PUSH2 0x3361 JUMP JUMPDEST PUSH1 0x40 MLOAD PUSH2 0x9D1 SWAP2 SWAP1 PUSH2 0x703C JUMP JUMPDEST PUSH1 0x40 MLOAD DUP1 SWAP2 SUB SWAP1 RETURN JUMPDEST CALLVALUE DUP1 ISZERO PUSH2 0x9E5 JUMPI PUSH0 DUP1 REVERT JUMPDEST POP PUSH2 0x9EE PUSH2 0x3366 JUMP JUMPDEST PUSH1 0x40 MLOAD PUSH2 0x9FB SWAP2 SWAP1 PUSH2 0x6ADD JUMP JUMPDEST PUSH1 0x40 MLOAD DUP1 SWAP2 SUB SWAP1 RETURN JUMPDEST CALLVALUE DUP1 ISZERO PUSH2 0xA0F JUMPI PUSH0 DUP1 REVERT JUMPDEST POP PUSH2 0xA18 PUSH2 0x336B JUMP JUMPDEST PUSH1 0x40 MLOAD PUSH2 0xA25 SWAP2 SWAP1 PUSH2 0x6ADD JUMP JUMPDEST PUSH1 0x40 MLOAD DUP1 SWAP2 SUB SWAP1 RETURN JUMPDEST PUSH2 0xA36 PUSH2 0x337D JUMP JUMPDEST STOP JUMPDEST CALLVALUE DUP1 ISZERO PUSH2 0xA43 JUMPI PUSH0 DUP1 REVERT JUMPDEST POP PUSH2 0xA5E PUSH1 0x4 DUP1 CALLDATASIZE SUB DUP2 ADD SWAP1 PUSH2 0xA59 SWAP2 SWAP1 PUSH2 0x6E1F JUMP JUMPDEST PUSH2 0x345E JUMP JUMPDEST STOP JUMPDEST CALLVALUE DUP1 ISZERO PUSH2 0xA6B JUMPI PUSH0 DUP1 REVERT JUMPDEST POP PUSH2 0xA86 PUSH1 0x4 DUP1 CALLDATASIZE SUB DUP2 ADD SWAP1 PUSH2 0xA81 SWAP2 SWAP1 PUSH2 0x6EC7 JUMP JUMPDEST PUSH2 0x3AB5 JUMP JUMPDEST PUSH1 0x40 MLOAD PUSH2 0xA93 SWAP2 SWAP1 PUSH2 0x6D69 JUMP JUMPDEST PUSH1 0x40 MLOAD DUP1 SWAP2 SUB SWAP1 RETURN JUMPDEST CALLVALUE DUP1 ISZERO PUSH2 0xAA7 JUMPI PUSH0 DUP1 REVERT JUMPDEST POP PUSH2 0xAC2 PUSH1 0x4 DUP1 CALLDATASIZE SUB DUP2 ADD SWAP1 PUSH2 0xABD SWAP2 SWAP1 PUSH2 0x6EC7 JUMP JUMPDEST PUSH2 0x3ACA JUMP JUMPDEST PUSH1 0x40 MLOAD PUSH2 0xACF SWAP2 SWAP1 PUSH2 0x6D82 JUMP JUMPDEST PUSH1 0x40 MLOAD DUP1 SWAP2 SUB SWAP1 RETURN JUMPDEST CALLVALUE DUP1 ISZERO PUSH2 0xAE3 JUMPI PUSH0 DUP1 REVERT JUMPDEST POP PUSH2 0xAFE PUSH1 0x4 DUP1 CALLDATASIZE SUB DUP2 ADD SWAP1 PUSH2 0xAF9 SWAP2 SWAP1 PUSH2 0x6983 JUMP JUMPDEST PUSH2 0x3B9C JUMP JUMPDEST PUSH1 0x40 MLOAD PUSH2 0xB0C SWAP3 SWAP2 SWAP1 PUSH2 0x7306 JUMP JUMPDEST PUSH1 0x40 MLOAD DUP1 SWAP2 SUB SWAP1 RETURN JUMPDEST CALLVALUE DUP1 ISZERO PUSH2 0xB20 JUMPI PUSH0 DUP1 REVERT JUMPDEST POP PUSH2 0xB29 PUSH2 0x3BE2 JUMP JUMPDEST PUSH1 0x40 MLOAD PUSH2 0xB36 SWAP2 SWAP1 PUSH2 0x73A0 JUMP JUMPDEST PUSH1 0x40 MLOAD DUP1 SWAP2 SUB SWAP1 RETURN JUMPDEST CALLVALUE DUP1 ISZERO PUSH2 0xB4A JUMPI PUSH0 DUP1 REVERT JUMPDEST POP PUSH2 0xB53 PUSH2 0x3CA5 JUMP JUMPDEST STOP JUMPDEST CALLVALUE DUP1 ISZERO PUSH2 0xB60 JUMPI PUSH0 DUP1 REVERT JUMPDEST POP PUSH2 0xB7B PUSH1 0x4 DUP1 CALLDATASIZE SUB DUP2 ADD SWAP1 PUSH2 0xB76 SWAP2 SWAP1 PUSH2 0x740E JUMP JUMPDEST PUSH2 0x3EC6 JUMP JUMPDEST STOP JUMPDEST CALLVALUE DUP1 ISZERO PUSH2 0xB88 JUMPI PUSH0 DUP1 REVERT JUMPDEST POP PUSH2 0xBA3 PUSH1 0x4 DUP1 CALLDATASIZE SUB DUP2 ADD SWAP1 PUSH2 0xB9E SWAP2 SWAP1 PUSH2 0x6EC7 JUMP JUMPDEST PUSH2 0x426C JUMP JUMPDEST PUSH1 0x40 MLOAD PUSH2 0xBB0 SWAP2 SWAP1 PUSH2 0x6D82 JUMP JUMPDEST PUSH1 0x40 MLOAD DUP1 SWAP2 SUB SWAP1 RETURN JUMPDEST CALLVALUE DUP1 ISZERO PUSH2 0xBC4 JUMPI PUSH0 DUP1 REVERT JUMPDEST POP PUSH2 0xBCD PUSH2 0x4281 JUMP JUMPDEST PUSH1 0x40 MLOAD PUSH2 0xBDA SWAP2 SWAP1 PUSH2 0x6D82 JUMP JUMPDEST PUSH1 0x40 MLOAD DUP1 SWAP2 SUB SWAP1 RETURN JUMPDEST CALLVALUE DUP1 ISZERO PUSH2 0xBEE JUMPI PUSH0 DUP1 REVERT JUMPDEST POP PUSH2 0xC09 PUSH1 0x4 DUP1 CALLDATASIZE SUB DUP2 ADD SWAP1 PUSH2 0xC04 SWAP2 SWAP1 PUSH2 0x6983 JUMP JUMPDEST PUSH2 0x4287 JUMP JUMPDEST PUSH1 0x40 MLOAD PUSH2 0xC16 SWAP2 SWAP1 PUSH2 0x71B2 JUMP JUMPDEST PUSH1 0x40 MLOAD DUP1 SWAP2 SUB SWAP1 RETURN JUMPDEST CALLVALUE DUP1 ISZERO PUSH2 0xC2A JUMPI PUSH0 DUP1 REVERT JUMPDEST POP PUSH2 0xC33 PUSH2 0x42C2 JUMP JUMPDEST PUSH1 0x40 MLOAD PUSH2 0xC40 SWAP2 SWAP1 PUSH2 0x703C JUMP JUMPDEST PUSH1 0x40 MLOAD DUP1 SWAP2 SUB SWAP1 RETURN JUMPDEST CALLVALUE DUP1 ISZERO PUSH2 0xC54 JUMPI PUSH0 DUP1 REVERT JUMPDEST POP PUSH2 0xC5D PUSH2 0x42C7 JUMP JUMPDEST PUSH1 0x40 MLOAD PUSH2 0xC6A SWAP2 SWAP1 PUSH2 0x6ADD JUMP JUMPDEST PUSH1 0x40 MLOAD DUP1 SWAP2 SUB SWAP1 RETURN JUMPDEST CALLVALUE DUP1 ISZERO PUSH2 0xC7E JUMPI PUSH0 DUP1 REVERT JUMPDEST POP PUSH2 0xC99 PUSH1 0x4 DUP1 CALLDATASIZE SUB DUP2 ADD SWAP1 PUSH2 0xC94 SWAP2 SWAP1 PUSH2 0x6983 JUMP JUMPDEST PUSH2 0x42CC JUMP JUMPDEST PUSH1 0x40 MLOAD PUSH2 0xCAD SWAP9 SWAP8 SWAP7 SWAP6 SWAP5 SWAP4 SWAP3 SWAP2 SWAP1 PUSH2 0x7468 JUMP JUMPDEST PUSH1 0x40 MLOAD DUP1 SWAP2 SUB SWAP1 RETURN JUMPDEST CALLVALUE DUP1 ISZERO PUSH2 0xCC1 JUMPI PUSH0 DUP1 REVERT JUMPDEST POP PUSH2 0xCDC PUSH1 0x4 DUP1 CALLDATASIZE SUB DUP2 ADD SWAP1 PUSH2 0xCD7 SWAP2 SWAP1 PUSH2 0x6983 JUMP JUMPDEST PUSH2 0x45BD JUMP JUMPDEST PUSH1 0x40 MLOAD PUSH2 0xCE9 SWAP2 SWAP1 PUSH2 0x76BE JUMP JUMPDEST PUSH1 0x40 MLOAD DUP1 SWAP2 SUB SWAP1 RETURN JUMPDEST CALLVALUE DUP1 ISZERO PUSH2 0xCFD JUMPI PUSH0 DUP1 REVERT JUMPDEST POP PUSH2 0xD18 PUSH1 0x4 DUP1 CALLDATASIZE SUB DUP2 ADD SWAP1 PUSH2 0xD13 SWAP2 SWAP1 PUSH2 0x6983 JUMP JUMPDEST PUSH2 0x48A6 JUMP JUMPDEST STOP JUMPDEST CALLVALUE DUP1 ISZERO PUSH2 0xD25 JUMPI PUSH0 DUP1 REVERT JUMPDEST POP PUSH2 0xD2E PUSH2 0x503E JUMP JUMPDEST STOP JUMPDEST CALLVALUE DUP1 ISZERO PUSH2 0xD3B JUMPI PUSH0 DUP1 REVERT JUMPDEST POP PUSH2 0xD44 PUSH2 0x51C4 JUMP JUMPDEST PUSH1 0x40 MLOAD PUSH2 0xD51 SWAP2 SWAP1 PUSH2 0x6D82 JUMP JUMPDEST PUSH1 0x40 MLOAD DUP1 SWAP2 SUB SWAP1 RETURN JUMPDEST CALLVALUE DUP1 ISZERO PUSH2 0xD65 JUMPI PUSH0 DUP1 REVERT JUMPDEST POP PUSH2 0xD80 PUSH1 0x4 DUP1 CALLDATASIZE SUB DUP2 ADD SWAP1 PUSH2 0xD7B SWAP2 SWAP1 PUSH2 0x740E JUMP JUMPDEST PUSH2 0x51CA JUMP JUMPDEST STOP JUMPDEST CALLVALUE DUP1 ISZERO PUSH2 0xD8D JUMPI PUSH0 DUP1 REVERT JUMPDEST POP PUSH2 0xD96 PUSH2 0x54EE JUMP JUMPDEST PUSH1 0x40 MLOAD PUSH2 0xDA3 SWAP2 SWAP1 PUSH2 0x6D82 JUMP JUMPDEST PUSH1 0x40 MLOAD DUP1 SWAP2 SUB SWAP1 RETURN JUMPDEST CALLVALUE DUP1 ISZERO PUSH2 0xDB7 JUMPI PUSH0 DUP1 REVERT JUMPDEST POP PUSH2 0xDC0 PUSH2 0x54F3 JUMP JUMPDEST PUSH1 0x40 MLOAD PUSH2 0xDCD SWAP2 SWAP1 PUSH2 0x703C JUMP JUMPDEST PUSH1 0x40 MLOAD DUP1 SWAP2 SUB SWAP1 RETURN JUMPDEST CALLVALUE DUP1 ISZERO PUSH2 0xDE1 JUMPI PUSH0 DUP1 REVERT JUMPDEST POP PUSH2 0xDFC PUSH1 0x4 DUP1 CALLDATASIZE SUB DUP2 ADD SWAP1 PUSH2 0xDF7 SWAP2 SWAP1 PUSH2 0x6EC7 JUMP JUMPDEST PUSH2 0x54FA JUMP JUMPDEST PUSH1 0x40 MLOAD PUSH2 0xE09 SWAP2 SWAP1 PUSH2 0x6D82 JUMP JUMPDEST PUSH1 0x40 MLOAD DUP1 SWAP2 SUB SWAP1 RETURN JUMPDEST CALLVALUE DUP1 ISZERO PUSH2 0xE1D JUMPI PUSH0 DUP1 REVERT JUMPDEST POP PUSH2 0xE38 PUSH1 0x4 DUP1 CALLDATASIZE SUB DUP2 ADD SWAP1 PUSH2 0xE33 SWAP2 SWAP1 PUSH2 0x6983 JUMP JUMPDEST PUSH2 0x5540 JUMP JUMPDEST STOP JUMPDEST CALLVALUE DUP1 ISZERO PUSH2 0xE45 JUMPI PUSH0 DUP1 REVERT JUMPDEST POP PUSH2 0xE4E PUSH2 0x5742 JUMP JUMPDEST PUSH1 0x40 MLOAD PUSH2 0xE5B SWAP2 SWAP1 PUSH2 0x6ADD JUMP JUMPDEST PUSH1 0x40 MLOAD DUP1 SWAP2 SUB SWAP1 RETURN JUMPDEST CALLVALUE DUP1 ISZERO PUSH2 0xE6F JUMPI PUSH0 DUP1 REVERT JUMPDEST POP PUSH2 0xE78 PUSH2 0x5747 JUMP JUMPDEST PUSH1 0x40 MLOAD PUSH2 0xE85 SWAP2 SWAP1 PUSH2 0x703C JUMP JUMPDEST PUSH1 0x40 MLOAD DUP1 SWAP2 SUB SWAP1 RETURN JUMPDEST CALLVALUE DUP1 ISZERO PUSH2 0xE99 JUMPI PUSH0 DUP1 REVERT JUMPDEST POP PUSH2 0xEB4 PUSH1 0x4 DUP1 CALLDATASIZE SUB DUP2 ADD SWAP1 PUSH2 0xEAF SWAP2 SWAP1 PUSH2 0x6EC7 JUMP JUMPDEST PUSH2 0x575C JUMP JUMPDEST PUSH1 0x40 MLOAD PUSH2 0xEC7 SWAP8 SWAP7 SWAP6 SWAP5 SWAP4 SWAP3 SWAP2 SWAP1 PUSH2 0x76DE JUMP JUMPDEST PUSH1 0x40 MLOAD DUP1 SWAP2 SUB SWAP1 RETURN JUMPDEST CALLVALUE DUP1 ISZERO PUSH2 0xEDB JUMPI PUSH0 DUP1 REVERT JUMPDEST POP PUSH2 0xEF6 PUSH1 0x4 DUP1 CALLDATASIZE SUB DUP2 ADD SWAP1 PUSH2 0xEF1 SWAP2 SWAP1 PUSH2 0x6EC7 JUMP JUMPDEST PUSH2 0x5938 JUMP JUMPDEST PUSH1 0x40 MLOAD PUSH2 0xF03 SWAP2 SWAP1 PUSH2 0x6ADD JUMP JUMPDEST PUSH1 0x40 MLOAD DUP1 SWAP2 SUB SWAP1 RETURN JUMPDEST CALLVALUE DUP1 ISZERO PUSH2 0xF17 JUMPI PUSH0 DUP1 REVERT JUMPDEST POP PUSH2 0xF20 PUSH2 0x5955 JUMP JUMPDEST PUSH1 0x40 MLOAD PUSH2 0xF2D SWAP2 SWAP1 PUSH2 0x77DF JUMP JUMPDEST PUSH1 0x40 MLOAD DUP1 SWAP2 SUB SWAP1 RETURN JUMPDEST CALLVALUE DUP1 ISZERO PUSH2 0xF41 JUMPI PUSH0 DUP1 REVERT JUMPDEST POP PUSH2 0xF4A PUSH2 0x5FBE JUMP JUMPDEST PUSH1 0x40 MLOAD PUSH2 0xF57 SWAP2 SWAP1 PUSH2 0x6D82 JUMP JUMPDEST PUSH1 0x40 MLOAD DUP1 SWAP2 SUB SWAP1 RETURN JUMPDEST CALLVALUE DUP1 ISZERO PUSH2 0xF6B JUMPI PUSH0 DUP1 REVERT JUMPDEST POP PUSH2 0xF86 PUSH1 0x4 DUP1 CALLDATASIZE SUB DUP2 ADD SWAP1 PUSH2 0xF81 SWAP2 SWAP1 PUSH2 0x6983 JUMP JUMPDEST PUSH2 0x5FC4 JUMP JUMPDEST PUSH1 0x40 MLOAD PUSH2 0xF94 SWAP3 SWAP2 SWAP1 PUSH2 0x77F9 JUMP JUMPDEST PUSH1 0x40 MLOAD DUP1 SWAP2 SUB SWAP1 RETURN JUMPDEST CALLVALUE DUP1 ISZERO PUSH2 0xFA8 JUMPI PUSH0 DUP1 REVERT JUMPDEST POP PUSH2 0xFC3 PUSH1 0x4 DUP1 CALLDATASIZE SUB DUP2 ADD SWAP1 PUSH2 0xFBE SWAP2 SWAP1 PUSH2 0x6983 JUMP JUMPDEST PUSH2 0x5FF3 JUMP JUMPDEST PUSH1 0x40 MLOAD PUSH2 0xFD0 SWAP2 SWAP1 PUSH2 0x7820 JUMP JUMPDEST PUSH1 0x40 MLOAD DUP1 SWAP2 SUB SWAP1 RETURN JUMPDEST CALLVALUE DUP1 ISZERO PUSH2 0xFE4 JUMPI PUSH0 DUP1 REVERT JUMPDEST POP PUSH2 0xFED PUSH2 0x6362 JUMP JUMPDEST PUSH1 0x40 MLOAD PUSH2 0xFFA SWAP2 SWAP1 PUSH2 0x6D82 JUMP JUMPDEST PUSH1 0x40 MLOAD DUP1 SWAP2 SUB SWAP1 RETURN JUMPDEST PUSH1 0x2 PUSH1 0x4 DUP2 GT ISZERO PUSH2 0x1017 JUMPI PUSH2 0x1016 PUSH2 0x732D JUMP JUMPDEST JUMPDEST PUSH2 0x101F PUSH2 0x3BE2 JUMP JUMPDEST PUSH1 0x4 DUP2 GT ISZERO PUSH2 0x1031 JUMPI PUSH2 0x1030 PUSH2 0x732D JUMP JUMPDEST JUMPDEST EQ PUSH2 0x1071 JUMPI PUSH1 0x40 MLOAD PUSH32 0x8C379A000000000000000000000000000000000000000000000000000000000 DUP2 MSTORE PUSH1 0x4 ADD PUSH2 0x1068 SWAP1 PUSH2 0x788A JUMP JUMPDEST PUSH1 0x40 MLOAD DUP1 SWAP2 SUB SWAP1 REVERT JUMPDEST PUSH0 DUP2 PUSH0 ADD MLOAD MLOAD GT PUSH2 0x10B7 JUMPI PUSH1 0x40 MLOAD PUSH32 0x8C379A000000000000000000000000000000000000000000000000000000000 DUP2 MSTORE PUSH1 0x4 ADD PUSH2 0x10AE SWAP1 PUSH2 0x78F2 JUMP JUMPDEST PUSH1 0x40 MLOAD DUP1 SWAP2 SUB SWAP1 REVERT JUMPDEST PUSH0 DUP2 PUSH1 0x20 ADD MLOAD MLOAD GT PUSH2 0x10FE JUMPI PUSH1 0x40 MLOAD PUSH32 0x8C379A000000000000000000000000000000000000000000000000000000000 DUP2 MSTORE PUSH1 0x4 ADD PUSH2 0x10F5 SWAP1 PUSH2 0x795A JUMP JUMPDEST PUSH1 0x40 MLOAD DUP1 SWAP2 SUB SWAP1 REVERT JUMPDEST PUSH0 DUP2 PUSH1 0x60 ADD MLOAD MLOAD GT PUSH2 0x1145 JUMPI PUSH1 0x40 MLOAD PUSH32 0x8C379A000000000000000000000000000000000000000000000000000000000 DUP2 MSTORE PUSH1 0x4 ADD PUSH2 0x113C SWAP1 PUSH2 0x79C2 JUMP JUMPDEST PUSH1 0x40 MLOAD DUP1 SWAP2 SUB SWAP1 REVERT JUMPDEST PUSH7 0x38D7EA4C68000 CALLVALUE LT ISZERO PUSH2 0x118F JUMPI PUSH1 0x40 MLOAD PUSH32 0x8C379A000000000000000000000000000000000000000000000000000000000 DUP2 MSTORE PUSH1 0x4 ADD PUSH2 0x1186 SWAP1 PUSH2 0x7A2A JUMP JUMPDEST PUSH1 0x40 MLOAD DUP1 SWAP2 SUB SWAP1 REVERT JUMPDEST PUSH0 DUP2 PUSH0 ADD MLOAD DUP3 PUSH1 0x40 ADD MLOAD DUP4 PUSH1 0x20 ADD MLOAD DUP5 PUSH1 0x60 ADD MLOAD PUSH1 0x40 MLOAD PUSH1 0x20 ADD PUSH2 0x11B6 SWAP5 SWAP4 SWAP3 SWAP2 SWAP1 PUSH2 0x7A82 JUMP JUMPDEST PUSH1 0x40 MLOAD PUSH1 0x20 DUP2 DUP4 SUB SUB DUP2 MSTORE SWAP1 PUSH1 0x40 MSTORE DUP1 MLOAD SWAP1 PUSH1 0x20 ADD KECCAK256 SWAP1 POP DUP2 PUSH1 0x80 ADD MLOAD DUP2 EQ PUSH2 0x1214 JUMPI PUSH1 0x40 MLOAD PUSH32 0x8C379A000000000000000000000000000000000000000000000000000000000 DUP2 MSTORE PUSH1 0x4 ADD PUSH2 0x120B SWAP1 PUSH2 0x7B09 JUMP JUMPDEST PUSH1 0x40 MLOAD DUP1 SWAP2 SUB SWAP1 REVERT JUMPDEST TIMESTAMP DUP3 PUSH1 0xC0 ADD DUP2 DUP2 MSTORE POP POP PUSH0 DUP3 PUSH1 0xE0 ADD DUP2 DUP2 MSTORE POP POP PUSH1 0x3E DUP3 SWAP1 DUP1 PUSH1 0x1 DUP2 SLOAD ADD DUP1 DUP3 SSTORE DUP1 SWAP2 POP POP PUSH1 0x1 SWAP1 SUB SWAP1 PUSH0 MSTORE PUSH1 0x20 PUSH0 KECCAK256 SWAP1 PUSH1 0x8 MUL ADD PUSH0 SWAP1 SWAP2 SWAP1 SWAP2 SWAP1 SWAP2 POP PUSH0 DUP3 ADD MLOAD DUP2 PUSH0 ADD SWAP1 DUP2 PUSH2 0x1264 SWAP2 SWAP1 PUSH2 0x7D21 JUMP JUMPDEST POP PUSH1 0x20 DUP3 ADD MLOAD DUP2 PUSH1 0x1 ADD SWAP1 DUP2 PUSH2 0x127A SWAP2 SWAP1 PUSH2 0x7D21 JUMP JUMPDEST POP PUSH1 0x40 DUP3 ADD MLOAD DUP2 PUSH1 0x2 ADD SWAP1 DUP2 PUSH2 0x1290 SWAP2 SWAP1 PUSH2 0x7D21 JUMP JUMPDEST POP PUSH1 0x60 DUP3 ADD MLOAD DUP2 PUSH1 0x3 ADD SWAP1 DUP2 PUSH2 0x12A6 SWAP2 SWAP1 PUSH2 0x7D21 JUMP JUMPDEST POP PUSH1 0x80 DUP3 ADD MLOAD DUP2 PUSH1 0x4 ADD SSTORE PUSH1 0xA0 DUP3 ADD MLOAD DUP2 PUSH1 0x5 ADD SWAP1 DUP2 PUSH2 0x12C6 SWAP2 SWAP1 PUSH2 0x7D21 JUMP JUMPDEST POP PUSH1 0xC0 DUP3 ADD MLOAD DUP2 PUSH1 0x6 ADD SSTORE PUSH1 0xE0 DUP3 ADD MLOAD DUP2 PUSH1 0x7 ADD SSTORE POP POP PUSH1 0x1 PUSH1 0x3E DUP1 SLOAD SWAP1 POP PUSH2 0x12EF SWAP2 SWAP1 PUSH2 0x7E1D JUMP JUMPDEST PUSH32 0xF20C47478412252C3F85E5881B3CBEE3E68A1AB2B3CD2D3FD8633EE288582E29 DUP4 PUSH1 0x40 MLOAD PUSH2 0x131E SWAP2 SWAP1 PUSH2 0x7820 JUMP JUMPDEST PUSH1 0x40 MLOAD DUP1 SWAP2 SUB SWAP1 LOG2 POP POP JUMP JUMPDEST PUSH1 0x4 DUP2 DUP2 SLOAD DUP2 LT PUSH2 0x1339 JUMPI PUSH0 DUP1 REVERT JUMPDEST SWAP1 PUSH0 MSTORE PUSH1 0x20 PUSH0 KECCAK256 SWAP1 PUSH1 0x7 MUL ADD PUSH0 SWAP2 POP SWAP1 POP DUP1 PUSH0 ADD PUSH0 SWAP1 SLOAD SWAP1 PUSH2 0x100 EXP SWAP1 DIV PUSH20 0xFFFFFFFFFFFFFFFFFFFFFFFFFFFFFFFFFFFFFFFF AND SWAP1 DUP1 PUSH1 0x1 ADD DUP1 SLOAD PUSH2 0x137D SWAP1 PUSH2 0x7B54 JUMP JUMPDEST DUP1 PUSH1 0x1F ADD PUSH1 0x20 DUP1 SWAP2 DIV MUL PUSH1 0x20 ADD PUSH1 0x40 MLOAD SWAP1 DUP2 ADD PUSH1 0x40 MSTORE DUP1 SWAP3 SWAP2 SWAP1 DUP2 DUP2 MSTORE PUSH1 0x20 ADD DUP3 DUP1 SLOAD PUSH2 0x13A9 SWAP1 PUSH2 0x7B54 JUMP JUMPDEST DUP1 ISZERO PUSH2 0x13F4 JUMPI DUP1 PUSH1 0x1F LT PUSH2 0x13CB JUMPI PUSH2 0x100 DUP1 DUP4 SLOAD DIV MUL DUP4 MSTORE SWAP2 PUSH1 0x20 ADD SWAP2 PUSH2 0x13F4 JUMP JUMPDEST DUP3 ADD SWAP2 SWAP1 PUSH0 MSTORE PUSH1 0x20 PUSH0 KECCAK256 SWAP1 JUMPDEST DUP2 SLOAD DUP2 MSTORE SWAP1 PUSH1 0x1 ADD SWAP1 PUSH1 0x20 ADD DUP1 DUP4 GT PUSH2 0x13D7 JUMPI DUP3 SWAP1 SUB PUSH1 0x1F AND DUP3 ADD SWAP2 JUMPDEST POP POP POP POP POP SWAP1 DUP1 PUSH1 0x2 ADD SLOAD SWAP1 DUP1 PUSH1 0x3 ADD SLOAD SWAP1 DUP1 PUSH1 0x4 ADD SLOAD SWAP1 DUP1 PUSH1 0x5 ADD PUSH0 SWAP1 SLOAD SWAP1 PUSH2 0x100 EXP SWAP1 DIV PUSH1 0xFF AND SWAP1 POP DUP7 JUMP JUMPDEST PUSH0 PUSH1 0x3 PUSH0 CALLER PUSH20 0xFFFFFFFFFFFFFFFFFFFFFFFFFFFFFFFFFFFFFFFF AND PUSH20 0xFFFFFFFFFFFFFFFFFFFFFFFFFFFFFFFFFFFFFFFF AND DUP2 MSTORE PUSH1 0x20 ADD SWAP1 DUP2 MSTORE PUSH1 0x20 ADD PUSH0 KECCAK256 PUSH1 0x5 ADD PUSH0 SWAP1 SLOAD SWAP1 PUSH2 0x100 EXP SWAP1 DIV PUSH1 0xFF AND PUSH2 0x14AF JUMPI PUSH1 0x40 MLOAD PUSH32 0x8C379A000000000000000000000000000000000000000000000000000000000 DUP2 MSTORE PUSH1 0x4 ADD PUSH2 0x14A6 SWAP1 PUSH2 0x7E9A JUMP JUMPDEST PUSH1 0x40 MLOAD DUP1 SWAP2 SUB SWAP1 REVERT JUMPDEST PUSH1 0x4 DUP1 SLOAD SWAP1 POP DUP3 LT PUSH2 0x14F6 JUMPI PUSH1 0x40 MLOAD PUSH32 0x8C379A000000000000000000000000000000000000000000000000000000000 DUP2 MSTORE PUSH1 0x4 ADD PUSH2 0x14ED SWAP1 PUSH2 0x7F02 JUMP JUMPDEST PUSH1 0x40 MLOAD DUP1 SWAP2 SUB SWAP1 REVERT JUMPDEST PUSH0 PUSH1 0x4 DUP4 DUP2 SLOAD DUP2 LT PUSH2 0x150B JUMPI PUSH2 0x150A PUSH2 0x7F20 JUMP JUMPDEST JUMPDEST SWAP1 PUSH0 MSTORE PUSH1 0x20 PUSH0 KECCAK256 SWAP1 PUSH1 0x7 MUL ADD SWAP1 POP PUSH0 DUP2 PUSH1 0x4 ADD SLOAD EQ PUSH2 0x155F JUMPI PUSH1 0x40 MLOAD PUSH32 0x8C379A000000000000000000000000000000000000000000000000000000000 DUP2 MSTORE PUSH1 0x4 ADD PUSH2 0x1556 SWAP1 PUSH2 0x7F97 JUMP JUMPDEST PUSH1 0x40 MLOAD DUP1 SWAP2 SUB SWAP1 REVERT JUMPDEST PUSH0 PUSH1 0x3D PUSH0 CALLER PUSH20 0xFFFFFFFFFFFFFFFFFFFFFFFFFFFFFFFFFFFFFFFF AND PUSH20 0xFFFFFFFFFFFFFFFFFFFFFFFFFFFFFFFFFFFFFFFF AND DUP2 MSTORE PUSH1 0x20 ADD SWAP1 DUP2 MSTORE PUSH1 0x20 ADD PUSH0 KECCAK256 PUSH0 DUP6 DUP2 MSTORE PUSH1 0x20 ADD SWAP1 DUP2 MSTORE PUSH1 0x20 ADD PUSH0 KECCAK256 SLOAD EQ PUSH2 0x15ED JUMPI PUSH1 0x40 MLOAD PUSH32 0x8C379A000000000000000000000000000000000000000000000000000000000 DUP2 MSTORE PUSH1 0x4 ADD PUSH2 0x15E4 SWAP1 PUSH2 0x7FFF JUMP JUMPDEST PUSH1 0x40 MLOAD DUP1 SWAP2 SUB SWAP1 REVERT JUMPDEST TIMESTAMP PUSH1 0x3D PUSH0 CALLER PUSH20 0xFFFFFFFFFFFFFFFFFFFFFFFFFFFFFFFFFFFFFFFF AND PUSH20 0xFFFFFFFFFFFFFFFFFFFFFFFFFFFFFFFFFFFFFFFF AND DUP2 MSTORE PUSH1 0x20 ADD SWAP1 DUP2 MSTORE PUSH1 0x20 ADD PUSH0 KECCAK256 PUSH0 DUP6 DUP2 MSTORE PUSH1 0x20 ADD SWAP1 DUP2 MSTORE PUSH1 0x20 ADD PUSH0 KECCAK256 DUP2 SWAP1 SSTORE POP DUP1 PUSH1 0x5 ADD PUSH0 DUP2 DUP2 SWAP1 SLOAD SWAP1 PUSH2 0x100 EXP SWAP1 DIV PUSH1 0xFF AND DUP1 SWAP3 SWAP2 SWAP1 PUSH2 0x165E SWAP1 PUSH2 0x801D JUMP JUMPDEST SWAP2 SWAP1 PUSH2 0x100 EXP DUP2 SLOAD DUP2 PUSH1 0xFF MUL NOT AND SWAP1 DUP4 PUSH1 0xFF AND MUL OR SWAP1 SSTORE POP POP CALLER PUSH20 0xFFFFFFFFFFFFFFFFFFFFFFFFFFFFFFFFFFFFFFFF AND DUP4 PUSH32 0x34647120636CE03D739347E28E9D1BDD34FD03D066AE60439FB1BE2721AD16CD PUSH1 0x40 MLOAD PUSH1 0x40 MLOAD DUP1 SWAP2 SUB SWAP1 LOG3 PUSH1 0x1E PUSH1 0xFF AND DUP2 PUSH1 0x5 ADD PUSH0 SWAP1 SLOAD SWAP1 PUSH2 0x100 EXP SWAP1 DIV PUSH1 0xFF AND PUSH1 0xFF AND LT ISZERO DUP1 ISZERO PUSH2 0x16E5 JUMPI POP PUSH0 DUP2 PUSH1 0x3 ADD SLOAD EQ JUMPDEST ISZERO PUSH2 0x178E JUMPI DUP3 PUSH32 0xE36F8B7448DAFF4A52E2945DB0D1D7A436279CC1D527A45C27835DCBD27F336D PUSH1 0x40 MLOAD PUSH1 0x40 MLOAD DUP1 SWAP2 SUB SWAP1 LOG2 TIMESTAMP DUP2 PUSH1 0x3 ADD DUP2 SWAP1 SSTORE POP PUSH0 PUSH1 0x3C PUSH0 DUP4 PUSH0 ADD PUSH0 SWAP1 SLOAD SWAP1 PUSH2 0x100 EXP SWAP1 DIV PUSH20 0xFFFFFFFFFFFFFFFFFFFFFFFFFFFFFFFFFFFFFFFF AND PUSH20 0xFFFFFFFFFFFFFFFFFFFFFFFFFFFFFFFFFFFFFFFF AND PUSH20 0xFFFFFFFFFFFFFFFFFFFFFFFFFFFFFFFFFFFFFFFF AND DUP2 MSTORE PUSH1 0x20 ADD SWAP1 DUP2 MSTORE PUSH1 0x20 ADD PUSH0 KECCAK256 DUP2 SWAP1 SSTORE POP PUSH2 0x178D DUP4 PUSH2 0x6368 JUMP JUMPDEST JUMPDEST DUP1 PUSH1 0x5 ADD PUSH0 SWAP1 SLOAD SWAP1 PUSH2 0x100 EXP SWAP1 DIV PUSH1 0xFF AND SWAP2 POP POP SWAP2 SWAP1 POP JUMP JUMPDEST PUSH1 0x43 PUSH1 0x20 MSTORE DUP2 PUSH0 MSTORE PUSH1 0x40 PUSH0 KECCAK256 PUSH1 0x20 MSTORE DUP1 PUSH0 MSTORE PUSH1 0x40 PUSH0 KECCAK256 PUSH0 SWAP2 POP SWAP2 POP SWAP1 SLOAD SWAP1 PUSH2 0x100 EXP SWAP1 DIV PUSH0 SIGNEXTEND DUP2 JUMP JUMPDEST PUSH0 DUP4 MLOAD GT DUP1 ISZERO PUSH2 0x17E2 JUMPI POP PUSH1 0x64 DUP4 MLOAD GT ISZERO JUMPDEST PUSH2 0x1821 JUMPI PUSH1 0x40 MLOAD PUSH32 0x8C379A000000000000000000000000000000000000000000000000000000000 DUP2 MSTORE PUSH1 0x4 ADD PUSH2 0x1818 SWAP1 PUSH2 0x808F JUMP JUMPDEST PUSH1 0x40 MLOAD DUP1 SWAP2 SUB SWAP1 REVERT JUMPDEST PUSH0 DUP3 MLOAD GT DUP1 ISZERO PUSH2 0x1834 JUMPI POP PUSH2 0x3E8 DUP3 MLOAD GT ISZERO JUMPDEST PUSH2 0x1873 JUMPI PUSH1 0x40 MLOAD PUSH32 0x8C379A000000000000000000000000000000000000000000000000000000000 DUP2 MSTORE PUSH1 0x4 ADD PUSH2 0x186A SWAP1 PUSH2 0x80F7 JUMP JUMPDEST PUSH1 0x40 MLOAD DUP1 SWAP2 SUB SWAP1 REVERT JUMPDEST PUSH0 DUP2 MLOAD GT DUP1 ISZERO PUSH2 0x1886 JUMPI POP PUSH2 0x7D0 DUP2 MLOAD GT ISZERO JUMPDEST PUSH2 0x18C5 JUMPI PUSH1 0x40 MLOAD PUSH32 0x8C379A000000000000000000000000000000000000000000000000000000000 DUP2 MSTORE PUSH1 0x4 ADD PUSH2 0x18BC SWAP1 PUSH2 0x815F JUMP JUMPDEST PUSH1 0x40 MLOAD DUP1 SWAP2 SUB SWAP1 REVERT JUMPDEST PUSH0 PUSH20 0xFFFFFFFFFFFFFFFFFFFFFFFFFFFFFFFFFFFFFFFF AND CALLER PUSH20 0xFFFFFFFFFFFFFFFFFFFFFFFFFFFFFFFFFFFFFFFF AND SUB PUSH2 0x1933 JUMPI PUSH1 0x40 MLOAD PUSH32 0x8C379A000000000000000000000000000000000000000000000000000000000 DUP2 MSTORE PUSH1 0x4 ADD PUSH2 0x192A SWAP1 PUSH2 0x81C7 JUMP JUMPDEST PUSH1 0x40 MLOAD DUP1 SWAP2 SUB SWAP1 REVERT JUMPDEST PUSH7 0x38D7EA4C68000 CALLVALUE LT ISZERO PUSH2 0x197D JUMPI PUSH1 0x40 MLOAD PUSH32 0x8C379A000000000000000000000000000000000000000000000000000000000 DUP2 MSTORE PUSH1 0x4 ADD PUSH2 0x1974 SWAP1 PUSH2 0x822F JUMP JUMPDEST PUSH1 0x40 MLOAD DUP1 SWAP2 SUB SWAP1 REVERT JUMPDEST PUSH0 PUSH1 0x4 DUP2 GT ISZERO PUSH2 0x1990 JUMPI PUSH2 0x198F PUSH2 0x732D JUMP JUMPDEST JUMPDEST PUSH2 0x1998 PUSH2 0x3BE2 JUMP JUMPDEST PUSH1 0x4 DUP2 GT ISZERO PUSH2 0x19AA JUMPI PUSH2 0x19A9 PUSH2 0x732D JUMP JUMPDEST JUMPDEST EQ PUSH2 0x19EA JUMPI PUSH1 0x40 MLOAD PUSH32 0x8C379A000000000000000000000000000000000000000000000000000000000 DUP2 MSTORE PUSH1 0x4 ADD PUSH2 0x19E1 SWAP1 PUSH2 0x82BD JUMP JUMPDEST PUSH1 0x40 MLOAD DUP1 SWAP2 SUB SWAP1 REVERT JUMPDEST PUSH0 PUSH1 0x3 PUSH0 CALLER PUSH20 0xFFFFFFFFFFFFFFFFFFFFFFFFFFFFFFFFFFFFFFFF AND PUSH20 0xFFFFFFFFFFFFFFFFFFFFFFFFFFFFFFFFFFFFFFFF AND DUP2 MSTORE PUSH1 0x20 ADD SWAP1 DUP2 MSTORE PUSH1 0x20 ADD PUSH0 KECCAK256 PUSH1 0x3 ADD SLOAD EQ PUSH2 0x1A6C JUMPI PUSH1 0x40 MLOAD PUSH32 0x8C379A000000000000000000000000000000000000000000000000000000000 DUP2 MSTORE PUSH1 0x4 ADD PUSH2 0x1A63 SWAP1 PUSH2 0x8325 JUMP JUMPDEST PUSH1 0x40 MLOAD DUP1 SWAP2 SUB SWAP1 REVERT JUMPDEST PUSH1 0x40 MLOAD DUP1 PUSH1 0xE0 ADD PUSH1 0x40 MSTORE DUP1 DUP5 DUP2 MSTORE PUSH1 0x20 ADD DUP4 DUP2 MSTORE PUSH1 0x20 ADD DUP3 DUP2 MSTORE PUSH1 0x20 ADD TIMESTAMP DUP2 MSTORE PUSH1 0x20 ADD PUSH0 DUP2 MSTORE PUSH1 0x20 ADD PUSH0 ISZERO ISZERO DUP2 MSTORE PUSH1 0x20 ADD PUSH0 DUP2 MSTORE POP PUSH1 0x3 PUSH0 CALLER PUSH20 0xFFFFFFFFFFFFFFFFFFFFFFFFFFFFFFFFFFFFFFFF AND PUSH20 0xFFFFFFFFFFFFFFFFFFFFFFFFFFFFFFFFFFFFFFFF AND DUP2 MSTORE PUSH1 0x20 ADD SWAP1 DUP2 MSTORE PUSH1 0x20 ADD PUSH0 KECCAK256 PUSH0 DUP3 ADD MLOAD DUP2 PUSH0 ADD SWAP1 DUP2 PUSH2 0x1AF1 SWAP2 SWAP1 PUSH2 0x7D21 JUMP JUMPDEST POP PUSH1 0x20 DUP3 ADD MLOAD DUP2 PUSH1 0x1 ADD SWAP1 DUP2 PUSH2 0x1B07 SWAP2 SWAP1 PUSH2 0x7D21 JUMP JUMPDEST POP PUSH1 0x40 DUP3 ADD MLOAD DUP2 PUSH1 0x2 ADD SWAP1 DUP2 PUSH2 0x1B1D SWAP2 SWAP1 PUSH2 0x7D21 JUMP JUMPDEST POP PUSH1 0x60 DUP3 ADD MLOAD DUP2 PUSH1 0x3 ADD SSTORE PUSH1 0x80 DUP3 ADD MLOAD DUP2 PUSH1 0x4 ADD SSTORE PUSH1 0xA0 DUP3 ADD MLOAD DUP2 PUSH1 0x5 ADD PUSH0 PUSH2 0x100 EXP DUP2 SLOAD DUP2 PUSH1 0xFF MUL NOT AND SWAP1 DUP4 ISZERO ISZERO MUL OR SWAP1 SSTORE POP PUSH1 0xC0 DUP3 ADD MLOAD DUP2 PUSH1 0x6 ADD SSTORE SWAP1 POP POP PUSH1 0x2 CALLER SWAP1 DUP1 PUSH1 0x1 DUP2 SLOAD ADD DUP1 DUP3 SSTORE DUP1 SWAP2 POP POP PUSH1 0x1 SWAP1 SUB SWAP1 PUSH0 MSTORE PUSH1 0x20 PUSH0 KECCAK256 ADD PUSH0 SWAP1 SWAP2 SWAP1 SWAP2 SWAP1 SWAP2 PUSH2 0x100 EXP DUP2 SLOAD DUP2 PUSH20 0xFFFFFFFFFFFFFFFFFFFFFFFFFFFFFFFFFFFFFFFF MUL NOT AND SWAP1 DUP4 PUSH20 0xFFFFFFFFFFFFFFFFFFFFFFFFFFFFFFFFFFFFFFFF AND MUL OR SWAP1 SSTORE POP CALLER PUSH20 0xFFFFFFFFFFFFFFFFFFFFFFFFFFFFFFFFFFFFFFFF AND PUSH31 0xD6FEA68F71A20D8149F227F87E8CF7E6AD320B2DAD4B45465B14599B80EE09 DUP5 DUP5 DUP5 PUSH1 0x40 MLOAD PUSH2 0x1C07 SWAP4 SWAP3 SWAP2 SWAP1 PUSH2 0x8343 JUMP JUMPDEST PUSH1 0x40 MLOAD DUP1 SWAP2 SUB SWAP1 LOG2 POP POP POP JUMP JUMPDEST PUSH1 0x3A PUSH0 SWAP1 SLOAD SWAP1 PUSH2 0x100 EXP SWAP1 DIV PUSH1 0xFF AND DUP2 JUMP JUMPDEST PUSH2 0x1C2E PUSH2 0x6518 JUMP JUMPDEST PUSH1 0x3F PUSH0 DUP4 DUP2 MSTORE PUSH1 0x20 ADD SWAP1 DUP2 MSTORE PUSH1 0x20 ADD PUSH0 KECCAK256 PUSH1 0x2 DUP1 PUSH1 0x20 MUL PUSH1 0x40 MLOAD SWAP1 DUP2 ADD PUSH1 0x40 MSTORE DUP1 SWAP3 SWAP2 SWAP1 DUP3 PUSH1 0x2 DUP1 ISZERO PUSH2 0x1CAB JUMPI PUSH1 0x20 MUL DUP3 ADD SWAP2 JUMPDEST DUP2 PUSH0 SWAP1 SLOAD SWAP1 PUSH2 0x100 EXP SWAP1 DIV PUSH20 0xFFFFFFFFFFFFFFFFFFFFFFFFFFFFFFFFFFFFFFFF AND PUSH20 0xFFFFFFFFFFFFFFFFFFFFFFFFFFFFFFFFFFFFFFFF AND DUP2 MSTORE PUSH1 0x20 ADD SWAP1 PUSH1 0x1 ADD SWAP1 DUP1 DUP4 GT PUSH2 0x1C62 JUMPI JUMPDEST POP POP POP POP POP SWAP1 POP SWAP2 SWAP1 POP JUMP JUMPDEST PUSH0 DUP1 JUMPDEST PUSH1 0x48 PUSH0 CALLER PUSH20 0xFFFFFFFFFFFFFFFFFFFFFFFFFFFFFFFFFFFFFFFF AND PUSH20 0xFFFFFFFFFFFFFFFFFFFFFFFFFFFFFFFFFFFFFFFF AND DUP2 MSTORE PUSH1 0x20 ADD SWAP1 DUP2 MSTORE PUSH1 0x20 ADD PUSH0 KECCAK256 DUP1 SLOAD SWAP1 POP DUP2 PUSH2 0xFFFF AND LT ISZERO PUSH2 0x1D88 JUMPI PUSH1 0x48 PUSH0 CALLER PUSH20 0xFFFFFFFFFFFFFFFFFFFFFFFFFFFFFFFFFFFFFFFF AND PUSH20 0xFFFFFFFFFFFFFFFFFFFFFFFFFFFFFFFFFFFFFFFF AND DUP2 MSTORE PUSH1 0x20 ADD SWAP1 DUP2 MSTORE PUSH1 0x20 ADD PUSH0 KECCAK256 DUP2 PUSH2 0xFFFF AND DUP2 SLOAD DUP2 LT PUSH2 0x1D59 JUMPI PUSH2 0x1D58 PUSH2 0x7F20 JUMP JUMPDEST JUMPDEST SWAP1 PUSH0 MSTORE PUSH1 0x20 PUSH0 KECCAK256 SWAP1 PUSH1 0x2 MUL ADD PUSH0 ADD SLOAD DUP3 PUSH2 0x1D73 SWAP2 SWAP1 PUSH2 0x838D JUMP JUMPDEST SWAP2 POP DUP1 DUP1 PUSH2 0x1D80 SWAP1 PUSH2 0x83DB JUMP JUMPDEST SWAP2 POP POP PUSH2 0x1CBA JUMP JUMPDEST POP SWAP1 JUMP JUMPDEST PUSH1 0x3B SLOAD DUP2 JUMP JUMPDEST PUSH1 0x3D PUSH1 0x20 MSTORE DUP2 PUSH0 MSTORE PUSH1 0x40 PUSH0 KECCAK256 PUSH1 0x20 MSTORE DUP1 PUSH0 MSTORE PUSH1 0x40 PUSH0 KECCAK256 PUSH0 SWAP2 POP SWAP2 POP POP SLOAD DUP2 JUMP JUMPDEST PUSH1 0x1 PUSH0 SWAP1 SLOAD SWAP1 PUSH2 0x100 EXP SWAP1 DIV PUSH20 0xFFFFFFFFFFFFFFFFFFFFFFFFFFFFFFFFFFFFFFFF AND PUSH20 0xFFFFFFFFFFFFFFFFFFFFFFFFFFFFFFFFFFFFFFFF AND CALLER PUSH20 0xFFFFFFFFFFFFFFFFFFFFFFFFFFFFFFFFFFFFFFFF AND EQ PUSH2 0x1E41 JUMPI PUSH1 0x40 MLOAD PUSH32 0x8C379A000000000000000000000000000000000000000000000000000000000 DUP2 MSTORE PUSH1 0x4 ADD PUSH2 0x1E38 SWAP1 PUSH2 0x844E JUMP JUMPDEST PUSH1 0x40 MLOAD DUP1 SWAP2 SUB SWAP1 REVERT JUMPDEST PUSH0 PUSH1 0x4 DUP2 GT ISZERO PUSH2 0x1E54 JUMPI PUSH2 0x1E53 PUSH2 0x732D JUMP JUMPDEST JUMPDEST PUSH2 0x1E5C PUSH2 0x3BE2 JUMP JUMPDEST PUSH1 0x4 DUP2 GT ISZERO PUSH2 0x1E6E JUMPI PUSH2 0x1E6D PUSH2 0x732D JUMP JUMPDEST JUMPDEST EQ PUSH2 0x1EAE JUMPI PUSH1 0x40 MLOAD PUSH32 0x8C379A000000000000000000000000000000000000000000000000000000000 DUP2 MSTORE PUSH1 0x4 ADD PUSH2 0x1EA5 SWAP1 PUSH2 0x84B6 JUMP JUMPDEST PUSH1 0x40 MLOAD DUP1 SWAP2 SUB SWAP1 REVERT JUMPDEST PUSH2 0x3E8 PUSH4 0xFFFFFFFF AND PUSH1 0x1 PUSH1 0x14 SWAP1 SLOAD SWAP1 PUSH2 0x100 EXP SWAP1 DIV PUSH4 0xFFFFFFFF AND PUSH4 0xFFFFFFFF AND LT PUSH2 0x1F10 JUMPI PUSH1 0x40 MLOAD PUSH32 0x8C379A000000000000000000000000000000000000000000000000000000000 DUP2 MSTORE PUSH1 0x4 ADD PUSH2 0x1F07 SWAP1 PUSH2 0x8544 JUMP JUMPDEST PUSH1 0x40 MLOAD DUP1 SWAP2 SUB SWAP1 REVERT JUMPDEST PUSH1 0xA PUSH4 0xFFFFFFFF AND PUSH1 0xA EQ DUP1 ISZERO PUSH2 0x1F2E JUMPI POP PUSH1 0xA PUSH4 0xFFFFFFFF AND PUSH1 0xA EQ JUMPDEST PUSH2 0x1F6D JUMPI PUSH1 0x40 MLOAD PUSH32 0x8C379A000000000000000000000000000000000000000000000000000000000 DUP2 MSTORE PUSH1 0x4 ADD PUSH2 0x1F64 SWAP1 PUSH2 0x85AC JUMP JUMPDEST PUSH1 0x40 MLOAD DUP1 SWAP2 SUB SWAP1 REVERT JUMPDEST PUSH0 JUMPDEST PUSH1 0xA PUSH4 0xFFFFFFFF AND DUP2 PUSH1 0xFF AND LT ISZERO PUSH2 0x204F JUMPI PUSH1 0x6 PUSH0 DUP5 DUP4 PUSH1 0xFF AND PUSH1 0xA DUP2 LT PUSH2 0x1F9A JUMPI PUSH2 0x1F99 PUSH2 0x7F20 JUMP JUMPDEST JUMPDEST PUSH1 0x20 MUL ADD CALLDATALOAD DUP2 MSTORE PUSH1 0x20 ADD SWAP1 DUP2 MSTORE PUSH1 0x20 ADD PUSH0 KECCAK256 PUSH0 SWAP1 SLOAD SWAP1 PUSH2 0x100 EXP SWAP1 DIV PUSH1 0xFF AND ISZERO PUSH2 0x1FF9 JUMPI PUSH1 0x40 MLOAD PUSH32 0x8C379A000000000000000000000000000000000000000000000000000000000 DUP2 MSTORE PUSH1 0x4 ADD PUSH2 0x1FF0 SWAP1 PUSH2 0x8614 JUMP JUMPDEST PUSH1 0x40 MLOAD DUP1 SWAP2 SUB SWAP1 REVERT JUMPDEST PUSH1 0x1 PUSH1 0x6 PUSH0 DUP6 DUP5 PUSH1 0xFF AND PUSH1 0xA DUP2 LT PUSH2 0x2014 JUMPI PUSH2 0x2013 PUSH2 0x7F20 JUMP JUMPDEST JUMPDEST PUSH1 0x20 MUL ADD CALLDATALOAD DUP2 MSTORE PUSH1 0x20 ADD SWAP1 DUP2 MSTORE PUSH1 0x20 ADD PUSH0 KECCAK256 PUSH0 PUSH2 0x100 EXP DUP2 SLOAD DUP2 PUSH1 0xFF MUL NOT AND SWAP1 DUP4 ISZERO ISZERO MUL OR SWAP1 SSTORE POP DUP1 DUP1 PUSH2 0x2047 SWAP1 PUSH2 0x801D JUMP JUMPDEST SWAP2 POP POP PUSH2 0x1F6F JUMP JUMPDEST POP PUSH0 JUMPDEST PUSH1 0xA PUSH4 0xFFFFFFFF AND DUP2 PUSH1 0xFF AND LT ISZERO PUSH2 0x221F JUMPI PUSH0 PUSH20 0xFFFFFFFFFFFFFFFFFFFFFFFFFFFFFFFFFFFFFFFF AND DUP3 DUP3 PUSH1 0xFF AND PUSH1 0xA DUP2 LT PUSH2 0x2091 JUMPI PUSH2 0x2090 PUSH2 0x7F20 JUMP JUMPDEST JUMPDEST PUSH1 0x20 MUL ADD PUSH1 0x20 DUP2 ADD SWAP1 PUSH2 0x20A4 SWAP2 SWAP1 PUSH2 0x6EC7 JUMP JUMPDEST PUSH20 0xFFFFFFFFFFFFFFFFFFFFFFFFFFFFFFFFFFFFFFFF AND SUB PUSH2 0x20FA JUMPI PUSH1 0x40 MLOAD PUSH32 0x8C379A000000000000000000000000000000000000000000000000000000000 DUP2 MSTORE PUSH1 0x4 ADD PUSH2 0x20F1 SWAP1 PUSH2 0x867C JUMP JUMPDEST PUSH1 0x40 MLOAD DUP1 SWAP2 SUB SWAP1 REVERT JUMPDEST PUSH0 PUSH1 0x7 PUSH0 DUP5 DUP5 PUSH1 0xFF AND PUSH1 0xA DUP2 LT PUSH2 0x2114 JUMPI PUSH2 0x2113 PUSH2 0x7F20 JUMP JUMPDEST JUMPDEST PUSH1 0x20 MUL ADD PUSH1 0x20 DUP2 ADD SWAP1 PUSH2 0x2127 SWAP2 SWAP1 PUSH2 0x6EC7 JUMP JUMPDEST PUSH20 0xFFFFFFFFFFFFFFFFFFFFFFFFFFFFFFFFFFFFFFFF AND PUSH20 0xFFFFFFFFFFFFFFFFFFFFFFFFFFFFFFFFFFFFFFFF AND DUP2 MSTORE PUSH1 0x20 ADD SWAP1 DUP2 MSTORE PUSH1 0x20 ADD PUSH0 KECCAK256 SLOAD EQ PUSH2 0x21A1 JUMPI PUSH1 0x40 MLOAD PUSH32 0x8C379A000000000000000000000000000000000000000000000000000000000 DUP2 MSTORE PUSH1 0x4 ADD PUSH2 0x2198 SWAP1 PUSH2 0x870A JUMP JUMPDEST PUSH1 0x40 MLOAD DUP1 SWAP2 SUB SWAP1 REVERT JUMPDEST PUSH1 0x1 PUSH1 0x7 PUSH0 DUP5 DUP5 PUSH1 0xFF AND PUSH1 0xA DUP2 LT PUSH2 0x21BC JUMPI PUSH2 0x21BB PUSH2 0x7F20 JUMP JUMPDEST JUMPDEST PUSH1 0x20 MUL ADD PUSH1 0x20 DUP2 ADD SWAP1 PUSH2 0x21CF SWAP2 SWAP1 PUSH2 0x6EC7 JUMP JUMPDEST PUSH20 0xFFFFFFFFFFFFFFFFFFFFFFFFFFFFFFFFFFFFFFFF AND PUSH20 0xFFFFFFFFFFFFFFFFFFFFFFFFFFFFFFFFFFFFFFFF AND DUP2 MSTORE PUSH1 0x20 ADD SWAP1 DUP2 MSTORE PUSH1 0x20 ADD PUSH0 KECCAK256 DUP2 SWAP1 SSTORE POP DUP1 DUP1 PUSH2 0x2217 SWAP1 PUSH2 0x801D JUMP JUMPDEST SWAP2 POP POP PUSH2 0x2052 JUMP JUMPDEST POP PUSH1 0xA PUSH1 0x1 PUSH1 0x14 DUP3 DUP3 DUP3 SWAP1 SLOAD SWAP1 PUSH2 0x100 EXP SWAP1 DIV PUSH4 0xFFFFFFFF AND PUSH2 0x2242 SWAP2 SWAP1 PUSH2 0x8728 JUMP JUMPDEST SWAP3 POP PUSH2 0x100 EXP DUP2 SLOAD DUP2 PUSH4 0xFFFFFFFF MUL NOT AND SWAP1 DUP4 PUSH4 0xFFFFFFFF AND MUL OR SWAP1 SSTORE POP DUP1 PUSH1 0x40 MLOAD PUSH2 0x226E SWAP2 SWAP1 PUSH2 0x8822 JUMP JUMPDEST PUSH1 0x40 MLOAD DUP1 SWAP2 SUB SWAP1 KECCAK256 PUSH32 0x5ECF71B87B223B4E8C4D19850B2C7A727D326E44EDA6530FE642B505FF2C4F94 PUSH1 0x1 PUSH1 0x14 SWAP1 SLOAD SWAP1 PUSH2 0x100 EXP SWAP1 DIV PUSH4 0xFFFFFFFF AND PUSH1 0x40 MLOAD PUSH2 0x22B7 SWAP2 SWAP1 PUSH2 0x886D JUMP JUMPDEST PUSH1 0x40 MLOAD DUP1 SWAP2 SUB SWAP1 LOG2 POP POP JUMP JUMPDEST PUSH1 0x3 PUSH0 CALLER PUSH20 0xFFFFFFFFFFFFFFFFFFFFFFFFFFFFFFFFFFFFFFFF AND PUSH20 0xFFFFFFFFFFFFFFFFFFFFFFFFFFFFFFFFFFFFFFFF AND DUP2 MSTORE PUSH1 0x20 ADD SWAP1 DUP2 MSTORE PUSH1 0x20 ADD PUSH0 KECCAK256 PUSH1 0x5 ADD PUSH0 SWAP1 SLOAD SWAP1 PUSH2 0x100 EXP SWAP1 DIV PUSH1 0xFF AND PUSH2 0x234F JUMPI PUSH1 0x40 MLOAD PUSH32 0x8C379A000000000000000000000000000000000000000000000000000000000 DUP2 MSTORE PUSH1 0x4 ADD PUSH2 0x2346 SWAP1 PUSH2 0x88D0 JUMP JUMPDEST PUSH1 0x40 MLOAD DUP1 SWAP2 SUB SWAP1 REVERT JUMPDEST PUSH32 0xFFFFFFFFFFFFFFFFFFFFFFFFFFFFFFFFFFFFFFFFFFFFFFFFFFFFFFFFFFFFFFFF DUP2 PUSH0 SIGNEXTEND SLT ISZERO DUP1 ISZERO PUSH2 0x2384 JUMPI POP PUSH1 0x1 DUP2 PUSH0 SIGNEXTEND SGT ISZERO JUMPDEST PUSH2 0x23C3 JUMPI PUSH1 0x40 MLOAD PUSH32 0x8C379A000000000000000000000000000000000000000000000000000000000 DUP2 MSTORE PUSH1 0x4 ADD PUSH2 0x23BA SWAP1 PUSH2 0x8938 JUMP JUMPDEST PUSH1 0x40 MLOAD DUP1 SWAP2 SUB SWAP1 REVERT JUMPDEST PUSH0 PUSH1 0x43 PUSH0 CALLER PUSH20 0xFFFFFFFFFFFFFFFFFFFFFFFFFFFFFFFFFFFFFFFF AND PUSH20 0xFFFFFFFFFFFFFFFFFFFFFFFFFFFFFFFFFFFFFFFF AND DUP2 MSTORE PUSH1 0x20 ADD SWAP1 DUP2 MSTORE PUSH1 0x20 ADD PUSH0 KECCAK256 PUSH0 DUP5 PUSH20 0xFFFFFFFFFFFFFFFFFFFFFFFFFFFFFFFFFFFFFFFF AND PUSH20 0xFFFFFFFFFFFFFFFFFFFFFFFFFFFFFFFFFFFFFFFF AND DUP2 MSTORE PUSH1 0x20 ADD SWAP1 DUP2 MSTORE PUSH1 0x20 ADD PUSH0 KECCAK256 PUSH0 SWAP1 SLOAD SWAP1 PUSH2 0x100 EXP SWAP1 DIV PUSH0 SIGNEXTEND SWAP1 POP PUSH0 DUP2 PUSH0 SIGNEXTEND EQ DUP1 ISZERO PUSH2 0x245D JUMPI POP PUSH0 DUP3 PUSH0 SIGNEXTEND EQ ISZERO JUMPDEST ISZERO PUSH2 0x253A JUMPI PUSH2 0x3E8 PUSH1 0x45 PUSH0 CALLER PUSH20 0xFFFFFFFFFFFFFFFFFFFFFFFFFFFFFFFFFFFFFFFF AND PUSH20 0xFFFFFFFFFFFFFFFFFFFFFFFFFFFFFFFFFFFFFFFF AND DUP2 MSTORE PUSH1 0x20 ADD SWAP1 DUP2 MSTORE PUSH1 0x20 ADD PUSH0 KECCAK256 SLOAD LT PUSH2 0x24E3 JUMPI PUSH1 0x40 MLOAD PUSH32 0x8C379A000000000000000000000000000000000000000000000000000000000 DUP2 MSTORE PUSH1 0x4 ADD PUSH2 0x24DA SWAP1 PUSH2 0x89A0 JUMP JUMPDEST PUSH1 0x40 MLOAD DUP1 SWAP2 SUB SWAP1 REVERT JUMPDEST PUSH1 0x45 PUSH0 CALLER PUSH20 0xFFFFFFFFFFFFFFFFFFFFFFFFFFFFFFFFFFFFFFFF AND PUSH20 0xFFFFFFFFFFFFFFFFFFFFFFFFFFFFFFFFFFFFFFFF AND DUP2 MSTORE PUSH1 0x20 ADD SWAP1 DUP2 MSTORE PUSH1 0x20 ADD PUSH0 KECCAK256 PUSH0 DUP2 SLOAD DUP1 SWAP3 SWAP2 SWAP1 PUSH2 0x2530 SWAP1 PUSH2 0x89BE JUMP JUMPDEST SWAP2 SWAP1 POP SSTORE POP PUSH2 0x25A6 JUMP JUMPDEST PUSH0 DUP2 PUSH0 SIGNEXTEND EQ ISZERO DUP1 ISZERO PUSH2 0x254D JUMPI POP PUSH0 DUP3 PUSH0 SIGNEXTEND EQ JUMPDEST ISZERO PUSH2 0x25A5 JUMPI PUSH1 0x45 PUSH0 CALLER PUSH20 0xFFFFFFFFFFFFFFFFFFFFFFFFFFFFFFFFFFFFFFFF AND PUSH20 0xFFFFFFFFFFFFFFFFFFFFFFFFFFFFFFFFFFFFFFFF AND DUP2 MSTORE PUSH1 0x20 ADD SWAP1 DUP2 MSTORE PUSH1 0x20 ADD PUSH0 KECCAK256 PUSH0 DUP2 SLOAD DUP1 SWAP3 SWAP2 SWAP1 PUSH2 0x259F SWAP1 PUSH2 0x8A05 JUMP JUMPDEST SWAP2 SWAP1 POP SSTORE POP JUMPDEST JUMPDEST DUP2 PUSH1 0x43 PUSH0 CALLER PUSH20 0xFFFFFFFFFFFFFFFFFFFFFFFFFFFFFFFFFFFFFFFF AND PUSH20 0xFFFFFFFFFFFFFFFFFFFFFFFFFFFFFFFFFFFFFFFF AND DUP2 MSTORE PUSH1 0x20 ADD SWAP1 DUP2 MSTORE PUSH1 0x20 ADD PUSH0 KECCAK256 PUSH0 DUP6 PUSH20 0xFFFFFFFFFFFFFFFFFFFFFFFFFFFFFFFFFFFFFFFF AND PUSH20 0xFFFFFFFFFFFFFFFFFFFFFFFFFFFFFFFFFFFFFFFF AND DUP2 MSTORE PUSH1 0x20 ADD SWAP1 DUP2 MSTORE PUSH1 0x20 ADD PUSH0 KECCAK256 PUSH0 PUSH2 0x100 EXP DUP2 SLOAD DUP2 PUSH1 0xFF MUL NOT AND SWAP1 DUP4 PUSH0 SIGNEXTEND PUSH1 0xFF AND MUL OR SWAP1 SSTORE POP DUP1 DUP3 PUSH2 0x2644 SWAP2 SWAP1 PUSH2 0x8A2C JUMP JUMPDEST PUSH0 SIGNEXTEND PUSH1 0x44 PUSH0 DUP6 PUSH20 0xFFFFFFFFFFFFFFFFFFFFFFFFFFFFFFFFFFFFFFFF AND PUSH20 0xFFFFFFFFFFFFFFFFFFFFFFFFFFFFFFFFFFFFFFFF AND DUP2 MSTORE PUSH1 0x20 ADD SWAP1 DUP2 MSTORE PUSH1 0x20 ADD PUSH0 KECCAK256 PUSH0 DUP3 DUP3 SLOAD PUSH2 0x2691 SWAP2 SWAP1 PUSH2 0x838D JUMP JUMPDEST SWAP3 POP POP DUP2 SWAP1 SSTORE POP POP POP POP JUMP JUMPDEST PUSH1 0x45 PUSH1 0x20 MSTORE DUP1 PUSH0 MSTORE PUSH1 0x40 PUSH0 KECCAK256 PUSH0 SWAP2 POP SWAP1 POP SLOAD DUP2 JUMP JUMPDEST PUSH0 PUSH1 0x3 PUSH0 CALLER PUSH20 0xFFFFFFFFFFFFFFFFFFFFFFFFFFFFFFFFFFFFFFFF AND PUSH20 0xFFFFFFFFFFFFFFFFFFFFFFFFFFFFFFFFFFFFFFFF AND DUP2 MSTORE PUSH1 0x20 ADD SWAP1 DUP2 MSTORE PUSH1 0x20 ADD PUSH0 KECCAK256 PUSH1 0x5 ADD PUSH0 SWAP1 SLOAD SWAP1 PUSH2 0x100 EXP SWAP1 DIV PUSH1 0xFF AND PUSH2 0x273F JUMPI PUSH1 0x40 MLOAD PUSH32 0x8C379A000000000000000000000000000000000000000000000000000000000 DUP2 MSTORE PUSH1 0x4 ADD PUSH2 0x2736 SWAP1 PUSH2 0x8AF4 JUMP JUMPDEST PUSH1 0x40 MLOAD DUP1 SWAP2 SUB SWAP1 REVERT JUMPDEST PUSH0 DUP6 DUP6 SWAP1 POP GT PUSH2 0x2784 JUMPI PUSH1 0x40 MLOAD PUSH32 0x8C379A000000000000000000000000000000000000000000000000000000000 DUP2 MSTORE PUSH1 0x4 ADD PUSH2 0x277B SWAP1 PUSH2 0x8B5C JUMP JUMPDEST PUSH1 0x40 MLOAD DUP1 SWAP2 SUB SWAP1 REVERT JUMPDEST PUSH0 PUSH1 0x3C PUSH0 CALLER PUSH20 0xFFFFFFFFFFFFFFFFFFFFFFFFFFFFFFFFFFFFFFFF AND PUSH20 0xFFFFFFFFFFFFFFFFFFFFFFFFFFFFFFFFFFFFFFFF AND DUP2 MSTORE PUSH1 0x20 ADD SWAP1 DUP2 MSTORE PUSH1 0x20 ADD PUSH0 KECCAK256 SLOAD EQ PUSH2 0x2803 JUMPI PUSH1 0x40 MLOAD PUSH32 0x8C379A000000000000000000000000000000000000000000000000000000000 DUP2 MSTORE PUSH1 0x4 ADD PUSH2 0x27FA SWAP1 PUSH2 0x8BEA JUMP JUMPDEST PUSH1 0x40 MLOAD DUP1 SWAP2 SUB SWAP1 REVERT JUMPDEST PUSH0 PUSH1 0x4 DUP1 SLOAD SWAP1 POP SWAP1 POP DUP1 PUSH1 0x3C PUSH0 CALLER PUSH20 0xFFFFFFFFFFFFFFFFFFFFFFFFFFFFFFFFFFFFFFFF AND PUSH20 0xFFFFFFFFFFFFFFFFFFFFFFFFFFFFFFFFFFFFFFFF AND DUP2 MSTORE PUSH1 0x20 ADD SWAP1 DUP2 MSTORE PUSH1 0x20 ADD PUSH0 KECCAK256 DUP2 SWAP1 SSTORE POP PUSH1 0x4 PUSH1 0x1 DUP2 PUSH1 0x1 DUP2 SLOAD ADD DUP1 DUP3 SSTORE DUP1 SWAP2 POP POP SUB SWAP1 PUSH0 MSTORE PUSH1 0x20 PUSH0 KECCAK256 SWAP1 POP POP PUSH0 PUSH1 0x4 DUP3 DUP2 SLOAD DUP2 LT PUSH2 0x287F JUMPI PUSH2 0x287E PUSH2 0x7F20 JUMP JUMPDEST JUMPDEST SWAP1 PUSH0 MSTORE PUSH1 0x20 PUSH0 KECCAK256 SWAP1 PUSH1 0x7 MUL ADD SWAP1 POP CALLER DUP2 PUSH0 ADD PUSH0 PUSH2 0x100 EXP DUP2 SLOAD DUP2 PUSH20 0xFFFFFFFFFFFFFFFFFFFFFFFFFFFFFFFFFFFFFFFF MUL NOT AND SWAP1 DUP4 PUSH20 0xFFFFFFFFFFFFFFFFFFFFFFFFFFFFFFFFFFFFFFFF AND MUL OR SWAP1 SSTORE POP DUP7 DUP7 DUP3 PUSH1 0x1 ADD SWAP2 DUP3 PUSH2 0x28E1 SWAP3 SWAP2 SWAP1 PUSH2 0x8C12 JUMP JUMPDEST POP TIMESTAMP DUP2 PUSH1 0x2 ADD DUP2 SWAP1 SSTORE POP PUSH0 JUMPDEST DUP6 DUP6 SWAP1 POP DUP2 LT ISZERO PUSH2 0x2962 JUMPI DUP2 PUSH1 0x6 ADD DUP7 DUP7 DUP4 DUP2 DUP2 LT PUSH2 0x290F JUMPI PUSH2 0x290E PUSH2 0x7F20 JUMP JUMPDEST JUMPDEST SWAP1 POP PUSH1 0x20 MUL DUP2 ADD SWAP1 PUSH2 0x2921 SWAP2 SWAP1 PUSH2 0x8CEB JUMP JUMPDEST SWAP1 DUP1 PUSH1 0x1 DUP2 SLOAD ADD DUP1 DUP3 SSTORE DUP1 SWAP2 POP POP PUSH1 0x1 SWAP1 SUB SWAP1 PUSH0 MSTORE PUSH1 0x20 PUSH0 KECCAK256 SWAP1 PUSH1 0x3 MUL ADD PUSH0 SWAP1 SWAP2 SWAP1 SWAP2 SWAP1 SWAP2 POP DUP2 DUP2 PUSH2 0x2953 SWAP2 SWAP1 PUSH2 0x8F26 JUMP JUMPDEST POP POP DUP1 DUP1 PUSH1 0x1 ADD SWAP2 POP POP PUSH2 0x28ED JUMP JUMPDEST POP CALLER PUSH20 0xFFFFFFFFFFFFFFFFFFFFFFFFFFFFFFFFFFFFFFFF AND PUSH1 0x4 DUP1 SLOAD SWAP1 POP PUSH32 0x6FB266C3BFFBF56760B26BA85968FA3E28F3ED50CEA5C9704FB6E260DAB31F1C DUP10 DUP10 PUSH1 0x40 MLOAD PUSH2 0x29B1 SWAP3 SWAP2 SWAP1 PUSH2 0x8F60 JUMP JUMPDEST PUSH1 0x40 MLOAD DUP1 SWAP2 SUB SWAP1 LOG3 PUSH1 0x4 DUP1 SLOAD SWAP1 POP SWAP3 POP POP POP SWAP5 SWAP4 POP POP POP POP JUMP JUMPDEST PUSH2 0x3E8 DUP2 JUMP JUMPDEST PUSH0 PUSH2 0x29DA PUSH2 0x653A JUMP JUMPDEST PUSH0 PUSH1 0x42 SLOAD GT ISZERO PUSH2 0x29FB JUMPI PUSH1 0x42 SLOAD PUSH2 0x29F2 PUSH1 0x42 SLOAD PUSH2 0x5FF3 JUMP JUMPDEST SWAP2 POP SWAP2 POP PUSH2 0x2E28 JUMP JUMPDEST PUSH0 PUSH1 0x5 SLOAD GT DUP1 ISZERO PUSH2 0x2A0D JUMPI POP TIMESTAMP PUSH1 0x5 SLOAD LT JUMPDEST PUSH2 0x2A4C JUMPI PUSH1 0x40 MLOAD PUSH32 0x8C379A000000000000000000000000000000000000000000000000000000000 DUP2 MSTORE PUSH1 0x4 ADD PUSH2 0x2A43 SWAP1 PUSH2 0x8FCC JUMP JUMPDEST PUSH1 0x40 MLOAD DUP1 SWAP2 SUB SWAP1 REVERT JUMPDEST PUSH0 DUP1 PUSH0 SWAP1 POP PUSH0 JUMPDEST PUSH1 0x3E DUP1 SLOAD SWAP1 POP DUP2 LT ISZERO PUSH2 0x2AC2 JUMPI DUP2 PUSH1 0x3E DUP3 DUP2 SLOAD DUP2 LT PUSH2 0x2A75 JUMPI PUSH2 0x2A74 PUSH2 0x7F20 JUMP JUMPDEST JUMPDEST SWAP1 PUSH0 MSTORE PUSH1 0x20 PUSH0 KECCAK256 SWAP1 PUSH1 0x8 MUL ADD PUSH1 0x7 ADD SLOAD GT ISZERO PUSH2 0x2AB5 JUMPI PUSH1 0x3E DUP2 DUP2 SLOAD DUP2 LT PUSH2 0x2A9F JUMPI PUSH2 0x2A9E PUSH2 0x7F20 JUMP JUMPDEST JUMPDEST SWAP1 PUSH0 MSTORE PUSH1 0x20 PUSH0 KECCAK256 SWAP1 PUSH1 0x8 MUL ADD PUSH1 0x7 ADD SLOAD SWAP2 POP DUP1 SWAP3 POP JUMPDEST DUP1 DUP1 PUSH1 0x1 ADD SWAP2 POP POP PUSH2 0x2A53 JUMP JUMPDEST POP DUP2 PUSH1 0x42 DUP2 SWAP1 SSTORE POP PUSH0 PUSH1 0x3E DUP4 DUP2 SLOAD DUP2 LT PUSH2 0x2ADF JUMPI PUSH2 0x2ADE PUSH2 0x7F20 JUMP JUMPDEST JUMPDEST SWAP1 PUSH0 MSTORE PUSH1 0x20 PUSH0 KECCAK256 SWAP1 PUSH1 0x8 MUL ADD PUSH1 0x40 MLOAD DUP1 PUSH2 0x100 ADD PUSH1 0x40 MSTORE SWAP1 DUP2 PUSH0 DUP3 ADD DUP1 SLOAD PUSH2 0x2B06 SWAP1 PUSH2 0x7B54 JUMP JUMPDEST DUP1 PUSH1 0x1F ADD PUSH1 0x20 DUP1 SWAP2 DIV MUL PUSH1 0x20 ADD PUSH1 0x40 MLOAD SWAP1 DUP2 ADD PUSH1 0x40 MSTORE DUP1 SWAP3 SWAP2 SWAP1 DUP2 DUP2 MSTORE PUSH1 0x20 ADD DUP3 DUP1 SLOAD PUSH2 0x2B32 SWAP1 PUSH2 0x7B54 JUMP JUMPDEST DUP1 ISZERO PUSH2 0x2B7D JUMPI DUP1 PUSH1 0x1F LT PUSH2 0x2B54 JUMPI PUSH2 0x100 DUP1 DUP4 SLOAD DIV MUL DUP4 MSTORE SWAP2 PUSH1 0x20 ADD SWAP2 PUSH2 0x2B7D JUMP JUMPDEST DUP3 ADD SWAP2 SWAP1 PUSH0 MSTORE PUSH1 0x20 PUSH0 KECCAK256 SWAP1 JUMPDEST DUP2 SLOAD DUP2 MSTORE SWAP1 PUSH1 0x1 ADD SWAP1 PUSH1 0x20 ADD DUP1 DUP4 GT PUSH2 0x2B60 JUMPI DUP3 SWAP1 SUB PUSH1 0x1F AND DUP3 ADD SWAP2 JUMPDEST POP POP POP POP POP DUP2 MSTORE PUSH1 0x20 ADD PUSH1 0x1 DUP3 ADD DUP1 SLOAD PUSH2 0x2B96 SWAP1 PUSH2 0x7B54 JUMP JUMPDEST DUP1 PUSH1 0x1F ADD PUSH1 0x20 DUP1 SWAP2 DIV MUL PUSH1 0x20 ADD PUSH1 0x40 MLOAD SWAP1 DUP2 ADD PUSH1 0x40 MSTORE DUP1 SWAP3 SWAP2 SWAP1 DUP2 DUP2 MSTORE PUSH1 0x20 ADD DUP3 DUP1 SLOAD PUSH2 0x2BC2 SWAP1 PUSH2 0x7B54 JUMP JUMPDEST DUP1 ISZERO PUSH2 0x2C0D JUMPI DUP1 PUSH1 0x1F LT PUSH2 0x2BE4 JUMPI PUSH2 0x100 DUP1 DUP4 SLOAD DIV MUL DUP4 MSTORE SWAP2 PUSH1 0x20 ADD SWAP2 PUSH2 0x2C0D JUMP JUMPDEST DUP3 ADD SWAP2 SWAP1 PUSH0 MSTORE PUSH1 0x20 PUSH0 KECCAK256 SWAP1 JUMPDEST DUP2 SLOAD DUP2 MSTORE SWAP1 PUSH1 0x1 ADD SWAP1 PUSH1 0x20 ADD DUP1 DUP4 GT PUSH2 0x2BF0 JUMPI DUP3 SWAP1 SUB PUSH1 0x1F AND DUP3 ADD SWAP2 JUMPDEST POP POP POP POP POP DUP2 MSTORE PUSH1 0x20 ADD PUSH1 0x2 DUP3 ADD DUP1 SLOAD PUSH2 0x2C26 SWAP1 PUSH2 0x7B54 JUMP JUMPDEST DUP1 PUSH1 0x1F ADD PUSH1 0x20 DUP1 SWAP2 DIV MUL PUSH1 0x20 ADD PUSH1 0x40 MLOAD SWAP1 DUP2 ADD PUSH1 0x40 MSTORE DUP1 SWAP3 SWAP2 SWAP1 DUP2 DUP2 MSTORE PUSH1 0x20 ADD DUP3 DUP1 SLOAD PUSH2 0x2C52 SWAP1 PUSH2 0x7B54 JUMP JUMPDEST DUP1 ISZERO PUSH2 0x2C9D JUMPI DUP1 PUSH1 0x1F LT PUSH2 0x2C74 JUMPI PUSH2 0x100 DUP1 DUP4 SLOAD DIV MUL DUP4 MSTORE SWAP2 PUSH1 0x20 ADD SWAP2 PUSH2 0x2C9D JUMP JUMPDEST DUP3 ADD SWAP2 SWAP1 PUSH0 MSTORE PUSH1 0x20 PUSH0 KECCAK256 SWAP1 JUMPDEST DUP2 SLOAD DUP2 MSTORE SWAP1 PUSH1 0x1 ADD SWAP1 PUSH1 0x20 ADD DUP1 DUP4 GT PUSH2 0x2C80 JUMPI DUP3 SWAP1 SUB PUSH1 0x1F AND DUP3 ADD SWAP2 JUMPDEST POP POP POP POP POP DUP2 MSTORE PUSH1 0x20 ADD PUSH1 0x3 DUP3 ADD DUP1 SLOAD PUSH2 0x2CB6 SWAP1 PUSH2 0x7B54 JUMP JUMPDEST DUP1 PUSH1 0x1F ADD PUSH1 0x20 DUP1 SWAP2 DIV MUL PUSH1 0x20 ADD PUSH1 0x40 MLOAD SWAP1 DUP2 ADD PUSH1 0x40 MSTORE DUP1 SWAP3 SWAP2 SWAP1 DUP2 DUP2 MSTORE PUSH1 0x20 ADD DUP3 DUP1 SLOAD PUSH2 0x2CE2 SWAP1 PUSH2 0x7B54 JUMP JUMPDEST DUP1 ISZERO PUSH2 0x2D2D JUMPI DUP1 PUSH1 0x1F LT PUSH2 0x2D04 JUMPI PUSH2 0x100 DUP1 DUP4 SLOAD DIV MUL DUP4 MSTORE SWAP2 PUSH1 0x20 ADD SWAP2 PUSH2 0x2D2D JUMP JUMPDEST DUP3 ADD SWAP2 SWAP1 PUSH0 MSTORE PUSH1 0x20 PUSH0 KECCAK256 SWAP1 JUMPDEST DUP2 SLOAD DUP2 MSTORE SWAP1 PUSH1 0x1 ADD SWAP1 PUSH1 0x20 ADD DUP1 DUP4 GT PUSH2 0x2D10 JUMPI DUP3 SWAP1 SUB PUSH1 0x1F AND DUP3 ADD SWAP2 JUMPDEST POP POP POP POP POP DUP2 MSTORE PUSH1 0x20 ADD PUSH1 0x4 DUP3 ADD SLOAD DUP2 MSTORE PUSH1 0x20 ADD PUSH1 0x5 DUP3 ADD DUP1 SLOAD PUSH2 0x2D50 SWAP1 PUSH2 0x7B54 JUMP JUMPDEST DUP1 PUSH1 0x1F ADD PUSH1 0x20 DUP1 SWAP2 DIV MUL PUSH1 0x20 ADD PUSH1 0x40 MLOAD SWAP1 DUP2 ADD PUSH1 0x40 MSTORE DUP1 SWAP3 SWAP2 SWAP1 DUP2 DUP2 MSTORE PUSH1 0x20 ADD DUP3 DUP1 SLOAD PUSH2 0x2D7C SWAP1 PUSH2 0x7B54 JUMP JUMPDEST DUP1 ISZERO PUSH2 0x2DC7 JUMPI DUP1 PUSH1 0x1F LT PUSH2 0x2D9E JUMPI PUSH2 0x100 DUP1 DUP4 SLOAD DIV MUL DUP4 MSTORE SWAP2 PUSH1 0x20 ADD SWAP2 PUSH2 0x2DC7 JUMP JUMPDEST DUP3 ADD SWAP2 SWAP1 PUSH0 MSTORE PUSH1 0x20 PUSH0 KECCAK256 SWAP1 JUMPDEST DUP2 SLOAD DUP2 MSTORE SWAP1 PUSH1 0x1 ADD SWAP1 PUSH1 0x20 ADD DUP1 DUP4 GT PUSH2 0x2DAA JUMPI DUP3 SWAP1 SUB PUSH1 0x1F AND DUP3 ADD SWAP2 JUMPDEST POP POP POP POP POP DUP2 MSTORE PUSH1 0x20 ADD PUSH1 0x6 DUP3 ADD SLOAD DUP2 MSTORE PUSH1 0x20 ADD PUSH1 0x7 DUP3 ADD SLOAD DUP2 MSTORE POP POP SWAP1 POP DUP3 PUSH32 0x5716523A05C9D13997B5A619D69A47EBA3D34842FF0B403EED7CA3A75B05C708 DUP3 PUSH1 0x40 MLOAD PUSH2 0x2E16 SWAP2 SWAP1 PUSH2 0x7820 JUMP JUMPDEST PUSH1 0x40 MLOAD DUP1 SWAP2 SUB SWAP1 LOG2 DUP3 DUP2 SWAP5 POP SWAP5 POP POP POP POP JUMPDEST SWAP1 SWAP2 JUMP JUMPDEST PUSH3 0x127500 DUP2 JUMP JUMPDEST PUSH3 0x93A80 DUP2 JUMP JUMPDEST PUSH1 0x1 PUSH0 SWAP1 SLOAD SWAP1 PUSH2 0x100 EXP SWAP1 DIV PUSH20 0xFFFFFFFFFFFFFFFFFFFFFFFFFFFFFFFFFFFFFFFF AND DUP2 JUMP JUMPDEST PUSH7 0x38D7EA4C68000 DUP2 JUMP JUMPDEST PUSH3 0x5C4900 DUP2 JUMP JUMPDEST PUSH1 0x48 PUSH1 0x20 MSTORE DUP2 PUSH0 MSTORE PUSH1 0x40 PUSH0 KECCAK256 DUP2 DUP2 SLOAD DUP2 LT PUSH2 0x2E8A JUMPI PUSH0 DUP1 REVERT JUMPDEST SWAP1 PUSH0 MSTORE PUSH1 0x20 PUSH0 KECCAK256 SWAP1 PUSH1 0x2 MUL ADD PUSH0 SWAP2 POP SWAP2 POP POP DUP1 PUSH0 ADD SLOAD SWAP1 DUP1 PUSH1 0x1 ADD SLOAD SWAP1 POP DUP3 JUMP JUMPDEST PUSH1 0xA DUP2 JUMP JUMPDEST PUSH0 SELFBALANCE SWAP1 POP SWAP1 JUMP JUMPDEST PUSH2 0x2EBF PUSH2 0x657F JUMP JUMPDEST PUSH1 0x2 DUP1 SLOAD SWAP1 POP DUP3 LT PUSH2 0x2F06 JUMPI PUSH1 0x40 MLOAD PUSH32 0x8C379A000000000000000000000000000000000000000000000000000000000 DUP2 MSTORE PUSH1 0x4 ADD PUSH2 0x2EFD SWAP1 PUSH2 0x9034 JUMP JUMPDEST PUSH1 0x40 MLOAD DUP1 SWAP2 SUB SWAP1 REVERT JUMPDEST PUSH1 0x3 PUSH0 PUSH1 0x2 DUP5 DUP2 SLOAD DUP2 LT PUSH2 0x2F1D JUMPI PUSH2 0x2F1C PUSH2 0x7F20 JUMP JUMPDEST JUMPDEST SWAP1 PUSH0 MSTORE PUSH1 0x20 PUSH0 KECCAK256 ADD PUSH0 SWAP1 SLOAD SWAP1 PUSH2 0x100 EXP SWAP1 DIV PUSH20 0xFFFFFFFFFFFFFFFFFFFFFFFFFFFFFFFFFFFFFFFF AND PUSH20 0xFFFFFFFFFFFFFFFFFFFFFFFFFFFFFFFFFFFFFFFF AND PUSH20 0xFFFFFFFFFFFFFFFFFFFFFFFFFFFFFFFFFFFFFFFF AND DUP2 MSTORE PUSH1 0x20 ADD SWAP1 DUP2 MSTORE PUSH1 0x20 ADD PUSH0 KECCAK256 PUSH1 0x40 MLOAD DUP1 PUSH1 0xE0 ADD PUSH1 0x40 MSTORE SWAP1 DUP2 PUSH0 DUP3 ADD DUP1 SLOAD PUSH2 0x2F98 SWAP1 PUSH2 0x7B54 JUMP JUMPDEST DUP1 PUSH1 0x1F ADD PUSH1 0x20 DUP1 SWAP2 DIV MUL PUSH1 0x20 ADD PUSH1 0x40 MLOAD SWAP1 DUP2 ADD PUSH1 0x40 MSTORE DUP1 SWAP3 SWAP2 SWAP1 DUP2 DUP2 MSTORE PUSH1 0x20 ADD DUP3 DUP1 SLOAD PUSH2 0x2FC4 SWAP1 PUSH2 0x7B54 JUMP JUMPDEST DUP1 ISZERO PUSH2 0x300F JUMPI DUP1 PUSH1 0x1F LT PUSH2 0x2FE6 JUMPI PUSH2 0x100 DUP1 DUP4 SLOAD DIV MUL DUP4 MSTORE SWAP2 PUSH1 0x20 ADD SWAP2 PUSH2 0x300F JUMP JUMPDEST DUP3 ADD SWAP2 SWAP1 PUSH0 MSTORE PUSH1 0x20 PUSH0 KECCAK256 SWAP1 JUMPDEST DUP2 SLOAD DUP2 MSTORE SWAP1 PUSH1 0x1 ADD SWAP1 PUSH1 0x20 ADD DUP1 DUP4 GT PUSH2 0x2FF2 JUMPI DUP3 SWAP1 SUB PUSH1 0x1F AND DUP3 ADD SWAP2 JUMPDEST POP POP POP POP POP DUP2 MSTORE PUSH1 0x20 ADD PUSH1 0x1 DUP3 ADD DUP1 SLOAD PUSH2 0x3028 SWAP1 PUSH2 0x7B54 JUMP JUMPDEST DUP1 PUSH1 0x1F ADD PUSH1 0x20 DUP1 SWAP2 DIV MUL PUSH1 0x20 ADD PUSH1 0x40 MLOAD SWAP1 DUP2 ADD PUSH1 0x40 MSTORE DUP1 SWAP3 SWAP2 SWAP1 DUP2 DUP2 MSTORE PUSH1 0x20 ADD DUP3 DUP1 SLOAD PUSH2 0x3054 SWAP1 PUSH2 0x7B54 JUMP JUMPDEST DUP1 ISZERO PUSH2 0x309F JUMPI DUP1 PUSH1 0x1F LT PUSH2 0x3076 JUMPI PUSH2 0x100 DUP1 DUP4 SLOAD DIV MUL DUP4 MSTORE SWAP2 PUSH1 0x20 ADD SWAP2 PUSH2 0x309F JUMP JUMPDEST DUP3 ADD SWAP2 SWAP1 PUSH0 MSTORE PUSH1 0x20 PUSH0 KECCAK256 SWAP1 JUMPDEST DUP2 SLOAD DUP2 MSTORE SWAP1 PUSH1 0x1 ADD SWAP1 PUSH1 0x20 ADD DUP1 DUP4 GT PUSH2 0x3082 JUMPI DUP3 SWAP1 SUB PUSH1 0x1F AND DUP3 ADD SWAP2 JUMPDEST POP POP POP POP POP DUP2 MSTORE PUSH1 0x20 ADD PUSH1 0x2 DUP3 ADD DUP1 SLOAD PUSH2 0x30B8 SWAP1 PUSH2 0x7B54 JUMP JUMPDEST DUP1 PUSH1 0x1F ADD PUSH1 0x20 DUP1 SWAP2 DIV MUL PUSH1 0x20 ADD PUSH1 0x40 MLOAD SWAP1 DUP2 ADD PUSH1 0x40 MSTORE DUP1 SWAP3 SWAP2 SWAP1 DUP2 DUP2 MSTORE PUSH1 0x20 ADD DUP3 DUP1 SLOAD PUSH2 0x30E4 SWAP1 PUSH2 0x7B54 JUMP JUMPDEST DUP1 ISZERO PUSH2 0x312F JUMPI DUP1 PUSH1 0x1F LT PUSH2 0x3106 JUMPI PUSH2 0x100 DUP1 DUP4 SLOAD DIV MUL DUP4 MSTORE SWAP2 PUSH1 0x20 ADD SWAP2 PUSH2 0x312F JUMP JUMPDEST DUP3 ADD SWAP2 SWAP1 PUSH0 MSTORE PUSH1 0x20 PUSH0 KECCAK256 SWAP1 JUMPDEST DUP2 SLOAD DUP2 MSTORE SWAP1 PUSH1 0x1 ADD SWAP1 PUSH1 0x20 ADD DUP1 DUP4 GT PUSH2 0x3112 JUMPI DUP3 SWAP1 SUB PUSH1 0x1F AND DUP3 ADD SWAP2 JUMPDEST POP POP POP POP POP DUP2 MSTORE PUSH1 0x20 ADD PUSH1 0x3 DUP3 ADD SLOAD DUP2 MSTORE PUSH1 0x20 ADD PUSH1 0x4 DUP3 ADD SLOAD DUP2 MSTORE PUSH1 0x20 ADD PUSH1 0x5 DUP3 ADD PUSH0 SWAP1 SLOAD SWAP1 PUSH2 0x100 EXP SWAP1 DIV PUSH1 0xFF AND ISZERO ISZERO ISZERO ISZERO DUP2 MSTORE PUSH1 0x20 ADD PUSH1 0x6 DUP3 ADD SLOAD DUP2 MSTORE POP POP SWAP1 POP SWAP2 SWAP1 POP JUMP JUMPDEST PUSH0 PUSH1 0x40 PUSH0 DUP4 PUSH20 0xFFFFFFFFFFFFFFFFFFFFFFFFFFFFFFFFFFFFFFFF AND PUSH20 0xFFFFFFFFFFFFFFFFFFFFFFFFFFFFFFFFFFFFFFFF AND DUP2 MSTORE PUSH1 0x20 ADD SWAP1 DUP2 MSTORE PUSH1 0x20 ADD PUSH0 KECCAK256 SLOAD SWAP1 POP SWAP2 SWAP1 POP JUMP JUMPDEST PUSH32 0x0 DUP2 JUMP JUMPDEST PUSH7 0x38D7EA4C68000 DUP2 JUMP JUMPDEST PUSH1 0x3A PUSH1 0x1 SWAP1 SLOAD SWAP1 PUSH2 0x100 EXP SWAP1 DIV PUSH20 0xFFFFFFFFFFFFFFFFFFFFFFFFFFFFFFFFFFFFFFFF AND DUP2 JUMP JUMPDEST PUSH0 PUSH1 0x4 DUP1 SLOAD SWAP1 POP DUP4 LT PUSH2 0x325A JUMPI PUSH1 0x40 MLOAD PUSH32 0x8C379A000000000000000000000000000000000000000000000000000000000 DUP2 MSTORE PUSH1 0x4 ADD PUSH2 0x3251 SWAP1 PUSH2 0x7F02 JUMP JUMPDEST PUSH1 0x40 MLOAD DUP1 SWAP2 SUB SWAP1 REVERT JUMPDEST PUSH1 0x3 PUSH0 DUP4 PUSH20 0xFFFFFFFFFFFFFFFFFFFFFFFFFFFFFFFFFFFFFFFF AND PUSH20 0xFFFFFFFFFFFFFFFFFFFFFFFFFFFFFFFFFFFFFFFF AND DUP2 MSTORE PUSH1 0x20 ADD SWAP1 DUP2 MSTORE PUSH1 0x20 ADD PUSH0 KECCAK256 PUSH1 0x5 ADD PUSH0 SWAP1 SLOAD SWAP1 PUSH2 0x100 EXP SWAP1 DIV PUSH1 0xFF AND PUSH2 0x32E6 JUMPI PUSH1 0x40 MLOAD PUSH32 0x8C379A000000000000000000000000000000000000000000000000000000000 DUP2 MSTORE PUSH1 0x4 ADD PUSH2 0x32DD SWAP1 PUSH2 0x909C JUMP JUMPDEST PUSH1 0x40 MLOAD DUP1 SWAP2 SUB SWAP1 REVERT JUMPDEST PUSH1 0x3D PUSH0 DUP4 PUSH20 0xFFFFFFFFFFFFFFFFFFFFFFFFFFFFFFFFFFFFFFFF AND PUSH20 0xFFFFFFFFFFFFFFFFFFFFFFFFFFFFFFFFFFFFFFFF AND DUP2 MSTORE PUSH1 0x20 ADD SWAP1 DUP2 MSTORE PUSH1 0x20 ADD PUSH0 KECCAK256 PUSH0 DUP5 DUP2 MSTORE PUSH1 0x20 ADD SWAP1 DUP2 MSTORE PUSH1 0x20 ADD PUSH0 KECCAK256 SLOAD SWAP1 POP SWAP3 SWAP2 POP POP JUMP JUMPDEST PUSH0 PUSH1 0x6 PUSH0 DUP4 DUP2 MSTORE PUSH1 0x20 ADD SWAP1 DUP2 MSTORE PUSH1 0x20 ADD PUSH0 KECCAK256 PUSH0 SWAP1 SLOAD SWAP1 PUSH2 0x100 EXP SWAP1 DIV PUSH1 0xFF AND SWAP1 POP SWAP2 SWAP1 POP JUMP JUMPDEST PUSH1 0xA DUP2 JUMP JUMPDEST PUSH1 0xA DUP2 JUMP JUMPDEST PUSH1 0xAE PUSH0 SWAP1 SLOAD SWAP1 PUSH2 0x100 EXP SWAP1 DIV PUSH1 0xFF AND DUP2 JUMP JUMPDEST PUSH0 PUSH1 0x40 MLOAD DUP1 PUSH1 0x40 ADD PUSH1 0x40 MSTORE DUP1 CALLVALUE DUP2 MSTORE PUSH1 0x20 ADD TIMESTAMP DUP2 MSTORE POP SWAP1 POP PUSH1 0x48 PUSH0 CALLER PUSH20 0xFFFFFFFFFFFFFFFFFFFFFFFFFFFFFFFFFFFFFFFF AND PUSH20 0xFFFFFFFFFFFFFFFFFFFFFFFFFFFFFFFFFFFFFFFF AND DUP2 MSTORE PUSH1 0x20 ADD SWAP1 DUP2 MSTORE PUSH1 0x20 ADD PUSH0 KECCAK256 DUP2 SWAP1 DUP1 PUSH1 0x1 DUP2 SLOAD ADD DUP1 DUP3 SSTORE DUP1 SWAP2 POP POP PUSH1 0x1 SWAP1 SUB SWAP1 PUSH0 MSTORE PUSH1 0x20 PUSH0 KECCAK256 SWAP1 PUSH1 0x2 MUL ADD PUSH0 SWAP1 SWAP2 SWAP1 SWAP2 SWAP1 SWAP2 POP PUSH0 DUP3 ADD MLOAD DUP2 PUSH0 ADD SSTORE PUSH1 0x20 DUP3 ADD MLOAD DUP2 PUSH1 0x1 ADD SSTORE POP POP CALLER PUSH20 0xFFFFFFFFFFFFFFFFFFFFFFFFFFFFFFFFFFFFFFFF AND PUSH32 0x976BE468429698A1B0AE0C20A0329BDB6E24722A3F834A2C54B84D63C1722F32 CALLVALUE PUSH1 0x40 MLOAD PUSH2 0x3453 SWAP2 SWAP1 PUSH2 0x6D69 JUMP JUMPDEST PUSH1 0x40 MLOAD DUP1 SWAP2 SUB SWAP1 LOG2 POP JUMP JUMPDEST PUSH1 0xA PUSH1 0x44 PUSH0 CALLER PUSH20 0xFFFFFFFFFFFFFFFFFFFFFFFFFFFFFFFFFFFFFFFF AND PUSH20 0xFFFFFFFFFFFFFFFFFFFFFFFFFFFFFFFFFFFFFFFF AND DUP2 MSTORE PUSH1 0x20 ADD SWAP1 DUP2 MSTORE PUSH1 0x20 ADD PUSH0 KECCAK256 SLOAD SLT ISZERO PUSH2 0x34DF JUMPI PUSH1 0x40 MLOAD PUSH32 0x8C379A000000000000000000000000000000000000000000000000000000000 DUP2 MSTORE PUSH1 0x4 ADD PUSH2 0x34D6 SWAP1 PUSH2 0x9104 JUMP JUMPDEST PUSH1 0x40 MLOAD DUP1 SWAP2 SUB SWAP1 REVERT JUMPDEST PUSH1 0x2 PUSH1 0x4 DUP2 GT ISZERO PUSH2 0x34F3 JUMPI PUSH2 0x34F2 PUSH2 0x732D JUMP JUMPDEST JUMPDEST PUSH2 0x34FB PUSH2 0x3BE2 JUMP JUMPDEST PUSH1 0x4 DUP2 GT ISZERO PUSH2 0x350D JUMPI PUSH2 0x350C PUSH2 0x732D JUMP JUMPDEST JUMPDEST EQ PUSH2 0x354D JUMPI PUSH1 0x40 MLOAD PUSH32 0x8C379A000000000000000000000000000000000000000000000000000000000 DUP2 MSTORE PUSH1 0x4 ADD PUSH2 0x3544 SWAP1 PUSH2 0x788A JUMP JUMPDEST PUSH1 0x40 MLOAD DUP1 SWAP2 SUB SWAP1 REVERT JUMPDEST PUSH1 0xA PUSH4 0xFFFFFFFF AND PUSH1 0xA EQ DUP1 ISZERO PUSH2 0x356B JUMPI POP PUSH1 0xA PUSH4 0xFFFFFFFF AND PUSH1 0xA EQ JUMPDEST PUSH2 0x35AA JUMPI PUSH1 0x40 MLOAD PUSH32 0x8C379A000000000000000000000000000000000000000000000000000000000 DUP2 MSTORE PUSH1 0x4 ADD PUSH2 0x35A1 SWAP1 PUSH2 0x85AC JUMP JUMPDEST PUSH1 0x40 MLOAD DUP1 SWAP2 SUB SWAP1 REVERT JUMPDEST PUSH0 JUMPDEST PUSH1 0xA PUSH4 0xFFFFFFFF AND DUP2 PUSH1 0xFF AND LT ISZERO PUSH2 0x3831 JUMPI PUSH0 PUSH20 0xFFFFFFFFFFFFFFFFFFFFFFFFFFFFFFFFFFFFFFFF AND PUSH1 0x3F PUSH0 DUP6 DUP5 PUSH1 0xFF AND PUSH1 0xA DUP2 LT PUSH2 0x35EE JUMPI PUSH2 0x35ED PUSH2 0x7F20 JUMP JUMPDEST JUMPDEST PUSH1 0x20 MUL ADD CALLDATALOAD DUP2 MSTORE PUSH1 0x20 ADD SWAP1 DUP2 MSTORE PUSH1 0x20 ADD PUSH0 KECCAK256 PUSH0 PUSH1 0x2 DUP2 LT PUSH2 0x3612 JUMPI PUSH2 0x3611 PUSH2 0x7F20 JUMP JUMPDEST JUMPDEST ADD PUSH0 SWAP1 SLOAD SWAP1 PUSH2 0x100 EXP SWAP1 DIV PUSH20 0xFFFFFFFFFFFFFFFFFFFFFFFFFFFFFFFFFFFFFFFF AND PUSH20 0xFFFFFFFFFFFFFFFFFFFFFFFFFFFFFFFFFFFFFFFF AND SUB PUSH2 0x36CF JUMPI CALLER PUSH1 0x3F PUSH0 DUP6 DUP5 PUSH1 0xFF AND PUSH1 0xA DUP2 LT PUSH2 0x3668 JUMPI PUSH2 0x3667 PUSH2 0x7F20 JUMP JUMPDEST JUMPDEST PUSH1 0x20 MUL ADD CALLDATALOAD DUP2 MSTORE PUSH1 0x20 ADD SWAP1 DUP2 MSTORE PUSH1 0x20 ADD PUSH0 KECCAK256 PUSH0 PUSH1 0x2 DUP2 LT PUSH2 0x368C JUMPI PUSH2 0x368B PUSH2 0x7F20 JUMP JUMPDEST JUMPDEST ADD PUSH0 PUSH2 0x100 EXP DUP2 SLOAD DUP2 PUSH20 0xFFFFFFFFFFFFFFFFFFFFFFFFFFFFFFFFFFFFFFFF MUL NOT AND SWAP1 DUP4 PUSH20 0xFFFFFFFFFFFFFFFFFFFFFFFFFFFFFFFFFFFFFFFF AND MUL OR SWAP1 SSTORE POP PUSH2 0x381E JUMP JUMPDEST PUSH0 PUSH20 0xFFFFFFFFFFFFFFFFFFFFFFFFFFFFFFFFFFFFFFFF AND PUSH1 0x3F PUSH0 DUP6 DUP5 PUSH1 0xFF AND PUSH1 0xA DUP2 LT PUSH2 0x36FF JUMPI PUSH2 0x36FE PUSH2 0x7F20 JUMP JUMPDEST JUMPDEST PUSH1 0x20 MUL ADD CALLDATALOAD DUP2 MSTORE PUSH1 0x20 ADD SWAP1 DUP2 MSTORE PUSH1 0x20 ADD PUSH0 KECCAK256 PUSH1 0x1 PUSH1 0x2 DUP2 LT PUSH2 0x3724 JUMPI PUSH2 0x3723 PUSH2 0x7F20 JUMP JUMPDEST JUMPDEST ADD PUSH0 SWAP1 SLOAD SWAP1 PUSH2 0x100 EXP SWAP1 DIV PUSH20 0xFFFFFFFFFFFFFFFFFFFFFFFFFFFFFFFFFFFFFFFF AND PUSH20 0xFFFFFFFFFFFFFFFFFFFFFFFFFFFFFFFFFFFFFFFF AND SUB PUSH2 0x37E2 JUMPI CALLER PUSH1 0x3F PUSH0 DUP6 DUP5 PUSH1 0xFF AND PUSH1 0xA DUP2 LT PUSH2 0x377A JUMPI PUSH2 0x3779 PUSH2 0x7F20 JUMP JUMPDEST JUMPDEST PUSH1 0x20 MUL ADD CALLDATALOAD DUP2 MSTORE PUSH1 0x20 ADD SWAP1 DUP2 MSTORE PUSH1 0x20 ADD PUSH0 KECCAK256 PUSH1 0x1 PUSH1 0x2 DUP2 LT PUSH2 0x379F JUMPI PUSH2 0x379E PUSH2 0x7F20 JUMP JUMPDEST JUMPDEST ADD PUSH0 PUSH2 0x100 EXP DUP2 SLOAD DUP2 PUSH20 0xFFFFFFFFFFFFFFFFFFFFFFFFFFFFFFFFFFFFFFFF MUL NOT AND SWAP1 DUP4 PUSH20 0xFFFFFFFFFFFFFFFFFFFFFFFFFFFFFFFFFFFFFFFF AND MUL OR SWAP1 SSTORE POP PUSH2 0x381D JUMP JUMPDEST PUSH1 0x40 MLOAD PUSH32 0x8C379A000000000000000000000000000000000000000000000000000000000 DUP2 MSTORE PUSH1 0x4 ADD PUSH2 0x3814 SWAP1 PUSH2 0x916C JUMP JUMPDEST PUSH1 0x40 MLOAD DUP1 SWAP2 SUB SWAP1 REVERT JUMPDEST JUMPDEST DUP1 DUP1 PUSH2 0x3829 SWAP1 PUSH2 0x801D JUMP JUMPDEST SWAP2 POP POP PUSH2 0x35AC JUMP JUMPDEST POP PUSH0 JUMPDEST PUSH1 0xA PUSH4 0xFFFFFFFF AND DUP2 PUSH1 0xFF AND LT ISZERO PUSH2 0x3A11 JUMPI PUSH0 PUSH20 0xFFFFFFFFFFFFFFFFFFFFFFFFFFFFFFFFFFFFFFFF AND DUP3 DUP3 PUSH1 0xFF AND PUSH1 0xA DUP2 LT PUSH2 0x3873 JUMPI PUSH2 0x3872 PUSH2 0x7F20 JUMP JUMPDEST JUMPDEST PUSH1 0x20 MUL ADD PUSH1 0x20 DUP2 ADD SWAP1 PUSH2 0x3886 SWAP2 SWAP1 PUSH2 0x6EC7 JUMP JUMPDEST PUSH20 0xFFFFFFFFFFFFFFFFFFFFFFFFFFFFFFFFFFFFFFFF AND SUB PUSH2 0x38DC JUMPI PUSH1 0x40 MLOAD PUSH32 0x8C379A000000000000000000000000000000000000000000000000000000000 DUP2 MSTORE PUSH1 0x4 ADD PUSH2 0x38D3 SWAP1 PUSH2 0x867C JUMP JUMPDEST PUSH1 0x40 MLOAD DUP1 SWAP2 SUB SWAP1 REVERT JUMPDEST PUSH1 0x2 PUSH1 0x40 PUSH0 DUP5 DUP5 PUSH1 0xFF AND PUSH1 0xA DUP2 LT PUSH2 0x38F7 JUMPI PUSH2 0x38F6 PUSH2 0x7F20 JUMP JUMPDEST JUMPDEST PUSH1 0x20 MUL ADD PUSH1 0x20 DUP2 ADD SWAP1 PUSH2 0x390A SWAP2 SWAP1 PUSH2 0x6EC7 JUMP JUMPDEST PUSH20 0xFFFFFFFFFFFFFFFFFFFFFFFFFFFFFFFFFFFFFFFF AND PUSH20 0xFFFFFFFFFFFFFFFFFFFFFFFFFFFFFFFFFFFFFFFF AND DUP2 MSTORE PUSH1 0x20 ADD SWAP1 DUP2 MSTORE PUSH1 0x20 ADD PUSH0 KECCAK256 SLOAD LT PUSH2 0x3984 JUMPI PUSH1 0x40 MLOAD PUSH32 0x8C379A000000000000000000000000000000000000000000000000000000000 DUP2 MSTORE PUSH1 0x4 ADD PUSH2 0x397B SWAP1 PUSH2 0x870A JUMP JUMPDEST PUSH1 0x40 MLOAD DUP1 SWAP2 SUB SWAP1 REVERT JUMPDEST PUSH1 0x40 PUSH0 DUP4 DUP4 PUSH1 0xFF AND PUSH1 0xA DUP2 LT PUSH2 0x399D JUMPI PUSH2 0x399C PUSH2 0x7F20 JUMP JUMPDEST JUMPDEST PUSH1 0x20 MUL ADD PUSH1 0x20 DUP2 ADD SWAP1 PUSH2 0x39B0 SWAP2 SWAP1 PUSH2 0x6EC7 JUMP JUMPDEST PUSH20 0xFFFFFFFFFFFFFFFFFFFFFFFFFFFFFFFFFFFFFFFF AND PUSH20 0xFFFFFFFFFFFFFFFFFFFFFFFFFFFFFFFFFFFFFFFF AND DUP2 MSTORE PUSH1 0x20 ADD SWAP1 DUP2 MSTORE PUSH1 0x20 ADD PUSH0 KECCAK256 PUSH0 DUP2 SLOAD DUP1 SWAP3 SWAP2 SWAP1 PUSH2 0x39F9 SWAP1 PUSH2 0x89BE JUMP JUMPDEST SWAP2 SWAP1 POP SSTORE POP DUP1 DUP1 PUSH2 0x3A09 SWAP1 PUSH2 0x801D JUMP JUMPDEST SWAP2 POP POP PUSH2 0x3834 JUMP JUMPDEST POP PUSH1 0xA PUSH1 0x41 PUSH0 DUP3 DUP3 DUP3 SWAP1 SLOAD SWAP1 PUSH2 0x100 EXP SWAP1 DIV PUSH4 0xFFFFFFFF AND PUSH2 0x3A33 SWAP2 SWAP1 PUSH2 0x8728 JUMP JUMPDEST SWAP3 POP PUSH2 0x100 EXP DUP2 SLOAD DUP2 PUSH4 0xFFFFFFFF MUL NOT AND SWAP1 DUP4 PUSH4 0xFFFFFFFF AND MUL OR SWAP1 SSTORE POP DUP1 PUSH1 0x40 MLOAD PUSH2 0x3A5F SWAP2 SWAP1 PUSH2 0x8822 JUMP JUMPDEST PUSH1 0x40 MLOAD DUP1 SWAP2 SUB SWAP1 KECCAK256 PUSH32 0x2BA0AAA9C0E5919BF5CB9FDE7B2825194F9DC6E9AB2A9174C59892A1585C446A CALLER PUSH1 0x41 PUSH0 SWAP1 SLOAD SWAP1 PUSH2 0x100 EXP SWAP1 DIV PUSH4 0xFFFFFFFF AND PUSH1 0x40 MLOAD PUSH2 0x3AA9 SWAP3 SWAP2 SWAP1 PUSH2 0x918A JUMP JUMPDEST PUSH1 0x40 MLOAD DUP1 SWAP2 SUB SWAP1 LOG2 POP POP JUMP JUMPDEST PUSH1 0x44 PUSH1 0x20 MSTORE DUP1 PUSH0 MSTORE PUSH1 0x40 PUSH0 KECCAK256 PUSH0 SWAP2 POP SWAP1 POP SLOAD DUP2 JUMP JUMPDEST PUSH0 PUSH1 0x3 PUSH0 DUP4 PUSH20 0xFFFFFFFFFFFFFFFFFFFFFFFFFFFFFFFFFFFFFFFF AND PUSH20 0xFFFFFFFFFFFFFFFFFFFFFFFFFFFFFFFFFFFFFFFF AND DUP2 MSTORE PUSH1 0x20 ADD SWAP1 DUP2 MSTORE PUSH1 0x20 ADD PUSH0 KECCAK256 PUSH1 0x5 ADD PUSH0 SWAP1 SLOAD SWAP1 PUSH2 0x100 EXP SWAP1 DIV PUSH1 0xFF AND PUSH2 0x3B57 JUMPI PUSH1 0x40 MLOAD PUSH32 0x8C379A000000000000000000000000000000000000000000000000000000000 DUP2 MSTORE PUSH1 0x4 ADD PUSH2 0x3B4E SWAP1 PUSH2 0x909C JUMP JUMPDEST PUSH1 0x40 MLOAD DUP1 SWAP2 SUB SWAP1 REVERT JUMPDEST PUSH1 0x3C PUSH0 DUP4 PUSH20 0xFFFFFFFFFFFFFFFFFFFFFFFFFFFFFFFFFFFFFFFF AND PUSH20 0xFFFFFFFFFFFFFFFFFFFFFFFFFFFFFFFFFFFFFFFF AND DUP2 MSTORE PUSH1 0x20 ADD SWAP1 DUP2 MSTORE PUSH1 0x20 ADD PUSH0 KECCAK256 SLOAD SWAP1 POP SWAP2 SWAP1 POP JUMP JUMPDEST PUSH1 0x49 DUP2 PUSH1 0x32 DUP2 LT PUSH2 0x3BAB JUMPI PUSH0 DUP1 REVERT JUMPDEST PUSH1 0x2 MUL ADD PUSH0 SWAP2 POP SWAP1 POP DUP1 PUSH0 ADD PUSH0 SWAP1 SLOAD SWAP1 PUSH2 0x100 EXP SWAP1 DIV PUSH20 0xFFFFFFFFFFFFFFFFFFFFFFFFFFFFFFFFFFFFFFFF AND SWAP1 DUP1 PUSH1 0x1 ADD SLOAD SWAP1 POP DUP3 JUMP JUMPDEST PUSH0 PUSH3 0x15180 PUSH0 SLOAD PUSH2 0x3BF3 SWAP2 SWAP1 PUSH2 0x7E1D JUMP JUMPDEST TIMESTAMP LT ISZERO PUSH2 0x3C02 JUMPI PUSH0 SWAP1 POP PUSH2 0x3CA2 JUMP JUMPDEST PUSH0 SLOAD TIMESTAMP LT ISZERO PUSH2 0x3C78 JUMPI PUSH1 0x32 PUSH1 0x2 PUSH2 0x3C19 SWAP2 SWAP1 PUSH2 0x91B1 JUMP JUMPDEST PUSH1 0xFF AND PUSH1 0x2 DUP1 SLOAD SWAP1 POP LT DUP1 PUSH2 0x3C4D JUMPI POP PUSH2 0x3E8 PUSH4 0xFFFFFFFF AND PUSH1 0x1 PUSH1 0x14 SWAP1 SLOAD SWAP1 PUSH2 0x100 EXP SWAP1 DIV PUSH4 0xFFFFFFFF AND PUSH4 0xFFFFFFFF AND LT JUMPDEST ISZERO PUSH2 0x3C6F JUMPI PUSH3 0x127500 PUSH0 SLOAD PUSH2 0x3C62 SWAP2 SWAP1 PUSH2 0x91ED JUMP JUMPDEST PUSH0 DUP2 SWAP1 SSTORE POP PUSH0 SWAP1 POP PUSH2 0x3CA2 JUMP JUMPDEST PUSH1 0x1 SWAP1 POP PUSH2 0x3CA2 JUMP JUMPDEST PUSH0 PUSH1 0x5 SLOAD SUB PUSH2 0x3C8A JUMPI PUSH1 0x2 SWAP1 POP PUSH2 0x3CA2 JUMP JUMPDEST PUSH1 0x5 SLOAD TIMESTAMP LT ISZERO PUSH2 0x3C9D JUMPI PUSH1 0x3 SWAP1 POP PUSH2 0x3CA2 JUMP JUMPDEST PUSH1 0x4 SWAP1 POP JUMPDEST SWAP1 JUMP JUMPDEST PUSH3 0x93A80 PUSH1 0x3 PUSH0 PUSH1 0x3A PUSH1 0x1 SWAP1 SLOAD SWAP1 PUSH2 0x100 EXP SWAP1 DIV PUSH20 0xFFFFFFFFFFFFFFFFFFFFFFFFFFFFFFFFFFFFFFFF AND PUSH20 0xFFFFFFFFFFFFFFFFFFFFFFFFFFFFFFFFFFFFFFFF AND PUSH20 0xFFFFFFFFFFFFFFFFFFFFFFFFFFFFFFFFFFFFFFFF AND DUP2 MSTORE PUSH1 0x20 ADD SWAP1 DUP2 MSTORE PUSH1 0x20 ADD PUSH0 KECCAK256 PUSH1 0x6 ADD SLOAD PUSH2 0x3D16 SWAP2 SWAP1 PUSH2 0x91ED JUMP JUMPDEST TIMESTAMP LT ISZERO PUSH2 0x3D58 JUMPI PUSH1 0x40 MLOAD PUSH32 0x8C379A000000000000000000000000000000000000000000000000000000000 DUP2 MSTORE PUSH1 0x4 ADD PUSH2 0x3D4F SWAP1 PUSH2 0x9290 JUMP JUMPDEST PUSH1 0x40 MLOAD DUP1 SWAP2 SUB SWAP1 REVERT JUMPDEST PUSH1 0x3B PUSH0 DUP2 SLOAD DUP1 SWAP3 SWAP2 SWAP1 PUSH2 0x3D6A SWAP1 PUSH2 0x89BE JUMP JUMPDEST SWAP2 SWAP1 POP SSTORE POP PUSH1 0x32 PUSH1 0x3B SLOAD LT PUSH2 0x3D81 JUMPI PUSH0 PUSH1 0x3B DUP2 SWAP1 SSTORE POP JUMPDEST PUSH1 0x8 PUSH1 0x3B SLOAD PUSH1 0x32 DUP2 LT PUSH2 0x3D97 JUMPI PUSH2 0x3D96 PUSH2 0x7F20 JUMP JUMPDEST JUMPDEST ADD PUSH0 SWAP1 SLOAD SWAP1 PUSH2 0x100 EXP SWAP1 DIV PUSH20 0xFFFFFFFFFFFFFFFFFFFFFFFFFFFFFFFFFFFFFFFF AND PUSH1 0x3A PUSH1 0x1 PUSH2 0x100 EXP DUP2 SLOAD DUP2 PUSH20 0xFFFFFFFFFFFFFFFFFFFFFFFFFFFFFFFFFFFFFFFF MUL NOT AND SWAP1 DUP4 PUSH20 0xFFFFFFFFFFFFFFFFFFFFFFFFFFFFFFFFFFFFFFFF AND MUL OR SWAP1 SSTORE POP TIMESTAMP PUSH1 0x3 PUSH0 PUSH1 0x3A PUSH1 0x1 SWAP1 SLOAD SWAP1 PUSH2 0x100 EXP SWAP1 DIV PUSH20 0xFFFFFFFFFFFFFFFFFFFFFFFFFFFFFFFFFFFFFFFF AND PUSH20 0xFFFFFFFFFFFFFFFFFFFFFFFFFFFFFFFFFFFFFFFF AND PUSH20 0xFFFFFFFFFFFFFFFFFFFFFFFFFFFFFFFFFFFFFFFF AND DUP2 MSTORE PUSH1 0x20 ADD SWAP1 DUP2 MSTORE PUSH1 0x20 ADD PUSH0 KECCAK256 PUSH1 0x6 ADD DUP2 SWAP1 SSTORE POP PUSH1 0x3A PUSH1 0x1 SWAP1 SLOAD SWAP1 PUSH2 0x100 EXP SWAP1 DIV PUSH20 0xFFFFFFFFFFFFFFFFFFFFFFFFFFFFFFFFFFFFFFFF AND PUSH20 0xFFFFFFFFFFFFFFFFFFFFFFFFFFFFFFFFFFFFFFFF AND PUSH32 0x8A84BB57BF3F6ADEFAA7A35A6A5067473F78164BFC14C2F6AE8B93E5B115B35A PUSH1 0x40 MLOAD PUSH1 0x40 MLOAD DUP1 SWAP2 SUB SWAP1 LOG2 JUMP JUMPDEST PUSH1 0x1 PUSH1 0x4 DUP2 GT ISZERO PUSH2 0x3EDA JUMPI PUSH2 0x3ED9 PUSH2 0x732D JUMP JUMPDEST JUMPDEST PUSH2 0x3EE2 PUSH2 0x3BE2 JUMP JUMPDEST PUSH1 0x4 DUP2 GT ISZERO PUSH2 0x3EF4 JUMPI PUSH2 0x3EF3 PUSH2 0x732D JUMP JUMPDEST JUMPDEST EQ PUSH2 0x3F34 JUMPI PUSH1 0x40 MLOAD PUSH32 0x8C379A000000000000000000000000000000000000000000000000000000000 DUP2 MSTORE PUSH1 0x4 ADD PUSH2 0x3F2B SWAP1 PUSH2 0x92F8 JUMP JUMPDEST PUSH1 0x40 MLOAD DUP1 SWAP2 SUB SWAP1 REVERT JUMPDEST PUSH1 0x2 DUP1 SLOAD SWAP1 POP DUP3 DUP3 SWAP1 POP GT ISZERO PUSH2 0x3F7F JUMPI PUSH1 0x40 MLOAD PUSH32 0x8C379A000000000000000000000000000000000000000000000000000000000 DUP2 MSTORE PUSH1 0x4 ADD PUSH2 0x3F76 SWAP1 PUSH2 0x9360 JUMP JUMPDEST PUSH1 0x40 MLOAD DUP1 SWAP2 SUB SWAP1 REVERT JUMPDEST PUSH1 0x1 PUSH1 0x7 PUSH0 CALLER PUSH20 0xFFFFFFFFFFFFFFFFFFFFFFFFFFFFFFFFFFFFFFFF AND PUSH20 0xFFFFFFFFFFFFFFFFFFFFFFFFFFFFFFFFFFFFFFFF AND DUP2 MSTORE PUSH1 0x20 ADD SWAP1 DUP2 MSTORE PUSH1 0x20 ADD PUSH0 KECCAK256 SLOAD EQ PUSH2 0x3FFF JUMPI PUSH1 0x40 MLOAD PUSH32 0x8C379A000000000000000000000000000000000000000000000000000000000 DUP2 MSTORE PUSH1 0x4 ADD PUSH2 0x3FF6 SWAP1 PUSH2 0x93EE JUMP JUMPDEST PUSH1 0x40 MLOAD DUP1 SWAP2 SUB SWAP1 REVERT JUMPDEST PUSH0 PUSH1 0x2 DUP1 SLOAD SWAP1 POP PUSH8 0xFFFFFFFFFFFFFFFF DUP2 GT ISZERO PUSH2 0x401F JUMPI PUSH2 0x401E PUSH2 0x6653 JUMP JUMPDEST JUMPDEST PUSH1 0x40 MLOAD SWAP1 DUP1 DUP3 MSTORE DUP1 PUSH1 0x20 MUL PUSH1 0x20 ADD DUP3 ADD PUSH1 0x40 MSTORE DUP1 ISZERO PUSH2 0x404D JUMPI DUP2 PUSH1 0x20 ADD PUSH1 0x20 DUP3 MUL DUP1 CALLDATASIZE DUP4 CALLDATACOPY DUP1 DUP3 ADD SWAP2 POP POP SWAP1 POP JUMPDEST POP SWAP1 POP TIMESTAMP PUSH1 0x7 PUSH0 CALLER PUSH20 0xFFFFFFFFFFFFFFFFFFFFFFFFFFFFFFFFFFFFFFFF AND PUSH20 0xFFFFFFFFFFFFFFFFFFFFFFFFFFFFFFFFFFFFFFFF AND DUP2 MSTORE PUSH1 0x20 ADD SWAP1 DUP2 MSTORE PUSH1 0x20 ADD PUSH0 KECCAK256 DUP2 SWAP1 SSTORE POP CALLER PUSH20 0xFFFFFFFFFFFFFFFFFFFFFFFFFFFFFFFFFFFFFFFF AND PUSH32 0xB87A61D78BD15221C59B983F6EF032FBDE0631E66BFE18D1421FE5A73C16741D PUSH1 0x40 MLOAD PUSH1 0x40 MLOAD DUP1 SWAP2 SUB SWAP1 LOG2 PUSH0 JUMPDEST DUP4 DUP4 SWAP1 POP DUP2 LT ISZERO PUSH2 0x4266 JUMPI PUSH0 DUP5 DUP5 DUP4 DUP2 DUP2 LT PUSH2 0x40F6 JUMPI PUSH2 0x40F5 PUSH2 0x7F20 JUMP JUMPDEST JUMPDEST SWAP1 POP PUSH1 0x20 MUL ADD CALLDATALOAD SWAP1 POP PUSH1 0x2 DUP1 SLOAD SWAP1 POP DUP2 LT PUSH2 0x4146 JUMPI PUSH1 0x40 MLOAD PUSH32 0x8C379A000000000000000000000000000000000000000000000000000000000 DUP2 MSTORE PUSH1 0x4 ADD PUSH2 0x413D SWAP1 PUSH2 0x9456 JUMP JUMPDEST PUSH1 0x40 MLOAD DUP1 SWAP2 SUB SWAP1 REVERT JUMPDEST DUP3 DUP2 DUP2 MLOAD DUP2 LT PUSH2 0x4159 JUMPI PUSH2 0x4158 PUSH2 0x7F20 JUMP JUMPDEST JUMPDEST PUSH1 0x20 MUL PUSH1 0x20 ADD ADD MLOAD ISZERO PUSH2 0x41A1 JUMPI PUSH1 0x40 MLOAD PUSH32 0x8C379A000000000000000000000000000000000000000000000000000000000 DUP2 MSTORE PUSH1 0x4 ADD PUSH2 0x4198 SWAP1 PUSH2 0x94BE JUMP JUMPDEST PUSH1 0x40 MLOAD DUP1 SWAP2 SUB SWAP1 REVERT JUMPDEST PUSH1 0x1 DUP4 DUP3 DUP2 MLOAD DUP2 LT PUSH2 0x41B6 JUMPI PUSH2 0x41B5 PUSH2 0x7F20 JUMP JUMPDEST JUMPDEST PUSH1 0x20 MUL PUSH1 0x20 ADD ADD SWAP1 ISZERO ISZERO SWAP1 DUP2 ISZERO ISZERO DUP2 MSTORE POP POP PUSH1 0x3 PUSH0 PUSH1 0x2 DUP4 DUP2 SLOAD DUP2 LT PUSH2 0x41DF JUMPI PUSH2 0x41DE PUSH2 0x7F20 JUMP JUMPDEST JUMPDEST SWAP1 PUSH0 MSTORE PUSH1 0x20 PUSH0 KECCAK256 ADD PUSH0 SWAP1 SLOAD SWAP1 PUSH2 0x100 EXP SWAP1 DIV PUSH20 0xFFFFFFFFFFFFFFFFFFFFFFFFFFFFFFFFFFFFFFFF AND PUSH20 0xFFFFFFFFFFFFFFFFFFFFFFFFFFFFFFFFFFFFFFFF AND PUSH20 0xFFFFFFFFFFFFFFFFFFFFFFFFFFFFFFFFFFFFFFFF AND DUP2 MSTORE PUSH1 0x20 ADD SWAP1 DUP2 MSTORE PUSH1 0x20 ADD PUSH0 KECCAK256 PUSH1 0x4 ADD PUSH0 DUP2 SLOAD DUP1 SWAP3 SWAP2 SWAP1 PUSH2 0x4253 SWAP1 PUSH2 0x89BE JUMP JUMPDEST SWAP2 SWAP1 POP SSTORE POP POP DUP1 DUP1 PUSH1 0x1 ADD SWAP2 POP POP PUSH2 0x40D7 JUMP JUMPDEST POP POP POP POP JUMP JUMPDEST PUSH1 0x3C PUSH1 0x20 MSTORE DUP1 PUSH0 MSTORE PUSH1 0x40 PUSH0 KECCAK256 PUSH0 SWAP2 POP SWAP1 POP SLOAD DUP2 JUMP JUMPDEST PUSH1 0x5 SLOAD DUP2 JUMP JUMPDEST PUSH1 0x2 DUP2 DUP2 SLOAD DUP2 LT PUSH2 0x4296 JUMPI PUSH0 DUP1 REVERT JUMPDEST SWAP1 PUSH0 MSTORE PUSH1 0x20 PUSH0 KECCAK256 ADD PUSH0 SWAP2 POP SLOAD SWAP1 PUSH2 0x100 EXP SWAP1 DIV PUSH20 0xFFFFFFFFFFFFFFFFFFFFFFFFFFFFFFFFFFFFFFFF AND DUP2 JUMP JUMPDEST PUSH1 0xA DUP2 JUMP JUMPDEST PUSH1 0x1E DUP2 JUMP JUMPDEST PUSH1 0x3E DUP2 DUP2 SLOAD DUP2 LT PUSH2 0x42DB JUMPI PUSH0 DUP1 REVERT JUMPDEST SWAP1 PUSH0 MSTORE PUSH1 0x20 PUSH0 KECCAK256 SWAP1 PUSH1 0x8 MUL ADD PUSH0 SWAP2 POP SWAP1 POP DUP1 PUSH0 ADD DUP1 SLOAD PUSH2 0x42FA SWAP1 PUSH2 0x7B54 JUMP JUMPDEST DUP1 PUSH1 0x1F ADD PUSH1 0x20 DUP1 SWAP2 DIV MUL PUSH1 0x20 ADD PUSH1 0x40 MLOAD SWAP1 DUP2 ADD PUSH1 0x40 MSTORE DUP1 SWAP3 SWAP2 SWAP1 DUP2 DUP2 MSTORE PUSH1 0x20 ADD DUP3 DUP1 SLOAD PUSH2 0x4326 SWAP1 PUSH2 0x7B54 JUMP JUMPDEST DUP1 ISZERO PUSH2 0x4371 JUMPI DUP1 PUSH1 0x1F LT PUSH2 0x4348 JUMPI PUSH2 0x100 DUP1 DUP4 SLOAD DIV MUL DUP4 MSTORE SWAP2 PUSH1 0x20 ADD SWAP2 PUSH2 0x4371 JUMP JUMPDEST DUP3 ADD SWAP2 SWAP1 PUSH0 MSTORE PUSH1 0x20 PUSH0 KECCAK256 SWAP1 JUMPDEST DUP2 SLOAD DUP2 MSTORE SWAP1 PUSH1 0x1 ADD SWAP1 PUSH1 0x20 ADD DUP1 DUP4 GT PUSH2 0x4354 JUMPI DUP3 SWAP1 SUB PUSH1 0x1F AND DUP3 ADD SWAP2 JUMPDEST POP POP POP POP POP SWAP1 DUP1 PUSH1 0x1 ADD DUP1 SLOAD PUSH2 0x4386 SWAP1 PUSH2 0x7B54 JUMP JUMPDEST DUP1 PUSH1 0x1F ADD PUSH1 0x20 DUP1 SWAP2 DIV MUL PUSH1 0x20 ADD PUSH1 0x40 MLOAD SWAP1 DUP2 ADD PUSH1 0x40 MSTORE DUP1 SWAP3 SWAP2 SWAP1 DUP2 DUP2 MSTORE PUSH1 0x20 ADD DUP3 DUP1 SLOAD PUSH2 0x43B2 SWAP1 PUSH2 0x7B54 JUMP JUMPDEST DUP1 ISZERO PUSH2 0x43FD JUMPI DUP1 PUSH1 0x1F LT PUSH2 0x43D4 JUMPI PUSH2 0x100 DUP1 DUP4 SLOAD DIV MUL DUP4 MSTORE SWAP2 PUSH1 0x20 ADD SWAP2 PUSH2 0x43FD JUMP JUMPDEST DUP3 ADD SWAP2 SWAP1 PUSH0 MSTORE PUSH1 0x20 PUSH0 KECCAK256 SWAP1 JUMPDEST DUP2 SLOAD DUP2 MSTORE SWAP1 PUSH1 0x1 ADD SWAP1 PUSH1 0x20 ADD DUP1 DUP4 GT PUSH2 0x43E0 JUMPI DUP3 SWAP1 SUB PUSH1 0x1F AND DUP3 ADD SWAP2 JUMPDEST POP POP POP POP POP SWAP1 DUP1 PUSH1 0x2 ADD DUP1 SLOAD PUSH2 0x4412 SWAP1 PUSH2 0x7B54 JUMP JUMPDEST DUP1 PUSH1 0x1F ADD PUSH1 0x20 DUP1 SWAP2 DIV MUL PUSH1 0x20 ADD PUSH1 0x40 MLOAD SWAP1 DUP2 ADD PUSH1 0x40 MSTORE DUP1 SWAP3 SWAP2 SWAP1 DUP2 DUP2 MSTORE PUSH1 0x20 ADD DUP3 DUP1 SLOAD PUSH2 0x443E SWAP1 PUSH2 0x7B54 JUMP JUMPDEST DUP1 ISZERO PUSH2 0x4489 JUMPI DUP1 PUSH1 0x1F LT PUSH2 0x4460 JUMPI PUSH2 0x100 DUP1 DUP4 SLOAD DIV MUL DUP4 MSTORE SWAP2 PUSH1 0x20 ADD SWAP2 PUSH2 0x4489 JUMP JUMPDEST DUP3 ADD SWAP2 SWAP1 PUSH0 MSTORE PUSH1 0x20 PUSH0 KECCAK256 SWAP1 JUMPDEST DUP2 SLOAD DUP2 MSTORE SWAP1 PUSH1 0x1 ADD SWAP1 PUSH1 0x20 ADD DUP1 DUP4 GT PUSH2 0x446C JUMPI DUP3 SWAP1 SUB PUSH1 0x1F AND DUP3 ADD SWAP2 JUMPDEST POP POP POP POP POP SWAP1 DUP1 PUSH1 0x3 ADD DUP1 SLOAD PUSH2 0x449E SWAP1 PUSH2 0x7B54 JUMP JUMPDEST DUP1 PUSH1 0x1F ADD PUSH1 0x20 DUP1 SWAP2 DIV MUL PUSH1 0x20 ADD PUSH1 0x40 MLOAD SWAP1 DUP2 ADD PUSH1 0x40 MSTORE DUP1 SWAP3 SWAP2 SWAP1 DUP2 DUP2 MSTORE PUSH1 0x20 ADD DUP3 DUP1 SLOAD PUSH2 0x44CA SWAP1 PUSH2 0x7B54 JUMP JUMPDEST DUP1 ISZERO PUSH2 0x4515 JUMPI DUP1 PUSH1 0x1F LT PUSH2 0x44EC JUMPI PUSH2 0x100 DUP1 DUP4 SLOAD DIV MUL DUP4 MSTORE SWAP2 PUSH1 0x20 ADD SWAP2 PUSH2 0x4515 JUMP JUMPDEST DUP3 ADD SWAP2 SWAP1 PUSH0 MSTORE PUSH1 0x20 PUSH0 KECCAK256 SWAP1 JUMPDEST DUP2 SLOAD DUP2 MSTORE SWAP1 PUSH1 0x1 ADD SWAP1 PUSH1 0x20 ADD DUP1 DUP4 GT PUSH2 0x44F8 JUMPI DUP3 SWAP1 SUB PUSH1 0x1F AND DUP3 ADD SWAP2 JUMPDEST POP POP POP POP POP SWAP1 DUP1 PUSH1 0x4 ADD SLOAD SWAP1 DUP1 PUSH1 0x5 ADD DUP1 SLOAD PUSH2 0x4530 SWAP1 PUSH2 0x7B54 JUMP JUMPDEST DUP1 PUSH1 0x1F ADD PUSH1 0x20 DUP1 SWAP2 DIV MUL PUSH1 0x20 ADD PUSH1 0x40 MLOAD SWAP1 DUP2 ADD PUSH1 0x40 MSTORE DUP1 SWAP3 SWAP2 SWAP1 DUP2 DUP2 MSTORE PUSH1 0x20 ADD DUP3 DUP1 SLOAD PUSH2 0x455C SWAP1 PUSH2 0x7B54 JUMP JUMPDEST DUP1 ISZERO PUSH2 0x45A7 JUMPI DUP1 PUSH1 0x1F LT PUSH2 0x457E JUMPI PUSH2 0x100 DUP1 DUP4 SLOAD DIV MUL DUP4 MSTORE SWAP2 PUSH1 0x20 ADD SWAP2 PUSH2 0x45A7 JUMP JUMPDEST DUP3 ADD SWAP2 SWAP1 PUSH0 MSTORE PUSH1 0x20 PUSH0 KECCAK256 SWAP1 JUMPDEST DUP2 SLOAD DUP2 MSTORE SWAP1 PUSH1 0x1 ADD SWAP1 PUSH1 0x20 ADD DUP1 DUP4 GT PUSH2 0x458A JUMPI DUP3 SWAP1 SUB PUSH1 0x1F AND DUP3 ADD SWAP2 JUMPDEST POP POP POP POP POP SWAP1 DUP1 PUSH1 0x6 ADD SLOAD SWAP1 DUP1 PUSH1 0x7 ADD SLOAD SWAP1 POP DUP9 JUMP JUMPDEST PUSH2 0x45C5 PUSH2 0x65BA JUMP JUMPDEST PUSH1 0x4 DUP1 SLOAD SWAP1 POP DUP3 LT PUSH2 0x460C JUMPI PUSH1 0x40 MLOAD PUSH32 0x8C379A000000000000000000000000000000000000000000000000000000000 DUP2 MSTORE PUSH1 0x4 ADD PUSH2 0x4603 SWAP1 PUSH2 0x7F02 JUMP JUMPDEST PUSH1 0x40 MLOAD DUP1 SWAP2 SUB SWAP1 REVERT JUMPDEST PUSH1 0x4 DUP3 DUP2 SLOAD DUP2 LT PUSH2 0x4620 JUMPI PUSH2 0x461F PUSH2 0x7F20 JUMP JUMPDEST JUMPDEST SWAP1 PUSH0 MSTORE PUSH1 0x20 PUSH0 KECCAK256 SWAP1 PUSH1 0x7 MUL ADD PUSH1 0x40 MLOAD DUP1 PUSH1 0xE0 ADD PUSH1 0x40 MSTORE SWAP1 DUP2 PUSH0 DUP3 ADD PUSH0 SWAP1 SLOAD SWAP1 PUSH2 0x100 EXP SWAP1 DIV PUSH20 0xFFFFFFFFFFFFFFFFFFFFFFFFFFFFFFFFFFFFFFFF AND PUSH20 0xFFFFFFFFFFFFFFFFFFFFFFFFFFFFFFFFFFFFFFFF AND PUSH20 0xFFFFFFFFFFFFFFFFFFFFFFFFFFFFFFFFFFFFFFFF AND DUP2 MSTORE PUSH1 0x20 ADD PUSH1 0x1 DUP3 ADD DUP1 SLOAD PUSH2 0x469B SWAP1 PUSH2 0x7B54 JUMP JUMPDEST DUP1 PUSH1 0x1F ADD PUSH1 0x20 DUP1 SWAP2 DIV MUL PUSH1 0x20 ADD PUSH1 0x40 MLOAD SWAP1 DUP2 ADD PUSH1 0x40 MSTORE DUP1 SWAP3 SWAP2 SWAP1 DUP2 DUP2 MSTORE PUSH1 0x20 ADD DUP3 DUP1 SLOAD PUSH2 0x46C7 SWAP1 PUSH2 0x7B54 JUMP JUMPDEST DUP1 ISZERO PUSH2 0x4712 JUMPI DUP1 PUSH1 0x1F LT PUSH2 0x46E9 JUMPI PUSH2 0x100 DUP1 DUP4 SLOAD DIV MUL DUP4 MSTORE SWAP2 PUSH1 0x20 ADD SWAP2 PUSH2 0x4712 JUMP JUMPDEST DUP3 ADD SWAP2 SWAP1 PUSH0 MSTORE PUSH1 0x20 PUSH0 KECCAK256 SWAP1 JUMPDEST DUP2 SLOAD DUP2 MSTORE SWAP1 PUSH1 0x1 ADD SWAP1 PUSH1 0x20 ADD DUP1 DUP4 GT PUSH2 0x46F5 JUMPI DUP3 SWAP1 SUB PUSH1 0x1F AND DUP3 ADD SWAP2 JUMPDEST POP POP POP POP POP DUP2 MSTORE PUSH1 0x20 ADD PUSH1 0x2 DUP3 ADD SLOAD DUP2 MSTORE PUSH1 0x20 ADD PUSH1 0x3 DUP3 ADD SLOAD DUP2 MSTORE PUSH1 0x20 ADD PUSH1 0x4 DUP3 ADD SLOAD DUP2 MSTORE PUSH1 0x20 ADD PUSH1 0x5 DUP3 ADD PUSH0 SWAP1 SLOAD SWAP1 PUSH2 0x100 EXP SWAP1 DIV PUSH1 0xFF AND PUSH1 0xFF AND PUSH1 0xFF AND DUP2 MSTORE PUSH1 0x20 ADD PUSH1 0x6 DUP3 ADD DUP1 SLOAD DUP1 PUSH1 0x20 MUL PUSH1 0x20 ADD PUSH1 0x40 MLOAD SWAP1 DUP2 ADD PUSH1 0x40 MSTORE DUP1 SWAP3 SWAP2 SWAP1 DUP2 DUP2 MSTORE PUSH1 0x20 ADD PUSH0 SWAP1 JUMPDEST DUP3 DUP3 LT ISZERO PUSH2 0x4897 JUMPI DUP4 DUP3 SWAP1 PUSH0 MSTORE PUSH1 0x20 PUSH0 KECCAK256 SWAP1 PUSH1 0x3 MUL ADD PUSH1 0x40 MLOAD DUP1 PUSH1 0x60 ADD PUSH1 0x40 MSTORE SWAP1 DUP2 PUSH0 DUP3 ADD SLOAD DUP2 MSTORE PUSH1 0x20 ADD PUSH1 0x1 DUP3 ADD PUSH0 SWAP1 SLOAD SWAP1 PUSH2 0x100 EXP SWAP1 DIV PUSH20 0xFFFFFFFFFFFFFFFFFFFFFFFFFFFFFFFFFFFFFFFF AND PUSH20 0xFFFFFFFFFFFFFFFFFFFFFFFFFFFFFFFFFFFFFFFF AND PUSH20 0xFFFFFFFFFFFFFFFFFFFFFFFFFFFFFFFFFFFFFFFF AND DUP2 MSTORE PUSH1 0x20 ADD PUSH1 0x2 DUP3 ADD DUP1 SLOAD PUSH2 0x4808 SWAP1 PUSH2 0x7B54 JUMP JUMPDEST DUP1 PUSH1 0x1F ADD PUSH1 0x20 DUP1 SWAP2 DIV MUL PUSH1 0x20 ADD PUSH1 0x40 MLOAD SWAP1 DUP2 ADD PUSH1 0x40 MSTORE DUP1 SWAP3 SWAP2 SWAP1 DUP2 DUP2 MSTORE PUSH1 0x20 ADD DUP3 DUP1 SLOAD PUSH2 0x4834 SWAP1 PUSH2 0x7B54 JUMP JUMPDEST DUP1 ISZERO PUSH2 0x487F JUMPI DUP1 PUSH1 0x1F LT PUSH2 0x4856 JUMPI PUSH2 0x100 DUP1 DUP4 SLOAD DIV MUL DUP4 MSTORE SWAP2 PUSH1 0x20 ADD SWAP2 PUSH2 0x487F JUMP JUMPDEST DUP3 ADD SWAP2 SWAP1 PUSH0 MSTORE PUSH1 0x20 PUSH0 KECCAK256 SWAP1 JUMPDEST DUP2 SLOAD DUP2 MSTORE SWAP1 PUSH1 0x1 ADD SWAP1 PUSH1 0x20 ADD DUP1 DUP4 GT PUSH2 0x4862 JUMPI DUP3 SWAP1 SUB PUSH1 0x1F AND DUP3 ADD SWAP2 JUMPDEST POP POP POP POP POP DUP2 MSTORE POP POP DUP2 MSTORE PUSH1 0x20 ADD SWAP1 PUSH1 0x1 ADD SWAP1 PUSH2 0x4779 JUMP JUMPDEST POP POP POP POP DUP2 MSTORE POP POP SWAP1 POP SWAP2 SWAP1 POP JUMP JUMPDEST PUSH1 0x3 PUSH0 CALLER PUSH20 0xFFFFFFFFFFFFFFFFFFFFFFFFFFFFFFFFFFFFFFFF AND PUSH20 0xFFFFFFFFFFFFFFFFFFFFFFFFFFFFFFFFFFFFFFFF AND DUP2 MSTORE PUSH1 0x20 ADD SWAP1 DUP2 MSTORE PUSH1 0x20 ADD PUSH0 KECCAK256 PUSH1 0x5 ADD PUSH0 SWAP1 SLOAD SWAP1 PUSH2 0x100 EXP SWAP1 DIV PUSH1 0xFF AND PUSH2 0x4932 JUMPI PUSH1 0x40 MLOAD PUSH32 0x8C379A000000000000000000000000000000000000000000000000000000000 DUP2 MSTORE PUSH1 0x4 ADD PUSH2 0x4929 SWAP1 PUSH2 0x9526 JUMP JUMPDEST PUSH1 0x40 MLOAD DUP1 SWAP2 SUB SWAP1 REVERT JUMPDEST PUSH2 0x1388 DUP2 GT ISZERO PUSH2 0x4977 JUMPI PUSH1 0x40 MLOAD PUSH32 0x8C379A000000000000000000000000000000000000000000000000000000000 DUP2 MSTORE PUSH1 0x4 ADD PUSH2 0x496E SWAP1 PUSH2 0x958E JUMP JUMPDEST PUSH1 0x40 MLOAD DUP1 SWAP2 SUB SWAP1 REVERT JUMPDEST PUSH0 DUP1 PUSH1 0xAD PUSH0 CALLER PUSH20 0xFFFFFFFFFFFFFFFFFFFFFFFFFFFFFFFFFFFFFFFF AND PUSH20 0xFFFFFFFFFFFFFFFFFFFFFFFFFFFFFFFFFFFFFFFF AND DUP2 MSTORE PUSH1 0x20 ADD SWAP1 DUP2 MSTORE PUSH1 0x20 ADD PUSH0 KECCAK256 PUSH0 SWAP1 SLOAD SWAP1 PUSH2 0x100 EXP SWAP1 DIV PUSH1 0xFF AND SWAP1 POP PUSH0 DUP2 PUSH1 0xFF AND EQ DUP1 ISZERO PUSH2 0x4A3F JUMPI POP CALLER PUSH20 0xFFFFFFFFFFFFFFFFFFFFFFFFFFFFFFFFFFFFFFFF AND PUSH1 0x49 DUP3 PUSH1 0xFF AND PUSH1 0x32 DUP2 LT PUSH2 0x4A00 JUMPI PUSH2 0x49FF PUSH2 0x7F20 JUMP JUMPDEST JUMPDEST PUSH1 0x2 MUL ADD PUSH0 ADD PUSH0 SWAP1 SLOAD SWAP1 PUSH2 0x100 EXP SWAP1 DIV PUSH20 0xFFFFFFFFFFFFFFFFFFFFFFFFFFFFFFFFFFFFFFFF AND PUSH20 0xFFFFFFFFFFFFFFFFFFFFFFFFFFFFFFFFFFFFFFFF AND EQ ISZERO JUMPDEST ISZERO PUSH2 0x4A83 JUMPI PUSH1 0xAE PUSH0 DUP2 DUP2 SWAP1 SLOAD SWAP1 PUSH2 0x100 EXP SWAP1 DIV PUSH1 0xFF AND DUP1 SWAP3 SWAP2 SWAP1 PUSH2 0x4A62 SWAP1 PUSH2 0x801D JUMP JUMPDEST SWAP2 SWAP1 PUSH2 0x100 EXP DUP2 SLOAD DUP2 PUSH1 0xFF MUL NOT AND SWAP1 DUP4 PUSH1 0xFF AND MUL OR SWAP1 SSTORE POP POP PUSH0 SWAP2 POP PUSH2 0x4AA5 JUMP JUMPDEST PUSH1 0x49 DUP2 PUSH1 0xFF AND PUSH1 0x32 DUP2 LT PUSH2 0x4A9A JUMPI PUSH2 0x4A99 PUSH2 0x7F20 JUMP JUMPDEST JUMPDEST PUSH1 0x2 MUL ADD PUSH1 0x1 ADD SLOAD SWAP2 POP JUMPDEST PUSH0 DUP2 SWAP1 POP DUP3 DUP5 SUB PUSH2 0x4AB8 JUMPI POP POP POP PUSH2 0x503B JUMP JUMPDEST DUP3 DUP5 GT ISZERO PUSH2 0x4C6C JUMPI JUMPDEST PUSH1 0x1 PUSH1 0x32 PUSH2 0x4ACF SWAP2 SWAP1 PUSH2 0x95AC JUMP JUMPDEST PUSH1 0xFF AND DUP2 PUSH1 0xFF AND LT DUP1 ISZERO PUSH2 0x4B0C JUMPI POP PUSH1 0x49 PUSH1 0x1 DUP3 PUSH2 0x4AED SWAP2 SWAP1 PUSH2 0x95E0 JUMP JUMPDEST PUSH1 0xFF AND PUSH1 0x32 DUP2 LT PUSH2 0x4B01 JUMPI PUSH2 0x4B00 PUSH2 0x7F20 JUMP JUMPDEST JUMPDEST PUSH1 0x2 MUL ADD PUSH1 0x1 ADD SLOAD DUP5 GT JUMPDEST ISZERO PUSH2 0x4C67 JUMPI PUSH1 0x49 PUSH1 0x1 DUP3 PUSH2 0x4B20 SWAP2 SWAP1 PUSH2 0x95E0 JUMP JUMPDEST PUSH1 0xFF AND PUSH1 0x32 DUP2 LT PUSH2 0x4B34 JUMPI PUSH2 0x4B33 PUSH2 0x7F20 JUMP JUMPDEST JUMPDEST PUSH1 0x2 MUL ADD PUSH1 0x49 DUP3 PUSH1 0xFF AND PUSH1 0x32 DUP2 LT PUSH2 0x4B4F JUMPI PUSH2 0x4B4E PUSH2 0x7F20 JUMP JUMPDEST JUMPDEST PUSH1 0x2 MUL ADD PUSH0 DUP3 ADD PUSH0 SWAP1 SLOAD SWAP1 PUSH2 0x100 EXP SWAP1 DIV PUSH20 0xFFFFFFFFFFFFFFFFFFFFFFFFFFFFFFFFFFFFFFFF AND DUP2 PUSH0 ADD PUSH0 PUSH2 0x100 EXP DUP2 SLOAD DUP2 PUSH20 0xFFFFFFFFFFFFFFFFFFFFFFFFFFFFFFFFFFFFFFFF MUL NOT AND SWAP1 DUP4 PUSH20 0xFFFFFFFFFFFFFFFFFFFFFFFFFFFFFFFFFFFFFFFF AND MUL OR SWAP1 SSTORE POP PUSH1 0x1 DUP3 ADD SLOAD DUP2 PUSH1 0x1 ADD SSTORE SWAP1 POP POP DUP1 PUSH1 0xAD PUSH0 PUSH1 0x49 DUP5 PUSH1 0xFF AND PUSH1 0x32 DUP2 LT PUSH2 0x4BDE JUMPI PUSH2 0x4BDD PUSH2 0x7F20 JUMP JUMPDEST JUMPDEST PUSH1 0x2 MUL ADD PUSH0 ADD PUSH0 SWAP1 SLOAD SWAP1 PUSH2 0x100 EXP SWAP1 DIV PUSH20 0xFFFFFFFFFFFFFFFFFFFFFFFFFFFFFFFFFFFFFFFF AND PUSH20 0xFFFFFFFFFFFFFFFFFFFFFFFFFFFFFFFFFFFFFFFF AND PUSH20 0xFFFFFFFFFFFFFFFFFFFFFFFFFFFFFFFFFFFFFFFF AND DUP2 MSTORE PUSH1 0x20 ADD SWAP1 DUP2 MSTORE PUSH1 0x20 ADD PUSH0 KECCAK256 PUSH0 PUSH2 0x100 EXP DUP2 SLOAD DUP2 PUSH1 0xFF MUL NOT AND SWAP1 DUP4 PUSH1 0xFF AND MUL OR SWAP1 SSTORE POP DUP1 DUP1 PUSH2 0x4C5F SWAP1 PUSH2 0x801D JUMP JUMPDEST SWAP2 POP POP PUSH2 0x4AC1 JUMP JUMPDEST PUSH2 0x4E04 JUMP JUMPDEST JUMPDEST PUSH0 DUP2 PUSH1 0xFF AND GT DUP1 ISZERO PUSH2 0x4CA8 JUMPI POP PUSH1 0x49 PUSH1 0x1 DUP3 PUSH2 0x4C89 SWAP2 SWAP1 PUSH2 0x95AC JUMP JUMPDEST PUSH1 0xFF AND PUSH1 0x32 DUP2 LT PUSH2 0x4C9D JUMPI PUSH2 0x4C9C PUSH2 0x7F20 JUMP JUMPDEST JUMPDEST PUSH1 0x2 MUL ADD PUSH1 0x1 ADD SLOAD DUP5 LT JUMPDEST ISZERO PUSH2 0x4E03 JUMPI PUSH1 0x49 PUSH1 0x1 DUP3 PUSH2 0x4CBC SWAP2 SWAP1 PUSH2 0x95AC JUMP JUMPDEST PUSH1 0xFF AND PUSH1 0x32 DUP2 LT PUSH2 0x4CD0 JUMPI PUSH2 0x4CCF PUSH2 0x7F20 JUMP JUMPDEST JUMPDEST PUSH1 0x2 MUL ADD PUSH1 0x49 DUP3 PUSH1 0xFF AND PUSH1 0x32 DUP2 LT PUSH2 0x4CEB JUMPI PUSH2 0x4CEA PUSH2 0x7F20 JUMP JUMPDEST JUMPDEST PUSH1 0x2 MUL ADD PUSH0 DUP3 ADD PUSH0 SWAP1 SLOAD SWAP1 PUSH2 0x100 EXP SWAP1 DIV PUSH20 0xFFFFFFFFFFFFFFFFFFFFFFFFFFFFFFFFFFFFFFFF AND DUP2 PUSH0 ADD PUSH0 PUSH2 0x100 EXP DUP2 SLOAD DUP2 PUSH20 0xFFFFFFFFFFFFFFFFFFFFFFFFFFFFFFFFFFFFFFFF MUL NOT AND SWAP1 DUP4 PUSH20 0xFFFFFFFFFFFFFFFFFFFFFFFFFFFFFFFFFFFFFFFF AND MUL OR SWAP1 SSTORE POP PUSH1 0x1 DUP3 ADD SLOAD DUP2 PUSH1 0x1 ADD SSTORE SWAP1 POP POP DUP1 PUSH1 0xAD PUSH0 PUSH1 0x49 DUP5 PUSH1 0xFF AND PUSH1 0x32 DUP2 LT PUSH2 0x4D7A JUMPI PUSH2 0x4D79 PUSH2 0x7F20 JUMP JUMPDEST JUMPDEST PUSH1 0x2 MUL ADD PUSH0 ADD PUSH0 SWAP1 SLOAD SWAP1 PUSH2 0x100 EXP SWAP1 DIV PUSH20 0xFFFFFFFFFFFFFFFFFFFFFFFFFFFFFFFFFFFFFFFF AND PUSH20 0xFFFFFFFFFFFFFFFFFFFFFFFFFFFFFFFFFFFFFFFF AND PUSH20 0xFFFFFFFFFFFFFFFFFFFFFFFFFFFFFFFFFFFFFFFF AND DUP2 MSTORE PUSH1 0x20 ADD SWAP1 DUP2 MSTORE PUSH1 0x20 ADD PUSH0 KECCAK256 PUSH0 PUSH2 0x100 EXP DUP2 SLOAD DUP2 PUSH1 0xFF MUL NOT AND SWAP1 DUP4 PUSH1 0xFF AND MUL OR SWAP1 SSTORE POP DUP1 DUP1 PUSH2 0x4DFB SWAP1 PUSH2 0x9614 JUMP JUMPDEST SWAP2 POP POP PUSH2 0x4C6D JUMP JUMPDEST JUMPDEST PUSH1 0x40 MLOAD DUP1 PUSH1 0x40 ADD PUSH1 0x40 MSTORE DUP1 CALLER PUSH20 0xFFFFFFFFFFFFFFFFFFFFFFFFFFFFFFFFFFFFFFFF AND DUP2 MSTORE PUSH1 0x20 ADD DUP6 DUP2 MSTORE POP PUSH1 0x49 DUP3 PUSH1 0xFF AND PUSH1 0x32 DUP2 LT PUSH2 0x4E46 JUMPI PUSH2 0x4E45 PUSH2 0x7F20 JUMP JUMPDEST JUMPDEST PUSH1 0x2 MUL ADD PUSH0 DUP3 ADD MLOAD DUP2 PUSH0 ADD PUSH0 PUSH2 0x100 EXP DUP2 SLOAD DUP2 PUSH20 0xFFFFFFFFFFFFFFFFFFFFFFFFFFFFFFFFFFFFFFFF MUL NOT AND SWAP1 DUP4 PUSH20 0xFFFFFFFFFFFFFFFFFFFFFFFFFFFFFFFFFFFFFFFF AND MUL OR SWAP1 SSTORE POP PUSH1 0x20 DUP3 ADD MLOAD DUP2 PUSH1 0x1 ADD SSTORE SWAP1 POP POP DUP1 PUSH1 0xAD PUSH0 CALLER PUSH20 0xFFFFFFFFFFFFFFFFFFFFFFFFFFFFFFFFFFFFFFFF AND PUSH20 0xFFFFFFFFFFFFFFFFFFFFFFFFFFFFFFFFFFFFFFFF AND DUP2 MSTORE PUSH1 0x20 ADD SWAP1 DUP2 MSTORE PUSH1 0x20 ADD PUSH0 KECCAK256 PUSH0 PUSH2 0x100 EXP DUP2 SLOAD DUP2 PUSH1 0xFF MUL NOT AND SWAP1 DUP4 PUSH1 0xFF AND MUL OR SWAP1 SSTORE POP CALLER PUSH20 0xFFFFFFFFFFFFFFFFFFFFFFFFFFFFFFFFFFFFFFFF AND PUSH32 0x1CE0BEAEC98D7537137A85C2D351C6C99900830D30FE8A7C353FA27225807E72 DUP5 DUP5 DUP8 DUP6 PUSH1 0x40 MLOAD PUSH2 0x4F3C SWAP5 SWAP4 SWAP3 SWAP2 SWAP1 PUSH2 0x963B JUMP JUMPDEST PUSH1 0x40 MLOAD DUP1 SWAP2 SUB SWAP1 LOG2 PUSH1 0x49 PUSH1 0x2 PUSH1 0x32 PUSH2 0x4F54 SWAP2 SWAP1 PUSH2 0x96AB JUMP JUMPDEST PUSH1 0xFF AND PUSH1 0x32 DUP2 LT PUSH2 0x4F68 JUMPI PUSH2 0x4F67 PUSH2 0x7F20 JUMP JUMPDEST JUMPDEST PUSH1 0x2 MUL ADD PUSH1 0x1 ADD SLOAD PUSH1 0x46 SLOAD EQ PUSH2 0x5037 JUMPI PUSH1 0x49 PUSH1 0x2 PUSH1 0x32 PUSH2 0x4F88 SWAP2 SWAP1 PUSH2 0x96AB JUMP JUMPDEST PUSH1 0xFF AND PUSH1 0x32 DUP2 LT PUSH2 0x4F9C JUMPI PUSH2 0x4F9B PUSH2 0x7F20 JUMP JUMPDEST JUMPDEST PUSH1 0x2 MUL ADD PUSH1 0x1 ADD SLOAD PUSH1 0x46 DUP2 SWAP1 SSTORE POP PUSH1 0x47 PUSH1 0x40 MLOAD DUP1 PUSH1 0x40 ADD PUSH1 0x40 MSTORE DUP1 PUSH1 0x46 SLOAD DUP2 MSTORE PUSH1 0x20 ADD TIMESTAMP DUP2 MSTORE POP SWAP1 DUP1 PUSH1 0x1 DUP2 SLOAD ADD DUP1 DUP3 SSTORE DUP1 SWAP2 POP POP PUSH1 0x1 SWAP1 SUB SWAP1 PUSH0 MSTORE PUSH1 0x20 PUSH0 KECCAK256 SWAP1 PUSH1 0x2 MUL ADD PUSH0 SWAP1 SWAP2 SWAP1 SWAP2 SWAP1 SWAP2 POP PUSH0 DUP3 ADD MLOAD DUP2 PUSH0 ADD SSTORE PUSH1 0x20 DUP3 ADD MLOAD DUP2 PUSH1 0x1 ADD SSTORE POP POP PUSH32 0xA90E14BE5AA57B910AA6DC16C31FF1B5CDA380AE25A793B0D3F74DF6131A7D74 PUSH1 0x46 SLOAD PUSH1 0x40 MLOAD PUSH2 0x502E SWAP2 SWAP1 PUSH2 0x6D82 JUMP JUMPDEST PUSH1 0x40 MLOAD DUP1 SWAP2 SUB SWAP1 LOG1 JUMPDEST POP POP POP JUMPDEST POP JUMP JUMPDEST TIMESTAMP PUSH3 0x5C4900 PUSH0 SLOAD PUSH2 0x504F SWAP2 SWAP1 PUSH2 0x91ED JUMP JUMPDEST LT PUSH2 0x508F JUMPI PUSH1 0x40 MLOAD PUSH32 0x8C379A000000000000000000000000000000000000000000000000000000000 DUP2 MSTORE PUSH1 0x4 ADD PUSH2 0x5086 SWAP1 PUSH2 0x9725 JUMP JUMPDEST PUSH1 0x40 MLOAD DUP1 SWAP2 SUB SWAP1 REVERT JUMPDEST PUSH0 PUSH1 0x42 SLOAD EQ PUSH2 0x50D3 JUMPI PUSH1 0x40 MLOAD PUSH32 0x8C379A000000000000000000000000000000000000000000000000000000000 DUP2 MSTORE PUSH1 0x4 ADD PUSH2 0x50CA SWAP1 PUSH2 0x978D JUMP JUMPDEST PUSH1 0x40 MLOAD DUP1 SWAP2 SUB SWAP1 REVERT JUMPDEST PUSH1 0xA PUSH1 0xFF AND PUSH1 0x3E DUP1 SLOAD SWAP1 POP GT PUSH2 0x511E JUMPI PUSH1 0x40 MLOAD PUSH32 0x8C379A000000000000000000000000000000000000000000000000000000000 DUP2 MSTORE PUSH1 0x4 ADD PUSH2 0x5115 SWAP1 PUSH2 0x97F5 JUMP JUMPDEST PUSH1 0x40 MLOAD DUP1 SWAP2 SUB SWAP1 REVERT JUMPDEST PUSH3 0xF4240 PUSH4 0xFFFFFFFF AND PUSH1 0x41 PUSH0 SWAP1 SLOAD SWAP1 PUSH2 0x100 EXP SWAP1 DIV PUSH4 0xFFFFFFFF AND PUSH4 0xFFFFFFFF AND LT ISZERO PUSH2 0x5181 JUMPI PUSH1 0x40 MLOAD PUSH32 0x8C379A000000000000000000000000000000000000000000000000000000000 DUP2 MSTORE PUSH1 0x4 ADD PUSH2 0x5178 SWAP1 PUSH2 0x985D JUMP JUMPDEST PUSH1 0x40 MLOAD DUP1 SWAP2 SUB SWAP1 REVERT JUMPDEST PUSH3 0x15180 TIMESTAMP PUSH2 0x5190 SWAP2 SWAP1 PUSH2 0x91ED JUMP JUMPDEST PUSH1 0x5 DUP2 SWAP1 SSTORE POP PUSH32 0xA0AB6B515144B30D8222A12E45D1C1DF7265286D8A0D9F73C23C8B06F6021871 PUSH1 0x40 MLOAD PUSH1 0x40 MLOAD DUP1 SWAP2 SUB SWAP1 LOG1 JUMP JUMPDEST PUSH2 0x3E8 DUP2 JUMP JUMPDEST PUSH1 0x5 SLOAD TIMESTAMP LT PUSH2 0x520E JUMPI PUSH1 0x40 MLOAD PUSH32 0x8C379A000000000000000000000000000000000000000000000000000000000 DUP2 MSTORE PUSH1 0x4 ADD PUSH2 0x5205 SWAP1 PUSH2 0x98C5 JUMP JUMPDEST PUSH1 0x40 MLOAD DUP1 SWAP2 SUB SWAP1 REVERT JUMPDEST PUSH1 0x3E DUP1 SLOAD SWAP1 POP DUP3 DUP3 SWAP1 POP GT ISZERO PUSH2 0x5259 JUMPI PUSH1 0x40 MLOAD PUSH32 0x8C379A000000000000000000000000000000000000000000000000000000000 DUP2 MSTORE PUSH1 0x4 ADD PUSH2 0x5250 SWAP1 PUSH2 0x992D JUMP JUMPDEST PUSH1 0x40 MLOAD DUP1 SWAP2 SUB SWAP1 REVERT JUMPDEST PUSH1 0x2 PUSH1 0x40 PUSH0 CALLER PUSH20 0xFFFFFFFFFFFFFFFFFFFFFFFFFFFFFFFFFFFFFFFF AND PUSH20 0xFFFFFFFFFFFFFFFFFFFFFFFFFFFFFFFFFFFFFFFF AND DUP2 MSTORE PUSH1 0x20 ADD SWAP1 DUP2 MSTORE PUSH1 0x20 ADD PUSH0 KECCAK256 SLOAD EQ PUSH2 0x52D9 JUMPI PUSH1 0x40 MLOAD PUSH32 0x8C379A000000000000000000000000000000000000000000000000000000000 DUP2 MSTORE PUSH1 0x4 ADD PUSH2 0x52D0 SWAP1 PUSH2 0x99BB JUMP JUMPDEST PUSH1 0x40 MLOAD DUP1 SWAP2 SUB SWAP1 REVERT JUMPDEST PUSH0 PUSH1 0x3E DUP1 SLOAD SWAP1 POP PUSH8 0xFFFFFFFFFFFFFFFF DUP2 GT ISZERO PUSH2 0x52F9 JUMPI PUSH2 0x52F8 PUSH2 0x6653 JUMP JUMPDEST JUMPDEST PUSH1 0x40 MLOAD SWAP1 DUP1 DUP3 MSTORE DUP1 PUSH1 0x20 MUL PUSH1 0x20 ADD DUP3 ADD PUSH1 0x40 MSTORE DUP1 ISZERO PUSH2 0x5327 JUMPI DUP2 PUSH1 0x20 ADD PUSH1 0x20 DUP3 MUL DUP1 CALLDATASIZE DUP4 CALLDATACOPY DUP1 DUP3 ADD SWAP2 POP POP SWAP1 POP JUMPDEST POP SWAP1 POP PUSH0 JUMPDEST DUP4 DUP4 SWAP1 POP DUP2 LT ISZERO PUSH2 0x5463 JUMPI PUSH0 DUP5 DUP5 DUP4 DUP2 DUP2 LT PUSH2 0x534B JUMPI PUSH2 0x534A PUSH2 0x7F20 JUMP JUMPDEST JUMPDEST SWAP1 POP PUSH1 0x20 MUL ADD CALLDATALOAD SWAP1 POP PUSH1 0x3E DUP1 SLOAD SWAP1 POP DUP2 LT PUSH2 0x539B JUMPI PUSH1 0x40 MLOAD PUSH32 0x8C379A000000000000000000000000000000000000000000000000000000000 DUP2 MSTORE PUSH1 0x4 ADD PUSH2 0x5392 SWAP1 PUSH2 0x9A23 JUMP JUMPDEST PUSH1 0x40 MLOAD DUP1 SWAP2 SUB SWAP1 REVERT JUMPDEST DUP3 DUP2 DUP2 MLOAD DUP2 LT PUSH2 0x53AE JUMPI PUSH2 0x53AD PUSH2 0x7F20 JUMP JUMPDEST JUMPDEST PUSH1 0x20 MUL PUSH1 0x20 ADD ADD MLOAD ISZERO PUSH2 0x53F6 JUMPI PUSH1 0x40 MLOAD PUSH32 0x8C379A000000000000000000000000000000000000000000000000000000000 DUP2 MSTORE PUSH1 0x4 ADD PUSH2 0x53ED SWAP1 PUSH2 0x9A8B JUMP JUMPDEST PUSH1 0x40 MLOAD DUP1 SWAP2 SUB SWAP1 REVERT JUMPDEST PUSH1 0x1 DUP4 DUP3 DUP2 MLOAD DUP2 LT PUSH2 0x540B JUMPI PUSH2 0x540A PUSH2 0x7F20 JUMP JUMPDEST JUMPDEST PUSH1 0x20 MUL PUSH1 0x20 ADD ADD SWAP1 ISZERO ISZERO SWAP1 DUP2 ISZERO ISZERO DUP2 MSTORE POP POP PUSH1 0x3E DUP2 DUP2 SLOAD DUP2 LT PUSH2 0x5431 JUMPI PUSH2 0x5430 PUSH2 0x7F20 JUMP JUMPDEST JUMPDEST SWAP1 PUSH0 MSTORE PUSH1 0x20 PUSH0 KECCAK256 SWAP1 PUSH1 0x8 MUL ADD PUSH1 0x7 ADD PUSH0 DUP2 SLOAD DUP1 SWAP3 SWAP2 SWAP1 PUSH2 0x5450 SWAP1 PUSH2 0x89BE JUMP JUMPDEST SWAP2 SWAP1 POP SSTORE POP POP DUP1 DUP1 PUSH1 0x1 ADD SWAP2 POP POP PUSH2 0x532C JUMP JUMPDEST POP TIMESTAMP PUSH1 0x40 PUSH0 CALLER PUSH20 0xFFFFFFFFFFFFFFFFFFFFFFFFFFFFFFFFFFFFFFFF AND PUSH20 0xFFFFFFFFFFFFFFFFFFFFFFFFFFFFFFFFFFFFFFFF AND DUP2 MSTORE PUSH1 0x20 ADD SWAP1 DUP2 MSTORE PUSH1 0x20 ADD PUSH0 KECCAK256 DUP2 SWAP1 SSTORE POP CALLER PUSH20 0xFFFFFFFFFFFFFFFFFFFFFFFFFFFFFFFFFFFFFFFF AND PUSH32 0x4B50B8927FD1B030F5404DC4394C2A5D30D7F6C6FA6D732C089FFE8C10F09421 PUSH1 0x40 MLOAD PUSH1 0x40 MLOAD DUP1 SWAP2 SUB SWAP1 LOG2 POP POP POP JUMP JUMPDEST PUSH0 SLOAD DUP2 JUMP JUMPDEST PUSH3 0xF4240 DUP2 JUMP JUMPDEST PUSH0 PUSH1 0x7 PUSH0 DUP4 PUSH20 0xFFFFFFFFFFFFFFFFFFFFFFFFFFFFFFFFFFFFFFFF AND PUSH20 0xFFFFFFFFFFFFFFFFFFFFFFFFFFFFFFFFFFFFFFFF AND DUP2 MSTORE PUSH1 0x20 ADD SWAP1 DUP2 MSTORE PUSH1 0x20 ADD PUSH0 KECCAK256 SLOAD SWAP1 POP SWAP2 SWAP1 POP JUMP JUMPDEST PUSH1 0x4 DUP1 SLOAD SWAP1 POP DUP2 LT PUSH2 0x5587 JUMPI PUSH1 0x40 MLOAD PUSH32 0x8C379A000000000000000000000000000000000000000000000000000000000 DUP2 MSTORE PUSH1 0x4 ADD PUSH2 0x557E SWAP1 PUSH2 0x7F02 JUMP JUMPDEST PUSH1 0x40 MLOAD DUP1 SWAP2 SUB SWAP1 REVERT JUMPDEST PUSH0 PUSH1 0x4 DUP3 DUP2 SLOAD DUP2 LT PUSH2 0x559C JUMPI PUSH2 0x559B PUSH2 0x7F20 JUMP JUMPDEST JUMPDEST SWAP1 PUSH0 MSTORE PUSH1 0x20 PUSH0 KECCAK256 SWAP1 PUSH1 0x7 MUL ADD SWAP1 POP CALLER PUSH20 0xFFFFFFFFFFFFFFFFFFFFFFFFFFFFFFFFFFFFFFFF AND DUP2 PUSH0 ADD PUSH0 SWAP1 SLOAD SWAP1 PUSH2 0x100 EXP SWAP1 DIV PUSH20 0xFFFFFFFFFFFFFFFFFFFFFFFFFFFFFFFFFFFFFFFF AND PUSH20 0xFFFFFFFFFFFFFFFFFFFFFFFFFFFFFFFFFFFFFFFF AND EQ PUSH2 0x563A JUMPI PUSH1 0x40 MLOAD PUSH32 0x8C379A000000000000000000000000000000000000000000000000000000000 DUP2 MSTORE PUSH1 0x4 ADD PUSH2 0x5631 SWAP1 PUSH2 0x9AF3 JUMP JUMPDEST PUSH1 0x40 MLOAD DUP1 SWAP2 SUB SWAP1 REVERT JUMPDEST PUSH0 DUP2 PUSH1 0x3 ADD SLOAD EQ PUSH2 0x5680 JUMPI PUSH1 0x40 MLOAD PUSH32 0x8C379A000000000000000000000000000000000000000000000000000000000 DUP2 MSTORE PUSH1 0x4 ADD PUSH2 0x5677 SWAP1 PUSH2 0x9B5B JUMP JUMPDEST PUSH1 0x40 MLOAD DUP1 SWAP2 SUB SWAP1 REVERT JUMPDEST PUSH0 DUP2 PUSH1 0x4 ADD SLOAD EQ PUSH2 0x56C6 JUMPI PUSH1 0x40 MLOAD PUSH32 0x8C379A000000000000000000000000000000000000000000000000000000000 DUP2 MSTORE PUSH1 0x4 ADD PUSH2 0x56BD SWAP1 PUSH2 0x9BC3 JUMP JUMPDEST PUSH1 0x40 MLOAD DUP1 SWAP2 SUB SWAP1 REVERT JUMPDEST TIMESTAMP DUP2 PUSH1 0x4 ADD DUP2 SWAP1 SSTORE POP PUSH0 PUSH1 0x3C PUSH0 CALLER PUSH20 0xFFFFFFFFFFFFFFFFFFFFFFFFFFFFFFFFFFFFFFFF AND PUSH20 0xFFFFFFFFFFFFFFFFFFFFFFFFFFFFFFFFFFFFFFFF AND DUP2 MSTORE PUSH1 0x20 ADD SWAP1 DUP2 MSTORE PUSH1 0x20 ADD PUSH0 KECCAK256 DUP2 SWAP1 SSTORE POP DUP2 PUSH32 0x5CA6C0BBA519C857C8713FBA9F5F1B582ABE00C95DCCCEDCCEA41AD683BAD26D PUSH1 0x40 MLOAD PUSH1 0x40 MLOAD DUP1 SWAP2 SUB SWAP1 LOG2 POP POP JUMP JUMPDEST PUSH1 0x32 DUP2 JUMP JUMPDEST PUSH1 0x41 PUSH0 SWAP1 SLOAD SWAP1 PUSH2 0x100 EXP SWAP1 DIV PUSH4 0xFFFFFFFF AND DUP2 JUMP JUMPDEST PUSH1 0x3 PUSH1 0x20 MSTORE DUP1 PUSH0 MSTORE PUSH1 0x40 PUSH0 KECCAK256 PUSH0 SWAP2 POP SWAP1 POP DUP1 PUSH0 ADD DUP1 SLOAD PUSH2 0x577B SWAP1 PUSH2 0x7B54 JUMP JUMPDEST DUP1 PUSH1 0x1F ADD PUSH1 0x20 DUP1 SWAP2 DIV MUL PUSH1 0x20 ADD PUSH1 0x40 MLOAD SWAP1 DUP2 ADD PUSH1 0x40 MSTORE DUP1 SWAP3 SWAP2 SWAP1 DUP2 DUP2 MSTORE PUSH1 0x20 ADD DUP3 DUP1 SLOAD PUSH2 0x57A7 SWAP1 PUSH2 0x7B54 JUMP JUMPDEST DUP1 ISZERO PUSH2 0x57F2 JUMPI DUP1 PUSH1 0x1F LT PUSH2 0x57C9 JUMPI PUSH2 0x100 DUP1 DUP4 SLOAD DIV MUL DUP4 MSTORE SWAP2 PUSH1 0x20 ADD SWAP2 PUSH2 0x57F2 JUMP JUMPDEST DUP3 ADD SWAP2 SWAP1 PUSH0 MSTORE PUSH1 0x20 PUSH0 KECCAK256 SWAP1 JUMPDEST DUP2 SLOAD DUP2 MSTORE SWAP1 PUSH1 0x1 ADD SWAP1 PUSH1 0x20 ADD DUP1 DUP4 GT PUSH2 0x57D5 JUMPI DUP3 SWAP1 SUB PUSH1 0x1F AND DUP3 ADD SWAP2 JUMPDEST POP POP POP POP POP SWAP1 DUP1 PUSH1 0x1 ADD DUP1 SLOAD PUSH2 0x5807 SWAP1 PUSH2 0x7B54 JUMP JUMPDEST DUP1 PUSH1 0x1F ADD PUSH1 0x20 DUP1 SWAP2 DIV MUL PUSH1 0x20 ADD PUSH1 0x40 MLOAD SWAP1 DUP2 ADD PUSH1 0x40 MSTORE DUP1 SWAP3 SWAP2 SWAP1 DUP2 DUP2 MSTORE PUSH1 0x20 ADD DUP3 DUP1 SLOAD PUSH2 0x5833 SWAP1 PUSH2 0x7B54 JUMP JUMPDEST DUP1 ISZERO PUSH2 0x587E JUMPI DUP1 PUSH1 0x1F LT PUSH2 0x5855 JUMPI PUSH2 0x100 DUP1 DUP4 SLOAD DIV MUL DUP4 MSTORE SWAP2 PUSH1 0x20 ADD SWAP2 PUSH2 0x587E JUMP JUMPDEST DUP3 ADD SWAP2 SWAP1 PUSH0 MSTORE PUSH1 0x20 PUSH0 KECCAK256 SWAP1 JUMPDEST DUP2 SLOAD DUP2 MSTORE SWAP1 PUSH1 0x1 ADD SWAP1 PUSH1 0x20 ADD DUP1 DUP4 GT PUSH2 0x5861 JUMPI DUP3 SWAP1 SUB PUSH1 0x1F AND DUP3 ADD SWAP2 JUMPDEST POP POP POP POP POP SWAP1 DUP1 PUSH1 0x2 ADD DUP1 SLOAD PUSH2 0x5893 SWAP1 PUSH2 0x7B54 JUMP JUMPDEST DUP1 PUSH1 0x1F ADD PUSH1 0x20 DUP1 SWAP2 DIV MUL PUSH1 0x20 ADD PUSH1 0x40 MLOAD SWAP1 DUP2 ADD PUSH1 0x40 MSTORE DUP1 SWAP3 SWAP2 SWAP1 DUP2 DUP2 MSTORE PUSH1 0x20 ADD DUP3 DUP1 SLOAD PUSH2 0x58BF SWAP1 PUSH2 0x7B54 JUMP JUMPDEST DUP1 ISZERO PUSH2 0x590A JUMPI DUP1 PUSH1 0x1F LT PUSH2 0x58E1 JUMPI PUSH2 0x100 DUP1 DUP4 SLOAD DIV MUL DUP4 MSTORE SWAP2 PUSH1 0x20 ADD SWAP2 PUSH2 0x590A JUMP JUMPDEST DUP3 ADD SWAP2 SWAP1 PUSH0 MSTORE PUSH1 0x20 PUSH0 KECCAK256 SWAP1 JUMPDEST DUP2 SLOAD DUP2 MSTORE SWAP1 PUSH1 0x1 ADD SWAP1 PUSH1 0x20 ADD DUP1 DUP4 GT PUSH2 0x58ED JUMPI DUP3 SWAP1 SUB PUSH1 0x1F AND DUP3 ADD SWAP2 JUMPDEST POP POP POP POP POP SWAP1 DUP1 PUSH1 0x3 ADD SLOAD SWAP1 DUP1 PUSH1 0x4 ADD SLOAD SWAP1 DUP1 PUSH1 0x5 ADD PUSH0 SWAP1 SLOAD SWAP1 PUSH2 0x100 EXP SWAP1 DIV PUSH1 0xFF AND SWAP1 DUP1 PUSH1 0x6 ADD SLOAD SWAP1 POP DUP8 JUMP JUMPDEST PUSH1 0xAD PUSH1 0x20 MSTORE DUP1 PUSH0 MSTORE PUSH1 0x40 PUSH0 KECCAK256 PUSH0 SWAP2 POP SLOAD SWAP1 PUSH2 0x100 EXP SWAP1 DIV PUSH1 0xFF AND DUP2 JUMP JUMPDEST PUSH2 0x595D PUSH2 0x660B JUMP JUMPDEST PUSH1 0x3A PUSH0 SWAP1 SLOAD SWAP1 PUSH2 0x100 EXP SWAP1 DIV PUSH1 0xFF AND ISZERO PUSH2 0x59EB JUMPI PUSH1 0x8 PUSH1 0x32 DUP1 PUSH1 0x20 MUL PUSH1 0x40 MLOAD SWAP1 DUP2 ADD PUSH1 0x40 MSTORE DUP1 SWAP3 SWAP2 SWAP1 DUP3 PUSH1 0x32 DUP1 ISZERO PUSH2 0x59DF JUMPI PUSH1 0x20 MUL DUP3 ADD SWAP2 JUMPDEST DUP2 PUSH0 SWAP1 SLOAD SWAP1 PUSH2 0x100 EXP SWAP1 DIV PUSH20 0xFFFFFFFFFFFFFFFFFFFFFFFFFFFFFFFFFFFFFFFF AND PUSH20 0xFFFFFFFFFFFFFFFFFFFFFFFFFFFFFFFFFFFFFFFF AND DUP2 MSTORE PUSH1 0x20 ADD SWAP1 PUSH1 0x1 ADD SWAP1 DUP1 DUP4 GT PUSH2 0x5996 JUMPI JUMPDEST POP POP POP POP POP SWAP1 POP PUSH2 0x5FBB JUMP JUMPDEST PUSH0 SLOAD TIMESTAMP GT PUSH2 0x5A2E JUMPI PUSH1 0x40 MLOAD PUSH32 0x8C379A000000000000000000000000000000000000000000000000000000000 DUP2 MSTORE PUSH1 0x4 ADD PUSH2 0x5A25 SWAP1 PUSH2 0x9C2B JUMP JUMPDEST PUSH1 0x40 MLOAD DUP1 SWAP2 SUB SWAP1 REVERT JUMPDEST PUSH0 PUSH1 0x1 SWAP1 POP JUMPDEST PUSH1 0x32 PUSH1 0xFF AND DUP2 GT PUSH2 0x5DD7 JUMPI PUSH0 JUMPDEST DUP2 PUSH1 0x2 DUP1 SLOAD SWAP1 POP SUB DUP2 LT ISZERO PUSH2 0x5C97 JUMPI PUSH1 0x3 PUSH0 PUSH1 0x2 PUSH1 0x1 DUP5 ADD DUP2 SLOAD DUP2 LT PUSH2 0x5A6A JUMPI PUSH2 0x5A69 PUSH2 0x7F20 JUMP JUMPDEST JUMPDEST SWAP1 PUSH0 MSTORE PUSH1 0x20 PUSH0 KECCAK256 ADD PUSH0 SWAP1 SLOAD SWAP1 PUSH2 0x100 EXP SWAP1 DIV PUSH20 0xFFFFFFFFFFFFFFFFFFFFFFFFFFFFFFFFFFFFFFFF AND PUSH20 0xFFFFFFFFFFFFFFFFFFFFFFFFFFFFFFFFFFFFFFFF AND PUSH20 0xFFFFFFFFFFFFFFFFFFFFFFFFFFFFFFFFFFFFFFFF AND DUP2 MSTORE PUSH1 0x20 ADD SWAP1 DUP2 MSTORE PUSH1 0x20 ADD PUSH0 KECCAK256 PUSH1 0x4 ADD SLOAD PUSH1 0x3 PUSH0 PUSH1 0x2 DUP5 DUP2 SLOAD DUP2 LT PUSH2 0x5AE6 JUMPI PUSH2 0x5AE5 PUSH2 0x7F20 JUMP JUMPDEST JUMPDEST SWAP1 PUSH0 MSTORE PUSH1 0x20 PUSH0 KECCAK256 ADD PUSH0 SWAP1 SLOAD SWAP1 PUSH2 0x100 EXP SWAP1 DIV PUSH20 0xFFFFFFFFFFFFFFFFFFFFFFFFFFFFFFFFFFFFFFFF AND PUSH20 0xFFFFFFFFFFFFFFFFFFFFFFFFFFFFFFFFFFFFFFFF AND PUSH20 0xFFFFFFFFFFFFFFFFFFFFFFFFFFFFFFFFFFFFFFFF AND DUP2 MSTORE PUSH1 0x20 ADD SWAP1 DUP2 MSTORE PUSH1 0x20 ADD PUSH0 KECCAK256 PUSH1 0x4 ADD SLOAD GT ISZERO PUSH2 0x5C8A JUMPI PUSH1 0x2 PUSH1 0x1 DUP3 ADD DUP2 SLOAD DUP2 LT PUSH2 0x5B68 JUMPI PUSH2 0x5B67 PUSH2 0x7F20 JUMP JUMPDEST JUMPDEST SWAP1 PUSH0 MSTORE PUSH1 0x20 PUSH0 KECCAK256 ADD PUSH0 SWAP1 SLOAD SWAP1 PUSH2 0x100 EXP SWAP1 DIV PUSH20 0xFFFFFFFFFFFFFFFFFFFFFFFFFFFFFFFFFFFFFFFF AND PUSH1 0x2 DUP3 DUP2 SLOAD DUP2 LT PUSH2 0x5BA4 JUMPI PUSH2 0x5BA3 PUSH2 0x7F20 JUMP JUMPDEST JUMPDEST SWAP1 PUSH0 MSTORE PUSH1 0x20 PUSH0 KECCAK256 ADD PUSH0 SWAP1 SLOAD SWAP1 PUSH2 0x100 EXP SWAP1 DIV PUSH20 0xFFFFFFFFFFFFFFFFFFFFFFFFFFFFFFFFFFFFFFFF AND PUSH1 0x2 DUP4 DUP2 SLOAD DUP2 LT PUSH2 0x5BE0 JUMPI PUSH2 0x5BDF PUSH2 0x7F20 JUMP JUMPDEST JUMPDEST SWAP1 PUSH0 MSTORE PUSH1 0x20 PUSH0 KECCAK256 ADD PUSH0 PUSH1 0x2 PUSH1 0x1 DUP7 ADD DUP2 SLOAD DUP2 LT PUSH2 0x5C00 JUMPI PUSH2 0x5BFF PUSH2 0x7F20 JUMP JUMPDEST JUMPDEST SWAP1 PUSH0 MSTORE PUSH1 0x20 PUSH0 KECCAK256 ADD PUSH0 DUP5 SWAP2 SWAP1 PUSH2 0x100 EXP DUP2 SLOAD DUP2 PUSH20 0xFFFFFFFFFFFFFFFFFFFFFFFFFFFFFFFFFFFFFFFF MUL NOT AND SWAP1 DUP4 PUSH20 0xFFFFFFFFFFFFFFFFFFFFFFFFFFFFFFFFFFFFFFFF AND MUL OR SWAP1 SSTORE POP DUP4 SWAP2 SWAP1 PUSH2 0x100 EXP DUP2 SLOAD DUP2 PUSH20 0xFFFFFFFFFFFFFFFFFFFFFFFFFFFFFFFFFFFFFFFF MUL NOT AND SWAP1 DUP4 PUSH20 0xFFFFFFFFFFFFFFFFFFFFFFFFFFFFFFFFFFFFFFFF AND MUL OR SWAP1 SSTORE POP POP POP JUMPDEST DUP1 DUP1 PUSH1 0x1 ADD SWAP2 POP POP PUSH2 0x5A41 JUMP JUMPDEST POP PUSH1 0x2 DUP2 PUSH1 0x2 DUP1 SLOAD SWAP1 POP SUB DUP2 SLOAD DUP2 LT PUSH2 0x5CB3 JUMPI PUSH2 0x5CB2 PUSH2 0x7F20 JUMP JUMPDEST JUMPDEST SWAP1 PUSH0 MSTORE PUSH1 0x20 PUSH0 KECCAK256 ADD PUSH0 SWAP1 SLOAD SWAP1 PUSH2 0x100 EXP SWAP1 DIV PUSH20 0xFFFFFFFFFFFFFFFFFFFFFFFFFFFFFFFFFFFFFFFF AND PUSH1 0x8 PUSH1 0x1 DUP4 SUB PUSH1 0x32 DUP2 LT PUSH2 0x5CF2 JUMPI PUSH2 0x5CF1 PUSH2 0x7F20 JUMP JUMPDEST JUMPDEST ADD PUSH0 PUSH2 0x100 EXP DUP2 SLOAD DUP2 PUSH20 0xFFFFFFFFFFFFFFFFFFFFFFFFFFFFFFFFFFFFFFFF MUL NOT AND SWAP1 DUP4 PUSH20 0xFFFFFFFFFFFFFFFFFFFFFFFFFFFFFFFFFFFFFFFF AND MUL OR SWAP1 SSTORE POP PUSH1 0x1 PUSH1 0x3 PUSH0 PUSH1 0x2 DUP5 PUSH1 0x2 DUP1 SLOAD SWAP1 POP SUB DUP2 SLOAD DUP2 LT PUSH2 0x5D50 JUMPI PUSH2 0x5D4F PUSH2 0x7F20 JUMP JUMPDEST JUMPDEST SWAP1 PUSH0 MSTORE PUSH1 0x20 PUSH0 KECCAK256 ADD PUSH0 SWAP1 SLOAD SWAP1 PUSH2 0x100 EXP SWAP1 DIV PUSH20 0xFFFFFFFFFFFFFFFFFFFFFFFFFFFFFFFFFFFFFFFF AND PUSH20 0xFFFFFFFFFFFFFFFFFFFFFFFFFFFFFFFFFFFFFFFF AND PUSH20 0xFFFFFFFFFFFFFFFFFFFFFFFFFFFFFFFFFFFFFFFF AND DUP2 MSTORE PUSH1 0x20 ADD SWAP1 DUP2 MSTORE PUSH1 0x20 ADD PUSH0 KECCAK256 PUSH1 0x5 ADD PUSH0 PUSH2 0x100 EXP DUP2 SLOAD DUP2 PUSH1 0xFF MUL NOT AND SWAP1 DUP4 ISZERO ISZERO MUL OR SWAP1 SSTORE POP DUP1 DUP1 PUSH1 0x1 ADD SWAP2 POP POP PUSH2 0x5A34 JUMP JUMPDEST POP PUSH1 0x1 PUSH1 0x3A PUSH0 PUSH2 0x100 EXP DUP2 SLOAD DUP2 PUSH1 0xFF MUL NOT AND SWAP1 DUP4 ISZERO ISZERO MUL OR SWAP1 SSTORE POP PUSH1 0x8 PUSH0 PUSH1 0x32 DUP2 LT PUSH2 0x5E06 JUMPI PUSH2 0x5E05 PUSH2 0x7F20 JUMP JUMPDEST JUMPDEST ADD PUSH0 SWAP1 SLOAD SWAP1 PUSH2 0x100 EXP SWAP1 DIV PUSH20 0xFFFFFFFFFFFFFFFFFFFFFFFFFFFFFFFFFFFFFFFF AND PUSH1 0x3A PUSH1 0x1 PUSH2 0x100 EXP DUP2 SLOAD DUP2 PUSH20 0xFFFFFFFFFFFFFFFFFFFFFFFFFFFFFFFFFFFFFFFF MUL NOT AND SWAP1 DUP4 PUSH20 0xFFFFFFFFFFFFFFFFFFFFFFFFFFFFFFFFFFFFFFFF AND MUL OR SWAP1 SSTORE POP PUSH0 PUSH1 0x3B DUP2 SWAP1 SSTORE POP TIMESTAMP PUSH1 0x3 PUSH0 PUSH1 0x3A PUSH1 0x1 SWAP1 SLOAD SWAP1 PUSH2 0x100 EXP SWAP1 DIV PUSH20 0xFFFFFFFFFFFFFFFFFFFFFFFFFFFFFFFFFFFFFFFF AND PUSH20 0xFFFFFFFFFFFFFFFFFFFFFFFFFFFFFFFFFFFFFFFF AND PUSH20 0xFFFFFFFFFFFFFFFFFFFFFFFFFFFFFFFFFFFFFFFF AND DUP2 MSTORE PUSH1 0x20 ADD SWAP1 DUP2 MSTORE PUSH1 0x20 ADD PUSH0 KECCAK256 PUSH1 0x6 ADD DUP2 SWAP1 SSTORE POP PUSH1 0x8 PUSH1 0x40 MLOAD PUSH2 0x5EE4 SWAP2 SWAP1 PUSH2 0x9D24 JUMP JUMPDEST PUSH1 0x40 MLOAD DUP1 SWAP2 SUB SWAP1 KECCAK256 PUSH32 0x5BEFB7B9346D2ADF55904A87BBD0D35BCEDE9D28085A00C081C6168AC5ED6C44 PUSH1 0x3A PUSH1 0x1 SWAP1 SLOAD SWAP1 PUSH2 0x100 EXP SWAP1 DIV PUSH20 0xFFFFFFFFFFFFFFFFFFFFFFFFFFFFFFFFFFFFFFFF AND PUSH1 0x40 MLOAD PUSH2 0x5F3D SWAP2 SWAP1 PUSH2 0x71B2 JUMP JUMPDEST PUSH1 0x40 MLOAD DUP1 SWAP2 SUB SWAP1 LOG2 PUSH1 0x8 PUSH1 0x32 DUP1 PUSH1 0x20 MUL PUSH1 0x40 MLOAD SWAP1 DUP2 ADD PUSH1 0x40 MSTORE DUP1 SWAP3 SWAP2 SWAP1 DUP3 PUSH1 0x32 DUP1 ISZERO PUSH2 0x5FB3 JUMPI PUSH1 0x20 MUL DUP3 ADD SWAP2 JUMPDEST DUP2 PUSH0 SWAP1 SLOAD SWAP1 PUSH2 0x100 EXP SWAP1 DIV PUSH20 0xFFFFFFFFFFFFFFFFFFFFFFFFFFFFFFFFFFFFFFFF AND PUSH20 0xFFFFFFFFFFFFFFFFFFFFFFFFFFFFFFFFFFFFFFFF AND DUP2 MSTORE PUSH1 0x20 ADD SWAP1 PUSH1 0x1 ADD SWAP1 DUP1 DUP4 GT PUSH2 0x5F6A JUMPI JUMPDEST POP POP POP POP POP SWAP1 POP JUMPDEST SWAP1 JUMP JUMPDEST PUSH1 0x42 SLOAD DUP2 JUMP JUMPDEST PUSH1 0x47 DUP2 DUP2 SLOAD DUP2 LT PUSH2 0x5FD3 JUMPI PUSH0 DUP1 REVERT JUMPDEST SWAP1 PUSH0 MSTORE PUSH1 0x20 PUSH0 KECCAK256 SWAP1 PUSH1 0x2 MUL ADD PUSH0 SWAP2 POP SWAP1 POP DUP1 PUSH0 ADD SLOAD SWAP1 DUP1 PUSH1 0x1 ADD SLOAD SWAP1 POP DUP3 JUMP JUMPDEST PUSH2 0x5FFB PUSH2 0x653A JUMP JUMPDEST PUSH1 0x3E DUP1 SLOAD SWAP1 POP DUP3 LT PUSH2 0x6042 JUMPI PUSH1 0x40 MLOAD PUSH32 0x8C379A000000000000000000000000000000000000000000000000000000000 DUP2 MSTORE PUSH1 0x4 ADD PUSH2 0x6039 SWAP1 PUSH2 0x9D89 JUMP JUMPDEST PUSH1 0x40 MLOAD DUP1 SWAP2 SUB SWAP1 REVERT JUMPDEST PUSH1 0x3E DUP3 DUP2 SLOAD DUP2 LT PUSH2 0x6056 JUMPI PUSH2 0x6055 PUSH2 0x7F20 JUMP JUMPDEST JUMPDEST SWAP1 PUSH0 MSTORE PUSH1 0x20 PUSH0 KECCAK256 SWAP1 PUSH1 0x8 MUL ADD PUSH1 0x40 MLOAD DUP1 PUSH2 0x100 ADD PUSH1 0x40 MSTORE SWAP1 DUP2 PUSH0 DUP3 ADD DUP1 SLOAD PUSH2 0x607D SWAP1 PUSH2 0x7B54 JUMP JUMPDEST DUP1 PUSH1 0x1F ADD PUSH1 0x20 DUP1 SWAP2 DIV MUL PUSH1 0x20 ADD PUSH1 0x40 MLOAD SWAP1 DUP2 ADD PUSH1 0x40 MSTORE DUP1 SWAP3 SWAP2 SWAP1 DUP2 DUP2 MSTORE PUSH1 0x20 ADD DUP3 DUP1 SLOAD PUSH2 0x60A9 SWAP1 PUSH2 0x7B54 JUMP JUMPDEST DUP1 ISZERO PUSH2 0x60F4 JUMPI DUP1 PUSH1 0x1F LT PUSH2 0x60CB JUMPI PUSH2 0x100 DUP1 DUP4 SLOAD DIV MUL DUP4 MSTORE SWAP2 PUSH1 0x20 ADD SWAP2 PUSH2 0x60F4 JUMP JUMPDEST DUP3 ADD SWAP2 SWAP1 PUSH0 MSTORE PUSH1 0x20 PUSH0 KECCAK256 SWAP1 JUMPDEST DUP2 SLOAD DUP2 MSTORE SWAP1 PUSH1 0x1 ADD SWAP1 PUSH1 0x20 ADD DUP1 DUP4 GT PUSH2 0x60D7 JUMPI DUP3 SWAP1 SUB PUSH1 0x1F AND DUP3 ADD SWAP2 JUMPDEST POP POP POP POP POP DUP2 MSTORE PUSH1 0x20 ADD PUSH1 0x1 DUP3 ADD DUP1 SLOAD PUSH2 0x610D SWAP1 PUSH2 0x7B54 JUMP JUMPDEST DUP1 PUSH1 0x1F ADD PUSH1 0x20 DUP1 SWAP2 DIV MUL PUSH1 0x20 ADD PUSH1 0x40 MLOAD SWAP1 DUP2 ADD PUSH1 0x40 MSTORE DUP1 SWAP3 SWAP2 SWAP1 DUP2 DUP2 MSTORE PUSH1 0x20 ADD DUP3 DUP1 SLOAD PUSH2 0x6139 SWAP1 PUSH2 0x7B54 JUMP JUMPDEST DUP1 ISZERO PUSH2 0x6184 JUMPI DUP1 PUSH1 0x1F LT PUSH2 0x615B JUMPI PUSH2 0x100 DUP1 DUP4 SLOAD DIV MUL DUP4 MSTORE SWAP2 PUSH1 0x20 ADD SWAP2 PUSH2 0x6184 JUMP JUMPDEST DUP3 ADD SWAP2 SWAP1 PUSH0 MSTORE PUSH1 0x20 PUSH0 KECCAK256 SWAP1 JUMPDEST DUP2 SLOAD DUP2 MSTORE SWAP1 PUSH1 0x1 ADD SWAP1 PUSH1 0x20 ADD DUP1 DUP4 GT PUSH2 0x6167 JUMPI DUP3 SWAP1 SUB PUSH1 0x1F AND DUP3 ADD SWAP2 JUMPDEST POP POP POP POP POP DUP2 MSTORE PUSH1 0x20 ADD PUSH1 0x2 DUP3 ADD DUP1 SLOAD PUSH2 0x619D SWAP1 PUSH2 0x7B54 JUMP JUMPDEST DUP1 PUSH1 0x1F ADD PUSH1 0x20 DUP1 SWAP2 DIV MUL PUSH1 0x20 ADD PUSH1 0x40 MLOAD SWAP1 DUP2 ADD PUSH1 0x40 MSTORE DUP1 SWAP3 SWAP2 SWAP1 DUP2 DUP2 MSTORE PUSH1 0x20 ADD DUP3 DUP1 SLOAD PUSH2 0x61C9 SWAP1 PUSH2 0x7B54 JUMP JUMPDEST DUP1 ISZERO PUSH2 0x6214 JUMPI DUP1 PUSH1 0x1F LT PUSH2 0x61EB JUMPI PUSH2 0x100 DUP1 DUP4 SLOAD DIV MUL DUP4 MSTORE SWAP2 PUSH1 0x20 ADD SWAP2 PUSH2 0x6214 JUMP JUMPDEST DUP3 ADD SWAP2 SWAP1 PUSH0 MSTORE PUSH1 0x20 PUSH0 KECCAK256 SWAP1 JUMPDEST DUP2 SLOAD DUP2 MSTORE SWAP1 PUSH1 0x1 ADD SWAP1 PUSH1 0x20 ADD DUP1 DUP4 GT PUSH2 0x61F7 JUMPI DUP3 SWAP1 SUB PUSH1 0x1F AND DUP3 ADD SWAP2 JUMPDEST POP POP POP POP POP DUP2 MSTORE PUSH1 0x20 ADD PUSH1 0x3 DUP3 ADD DUP1 SLOAD PUSH2 0x622D SWAP1 PUSH2 0x7B54 JUMP JUMPDEST DUP1 PUSH1 0x1F ADD PUSH1 0x20 DUP1 SWAP2 DIV MUL PUSH1 0x20 ADD PUSH1 0x40 MLOAD SWAP1 DUP2 ADD PUSH1 0x40 MSTORE DUP1 SWAP3 SWAP2 SWAP1 DUP2 DUP2 MSTORE PUSH1 0x20 ADD DUP3 DUP1 SLOAD PUSH2 0x6259 SWAP1 PUSH2 0x7B54 JUMP JUMPDEST DUP1 ISZERO PUSH2 0x62A4 JUMPI DUP1 PUSH1 0x1F LT PUSH2 0x627B JUMPI PUSH2 0x100 DUP1 DUP4 SLOAD DIV MUL DUP4 MSTORE SWAP2 PUSH1 0x20 ADD SWAP2 PUSH2 0x62A4 JUMP JUMPDEST DUP3 ADD SWAP2 SWAP1 PUSH0 MSTORE PUSH1 0x20 PUSH0 KECCAK256 SWAP1 JUMPDEST DUP2 SLOAD DUP2 MSTORE SWAP1 PUSH1 0x1 ADD SWAP1 PUSH1 0x20 ADD DUP1 DUP4 GT PUSH2 0x6287 JUMPI DUP3 SWAP1 SUB PUSH1 0x1F AND DUP3 ADD SWAP2 JUMPDEST POP POP POP POP POP DUP2 MSTORE PUSH1 0x20 ADD PUSH1 0x4 DUP3 ADD SLOAD DUP2 MSTORE PUSH1 0x20 ADD PUSH1 0x5 DUP3 ADD DUP1 SLOAD PUSH2 0x62C7 SWAP1 PUSH2 0x7B54 JUMP JUMPDEST DUP1 PUSH1 0x1F ADD PUSH1 0x20 DUP1 SWAP2 DIV MUL PUSH1 0x20 ADD PUSH1 0x40 MLOAD SWAP1 DUP2 ADD PUSH1 0x40 MSTORE DUP1 SWAP3 SWAP2 SWAP1 DUP2 DUP2 MSTORE PUSH1 0x20 ADD DUP3 DUP1 SLOAD PUSH2 0x62F3 SWAP1 PUSH2 0x7B54 JUMP JUMPDEST DUP1 ISZERO PUSH2 0x633E JUMPI DUP1 PUSH1 0x1F LT PUSH2 0x6315 JUMPI PUSH2 0x100 DUP1 DUP4 SLOAD DIV MUL DUP4 MSTORE SWAP2 PUSH1 0x20 ADD SWAP2 PUSH2 0x633E JUMP JUMPDEST DUP3 ADD SWAP2 SWAP1 PUSH0 MSTORE PUSH1 0x20 PUSH0 KECCAK256 SWAP1 JUMPDEST DUP2 SLOAD DUP2 MSTORE SWAP1 PUSH1 0x1 ADD SWAP1 PUSH1 0x20 ADD DUP1 DUP4 GT PUSH2 0x6321 JUMPI DUP3 SWAP1 SUB PUSH1 0x1F AND DUP3 ADD SWAP2 JUMPDEST POP POP POP POP POP DUP2 MSTORE PUSH1 0x20 ADD PUSH1 0x6 DUP3 ADD SLOAD DUP2 MSTORE PUSH1 0x20 ADD PUSH1 0x7 DUP3 ADD SLOAD DUP2 MSTORE POP POP SWAP1 POP SWAP2 SWAP1 POP JUMP JUMPDEST PUSH1 0x46 SLOAD DUP2 JUMP JUMPDEST PUSH0 PUSH1 0x4 DUP3 DUP2 SLOAD DUP2 LT PUSH2 0x637D JUMPI PUSH2 0x637C PUSH2 0x7F20 JUMP JUMPDEST JUMPDEST SWAP1 PUSH0 MSTORE PUSH1 0x20 PUSH0 KECCAK256 SWAP1 PUSH1 0x7 MUL ADD SWAP1 POP PUSH0 JUMPDEST DUP2 PUSH1 0x6 ADD DUP1 SLOAD SWAP1 POP DUP2 LT ISZERO PUSH2 0x6513 JUMPI PUSH0 DUP3 PUSH1 0x6 ADD DUP3 DUP2 SLOAD DUP2 LT PUSH2 0x63B3 JUMPI PUSH2 0x63B2 PUSH2 0x7F20 JUMP JUMPDEST JUMPDEST SWAP1 PUSH0 MSTORE PUSH1 0x20 PUSH0 KECCAK256 SWAP1 PUSH1 0x3 MUL ADD PUSH1 0x40 MLOAD DUP1 PUSH1 0x60 ADD PUSH1 0x40 MSTORE SWAP1 DUP2 PUSH0 DUP3 ADD SLOAD DUP2 MSTORE PUSH1 0x20 ADD PUSH1 0x1 DUP3 ADD PUSH0 SWAP1 SLOAD SWAP1 PUSH2 0x100 EXP SWAP1 DIV PUSH20 0xFFFFFFFFFFFFFFFFFFFFFFFFFFFFFFFFFFFFFFFF AND PUSH20 0xFFFFFFFFFFFFFFFFFFFFFFFFFFFFFFFFFFFFFFFF AND PUSH20 0xFFFFFFFFFFFFFFFFFFFFFFFFFFFFFFFFFFFFFFFF AND DUP2 MSTORE PUSH1 0x20 ADD PUSH1 0x2 DUP3 ADD DUP1 SLOAD PUSH2 0x6438 SWAP1 PUSH2 0x7B54 JUMP JUMPDEST DUP1 PUSH1 0x1F ADD PUSH1 0x20 DUP1 SWAP2 DIV MUL PUSH1 0x20 ADD PUSH1 0x40 MLOAD SWAP1 DUP2 ADD PUSH1 0x40 MSTORE DUP1 SWAP3 SWAP2 SWAP1 DUP2 DUP2 MSTORE PUSH1 0x20 ADD DUP3 DUP1 SLOAD PUSH2 0x6464 SWAP1 PUSH2 0x7B54 JUMP JUMPDEST DUP1 ISZERO PUSH2 0x64AF JUMPI DUP1 PUSH1 0x1F LT PUSH2 0x6486 JUMPI PUSH2 0x100 DUP1 DUP4 SLOAD DIV MUL DUP4 MSTORE SWAP2 PUSH1 0x20 ADD SWAP2 PUSH2 0x64AF JUMP JUMPDEST DUP3 ADD SWAP2 SWAP1 PUSH0 MSTORE PUSH1 0x20 PUSH0 KECCAK256 SWAP1 JUMPDEST DUP2 SLOAD DUP2 MSTORE SWAP1 PUSH1 0x1 ADD SWAP1 PUSH1 0x20 ADD DUP1 DUP4 GT PUSH2 0x6492 JUMPI DUP3 SWAP1 SUB PUSH1 0x1F AND DUP3 ADD SWAP2 JUMPDEST POP POP POP POP POP DUP2 MSTORE POP POP SWAP1 POP DUP1 PUSH1 0x20 ADD MLOAD PUSH20 0xFFFFFFFFFFFFFFFFFFFFFFFFFFFFFFFFFFFFFFFF AND PUSH2 0x8FC DUP3 PUSH0 ADD MLOAD SWAP1 DUP2 ISZERO MUL SWAP1 PUSH1 0x40 MLOAD PUSH0 PUSH1 0x40 MLOAD DUP1 DUP4 SUB DUP2 DUP6 DUP9 DUP9 CALL SWAP4 POP POP POP POP ISZERO DUP1 ISZERO PUSH2 0x6504 JUMPI RETURNDATASIZE PUSH0 DUP1 RETURNDATACOPY RETURNDATASIZE PUSH0 REVERT JUMPDEST POP POP DUP1 DUP1 PUSH1 0x1 ADD SWAP2 POP POP PUSH2 0x638D JUMP JUMPDEST POP POP POP JUMP JUMPDEST PUSH1 0x40 MLOAD DUP1 PUSH1 0x40 ADD PUSH1 0x40 MSTORE DUP1 PUSH1 0x2 SWAP1 PUSH1 0x20 DUP3 MUL DUP1 CALLDATASIZE DUP4 CALLDATACOPY DUP1 DUP3 ADD SWAP2 POP POP SWAP1 POP POP SWAP1 JUMP JUMPDEST PUSH1 0x40 MLOAD DUP1 PUSH2 0x100 ADD PUSH1 0x40 MSTORE DUP1 PUSH1 0x60 DUP2 MSTORE PUSH1 0x20 ADD PUSH1 0x60 DUP2 MSTORE PUSH1 0x20 ADD PUSH1 0x60 DUP2 MSTORE PUSH1 0x20 ADD PUSH1 0x60 DUP2 MSTORE PUSH1 0x20 ADD PUSH0 DUP1 NOT AND DUP2 MSTORE PUSH1 0x20 ADD PUSH1 0x60 DUP2 MSTORE PUSH1 0x20 ADD PUSH0 DUP2 MSTORE PUSH1 0x20 ADD PUSH0 DUP2 MSTORE POP SWAP1 JUMP JUMPDEST PUSH1 0x40 MLOAD DUP1 PUSH1 0xE0 ADD PUSH1 0x40 MSTORE DUP1 PUSH1 0x60 DUP2 MSTORE PUSH1 0x20 ADD PUSH1 0x60 DUP2 MSTORE PUSH1 0x20 ADD PUSH1 0x60 DUP2 MSTORE PUSH1 0x20 ADD PUSH0 DUP2 MSTORE PUSH1 0x20 ADD PUSH0 DUP2 MSTORE PUSH1 0x20 ADD PUSH0 ISZERO ISZERO DUP2 MSTORE PUSH1 0x20 ADD PUSH0 DUP2 MSTORE POP SWAP1 JUMP JUMPDEST PUSH1 0x40 MLOAD DUP1 PUSH1 0xE0 ADD PUSH1 0x40 MSTORE DUP1 PUSH0 PUSH20 0xFFFFFFFFFFFFFFFFFFFFFFFFFFFFFFFFFFFFFFFF AND DUP2 MSTORE PUSH1 0x20 ADD PUSH1 0x60 DUP2 MSTORE PUSH1 0x20 ADD PUSH0 DUP2 MSTORE PUSH1 0x20 ADD PUSH0 DUP2 MSTORE PUSH1 0x20 ADD PUSH0 DUP2 MSTORE PUSH1 0x20 ADD PUSH0 PUSH1 0xFF AND DUP2 MSTORE PUSH1 0x20 ADD PUSH1 0x60 DUP2 MSTORE POP SWAP1 JUMP JUMPDEST PUSH1 0x40 MLOAD DUP1 PUSH2 0x640 ADD PUSH1 0x40 MSTORE DUP1 PUSH1 0x32 SWAP1 PUSH1 0x20 DUP3 MUL DUP1 CALLDATASIZE DUP4 CALLDATACOPY DUP1 DUP3 ADD SWAP2 POP POP SWAP1 POP POP SWAP1 JUMP JUMPDEST PUSH0 PUSH1 0x40 MLOAD SWAP1 POP SWAP1 JUMP JUMPDEST PUSH0 DUP1 REVERT JUMPDEST PUSH0 DUP1 REVERT JUMPDEST PUSH0 DUP1 REVERT JUMPDEST PUSH0 PUSH1 0x1F NOT PUSH1 0x1F DUP4 ADD AND SWAP1 POP SWAP2 SWAP1 POP JUMP JUMPDEST PUSH32 0x4E487B7100000000000000000000000000000000000000000000000000000000 PUSH0 MSTORE PUSH1 0x41 PUSH1 0x4 MSTORE PUSH1 0x24 PUSH0 REVERT JUMPDEST PUSH2 0x6689 DUP3 PUSH2 0x6643 JUMP JUMPDEST DUP2 ADD DUP2 DUP2 LT PUSH8 0xFFFFFFFFFFFFFFFF DUP3 GT OR ISZERO PUSH2 0x66A8 JUMPI PUSH2 0x66A7 PUSH2 0x6653 JUMP JUMPDEST JUMPDEST DUP1 PUSH1 0x40 MSTORE POP POP POP JUMP JUMPDEST PUSH0 PUSH2 0x66BA PUSH2 0x662E JUMP JUMPDEST SWAP1 POP PUSH2 0x66C6 DUP3 DUP3 PUSH2 0x6680 JUMP JUMPDEST SWAP2 SWAP1 POP JUMP JUMPDEST PUSH0 DUP1 REVERT JUMPDEST PUSH0 DUP1 REVERT JUMPDEST PUSH0 DUP1 REVERT JUMPDEST PUSH0 PUSH8 0xFFFFFFFFFFFFFFFF DUP3 GT ISZERO PUSH2 0x66F1 JUMPI PUSH2 0x66F0 PUSH2 0x6653 JUMP JUMPDEST JUMPDEST PUSH2 0x66FA DUP3 PUSH2 0x6643 JUMP JUMPDEST SWAP1 POP PUSH1 0x20 DUP2 ADD SWAP1 POP SWAP2 SWAP1 POP JUMP JUMPDEST DUP3 DUP2 DUP4 CALLDATACOPY PUSH0 DUP4 DUP4 ADD MSTORE POP POP POP JUMP JUMPDEST PUSH0 PUSH2 0x6727 PUSH2 0x6722 DUP5 PUSH2 0x66D7 JUMP JUMPDEST PUSH2 0x66B1 JUMP JUMPDEST SWAP1 POP DUP3 DUP2 MSTORE PUSH1 0x20 DUP2 ADD DUP5 DUP5 DUP5 ADD GT ISZERO PUSH2 0x6743 JUMPI PUSH2 0x6742 PUSH2 0x66D3 JUMP JUMPDEST JUMPDEST PUSH2 0x674E DUP5 DUP3 DUP6 PUSH2 0x6707 JUMP JUMPDEST POP SWAP4 SWAP3 POP POP POP JUMP JUMPDEST PUSH0 DUP3 PUSH1 0x1F DUP4 ADD SLT PUSH2 0x676A JUMPI PUSH2 0x6769 PUSH2 0x66CF JUMP JUMPDEST JUMPDEST DUP2 CALLDATALOAD PUSH2 0x677A DUP5 DUP3 PUSH1 0x20 DUP7 ADD PUSH2 0x6715 JUMP JUMPDEST SWAP2 POP POP SWAP3 SWAP2 POP POP JUMP JUMPDEST PUSH0 DUP2 SWAP1 POP SWAP2 SWAP1 POP JUMP JUMPDEST PUSH2 0x6795 DUP2 PUSH2 0x6783 JUMP JUMPDEST DUP2 EQ PUSH2 0x679F JUMPI PUSH0 DUP1 REVERT JUMPDEST POP JUMP JUMPDEST PUSH0 DUP2 CALLDATALOAD SWAP1 POP PUSH2 0x67B0 DUP2 PUSH2 0x678C JUMP JUMPDEST SWAP3 SWAP2 POP POP JUMP JUMPDEST PUSH0 DUP2 SWAP1 POP SWAP2 SWAP1 POP JUMP JUMPDEST PUSH2 0x67C8 DUP2 PUSH2 0x67B6 JUMP JUMPDEST DUP2 EQ PUSH2 0x67D2 JUMPI PUSH0 DUP1 REVERT JUMPDEST POP JUMP JUMPDEST PUSH0 DUP2 CALLDATALOAD SWAP1 POP PUSH2 0x67E3 DUP2 PUSH2 0x67BF JUMP JUMPDEST SWAP3 SWAP2 POP POP JUMP JUMPDEST PUSH0 PUSH2 0x100 DUP3 DUP5 SUB SLT ISZERO PUSH2 0x67FF JUMPI PUSH2 0x67FE PUSH2 0x663F JUMP JUMPDEST JUMPDEST PUSH2 0x680A PUSH2 0x100 PUSH2 0x66B1 JUMP JUMPDEST SWAP1 POP PUSH0 DUP3 ADD CALLDATALOAD PUSH8 0xFFFFFFFFFFFFFFFF DUP2 GT ISZERO PUSH2 0x6829 JUMPI PUSH2 0x6828 PUSH2 0x66CB JUMP JUMPDEST JUMPDEST PUSH2 0x6835 DUP5 DUP3 DUP6 ADD PUSH2 0x6756 JUMP JUMPDEST PUSH0 DUP4 ADD MSTORE POP PUSH1 0x20 DUP3 ADD CALLDATALOAD PUSH8 0xFFFFFFFFFFFFFFFF DUP2 GT ISZERO PUSH2 0x6858 JUMPI PUSH2 0x6857 PUSH2 0x66CB JUMP JUMPDEST JUMPDEST PUSH2 0x6864 DUP5 DUP3 DUP6 ADD PUSH2 0x6756 JUMP JUMPDEST PUSH1 0x20 DUP4 ADD MSTORE POP PUSH1 0x40 DUP3 ADD CALLDATALOAD PUSH8 0xFFFFFFFFFFFFFFFF DUP2 GT ISZERO PUSH2 0x6888 JUMPI PUSH2 0x6887 PUSH2 0x66CB JUMP JUMPDEST JUMPDEST PUSH2 0x6894 DUP5 DUP3 DUP6 ADD PUSH2 0x6756 JUMP JUMPDEST PUSH1 0x40 DUP4 ADD MSTORE POP PUSH1 0x60 DUP3 ADD CALLDATALOAD PUSH8 0xFFFFFFFFFFFFFFFF DUP2 GT ISZERO PUSH2 0x68B8 JUMPI PUSH2 0x68B7 PUSH2 0x66CB JUMP JUMPDEST JUMPDEST PUSH2 0x68C4 DUP5 DUP3 DUP6 ADD PUSH2 0x6756 JUMP JUMPDEST PUSH1 0x60 DUP4 ADD MSTORE POP PUSH1 0x80 PUSH2 0x68D8 DUP5 DUP3 DUP6 ADD PUSH2 0x67A2 JUMP JUMPDEST PUSH1 0x80 DUP4 ADD MSTORE POP PUSH1 0xA0 DUP3 ADD CALLDATALOAD PUSH8 0xFFFFFFFFFFFFFFFF DUP2 GT ISZERO PUSH2 0x68FC JUMPI PUSH2 0x68FB PUSH2 0x66CB JUMP JUMPDEST JUMPDEST PUSH2 0x6908 DUP5 DUP3 DUP6 ADD PUSH2 0x6756 JUMP JUMPDEST PUSH1 0xA0 DUP4 ADD MSTORE POP PUSH1 0xC0 PUSH2 0x691C DUP5 DUP3 DUP6 ADD PUSH2 0x67D5 JUMP JUMPDEST PUSH1 0xC0 DUP4 ADD MSTORE POP PUSH1 0xE0 PUSH2 0x6930 DUP5 DUP3 DUP6 ADD PUSH2 0x67D5 JUMP JUMPDEST PUSH1 0xE0 DUP4 ADD MSTORE POP SWAP3 SWAP2 POP POP JUMP JUMPDEST PUSH0 PUSH1 0x20 DUP3 DUP5 SUB SLT ISZERO PUSH2 0x6951 JUMPI PUSH2 0x6950 PUSH2 0x6637 JUMP JUMPDEST JUMPDEST PUSH0 DUP3 ADD CALLDATALOAD PUSH8 0xFFFFFFFFFFFFFFFF DUP2 GT ISZERO PUSH2 0x696E JUMPI PUSH2 0x696D PUSH2 0x663B JUMP JUMPDEST JUMPDEST PUSH2 0x697A DUP5 DUP3 DUP6 ADD PUSH2 0x67E9 JUMP JUMPDEST SWAP2 POP POP SWAP3 SWAP2 POP POP JUMP JUMPDEST PUSH0 PUSH1 0x20 DUP3 DUP5 SUB SLT ISZERO PUSH2 0x6998 JUMPI PUSH2 0x6997 PUSH2 0x6637 JUMP JUMPDEST JUMPDEST PUSH0 PUSH2 0x69A5 DUP5 DUP3 DUP6 ADD PUSH2 0x67D5 JUMP JUMPDEST SWAP2 POP POP SWAP3 SWAP2 POP POP JUMP JUMPDEST PUSH0 PUSH20 0xFFFFFFFFFFFFFFFFFFFFFFFFFFFFFFFFFFFFFFFF DUP3 AND SWAP1 POP SWAP2 SWAP1 POP JUMP JUMPDEST PUSH0 PUSH2 0x69D7 DUP3 PUSH2 0x69AE JUMP JUMPDEST SWAP1 POP SWAP2 SWAP1 POP JUMP JUMPDEST PUSH2 0x69E7 DUP2 PUSH2 0x69CD JUMP JUMPDEST DUP3 MSTORE POP POP JUMP JUMPDEST PUSH0 DUP2 MLOAD SWAP1 POP SWAP2 SWAP1 POP JUMP JUMPDEST PUSH0 DUP3 DUP3 MSTORE PUSH1 0x20 DUP3 ADD SWAP1 POP SWAP3 SWAP2 POP POP JUMP JUMPDEST DUP3 DUP2 DUP4 MCOPY PUSH0 DUP4 DUP4 ADD MSTORE POP POP POP JUMP JUMPDEST PUSH0 PUSH2 0x6A1F DUP3 PUSH2 0x69ED JUMP JUMPDEST PUSH2 0x6A29 DUP2 DUP6 PUSH2 0x69F7 JUMP JUMPDEST SWAP4 POP PUSH2 0x6A39 DUP2 DUP6 PUSH1 0x20 DUP7 ADD PUSH2 0x6A07 JUMP JUMPDEST PUSH2 0x6A42 DUP2 PUSH2 0x6643 JUMP JUMPDEST DUP5 ADD SWAP2 POP POP SWAP3 SWAP2 POP POP JUMP JUMPDEST PUSH2 0x6A56 DUP2 PUSH2 0x67B6 JUMP JUMPDEST DUP3 MSTORE POP POP JUMP JUMPDEST PUSH0 PUSH1 0xFF DUP3 AND SWAP1 POP SWAP2 SWAP1 POP JUMP JUMPDEST PUSH2 0x6A71 DUP2 PUSH2 0x6A5C JUMP JUMPDEST DUP3 MSTORE POP POP JUMP JUMPDEST PUSH0 PUSH1 0xC0 DUP3 ADD SWAP1 POP PUSH2 0x6A8A PUSH0 DUP4 ADD DUP10 PUSH2 0x69DE JUMP JUMPDEST DUP2 DUP2 SUB PUSH1 0x20 DUP4 ADD MSTORE PUSH2 0x6A9C DUP2 DUP9 PUSH2 0x6A15 JUMP JUMPDEST SWAP1 POP PUSH2 0x6AAB PUSH1 0x40 DUP4 ADD DUP8 PUSH2 0x6A4D JUMP JUMPDEST PUSH2 0x6AB8 PUSH1 0x60 DUP4 ADD DUP7 PUSH2 0x6A4D JUMP JUMPDEST PUSH2 0x6AC5 PUSH1 0x80 DUP4 ADD DUP6 PUSH2 0x6A4D JUMP JUMPDEST PUSH2 0x6AD2 PUSH1 0xA0 DUP4 ADD DUP5 PUSH2 0x6A68 JUMP JUMPDEST SWAP8 SWAP7 POP POP POP POP POP POP POP JUMP JUMPDEST PUSH0 PUSH1 0x20 DUP3 ADD SWAP1 POP PUSH2 0x6AF0 PUSH0 DUP4 ADD DUP5 PUSH2 0x6A68 JUMP JUMPDEST SWAP3 SWAP2 POP POP JUMP JUMPDEST PUSH2 0x6AFF DUP2 PUSH2 0x69CD JUMP JUMPDEST DUP2 EQ PUSH2 0x6B09 JUMPI PUSH0 DUP1 REVERT JUMPDEST POP JUMP JUMPDEST PUSH0 DUP2 CALLDATALOAD SWAP1 POP PUSH2 0x6B1A DUP2 PUSH2 0x6AF6 JUMP JUMPDEST SWAP3 SWAP2 POP POP JUMP JUMPDEST PUSH0 DUP1 PUSH1 0x40 DUP4 DUP6 SUB SLT ISZERO PUSH2 0x6B36 JUMPI PUSH2 0x6B35 PUSH2 0x6637 JUMP JUMPDEST JUMPDEST PUSH0 PUSH2 0x6B43 DUP6 DUP3 DUP7 ADD PUSH2 0x6B0C JUMP JUMPDEST SWAP3 POP POP PUSH1 0x20 PUSH2 0x6B54 DUP6 DUP3 DUP7 ADD PUSH2 0x6B0C JUMP JUMPDEST SWAP2 POP POP SWAP3 POP SWAP3 SWAP1 POP JUMP JUMPDEST PUSH0 DUP2 PUSH0 SIGNEXTEND SWAP1 POP SWAP2 SWAP1 POP JUMP JUMPDEST PUSH2 0x6B72 DUP2 PUSH2 0x6B5E JUMP JUMPDEST DUP3 MSTORE POP POP JUMP JUMPDEST PUSH0 PUSH1 0x20 DUP3 ADD SWAP1 POP PUSH2 0x6B8B PUSH0 DUP4 ADD DUP5 PUSH2 0x6B69 JUMP JUMPDEST SWAP3 SWAP2 POP POP JUMP JUMPDEST PUSH0 DUP1 PUSH0 PUSH1 0x60 DUP5 DUP7 SUB SLT ISZERO PUSH2 0x6BA8 JUMPI PUSH2 0x6BA7 PUSH2 0x6637 JUMP JUMPDEST JUMPDEST PUSH0 DUP5 ADD CALLDATALOAD PUSH8 0xFFFFFFFFFFFFFFFF DUP2 GT ISZERO PUSH2 0x6BC5 JUMPI PUSH2 0x6BC4 PUSH2 0x663B JUMP JUMPDEST JUMPDEST PUSH2 0x6BD1 DUP7 DUP3 DUP8 ADD PUSH2 0x6756 JUMP JUMPDEST SWAP4 POP POP PUSH1 0x20 DUP5 ADD CALLDATALOAD PUSH8 0xFFFFFFFFFFFFFFFF DUP2 GT ISZERO PUSH2 0x6BF2 JUMPI PUSH2 0x6BF1 PUSH2 0x663B JUMP JUMPDEST JUMPDEST PUSH2 0x6BFE DUP7 DUP3 DUP8 ADD PUSH2 0x6756 JUMP JUMPDEST SWAP3 POP POP PUSH1 0x40 DUP5 ADD CALLDATALOAD PUSH8 0xFFFFFFFFFFFFFFFF DUP2 GT ISZERO PUSH2 0x6C1F JUMPI PUSH2 0x6C1E PUSH2 0x663B JUMP JUMPDEST JUMPDEST PUSH2 0x6C2B DUP7 DUP3 DUP8 ADD PUSH2 0x6756 JUMP JUMPDEST SWAP2 POP POP SWAP3 POP SWAP3 POP SWAP3 JUMP JUMPDEST PUSH0 DUP2 ISZERO ISZERO SWAP1 POP SWAP2 SWAP1 POP JUMP JUMPDEST PUSH2 0x6C49 DUP2 PUSH2 0x6C35 JUMP JUMPDEST DUP3 MSTORE POP POP JUMP JUMPDEST PUSH0 PUSH1 0x20 DUP3 ADD SWAP1 POP PUSH2 0x6C62 PUSH0 DUP4 ADD DUP5 PUSH2 0x6C40 JUMP JUMPDEST SWAP3 SWAP2 POP POP JUMP JUMPDEST PUSH0 PUSH1 0x20 DUP3 DUP5 SUB SLT ISZERO PUSH2 0x6C7D JUMPI PUSH2 0x6C7C PUSH2 0x6637 JUMP JUMPDEST JUMPDEST PUSH0 PUSH2 0x6C8A DUP5 DUP3 DUP6 ADD PUSH2 0x67A2 JUMP JUMPDEST SWAP2 POP POP SWAP3 SWAP2 POP POP JUMP JUMPDEST PUSH0 PUSH1 0x2 SWAP1 POP SWAP2 SWAP1 POP JUMP JUMPDEST PUSH0 DUP2 SWAP1 POP SWAP3 SWAP2 POP POP JUMP JUMPDEST PUSH0 DUP2 SWAP1 POP SWAP2 SWAP1 POP JUMP JUMPDEST PUSH2 0x6CB9 DUP2 PUSH2 0x69CD JUMP JUMPDEST DUP3 MSTORE POP POP JUMP JUMPDEST PUSH0 PUSH2 0x6CCA DUP4 DUP4 PUSH2 0x6CB0 JUMP JUMPDEST PUSH1 0x20 DUP4 ADD SWAP1 POP SWAP3 SWAP2 POP POP JUMP JUMPDEST PUSH0 PUSH1 0x20 DUP3 ADD SWAP1 POP SWAP2 SWAP1 POP JUMP JUMPDEST PUSH2 0x6CEB DUP2 PUSH2 0x6C93 JUMP JUMPDEST PUSH2 0x6CF5 DUP2 DUP5 PUSH2 0x6C9D JUMP JUMPDEST SWAP3 POP PUSH2 0x6D00 DUP3 PUSH2 0x6CA7 JUMP JUMPDEST DUP1 PUSH0 JUMPDEST DUP4 DUP2 LT ISZERO PUSH2 0x6D30 JUMPI DUP2 MLOAD PUSH2 0x6D17 DUP8 DUP3 PUSH2 0x6CBF JUMP JUMPDEST SWAP7 POP PUSH2 0x6D22 DUP4 PUSH2 0x6CD6 JUMP JUMPDEST SWAP3 POP POP PUSH1 0x1 DUP2 ADD SWAP1 POP PUSH2 0x6D03 JUMP JUMPDEST POP POP POP POP POP POP JUMP JUMPDEST PUSH0 PUSH1 0x40 DUP3 ADD SWAP1 POP PUSH2 0x6D4B PUSH0 DUP4 ADD DUP5 PUSH2 0x6CE2 JUMP JUMPDEST SWAP3 SWAP2 POP POP JUMP JUMPDEST PUSH0 DUP2 SWAP1 POP SWAP2 SWAP1 POP JUMP JUMPDEST PUSH2 0x6D63 DUP2 PUSH2 0x6D51 JUMP JUMPDEST DUP3 MSTORE POP POP JUMP JUMPDEST PUSH0 PUSH1 0x20 DUP3 ADD SWAP1 POP PUSH2 0x6D7C PUSH0 DUP4 ADD DUP5 PUSH2 0x6D5A JUMP JUMPDEST SWAP3 SWAP2 POP POP JUMP JUMPDEST PUSH0 PUSH1 0x20 DUP3 ADD SWAP1 POP PUSH2 0x6D95 PUSH0 DUP4 ADD DUP5 PUSH2 0x6A4D JUMP JUMPDEST SWAP3 SWAP2 POP POP JUMP JUMPDEST PUSH0 DUP1 PUSH1 0x40 DUP4 DUP6 SUB SLT ISZERO PUSH2 0x6DB1 JUMPI PUSH2 0x6DB0 PUSH2 0x6637 JUMP JUMPDEST JUMPDEST PUSH0 PUSH2 0x6DBE DUP6 DUP3 DUP7 ADD PUSH2 0x6B0C JUMP JUMPDEST SWAP3 POP POP PUSH1 0x20 PUSH2 0x6DCF DUP6 DUP3 DUP7 ADD PUSH2 0x67D5 JUMP JUMPDEST SWAP2 POP POP SWAP3 POP SWAP3 SWAP1 POP JUMP JUMPDEST PUSH0 DUP1 REVERT JUMPDEST PUSH0 DUP2 SWAP1 POP DUP3 PUSH1 0x20 PUSH1 0xA MUL DUP3 ADD GT ISZERO PUSH2 0x6DF8 JUMPI PUSH2 0x6DF7 PUSH2 0x6DD9 JUMP JUMPDEST JUMPDEST SWAP3 SWAP2 POP POP JUMP JUMPDEST PUSH0 DUP2 SWAP1 POP DUP3 PUSH1 0x20 PUSH1 0xA MUL DUP3 ADD GT ISZERO PUSH2 0x6E19 JUMPI PUSH2 0x6E18 PUSH2 0x6DD9 JUMP JUMPDEST JUMPDEST SWAP3 SWAP2 POP POP JUMP JUMPDEST PUSH0 DUP1 PUSH2 0x280 DUP4 DUP6 SUB SLT ISZERO PUSH2 0x6E36 JUMPI PUSH2 0x6E35 PUSH2 0x6637 JUMP JUMPDEST JUMPDEST PUSH0 PUSH2 0x6E43 DUP6 DUP3 DUP7 ADD PUSH2 0x6DDD JUMP JUMPDEST SWAP3 POP POP PUSH2 0x140 PUSH2 0x6E55 DUP6 DUP3 DUP7 ADD PUSH2 0x6DFE JUMP JUMPDEST SWAP2 POP POP SWAP3 POP SWAP3 SWAP1 POP JUMP JUMPDEST PUSH2 0x6E68 DUP2 PUSH2 0x6B5E JUMP JUMPDEST DUP2 EQ PUSH2 0x6E72 JUMPI PUSH0 DUP1 REVERT JUMPDEST POP JUMP JUMPDEST PUSH0 DUP2 CALLDATALOAD SWAP1 POP PUSH2 0x6E83 DUP2 PUSH2 0x6E5F JUMP JUMPDEST SWAP3 SWAP2 POP POP JUMP JUMPDEST PUSH0 DUP1 PUSH1 0x40 DUP4 DUP6 SUB SLT ISZERO PUSH2 0x6E9F JUMPI PUSH2 0x6E9E PUSH2 0x6637 JUMP JUMPDEST JUMPDEST PUSH0 PUSH2 0x6EAC DUP6 DUP3 DUP7 ADD PUSH2 0x6B0C JUMP JUMPDEST SWAP3 POP POP PUSH1 0x20 PUSH2 0x6EBD DUP6 DUP3 DUP7 ADD PUSH2 0x6E75 JUMP JUMPDEST SWAP2 POP POP SWAP3 POP SWAP3 SWAP1 POP JUMP JUMPDEST PUSH0 PUSH1 0x20 DUP3 DUP5 SUB SLT ISZERO PUSH2 0x6EDC JUMPI PUSH2 0x6EDB PUSH2 0x6637 JUMP JUMPDEST JUMPDEST PUSH0 PUSH2 0x6EE9 DUP5 DUP3 DUP6 ADD PUSH2 0x6B0C JUMP JUMPDEST SWAP2 POP POP SWAP3 SWAP2 POP POP JUMP JUMPDEST PUSH0 DUP1 REVERT JUMPDEST PUSH0 DUP1 DUP4 PUSH1 0x1F DUP5 ADD SLT PUSH2 0x6F0B JUMPI PUSH2 0x6F0A PUSH2 0x66CF JUMP JUMPDEST JUMPDEST DUP3 CALLDATALOAD SWAP1 POP PUSH8 0xFFFFFFFFFFFFFFFF DUP2 GT ISZERO PUSH2 0x6F28 JUMPI PUSH2 0x6F27 PUSH2 0x6EF2 JUMP JUMPDEST JUMPDEST PUSH1 0x20 DUP4 ADD SWAP2 POP DUP4 PUSH1 0x1 DUP3 MUL DUP4 ADD GT ISZERO PUSH2 0x6F44 JUMPI PUSH2 0x6F43 PUSH2 0x6DD9 JUMP JUMPDEST JUMPDEST SWAP3 POP SWAP3 SWAP1 POP JUMP JUMPDEST PUSH0 DUP1 DUP4 PUSH1 0x1F DUP5 ADD SLT PUSH2 0x6F60 JUMPI PUSH2 0x6F5F PUSH2 0x66CF JUMP JUMPDEST JUMPDEST DUP3 CALLDATALOAD SWAP1 POP PUSH8 0xFFFFFFFFFFFFFFFF DUP2 GT ISZERO PUSH2 0x6F7D JUMPI PUSH2 0x6F7C PUSH2 0x6EF2 JUMP JUMPDEST JUMPDEST PUSH1 0x20 DUP4 ADD SWAP2 POP DUP4 PUSH1 0x20 DUP3 MUL DUP4 ADD GT ISZERO PUSH2 0x6F99 JUMPI PUSH2 0x6F98 PUSH2 0x6DD9 JUMP JUMPDEST JUMPDEST SWAP3 POP SWAP3 SWAP1 POP JUMP JUMPDEST PUSH0 DUP1 PUSH0 DUP1 PUSH1 0x40 DUP6 DUP8 SUB SLT ISZERO PUSH2 0x6FB8 JUMPI PUSH2 0x6FB7 PUSH2 0x6637 JUMP JUMPDEST JUMPDEST PUSH0 DUP6 ADD CALLDATALOAD PUSH8 0xFFFFFFFFFFFFFFFF DUP2 GT ISZERO PUSH2 0x6FD5 JUMPI PUSH2 0x6FD4 PUSH2 0x663B JUMP JUMPDEST JUMPDEST PUSH2 0x6FE1 DUP8 DUP3 DUP9 ADD PUSH2 0x6EF6 JUMP JUMPDEST SWAP5 POP SWAP5 POP POP PUSH1 0x20 DUP6 ADD CALLDATALOAD PUSH8 0xFFFFFFFFFFFFFFFF DUP2 GT ISZERO PUSH2 0x7004 JUMPI PUSH2 0x7003 PUSH2 0x663B JUMP JUMPDEST JUMPDEST PUSH2 0x7010 DUP8 DUP3 DUP9 ADD PUSH2 0x6F4B JUMP JUMPDEST SWAP3 POP SWAP3 POP POP SWAP3 SWAP6 SWAP2 SWAP5 POP SWAP3 POP JUMP JUMPDEST PUSH0 PUSH4 0xFFFFFFFF DUP3 AND SWAP1 POP SWAP2 SWAP1 POP JUMP JUMPDEST PUSH2 0x7036 DUP2 PUSH2 0x701E JUMP JUMPDEST DUP3 MSTORE POP POP JUMP JUMPDEST PUSH0 PUSH1 0x20 DUP3 ADD SWAP1 POP PUSH2 0x704F PUSH0 DUP4 ADD DUP5 PUSH2 0x702D JUMP JUMPDEST SWAP3 SWAP2 POP POP JUMP JUMPDEST PUSH0 DUP3 DUP3 MSTORE PUSH1 0x20 DUP3 ADD SWAP1 POP SWAP3 SWAP2 POP POP JUMP JUMPDEST PUSH0 PUSH2 0x706F DUP3 PUSH2 0x69ED JUMP JUMPDEST PUSH2 0x7079 DUP2 DUP6 PUSH2 0x7055 JUMP JUMPDEST SWAP4 POP PUSH2 0x7089 DUP2 DUP6 PUSH1 0x20 DUP7 ADD PUSH2 0x6A07 JUMP JUMPDEST PUSH2 0x7092 DUP2 PUSH2 0x6643 JUMP JUMPDEST DUP5 ADD SWAP2 POP POP SWAP3 SWAP2 POP POP JUMP JUMPDEST PUSH2 0x70A6 DUP2 PUSH2 0x6783 JUMP JUMPDEST DUP3 MSTORE POP POP JUMP JUMPDEST PUSH2 0x70B5 DUP2 PUSH2 0x67B6 JUMP JUMPDEST DUP3 MSTORE POP POP JUMP JUMPDEST PUSH0 PUSH2 0x100 DUP4 ADD PUSH0 DUP4 ADD MLOAD DUP5 DUP3 SUB PUSH0 DUP7 ADD MSTORE PUSH2 0x70D6 DUP3 DUP3 PUSH2 0x7065 JUMP JUMPDEST SWAP2 POP POP PUSH1 0x20 DUP4 ADD MLOAD DUP5 DUP3 SUB PUSH1 0x20 DUP7 ADD MSTORE PUSH2 0x70F0 DUP3 DUP3 PUSH2 0x7065 JUMP JUMPDEST SWAP2 POP POP PUSH1 0x40 DUP4 ADD MLOAD DUP5 DUP3 SUB PUSH1 0x40 DUP7 ADD MSTORE PUSH2 0x710A DUP3 DUP3 PUSH2 0x7065 JUMP JUMPDEST SWAP2 POP POP PUSH1 0x60 DUP4 ADD MLOAD DUP5 DUP3 SUB PUSH1 0x60 DUP7 ADD MSTORE PUSH2 0x7124 DUP3 DUP3 PUSH2 0x7065 JUMP JUMPDEST SWAP2 POP POP PUSH1 0x80 DUP4 ADD MLOAD PUSH2 0x7139 PUSH1 0x80 DUP7 ADD DUP3 PUSH2 0x709D JUMP JUMPDEST POP PUSH1 0xA0 DUP4 ADD MLOAD DUP5 DUP3 SUB PUSH1 0xA0 DUP7 ADD MSTORE PUSH2 0x7151 DUP3 DUP3 PUSH2 0x7065 JUMP JUMPDEST SWAP2 POP POP PUSH1 0xC0 DUP4 ADD MLOAD PUSH2 0x7166 PUSH1 0xC0 DUP7 ADD DUP3 PUSH2 0x70AC JUMP JUMPDEST POP PUSH1 0xE0 DUP4 ADD MLOAD PUSH2 0x7179 PUSH1 0xE0 DUP7 ADD DUP3 PUSH2 0x70AC JUMP JUMPDEST POP DUP1 SWAP2 POP POP SWAP3 SWAP2 POP POP JUMP JUMPDEST PUSH0 PUSH1 0x40 DUP3 ADD SWAP1 POP PUSH2 0x7197 PUSH0 DUP4 ADD DUP6 PUSH2 0x6A4D JUMP JUMPDEST DUP2 DUP2 SUB PUSH1 0x20 DUP4 ADD MSTORE PUSH2 0x71A9 DUP2 DUP5 PUSH2 0x70BB JUMP JUMPDEST SWAP1 POP SWAP4 SWAP3 POP POP POP JUMP JUMPDEST PUSH0 PUSH1 0x20 DUP3 ADD SWAP1 POP PUSH2 0x71C5 PUSH0 DUP4 ADD DUP5 PUSH2 0x69DE JUMP JUMPDEST SWAP3 SWAP2 POP POP JUMP JUMPDEST PUSH0 PUSH1 0x40 DUP3 ADD SWAP1 POP PUSH2 0x71DE PUSH0 DUP4 ADD DUP6 PUSH2 0x6D5A JUMP JUMPDEST PUSH2 0x71EB PUSH1 0x20 DUP4 ADD DUP5 PUSH2 0x6A4D JUMP JUMPDEST SWAP4 SWAP3 POP POP POP JUMP JUMPDEST PUSH2 0x71FB DUP2 PUSH2 0x6C35 JUMP JUMPDEST DUP3 MSTORE POP POP JUMP JUMPDEST PUSH0 PUSH1 0xE0 DUP4 ADD PUSH0 DUP4 ADD MLOAD DUP5 DUP3 SUB PUSH0 DUP7 ADD MSTORE PUSH2 0x721B DUP3 DUP3 PUSH2 0x7065 JUMP JUMPDEST SWAP2 POP POP PUSH1 0x20 DUP4 ADD MLOAD DUP5 DUP3 SUB PUSH1 0x20 DUP7 ADD MSTORE PUSH2 0x7235 DUP3 DUP3 PUSH2 0x7065 JUMP JUMPDEST SWAP2 POP POP PUSH1 0x40 DUP4 ADD MLOAD DUP5 DUP3 SUB PUSH1 0x40 DUP7 ADD MSTORE PUSH2 0x724F DUP3 DUP3 PUSH2 0x7065 JUMP JUMPDEST SWAP2 POP POP PUSH1 0x60 DUP4 ADD MLOAD PUSH2 0x7264 PUSH1 0x60 DUP7 ADD DUP3 PUSH2 0x70AC JUMP JUMPDEST POP PUSH1 0x80 DUP4 ADD MLOAD PUSH2 0x7277 PUSH1 0x80 DUP7 ADD DUP3 PUSH2 0x70AC JUMP JUMPDEST POP PUSH1 0xA0 DUP4 ADD MLOAD PUSH2 0x728A PUSH1 0xA0 DUP7 ADD DUP3 PUSH2 0x71F2 JUMP JUMPDEST POP PUSH1 0xC0 DUP4 ADD MLOAD PUSH2 0x729D PUSH1 0xC0 DUP7 ADD DUP3 PUSH2 0x70AC JUMP JUMPDEST POP DUP1 SWAP2 POP POP SWAP3 SWAP2 POP POP JUMP JUMPDEST PUSH0 PUSH1 0x20 DUP3 ADD SWAP1 POP DUP2 DUP2 SUB PUSH0 DUP4 ADD MSTORE PUSH2 0x72C0 DUP2 DUP5 PUSH2 0x7201 JUMP JUMPDEST SWAP1 POP SWAP3 SWAP2 POP POP JUMP JUMPDEST PUSH0 DUP1 PUSH1 0x40 DUP4 DUP6 SUB SLT ISZERO PUSH2 0x72DE JUMPI PUSH2 0x72DD PUSH2 0x6637 JUMP JUMPDEST JUMPDEST PUSH0 PUSH2 0x72EB DUP6 DUP3 DUP7 ADD PUSH2 0x67D5 JUMP JUMPDEST SWAP3 POP POP PUSH1 0x20 PUSH2 0x72FC DUP6 DUP3 DUP7 ADD PUSH2 0x6B0C JUMP JUMPDEST SWAP2 POP POP SWAP3 POP SWAP3 SWAP1 POP JUMP JUMPDEST PUSH0 PUSH1 0x40 DUP3 ADD SWAP1 POP PUSH2 0x7319 PUSH0 DUP4 ADD DUP6 PUSH2 0x69DE JUMP JUMPDEST PUSH2 0x7326 PUSH1 0x20 DUP4 ADD DUP5 PUSH2 0x6A4D JUMP JUMPDEST SWAP4 SWAP3 POP POP POP JUMP JUMPDEST PUSH32 0x4E487B7100000000000000000000000000000000000000000000000000000000 PUSH0 MSTORE PUSH1 0x21 PUSH1 0x4 MSTORE PUSH1 0x24 PUSH0 REVERT JUMPDEST PUSH1 0x5 DUP2 LT PUSH2 0x736B JUMPI PUSH2 0x736A PUSH2 0x732D JUMP JUMPDEST JUMPDEST POP JUMP JUMPDEST PUSH0 DUP2 SWAP1 POP PUSH2 0x737B DUP3 PUSH2 0x735A JUMP JUMPDEST SWAP2 SWAP1 POP JUMP JUMPDEST PUSH0 PUSH2 0x738A DUP3 PUSH2 0x736E JUMP JUMPDEST SWAP1 POP SWAP2 SWAP1 POP JUMP JUMPDEST PUSH2 0x739A DUP2 PUSH2 0x7380 JUMP JUMPDEST DUP3 MSTORE POP POP JUMP JUMPDEST PUSH0 PUSH1 0x20 DUP3 ADD SWAP1 POP PUSH2 0x73B3 PUSH0 DUP4 ADD DUP5 PUSH2 0x7391 JUMP JUMPDEST SWAP3 SWAP2 POP POP JUMP JUMPDEST PUSH0 DUP1 DUP4 PUSH1 0x1F DUP5 ADD SLT PUSH2 0x73CE JUMPI PUSH2 0x73CD PUSH2 0x66CF JUMP JUMPDEST JUMPDEST DUP3 CALLDATALOAD SWAP1 POP PUSH8 0xFFFFFFFFFFFFFFFF DUP2 GT ISZERO PUSH2 0x73EB JUMPI PUSH2 0x73EA PUSH2 0x6EF2 JUMP JUMPDEST JUMPDEST PUSH1 0x20 DUP4 ADD SWAP2 POP DUP4 PUSH1 0x20 DUP3 MUL DUP4 ADD GT ISZERO PUSH2 0x7407 JUMPI PUSH2 0x7406 PUSH2 0x6DD9 JUMP JUMPDEST JUMPDEST SWAP3 POP SWAP3 SWAP1 POP JUMP JUMPDEST PUSH0 DUP1 PUSH1 0x20 DUP4 DUP6 SUB SLT ISZERO PUSH2 0x7424 JUMPI PUSH2 0x7423 PUSH2 0x6637 JUMP JUMPDEST JUMPDEST PUSH0 DUP4 ADD CALLDATALOAD PUSH8 0xFFFFFFFFFFFFFFFF DUP2 GT ISZERO PUSH2 0x7441 JUMPI PUSH2 0x7440 PUSH2 0x663B JUMP JUMPDEST JUMPDEST PUSH2 0x744D DUP6 DUP3 DUP7 ADD PUSH2 0x73B9 JUMP JUMPDEST SWAP3 POP SWAP3 POP POP SWAP3 POP SWAP3 SWAP1 POP JUMP JUMPDEST PUSH2 0x7462 DUP2 PUSH2 0x6783 JUMP JUMPDEST DUP3 MSTORE POP POP JUMP JUMPDEST PUSH0 PUSH2 0x100 DUP3 ADD SWAP1 POP DUP2 DUP2 SUB PUSH0 DUP4 ADD MSTORE PUSH2 0x7481 DUP2 DUP12 PUSH2 0x6A15 JUMP JUMPDEST SWAP1 POP DUP2 DUP2 SUB PUSH1 0x20 DUP4 ADD MSTORE PUSH2 0x7495 DUP2 DUP11 PUSH2 0x6A15 JUMP JUMPDEST SWAP1 POP DUP2 DUP2 SUB PUSH1 0x40 DUP4 ADD MSTORE PUSH2 0x74A9 DUP2 DUP10 PUSH2 0x6A15 JUMP JUMPDEST SWAP1 POP DUP2 DUP2 SUB PUSH1 0x60 DUP4 ADD MSTORE PUSH2 0x74BD DUP2 DUP9 PUSH2 0x6A15 JUMP JUMPDEST SWAP1 POP PUSH2 0x74CC PUSH1 0x80 DUP4 ADD DUP8 PUSH2 0x7459 JUMP JUMPDEST DUP2 DUP2 SUB PUSH1 0xA0 DUP4 ADD MSTORE PUSH2 0x74DE DUP2 DUP7 PUSH2 0x6A15 JUMP JUMPDEST SWAP1 POP PUSH2 0x74ED PUSH1 0xC0 DUP4 ADD DUP6 PUSH2 0x6A4D JUMP JUMPDEST PUSH2 0x74FA PUSH1 0xE0 DUP4 ADD DUP5 PUSH2 0x6A4D JUMP JUMPDEST SWAP10 SWAP9 POP POP POP POP POP POP POP POP POP JUMP JUMPDEST PUSH2 0x7510 DUP2 PUSH2 0x6A5C JUMP JUMPDEST DUP3 MSTORE POP POP JUMP JUMPDEST PUSH0 DUP2 MLOAD SWAP1 POP SWAP2 SWAP1 POP JUMP JUMPDEST PUSH0 DUP3 DUP3 MSTORE PUSH1 0x20 DUP3 ADD SWAP1 POP SWAP3 SWAP2 POP POP JUMP JUMPDEST PUSH0 DUP2 SWAP1 POP PUSH1 0x20 DUP3 ADD SWAP1 POP SWAP2 SWAP1 POP JUMP JUMPDEST PUSH0 PUSH1 0x60 DUP4 ADD PUSH0 DUP4 ADD MLOAD PUSH2 0x7554 PUSH0 DUP7 ADD DUP3 PUSH2 0x70AC JUMP JUMPDEST POP PUSH1 0x20 DUP4 ADD MLOAD PUSH2 0x7567 PUSH1 0x20 DUP7 ADD DUP3 PUSH2 0x6CB0 JUMP JUMPDEST POP PUSH1 0x40 DUP4 ADD MLOAD DUP5 DUP3 SUB PUSH1 0x40 DUP7 ADD MSTORE PUSH2 0x757F DUP3 DUP3 PUSH2 0x7065 JUMP JUMPDEST SWAP2 POP POP DUP1 SWAP2 POP POP SWAP3 SWAP2 POP POP JUMP JUMPDEST PUSH0 PUSH2 0x7597 DUP4 DUP4 PUSH2 0x753F JUMP JUMPDEST SWAP1 POP SWAP3 SWAP2 POP POP JUMP JUMPDEST PUSH0 PUSH1 0x20 DUP3 ADD SWAP1 POP SWAP2 SWAP1 POP JUMP JUMPDEST PUSH0 PUSH2 0x75B5 DUP3 PUSH2 0x7516 JUMP JUMPDEST PUSH2 0x75BF DUP2 DUP6 PUSH2 0x7520 JUMP JUMPDEST SWAP4 POP DUP4 PUSH1 0x20 DUP3 MUL DUP6 ADD PUSH2 0x75D1 DUP6 PUSH2 0x7530 JUMP JUMPDEST DUP1 PUSH0 JUMPDEST DUP6 DUP2 LT ISZERO PUSH2 0x760C JUMPI DUP5 DUP5 SUB DUP10 MSTORE DUP2 MLOAD PUSH2 0x75ED DUP6 DUP3 PUSH2 0x758C JUMP JUMPDEST SWAP5 POP PUSH2 0x75F8 DUP4 PUSH2 0x759F JUMP JUMPDEST SWAP3 POP PUSH1 0x20 DUP11 ADD SWAP10 POP POP PUSH1 0x1 DUP2 ADD SWAP1 POP PUSH2 0x75D4 JUMP JUMPDEST POP DUP3 SWAP8 POP DUP8 SWAP6 POP POP POP POP POP POP SWAP3 SWAP2 POP POP JUMP JUMPDEST PUSH0 PUSH1 0xE0 DUP4 ADD PUSH0 DUP4 ADD MLOAD PUSH2 0x7633 PUSH0 DUP7 ADD DUP3 PUSH2 0x6CB0 JUMP JUMPDEST POP PUSH1 0x20 DUP4 ADD MLOAD DUP5 DUP3 SUB PUSH1 0x20 DUP7 ADD MSTORE PUSH2 0x764B DUP3 DUP3 PUSH2 0x7065 JUMP JUMPDEST SWAP2 POP POP PUSH1 0x40 DUP4 ADD MLOAD PUSH2 0x7660 PUSH1 0x40 DUP7 ADD DUP3 PUSH2 0x70AC JUMP JUMPDEST POP PUSH1 0x60 DUP4 ADD MLOAD PUSH2 0x7673 PUSH1 0x60 DUP7 ADD DUP3 PUSH2 0x70AC JUMP JUMPDEST POP PUSH1 0x80 DUP4 ADD MLOAD PUSH2 0x7686 PUSH1 0x80 DUP7 ADD DUP3 PUSH2 0x70AC JUMP JUMPDEST POP PUSH1 0xA0 DUP4 ADD MLOAD PUSH2 0x7699 PUSH1 0xA0 DUP7 ADD DUP3 PUSH2 0x7507 JUMP JUMPDEST POP PUSH1 0xC0 DUP4 ADD MLOAD DUP5 DUP3 SUB PUSH1 0xC0 DUP7 ADD MSTORE PUSH2 0x76B1 DUP3 DUP3 PUSH2 0x75AB JUMP JUMPDEST SWAP2 POP POP DUP1 SWAP2 POP POP SWAP3 SWAP2 POP POP JUMP JUMPDEST PUSH0 PUSH1 0x20 DUP3 ADD SWAP1 POP DUP2 DUP2 SUB PUSH0 DUP4 ADD MSTORE PUSH2 0x76D6 DUP2 DUP5 PUSH2 0x761E JUMP JUMPDEST SWAP1 POP SWAP3 SWAP2 POP POP JUMP JUMPDEST PUSH0 PUSH1 0xE0 DUP3 ADD SWAP1 POP DUP2 DUP2 SUB PUSH0 DUP4 ADD MSTORE PUSH2 0x76F6 DUP2 DUP11 PUSH2 0x6A15 JUMP JUMPDEST SWAP1 POP DUP2 DUP2 SUB PUSH1 0x20 DUP4 ADD MSTORE PUSH2 0x770A DUP2 DUP10 PUSH2 0x6A15 JUMP JUMPDEST SWAP1 POP DUP2 DUP2 SUB PUSH1 0x40 DUP4 ADD MSTORE PUSH2 0x771E DUP2 DUP9 PUSH2 0x6A15 JUMP JUMPDEST SWAP1 POP PUSH2 0x772D PUSH1 0x60 DUP4 ADD DUP8 PUSH2 0x6A4D JUMP JUMPDEST PUSH2 0x773A PUSH1 0x80 DUP4 ADD DUP7 PUSH2 0x6A4D JUMP JUMPDEST PUSH2 0x7747 PUSH1 0xA0 DUP4 ADD DUP6 PUSH2 0x6C40 JUMP JUMPDEST PUSH2 0x7754 PUSH1 0xC0 DUP4 ADD DUP5 PUSH2 0x6A4D JUMP JUMPDEST SWAP9 SWAP8 POP POP POP POP POP POP POP POP JUMP JUMPDEST PUSH0 PUSH1 0x32 SWAP1 POP SWAP2 SWAP1 POP JUMP JUMPDEST PUSH0 DUP2 SWAP1 POP SWAP3 SWAP2 POP POP JUMP JUMPDEST PUSH0 DUP2 SWAP1 POP SWAP2 SWAP1 POP JUMP JUMPDEST PUSH0 PUSH1 0x20 DUP3 ADD SWAP1 POP SWAP2 SWAP1 POP JUMP JUMPDEST PUSH2 0x7792 DUP2 PUSH2 0x7760 JUMP JUMPDEST PUSH2 0x779C DUP2 DUP5 PUSH2 0x776A JUMP JUMPDEST SWAP3 POP PUSH2 0x77A7 DUP3 PUSH2 0x7774 JUMP JUMPDEST DUP1 PUSH0 JUMPDEST DUP4 DUP2 LT ISZERO PUSH2 0x77D7 JUMPI DUP2 MLOAD PUSH2 0x77BE DUP8 DUP3 PUSH2 0x6CBF JUMP JUMPDEST SWAP7 POP PUSH2 0x77C9 DUP4 PUSH2 0x777D JUMP JUMPDEST SWAP3 POP POP PUSH1 0x1 DUP2 ADD SWAP1 POP PUSH2 0x77AA JUMP JUMPDEST POP POP POP POP POP POP JUMP JUMPDEST PUSH0 PUSH2 0x640 DUP3 ADD SWAP1 POP PUSH2 0x77F3 PUSH0 DUP4 ADD DUP5 PUSH2 0x7789 JUMP JUMPDEST SWAP3 SWAP2 POP POP JUMP JUMPDEST PUSH0 PUSH1 0x40 DUP3 ADD SWAP1 POP PUSH2 0x780C PUSH0 DUP4 ADD DUP6 PUSH2 0x6A4D JUMP JUMPDEST PUSH2 0x7819 PUSH1 0x20 DUP4 ADD DUP5 PUSH2 0x6A4D JUMP JUMPDEST SWAP4 SWAP3 POP POP POP JUMP JUMPDEST PUSH0 PUSH1 0x20 DUP3 ADD SWAP1 POP DUP2 DUP2 SUB PUSH0 DUP4 ADD MSTORE PUSH2 0x7838 DUP2 DUP5 PUSH2 0x70BB JUMP JUMPDEST SWAP1 POP SWAP3 SWAP2 POP POP JUMP JUMPDEST PUSH32 0x57726F6E67207068617365000000000000000000000000000000000000000000 PUSH0 DUP3 ADD MSTORE POP JUMP JUMPDEST PUSH0 PUSH2 0x7874 PUSH1 0xB DUP4 PUSH2 0x69F7 JUMP JUMPDEST SWAP2 POP PUSH2 0x787F DUP3 PUSH2 0x7840 JUMP JUMPDEST PUSH1 0x20 DUP3 ADD SWAP1 POP SWAP2 SWAP1 POP JUMP JUMPDEST PUSH0 PUSH1 0x20 DUP3 ADD SWAP1 POP DUP2 DUP2 SUB PUSH0 DUP4 ADD MSTORE PUSH2 0x78A1 DUP2 PUSH2 0x7868 JUMP JUMPDEST SWAP1 POP SWAP2 SWAP1 POP JUMP JUMPDEST PUSH32 0x4465736372697074696F6E207265717569726564000000000000000000000000 PUSH0 DUP3 ADD MSTORE POP JUMP JUMPDEST PUSH0 PUSH2 0x78DC PUSH1 0x14 DUP4 PUSH2 0x69F7 JUMP JUMPDEST SWAP2 POP PUSH2 0x78E7 DUP3 PUSH2 0x78A8 JUMP JUMPDEST PUSH1 0x20 DUP3 ADD SWAP1 POP SWAP2 SWAP1 POP JUMP JUMPDEST PUSH0 PUSH1 0x20 DUP3 ADD SWAP1 POP DUP2 DUP2 SUB PUSH0 DUP4 ADD MSTORE PUSH2 0x7909 DUP2 PUSH2 0x78D0 JUMP JUMPDEST SWAP1 POP SWAP2 SWAP1 POP JUMP JUMPDEST PUSH32 0x636F6E737469747574696F6E5465787420726571756972656400000000000000 PUSH0 DUP3 ADD MSTORE POP JUMP JUMPDEST PUSH0 PUSH2 0x7944 PUSH1 0x19 DUP4 PUSH2 0x69F7 JUMP JUMPDEST SWAP2 POP PUSH2 0x794F DUP3 PUSH2 0x7910 JUMP JUMPDEST PUSH1 0x20 DUP3 ADD SWAP1 POP SWAP2 SWAP1 POP JUMP JUMPDEST PUSH0 PUSH1 0x20 DUP3 ADD SWAP1 POP DUP2 DUP2 SUB PUSH0 DUP4 ADD MSTORE PUSH2 0x7971 DUP2 PUSH2 0x7938 JUMP JUMPDEST SWAP1 POP SWAP2 SWAP1 POP JUMP JUMPDEST PUSH32 0x50726F706F736572206E616D6520726571756972656400000000000000000000 PUSH0 DUP3 ADD MSTORE POP JUMP JUMPDEST PUSH0 PUSH2 0x79AC PUSH1 0x16 DUP4 PUSH2 0x69F7 JUMP JUMPDEST SWAP2 POP PUSH2 0x79B7 DUP3 PUSH2 0x7978 JUMP JUMPDEST PUSH1 0x20 DUP3 ADD SWAP1 POP SWAP2 SWAP1 POP JUMP JUMPDEST PUSH0 PUSH1 0x20 DUP3 ADD SWAP1 POP DUP2 DUP2 SUB PUSH0 DUP4 ADD MSTORE PUSH2 0x79D9 DUP2 PUSH2 0x79A0 JUMP JUMPDEST SWAP1 POP SWAP2 SWAP1 POP JUMP JUMPDEST PUSH32 0x496E73756666696369656E74207375626D697373696F6E206665650000000000 PUSH0 DUP3 ADD MSTORE POP JUMP JUMPDEST PUSH0 PUSH2 0x7A14 PUSH1 0x1B DUP4 PUSH2 0x69F7 JUMP JUMPDEST SWAP2 POP PUSH2 0x7A1F DUP3 PUSH2 0x79E0 JUMP JUMPDEST PUSH1 0x20 DUP3 ADD SWAP1 POP SWAP2 SWAP1 POP JUMP JUMPDEST PUSH0 PUSH1 0x20 DUP3 ADD SWAP1 POP DUP2 DUP2 SUB PUSH0 DUP4 ADD MSTORE PUSH2 0x7A41 DUP2 PUSH2 0x7A08 JUMP JUMPDEST SWAP1 POP SWAP2 SWAP1 POP JUMP JUMPDEST PUSH0 DUP2 SWAP1 POP SWAP3 SWAP2 POP POP JUMP JUMPDEST PUSH0 PUSH2 0x7A5C DUP3 PUSH2 0x69ED JUMP JUMPDEST PUSH2 0x7A66 DUP2 DUP6 PUSH2 0x7A48 JUMP JUMPDEST SWAP4 POP PUSH2 0x7A76 DUP2 DUP6 PUSH1 0x20 DUP7 ADD PUSH2 0x6A07 JUMP JUMPDEST DUP1 DUP5 ADD SWAP2 POP POP SWAP3 SWAP2 POP POP JUMP JUMPDEST PUSH0 PUSH2 0x7A8D DUP3 DUP8 PUSH2 0x7A52 JUMP JUMPDEST SWAP2 POP PUSH2 0x7A99 DUP3 DUP7 PUSH2 0x7A52 JUMP JUMPDEST SWAP2 POP PUSH2 0x7AA5 DUP3 DUP6 PUSH2 0x7A52 JUMP JUMPDEST SWAP2 POP PUSH2 0x7AB1 DUP3 DUP5 PUSH2 0x7A52 JUMP JUMPDEST SWAP2 POP DUP2 SWAP1 POP SWAP6 SWAP5 POP POP POP POP POP JUMP JUMPDEST PUSH32 0x496E636F72726563742048617368210000000000000000000000000000000000 PUSH0 DUP3 ADD MSTORE POP JUMP JUMPDEST PUSH0 PUSH2 0x7AF3 PUSH1 0xF DUP4 PUSH2 0x69F7 JUMP JUMPDEST SWAP2 POP PUSH2 0x7AFE DUP3 PUSH2 0x7ABF JUMP JUMPDEST PUSH1 0x20 DUP3 ADD SWAP1 POP SWAP2 SWAP1 POP JUMP JUMPDEST PUSH0 PUSH1 0x20 DUP3 ADD SWAP1 POP DUP2 DUP2 SUB PUSH0 DUP4 ADD MSTORE PUSH2 0x7B20 DUP2 PUSH2 0x7AE7 JUMP JUMPDEST SWAP1 POP SWAP2 SWAP1 POP JUMP JUMPDEST PUSH32 0x4E487B7100000000000000000000000000000000000000000000000000000000 PUSH0 MSTORE PUSH1 0x22 PUSH1 0x4 MSTORE PUSH1 0x24 PUSH0 REVERT JUMPDEST PUSH0 PUSH1 0x2 DUP3 DIV SWAP1 POP PUSH1 0x1 DUP3 AND DUP1 PUSH2 0x7B6B JUMPI PUSH1 0x7F DUP3 AND SWAP2 POP JUMPDEST PUSH1 0x20 DUP3 LT DUP2 SUB PUSH2 0x7B7E JUMPI PUSH2 0x7B7D PUSH2 0x7B27 JUMP JUMPDEST JUMPDEST POP SWAP2 SWAP1 POP JUMP JUMPDEST PUSH0 DUP2 SWAP1 POP DUP2 PUSH0 MSTORE PUSH1 0x20 PUSH0 KECCAK256 SWAP1 POP SWAP2 SWAP1 POP JUMP JUMPDEST PUSH0 PUSH1 0x20 PUSH1 0x1F DUP4 ADD DIV SWAP1 POP SWAP2 SWAP1 POP JUMP JUMPDEST PUSH0 DUP3 DUP3 SHL SWAP1 POP SWAP3 SWAP2 POP POP JUMP JUMPDEST PUSH0 PUSH1 0x8 DUP4 MUL PUSH2 0x7BE0 PUSH32 0xFFFFFFFFFFFFFFFFFFFFFFFFFFFFFFFFFFFFFFFFFFFFFFFFFFFFFFFFFFFFFFFF DUP3 PUSH2 0x7BA5 JUMP JUMPDEST PUSH2 0x7BEA DUP7 DUP4 PUSH2 0x7BA5 JUMP JUMPDEST SWAP6 POP DUP1 NOT DUP5 AND SWAP4 POP DUP1 DUP7 AND DUP5 OR SWAP3 POP POP POP SWAP4 SWAP3 POP POP POP JUMP JUMPDEST PUSH0 DUP2 SWAP1 POP SWAP2 SWAP1 POP JUMP JUMPDEST PUSH0 PUSH2 0x7C25 PUSH2 0x7C20 PUSH2 0x7C1B DUP5 PUSH2 0x67B6 JUMP JUMPDEST PUSH2 0x7C02 JUMP JUMPDEST PUSH2 0x67B6 JUMP JUMPDEST SWAP1 POP SWAP2 SWAP1 POP JUMP JUMPDEST PUSH0 DUP2 SWAP1 POP SWAP2 SWAP1 POP JUMP JUMPDEST PUSH2 0x7C3E DUP4 PUSH2 0x7C0B JUMP JUMPDEST PUSH2 0x7C52 PUSH2 0x7C4A DUP3 PUSH2 0x7C2C JUMP JUMPDEST DUP5 DUP5 SLOAD PUSH2 0x7BB1 JUMP JUMPDEST DUP3 SSTORE POP POP POP POP JUMP JUMPDEST PUSH0 SWAP1 JUMP JUMPDEST PUSH2 0x7C66 PUSH2 0x7C5A JUMP JUMPDEST PUSH2 0x7C71 DUP2 DUP5 DUP5 PUSH2 0x7C35 JUMP JUMPDEST POP POP POP JUMP JUMPDEST JUMPDEST DUP2 DUP2 LT ISZERO PUSH2 0x7C94 JUMPI PUSH2 0x7C89 PUSH0 DUP3 PUSH2 0x7C5E JUMP JUMPDEST PUSH1 0x1 DUP2 ADD SWAP1 POP PUSH2 0x7C77 JUMP JUMPDEST POP POP JUMP JUMPDEST PUSH1 0x1F DUP3 GT ISZERO PUSH2 0x7CD9 JUMPI PUSH2 0x7CAA DUP2 PUSH2 0x7B84 JUMP JUMPDEST PUSH2 0x7CB3 DUP5 PUSH2 0x7B96 JUMP JUMPDEST DUP2 ADD PUSH1 0x20 DUP6 LT ISZERO PUSH2 0x7CC2 JUMPI DUP2 SWAP1 POP JUMPDEST PUSH2 0x7CD6 PUSH2 0x7CCE DUP6 PUSH2 0x7B96 JUMP JUMPDEST DUP4 ADD DUP3 PUSH2 0x7C76 JUMP JUMPDEST POP POP JUMPDEST POP POP POP JUMP JUMPDEST PUSH0 DUP3 DUP3 SHR SWAP1 POP SWAP3 SWAP2 POP POP JUMP JUMPDEST PUSH0 PUSH2 0x7CF9 PUSH0 NOT DUP5 PUSH1 0x8 MUL PUSH2 0x7CDE JUMP JUMPDEST NOT DUP1 DUP4 AND SWAP2 POP POP SWAP3 SWAP2 POP POP JUMP JUMPDEST PUSH0 PUSH2 0x7D11 DUP4 DUP4 PUSH2 0x7CEA JUMP JUMPDEST SWAP2 POP DUP3 PUSH1 0x2 MUL DUP3 OR SWAP1 POP SWAP3 SWAP2 POP POP JUMP JUMPDEST PUSH2 0x7D2A DUP3 PUSH2 0x69ED JUMP JUMPDEST PUSH8 0xFFFFFFFFFFFFFFFF DUP2 GT ISZERO PUSH2 0x7D43 JUMPI PUSH2 0x7D42 PUSH2 0x6653 JUMP JUMPDEST JUMPDEST PUSH2 0x7D4D DUP3 SLOAD PUSH2 0x7B54 JUMP JUMPDEST PUSH2 0x7D58 DUP3 DUP3 DUP6 PUSH2 0x7C98 JUMP JUMPDEST PUSH0 PUSH1 0x20 SWAP1 POP PUSH1 0x1F DUP4 GT PUSH1 0x1 DUP2 EQ PUSH2 0x7D89 JUMPI PUSH0 DUP5 ISZERO PUSH2 0x7D77 JUMPI DUP3 DUP8 ADD MLOAD SWAP1 POP JUMPDEST PUSH2 0x7D81 DUP6 DUP3 PUSH2 0x7D06 JUMP JUMPDEST DUP7 SSTORE POP PUSH2 0x7DE8 JUMP JUMPDEST PUSH1 0x1F NOT DUP5 AND PUSH2 0x7D97 DUP7 PUSH2 0x7B84 JUMP JUMPDEST PUSH0 JUMPDEST DUP3 DUP2 LT ISZERO PUSH2 0x7DBE JUMPI DUP5 DUP10 ADD MLOAD DUP3 SSTORE PUSH1 0x1 DUP3 ADD SWAP2 POP PUSH1 0x20 DUP6 ADD SWAP5 POP PUSH1 0x20 DUP2 ADD SWAP1 POP PUSH2 0x7D99 JUMP JUMPDEST DUP7 DUP4 LT ISZERO PUSH2 0x7DDB JUMPI DUP5 DUP10 ADD MLOAD PUSH2 0x7DD7 PUSH1 0x1F DUP10 AND DUP3 PUSH2 0x7CEA JUMP JUMPDEST DUP4 SSTORE POP JUMPDEST PUSH1 0x1 PUSH1 0x2 DUP9 MUL ADD DUP9 SSTORE POP POP POP JUMPDEST POP POP POP POP POP POP JUMP JUMPDEST PUSH32 0x4E487B7100000000000000000000000000000000000000000000000000000000 PUSH0 MSTORE PUSH1 0x11 PUSH1 0x4 MSTORE PUSH1 0x24 PUSH0 REVERT JUMPDEST PUSH0 PUSH2 0x7E27 DUP3 PUSH2 0x67B6 JUMP JUMPDEST SWAP2 POP PUSH2 0x7E32 DUP4 PUSH2 0x67B6 JUMP JUMPDEST SWAP3 POP DUP3 DUP3 SUB SWAP1 POP DUP2 DUP2 GT ISZERO PUSH2 0x7E4A JUMPI PUSH2 0x7E49 PUSH2 0x7DF0 JUMP JUMPDEST JUMPDEST SWAP3 SWAP2 POP POP JUMP JUMPDEST PUSH32 0x4F6E6C79206D656D626572732063616E20766F74650000000000000000000000 PUSH0 DUP3 ADD MSTORE POP JUMP JUMPDEST PUSH0 PUSH2 0x7E84 PUSH1 0x15 DUP4 PUSH2 0x69F7 JUMP JUMPDEST SWAP2 POP PUSH2 0x7E8F DUP3 PUSH2 0x7E50 JUMP JUMPDEST PUSH1 0x20 DUP3 ADD SWAP1 POP SWAP2 SWAP1 POP JUMP JUMPDEST PUSH0 PUSH1 0x20 DUP3 ADD SWAP1 POP DUP2 DUP2 SUB PUSH0 DUP4 ADD MSTORE PUSH2 0x7EB1 DUP2 PUSH2 0x7E78 JUMP JUMPDEST SWAP1 POP SWAP2 SWAP1 POP JUMP JUMPDEST PUSH32 0x496E76616C69642070726F706F73616C20494400000000000000000000000000 PUSH0 DUP3 ADD MSTORE POP JUMP JUMPDEST PUSH0 PUSH2 0x7EEC PUSH1 0x13 DUP4 PUSH2 0x69F7 JUMP JUMPDEST SWAP2 POP PUSH2 0x7EF7 DUP3 PUSH2 0x7EB8 JUMP JUMPDEST PUSH1 0x20 DUP3 ADD SWAP1 POP SWAP2 SWAP1 POP JUMP JUMPDEST PUSH0 PUSH1 0x20 DUP3 ADD SWAP1 POP DUP2 DUP2 SUB PUSH0 DUP4 ADD MSTORE PUSH2 0x7F19 DUP2 PUSH2 0x7EE0 JUMP JUMPDEST SWAP1 POP SWAP2 SWAP1 POP JUMP JUMPDEST PUSH32 0x4E487B7100000000000000000000000000000000000000000000000000000000 PUSH0 MSTORE PUSH1 0x32 PUSH1 0x4 MSTORE PUSH1 0x24 PUSH0 REVERT JUMPDEST PUSH32 0x50726F706F73616C2077697468647261776E0000000000000000000000000000 PUSH0 DUP3 ADD MSTORE POP JUMP JUMPDEST PUSH0 PUSH2 0x7F81 PUSH1 0x12 DUP4 PUSH2 0x69F7 JUMP JUMPDEST SWAP2 POP PUSH2 0x7F8C DUP3 PUSH2 0x7F4D JUMP JUMPDEST PUSH1 0x20 DUP3 ADD SWAP1 POP SWAP2 SWAP1 POP JUMP JUMPDEST PUSH0 PUSH1 0x20 DUP3 ADD SWAP1 POP DUP2 DUP2 SUB PUSH0 DUP4 ADD MSTORE PUSH2 0x7FAE DUP2 PUSH2 0x7F75 JUMP JUMPDEST SWAP1 POP SWAP2 SWAP1 POP JUMP JUMPDEST PUSH32 0x416C726561647920766F74656400000000000000000000000000000000000000 PUSH0 DUP3 ADD MSTORE POP JUMP JUMPDEST PUSH0 PUSH2 0x7FE9 PUSH1 0xD DUP4 PUSH2 0x69F7 JUMP JUMPDEST SWAP2 POP PUSH2 0x7FF4 DUP3 PUSH2 0x7FB5 JUMP JUMPDEST PUSH1 0x20 DUP3 ADD SWAP1 POP SWAP2 SWAP1 POP JUMP JUMPDEST PUSH0 PUSH1 0x20 DUP3 ADD SWAP1 POP DUP2 DUP2 SUB PUSH0 DUP4 ADD MSTORE PUSH2 0x8016 DUP2 PUSH2 0x7FDD JUMP JUMPDEST SWAP1 POP SWAP2 SWAP1 POP JUMP JUMPDEST PUSH0 PUSH2 0x8027 DUP3 PUSH2 0x6A5C JUMP JUMPDEST SWAP2 POP PUSH1 0xFF DUP3 SUB PUSH2 0x803A JUMPI PUSH2 0x8039 PUSH2 0x7DF0 JUMP JUMPDEST JUMPDEST PUSH1 0x1 DUP3 ADD SWAP1 POP SWAP2 SWAP1 POP JUMP JUMPDEST PUSH32 0x496E76616C6964206E616D650000000000000000000000000000000000000000 PUSH0 DUP3 ADD MSTORE POP JUMP JUMPDEST PUSH0 PUSH2 0x8079 PUSH1 0xC DUP4 PUSH2 0x69F7 JUMP JUMPDEST SWAP2 POP PUSH2 0x8084 DUP3 PUSH2 0x8045 JUMP JUMPDEST PUSH1 0x20 DUP3 ADD SWAP1 POP SWAP2 SWAP1 POP JUMP JUMPDEST PUSH0 PUSH1 0x20 DUP3 ADD SWAP1 POP DUP2 DUP2 SUB PUSH0 DUP4 ADD MSTORE PUSH2 0x80A6 DUP2 PUSH2 0x806D JUMP JUMPDEST SWAP1 POP SWAP2 SWAP1 POP JUMP JUMPDEST PUSH32 0x496E76616C69642062696F000000000000000000000000000000000000000000 PUSH0 DUP3 ADD MSTORE POP JUMP JUMPDEST PUSH0 PUSH2 0x80E1 PUSH1 0xB DUP4 PUSH2 0x69F7 JUMP JUMPDEST SWAP2 POP PUSH2 0x80EC DUP3 PUSH2 0x80AD JUMP JUMPDEST PUSH1 0x20 DUP3 ADD SWAP1 POP SWAP2 SWAP1 POP JUMP JUMPDEST PUSH0 PUSH1 0x20 DUP3 ADD SWAP1 POP DUP2 DUP2 SUB PUSH0 DUP4 ADD MSTORE PUSH2 0x810E DUP2 PUSH2 0x80D5 JUMP JUMPDEST SWAP1 POP SWAP2 SWAP1 POP JUMP JUMPDEST PUSH32 0x496E76616C696420776562736974650000000000000000000000000000000000 PUSH0 DUP3 ADD MSTORE POP JUMP JUMPDEST PUSH0 PUSH2 0x8149 PUSH1 0xF DUP4 PUSH2 0x69F7 JUMP JUMPDEST SWAP2 POP PUSH2 0x8154 DUP3 PUSH2 0x8115 JUMP JUMPDEST PUSH1 0x20 DUP3 ADD SWAP1 POP SWAP2 SWAP1 POP JUMP JUMPDEST PUSH0 PUSH1 0x20 DUP3 ADD SWAP1 POP DUP2 DUP2 SUB PUSH0 DUP4 ADD MSTORE PUSH2 0x8176 DUP2 PUSH2 0x813D JUMP JUMPDEST SWAP1 POP SWAP2 SWAP1 POP JUMP JUMPDEST PUSH32 0x496E76616C69642073656E646572000000000000000000000000000000000000 PUSH0 DUP3 ADD MSTORE POP JUMP JUMPDEST PUSH0 PUSH2 0x81B1 PUSH1 0xE DUP4 PUSH2 0x69F7 JUMP JUMPDEST SWAP2 POP PUSH2 0x81BC DUP3 PUSH2 0x817D JUMP JUMPDEST PUSH1 0x20 DUP3 ADD SWAP1 POP SWAP2 SWAP1 POP JUMP JUMPDEST PUSH0 PUSH1 0x20 DUP3 ADD SWAP1 POP DUP2 DUP2 SUB PUSH0 DUP4 ADD MSTORE PUSH2 0x81DE DUP2 PUSH2 0x81A5 JUMP JUMPDEST SWAP1 POP SWAP2 SWAP1 POP JUMP JUMPDEST PUSH32 0x496E73756666696369656E7420726567697374726174696F6E20666565000000 PUSH0 DUP3 ADD MSTORE POP JUMP JUMPDEST PUSH0 PUSH2 0x8219 PUSH1 0x1D DUP4 PUSH2 0x69F7 JUMP JUMPDEST SWAP2 POP PUSH2 0x8224 DUP3 PUSH2 0x81E5 JUMP JUMPDEST PUSH1 0x20 DUP3 ADD SWAP1 POP SWAP2 SWAP1 POP JUMP JUMPDEST PUSH0 PUSH1 0x20 DUP3 ADD SWAP1 POP DUP2 DUP2 SUB PUSH0 DUP4 ADD MSTORE PUSH2 0x8246 DUP2 PUSH2 0x820D JUMP JUMPDEST SWAP1 POP SWAP2 SWAP1 POP JUMP JUMPDEST PUSH32 0x43616E64696461746520726567697374726174696F6E20706572696F64206861 PUSH0 DUP3 ADD MSTORE PUSH32 0x7320656E6465642E000000000000000000000000000000000000000000000000 PUSH1 0x20 DUP3 ADD MSTORE POP JUMP JUMPDEST PUSH0 PUSH2 0x82A7 PUSH1 0x28 DUP4 PUSH2 0x69F7 JUMP JUMPDEST SWAP2 POP PUSH2 0x82B2 DUP3 PUSH2 0x824D JUMP JUMPDEST PUSH1 0x40 DUP3 ADD SWAP1 POP SWAP2 SWAP1 POP JUMP JUMPDEST PUSH0 PUSH1 0x20 DUP3 ADD SWAP1 POP DUP2 DUP2 SUB PUSH0 DUP4 ADD MSTORE PUSH2 0x82D4 DUP2 PUSH2 0x829B JUMP JUMPDEST SWAP1 POP SWAP2 SWAP1 POP JUMP JUMPDEST PUSH32 0x416C726561647920726567697374657265640000000000000000000000000000 PUSH0 DUP3 ADD MSTORE POP JUMP JUMPDEST PUSH0 PUSH2 0x830F PUSH1 0x12 DUP4 PUSH2 0x69F7 JUMP JUMPDEST SWAP2 POP PUSH2 0x831A DUP3 PUSH2 0x82DB JUMP JUMPDEST PUSH1 0x20 DUP3 ADD SWAP1 POP SWAP2 SWAP1 POP JUMP JUMPDEST PUSH0 PUSH1 0x20 DUP3 ADD SWAP1 POP DUP2 DUP2 SUB PUSH0 DUP4 ADD MSTORE PUSH2 0x833C DUP2 PUSH2 0x8303 JUMP JUMPDEST SWAP1 POP SWAP2 SWAP1 POP JUMP JUMPDEST PUSH0 PUSH1 0x60 DUP3 ADD SWAP1 POP DUP2 DUP2 SUB PUSH0 DUP4 ADD MSTORE PUSH2 0x835B DUP2 DUP7 PUSH2 0x6A15 JUMP JUMPDEST SWAP1 POP DUP2 DUP2 SUB PUSH1 0x20 DUP4 ADD MSTORE PUSH2 0x836F DUP2 DUP6 PUSH2 0x6A15 JUMP JUMPDEST SWAP1 POP DUP2 DUP2 SUB PUSH1 0x40 DUP4 ADD MSTORE PUSH2 0x8383 DUP2 DUP5 PUSH2 0x6A15 JUMP JUMPDEST SWAP1 POP SWAP5 SWAP4 POP POP POP POP JUMP JUMPDEST PUSH0 PUSH2 0x8397 DUP3 PUSH2 0x6D51 JUMP JUMPDEST SWAP2 POP PUSH2 0x83A2 DUP4 PUSH2 0x6D51 JUMP JUMPDEST SWAP3 POP DUP3 DUP3 ADD SWAP1 POP DUP3 DUP2 SLT ISZERO PUSH0 DUP4 SLT AND DUP4 DUP3 SLT PUSH0 DUP5 SLT ISZERO AND OR ISZERO PUSH2 0x83C8 JUMPI PUSH2 0x83C7 PUSH2 0x7DF0 JUMP JUMPDEST JUMPDEST SWAP3 SWAP2 POP POP JUMP JUMPDEST PUSH0 PUSH2 0xFFFF DUP3 AND SWAP1 POP SWAP2 SWAP1 POP JUMP JUMPDEST PUSH0 PUSH2 0x83E5 DUP3 PUSH2 0x83CE JUMP JUMPDEST SWAP2 POP PUSH2 0xFFFF DUP3 SUB PUSH2 0x83F9 JUMPI PUSH2 0x83F8 PUSH2 0x7DF0 JUMP JUMPDEST JUMPDEST PUSH1 0x1 DUP3 ADD SWAP1 POP SWAP2 SWAP1 POP JUMP JUMPDEST PUSH32 0x4E6F7420617574686F72697A6564206E65757472616C00000000000000000000 PUSH0 DUP3 ADD MSTORE POP JUMP JUMPDEST PUSH0 PUSH2 0x8438 PUSH1 0x16 DUP4 PUSH2 0x69F7 JUMP JUMPDEST SWAP2 POP PUSH2 0x8443 DUP3 PUSH2 0x8404 JUMP JUMPDEST PUSH1 0x20 DUP3 ADD SWAP1 POP SWAP2 SWAP1 POP JUMP JUMPDEST PUSH0 PUSH1 0x20 DUP3 ADD SWAP1 POP DUP2 DUP2 SUB PUSH0 DUP4 ADD MSTORE PUSH2 0x8465 DUP2 PUSH2 0x842C JUMP JUMPDEST SWAP1 POP SWAP2 SWAP1 POP JUMP JUMPDEST PUSH32 0x566F74657220616464696E6720706572696F642068617320656E6465642E0000 PUSH0 DUP3 ADD MSTORE POP JUMP JUMPDEST PUSH0 PUSH2 0x84A0 PUSH1 0x1E DUP4 PUSH2 0x69F7 JUMP JUMPDEST SWAP2 POP PUSH2 0x84AB DUP3 PUSH2 0x846C JUMP JUMPDEST PUSH1 0x20 DUP3 ADD SWAP1 POP SWAP2 SWAP1 POP JUMP JUMPDEST PUSH0 PUSH1 0x20 DUP3 ADD SWAP1 POP DUP2 DUP2 SUB PUSH0 DUP4 ADD MSTORE PUSH2 0x84CD DUP2 PUSH2 0x8494 JUMP JUMPDEST SWAP1 POP SWAP2 SWAP1 POP JUMP JUMPDEST PUSH32 0x4D6178696D756D206E756D626572206F6620766F746572732072656163686564 PUSH0 DUP3 ADD MSTORE PUSH32 0x2E00000000000000000000000000000000000000000000000000000000000000 PUSH1 0x20 DUP3 ADD MSTORE POP JUMP JUMPDEST PUSH0 PUSH2 0x852E PUSH1 0x21 DUP4 PUSH2 0x69F7 JUMP JUMPDEST SWAP2 POP PUSH2 0x8539 DUP3 PUSH2 0x84D4 JUMP JUMPDEST PUSH1 0x40 DUP3 ADD SWAP1 POP SWAP2 SWAP1 POP JUMP JUMPDEST PUSH0 PUSH1 0x20 DUP3 ADD SWAP1 POP DUP2 DUP2 SUB PUSH0 DUP4 ADD MSTORE PUSH2 0x855B DUP2 PUSH2 0x8522 JUMP JUMPDEST SWAP1 POP SWAP2 SWAP1 POP JUMP JUMPDEST PUSH32 0x496E636F72726563742062617463682073697A65000000000000000000000000 PUSH0 DUP3 ADD MSTORE POP JUMP JUMPDEST PUSH0 PUSH2 0x8596 PUSH1 0x14 DUP4 PUSH2 0x69F7 JUMP JUMPDEST SWAP2 POP PUSH2 0x85A1 DUP3 PUSH2 0x8562 JUMP JUMPDEST PUSH1 0x20 DUP3 ADD SWAP1 POP SWAP2 SWAP1 POP JUMP JUMPDEST PUSH0 PUSH1 0x20 DUP3 ADD SWAP1 POP DUP2 DUP2 SUB PUSH0 DUP4 ADD MSTORE PUSH2 0x85C3 DUP2 PUSH2 0x858A JUMP JUMPDEST SWAP1 POP SWAP2 SWAP1 POP JUMP JUMPDEST PUSH32 0x566F746572206861736820616C72656164792072656769737465726564000000 PUSH0 DUP3 ADD MSTORE POP JUMP JUMPDEST PUSH0 PUSH2 0x85FE PUSH1 0x1D DUP4 PUSH2 0x69F7 JUMP JUMPDEST SWAP2 POP PUSH2 0x8609 DUP3 PUSH2 0x85CA JUMP JUMPDEST PUSH1 0x20 DUP3 ADD SWAP1 POP SWAP2 SWAP1 POP JUMP JUMPDEST PUSH0 PUSH1 0x20 DUP3 ADD SWAP1 POP DUP2 DUP2 SUB PUSH0 DUP4 ADD MSTORE PUSH2 0x862B DUP2 PUSH2 0x85F2 JUMP JUMPDEST SWAP1 POP SWAP2 SWAP1 POP JUMP JUMPDEST PUSH32 0x496E76616C696420766F74657220616464726573730000000000000000000000 PUSH0 DUP3 ADD MSTORE POP JUMP JUMPDEST PUSH0 PUSH2 0x8666 PUSH1 0x15 DUP4 PUSH2 0x69F7 JUMP JUMPDEST SWAP2 POP PUSH2 0x8671 DUP3 PUSH2 0x8632 JUMP JUMPDEST PUSH1 0x20 DUP3 ADD SWAP1 POP SWAP2 SWAP1 POP JUMP JUMPDEST PUSH0 PUSH1 0x20 DUP3 ADD SWAP1 POP DUP2 DUP2 SUB PUSH0 DUP4 ADD MSTORE PUSH2 0x8693 DUP2 PUSH2 0x865A JUMP JUMPDEST SWAP1 POP SWAP2 SWAP1 POP JUMP JUMPDEST PUSH32 0x416464726573737320616C726561647920726567697374657265642E20526567 PUSH0 DUP3 ADD MSTORE PUSH32 0x697374726172204552524F522100000000000000000000000000000000000000 PUSH1 0x20 DUP3 ADD MSTORE POP JUMP JUMPDEST PUSH0 PUSH2 0x86F4 PUSH1 0x2D DUP4 PUSH2 0x69F7 JUMP JUMPDEST SWAP2 POP PUSH2 0x86FF DUP3 PUSH2 0x869A JUMP JUMPDEST PUSH1 0x40 DUP3 ADD SWAP1 POP SWAP2 SWAP1 POP JUMP JUMPDEST PUSH0 PUSH1 0x20 DUP3 ADD SWAP1 POP DUP2 DUP2 SUB PUSH0 DUP4 ADD MSTORE PUSH2 0x8721 DUP2 PUSH2 0x86E8 JUMP JUMPDEST SWAP1 POP SWAP2 SWAP1 POP JUMP JUMPDEST PUSH0 PUSH2 0x8732 DUP3 PUSH2 0x701E JUMP JUMPDEST SWAP2 POP PUSH2 0x873D DUP4 PUSH2 0x701E JUMP JUMPDEST SWAP3 POP DUP3 DUP3 ADD SWAP1 POP PUSH4 0xFFFFFFFF DUP2 GT ISZERO PUSH2 0x8759 JUMPI PUSH2 0x8758 PUSH2 0x7DF0 JUMP JUMPDEST JUMPDEST SWAP3 SWAP2 POP POP JUMP JUMPDEST PUSH0 PUSH1 0xA SWAP1 POP SWAP2 SWAP1 POP JUMP JUMPDEST PUSH0 DUP2 SWAP1 POP SWAP3 SWAP2 POP POP JUMP JUMPDEST PUSH0 DUP2 SWAP1 POP SWAP2 SWAP1 POP JUMP JUMPDEST PUSH2 0x8785 DUP2 PUSH2 0x69CD JUMP JUMPDEST DUP3 MSTORE POP POP JUMP JUMPDEST PUSH0 PUSH2 0x8796 DUP4 DUP4 PUSH2 0x877C JUMP JUMPDEST PUSH1 0x20 DUP4 ADD SWAP1 POP SWAP3 SWAP2 POP POP JUMP JUMPDEST PUSH0 PUSH2 0x87B0 PUSH1 0x20 DUP5 ADD DUP5 PUSH2 0x6B0C JUMP JUMPDEST SWAP1 POP SWAP3 SWAP2 POP POP JUMP JUMPDEST PUSH0 PUSH1 0x20 DUP3 ADD SWAP1 POP SWAP2 SWAP1 POP JUMP JUMPDEST PUSH2 0x87CD DUP2 PUSH2 0x875F JUMP JUMPDEST PUSH2 0x87D7 DUP2 DUP5 PUSH2 0x8769 JUMP JUMPDEST SWAP3 POP PUSH2 0x87E2 DUP3 PUSH2 0x8773 JUMP JUMPDEST DUP1 PUSH0 JUMPDEST DUP4 DUP2 LT ISZERO PUSH2 0x881A JUMPI PUSH2 0x87F7 DUP3 DUP5 PUSH2 0x87A2 JUMP JUMPDEST PUSH2 0x8801 DUP8 DUP3 PUSH2 0x878B JUMP JUMPDEST SWAP7 POP PUSH2 0x880C DUP4 PUSH2 0x87B8 JUMP JUMPDEST SWAP3 POP POP PUSH1 0x1 DUP2 ADD SWAP1 POP PUSH2 0x87E5 JUMP JUMPDEST POP POP POP POP POP POP JUMP JUMPDEST PUSH0 PUSH2 0x882D DUP3 DUP5 PUSH2 0x87C4 JUMP JUMPDEST PUSH2 0x140 DUP3 ADD SWAP2 POP DUP2 SWAP1 POP SWAP3 SWAP2 POP POP JUMP JUMPDEST PUSH0 PUSH2 0x8857 PUSH2 0x8852 PUSH2 0x884D DUP5 PUSH2 0x701E JUMP JUMPDEST PUSH2 0x7C02 JUMP JUMPDEST PUSH2 0x67B6 JUMP JUMPDEST SWAP1 POP SWAP2 SWAP1 POP JUMP JUMPDEST PUSH2 0x8867 DUP2 PUSH2 0x883D JUMP JUMPDEST DUP3 MSTORE POP POP JUMP JUMPDEST PUSH0 PUSH1 0x20 DUP3 ADD SWAP1 POP PUSH2 0x8880 PUSH0 DUP4 ADD DUP5 PUSH2 0x885E JUMP JUMPDEST SWAP3 SWAP2 POP POP JUMP JUMPDEST PUSH32 0x4E6F742061206D656D6265720000000000000000000000000000000000000000 PUSH0 DUP3 ADD MSTORE POP JUMP JUMPDEST PUSH0 PUSH2 0x88BA PUSH1 0xC DUP4 PUSH2 0x69F7 JUMP JUMPDEST SWAP2 POP PUSH2 0x88C5 DUP3 PUSH2 0x8886 JUMP JUMPDEST PUSH1 0x20 DUP3 ADD SWAP1 POP SWAP2 SWAP1 POP JUMP JUMPDEST PUSH0 PUSH1 0x20 DUP3 ADD SWAP1 POP DUP2 DUP2 SUB PUSH0 DUP4 ADD MSTORE PUSH2 0x88E7 DUP2 PUSH2 0x88AE JUMP JUMPDEST SWAP1 POP SWAP2 SWAP1 POP JUMP JUMPDEST PUSH32 0x566F7465206D757374206265202D312C20302C206F7220310000000000000000 PUSH0 DUP3 ADD MSTORE POP JUMP JUMPDEST PUSH0 PUSH2 0x8922 PUSH1 0x18 DUP4 PUSH2 0x69F7 JUMP JUMPDEST SWAP2 POP PUSH2 0x892D DUP3 PUSH2 0x88EE JUMP JUMPDEST PUSH1 0x20 DUP3 ADD SWAP1 POP SWAP2 SWAP1 POP JUMP JUMPDEST PUSH0 PUSH1 0x20 DUP3 ADD SWAP1 POP DUP2 DUP2 SUB PUSH0 DUP4 ADD MSTORE PUSH2 0x894F DUP2 PUSH2 0x8916 JUMP JUMPDEST SWAP1 POP SWAP2 SWAP1 POP JUMP JUMPDEST PUSH32 0x4D617820766F7465732072656163686564000000000000000000000000000000 PUSH0 DUP3 ADD MSTORE POP JUMP JUMPDEST PUSH0 PUSH2 0x898A PUSH1 0x11 DUP4 PUSH2 0x69F7 JUMP JUMPDEST SWAP2 POP PUSH2 0x8995 DUP3 PUSH2 0x8956 JUMP JUMPDEST PUSH1 0x20 DUP3 ADD SWAP1 POP SWAP2 SWAP1 POP JUMP JUMPDEST PUSH0 PUSH1 0x20 DUP3 ADD SWAP1 POP DUP2 DUP2 SUB PUSH0 DUP4 ADD MSTORE PUSH2 0x89B7 DUP2 PUSH2 0x897E JUMP JUMPDEST SWAP1 POP SWAP2 SWAP1 POP JUMP JUMPDEST PUSH0 PUSH2 0x89C8 DUP3 PUSH2 0x67B6 JUMP JUMPDEST SWAP2 POP PUSH32 0xFFFFFFFFFFFFFFFFFFFFFFFFFFFFFFFFFFFFFFFFFFFFFFFFFFFFFFFFFFFFFFFF DUP3 SUB PUSH2 0x89FA JUMPI PUSH2 0x89F9 PUSH2 0x7DF0 JUMP JUMPDEST JUMPDEST PUSH1 0x1 DUP3 ADD SWAP1 POP SWAP2 SWAP1 POP JUMP JUMPDEST PUSH0 PUSH2 0x8A0F DUP3 PUSH2 0x67B6 JUMP JUMPDEST SWAP2 POP PUSH0 DUP3 SUB PUSH2 0x8A21 JUMPI PUSH2 0x8A20 PUSH2 0x7DF0 JUMP JUMPDEST JUMPDEST PUSH1 0x1 DUP3 SUB SWAP1 POP SWAP2 SWAP1 POP JUMP JUMPDEST PUSH0 PUSH2 0x8A36 DUP3 PUSH2 0x6B5E JUMP JUMPDEST SWAP2 POP PUSH2 0x8A41 DUP4 PUSH2 0x6B5E JUMP JUMPDEST SWAP3 POP DUP3 DUP3 SUB SWAP1 POP PUSH1 0x7F DUP2 SGT PUSH32 0xFFFFFFFFFFFFFFFFFFFFFFFFFFFFFFFFFFFFFFFFFFFFFFFFFFFFFFFFFFFFFF80 DUP3 SLT OR ISZERO PUSH2 0x8A7E JUMPI PUSH2 0x8A7D PUSH2 0x7DF0 JUMP JUMPDEST JUMPDEST SWAP3 SWAP2 POP POP JUMP JUMPDEST PUSH32 0x4F6E6C79206D656D626572732063616E2070726F706F73652070726F706F7361 PUSH0 DUP3 ADD MSTORE PUSH32 0x6C73000000000000000000000000000000000000000000000000000000000000 PUSH1 0x20 DUP3 ADD MSTORE POP JUMP JUMPDEST PUSH0 PUSH2 0x8ADE PUSH1 0x22 DUP4 PUSH2 0x69F7 JUMP JUMPDEST SWAP2 POP PUSH2 0x8AE9 DUP3 PUSH2 0x8A84 JUMP JUMPDEST PUSH1 0x40 DUP3 ADD SWAP1 POP SWAP2 SWAP1 POP JUMP JUMPDEST PUSH0 PUSH1 0x20 DUP3 ADD SWAP1 POP DUP2 DUP2 SUB PUSH0 DUP4 ADD MSTORE PUSH2 0x8B0B DUP2 PUSH2 0x8AD2 JUMP JUMPDEST SWAP1 POP SWAP2 SWAP1 POP JUMP JUMPDEST PUSH32 0x50726F766973696F6E7320726571756972656400000000000000000000000000 PUSH0 DUP3 ADD MSTORE POP JUMP JUMPDEST PUSH0 PUSH2 0x8B46 PUSH1 0x13 DUP4 PUSH2 0x69F7 JUMP JUMPDEST SWAP2 POP PUSH2 0x8B51 DUP3 PUSH2 0x8B12 JUMP JUMPDEST PUSH1 0x20 DUP3 ADD SWAP1 POP SWAP2 SWAP1 POP JUMP JUMPDEST PUSH0 PUSH1 0x20 DUP3 ADD SWAP1 POP DUP2 DUP2 SUB PUSH0 DUP4 ADD MSTORE PUSH2 0x8B73 DUP2 PUSH2 0x8B3A JUMP JUMPDEST SWAP1 POP SWAP2 SWAP1 POP JUMP JUMPDEST PUSH32 0x4D656D62657220616C72656164792068617320616E206163746976652070726F PUSH0 DUP3 ADD MSTORE PUSH32 0x706F73616C000000000000000000000000000000000000000000000000000000 PUSH1 0x20 DUP3 ADD MSTORE POP JUMP JUMPDEST PUSH0 PUSH2 0x8BD4 PUSH1 0x25 DUP4 PUSH2 0x69F7 JUMP JUMPDEST SWAP2 POP PUSH2 0x8BDF DUP3 PUSH2 0x8B7A JUMP JUMPDEST PUSH1 0x40 DUP3 ADD SWAP1 POP SWAP2 SWAP1 POP JUMP JUMPDEST PUSH0 PUSH1 0x20 DUP3 ADD SWAP1 POP DUP2 DUP2 SUB PUSH0 DUP4 ADD MSTORE PUSH2 0x8C01 DUP2 PUSH2 0x8BC8 JUMP JUMPDEST SWAP1 POP SWAP2 SWAP1 POP JUMP JUMPDEST PUSH0 DUP3 SWAP1 POP SWAP3 SWAP2 POP POP JUMP JUMPDEST PUSH2 0x8C1C DUP4 DUP4 PUSH2 0x8C08 JUMP JUMPDEST PUSH8 0xFFFFFFFFFFFFFFFF DUP2 GT ISZERO PUSH2 0x8C35 JUMPI PUSH2 0x8C34 PUSH2 0x6653 JUMP JUMPDEST JUMPDEST PUSH2 0x8C3F DUP3 SLOAD PUSH2 0x7B54 JUMP JUMPDEST PUSH2 0x8C4A DUP3 DUP3 DUP6 PUSH2 0x7C98 JUMP JUMPDEST PUSH0 PUSH1 0x1F DUP4 GT PUSH1 0x1 DUP2 EQ PUSH2 0x8C77 JUMPI PUSH0 DUP5 ISZERO PUSH2 0x8C65 JUMPI DUP3 DUP8 ADD CALLDATALOAD SWAP1 POP JUMPDEST PUSH2 0x8C6F DUP6 DUP3 PUSH2 0x7D06 JUMP JUMPDEST DUP7 SSTORE POP PUSH2 0x8CD6 JUMP JUMPDEST PUSH1 0x1F NOT DUP5 AND PUSH2 0x8C85 DUP7 PUSH2 0x7B84 JUMP JUMPDEST PUSH0 JUMPDEST DUP3 DUP2 LT ISZERO PUSH2 0x8CAC JUMPI DUP5 DUP10 ADD CALLDATALOAD DUP3 SSTORE PUSH1 0x1 DUP3 ADD SWAP2 POP PUSH1 0x20 DUP6 ADD SWAP5 POP PUSH1 0x20 DUP2 ADD SWAP1 POP PUSH2 0x8C87 JUMP JUMPDEST DUP7 DUP4 LT ISZERO PUSH2 0x8CC9 JUMPI DUP5 DUP10 ADD CALLDATALOAD PUSH2 0x8CC5 PUSH1 0x1F DUP10 AND DUP3 PUSH2 0x7CEA JUMP JUMPDEST DUP4 SSTORE POP JUMPDEST PUSH1 0x1 PUSH1 0x2 DUP9 MUL ADD DUP9 SSTORE POP POP POP JUMPDEST POP POP POP POP POP POP POP JUMP JUMPDEST PUSH0 DUP1 REVERT JUMPDEST PUSH0 DUP1 REVERT JUMPDEST PUSH0 DUP1 REVERT JUMPDEST PUSH0 DUP3 CALLDATALOAD PUSH1 0x1 PUSH1 0x60 SUB DUP4 CALLDATASIZE SUB SUB DUP2 SLT PUSH2 0x8D06 JUMPI PUSH2 0x8D05 PUSH2 0x8CDF JUMP JUMPDEST JUMPDEST DUP1 DUP4 ADD SWAP2 POP POP SWAP3 SWAP2 POP POP JUMP JUMPDEST PUSH0 DUP2 CALLDATALOAD PUSH2 0x8D1E DUP2 PUSH2 0x67BF JUMP JUMPDEST DUP1 SWAP2 POP POP SWAP2 SWAP1 POP JUMP JUMPDEST PUSH0 DUP2 PUSH0 SHL SWAP1 POP SWAP2 SWAP1 POP JUMP JUMPDEST PUSH0 PUSH32 0xFFFFFFFFFFFFFFFFFFFFFFFFFFFFFFFFFFFFFFFFFFFFFFFFFFFFFFFFFFFFFFFF PUSH2 0x8D5D DUP5 PUSH2 0x8D27 JUMP JUMPDEST SWAP4 POP DUP1 NOT DUP4 AND SWAP3 POP DUP1 DUP5 AND DUP4 OR SWAP2 POP POP SWAP3 SWAP2 POP POP JUMP JUMPDEST PUSH2 0x8D7C DUP3 PUSH2 0x7C0B JUMP JUMPDEST PUSH2 0x8D8F PUSH2 0x8D88 DUP3 PUSH2 0x7C2C JUMP JUMPDEST DUP4 SLOAD PUSH2 0x8D32 JUMP JUMPDEST DUP3 SSTORE POP POP POP JUMP JUMPDEST PUSH0 DUP2 CALLDATALOAD PUSH2 0x8DA2 DUP2 PUSH2 0x6AF6 JUMP JUMPDEST DUP1 SWAP2 POP POP SWAP2 SWAP1 POP JUMP JUMPDEST PUSH0 PUSH20 0xFFFFFFFFFFFFFFFFFFFFFFFFFFFFFFFFFFFFFFFF PUSH2 0x8DCA DUP5 PUSH2 0x8D27 JUMP JUMPDEST SWAP4 POP DUP1 NOT DUP4 AND SWAP3 POP DUP1 DUP5 AND DUP4 OR SWAP2 POP POP SWAP3 SWAP2 POP POP JUMP JUMPDEST PUSH0 PUSH2 0x8DFA PUSH2 0x8DF5 PUSH2 0x8DF0 DUP5 PUSH2 0x69AE JUMP JUMPDEST PUSH2 0x7C02 JUMP JUMPDEST PUSH2 0x69AE JUMP JUMPDEST SWAP1 POP SWAP2 SWAP1 POP JUMP JUMPDEST PUSH0 PUSH2 0x8E0B DUP3 PUSH2 0x8DE0 JUMP JUMPDEST SWAP1 POP SWAP2 SWAP1 POP JUMP JUMPDEST PUSH0 PUSH2 0x8E1C DUP3 PUSH2 0x8E01 JUMP JUMPDEST SWAP1 POP SWAP2 SWAP1 POP JUMP JUMPDEST PUSH0 DUP2 SWAP1 POP SWAP2 SWAP1 POP JUMP JUMPDEST PUSH2 0x8E35 DUP3 PUSH2 0x8E12 JUMP JUMPDEST PUSH2 0x8E48 PUSH2 0x8E41 DUP3 PUSH2 0x8E23 JUMP JUMPDEST DUP4 SLOAD PUSH2 0x8DAB JUMP JUMPDEST DUP3 SSTORE POP POP POP JUMP JUMPDEST PUSH0 DUP1 DUP4 CALLDATALOAD PUSH1 0x1 PUSH1 0x20 SUB DUP5 CALLDATASIZE SUB SUB DUP2 SLT PUSH2 0x8E6B JUMPI PUSH2 0x8E6A PUSH2 0x8CDF JUMP JUMPDEST JUMPDEST DUP1 DUP5 ADD SWAP3 POP DUP3 CALLDATALOAD SWAP2 POP PUSH8 0xFFFFFFFFFFFFFFFF DUP3 GT ISZERO PUSH2 0x8E8D JUMPI PUSH2 0x8E8C PUSH2 0x8CE3 JUMP JUMPDEST JUMPDEST PUSH1 0x20 DUP4 ADD SWAP3 POP PUSH1 0x1 DUP3 MUL CALLDATASIZE SUB DUP4 SGT ISZERO PUSH2 0x8EA9 JUMPI PUSH2 0x8EA8 PUSH2 0x8CE7 JUMP JUMPDEST JUMPDEST POP SWAP3 POP SWAP3 SWAP1 POP JUMP JUMPDEST PUSH2 0x8EBC DUP4 DUP4 DUP4 PUSH2 0x8C12 JUMP JUMPDEST POP POP POP JUMP JUMPDEST PUSH0 DUP2 ADD PUSH0 DUP4 ADD DUP1 PUSH2 0x8ED1 DUP2 PUSH2 0x8D12 JUMP JUMPDEST SWAP1 POP PUSH2 0x8EDD DUP2 DUP5 PUSH2 0x8D73 JUMP JUMPDEST POP POP POP PUSH1 0x1 DUP2 ADD PUSH1 0x20 DUP4 ADD DUP1 PUSH2 0x8EF2 DUP2 PUSH2 0x8D96 JUMP JUMPDEST SWAP1 POP PUSH2 0x8EFE DUP2 DUP5 PUSH2 0x8E2C JUMP JUMPDEST POP POP POP PUSH1 0x2 DUP2 ADD PUSH1 0x40 DUP4 ADD PUSH2 0x8F13 DUP2 DUP6 PUSH2 0x8E4F JUMP JUMPDEST PUSH2 0x8F1E DUP2 DUP4 DUP7 PUSH2 0x8EB1 JUMP JUMPDEST POP POP POP POP POP POP JUMP JUMPDEST PUSH2 0x8F30 DUP3 DUP3 PUSH2 0x8EC1 JUMP JUMPDEST POP POP JUMP JUMPDEST PUSH0 PUSH2 0x8F3F DUP4 DUP6 PUSH2 0x69F7 JUMP JUMPDEST SWAP4 POP PUSH2 0x8F4C DUP4 DUP6 DUP5 PUSH2 0x6707 JUMP JUMPDEST PUSH2 0x8F55 DUP4 PUSH2 0x6643 JUMP JUMPDEST DUP5 ADD SWAP1 POP SWAP4 SWAP3 POP POP POP JUMP JUMPDEST PUSH0 PUSH1 0x20 DUP3 ADD SWAP1 POP DUP2 DUP2 SUB PUSH0 DUP4 ADD MSTORE PUSH2 0x8F79 DUP2 DUP5 DUP7 PUSH2 0x8F34 JUMP JUMPDEST SWAP1 POP SWAP4 SWAP3 POP POP POP JUMP JUMPDEST PUSH32 0x43616C6C206F6E6365206166746572205265666572656E64756D000000000000 PUSH0 DUP3 ADD MSTORE POP JUMP JUMPDEST PUSH0 PUSH2 0x8FB6 PUSH1 0x1A DUP4 PUSH2 0x69F7 JUMP JUMPDEST SWAP2 POP PUSH2 0x8FC1 DUP3 PUSH2 0x8F82 JUMP JUMPDEST PUSH1 0x20 DUP3 ADD SWAP1 POP SWAP2 SWAP1 POP JUMP JUMPDEST PUSH0 PUSH1 0x20 DUP3 ADD SWAP1 POP DUP2 DUP2 SUB PUSH0 DUP4 ADD MSTORE PUSH2 0x8FE3 DUP2 PUSH2 0x8FAA JUMP JUMPDEST SWAP1 POP SWAP2 SWAP1 POP JUMP JUMPDEST PUSH32 0x496E76616C69642043616E646964617465204944000000000000000000000000 PUSH0 DUP3 ADD MSTORE POP JUMP JUMPDEST PUSH0 PUSH2 0x901E PUSH1 0x14 DUP4 PUSH2 0x69F7 JUMP JUMPDEST SWAP2 POP PUSH2 0x9029 DUP3 PUSH2 0x8FEA JUMP JUMPDEST PUSH1 0x20 DUP3 ADD SWAP1 POP SWAP2 SWAP1 POP JUMP JUMPDEST PUSH0 PUSH1 0x20 DUP3 ADD SWAP1 POP DUP2 DUP2 SUB PUSH0 DUP4 ADD MSTORE PUSH2 0x904B DUP2 PUSH2 0x9012 JUMP JUMPDEST SWAP1 POP SWAP2 SWAP1 POP JUMP JUMPDEST PUSH32 0x4E6F742061204D656D6265720000000000000000000000000000000000000000 PUSH0 DUP3 ADD MSTORE POP JUMP JUMPDEST PUSH0 PUSH2 0x9086 PUSH1 0xC DUP4 PUSH2 0x69F7 JUMP JUMPDEST SWAP2 POP PUSH2 0x9091 DUP3 PUSH2 0x9052 JUMP JUMPDEST PUSH1 0x20 DUP3 ADD SWAP1 POP SWAP2 SWAP1 POP JUMP JUMPDEST PUSH0 PUSH1 0x20 DUP3 ADD SWAP1 POP DUP2 DUP2 SUB PUSH0 DUP4 ADD MSTORE PUSH2 0x90B3 DUP2 PUSH2 0x907A JUMP JUMPDEST SWAP1 POP SWAP2 SWAP1 POP JUMP JUMPDEST PUSH32 0x4E6F7420656E6F75676820617070726F76616C00000000000000000000000000 PUSH0 DUP3 ADD MSTORE POP JUMP JUMPDEST PUSH0 PUSH2 0x90EE PUSH1 0x13 DUP4 PUSH2 0x69F7 JUMP JUMPDEST SWAP2 POP PUSH2 0x90F9 DUP3 PUSH2 0x90BA JUMP JUMPDEST PUSH1 0x20 DUP3 ADD SWAP1 POP SWAP2 SWAP1 POP JUMP JUMPDEST PUSH0 PUSH1 0x20 DUP3 ADD SWAP1 POP DUP2 DUP2 SUB PUSH0 DUP4 ADD MSTORE PUSH2 0x911B DUP2 PUSH2 0x90E2 JUMP JUMPDEST SWAP1 POP SWAP2 SWAP1 POP JUMP JUMPDEST PUSH32 0x566F746572206861736820616C726561647920726567697374657265642E0000 PUSH0 DUP3 ADD MSTORE POP JUMP JUMPDEST PUSH0 PUSH2 0x9156 PUSH1 0x1E DUP4 PUSH2 0x69F7 JUMP JUMPDEST SWAP2 POP PUSH2 0x9161 DUP3 PUSH2 0x9122 JUMP JUMPDEST PUSH1 0x20 DUP3 ADD SWAP1 POP SWAP2 SWAP1 POP JUMP JUMPDEST PUSH0 PUSH1 0x20 DUP3 ADD SWAP1 POP DUP2 DUP2 SUB PUSH0 DUP4 ADD MSTORE PUSH2 0x9183 DUP2 PUSH2 0x914A JUMP JUMPDEST SWAP1 POP SWAP2 SWAP1 POP JUMP JUMPDEST PUSH0 PUSH1 0x40 DUP3 ADD SWAP1 POP PUSH2 0x919D PUSH0 DUP4 ADD DUP6 PUSH2 0x69DE JUMP JUMPDEST PUSH2 0x91AA PUSH1 0x20 DUP4 ADD DUP5 PUSH2 0x885E JUMP JUMPDEST SWAP4 SWAP3 POP POP POP JUMP JUMPDEST PUSH0 PUSH2 0x91BB DUP3 PUSH2 0x6A5C JUMP JUMPDEST SWAP2 POP PUSH2 0x91C6 DUP4 PUSH2 0x6A5C JUMP JUMPDEST SWAP3 POP DUP3 DUP3 MUL PUSH2 0x91D4 DUP2 PUSH2 0x6A5C JUMP JUMPDEST SWAP2 POP DUP1 DUP3 EQ PUSH2 0x91E6 JUMPI PUSH2 0x91E5 PUSH2 0x7DF0 JUMP JUMPDEST JUMPDEST POP SWAP3 SWAP2 POP POP JUMP JUMPDEST PUSH0 PUSH2 0x91F7 DUP3 PUSH2 0x67B6 JUMP JUMPDEST SWAP2 POP PUSH2 0x9202 DUP4 PUSH2 0x67B6 JUMP JUMPDEST SWAP3 POP DUP3 DUP3 ADD SWAP1 POP DUP1 DUP3 GT ISZERO PUSH2 0x921A JUMPI PUSH2 0x9219 PUSH2 0x7DF0 JUMP JUMPDEST JUMPDEST SWAP3 SWAP2 POP POP JUMP JUMPDEST PUSH32 0x43757272656E74206C65616465722773207465726D206E6F742066696E697368 PUSH0 DUP3 ADD MSTORE PUSH32 0x6564000000000000000000000000000000000000000000000000000000000000 PUSH1 0x20 DUP3 ADD MSTORE POP JUMP JUMPDEST PUSH0 PUSH2 0x927A PUSH1 0x22 DUP4 PUSH2 0x69F7 JUMP JUMPDEST SWAP2 POP PUSH2 0x9285 DUP3 PUSH2 0x9220 JUMP JUMPDEST PUSH1 0x40 DUP3 ADD SWAP1 POP SWAP2 SWAP1 POP JUMP JUMPDEST PUSH0 PUSH1 0x20 DUP3 ADD SWAP1 POP DUP2 DUP2 SUB PUSH0 DUP4 ADD MSTORE PUSH2 0x92A7 DUP2 PUSH2 0x926E JUMP JUMPDEST SWAP1 POP SWAP2 SWAP1 POP JUMP JUMPDEST PUSH32 0x4E6F7420696E20456C656374696F6E2070686173650000000000000000000000 PUSH0 DUP3 ADD MSTORE POP JUMP JUMPDEST PUSH0 PUSH2 0x92E2 PUSH1 0x15 DUP4 PUSH2 0x69F7 JUMP JUMPDEST SWAP2 POP PUSH2 0x92ED DUP3 PUSH2 0x92AE JUMP JUMPDEST PUSH1 0x20 DUP3 ADD SWAP1 POP SWAP2 SWAP1 POP JUMP JUMPDEST PUSH0 PUSH1 0x20 DUP3 ADD SWAP1 POP DUP2 DUP2 SUB PUSH0 DUP4 ADD MSTORE PUSH2 0x930F DUP2 PUSH2 0x92D6 JUMP JUMPDEST SWAP1 POP SWAP2 SWAP1 POP JUMP JUMPDEST PUSH32 0x496E76616C696420766F746520636F756E740000000000000000000000000000 PUSH0 DUP3 ADD MSTORE POP JUMP JUMPDEST PUSH0 PUSH2 0x934A PUSH1 0x12 DUP4 PUSH2 0x69F7 JUMP JUMPDEST SWAP2 POP PUSH2 0x9355 DUP3 PUSH2 0x9316 JUMP JUMPDEST PUSH1 0x20 DUP3 ADD SWAP1 POP SWAP2 SWAP1 POP JUMP JUMPDEST PUSH0 PUSH1 0x20 DUP3 ADD SWAP1 POP DUP2 DUP2 SUB PUSH0 DUP4 ADD MSTORE PUSH2 0x9377 DUP2 PUSH2 0x933E JUMP JUMPDEST SWAP1 POP SWAP2 SWAP1 POP JUMP JUMPDEST PUSH32 0x416C726561647920766F74656420283E3129206F72206E6F7420726567697374 PUSH0 DUP3 ADD MSTORE PUSH32 0x6572656420283029000000000000000000000000000000000000000000000000 PUSH1 0x20 DUP3 ADD MSTORE POP JUMP JUMPDEST PUSH0 PUSH2 0x93D8 PUSH1 0x28 DUP4 PUSH2 0x69F7 JUMP JUMPDEST SWAP2 POP PUSH2 0x93E3 DUP3 PUSH2 0x937E JUMP JUMPDEST PUSH1 0x40 DUP3 ADD SWAP1 POP SWAP2 SWAP1 POP JUMP JUMPDEST PUSH0 PUSH1 0x20 DUP3 ADD SWAP1 POP DUP2 DUP2 SUB PUSH0 DUP4 ADD MSTORE PUSH2 0x9405 DUP2 PUSH2 0x93CC JUMP JUMPDEST SWAP1 POP SWAP2 SWAP1 POP JUMP JUMPDEST PUSH32 0x57726F6E672063616E64696461746520696E6465780000000000000000000000 PUSH0 DUP3 ADD MSTORE POP JUMP JUMPDEST PUSH0 PUSH2 0x9440 PUSH1 0x15 DUP4 PUSH2 0x69F7 JUMP JUMPDEST SWAP2 POP PUSH2 0x944B DUP3 PUSH2 0x940C JUMP JUMPDEST PUSH1 0x20 DUP3 ADD SWAP1 POP SWAP2 SWAP1 POP JUMP JUMPDEST PUSH0 PUSH1 0x20 DUP3 ADD SWAP1 POP DUP2 DUP2 SUB PUSH0 DUP4 ADD MSTORE PUSH2 0x946D DUP2 PUSH2 0x9434 JUMP JUMPDEST SWAP1 POP SWAP2 SWAP1 POP JUMP JUMPDEST PUSH32 0x526570657469746976652063616E64696461746520696E646578000000000000 PUSH0 DUP3 ADD MSTORE POP JUMP JUMPDEST PUSH0 PUSH2 0x94A8 PUSH1 0x1A DUP4 PUSH2 0x69F7 JUMP JUMPDEST SWAP2 POP PUSH2 0x94B3 DUP3 PUSH2 0x9474 JUMP JUMPDEST PUSH1 0x20 DUP3 ADD SWAP1 POP SWAP2 SWAP1 POP JUMP JUMPDEST PUSH0 PUSH1 0x20 DUP3 ADD SWAP1 POP DUP2 DUP2 SUB PUSH0 DUP4 ADD MSTORE PUSH2 0x94D5 DUP2 PUSH2 0x949C JUMP JUMPDEST SWAP1 POP SWAP2 SWAP1 POP JUMP JUMPDEST PUSH32 0x4F6E6C79206D656D626572732063616E2070726F706F73650000000000000000 PUSH0 DUP3 ADD MSTORE POP JUMP JUMPDEST PUSH0 PUSH2 0x9510 PUSH1 0x18 DUP4 PUSH2 0x69F7 JUMP JUMPDEST SWAP2 POP PUSH2 0x951B DUP3 PUSH2 0x94DC JUMP JUMPDEST PUSH1 0x20 DUP3 ADD SWAP1 POP SWAP2 SWAP1 POP JUMP JUMPDEST PUSH0 PUSH1 0x20 DUP3 ADD SWAP1 POP DUP2 DUP2 SUB PUSH0 DUP4 ADD MSTORE PUSH2 0x953D DUP2 PUSH2 0x9504 JUMP JUMPDEST SWAP1 POP SWAP2 SWAP1 POP JUMP JUMPDEST PUSH32 0x526174652063616E6E6F74206578636565642035302500000000000000000000 PUSH0 DUP3 ADD MSTORE POP JUMP JUMPDEST PUSH0 PUSH2 0x9578 PUSH1 0x16 DUP4 PUSH2 0x69F7 JUMP JUMPDEST SWAP2 POP PUSH2 0x9583 DUP3 PUSH2 0x9544 JUMP JUMPDEST PUSH1 0x20 DUP3 ADD SWAP1 POP SWAP2 SWAP1 POP JUMP JUMPDEST PUSH0 PUSH1 0x20 DUP3 ADD SWAP1 POP DUP2 DUP2 SUB PUSH0 DUP4 ADD MSTORE PUSH2 0x95A5 DUP2 PUSH2 0x956C JUMP JUMPDEST SWAP1 POP SWAP2 SWAP1 POP JUMP JUMPDEST PUSH0 PUSH2 0x95B6 DUP3 PUSH2 0x6A5C JUMP JUMPDEST SWAP2 POP PUSH2 0x95C1 DUP4 PUSH2 0x6A5C JUMP JUMPDEST SWAP3 POP DUP3 DUP3 SUB SWAP1 POP PUSH1 0xFF DUP2 GT ISZERO PUSH2 0x95DA JUMPI PUSH2 0x95D9 PUSH2 0x7DF0 JUMP JUMPDEST JUMPDEST SWAP3 SWAP2 POP POP JUMP JUMPDEST PUSH0 PUSH2 0x95EA DUP3 PUSH2 0x6A5C JUMP JUMPDEST SWAP2 POP PUSH2 0x95F5 DUP4 PUSH2 0x6A5C JUMP JUMPDEST SWAP3 POP DUP3 DUP3 ADD SWAP1 POP PUSH1 0xFF DUP2 GT ISZERO PUSH2 0x960E JUMPI PUSH2 0x960D PUSH2 0x7DF0 JUMP JUMPDEST JUMPDEST SWAP3 SWAP2 POP POP JUMP JUMPDEST PUSH0 PUSH2 0x961E DUP3 PUSH2 0x6A5C JUMP JUMPDEST SWAP2 POP PUSH0 DUP3 SUB PUSH2 0x9630 JUMPI PUSH2 0x962F PUSH2 0x7DF0 JUMP JUMPDEST JUMPDEST PUSH1 0x1 DUP3 SUB SWAP1 POP SWAP2 SWAP1 POP JUMP JUMPDEST PUSH0 PUSH1 0x80 DUP3 ADD SWAP1 POP PUSH2 0x964E PUSH0 DUP4 ADD DUP8 PUSH2 0x6A4D JUMP JUMPDEST PUSH2 0x965B PUSH1 0x20 DUP4 ADD DUP7 PUSH2 0x6A68 JUMP JUMPDEST PUSH2 0x9668 PUSH1 0x40 DUP4 ADD DUP6 PUSH2 0x6A4D JUMP JUMPDEST PUSH2 0x9675 PUSH1 0x60 DUP4 ADD DUP5 PUSH2 0x6A68 JUMP JUMPDEST SWAP6 SWAP5 POP POP POP POP POP JUMP JUMPDEST PUSH32 0x4E487B7100000000000000000000000000000000000000000000000000000000 PUSH0 MSTORE PUSH1 0x12 PUSH1 0x4 MSTORE PUSH1 0x24 PUSH0 REVERT JUMPDEST PUSH0 PUSH2 0x96B5 DUP3 PUSH2 0x6A5C JUMP JUMPDEST SWAP2 POP PUSH2 0x96C0 DUP4 PUSH2 0x6A5C JUMP JUMPDEST SWAP3 POP DUP3 PUSH2 0x96D0 JUMPI PUSH2 0x96CF PUSH2 0x967E JUMP JUMPDEST JUMPDEST DUP3 DUP3 DIV SWAP1 POP SWAP3 SWAP2 POP POP JUMP JUMPDEST PUSH32 0x43616E6E6F74207374617274207265666572656E64756D207965740000000000 PUSH0 DUP3 ADD MSTORE POP JUMP JUMPDEST PUSH0 PUSH2 0x970F PUSH1 0x1B DUP4 PUSH2 0x69F7 JUMP JUMPDEST SWAP2 POP PUSH2 0x971A DUP3 PUSH2 0x96DB JUMP JUMPDEST PUSH1 0x20 DUP3 ADD SWAP1 POP SWAP2 SWAP1 POP JUMP JUMPDEST PUSH0 PUSH1 0x20 DUP3 ADD SWAP1 POP DUP2 DUP2 SUB PUSH0 DUP4 ADD MSTORE PUSH2 0x973C DUP2 PUSH2 0x9703 JUMP JUMPDEST SWAP1 POP SWAP2 SWAP1 POP JUMP JUMPDEST PUSH32 0x416C7265616479207261746966696564206120636F6E737469747574696F6E00 PUSH0 DUP3 ADD MSTORE POP JUMP JUMPDEST PUSH0 PUSH2 0x9777 PUSH1 0x1F DUP4 PUSH2 0x69F7 JUMP JUMPDEST SWAP2 POP PUSH2 0x9782 DUP3 PUSH2 0x9743 JUMP JUMPDEST PUSH1 0x20 DUP3 ADD SWAP1 POP SWAP2 SWAP1 POP JUMP JUMPDEST PUSH0 PUSH1 0x20 DUP3 ADD SWAP1 POP DUP2 DUP2 SUB PUSH0 DUP4 ADD MSTORE PUSH2 0x97A4 DUP2 PUSH2 0x976B JUMP JUMPDEST SWAP1 POP SWAP2 SWAP1 POP JUMP JUMPDEST PUSH32 0x4E6F7420656E6F75676820647261667473000000000000000000000000000000 PUSH0 DUP3 ADD MSTORE POP JUMP JUMPDEST PUSH0 PUSH2 0x97DF PUSH1 0x11 DUP4 PUSH2 0x69F7 JUMP JUMPDEST SWAP2 POP PUSH2 0x97EA DUP3 PUSH2 0x97AB JUMP JUMPDEST PUSH1 0x20 DUP3 ADD SWAP1 POP SWAP2 SWAP1 POP JUMP JUMPDEST PUSH0 PUSH1 0x20 DUP3 ADD SWAP1 POP DUP2 DUP2 SUB PUSH0 DUP4 ADD MSTORE PUSH2 0x980C DUP2 PUSH2 0x97D3 JUMP JUMPDEST SWAP1 POP SWAP2 SWAP1 POP JUMP JUMPDEST PUSH32 0x4E6F7420656E6F75676820766F74657273000000000000000000000000000000 PUSH0 DUP3 ADD MSTORE POP JUMP JUMPDEST PUSH0 PUSH2 0x9847 PUSH1 0x11 DUP4 PUSH2 0x69F7 JUMP JUMPDEST SWAP2 POP PUSH2 0x9852 DUP3 PUSH2 0x9813 JUMP JUMPDEST PUSH1 0x20 DUP3 ADD SWAP1 POP SWAP2 SWAP1 POP JUMP JUMPDEST PUSH0 PUSH1 0x20 DUP3 ADD SWAP1 POP DUP2 DUP2 SUB PUSH0 DUP4 ADD MSTORE PUSH2 0x9874 DUP2 PUSH2 0x983B JUMP JUMPDEST SWAP1 POP SWAP2 SWAP1 POP JUMP JUMPDEST PUSH32 0x4E6F7420696E205265666572656E64756D2074696D6500000000000000000000 PUSH0 DUP3 ADD MSTORE POP JUMP JUMPDEST PUSH0 PUSH2 0x98AF PUSH1 0x16 DUP4 PUSH2 0x69F7 JUMP JUMPDEST SWAP2 POP PUSH2 0x98BA DUP3 PUSH2 0x987B JUMP JUMPDEST PUSH1 0x20 DUP3 ADD SWAP1 POP SWAP2 SWAP1 POP JUMP JUMPDEST PUSH0 PUSH1 0x20 DUP3 ADD SWAP1 POP DUP2 DUP2 SUB PUSH0 DUP4 ADD MSTORE PUSH2 0x98DC DUP2 PUSH2 0x98A3 JUMP JUMPDEST SWAP1 POP SWAP2 SWAP1 POP JUMP JUMPDEST PUSH32 0x496E76616C6964206472616674206C6973740000000000000000000000000000 PUSH0 DUP3 ADD MSTORE POP JUMP JUMPDEST PUSH0 PUSH2 0x9917 PUSH1 0x12 DUP4 PUSH2 0x69F7 JUMP JUMPDEST SWAP2 POP PUSH2 0x9922 DUP3 PUSH2 0x98E3 JUMP JUMPDEST PUSH1 0x20 DUP3 ADD SWAP1 POP SWAP2 SWAP1 POP JUMP JUMPDEST PUSH0 PUSH1 0x20 DUP3 ADD SWAP1 POP DUP2 DUP2 SUB PUSH0 DUP4 ADD MSTORE PUSH2 0x9944 DUP2 PUSH2 0x990B JUMP JUMPDEST SWAP1 POP SWAP2 SWAP1 POP JUMP JUMPDEST PUSH32 0x566F746564206F72204E6F74207265676973746572656420656E6F7567682074 PUSH0 DUP3 ADD MSTORE PUSH32 0x696D657300000000000000000000000000000000000000000000000000000000 PUSH1 0x20 DUP3 ADD MSTORE POP JUMP JUMPDEST PUSH0 PUSH2 0x99A5 PUSH1 0x24 DUP4 PUSH2 0x69F7 JUMP JUMPDEST SWAP2 POP PUSH2 0x99B0 DUP3 PUSH2 0x994B JUMP JUMPDEST PUSH1 0x40 DUP3 ADD SWAP1 POP SWAP2 SWAP1 POP JUMP JUMPDEST PUSH0 PUSH1 0x20 DUP3 ADD SWAP1 POP DUP2 DUP2 SUB PUSH0 DUP4 ADD MSTORE PUSH2 0x99D2 DUP2 PUSH2 0x9999 JUMP JUMPDEST SWAP1 POP SWAP2 SWAP1 POP JUMP JUMPDEST PUSH32 0x496E76616C696420647261667400000000000000000000000000000000000000 PUSH0 DUP3 ADD MSTORE POP JUMP JUMPDEST PUSH0 PUSH2 0x9A0D PUSH1 0xD DUP4 PUSH2 0x69F7 JUMP JUMPDEST SWAP2 POP PUSH2 0x9A18 DUP3 PUSH2 0x99D9 JUMP JUMPDEST PUSH1 0x20 DUP3 ADD SWAP1 POP SWAP2 SWAP1 POP JUMP JUMPDEST PUSH0 PUSH1 0x20 DUP3 ADD SWAP1 POP DUP2 DUP2 SUB PUSH0 DUP4 ADD MSTORE PUSH2 0x9A3A DUP2 PUSH2 0x9A01 JUMP JUMPDEST SWAP1 POP SWAP2 SWAP1 POP JUMP JUMPDEST PUSH32 0x5265706574697469766520647261667449640000000000000000000000000000 PUSH0 DUP3 ADD MSTORE POP JUMP JUMPDEST PUSH0 PUSH2 0x9A75 PUSH1 0x12 DUP4 PUSH2 0x69F7 JUMP JUMPDEST SWAP2 POP PUSH2 0x9A80 DUP3 PUSH2 0x9A41 JUMP JUMPDEST PUSH1 0x20 DUP3 ADD SWAP1 POP SWAP2 SWAP1 POP JUMP JUMPDEST PUSH0 PUSH1 0x20 DUP3 ADD SWAP1 POP DUP2 DUP2 SUB PUSH0 DUP4 ADD MSTORE PUSH2 0x9AA2 DUP2 PUSH2 0x9A69 JUMP JUMPDEST SWAP1 POP SWAP2 SWAP1 POP JUMP JUMPDEST PUSH32 0x4F6E6C79207468652070726F706F7365722063616E2077697468647261770000 PUSH0 DUP3 ADD MSTORE POP JUMP JUMPDEST PUSH0 PUSH2 0x9ADD PUSH1 0x1E DUP4 PUSH2 0x69F7 JUMP JUMPDEST SWAP2 POP PUSH2 0x9AE8 DUP3 PUSH2 0x9AA9 JUMP JUMPDEST PUSH1 0x20 DUP3 ADD SWAP1 POP SWAP2 SWAP1 POP JUMP JUMPDEST PUSH0 PUSH1 0x20 DUP3 ADD SWAP1 POP DUP2 DUP2 SUB PUSH0 DUP4 ADD MSTORE PUSH2 0x9B0A DUP2 PUSH2 0x9AD1 JUMP JUMPDEST SWAP1 POP SWAP2 SWAP1 POP JUMP JUMPDEST PUSH32 0x50726F706F73616C20616C726561647920657865637574656400000000000000 PUSH0 DUP3 ADD MSTORE POP JUMP JUMPDEST PUSH0 PUSH2 0x9B45 PUSH1 0x19 DUP4 PUSH2 0x69F7 JUMP JUMPDEST SWAP2 POP PUSH2 0x9B50 DUP3 PUSH2 0x9B11 JUMP JUMPDEST PUSH1 0x20 DUP3 ADD SWAP1 POP SWAP2 SWAP1 POP JUMP JUMPDEST PUSH0 PUSH1 0x20 DUP3 ADD SWAP1 POP DUP2 DUP2 SUB PUSH0 DUP4 ADD MSTORE PUSH2 0x9B72 DUP2 PUSH2 0x9B39 JUMP JUMPDEST SWAP1 POP SWAP2 SWAP1 POP JUMP JUMPDEST PUSH32 0x50726F706F73616C20616C72656164792077697468647261776E000000000000 PUSH0 DUP3 ADD MSTORE POP JUMP JUMPDEST PUSH0 PUSH2 0x9BAD PUSH1 0x1A DUP4 PUSH2 0x69F7 JUMP JUMPDEST SWAP2 POP PUSH2 0x9BB8 DUP3 PUSH2 0x9B79 JUMP JUMPDEST PUSH1 0x20 DUP3 ADD SWAP1 POP SWAP2 SWAP1 POP JUMP JUMPDEST PUSH0 PUSH1 0x20 DUP3 ADD SWAP1 POP DUP2 DUP2 SUB PUSH0 DUP4 ADD MSTORE PUSH2 0x9BDA DUP2 PUSH2 0x9BA1 JUMP JUMPDEST SWAP1 POP SWAP2 SWAP1 POP JUMP JUMPDEST PUSH32 0x43616C6C20616674657220656C656374696F6E00000000000000000000000000 PUSH0 DUP3 ADD MSTORE POP JUMP JUMPDEST PUSH0 PUSH2 0x9C15 PUSH1 0x13 DUP4 PUSH2 0x69F7 JUMP JUMPDEST SWAP2 POP PUSH2 0x9C20 DUP3 PUSH2 0x9BE1 JUMP JUMPDEST PUSH1 0x20 DUP3 ADD SWAP1 POP SWAP2 SWAP1 POP JUMP JUMPDEST PUSH0 PUSH1 0x20 DUP3 ADD SWAP1 POP DUP2 DUP2 SUB PUSH0 DUP4 ADD MSTORE PUSH2 0x9C42 DUP2 PUSH2 0x9C09 JUMP JUMPDEST SWAP1 POP SWAP2 SWAP1 POP JUMP JUMPDEST PUSH0 PUSH1 0x32 SWAP1 POP SWAP2 SWAP1 POP JUMP JUMPDEST PUSH0 DUP2 SWAP1 POP SWAP3 SWAP2 POP POP JUMP JUMPDEST PUSH0 DUP2 SWAP1 POP SWAP2 SWAP1 POP JUMP JUMPDEST PUSH0 DUP2 PUSH0 SHR SWAP1 POP SWAP2 SWAP1 POP JUMP JUMPDEST PUSH0 PUSH20 0xFFFFFFFFFFFFFFFFFFFFFFFFFFFFFFFFFFFFFFFF DUP3 AND SWAP1 POP SWAP2 SWAP1 POP JUMP JUMPDEST PUSH0 PUSH2 0x9CA2 PUSH2 0x9C9D DUP4 PUSH2 0x9C66 JUMP JUMPDEST PUSH2 0x9C71 JUMP JUMPDEST SWAP1 POP SWAP2 SWAP1 POP JUMP JUMPDEST PUSH0 PUSH2 0x9CB4 DUP3 SLOAD PUSH2 0x9C90 JUMP JUMPDEST SWAP1 POP SWAP2 SWAP1 POP JUMP JUMPDEST PUSH0 PUSH1 0x1 DUP3 ADD SWAP1 POP SWAP2 SWAP1 POP JUMP JUMPDEST PUSH2 0x9CD0 DUP2 PUSH2 0x9C49 JUMP JUMPDEST PUSH2 0x9CDA DUP2 DUP5 PUSH2 0x9C53 JUMP JUMPDEST SWAP3 POP PUSH2 0x9CE5 DUP3 PUSH2 0x9C5D JUMP JUMPDEST DUP1 PUSH0 JUMPDEST DUP4 DUP2 LT ISZERO PUSH2 0x9D1C JUMPI PUSH2 0x9CF9 DUP3 PUSH2 0x9CA9 JUMP JUMPDEST PUSH2 0x9D03 DUP8 DUP3 PUSH2 0x878B JUMP JUMPDEST SWAP7 POP PUSH2 0x9D0E DUP4 PUSH2 0x9CBB JUMP JUMPDEST SWAP3 POP POP PUSH1 0x1 DUP2 ADD SWAP1 POP PUSH2 0x9CE8 JUMP JUMPDEST POP POP POP POP POP POP JUMP JUMPDEST PUSH0 PUSH2 0x9D2F DUP3 DUP5 PUSH2 0x9CC7 JUMP JUMPDEST PUSH2 0x640 DUP3 ADD SWAP2 POP DUP2 SWAP1 POP SWAP3 SWAP2 POP POP JUMP JUMPDEST PUSH32 0x496E76616C696420636F6E737469747574696F6E206472616674204944000000 PUSH0 DUP3 ADD MSTORE POP JUMP JUMPDEST PUSH0 PUSH2 0x9D73 PUSH1 0x1D DUP4 PUSH2 0x69F7 JUMP JUMPDEST SWAP2 POP PUSH2 0x9D7E DUP3 PUSH2 0x9D3F JUMP JUMPDEST PUSH1 0x20 DUP3 ADD SWAP1 POP SWAP2 SWAP1 POP JUMP JUMPDEST PUSH0 PUSH1 0x20 DUP3 ADD SWAP1 POP DUP2 DUP2 SUB PUSH0 DUP4 ADD MSTORE PUSH2 0x9DA0 DUP2 PUSH2 0x9D67 JUMP JUMPDEST SWAP1 POP SWAP2 SWAP1 POP JUMP INVALID LOG2 PUSH5 0x6970667358 0x22 SLT KECCAK256 0xD1 0xBE SWAP8 GAS 0xEA SWAP3 BYTE SLT BASEFEE TIMESTAMP RETURNDATACOPY 0xC1 0x1E XOR 0xB0 0xAA 0xAA RETURNDATASIZE DUP10 0xB1 SWAP3 0x4D SWAP4 SIGNEXTEND PUSH9 0xB69822DD2F967B6473 PUSH16 0x6C634300081A00330000000000000000 "
		},
		"gasEstimates": {
			"creation": {
				"codeDepositCost": "8082600",
				"executionCost": "infinite",
				"totalCost": "infinite"
			},
			"external": {
				"GOV_LENGTH()": "393",
				"LEAD_PERIOD()": "416",
				"LenderTxns(address,uint256)": "infinite",
				"MAX_APPROVALS()": "437",
				"MIN_DRAFTS()": "486",
				"MIN_VOTERS()": "420",
				"N_MEMBERS()": "398",
				"RANDOM_VOTERS()": "443",
				"REF_VOTER_BATCH()": "464",
				"REG_FEE()": "460",
				"REG_TIME()": "394",
				"REQUIRED_SCORE()": "437",
				"SUBMISSION_FEE()": "459",
				"SUPER_MAJORITY()": "420",
				"VOTER_BATCH()": "398",
				"activeProposalByMember(address)": "2892",
				"addVoter(bytes32[10],address[10])": "infinite",
				"approveRegistrar(address,int8)": "infinite",
				"candidateInfo(address)": "infinite",
				"candidateList(uint256)": "5078",
				"changeLeader()": "infinite",
				"constitutionDrafts(uint256)": "infinite",
				"currentLeaderAddress()": "2626",
				"currentLeaderNumber()": "2494",
				"currentRate()": "2579",
				"electionEnd()": "2491",
				"getBalance()": "infinite",
				"getCandidateInfo(uint256)": "infinite",
				"getConstitution(uint256)": "infinite",
				"getCurrentPhase()": "infinite",
				"getElectionResults()": "infinite",
				"getHashStatus(bytes32)": "2921",
				"getMemberActiveProposal(address)": "5143",
				"getProposalInfo(uint256)": "infinite",
				"getReferendumResults()": "infinite",
				"getRegistrarsOfHash(bytes32)": "infinite",
				"getVoteTime(address)": "2940",
				"getVoterStatus(address)": "2919",
				"getVotingTimeProposal(uint256,address)": "infinite",
				"interestPeriods(uint256)": "infinite",
				"lend()": "70505",
				"memberApprovalCount(address)": "2870",
				"memberRank(address)": "2966",
				"memberRegistrar(address,address)": "infinite",
				"memberVotedAt(address,uint256)": "infinite",
				"membersElected()": "2557",
				"neutral()": "2621",
				"numberOfRates()": "2535",
				"proposals(uint256)": "infinite",
				"proposeProposal(string,(uint256,address,string)[])": "infinite",
				"proposeRate(uint256)": "infinite",
				"ratifiedConstitutionId()": "2513",
				"referendumEndTime()": "2537",
				"referendumVoterCount()": "2555",
				"registerAsCandidate(string,string,string)": "infinite",
				"registerVoterBatch(bytes32[10],address[10])": "infinite",
				"registrarScore(address)": "2937",
				"sortedRates(uint256)": "infinite",
				"startReferendum()": "infinite",
				"startTime()": "infinite",
				"submitDraft((string,string,string,string,bytes32,string,uint256,uint256))": "infinite",
				"treasuryReserve()": "468",
				"voteCandidates(uint256[])": "infinite",
				"voteForProposal(uint256)": "infinite",
				"voteInReferendum(uint256[])": "infinite",
				"withdrawProposal(uint256)": "39670"
			}
		},
		"methodIdentifiers": {
			"GOV_LENGTH()": "5004e24a",
			"LEAD_PERIOD()": "49066e79",
			"LenderTxns(address,uint256)": "53fdc838",
			"MAX_APPROVALS()": "beb54795",
			"MIN_DRAFTS()": "86a0dd7d",
			"MIN_VOTERS()": "d1791ae0",
			"N_MEMBERS()": "e292bf16",
			"RANDOM_VOTERS()": "3def77b7",
			"REF_VOTER_BATCH()": "8325ed2d",
			"REG_FEE()": "4ebeb109",
			"REG_TIME()": "47f7b722",
			"REQUIRED_SCORE()": "54c17527",
			"SUBMISSION_FEE()": "7d48536d",
			"SUPER_MAJORITY()": "b85c2292",
			"VOTER_BATCH()": "b5ba9795",
			"activeProposalByMember(address)": "ac0af944",
			"addVoter(bytes32[10],address[10])": "26c29449",
			"approveRegistrar(address,int8)": "29c83be1",
			"candidateInfo(address)": "e965b7c9",
			"candidateList(uint256)": "b13c744b",
			"changeLeader()": "a5f5b1bf",
			"constitutionDrafts(uint256)": "bbea6f0b",
			"currentLeaderAddress()": "7da4ce83",
			"currentLeaderNumber()": "16392372",
			"currentRate()": "f9f8bdb7",
			"electionEnd()": "ce7ea161",
			"getBalance()": "12065fe0",
			"getCandidateInfo(uint256)": "70f67cfe",
			"getConstitution(uint256)": "f3a4aba9",
			"getCurrentPhase()": "a3a40ea5",
			"getElectionResults()": "eccf1f10",
			"getHashStatus(bytes32)": "7f4241e7",
			"getMemberActiveProposal(address)": "9dc55056",
			"getProposalInfo(uint256)": "bc903cb8",
			"getReferendumResults()": "452d32bb",
			"getRegistrarsOfHash(bytes32)": "08ec6a19",
			"getVoteTime(address)": "d90d7cd8",
			"getVoterStatus(address)": "78e3ef20",
			"getVotingTimeProposal(uint256,address)": "7e8c2da8",
			"interestPeriods(uint256)": "f33e9573",
			"lend()": "97dffc61",
			"memberApprovalCount(address)": "3590c0fd",
			"memberRank(address)": "eab536fc",
			"memberRegistrar(address,address)": "071a3474",
			"memberVotedAt(address,uint256)": "2190bee8",
			"membersElected()": "089e35b8",
			"neutral()": "4d0c8726",
			"numberOfRates()": "8f3218df",
			"proposals(uint256)": "013cf08b",
			"proposeProposal(string,(uint256,address,string)[])": "3b497b28",
			"proposeRate(uint256)": "bdc8e7b3",
			"ratifiedConstitutionId()": "eedb2d28",
			"referendumEndTime()": "b0feb260",
			"referendumVoterCount()": "e42a54c4",
			"registerAsCandidate(string,string,string)": "079ddd11",
			"registerVoterBatch(bytes32[10],address[10])": "99b0d39c",
			"registrarScore(address)": "9a741327",
			"sortedRates(uint256)": "9dc99455",
			"startReferendum()": "be003ee6",
			"startTime()": "78e97925",
			"submitDraft((string,string,string,string,bytes32,string,uint256,uint256))": "00fa88e2",
			"treasuryReserve()": "59297dbf",
			"voteCandidates(uint256[])": "a6a5ad12",
			"voteForProposal(uint256)": "045c6ce0",
			"voteInReferendum(uint256[])": "c1b13157",
			"withdrawProposal(uint256)": "e1f02ffa"
		}
	},
	"abi": [
		{
			"inputs": [
				{
					"internalType": "address",
					"name": "_neutral",
					"type": "address"
				},
				{
					"internalType": "string",
					"name": "_provisions",
					"type": "string"
				}
			],
			"stateMutability": "nonpayable",
			"type": "constructor"
		},
		{
			"anonymous": false,
			"inputs": [
				{
					"indexed": true,
					"internalType": "address",
					"name": "candidate",
					"type": "address"
				},
				{
					"indexed": false,
					"internalType": "string",
					"name": "fullName",
					"type": "string"
				},
				{
					"indexed": false,
					"internalType": "string",
					"name": "bio",
					"type": "string"
				},
				{
					"indexed": false,
					"internalType": "string",
					"name": "website",
					"type": "string"
				}
			],
			"name": "CandidateRegistered",
			"type": "event"
		},
		{
			"anonymous": false,
			"inputs": [
				{
					"indexed": true,
					"internalType": "uint256",
					"name": "draftId",
					"type": "uint256"
				},
				{
					"components": [
						{
							"internalType": "string",
							"name": "description",
							"type": "string"
						},
						{
							"internalType": "string",
							"name": "constitutionText",
							"type": "string"
						},
						{
							"internalType": "string",
							"name": "implementationCode",
							"type": "string"
						},
						{
							"internalType": "string",
							"name": "submitterIdentity",
							"type": "string"
						},
						{
							"internalType": "bytes32",
							"name": "hashedOffChain",
							"type": "bytes32"
						},
						{
							"internalType": "string",
							"name": "supportingMaterials",
							"type": "string"
						},
						{
							"internalType": "uint256",
							"name": "submittedAt",
							"type": "uint256"
						},
						{
							"internalType": "uint256",
							"name": "voteCount",
							"type": "uint256"
						}
					],
					"indexed": false,
					"internalType": "struct Referendum.ConstitutionDraft",
					"name": "draft",
					"type": "tuple"
				}
			],
			"name": "ConstitutionDraftSubmitted",
			"type": "event"
		},
		{
			"anonymous": false,
			"inputs": [
				{
					"indexed": true,
					"internalType": "uint256",
					"name": "winningProposalId",
					"type": "uint256"
				},
				{
					"components": [
						{
							"internalType": "string",
							"name": "description",
							"type": "string"
						},
						{
							"internalType": "string",
							"name": "constitutionText",
							"type": "string"
						},
						{
							"internalType": "string",
							"name": "implementationCode",
							"type": "string"
						},
						{
							"internalType": "string",
							"name": "submitterIdentity",
							"type": "string"
						},
						{
							"internalType": "bytes32",
							"name": "hashedOffChain",
							"type": "bytes32"
						},
						{
							"internalType": "string",
							"name": "supportingMaterials",
							"type": "string"
						},
						{
							"internalType": "uint256",
							"name": "submittedAt",
							"type": "uint256"
						},
						{
							"internalType": "uint256",
							"name": "voteCount",
							"type": "uint256"
						}
					],
					"indexed": false,
					"internalType": "struct Referendum.ConstitutionDraft",
					"name": "ratifiedConstitution",
					"type": "tuple"
				}
			],
			"name": "ConstitutionRatified",
			"type": "event"
		},
		{
			"anonymous": false,
			"inputs": [
				{
					"indexed": true,
					"internalType": "address[50]",
					"name": "electedMembers",
					"type": "address[50]"
				},
				{
					"indexed": false,
					"internalType": "address",
					"name": "firstLeader",
					"type": "address"
				}
			],
			"name": "ElectionResults",
			"type": "event"
		},
		{
			"anonymous": false,
			"inputs": [
				{
					"indexed": false,
					"internalType": "uint256",
					"name": "newMedianRate",
					"type": "uint256"
				}
			],
			"name": "InterestRateUpdated",
			"type": "event"
		},
		{
			"anonymous": false,
			"inputs": [
				{
					"indexed": true,
					"internalType": "address",
					"name": "newLeader",
					"type": "address"
				}
			],
			"name": "LeadershipChanged",
			"type": "event"
		},
		{
			"anonymous": false,
			"inputs": [
				{
					"indexed": true,
					"internalType": "address",
					"name": "lender",
					"type": "address"
				},
				{
					"indexed": false,
					"internalType": "int256",
					"name": "amount",
					"type": "int256"
				}
			],
			"name": "LoanReceived",
			"type": "event"
		},
		{
			"anonymous": false,
			"inputs": [
				{
					"indexed": true,
					"internalType": "address",
					"name": "member",
					"type": "address"
				},
				{
					"indexed": false,
					"internalType": "uint256",
					"name": "oldRate",
					"type": "uint256"
				},
				{
					"indexed": false,
					"internalType": "uint8",
					"name": "oldRank",
					"type": "uint8"
				},
				{
					"indexed": false,
					"internalType": "uint256",
					"name": "newRate",
					"type": "uint256"
				},
				{
					"indexed": false,
					"internalType": "uint8",
					"name": "newRank",
					"type": "uint8"
				}
			],
			"name": "MemberRateChanged",
			"type": "event"
		},
		{
			"anonymous": false,
			"inputs": [
				{
					"indexed": true,
					"internalType": "uint256",
					"name": "proposalId",
					"type": "uint256"
				}
			],
			"name": "ProposalPassed",
			"type": "event"
		},
		{
			"anonymous": false,
			"inputs": [
				{
					"indexed": true,
					"internalType": "uint256",
					"name": "proposalId",
					"type": "uint256"
				},
				{
					"indexed": true,
					"internalType": "address",
					"name": "proposer",
					"type": "address"
				},
				{
					"indexed": false,
					"internalType": "string",
					"name": "provisions",
					"type": "string"
				}
			],
			"name": "ProposalProposed",
			"type": "event"
		},
		{
			"anonymous": false,
			"inputs": [
				{
					"indexed": true,
					"internalType": "uint256",
					"name": "proposalId",
					"type": "uint256"
				},
				{
					"indexed": true,
					"internalType": "address",
					"name": "voter",
					"type": "address"
				}
			],
			"name": "ProposalVoted",
			"type": "event"
		},
		{
			"anonymous": false,
			"inputs": [
				{
					"indexed": true,
					"internalType": "uint256",
					"name": "proposalId",
					"type": "uint256"
				}
			],
			"name": "ProposalWithdrawn",
			"type": "event"
		},
		{
			"anonymous": false,
			"inputs": [],
			"name": "ReferendumStarted",
			"type": "event"
		},
		{
			"anonymous": false,
			"inputs": [
				{
					"indexed": true,
					"internalType": "address",
					"name": "voter",
					"type": "address"
				}
			],
			"name": "ReferendumVoteCast",
			"type": "event"
		},
		{
			"anonymous": false,
			"inputs": [
				{
					"indexed": true,
					"internalType": "address",
					"name": "voter",
					"type": "address"
				}
			],
			"name": "VoteCast",
			"type": "event"
		},
		{
			"anonymous": false,
			"inputs": [
				{
					"indexed": true,
					"internalType": "address[10]",
					"name": "voter",
					"type": "address[10]"
				},
				{
					"indexed": false,
					"internalType": "uint256",
					"name": "addedVoterCount",
					"type": "uint256"
				}
			],
			"name": "VoterAdded",
			"type": "event"
		},
		{
			"anonymous": false,
			"inputs": [
				{
					"indexed": true,
					"internalType": "address[10]",
					"name": "voter",
					"type": "address[10]"
				},
				{
					"indexed": false,
					"internalType": "address",
					"name": "registrar",
					"type": "address"
				},
				{
					"indexed": false,
					"internalType": "uint256",
					"name": "referendumVoterCount",
					"type": "uint256"
				}
			],
			"name": "VoterRegistered",
			"type": "event"
		},
		{
			"inputs": [],
			"name": "GOV_LENGTH",
			"outputs": [
				{
					"internalType": "uint256",
					"name": "",
					"type": "uint256"
				}
			],
			"stateMutability": "view",
			"type": "function"
		},
		{
			"inputs": [],
			"name": "LEAD_PERIOD",
			"outputs": [
				{
					"internalType": "uint256",
					"name": "",
					"type": "uint256"
				}
			],
			"stateMutability": "view",
			"type": "function"
		},
		{
			"inputs": [
				{
					"internalType": "address",
					"name": "",
					"type": "address"
				},
				{
					"internalType": "uint256",
					"name": "",
					"type": "uint256"
				}
			],
			"name": "LenderTxns",
			"outputs": [
				{
					"internalType": "int256",
					"name": "amount",
					"type": "int256"
				},
				{
					"internalType": "uint256",
					"name": "timestamp",
					"type": "uint256"
				}
			],
			"stateMutability": "view",
			"type": "function"
		},
		{
			"inputs": [],
			"name": "MAX_APPROVALS",
			"outputs": [
				{
					"internalType": "uint256",
					"name": "",
					"type": "uint256"
				}
			],
			"stateMutability": "view",
			"type": "function"
		},
		{
			"inputs": [],
			"name": "MIN_DRAFTS",
			"outputs": [
				{
					"internalType": "uint8",
					"name": "",
					"type": "uint8"
				}
			],
			"stateMutability": "view",
			"type": "function"
		},
		{
			"inputs": [],
			"name": "MIN_VOTERS",
			"outputs": [
				{
					"internalType": "uint32",
					"name": "",
					"type": "uint32"
				}
			],
			"stateMutability": "view",
			"type": "function"
		},
		{
			"inputs": [],
			"name": "N_MEMBERS",
			"outputs": [
				{
					"internalType": "uint8",
					"name": "",
					"type": "uint8"
				}
			],
			"stateMutability": "view",
			"type": "function"
		},
		{
			"inputs": [],
			"name": "RANDOM_VOTERS",
			"outputs": [
				{
					"internalType": "uint32",
					"name": "",
					"type": "uint32"
				}
			],
			"stateMutability": "view",
			"type": "function"
		},
		{
			"inputs": [],
			"name": "REF_VOTER_BATCH",
			"outputs": [
				{
					"internalType": "uint32",
					"name": "",
					"type": "uint32"
				}
			],
			"stateMutability": "view",
			"type": "function"
		},
		{
			"inputs": [],
			"name": "REG_FEE",
			"outputs": [
				{
					"internalType": "uint256",
					"name": "",
					"type": "uint256"
				}
			],
			"stateMutability": "view",
			"type": "function"
		},
		{
			"inputs": [],
			"name": "REG_TIME",
			"outputs": [
				{
					"internalType": "uint256",
					"name": "",
					"type": "uint256"
				}
			],
			"stateMutability": "view",
			"type": "function"
		},
		{
			"inputs": [],
			"name": "REQUIRED_SCORE",
			"outputs": [
				{
					"internalType": "int256",
					"name": "",
					"type": "int256"
				}
			],
			"stateMutability": "view",
			"type": "function"
		},
		{
			"inputs": [],
			"name": "SUBMISSION_FEE",
			"outputs": [
				{
					"internalType": "uint256",
					"name": "",
					"type": "uint256"
				}
			],
			"stateMutability": "view",
			"type": "function"
		},
		{
			"inputs": [],
			"name": "SUPER_MAJORITY",
			"outputs": [
				{
					"internalType": "uint8",
					"name": "",
					"type": "uint8"
				}
			],
			"stateMutability": "view",
			"type": "function"
		},
		{
			"inputs": [],
			"name": "VOTER_BATCH",
			"outputs": [
				{
					"internalType": "uint32",
					"name": "",
					"type": "uint32"
				}
			],
			"stateMutability": "view",
			"type": "function"
		},
		{
			"inputs": [
				{
					"internalType": "address",
					"name": "",
					"type": "address"
				}
			],
			"name": "activeProposalByMember",
			"outputs": [
				{
					"internalType": "uint256",
					"name": "",
					"type": "uint256"
				}
			],
			"stateMutability": "view",
			"type": "function"
		},
		{
			"inputs": [
				{
					"internalType": "bytes32[10]",
					"name": "voterHashes",
					"type": "bytes32[10]"
				},
				{
					"internalType": "address[10]",
					"name": "voterAddresses",
					"type": "address[10]"
				}
			],
			"name": "addVoter",
			"outputs": [],
			"stateMutability": "nonpayable",
			"type": "function"
		},
		{
			"inputs": [
				{
					"internalType": "address",
					"name": "registrar",
					"type": "address"
				},
				{
					"internalType": "int8",
					"name": "vote",
					"type": "int8"
				}
			],
			"name": "approveRegistrar",
			"outputs": [],
			"stateMutability": "nonpayable",
			"type": "function"
		},
		{
			"inputs": [
				{
					"internalType": "address",
					"name": "",
					"type": "address"
				}
			],
			"name": "candidateInfo",
			"outputs": [
				{
					"internalType": "string",
					"name": "fullName",
					"type": "string"
				},
				{
					"internalType": "string",
					"name": "bio",
					"type": "string"
				},
				{
					"internalType": "string",
					"name": "website",
					"type": "string"
				},
				{
					"internalType": "uint256",
					"name": "registeredAt",
					"type": "uint256"
				},
				{
					"internalType": "uint256",
					"name": "voteCount",
					"type": "uint256"
				},
				{
					"internalType": "bool",
					"name": "electedMember",
					"type": "bool"
				},
				{
					"internalType": "uint256",
					"name": "leaderAt",
					"type": "uint256"
				}
			],
			"stateMutability": "view",
			"type": "function"
		},
		{
			"inputs": [
				{
					"internalType": "uint256",
					"name": "",
					"type": "uint256"
				}
			],
			"name": "candidateList",
			"outputs": [
				{
					"internalType": "address",
					"name": "",
					"type": "address"
				}
			],
			"stateMutability": "view",
			"type": "function"
		},
		{
			"inputs": [],
			"name": "changeLeader",
			"outputs": [],
			"stateMutability": "nonpayable",
			"type": "function"
		},
		{
			"inputs": [
				{
					"internalType": "uint256",
					"name": "",
					"type": "uint256"
				}
			],
			"name": "constitutionDrafts",
			"outputs": [
				{
					"internalType": "string",
					"name": "description",
					"type": "string"
				},
				{
					"internalType": "string",
					"name": "constitutionText",
					"type": "string"
				},
				{
					"internalType": "string",
					"name": "implementationCode",
					"type": "string"
				},
				{
					"internalType": "string",
					"name": "submitterIdentity",
					"type": "string"
				},
				{
					"internalType": "bytes32",
					"name": "hashedOffChain",
					"type": "bytes32"
				},
				{
					"internalType": "string",
					"name": "supportingMaterials",
					"type": "string"
				},
				{
					"internalType": "uint256",
					"name": "submittedAt",
					"type": "uint256"
				},
				{
					"internalType": "uint256",
					"name": "voteCount",
					"type": "uint256"
				}
			],
			"stateMutability": "view",
			"type": "function"
		},
		{
			"inputs": [],
			"name": "currentLeaderAddress",
			"outputs": [
				{
					"internalType": "address",
					"name": "",
					"type": "address"
				}
			],
			"stateMutability": "view",
			"type": "function"
		},
		{
			"inputs": [],
			"name": "currentLeaderNumber",
			"outputs": [
				{
					"internalType": "uint256",
					"name": "",
					"type": "uint256"
				}
			],
			"stateMutability": "view",
			"type": "function"
		},
		{
			"inputs": [],
			"name": "currentRate",
			"outputs": [
				{
					"internalType": "uint256",
					"name": "",
					"type": "uint256"
				}
			],
			"stateMutability": "view",
			"type": "function"
		},
		{
			"inputs": [],
			"name": "electionEnd",
			"outputs": [
				{
					"internalType": "uint256",
					"name": "",
					"type": "uint256"
				}
			],
			"stateMutability": "view",
			"type": "function"
		},
		{
			"inputs": [],
			"name": "getBalance",
			"outputs": [
				{
					"internalType": "int256",
					"name": "_sum",
					"type": "int256"
				}
			],
			"stateMutability": "view",
			"type": "function"
		},
		{
			"inputs": [
				{
					"internalType": "uint256",
					"name": "candidateID",
					"type": "uint256"
				}
			],
			"name": "getCandidateInfo",
			"outputs": [
				{
					"components": [
						{
							"internalType": "string",
							"name": "fullName",
							"type": "string"
						},
						{
							"internalType": "string",
							"name": "bio",
							"type": "string"
						},
						{
							"internalType": "string",
							"name": "website",
							"type": "string"
						},
						{
							"internalType": "uint256",
							"name": "registeredAt",
							"type": "uint256"
						},
						{
							"internalType": "uint256",
							"name": "voteCount",
							"type": "uint256"
						},
						{
							"internalType": "bool",
							"name": "electedMember",
							"type": "bool"
						},
						{
							"internalType": "uint256",
							"name": "leaderAt",
							"type": "uint256"
						}
					],
					"internalType": "struct Candidate",
					"name": "",
					"type": "tuple"
				}
			],
			"stateMutability": "view",
			"type": "function"
		},
		{
			"inputs": [
				{
					"internalType": "uint256",
					"name": "draftId",
					"type": "uint256"
				}
			],
			"name": "getConstitution",
			"outputs": [
				{
					"components": [
						{
							"internalType": "string",
							"name": "description",
							"type": "string"
						},
						{
							"internalType": "string",
							"name": "constitutionText",
							"type": "string"
						},
						{
							"internalType": "string",
							"name": "implementationCode",
							"type": "string"
						},
						{
							"internalType": "string",
							"name": "submitterIdentity",
							"type": "string"
						},
						{
							"internalType": "bytes32",
							"name": "hashedOffChain",
							"type": "bytes32"
						},
						{
							"internalType": "string",
							"name": "supportingMaterials",
							"type": "string"
						},
						{
							"internalType": "uint256",
							"name": "submittedAt",
							"type": "uint256"
						},
						{
							"internalType": "uint256",
							"name": "voteCount",
							"type": "uint256"
						}
					],
					"internalType": "struct Referendum.ConstitutionDraft",
					"name": "",
					"type": "tuple"
				}
			],
			"stateMutability": "view",
			"type": "function"
		},
		{
			"inputs": [],
			"name": "getCurrentPhase",
			"outputs": [
				{
					"internalType": "enum Phase",
					"name": "",
					"type": "uint8"
				}
			],
			"stateMutability": "nonpayable",
			"type": "function"
		},
		{
			"inputs": [],
			"name": "getElectionResults",
			"outputs": [
				{
					"internalType": "address[50]",
					"name": "",
					"type": "address[50]"
				}
			],
			"stateMutability": "nonpayable",
			"type": "function"
		},
		{
			"inputs": [
				{
					"internalType": "bytes32",
					"name": "voterHash",
					"type": "bytes32"
				}
			],
			"name": "getHashStatus",
			"outputs": [
				{
					"internalType": "bool",
					"name": "",
					"type": "bool"
				}
			],
			"stateMutability": "view",
			"type": "function"
		},
		{
			"inputs": [
				{
					"internalType": "address",
					"name": "memberAddress",
					"type": "address"
				}
			],
			"name": "getMemberActiveProposal",
			"outputs": [
				{
					"internalType": "uint256",
					"name": "",
					"type": "uint256"
				}
			],
			"stateMutability": "view",
			"type": "function"
		},
		{
			"inputs": [
				{
					"internalType": "uint256",
					"name": "proposalId",
					"type": "uint256"
				}
			],
			"name": "getProposalInfo",
			"outputs": [
				{
					"components": [
						{
							"internalType": "address",
							"name": "proposer",
							"type": "address"
						},
						{
							"internalType": "string",
							"name": "provisions",
							"type": "string"
						},
						{
							"internalType": "uint256",
							"name": "proposedAt",
							"type": "uint256"
						},
						{
							"internalType": "uint256",
							"name": "executedAt",
							"type": "uint256"
						},
						{
							"internalType": "uint256",
							"name": "withdrawnAt",
							"type": "uint256"
						},
						{
							"internalType": "uint8",
							"name": "yesVotes",
							"type": "uint8"
						},
						{
							"components": [
								{
									"internalType": "uint256",
									"name": "amount",
									"type": "uint256"
								},
								{
									"internalType": "address",
									"name": "recipient",
									"type": "address"
								},
								{
									"internalType": "string",
									"name": "reason",
									"type": "string"
								}
							],
							"internalType": "struct Payment[]",
							"name": "payments",
							"type": "tuple[]"
						}
					],
					"internalType": "struct Proposal",
					"name": "",
					"type": "tuple"
				}
			],
			"stateMutability": "view",
			"type": "function"
		},
		{
			"inputs": [],
			"name": "getReferendumResults",
			"outputs": [
				{
					"internalType": "uint256",
					"name": "",
					"type": "uint256"
				},
				{
					"components": [
						{
							"internalType": "string",
							"name": "description",
							"type": "string"
						},
						{
							"internalType": "string",
							"name": "constitutionText",
							"type": "string"
						},
						{
							"internalType": "string",
							"name": "implementationCode",
							"type": "string"
						},
						{
							"internalType": "string",
							"name": "submitterIdentity",
							"type": "string"
						},
						{
							"internalType": "bytes32",
							"name": "hashedOffChain",
							"type": "bytes32"
						},
						{
							"internalType": "string",
							"name": "supportingMaterials",
							"type": "string"
						},
						{
							"internalType": "uint256",
							"name": "submittedAt",
							"type": "uint256"
						},
						{
							"internalType": "uint256",
							"name": "voteCount",
							"type": "uint256"
						}
					],
					"internalType": "struct Referendum.ConstitutionDraft",
					"name": "",
					"type": "tuple"
				}
			],
			"stateMutability": "nonpayable",
			"type": "function"
		},
		{
			"inputs": [
				{
					"internalType": "bytes32",
					"name": "voterHash",
					"type": "bytes32"
				}
			],
			"name": "getRegistrarsOfHash",
			"outputs": [
				{
					"internalType": "address[2]",
					"name": "",
					"type": "address[2]"
				}
			],
			"stateMutability": "view",
			"type": "function"
		},
		{
			"inputs": [
				{
					"internalType": "address",
					"name": "voterAddress",
					"type": "address"
				}
			],
			"name": "getVoteTime",
			"outputs": [
				{
					"internalType": "uint256",
					"name": "",
					"type": "uint256"
				}
			],
			"stateMutability": "view",
			"type": "function"
		},
		{
			"inputs": [
				{
					"internalType": "address",
					"name": "voterAddress",
					"type": "address"
				}
			],
			"name": "getVoterStatus",
			"outputs": [
				{
					"internalType": "uint256",
					"name": "",
					"type": "uint256"
				}
			],
			"stateMutability": "view",
			"type": "function"
		},
		{
			"inputs": [
				{
					"internalType": "uint256",
					"name": "proposalId",
					"type": "uint256"
				},
				{
					"internalType": "address",
					"name": "memberAddress",
					"type": "address"
				}
			],
			"name": "getVotingTimeProposal",
			"outputs": [
				{
					"internalType": "uint256",
					"name": "",
					"type": "uint256"
				}
			],
			"stateMutability": "view",
			"type": "function"
		},
		{
			"inputs": [
				{
					"internalType": "uint256",
					"name": "",
					"type": "uint256"
				}
			],
			"name": "interestPeriods",
			"outputs": [
				{
					"internalType": "uint256",
					"name": "rate",
					"type": "uint256"
				},
				{
					"internalType": "uint256",
					"name": "startedAt",
					"type": "uint256"
				}
			],
			"stateMutability": "view",
			"type": "function"
		},
		{
			"inputs": [],
			"name": "lend",
			"outputs": [],
			"stateMutability": "payable",
			"type": "function"
		},
		{
			"inputs": [
				{
					"internalType": "address",
					"name": "",
					"type": "address"
				}
			],
			"name": "memberApprovalCount",
			"outputs": [
				{
					"internalType": "uint256",
					"name": "",
					"type": "uint256"
				}
			],
			"stateMutability": "view",
			"type": "function"
		},
		{
			"inputs": [
				{
					"internalType": "address",
					"name": "",
					"type": "address"
				}
			],
			"name": "memberRank",
			"outputs": [
				{
					"internalType": "uint8",
					"name": "",
					"type": "uint8"
				}
			],
			"stateMutability": "view",
			"type": "function"
		},
		{
			"inputs": [
				{
					"internalType": "address",
					"name": "",
					"type": "address"
				},
				{
					"internalType": "address",
					"name": "",
					"type": "address"
				}
			],
			"name": "memberRegistrar",
			"outputs": [
				{
					"internalType": "int8",
					"name": "",
					"type": "int8"
				}
			],
			"stateMutability": "view",
			"type": "function"
		},
		{
			"inputs": [
				{
					"internalType": "address",
					"name": "",
					"type": "address"
				},
				{
					"internalType": "uint256",
					"name": "",
					"type": "uint256"
				}
			],
			"name": "memberVotedAt",
			"outputs": [
				{
					"internalType": "uint256",
					"name": "",
					"type": "uint256"
				}
			],
			"stateMutability": "view",
			"type": "function"
		},
		{
			"inputs": [],
			"name": "membersElected",
			"outputs": [
				{
					"internalType": "bool",
					"name": "",
					"type": "bool"
				}
			],
			"stateMutability": "view",
			"type": "function"
		},
		{
			"inputs": [],
			"name": "neutral",
			"outputs": [
				{
					"internalType": "address",
					"name": "",
					"type": "address"
				}
			],
			"stateMutability": "view",
			"type": "function"
		},
		{
			"inputs": [],
			"name": "numberOfRates",
			"outputs": [
				{
					"internalType": "uint8",
					"name": "",
					"type": "uint8"
				}
			],
			"stateMutability": "view",
			"type": "function"
		},
		{
			"inputs": [
				{
					"internalType": "uint256",
					"name": "",
					"type": "uint256"
				}
			],
			"name": "proposals",
			"outputs": [
				{
					"internalType": "address",
					"name": "proposer",
					"type": "address"
				},
				{
					"internalType": "string",
					"name": "provisions",
					"type": "string"
				},
				{
					"internalType": "uint256",
					"name": "proposedAt",
					"type": "uint256"
				},
				{
					"internalType": "uint256",
					"name": "executedAt",
					"type": "uint256"
				},
				{
					"internalType": "uint256",
					"name": "withdrawnAt",
					"type": "uint256"
				},
				{
					"internalType": "uint8",
					"name": "yesVotes",
					"type": "uint8"
				}
			],
			"stateMutability": "view",
			"type": "function"
		},
		{
			"inputs": [
				{
					"internalType": "string",
					"name": "_provisions",
					"type": "string"
				},
				{
					"components": [
						{
							"internalType": "uint256",
							"name": "amount",
							"type": "uint256"
						},
						{
							"internalType": "address",
							"name": "recipient",
							"type": "address"
						},
						{
							"internalType": "string",
							"name": "reason",
							"type": "string"
						}
					],
					"internalType": "struct Payment[]",
					"name": "_payments",
					"type": "tuple[]"
				}
			],
			"name": "proposeProposal",
			"outputs": [
				{
					"internalType": "uint256",
					"name": "",
					"type": "uint256"
				}
			],
			"stateMutability": "nonpayable",
			"type": "function"
		},
		{
			"inputs": [
				{
					"internalType": "uint256",
					"name": "newRate",
					"type": "uint256"
				}
			],
			"name": "proposeRate",
			"outputs": [],
			"stateMutability": "nonpayable",
			"type": "function"
		},
		{
			"inputs": [],
			"name": "ratifiedConstitutionId",
			"outputs": [
				{
					"internalType": "uint256",
					"name": "",
					"type": "uint256"
				}
			],
			"stateMutability": "view",
			"type": "function"
		},
		{
			"inputs": [],
			"name": "referendumEndTime",
			"outputs": [
				{
					"internalType": "uint256",
					"name": "",
					"type": "uint256"
				}
			],
			"stateMutability": "view",
			"type": "function"
		},
		{
			"inputs": [],
			"name": "referendumVoterCount",
			"outputs": [
				{
					"internalType": "uint32",
					"name": "",
					"type": "uint32"
				}
			],
			"stateMutability": "view",
			"type": "function"
		},
		{
			"inputs": [
				{
					"internalType": "string",
					"name": "_fullName",
					"type": "string"
				},
				{
					"internalType": "string",
					"name": "_bio",
					"type": "string"
				},
				{
					"internalType": "string",
					"name": "_website",
					"type": "string"
				}
			],
			"name": "registerAsCandidate",
			"outputs": [],
			"stateMutability": "payable",
			"type": "function"
		},
		{
			"inputs": [
				{
					"internalType": "bytes32[10]",
					"name": "voterHashes",
					"type": "bytes32[10]"
				},
				{
					"internalType": "address[10]",
					"name": "voterAddresses",
					"type": "address[10]"
				}
			],
			"name": "registerVoterBatch",
			"outputs": [],
			"stateMutability": "nonpayable",
			"type": "function"
		},
		{
			"inputs": [
				{
					"internalType": "address",
					"name": "",
					"type": "address"
				}
			],
			"name": "registrarScore",
			"outputs": [
				{
					"internalType": "int256",
					"name": "",
					"type": "int256"
				}
			],
			"stateMutability": "view",
			"type": "function"
		},
		{
			"inputs": [
				{
					"internalType": "uint256",
					"name": "",
					"type": "uint256"
				}
			],
			"name": "sortedRates",
			"outputs": [
				{
					"internalType": "address",
					"name": "member",
					"type": "address"
				},
				{
					"internalType": "uint256",
					"name": "rate",
					"type": "uint256"
				}
			],
			"stateMutability": "view",
			"type": "function"
		},
		{
			"inputs": [],
			"name": "startReferendum",
			"outputs": [],
			"stateMutability": "nonpayable",
			"type": "function"
		},
		{
			"inputs": [],
			"name": "startTime",
			"outputs": [
				{
					"internalType": "uint256",
					"name": "",
					"type": "uint256"
				}
			],
			"stateMutability": "view",
			"type": "function"
		},
		{
			"inputs": [
				{
					"components": [
						{
							"internalType": "string",
							"name": "description",
							"type": "string"
						},
						{
							"internalType": "string",
							"name": "constitutionText",
							"type": "string"
						},
						{
							"internalType": "string",
							"name": "implementationCode",
							"type": "string"
						},
						{
							"internalType": "string",
							"name": "submitterIdentity",
							"type": "string"
						},
						{
							"internalType": "bytes32",
							"name": "hashedOffChain",
							"type": "bytes32"
						},
						{
							"internalType": "string",
							"name": "supportingMaterials",
							"type": "string"
						},
						{
							"internalType": "uint256",
							"name": "submittedAt",
							"type": "uint256"
						},
						{
							"internalType": "uint256",
							"name": "voteCount",
							"type": "uint256"
						}
					],
					"internalType": "struct Referendum.ConstitutionDraft",
					"name": "_draft",
					"type": "tuple"
				}
			],
			"name": "submitDraft",
			"outputs": [],
			"stateMutability": "payable",
			"type": "function"
		},
		{
			"inputs": [],
			"name": "treasuryReserve",
			"outputs": [
				{
					"internalType": "uint256",
					"name": "",
					"type": "uint256"
				}
			],
			"stateMutability": "view",
			"type": "function"
		},
		{
			"inputs": [
				{
					"internalType": "uint256[]",
					"name": "_candidatesIds",
					"type": "uint256[]"
				}
			],
			"name": "voteCandidates",
			"outputs": [],
			"stateMutability": "nonpayable",
			"type": "function"
		},
		{
			"inputs": [
				{
					"internalType": "uint256",
					"name": "proposalId",
					"type": "uint256"
				}
			],
			"name": "voteForProposal",
			"outputs": [
				{
					"internalType": "uint8",
					"name": "",
					"type": "uint8"
				}
			],
			"stateMutability": "nonpayable",
			"type": "function"
		},
		{
			"inputs": [
				{
					"internalType": "uint256[]",
					"name": "_drafts",
					"type": "uint256[]"
				}
			],
			"name": "voteInReferendum",
			"outputs": [],
			"stateMutability": "nonpayable",
			"type": "function"
		},
		{
			"inputs": [
				{
					"internalType": "uint256",
					"name": "proposalId",
					"type": "uint256"
				}
			],
			"name": "withdrawProposal",
			"outputs": [],
			"stateMutability": "nonpayable",
			"type": "function"
		}
	]
}