{
	"data": {
		"bytecode": {
			"linkReferences": {},
			"object": "60a06040525f60385f6101000a81548160ff0219169083151502179055505f60ac5f6101000a81548160ff021916908360ff160217905550348015610042575f80fd5b506040516199073803806199078339818101604052810190610064919061032d565b815f806101000a81548173ffffffffffffffffffffffffffffffffffffffff021916908373ffffffffffffffffffffffffffffffffffffffff16021790555042608081815250506001621275006080516100be91906103bd565b6100c891906103bd565b6001819055505f603a60018160018154018082558091505003905f5260205f209060070201905033815f015f6101000a81548173ffffffffffffffffffffffffffffffffffffffff021916908373ffffffffffffffffffffffffffffffffffffffff1602179055508181600101908161014191906105f4565b50608051816002018190555060805181600301819055505f81600401819055506032816005015f6101000a81548160ff021916908360ff1602179055505050506106c3565b5f604051905090565b5f80fd5b5f80fd5b5f73ffffffffffffffffffffffffffffffffffffffff82169050919050565b5f6101c082610197565b9050919050565b6101d0816101b6565b81146101da575f80fd5b50565b5f815190506101eb816101c7565b92915050565b5f80fd5b5f80fd5b5f601f19601f8301169050919050565b7f4e487b71000000000000000000000000000000000000000000000000000000005f52604160045260245ffd5b61023f826101f9565b810181811067ffffffffffffffff8211171561025e5761025d610209565b5b80604052505050565b5f610270610186565b905061027c8282610236565b919050565b5f67ffffffffffffffff82111561029b5761029a610209565b5b6102a4826101f9565b9050602081019050919050565b8281835e5f83830152505050565b5f6102d16102cc84610281565b610267565b9050828152602081018484840111156102ed576102ec6101f5565b5b6102f88482856102b1565b509392505050565b5f82601f830112610314576103136101f1565b5b81516103248482602086016102bf565b91505092915050565b5f80604083850312156103435761034261018f565b5b5f610350858286016101dd565b925050602083015167ffffffffffffffff81111561037157610370610193565b5b61037d85828601610300565b9150509250929050565b5f819050919050565b7f4e487b71000000000000000000000000000000000000000000000000000000005f52601160045260245ffd5b5f6103c782610387565b91506103d283610387565b92508282019050808211156103ea576103e9610390565b5b92915050565b5f81519050919050565b7f4e487b71000000000000000000000000000000000000000000000000000000005f52602260045260245ffd5b5f600282049050600182168061043e57607f821691505b602082108103610451576104506103fa565b5b50919050565b5f819050815f5260205f209050919050565b5f6020601f8301049050919050565b5f82821b905092915050565b5f600883026104b37fffffffffffffffffffffffffffffffffffffffffffffffffffffffffffffffff82610478565b6104bd8683610478565b95508019841693508086168417925050509392505050565b5f819050919050565b5f6104f86104f36104ee84610387565b6104d5565b610387565b9050919050565b5f819050919050565b610511836104de565b61052561051d826104ff565b848454610484565b825550505050565b5f90565b61053961052d565b610544818484610508565b505050565b5b818110156105675761055c5f82610531565b60018101905061054a565b5050565b601f8211156105ac5761057d81610457565b61058684610469565b81016020851015610595578190505b6105a96105a185610469565b830182610549565b50505b505050565b5f82821c905092915050565b5f6105cc5f19846008026105b1565b1980831691505092915050565b5f6105e483836105bd565b9150826002028217905092915050565b6105fd826103f0565b67ffffffffffffffff81111561061657610615610209565b5b6106208254610427565b61062b82828561056b565b5f60209050601f83116001811461065c575f841561064a578287015190505b61065485826105d9565b8655506106bb565b601f19841661066a86610457565b5f5b828110156106915784890151825560018201915060208501945060208101905061066c565b868310156106ae57848901516106aa601f8916826105bd565b8355505b6001600288020188555050505b505050505050565b60805161922c6106db5f395f612db7015261922c5ff3fe608060405260043610610380575f3560e01c80638e0ca5ad116101d0578063c1b1315711610101578063eab536fc1161009f578063f3a4aba91161006e578063f3a4aba914610d4c578063f3d82fde14610d88578063f4ab9adf14610db2578063f9f8bdb714610dda57610380565b8063eab536fc14610c7f578063eccf1f1014610cbb578063eedb2d2814610ce5578063f33e957314610d0f57610380565b8063d9688f03116100db578063d9688f0314610bad578063da35c66414610be9578063e42a54c414610c13578063e965b7c914610c3d57610380565b8063c1b1315714610b31578063caa1d81114610b59578063ce7ea16114610b8357610380565b8063a6a5ad121161016e578063b5ba979511610148578063b5ba979514610a9f578063b85c229214610ac9578063bdc8e7b314610af3578063be003ee614610b1b57610380565b8063a6a5ad1214610a11578063b0feb26014610a39578063b13c744b14610a6357610380565b806399b0d39c116101aa57806399b0d39c1461096c5780639dc9945514610994578063a3a40ea5146109d1578063a5f5b1bf146109fb57610380565b80638e0ca5ad146108fc5780638f3218df1461093857806397dffc611461096257610380565b80634c1342df116102b557806364b4f7511161025357806378e3ef201161022257806378e3ef201461084257806378e979251461087e5780637d48536d146108a85780637da4ce83146108d257610380565b806364b4f7511461077557806369b5c8f91461079f5780636becc9f3146107c957806370f67cfe1461080657610380565b806359297dbf1161028f57806359297dbf146106b75780635bd03e9d146106e15780635e8523a91461071d5780635f02b56d1461075957610380565b80634c1342df1461062957806352f61b051461065357806358e1cbee1461068f57610380565b80632190bee8116103225780633def77b7116102fc5780633def77b714610567578063428027ac14610591578063452d32bb146105d4578063485be9cf146105ff57610380565b80632190bee8146104c0578063247d0818146104fc57806328bdcde81461052657610380565b8063089e35b81161035e578063089e35b8146103f457806308ec6a191461041e578063163923721461045a578063198ccd2c1461048457610380565b8063033acf471461038457806306736946146103ae578063079ddd11146103d8575b5f80fd5b34801561038f575f80fd5b50610398610e04565b6040516103a59190615cfd565b60405180910390f35b3480156103b9575f80fd5b506103c2610e09565b6040516103cf9190615d34565b60405180910390f35b6103f260048036038101906103ed9190615e9a565b610e0f565b005b3480156103ff575f80fd5b50610408611253565b6040516104159190615f58565b60405180910390f35b348015610429575f80fd5b50610444600480360381019061043f9190615fa4565b611265565b60405161045191906160a4565b60405180910390f35b348015610465575f80fd5b5061046e6112f6565b60405161047b91906160d5565b60405180910390f35b34801561048f575f80fd5b506104aa60048036038101906104a59190616118565b6112fc565b6040516104b791906160d5565b60405180910390f35b3480156104cb575f80fd5b506104e660048036038101906104e1919061616d565b611311565b6040516104f391906160d5565b60405180910390f35b348015610507575f80fd5b50610510611331565b60405161051d91906160d5565b60405180910390f35b348015610531575f80fd5b5061054c600480360381019061054791906161ab565b611338565b60405161055e96959493929190616245565b60405180910390f35b348015610572575f80fd5b5061057b611430565b6040516105889190615d34565b60405180910390f35b34801561059c575f80fd5b506105b760048036038101906105b291906161ab565b611436565b6040516105cb9897969594939291906162ba565b60405180910390f35b3480156105df575f80fd5b506105e8611727565b6040516105f6929190616488565b60405180910390f35b34801561060a575f80fd5b50610613611b82565b60405161062091906160d5565b60405180910390f35b348015610634575f80fd5b5061063d611b89565b60405161064a91906160d5565b60405180910390f35b34801561065e575f80fd5b50610679600480360381019061067491906161ab565b611b90565b604051610686919061666d565b60405180910390f35b34801561069a575f80fd5b506106b560048036038101906106b091906161ab565b611e79565b005b3480156106c2575f80fd5b506106cb61207b565b6040516106d891906160d5565b60405180910390f35b3480156106ec575f80fd5b50610707600480360381019061070291906161ab565b612082565b6040516107149190615cfd565b60405180910390f35b348015610728575f80fd5b50610743600480360381019061073e919061673f565b612407565b60405161075091906160d5565b60405180910390f35b610773600480360381019061076e9190616918565b612720565b005b348015610780575f80fd5b50610789612a47565b60405161079691906160d5565b60405180910390f35b3480156107aa575f80fd5b506107b3612a52565b6040516107c0919061695f565b60405180910390f35b3480156107d4575f80fd5b506107ef60048036038101906107ea919061616d565b612a75565b6040516107fd929190616990565b60405180910390f35b348015610811575f80fd5b5061082c600480360381019061082791906161ab565b612aaf565b6040516108399190616a6d565b60405180910390f35b34801561084d575f80fd5b5061086860048036038101906108639190616118565b612d6f565b60405161087591906160d5565b60405180910390f35b348015610889575f80fd5b50610892612db5565b60405161089f91906160d5565b60405180910390f35b3480156108b3575f80fd5b506108bc612dd9565b6040516108c991906160d5565b60405180910390f35b3480156108dd575f80fd5b506108e6612de4565b6040516108f3919061695f565b60405180910390f35b348015610907575f80fd5b50610922600480360381019061091d9190616118565b612e0a565b60405161092f91906160d5565b60405180910390f35b348015610943575f80fd5b5061094c612edc565b6040516109599190615cfd565b60405180910390f35b61096a612eee565b005b348015610977575f80fd5b50610992600480360381019061098d9190616acf565b612fcf565b005b34801561099f575f80fd5b506109ba60048036038101906109b591906161ab565b61362e565b6040516109c8929190616b0f565b60405180910390f35b3480156109dc575f80fd5b506109e5613674565b6040516109f29190616ba9565b60405180910390f35b348015610a06575f80fd5b50610a0f613736565b005b348015610a1c575f80fd5b50610a376004803603810190610a329190616c17565b613957565b005b348015610a44575f80fd5b50610a4d613cfd565b604051610a5a91906160d5565b60405180910390f35b348015610a6e575f80fd5b50610a896004803603810190610a8491906161ab565b613d03565b604051610a96919061695f565b60405180910390f35b348015610aaa575f80fd5b50610ab3613d3e565b604051610ac09190615d34565b60405180910390f35b348015610ad4575f80fd5b50610add613d43565b604051610aea9190615cfd565b60405180910390f35b348015610afe575f80fd5b50610b196004803603810190610b1491906161ab565b613d48565b005b348015610b26575f80fd5b50610b2f6144e0565b005b348015610b3c575f80fd5b50610b576004803603810190610b529190616c17565b614667565b005b348015610b64575f80fd5b50610b6d61498b565b604051610b7a9190615d34565b60405180910390f35b348015610b8e575f80fd5b50610b97614992565b604051610ba491906160d5565b60405180910390f35b348015610bb8575f80fd5b50610bd36004803603810190610bce9190616c62565b614998565b604051610be091906160d5565b60405180910390f35b348015610bf4575f80fd5b50610bfd614ac1565b604051610c0a91906160d5565b60405180910390f35b348015610c1e575f80fd5b50610c27614ac7565b604051610c349190615d34565b60405180910390f35b348015610c48575f80fd5b50610c636004803603810190610c5e9190616118565b614adc565b604051610c769796959493929190616ca0565b60405180910390f35b348015610c8a575f80fd5b50610ca56004803603810190610ca09190616118565b614cb8565b604051610cb29190615cfd565b60405180910390f35b348015610cc6575f80fd5b50610ccf614cd5565b604051610cdc9190616da1565b60405180910390f35b348015610cf0575f80fd5b50610cf961533f565b604051610d0691906160d5565b60405180910390f35b348015610d1a575f80fd5b50610d356004803603810190610d3091906161ab565b615345565b604051610d43929190616dbb565b60405180910390f35b348015610d57575f80fd5b50610d726004803603810190610d6d91906161ab565b615374565b604051610d7f9190616de2565b60405180910390f35b348015610d93575f80fd5b50610d9c6156e3565b604051610da99190615cfd565b60405180910390f35b348015610dbd575f80fd5b50610dd86004803603810190610dd39190616118565b6156e8565b005b348015610de5575f80fd5b50610dee615a16565b604051610dfb91906160d5565b60405180910390f35b603281565b6101f481565b5f8351118015610e2157506064835111155b610e60576040517f08c379a0000000000000000000000000000000000000000000000000000000008152600401610e5790616e4c565b60405180910390fd5b5f8251118015610e7357506103e8825111155b610eb2576040517f08c379a0000000000000000000000000000000000000000000000000000000008152600401610ea990616eb4565b60405180910390fd5b5f8151118015610ec557506107d0815111155b610f04576040517f08c379a0000000000000000000000000000000000000000000000000000000008152600401610efb90616f1c565b60405180910390fd5b5f73ffffffffffffffffffffffffffffffffffffffff163373ffffffffffffffffffffffffffffffffffffffff1603610f72576040517f08c379a0000000000000000000000000000000000000000000000000000000008152600401610f6990616f84565b60405180910390fd5b66038d7ea4c68000341015610fbc576040517f08c379a0000000000000000000000000000000000000000000000000000000008152600401610fb390616fec565b60405180910390fd5b5f6004811115610fcf57610fce616b36565b5b610fd7613674565b6004811115610fe957610fe8616b36565b5b14611029576040517f08c379a00000000000000000000000000000000000000000000000000000000081526004016110209061707a565b60405180910390fd5b5f60045f3373ffffffffffffffffffffffffffffffffffffffff1673ffffffffffffffffffffffffffffffffffffffff1681526020019081526020015f2060030154146110ab576040517f08c379a00000000000000000000000000000000000000000000000000000000081526004016110a2906170e2565b60405180910390fd5b6040518060e001604052808481526020018381526020018281526020014281526020015f81526020015f151581526020015f81525060045f3373ffffffffffffffffffffffffffffffffffffffff1673ffffffffffffffffffffffffffffffffffffffff1681526020019081526020015f205f820151815f01908161113091906172fa565b50602082015181600101908161114691906172fa565b50604082015181600201908161115c91906172fa565b50606082015181600301556080820151816004015560a0820151816005015f6101000a81548160ff02191690831515021790555060c08201518160060155905050600533908060018154018082558091505060019003905f5260205f20015f9091909190916101000a81548173ffffffffffffffffffffffffffffffffffffffff021916908373ffffffffffffffffffffffffffffffffffffffff1602179055503373ffffffffffffffffffffffffffffffffffffffff167ed6fea68f71a20d8149f227f87e8cf7e6ad320b2dad4b45465b14599b80ee09848484604051611246939291906173c9565b60405180910390a2505050565b60385f9054906101000a900460ff1681565b61126d615bcc565b603f5f8381526020019081526020015f206002806020026040519081016040528092919082600280156112ea576020028201915b815f9054906101000a900473ffffffffffffffffffffffffffffffffffffffff1673ffffffffffffffffffffffffffffffffffffffff16815260200190600101908083116112a1575b50505050509050919050565b60395481565b603b602052805f5260405f205f915090505481565b603c602052815f5260405f20602052805f5260405f205f91509150505481565b625c490081565b603a8181548110611347575f80fd5b905f5260205f2090600702015f91509050805f015f9054906101000a900473ffffffffffffffffffffffffffffffffffffffff169080600101805461138b9061712d565b80601f01602080910402602001604051908101604052809291908181526020018280546113b79061712d565b80156114025780601f106113d957610100808354040283529160200191611402565b820191905f5260205f20905b8154815290600101906020018083116113e557829003601f168201915b505050505090806002015490806003015490806004015490806005015f9054906101000a900460ff16905086565b6103e881565b603e8181548110611445575f80fd5b905f5260205f2090600802015f91509050805f0180546114649061712d565b80601f01602080910402602001604051908101604052809291908181526020018280546114909061712d565b80156114db5780601f106114b2576101008083540402835291602001916114db565b820191905f5260205f20905b8154815290600101906020018083116114be57829003601f168201915b5050505050908060010180546114f09061712d565b80601f016020809104026020016040519081016040528092919081815260200182805461151c9061712d565b80156115675780601f1061153e57610100808354040283529160200191611567565b820191905f5260205f20905b81548152906001019060200180831161154a57829003601f168201915b50505050509080600201805461157c9061712d565b80601f01602080910402602001604051908101604052809291908181526020018280546115a89061712d565b80156115f35780601f106115ca576101008083540402835291602001916115f3565b820191905f5260205f20905b8154815290600101906020018083116115d657829003601f168201915b5050505050908060030180546116089061712d565b80601f01602080910402602001604051908101604052809291908181526020018280546116349061712d565b801561167f5780601f106116565761010080835404028352916020019161167f565b820191905f5260205f20905b81548152906001019060200180831161166257829003601f168201915b50505050509080600401549080600501805461169a9061712d565b80601f01602080910402602001604051908101604052809291908181526020018280546116c69061712d565b80156117115780601f106116e857610100808354040283529160200191611711565b820191905f5260205f20905b8154815290600101906020018083116116f457829003601f168201915b5050505050908060060154908060070154905088565b5f611730615bee565b5f604354111561175157604354611748604354615374565b91509150611b7e565b5f604254118015611763575042604254105b6117a2576040517f08c379a00000000000000000000000000000000000000000000000000000000081526004016117999061745d565b60405180910390fd5b5f805f90505f5b603e805490508110156118185781603e82815481106117cb576117ca61747b565b5b905f5260205f20906008020160070154111561180b57603e81815481106117f5576117f461747b565b5b905f5260205f2090600802016007015491508092505b80806001019150506117a9565b50816043819055505f603e83815481106118355761183461747b565b5b905f5260205f209060080201604051806101000160405290815f8201805461185c9061712d565b80601f01602080910402602001604051908101604052809291908181526020018280546118889061712d565b80156118d35780601f106118aa576101008083540402835291602001916118d3565b820191905f5260205f20905b8154815290600101906020018083116118b657829003601f168201915b505050505081526020016001820180546118ec9061712d565b80601f01602080910402602001604051908101604052809291908181526020018280546119189061712d565b80156119635780601f1061193a57610100808354040283529160200191611963565b820191905f5260205f20905b81548152906001019060200180831161194657829003601f168201915b5050505050815260200160028201805461197c9061712d565b80601f01602080910402602001604051908101604052809291908181526020018280546119a89061712d565b80156119f35780601f106119ca576101008083540402835291602001916119f3565b820191905f5260205f20905b8154815290600101906020018083116119d657829003601f168201915b50505050508152602001600382018054611a0c9061712d565b80601f0160208091040260200160405190810160405280929190818152602001828054611a389061712d565b8015611a835780601f10611a5a57610100808354040283529160200191611a83565b820191905f5260205f20905b815481529060010190602001808311611a6657829003601f168201915b5050505050815260200160048201548152602001600582018054611aa69061712d565b80601f0160208091040260200160405190810160405280929190818152602001828054611ad29061712d565b8015611b1d5780601f10611af457610100808354040283529160200191611b1d565b820191905f5260205f20905b815481529060010190602001808311611b0057829003601f168201915b50505050508152602001600682015481526020016007820154815250509050827f5716523a05c9d13997b5a619d69a47eba3d34842ff0b403eed7ca3a75b05c70882604051611b6c9190616de2565b60405180910390a28281945094505050505b9091565b62093a8081565b6212750081565b611b98615c33565b603a805490508210611bdf576040517f08c379a0000000000000000000000000000000000000000000000000000000008152600401611bd6906174f2565b60405180910390fd5b603a8281548110611bf357611bf261747b565b5b905f5260205f2090600702016040518060e00160405290815f82015f9054906101000a900473ffffffffffffffffffffffffffffffffffffffff1673ffffffffffffffffffffffffffffffffffffffff1673ffffffffffffffffffffffffffffffffffffffff168152602001600182018054611c6e9061712d565b80601f0160208091040260200160405190810160405280929190818152602001828054611c9a9061712d565b8015611ce55780601f10611cbc57610100808354040283529160200191611ce5565b820191905f5260205f20905b815481529060010190602001808311611cc857829003601f168201915b50505050508152602001600282015481526020016003820154815260200160048201548152602001600582015f9054906101000a900460ff1660ff1660ff16815260200160068201805480602002602001604051908101604052809291908181526020015f905b82821015611e6a578382905f5260205f2090600302016040518060600160405290815f8201548152602001600182015f9054906101000a900473ffffffffffffffffffffffffffffffffffffffff1673ffffffffffffffffffffffffffffffffffffffff1673ffffffffffffffffffffffffffffffffffffffff168152602001600282018054611ddb9061712d565b80601f0160208091040260200160405190810160405280929190818152602001828054611e079061712d565b8015611e525780601f10611e2957610100808354040283529160200191611e52565b820191905f5260205f20905b815481529060010190602001808311611e3557829003601f168201915b50505050508152505081526020019060010190611d4c565b50505050815250509050919050565b603a805490508110611ec0576040517f08c379a0000000000000000000000000000000000000000000000000000000008152600401611eb7906174f2565b60405180910390fd5b5f603a8281548110611ed557611ed461747b565b5b905f5260205f20906007020190503373ffffffffffffffffffffffffffffffffffffffff16815f015f9054906101000a900473ffffffffffffffffffffffffffffffffffffffff1673ffffffffffffffffffffffffffffffffffffffff1614611f73576040517f08c379a0000000000000000000000000000000000000000000000000000000008152600401611f6a9061755a565b60405180910390fd5b5f816003015414611fb9576040517f08c379a0000000000000000000000000000000000000000000000000000000008152600401611fb0906175c2565b60405180910390fd5b5f816004015414611fff576040517f08c379a0000000000000000000000000000000000000000000000000000000008152600401611ff69061762a565b60405180910390fd5b4281600401819055505f603b5f3373ffffffffffffffffffffffffffffffffffffffff1673ffffffffffffffffffffffffffffffffffffffff1681526020019081526020015f2081905550817fd12dc0e743799a2fd79586130583cbaeed3a9b49d47291f1319569a523efe39a60405160405180910390a25050565b5f47905090565b5f60045f3373ffffffffffffffffffffffffffffffffffffffff1673ffffffffffffffffffffffffffffffffffffffff1681526020019081526020015f206005015f9054906101000a900460ff1661210f576040517f08c379a000000000000000000000000000000000000000000000000000000000815260040161210690617692565b60405180910390fd5b603a805490508210612156576040517f08c379a000000000000000000000000000000000000000000000000000000000815260040161214d906174f2565b60405180910390fd5b5f603a838154811061216b5761216a61747b565b5b905f5260205f20906007020190505f8160040154146121bf576040517f08c379a00000000000000000000000000000000000000000000000000000000081526004016121b6906176fa565b60405180910390fd5b5f603c5f3373ffffffffffffffffffffffffffffffffffffffff1673ffffffffffffffffffffffffffffffffffffffff1681526020019081526020015f205f8581526020019081526020015f20541461224d576040517f08c379a000000000000000000000000000000000000000000000000000000000815260040161224490617762565b60405180910390fd5b42603c5f3373ffffffffffffffffffffffffffffffffffffffff1673ffffffffffffffffffffffffffffffffffffffff1681526020019081526020015f205f8581526020019081526020015f2081905550806005015f81819054906101000a900460ff16809291906122be906177ad565b91906101000a81548160ff021916908360ff160217905550503373ffffffffffffffffffffffffffffffffffffffff16837f3aeb8ab967e7a5ca0c4be4e02bf008efeb5a16ed14153472ca601d43b19bd4f160405160405180910390a3601e60ff16816005015f9054906101000a900460ff1660ff161015801561234557505f8160030154145b156123ee57827f2ccc8a7792343a50763432c0b3baf786caabce7a3443756a81f743b21084fdb360405160405180910390a24281600301819055505f603b5f835f015f9054906101000a900473ffffffffffffffffffffffffffffffffffffffff1673ffffffffffffffffffffffffffffffffffffffff1673ffffffffffffffffffffffffffffffffffffffff1681526020019081526020015f20819055506123ed83615a1c565b5b806005015f9054906101000a900460ff16915050919050565b5f60045f3373ffffffffffffffffffffffffffffffffffffffff1673ffffffffffffffffffffffffffffffffffffffff1681526020019081526020015f206005015f9054906101000a900460ff16612494576040517f08c379a000000000000000000000000000000000000000000000000000000000815260040161248b9061781f565b60405180910390fd5b5f85859050116124d9576040517f08c379a00000000000000000000000000000000000000000000000000000000081526004016124d090617887565b60405180910390fd5b5f603b5f3373ffffffffffffffffffffffffffffffffffffffff1673ffffffffffffffffffffffffffffffffffffffff1681526020019081526020015f205414612558576040517f08c379a000000000000000000000000000000000000000000000000000000000815260040161254f90617915565b60405180910390fd5b5f603a80549050905080603b5f3373ffffffffffffffffffffffffffffffffffffffff1673ffffffffffffffffffffffffffffffffffffffff1681526020019081526020015f2081905550603a60018160018154018082558091505003905f5260205f209050505f603a82815481106125d4576125d361747b565b5b905f5260205f209060070201905033815f015f6101000a81548173ffffffffffffffffffffffffffffffffffffffff021916908373ffffffffffffffffffffffffffffffffffffffff160217905550868682600101918261263692919061793d565b504281600201819055505f5b858590508110156126b757816006018686838181106126645761266361747b565b5b90506020028101906126769190617a16565b908060018154018082558091505060019003905f5260205f2090600302015f9091909190915081816126a89190617c51565b50508080600101915050612642565b503373ffffffffffffffffffffffffffffffffffffffff16603a805490507ff5d77876858b5ad3802640c28e52b951551a2e4774baab2a284ea51d402718898989604051612706929190617c8b565b60405180910390a3603a8054905092505050949350505050565b6002600481111561273457612733616b36565b5b61273c613674565b600481111561274e5761274d616b36565b5b1461278e576040517f08c379a000000000000000000000000000000000000000000000000000000000815260040161278590617cf7565b60405180910390fd5b5f815f015151116127d4576040517f08c379a00000000000000000000000000000000000000000000000000000000081526004016127cb90617d5f565b60405180910390fd5b5f8160200151511161281b576040517f08c379a000000000000000000000000000000000000000000000000000000000815260040161281290617dc7565b60405180910390fd5b5f81606001515111612862576040517f08c379a000000000000000000000000000000000000000000000000000000000815260040161285990617e2f565b60405180910390fd5b66038d7ea4c680003410156128ac576040517f08c379a00000000000000000000000000000000000000000000000000000000081526004016128a390617e97565b60405180910390fd5b5f815f01518260400151836020015184606001516040516020016128d39493929190617eef565b60405160208183030381529060405280519060200120905081608001518114612931576040517f08c379a000000000000000000000000000000000000000000000000000000000815260040161292890617f76565b60405180910390fd5b428260c00181815250505f8260e0018181525050603e82908060018154018082558091505060019003905f5260205f2090600802015f909190919091505f820151815f01908161298191906172fa565b50602082015181600101908161299791906172fa565b5060408201518160020190816129ad91906172fa565b5060608201518160030190816129c391906172fa565b506080820151816004015560a08201518160050190816129e391906172fa565b5060c0820151816006015560e0820151816007015550506001603e80549050612a0c9190617f94565b7f0d75e0f38fa86696dcbaabfd45a3d7b9a804228a74d63ad451cd89bac51f89b683604051612a3b9190616de2565b60405180910390a25050565b66038d7ea4c6800081565b5f8054906101000a900473ffffffffffffffffffffffffffffffffffffffff1681565b6046602052815f5260405f208181548110612a8e575f80fd5b905f5260205f2090600202015f9150915050805f0154908060010154905082565b612ab7615c84565b6005805490508210612afe576040517f08c379a0000000000000000000000000000000000000000000000000000000008152600401612af590618011565b60405180910390fd5b60045f60058481548110612b1557612b1461747b565b5b905f5260205f20015f9054906101000a900473ffffffffffffffffffffffffffffffffffffffff1673ffffffffffffffffffffffffffffffffffffffff1673ffffffffffffffffffffffffffffffffffffffff1681526020019081526020015f206040518060e00160405290815f82018054612b909061712d565b80601f0160208091040260200160405190810160405280929190818152602001828054612bbc9061712d565b8015612c075780601f10612bde57610100808354040283529160200191612c07565b820191905f5260205f20905b815481529060010190602001808311612bea57829003601f168201915b50505050508152602001600182018054612c209061712d565b80601f0160208091040260200160405190810160405280929190818152602001828054612c4c9061712d565b8015612c975780601f10612c6e57610100808354040283529160200191612c97565b820191905f5260205f20905b815481529060010190602001808311612c7a57829003601f168201915b50505050508152602001600282018054612cb09061712d565b80601f0160208091040260200160405190810160405280929190818152602001828054612cdc9061712d565b8015612d275780601f10612cfe57610100808354040283529160200191612d27565b820191905f5260205f20905b815481529060010190602001808311612d0a57829003601f168201915b505050505081526020016003820154815260200160048201548152602001600582015f9054906101000a900460ff161515151581526020016006820154815250509050919050565b5f60405f8373ffffffffffffffffffffffffffffffffffffffff1673ffffffffffffffffffffffffffffffffffffffff1681526020019081526020015f20549050919050565b7f000000000000000000000000000000000000000000000000000000000000000081565b66038d7ea4c6800081565b603860019054906101000a900473ffffffffffffffffffffffffffffffffffffffff1681565b5f60045f8373ffffffffffffffffffffffffffffffffffffffff1673ffffffffffffffffffffffffffffffffffffffff1681526020019081526020015f206005015f9054906101000a900460ff16612e97576040517f08c379a0000000000000000000000000000000000000000000000000000000008152600401612e8e90618079565b60405180910390fd5b603b5f8373ffffffffffffffffffffffffffffffffffffffff1673ffffffffffffffffffffffffffffffffffffffff1681526020019081526020015f20549050919050565b60ac5f9054906101000a900460ff1681565b5f604051806040016040528034815260200142815250905060465f3373ffffffffffffffffffffffffffffffffffffffff1673ffffffffffffffffffffffffffffffffffffffff1681526020019081526020015f2081908060018154018082558091505060019003905f5260205f2090600202015f909190919091505f820151815f01556020820151816001015550503373ffffffffffffffffffffffffffffffffffffffff167f976be468429698a1b0ae0c20a0329bdb6e24722a3f834a2c54b84d63c1722f3234604051612fc49190618097565b60405180910390a250565b60ad5f3373ffffffffffffffffffffffffffffffffffffffff1673ffffffffffffffffffffffffffffffffffffffff1681526020019081526020015f205f9054906101000a900460ff16613058576040517f08c379a000000000000000000000000000000000000000000000000000000000815260040161304f906180fa565b60405180910390fd5b6002600481111561306c5761306b616b36565b5b613074613674565b600481111561308657613085616b36565b5b146130c6576040517f08c379a00000000000000000000000000000000000000000000000000000000081526004016130bd90617cf7565b60405180910390fd5b600a63ffffffff16600a1480156130e45750600a63ffffffff16600a145b613123576040517f08c379a000000000000000000000000000000000000000000000000000000000815260040161311a90618162565b60405180910390fd5b5f5b600a63ffffffff168160ff1610156133aa575f73ffffffffffffffffffffffffffffffffffffffff16603f5f858460ff16600a81106131675761316661747b565b5b602002013581526020019081526020015f205f6002811061318b5761318a61747b565b5b015f9054906101000a900473ffffffffffffffffffffffffffffffffffffffff1673ffffffffffffffffffffffffffffffffffffffff16036132485733603f5f858460ff16600a81106131e1576131e061747b565b5b602002013581526020019081526020015f205f600281106132055761320461747b565b5b015f6101000a81548173ffffffffffffffffffffffffffffffffffffffff021916908373ffffffffffffffffffffffffffffffffffffffff160217905550613397565b5f73ffffffffffffffffffffffffffffffffffffffff16603f5f858460ff16600a81106132785761327761747b565b5b602002013581526020019081526020015f2060016002811061329d5761329c61747b565b5b015f9054906101000a900473ffffffffffffffffffffffffffffffffffffffff1673ffffffffffffffffffffffffffffffffffffffff160361335b5733603f5f858460ff16600a81106132f3576132f261747b565b5b602002013581526020019081526020015f206001600281106133185761331761747b565b5b015f6101000a81548173ffffffffffffffffffffffffffffffffffffffff021916908373ffffffffffffffffffffffffffffffffffffffff160217905550613396565b6040517f08c379a000000000000000000000000000000000000000000000000000000000815260040161338d906181ca565b60405180910390fd5b5b80806133a2906177ad565b915050613125565b505f5b600a63ffffffff168160ff16101561358a575f73ffffffffffffffffffffffffffffffffffffffff16828260ff16600a81106133ec576133eb61747b565b5b6020020160208101906133ff9190616118565b73ffffffffffffffffffffffffffffffffffffffff1603613455576040517f08c379a000000000000000000000000000000000000000000000000000000000815260040161344c90618232565b60405180910390fd5b600260405f848460ff16600a81106134705761346f61747b565b5b6020020160208101906134839190616118565b73ffffffffffffffffffffffffffffffffffffffff1673ffffffffffffffffffffffffffffffffffffffff1681526020019081526020015f2054106134fd576040517f08c379a00000000000000000000000000000000000000000000000000000000081526004016134f4906182c0565b60405180910390fd5b60405f838360ff16600a81106135165761351561747b565b5b6020020160208101906135299190616118565b73ffffffffffffffffffffffffffffffffffffffff1673ffffffffffffffffffffffffffffffffffffffff1681526020019081526020015f205f815480929190613572906182de565b91905055508080613582906177ad565b9150506133ad565b50600a60415f8282829054906101000a900463ffffffff166135ac9190618325565b92506101000a81548163ffffffff021916908363ffffffff160217905550806040516135d8919061841f565b60405180910390207f2ba0aaa9c0e5919bf5cb9fde7b2825194f9dc6e9ab2a9174c59892a1585c446a3360415f9054906101000a900463ffffffff1660405161362292919061846a565b60405180910390a25050565b6047816032811061363d575f80fd5b600202015f91509050805f015f9054906101000a900473ffffffffffffffffffffffffffffffffffffffff16908060010154905082565b5f620151806001546136869190617f94565b421015613695575f9050613733565b60015442101561370957603260026136ad9190618491565b60ff1660058054905010806136dc57506103e863ffffffff1660035f9054906101000a900461ffff1661ffff16105b1561370057621275006001546136f291906184cd565b6001819055505f9050613733565b60019050613733565b5f6042540361371b5760029050613733565b60425442101561372e5760039050613733565b600490505b90565b62093a8060045f603860019054906101000a900473ffffffffffffffffffffffffffffffffffffffff1673ffffffffffffffffffffffffffffffffffffffff1673ffffffffffffffffffffffffffffffffffffffff1681526020019081526020015f20600601546137a791906184cd565b4210156137e9576040517f08c379a00000000000000000000000000000000000000000000000000000000081526004016137e090618570565b60405180910390fd5b60395f8154809291906137fb906182de565b9190505550603260395410613812575f6039819055505b6006603954603281106138285761382761747b565b5b015f9054906101000a900473ffffffffffffffffffffffffffffffffffffffff16603860016101000a81548173ffffffffffffffffffffffffffffffffffffffff021916908373ffffffffffffffffffffffffffffffffffffffff1602179055504260045f603860019054906101000a900473ffffffffffffffffffffffffffffffffffffffff1673ffffffffffffffffffffffffffffffffffffffff1673ffffffffffffffffffffffffffffffffffffffff1681526020019081526020015f2060060181905550603860019054906101000a900473ffffffffffffffffffffffffffffffffffffffff1673ffffffffffffffffffffffffffffffffffffffff167f8a84bb57bf3f6adefaa7a35a6a5067473f78164bfc14c2f6ae8b93e5b115b35a60405160405180910390a2565b6001600481111561396b5761396a616b36565b5b613973613674565b600481111561398557613984616b36565b5b146139c5576040517f08c379a00000000000000000000000000000000000000000000000000000000081526004016139bc906185d8565b60405180910390fd5b600580549050828290501115613a10576040517f08c379a0000000000000000000000000000000000000000000000000000000008152600401613a0790618640565b60405180910390fd5b600160025f3373ffffffffffffffffffffffffffffffffffffffff1673ffffffffffffffffffffffffffffffffffffffff1681526020019081526020015f205414613a90576040517f08c379a0000000000000000000000000000000000000000000000000000000008152600401613a87906186ce565b60405180910390fd5b5f60058054905067ffffffffffffffff811115613ab057613aaf615d76565b5b604051908082528060200260200182016040528015613ade5781602001602082028036833780820191505090505b5090504260025f3373ffffffffffffffffffffffffffffffffffffffff1673ffffffffffffffffffffffffffffffffffffffff1681526020019081526020015f20819055503373ffffffffffffffffffffffffffffffffffffffff167fb87a61d78bd15221c59b983f6ef032fbde0631e66bfe18d1421fe5a73c16741d60405160405180910390a25f5b83839050811015613cf7575f848483818110613b8757613b8661747b565b5b9050602002013590506005805490508110613bd7576040517f08c379a0000000000000000000000000000000000000000000000000000000008152600401613bce90618736565b60405180910390fd5b828181518110613bea57613be961747b565b5b602002602001015115613c32576040517f08c379a0000000000000000000000000000000000000000000000000000000008152600401613c299061879e565b60405180910390fd5b6001838281518110613c4757613c4661747b565b5b60200260200101901515908115158152505060045f60058381548110613c7057613c6f61747b565b5b905f5260205f20015f9054906101000a900473ffffffffffffffffffffffffffffffffffffffff1673ffffffffffffffffffffffffffffffffffffffff1673ffffffffffffffffffffffffffffffffffffffff1681526020019081526020015f206004015f815480929190613ce4906182de565b9190505550508080600101915050613b68565b50505050565b60425481565b60058181548110613d12575f80fd5b905f5260205f20015f915054906101000a900473ffffffffffffffffffffffffffffffffffffffff1681565b600a81565b601e81565b60045f3373ffffffffffffffffffffffffffffffffffffffff1673ffffffffffffffffffffffffffffffffffffffff1681526020019081526020015f206005015f9054906101000a900460ff16613dd4576040517f08c379a0000000000000000000000000000000000000000000000000000000008152600401613dcb90618806565b60405180910390fd5b611388811115613e19576040517f08c379a0000000000000000000000000000000000000000000000000000000008152600401613e109061886e565b60405180910390fd5b5f8060ab5f3373ffffffffffffffffffffffffffffffffffffffff1673ffffffffffffffffffffffffffffffffffffffff1681526020019081526020015f205f9054906101000a900460ff1690505f8160ff16148015613ee157503373ffffffffffffffffffffffffffffffffffffffff1660478260ff1660328110613ea257613ea161747b565b5b600202015f015f9054906101000a900473ffffffffffffffffffffffffffffffffffffffff1673ffffffffffffffffffffffffffffffffffffffff1614155b15613f255760ac5f81819054906101000a900460ff1680929190613f04906177ad565b91906101000a81548160ff021916908360ff160217905550505f9150613f47565b60478160ff1660328110613f3c57613f3b61747b565b5b600202016001015491505b5f819050828403613f5a575050506144dd565b8284111561410e575b60016032613f71919061888c565b60ff168160ff16108015613fae57506047600182613f8f91906188c0565b60ff1660328110613fa357613fa261747b565b5b600202016001015484115b15614109576047600182613fc291906188c0565b60ff1660328110613fd657613fd561747b565b5b6002020160478260ff1660328110613ff157613ff061747b565b5b600202015f82015f9054906101000a900473ffffffffffffffffffffffffffffffffffffffff16815f015f6101000a81548173ffffffffffffffffffffffffffffffffffffffff021916908373ffffffffffffffffffffffffffffffffffffffff160217905550600182015481600101559050508060ab5f60478460ff16603281106140805761407f61747b565b5b600202015f015f9054906101000a900473ffffffffffffffffffffffffffffffffffffffff1673ffffffffffffffffffffffffffffffffffffffff1673ffffffffffffffffffffffffffffffffffffffff1681526020019081526020015f205f6101000a81548160ff021916908360ff1602179055508080614101906177ad565b915050613f63565b6142a6565b5b5f8160ff1611801561414a5750604760018261412b919061888c565b60ff166032811061413f5761413e61747b565b5b600202016001015484105b156142a557604760018261415e919061888c565b60ff16603281106141725761417161747b565b5b6002020160478260ff166032811061418d5761418c61747b565b5b600202015f82015f9054906101000a900473ffffffffffffffffffffffffffffffffffffffff16815f015f6101000a81548173ffffffffffffffffffffffffffffffffffffffff021916908373ffffffffffffffffffffffffffffffffffffffff160217905550600182015481600101559050508060ab5f60478460ff166032811061421c5761421b61747b565b5b600202015f015f9054906101000a900473ffffffffffffffffffffffffffffffffffffffff1673ffffffffffffffffffffffffffffffffffffffff1673ffffffffffffffffffffffffffffffffffffffff1681526020019081526020015f205f6101000a81548160ff021916908360ff160217905550808061429d906188f4565b91505061410f565b5b60405180604001604052803373ffffffffffffffffffffffffffffffffffffffff1681526020018581525060478260ff16603281106142e8576142e761747b565b5b600202015f820151815f015f6101000a81548173ffffffffffffffffffffffffffffffffffffffff021916908373ffffffffffffffffffffffffffffffffffffffff160217905550602082015181600101559050508060ab5f3373ffffffffffffffffffffffffffffffffffffffff1673ffffffffffffffffffffffffffffffffffffffff1681526020019081526020015f205f6101000a81548160ff021916908360ff1602179055503373ffffffffffffffffffffffffffffffffffffffff167f1ce0beaec98d7537137a85c2d351c6c99900830d30fe8a7c353fa27225807e72848487856040516143de949392919061891b565b60405180910390a26047600260326143f6919061898b565b60ff166032811061440a5761440961747b565b5b6002020160010154604454146144d95760476002603261442a919061898b565b60ff166032811061443e5761443d61747b565b5b600202016001015460448190555060456040518060400160405280604454815260200142815250908060018154018082558091505060019003905f5260205f2090600202015f909190919091505f820151815f01556020820151816001015550507fa90e14be5aa57b910aa6dc16c31ff1b5cda380ae25a793b0d3f74df6131a7d746044546040516144d091906160d5565b60405180910390a15b5050505b50565b42625c49006001546144f291906184cd565b10614532576040517f08c379a000000000000000000000000000000000000000000000000000000000815260040161452990618a05565b60405180910390fd5b5f60435414614576576040517f08c379a000000000000000000000000000000000000000000000000000000000815260040161456d90618a6d565b60405180910390fd5b600a60ff16603e80549050116145c1576040517f08c379a00000000000000000000000000000000000000000000000000000000081526004016145b890618ad5565b60405180910390fd5b620f424063ffffffff1660415f9054906101000a900463ffffffff1663ffffffff161015614624576040517f08c379a000000000000000000000000000000000000000000000000000000000815260040161461b90618b3d565b60405180910390fd5b620151804261463391906184cd565b6042819055507fa0ab6b515144b30d8222a12e45d1c1df7265286d8a0d9f73c23c8b06f602187160405160405180910390a1565b60425442106146ab576040517f08c379a00000000000000000000000000000000000000000000000000000000081526004016146a290618ba5565b60405180910390fd5b603e805490508282905011156146f6576040517f08c379a00000000000000000000000000000000000000000000000000000000081526004016146ed90618c0d565b60405180910390fd5b600260405f3373ffffffffffffffffffffffffffffffffffffffff1673ffffffffffffffffffffffffffffffffffffffff1681526020019081526020015f205414614776576040517f08c379a000000000000000000000000000000000000000000000000000000000815260040161476d90618c9b565b60405180910390fd5b5f603e8054905067ffffffffffffffff81111561479657614795615d76565b5b6040519080825280602002602001820160405280156147c45781602001602082028036833780820191505090505b5090505f5b83839050811015614900575f8484838181106147e8576147e761747b565b5b905060200201359050603e805490508110614838576040517f08c379a000000000000000000000000000000000000000000000000000000000815260040161482f90618d03565b60405180910390fd5b82818151811061484b5761484a61747b565b5b602002602001015115614893576040517f08c379a000000000000000000000000000000000000000000000000000000000815260040161488a90618d6b565b60405180910390fd5b60018382815181106148a8576148a761747b565b5b602002602001019015159081151581525050603e81815481106148ce576148cd61747b565b5b905f5260205f2090600802016007015f8154809291906148ed906182de565b91905055505080806001019150506147c9565b504260405f3373ffffffffffffffffffffffffffffffffffffffff1673ffffffffffffffffffffffffffffffffffffffff1681526020019081526020015f20819055503373ffffffffffffffffffffffffffffffffffffffff167f4b50b8927fd1b030f5404dc4394c2a5d30d7f6c6fa6d732c089ffe8c10f0942160405160405180910390a2505050565b620f424081565b60015481565b5f603a8054905083106149e0576040517f08c379a00000000000000000000000000000000000000000000000000000000081526004016149d7906174f2565b60405180910390fd5b60045f8373ffffffffffffffffffffffffffffffffffffffff1673ffffffffffffffffffffffffffffffffffffffff1681526020019081526020015f206005015f9054906101000a900460ff16614a6c576040517f08c379a0000000000000000000000000000000000000000000000000000000008152600401614a6390618079565b60405180910390fd5b603c5f8373ffffffffffffffffffffffffffffffffffffffff1673ffffffffffffffffffffffffffffffffffffffff1681526020019081526020015f205f8481526020019081526020015f2054905092915050565b603d5481565b60415f9054906101000a900463ffffffff1681565b6004602052805f5260405f205f91509050805f018054614afb9061712d565b80601f0160208091040260200160405190810160405280929190818152602001828054614b279061712d565b8015614b725780601f10614b4957610100808354040283529160200191614b72565b820191905f5260205f20905b815481529060010190602001808311614b5557829003601f168201915b505050505090806001018054614b879061712d565b80601f0160208091040260200160405190810160405280929190818152602001828054614bb39061712d565b8015614bfe5780601f10614bd557610100808354040283529160200191614bfe565b820191905f5260205f20905b815481529060010190602001808311614be157829003601f168201915b505050505090806002018054614c139061712d565b80601f0160208091040260200160405190810160405280929190818152602001828054614c3f9061712d565b8015614c8a5780601f10614c6157610100808354040283529160200191614c8a565b820191905f5260205f20905b815481529060010190602001808311614c6d57829003601f168201915b505050505090806003015490806004015490806005015f9054906101000a900460ff16908060060154905087565b60ab602052805f5260405f205f915054906101000a900460ff1681565b614cdd615cbf565b60385f9054906101000a900460ff1615614d6b576006603280602002604051908101604052809291908260328015614d5f576020028201915b815f9054906101000a900473ffffffffffffffffffffffffffffffffffffffff1673ffffffffffffffffffffffffffffffffffffffff1681526020019060010190808311614d16575b5050505050905061533c565b6001544211614daf576040517f08c379a0000000000000000000000000000000000000000000000000000000008152600401614da690618dd3565b60405180910390fd5b5f600190505b603260ff168111615158575f5b81600580549050038110156150185760045f60056001840181548110614deb57614dea61747b565b5b905f5260205f20015f9054906101000a900473ffffffffffffffffffffffffffffffffffffffff1673ffffffffffffffffffffffffffffffffffffffff1673ffffffffffffffffffffffffffffffffffffffff1681526020019081526020015f206004015460045f60058481548110614e6757614e6661747b565b5b905f5260205f20015f9054906101000a900473ffffffffffffffffffffffffffffffffffffffff1673ffffffffffffffffffffffffffffffffffffffff1673ffffffffffffffffffffffffffffffffffffffff1681526020019081526020015f2060040154111561500b5760056001820181548110614ee957614ee861747b565b5b905f5260205f20015f9054906101000a900473ffffffffffffffffffffffffffffffffffffffff1660058281548110614f2557614f2461747b565b5b905f5260205f20015f9054906101000a900473ffffffffffffffffffffffffffffffffffffffff1660058381548110614f6157614f6061747b565b5b905f5260205f20015f60056001860181548110614f8157614f8061747b565b5b905f5260205f20015f8491906101000a81548173ffffffffffffffffffffffffffffffffffffffff021916908373ffffffffffffffffffffffffffffffffffffffff1602179055508391906101000a81548173ffffffffffffffffffffffffffffffffffffffff021916908373ffffffffffffffffffffffffffffffffffffffff16021790555050505b8080600101915050614dc2565b5060058160058054905003815481106150345761503361747b565b5b905f5260205f20015f9054906101000a900473ffffffffffffffffffffffffffffffffffffffff16600660018303603281106150735761507261747b565b5b015f6101000a81548173ffffffffffffffffffffffffffffffffffffffff021916908373ffffffffffffffffffffffffffffffffffffffff160217905550600160045f60058460058054905003815481106150d1576150d061747b565b5b905f5260205f20015f9054906101000a900473ffffffffffffffffffffffffffffffffffffffff1673ffffffffffffffffffffffffffffffffffffffff1673ffffffffffffffffffffffffffffffffffffffff1681526020019081526020015f206005015f6101000a81548160ff0219169083151502179055508080600101915050614db5565b50600160385f6101000a81548160ff02191690831515021790555060065f603281106151875761518661747b565b5b015f9054906101000a900473ffffffffffffffffffffffffffffffffffffffff16603860016101000a81548173ffffffffffffffffffffffffffffffffffffffff021916908373ffffffffffffffffffffffffffffffffffffffff1602179055505f6039819055504260045f603860019054906101000a900473ffffffffffffffffffffffffffffffffffffffff1673ffffffffffffffffffffffffffffffffffffffff1673ffffffffffffffffffffffffffffffffffffffff1681526020019081526020015f206006018190555060066040516152659190618ecc565b60405180910390207f5befb7b9346d2adf55904a87bbd0d35bcede9d28085a00c081c6168ac5ed6c44603860019054906101000a900473ffffffffffffffffffffffffffffffffffffffff166040516152be919061695f565b60405180910390a26006603280602002604051908101604052809291908260328015615334576020028201915b815f9054906101000a900473ffffffffffffffffffffffffffffffffffffffff1673ffffffffffffffffffffffffffffffffffffffff16815260200190600101908083116152eb575b505050505090505b90565b60435481565b60458181548110615354575f80fd5b905f5260205f2090600202015f91509050805f0154908060010154905082565b61537c615bee565b603e8054905082106153c3576040517f08c379a00000000000000000000000000000000000000000000000000000000081526004016153ba90618f31565b60405180910390fd5b603e82815481106153d7576153d661747b565b5b905f5260205f209060080201604051806101000160405290815f820180546153fe9061712d565b80601f016020809104026020016040519081016040528092919081815260200182805461542a9061712d565b80156154755780601f1061544c57610100808354040283529160200191615475565b820191905f5260205f20905b81548152906001019060200180831161545857829003601f168201915b5050505050815260200160018201805461548e9061712d565b80601f01602080910402602001604051908101604052809291908181526020018280546154ba9061712d565b80156155055780601f106154dc57610100808354040283529160200191615505565b820191905f5260205f20905b8154815290600101906020018083116154e857829003601f168201915b5050505050815260200160028201805461551e9061712d565b80601f016020809104026020016040519081016040528092919081815260200182805461554a9061712d565b80156155955780601f1061556c57610100808354040283529160200191615595565b820191905f5260205f20905b81548152906001019060200180831161557857829003601f168201915b505050505081526020016003820180546155ae9061712d565b80601f01602080910402602001604051908101604052809291908181526020018280546155da9061712d565b80156156255780601f106155fc57610100808354040283529160200191615625565b820191905f5260205f20905b81548152906001019060200180831161560857829003601f168201915b50505050508152602001600482015481526020016005820180546156489061712d565b80601f01602080910402602001604051908101604052809291908181526020018280546156749061712d565b80156156bf5780601f10615696576101008083540402835291602001916156bf565b820191905f5260205f20905b8154815290600101906020018083116156a257829003601f168201915b50505050508152602001600682015481526020016007820154815250509050919050565b600a81565b5f8054906101000a900473ffffffffffffffffffffffffffffffffffffffff1673ffffffffffffffffffffffffffffffffffffffff163373ffffffffffffffffffffffffffffffffffffffff1614615775576040517f08c379a000000000000000000000000000000000000000000000000000000000815260040161576c90618f99565b60405180910390fd5b5f600481111561578857615787616b36565b5b615790613674565b60048111156157a2576157a1616b36565b5b146157e2576040517f08c379a00000000000000000000000000000000000000000000000000000000081526004016157d990619001565b60405180910390fd5b6103e860026157f1919061901f565b63ffffffff1660035f9054906101000a900461ffff1661ffff16111561584c576040517f08c379a0000000000000000000000000000000000000000000000000000000008152600401615843906190cb565b60405180910390fd5b5f73ffffffffffffffffffffffffffffffffffffffff168173ffffffffffffffffffffffffffffffffffffffff16036158ba576040517f08c379a00000000000000000000000000000000000000000000000000000000081526004016158b190618232565b60405180910390fd5b5f60025f8373ffffffffffffffffffffffffffffffffffffffff1673ffffffffffffffffffffffffffffffffffffffff1681526020019081526020015f205414615939576040517f08c379a000000000000000000000000000000000000000000000000000000000815260040161593090619159565b60405180910390fd5b600160025f8373ffffffffffffffffffffffffffffffffffffffff1673ffffffffffffffffffffffffffffffffffffffff1681526020019081526020015f208190555060035f81819054906101000a900461ffff168092919061599b90619184565b91906101000a81548161ffff021916908361ffff160217905550508073ffffffffffffffffffffffffffffffffffffffff167f56aa1768b52ddcdda65c5561181844717c2eed4bb3c848376d4420860da04dae60035f9054906101000a900461ffff16604051615a0b91906191dd565b60405180910390a250565b60445481565b5f603a8281548110615a3157615a3061747b565b5b905f5260205f20906007020190505f5b8160060180549050811015615bc7575f826006018281548110615a6757615a6661747b565b5b905f5260205f2090600302016040518060600160405290815f8201548152602001600182015f9054906101000a900473ffffffffffffffffffffffffffffffffffffffff1673ffffffffffffffffffffffffffffffffffffffff1673ffffffffffffffffffffffffffffffffffffffff168152602001600282018054615aec9061712d565b80601f0160208091040260200160405190810160405280929190818152602001828054615b189061712d565b8015615b635780601f10615b3a57610100808354040283529160200191615b63565b820191905f5260205f20905b815481529060010190602001808311615b4657829003601f168201915b5050505050815250509050806020015173ffffffffffffffffffffffffffffffffffffffff166108fc825f015190811502906040515f60405180830381858888f19350505050158015615bb8573d5f803e3d5ffd5b50508080600101915050615a41565b505050565b6040518060400160405280600290602082028036833780820191505090505090565b604051806101000160405280606081526020016060815260200160608152602001606081526020015f8019168152602001606081526020015f81526020015f81525090565b6040518060e001604052805f73ffffffffffffffffffffffffffffffffffffffff168152602001606081526020015f81526020015f81526020015f81526020015f60ff168152602001606081525090565b6040518060e001604052806060815260200160608152602001606081526020015f81526020015f81526020015f151581526020015f81525090565b604051806106400160405280603290602082028036833780820191505090505090565b5f60ff82169050919050565b615cf781615ce2565b82525050565b5f602082019050615d105f830184615cee565b92915050565b5f63ffffffff82169050919050565b615d2e81615d16565b82525050565b5f602082019050615d475f830184615d25565b92915050565b5f604051905090565b5f80fd5b5f80fd5b5f80fd5b5f80fd5b5f601f19601f8301169050919050565b7f4e487b71000000000000000000000000000000000000000000000000000000005f52604160045260245ffd5b615dac82615d66565b810181811067ffffffffffffffff82111715615dcb57615dca615d76565b5b80604052505050565b5f615ddd615d4d565b9050615de98282615da3565b919050565b5f67ffffffffffffffff821115615e0857615e07615d76565b5b615e1182615d66565b9050602081019050919050565b828183375f83830152505050565b5f615e3e615e3984615dee565b615dd4565b905082815260208101848484011115615e5a57615e59615d62565b5b615e65848285615e1e565b509392505050565b5f82601f830112615e8157615e80615d5e565b5b8135615e91848260208601615e2c565b91505092915050565b5f805f60608486031215615eb157615eb0615d56565b5b5f84013567ffffffffffffffff811115615ece57615ecd615d5a565b5b615eda86828701615e6d565b935050602084013567ffffffffffffffff811115615efb57615efa615d5a565b5b615f0786828701615e6d565b925050604084013567ffffffffffffffff811115615f2857615f27615d5a565b5b615f3486828701615e6d565b9150509250925092565b5f8115159050919050565b615f5281615f3e565b82525050565b5f602082019050615f6b5f830184615f49565b92915050565b5f819050919050565b615f8381615f71565b8114615f8d575f80fd5b50565b5f81359050615f9e81615f7a565b92915050565b5f60208284031215615fb957615fb8615d56565b5b5f615fc684828501615f90565b91505092915050565b5f60029050919050565b5f81905092915050565b5f819050919050565b5f73ffffffffffffffffffffffffffffffffffffffff82169050919050565b5f61601582615fec565b9050919050565b6160258161600b565b82525050565b5f616036838361601c565b60208301905092915050565b5f602082019050919050565b61605781615fcf565b6160618184615fd9565b925061606c82615fe3565b805f5b8381101561609c578151616083878261602b565b965061608e83616042565b92505060018101905061606f565b505050505050565b5f6040820190506160b75f83018461604e565b92915050565b5f819050919050565b6160cf816160bd565b82525050565b5f6020820190506160e85f8301846160c6565b92915050565b6160f78161600b565b8114616101575f80fd5b50565b5f81359050616112816160ee565b92915050565b5f6020828403121561612d5761612c615d56565b5b5f61613a84828501616104565b91505092915050565b61614c816160bd565b8114616156575f80fd5b50565b5f8135905061616781616143565b92915050565b5f806040838503121561618357616182615d56565b5b5f61619085828601616104565b92505060206161a185828601616159565b9150509250929050565b5f602082840312156161c0576161bf615d56565b5b5f6161cd84828501616159565b91505092915050565b6161df8161600b565b82525050565b5f81519050919050565b5f82825260208201905092915050565b8281835e5f83830152505050565b5f616217826161e5565b61622181856161ef565b93506162318185602086016161ff565b61623a81615d66565b840191505092915050565b5f60c0820190506162585f8301896161d6565b818103602083015261626a818861620d565b905061627960408301876160c6565b61628660608301866160c6565b61629360808301856160c6565b6162a060a0830184615cee565b979650505050505050565b6162b481615f71565b82525050565b5f610100820190508181035f8301526162d3818b61620d565b905081810360208301526162e7818a61620d565b905081810360408301526162fb818961620d565b9050818103606083015261630f818861620d565b905061631e60808301876162ab565b81810360a0830152616330818661620d565b905061633f60c08301856160c6565b61634c60e08301846160c6565b9998505050505050505050565b5f82825260208201905092915050565b5f616373826161e5565b61637d8185616359565b935061638d8185602086016161ff565b61639681615d66565b840191505092915050565b6163aa81615f71565b82525050565b6163b9816160bd565b82525050565b5f61010083015f8301518482035f8601526163da8282616369565b915050602083015184820360208601526163f48282616369565b9150506040830151848203604086015261640e8282616369565b915050606083015184820360608601526164288282616369565b915050608083015161643d60808601826163a1565b5060a083015184820360a08601526164558282616369565b91505060c083015161646a60c08601826163b0565b5060e083015161647d60e08601826163b0565b508091505092915050565b5f60408201905061649b5f8301856160c6565b81810360208301526164ad81846163bf565b90509392505050565b6164bf81615ce2565b82525050565b5f81519050919050565b5f82825260208201905092915050565b5f819050602082019050919050565b5f606083015f8301516165035f8601826163b0565b506020830151616516602086018261601c565b506040830151848203604086015261652e8282616369565b9150508091505092915050565b5f61654683836164ee565b905092915050565b5f602082019050919050565b5f616564826164c5565b61656e81856164cf565b935083602082028501616580856164df565b805f5b858110156165bb578484038952815161659c858261653b565b94506165a78361654e565b925060208a01995050600181019050616583565b50829750879550505050505092915050565b5f60e083015f8301516165e25f86018261601c565b50602083015184820360208601526165fa8282616369565b915050604083015161660f60408601826163b0565b50606083015161662260608601826163b0565b50608083015161663560808601826163b0565b5060a083015161664860a08601826164b6565b5060c083015184820360c0860152616660828261655a565b9150508091505092915050565b5f6020820190508181035f83015261668581846165cd565b905092915050565b5f80fd5b5f80fd5b5f8083601f8401126166aa576166a9615d5e565b5b8235905067ffffffffffffffff8111156166c7576166c661668d565b5b6020830191508360018202830111156166e3576166e2616691565b5b9250929050565b5f8083601f8401126166ff576166fe615d5e565b5b8235905067ffffffffffffffff81111561671c5761671b61668d565b5b60208301915083602082028301111561673857616737616691565b5b9250929050565b5f805f806040858703121561675757616756615d56565b5b5f85013567ffffffffffffffff81111561677457616773615d5a565b5b61678087828801616695565b9450945050602085013567ffffffffffffffff8111156167a3576167a2615d5a565b5b6167af878288016166ea565b925092505092959194509250565b5f80fd5b5f80fd5b5f61010082840312156167db576167da6167bd565b5b6167e6610100615dd4565b90505f82013567ffffffffffffffff811115616805576168046167c1565b5b61681184828501615e6d565b5f83015250602082013567ffffffffffffffff811115616834576168336167c1565b5b61684084828501615e6d565b602083015250604082013567ffffffffffffffff811115616864576168636167c1565b5b61687084828501615e6d565b604083015250606082013567ffffffffffffffff811115616894576168936167c1565b5b6168a084828501615e6d565b60608301525060806168b484828501615f90565b60808301525060a082013567ffffffffffffffff8111156168d8576168d76167c1565b5b6168e484828501615e6d565b60a08301525060c06168f884828501616159565b60c08301525060e061690c84828501616159565b60e08301525092915050565b5f6020828403121561692d5761692c615d56565b5b5f82013567ffffffffffffffff81111561694a57616949615d5a565b5b616956848285016167c5565b91505092915050565b5f6020820190506169725f8301846161d6565b92915050565b5f819050919050565b61698a81616978565b82525050565b5f6040820190506169a35f830185616981565b6169b060208301846160c6565b9392505050565b6169c081615f3e565b82525050565b5f60e083015f8301518482035f8601526169e08282616369565b915050602083015184820360208601526169fa8282616369565b91505060408301518482036040860152616a148282616369565b9150506060830151616a2960608601826163b0565b506080830151616a3c60808601826163b0565b5060a0830151616a4f60a08601826169b7565b5060c0830151616a6260c08601826163b0565b508091505092915050565b5f6020820190508181035f830152616a8581846169c6565b905092915050565b5f819050826020600a0282011115616aa857616aa7616691565b5b92915050565b5f819050826020600a0282011115616ac957616ac8616691565b5b92915050565b5f806102808385031215616ae657616ae5615d56565b5b5f616af385828601616a8d565b925050610140616b0585828601616aae565b9150509250929050565b5f604082019050616b225f8301856161d6565b616b2f60208301846160c6565b9392505050565b7f4e487b71000000000000000000000000000000000000000000000000000000005f52602160045260245ffd5b60058110616b7457616b73616b36565b5b50565b5f819050616b8482616b63565b919050565b5f616b9382616b77565b9050919050565b616ba381616b89565b82525050565b5f602082019050616bbc5f830184616b9a565b92915050565b5f8083601f840112616bd757616bd6615d5e565b5b8235905067ffffffffffffffff811115616bf457616bf361668d565b5b602083019150836020820283011115616c1057616c0f616691565b5b9250929050565b5f8060208385031215616c2d57616c2c615d56565b5b5f83013567ffffffffffffffff811115616c4a57616c49615d5a565b5b616c5685828601616bc2565b92509250509250929050565b5f8060408385031215616c7857616c77615d56565b5b5f616c8585828601616159565b9250506020616c9685828601616104565b9150509250929050565b5f60e0820190508181035f830152616cb8818a61620d565b90508181036020830152616ccc818961620d565b90508181036040830152616ce0818861620d565b9050616cef60608301876160c6565b616cfc60808301866160c6565b616d0960a0830185615f49565b616d1660c08301846160c6565b98975050505050505050565b5f60329050919050565b5f81905092915050565b5f819050919050565b5f602082019050919050565b616d5481616d22565b616d5e8184616d2c565b9250616d6982616d36565b805f5b83811015616d99578151616d80878261602b565b9650616d8b83616d3f565b925050600181019050616d6c565b505050505050565b5f61064082019050616db55f830184616d4b565b92915050565b5f604082019050616dce5f8301856160c6565b616ddb60208301846160c6565b9392505050565b5f6020820190508181035f830152616dfa81846163bf565b905092915050565b7f496e76616c6964206e616d6500000000000000000000000000000000000000005f82015250565b5f616e36600c836161ef565b9150616e4182616e02565b602082019050919050565b5f6020820190508181035f830152616e6381616e2a565b9050919050565b7f496e76616c69642062696f0000000000000000000000000000000000000000005f82015250565b5f616e9e600b836161ef565b9150616ea982616e6a565b602082019050919050565b5f6020820190508181035f830152616ecb81616e92565b9050919050565b7f496e76616c6964207765627369746500000000000000000000000000000000005f82015250565b5f616f06600f836161ef565b9150616f1182616ed2565b602082019050919050565b5f6020820190508181035f830152616f3381616efa565b9050919050565b7f496e76616c69642073656e6465720000000000000000000000000000000000005f82015250565b5f616f6e600e836161ef565b9150616f7982616f3a565b602082019050919050565b5f6020820190508181035f830152616f9b81616f62565b9050919050565b7f496e73756666696369656e7420726567697374726174696f6e206665650000005f82015250565b5f616fd6601d836161ef565b9150616fe182616fa2565b602082019050919050565b5f6020820190508181035f83015261700381616fca565b9050919050565b7f43616e64696461746520726567697374726174696f6e20706572696f642068615f8201527f7320656e6465642e000000000000000000000000000000000000000000000000602082015250565b5f6170646028836161ef565b915061706f8261700a565b604082019050919050565b5f6020820190508181035f83015261709181617058565b9050919050565b7f416c7265616479207265676973746572656400000000000000000000000000005f82015250565b5f6170cc6012836161ef565b91506170d782617098565b602082019050919050565b5f6020820190508181035f8301526170f9816170c0565b9050919050565b7f4e487b71000000000000000000000000000000000000000000000000000000005f52602260045260245ffd5b5f600282049050600182168061714457607f821691505b60208210810361715757617156617100565b5b50919050565b5f819050815f5260205f209050919050565b5f6020601f8301049050919050565b5f82821b905092915050565b5f600883026171b97fffffffffffffffffffffffffffffffffffffffffffffffffffffffffffffffff8261717e565b6171c3868361717e565b95508019841693508086168417925050509392505050565b5f819050919050565b5f6171fe6171f96171f4846160bd565b6171db565b6160bd565b9050919050565b5f819050919050565b617217836171e4565b61722b61722382617205565b84845461718a565b825550505050565b5f90565b61723f617233565b61724a81848461720e565b505050565b5b8181101561726d576172625f82617237565b600181019050617250565b5050565b601f8211156172b2576172838161715d565b61728c8461716f565b8101602085101561729b578190505b6172af6172a78561716f565b83018261724f565b50505b505050565b5f82821c905092915050565b5f6172d25f19846008026172b7565b1980831691505092915050565b5f6172ea83836172c3565b9150826002028217905092915050565b617303826161e5565b67ffffffffffffffff81111561731c5761731b615d76565b5b617326825461712d565b617331828285617271565b5f60209050601f831160018114617362575f8415617350578287015190505b61735a85826172df565b8655506173c1565b601f1984166173708661715d565b5f5b8281101561739757848901518255600182019150602085019450602081019050617372565b868310156173b457848901516173b0601f8916826172c3565b8355505b6001600288020188555050505b505050505050565b5f6060820190508181035f8301526173e1818661620d565b905081810360208301526173f5818561620d565b90508181036040830152617409818461620d565b9050949350505050565b7f43616c6c206f6e6365206166746572205265666572656e64756d0000000000005f82015250565b5f617447601a836161ef565b915061745282617413565b602082019050919050565b5f6020820190508181035f8301526174748161743b565b9050919050565b7f4e487b71000000000000000000000000000000000000000000000000000000005f52603260045260245ffd5b7f496e76616c69642062696c6c20494400000000000000000000000000000000005f82015250565b5f6174dc600f836161ef565b91506174e7826174a8565b602082019050919050565b5f6020820190508181035f830152617509816174d0565b9050919050565b7f4f6e6c79207468652070726f706f7365722063616e20776974686472617700005f82015250565b5f617544601e836161ef565b915061754f82617510565b602082019050919050565b5f6020820190508181035f83015261757181617538565b9050919050565b7f42696c6c20616c726561647920657865637574656400000000000000000000005f82015250565b5f6175ac6015836161ef565b91506175b782617578565b602082019050919050565b5f6020820190508181035f8301526175d9816175a0565b9050919050565b7f42696c6c20616c72656164792077697468647261776e000000000000000000005f82015250565b5f6176146016836161ef565b915061761f826175e0565b602082019050919050565b5f6020820190508181035f83015261764181617608565b9050919050565b7f4f6e6c79206d656d626572732063616e20766f746500000000000000000000005f82015250565b5f61767c6015836161ef565b915061768782617648565b602082019050919050565b5f6020820190508181035f8301526176a981617670565b9050919050565b7f42696c6c2077697468647261776e0000000000000000000000000000000000005f82015250565b5f6176e4600e836161ef565b91506176ef826176b0565b602082019050919050565b5f6020820190508181035f830152617711816176d8565b9050919050565b7f416c726561647920766f746564000000000000000000000000000000000000005f82015250565b5f61774c600d836161ef565b915061775782617718565b602082019050919050565b5f6020820190508181035f83015261777981617740565b9050919050565b7f4e487b71000000000000000000000000000000000000000000000000000000005f52601160045260245ffd5b5f6177b782615ce2565b915060ff82036177ca576177c9617780565b5b600182019050919050565b7f4f6e6c79206d656d626572732063616e2070726f706f73652062696c6c7300005f82015250565b5f617809601e836161ef565b9150617814826177d5565b602082019050919050565b5f6020820190508181035f830152617836816177fd565b9050919050565b7f50726f766973696f6e73207265717569726564000000000000000000000000005f82015250565b5f6178716013836161ef565b915061787c8261783d565b602082019050919050565b5f6020820190508181035f83015261789e81617865565b9050919050565b7f4d656d62657220616c72656164792068617320616e206163746976652062696c5f8201527f6c00000000000000000000000000000000000000000000000000000000000000602082015250565b5f6178ff6021836161ef565b915061790a826178a5565b604082019050919050565b5f6020820190508181035f83015261792c816178f3565b9050919050565b5f82905092915050565b6179478383617933565b67ffffffffffffffff8111156179605761795f615d76565b5b61796a825461712d565b617975828285617271565b5f601f8311600181146179a2575f8415617990578287013590505b61799a85826172df565b865550617a01565b601f1984166179b08661715d565b5f5b828110156179d7578489013582556001820191506020850194506020810190506179b2565b868310156179f457848901356179f0601f8916826172c3565b8355505b6001600288020188555050505b50505050505050565b5f80fd5b5f80fd5b5f80fd5b5f82356001606003833603038112617a3157617a30617a0a565b5b80830191505092915050565b5f8135617a4981616143565b80915050919050565b5f815f1b9050919050565b5f7fffffffffffffffffffffffffffffffffffffffffffffffffffffffffffffffff617a8884617a52565b9350801983169250808416831791505092915050565b617aa7826171e4565b617aba617ab382617205565b8354617a5d565b8255505050565b5f8135617acd816160ee565b80915050919050565b5f73ffffffffffffffffffffffffffffffffffffffff617af584617a52565b9350801983169250808416831791505092915050565b5f617b25617b20617b1b84615fec565b6171db565b615fec565b9050919050565b5f617b3682617b0b565b9050919050565b5f617b4782617b2c565b9050919050565b5f819050919050565b617b6082617b3d565b617b73617b6c82617b4e565b8354617ad6565b8255505050565b5f8083356001602003843603038112617b9657617b95617a0a565b5b80840192508235915067ffffffffffffffff821115617bb857617bb7617a0e565b5b602083019250600182023603831315617bd457617bd3617a12565b5b509250929050565b617be783838361793d565b505050565b5f81015f830180617bfc81617a3d565b9050617c088184617a9e565b505050600181016020830180617c1d81617ac1565b9050617c298184617b57565b5050506002810160408301617c3e8185617b7a565b617c49818386617bdc565b505050505050565b617c5b8282617bec565b5050565b5f617c6a83856161ef565b9350617c77838584615e1e565b617c8083615d66565b840190509392505050565b5f6020820190508181035f830152617ca4818486617c5f565b90509392505050565b7f57726f6e672070686173650000000000000000000000000000000000000000005f82015250565b5f617ce1600b836161ef565b9150617cec82617cad565b602082019050919050565b5f6020820190508181035f830152617d0e81617cd5565b9050919050565b7f4465736372697074696f6e2072657175697265640000000000000000000000005f82015250565b5f617d496014836161ef565b9150617d5482617d15565b602082019050919050565b5f6020820190508181035f830152617d7681617d3d565b9050919050565b7f636f6e737469747574696f6e54657874207265717569726564000000000000005f82015250565b5f617db16019836161ef565b9150617dbc82617d7d565b602082019050919050565b5f6020820190508181035f830152617dde81617da5565b9050919050565b7f50726f706f736572206e616d65207265717569726564000000000000000000005f82015250565b5f617e196016836161ef565b9150617e2482617de5565b602082019050919050565b5f6020820190508181035f830152617e4681617e0d565b9050919050565b7f496e73756666696369656e74207375626d697373696f6e2066656500000000005f82015250565b5f617e81601b836161ef565b9150617e8c82617e4d565b602082019050919050565b5f6020820190508181035f830152617eae81617e75565b9050919050565b5f81905092915050565b5f617ec9826161e5565b617ed38185617eb5565b9350617ee38185602086016161ff565b80840191505092915050565b5f617efa8287617ebf565b9150617f068286617ebf565b9150617f128285617ebf565b9150617f1e8284617ebf565b915081905095945050505050565b7f496e636f727265637420486173682100000000000000000000000000000000005f82015250565b5f617f60600f836161ef565b9150617f6b82617f2c565b602082019050919050565b5f6020820190508181035f830152617f8d81617f54565b9050919050565b5f617f9e826160bd565b9150617fa9836160bd565b9250828203905081811115617fc157617fc0617780565b5b92915050565b7f496e76616c69642043616e6469646174652049440000000000000000000000005f82015250565b5f617ffb6014836161ef565b915061800682617fc7565b602082019050919050565b5f6020820190508181035f83015261802881617fef565b9050919050565b7f4e6f742061204d656d62657200000000000000000000000000000000000000005f82015250565b5f618063600c836161ef565b915061806e8261802f565b602082019050919050565b5f6020820190508181035f83015261809081618057565b9050919050565b5f6020820190506180aa5f830184616981565b92915050565b7f4e6f7420617574686f72697a65642072656769737472617200000000000000005f82015250565b5f6180e46018836161ef565b91506180ef826180b0565b602082019050919050565b5f6020820190508181035f830152618111816180d8565b9050919050565b7f496e636f72726563742062617463682073697a650000000000000000000000005f82015250565b5f61814c6014836161ef565b915061815782618118565b602082019050919050565b5f6020820190508181035f83015261817981618140565b9050919050565b7f566f746572206861736820616c726561647920726567697374657265642e00005f82015250565b5f6181b4601e836161ef565b91506181bf82618180565b602082019050919050565b5f6020820190508181035f8301526181e1816181a8565b9050919050565b7f496e76616c696420766f746572206164647265737300000000000000000000005f82015250565b5f61821c6015836161ef565b9150618227826181e8565b602082019050919050565b5f6020820190508181035f83015261824981618210565b9050919050565b7f416464726573737320616c726561647920726567697374657265642e205265675f8201527f697374726172204552524f522100000000000000000000000000000000000000602082015250565b5f6182aa602d836161ef565b91506182b582618250565b604082019050919050565b5f6020820190508181035f8301526182d78161829e565b9050919050565b5f6182e8826160bd565b91507fffffffffffffffffffffffffffffffffffffffffffffffffffffffffffffffff820361831a57618319617780565b5b600182019050919050565b5f61832f82615d16565b915061833a83615d16565b9250828201905063ffffffff81111561835657618355617780565b5b92915050565b5f600a9050919050565b5f81905092915050565b5f819050919050565b6183828161600b565b82525050565b5f6183938383618379565b60208301905092915050565b5f6183ad6020840184616104565b905092915050565b5f602082019050919050565b6183ca8161835c565b6183d48184618366565b92506183df82618370565b805f5b83811015618417576183f4828461839f565b6183fe8782618388565b9650618409836183b5565b9250506001810190506183e2565b505050505050565b5f61842a82846183c1565b6101408201915081905092915050565b5f61845461844f61844a84615d16565b6171db565b6160bd565b9050919050565b6184648161843a565b82525050565b5f60408201905061847d5f8301856161d6565b61848a602083018461845b565b9392505050565b5f61849b82615ce2565b91506184a683615ce2565b92508282026184b481615ce2565b91508082146184c6576184c5617780565b5b5092915050565b5f6184d7826160bd565b91506184e2836160bd565b92508282019050808211156184fa576184f9617780565b5b92915050565b7f43757272656e74206c65616465722773207465726d206e6f742066696e6973685f8201527f6564000000000000000000000000000000000000000000000000000000000000602082015250565b5f61855a6022836161ef565b915061856582618500565b604082019050919050565b5f6020820190508181035f8301526185878161854e565b9050919050565b7f4e6f7420696e20456c656374696f6e20706861736500000000000000000000005f82015250565b5f6185c26015836161ef565b91506185cd8261858e565b602082019050919050565b5f6020820190508181035f8301526185ef816185b6565b9050919050565b7f496e76616c696420766f746520636f756e7400000000000000000000000000005f82015250565b5f61862a6012836161ef565b9150618635826185f6565b602082019050919050565b5f6020820190508181035f8301526186578161861e565b9050919050565b7f416c726561647920766f74656420283e3129206f72206e6f74207265676973745f8201527f6572656420283029000000000000000000000000000000000000000000000000602082015250565b5f6186b86028836161ef565b91506186c38261865e565b604082019050919050565b5f6020820190508181035f8301526186e5816186ac565b9050919050565b7f57726f6e672063616e64696461746520696e64657800000000000000000000005f82015250565b5f6187206015836161ef565b915061872b826186ec565b602082019050919050565b5f6020820190508181035f83015261874d81618714565b9050919050565b7f526570657469746976652063616e64696461746520696e6465780000000000005f82015250565b5f618788601a836161ef565b915061879382618754565b602082019050919050565b5f6020820190508181035f8301526187b58161877c565b9050919050565b7f4f6e6c79206d656d626572732063616e2070726f706f736500000000000000005f82015250565b5f6187f06018836161ef565b91506187fb826187bc565b602082019050919050565b5f6020820190508181035f83015261881d816187e4565b9050919050565b7f526174652063616e6e6f742065786365656420353025000000000000000000005f82015250565b5f6188586016836161ef565b915061886382618824565b602082019050919050565b5f6020820190508181035f8301526188858161884c565b9050919050565b5f61889682615ce2565b91506188a183615ce2565b9250828203905060ff8111156188ba576188b9617780565b5b92915050565b5f6188ca82615ce2565b91506188d583615ce2565b9250828201905060ff8111156188ee576188ed617780565b5b92915050565b5f6188fe82615ce2565b91505f82036189105761890f617780565b5b600182039050919050565b5f60808201905061892e5f8301876160c6565b61893b6020830186615cee565b61894860408301856160c6565b6189556060830184615cee565b95945050505050565b7f4e487b71000000000000000000000000000000000000000000000000000000005f52601260045260245ffd5b5f61899582615ce2565b91506189a083615ce2565b9250826189b0576189af61895e565b5b828204905092915050565b7f43616e6e6f74207374617274207265666572656e64756d2079657400000000005f82015250565b5f6189ef601b836161ef565b91506189fa826189bb565b602082019050919050565b5f6020820190508181035f830152618a1c816189e3565b9050919050565b7f416c7265616479207261746966696564206120636f6e737469747574696f6e005f82015250565b5f618a57601f836161ef565b9150618a6282618a23565b602082019050919050565b5f6020820190508181035f830152618a8481618a4b565b9050919050565b7f4e6f7420656e6f7567682070726f706f73616c730000000000000000000000005f82015250565b5f618abf6014836161ef565b9150618aca82618a8b565b602082019050919050565b5f6020820190508181035f830152618aec81618ab3565b9050919050565b7f4e6f7420656e6f75676820766f746572730000000000000000000000000000005f82015250565b5f618b276011836161ef565b9150618b3282618af3565b602082019050919050565b5f6020820190508181035f830152618b5481618b1b565b9050919050565b7f4e6f7420696e205265666572656e64756d2074696d65000000000000000000005f82015250565b5f618b8f6016836161ef565b9150618b9a82618b5b565b602082019050919050565b5f6020820190508181035f830152618bbc81618b83565b9050919050565b7f496e76616c69642070726f706f73616c206c69737400000000000000000000005f82015250565b5f618bf76015836161ef565b9150618c0282618bc3565b602082019050919050565b5f6020820190508181035f830152618c2481618beb565b9050919050565b7f566f746564206f72204e6f74207265676973746572656420656e6f75676820745f8201527f696d657300000000000000000000000000000000000000000000000000000000602082015250565b5f618c856024836161ef565b9150618c9082618c2b565b604082019050919050565b5f6020820190508181035f830152618cb281618c79565b9050919050565b7f496e76616c69642070726f706f73616c000000000000000000000000000000005f82015250565b5f618ced6010836161ef565b9150618cf882618cb9565b602082019050919050565b5f6020820190508181035f830152618d1a81618ce1565b9050919050565b7f526570657469746976652070726f706f73616c496400000000000000000000005f82015250565b5f618d556015836161ef565b9150618d6082618d21565b602082019050919050565b5f6020820190508181035f830152618d8281618d49565b9050919050565b7f43616c6c20616674657220656c656374696f6e000000000000000000000000005f82015250565b5f618dbd6013836161ef565b9150618dc882618d89565b602082019050919050565b5f6020820190508181035f830152618dea81618db1565b9050919050565b5f60329050919050565b5f81905092915050565b5f819050919050565b5f815f1c9050919050565b5f73ffffffffffffffffffffffffffffffffffffffff82169050919050565b5f618e4a618e4583618e0e565b618e19565b9050919050565b5f618e5c8254618e38565b9050919050565b5f600182019050919050565b618e7881618df1565b618e828184618dfb565b9250618e8d82618e05565b805f5b83811015618ec457618ea182618e51565b618eab8782618388565b9650618eb683618e63565b925050600181019050618e90565b505050505050565b5f618ed78284618e6f565b6106408201915081905092915050565b7f496e76616c696420636f6e737469747574696f6e2070726f706f73616c2049445f82015250565b5f618f1b6020836161ef565b9150618f2682618ee7565b602082019050919050565b5f6020820190508181035f830152618f4881618f0f565b9050919050565b7f4e6f7420617574686f72697a65642072616e646f6d697a6572000000000000005f82015250565b5f618f836019836161ef565b9150618f8e82618f4f565b602082019050919050565b5f6020820190508181035f830152618fb081618f77565b9050919050565b7f566f74657220616464696e6720706572696f642068617320656e6465642e00005f82015250565b5f618feb601e836161ef565b9150618ff682618fb7565b602082019050919050565b5f6020820190508181035f83015261901881618fdf565b9050919050565b5f61902982615d16565b915061903483615d16565b925082820261904281615d16565b915080821461905457619053617780565b5b5092915050565b7f4d6178696d756d206e756d626572206f6620766f7465727320726561636865645f8201527f2e00000000000000000000000000000000000000000000000000000000000000602082015250565b5f6190b56021836161ef565b91506190c08261905b565b604082019050919050565b5f6020820190508181035f8301526190e2816190a9565b9050919050565b7f4164647265737320697320616c7265616479206164646564206173206120766f5f8201527f7465720000000000000000000000000000000000000000000000000000000000602082015250565b5f6191436023836161ef565b915061914e826190e9565b604082019050919050565b5f6020820190508181035f83015261917081619137565b9050919050565b5f61ffff82169050919050565b5f61918e82619177565b915061ffff82036191a2576191a1617780565b5b600182019050919050565b5f6191c76191c26191bd84619177565b6171db565b6160bd565b9050919050565b6191d7816191ad565b82525050565b5f6020820190506191f05f8301846191ce565b9291505056fea2646970667358221220ea9bd2b5b3d6bda283b542389d0939e8c3f3c1b53c90b661c8363fbc0c66279b64736f6c634300081a0033",
			"opcodes": "PUSH1 0xA0 PUSH1 0x40 MSTORE PUSH0 PUSH1 0x38 PUSH0 PUSH2 0x100 EXP DUP2 SLOAD DUP2 PUSH1 0xFF MUL NOT AND SWAP1 DUP4 ISZERO ISZERO MUL OR SWAP1 SSTORE POP PUSH0 PUSH1 0xAC PUSH0 PUSH2 0x100 EXP DUP2 SLOAD DUP2 PUSH1 0xFF MUL NOT AND SWAP1 DUP4 PUSH1 0xFF AND MUL OR SWAP1 SSTORE POP CALLVALUE DUP1 ISZERO PUSH2 0x42 JUMPI PUSH0 DUP1 REVERT JUMPDEST POP PUSH1 0x40 MLOAD PUSH2 0x9907 CODESIZE SUB DUP1 PUSH2 0x9907 DUP4 CODECOPY DUP2 DUP2 ADD PUSH1 0x40 MSTORE DUP2 ADD SWAP1 PUSH2 0x64 SWAP2 SWAP1 PUSH2 0x32D JUMP JUMPDEST DUP2 PUSH0 DUP1 PUSH2 0x100 EXP DUP2 SLOAD DUP2 PUSH20 0xFFFFFFFFFFFFFFFFFFFFFFFFFFFFFFFFFFFFFFFF MUL NOT AND SWAP1 DUP4 PUSH20 0xFFFFFFFFFFFFFFFFFFFFFFFFFFFFFFFFFFFFFFFF AND MUL OR SWAP1 SSTORE POP TIMESTAMP PUSH1 0x80 DUP2 DUP2 MSTORE POP POP PUSH1 0x1 PUSH3 0x127500 PUSH1 0x80 MLOAD PUSH2 0xBE SWAP2 SWAP1 PUSH2 0x3BD JUMP JUMPDEST PUSH2 0xC8 SWAP2 SWAP1 PUSH2 0x3BD JUMP JUMPDEST PUSH1 0x1 DUP2 SWAP1 SSTORE POP PUSH0 PUSH1 0x3A PUSH1 0x1 DUP2 PUSH1 0x1 DUP2 SLOAD ADD DUP1 DUP3 SSTORE DUP1 SWAP2 POP POP SUB SWAP1 PUSH0 MSTORE PUSH1 0x20 PUSH0 KECCAK256 SWAP1 PUSH1 0x7 MUL ADD SWAP1 POP CALLER DUP2 PUSH0 ADD PUSH0 PUSH2 0x100 EXP DUP2 SLOAD DUP2 PUSH20 0xFFFFFFFFFFFFFFFFFFFFFFFFFFFFFFFFFFFFFFFF MUL NOT AND SWAP1 DUP4 PUSH20 0xFFFFFFFFFFFFFFFFFFFFFFFFFFFFFFFFFFFFFFFF AND MUL OR SWAP1 SSTORE POP DUP2 DUP2 PUSH1 0x1 ADD SWAP1 DUP2 PUSH2 0x141 SWAP2 SWAP1 PUSH2 0x5F4 JUMP JUMPDEST POP PUSH1 0x80 MLOAD DUP2 PUSH1 0x2 ADD DUP2 SWAP1 SSTORE POP PUSH1 0x80 MLOAD DUP2 PUSH1 0x3 ADD DUP2 SWAP1 SSTORE POP PUSH0 DUP2 PUSH1 0x4 ADD DUP2 SWAP1 SSTORE POP PUSH1 0x32 DUP2 PUSH1 0x5 ADD PUSH0 PUSH2 0x100 EXP DUP2 SLOAD DUP2 PUSH1 0xFF MUL NOT AND SWAP1 DUP4 PUSH1 0xFF AND MUL OR SWAP1 SSTORE POP POP POP POP PUSH2 0x6C3 JUMP JUMPDEST PUSH0 PUSH1 0x40 MLOAD SWAP1 POP SWAP1 JUMP JUMPDEST PUSH0 DUP1 REVERT JUMPDEST PUSH0 DUP1 REVERT JUMPDEST PUSH0 PUSH20 0xFFFFFFFFFFFFFFFFFFFFFFFFFFFFFFFFFFFFFFFF DUP3 AND SWAP1 POP SWAP2 SWAP1 POP JUMP JUMPDEST PUSH0 PUSH2 0x1C0 DUP3 PUSH2 0x197 JUMP JUMPDEST SWAP1 POP SWAP2 SWAP1 POP JUMP JUMPDEST PUSH2 0x1D0 DUP2 PUSH2 0x1B6 JUMP JUMPDEST DUP2 EQ PUSH2 0x1DA JUMPI PUSH0 DUP1 REVERT JUMPDEST POP JUMP JUMPDEST PUSH0 DUP2 MLOAD SWAP1 POP PUSH2 0x1EB DUP2 PUSH2 0x1C7 JUMP JUMPDEST SWAP3 SWAP2 POP POP JUMP JUMPDEST PUSH0 DUP1 REVERT JUMPDEST PUSH0 DUP1 REVERT JUMPDEST PUSH0 PUSH1 0x1F NOT PUSH1 0x1F DUP4 ADD AND SWAP1 POP SWAP2 SWAP1 POP JUMP JUMPDEST PUSH32 0x4E487B7100000000000000000000000000000000000000000000000000000000 PUSH0 MSTORE PUSH1 0x41 PUSH1 0x4 MSTORE PUSH1 0x24 PUSH0 REVERT JUMPDEST PUSH2 0x23F DUP3 PUSH2 0x1F9 JUMP JUMPDEST DUP2 ADD DUP2 DUP2 LT PUSH8 0xFFFFFFFFFFFFFFFF DUP3 GT OR ISZERO PUSH2 0x25E JUMPI PUSH2 0x25D PUSH2 0x209 JUMP JUMPDEST JUMPDEST DUP1 PUSH1 0x40 MSTORE POP POP POP JUMP JUMPDEST PUSH0 PUSH2 0x270 PUSH2 0x186 JUMP JUMPDEST SWAP1 POP PUSH2 0x27C DUP3 DUP3 PUSH2 0x236 JUMP JUMPDEST SWAP2 SWAP1 POP JUMP JUMPDEST PUSH0 PUSH8 0xFFFFFFFFFFFFFFFF DUP3 GT ISZERO PUSH2 0x29B JUMPI PUSH2 0x29A PUSH2 0x209 JUMP JUMPDEST JUMPDEST PUSH2 0x2A4 DUP3 PUSH2 0x1F9 JUMP JUMPDEST SWAP1 POP PUSH1 0x20 DUP2 ADD SWAP1 POP SWAP2 SWAP1 POP JUMP JUMPDEST DUP3 DUP2 DUP4 MCOPY PUSH0 DUP4 DUP4 ADD MSTORE POP POP POP JUMP JUMPDEST PUSH0 PUSH2 0x2D1 PUSH2 0x2CC DUP5 PUSH2 0x281 JUMP JUMPDEST PUSH2 0x267 JUMP JUMPDEST SWAP1 POP DUP3 DUP2 MSTORE PUSH1 0x20 DUP2 ADD DUP5 DUP5 DUP5 ADD GT ISZERO PUSH2 0x2ED JUMPI PUSH2 0x2EC PUSH2 0x1F5 JUMP JUMPDEST JUMPDEST PUSH2 0x2F8 DUP5 DUP3 DUP6 PUSH2 0x2B1 JUMP JUMPDEST POP SWAP4 SWAP3 POP POP POP JUMP JUMPDEST PUSH0 DUP3 PUSH1 0x1F DUP4 ADD SLT PUSH2 0x314 JUMPI PUSH2 0x313 PUSH2 0x1F1 JUMP JUMPDEST JUMPDEST DUP2 MLOAD PUSH2 0x324 DUP5 DUP3 PUSH1 0x20 DUP7 ADD PUSH2 0x2BF JUMP JUMPDEST SWAP2 POP POP SWAP3 SWAP2 POP POP JUMP JUMPDEST PUSH0 DUP1 PUSH1 0x40 DUP4 DUP6 SUB SLT ISZERO PUSH2 0x343 JUMPI PUSH2 0x342 PUSH2 0x18F JUMP JUMPDEST JUMPDEST PUSH0 PUSH2 0x350 DUP6 DUP3 DUP7 ADD PUSH2 0x1DD JUMP JUMPDEST SWAP3 POP POP PUSH1 0x20 DUP4 ADD MLOAD PUSH8 0xFFFFFFFFFFFFFFFF DUP2 GT ISZERO PUSH2 0x371 JUMPI PUSH2 0x370 PUSH2 0x193 JUMP JUMPDEST JUMPDEST PUSH2 0x37D DUP6 DUP3 DUP7 ADD PUSH2 0x300 JUMP JUMPDEST SWAP2 POP POP SWAP3 POP SWAP3 SWAP1 POP JUMP JUMPDEST PUSH0 DUP2 SWAP1 POP SWAP2 SWAP1 POP JUMP JUMPDEST PUSH32 0x4E487B7100000000000000000000000000000000000000000000000000000000 PUSH0 MSTORE PUSH1 0x11 PUSH1 0x4 MSTORE PUSH1 0x24 PUSH0 REVERT JUMPDEST PUSH0 PUSH2 0x3C7 DUP3 PUSH2 0x387 JUMP JUMPDEST SWAP2 POP PUSH2 0x3D2 DUP4 PUSH2 0x387 JUMP JUMPDEST SWAP3 POP DUP3 DUP3 ADD SWAP1 POP DUP1 DUP3 GT ISZERO PUSH2 0x3EA JUMPI PUSH2 0x3E9 PUSH2 0x390 JUMP JUMPDEST JUMPDEST SWAP3 SWAP2 POP POP JUMP JUMPDEST PUSH0 DUP2 MLOAD SWAP1 POP SWAP2 SWAP1 POP JUMP JUMPDEST PUSH32 0x4E487B7100000000000000000000000000000000000000000000000000000000 PUSH0 MSTORE PUSH1 0x22 PUSH1 0x4 MSTORE PUSH1 0x24 PUSH0 REVERT JUMPDEST PUSH0 PUSH1 0x2 DUP3 DIV SWAP1 POP PUSH1 0x1 DUP3 AND DUP1 PUSH2 0x43E JUMPI PUSH1 0x7F DUP3 AND SWAP2 POP JUMPDEST PUSH1 0x20 DUP3 LT DUP2 SUB PUSH2 0x451 JUMPI PUSH2 0x450 PUSH2 0x3FA JUMP JUMPDEST JUMPDEST POP SWAP2 SWAP1 POP JUMP JUMPDEST PUSH0 DUP2 SWAP1 POP DUP2 PUSH0 MSTORE PUSH1 0x20 PUSH0 KECCAK256 SWAP1 POP SWAP2 SWAP1 POP JUMP JUMPDEST PUSH0 PUSH1 0x20 PUSH1 0x1F DUP4 ADD DIV SWAP1 POP SWAP2 SWAP1 POP JUMP JUMPDEST PUSH0 DUP3 DUP3 SHL SWAP1 POP SWAP3 SWAP2 POP POP JUMP JUMPDEST PUSH0 PUSH1 0x8 DUP4 MUL PUSH2 0x4B3 PUSH32 0xFFFFFFFFFFFFFFFFFFFFFFFFFFFFFFFFFFFFFFFFFFFFFFFFFFFFFFFFFFFFFFFF DUP3 PUSH2 0x478 JUMP JUMPDEST PUSH2 0x4BD DUP7 DUP4 PUSH2 0x478 JUMP JUMPDEST SWAP6 POP DUP1 NOT DUP5 AND SWAP4 POP DUP1 DUP7 AND DUP5 OR SWAP3 POP POP POP SWAP4 SWAP3 POP POP POP JUMP JUMPDEST PUSH0 DUP2 SWAP1 POP SWAP2 SWAP1 POP JUMP JUMPDEST PUSH0 PUSH2 0x4F8 PUSH2 0x4F3 PUSH2 0x4EE DUP5 PUSH2 0x387 JUMP JUMPDEST PUSH2 0x4D5 JUMP JUMPDEST PUSH2 0x387 JUMP JUMPDEST SWAP1 POP SWAP2 SWAP1 POP JUMP JUMPDEST PUSH0 DUP2 SWAP1 POP SWAP2 SWAP1 POP JUMP JUMPDEST PUSH2 0x511 DUP4 PUSH2 0x4DE JUMP JUMPDEST PUSH2 0x525 PUSH2 0x51D DUP3 PUSH2 0x4FF JUMP JUMPDEST DUP5 DUP5 SLOAD PUSH2 0x484 JUMP JUMPDEST DUP3 SSTORE POP POP POP POP JUMP JUMPDEST PUSH0 SWAP1 JUMP JUMPDEST PUSH2 0x539 PUSH2 0x52D JUMP JUMPDEST PUSH2 0x544 DUP2 DUP5 DUP5 PUSH2 0x508 JUMP JUMPDEST POP POP POP JUMP JUMPDEST JUMPDEST DUP2 DUP2 LT ISZERO PUSH2 0x567 JUMPI PUSH2 0x55C PUSH0 DUP3 PUSH2 0x531 JUMP JUMPDEST PUSH1 0x1 DUP2 ADD SWAP1 POP PUSH2 0x54A JUMP JUMPDEST POP POP JUMP JUMPDEST PUSH1 0x1F DUP3 GT ISZERO PUSH2 0x5AC JUMPI PUSH2 0x57D DUP2 PUSH2 0x457 JUMP JUMPDEST PUSH2 0x586 DUP5 PUSH2 0x469 JUMP JUMPDEST DUP2 ADD PUSH1 0x20 DUP6 LT ISZERO PUSH2 0x595 JUMPI DUP2 SWAP1 POP JUMPDEST PUSH2 0x5A9 PUSH2 0x5A1 DUP6 PUSH2 0x469 JUMP JUMPDEST DUP4 ADD DUP3 PUSH2 0x549 JUMP JUMPDEST POP POP JUMPDEST POP POP POP JUMP JUMPDEST PUSH0 DUP3 DUP3 SHR SWAP1 POP SWAP3 SWAP2 POP POP JUMP JUMPDEST PUSH0 PUSH2 0x5CC PUSH0 NOT DUP5 PUSH1 0x8 MUL PUSH2 0x5B1 JUMP JUMPDEST NOT DUP1 DUP4 AND SWAP2 POP POP SWAP3 SWAP2 POP POP JUMP JUMPDEST PUSH0 PUSH2 0x5E4 DUP4 DUP4 PUSH2 0x5BD JUMP JUMPDEST SWAP2 POP DUP3 PUSH1 0x2 MUL DUP3 OR SWAP1 POP SWAP3 SWAP2 POP POP JUMP JUMPDEST PUSH2 0x5FD DUP3 PUSH2 0x3F0 JUMP JUMPDEST PUSH8 0xFFFFFFFFFFFFFFFF DUP2 GT ISZERO PUSH2 0x616 JUMPI PUSH2 0x615 PUSH2 0x209 JUMP JUMPDEST JUMPDEST PUSH2 0x620 DUP3 SLOAD PUSH2 0x427 JUMP JUMPDEST PUSH2 0x62B DUP3 DUP3 DUP6 PUSH2 0x56B JUMP JUMPDEST PUSH0 PUSH1 0x20 SWAP1 POP PUSH1 0x1F DUP4 GT PUSH1 0x1 DUP2 EQ PUSH2 0x65C JUMPI PUSH0 DUP5 ISZERO PUSH2 0x64A JUMPI DUP3 DUP8 ADD MLOAD SWAP1 POP JUMPDEST PUSH2 0x654 DUP6 DUP3 PUSH2 0x5D9 JUMP JUMPDEST DUP7 SSTORE POP PUSH2 0x6BB JUMP JUMPDEST PUSH1 0x1F NOT DUP5 AND PUSH2 0x66A DUP7 PUSH2 0x457 JUMP JUMPDEST PUSH0 JUMPDEST DUP3 DUP2 LT ISZERO PUSH2 0x691 JUMPI DUP5 DUP10 ADD MLOAD DUP3 SSTORE PUSH1 0x1 DUP3 ADD SWAP2 POP PUSH1 0x20 DUP6 ADD SWAP5 POP PUSH1 0x20 DUP2 ADD SWAP1 POP PUSH2 0x66C JUMP JUMPDEST DUP7 DUP4 LT ISZERO PUSH2 0x6AE JUMPI DUP5 DUP10 ADD MLOAD PUSH2 0x6AA PUSH1 0x1F DUP10 AND DUP3 PUSH2 0x5BD JUMP JUMPDEST DUP4 SSTORE POP JUMPDEST PUSH1 0x1 PUSH1 0x2 DUP9 MUL ADD DUP9 SSTORE POP POP POP JUMPDEST POP POP POP POP POP POP JUMP JUMPDEST PUSH1 0x80 MLOAD PUSH2 0x922C PUSH2 0x6DB PUSH0 CODECOPY PUSH0 PUSH2 0x2DB7 ADD MSTORE PUSH2 0x922C PUSH0 RETURN INVALID PUSH1 0x80 PUSH1 0x40 MSTORE PUSH1 0x4 CALLDATASIZE LT PUSH2 0x380 JUMPI PUSH0 CALLDATALOAD PUSH1 0xE0 SHR DUP1 PUSH4 0x8E0CA5AD GT PUSH2 0x1D0 JUMPI DUP1 PUSH4 0xC1B13157 GT PUSH2 0x101 JUMPI DUP1 PUSH4 0xEAB536FC GT PUSH2 0x9F JUMPI DUP1 PUSH4 0xF3A4ABA9 GT PUSH2 0x6E JUMPI DUP1 PUSH4 0xF3A4ABA9 EQ PUSH2 0xD4C JUMPI DUP1 PUSH4 0xF3D82FDE EQ PUSH2 0xD88 JUMPI DUP1 PUSH4 0xF4AB9ADF EQ PUSH2 0xDB2 JUMPI DUP1 PUSH4 0xF9F8BDB7 EQ PUSH2 0xDDA JUMPI PUSH2 0x380 JUMP JUMPDEST DUP1 PUSH4 0xEAB536FC EQ PUSH2 0xC7F JUMPI DUP1 PUSH4 0xECCF1F10 EQ PUSH2 0xCBB JUMPI DUP1 PUSH4 0xEEDB2D28 EQ PUSH2 0xCE5 JUMPI DUP1 PUSH4 0xF33E9573 EQ PUSH2 0xD0F JUMPI PUSH2 0x380 JUMP JUMPDEST DUP1 PUSH4 0xD9688F03 GT PUSH2 0xDB JUMPI DUP1 PUSH4 0xD9688F03 EQ PUSH2 0xBAD JUMPI DUP1 PUSH4 0xDA35C664 EQ PUSH2 0xBE9 JUMPI DUP1 PUSH4 0xE42A54C4 EQ PUSH2 0xC13 JUMPI DUP1 PUSH4 0xE965B7C9 EQ PUSH2 0xC3D JUMPI PUSH2 0x380 JUMP JUMPDEST DUP1 PUSH4 0xC1B13157 EQ PUSH2 0xB31 JUMPI DUP1 PUSH4 0xCAA1D811 EQ PUSH2 0xB59 JUMPI DUP1 PUSH4 0xCE7EA161 EQ PUSH2 0xB83 JUMPI PUSH2 0x380 JUMP JUMPDEST DUP1 PUSH4 0xA6A5AD12 GT PUSH2 0x16E JUMPI DUP1 PUSH4 0xB5BA9795 GT PUSH2 0x148 JUMPI DUP1 PUSH4 0xB5BA9795 EQ PUSH2 0xA9F JUMPI DUP1 PUSH4 0xB85C2292 EQ PUSH2 0xAC9 JUMPI DUP1 PUSH4 0xBDC8E7B3 EQ PUSH2 0xAF3 JUMPI DUP1 PUSH4 0xBE003EE6 EQ PUSH2 0xB1B JUMPI PUSH2 0x380 JUMP JUMPDEST DUP1 PUSH4 0xA6A5AD12 EQ PUSH2 0xA11 JUMPI DUP1 PUSH4 0xB0FEB260 EQ PUSH2 0xA39 JUMPI DUP1 PUSH4 0xB13C744B EQ PUSH2 0xA63 JUMPI PUSH2 0x380 JUMP JUMPDEST DUP1 PUSH4 0x99B0D39C GT PUSH2 0x1AA JUMPI DUP1 PUSH4 0x99B0D39C EQ PUSH2 0x96C JUMPI DUP1 PUSH4 0x9DC99455 EQ PUSH2 0x994 JUMPI DUP1 PUSH4 0xA3A40EA5 EQ PUSH2 0x9D1 JUMPI DUP1 PUSH4 0xA5F5B1BF EQ PUSH2 0x9FB JUMPI PUSH2 0x380 JUMP JUMPDEST DUP1 PUSH4 0x8E0CA5AD EQ PUSH2 0x8FC JUMPI DUP1 PUSH4 0x8F3218DF EQ PUSH2 0x938 JUMPI DUP1 PUSH4 0x97DFFC61 EQ PUSH2 0x962 JUMPI PUSH2 0x380 JUMP JUMPDEST DUP1 PUSH4 0x4C1342DF GT PUSH2 0x2B5 JUMPI DUP1 PUSH4 0x64B4F751 GT PUSH2 0x253 JUMPI DUP1 PUSH4 0x78E3EF20 GT PUSH2 0x222 JUMPI DUP1 PUSH4 0x78E3EF20 EQ PUSH2 0x842 JUMPI DUP1 PUSH4 0x78E97925 EQ PUSH2 0x87E JUMPI DUP1 PUSH4 0x7D48536D EQ PUSH2 0x8A8 JUMPI DUP1 PUSH4 0x7DA4CE83 EQ PUSH2 0x8D2 JUMPI PUSH2 0x380 JUMP JUMPDEST DUP1 PUSH4 0x64B4F751 EQ PUSH2 0x775 JUMPI DUP1 PUSH4 0x69B5C8F9 EQ PUSH2 0x79F JUMPI DUP1 PUSH4 0x6BECC9F3 EQ PUSH2 0x7C9 JUMPI DUP1 PUSH4 0x70F67CFE EQ PUSH2 0x806 JUMPI PUSH2 0x380 JUMP JUMPDEST DUP1 PUSH4 0x59297DBF GT PUSH2 0x28F JUMPI DUP1 PUSH4 0x59297DBF EQ PUSH2 0x6B7 JUMPI DUP1 PUSH4 0x5BD03E9D EQ PUSH2 0x6E1 JUMPI DUP1 PUSH4 0x5E8523A9 EQ PUSH2 0x71D JUMPI DUP1 PUSH4 0x5F02B56D EQ PUSH2 0x759 JUMPI PUSH2 0x380 JUMP JUMPDEST DUP1 PUSH4 0x4C1342DF EQ PUSH2 0x629 JUMPI DUP1 PUSH4 0x52F61B05 EQ PUSH2 0x653 JUMPI DUP1 PUSH4 0x58E1CBEE EQ PUSH2 0x68F JUMPI PUSH2 0x380 JUMP JUMPDEST DUP1 PUSH4 0x2190BEE8 GT PUSH2 0x322 JUMPI DUP1 PUSH4 0x3DEF77B7 GT PUSH2 0x2FC JUMPI DUP1 PUSH4 0x3DEF77B7 EQ PUSH2 0x567 JUMPI DUP1 PUSH4 0x428027AC EQ PUSH2 0x591 JUMPI DUP1 PUSH4 0x452D32BB EQ PUSH2 0x5D4 JUMPI DUP1 PUSH4 0x485BE9CF EQ PUSH2 0x5FF JUMPI PUSH2 0x380 JUMP JUMPDEST DUP1 PUSH4 0x2190BEE8 EQ PUSH2 0x4C0 JUMPI DUP1 PUSH4 0x247D0818 EQ PUSH2 0x4FC JUMPI DUP1 PUSH4 0x28BDCDE8 EQ PUSH2 0x526 JUMPI PUSH2 0x380 JUMP JUMPDEST DUP1 PUSH4 0x89E35B8 GT PUSH2 0x35E JUMPI DUP1 PUSH4 0x89E35B8 EQ PUSH2 0x3F4 JUMPI DUP1 PUSH4 0x8EC6A19 EQ PUSH2 0x41E JUMPI DUP1 PUSH4 0x16392372 EQ PUSH2 0x45A JUMPI DUP1 PUSH4 0x198CCD2C EQ PUSH2 0x484 JUMPI PUSH2 0x380 JUMP JUMPDEST DUP1 PUSH4 0x33ACF47 EQ PUSH2 0x384 JUMPI DUP1 PUSH4 0x6736946 EQ PUSH2 0x3AE JUMPI DUP1 PUSH4 0x79DDD11 EQ PUSH2 0x3D8 JUMPI JUMPDEST PUSH0 DUP1 REVERT JUMPDEST CALLVALUE DUP1 ISZERO PUSH2 0x38F JUMPI PUSH0 DUP1 REVERT JUMPDEST POP PUSH2 0x398 PUSH2 0xE04 JUMP JUMPDEST PUSH1 0x40 MLOAD PUSH2 0x3A5 SWAP2 SWAP1 PUSH2 0x5CFD JUMP JUMPDEST PUSH1 0x40 MLOAD DUP1 SWAP2 SUB SWAP1 RETURN JUMPDEST CALLVALUE DUP1 ISZERO PUSH2 0x3B9 JUMPI PUSH0 DUP1 REVERT JUMPDEST POP PUSH2 0x3C2 PUSH2 0xE09 JUMP JUMPDEST PUSH1 0x40 MLOAD PUSH2 0x3CF SWAP2 SWAP1 PUSH2 0x5D34 JUMP JUMPDEST PUSH1 0x40 MLOAD DUP1 SWAP2 SUB SWAP1 RETURN JUMPDEST PUSH2 0x3F2 PUSH1 0x4 DUP1 CALLDATASIZE SUB DUP2 ADD SWAP1 PUSH2 0x3ED SWAP2 SWAP1 PUSH2 0x5E9A JUMP JUMPDEST PUSH2 0xE0F JUMP JUMPDEST STOP JUMPDEST CALLVALUE DUP1 ISZERO PUSH2 0x3FF JUMPI PUSH0 DUP1 REVERT JUMPDEST POP PUSH2 0x408 PUSH2 0x1253 JUMP JUMPDEST PUSH1 0x40 MLOAD PUSH2 0x415 SWAP2 SWAP1 PUSH2 0x5F58 JUMP JUMPDEST PUSH1 0x40 MLOAD DUP1 SWAP2 SUB SWAP1 RETURN JUMPDEST CALLVALUE DUP1 ISZERO PUSH2 0x429 JUMPI PUSH0 DUP1 REVERT JUMPDEST POP PUSH2 0x444 PUSH1 0x4 DUP1 CALLDATASIZE SUB DUP2 ADD SWAP1 PUSH2 0x43F SWAP2 SWAP1 PUSH2 0x5FA4 JUMP JUMPDEST PUSH2 0x1265 JUMP JUMPDEST PUSH1 0x40 MLOAD PUSH2 0x451 SWAP2 SWAP1 PUSH2 0x60A4 JUMP JUMPDEST PUSH1 0x40 MLOAD DUP1 SWAP2 SUB SWAP1 RETURN JUMPDEST CALLVALUE DUP1 ISZERO PUSH2 0x465 JUMPI PUSH0 DUP1 REVERT JUMPDEST POP PUSH2 0x46E PUSH2 0x12F6 JUMP JUMPDEST PUSH1 0x40 MLOAD PUSH2 0x47B SWAP2 SWAP1 PUSH2 0x60D5 JUMP JUMPDEST PUSH1 0x40 MLOAD DUP1 SWAP2 SUB SWAP1 RETURN JUMPDEST CALLVALUE DUP1 ISZERO PUSH2 0x48F JUMPI PUSH0 DUP1 REVERT JUMPDEST POP PUSH2 0x4AA PUSH1 0x4 DUP1 CALLDATASIZE SUB DUP2 ADD SWAP1 PUSH2 0x4A5 SWAP2 SWAP1 PUSH2 0x6118 JUMP JUMPDEST PUSH2 0x12FC JUMP JUMPDEST PUSH1 0x40 MLOAD PUSH2 0x4B7 SWAP2 SWAP1 PUSH2 0x60D5 JUMP JUMPDEST PUSH1 0x40 MLOAD DUP1 SWAP2 SUB SWAP1 RETURN JUMPDEST CALLVALUE DUP1 ISZERO PUSH2 0x4CB JUMPI PUSH0 DUP1 REVERT JUMPDEST POP PUSH2 0x4E6 PUSH1 0x4 DUP1 CALLDATASIZE SUB DUP2 ADD SWAP1 PUSH2 0x4E1 SWAP2 SWAP1 PUSH2 0x616D JUMP JUMPDEST PUSH2 0x1311 JUMP JUMPDEST PUSH1 0x40 MLOAD PUSH2 0x4F3 SWAP2 SWAP1 PUSH2 0x60D5 JUMP JUMPDEST PUSH1 0x40 MLOAD DUP1 SWAP2 SUB SWAP1 RETURN JUMPDEST CALLVALUE DUP1 ISZERO PUSH2 0x507 JUMPI PUSH0 DUP1 REVERT JUMPDEST POP PUSH2 0x510 PUSH2 0x1331 JUMP JUMPDEST PUSH1 0x40 MLOAD PUSH2 0x51D SWAP2 SWAP1 PUSH2 0x60D5 JUMP JUMPDEST PUSH1 0x40 MLOAD DUP1 SWAP2 SUB SWAP1 RETURN JUMPDEST CALLVALUE DUP1 ISZERO PUSH2 0x531 JUMPI PUSH0 DUP1 REVERT JUMPDEST POP PUSH2 0x54C PUSH1 0x4 DUP1 CALLDATASIZE SUB DUP2 ADD SWAP1 PUSH2 0x547 SWAP2 SWAP1 PUSH2 0x61AB JUMP JUMPDEST PUSH2 0x1338 JUMP JUMPDEST PUSH1 0x40 MLOAD PUSH2 0x55E SWAP7 SWAP6 SWAP5 SWAP4 SWAP3 SWAP2 SWAP1 PUSH2 0x6245 JUMP JUMPDEST PUSH1 0x40 MLOAD DUP1 SWAP2 SUB SWAP1 RETURN JUMPDEST CALLVALUE DUP1 ISZERO PUSH2 0x572 JUMPI PUSH0 DUP1 REVERT JUMPDEST POP PUSH2 0x57B PUSH2 0x1430 JUMP JUMPDEST PUSH1 0x40 MLOAD PUSH2 0x588 SWAP2 SWAP1 PUSH2 0x5D34 JUMP JUMPDEST PUSH1 0x40 MLOAD DUP1 SWAP2 SUB SWAP1 RETURN JUMPDEST CALLVALUE DUP1 ISZERO PUSH2 0x59C JUMPI PUSH0 DUP1 REVERT JUMPDEST POP PUSH2 0x5B7 PUSH1 0x4 DUP1 CALLDATASIZE SUB DUP2 ADD SWAP1 PUSH2 0x5B2 SWAP2 SWAP1 PUSH2 0x61AB JUMP JUMPDEST PUSH2 0x1436 JUMP JUMPDEST PUSH1 0x40 MLOAD PUSH2 0x5CB SWAP9 SWAP8 SWAP7 SWAP6 SWAP5 SWAP4 SWAP3 SWAP2 SWAP1 PUSH2 0x62BA JUMP JUMPDEST PUSH1 0x40 MLOAD DUP1 SWAP2 SUB SWAP1 RETURN JUMPDEST CALLVALUE DUP1 ISZERO PUSH2 0x5DF JUMPI PUSH0 DUP1 REVERT JUMPDEST POP PUSH2 0x5E8 PUSH2 0x1727 JUMP JUMPDEST PUSH1 0x40 MLOAD PUSH2 0x5F6 SWAP3 SWAP2 SWAP1 PUSH2 0x6488 JUMP JUMPDEST PUSH1 0x40 MLOAD DUP1 SWAP2 SUB SWAP1 RETURN JUMPDEST CALLVALUE DUP1 ISZERO PUSH2 0x60A JUMPI PUSH0 DUP1 REVERT JUMPDEST POP PUSH2 0x613 PUSH2 0x1B82 JUMP JUMPDEST PUSH1 0x40 MLOAD PUSH2 0x620 SWAP2 SWAP1 PUSH2 0x60D5 JUMP JUMPDEST PUSH1 0x40 MLOAD DUP1 SWAP2 SUB SWAP1 RETURN JUMPDEST CALLVALUE DUP1 ISZERO PUSH2 0x634 JUMPI PUSH0 DUP1 REVERT JUMPDEST POP PUSH2 0x63D PUSH2 0x1B89 JUMP JUMPDEST PUSH1 0x40 MLOAD PUSH2 0x64A SWAP2 SWAP1 PUSH2 0x60D5 JUMP JUMPDEST PUSH1 0x40 MLOAD DUP1 SWAP2 SUB SWAP1 RETURN JUMPDEST CALLVALUE DUP1 ISZERO PUSH2 0x65E JUMPI PUSH0 DUP1 REVERT JUMPDEST POP PUSH2 0x679 PUSH1 0x4 DUP1 CALLDATASIZE SUB DUP2 ADD SWAP1 PUSH2 0x674 SWAP2 SWAP1 PUSH2 0x61AB JUMP JUMPDEST PUSH2 0x1B90 JUMP JUMPDEST PUSH1 0x40 MLOAD PUSH2 0x686 SWAP2 SWAP1 PUSH2 0x666D JUMP JUMPDEST PUSH1 0x40 MLOAD DUP1 SWAP2 SUB SWAP1 RETURN JUMPDEST CALLVALUE DUP1 ISZERO PUSH2 0x69A JUMPI PUSH0 DUP1 REVERT JUMPDEST POP PUSH2 0x6B5 PUSH1 0x4 DUP1 CALLDATASIZE SUB DUP2 ADD SWAP1 PUSH2 0x6B0 SWAP2 SWAP1 PUSH2 0x61AB JUMP JUMPDEST PUSH2 0x1E79 JUMP JUMPDEST STOP JUMPDEST CALLVALUE DUP1 ISZERO PUSH2 0x6C2 JUMPI PUSH0 DUP1 REVERT JUMPDEST POP PUSH2 0x6CB PUSH2 0x207B JUMP JUMPDEST PUSH1 0x40 MLOAD PUSH2 0x6D8 SWAP2 SWAP1 PUSH2 0x60D5 JUMP JUMPDEST PUSH1 0x40 MLOAD DUP1 SWAP2 SUB SWAP1 RETURN JUMPDEST CALLVALUE DUP1 ISZERO PUSH2 0x6EC JUMPI PUSH0 DUP1 REVERT JUMPDEST POP PUSH2 0x707 PUSH1 0x4 DUP1 CALLDATASIZE SUB DUP2 ADD SWAP1 PUSH2 0x702 SWAP2 SWAP1 PUSH2 0x61AB JUMP JUMPDEST PUSH2 0x2082 JUMP JUMPDEST PUSH1 0x40 MLOAD PUSH2 0x714 SWAP2 SWAP1 PUSH2 0x5CFD JUMP JUMPDEST PUSH1 0x40 MLOAD DUP1 SWAP2 SUB SWAP1 RETURN JUMPDEST CALLVALUE DUP1 ISZERO PUSH2 0x728 JUMPI PUSH0 DUP1 REVERT JUMPDEST POP PUSH2 0x743 PUSH1 0x4 DUP1 CALLDATASIZE SUB DUP2 ADD SWAP1 PUSH2 0x73E SWAP2 SWAP1 PUSH2 0x673F JUMP JUMPDEST PUSH2 0x2407 JUMP JUMPDEST PUSH1 0x40 MLOAD PUSH2 0x750 SWAP2 SWAP1 PUSH2 0x60D5 JUMP JUMPDEST PUSH1 0x40 MLOAD DUP1 SWAP2 SUB SWAP1 RETURN JUMPDEST PUSH2 0x773 PUSH1 0x4 DUP1 CALLDATASIZE SUB DUP2 ADD SWAP1 PUSH2 0x76E SWAP2 SWAP1 PUSH2 0x6918 JUMP JUMPDEST PUSH2 0x2720 JUMP JUMPDEST STOP JUMPDEST CALLVALUE DUP1 ISZERO PUSH2 0x780 JUMPI PUSH0 DUP1 REVERT JUMPDEST POP PUSH2 0x789 PUSH2 0x2A47 JUMP JUMPDEST PUSH1 0x40 MLOAD PUSH2 0x796 SWAP2 SWAP1 PUSH2 0x60D5 JUMP JUMPDEST PUSH1 0x40 MLOAD DUP1 SWAP2 SUB SWAP1 RETURN JUMPDEST CALLVALUE DUP1 ISZERO PUSH2 0x7AA JUMPI PUSH0 DUP1 REVERT JUMPDEST POP PUSH2 0x7B3 PUSH2 0x2A52 JUMP JUMPDEST PUSH1 0x40 MLOAD PUSH2 0x7C0 SWAP2 SWAP1 PUSH2 0x695F JUMP JUMPDEST PUSH1 0x40 MLOAD DUP1 SWAP2 SUB SWAP1 RETURN JUMPDEST CALLVALUE DUP1 ISZERO PUSH2 0x7D4 JUMPI PUSH0 DUP1 REVERT JUMPDEST POP PUSH2 0x7EF PUSH1 0x4 DUP1 CALLDATASIZE SUB DUP2 ADD SWAP1 PUSH2 0x7EA SWAP2 SWAP1 PUSH2 0x616D JUMP JUMPDEST PUSH2 0x2A75 JUMP JUMPDEST PUSH1 0x40 MLOAD PUSH2 0x7FD SWAP3 SWAP2 SWAP1 PUSH2 0x6990 JUMP JUMPDEST PUSH1 0x40 MLOAD DUP1 SWAP2 SUB SWAP1 RETURN JUMPDEST CALLVALUE DUP1 ISZERO PUSH2 0x811 JUMPI PUSH0 DUP1 REVERT JUMPDEST POP PUSH2 0x82C PUSH1 0x4 DUP1 CALLDATASIZE SUB DUP2 ADD SWAP1 PUSH2 0x827 SWAP2 SWAP1 PUSH2 0x61AB JUMP JUMPDEST PUSH2 0x2AAF JUMP JUMPDEST PUSH1 0x40 MLOAD PUSH2 0x839 SWAP2 SWAP1 PUSH2 0x6A6D JUMP JUMPDEST PUSH1 0x40 MLOAD DUP1 SWAP2 SUB SWAP1 RETURN JUMPDEST CALLVALUE DUP1 ISZERO PUSH2 0x84D JUMPI PUSH0 DUP1 REVERT JUMPDEST POP PUSH2 0x868 PUSH1 0x4 DUP1 CALLDATASIZE SUB DUP2 ADD SWAP1 PUSH2 0x863 SWAP2 SWAP1 PUSH2 0x6118 JUMP JUMPDEST PUSH2 0x2D6F JUMP JUMPDEST PUSH1 0x40 MLOAD PUSH2 0x875 SWAP2 SWAP1 PUSH2 0x60D5 JUMP JUMPDEST PUSH1 0x40 MLOAD DUP1 SWAP2 SUB SWAP1 RETURN JUMPDEST CALLVALUE DUP1 ISZERO PUSH2 0x889 JUMPI PUSH0 DUP1 REVERT JUMPDEST POP PUSH2 0x892 PUSH2 0x2DB5 JUMP JUMPDEST PUSH1 0x40 MLOAD PUSH2 0x89F SWAP2 SWAP1 PUSH2 0x60D5 JUMP JUMPDEST PUSH1 0x40 MLOAD DUP1 SWAP2 SUB SWAP1 RETURN JUMPDEST CALLVALUE DUP1 ISZERO PUSH2 0x8B3 JUMPI PUSH0 DUP1 REVERT JUMPDEST POP PUSH2 0x8BC PUSH2 0x2DD9 JUMP JUMPDEST PUSH1 0x40 MLOAD PUSH2 0x8C9 SWAP2 SWAP1 PUSH2 0x60D5 JUMP JUMPDEST PUSH1 0x40 MLOAD DUP1 SWAP2 SUB SWAP1 RETURN JUMPDEST CALLVALUE DUP1 ISZERO PUSH2 0x8DD JUMPI PUSH0 DUP1 REVERT JUMPDEST POP PUSH2 0x8E6 PUSH2 0x2DE4 JUMP JUMPDEST PUSH1 0x40 MLOAD PUSH2 0x8F3 SWAP2 SWAP1 PUSH2 0x695F JUMP JUMPDEST PUSH1 0x40 MLOAD DUP1 SWAP2 SUB SWAP1 RETURN JUMPDEST CALLVALUE DUP1 ISZERO PUSH2 0x907 JUMPI PUSH0 DUP1 REVERT JUMPDEST POP PUSH2 0x922 PUSH1 0x4 DUP1 CALLDATASIZE SUB DUP2 ADD SWAP1 PUSH2 0x91D SWAP2 SWAP1 PUSH2 0x6118 JUMP JUMPDEST PUSH2 0x2E0A JUMP JUMPDEST PUSH1 0x40 MLOAD PUSH2 0x92F SWAP2 SWAP1 PUSH2 0x60D5 JUMP JUMPDEST PUSH1 0x40 MLOAD DUP1 SWAP2 SUB SWAP1 RETURN JUMPDEST CALLVALUE DUP1 ISZERO PUSH2 0x943 JUMPI PUSH0 DUP1 REVERT JUMPDEST POP PUSH2 0x94C PUSH2 0x2EDC JUMP JUMPDEST PUSH1 0x40 MLOAD PUSH2 0x959 SWAP2 SWAP1 PUSH2 0x5CFD JUMP JUMPDEST PUSH1 0x40 MLOAD DUP1 SWAP2 SUB SWAP1 RETURN JUMPDEST PUSH2 0x96A PUSH2 0x2EEE JUMP JUMPDEST STOP JUMPDEST CALLVALUE DUP1 ISZERO PUSH2 0x977 JUMPI PUSH0 DUP1 REVERT JUMPDEST POP PUSH2 0x992 PUSH1 0x4 DUP1 CALLDATASIZE SUB DUP2 ADD SWAP1 PUSH2 0x98D SWAP2 SWAP1 PUSH2 0x6ACF JUMP JUMPDEST PUSH2 0x2FCF JUMP JUMPDEST STOP JUMPDEST CALLVALUE DUP1 ISZERO PUSH2 0x99F JUMPI PUSH0 DUP1 REVERT JUMPDEST POP PUSH2 0x9BA PUSH1 0x4 DUP1 CALLDATASIZE SUB DUP2 ADD SWAP1 PUSH2 0x9B5 SWAP2 SWAP1 PUSH2 0x61AB JUMP JUMPDEST PUSH2 0x362E JUMP JUMPDEST PUSH1 0x40 MLOAD PUSH2 0x9C8 SWAP3 SWAP2 SWAP1 PUSH2 0x6B0F JUMP JUMPDEST PUSH1 0x40 MLOAD DUP1 SWAP2 SUB SWAP1 RETURN JUMPDEST CALLVALUE DUP1 ISZERO PUSH2 0x9DC JUMPI PUSH0 DUP1 REVERT JUMPDEST POP PUSH2 0x9E5 PUSH2 0x3674 JUMP JUMPDEST PUSH1 0x40 MLOAD PUSH2 0x9F2 SWAP2 SWAP1 PUSH2 0x6BA9 JUMP JUMPDEST PUSH1 0x40 MLOAD DUP1 SWAP2 SUB SWAP1 RETURN JUMPDEST CALLVALUE DUP1 ISZERO PUSH2 0xA06 JUMPI PUSH0 DUP1 REVERT JUMPDEST POP PUSH2 0xA0F PUSH2 0x3736 JUMP JUMPDEST STOP JUMPDEST CALLVALUE DUP1 ISZERO PUSH2 0xA1C JUMPI PUSH0 DUP1 REVERT JUMPDEST POP PUSH2 0xA37 PUSH1 0x4 DUP1 CALLDATASIZE SUB DUP2 ADD SWAP1 PUSH2 0xA32 SWAP2 SWAP1 PUSH2 0x6C17 JUMP JUMPDEST PUSH2 0x3957 JUMP JUMPDEST STOP JUMPDEST CALLVALUE DUP1 ISZERO PUSH2 0xA44 JUMPI PUSH0 DUP1 REVERT JUMPDEST POP PUSH2 0xA4D PUSH2 0x3CFD JUMP JUMPDEST PUSH1 0x40 MLOAD PUSH2 0xA5A SWAP2 SWAP1 PUSH2 0x60D5 JUMP JUMPDEST PUSH1 0x40 MLOAD DUP1 SWAP2 SUB SWAP1 RETURN JUMPDEST CALLVALUE DUP1 ISZERO PUSH2 0xA6E JUMPI PUSH0 DUP1 REVERT JUMPDEST POP PUSH2 0xA89 PUSH1 0x4 DUP1 CALLDATASIZE SUB DUP2 ADD SWAP1 PUSH2 0xA84 SWAP2 SWAP1 PUSH2 0x61AB JUMP JUMPDEST PUSH2 0x3D03 JUMP JUMPDEST PUSH1 0x40 MLOAD PUSH2 0xA96 SWAP2 SWAP1 PUSH2 0x695F JUMP JUMPDEST PUSH1 0x40 MLOAD DUP1 SWAP2 SUB SWAP1 RETURN JUMPDEST CALLVALUE DUP1 ISZERO PUSH2 0xAAA JUMPI PUSH0 DUP1 REVERT JUMPDEST POP PUSH2 0xAB3 PUSH2 0x3D3E JUMP JUMPDEST PUSH1 0x40 MLOAD PUSH2 0xAC0 SWAP2 SWAP1 PUSH2 0x5D34 JUMP JUMPDEST PUSH1 0x40 MLOAD DUP1 SWAP2 SUB SWAP1 RETURN JUMPDEST CALLVALUE DUP1 ISZERO PUSH2 0xAD4 JUMPI PUSH0 DUP1 REVERT JUMPDEST POP PUSH2 0xADD PUSH2 0x3D43 JUMP JUMPDEST PUSH1 0x40 MLOAD PUSH2 0xAEA SWAP2 SWAP1 PUSH2 0x5CFD JUMP JUMPDEST PUSH1 0x40 MLOAD DUP1 SWAP2 SUB SWAP1 RETURN JUMPDEST CALLVALUE DUP1 ISZERO PUSH2 0xAFE JUMPI PUSH0 DUP1 REVERT JUMPDEST POP PUSH2 0xB19 PUSH1 0x4 DUP1 CALLDATASIZE SUB DUP2 ADD SWAP1 PUSH2 0xB14 SWAP2 SWAP1 PUSH2 0x61AB JUMP JUMPDEST PUSH2 0x3D48 JUMP JUMPDEST STOP JUMPDEST CALLVALUE DUP1 ISZERO PUSH2 0xB26 JUMPI PUSH0 DUP1 REVERT JUMPDEST POP PUSH2 0xB2F PUSH2 0x44E0 JUMP JUMPDEST STOP JUMPDEST CALLVALUE DUP1 ISZERO PUSH2 0xB3C JUMPI PUSH0 DUP1 REVERT JUMPDEST POP PUSH2 0xB57 PUSH1 0x4 DUP1 CALLDATASIZE SUB DUP2 ADD SWAP1 PUSH2 0xB52 SWAP2 SWAP1 PUSH2 0x6C17 JUMP JUMPDEST PUSH2 0x4667 JUMP JUMPDEST STOP JUMPDEST CALLVALUE DUP1 ISZERO PUSH2 0xB64 JUMPI PUSH0 DUP1 REVERT JUMPDEST POP PUSH2 0xB6D PUSH2 0x498B JUMP JUMPDEST PUSH1 0x40 MLOAD PUSH2 0xB7A SWAP2 SWAP1 PUSH2 0x5D34 JUMP JUMPDEST PUSH1 0x40 MLOAD DUP1 SWAP2 SUB SWAP1 RETURN JUMPDEST CALLVALUE DUP1 ISZERO PUSH2 0xB8E JUMPI PUSH0 DUP1 REVERT JUMPDEST POP PUSH2 0xB97 PUSH2 0x4992 JUMP JUMPDEST PUSH1 0x40 MLOAD PUSH2 0xBA4 SWAP2 SWAP1 PUSH2 0x60D5 JUMP JUMPDEST PUSH1 0x40 MLOAD DUP1 SWAP2 SUB SWAP1 RETURN JUMPDEST CALLVALUE DUP1 ISZERO PUSH2 0xBB8 JUMPI PUSH0 DUP1 REVERT JUMPDEST POP PUSH2 0xBD3 PUSH1 0x4 DUP1 CALLDATASIZE SUB DUP2 ADD SWAP1 PUSH2 0xBCE SWAP2 SWAP1 PUSH2 0x6C62 JUMP JUMPDEST PUSH2 0x4998 JUMP JUMPDEST PUSH1 0x40 MLOAD PUSH2 0xBE0 SWAP2 SWAP1 PUSH2 0x60D5 JUMP JUMPDEST PUSH1 0x40 MLOAD DUP1 SWAP2 SUB SWAP1 RETURN JUMPDEST CALLVALUE DUP1 ISZERO PUSH2 0xBF4 JUMPI PUSH0 DUP1 REVERT JUMPDEST POP PUSH2 0xBFD PUSH2 0x4AC1 JUMP JUMPDEST PUSH1 0x40 MLOAD PUSH2 0xC0A SWAP2 SWAP1 PUSH2 0x60D5 JUMP JUMPDEST PUSH1 0x40 MLOAD DUP1 SWAP2 SUB SWAP1 RETURN JUMPDEST CALLVALUE DUP1 ISZERO PUSH2 0xC1E JUMPI PUSH0 DUP1 REVERT JUMPDEST POP PUSH2 0xC27 PUSH2 0x4AC7 JUMP JUMPDEST PUSH1 0x40 MLOAD PUSH2 0xC34 SWAP2 SWAP1 PUSH2 0x5D34 JUMP JUMPDEST PUSH1 0x40 MLOAD DUP1 SWAP2 SUB SWAP1 RETURN JUMPDEST CALLVALUE DUP1 ISZERO PUSH2 0xC48 JUMPI PUSH0 DUP1 REVERT JUMPDEST POP PUSH2 0xC63 PUSH1 0x4 DUP1 CALLDATASIZE SUB DUP2 ADD SWAP1 PUSH2 0xC5E SWAP2 SWAP1 PUSH2 0x6118 JUMP JUMPDEST PUSH2 0x4ADC JUMP JUMPDEST PUSH1 0x40 MLOAD PUSH2 0xC76 SWAP8 SWAP7 SWAP6 SWAP5 SWAP4 SWAP3 SWAP2 SWAP1 PUSH2 0x6CA0 JUMP JUMPDEST PUSH1 0x40 MLOAD DUP1 SWAP2 SUB SWAP1 RETURN JUMPDEST CALLVALUE DUP1 ISZERO PUSH2 0xC8A JUMPI PUSH0 DUP1 REVERT JUMPDEST POP PUSH2 0xCA5 PUSH1 0x4 DUP1 CALLDATASIZE SUB DUP2 ADD SWAP1 PUSH2 0xCA0 SWAP2 SWAP1 PUSH2 0x6118 JUMP JUMPDEST PUSH2 0x4CB8 JUMP JUMPDEST PUSH1 0x40 MLOAD PUSH2 0xCB2 SWAP2 SWAP1 PUSH2 0x5CFD JUMP JUMPDEST PUSH1 0x40 MLOAD DUP1 SWAP2 SUB SWAP1 RETURN JUMPDEST CALLVALUE DUP1 ISZERO PUSH2 0xCC6 JUMPI PUSH0 DUP1 REVERT JUMPDEST POP PUSH2 0xCCF PUSH2 0x4CD5 JUMP JUMPDEST PUSH1 0x40 MLOAD PUSH2 0xCDC SWAP2 SWAP1 PUSH2 0x6DA1 JUMP JUMPDEST PUSH1 0x40 MLOAD DUP1 SWAP2 SUB SWAP1 RETURN JUMPDEST CALLVALUE DUP1 ISZERO PUSH2 0xCF0 JUMPI PUSH0 DUP1 REVERT JUMPDEST POP PUSH2 0xCF9 PUSH2 0x533F JUMP JUMPDEST PUSH1 0x40 MLOAD PUSH2 0xD06 SWAP2 SWAP1 PUSH2 0x60D5 JUMP JUMPDEST PUSH1 0x40 MLOAD DUP1 SWAP2 SUB SWAP1 RETURN JUMPDEST CALLVALUE DUP1 ISZERO PUSH2 0xD1A JUMPI PUSH0 DUP1 REVERT JUMPDEST POP PUSH2 0xD35 PUSH1 0x4 DUP1 CALLDATASIZE SUB DUP2 ADD SWAP1 PUSH2 0xD30 SWAP2 SWAP1 PUSH2 0x61AB JUMP JUMPDEST PUSH2 0x5345 JUMP JUMPDEST PUSH1 0x40 MLOAD PUSH2 0xD43 SWAP3 SWAP2 SWAP1 PUSH2 0x6DBB JUMP JUMPDEST PUSH1 0x40 MLOAD DUP1 SWAP2 SUB SWAP1 RETURN JUMPDEST CALLVALUE DUP1 ISZERO PUSH2 0xD57 JUMPI PUSH0 DUP1 REVERT JUMPDEST POP PUSH2 0xD72 PUSH1 0x4 DUP1 CALLDATASIZE SUB DUP2 ADD SWAP1 PUSH2 0xD6D SWAP2 SWAP1 PUSH2 0x61AB JUMP JUMPDEST PUSH2 0x5374 JUMP JUMPDEST PUSH1 0x40 MLOAD PUSH2 0xD7F SWAP2 SWAP1 PUSH2 0x6DE2 JUMP JUMPDEST PUSH1 0x40 MLOAD DUP1 SWAP2 SUB SWAP1 RETURN JUMPDEST CALLVALUE DUP1 ISZERO PUSH2 0xD93 JUMPI PUSH0 DUP1 REVERT JUMPDEST POP PUSH2 0xD9C PUSH2 0x56E3 JUMP JUMPDEST PUSH1 0x40 MLOAD PUSH2 0xDA9 SWAP2 SWAP1 PUSH2 0x5CFD JUMP JUMPDEST PUSH1 0x40 MLOAD DUP1 SWAP2 SUB SWAP1 RETURN JUMPDEST CALLVALUE DUP1 ISZERO PUSH2 0xDBD JUMPI PUSH0 DUP1 REVERT JUMPDEST POP PUSH2 0xDD8 PUSH1 0x4 DUP1 CALLDATASIZE SUB DUP2 ADD SWAP1 PUSH2 0xDD3 SWAP2 SWAP1 PUSH2 0x6118 JUMP JUMPDEST PUSH2 0x56E8 JUMP JUMPDEST STOP JUMPDEST CALLVALUE DUP1 ISZERO PUSH2 0xDE5 JUMPI PUSH0 DUP1 REVERT JUMPDEST POP PUSH2 0xDEE PUSH2 0x5A16 JUMP JUMPDEST PUSH1 0x40 MLOAD PUSH2 0xDFB SWAP2 SWAP1 PUSH2 0x60D5 JUMP JUMPDEST PUSH1 0x40 MLOAD DUP1 SWAP2 SUB SWAP1 RETURN JUMPDEST PUSH1 0x32 DUP2 JUMP JUMPDEST PUSH2 0x1F4 DUP2 JUMP JUMPDEST PUSH0 DUP4 MLOAD GT DUP1 ISZERO PUSH2 0xE21 JUMPI POP PUSH1 0x64 DUP4 MLOAD GT ISZERO JUMPDEST PUSH2 0xE60 JUMPI PUSH1 0x40 MLOAD PUSH32 0x8C379A000000000000000000000000000000000000000000000000000000000 DUP2 MSTORE PUSH1 0x4 ADD PUSH2 0xE57 SWAP1 PUSH2 0x6E4C JUMP JUMPDEST PUSH1 0x40 MLOAD DUP1 SWAP2 SUB SWAP1 REVERT JUMPDEST PUSH0 DUP3 MLOAD GT DUP1 ISZERO PUSH2 0xE73 JUMPI POP PUSH2 0x3E8 DUP3 MLOAD GT ISZERO JUMPDEST PUSH2 0xEB2 JUMPI PUSH1 0x40 MLOAD PUSH32 0x8C379A000000000000000000000000000000000000000000000000000000000 DUP2 MSTORE PUSH1 0x4 ADD PUSH2 0xEA9 SWAP1 PUSH2 0x6EB4 JUMP JUMPDEST PUSH1 0x40 MLOAD DUP1 SWAP2 SUB SWAP1 REVERT JUMPDEST PUSH0 DUP2 MLOAD GT DUP1 ISZERO PUSH2 0xEC5 JUMPI POP PUSH2 0x7D0 DUP2 MLOAD GT ISZERO JUMPDEST PUSH2 0xF04 JUMPI PUSH1 0x40 MLOAD PUSH32 0x8C379A000000000000000000000000000000000000000000000000000000000 DUP2 MSTORE PUSH1 0x4 ADD PUSH2 0xEFB SWAP1 PUSH2 0x6F1C JUMP JUMPDEST PUSH1 0x40 MLOAD DUP1 SWAP2 SUB SWAP1 REVERT JUMPDEST PUSH0 PUSH20 0xFFFFFFFFFFFFFFFFFFFFFFFFFFFFFFFFFFFFFFFF AND CALLER PUSH20 0xFFFFFFFFFFFFFFFFFFFFFFFFFFFFFFFFFFFFFFFF AND SUB PUSH2 0xF72 JUMPI PUSH1 0x40 MLOAD PUSH32 0x8C379A000000000000000000000000000000000000000000000000000000000 DUP2 MSTORE PUSH1 0x4 ADD PUSH2 0xF69 SWAP1 PUSH2 0x6F84 JUMP JUMPDEST PUSH1 0x40 MLOAD DUP1 SWAP2 SUB SWAP1 REVERT JUMPDEST PUSH7 0x38D7EA4C68000 CALLVALUE LT ISZERO PUSH2 0xFBC JUMPI PUSH1 0x40 MLOAD PUSH32 0x8C379A000000000000000000000000000000000000000000000000000000000 DUP2 MSTORE PUSH1 0x4 ADD PUSH2 0xFB3 SWAP1 PUSH2 0x6FEC JUMP JUMPDEST PUSH1 0x40 MLOAD DUP1 SWAP2 SUB SWAP1 REVERT JUMPDEST PUSH0 PUSH1 0x4 DUP2 GT ISZERO PUSH2 0xFCF JUMPI PUSH2 0xFCE PUSH2 0x6B36 JUMP JUMPDEST JUMPDEST PUSH2 0xFD7 PUSH2 0x3674 JUMP JUMPDEST PUSH1 0x4 DUP2 GT ISZERO PUSH2 0xFE9 JUMPI PUSH2 0xFE8 PUSH2 0x6B36 JUMP JUMPDEST JUMPDEST EQ PUSH2 0x1029 JUMPI PUSH1 0x40 MLOAD PUSH32 0x8C379A000000000000000000000000000000000000000000000000000000000 DUP2 MSTORE PUSH1 0x4 ADD PUSH2 0x1020 SWAP1 PUSH2 0x707A JUMP JUMPDEST PUSH1 0x40 MLOAD DUP1 SWAP2 SUB SWAP1 REVERT JUMPDEST PUSH0 PUSH1 0x4 PUSH0 CALLER PUSH20 0xFFFFFFFFFFFFFFFFFFFFFFFFFFFFFFFFFFFFFFFF AND PUSH20 0xFFFFFFFFFFFFFFFFFFFFFFFFFFFFFFFFFFFFFFFF AND DUP2 MSTORE PUSH1 0x20 ADD SWAP1 DUP2 MSTORE PUSH1 0x20 ADD PUSH0 KECCAK256 PUSH1 0x3 ADD SLOAD EQ PUSH2 0x10AB JUMPI PUSH1 0x40 MLOAD PUSH32 0x8C379A000000000000000000000000000000000000000000000000000000000 DUP2 MSTORE PUSH1 0x4 ADD PUSH2 0x10A2 SWAP1 PUSH2 0x70E2 JUMP JUMPDEST PUSH1 0x40 MLOAD DUP1 SWAP2 SUB SWAP1 REVERT JUMPDEST PUSH1 0x40 MLOAD DUP1 PUSH1 0xE0 ADD PUSH1 0x40 MSTORE DUP1 DUP5 DUP2 MSTORE PUSH1 0x20 ADD DUP4 DUP2 MSTORE PUSH1 0x20 ADD DUP3 DUP2 MSTORE PUSH1 0x20 ADD TIMESTAMP DUP2 MSTORE PUSH1 0x20 ADD PUSH0 DUP2 MSTORE PUSH1 0x20 ADD PUSH0 ISZERO ISZERO DUP2 MSTORE PUSH1 0x20 ADD PUSH0 DUP2 MSTORE POP PUSH1 0x4 PUSH0 CALLER PUSH20 0xFFFFFFFFFFFFFFFFFFFFFFFFFFFFFFFFFFFFFFFF AND PUSH20 0xFFFFFFFFFFFFFFFFFFFFFFFFFFFFFFFFFFFFFFFF AND DUP2 MSTORE PUSH1 0x20 ADD SWAP1 DUP2 MSTORE PUSH1 0x20 ADD PUSH0 KECCAK256 PUSH0 DUP3 ADD MLOAD DUP2 PUSH0 ADD SWAP1 DUP2 PUSH2 0x1130 SWAP2 SWAP1 PUSH2 0x72FA JUMP JUMPDEST POP PUSH1 0x20 DUP3 ADD MLOAD DUP2 PUSH1 0x1 ADD SWAP1 DUP2 PUSH2 0x1146 SWAP2 SWAP1 PUSH2 0x72FA JUMP JUMPDEST POP PUSH1 0x40 DUP3 ADD MLOAD DUP2 PUSH1 0x2 ADD SWAP1 DUP2 PUSH2 0x115C SWAP2 SWAP1 PUSH2 0x72FA JUMP JUMPDEST POP PUSH1 0x60 DUP3 ADD MLOAD DUP2 PUSH1 0x3 ADD SSTORE PUSH1 0x80 DUP3 ADD MLOAD DUP2 PUSH1 0x4 ADD SSTORE PUSH1 0xA0 DUP3 ADD MLOAD DUP2 PUSH1 0x5 ADD PUSH0 PUSH2 0x100 EXP DUP2 SLOAD DUP2 PUSH1 0xFF MUL NOT AND SWAP1 DUP4 ISZERO ISZERO MUL OR SWAP1 SSTORE POP PUSH1 0xC0 DUP3 ADD MLOAD DUP2 PUSH1 0x6 ADD SSTORE SWAP1 POP POP PUSH1 0x5 CALLER SWAP1 DUP1 PUSH1 0x1 DUP2 SLOAD ADD DUP1 DUP3 SSTORE DUP1 SWAP2 POP POP PUSH1 0x1 SWAP1 SUB SWAP1 PUSH0 MSTORE PUSH1 0x20 PUSH0 KECCAK256 ADD PUSH0 SWAP1 SWAP2 SWAP1 SWAP2 SWAP1 SWAP2 PUSH2 0x100 EXP DUP2 SLOAD DUP2 PUSH20 0xFFFFFFFFFFFFFFFFFFFFFFFFFFFFFFFFFFFFFFFF MUL NOT AND SWAP1 DUP4 PUSH20 0xFFFFFFFFFFFFFFFFFFFFFFFFFFFFFFFFFFFFFFFF AND MUL OR SWAP1 SSTORE POP CALLER PUSH20 0xFFFFFFFFFFFFFFFFFFFFFFFFFFFFFFFFFFFFFFFF AND PUSH31 0xD6FEA68F71A20D8149F227F87E8CF7E6AD320B2DAD4B45465B14599B80EE09 DUP5 DUP5 DUP5 PUSH1 0x40 MLOAD PUSH2 0x1246 SWAP4 SWAP3 SWAP2 SWAP1 PUSH2 0x73C9 JUMP JUMPDEST PUSH1 0x40 MLOAD DUP1 SWAP2 SUB SWAP1 LOG2 POP POP POP JUMP JUMPDEST PUSH1 0x38 PUSH0 SWAP1 SLOAD SWAP1 PUSH2 0x100 EXP SWAP1 DIV PUSH1 0xFF AND DUP2 JUMP JUMPDEST PUSH2 0x126D PUSH2 0x5BCC JUMP JUMPDEST PUSH1 0x3F PUSH0 DUP4 DUP2 MSTORE PUSH1 0x20 ADD SWAP1 DUP2 MSTORE PUSH1 0x20 ADD PUSH0 KECCAK256 PUSH1 0x2 DUP1 PUSH1 0x20 MUL PUSH1 0x40 MLOAD SWAP1 DUP2 ADD PUSH1 0x40 MSTORE DUP1 SWAP3 SWAP2 SWAP1 DUP3 PUSH1 0x2 DUP1 ISZERO PUSH2 0x12EA JUMPI PUSH1 0x20 MUL DUP3 ADD SWAP2 JUMPDEST DUP2 PUSH0 SWAP1 SLOAD SWAP1 PUSH2 0x100 EXP SWAP1 DIV PUSH20 0xFFFFFFFFFFFFFFFFFFFFFFFFFFFFFFFFFFFFFFFF AND PUSH20 0xFFFFFFFFFFFFFFFFFFFFFFFFFFFFFFFFFFFFFFFF AND DUP2 MSTORE PUSH1 0x20 ADD SWAP1 PUSH1 0x1 ADD SWAP1 DUP1 DUP4 GT PUSH2 0x12A1 JUMPI JUMPDEST POP POP POP POP POP SWAP1 POP SWAP2 SWAP1 POP JUMP JUMPDEST PUSH1 0x39 SLOAD DUP2 JUMP JUMPDEST PUSH1 0x3B PUSH1 0x20 MSTORE DUP1 PUSH0 MSTORE PUSH1 0x40 PUSH0 KECCAK256 PUSH0 SWAP2 POP SWAP1 POP SLOAD DUP2 JUMP JUMPDEST PUSH1 0x3C PUSH1 0x20 MSTORE DUP2 PUSH0 MSTORE PUSH1 0x40 PUSH0 KECCAK256 PUSH1 0x20 MSTORE DUP1 PUSH0 MSTORE PUSH1 0x40 PUSH0 KECCAK256 PUSH0 SWAP2 POP SWAP2 POP POP SLOAD DUP2 JUMP JUMPDEST PUSH3 0x5C4900 DUP2 JUMP JUMPDEST PUSH1 0x3A DUP2 DUP2 SLOAD DUP2 LT PUSH2 0x1347 JUMPI PUSH0 DUP1 REVERT JUMPDEST SWAP1 PUSH0 MSTORE PUSH1 0x20 PUSH0 KECCAK256 SWAP1 PUSH1 0x7 MUL ADD PUSH0 SWAP2 POP SWAP1 POP DUP1 PUSH0 ADD PUSH0 SWAP1 SLOAD SWAP1 PUSH2 0x100 EXP SWAP1 DIV PUSH20 0xFFFFFFFFFFFFFFFFFFFFFFFFFFFFFFFFFFFFFFFF AND SWAP1 DUP1 PUSH1 0x1 ADD DUP1 SLOAD PUSH2 0x138B SWAP1 PUSH2 0x712D JUMP JUMPDEST DUP1 PUSH1 0x1F ADD PUSH1 0x20 DUP1 SWAP2 DIV MUL PUSH1 0x20 ADD PUSH1 0x40 MLOAD SWAP1 DUP2 ADD PUSH1 0x40 MSTORE DUP1 SWAP3 SWAP2 SWAP1 DUP2 DUP2 MSTORE PUSH1 0x20 ADD DUP3 DUP1 SLOAD PUSH2 0x13B7 SWAP1 PUSH2 0x712D JUMP JUMPDEST DUP1 ISZERO PUSH2 0x1402 JUMPI DUP1 PUSH1 0x1F LT PUSH2 0x13D9 JUMPI PUSH2 0x100 DUP1 DUP4 SLOAD DIV MUL DUP4 MSTORE SWAP2 PUSH1 0x20 ADD SWAP2 PUSH2 0x1402 JUMP JUMPDEST DUP3 ADD SWAP2 SWAP1 PUSH0 MSTORE PUSH1 0x20 PUSH0 KECCAK256 SWAP1 JUMPDEST DUP2 SLOAD DUP2 MSTORE SWAP1 PUSH1 0x1 ADD SWAP1 PUSH1 0x20 ADD DUP1 DUP4 GT PUSH2 0x13E5 JUMPI DUP3 SWAP1 SUB PUSH1 0x1F AND DUP3 ADD SWAP2 JUMPDEST POP POP POP POP POP SWAP1 DUP1 PUSH1 0x2 ADD SLOAD SWAP1 DUP1 PUSH1 0x3 ADD SLOAD SWAP1 DUP1 PUSH1 0x4 ADD SLOAD SWAP1 DUP1 PUSH1 0x5 ADD PUSH0 SWAP1 SLOAD SWAP1 PUSH2 0x100 EXP SWAP1 DIV PUSH1 0xFF AND SWAP1 POP DUP7 JUMP JUMPDEST PUSH2 0x3E8 DUP2 JUMP JUMPDEST PUSH1 0x3E DUP2 DUP2 SLOAD DUP2 LT PUSH2 0x1445 JUMPI PUSH0 DUP1 REVERT JUMPDEST SWAP1 PUSH0 MSTORE PUSH1 0x20 PUSH0 KECCAK256 SWAP1 PUSH1 0x8 MUL ADD PUSH0 SWAP2 POP SWAP1 POP DUP1 PUSH0 ADD DUP1 SLOAD PUSH2 0x1464 SWAP1 PUSH2 0x712D JUMP JUMPDEST DUP1 PUSH1 0x1F ADD PUSH1 0x20 DUP1 SWAP2 DIV MUL PUSH1 0x20 ADD PUSH1 0x40 MLOAD SWAP1 DUP2 ADD PUSH1 0x40 MSTORE DUP1 SWAP3 SWAP2 SWAP1 DUP2 DUP2 MSTORE PUSH1 0x20 ADD DUP3 DUP1 SLOAD PUSH2 0x1490 SWAP1 PUSH2 0x712D JUMP JUMPDEST DUP1 ISZERO PUSH2 0x14DB JUMPI DUP1 PUSH1 0x1F LT PUSH2 0x14B2 JUMPI PUSH2 0x100 DUP1 DUP4 SLOAD DIV MUL DUP4 MSTORE SWAP2 PUSH1 0x20 ADD SWAP2 PUSH2 0x14DB JUMP JUMPDEST DUP3 ADD SWAP2 SWAP1 PUSH0 MSTORE PUSH1 0x20 PUSH0 KECCAK256 SWAP1 JUMPDEST DUP2 SLOAD DUP2 MSTORE SWAP1 PUSH1 0x1 ADD SWAP1 PUSH1 0x20 ADD DUP1 DUP4 GT PUSH2 0x14BE JUMPI DUP3 SWAP1 SUB PUSH1 0x1F AND DUP3 ADD SWAP2 JUMPDEST POP POP POP POP POP SWAP1 DUP1 PUSH1 0x1 ADD DUP1 SLOAD PUSH2 0x14F0 SWAP1 PUSH2 0x712D JUMP JUMPDEST DUP1 PUSH1 0x1F ADD PUSH1 0x20 DUP1 SWAP2 DIV MUL PUSH1 0x20 ADD PUSH1 0x40 MLOAD SWAP1 DUP2 ADD PUSH1 0x40 MSTORE DUP1 SWAP3 SWAP2 SWAP1 DUP2 DUP2 MSTORE PUSH1 0x20 ADD DUP3 DUP1 SLOAD PUSH2 0x151C SWAP1 PUSH2 0x712D JUMP JUMPDEST DUP1 ISZERO PUSH2 0x1567 JUMPI DUP1 PUSH1 0x1F LT PUSH2 0x153E JUMPI PUSH2 0x100 DUP1 DUP4 SLOAD DIV MUL DUP4 MSTORE SWAP2 PUSH1 0x20 ADD SWAP2 PUSH2 0x1567 JUMP JUMPDEST DUP3 ADD SWAP2 SWAP1 PUSH0 MSTORE PUSH1 0x20 PUSH0 KECCAK256 SWAP1 JUMPDEST DUP2 SLOAD DUP2 MSTORE SWAP1 PUSH1 0x1 ADD SWAP1 PUSH1 0x20 ADD DUP1 DUP4 GT PUSH2 0x154A JUMPI DUP3 SWAP1 SUB PUSH1 0x1F AND DUP3 ADD SWAP2 JUMPDEST POP POP POP POP POP SWAP1 DUP1 PUSH1 0x2 ADD DUP1 SLOAD PUSH2 0x157C SWAP1 PUSH2 0x712D JUMP JUMPDEST DUP1 PUSH1 0x1F ADD PUSH1 0x20 DUP1 SWAP2 DIV MUL PUSH1 0x20 ADD PUSH1 0x40 MLOAD SWAP1 DUP2 ADD PUSH1 0x40 MSTORE DUP1 SWAP3 SWAP2 SWAP1 DUP2 DUP2 MSTORE PUSH1 0x20 ADD DUP3 DUP1 SLOAD PUSH2 0x15A8 SWAP1 PUSH2 0x712D JUMP JUMPDEST DUP1 ISZERO PUSH2 0x15F3 JUMPI DUP1 PUSH1 0x1F LT PUSH2 0x15CA JUMPI PUSH2 0x100 DUP1 DUP4 SLOAD DIV MUL DUP4 MSTORE SWAP2 PUSH1 0x20 ADD SWAP2 PUSH2 0x15F3 JUMP JUMPDEST DUP3 ADD SWAP2 SWAP1 PUSH0 MSTORE PUSH1 0x20 PUSH0 KECCAK256 SWAP1 JUMPDEST DUP2 SLOAD DUP2 MSTORE SWAP1 PUSH1 0x1 ADD SWAP1 PUSH1 0x20 ADD DUP1 DUP4 GT PUSH2 0x15D6 JUMPI DUP3 SWAP1 SUB PUSH1 0x1F AND DUP3 ADD SWAP2 JUMPDEST POP POP POP POP POP SWAP1 DUP1 PUSH1 0x3 ADD DUP1 SLOAD PUSH2 0x1608 SWAP1 PUSH2 0x712D JUMP JUMPDEST DUP1 PUSH1 0x1F ADD PUSH1 0x20 DUP1 SWAP2 DIV MUL PUSH1 0x20 ADD PUSH1 0x40 MLOAD SWAP1 DUP2 ADD PUSH1 0x40 MSTORE DUP1 SWAP3 SWAP2 SWAP1 DUP2 DUP2 MSTORE PUSH1 0x20 ADD DUP3 DUP1 SLOAD PUSH2 0x1634 SWAP1 PUSH2 0x712D JUMP JUMPDEST DUP1 ISZERO PUSH2 0x167F JUMPI DUP1 PUSH1 0x1F LT PUSH2 0x1656 JUMPI PUSH2 0x100 DUP1 DUP4 SLOAD DIV MUL DUP4 MSTORE SWAP2 PUSH1 0x20 ADD SWAP2 PUSH2 0x167F JUMP JUMPDEST DUP3 ADD SWAP2 SWAP1 PUSH0 MSTORE PUSH1 0x20 PUSH0 KECCAK256 SWAP1 JUMPDEST DUP2 SLOAD DUP2 MSTORE SWAP1 PUSH1 0x1 ADD SWAP1 PUSH1 0x20 ADD DUP1 DUP4 GT PUSH2 0x1662 JUMPI DUP3 SWAP1 SUB PUSH1 0x1F AND DUP3 ADD SWAP2 JUMPDEST POP POP POP POP POP SWAP1 DUP1 PUSH1 0x4 ADD SLOAD SWAP1 DUP1 PUSH1 0x5 ADD DUP1 SLOAD PUSH2 0x169A SWAP1 PUSH2 0x712D JUMP JUMPDEST DUP1 PUSH1 0x1F ADD PUSH1 0x20 DUP1 SWAP2 DIV MUL PUSH1 0x20 ADD PUSH1 0x40 MLOAD SWAP1 DUP2 ADD PUSH1 0x40 MSTORE DUP1 SWAP3 SWAP2 SWAP1 DUP2 DUP2 MSTORE PUSH1 0x20 ADD DUP3 DUP1 SLOAD PUSH2 0x16C6 SWAP1 PUSH2 0x712D JUMP JUMPDEST DUP1 ISZERO PUSH2 0x1711 JUMPI DUP1 PUSH1 0x1F LT PUSH2 0x16E8 JUMPI PUSH2 0x100 DUP1 DUP4 SLOAD DIV MUL DUP4 MSTORE SWAP2 PUSH1 0x20 ADD SWAP2 PUSH2 0x1711 JUMP JUMPDEST DUP3 ADD SWAP2 SWAP1 PUSH0 MSTORE PUSH1 0x20 PUSH0 KECCAK256 SWAP1 JUMPDEST DUP2 SLOAD DUP2 MSTORE SWAP1 PUSH1 0x1 ADD SWAP1 PUSH1 0x20 ADD DUP1 DUP4 GT PUSH2 0x16F4 JUMPI DUP3 SWAP1 SUB PUSH1 0x1F AND DUP3 ADD SWAP2 JUMPDEST POP POP POP POP POP SWAP1 DUP1 PUSH1 0x6 ADD SLOAD SWAP1 DUP1 PUSH1 0x7 ADD SLOAD SWAP1 POP DUP9 JUMP JUMPDEST PUSH0 PUSH2 0x1730 PUSH2 0x5BEE JUMP JUMPDEST PUSH0 PUSH1 0x43 SLOAD GT ISZERO PUSH2 0x1751 JUMPI PUSH1 0x43 SLOAD PUSH2 0x1748 PUSH1 0x43 SLOAD PUSH2 0x5374 JUMP JUMPDEST SWAP2 POP SWAP2 POP PUSH2 0x1B7E JUMP JUMPDEST PUSH0 PUSH1 0x42 SLOAD GT DUP1 ISZERO PUSH2 0x1763 JUMPI POP TIMESTAMP PUSH1 0x42 SLOAD LT JUMPDEST PUSH2 0x17A2 JUMPI PUSH1 0x40 MLOAD PUSH32 0x8C379A000000000000000000000000000000000000000000000000000000000 DUP2 MSTORE PUSH1 0x4 ADD PUSH2 0x1799 SWAP1 PUSH2 0x745D JUMP JUMPDEST PUSH1 0x40 MLOAD DUP1 SWAP2 SUB SWAP1 REVERT JUMPDEST PUSH0 DUP1 PUSH0 SWAP1 POP PUSH0 JUMPDEST PUSH1 0x3E DUP1 SLOAD SWAP1 POP DUP2 LT ISZERO PUSH2 0x1818 JUMPI DUP2 PUSH1 0x3E DUP3 DUP2 SLOAD DUP2 LT PUSH2 0x17CB JUMPI PUSH2 0x17CA PUSH2 0x747B JUMP JUMPDEST JUMPDEST SWAP1 PUSH0 MSTORE PUSH1 0x20 PUSH0 KECCAK256 SWAP1 PUSH1 0x8 MUL ADD PUSH1 0x7 ADD SLOAD GT ISZERO PUSH2 0x180B JUMPI PUSH1 0x3E DUP2 DUP2 SLOAD DUP2 LT PUSH2 0x17F5 JUMPI PUSH2 0x17F4 PUSH2 0x747B JUMP JUMPDEST JUMPDEST SWAP1 PUSH0 MSTORE PUSH1 0x20 PUSH0 KECCAK256 SWAP1 PUSH1 0x8 MUL ADD PUSH1 0x7 ADD SLOAD SWAP2 POP DUP1 SWAP3 POP JUMPDEST DUP1 DUP1 PUSH1 0x1 ADD SWAP2 POP POP PUSH2 0x17A9 JUMP JUMPDEST POP DUP2 PUSH1 0x43 DUP2 SWAP1 SSTORE POP PUSH0 PUSH1 0x3E DUP4 DUP2 SLOAD DUP2 LT PUSH2 0x1835 JUMPI PUSH2 0x1834 PUSH2 0x747B JUMP JUMPDEST JUMPDEST SWAP1 PUSH0 MSTORE PUSH1 0x20 PUSH0 KECCAK256 SWAP1 PUSH1 0x8 MUL ADD PUSH1 0x40 MLOAD DUP1 PUSH2 0x100 ADD PUSH1 0x40 MSTORE SWAP1 DUP2 PUSH0 DUP3 ADD DUP1 SLOAD PUSH2 0x185C SWAP1 PUSH2 0x712D JUMP JUMPDEST DUP1 PUSH1 0x1F ADD PUSH1 0x20 DUP1 SWAP2 DIV MUL PUSH1 0x20 ADD PUSH1 0x40 MLOAD SWAP1 DUP2 ADD PUSH1 0x40 MSTORE DUP1 SWAP3 SWAP2 SWAP1 DUP2 DUP2 MSTORE PUSH1 0x20 ADD DUP3 DUP1 SLOAD PUSH2 0x1888 SWAP1 PUSH2 0x712D JUMP JUMPDEST DUP1 ISZERO PUSH2 0x18D3 JUMPI DUP1 PUSH1 0x1F LT PUSH2 0x18AA JUMPI PUSH2 0x100 DUP1 DUP4 SLOAD DIV MUL DUP4 MSTORE SWAP2 PUSH1 0x20 ADD SWAP2 PUSH2 0x18D3 JUMP JUMPDEST DUP3 ADD SWAP2 SWAP1 PUSH0 MSTORE PUSH1 0x20 PUSH0 KECCAK256 SWAP1 JUMPDEST DUP2 SLOAD DUP2 MSTORE SWAP1 PUSH1 0x1 ADD SWAP1 PUSH1 0x20 ADD DUP1 DUP4 GT PUSH2 0x18B6 JUMPI DUP3 SWAP1 SUB PUSH1 0x1F AND DUP3 ADD SWAP2 JUMPDEST POP POP POP POP POP DUP2 MSTORE PUSH1 0x20 ADD PUSH1 0x1 DUP3 ADD DUP1 SLOAD PUSH2 0x18EC SWAP1 PUSH2 0x712D JUMP JUMPDEST DUP1 PUSH1 0x1F ADD PUSH1 0x20 DUP1 SWAP2 DIV MUL PUSH1 0x20 ADD PUSH1 0x40 MLOAD SWAP1 DUP2 ADD PUSH1 0x40 MSTORE DUP1 SWAP3 SWAP2 SWAP1 DUP2 DUP2 MSTORE PUSH1 0x20 ADD DUP3 DUP1 SLOAD PUSH2 0x1918 SWAP1 PUSH2 0x712D JUMP JUMPDEST DUP1 ISZERO PUSH2 0x1963 JUMPI DUP1 PUSH1 0x1F LT PUSH2 0x193A JUMPI PUSH2 0x100 DUP1 DUP4 SLOAD DIV MUL DUP4 MSTORE SWAP2 PUSH1 0x20 ADD SWAP2 PUSH2 0x1963 JUMP JUMPDEST DUP3 ADD SWAP2 SWAP1 PUSH0 MSTORE PUSH1 0x20 PUSH0 KECCAK256 SWAP1 JUMPDEST DUP2 SLOAD DUP2 MSTORE SWAP1 PUSH1 0x1 ADD SWAP1 PUSH1 0x20 ADD DUP1 DUP4 GT PUSH2 0x1946 JUMPI DUP3 SWAP1 SUB PUSH1 0x1F AND DUP3 ADD SWAP2 JUMPDEST POP POP POP POP POP DUP2 MSTORE PUSH1 0x20 ADD PUSH1 0x2 DUP3 ADD DUP1 SLOAD PUSH2 0x197C SWAP1 PUSH2 0x712D JUMP JUMPDEST DUP1 PUSH1 0x1F ADD PUSH1 0x20 DUP1 SWAP2 DIV MUL PUSH1 0x20 ADD PUSH1 0x40 MLOAD SWAP1 DUP2 ADD PUSH1 0x40 MSTORE DUP1 SWAP3 SWAP2 SWAP1 DUP2 DUP2 MSTORE PUSH1 0x20 ADD DUP3 DUP1 SLOAD PUSH2 0x19A8 SWAP1 PUSH2 0x712D JUMP JUMPDEST DUP1 ISZERO PUSH2 0x19F3 JUMPI DUP1 PUSH1 0x1F LT PUSH2 0x19CA JUMPI PUSH2 0x100 DUP1 DUP4 SLOAD DIV MUL DUP4 MSTORE SWAP2 PUSH1 0x20 ADD SWAP2 PUSH2 0x19F3 JUMP JUMPDEST DUP3 ADD SWAP2 SWAP1 PUSH0 MSTORE PUSH1 0x20 PUSH0 KECCAK256 SWAP1 JUMPDEST DUP2 SLOAD DUP2 MSTORE SWAP1 PUSH1 0x1 ADD SWAP1 PUSH1 0x20 ADD DUP1 DUP4 GT PUSH2 0x19D6 JUMPI DUP3 SWAP1 SUB PUSH1 0x1F AND DUP3 ADD SWAP2 JUMPDEST POP POP POP POP POP DUP2 MSTORE PUSH1 0x20 ADD PUSH1 0x3 DUP3 ADD DUP1 SLOAD PUSH2 0x1A0C SWAP1 PUSH2 0x712D JUMP JUMPDEST DUP1 PUSH1 0x1F ADD PUSH1 0x20 DUP1 SWAP2 DIV MUL PUSH1 0x20 ADD PUSH1 0x40 MLOAD SWAP1 DUP2 ADD PUSH1 0x40 MSTORE DUP1 SWAP3 SWAP2 SWAP1 DUP2 DUP2 MSTORE PUSH1 0x20 ADD DUP3 DUP1 SLOAD PUSH2 0x1A38 SWAP1 PUSH2 0x712D JUMP JUMPDEST DUP1 ISZERO PUSH2 0x1A83 JUMPI DUP1 PUSH1 0x1F LT PUSH2 0x1A5A JUMPI PUSH2 0x100 DUP1 DUP4 SLOAD DIV MUL DUP4 MSTORE SWAP2 PUSH1 0x20 ADD SWAP2 PUSH2 0x1A83 JUMP JUMPDEST DUP3 ADD SWAP2 SWAP1 PUSH0 MSTORE PUSH1 0x20 PUSH0 KECCAK256 SWAP1 JUMPDEST DUP2 SLOAD DUP2 MSTORE SWAP1 PUSH1 0x1 ADD SWAP1 PUSH1 0x20 ADD DUP1 DUP4 GT PUSH2 0x1A66 JUMPI DUP3 SWAP1 SUB PUSH1 0x1F AND DUP3 ADD SWAP2 JUMPDEST POP POP POP POP POP DUP2 MSTORE PUSH1 0x20 ADD PUSH1 0x4 DUP3 ADD SLOAD DUP2 MSTORE PUSH1 0x20 ADD PUSH1 0x5 DUP3 ADD DUP1 SLOAD PUSH2 0x1AA6 SWAP1 PUSH2 0x712D JUMP JUMPDEST DUP1 PUSH1 0x1F ADD PUSH1 0x20 DUP1 SWAP2 DIV MUL PUSH1 0x20 ADD PUSH1 0x40 MLOAD SWAP1 DUP2 ADD PUSH1 0x40 MSTORE DUP1 SWAP3 SWAP2 SWAP1 DUP2 DUP2 MSTORE PUSH1 0x20 ADD DUP3 DUP1 SLOAD PUSH2 0x1AD2 SWAP1 PUSH2 0x712D JUMP JUMPDEST DUP1 ISZERO PUSH2 0x1B1D JUMPI DUP1 PUSH1 0x1F LT PUSH2 0x1AF4 JUMPI PUSH2 0x100 DUP1 DUP4 SLOAD DIV MUL DUP4 MSTORE SWAP2 PUSH1 0x20 ADD SWAP2 PUSH2 0x1B1D JUMP JUMPDEST DUP3 ADD SWAP2 SWAP1 PUSH0 MSTORE PUSH1 0x20 PUSH0 KECCAK256 SWAP1 JUMPDEST DUP2 SLOAD DUP2 MSTORE SWAP1 PUSH1 0x1 ADD SWAP1 PUSH1 0x20 ADD DUP1 DUP4 GT PUSH2 0x1B00 JUMPI DUP3 SWAP1 SUB PUSH1 0x1F AND DUP3 ADD SWAP2 JUMPDEST POP POP POP POP POP DUP2 MSTORE PUSH1 0x20 ADD PUSH1 0x6 DUP3 ADD SLOAD DUP2 MSTORE PUSH1 0x20 ADD PUSH1 0x7 DUP3 ADD SLOAD DUP2 MSTORE POP POP SWAP1 POP DUP3 PUSH32 0x5716523A05C9D13997B5A619D69A47EBA3D34842FF0B403EED7CA3A75B05C708 DUP3 PUSH1 0x40 MLOAD PUSH2 0x1B6C SWAP2 SWAP1 PUSH2 0x6DE2 JUMP JUMPDEST PUSH1 0x40 MLOAD DUP1 SWAP2 SUB SWAP1 LOG2 DUP3 DUP2 SWAP5 POP SWAP5 POP POP POP POP JUMPDEST SWAP1 SWAP2 JUMP JUMPDEST PUSH3 0x93A80 DUP2 JUMP JUMPDEST PUSH3 0x127500 DUP2 JUMP JUMPDEST PUSH2 0x1B98 PUSH2 0x5C33 JUMP JUMPDEST PUSH1 0x3A DUP1 SLOAD SWAP1 POP DUP3 LT PUSH2 0x1BDF JUMPI PUSH1 0x40 MLOAD PUSH32 0x8C379A000000000000000000000000000000000000000000000000000000000 DUP2 MSTORE PUSH1 0x4 ADD PUSH2 0x1BD6 SWAP1 PUSH2 0x74F2 JUMP JUMPDEST PUSH1 0x40 MLOAD DUP1 SWAP2 SUB SWAP1 REVERT JUMPDEST PUSH1 0x3A DUP3 DUP2 SLOAD DUP2 LT PUSH2 0x1BF3 JUMPI PUSH2 0x1BF2 PUSH2 0x747B JUMP JUMPDEST JUMPDEST SWAP1 PUSH0 MSTORE PUSH1 0x20 PUSH0 KECCAK256 SWAP1 PUSH1 0x7 MUL ADD PUSH1 0x40 MLOAD DUP1 PUSH1 0xE0 ADD PUSH1 0x40 MSTORE SWAP1 DUP2 PUSH0 DUP3 ADD PUSH0 SWAP1 SLOAD SWAP1 PUSH2 0x100 EXP SWAP1 DIV PUSH20 0xFFFFFFFFFFFFFFFFFFFFFFFFFFFFFFFFFFFFFFFF AND PUSH20 0xFFFFFFFFFFFFFFFFFFFFFFFFFFFFFFFFFFFFFFFF AND PUSH20 0xFFFFFFFFFFFFFFFFFFFFFFFFFFFFFFFFFFFFFFFF AND DUP2 MSTORE PUSH1 0x20 ADD PUSH1 0x1 DUP3 ADD DUP1 SLOAD PUSH2 0x1C6E SWAP1 PUSH2 0x712D JUMP JUMPDEST DUP1 PUSH1 0x1F ADD PUSH1 0x20 DUP1 SWAP2 DIV MUL PUSH1 0x20 ADD PUSH1 0x40 MLOAD SWAP1 DUP2 ADD PUSH1 0x40 MSTORE DUP1 SWAP3 SWAP2 SWAP1 DUP2 DUP2 MSTORE PUSH1 0x20 ADD DUP3 DUP1 SLOAD PUSH2 0x1C9A SWAP1 PUSH2 0x712D JUMP JUMPDEST DUP1 ISZERO PUSH2 0x1CE5 JUMPI DUP1 PUSH1 0x1F LT PUSH2 0x1CBC JUMPI PUSH2 0x100 DUP1 DUP4 SLOAD DIV MUL DUP4 MSTORE SWAP2 PUSH1 0x20 ADD SWAP2 PUSH2 0x1CE5 JUMP JUMPDEST DUP3 ADD SWAP2 SWAP1 PUSH0 MSTORE PUSH1 0x20 PUSH0 KECCAK256 SWAP1 JUMPDEST DUP2 SLOAD DUP2 MSTORE SWAP1 PUSH1 0x1 ADD SWAP1 PUSH1 0x20 ADD DUP1 DUP4 GT PUSH2 0x1CC8 JUMPI DUP3 SWAP1 SUB PUSH1 0x1F AND DUP3 ADD SWAP2 JUMPDEST POP POP POP POP POP DUP2 MSTORE PUSH1 0x20 ADD PUSH1 0x2 DUP3 ADD SLOAD DUP2 MSTORE PUSH1 0x20 ADD PUSH1 0x3 DUP3 ADD SLOAD DUP2 MSTORE PUSH1 0x20 ADD PUSH1 0x4 DUP3 ADD SLOAD DUP2 MSTORE PUSH1 0x20 ADD PUSH1 0x5 DUP3 ADD PUSH0 SWAP1 SLOAD SWAP1 PUSH2 0x100 EXP SWAP1 DIV PUSH1 0xFF AND PUSH1 0xFF AND PUSH1 0xFF AND DUP2 MSTORE PUSH1 0x20 ADD PUSH1 0x6 DUP3 ADD DUP1 SLOAD DUP1 PUSH1 0x20 MUL PUSH1 0x20 ADD PUSH1 0x40 MLOAD SWAP1 DUP2 ADD PUSH1 0x40 MSTORE DUP1 SWAP3 SWAP2 SWAP1 DUP2 DUP2 MSTORE PUSH1 0x20 ADD PUSH0 SWAP1 JUMPDEST DUP3 DUP3 LT ISZERO PUSH2 0x1E6A JUMPI DUP4 DUP3 SWAP1 PUSH0 MSTORE PUSH1 0x20 PUSH0 KECCAK256 SWAP1 PUSH1 0x3 MUL ADD PUSH1 0x40 MLOAD DUP1 PUSH1 0x60 ADD PUSH1 0x40 MSTORE SWAP1 DUP2 PUSH0 DUP3 ADD SLOAD DUP2 MSTORE PUSH1 0x20 ADD PUSH1 0x1 DUP3 ADD PUSH0 SWAP1 SLOAD SWAP1 PUSH2 0x100 EXP SWAP1 DIV PUSH20 0xFFFFFFFFFFFFFFFFFFFFFFFFFFFFFFFFFFFFFFFF AND PUSH20 0xFFFFFFFFFFFFFFFFFFFFFFFFFFFFFFFFFFFFFFFF AND PUSH20 0xFFFFFFFFFFFFFFFFFFFFFFFFFFFFFFFFFFFFFFFF AND DUP2 MSTORE PUSH1 0x20 ADD PUSH1 0x2 DUP3 ADD DUP1 SLOAD PUSH2 0x1DDB SWAP1 PUSH2 0x712D JUMP JUMPDEST DUP1 PUSH1 0x1F ADD PUSH1 0x20 DUP1 SWAP2 DIV MUL PUSH1 0x20 ADD PUSH1 0x40 MLOAD SWAP1 DUP2 ADD PUSH1 0x40 MSTORE DUP1 SWAP3 SWAP2 SWAP1 DUP2 DUP2 MSTORE PUSH1 0x20 ADD DUP3 DUP1 SLOAD PUSH2 0x1E07 SWAP1 PUSH2 0x712D JUMP JUMPDEST DUP1 ISZERO PUSH2 0x1E52 JUMPI DUP1 PUSH1 0x1F LT PUSH2 0x1E29 JUMPI PUSH2 0x100 DUP1 DUP4 SLOAD DIV MUL DUP4 MSTORE SWAP2 PUSH1 0x20 ADD SWAP2 PUSH2 0x1E52 JUMP JUMPDEST DUP3 ADD SWAP2 SWAP1 PUSH0 MSTORE PUSH1 0x20 PUSH0 KECCAK256 SWAP1 JUMPDEST DUP2 SLOAD DUP2 MSTORE SWAP1 PUSH1 0x1 ADD SWAP1 PUSH1 0x20 ADD DUP1 DUP4 GT PUSH2 0x1E35 JUMPI DUP3 SWAP1 SUB PUSH1 0x1F AND DUP3 ADD SWAP2 JUMPDEST POP POP POP POP POP DUP2 MSTORE POP POP DUP2 MSTORE PUSH1 0x20 ADD SWAP1 PUSH1 0x1 ADD SWAP1 PUSH2 0x1D4C JUMP JUMPDEST POP POP POP POP DUP2 MSTORE POP POP SWAP1 POP SWAP2 SWAP1 POP JUMP JUMPDEST PUSH1 0x3A DUP1 SLOAD SWAP1 POP DUP2 LT PUSH2 0x1EC0 JUMPI PUSH1 0x40 MLOAD PUSH32 0x8C379A000000000000000000000000000000000000000000000000000000000 DUP2 MSTORE PUSH1 0x4 ADD PUSH2 0x1EB7 SWAP1 PUSH2 0x74F2 JUMP JUMPDEST PUSH1 0x40 MLOAD DUP1 SWAP2 SUB SWAP1 REVERT JUMPDEST PUSH0 PUSH1 0x3A DUP3 DUP2 SLOAD DUP2 LT PUSH2 0x1ED5 JUMPI PUSH2 0x1ED4 PUSH2 0x747B JUMP JUMPDEST JUMPDEST SWAP1 PUSH0 MSTORE PUSH1 0x20 PUSH0 KECCAK256 SWAP1 PUSH1 0x7 MUL ADD SWAP1 POP CALLER PUSH20 0xFFFFFFFFFFFFFFFFFFFFFFFFFFFFFFFFFFFFFFFF AND DUP2 PUSH0 ADD PUSH0 SWAP1 SLOAD SWAP1 PUSH2 0x100 EXP SWAP1 DIV PUSH20 0xFFFFFFFFFFFFFFFFFFFFFFFFFFFFFFFFFFFFFFFF AND PUSH20 0xFFFFFFFFFFFFFFFFFFFFFFFFFFFFFFFFFFFFFFFF AND EQ PUSH2 0x1F73 JUMPI PUSH1 0x40 MLOAD PUSH32 0x8C379A000000000000000000000000000000000000000000000000000000000 DUP2 MSTORE PUSH1 0x4 ADD PUSH2 0x1F6A SWAP1 PUSH2 0x755A JUMP JUMPDEST PUSH1 0x40 MLOAD DUP1 SWAP2 SUB SWAP1 REVERT JUMPDEST PUSH0 DUP2 PUSH1 0x3 ADD SLOAD EQ PUSH2 0x1FB9 JUMPI PUSH1 0x40 MLOAD PUSH32 0x8C379A000000000000000000000000000000000000000000000000000000000 DUP2 MSTORE PUSH1 0x4 ADD PUSH2 0x1FB0 SWAP1 PUSH2 0x75C2 JUMP JUMPDEST PUSH1 0x40 MLOAD DUP1 SWAP2 SUB SWAP1 REVERT JUMPDEST PUSH0 DUP2 PUSH1 0x4 ADD SLOAD EQ PUSH2 0x1FFF JUMPI PUSH1 0x40 MLOAD PUSH32 0x8C379A000000000000000000000000000000000000000000000000000000000 DUP2 MSTORE PUSH1 0x4 ADD PUSH2 0x1FF6 SWAP1 PUSH2 0x762A JUMP JUMPDEST PUSH1 0x40 MLOAD DUP1 SWAP2 SUB SWAP1 REVERT JUMPDEST TIMESTAMP DUP2 PUSH1 0x4 ADD DUP2 SWAP1 SSTORE POP PUSH0 PUSH1 0x3B PUSH0 CALLER PUSH20 0xFFFFFFFFFFFFFFFFFFFFFFFFFFFFFFFFFFFFFFFF AND PUSH20 0xFFFFFFFFFFFFFFFFFFFFFFFFFFFFFFFFFFFFFFFF AND DUP2 MSTORE PUSH1 0x20 ADD SWAP1 DUP2 MSTORE PUSH1 0x20 ADD PUSH0 KECCAK256 DUP2 SWAP1 SSTORE POP DUP2 PUSH32 0xD12DC0E743799A2FD79586130583CBAEED3A9B49D47291F1319569A523EFE39A PUSH1 0x40 MLOAD PUSH1 0x40 MLOAD DUP1 SWAP2 SUB SWAP1 LOG2 POP POP JUMP JUMPDEST PUSH0 SELFBALANCE SWAP1 POP SWAP1 JUMP JUMPDEST PUSH0 PUSH1 0x4 PUSH0 CALLER PUSH20 0xFFFFFFFFFFFFFFFFFFFFFFFFFFFFFFFFFFFFFFFF AND PUSH20 0xFFFFFFFFFFFFFFFFFFFFFFFFFFFFFFFFFFFFFFFF AND DUP2 MSTORE PUSH1 0x20 ADD SWAP1 DUP2 MSTORE PUSH1 0x20 ADD PUSH0 KECCAK256 PUSH1 0x5 ADD PUSH0 SWAP1 SLOAD SWAP1 PUSH2 0x100 EXP SWAP1 DIV PUSH1 0xFF AND PUSH2 0x210F JUMPI PUSH1 0x40 MLOAD PUSH32 0x8C379A000000000000000000000000000000000000000000000000000000000 DUP2 MSTORE PUSH1 0x4 ADD PUSH2 0x2106 SWAP1 PUSH2 0x7692 JUMP JUMPDEST PUSH1 0x40 MLOAD DUP1 SWAP2 SUB SWAP1 REVERT JUMPDEST PUSH1 0x3A DUP1 SLOAD SWAP1 POP DUP3 LT PUSH2 0x2156 JUMPI PUSH1 0x40 MLOAD PUSH32 0x8C379A000000000000000000000000000000000000000000000000000000000 DUP2 MSTORE PUSH1 0x4 ADD PUSH2 0x214D SWAP1 PUSH2 0x74F2 JUMP JUMPDEST PUSH1 0x40 MLOAD DUP1 SWAP2 SUB SWAP1 REVERT JUMPDEST PUSH0 PUSH1 0x3A DUP4 DUP2 SLOAD DUP2 LT PUSH2 0x216B JUMPI PUSH2 0x216A PUSH2 0x747B JUMP JUMPDEST JUMPDEST SWAP1 PUSH0 MSTORE PUSH1 0x20 PUSH0 KECCAK256 SWAP1 PUSH1 0x7 MUL ADD SWAP1 POP PUSH0 DUP2 PUSH1 0x4 ADD SLOAD EQ PUSH2 0x21BF JUMPI PUSH1 0x40 MLOAD PUSH32 0x8C379A000000000000000000000000000000000000000000000000000000000 DUP2 MSTORE PUSH1 0x4 ADD PUSH2 0x21B6 SWAP1 PUSH2 0x76FA JUMP JUMPDEST PUSH1 0x40 MLOAD DUP1 SWAP2 SUB SWAP1 REVERT JUMPDEST PUSH0 PUSH1 0x3C PUSH0 CALLER PUSH20 0xFFFFFFFFFFFFFFFFFFFFFFFFFFFFFFFFFFFFFFFF AND PUSH20 0xFFFFFFFFFFFFFFFFFFFFFFFFFFFFFFFFFFFFFFFF AND DUP2 MSTORE PUSH1 0x20 ADD SWAP1 DUP2 MSTORE PUSH1 0x20 ADD PUSH0 KECCAK256 PUSH0 DUP6 DUP2 MSTORE PUSH1 0x20 ADD SWAP1 DUP2 MSTORE PUSH1 0x20 ADD PUSH0 KECCAK256 SLOAD EQ PUSH2 0x224D JUMPI PUSH1 0x40 MLOAD PUSH32 0x8C379A000000000000000000000000000000000000000000000000000000000 DUP2 MSTORE PUSH1 0x4 ADD PUSH2 0x2244 SWAP1 PUSH2 0x7762 JUMP JUMPDEST PUSH1 0x40 MLOAD DUP1 SWAP2 SUB SWAP1 REVERT JUMPDEST TIMESTAMP PUSH1 0x3C PUSH0 CALLER PUSH20 0xFFFFFFFFFFFFFFFFFFFFFFFFFFFFFFFFFFFFFFFF AND PUSH20 0xFFFFFFFFFFFFFFFFFFFFFFFFFFFFFFFFFFFFFFFF AND DUP2 MSTORE PUSH1 0x20 ADD SWAP1 DUP2 MSTORE PUSH1 0x20 ADD PUSH0 KECCAK256 PUSH0 DUP6 DUP2 MSTORE PUSH1 0x20 ADD SWAP1 DUP2 MSTORE PUSH1 0x20 ADD PUSH0 KECCAK256 DUP2 SWAP1 SSTORE POP DUP1 PUSH1 0x5 ADD PUSH0 DUP2 DUP2 SWAP1 SLOAD SWAP1 PUSH2 0x100 EXP SWAP1 DIV PUSH1 0xFF AND DUP1 SWAP3 SWAP2 SWAP1 PUSH2 0x22BE SWAP1 PUSH2 0x77AD JUMP JUMPDEST SWAP2 SWAP1 PUSH2 0x100 EXP DUP2 SLOAD DUP2 PUSH1 0xFF MUL NOT AND SWAP1 DUP4 PUSH1 0xFF AND MUL OR SWAP1 SSTORE POP POP CALLER PUSH20 0xFFFFFFFFFFFFFFFFFFFFFFFFFFFFFFFFFFFFFFFF AND DUP4 PUSH32 0x3AEB8AB967E7A5CA0C4BE4E02BF008EFEB5A16ED14153472CA601D43B19BD4F1 PUSH1 0x40 MLOAD PUSH1 0x40 MLOAD DUP1 SWAP2 SUB SWAP1 LOG3 PUSH1 0x1E PUSH1 0xFF AND DUP2 PUSH1 0x5 ADD PUSH0 SWAP1 SLOAD SWAP1 PUSH2 0x100 EXP SWAP1 DIV PUSH1 0xFF AND PUSH1 0xFF AND LT ISZERO DUP1 ISZERO PUSH2 0x2345 JUMPI POP PUSH0 DUP2 PUSH1 0x3 ADD SLOAD EQ JUMPDEST ISZERO PUSH2 0x23EE JUMPI DUP3 PUSH32 0x2CCC8A7792343A50763432C0B3BAF786CAABCE7A3443756A81F743B21084FDB3 PUSH1 0x40 MLOAD PUSH1 0x40 MLOAD DUP1 SWAP2 SUB SWAP1 LOG2 TIMESTAMP DUP2 PUSH1 0x3 ADD DUP2 SWAP1 SSTORE POP PUSH0 PUSH1 0x3B PUSH0 DUP4 PUSH0 ADD PUSH0 SWAP1 SLOAD SWAP1 PUSH2 0x100 EXP SWAP1 DIV PUSH20 0xFFFFFFFFFFFFFFFFFFFFFFFFFFFFFFFFFFFFFFFF AND PUSH20 0xFFFFFFFFFFFFFFFFFFFFFFFFFFFFFFFFFFFFFFFF AND PUSH20 0xFFFFFFFFFFFFFFFFFFFFFFFFFFFFFFFFFFFFFFFF AND DUP2 MSTORE PUSH1 0x20 ADD SWAP1 DUP2 MSTORE PUSH1 0x20 ADD PUSH0 KECCAK256 DUP2 SWAP1 SSTORE POP PUSH2 0x23ED DUP4 PUSH2 0x5A1C JUMP JUMPDEST JUMPDEST DUP1 PUSH1 0x5 ADD PUSH0 SWAP1 SLOAD SWAP1 PUSH2 0x100 EXP SWAP1 DIV PUSH1 0xFF AND SWAP2 POP POP SWAP2 SWAP1 POP JUMP JUMPDEST PUSH0 PUSH1 0x4 PUSH0 CALLER PUSH20 0xFFFFFFFFFFFFFFFFFFFFFFFFFFFFFFFFFFFFFFFF AND PUSH20 0xFFFFFFFFFFFFFFFFFFFFFFFFFFFFFFFFFFFFFFFF AND DUP2 MSTORE PUSH1 0x20 ADD SWAP1 DUP2 MSTORE PUSH1 0x20 ADD PUSH0 KECCAK256 PUSH1 0x5 ADD PUSH0 SWAP1 SLOAD SWAP1 PUSH2 0x100 EXP SWAP1 DIV PUSH1 0xFF AND PUSH2 0x2494 JUMPI PUSH1 0x40 MLOAD PUSH32 0x8C379A000000000000000000000000000000000000000000000000000000000 DUP2 MSTORE PUSH1 0x4 ADD PUSH2 0x248B SWAP1 PUSH2 0x781F JUMP JUMPDEST PUSH1 0x40 MLOAD DUP1 SWAP2 SUB SWAP1 REVERT JUMPDEST PUSH0 DUP6 DUP6 SWAP1 POP GT PUSH2 0x24D9 JUMPI PUSH1 0x40 MLOAD PUSH32 0x8C379A000000000000000000000000000000000000000000000000000000000 DUP2 MSTORE PUSH1 0x4 ADD PUSH2 0x24D0 SWAP1 PUSH2 0x7887 JUMP JUMPDEST PUSH1 0x40 MLOAD DUP1 SWAP2 SUB SWAP1 REVERT JUMPDEST PUSH0 PUSH1 0x3B PUSH0 CALLER PUSH20 0xFFFFFFFFFFFFFFFFFFFFFFFFFFFFFFFFFFFFFFFF AND PUSH20 0xFFFFFFFFFFFFFFFFFFFFFFFFFFFFFFFFFFFFFFFF AND DUP2 MSTORE PUSH1 0x20 ADD SWAP1 DUP2 MSTORE PUSH1 0x20 ADD PUSH0 KECCAK256 SLOAD EQ PUSH2 0x2558 JUMPI PUSH1 0x40 MLOAD PUSH32 0x8C379A000000000000000000000000000000000000000000000000000000000 DUP2 MSTORE PUSH1 0x4 ADD PUSH2 0x254F SWAP1 PUSH2 0x7915 JUMP JUMPDEST PUSH1 0x40 MLOAD DUP1 SWAP2 SUB SWAP1 REVERT JUMPDEST PUSH0 PUSH1 0x3A DUP1 SLOAD SWAP1 POP SWAP1 POP DUP1 PUSH1 0x3B PUSH0 CALLER PUSH20 0xFFFFFFFFFFFFFFFFFFFFFFFFFFFFFFFFFFFFFFFF AND PUSH20 0xFFFFFFFFFFFFFFFFFFFFFFFFFFFFFFFFFFFFFFFF AND DUP2 MSTORE PUSH1 0x20 ADD SWAP1 DUP2 MSTORE PUSH1 0x20 ADD PUSH0 KECCAK256 DUP2 SWAP1 SSTORE POP PUSH1 0x3A PUSH1 0x1 DUP2 PUSH1 0x1 DUP2 SLOAD ADD DUP1 DUP3 SSTORE DUP1 SWAP2 POP POP SUB SWAP1 PUSH0 MSTORE PUSH1 0x20 PUSH0 KECCAK256 SWAP1 POP POP PUSH0 PUSH1 0x3A DUP3 DUP2 SLOAD DUP2 LT PUSH2 0x25D4 JUMPI PUSH2 0x25D3 PUSH2 0x747B JUMP JUMPDEST JUMPDEST SWAP1 PUSH0 MSTORE PUSH1 0x20 PUSH0 KECCAK256 SWAP1 PUSH1 0x7 MUL ADD SWAP1 POP CALLER DUP2 PUSH0 ADD PUSH0 PUSH2 0x100 EXP DUP2 SLOAD DUP2 PUSH20 0xFFFFFFFFFFFFFFFFFFFFFFFFFFFFFFFFFFFFFFFF MUL NOT AND SWAP1 DUP4 PUSH20 0xFFFFFFFFFFFFFFFFFFFFFFFFFFFFFFFFFFFFFFFF AND MUL OR SWAP1 SSTORE POP DUP7 DUP7 DUP3 PUSH1 0x1 ADD SWAP2 DUP3 PUSH2 0x2636 SWAP3 SWAP2 SWAP1 PUSH2 0x793D JUMP JUMPDEST POP TIMESTAMP DUP2 PUSH1 0x2 ADD DUP2 SWAP1 SSTORE POP PUSH0 JUMPDEST DUP6 DUP6 SWAP1 POP DUP2 LT ISZERO PUSH2 0x26B7 JUMPI DUP2 PUSH1 0x6 ADD DUP7 DUP7 DUP4 DUP2 DUP2 LT PUSH2 0x2664 JUMPI PUSH2 0x2663 PUSH2 0x747B JUMP JUMPDEST JUMPDEST SWAP1 POP PUSH1 0x20 MUL DUP2 ADD SWAP1 PUSH2 0x2676 SWAP2 SWAP1 PUSH2 0x7A16 JUMP JUMPDEST SWAP1 DUP1 PUSH1 0x1 DUP2 SLOAD ADD DUP1 DUP3 SSTORE DUP1 SWAP2 POP POP PUSH1 0x1 SWAP1 SUB SWAP1 PUSH0 MSTORE PUSH1 0x20 PUSH0 KECCAK256 SWAP1 PUSH1 0x3 MUL ADD PUSH0 SWAP1 SWAP2 SWAP1 SWAP2 SWAP1 SWAP2 POP DUP2 DUP2 PUSH2 0x26A8 SWAP2 SWAP1 PUSH2 0x7C51 JUMP JUMPDEST POP POP DUP1 DUP1 PUSH1 0x1 ADD SWAP2 POP POP PUSH2 0x2642 JUMP JUMPDEST POP CALLER PUSH20 0xFFFFFFFFFFFFFFFFFFFFFFFFFFFFFFFFFFFFFFFF AND PUSH1 0x3A DUP1 SLOAD SWAP1 POP PUSH32 0xF5D77876858B5AD3802640C28E52B951551A2E4774BAAB2A284EA51D40271889 DUP10 DUP10 PUSH1 0x40 MLOAD PUSH2 0x2706 SWAP3 SWAP2 SWAP1 PUSH2 0x7C8B JUMP JUMPDEST PUSH1 0x40 MLOAD DUP1 SWAP2 SUB SWAP1 LOG3 PUSH1 0x3A DUP1 SLOAD SWAP1 POP SWAP3 POP POP POP SWAP5 SWAP4 POP POP POP POP JUMP JUMPDEST PUSH1 0x2 PUSH1 0x4 DUP2 GT ISZERO PUSH2 0x2734 JUMPI PUSH2 0x2733 PUSH2 0x6B36 JUMP JUMPDEST JUMPDEST PUSH2 0x273C PUSH2 0x3674 JUMP JUMPDEST PUSH1 0x4 DUP2 GT ISZERO PUSH2 0x274E JUMPI PUSH2 0x274D PUSH2 0x6B36 JUMP JUMPDEST JUMPDEST EQ PUSH2 0x278E JUMPI PUSH1 0x40 MLOAD PUSH32 0x8C379A000000000000000000000000000000000000000000000000000000000 DUP2 MSTORE PUSH1 0x4 ADD PUSH2 0x2785 SWAP1 PUSH2 0x7CF7 JUMP JUMPDEST PUSH1 0x40 MLOAD DUP1 SWAP2 SUB SWAP1 REVERT JUMPDEST PUSH0 DUP2 PUSH0 ADD MLOAD MLOAD GT PUSH2 0x27D4 JUMPI PUSH1 0x40 MLOAD PUSH32 0x8C379A000000000000000000000000000000000000000000000000000000000 DUP2 MSTORE PUSH1 0x4 ADD PUSH2 0x27CB SWAP1 PUSH2 0x7D5F JUMP JUMPDEST PUSH1 0x40 MLOAD DUP1 SWAP2 SUB SWAP1 REVERT JUMPDEST PUSH0 DUP2 PUSH1 0x20 ADD MLOAD MLOAD GT PUSH2 0x281B JUMPI PUSH1 0x40 MLOAD PUSH32 0x8C379A000000000000000000000000000000000000000000000000000000000 DUP2 MSTORE PUSH1 0x4 ADD PUSH2 0x2812 SWAP1 PUSH2 0x7DC7 JUMP JUMPDEST PUSH1 0x40 MLOAD DUP1 SWAP2 SUB SWAP1 REVERT JUMPDEST PUSH0 DUP2 PUSH1 0x60 ADD MLOAD MLOAD GT PUSH2 0x2862 JUMPI PUSH1 0x40 MLOAD PUSH32 0x8C379A000000000000000000000000000000000000000000000000000000000 DUP2 MSTORE PUSH1 0x4 ADD PUSH2 0x2859 SWAP1 PUSH2 0x7E2F JUMP JUMPDEST PUSH1 0x40 MLOAD DUP1 SWAP2 SUB SWAP1 REVERT JUMPDEST PUSH7 0x38D7EA4C68000 CALLVALUE LT ISZERO PUSH2 0x28AC JUMPI PUSH1 0x40 MLOAD PUSH32 0x8C379A000000000000000000000000000000000000000000000000000000000 DUP2 MSTORE PUSH1 0x4 ADD PUSH2 0x28A3 SWAP1 PUSH2 0x7E97 JUMP JUMPDEST PUSH1 0x40 MLOAD DUP1 SWAP2 SUB SWAP1 REVERT JUMPDEST PUSH0 DUP2 PUSH0 ADD MLOAD DUP3 PUSH1 0x40 ADD MLOAD DUP4 PUSH1 0x20 ADD MLOAD DUP5 PUSH1 0x60 ADD MLOAD PUSH1 0x40 MLOAD PUSH1 0x20 ADD PUSH2 0x28D3 SWAP5 SWAP4 SWAP3 SWAP2 SWAP1 PUSH2 0x7EEF JUMP JUMPDEST PUSH1 0x40 MLOAD PUSH1 0x20 DUP2 DUP4 SUB SUB DUP2 MSTORE SWAP1 PUSH1 0x40 MSTORE DUP1 MLOAD SWAP1 PUSH1 0x20 ADD KECCAK256 SWAP1 POP DUP2 PUSH1 0x80 ADD MLOAD DUP2 EQ PUSH2 0x2931 JUMPI PUSH1 0x40 MLOAD PUSH32 0x8C379A000000000000000000000000000000000000000000000000000000000 DUP2 MSTORE PUSH1 0x4 ADD PUSH2 0x2928 SWAP1 PUSH2 0x7F76 JUMP JUMPDEST PUSH1 0x40 MLOAD DUP1 SWAP2 SUB SWAP1 REVERT JUMPDEST TIMESTAMP DUP3 PUSH1 0xC0 ADD DUP2 DUP2 MSTORE POP POP PUSH0 DUP3 PUSH1 0xE0 ADD DUP2 DUP2 MSTORE POP POP PUSH1 0x3E DUP3 SWAP1 DUP1 PUSH1 0x1 DUP2 SLOAD ADD DUP1 DUP3 SSTORE DUP1 SWAP2 POP POP PUSH1 0x1 SWAP1 SUB SWAP1 PUSH0 MSTORE PUSH1 0x20 PUSH0 KECCAK256 SWAP1 PUSH1 0x8 MUL ADD PUSH0 SWAP1 SWAP2 SWAP1 SWAP2 SWAP1 SWAP2 POP PUSH0 DUP3 ADD MLOAD DUP2 PUSH0 ADD SWAP1 DUP2 PUSH2 0x2981 SWAP2 SWAP1 PUSH2 0x72FA JUMP JUMPDEST POP PUSH1 0x20 DUP3 ADD MLOAD DUP2 PUSH1 0x1 ADD SWAP1 DUP2 PUSH2 0x2997 SWAP2 SWAP1 PUSH2 0x72FA JUMP JUMPDEST POP PUSH1 0x40 DUP3 ADD MLOAD DUP2 PUSH1 0x2 ADD SWAP1 DUP2 PUSH2 0x29AD SWAP2 SWAP1 PUSH2 0x72FA JUMP JUMPDEST POP PUSH1 0x60 DUP3 ADD MLOAD DUP2 PUSH1 0x3 ADD SWAP1 DUP2 PUSH2 0x29C3 SWAP2 SWAP1 PUSH2 0x72FA JUMP JUMPDEST POP PUSH1 0x80 DUP3 ADD MLOAD DUP2 PUSH1 0x4 ADD SSTORE PUSH1 0xA0 DUP3 ADD MLOAD DUP2 PUSH1 0x5 ADD SWAP1 DUP2 PUSH2 0x29E3 SWAP2 SWAP1 PUSH2 0x72FA JUMP JUMPDEST POP PUSH1 0xC0 DUP3 ADD MLOAD DUP2 PUSH1 0x6 ADD SSTORE PUSH1 0xE0 DUP3 ADD MLOAD DUP2 PUSH1 0x7 ADD SSTORE POP POP PUSH1 0x1 PUSH1 0x3E DUP1 SLOAD SWAP1 POP PUSH2 0x2A0C SWAP2 SWAP1 PUSH2 0x7F94 JUMP JUMPDEST PUSH32 0xD75E0F38FA86696DCBAABFD45A3D7B9A804228A74D63AD451CD89BAC51F89B6 DUP4 PUSH1 0x40 MLOAD PUSH2 0x2A3B SWAP2 SWAP1 PUSH2 0x6DE2 JUMP JUMPDEST PUSH1 0x40 MLOAD DUP1 SWAP2 SUB SWAP1 LOG2 POP POP JUMP JUMPDEST PUSH7 0x38D7EA4C68000 DUP2 JUMP JUMPDEST PUSH0 DUP1 SLOAD SWAP1 PUSH2 0x100 EXP SWAP1 DIV PUSH20 0xFFFFFFFFFFFFFFFFFFFFFFFFFFFFFFFFFFFFFFFF AND DUP2 JUMP JUMPDEST PUSH1 0x46 PUSH1 0x20 MSTORE DUP2 PUSH0 MSTORE PUSH1 0x40 PUSH0 KECCAK256 DUP2 DUP2 SLOAD DUP2 LT PUSH2 0x2A8E JUMPI PUSH0 DUP1 REVERT JUMPDEST SWAP1 PUSH0 MSTORE PUSH1 0x20 PUSH0 KECCAK256 SWAP1 PUSH1 0x2 MUL ADD PUSH0 SWAP2 POP SWAP2 POP POP DUP1 PUSH0 ADD SLOAD SWAP1 DUP1 PUSH1 0x1 ADD SLOAD SWAP1 POP DUP3 JUMP JUMPDEST PUSH2 0x2AB7 PUSH2 0x5C84 JUMP JUMPDEST PUSH1 0x5 DUP1 SLOAD SWAP1 POP DUP3 LT PUSH2 0x2AFE JUMPI PUSH1 0x40 MLOAD PUSH32 0x8C379A000000000000000000000000000000000000000000000000000000000 DUP2 MSTORE PUSH1 0x4 ADD PUSH2 0x2AF5 SWAP1 PUSH2 0x8011 JUMP JUMPDEST PUSH1 0x40 MLOAD DUP1 SWAP2 SUB SWAP1 REVERT JUMPDEST PUSH1 0x4 PUSH0 PUSH1 0x5 DUP5 DUP2 SLOAD DUP2 LT PUSH2 0x2B15 JUMPI PUSH2 0x2B14 PUSH2 0x747B JUMP JUMPDEST JUMPDEST SWAP1 PUSH0 MSTORE PUSH1 0x20 PUSH0 KECCAK256 ADD PUSH0 SWAP1 SLOAD SWAP1 PUSH2 0x100 EXP SWAP1 DIV PUSH20 0xFFFFFFFFFFFFFFFFFFFFFFFFFFFFFFFFFFFFFFFF AND PUSH20 0xFFFFFFFFFFFFFFFFFFFFFFFFFFFFFFFFFFFFFFFF AND PUSH20 0xFFFFFFFFFFFFFFFFFFFFFFFFFFFFFFFFFFFFFFFF AND DUP2 MSTORE PUSH1 0x20 ADD SWAP1 DUP2 MSTORE PUSH1 0x20 ADD PUSH0 KECCAK256 PUSH1 0x40 MLOAD DUP1 PUSH1 0xE0 ADD PUSH1 0x40 MSTORE SWAP1 DUP2 PUSH0 DUP3 ADD DUP1 SLOAD PUSH2 0x2B90 SWAP1 PUSH2 0x712D JUMP JUMPDEST DUP1 PUSH1 0x1F ADD PUSH1 0x20 DUP1 SWAP2 DIV MUL PUSH1 0x20 ADD PUSH1 0x40 MLOAD SWAP1 DUP2 ADD PUSH1 0x40 MSTORE DUP1 SWAP3 SWAP2 SWAP1 DUP2 DUP2 MSTORE PUSH1 0x20 ADD DUP3 DUP1 SLOAD PUSH2 0x2BBC SWAP1 PUSH2 0x712D JUMP JUMPDEST DUP1 ISZERO PUSH2 0x2C07 JUMPI DUP1 PUSH1 0x1F LT PUSH2 0x2BDE JUMPI PUSH2 0x100 DUP1 DUP4 SLOAD DIV MUL DUP4 MSTORE SWAP2 PUSH1 0x20 ADD SWAP2 PUSH2 0x2C07 JUMP JUMPDEST DUP3 ADD SWAP2 SWAP1 PUSH0 MSTORE PUSH1 0x20 PUSH0 KECCAK256 SWAP1 JUMPDEST DUP2 SLOAD DUP2 MSTORE SWAP1 PUSH1 0x1 ADD SWAP1 PUSH1 0x20 ADD DUP1 DUP4 GT PUSH2 0x2BEA JUMPI DUP3 SWAP1 SUB PUSH1 0x1F AND DUP3 ADD SWAP2 JUMPDEST POP POP POP POP POP DUP2 MSTORE PUSH1 0x20 ADD PUSH1 0x1 DUP3 ADD DUP1 SLOAD PUSH2 0x2C20 SWAP1 PUSH2 0x712D JUMP JUMPDEST DUP1 PUSH1 0x1F ADD PUSH1 0x20 DUP1 SWAP2 DIV MUL PUSH1 0x20 ADD PUSH1 0x40 MLOAD SWAP1 DUP2 ADD PUSH1 0x40 MSTORE DUP1 SWAP3 SWAP2 SWAP1 DUP2 DUP2 MSTORE PUSH1 0x20 ADD DUP3 DUP1 SLOAD PUSH2 0x2C4C SWAP1 PUSH2 0x712D JUMP JUMPDEST DUP1 ISZERO PUSH2 0x2C97 JUMPI DUP1 PUSH1 0x1F LT PUSH2 0x2C6E JUMPI PUSH2 0x100 DUP1 DUP4 SLOAD DIV MUL DUP4 MSTORE SWAP2 PUSH1 0x20 ADD SWAP2 PUSH2 0x2C97 JUMP JUMPDEST DUP3 ADD SWAP2 SWAP1 PUSH0 MSTORE PUSH1 0x20 PUSH0 KECCAK256 SWAP1 JUMPDEST DUP2 SLOAD DUP2 MSTORE SWAP1 PUSH1 0x1 ADD SWAP1 PUSH1 0x20 ADD DUP1 DUP4 GT PUSH2 0x2C7A JUMPI DUP3 SWAP1 SUB PUSH1 0x1F AND DUP3 ADD SWAP2 JUMPDEST POP POP POP POP POP DUP2 MSTORE PUSH1 0x20 ADD PUSH1 0x2 DUP3 ADD DUP1 SLOAD PUSH2 0x2CB0 SWAP1 PUSH2 0x712D JUMP JUMPDEST DUP1 PUSH1 0x1F ADD PUSH1 0x20 DUP1 SWAP2 DIV MUL PUSH1 0x20 ADD PUSH1 0x40 MLOAD SWAP1 DUP2 ADD PUSH1 0x40 MSTORE DUP1 SWAP3 SWAP2 SWAP1 DUP2 DUP2 MSTORE PUSH1 0x20 ADD DUP3 DUP1 SLOAD PUSH2 0x2CDC SWAP1 PUSH2 0x712D JUMP JUMPDEST DUP1 ISZERO PUSH2 0x2D27 JUMPI DUP1 PUSH1 0x1F LT PUSH2 0x2CFE JUMPI PUSH2 0x100 DUP1 DUP4 SLOAD DIV MUL DUP4 MSTORE SWAP2 PUSH1 0x20 ADD SWAP2 PUSH2 0x2D27 JUMP JUMPDEST DUP3 ADD SWAP2 SWAP1 PUSH0 MSTORE PUSH1 0x20 PUSH0 KECCAK256 SWAP1 JUMPDEST DUP2 SLOAD DUP2 MSTORE SWAP1 PUSH1 0x1 ADD SWAP1 PUSH1 0x20 ADD DUP1 DUP4 GT PUSH2 0x2D0A JUMPI DUP3 SWAP1 SUB PUSH1 0x1F AND DUP3 ADD SWAP2 JUMPDEST POP POP POP POP POP DUP2 MSTORE PUSH1 0x20 ADD PUSH1 0x3 DUP3 ADD SLOAD DUP2 MSTORE PUSH1 0x20 ADD PUSH1 0x4 DUP3 ADD SLOAD DUP2 MSTORE PUSH1 0x20 ADD PUSH1 0x5 DUP3 ADD PUSH0 SWAP1 SLOAD SWAP1 PUSH2 0x100 EXP SWAP1 DIV PUSH1 0xFF AND ISZERO ISZERO ISZERO ISZERO DUP2 MSTORE PUSH1 0x20 ADD PUSH1 0x6 DUP3 ADD SLOAD DUP2 MSTORE POP POP SWAP1 POP SWAP2 SWAP1 POP JUMP JUMPDEST PUSH0 PUSH1 0x40 PUSH0 DUP4 PUSH20 0xFFFFFFFFFFFFFFFFFFFFFFFFFFFFFFFFFFFFFFFF AND PUSH20 0xFFFFFFFFFFFFFFFFFFFFFFFFFFFFFFFFFFFFFFFF AND DUP2 MSTORE PUSH1 0x20 ADD SWAP1 DUP2 MSTORE PUSH1 0x20 ADD PUSH0 KECCAK256 SLOAD SWAP1 POP SWAP2 SWAP1 POP JUMP JUMPDEST PUSH32 0x0 DUP2 JUMP JUMPDEST PUSH7 0x38D7EA4C68000 DUP2 JUMP JUMPDEST PUSH1 0x38 PUSH1 0x1 SWAP1 SLOAD SWAP1 PUSH2 0x100 EXP SWAP1 DIV PUSH20 0xFFFFFFFFFFFFFFFFFFFFFFFFFFFFFFFFFFFFFFFF AND DUP2 JUMP JUMPDEST PUSH0 PUSH1 0x4 PUSH0 DUP4 PUSH20 0xFFFFFFFFFFFFFFFFFFFFFFFFFFFFFFFFFFFFFFFF AND PUSH20 0xFFFFFFFFFFFFFFFFFFFFFFFFFFFFFFFFFFFFFFFF AND DUP2 MSTORE PUSH1 0x20 ADD SWAP1 DUP2 MSTORE PUSH1 0x20 ADD PUSH0 KECCAK256 PUSH1 0x5 ADD PUSH0 SWAP1 SLOAD SWAP1 PUSH2 0x100 EXP SWAP1 DIV PUSH1 0xFF AND PUSH2 0x2E97 JUMPI PUSH1 0x40 MLOAD PUSH32 0x8C379A000000000000000000000000000000000000000000000000000000000 DUP2 MSTORE PUSH1 0x4 ADD PUSH2 0x2E8E SWAP1 PUSH2 0x8079 JUMP JUMPDEST PUSH1 0x40 MLOAD DUP1 SWAP2 SUB SWAP1 REVERT JUMPDEST PUSH1 0x3B PUSH0 DUP4 PUSH20 0xFFFFFFFFFFFFFFFFFFFFFFFFFFFFFFFFFFFFFFFF AND PUSH20 0xFFFFFFFFFFFFFFFFFFFFFFFFFFFFFFFFFFFFFFFF AND DUP2 MSTORE PUSH1 0x20 ADD SWAP1 DUP2 MSTORE PUSH1 0x20 ADD PUSH0 KECCAK256 SLOAD SWAP1 POP SWAP2 SWAP1 POP JUMP JUMPDEST PUSH1 0xAC PUSH0 SWAP1 SLOAD SWAP1 PUSH2 0x100 EXP SWAP1 DIV PUSH1 0xFF AND DUP2 JUMP JUMPDEST PUSH0 PUSH1 0x40 MLOAD DUP1 PUSH1 0x40 ADD PUSH1 0x40 MSTORE DUP1 CALLVALUE DUP2 MSTORE PUSH1 0x20 ADD TIMESTAMP DUP2 MSTORE POP SWAP1 POP PUSH1 0x46 PUSH0 CALLER PUSH20 0xFFFFFFFFFFFFFFFFFFFFFFFFFFFFFFFFFFFFFFFF AND PUSH20 0xFFFFFFFFFFFFFFFFFFFFFFFFFFFFFFFFFFFFFFFF AND DUP2 MSTORE PUSH1 0x20 ADD SWAP1 DUP2 MSTORE PUSH1 0x20 ADD PUSH0 KECCAK256 DUP2 SWAP1 DUP1 PUSH1 0x1 DUP2 SLOAD ADD DUP1 DUP3 SSTORE DUP1 SWAP2 POP POP PUSH1 0x1 SWAP1 SUB SWAP1 PUSH0 MSTORE PUSH1 0x20 PUSH0 KECCAK256 SWAP1 PUSH1 0x2 MUL ADD PUSH0 SWAP1 SWAP2 SWAP1 SWAP2 SWAP1 SWAP2 POP PUSH0 DUP3 ADD MLOAD DUP2 PUSH0 ADD SSTORE PUSH1 0x20 DUP3 ADD MLOAD DUP2 PUSH1 0x1 ADD SSTORE POP POP CALLER PUSH20 0xFFFFFFFFFFFFFFFFFFFFFFFFFFFFFFFFFFFFFFFF AND PUSH32 0x976BE468429698A1B0AE0C20A0329BDB6E24722A3F834A2C54B84D63C1722F32 CALLVALUE PUSH1 0x40 MLOAD PUSH2 0x2FC4 SWAP2 SWAP1 PUSH2 0x8097 JUMP JUMPDEST PUSH1 0x40 MLOAD DUP1 SWAP2 SUB SWAP1 LOG2 POP JUMP JUMPDEST PUSH1 0xAD PUSH0 CALLER PUSH20 0xFFFFFFFFFFFFFFFFFFFFFFFFFFFFFFFFFFFFFFFF AND PUSH20 0xFFFFFFFFFFFFFFFFFFFFFFFFFFFFFFFFFFFFFFFF AND DUP2 MSTORE PUSH1 0x20 ADD SWAP1 DUP2 MSTORE PUSH1 0x20 ADD PUSH0 KECCAK256 PUSH0 SWAP1 SLOAD SWAP1 PUSH2 0x100 EXP SWAP1 DIV PUSH1 0xFF AND PUSH2 0x3058 JUMPI PUSH1 0x40 MLOAD PUSH32 0x8C379A000000000000000000000000000000000000000000000000000000000 DUP2 MSTORE PUSH1 0x4 ADD PUSH2 0x304F SWAP1 PUSH2 0x80FA JUMP JUMPDEST PUSH1 0x40 MLOAD DUP1 SWAP2 SUB SWAP1 REVERT JUMPDEST PUSH1 0x2 PUSH1 0x4 DUP2 GT ISZERO PUSH2 0x306C JUMPI PUSH2 0x306B PUSH2 0x6B36 JUMP JUMPDEST JUMPDEST PUSH2 0x3074 PUSH2 0x3674 JUMP JUMPDEST PUSH1 0x4 DUP2 GT ISZERO PUSH2 0x3086 JUMPI PUSH2 0x3085 PUSH2 0x6B36 JUMP JUMPDEST JUMPDEST EQ PUSH2 0x30C6 JUMPI PUSH1 0x40 MLOAD PUSH32 0x8C379A000000000000000000000000000000000000000000000000000000000 DUP2 MSTORE PUSH1 0x4 ADD PUSH2 0x30BD SWAP1 PUSH2 0x7CF7 JUMP JUMPDEST PUSH1 0x40 MLOAD DUP1 SWAP2 SUB SWAP1 REVERT JUMPDEST PUSH1 0xA PUSH4 0xFFFFFFFF AND PUSH1 0xA EQ DUP1 ISZERO PUSH2 0x30E4 JUMPI POP PUSH1 0xA PUSH4 0xFFFFFFFF AND PUSH1 0xA EQ JUMPDEST PUSH2 0x3123 JUMPI PUSH1 0x40 MLOAD PUSH32 0x8C379A000000000000000000000000000000000000000000000000000000000 DUP2 MSTORE PUSH1 0x4 ADD PUSH2 0x311A SWAP1 PUSH2 0x8162 JUMP JUMPDEST PUSH1 0x40 MLOAD DUP1 SWAP2 SUB SWAP1 REVERT JUMPDEST PUSH0 JUMPDEST PUSH1 0xA PUSH4 0xFFFFFFFF AND DUP2 PUSH1 0xFF AND LT ISZERO PUSH2 0x33AA JUMPI PUSH0 PUSH20 0xFFFFFFFFFFFFFFFFFFFFFFFFFFFFFFFFFFFFFFFF AND PUSH1 0x3F PUSH0 DUP6 DUP5 PUSH1 0xFF AND PUSH1 0xA DUP2 LT PUSH2 0x3167 JUMPI PUSH2 0x3166 PUSH2 0x747B JUMP JUMPDEST JUMPDEST PUSH1 0x20 MUL ADD CALLDATALOAD DUP2 MSTORE PUSH1 0x20 ADD SWAP1 DUP2 MSTORE PUSH1 0x20 ADD PUSH0 KECCAK256 PUSH0 PUSH1 0x2 DUP2 LT PUSH2 0x318B JUMPI PUSH2 0x318A PUSH2 0x747B JUMP JUMPDEST JUMPDEST ADD PUSH0 SWAP1 SLOAD SWAP1 PUSH2 0x100 EXP SWAP1 DIV PUSH20 0xFFFFFFFFFFFFFFFFFFFFFFFFFFFFFFFFFFFFFFFF AND PUSH20 0xFFFFFFFFFFFFFFFFFFFFFFFFFFFFFFFFFFFFFFFF AND SUB PUSH2 0x3248 JUMPI CALLER PUSH1 0x3F PUSH0 DUP6 DUP5 PUSH1 0xFF AND PUSH1 0xA DUP2 LT PUSH2 0x31E1 JUMPI PUSH2 0x31E0 PUSH2 0x747B JUMP JUMPDEST JUMPDEST PUSH1 0x20 MUL ADD CALLDATALOAD DUP2 MSTORE PUSH1 0x20 ADD SWAP1 DUP2 MSTORE PUSH1 0x20 ADD PUSH0 KECCAK256 PUSH0 PUSH1 0x2 DUP2 LT PUSH2 0x3205 JUMPI PUSH2 0x3204 PUSH2 0x747B JUMP JUMPDEST JUMPDEST ADD PUSH0 PUSH2 0x100 EXP DUP2 SLOAD DUP2 PUSH20 0xFFFFFFFFFFFFFFFFFFFFFFFFFFFFFFFFFFFFFFFF MUL NOT AND SWAP1 DUP4 PUSH20 0xFFFFFFFFFFFFFFFFFFFFFFFFFFFFFFFFFFFFFFFF AND MUL OR SWAP1 SSTORE POP PUSH2 0x3397 JUMP JUMPDEST PUSH0 PUSH20 0xFFFFFFFFFFFFFFFFFFFFFFFFFFFFFFFFFFFFFFFF AND PUSH1 0x3F PUSH0 DUP6 DUP5 PUSH1 0xFF AND PUSH1 0xA DUP2 LT PUSH2 0x3278 JUMPI PUSH2 0x3277 PUSH2 0x747B JUMP JUMPDEST JUMPDEST PUSH1 0x20 MUL ADD CALLDATALOAD DUP2 MSTORE PUSH1 0x20 ADD SWAP1 DUP2 MSTORE PUSH1 0x20 ADD PUSH0 KECCAK256 PUSH1 0x1 PUSH1 0x2 DUP2 LT PUSH2 0x329D JUMPI PUSH2 0x329C PUSH2 0x747B JUMP JUMPDEST JUMPDEST ADD PUSH0 SWAP1 SLOAD SWAP1 PUSH2 0x100 EXP SWAP1 DIV PUSH20 0xFFFFFFFFFFFFFFFFFFFFFFFFFFFFFFFFFFFFFFFF AND PUSH20 0xFFFFFFFFFFFFFFFFFFFFFFFFFFFFFFFFFFFFFFFF AND SUB PUSH2 0x335B JUMPI CALLER PUSH1 0x3F PUSH0 DUP6 DUP5 PUSH1 0xFF AND PUSH1 0xA DUP2 LT PUSH2 0x32F3 JUMPI PUSH2 0x32F2 PUSH2 0x747B JUMP JUMPDEST JUMPDEST PUSH1 0x20 MUL ADD CALLDATALOAD DUP2 MSTORE PUSH1 0x20 ADD SWAP1 DUP2 MSTORE PUSH1 0x20 ADD PUSH0 KECCAK256 PUSH1 0x1 PUSH1 0x2 DUP2 LT PUSH2 0x3318 JUMPI PUSH2 0x3317 PUSH2 0x747B JUMP JUMPDEST JUMPDEST ADD PUSH0 PUSH2 0x100 EXP DUP2 SLOAD DUP2 PUSH20 0xFFFFFFFFFFFFFFFFFFFFFFFFFFFFFFFFFFFFFFFF MUL NOT AND SWAP1 DUP4 PUSH20 0xFFFFFFFFFFFFFFFFFFFFFFFFFFFFFFFFFFFFFFFF AND MUL OR SWAP1 SSTORE POP PUSH2 0x3396 JUMP JUMPDEST PUSH1 0x40 MLOAD PUSH32 0x8C379A000000000000000000000000000000000000000000000000000000000 DUP2 MSTORE PUSH1 0x4 ADD PUSH2 0x338D SWAP1 PUSH2 0x81CA JUMP JUMPDEST PUSH1 0x40 MLOAD DUP1 SWAP2 SUB SWAP1 REVERT JUMPDEST JUMPDEST DUP1 DUP1 PUSH2 0x33A2 SWAP1 PUSH2 0x77AD JUMP JUMPDEST SWAP2 POP POP PUSH2 0x3125 JUMP JUMPDEST POP PUSH0 JUMPDEST PUSH1 0xA PUSH4 0xFFFFFFFF AND DUP2 PUSH1 0xFF AND LT ISZERO PUSH2 0x358A JUMPI PUSH0 PUSH20 0xFFFFFFFFFFFFFFFFFFFFFFFFFFFFFFFFFFFFFFFF AND DUP3 DUP3 PUSH1 0xFF AND PUSH1 0xA DUP2 LT PUSH2 0x33EC JUMPI PUSH2 0x33EB PUSH2 0x747B JUMP JUMPDEST JUMPDEST PUSH1 0x20 MUL ADD PUSH1 0x20 DUP2 ADD SWAP1 PUSH2 0x33FF SWAP2 SWAP1 PUSH2 0x6118 JUMP JUMPDEST PUSH20 0xFFFFFFFFFFFFFFFFFFFFFFFFFFFFFFFFFFFFFFFF AND SUB PUSH2 0x3455 JUMPI PUSH1 0x40 MLOAD PUSH32 0x8C379A000000000000000000000000000000000000000000000000000000000 DUP2 MSTORE PUSH1 0x4 ADD PUSH2 0x344C SWAP1 PUSH2 0x8232 JUMP JUMPDEST PUSH1 0x40 MLOAD DUP1 SWAP2 SUB SWAP1 REVERT JUMPDEST PUSH1 0x2 PUSH1 0x40 PUSH0 DUP5 DUP5 PUSH1 0xFF AND PUSH1 0xA DUP2 LT PUSH2 0x3470 JUMPI PUSH2 0x346F PUSH2 0x747B JUMP JUMPDEST JUMPDEST PUSH1 0x20 MUL ADD PUSH1 0x20 DUP2 ADD SWAP1 PUSH2 0x3483 SWAP2 SWAP1 PUSH2 0x6118 JUMP JUMPDEST PUSH20 0xFFFFFFFFFFFFFFFFFFFFFFFFFFFFFFFFFFFFFFFF AND PUSH20 0xFFFFFFFFFFFFFFFFFFFFFFFFFFFFFFFFFFFFFFFF AND DUP2 MSTORE PUSH1 0x20 ADD SWAP1 DUP2 MSTORE PUSH1 0x20 ADD PUSH0 KECCAK256 SLOAD LT PUSH2 0x34FD JUMPI PUSH1 0x40 MLOAD PUSH32 0x8C379A000000000000000000000000000000000000000000000000000000000 DUP2 MSTORE PUSH1 0x4 ADD PUSH2 0x34F4 SWAP1 PUSH2 0x82C0 JUMP JUMPDEST PUSH1 0x40 MLOAD DUP1 SWAP2 SUB SWAP1 REVERT JUMPDEST PUSH1 0x40 PUSH0 DUP4 DUP4 PUSH1 0xFF AND PUSH1 0xA DUP2 LT PUSH2 0x3516 JUMPI PUSH2 0x3515 PUSH2 0x747B JUMP JUMPDEST JUMPDEST PUSH1 0x20 MUL ADD PUSH1 0x20 DUP2 ADD SWAP1 PUSH2 0x3529 SWAP2 SWAP1 PUSH2 0x6118 JUMP JUMPDEST PUSH20 0xFFFFFFFFFFFFFFFFFFFFFFFFFFFFFFFFFFFFFFFF AND PUSH20 0xFFFFFFFFFFFFFFFFFFFFFFFFFFFFFFFFFFFFFFFF AND DUP2 MSTORE PUSH1 0x20 ADD SWAP1 DUP2 MSTORE PUSH1 0x20 ADD PUSH0 KECCAK256 PUSH0 DUP2 SLOAD DUP1 SWAP3 SWAP2 SWAP1 PUSH2 0x3572 SWAP1 PUSH2 0x82DE JUMP JUMPDEST SWAP2 SWAP1 POP SSTORE POP DUP1 DUP1 PUSH2 0x3582 SWAP1 PUSH2 0x77AD JUMP JUMPDEST SWAP2 POP POP PUSH2 0x33AD JUMP JUMPDEST POP PUSH1 0xA PUSH1 0x41 PUSH0 DUP3 DUP3 DUP3 SWAP1 SLOAD SWAP1 PUSH2 0x100 EXP SWAP1 DIV PUSH4 0xFFFFFFFF AND PUSH2 0x35AC SWAP2 SWAP1 PUSH2 0x8325 JUMP JUMPDEST SWAP3 POP PUSH2 0x100 EXP DUP2 SLOAD DUP2 PUSH4 0xFFFFFFFF MUL NOT AND SWAP1 DUP4 PUSH4 0xFFFFFFFF AND MUL OR SWAP1 SSTORE POP DUP1 PUSH1 0x40 MLOAD PUSH2 0x35D8 SWAP2 SWAP1 PUSH2 0x841F JUMP JUMPDEST PUSH1 0x40 MLOAD DUP1 SWAP2 SUB SWAP1 KECCAK256 PUSH32 0x2BA0AAA9C0E5919BF5CB9FDE7B2825194F9DC6E9AB2A9174C59892A1585C446A CALLER PUSH1 0x41 PUSH0 SWAP1 SLOAD SWAP1 PUSH2 0x100 EXP SWAP1 DIV PUSH4 0xFFFFFFFF AND PUSH1 0x40 MLOAD PUSH2 0x3622 SWAP3 SWAP2 SWAP1 PUSH2 0x846A JUMP JUMPDEST PUSH1 0x40 MLOAD DUP1 SWAP2 SUB SWAP1 LOG2 POP POP JUMP JUMPDEST PUSH1 0x47 DUP2 PUSH1 0x32 DUP2 LT PUSH2 0x363D JUMPI PUSH0 DUP1 REVERT JUMPDEST PUSH1 0x2 MUL ADD PUSH0 SWAP2 POP SWAP1 POP DUP1 PUSH0 ADD PUSH0 SWAP1 SLOAD SWAP1 PUSH2 0x100 EXP SWAP1 DIV PUSH20 0xFFFFFFFFFFFFFFFFFFFFFFFFFFFFFFFFFFFFFFFF AND SWAP1 DUP1 PUSH1 0x1 ADD SLOAD SWAP1 POP DUP3 JUMP JUMPDEST PUSH0 PUSH3 0x15180 PUSH1 0x1 SLOAD PUSH2 0x3686 SWAP2 SWAP1 PUSH2 0x7F94 JUMP JUMPDEST TIMESTAMP LT ISZERO PUSH2 0x3695 JUMPI PUSH0 SWAP1 POP PUSH2 0x3733 JUMP JUMPDEST PUSH1 0x1 SLOAD TIMESTAMP LT ISZERO PUSH2 0x3709 JUMPI PUSH1 0x32 PUSH1 0x2 PUSH2 0x36AD SWAP2 SWAP1 PUSH2 0x8491 JUMP JUMPDEST PUSH1 0xFF AND PUSH1 0x5 DUP1 SLOAD SWAP1 POP LT DUP1 PUSH2 0x36DC JUMPI POP PUSH2 0x3E8 PUSH4 0xFFFFFFFF AND PUSH1 0x3 PUSH0 SWAP1 SLOAD SWAP1 PUSH2 0x100 EXP SWAP1 DIV PUSH2 0xFFFF AND PUSH2 0xFFFF AND LT JUMPDEST ISZERO PUSH2 0x3700 JUMPI PUSH3 0x127500 PUSH1 0x1 SLOAD PUSH2 0x36F2 SWAP2 SWAP1 PUSH2 0x84CD JUMP JUMPDEST PUSH1 0x1 DUP2 SWAP1 SSTORE POP PUSH0 SWAP1 POP PUSH2 0x3733 JUMP JUMPDEST PUSH1 0x1 SWAP1 POP PUSH2 0x3733 JUMP JUMPDEST PUSH0 PUSH1 0x42 SLOAD SUB PUSH2 0x371B JUMPI PUSH1 0x2 SWAP1 POP PUSH2 0x3733 JUMP JUMPDEST PUSH1 0x42 SLOAD TIMESTAMP LT ISZERO PUSH2 0x372E JUMPI PUSH1 0x3 SWAP1 POP PUSH2 0x3733 JUMP JUMPDEST PUSH1 0x4 SWAP1 POP JUMPDEST SWAP1 JUMP JUMPDEST PUSH3 0x93A80 PUSH1 0x4 PUSH0 PUSH1 0x38 PUSH1 0x1 SWAP1 SLOAD SWAP1 PUSH2 0x100 EXP SWAP1 DIV PUSH20 0xFFFFFFFFFFFFFFFFFFFFFFFFFFFFFFFFFFFFFFFF AND PUSH20 0xFFFFFFFFFFFFFFFFFFFFFFFFFFFFFFFFFFFFFFFF AND PUSH20 0xFFFFFFFFFFFFFFFFFFFFFFFFFFFFFFFFFFFFFFFF AND DUP2 MSTORE PUSH1 0x20 ADD SWAP1 DUP2 MSTORE PUSH1 0x20 ADD PUSH0 KECCAK256 PUSH1 0x6 ADD SLOAD PUSH2 0x37A7 SWAP2 SWAP1 PUSH2 0x84CD JUMP JUMPDEST TIMESTAMP LT ISZERO PUSH2 0x37E9 JUMPI PUSH1 0x40 MLOAD PUSH32 0x8C379A000000000000000000000000000000000000000000000000000000000 DUP2 MSTORE PUSH1 0x4 ADD PUSH2 0x37E0 SWAP1 PUSH2 0x8570 JUMP JUMPDEST PUSH1 0x40 MLOAD DUP1 SWAP2 SUB SWAP1 REVERT JUMPDEST PUSH1 0x39 PUSH0 DUP2 SLOAD DUP1 SWAP3 SWAP2 SWAP1 PUSH2 0x37FB SWAP1 PUSH2 0x82DE JUMP JUMPDEST SWAP2 SWAP1 POP SSTORE POP PUSH1 0x32 PUSH1 0x39 SLOAD LT PUSH2 0x3812 JUMPI PUSH0 PUSH1 0x39 DUP2 SWAP1 SSTORE POP JUMPDEST PUSH1 0x6 PUSH1 0x39 SLOAD PUSH1 0x32 DUP2 LT PUSH2 0x3828 JUMPI PUSH2 0x3827 PUSH2 0x747B JUMP JUMPDEST JUMPDEST ADD PUSH0 SWAP1 SLOAD SWAP1 PUSH2 0x100 EXP SWAP1 DIV PUSH20 0xFFFFFFFFFFFFFFFFFFFFFFFFFFFFFFFFFFFFFFFF AND PUSH1 0x38 PUSH1 0x1 PUSH2 0x100 EXP DUP2 SLOAD DUP2 PUSH20 0xFFFFFFFFFFFFFFFFFFFFFFFFFFFFFFFFFFFFFFFF MUL NOT AND SWAP1 DUP4 PUSH20 0xFFFFFFFFFFFFFFFFFFFFFFFFFFFFFFFFFFFFFFFF AND MUL OR SWAP1 SSTORE POP TIMESTAMP PUSH1 0x4 PUSH0 PUSH1 0x38 PUSH1 0x1 SWAP1 SLOAD SWAP1 PUSH2 0x100 EXP SWAP1 DIV PUSH20 0xFFFFFFFFFFFFFFFFFFFFFFFFFFFFFFFFFFFFFFFF AND PUSH20 0xFFFFFFFFFFFFFFFFFFFFFFFFFFFFFFFFFFFFFFFF AND PUSH20 0xFFFFFFFFFFFFFFFFFFFFFFFFFFFFFFFFFFFFFFFF AND DUP2 MSTORE PUSH1 0x20 ADD SWAP1 DUP2 MSTORE PUSH1 0x20 ADD PUSH0 KECCAK256 PUSH1 0x6 ADD DUP2 SWAP1 SSTORE POP PUSH1 0x38 PUSH1 0x1 SWAP1 SLOAD SWAP1 PUSH2 0x100 EXP SWAP1 DIV PUSH20 0xFFFFFFFFFFFFFFFFFFFFFFFFFFFFFFFFFFFFFFFF AND PUSH20 0xFFFFFFFFFFFFFFFFFFFFFFFFFFFFFFFFFFFFFFFF AND PUSH32 0x8A84BB57BF3F6ADEFAA7A35A6A5067473F78164BFC14C2F6AE8B93E5B115B35A PUSH1 0x40 MLOAD PUSH1 0x40 MLOAD DUP1 SWAP2 SUB SWAP1 LOG2 JUMP JUMPDEST PUSH1 0x1 PUSH1 0x4 DUP2 GT ISZERO PUSH2 0x396B JUMPI PUSH2 0x396A PUSH2 0x6B36 JUMP JUMPDEST JUMPDEST PUSH2 0x3973 PUSH2 0x3674 JUMP JUMPDEST PUSH1 0x4 DUP2 GT ISZERO PUSH2 0x3985 JUMPI PUSH2 0x3984 PUSH2 0x6B36 JUMP JUMPDEST JUMPDEST EQ PUSH2 0x39C5 JUMPI PUSH1 0x40 MLOAD PUSH32 0x8C379A000000000000000000000000000000000000000000000000000000000 DUP2 MSTORE PUSH1 0x4 ADD PUSH2 0x39BC SWAP1 PUSH2 0x85D8 JUMP JUMPDEST PUSH1 0x40 MLOAD DUP1 SWAP2 SUB SWAP1 REVERT JUMPDEST PUSH1 0x5 DUP1 SLOAD SWAP1 POP DUP3 DUP3 SWAP1 POP GT ISZERO PUSH2 0x3A10 JUMPI PUSH1 0x40 MLOAD PUSH32 0x8C379A000000000000000000000000000000000000000000000000000000000 DUP2 MSTORE PUSH1 0x4 ADD PUSH2 0x3A07 SWAP1 PUSH2 0x8640 JUMP JUMPDEST PUSH1 0x40 MLOAD DUP1 SWAP2 SUB SWAP1 REVERT JUMPDEST PUSH1 0x1 PUSH1 0x2 PUSH0 CALLER PUSH20 0xFFFFFFFFFFFFFFFFFFFFFFFFFFFFFFFFFFFFFFFF AND PUSH20 0xFFFFFFFFFFFFFFFFFFFFFFFFFFFFFFFFFFFFFFFF AND DUP2 MSTORE PUSH1 0x20 ADD SWAP1 DUP2 MSTORE PUSH1 0x20 ADD PUSH0 KECCAK256 SLOAD EQ PUSH2 0x3A90 JUMPI PUSH1 0x40 MLOAD PUSH32 0x8C379A000000000000000000000000000000000000000000000000000000000 DUP2 MSTORE PUSH1 0x4 ADD PUSH2 0x3A87 SWAP1 PUSH2 0x86CE JUMP JUMPDEST PUSH1 0x40 MLOAD DUP1 SWAP2 SUB SWAP1 REVERT JUMPDEST PUSH0 PUSH1 0x5 DUP1 SLOAD SWAP1 POP PUSH8 0xFFFFFFFFFFFFFFFF DUP2 GT ISZERO PUSH2 0x3AB0 JUMPI PUSH2 0x3AAF PUSH2 0x5D76 JUMP JUMPDEST JUMPDEST PUSH1 0x40 MLOAD SWAP1 DUP1 DUP3 MSTORE DUP1 PUSH1 0x20 MUL PUSH1 0x20 ADD DUP3 ADD PUSH1 0x40 MSTORE DUP1 ISZERO PUSH2 0x3ADE JUMPI DUP2 PUSH1 0x20 ADD PUSH1 0x20 DUP3 MUL DUP1 CALLDATASIZE DUP4 CALLDATACOPY DUP1 DUP3 ADD SWAP2 POP POP SWAP1 POP JUMPDEST POP SWAP1 POP TIMESTAMP PUSH1 0x2 PUSH0 CALLER PUSH20 0xFFFFFFFFFFFFFFFFFFFFFFFFFFFFFFFFFFFFFFFF AND PUSH20 0xFFFFFFFFFFFFFFFFFFFFFFFFFFFFFFFFFFFFFFFF AND DUP2 MSTORE PUSH1 0x20 ADD SWAP1 DUP2 MSTORE PUSH1 0x20 ADD PUSH0 KECCAK256 DUP2 SWAP1 SSTORE POP CALLER PUSH20 0xFFFFFFFFFFFFFFFFFFFFFFFFFFFFFFFFFFFFFFFF AND PUSH32 0xB87A61D78BD15221C59B983F6EF032FBDE0631E66BFE18D1421FE5A73C16741D PUSH1 0x40 MLOAD PUSH1 0x40 MLOAD DUP1 SWAP2 SUB SWAP1 LOG2 PUSH0 JUMPDEST DUP4 DUP4 SWAP1 POP DUP2 LT ISZERO PUSH2 0x3CF7 JUMPI PUSH0 DUP5 DUP5 DUP4 DUP2 DUP2 LT PUSH2 0x3B87 JUMPI PUSH2 0x3B86 PUSH2 0x747B JUMP JUMPDEST JUMPDEST SWAP1 POP PUSH1 0x20 MUL ADD CALLDATALOAD SWAP1 POP PUSH1 0x5 DUP1 SLOAD SWAP1 POP DUP2 LT PUSH2 0x3BD7 JUMPI PUSH1 0x40 MLOAD PUSH32 0x8C379A000000000000000000000000000000000000000000000000000000000 DUP2 MSTORE PUSH1 0x4 ADD PUSH2 0x3BCE SWAP1 PUSH2 0x8736 JUMP JUMPDEST PUSH1 0x40 MLOAD DUP1 SWAP2 SUB SWAP1 REVERT JUMPDEST DUP3 DUP2 DUP2 MLOAD DUP2 LT PUSH2 0x3BEA JUMPI PUSH2 0x3BE9 PUSH2 0x747B JUMP JUMPDEST JUMPDEST PUSH1 0x20 MUL PUSH1 0x20 ADD ADD MLOAD ISZERO PUSH2 0x3C32 JUMPI PUSH1 0x40 MLOAD PUSH32 0x8C379A000000000000000000000000000000000000000000000000000000000 DUP2 MSTORE PUSH1 0x4 ADD PUSH2 0x3C29 SWAP1 PUSH2 0x879E JUMP JUMPDEST PUSH1 0x40 MLOAD DUP1 SWAP2 SUB SWAP1 REVERT JUMPDEST PUSH1 0x1 DUP4 DUP3 DUP2 MLOAD DUP2 LT PUSH2 0x3C47 JUMPI PUSH2 0x3C46 PUSH2 0x747B JUMP JUMPDEST JUMPDEST PUSH1 0x20 MUL PUSH1 0x20 ADD ADD SWAP1 ISZERO ISZERO SWAP1 DUP2 ISZERO ISZERO DUP2 MSTORE POP POP PUSH1 0x4 PUSH0 PUSH1 0x5 DUP4 DUP2 SLOAD DUP2 LT PUSH2 0x3C70 JUMPI PUSH2 0x3C6F PUSH2 0x747B JUMP JUMPDEST JUMPDEST SWAP1 PUSH0 MSTORE PUSH1 0x20 PUSH0 KECCAK256 ADD PUSH0 SWAP1 SLOAD SWAP1 PUSH2 0x100 EXP SWAP1 DIV PUSH20 0xFFFFFFFFFFFFFFFFFFFFFFFFFFFFFFFFFFFFFFFF AND PUSH20 0xFFFFFFFFFFFFFFFFFFFFFFFFFFFFFFFFFFFFFFFF AND PUSH20 0xFFFFFFFFFFFFFFFFFFFFFFFFFFFFFFFFFFFFFFFF AND DUP2 MSTORE PUSH1 0x20 ADD SWAP1 DUP2 MSTORE PUSH1 0x20 ADD PUSH0 KECCAK256 PUSH1 0x4 ADD PUSH0 DUP2 SLOAD DUP1 SWAP3 SWAP2 SWAP1 PUSH2 0x3CE4 SWAP1 PUSH2 0x82DE JUMP JUMPDEST SWAP2 SWAP1 POP SSTORE POP POP DUP1 DUP1 PUSH1 0x1 ADD SWAP2 POP POP PUSH2 0x3B68 JUMP JUMPDEST POP POP POP POP JUMP JUMPDEST PUSH1 0x42 SLOAD DUP2 JUMP JUMPDEST PUSH1 0x5 DUP2 DUP2 SLOAD DUP2 LT PUSH2 0x3D12 JUMPI PUSH0 DUP1 REVERT JUMPDEST SWAP1 PUSH0 MSTORE PUSH1 0x20 PUSH0 KECCAK256 ADD PUSH0 SWAP2 POP SLOAD SWAP1 PUSH2 0x100 EXP SWAP1 DIV PUSH20 0xFFFFFFFFFFFFFFFFFFFFFFFFFFFFFFFFFFFFFFFF AND DUP2 JUMP JUMPDEST PUSH1 0xA DUP2 JUMP JUMPDEST PUSH1 0x1E DUP2 JUMP JUMPDEST PUSH1 0x4 PUSH0 CALLER PUSH20 0xFFFFFFFFFFFFFFFFFFFFFFFFFFFFFFFFFFFFFFFF AND PUSH20 0xFFFFFFFFFFFFFFFFFFFFFFFFFFFFFFFFFFFFFFFF AND DUP2 MSTORE PUSH1 0x20 ADD SWAP1 DUP2 MSTORE PUSH1 0x20 ADD PUSH0 KECCAK256 PUSH1 0x5 ADD PUSH0 SWAP1 SLOAD SWAP1 PUSH2 0x100 EXP SWAP1 DIV PUSH1 0xFF AND PUSH2 0x3DD4 JUMPI PUSH1 0x40 MLOAD PUSH32 0x8C379A000000000000000000000000000000000000000000000000000000000 DUP2 MSTORE PUSH1 0x4 ADD PUSH2 0x3DCB SWAP1 PUSH2 0x8806 JUMP JUMPDEST PUSH1 0x40 MLOAD DUP1 SWAP2 SUB SWAP1 REVERT JUMPDEST PUSH2 0x1388 DUP2 GT ISZERO PUSH2 0x3E19 JUMPI PUSH1 0x40 MLOAD PUSH32 0x8C379A000000000000000000000000000000000000000000000000000000000 DUP2 MSTORE PUSH1 0x4 ADD PUSH2 0x3E10 SWAP1 PUSH2 0x886E JUMP JUMPDEST PUSH1 0x40 MLOAD DUP1 SWAP2 SUB SWAP1 REVERT JUMPDEST PUSH0 DUP1 PUSH1 0xAB PUSH0 CALLER PUSH20 0xFFFFFFFFFFFFFFFFFFFFFFFFFFFFFFFFFFFFFFFF AND PUSH20 0xFFFFFFFFFFFFFFFFFFFFFFFFFFFFFFFFFFFFFFFF AND DUP2 MSTORE PUSH1 0x20 ADD SWAP1 DUP2 MSTORE PUSH1 0x20 ADD PUSH0 KECCAK256 PUSH0 SWAP1 SLOAD SWAP1 PUSH2 0x100 EXP SWAP1 DIV PUSH1 0xFF AND SWAP1 POP PUSH0 DUP2 PUSH1 0xFF AND EQ DUP1 ISZERO PUSH2 0x3EE1 JUMPI POP CALLER PUSH20 0xFFFFFFFFFFFFFFFFFFFFFFFFFFFFFFFFFFFFFFFF AND PUSH1 0x47 DUP3 PUSH1 0xFF AND PUSH1 0x32 DUP2 LT PUSH2 0x3EA2 JUMPI PUSH2 0x3EA1 PUSH2 0x747B JUMP JUMPDEST JUMPDEST PUSH1 0x2 MUL ADD PUSH0 ADD PUSH0 SWAP1 SLOAD SWAP1 PUSH2 0x100 EXP SWAP1 DIV PUSH20 0xFFFFFFFFFFFFFFFFFFFFFFFFFFFFFFFFFFFFFFFF AND PUSH20 0xFFFFFFFFFFFFFFFFFFFFFFFFFFFFFFFFFFFFFFFF AND EQ ISZERO JUMPDEST ISZERO PUSH2 0x3F25 JUMPI PUSH1 0xAC PUSH0 DUP2 DUP2 SWAP1 SLOAD SWAP1 PUSH2 0x100 EXP SWAP1 DIV PUSH1 0xFF AND DUP1 SWAP3 SWAP2 SWAP1 PUSH2 0x3F04 SWAP1 PUSH2 0x77AD JUMP JUMPDEST SWAP2 SWAP1 PUSH2 0x100 EXP DUP2 SLOAD DUP2 PUSH1 0xFF MUL NOT AND SWAP1 DUP4 PUSH1 0xFF AND MUL OR SWAP1 SSTORE POP POP PUSH0 SWAP2 POP PUSH2 0x3F47 JUMP JUMPDEST PUSH1 0x47 DUP2 PUSH1 0xFF AND PUSH1 0x32 DUP2 LT PUSH2 0x3F3C JUMPI PUSH2 0x3F3B PUSH2 0x747B JUMP JUMPDEST JUMPDEST PUSH1 0x2 MUL ADD PUSH1 0x1 ADD SLOAD SWAP2 POP JUMPDEST PUSH0 DUP2 SWAP1 POP DUP3 DUP5 SUB PUSH2 0x3F5A JUMPI POP POP POP PUSH2 0x44DD JUMP JUMPDEST DUP3 DUP5 GT ISZERO PUSH2 0x410E JUMPI JUMPDEST PUSH1 0x1 PUSH1 0x32 PUSH2 0x3F71 SWAP2 SWAP1 PUSH2 0x888C JUMP JUMPDEST PUSH1 0xFF AND DUP2 PUSH1 0xFF AND LT DUP1 ISZERO PUSH2 0x3FAE JUMPI POP PUSH1 0x47 PUSH1 0x1 DUP3 PUSH2 0x3F8F SWAP2 SWAP1 PUSH2 0x88C0 JUMP JUMPDEST PUSH1 0xFF AND PUSH1 0x32 DUP2 LT PUSH2 0x3FA3 JUMPI PUSH2 0x3FA2 PUSH2 0x747B JUMP JUMPDEST JUMPDEST PUSH1 0x2 MUL ADD PUSH1 0x1 ADD SLOAD DUP5 GT JUMPDEST ISZERO PUSH2 0x4109 JUMPI PUSH1 0x47 PUSH1 0x1 DUP3 PUSH2 0x3FC2 SWAP2 SWAP1 PUSH2 0x88C0 JUMP JUMPDEST PUSH1 0xFF AND PUSH1 0x32 DUP2 LT PUSH2 0x3FD6 JUMPI PUSH2 0x3FD5 PUSH2 0x747B JUMP JUMPDEST JUMPDEST PUSH1 0x2 MUL ADD PUSH1 0x47 DUP3 PUSH1 0xFF AND PUSH1 0x32 DUP2 LT PUSH2 0x3FF1 JUMPI PUSH2 0x3FF0 PUSH2 0x747B JUMP JUMPDEST JUMPDEST PUSH1 0x2 MUL ADD PUSH0 DUP3 ADD PUSH0 SWAP1 SLOAD SWAP1 PUSH2 0x100 EXP SWAP1 DIV PUSH20 0xFFFFFFFFFFFFFFFFFFFFFFFFFFFFFFFFFFFFFFFF AND DUP2 PUSH0 ADD PUSH0 PUSH2 0x100 EXP DUP2 SLOAD DUP2 PUSH20 0xFFFFFFFFFFFFFFFFFFFFFFFFFFFFFFFFFFFFFFFF MUL NOT AND SWAP1 DUP4 PUSH20 0xFFFFFFFFFFFFFFFFFFFFFFFFFFFFFFFFFFFFFFFF AND MUL OR SWAP1 SSTORE POP PUSH1 0x1 DUP3 ADD SLOAD DUP2 PUSH1 0x1 ADD SSTORE SWAP1 POP POP DUP1 PUSH1 0xAB PUSH0 PUSH1 0x47 DUP5 PUSH1 0xFF AND PUSH1 0x32 DUP2 LT PUSH2 0x4080 JUMPI PUSH2 0x407F PUSH2 0x747B JUMP JUMPDEST JUMPDEST PUSH1 0x2 MUL ADD PUSH0 ADD PUSH0 SWAP1 SLOAD SWAP1 PUSH2 0x100 EXP SWAP1 DIV PUSH20 0xFFFFFFFFFFFFFFFFFFFFFFFFFFFFFFFFFFFFFFFF AND PUSH20 0xFFFFFFFFFFFFFFFFFFFFFFFFFFFFFFFFFFFFFFFF AND PUSH20 0xFFFFFFFFFFFFFFFFFFFFFFFFFFFFFFFFFFFFFFFF AND DUP2 MSTORE PUSH1 0x20 ADD SWAP1 DUP2 MSTORE PUSH1 0x20 ADD PUSH0 KECCAK256 PUSH0 PUSH2 0x100 EXP DUP2 SLOAD DUP2 PUSH1 0xFF MUL NOT AND SWAP1 DUP4 PUSH1 0xFF AND MUL OR SWAP1 SSTORE POP DUP1 DUP1 PUSH2 0x4101 SWAP1 PUSH2 0x77AD JUMP JUMPDEST SWAP2 POP POP PUSH2 0x3F63 JUMP JUMPDEST PUSH2 0x42A6 JUMP JUMPDEST JUMPDEST PUSH0 DUP2 PUSH1 0xFF AND GT DUP1 ISZERO PUSH2 0x414A JUMPI POP PUSH1 0x47 PUSH1 0x1 DUP3 PUSH2 0x412B SWAP2 SWAP1 PUSH2 0x888C JUMP JUMPDEST PUSH1 0xFF AND PUSH1 0x32 DUP2 LT PUSH2 0x413F JUMPI PUSH2 0x413E PUSH2 0x747B JUMP JUMPDEST JUMPDEST PUSH1 0x2 MUL ADD PUSH1 0x1 ADD SLOAD DUP5 LT JUMPDEST ISZERO PUSH2 0x42A5 JUMPI PUSH1 0x47 PUSH1 0x1 DUP3 PUSH2 0x415E SWAP2 SWAP1 PUSH2 0x888C JUMP JUMPDEST PUSH1 0xFF AND PUSH1 0x32 DUP2 LT PUSH2 0x4172 JUMPI PUSH2 0x4171 PUSH2 0x747B JUMP JUMPDEST JUMPDEST PUSH1 0x2 MUL ADD PUSH1 0x47 DUP3 PUSH1 0xFF AND PUSH1 0x32 DUP2 LT PUSH2 0x418D JUMPI PUSH2 0x418C PUSH2 0x747B JUMP JUMPDEST JUMPDEST PUSH1 0x2 MUL ADD PUSH0 DUP3 ADD PUSH0 SWAP1 SLOAD SWAP1 PUSH2 0x100 EXP SWAP1 DIV PUSH20 0xFFFFFFFFFFFFFFFFFFFFFFFFFFFFFFFFFFFFFFFF AND DUP2 PUSH0 ADD PUSH0 PUSH2 0x100 EXP DUP2 SLOAD DUP2 PUSH20 0xFFFFFFFFFFFFFFFFFFFFFFFFFFFFFFFFFFFFFFFF MUL NOT AND SWAP1 DUP4 PUSH20 0xFFFFFFFFFFFFFFFFFFFFFFFFFFFFFFFFFFFFFFFF AND MUL OR SWAP1 SSTORE POP PUSH1 0x1 DUP3 ADD SLOAD DUP2 PUSH1 0x1 ADD SSTORE SWAP1 POP POP DUP1 PUSH1 0xAB PUSH0 PUSH1 0x47 DUP5 PUSH1 0xFF AND PUSH1 0x32 DUP2 LT PUSH2 0x421C JUMPI PUSH2 0x421B PUSH2 0x747B JUMP JUMPDEST JUMPDEST PUSH1 0x2 MUL ADD PUSH0 ADD PUSH0 SWAP1 SLOAD SWAP1 PUSH2 0x100 EXP SWAP1 DIV PUSH20 0xFFFFFFFFFFFFFFFFFFFFFFFFFFFFFFFFFFFFFFFF AND PUSH20 0xFFFFFFFFFFFFFFFFFFFFFFFFFFFFFFFFFFFFFFFF AND PUSH20 0xFFFFFFFFFFFFFFFFFFFFFFFFFFFFFFFFFFFFFFFF AND DUP2 MSTORE PUSH1 0x20 ADD SWAP1 DUP2 MSTORE PUSH1 0x20 ADD PUSH0 KECCAK256 PUSH0 PUSH2 0x100 EXP DUP2 SLOAD DUP2 PUSH1 0xFF MUL NOT AND SWAP1 DUP4 PUSH1 0xFF AND MUL OR SWAP1 SSTORE POP DUP1 DUP1 PUSH2 0x429D SWAP1 PUSH2 0x88F4 JUMP JUMPDEST SWAP2 POP POP PUSH2 0x410F JUMP JUMPDEST JUMPDEST PUSH1 0x40 MLOAD DUP1 PUSH1 0x40 ADD PUSH1 0x40 MSTORE DUP1 CALLER PUSH20 0xFFFFFFFFFFFFFFFFFFFFFFFFFFFFFFFFFFFFFFFF AND DUP2 MSTORE PUSH1 0x20 ADD DUP6 DUP2 MSTORE POP PUSH1 0x47 DUP3 PUSH1 0xFF AND PUSH1 0x32 DUP2 LT PUSH2 0x42E8 JUMPI PUSH2 0x42E7 PUSH2 0x747B JUMP JUMPDEST JUMPDEST PUSH1 0x2 MUL ADD PUSH0 DUP3 ADD MLOAD DUP2 PUSH0 ADD PUSH0 PUSH2 0x100 EXP DUP2 SLOAD DUP2 PUSH20 0xFFFFFFFFFFFFFFFFFFFFFFFFFFFFFFFFFFFFFFFF MUL NOT AND SWAP1 DUP4 PUSH20 0xFFFFFFFFFFFFFFFFFFFFFFFFFFFFFFFFFFFFFFFF AND MUL OR SWAP1 SSTORE POP PUSH1 0x20 DUP3 ADD MLOAD DUP2 PUSH1 0x1 ADD SSTORE SWAP1 POP POP DUP1 PUSH1 0xAB PUSH0 CALLER PUSH20 0xFFFFFFFFFFFFFFFFFFFFFFFFFFFFFFFFFFFFFFFF AND PUSH20 0xFFFFFFFFFFFFFFFFFFFFFFFFFFFFFFFFFFFFFFFF AND DUP2 MSTORE PUSH1 0x20 ADD SWAP1 DUP2 MSTORE PUSH1 0x20 ADD PUSH0 KECCAK256 PUSH0 PUSH2 0x100 EXP DUP2 SLOAD DUP2 PUSH1 0xFF MUL NOT AND SWAP1 DUP4 PUSH1 0xFF AND MUL OR SWAP1 SSTORE POP CALLER PUSH20 0xFFFFFFFFFFFFFFFFFFFFFFFFFFFFFFFFFFFFFFFF AND PUSH32 0x1CE0BEAEC98D7537137A85C2D351C6C99900830D30FE8A7C353FA27225807E72 DUP5 DUP5 DUP8 DUP6 PUSH1 0x40 MLOAD PUSH2 0x43DE SWAP5 SWAP4 SWAP3 SWAP2 SWAP1 PUSH2 0x891B JUMP JUMPDEST PUSH1 0x40 MLOAD DUP1 SWAP2 SUB SWAP1 LOG2 PUSH1 0x47 PUSH1 0x2 PUSH1 0x32 PUSH2 0x43F6 SWAP2 SWAP1 PUSH2 0x898B JUMP JUMPDEST PUSH1 0xFF AND PUSH1 0x32 DUP2 LT PUSH2 0x440A JUMPI PUSH2 0x4409 PUSH2 0x747B JUMP JUMPDEST JUMPDEST PUSH1 0x2 MUL ADD PUSH1 0x1 ADD SLOAD PUSH1 0x44 SLOAD EQ PUSH2 0x44D9 JUMPI PUSH1 0x47 PUSH1 0x2 PUSH1 0x32 PUSH2 0x442A SWAP2 SWAP1 PUSH2 0x898B JUMP JUMPDEST PUSH1 0xFF AND PUSH1 0x32 DUP2 LT PUSH2 0x443E JUMPI PUSH2 0x443D PUSH2 0x747B JUMP JUMPDEST JUMPDEST PUSH1 0x2 MUL ADD PUSH1 0x1 ADD SLOAD PUSH1 0x44 DUP2 SWAP1 SSTORE POP PUSH1 0x45 PUSH1 0x40 MLOAD DUP1 PUSH1 0x40 ADD PUSH1 0x40 MSTORE DUP1 PUSH1 0x44 SLOAD DUP2 MSTORE PUSH1 0x20 ADD TIMESTAMP DUP2 MSTORE POP SWAP1 DUP1 PUSH1 0x1 DUP2 SLOAD ADD DUP1 DUP3 SSTORE DUP1 SWAP2 POP POP PUSH1 0x1 SWAP1 SUB SWAP1 PUSH0 MSTORE PUSH1 0x20 PUSH0 KECCAK256 SWAP1 PUSH1 0x2 MUL ADD PUSH0 SWAP1 SWAP2 SWAP1 SWAP2 SWAP1 SWAP2 POP PUSH0 DUP3 ADD MLOAD DUP2 PUSH0 ADD SSTORE PUSH1 0x20 DUP3 ADD MLOAD DUP2 PUSH1 0x1 ADD SSTORE POP POP PUSH32 0xA90E14BE5AA57B910AA6DC16C31FF1B5CDA380AE25A793B0D3F74DF6131A7D74 PUSH1 0x44 SLOAD PUSH1 0x40 MLOAD PUSH2 0x44D0 SWAP2 SWAP1 PUSH2 0x60D5 JUMP JUMPDEST PUSH1 0x40 MLOAD DUP1 SWAP2 SUB SWAP1 LOG1 JUMPDEST POP POP POP JUMPDEST POP JUMP JUMPDEST TIMESTAMP PUSH3 0x5C4900 PUSH1 0x1 SLOAD PUSH2 0x44F2 SWAP2 SWAP1 PUSH2 0x84CD JUMP JUMPDEST LT PUSH2 0x4532 JUMPI PUSH1 0x40 MLOAD PUSH32 0x8C379A000000000000000000000000000000000000000000000000000000000 DUP2 MSTORE PUSH1 0x4 ADD PUSH2 0x4529 SWAP1 PUSH2 0x8A05 JUMP JUMPDEST PUSH1 0x40 MLOAD DUP1 SWAP2 SUB SWAP1 REVERT JUMPDEST PUSH0 PUSH1 0x43 SLOAD EQ PUSH2 0x4576 JUMPI PUSH1 0x40 MLOAD PUSH32 0x8C379A000000000000000000000000000000000000000000000000000000000 DUP2 MSTORE PUSH1 0x4 ADD PUSH2 0x456D SWAP1 PUSH2 0x8A6D JUMP JUMPDEST PUSH1 0x40 MLOAD DUP1 SWAP2 SUB SWAP1 REVERT JUMPDEST PUSH1 0xA PUSH1 0xFF AND PUSH1 0x3E DUP1 SLOAD SWAP1 POP GT PUSH2 0x45C1 JUMPI PUSH1 0x40 MLOAD PUSH32 0x8C379A000000000000000000000000000000000000000000000000000000000 DUP2 MSTORE PUSH1 0x4 ADD PUSH2 0x45B8 SWAP1 PUSH2 0x8AD5 JUMP JUMPDEST PUSH1 0x40 MLOAD DUP1 SWAP2 SUB SWAP1 REVERT JUMPDEST PUSH3 0xF4240 PUSH4 0xFFFFFFFF AND PUSH1 0x41 PUSH0 SWAP1 SLOAD SWAP1 PUSH2 0x100 EXP SWAP1 DIV PUSH4 0xFFFFFFFF AND PUSH4 0xFFFFFFFF AND LT ISZERO PUSH2 0x4624 JUMPI PUSH1 0x40 MLOAD PUSH32 0x8C379A000000000000000000000000000000000000000000000000000000000 DUP2 MSTORE PUSH1 0x4 ADD PUSH2 0x461B SWAP1 PUSH2 0x8B3D JUMP JUMPDEST PUSH1 0x40 MLOAD DUP1 SWAP2 SUB SWAP1 REVERT JUMPDEST PUSH3 0x15180 TIMESTAMP PUSH2 0x4633 SWAP2 SWAP1 PUSH2 0x84CD JUMP JUMPDEST PUSH1 0x42 DUP2 SWAP1 SSTORE POP PUSH32 0xA0AB6B515144B30D8222A12E45D1C1DF7265286D8A0D9F73C23C8B06F6021871 PUSH1 0x40 MLOAD PUSH1 0x40 MLOAD DUP1 SWAP2 SUB SWAP1 LOG1 JUMP JUMPDEST PUSH1 0x42 SLOAD TIMESTAMP LT PUSH2 0x46AB JUMPI PUSH1 0x40 MLOAD PUSH32 0x8C379A000000000000000000000000000000000000000000000000000000000 DUP2 MSTORE PUSH1 0x4 ADD PUSH2 0x46A2 SWAP1 PUSH2 0x8BA5 JUMP JUMPDEST PUSH1 0x40 MLOAD DUP1 SWAP2 SUB SWAP1 REVERT JUMPDEST PUSH1 0x3E DUP1 SLOAD SWAP1 POP DUP3 DUP3 SWAP1 POP GT ISZERO PUSH2 0x46F6 JUMPI PUSH1 0x40 MLOAD PUSH32 0x8C379A000000000000000000000000000000000000000000000000000000000 DUP2 MSTORE PUSH1 0x4 ADD PUSH2 0x46ED SWAP1 PUSH2 0x8C0D JUMP JUMPDEST PUSH1 0x40 MLOAD DUP1 SWAP2 SUB SWAP1 REVERT JUMPDEST PUSH1 0x2 PUSH1 0x40 PUSH0 CALLER PUSH20 0xFFFFFFFFFFFFFFFFFFFFFFFFFFFFFFFFFFFFFFFF AND PUSH20 0xFFFFFFFFFFFFFFFFFFFFFFFFFFFFFFFFFFFFFFFF AND DUP2 MSTORE PUSH1 0x20 ADD SWAP1 DUP2 MSTORE PUSH1 0x20 ADD PUSH0 KECCAK256 SLOAD EQ PUSH2 0x4776 JUMPI PUSH1 0x40 MLOAD PUSH32 0x8C379A000000000000000000000000000000000000000000000000000000000 DUP2 MSTORE PUSH1 0x4 ADD PUSH2 0x476D SWAP1 PUSH2 0x8C9B JUMP JUMPDEST PUSH1 0x40 MLOAD DUP1 SWAP2 SUB SWAP1 REVERT JUMPDEST PUSH0 PUSH1 0x3E DUP1 SLOAD SWAP1 POP PUSH8 0xFFFFFFFFFFFFFFFF DUP2 GT ISZERO PUSH2 0x4796 JUMPI PUSH2 0x4795 PUSH2 0x5D76 JUMP JUMPDEST JUMPDEST PUSH1 0x40 MLOAD SWAP1 DUP1 DUP3 MSTORE DUP1 PUSH1 0x20 MUL PUSH1 0x20 ADD DUP3 ADD PUSH1 0x40 MSTORE DUP1 ISZERO PUSH2 0x47C4 JUMPI DUP2 PUSH1 0x20 ADD PUSH1 0x20 DUP3 MUL DUP1 CALLDATASIZE DUP4 CALLDATACOPY DUP1 DUP3 ADD SWAP2 POP POP SWAP1 POP JUMPDEST POP SWAP1 POP PUSH0 JUMPDEST DUP4 DUP4 SWAP1 POP DUP2 LT ISZERO PUSH2 0x4900 JUMPI PUSH0 DUP5 DUP5 DUP4 DUP2 DUP2 LT PUSH2 0x47E8 JUMPI PUSH2 0x47E7 PUSH2 0x747B JUMP JUMPDEST JUMPDEST SWAP1 POP PUSH1 0x20 MUL ADD CALLDATALOAD SWAP1 POP PUSH1 0x3E DUP1 SLOAD SWAP1 POP DUP2 LT PUSH2 0x4838 JUMPI PUSH1 0x40 MLOAD PUSH32 0x8C379A000000000000000000000000000000000000000000000000000000000 DUP2 MSTORE PUSH1 0x4 ADD PUSH2 0x482F SWAP1 PUSH2 0x8D03 JUMP JUMPDEST PUSH1 0x40 MLOAD DUP1 SWAP2 SUB SWAP1 REVERT JUMPDEST DUP3 DUP2 DUP2 MLOAD DUP2 LT PUSH2 0x484B JUMPI PUSH2 0x484A PUSH2 0x747B JUMP JUMPDEST JUMPDEST PUSH1 0x20 MUL PUSH1 0x20 ADD ADD MLOAD ISZERO PUSH2 0x4893 JUMPI PUSH1 0x40 MLOAD PUSH32 0x8C379A000000000000000000000000000000000000000000000000000000000 DUP2 MSTORE PUSH1 0x4 ADD PUSH2 0x488A SWAP1 PUSH2 0x8D6B JUMP JUMPDEST PUSH1 0x40 MLOAD DUP1 SWAP2 SUB SWAP1 REVERT JUMPDEST PUSH1 0x1 DUP4 DUP3 DUP2 MLOAD DUP2 LT PUSH2 0x48A8 JUMPI PUSH2 0x48A7 PUSH2 0x747B JUMP JUMPDEST JUMPDEST PUSH1 0x20 MUL PUSH1 0x20 ADD ADD SWAP1 ISZERO ISZERO SWAP1 DUP2 ISZERO ISZERO DUP2 MSTORE POP POP PUSH1 0x3E DUP2 DUP2 SLOAD DUP2 LT PUSH2 0x48CE JUMPI PUSH2 0x48CD PUSH2 0x747B JUMP JUMPDEST JUMPDEST SWAP1 PUSH0 MSTORE PUSH1 0x20 PUSH0 KECCAK256 SWAP1 PUSH1 0x8 MUL ADD PUSH1 0x7 ADD PUSH0 DUP2 SLOAD DUP1 SWAP3 SWAP2 SWAP1 PUSH2 0x48ED SWAP1 PUSH2 0x82DE JUMP JUMPDEST SWAP2 SWAP1 POP SSTORE POP POP DUP1 DUP1 PUSH1 0x1 ADD SWAP2 POP POP PUSH2 0x47C9 JUMP JUMPDEST POP TIMESTAMP PUSH1 0x40 PUSH0 CALLER PUSH20 0xFFFFFFFFFFFFFFFFFFFFFFFFFFFFFFFFFFFFFFFF AND PUSH20 0xFFFFFFFFFFFFFFFFFFFFFFFFFFFFFFFFFFFFFFFF AND DUP2 MSTORE PUSH1 0x20 ADD SWAP1 DUP2 MSTORE PUSH1 0x20 ADD PUSH0 KECCAK256 DUP2 SWAP1 SSTORE POP CALLER PUSH20 0xFFFFFFFFFFFFFFFFFFFFFFFFFFFFFFFFFFFFFFFF AND PUSH32 0x4B50B8927FD1B030F5404DC4394C2A5D30D7F6C6FA6D732C089FFE8C10F09421 PUSH1 0x40 MLOAD PUSH1 0x40 MLOAD DUP1 SWAP2 SUB SWAP1 LOG2 POP POP POP JUMP JUMPDEST PUSH3 0xF4240 DUP2 JUMP JUMPDEST PUSH1 0x1 SLOAD DUP2 JUMP JUMPDEST PUSH0 PUSH1 0x3A DUP1 SLOAD SWAP1 POP DUP4 LT PUSH2 0x49E0 JUMPI PUSH1 0x40 MLOAD PUSH32 0x8C379A000000000000000000000000000000000000000000000000000000000 DUP2 MSTORE PUSH1 0x4 ADD PUSH2 0x49D7 SWAP1 PUSH2 0x74F2 JUMP JUMPDEST PUSH1 0x40 MLOAD DUP1 SWAP2 SUB SWAP1 REVERT JUMPDEST PUSH1 0x4 PUSH0 DUP4 PUSH20 0xFFFFFFFFFFFFFFFFFFFFFFFFFFFFFFFFFFFFFFFF AND PUSH20 0xFFFFFFFFFFFFFFFFFFFFFFFFFFFFFFFFFFFFFFFF AND DUP2 MSTORE PUSH1 0x20 ADD SWAP1 DUP2 MSTORE PUSH1 0x20 ADD PUSH0 KECCAK256 PUSH1 0x5 ADD PUSH0 SWAP1 SLOAD SWAP1 PUSH2 0x100 EXP SWAP1 DIV PUSH1 0xFF AND PUSH2 0x4A6C JUMPI PUSH1 0x40 MLOAD PUSH32 0x8C379A000000000000000000000000000000000000000000000000000000000 DUP2 MSTORE PUSH1 0x4 ADD PUSH2 0x4A63 SWAP1 PUSH2 0x8079 JUMP JUMPDEST PUSH1 0x40 MLOAD DUP1 SWAP2 SUB SWAP1 REVERT JUMPDEST PUSH1 0x3C PUSH0 DUP4 PUSH20 0xFFFFFFFFFFFFFFFFFFFFFFFFFFFFFFFFFFFFFFFF AND PUSH20 0xFFFFFFFFFFFFFFFFFFFFFFFFFFFFFFFFFFFFFFFF AND DUP2 MSTORE PUSH1 0x20 ADD SWAP1 DUP2 MSTORE PUSH1 0x20 ADD PUSH0 KECCAK256 PUSH0 DUP5 DUP2 MSTORE PUSH1 0x20 ADD SWAP1 DUP2 MSTORE PUSH1 0x20 ADD PUSH0 KECCAK256 SLOAD SWAP1 POP SWAP3 SWAP2 POP POP JUMP JUMPDEST PUSH1 0x3D SLOAD DUP2 JUMP JUMPDEST PUSH1 0x41 PUSH0 SWAP1 SLOAD SWAP1 PUSH2 0x100 EXP SWAP1 DIV PUSH4 0xFFFFFFFF AND DUP2 JUMP JUMPDEST PUSH1 0x4 PUSH1 0x20 MSTORE DUP1 PUSH0 MSTORE PUSH1 0x40 PUSH0 KECCAK256 PUSH0 SWAP2 POP SWAP1 POP DUP1 PUSH0 ADD DUP1 SLOAD PUSH2 0x4AFB SWAP1 PUSH2 0x712D JUMP JUMPDEST DUP1 PUSH1 0x1F ADD PUSH1 0x20 DUP1 SWAP2 DIV MUL PUSH1 0x20 ADD PUSH1 0x40 MLOAD SWAP1 DUP2 ADD PUSH1 0x40 MSTORE DUP1 SWAP3 SWAP2 SWAP1 DUP2 DUP2 MSTORE PUSH1 0x20 ADD DUP3 DUP1 SLOAD PUSH2 0x4B27 SWAP1 PUSH2 0x712D JUMP JUMPDEST DUP1 ISZERO PUSH2 0x4B72 JUMPI DUP1 PUSH1 0x1F LT PUSH2 0x4B49 JUMPI PUSH2 0x100 DUP1 DUP4 SLOAD DIV MUL DUP4 MSTORE SWAP2 PUSH1 0x20 ADD SWAP2 PUSH2 0x4B72 JUMP JUMPDEST DUP3 ADD SWAP2 SWAP1 PUSH0 MSTORE PUSH1 0x20 PUSH0 KECCAK256 SWAP1 JUMPDEST DUP2 SLOAD DUP2 MSTORE SWAP1 PUSH1 0x1 ADD SWAP1 PUSH1 0x20 ADD DUP1 DUP4 GT PUSH2 0x4B55 JUMPI DUP3 SWAP1 SUB PUSH1 0x1F AND DUP3 ADD SWAP2 JUMPDEST POP POP POP POP POP SWAP1 DUP1 PUSH1 0x1 ADD DUP1 SLOAD PUSH2 0x4B87 SWAP1 PUSH2 0x712D JUMP JUMPDEST DUP1 PUSH1 0x1F ADD PUSH1 0x20 DUP1 SWAP2 DIV MUL PUSH1 0x20 ADD PUSH1 0x40 MLOAD SWAP1 DUP2 ADD PUSH1 0x40 MSTORE DUP1 SWAP3 SWAP2 SWAP1 DUP2 DUP2 MSTORE PUSH1 0x20 ADD DUP3 DUP1 SLOAD PUSH2 0x4BB3 SWAP1 PUSH2 0x712D JUMP JUMPDEST DUP1 ISZERO PUSH2 0x4BFE JUMPI DUP1 PUSH1 0x1F LT PUSH2 0x4BD5 JUMPI PUSH2 0x100 DUP1 DUP4 SLOAD DIV MUL DUP4 MSTORE SWAP2 PUSH1 0x20 ADD SWAP2 PUSH2 0x4BFE JUMP JUMPDEST DUP3 ADD SWAP2 SWAP1 PUSH0 MSTORE PUSH1 0x20 PUSH0 KECCAK256 SWAP1 JUMPDEST DUP2 SLOAD DUP2 MSTORE SWAP1 PUSH1 0x1 ADD SWAP1 PUSH1 0x20 ADD DUP1 DUP4 GT PUSH2 0x4BE1 JUMPI DUP3 SWAP1 SUB PUSH1 0x1F AND DUP3 ADD SWAP2 JUMPDEST POP POP POP POP POP SWAP1 DUP1 PUSH1 0x2 ADD DUP1 SLOAD PUSH2 0x4C13 SWAP1 PUSH2 0x712D JUMP JUMPDEST DUP1 PUSH1 0x1F ADD PUSH1 0x20 DUP1 SWAP2 DIV MUL PUSH1 0x20 ADD PUSH1 0x40 MLOAD SWAP1 DUP2 ADD PUSH1 0x40 MSTORE DUP1 SWAP3 SWAP2 SWAP1 DUP2 DUP2 MSTORE PUSH1 0x20 ADD DUP3 DUP1 SLOAD PUSH2 0x4C3F SWAP1 PUSH2 0x712D JUMP JUMPDEST DUP1 ISZERO PUSH2 0x4C8A JUMPI DUP1 PUSH1 0x1F LT PUSH2 0x4C61 JUMPI PUSH2 0x100 DUP1 DUP4 SLOAD DIV MUL DUP4 MSTORE SWAP2 PUSH1 0x20 ADD SWAP2 PUSH2 0x4C8A JUMP JUMPDEST DUP3 ADD SWAP2 SWAP1 PUSH0 MSTORE PUSH1 0x20 PUSH0 KECCAK256 SWAP1 JUMPDEST DUP2 SLOAD DUP2 MSTORE SWAP1 PUSH1 0x1 ADD SWAP1 PUSH1 0x20 ADD DUP1 DUP4 GT PUSH2 0x4C6D JUMPI DUP3 SWAP1 SUB PUSH1 0x1F AND DUP3 ADD SWAP2 JUMPDEST POP POP POP POP POP SWAP1 DUP1 PUSH1 0x3 ADD SLOAD SWAP1 DUP1 PUSH1 0x4 ADD SLOAD SWAP1 DUP1 PUSH1 0x5 ADD PUSH0 SWAP1 SLOAD SWAP1 PUSH2 0x100 EXP SWAP1 DIV PUSH1 0xFF AND SWAP1 DUP1 PUSH1 0x6 ADD SLOAD SWAP1 POP DUP8 JUMP JUMPDEST PUSH1 0xAB PUSH1 0x20 MSTORE DUP1 PUSH0 MSTORE PUSH1 0x40 PUSH0 KECCAK256 PUSH0 SWAP2 POP SLOAD SWAP1 PUSH2 0x100 EXP SWAP1 DIV PUSH1 0xFF AND DUP2 JUMP JUMPDEST PUSH2 0x4CDD PUSH2 0x5CBF JUMP JUMPDEST PUSH1 0x38 PUSH0 SWAP1 SLOAD SWAP1 PUSH2 0x100 EXP SWAP1 DIV PUSH1 0xFF AND ISZERO PUSH2 0x4D6B JUMPI PUSH1 0x6 PUSH1 0x32 DUP1 PUSH1 0x20 MUL PUSH1 0x40 MLOAD SWAP1 DUP2 ADD PUSH1 0x40 MSTORE DUP1 SWAP3 SWAP2 SWAP1 DUP3 PUSH1 0x32 DUP1 ISZERO PUSH2 0x4D5F JUMPI PUSH1 0x20 MUL DUP3 ADD SWAP2 JUMPDEST DUP2 PUSH0 SWAP1 SLOAD SWAP1 PUSH2 0x100 EXP SWAP1 DIV PUSH20 0xFFFFFFFFFFFFFFFFFFFFFFFFFFFFFFFFFFFFFFFF AND PUSH20 0xFFFFFFFFFFFFFFFFFFFFFFFFFFFFFFFFFFFFFFFF AND DUP2 MSTORE PUSH1 0x20 ADD SWAP1 PUSH1 0x1 ADD SWAP1 DUP1 DUP4 GT PUSH2 0x4D16 JUMPI JUMPDEST POP POP POP POP POP SWAP1 POP PUSH2 0x533C JUMP JUMPDEST PUSH1 0x1 SLOAD TIMESTAMP GT PUSH2 0x4DAF JUMPI PUSH1 0x40 MLOAD PUSH32 0x8C379A000000000000000000000000000000000000000000000000000000000 DUP2 MSTORE PUSH1 0x4 ADD PUSH2 0x4DA6 SWAP1 PUSH2 0x8DD3 JUMP JUMPDEST PUSH1 0x40 MLOAD DUP1 SWAP2 SUB SWAP1 REVERT JUMPDEST PUSH0 PUSH1 0x1 SWAP1 POP JUMPDEST PUSH1 0x32 PUSH1 0xFF AND DUP2 GT PUSH2 0x5158 JUMPI PUSH0 JUMPDEST DUP2 PUSH1 0x5 DUP1 SLOAD SWAP1 POP SUB DUP2 LT ISZERO PUSH2 0x5018 JUMPI PUSH1 0x4 PUSH0 PUSH1 0x5 PUSH1 0x1 DUP5 ADD DUP2 SLOAD DUP2 LT PUSH2 0x4DEB JUMPI PUSH2 0x4DEA PUSH2 0x747B JUMP JUMPDEST JUMPDEST SWAP1 PUSH0 MSTORE PUSH1 0x20 PUSH0 KECCAK256 ADD PUSH0 SWAP1 SLOAD SWAP1 PUSH2 0x100 EXP SWAP1 DIV PUSH20 0xFFFFFFFFFFFFFFFFFFFFFFFFFFFFFFFFFFFFFFFF AND PUSH20 0xFFFFFFFFFFFFFFFFFFFFFFFFFFFFFFFFFFFFFFFF AND PUSH20 0xFFFFFFFFFFFFFFFFFFFFFFFFFFFFFFFFFFFFFFFF AND DUP2 MSTORE PUSH1 0x20 ADD SWAP1 DUP2 MSTORE PUSH1 0x20 ADD PUSH0 KECCAK256 PUSH1 0x4 ADD SLOAD PUSH1 0x4 PUSH0 PUSH1 0x5 DUP5 DUP2 SLOAD DUP2 LT PUSH2 0x4E67 JUMPI PUSH2 0x4E66 PUSH2 0x747B JUMP JUMPDEST JUMPDEST SWAP1 PUSH0 MSTORE PUSH1 0x20 PUSH0 KECCAK256 ADD PUSH0 SWAP1 SLOAD SWAP1 PUSH2 0x100 EXP SWAP1 DIV PUSH20 0xFFFFFFFFFFFFFFFFFFFFFFFFFFFFFFFFFFFFFFFF AND PUSH20 0xFFFFFFFFFFFFFFFFFFFFFFFFFFFFFFFFFFFFFFFF AND PUSH20 0xFFFFFFFFFFFFFFFFFFFFFFFFFFFFFFFFFFFFFFFF AND DUP2 MSTORE PUSH1 0x20 ADD SWAP1 DUP2 MSTORE PUSH1 0x20 ADD PUSH0 KECCAK256 PUSH1 0x4 ADD SLOAD GT ISZERO PUSH2 0x500B JUMPI PUSH1 0x5 PUSH1 0x1 DUP3 ADD DUP2 SLOAD DUP2 LT PUSH2 0x4EE9 JUMPI PUSH2 0x4EE8 PUSH2 0x747B JUMP JUMPDEST JUMPDEST SWAP1 PUSH0 MSTORE PUSH1 0x20 PUSH0 KECCAK256 ADD PUSH0 SWAP1 SLOAD SWAP1 PUSH2 0x100 EXP SWAP1 DIV PUSH20 0xFFFFFFFFFFFFFFFFFFFFFFFFFFFFFFFFFFFFFFFF AND PUSH1 0x5 DUP3 DUP2 SLOAD DUP2 LT PUSH2 0x4F25 JUMPI PUSH2 0x4F24 PUSH2 0x747B JUMP JUMPDEST JUMPDEST SWAP1 PUSH0 MSTORE PUSH1 0x20 PUSH0 KECCAK256 ADD PUSH0 SWAP1 SLOAD SWAP1 PUSH2 0x100 EXP SWAP1 DIV PUSH20 0xFFFFFFFFFFFFFFFFFFFFFFFFFFFFFFFFFFFFFFFF AND PUSH1 0x5 DUP4 DUP2 SLOAD DUP2 LT PUSH2 0x4F61 JUMPI PUSH2 0x4F60 PUSH2 0x747B JUMP JUMPDEST JUMPDEST SWAP1 PUSH0 MSTORE PUSH1 0x20 PUSH0 KECCAK256 ADD PUSH0 PUSH1 0x5 PUSH1 0x1 DUP7 ADD DUP2 SLOAD DUP2 LT PUSH2 0x4F81 JUMPI PUSH2 0x4F80 PUSH2 0x747B JUMP JUMPDEST JUMPDEST SWAP1 PUSH0 MSTORE PUSH1 0x20 PUSH0 KECCAK256 ADD PUSH0 DUP5 SWAP2 SWAP1 PUSH2 0x100 EXP DUP2 SLOAD DUP2 PUSH20 0xFFFFFFFFFFFFFFFFFFFFFFFFFFFFFFFFFFFFFFFF MUL NOT AND SWAP1 DUP4 PUSH20 0xFFFFFFFFFFFFFFFFFFFFFFFFFFFFFFFFFFFFFFFF AND MUL OR SWAP1 SSTORE POP DUP4 SWAP2 SWAP1 PUSH2 0x100 EXP DUP2 SLOAD DUP2 PUSH20 0xFFFFFFFFFFFFFFFFFFFFFFFFFFFFFFFFFFFFFFFF MUL NOT AND SWAP1 DUP4 PUSH20 0xFFFFFFFFFFFFFFFFFFFFFFFFFFFFFFFFFFFFFFFF AND MUL OR SWAP1 SSTORE POP POP POP JUMPDEST DUP1 DUP1 PUSH1 0x1 ADD SWAP2 POP POP PUSH2 0x4DC2 JUMP JUMPDEST POP PUSH1 0x5 DUP2 PUSH1 0x5 DUP1 SLOAD SWAP1 POP SUB DUP2 SLOAD DUP2 LT PUSH2 0x5034 JUMPI PUSH2 0x5033 PUSH2 0x747B JUMP JUMPDEST JUMPDEST SWAP1 PUSH0 MSTORE PUSH1 0x20 PUSH0 KECCAK256 ADD PUSH0 SWAP1 SLOAD SWAP1 PUSH2 0x100 EXP SWAP1 DIV PUSH20 0xFFFFFFFFFFFFFFFFFFFFFFFFFFFFFFFFFFFFFFFF AND PUSH1 0x6 PUSH1 0x1 DUP4 SUB PUSH1 0x32 DUP2 LT PUSH2 0x5073 JUMPI PUSH2 0x5072 PUSH2 0x747B JUMP JUMPDEST JUMPDEST ADD PUSH0 PUSH2 0x100 EXP DUP2 SLOAD DUP2 PUSH20 0xFFFFFFFFFFFFFFFFFFFFFFFFFFFFFFFFFFFFFFFF MUL NOT AND SWAP1 DUP4 PUSH20 0xFFFFFFFFFFFFFFFFFFFFFFFFFFFFFFFFFFFFFFFF AND MUL OR SWAP1 SSTORE POP PUSH1 0x1 PUSH1 0x4 PUSH0 PUSH1 0x5 DUP5 PUSH1 0x5 DUP1 SLOAD SWAP1 POP SUB DUP2 SLOAD DUP2 LT PUSH2 0x50D1 JUMPI PUSH2 0x50D0 PUSH2 0x747B JUMP JUMPDEST JUMPDEST SWAP1 PUSH0 MSTORE PUSH1 0x20 PUSH0 KECCAK256 ADD PUSH0 SWAP1 SLOAD SWAP1 PUSH2 0x100 EXP SWAP1 DIV PUSH20 0xFFFFFFFFFFFFFFFFFFFFFFFFFFFFFFFFFFFFFFFF AND PUSH20 0xFFFFFFFFFFFFFFFFFFFFFFFFFFFFFFFFFFFFFFFF AND PUSH20 0xFFFFFFFFFFFFFFFFFFFFFFFFFFFFFFFFFFFFFFFF AND DUP2 MSTORE PUSH1 0x20 ADD SWAP1 DUP2 MSTORE PUSH1 0x20 ADD PUSH0 KECCAK256 PUSH1 0x5 ADD PUSH0 PUSH2 0x100 EXP DUP2 SLOAD DUP2 PUSH1 0xFF MUL NOT AND SWAP1 DUP4 ISZERO ISZERO MUL OR SWAP1 SSTORE POP DUP1 DUP1 PUSH1 0x1 ADD SWAP2 POP POP PUSH2 0x4DB5 JUMP JUMPDEST POP PUSH1 0x1 PUSH1 0x38 PUSH0 PUSH2 0x100 EXP DUP2 SLOAD DUP2 PUSH1 0xFF MUL NOT AND SWAP1 DUP4 ISZERO ISZERO MUL OR SWAP1 SSTORE POP PUSH1 0x6 PUSH0 PUSH1 0x32 DUP2 LT PUSH2 0x5187 JUMPI PUSH2 0x5186 PUSH2 0x747B JUMP JUMPDEST JUMPDEST ADD PUSH0 SWAP1 SLOAD SWAP1 PUSH2 0x100 EXP SWAP1 DIV PUSH20 0xFFFFFFFFFFFFFFFFFFFFFFFFFFFFFFFFFFFFFFFF AND PUSH1 0x38 PUSH1 0x1 PUSH2 0x100 EXP DUP2 SLOAD DUP2 PUSH20 0xFFFFFFFFFFFFFFFFFFFFFFFFFFFFFFFFFFFFFFFF MUL NOT AND SWAP1 DUP4 PUSH20 0xFFFFFFFFFFFFFFFFFFFFFFFFFFFFFFFFFFFFFFFF AND MUL OR SWAP1 SSTORE POP PUSH0 PUSH1 0x39 DUP2 SWAP1 SSTORE POP TIMESTAMP PUSH1 0x4 PUSH0 PUSH1 0x38 PUSH1 0x1 SWAP1 SLOAD SWAP1 PUSH2 0x100 EXP SWAP1 DIV PUSH20 0xFFFFFFFFFFFFFFFFFFFFFFFFFFFFFFFFFFFFFFFF AND PUSH20 0xFFFFFFFFFFFFFFFFFFFFFFFFFFFFFFFFFFFFFFFF AND PUSH20 0xFFFFFFFFFFFFFFFFFFFFFFFFFFFFFFFFFFFFFFFF AND DUP2 MSTORE PUSH1 0x20 ADD SWAP1 DUP2 MSTORE PUSH1 0x20 ADD PUSH0 KECCAK256 PUSH1 0x6 ADD DUP2 SWAP1 SSTORE POP PUSH1 0x6 PUSH1 0x40 MLOAD PUSH2 0x5265 SWAP2 SWAP1 PUSH2 0x8ECC JUMP JUMPDEST PUSH1 0x40 MLOAD DUP1 SWAP2 SUB SWAP1 KECCAK256 PUSH32 0x5BEFB7B9346D2ADF55904A87BBD0D35BCEDE9D28085A00C081C6168AC5ED6C44 PUSH1 0x38 PUSH1 0x1 SWAP1 SLOAD SWAP1 PUSH2 0x100 EXP SWAP1 DIV PUSH20 0xFFFFFFFFFFFFFFFFFFFFFFFFFFFFFFFFFFFFFFFF AND PUSH1 0x40 MLOAD PUSH2 0x52BE SWAP2 SWAP1 PUSH2 0x695F JUMP JUMPDEST PUSH1 0x40 MLOAD DUP1 SWAP2 SUB SWAP1 LOG2 PUSH1 0x6 PUSH1 0x32 DUP1 PUSH1 0x20 MUL PUSH1 0x40 MLOAD SWAP1 DUP2 ADD PUSH1 0x40 MSTORE DUP1 SWAP3 SWAP2 SWAP1 DUP3 PUSH1 0x32 DUP1 ISZERO PUSH2 0x5334 JUMPI PUSH1 0x20 MUL DUP3 ADD SWAP2 JUMPDEST DUP2 PUSH0 SWAP1 SLOAD SWAP1 PUSH2 0x100 EXP SWAP1 DIV PUSH20 0xFFFFFFFFFFFFFFFFFFFFFFFFFFFFFFFFFFFFFFFF AND PUSH20 0xFFFFFFFFFFFFFFFFFFFFFFFFFFFFFFFFFFFFFFFF AND DUP2 MSTORE PUSH1 0x20 ADD SWAP1 PUSH1 0x1 ADD SWAP1 DUP1 DUP4 GT PUSH2 0x52EB JUMPI JUMPDEST POP POP POP POP POP SWAP1 POP JUMPDEST SWAP1 JUMP JUMPDEST PUSH1 0x43 SLOAD DUP2 JUMP JUMPDEST PUSH1 0x45 DUP2 DUP2 SLOAD DUP2 LT PUSH2 0x5354 JUMPI PUSH0 DUP1 REVERT JUMPDEST SWAP1 PUSH0 MSTORE PUSH1 0x20 PUSH0 KECCAK256 SWAP1 PUSH1 0x2 MUL ADD PUSH0 SWAP2 POP SWAP1 POP DUP1 PUSH0 ADD SLOAD SWAP1 DUP1 PUSH1 0x1 ADD SLOAD SWAP1 POP DUP3 JUMP JUMPDEST PUSH2 0x537C PUSH2 0x5BEE JUMP JUMPDEST PUSH1 0x3E DUP1 SLOAD SWAP1 POP DUP3 LT PUSH2 0x53C3 JUMPI PUSH1 0x40 MLOAD PUSH32 0x8C379A000000000000000000000000000000000000000000000000000000000 DUP2 MSTORE PUSH1 0x4 ADD PUSH2 0x53BA SWAP1 PUSH2 0x8F31 JUMP JUMPDEST PUSH1 0x40 MLOAD DUP1 SWAP2 SUB SWAP1 REVERT JUMPDEST PUSH1 0x3E DUP3 DUP2 SLOAD DUP2 LT PUSH2 0x53D7 JUMPI PUSH2 0x53D6 PUSH2 0x747B JUMP JUMPDEST JUMPDEST SWAP1 PUSH0 MSTORE PUSH1 0x20 PUSH0 KECCAK256 SWAP1 PUSH1 0x8 MUL ADD PUSH1 0x40 MLOAD DUP1 PUSH2 0x100 ADD PUSH1 0x40 MSTORE SWAP1 DUP2 PUSH0 DUP3 ADD DUP1 SLOAD PUSH2 0x53FE SWAP1 PUSH2 0x712D JUMP JUMPDEST DUP1 PUSH1 0x1F ADD PUSH1 0x20 DUP1 SWAP2 DIV MUL PUSH1 0x20 ADD PUSH1 0x40 MLOAD SWAP1 DUP2 ADD PUSH1 0x40 MSTORE DUP1 SWAP3 SWAP2 SWAP1 DUP2 DUP2 MSTORE PUSH1 0x20 ADD DUP3 DUP1 SLOAD PUSH2 0x542A SWAP1 PUSH2 0x712D JUMP JUMPDEST DUP1 ISZERO PUSH2 0x5475 JUMPI DUP1 PUSH1 0x1F LT PUSH2 0x544C JUMPI PUSH2 0x100 DUP1 DUP4 SLOAD DIV MUL DUP4 MSTORE SWAP2 PUSH1 0x20 ADD SWAP2 PUSH2 0x5475 JUMP JUMPDEST DUP3 ADD SWAP2 SWAP1 PUSH0 MSTORE PUSH1 0x20 PUSH0 KECCAK256 SWAP1 JUMPDEST DUP2 SLOAD DUP2 MSTORE SWAP1 PUSH1 0x1 ADD SWAP1 PUSH1 0x20 ADD DUP1 DUP4 GT PUSH2 0x5458 JUMPI DUP3 SWAP1 SUB PUSH1 0x1F AND DUP3 ADD SWAP2 JUMPDEST POP POP POP POP POP DUP2 MSTORE PUSH1 0x20 ADD PUSH1 0x1 DUP3 ADD DUP1 SLOAD PUSH2 0x548E SWAP1 PUSH2 0x712D JUMP JUMPDEST DUP1 PUSH1 0x1F ADD PUSH1 0x20 DUP1 SWAP2 DIV MUL PUSH1 0x20 ADD PUSH1 0x40 MLOAD SWAP1 DUP2 ADD PUSH1 0x40 MSTORE DUP1 SWAP3 SWAP2 SWAP1 DUP2 DUP2 MSTORE PUSH1 0x20 ADD DUP3 DUP1 SLOAD PUSH2 0x54BA SWAP1 PUSH2 0x712D JUMP JUMPDEST DUP1 ISZERO PUSH2 0x5505 JUMPI DUP1 PUSH1 0x1F LT PUSH2 0x54DC JUMPI PUSH2 0x100 DUP1 DUP4 SLOAD DIV MUL DUP4 MSTORE SWAP2 PUSH1 0x20 ADD SWAP2 PUSH2 0x5505 JUMP JUMPDEST DUP3 ADD SWAP2 SWAP1 PUSH0 MSTORE PUSH1 0x20 PUSH0 KECCAK256 SWAP1 JUMPDEST DUP2 SLOAD DUP2 MSTORE SWAP1 PUSH1 0x1 ADD SWAP1 PUSH1 0x20 ADD DUP1 DUP4 GT PUSH2 0x54E8 JUMPI DUP3 SWAP1 SUB PUSH1 0x1F AND DUP3 ADD SWAP2 JUMPDEST POP POP POP POP POP DUP2 MSTORE PUSH1 0x20 ADD PUSH1 0x2 DUP3 ADD DUP1 SLOAD PUSH2 0x551E SWAP1 PUSH2 0x712D JUMP JUMPDEST DUP1 PUSH1 0x1F ADD PUSH1 0x20 DUP1 SWAP2 DIV MUL PUSH1 0x20 ADD PUSH1 0x40 MLOAD SWAP1 DUP2 ADD PUSH1 0x40 MSTORE DUP1 SWAP3 SWAP2 SWAP1 DUP2 DUP2 MSTORE PUSH1 0x20 ADD DUP3 DUP1 SLOAD PUSH2 0x554A SWAP1 PUSH2 0x712D JUMP JUMPDEST DUP1 ISZERO PUSH2 0x5595 JUMPI DUP1 PUSH1 0x1F LT PUSH2 0x556C JUMPI PUSH2 0x100 DUP1 DUP4 SLOAD DIV MUL DUP4 MSTORE SWAP2 PUSH1 0x20 ADD SWAP2 PUSH2 0x5595 JUMP JUMPDEST DUP3 ADD SWAP2 SWAP1 PUSH0 MSTORE PUSH1 0x20 PUSH0 KECCAK256 SWAP1 JUMPDEST DUP2 SLOAD DUP2 MSTORE SWAP1 PUSH1 0x1 ADD SWAP1 PUSH1 0x20 ADD DUP1 DUP4 GT PUSH2 0x5578 JUMPI DUP3 SWAP1 SUB PUSH1 0x1F AND DUP3 ADD SWAP2 JUMPDEST POP POP POP POP POP DUP2 MSTORE PUSH1 0x20 ADD PUSH1 0x3 DUP3 ADD DUP1 SLOAD PUSH2 0x55AE SWAP1 PUSH2 0x712D JUMP JUMPDEST DUP1 PUSH1 0x1F ADD PUSH1 0x20 DUP1 SWAP2 DIV MUL PUSH1 0x20 ADD PUSH1 0x40 MLOAD SWAP1 DUP2 ADD PUSH1 0x40 MSTORE DUP1 SWAP3 SWAP2 SWAP1 DUP2 DUP2 MSTORE PUSH1 0x20 ADD DUP3 DUP1 SLOAD PUSH2 0x55DA SWAP1 PUSH2 0x712D JUMP JUMPDEST DUP1 ISZERO PUSH2 0x5625 JUMPI DUP1 PUSH1 0x1F LT PUSH2 0x55FC JUMPI PUSH2 0x100 DUP1 DUP4 SLOAD DIV MUL DUP4 MSTORE SWAP2 PUSH1 0x20 ADD SWAP2 PUSH2 0x5625 JUMP JUMPDEST DUP3 ADD SWAP2 SWAP1 PUSH0 MSTORE PUSH1 0x20 PUSH0 KECCAK256 SWAP1 JUMPDEST DUP2 SLOAD DUP2 MSTORE SWAP1 PUSH1 0x1 ADD SWAP1 PUSH1 0x20 ADD DUP1 DUP4 GT PUSH2 0x5608 JUMPI DUP3 SWAP1 SUB PUSH1 0x1F AND DUP3 ADD SWAP2 JUMPDEST POP POP POP POP POP DUP2 MSTORE PUSH1 0x20 ADD PUSH1 0x4 DUP3 ADD SLOAD DUP2 MSTORE PUSH1 0x20 ADD PUSH1 0x5 DUP3 ADD DUP1 SLOAD PUSH2 0x5648 SWAP1 PUSH2 0x712D JUMP JUMPDEST DUP1 PUSH1 0x1F ADD PUSH1 0x20 DUP1 SWAP2 DIV MUL PUSH1 0x20 ADD PUSH1 0x40 MLOAD SWAP1 DUP2 ADD PUSH1 0x40 MSTORE DUP1 SWAP3 SWAP2 SWAP1 DUP2 DUP2 MSTORE PUSH1 0x20 ADD DUP3 DUP1 SLOAD PUSH2 0x5674 SWAP1 PUSH2 0x712D JUMP JUMPDEST DUP1 ISZERO PUSH2 0x56BF JUMPI DUP1 PUSH1 0x1F LT PUSH2 0x5696 JUMPI PUSH2 0x100 DUP1 DUP4 SLOAD DIV MUL DUP4 MSTORE SWAP2 PUSH1 0x20 ADD SWAP2 PUSH2 0x56BF JUMP JUMPDEST DUP3 ADD SWAP2 SWAP1 PUSH0 MSTORE PUSH1 0x20 PUSH0 KECCAK256 SWAP1 JUMPDEST DUP2 SLOAD DUP2 MSTORE SWAP1 PUSH1 0x1 ADD SWAP1 PUSH1 0x20 ADD DUP1 DUP4 GT PUSH2 0x56A2 JUMPI DUP3 SWAP1 SUB PUSH1 0x1F AND DUP3 ADD SWAP2 JUMPDEST POP POP POP POP POP DUP2 MSTORE PUSH1 0x20 ADD PUSH1 0x6 DUP3 ADD SLOAD DUP2 MSTORE PUSH1 0x20 ADD PUSH1 0x7 DUP3 ADD SLOAD DUP2 MSTORE POP POP SWAP1 POP SWAP2 SWAP1 POP JUMP JUMPDEST PUSH1 0xA DUP2 JUMP JUMPDEST PUSH0 DUP1 SLOAD SWAP1 PUSH2 0x100 EXP SWAP1 DIV PUSH20 0xFFFFFFFFFFFFFFFFFFFFFFFFFFFFFFFFFFFFFFFF AND PUSH20 0xFFFFFFFFFFFFFFFFFFFFFFFFFFFFFFFFFFFFFFFF AND CALLER PUSH20 0xFFFFFFFFFFFFFFFFFFFFFFFFFFFFFFFFFFFFFFFF AND EQ PUSH2 0x5775 JUMPI PUSH1 0x40 MLOAD PUSH32 0x8C379A000000000000000000000000000000000000000000000000000000000 DUP2 MSTORE PUSH1 0x4 ADD PUSH2 0x576C SWAP1 PUSH2 0x8F99 JUMP JUMPDEST PUSH1 0x40 MLOAD DUP1 SWAP2 SUB SWAP1 REVERT JUMPDEST PUSH0 PUSH1 0x4 DUP2 GT ISZERO PUSH2 0x5788 JUMPI PUSH2 0x5787 PUSH2 0x6B36 JUMP JUMPDEST JUMPDEST PUSH2 0x5790 PUSH2 0x3674 JUMP JUMPDEST PUSH1 0x4 DUP2 GT ISZERO PUSH2 0x57A2 JUMPI PUSH2 0x57A1 PUSH2 0x6B36 JUMP JUMPDEST JUMPDEST EQ PUSH2 0x57E2 JUMPI PUSH1 0x40 MLOAD PUSH32 0x8C379A000000000000000000000000000000000000000000000000000000000 DUP2 MSTORE PUSH1 0x4 ADD PUSH2 0x57D9 SWAP1 PUSH2 0x9001 JUMP JUMPDEST PUSH1 0x40 MLOAD DUP1 SWAP2 SUB SWAP1 REVERT JUMPDEST PUSH2 0x3E8 PUSH1 0x2 PUSH2 0x57F1 SWAP2 SWAP1 PUSH2 0x901F JUMP JUMPDEST PUSH4 0xFFFFFFFF AND PUSH1 0x3 PUSH0 SWAP1 SLOAD SWAP1 PUSH2 0x100 EXP SWAP1 DIV PUSH2 0xFFFF AND PUSH2 0xFFFF AND GT ISZERO PUSH2 0x584C JUMPI PUSH1 0x40 MLOAD PUSH32 0x8C379A000000000000000000000000000000000000000000000000000000000 DUP2 MSTORE PUSH1 0x4 ADD PUSH2 0x5843 SWAP1 PUSH2 0x90CB JUMP JUMPDEST PUSH1 0x40 MLOAD DUP1 SWAP2 SUB SWAP1 REVERT JUMPDEST PUSH0 PUSH20 0xFFFFFFFFFFFFFFFFFFFFFFFFFFFFFFFFFFFFFFFF AND DUP2 PUSH20 0xFFFFFFFFFFFFFFFFFFFFFFFFFFFFFFFFFFFFFFFF AND SUB PUSH2 0x58BA JUMPI PUSH1 0x40 MLOAD PUSH32 0x8C379A000000000000000000000000000000000000000000000000000000000 DUP2 MSTORE PUSH1 0x4 ADD PUSH2 0x58B1 SWAP1 PUSH2 0x8232 JUMP JUMPDEST PUSH1 0x40 MLOAD DUP1 SWAP2 SUB SWAP1 REVERT JUMPDEST PUSH0 PUSH1 0x2 PUSH0 DUP4 PUSH20 0xFFFFFFFFFFFFFFFFFFFFFFFFFFFFFFFFFFFFFFFF AND PUSH20 0xFFFFFFFFFFFFFFFFFFFFFFFFFFFFFFFFFFFFFFFF AND DUP2 MSTORE PUSH1 0x20 ADD SWAP1 DUP2 MSTORE PUSH1 0x20 ADD PUSH0 KECCAK256 SLOAD EQ PUSH2 0x5939 JUMPI PUSH1 0x40 MLOAD PUSH32 0x8C379A000000000000000000000000000000000000000000000000000000000 DUP2 MSTORE PUSH1 0x4 ADD PUSH2 0x5930 SWAP1 PUSH2 0x9159 JUMP JUMPDEST PUSH1 0x40 MLOAD DUP1 SWAP2 SUB SWAP1 REVERT JUMPDEST PUSH1 0x1 PUSH1 0x2 PUSH0 DUP4 PUSH20 0xFFFFFFFFFFFFFFFFFFFFFFFFFFFFFFFFFFFFFFFF AND PUSH20 0xFFFFFFFFFFFFFFFFFFFFFFFFFFFFFFFFFFFFFFFF AND DUP2 MSTORE PUSH1 0x20 ADD SWAP1 DUP2 MSTORE PUSH1 0x20 ADD PUSH0 KECCAK256 DUP2 SWAP1 SSTORE POP PUSH1 0x3 PUSH0 DUP2 DUP2 SWAP1 SLOAD SWAP1 PUSH2 0x100 EXP SWAP1 DIV PUSH2 0xFFFF AND DUP1 SWAP3 SWAP2 SWAP1 PUSH2 0x599B SWAP1 PUSH2 0x9184 JUMP JUMPDEST SWAP2 SWAP1 PUSH2 0x100 EXP DUP2 SLOAD DUP2 PUSH2 0xFFFF MUL NOT AND SWAP1 DUP4 PUSH2 0xFFFF AND MUL OR SWAP1 SSTORE POP POP DUP1 PUSH20 0xFFFFFFFFFFFFFFFFFFFFFFFFFFFFFFFFFFFFFFFF AND PUSH32 0x56AA1768B52DDCDDA65C5561181844717C2EED4BB3C848376D4420860DA04DAE PUSH1 0x3 PUSH0 SWAP1 SLOAD SWAP1 PUSH2 0x100 EXP SWAP1 DIV PUSH2 0xFFFF AND PUSH1 0x40 MLOAD PUSH2 0x5A0B SWAP2 SWAP1 PUSH2 0x91DD JUMP JUMPDEST PUSH1 0x40 MLOAD DUP1 SWAP2 SUB SWAP1 LOG2 POP JUMP JUMPDEST PUSH1 0x44 SLOAD DUP2 JUMP JUMPDEST PUSH0 PUSH1 0x3A DUP3 DUP2 SLOAD DUP2 LT PUSH2 0x5A31 JUMPI PUSH2 0x5A30 PUSH2 0x747B JUMP JUMPDEST JUMPDEST SWAP1 PUSH0 MSTORE PUSH1 0x20 PUSH0 KECCAK256 SWAP1 PUSH1 0x7 MUL ADD SWAP1 POP PUSH0 JUMPDEST DUP2 PUSH1 0x6 ADD DUP1 SLOAD SWAP1 POP DUP2 LT ISZERO PUSH2 0x5BC7 JUMPI PUSH0 DUP3 PUSH1 0x6 ADD DUP3 DUP2 SLOAD DUP2 LT PUSH2 0x5A67 JUMPI PUSH2 0x5A66 PUSH2 0x747B JUMP JUMPDEST JUMPDEST SWAP1 PUSH0 MSTORE PUSH1 0x20 PUSH0 KECCAK256 SWAP1 PUSH1 0x3 MUL ADD PUSH1 0x40 MLOAD DUP1 PUSH1 0x60 ADD PUSH1 0x40 MSTORE SWAP1 DUP2 PUSH0 DUP3 ADD SLOAD DUP2 MSTORE PUSH1 0x20 ADD PUSH1 0x1 DUP3 ADD PUSH0 SWAP1 SLOAD SWAP1 PUSH2 0x100 EXP SWAP1 DIV PUSH20 0xFFFFFFFFFFFFFFFFFFFFFFFFFFFFFFFFFFFFFFFF AND PUSH20 0xFFFFFFFFFFFFFFFFFFFFFFFFFFFFFFFFFFFFFFFF AND PUSH20 0xFFFFFFFFFFFFFFFFFFFFFFFFFFFFFFFFFFFFFFFF AND DUP2 MSTORE PUSH1 0x20 ADD PUSH1 0x2 DUP3 ADD DUP1 SLOAD PUSH2 0x5AEC SWAP1 PUSH2 0x712D JUMP JUMPDEST DUP1 PUSH1 0x1F ADD PUSH1 0x20 DUP1 SWAP2 DIV MUL PUSH1 0x20 ADD PUSH1 0x40 MLOAD SWAP1 DUP2 ADD PUSH1 0x40 MSTORE DUP1 SWAP3 SWAP2 SWAP1 DUP2 DUP2 MSTORE PUSH1 0x20 ADD DUP3 DUP1 SLOAD PUSH2 0x5B18 SWAP1 PUSH2 0x712D JUMP JUMPDEST DUP1 ISZERO PUSH2 0x5B63 JUMPI DUP1 PUSH1 0x1F LT PUSH2 0x5B3A JUMPI PUSH2 0x100 DUP1 DUP4 SLOAD DIV MUL DUP4 MSTORE SWAP2 PUSH1 0x20 ADD SWAP2 PUSH2 0x5B63 JUMP JUMPDEST DUP3 ADD SWAP2 SWAP1 PUSH0 MSTORE PUSH1 0x20 PUSH0 KECCAK256 SWAP1 JUMPDEST DUP2 SLOAD DUP2 MSTORE SWAP1 PUSH1 0x1 ADD SWAP1 PUSH1 0x20 ADD DUP1 DUP4 GT PUSH2 0x5B46 JUMPI DUP3 SWAP1 SUB PUSH1 0x1F AND DUP3 ADD SWAP2 JUMPDEST POP POP POP POP POP DUP2 MSTORE POP POP SWAP1 POP DUP1 PUSH1 0x20 ADD MLOAD PUSH20 0xFFFFFFFFFFFFFFFFFFFFFFFFFFFFFFFFFFFFFFFF AND PUSH2 0x8FC DUP3 PUSH0 ADD MLOAD SWAP1 DUP2 ISZERO MUL SWAP1 PUSH1 0x40 MLOAD PUSH0 PUSH1 0x40 MLOAD DUP1 DUP4 SUB DUP2 DUP6 DUP9 DUP9 CALL SWAP4 POP POP POP POP ISZERO DUP1 ISZERO PUSH2 0x5BB8 JUMPI RETURNDATASIZE PUSH0 DUP1 RETURNDATACOPY RETURNDATASIZE PUSH0 REVERT JUMPDEST POP POP DUP1 DUP1 PUSH1 0x1 ADD SWAP2 POP POP PUSH2 0x5A41 JUMP JUMPDEST POP POP POP JUMP JUMPDEST PUSH1 0x40 MLOAD DUP1 PUSH1 0x40 ADD PUSH1 0x40 MSTORE DUP1 PUSH1 0x2 SWAP1 PUSH1 0x20 DUP3 MUL DUP1 CALLDATASIZE DUP4 CALLDATACOPY DUP1 DUP3 ADD SWAP2 POP POP SWAP1 POP POP SWAP1 JUMP JUMPDEST PUSH1 0x40 MLOAD DUP1 PUSH2 0x100 ADD PUSH1 0x40 MSTORE DUP1 PUSH1 0x60 DUP2 MSTORE PUSH1 0x20 ADD PUSH1 0x60 DUP2 MSTORE PUSH1 0x20 ADD PUSH1 0x60 DUP2 MSTORE PUSH1 0x20 ADD PUSH1 0x60 DUP2 MSTORE PUSH1 0x20 ADD PUSH0 DUP1 NOT AND DUP2 MSTORE PUSH1 0x20 ADD PUSH1 0x60 DUP2 MSTORE PUSH1 0x20 ADD PUSH0 DUP2 MSTORE PUSH1 0x20 ADD PUSH0 DUP2 MSTORE POP SWAP1 JUMP JUMPDEST PUSH1 0x40 MLOAD DUP1 PUSH1 0xE0 ADD PUSH1 0x40 MSTORE DUP1 PUSH0 PUSH20 0xFFFFFFFFFFFFFFFFFFFFFFFFFFFFFFFFFFFFFFFF AND DUP2 MSTORE PUSH1 0x20 ADD PUSH1 0x60 DUP2 MSTORE PUSH1 0x20 ADD PUSH0 DUP2 MSTORE PUSH1 0x20 ADD PUSH0 DUP2 MSTORE PUSH1 0x20 ADD PUSH0 DUP2 MSTORE PUSH1 0x20 ADD PUSH0 PUSH1 0xFF AND DUP2 MSTORE PUSH1 0x20 ADD PUSH1 0x60 DUP2 MSTORE POP SWAP1 JUMP JUMPDEST PUSH1 0x40 MLOAD DUP1 PUSH1 0xE0 ADD PUSH1 0x40 MSTORE DUP1 PUSH1 0x60 DUP2 MSTORE PUSH1 0x20 ADD PUSH1 0x60 DUP2 MSTORE PUSH1 0x20 ADD PUSH1 0x60 DUP2 MSTORE PUSH1 0x20 ADD PUSH0 DUP2 MSTORE PUSH1 0x20 ADD PUSH0 DUP2 MSTORE PUSH1 0x20 ADD PUSH0 ISZERO ISZERO DUP2 MSTORE PUSH1 0x20 ADD PUSH0 DUP2 MSTORE POP SWAP1 JUMP JUMPDEST PUSH1 0x40 MLOAD DUP1 PUSH2 0x640 ADD PUSH1 0x40 MSTORE DUP1 PUSH1 0x32 SWAP1 PUSH1 0x20 DUP3 MUL DUP1 CALLDATASIZE DUP4 CALLDATACOPY DUP1 DUP3 ADD SWAP2 POP POP SWAP1 POP POP SWAP1 JUMP JUMPDEST PUSH0 PUSH1 0xFF DUP3 AND SWAP1 POP SWAP2 SWAP1 POP JUMP JUMPDEST PUSH2 0x5CF7 DUP2 PUSH2 0x5CE2 JUMP JUMPDEST DUP3 MSTORE POP POP JUMP JUMPDEST PUSH0 PUSH1 0x20 DUP3 ADD SWAP1 POP PUSH2 0x5D10 PUSH0 DUP4 ADD DUP5 PUSH2 0x5CEE JUMP JUMPDEST SWAP3 SWAP2 POP POP JUMP JUMPDEST PUSH0 PUSH4 0xFFFFFFFF DUP3 AND SWAP1 POP SWAP2 SWAP1 POP JUMP JUMPDEST PUSH2 0x5D2E DUP2 PUSH2 0x5D16 JUMP JUMPDEST DUP3 MSTORE POP POP JUMP JUMPDEST PUSH0 PUSH1 0x20 DUP3 ADD SWAP1 POP PUSH2 0x5D47 PUSH0 DUP4 ADD DUP5 PUSH2 0x5D25 JUMP JUMPDEST SWAP3 SWAP2 POP POP JUMP JUMPDEST PUSH0 PUSH1 0x40 MLOAD SWAP1 POP SWAP1 JUMP JUMPDEST PUSH0 DUP1 REVERT JUMPDEST PUSH0 DUP1 REVERT JUMPDEST PUSH0 DUP1 REVERT JUMPDEST PUSH0 DUP1 REVERT JUMPDEST PUSH0 PUSH1 0x1F NOT PUSH1 0x1F DUP4 ADD AND SWAP1 POP SWAP2 SWAP1 POP JUMP JUMPDEST PUSH32 0x4E487B7100000000000000000000000000000000000000000000000000000000 PUSH0 MSTORE PUSH1 0x41 PUSH1 0x4 MSTORE PUSH1 0x24 PUSH0 REVERT JUMPDEST PUSH2 0x5DAC DUP3 PUSH2 0x5D66 JUMP JUMPDEST DUP2 ADD DUP2 DUP2 LT PUSH8 0xFFFFFFFFFFFFFFFF DUP3 GT OR ISZERO PUSH2 0x5DCB JUMPI PUSH2 0x5DCA PUSH2 0x5D76 JUMP JUMPDEST JUMPDEST DUP1 PUSH1 0x40 MSTORE POP POP POP JUMP JUMPDEST PUSH0 PUSH2 0x5DDD PUSH2 0x5D4D JUMP JUMPDEST SWAP1 POP PUSH2 0x5DE9 DUP3 DUP3 PUSH2 0x5DA3 JUMP JUMPDEST SWAP2 SWAP1 POP JUMP JUMPDEST PUSH0 PUSH8 0xFFFFFFFFFFFFFFFF DUP3 GT ISZERO PUSH2 0x5E08 JUMPI PUSH2 0x5E07 PUSH2 0x5D76 JUMP JUMPDEST JUMPDEST PUSH2 0x5E11 DUP3 PUSH2 0x5D66 JUMP JUMPDEST SWAP1 POP PUSH1 0x20 DUP2 ADD SWAP1 POP SWAP2 SWAP1 POP JUMP JUMPDEST DUP3 DUP2 DUP4 CALLDATACOPY PUSH0 DUP4 DUP4 ADD MSTORE POP POP POP JUMP JUMPDEST PUSH0 PUSH2 0x5E3E PUSH2 0x5E39 DUP5 PUSH2 0x5DEE JUMP JUMPDEST PUSH2 0x5DD4 JUMP JUMPDEST SWAP1 POP DUP3 DUP2 MSTORE PUSH1 0x20 DUP2 ADD DUP5 DUP5 DUP5 ADD GT ISZERO PUSH2 0x5E5A JUMPI PUSH2 0x5E59 PUSH2 0x5D62 JUMP JUMPDEST JUMPDEST PUSH2 0x5E65 DUP5 DUP3 DUP6 PUSH2 0x5E1E JUMP JUMPDEST POP SWAP4 SWAP3 POP POP POP JUMP JUMPDEST PUSH0 DUP3 PUSH1 0x1F DUP4 ADD SLT PUSH2 0x5E81 JUMPI PUSH2 0x5E80 PUSH2 0x5D5E JUMP JUMPDEST JUMPDEST DUP2 CALLDATALOAD PUSH2 0x5E91 DUP5 DUP3 PUSH1 0x20 DUP7 ADD PUSH2 0x5E2C JUMP JUMPDEST SWAP2 POP POP SWAP3 SWAP2 POP POP JUMP JUMPDEST PUSH0 DUP1 PUSH0 PUSH1 0x60 DUP5 DUP7 SUB SLT ISZERO PUSH2 0x5EB1 JUMPI PUSH2 0x5EB0 PUSH2 0x5D56 JUMP JUMPDEST JUMPDEST PUSH0 DUP5 ADD CALLDATALOAD PUSH8 0xFFFFFFFFFFFFFFFF DUP2 GT ISZERO PUSH2 0x5ECE JUMPI PUSH2 0x5ECD PUSH2 0x5D5A JUMP JUMPDEST JUMPDEST PUSH2 0x5EDA DUP7 DUP3 DUP8 ADD PUSH2 0x5E6D JUMP JUMPDEST SWAP4 POP POP PUSH1 0x20 DUP5 ADD CALLDATALOAD PUSH8 0xFFFFFFFFFFFFFFFF DUP2 GT ISZERO PUSH2 0x5EFB JUMPI PUSH2 0x5EFA PUSH2 0x5D5A JUMP JUMPDEST JUMPDEST PUSH2 0x5F07 DUP7 DUP3 DUP8 ADD PUSH2 0x5E6D JUMP JUMPDEST SWAP3 POP POP PUSH1 0x40 DUP5 ADD CALLDATALOAD PUSH8 0xFFFFFFFFFFFFFFFF DUP2 GT ISZERO PUSH2 0x5F28 JUMPI PUSH2 0x5F27 PUSH2 0x5D5A JUMP JUMPDEST JUMPDEST PUSH2 0x5F34 DUP7 DUP3 DUP8 ADD PUSH2 0x5E6D JUMP JUMPDEST SWAP2 POP POP SWAP3 POP SWAP3 POP SWAP3 JUMP JUMPDEST PUSH0 DUP2 ISZERO ISZERO SWAP1 POP SWAP2 SWAP1 POP JUMP JUMPDEST PUSH2 0x5F52 DUP2 PUSH2 0x5F3E JUMP JUMPDEST DUP3 MSTORE POP POP JUMP JUMPDEST PUSH0 PUSH1 0x20 DUP3 ADD SWAP1 POP PUSH2 0x5F6B PUSH0 DUP4 ADD DUP5 PUSH2 0x5F49 JUMP JUMPDEST SWAP3 SWAP2 POP POP JUMP JUMPDEST PUSH0 DUP2 SWAP1 POP SWAP2 SWAP1 POP JUMP JUMPDEST PUSH2 0x5F83 DUP2 PUSH2 0x5F71 JUMP JUMPDEST DUP2 EQ PUSH2 0x5F8D JUMPI PUSH0 DUP1 REVERT JUMPDEST POP JUMP JUMPDEST PUSH0 DUP2 CALLDATALOAD SWAP1 POP PUSH2 0x5F9E DUP2 PUSH2 0x5F7A JUMP JUMPDEST SWAP3 SWAP2 POP POP JUMP JUMPDEST PUSH0 PUSH1 0x20 DUP3 DUP5 SUB SLT ISZERO PUSH2 0x5FB9 JUMPI PUSH2 0x5FB8 PUSH2 0x5D56 JUMP JUMPDEST JUMPDEST PUSH0 PUSH2 0x5FC6 DUP5 DUP3 DUP6 ADD PUSH2 0x5F90 JUMP JUMPDEST SWAP2 POP POP SWAP3 SWAP2 POP POP JUMP JUMPDEST PUSH0 PUSH1 0x2 SWAP1 POP SWAP2 SWAP1 POP JUMP JUMPDEST PUSH0 DUP2 SWAP1 POP SWAP3 SWAP2 POP POP JUMP JUMPDEST PUSH0 DUP2 SWAP1 POP SWAP2 SWAP1 POP JUMP JUMPDEST PUSH0 PUSH20 0xFFFFFFFFFFFFFFFFFFFFFFFFFFFFFFFFFFFFFFFF DUP3 AND SWAP1 POP SWAP2 SWAP1 POP JUMP JUMPDEST PUSH0 PUSH2 0x6015 DUP3 PUSH2 0x5FEC JUMP JUMPDEST SWAP1 POP SWAP2 SWAP1 POP JUMP JUMPDEST PUSH2 0x6025 DUP2 PUSH2 0x600B JUMP JUMPDEST DUP3 MSTORE POP POP JUMP JUMPDEST PUSH0 PUSH2 0x6036 DUP4 DUP4 PUSH2 0x601C JUMP JUMPDEST PUSH1 0x20 DUP4 ADD SWAP1 POP SWAP3 SWAP2 POP POP JUMP JUMPDEST PUSH0 PUSH1 0x20 DUP3 ADD SWAP1 POP SWAP2 SWAP1 POP JUMP JUMPDEST PUSH2 0x6057 DUP2 PUSH2 0x5FCF JUMP JUMPDEST PUSH2 0x6061 DUP2 DUP5 PUSH2 0x5FD9 JUMP JUMPDEST SWAP3 POP PUSH2 0x606C DUP3 PUSH2 0x5FE3 JUMP JUMPDEST DUP1 PUSH0 JUMPDEST DUP4 DUP2 LT ISZERO PUSH2 0x609C JUMPI DUP2 MLOAD PUSH2 0x6083 DUP8 DUP3 PUSH2 0x602B JUMP JUMPDEST SWAP7 POP PUSH2 0x608E DUP4 PUSH2 0x6042 JUMP JUMPDEST SWAP3 POP POP PUSH1 0x1 DUP2 ADD SWAP1 POP PUSH2 0x606F JUMP JUMPDEST POP POP POP POP POP POP JUMP JUMPDEST PUSH0 PUSH1 0x40 DUP3 ADD SWAP1 POP PUSH2 0x60B7 PUSH0 DUP4 ADD DUP5 PUSH2 0x604E JUMP JUMPDEST SWAP3 SWAP2 POP POP JUMP JUMPDEST PUSH0 DUP2 SWAP1 POP SWAP2 SWAP1 POP JUMP JUMPDEST PUSH2 0x60CF DUP2 PUSH2 0x60BD JUMP JUMPDEST DUP3 MSTORE POP POP JUMP JUMPDEST PUSH0 PUSH1 0x20 DUP3 ADD SWAP1 POP PUSH2 0x60E8 PUSH0 DUP4 ADD DUP5 PUSH2 0x60C6 JUMP JUMPDEST SWAP3 SWAP2 POP POP JUMP JUMPDEST PUSH2 0x60F7 DUP2 PUSH2 0x600B JUMP JUMPDEST DUP2 EQ PUSH2 0x6101 JUMPI PUSH0 DUP1 REVERT JUMPDEST POP JUMP JUMPDEST PUSH0 DUP2 CALLDATALOAD SWAP1 POP PUSH2 0x6112 DUP2 PUSH2 0x60EE JUMP JUMPDEST SWAP3 SWAP2 POP POP JUMP JUMPDEST PUSH0 PUSH1 0x20 DUP3 DUP5 SUB SLT ISZERO PUSH2 0x612D JUMPI PUSH2 0x612C PUSH2 0x5D56 JUMP JUMPDEST JUMPDEST PUSH0 PUSH2 0x613A DUP5 DUP3 DUP6 ADD PUSH2 0x6104 JUMP JUMPDEST SWAP2 POP POP SWAP3 SWAP2 POP POP JUMP JUMPDEST PUSH2 0x614C DUP2 PUSH2 0x60BD JUMP JUMPDEST DUP2 EQ PUSH2 0x6156 JUMPI PUSH0 DUP1 REVERT JUMPDEST POP JUMP JUMPDEST PUSH0 DUP2 CALLDATALOAD SWAP1 POP PUSH2 0x6167 DUP2 PUSH2 0x6143 JUMP JUMPDEST SWAP3 SWAP2 POP POP JUMP JUMPDEST PUSH0 DUP1 PUSH1 0x40 DUP4 DUP6 SUB SLT ISZERO PUSH2 0x6183 JUMPI PUSH2 0x6182 PUSH2 0x5D56 JUMP JUMPDEST JUMPDEST PUSH0 PUSH2 0x6190 DUP6 DUP3 DUP7 ADD PUSH2 0x6104 JUMP JUMPDEST SWAP3 POP POP PUSH1 0x20 PUSH2 0x61A1 DUP6 DUP3 DUP7 ADD PUSH2 0x6159 JUMP JUMPDEST SWAP2 POP POP SWAP3 POP SWAP3 SWAP1 POP JUMP JUMPDEST PUSH0 PUSH1 0x20 DUP3 DUP5 SUB SLT ISZERO PUSH2 0x61C0 JUMPI PUSH2 0x61BF PUSH2 0x5D56 JUMP JUMPDEST JUMPDEST PUSH0 PUSH2 0x61CD DUP5 DUP3 DUP6 ADD PUSH2 0x6159 JUMP JUMPDEST SWAP2 POP POP SWAP3 SWAP2 POP POP JUMP JUMPDEST PUSH2 0x61DF DUP2 PUSH2 0x600B JUMP JUMPDEST DUP3 MSTORE POP POP JUMP JUMPDEST PUSH0 DUP2 MLOAD SWAP1 POP SWAP2 SWAP1 POP JUMP JUMPDEST PUSH0 DUP3 DUP3 MSTORE PUSH1 0x20 DUP3 ADD SWAP1 POP SWAP3 SWAP2 POP POP JUMP JUMPDEST DUP3 DUP2 DUP4 MCOPY PUSH0 DUP4 DUP4 ADD MSTORE POP POP POP JUMP JUMPDEST PUSH0 PUSH2 0x6217 DUP3 PUSH2 0x61E5 JUMP JUMPDEST PUSH2 0x6221 DUP2 DUP6 PUSH2 0x61EF JUMP JUMPDEST SWAP4 POP PUSH2 0x6231 DUP2 DUP6 PUSH1 0x20 DUP7 ADD PUSH2 0x61FF JUMP JUMPDEST PUSH2 0x623A DUP2 PUSH2 0x5D66 JUMP JUMPDEST DUP5 ADD SWAP2 POP POP SWAP3 SWAP2 POP POP JUMP JUMPDEST PUSH0 PUSH1 0xC0 DUP3 ADD SWAP1 POP PUSH2 0x6258 PUSH0 DUP4 ADD DUP10 PUSH2 0x61D6 JUMP JUMPDEST DUP2 DUP2 SUB PUSH1 0x20 DUP4 ADD MSTORE PUSH2 0x626A DUP2 DUP9 PUSH2 0x620D JUMP JUMPDEST SWAP1 POP PUSH2 0x6279 PUSH1 0x40 DUP4 ADD DUP8 PUSH2 0x60C6 JUMP JUMPDEST PUSH2 0x6286 PUSH1 0x60 DUP4 ADD DUP7 PUSH2 0x60C6 JUMP JUMPDEST PUSH2 0x6293 PUSH1 0x80 DUP4 ADD DUP6 PUSH2 0x60C6 JUMP JUMPDEST PUSH2 0x62A0 PUSH1 0xA0 DUP4 ADD DUP5 PUSH2 0x5CEE JUMP JUMPDEST SWAP8 SWAP7 POP POP POP POP POP POP POP JUMP JUMPDEST PUSH2 0x62B4 DUP2 PUSH2 0x5F71 JUMP JUMPDEST DUP3 MSTORE POP POP JUMP JUMPDEST PUSH0 PUSH2 0x100 DUP3 ADD SWAP1 POP DUP2 DUP2 SUB PUSH0 DUP4 ADD MSTORE PUSH2 0x62D3 DUP2 DUP12 PUSH2 0x620D JUMP JUMPDEST SWAP1 POP DUP2 DUP2 SUB PUSH1 0x20 DUP4 ADD MSTORE PUSH2 0x62E7 DUP2 DUP11 PUSH2 0x620D JUMP JUMPDEST SWAP1 POP DUP2 DUP2 SUB PUSH1 0x40 DUP4 ADD MSTORE PUSH2 0x62FB DUP2 DUP10 PUSH2 0x620D JUMP JUMPDEST SWAP1 POP DUP2 DUP2 SUB PUSH1 0x60 DUP4 ADD MSTORE PUSH2 0x630F DUP2 DUP9 PUSH2 0x620D JUMP JUMPDEST SWAP1 POP PUSH2 0x631E PUSH1 0x80 DUP4 ADD DUP8 PUSH2 0x62AB JUMP JUMPDEST DUP2 DUP2 SUB PUSH1 0xA0 DUP4 ADD MSTORE PUSH2 0x6330 DUP2 DUP7 PUSH2 0x620D JUMP JUMPDEST SWAP1 POP PUSH2 0x633F PUSH1 0xC0 DUP4 ADD DUP6 PUSH2 0x60C6 JUMP JUMPDEST PUSH2 0x634C PUSH1 0xE0 DUP4 ADD DUP5 PUSH2 0x60C6 JUMP JUMPDEST SWAP10 SWAP9 POP POP POP POP POP POP POP POP POP JUMP JUMPDEST PUSH0 DUP3 DUP3 MSTORE PUSH1 0x20 DUP3 ADD SWAP1 POP SWAP3 SWAP2 POP POP JUMP JUMPDEST PUSH0 PUSH2 0x6373 DUP3 PUSH2 0x61E5 JUMP JUMPDEST PUSH2 0x637D DUP2 DUP6 PUSH2 0x6359 JUMP JUMPDEST SWAP4 POP PUSH2 0x638D DUP2 DUP6 PUSH1 0x20 DUP7 ADD PUSH2 0x61FF JUMP JUMPDEST PUSH2 0x6396 DUP2 PUSH2 0x5D66 JUMP JUMPDEST DUP5 ADD SWAP2 POP POP SWAP3 SWAP2 POP POP JUMP JUMPDEST PUSH2 0x63AA DUP2 PUSH2 0x5F71 JUMP JUMPDEST DUP3 MSTORE POP POP JUMP JUMPDEST PUSH2 0x63B9 DUP2 PUSH2 0x60BD JUMP JUMPDEST DUP3 MSTORE POP POP JUMP JUMPDEST PUSH0 PUSH2 0x100 DUP4 ADD PUSH0 DUP4 ADD MLOAD DUP5 DUP3 SUB PUSH0 DUP7 ADD MSTORE PUSH2 0x63DA DUP3 DUP3 PUSH2 0x6369 JUMP JUMPDEST SWAP2 POP POP PUSH1 0x20 DUP4 ADD MLOAD DUP5 DUP3 SUB PUSH1 0x20 DUP7 ADD MSTORE PUSH2 0x63F4 DUP3 DUP3 PUSH2 0x6369 JUMP JUMPDEST SWAP2 POP POP PUSH1 0x40 DUP4 ADD MLOAD DUP5 DUP3 SUB PUSH1 0x40 DUP7 ADD MSTORE PUSH2 0x640E DUP3 DUP3 PUSH2 0x6369 JUMP JUMPDEST SWAP2 POP POP PUSH1 0x60 DUP4 ADD MLOAD DUP5 DUP3 SUB PUSH1 0x60 DUP7 ADD MSTORE PUSH2 0x6428 DUP3 DUP3 PUSH2 0x6369 JUMP JUMPDEST SWAP2 POP POP PUSH1 0x80 DUP4 ADD MLOAD PUSH2 0x643D PUSH1 0x80 DUP7 ADD DUP3 PUSH2 0x63A1 JUMP JUMPDEST POP PUSH1 0xA0 DUP4 ADD MLOAD DUP5 DUP3 SUB PUSH1 0xA0 DUP7 ADD MSTORE PUSH2 0x6455 DUP3 DUP3 PUSH2 0x6369 JUMP JUMPDEST SWAP2 POP POP PUSH1 0xC0 DUP4 ADD MLOAD PUSH2 0x646A PUSH1 0xC0 DUP7 ADD DUP3 PUSH2 0x63B0 JUMP JUMPDEST POP PUSH1 0xE0 DUP4 ADD MLOAD PUSH2 0x647D PUSH1 0xE0 DUP7 ADD DUP3 PUSH2 0x63B0 JUMP JUMPDEST POP DUP1 SWAP2 POP POP SWAP3 SWAP2 POP POP JUMP JUMPDEST PUSH0 PUSH1 0x40 DUP3 ADD SWAP1 POP PUSH2 0x649B PUSH0 DUP4 ADD DUP6 PUSH2 0x60C6 JUMP JUMPDEST DUP2 DUP2 SUB PUSH1 0x20 DUP4 ADD MSTORE PUSH2 0x64AD DUP2 DUP5 PUSH2 0x63BF JUMP JUMPDEST SWAP1 POP SWAP4 SWAP3 POP POP POP JUMP JUMPDEST PUSH2 0x64BF DUP2 PUSH2 0x5CE2 JUMP JUMPDEST DUP3 MSTORE POP POP JUMP JUMPDEST PUSH0 DUP2 MLOAD SWAP1 POP SWAP2 SWAP1 POP JUMP JUMPDEST PUSH0 DUP3 DUP3 MSTORE PUSH1 0x20 DUP3 ADD SWAP1 POP SWAP3 SWAP2 POP POP JUMP JUMPDEST PUSH0 DUP2 SWAP1 POP PUSH1 0x20 DUP3 ADD SWAP1 POP SWAP2 SWAP1 POP JUMP JUMPDEST PUSH0 PUSH1 0x60 DUP4 ADD PUSH0 DUP4 ADD MLOAD PUSH2 0x6503 PUSH0 DUP7 ADD DUP3 PUSH2 0x63B0 JUMP JUMPDEST POP PUSH1 0x20 DUP4 ADD MLOAD PUSH2 0x6516 PUSH1 0x20 DUP7 ADD DUP3 PUSH2 0x601C JUMP JUMPDEST POP PUSH1 0x40 DUP4 ADD MLOAD DUP5 DUP3 SUB PUSH1 0x40 DUP7 ADD MSTORE PUSH2 0x652E DUP3 DUP3 PUSH2 0x6369 JUMP JUMPDEST SWAP2 POP POP DUP1 SWAP2 POP POP SWAP3 SWAP2 POP POP JUMP JUMPDEST PUSH0 PUSH2 0x6546 DUP4 DUP4 PUSH2 0x64EE JUMP JUMPDEST SWAP1 POP SWAP3 SWAP2 POP POP JUMP JUMPDEST PUSH0 PUSH1 0x20 DUP3 ADD SWAP1 POP SWAP2 SWAP1 POP JUMP JUMPDEST PUSH0 PUSH2 0x6564 DUP3 PUSH2 0x64C5 JUMP JUMPDEST PUSH2 0x656E DUP2 DUP6 PUSH2 0x64CF JUMP JUMPDEST SWAP4 POP DUP4 PUSH1 0x20 DUP3 MUL DUP6 ADD PUSH2 0x6580 DUP6 PUSH2 0x64DF JUMP JUMPDEST DUP1 PUSH0 JUMPDEST DUP6 DUP2 LT ISZERO PUSH2 0x65BB JUMPI DUP5 DUP5 SUB DUP10 MSTORE DUP2 MLOAD PUSH2 0x659C DUP6 DUP3 PUSH2 0x653B JUMP JUMPDEST SWAP5 POP PUSH2 0x65A7 DUP4 PUSH2 0x654E JUMP JUMPDEST SWAP3 POP PUSH1 0x20 DUP11 ADD SWAP10 POP POP PUSH1 0x1 DUP2 ADD SWAP1 POP PUSH2 0x6583 JUMP JUMPDEST POP DUP3 SWAP8 POP DUP8 SWAP6 POP POP POP POP POP POP SWAP3 SWAP2 POP POP JUMP JUMPDEST PUSH0 PUSH1 0xE0 DUP4 ADD PUSH0 DUP4 ADD MLOAD PUSH2 0x65E2 PUSH0 DUP7 ADD DUP3 PUSH2 0x601C JUMP JUMPDEST POP PUSH1 0x20 DUP4 ADD MLOAD DUP5 DUP3 SUB PUSH1 0x20 DUP7 ADD MSTORE PUSH2 0x65FA DUP3 DUP3 PUSH2 0x6369 JUMP JUMPDEST SWAP2 POP POP PUSH1 0x40 DUP4 ADD MLOAD PUSH2 0x660F PUSH1 0x40 DUP7 ADD DUP3 PUSH2 0x63B0 JUMP JUMPDEST POP PUSH1 0x60 DUP4 ADD MLOAD PUSH2 0x6622 PUSH1 0x60 DUP7 ADD DUP3 PUSH2 0x63B0 JUMP JUMPDEST POP PUSH1 0x80 DUP4 ADD MLOAD PUSH2 0x6635 PUSH1 0x80 DUP7 ADD DUP3 PUSH2 0x63B0 JUMP JUMPDEST POP PUSH1 0xA0 DUP4 ADD MLOAD PUSH2 0x6648 PUSH1 0xA0 DUP7 ADD DUP3 PUSH2 0x64B6 JUMP JUMPDEST POP PUSH1 0xC0 DUP4 ADD MLOAD DUP5 DUP3 SUB PUSH1 0xC0 DUP7 ADD MSTORE PUSH2 0x6660 DUP3 DUP3 PUSH2 0x655A JUMP JUMPDEST SWAP2 POP POP DUP1 SWAP2 POP POP SWAP3 SWAP2 POP POP JUMP JUMPDEST PUSH0 PUSH1 0x20 DUP3 ADD SWAP1 POP DUP2 DUP2 SUB PUSH0 DUP4 ADD MSTORE PUSH2 0x6685 DUP2 DUP5 PUSH2 0x65CD JUMP JUMPDEST SWAP1 POP SWAP3 SWAP2 POP POP JUMP JUMPDEST PUSH0 DUP1 REVERT JUMPDEST PUSH0 DUP1 REVERT JUMPDEST PUSH0 DUP1 DUP4 PUSH1 0x1F DUP5 ADD SLT PUSH2 0x66AA JUMPI PUSH2 0x66A9 PUSH2 0x5D5E JUMP JUMPDEST JUMPDEST DUP3 CALLDATALOAD SWAP1 POP PUSH8 0xFFFFFFFFFFFFFFFF DUP2 GT ISZERO PUSH2 0x66C7 JUMPI PUSH2 0x66C6 PUSH2 0x668D JUMP JUMPDEST JUMPDEST PUSH1 0x20 DUP4 ADD SWAP2 POP DUP4 PUSH1 0x1 DUP3 MUL DUP4 ADD GT ISZERO PUSH2 0x66E3 JUMPI PUSH2 0x66E2 PUSH2 0x6691 JUMP JUMPDEST JUMPDEST SWAP3 POP SWAP3 SWAP1 POP JUMP JUMPDEST PUSH0 DUP1 DUP4 PUSH1 0x1F DUP5 ADD SLT PUSH2 0x66FF JUMPI PUSH2 0x66FE PUSH2 0x5D5E JUMP JUMPDEST JUMPDEST DUP3 CALLDATALOAD SWAP1 POP PUSH8 0xFFFFFFFFFFFFFFFF DUP2 GT ISZERO PUSH2 0x671C JUMPI PUSH2 0x671B PUSH2 0x668D JUMP JUMPDEST JUMPDEST PUSH1 0x20 DUP4 ADD SWAP2 POP DUP4 PUSH1 0x20 DUP3 MUL DUP4 ADD GT ISZERO PUSH2 0x6738 JUMPI PUSH2 0x6737 PUSH2 0x6691 JUMP JUMPDEST JUMPDEST SWAP3 POP SWAP3 SWAP1 POP JUMP JUMPDEST PUSH0 DUP1 PUSH0 DUP1 PUSH1 0x40 DUP6 DUP8 SUB SLT ISZERO PUSH2 0x6757 JUMPI PUSH2 0x6756 PUSH2 0x5D56 JUMP JUMPDEST JUMPDEST PUSH0 DUP6 ADD CALLDATALOAD PUSH8 0xFFFFFFFFFFFFFFFF DUP2 GT ISZERO PUSH2 0x6774 JUMPI PUSH2 0x6773 PUSH2 0x5D5A JUMP JUMPDEST JUMPDEST PUSH2 0x6780 DUP8 DUP3 DUP9 ADD PUSH2 0x6695 JUMP JUMPDEST SWAP5 POP SWAP5 POP POP PUSH1 0x20 DUP6 ADD CALLDATALOAD PUSH8 0xFFFFFFFFFFFFFFFF DUP2 GT ISZERO PUSH2 0x67A3 JUMPI PUSH2 0x67A2 PUSH2 0x5D5A JUMP JUMPDEST JUMPDEST PUSH2 0x67AF DUP8 DUP3 DUP9 ADD PUSH2 0x66EA JUMP JUMPDEST SWAP3 POP SWAP3 POP POP SWAP3 SWAP6 SWAP2 SWAP5 POP SWAP3 POP JUMP JUMPDEST PUSH0 DUP1 REVERT JUMPDEST PUSH0 DUP1 REVERT JUMPDEST PUSH0 PUSH2 0x100 DUP3 DUP5 SUB SLT ISZERO PUSH2 0x67DB JUMPI PUSH2 0x67DA PUSH2 0x67BD JUMP JUMPDEST JUMPDEST PUSH2 0x67E6 PUSH2 0x100 PUSH2 0x5DD4 JUMP JUMPDEST SWAP1 POP PUSH0 DUP3 ADD CALLDATALOAD PUSH8 0xFFFFFFFFFFFFFFFF DUP2 GT ISZERO PUSH2 0x6805 JUMPI PUSH2 0x6804 PUSH2 0x67C1 JUMP JUMPDEST JUMPDEST PUSH2 0x6811 DUP5 DUP3 DUP6 ADD PUSH2 0x5E6D JUMP JUMPDEST PUSH0 DUP4 ADD MSTORE POP PUSH1 0x20 DUP3 ADD CALLDATALOAD PUSH8 0xFFFFFFFFFFFFFFFF DUP2 GT ISZERO PUSH2 0x6834 JUMPI PUSH2 0x6833 PUSH2 0x67C1 JUMP JUMPDEST JUMPDEST PUSH2 0x6840 DUP5 DUP3 DUP6 ADD PUSH2 0x5E6D JUMP JUMPDEST PUSH1 0x20 DUP4 ADD MSTORE POP PUSH1 0x40 DUP3 ADD CALLDATALOAD PUSH8 0xFFFFFFFFFFFFFFFF DUP2 GT ISZERO PUSH2 0x6864 JUMPI PUSH2 0x6863 PUSH2 0x67C1 JUMP JUMPDEST JUMPDEST PUSH2 0x6870 DUP5 DUP3 DUP6 ADD PUSH2 0x5E6D JUMP JUMPDEST PUSH1 0x40 DUP4 ADD MSTORE POP PUSH1 0x60 DUP3 ADD CALLDATALOAD PUSH8 0xFFFFFFFFFFFFFFFF DUP2 GT ISZERO PUSH2 0x6894 JUMPI PUSH2 0x6893 PUSH2 0x67C1 JUMP JUMPDEST JUMPDEST PUSH2 0x68A0 DUP5 DUP3 DUP6 ADD PUSH2 0x5E6D JUMP JUMPDEST PUSH1 0x60 DUP4 ADD MSTORE POP PUSH1 0x80 PUSH2 0x68B4 DUP5 DUP3 DUP6 ADD PUSH2 0x5F90 JUMP JUMPDEST PUSH1 0x80 DUP4 ADD MSTORE POP PUSH1 0xA0 DUP3 ADD CALLDATALOAD PUSH8 0xFFFFFFFFFFFFFFFF DUP2 GT ISZERO PUSH2 0x68D8 JUMPI PUSH2 0x68D7 PUSH2 0x67C1 JUMP JUMPDEST JUMPDEST PUSH2 0x68E4 DUP5 DUP3 DUP6 ADD PUSH2 0x5E6D JUMP JUMPDEST PUSH1 0xA0 DUP4 ADD MSTORE POP PUSH1 0xC0 PUSH2 0x68F8 DUP5 DUP3 DUP6 ADD PUSH2 0x6159 JUMP JUMPDEST PUSH1 0xC0 DUP4 ADD MSTORE POP PUSH1 0xE0 PUSH2 0x690C DUP5 DUP3 DUP6 ADD PUSH2 0x6159 JUMP JUMPDEST PUSH1 0xE0 DUP4 ADD MSTORE POP SWAP3 SWAP2 POP POP JUMP JUMPDEST PUSH0 PUSH1 0x20 DUP3 DUP5 SUB SLT ISZERO PUSH2 0x692D JUMPI PUSH2 0x692C PUSH2 0x5D56 JUMP JUMPDEST JUMPDEST PUSH0 DUP3 ADD CALLDATALOAD PUSH8 0xFFFFFFFFFFFFFFFF DUP2 GT ISZERO PUSH2 0x694A JUMPI PUSH2 0x6949 PUSH2 0x5D5A JUMP JUMPDEST JUMPDEST PUSH2 0x6956 DUP5 DUP3 DUP6 ADD PUSH2 0x67C5 JUMP JUMPDEST SWAP2 POP POP SWAP3 SWAP2 POP POP JUMP JUMPDEST PUSH0 PUSH1 0x20 DUP3 ADD SWAP1 POP PUSH2 0x6972 PUSH0 DUP4 ADD DUP5 PUSH2 0x61D6 JUMP JUMPDEST SWAP3 SWAP2 POP POP JUMP JUMPDEST PUSH0 DUP2 SWAP1 POP SWAP2 SWAP1 POP JUMP JUMPDEST PUSH2 0x698A DUP2 PUSH2 0x6978 JUMP JUMPDEST DUP3 MSTORE POP POP JUMP JUMPDEST PUSH0 PUSH1 0x40 DUP3 ADD SWAP1 POP PUSH2 0x69A3 PUSH0 DUP4 ADD DUP6 PUSH2 0x6981 JUMP JUMPDEST PUSH2 0x69B0 PUSH1 0x20 DUP4 ADD DUP5 PUSH2 0x60C6 JUMP JUMPDEST SWAP4 SWAP3 POP POP POP JUMP JUMPDEST PUSH2 0x69C0 DUP2 PUSH2 0x5F3E JUMP JUMPDEST DUP3 MSTORE POP POP JUMP JUMPDEST PUSH0 PUSH1 0xE0 DUP4 ADD PUSH0 DUP4 ADD MLOAD DUP5 DUP3 SUB PUSH0 DUP7 ADD MSTORE PUSH2 0x69E0 DUP3 DUP3 PUSH2 0x6369 JUMP JUMPDEST SWAP2 POP POP PUSH1 0x20 DUP4 ADD MLOAD DUP5 DUP3 SUB PUSH1 0x20 DUP7 ADD MSTORE PUSH2 0x69FA DUP3 DUP3 PUSH2 0x6369 JUMP JUMPDEST SWAP2 POP POP PUSH1 0x40 DUP4 ADD MLOAD DUP5 DUP3 SUB PUSH1 0x40 DUP7 ADD MSTORE PUSH2 0x6A14 DUP3 DUP3 PUSH2 0x6369 JUMP JUMPDEST SWAP2 POP POP PUSH1 0x60 DUP4 ADD MLOAD PUSH2 0x6A29 PUSH1 0x60 DUP7 ADD DUP3 PUSH2 0x63B0 JUMP JUMPDEST POP PUSH1 0x80 DUP4 ADD MLOAD PUSH2 0x6A3C PUSH1 0x80 DUP7 ADD DUP3 PUSH2 0x63B0 JUMP JUMPDEST POP PUSH1 0xA0 DUP4 ADD MLOAD PUSH2 0x6A4F PUSH1 0xA0 DUP7 ADD DUP3 PUSH2 0x69B7 JUMP JUMPDEST POP PUSH1 0xC0 DUP4 ADD MLOAD PUSH2 0x6A62 PUSH1 0xC0 DUP7 ADD DUP3 PUSH2 0x63B0 JUMP JUMPDEST POP DUP1 SWAP2 POP POP SWAP3 SWAP2 POP POP JUMP JUMPDEST PUSH0 PUSH1 0x20 DUP3 ADD SWAP1 POP DUP2 DUP2 SUB PUSH0 DUP4 ADD MSTORE PUSH2 0x6A85 DUP2 DUP5 PUSH2 0x69C6 JUMP JUMPDEST SWAP1 POP SWAP3 SWAP2 POP POP JUMP JUMPDEST PUSH0 DUP2 SWAP1 POP DUP3 PUSH1 0x20 PUSH1 0xA MUL DUP3 ADD GT ISZERO PUSH2 0x6AA8 JUMPI PUSH2 0x6AA7 PUSH2 0x6691 JUMP JUMPDEST JUMPDEST SWAP3 SWAP2 POP POP JUMP JUMPDEST PUSH0 DUP2 SWAP1 POP DUP3 PUSH1 0x20 PUSH1 0xA MUL DUP3 ADD GT ISZERO PUSH2 0x6AC9 JUMPI PUSH2 0x6AC8 PUSH2 0x6691 JUMP JUMPDEST JUMPDEST SWAP3 SWAP2 POP POP JUMP JUMPDEST PUSH0 DUP1 PUSH2 0x280 DUP4 DUP6 SUB SLT ISZERO PUSH2 0x6AE6 JUMPI PUSH2 0x6AE5 PUSH2 0x5D56 JUMP JUMPDEST JUMPDEST PUSH0 PUSH2 0x6AF3 DUP6 DUP3 DUP7 ADD PUSH2 0x6A8D JUMP JUMPDEST SWAP3 POP POP PUSH2 0x140 PUSH2 0x6B05 DUP6 DUP3 DUP7 ADD PUSH2 0x6AAE JUMP JUMPDEST SWAP2 POP POP SWAP3 POP SWAP3 SWAP1 POP JUMP JUMPDEST PUSH0 PUSH1 0x40 DUP3 ADD SWAP1 POP PUSH2 0x6B22 PUSH0 DUP4 ADD DUP6 PUSH2 0x61D6 JUMP JUMPDEST PUSH2 0x6B2F PUSH1 0x20 DUP4 ADD DUP5 PUSH2 0x60C6 JUMP JUMPDEST SWAP4 SWAP3 POP POP POP JUMP JUMPDEST PUSH32 0x4E487B7100000000000000000000000000000000000000000000000000000000 PUSH0 MSTORE PUSH1 0x21 PUSH1 0x4 MSTORE PUSH1 0x24 PUSH0 REVERT JUMPDEST PUSH1 0x5 DUP2 LT PUSH2 0x6B74 JUMPI PUSH2 0x6B73 PUSH2 0x6B36 JUMP JUMPDEST JUMPDEST POP JUMP JUMPDEST PUSH0 DUP2 SWAP1 POP PUSH2 0x6B84 DUP3 PUSH2 0x6B63 JUMP JUMPDEST SWAP2 SWAP1 POP JUMP JUMPDEST PUSH0 PUSH2 0x6B93 DUP3 PUSH2 0x6B77 JUMP JUMPDEST SWAP1 POP SWAP2 SWAP1 POP JUMP JUMPDEST PUSH2 0x6BA3 DUP2 PUSH2 0x6B89 JUMP JUMPDEST DUP3 MSTORE POP POP JUMP JUMPDEST PUSH0 PUSH1 0x20 DUP3 ADD SWAP1 POP PUSH2 0x6BBC PUSH0 DUP4 ADD DUP5 PUSH2 0x6B9A JUMP JUMPDEST SWAP3 SWAP2 POP POP JUMP JUMPDEST PUSH0 DUP1 DUP4 PUSH1 0x1F DUP5 ADD SLT PUSH2 0x6BD7 JUMPI PUSH2 0x6BD6 PUSH2 0x5D5E JUMP JUMPDEST JUMPDEST DUP3 CALLDATALOAD SWAP1 POP PUSH8 0xFFFFFFFFFFFFFFFF DUP2 GT ISZERO PUSH2 0x6BF4 JUMPI PUSH2 0x6BF3 PUSH2 0x668D JUMP JUMPDEST JUMPDEST PUSH1 0x20 DUP4 ADD SWAP2 POP DUP4 PUSH1 0x20 DUP3 MUL DUP4 ADD GT ISZERO PUSH2 0x6C10 JUMPI PUSH2 0x6C0F PUSH2 0x6691 JUMP JUMPDEST JUMPDEST SWAP3 POP SWAP3 SWAP1 POP JUMP JUMPDEST PUSH0 DUP1 PUSH1 0x20 DUP4 DUP6 SUB SLT ISZERO PUSH2 0x6C2D JUMPI PUSH2 0x6C2C PUSH2 0x5D56 JUMP JUMPDEST JUMPDEST PUSH0 DUP4 ADD CALLDATALOAD PUSH8 0xFFFFFFFFFFFFFFFF DUP2 GT ISZERO PUSH2 0x6C4A JUMPI PUSH2 0x6C49 PUSH2 0x5D5A JUMP JUMPDEST JUMPDEST PUSH2 0x6C56 DUP6 DUP3 DUP7 ADD PUSH2 0x6BC2 JUMP JUMPDEST SWAP3 POP SWAP3 POP POP SWAP3 POP SWAP3 SWAP1 POP JUMP JUMPDEST PUSH0 DUP1 PUSH1 0x40 DUP4 DUP6 SUB SLT ISZERO PUSH2 0x6C78 JUMPI PUSH2 0x6C77 PUSH2 0x5D56 JUMP JUMPDEST JUMPDEST PUSH0 PUSH2 0x6C85 DUP6 DUP3 DUP7 ADD PUSH2 0x6159 JUMP JUMPDEST SWAP3 POP POP PUSH1 0x20 PUSH2 0x6C96 DUP6 DUP3 DUP7 ADD PUSH2 0x6104 JUMP JUMPDEST SWAP2 POP POP SWAP3 POP SWAP3 SWAP1 POP JUMP JUMPDEST PUSH0 PUSH1 0xE0 DUP3 ADD SWAP1 POP DUP2 DUP2 SUB PUSH0 DUP4 ADD MSTORE PUSH2 0x6CB8 DUP2 DUP11 PUSH2 0x620D JUMP JUMPDEST SWAP1 POP DUP2 DUP2 SUB PUSH1 0x20 DUP4 ADD MSTORE PUSH2 0x6CCC DUP2 DUP10 PUSH2 0x620D JUMP JUMPDEST SWAP1 POP DUP2 DUP2 SUB PUSH1 0x40 DUP4 ADD MSTORE PUSH2 0x6CE0 DUP2 DUP9 PUSH2 0x620D JUMP JUMPDEST SWAP1 POP PUSH2 0x6CEF PUSH1 0x60 DUP4 ADD DUP8 PUSH2 0x60C6 JUMP JUMPDEST PUSH2 0x6CFC PUSH1 0x80 DUP4 ADD DUP7 PUSH2 0x60C6 JUMP JUMPDEST PUSH2 0x6D09 PUSH1 0xA0 DUP4 ADD DUP6 PUSH2 0x5F49 JUMP JUMPDEST PUSH2 0x6D16 PUSH1 0xC0 DUP4 ADD DUP5 PUSH2 0x60C6 JUMP JUMPDEST SWAP9 SWAP8 POP POP POP POP POP POP POP POP JUMP JUMPDEST PUSH0 PUSH1 0x32 SWAP1 POP SWAP2 SWAP1 POP JUMP JUMPDEST PUSH0 DUP2 SWAP1 POP SWAP3 SWAP2 POP POP JUMP JUMPDEST PUSH0 DUP2 SWAP1 POP SWAP2 SWAP1 POP JUMP JUMPDEST PUSH0 PUSH1 0x20 DUP3 ADD SWAP1 POP SWAP2 SWAP1 POP JUMP JUMPDEST PUSH2 0x6D54 DUP2 PUSH2 0x6D22 JUMP JUMPDEST PUSH2 0x6D5E DUP2 DUP5 PUSH2 0x6D2C JUMP JUMPDEST SWAP3 POP PUSH2 0x6D69 DUP3 PUSH2 0x6D36 JUMP JUMPDEST DUP1 PUSH0 JUMPDEST DUP4 DUP2 LT ISZERO PUSH2 0x6D99 JUMPI DUP2 MLOAD PUSH2 0x6D80 DUP8 DUP3 PUSH2 0x602B JUMP JUMPDEST SWAP7 POP PUSH2 0x6D8B DUP4 PUSH2 0x6D3F JUMP JUMPDEST SWAP3 POP POP PUSH1 0x1 DUP2 ADD SWAP1 POP PUSH2 0x6D6C JUMP JUMPDEST POP POP POP POP POP POP JUMP JUMPDEST PUSH0 PUSH2 0x640 DUP3 ADD SWAP1 POP PUSH2 0x6DB5 PUSH0 DUP4 ADD DUP5 PUSH2 0x6D4B JUMP JUMPDEST SWAP3 SWAP2 POP POP JUMP JUMPDEST PUSH0 PUSH1 0x40 DUP3 ADD SWAP1 POP PUSH2 0x6DCE PUSH0 DUP4 ADD DUP6 PUSH2 0x60C6 JUMP JUMPDEST PUSH2 0x6DDB PUSH1 0x20 DUP4 ADD DUP5 PUSH2 0x60C6 JUMP JUMPDEST SWAP4 SWAP3 POP POP POP JUMP JUMPDEST PUSH0 PUSH1 0x20 DUP3 ADD SWAP1 POP DUP2 DUP2 SUB PUSH0 DUP4 ADD MSTORE PUSH2 0x6DFA DUP2 DUP5 PUSH2 0x63BF JUMP JUMPDEST SWAP1 POP SWAP3 SWAP2 POP POP JUMP JUMPDEST PUSH32 0x496E76616C6964206E616D650000000000000000000000000000000000000000 PUSH0 DUP3 ADD MSTORE POP JUMP JUMPDEST PUSH0 PUSH2 0x6E36 PUSH1 0xC DUP4 PUSH2 0x61EF JUMP JUMPDEST SWAP2 POP PUSH2 0x6E41 DUP3 PUSH2 0x6E02 JUMP JUMPDEST PUSH1 0x20 DUP3 ADD SWAP1 POP SWAP2 SWAP1 POP JUMP JUMPDEST PUSH0 PUSH1 0x20 DUP3 ADD SWAP1 POP DUP2 DUP2 SUB PUSH0 DUP4 ADD MSTORE PUSH2 0x6E63 DUP2 PUSH2 0x6E2A JUMP JUMPDEST SWAP1 POP SWAP2 SWAP1 POP JUMP JUMPDEST PUSH32 0x496E76616C69642062696F000000000000000000000000000000000000000000 PUSH0 DUP3 ADD MSTORE POP JUMP JUMPDEST PUSH0 PUSH2 0x6E9E PUSH1 0xB DUP4 PUSH2 0x61EF JUMP JUMPDEST SWAP2 POP PUSH2 0x6EA9 DUP3 PUSH2 0x6E6A JUMP JUMPDEST PUSH1 0x20 DUP3 ADD SWAP1 POP SWAP2 SWAP1 POP JUMP JUMPDEST PUSH0 PUSH1 0x20 DUP3 ADD SWAP1 POP DUP2 DUP2 SUB PUSH0 DUP4 ADD MSTORE PUSH2 0x6ECB DUP2 PUSH2 0x6E92 JUMP JUMPDEST SWAP1 POP SWAP2 SWAP1 POP JUMP JUMPDEST PUSH32 0x496E76616C696420776562736974650000000000000000000000000000000000 PUSH0 DUP3 ADD MSTORE POP JUMP JUMPDEST PUSH0 PUSH2 0x6F06 PUSH1 0xF DUP4 PUSH2 0x61EF JUMP JUMPDEST SWAP2 POP PUSH2 0x6F11 DUP3 PUSH2 0x6ED2 JUMP JUMPDEST PUSH1 0x20 DUP3 ADD SWAP1 POP SWAP2 SWAP1 POP JUMP JUMPDEST PUSH0 PUSH1 0x20 DUP3 ADD SWAP1 POP DUP2 DUP2 SUB PUSH0 DUP4 ADD MSTORE PUSH2 0x6F33 DUP2 PUSH2 0x6EFA JUMP JUMPDEST SWAP1 POP SWAP2 SWAP1 POP JUMP JUMPDEST PUSH32 0x496E76616C69642073656E646572000000000000000000000000000000000000 PUSH0 DUP3 ADD MSTORE POP JUMP JUMPDEST PUSH0 PUSH2 0x6F6E PUSH1 0xE DUP4 PUSH2 0x61EF JUMP JUMPDEST SWAP2 POP PUSH2 0x6F79 DUP3 PUSH2 0x6F3A JUMP JUMPDEST PUSH1 0x20 DUP3 ADD SWAP1 POP SWAP2 SWAP1 POP JUMP JUMPDEST PUSH0 PUSH1 0x20 DUP3 ADD SWAP1 POP DUP2 DUP2 SUB PUSH0 DUP4 ADD MSTORE PUSH2 0x6F9B DUP2 PUSH2 0x6F62 JUMP JUMPDEST SWAP1 POP SWAP2 SWAP1 POP JUMP JUMPDEST PUSH32 0x496E73756666696369656E7420726567697374726174696F6E20666565000000 PUSH0 DUP3 ADD MSTORE POP JUMP JUMPDEST PUSH0 PUSH2 0x6FD6 PUSH1 0x1D DUP4 PUSH2 0x61EF JUMP JUMPDEST SWAP2 POP PUSH2 0x6FE1 DUP3 PUSH2 0x6FA2 JUMP JUMPDEST PUSH1 0x20 DUP3 ADD SWAP1 POP SWAP2 SWAP1 POP JUMP JUMPDEST PUSH0 PUSH1 0x20 DUP3 ADD SWAP1 POP DUP2 DUP2 SUB PUSH0 DUP4 ADD MSTORE PUSH2 0x7003 DUP2 PUSH2 0x6FCA JUMP JUMPDEST SWAP1 POP SWAP2 SWAP1 POP JUMP JUMPDEST PUSH32 0x43616E64696461746520726567697374726174696F6E20706572696F64206861 PUSH0 DUP3 ADD MSTORE PUSH32 0x7320656E6465642E000000000000000000000000000000000000000000000000 PUSH1 0x20 DUP3 ADD MSTORE POP JUMP JUMPDEST PUSH0 PUSH2 0x7064 PUSH1 0x28 DUP4 PUSH2 0x61EF JUMP JUMPDEST SWAP2 POP PUSH2 0x706F DUP3 PUSH2 0x700A JUMP JUMPDEST PUSH1 0x40 DUP3 ADD SWAP1 POP SWAP2 SWAP1 POP JUMP JUMPDEST PUSH0 PUSH1 0x20 DUP3 ADD SWAP1 POP DUP2 DUP2 SUB PUSH0 DUP4 ADD MSTORE PUSH2 0x7091 DUP2 PUSH2 0x7058 JUMP JUMPDEST SWAP1 POP SWAP2 SWAP1 POP JUMP JUMPDEST PUSH32 0x416C726561647920726567697374657265640000000000000000000000000000 PUSH0 DUP3 ADD MSTORE POP JUMP JUMPDEST PUSH0 PUSH2 0x70CC PUSH1 0x12 DUP4 PUSH2 0x61EF JUMP JUMPDEST SWAP2 POP PUSH2 0x70D7 DUP3 PUSH2 0x7098 JUMP JUMPDEST PUSH1 0x20 DUP3 ADD SWAP1 POP SWAP2 SWAP1 POP JUMP JUMPDEST PUSH0 PUSH1 0x20 DUP3 ADD SWAP1 POP DUP2 DUP2 SUB PUSH0 DUP4 ADD MSTORE PUSH2 0x70F9 DUP2 PUSH2 0x70C0 JUMP JUMPDEST SWAP1 POP SWAP2 SWAP1 POP JUMP JUMPDEST PUSH32 0x4E487B7100000000000000000000000000000000000000000000000000000000 PUSH0 MSTORE PUSH1 0x22 PUSH1 0x4 MSTORE PUSH1 0x24 PUSH0 REVERT JUMPDEST PUSH0 PUSH1 0x2 DUP3 DIV SWAP1 POP PUSH1 0x1 DUP3 AND DUP1 PUSH2 0x7144 JUMPI PUSH1 0x7F DUP3 AND SWAP2 POP JUMPDEST PUSH1 0x20 DUP3 LT DUP2 SUB PUSH2 0x7157 JUMPI PUSH2 0x7156 PUSH2 0x7100 JUMP JUMPDEST JUMPDEST POP SWAP2 SWAP1 POP JUMP JUMPDEST PUSH0 DUP2 SWAP1 POP DUP2 PUSH0 MSTORE PUSH1 0x20 PUSH0 KECCAK256 SWAP1 POP SWAP2 SWAP1 POP JUMP JUMPDEST PUSH0 PUSH1 0x20 PUSH1 0x1F DUP4 ADD DIV SWAP1 POP SWAP2 SWAP1 POP JUMP JUMPDEST PUSH0 DUP3 DUP3 SHL SWAP1 POP SWAP3 SWAP2 POP POP JUMP JUMPDEST PUSH0 PUSH1 0x8 DUP4 MUL PUSH2 0x71B9 PUSH32 0xFFFFFFFFFFFFFFFFFFFFFFFFFFFFFFFFFFFFFFFFFFFFFFFFFFFFFFFFFFFFFFFF DUP3 PUSH2 0x717E JUMP JUMPDEST PUSH2 0x71C3 DUP7 DUP4 PUSH2 0x717E JUMP JUMPDEST SWAP6 POP DUP1 NOT DUP5 AND SWAP4 POP DUP1 DUP7 AND DUP5 OR SWAP3 POP POP POP SWAP4 SWAP3 POP POP POP JUMP JUMPDEST PUSH0 DUP2 SWAP1 POP SWAP2 SWAP1 POP JUMP JUMPDEST PUSH0 PUSH2 0x71FE PUSH2 0x71F9 PUSH2 0x71F4 DUP5 PUSH2 0x60BD JUMP JUMPDEST PUSH2 0x71DB JUMP JUMPDEST PUSH2 0x60BD JUMP JUMPDEST SWAP1 POP SWAP2 SWAP1 POP JUMP JUMPDEST PUSH0 DUP2 SWAP1 POP SWAP2 SWAP1 POP JUMP JUMPDEST PUSH2 0x7217 DUP4 PUSH2 0x71E4 JUMP JUMPDEST PUSH2 0x722B PUSH2 0x7223 DUP3 PUSH2 0x7205 JUMP JUMPDEST DUP5 DUP5 SLOAD PUSH2 0x718A JUMP JUMPDEST DUP3 SSTORE POP POP POP POP JUMP JUMPDEST PUSH0 SWAP1 JUMP JUMPDEST PUSH2 0x723F PUSH2 0x7233 JUMP JUMPDEST PUSH2 0x724A DUP2 DUP5 DUP5 PUSH2 0x720E JUMP JUMPDEST POP POP POP JUMP JUMPDEST JUMPDEST DUP2 DUP2 LT ISZERO PUSH2 0x726D JUMPI PUSH2 0x7262 PUSH0 DUP3 PUSH2 0x7237 JUMP JUMPDEST PUSH1 0x1 DUP2 ADD SWAP1 POP PUSH2 0x7250 JUMP JUMPDEST POP POP JUMP JUMPDEST PUSH1 0x1F DUP3 GT ISZERO PUSH2 0x72B2 JUMPI PUSH2 0x7283 DUP2 PUSH2 0x715D JUMP JUMPDEST PUSH2 0x728C DUP5 PUSH2 0x716F JUMP JUMPDEST DUP2 ADD PUSH1 0x20 DUP6 LT ISZERO PUSH2 0x729B JUMPI DUP2 SWAP1 POP JUMPDEST PUSH2 0x72AF PUSH2 0x72A7 DUP6 PUSH2 0x716F JUMP JUMPDEST DUP4 ADD DUP3 PUSH2 0x724F JUMP JUMPDEST POP POP JUMPDEST POP POP POP JUMP JUMPDEST PUSH0 DUP3 DUP3 SHR SWAP1 POP SWAP3 SWAP2 POP POP JUMP JUMPDEST PUSH0 PUSH2 0x72D2 PUSH0 NOT DUP5 PUSH1 0x8 MUL PUSH2 0x72B7 JUMP JUMPDEST NOT DUP1 DUP4 AND SWAP2 POP POP SWAP3 SWAP2 POP POP JUMP JUMPDEST PUSH0 PUSH2 0x72EA DUP4 DUP4 PUSH2 0x72C3 JUMP JUMPDEST SWAP2 POP DUP3 PUSH1 0x2 MUL DUP3 OR SWAP1 POP SWAP3 SWAP2 POP POP JUMP JUMPDEST PUSH2 0x7303 DUP3 PUSH2 0x61E5 JUMP JUMPDEST PUSH8 0xFFFFFFFFFFFFFFFF DUP2 GT ISZERO PUSH2 0x731C JUMPI PUSH2 0x731B PUSH2 0x5D76 JUMP JUMPDEST JUMPDEST PUSH2 0x7326 DUP3 SLOAD PUSH2 0x712D JUMP JUMPDEST PUSH2 0x7331 DUP3 DUP3 DUP6 PUSH2 0x7271 JUMP JUMPDEST PUSH0 PUSH1 0x20 SWAP1 POP PUSH1 0x1F DUP4 GT PUSH1 0x1 DUP2 EQ PUSH2 0x7362 JUMPI PUSH0 DUP5 ISZERO PUSH2 0x7350 JUMPI DUP3 DUP8 ADD MLOAD SWAP1 POP JUMPDEST PUSH2 0x735A DUP6 DUP3 PUSH2 0x72DF JUMP JUMPDEST DUP7 SSTORE POP PUSH2 0x73C1 JUMP JUMPDEST PUSH1 0x1F NOT DUP5 AND PUSH2 0x7370 DUP7 PUSH2 0x715D JUMP JUMPDEST PUSH0 JUMPDEST DUP3 DUP2 LT ISZERO PUSH2 0x7397 JUMPI DUP5 DUP10 ADD MLOAD DUP3 SSTORE PUSH1 0x1 DUP3 ADD SWAP2 POP PUSH1 0x20 DUP6 ADD SWAP5 POP PUSH1 0x20 DUP2 ADD SWAP1 POP PUSH2 0x7372 JUMP JUMPDEST DUP7 DUP4 LT ISZERO PUSH2 0x73B4 JUMPI DUP5 DUP10 ADD MLOAD PUSH2 0x73B0 PUSH1 0x1F DUP10 AND DUP3 PUSH2 0x72C3 JUMP JUMPDEST DUP4 SSTORE POP JUMPDEST PUSH1 0x1 PUSH1 0x2 DUP9 MUL ADD DUP9 SSTORE POP POP POP JUMPDEST POP POP POP POP POP POP JUMP JUMPDEST PUSH0 PUSH1 0x60 DUP3 ADD SWAP1 POP DUP2 DUP2 SUB PUSH0 DUP4 ADD MSTORE PUSH2 0x73E1 DUP2 DUP7 PUSH2 0x620D JUMP JUMPDEST SWAP1 POP DUP2 DUP2 SUB PUSH1 0x20 DUP4 ADD MSTORE PUSH2 0x73F5 DUP2 DUP6 PUSH2 0x620D JUMP JUMPDEST SWAP1 POP DUP2 DUP2 SUB PUSH1 0x40 DUP4 ADD MSTORE PUSH2 0x7409 DUP2 DUP5 PUSH2 0x620D JUMP JUMPDEST SWAP1 POP SWAP5 SWAP4 POP POP POP POP JUMP JUMPDEST PUSH32 0x43616C6C206F6E6365206166746572205265666572656E64756D000000000000 PUSH0 DUP3 ADD MSTORE POP JUMP JUMPDEST PUSH0 PUSH2 0x7447 PUSH1 0x1A DUP4 PUSH2 0x61EF JUMP JUMPDEST SWAP2 POP PUSH2 0x7452 DUP3 PUSH2 0x7413 JUMP JUMPDEST PUSH1 0x20 DUP3 ADD SWAP1 POP SWAP2 SWAP1 POP JUMP JUMPDEST PUSH0 PUSH1 0x20 DUP3 ADD SWAP1 POP DUP2 DUP2 SUB PUSH0 DUP4 ADD MSTORE PUSH2 0x7474 DUP2 PUSH2 0x743B JUMP JUMPDEST SWAP1 POP SWAP2 SWAP1 POP JUMP JUMPDEST PUSH32 0x4E487B7100000000000000000000000000000000000000000000000000000000 PUSH0 MSTORE PUSH1 0x32 PUSH1 0x4 MSTORE PUSH1 0x24 PUSH0 REVERT JUMPDEST PUSH32 0x496E76616C69642062696C6C2049440000000000000000000000000000000000 PUSH0 DUP3 ADD MSTORE POP JUMP JUMPDEST PUSH0 PUSH2 0x74DC PUSH1 0xF DUP4 PUSH2 0x61EF JUMP JUMPDEST SWAP2 POP PUSH2 0x74E7 DUP3 PUSH2 0x74A8 JUMP JUMPDEST PUSH1 0x20 DUP3 ADD SWAP1 POP SWAP2 SWAP1 POP JUMP JUMPDEST PUSH0 PUSH1 0x20 DUP3 ADD SWAP1 POP DUP2 DUP2 SUB PUSH0 DUP4 ADD MSTORE PUSH2 0x7509 DUP2 PUSH2 0x74D0 JUMP JUMPDEST SWAP1 POP SWAP2 SWAP1 POP JUMP JUMPDEST PUSH32 0x4F6E6C79207468652070726F706F7365722063616E2077697468647261770000 PUSH0 DUP3 ADD MSTORE POP JUMP JUMPDEST PUSH0 PUSH2 0x7544 PUSH1 0x1E DUP4 PUSH2 0x61EF JUMP JUMPDEST SWAP2 POP PUSH2 0x754F DUP3 PUSH2 0x7510 JUMP JUMPDEST PUSH1 0x20 DUP3 ADD SWAP1 POP SWAP2 SWAP1 POP JUMP JUMPDEST PUSH0 PUSH1 0x20 DUP3 ADD SWAP1 POP DUP2 DUP2 SUB PUSH0 DUP4 ADD MSTORE PUSH2 0x7571 DUP2 PUSH2 0x7538 JUMP JUMPDEST SWAP1 POP SWAP2 SWAP1 POP JUMP JUMPDEST PUSH32 0x42696C6C20616C72656164792065786563757465640000000000000000000000 PUSH0 DUP3 ADD MSTORE POP JUMP JUMPDEST PUSH0 PUSH2 0x75AC PUSH1 0x15 DUP4 PUSH2 0x61EF JUMP JUMPDEST SWAP2 POP PUSH2 0x75B7 DUP3 PUSH2 0x7578 JUMP JUMPDEST PUSH1 0x20 DUP3 ADD SWAP1 POP SWAP2 SWAP1 POP JUMP JUMPDEST PUSH0 PUSH1 0x20 DUP3 ADD SWAP1 POP DUP2 DUP2 SUB PUSH0 DUP4 ADD MSTORE PUSH2 0x75D9 DUP2 PUSH2 0x75A0 JUMP JUMPDEST SWAP1 POP SWAP2 SWAP1 POP JUMP JUMPDEST PUSH32 0x42696C6C20616C72656164792077697468647261776E00000000000000000000 PUSH0 DUP3 ADD MSTORE POP JUMP JUMPDEST PUSH0 PUSH2 0x7614 PUSH1 0x16 DUP4 PUSH2 0x61EF JUMP JUMPDEST SWAP2 POP PUSH2 0x761F DUP3 PUSH2 0x75E0 JUMP JUMPDEST PUSH1 0x20 DUP3 ADD SWAP1 POP SWAP2 SWAP1 POP JUMP JUMPDEST PUSH0 PUSH1 0x20 DUP3 ADD SWAP1 POP DUP2 DUP2 SUB PUSH0 DUP4 ADD MSTORE PUSH2 0x7641 DUP2 PUSH2 0x7608 JUMP JUMPDEST SWAP1 POP SWAP2 SWAP1 POP JUMP JUMPDEST PUSH32 0x4F6E6C79206D656D626572732063616E20766F74650000000000000000000000 PUSH0 DUP3 ADD MSTORE POP JUMP JUMPDEST PUSH0 PUSH2 0x767C PUSH1 0x15 DUP4 PUSH2 0x61EF JUMP JUMPDEST SWAP2 POP PUSH2 0x7687 DUP3 PUSH2 0x7648 JUMP JUMPDEST PUSH1 0x20 DUP3 ADD SWAP1 POP SWAP2 SWAP1 POP JUMP JUMPDEST PUSH0 PUSH1 0x20 DUP3 ADD SWAP1 POP DUP2 DUP2 SUB PUSH0 DUP4 ADD MSTORE PUSH2 0x76A9 DUP2 PUSH2 0x7670 JUMP JUMPDEST SWAP1 POP SWAP2 SWAP1 POP JUMP JUMPDEST PUSH32 0x42696C6C2077697468647261776E000000000000000000000000000000000000 PUSH0 DUP3 ADD MSTORE POP JUMP JUMPDEST PUSH0 PUSH2 0x76E4 PUSH1 0xE DUP4 PUSH2 0x61EF JUMP JUMPDEST SWAP2 POP PUSH2 0x76EF DUP3 PUSH2 0x76B0 JUMP JUMPDEST PUSH1 0x20 DUP3 ADD SWAP1 POP SWAP2 SWAP1 POP JUMP JUMPDEST PUSH0 PUSH1 0x20 DUP3 ADD SWAP1 POP DUP2 DUP2 SUB PUSH0 DUP4 ADD MSTORE PUSH2 0x7711 DUP2 PUSH2 0x76D8 JUMP JUMPDEST SWAP1 POP SWAP2 SWAP1 POP JUMP JUMPDEST PUSH32 0x416C726561647920766F74656400000000000000000000000000000000000000 PUSH0 DUP3 ADD MSTORE POP JUMP JUMPDEST PUSH0 PUSH2 0x774C PUSH1 0xD DUP4 PUSH2 0x61EF JUMP JUMPDEST SWAP2 POP PUSH2 0x7757 DUP3 PUSH2 0x7718 JUMP JUMPDEST PUSH1 0x20 DUP3 ADD SWAP1 POP SWAP2 SWAP1 POP JUMP JUMPDEST PUSH0 PUSH1 0x20 DUP3 ADD SWAP1 POP DUP2 DUP2 SUB PUSH0 DUP4 ADD MSTORE PUSH2 0x7779 DUP2 PUSH2 0x7740 JUMP JUMPDEST SWAP1 POP SWAP2 SWAP1 POP JUMP JUMPDEST PUSH32 0x4E487B7100000000000000000000000000000000000000000000000000000000 PUSH0 MSTORE PUSH1 0x11 PUSH1 0x4 MSTORE PUSH1 0x24 PUSH0 REVERT JUMPDEST PUSH0 PUSH2 0x77B7 DUP3 PUSH2 0x5CE2 JUMP JUMPDEST SWAP2 POP PUSH1 0xFF DUP3 SUB PUSH2 0x77CA JUMPI PUSH2 0x77C9 PUSH2 0x7780 JUMP JUMPDEST JUMPDEST PUSH1 0x1 DUP3 ADD SWAP1 POP SWAP2 SWAP1 POP JUMP JUMPDEST PUSH32 0x4F6E6C79206D656D626572732063616E2070726F706F73652062696C6C730000 PUSH0 DUP3 ADD MSTORE POP JUMP JUMPDEST PUSH0 PUSH2 0x7809 PUSH1 0x1E DUP4 PUSH2 0x61EF JUMP JUMPDEST SWAP2 POP PUSH2 0x7814 DUP3 PUSH2 0x77D5 JUMP JUMPDEST PUSH1 0x20 DUP3 ADD SWAP1 POP SWAP2 SWAP1 POP JUMP JUMPDEST PUSH0 PUSH1 0x20 DUP3 ADD SWAP1 POP DUP2 DUP2 SUB PUSH0 DUP4 ADD MSTORE PUSH2 0x7836 DUP2 PUSH2 0x77FD JUMP JUMPDEST SWAP1 POP SWAP2 SWAP1 POP JUMP JUMPDEST PUSH32 0x50726F766973696F6E7320726571756972656400000000000000000000000000 PUSH0 DUP3 ADD MSTORE POP JUMP JUMPDEST PUSH0 PUSH2 0x7871 PUSH1 0x13 DUP4 PUSH2 0x61EF JUMP JUMPDEST SWAP2 POP PUSH2 0x787C DUP3 PUSH2 0x783D JUMP JUMPDEST PUSH1 0x20 DUP3 ADD SWAP1 POP SWAP2 SWAP1 POP JUMP JUMPDEST PUSH0 PUSH1 0x20 DUP3 ADD SWAP1 POP DUP2 DUP2 SUB PUSH0 DUP4 ADD MSTORE PUSH2 0x789E DUP2 PUSH2 0x7865 JUMP JUMPDEST SWAP1 POP SWAP2 SWAP1 POP JUMP JUMPDEST PUSH32 0x4D656D62657220616C72656164792068617320616E206163746976652062696C PUSH0 DUP3 ADD MSTORE PUSH32 0x6C00000000000000000000000000000000000000000000000000000000000000 PUSH1 0x20 DUP3 ADD MSTORE POP JUMP JUMPDEST PUSH0 PUSH2 0x78FF PUSH1 0x21 DUP4 PUSH2 0x61EF JUMP JUMPDEST SWAP2 POP PUSH2 0x790A DUP3 PUSH2 0x78A5 JUMP JUMPDEST PUSH1 0x40 DUP3 ADD SWAP1 POP SWAP2 SWAP1 POP JUMP JUMPDEST PUSH0 PUSH1 0x20 DUP3 ADD SWAP1 POP DUP2 DUP2 SUB PUSH0 DUP4 ADD MSTORE PUSH2 0x792C DUP2 PUSH2 0x78F3 JUMP JUMPDEST SWAP1 POP SWAP2 SWAP1 POP JUMP JUMPDEST PUSH0 DUP3 SWAP1 POP SWAP3 SWAP2 POP POP JUMP JUMPDEST PUSH2 0x7947 DUP4 DUP4 PUSH2 0x7933 JUMP JUMPDEST PUSH8 0xFFFFFFFFFFFFFFFF DUP2 GT ISZERO PUSH2 0x7960 JUMPI PUSH2 0x795F PUSH2 0x5D76 JUMP JUMPDEST JUMPDEST PUSH2 0x796A DUP3 SLOAD PUSH2 0x712D JUMP JUMPDEST PUSH2 0x7975 DUP3 DUP3 DUP6 PUSH2 0x7271 JUMP JUMPDEST PUSH0 PUSH1 0x1F DUP4 GT PUSH1 0x1 DUP2 EQ PUSH2 0x79A2 JUMPI PUSH0 DUP5 ISZERO PUSH2 0x7990 JUMPI DUP3 DUP8 ADD CALLDATALOAD SWAP1 POP JUMPDEST PUSH2 0x799A DUP6 DUP3 PUSH2 0x72DF JUMP JUMPDEST DUP7 SSTORE POP PUSH2 0x7A01 JUMP JUMPDEST PUSH1 0x1F NOT DUP5 AND PUSH2 0x79B0 DUP7 PUSH2 0x715D JUMP JUMPDEST PUSH0 JUMPDEST DUP3 DUP2 LT ISZERO PUSH2 0x79D7 JUMPI DUP5 DUP10 ADD CALLDATALOAD DUP3 SSTORE PUSH1 0x1 DUP3 ADD SWAP2 POP PUSH1 0x20 DUP6 ADD SWAP5 POP PUSH1 0x20 DUP2 ADD SWAP1 POP PUSH2 0x79B2 JUMP JUMPDEST DUP7 DUP4 LT ISZERO PUSH2 0x79F4 JUMPI DUP5 DUP10 ADD CALLDATALOAD PUSH2 0x79F0 PUSH1 0x1F DUP10 AND DUP3 PUSH2 0x72C3 JUMP JUMPDEST DUP4 SSTORE POP JUMPDEST PUSH1 0x1 PUSH1 0x2 DUP9 MUL ADD DUP9 SSTORE POP POP POP JUMPDEST POP POP POP POP POP POP POP JUMP JUMPDEST PUSH0 DUP1 REVERT JUMPDEST PUSH0 DUP1 REVERT JUMPDEST PUSH0 DUP1 REVERT JUMPDEST PUSH0 DUP3 CALLDATALOAD PUSH1 0x1 PUSH1 0x60 SUB DUP4 CALLDATASIZE SUB SUB DUP2 SLT PUSH2 0x7A31 JUMPI PUSH2 0x7A30 PUSH2 0x7A0A JUMP JUMPDEST JUMPDEST DUP1 DUP4 ADD SWAP2 POP POP SWAP3 SWAP2 POP POP JUMP JUMPDEST PUSH0 DUP2 CALLDATALOAD PUSH2 0x7A49 DUP2 PUSH2 0x6143 JUMP JUMPDEST DUP1 SWAP2 POP POP SWAP2 SWAP1 POP JUMP JUMPDEST PUSH0 DUP2 PUSH0 SHL SWAP1 POP SWAP2 SWAP1 POP JUMP JUMPDEST PUSH0 PUSH32 0xFFFFFFFFFFFFFFFFFFFFFFFFFFFFFFFFFFFFFFFFFFFFFFFFFFFFFFFFFFFFFFFF PUSH2 0x7A88 DUP5 PUSH2 0x7A52 JUMP JUMPDEST SWAP4 POP DUP1 NOT DUP4 AND SWAP3 POP DUP1 DUP5 AND DUP4 OR SWAP2 POP POP SWAP3 SWAP2 POP POP JUMP JUMPDEST PUSH2 0x7AA7 DUP3 PUSH2 0x71E4 JUMP JUMPDEST PUSH2 0x7ABA PUSH2 0x7AB3 DUP3 PUSH2 0x7205 JUMP JUMPDEST DUP4 SLOAD PUSH2 0x7A5D JUMP JUMPDEST DUP3 SSTORE POP POP POP JUMP JUMPDEST PUSH0 DUP2 CALLDATALOAD PUSH2 0x7ACD DUP2 PUSH2 0x60EE JUMP JUMPDEST DUP1 SWAP2 POP POP SWAP2 SWAP1 POP JUMP JUMPDEST PUSH0 PUSH20 0xFFFFFFFFFFFFFFFFFFFFFFFFFFFFFFFFFFFFFFFF PUSH2 0x7AF5 DUP5 PUSH2 0x7A52 JUMP JUMPDEST SWAP4 POP DUP1 NOT DUP4 AND SWAP3 POP DUP1 DUP5 AND DUP4 OR SWAP2 POP POP SWAP3 SWAP2 POP POP JUMP JUMPDEST PUSH0 PUSH2 0x7B25 PUSH2 0x7B20 PUSH2 0x7B1B DUP5 PUSH2 0x5FEC JUMP JUMPDEST PUSH2 0x71DB JUMP JUMPDEST PUSH2 0x5FEC JUMP JUMPDEST SWAP1 POP SWAP2 SWAP1 POP JUMP JUMPDEST PUSH0 PUSH2 0x7B36 DUP3 PUSH2 0x7B0B JUMP JUMPDEST SWAP1 POP SWAP2 SWAP1 POP JUMP JUMPDEST PUSH0 PUSH2 0x7B47 DUP3 PUSH2 0x7B2C JUMP JUMPDEST SWAP1 POP SWAP2 SWAP1 POP JUMP JUMPDEST PUSH0 DUP2 SWAP1 POP SWAP2 SWAP1 POP JUMP JUMPDEST PUSH2 0x7B60 DUP3 PUSH2 0x7B3D JUMP JUMPDEST PUSH2 0x7B73 PUSH2 0x7B6C DUP3 PUSH2 0x7B4E JUMP JUMPDEST DUP4 SLOAD PUSH2 0x7AD6 JUMP JUMPDEST DUP3 SSTORE POP POP POP JUMP JUMPDEST PUSH0 DUP1 DUP4 CALLDATALOAD PUSH1 0x1 PUSH1 0x20 SUB DUP5 CALLDATASIZE SUB SUB DUP2 SLT PUSH2 0x7B96 JUMPI PUSH2 0x7B95 PUSH2 0x7A0A JUMP JUMPDEST JUMPDEST DUP1 DUP5 ADD SWAP3 POP DUP3 CALLDATALOAD SWAP2 POP PUSH8 0xFFFFFFFFFFFFFFFF DUP3 GT ISZERO PUSH2 0x7BB8 JUMPI PUSH2 0x7BB7 PUSH2 0x7A0E JUMP JUMPDEST JUMPDEST PUSH1 0x20 DUP4 ADD SWAP3 POP PUSH1 0x1 DUP3 MUL CALLDATASIZE SUB DUP4 SGT ISZERO PUSH2 0x7BD4 JUMPI PUSH2 0x7BD3 PUSH2 0x7A12 JUMP JUMPDEST JUMPDEST POP SWAP3 POP SWAP3 SWAP1 POP JUMP JUMPDEST PUSH2 0x7BE7 DUP4 DUP4 DUP4 PUSH2 0x793D JUMP JUMPDEST POP POP POP JUMP JUMPDEST PUSH0 DUP2 ADD PUSH0 DUP4 ADD DUP1 PUSH2 0x7BFC DUP2 PUSH2 0x7A3D JUMP JUMPDEST SWAP1 POP PUSH2 0x7C08 DUP2 DUP5 PUSH2 0x7A9E JUMP JUMPDEST POP POP POP PUSH1 0x1 DUP2 ADD PUSH1 0x20 DUP4 ADD DUP1 PUSH2 0x7C1D DUP2 PUSH2 0x7AC1 JUMP JUMPDEST SWAP1 POP PUSH2 0x7C29 DUP2 DUP5 PUSH2 0x7B57 JUMP JUMPDEST POP POP POP PUSH1 0x2 DUP2 ADD PUSH1 0x40 DUP4 ADD PUSH2 0x7C3E DUP2 DUP6 PUSH2 0x7B7A JUMP JUMPDEST PUSH2 0x7C49 DUP2 DUP4 DUP7 PUSH2 0x7BDC JUMP JUMPDEST POP POP POP POP POP POP JUMP JUMPDEST PUSH2 0x7C5B DUP3 DUP3 PUSH2 0x7BEC JUMP JUMPDEST POP POP JUMP JUMPDEST PUSH0 PUSH2 0x7C6A DUP4 DUP6 PUSH2 0x61EF JUMP JUMPDEST SWAP4 POP PUSH2 0x7C77 DUP4 DUP6 DUP5 PUSH2 0x5E1E JUMP JUMPDEST PUSH2 0x7C80 DUP4 PUSH2 0x5D66 JUMP JUMPDEST DUP5 ADD SWAP1 POP SWAP4 SWAP3 POP POP POP JUMP JUMPDEST PUSH0 PUSH1 0x20 DUP3 ADD SWAP1 POP DUP2 DUP2 SUB PUSH0 DUP4 ADD MSTORE PUSH2 0x7CA4 DUP2 DUP5 DUP7 PUSH2 0x7C5F JUMP JUMPDEST SWAP1 POP SWAP4 SWAP3 POP POP POP JUMP JUMPDEST PUSH32 0x57726F6E67207068617365000000000000000000000000000000000000000000 PUSH0 DUP3 ADD MSTORE POP JUMP JUMPDEST PUSH0 PUSH2 0x7CE1 PUSH1 0xB DUP4 PUSH2 0x61EF JUMP JUMPDEST SWAP2 POP PUSH2 0x7CEC DUP3 PUSH2 0x7CAD JUMP JUMPDEST PUSH1 0x20 DUP3 ADD SWAP1 POP SWAP2 SWAP1 POP JUMP JUMPDEST PUSH0 PUSH1 0x20 DUP3 ADD SWAP1 POP DUP2 DUP2 SUB PUSH0 DUP4 ADD MSTORE PUSH2 0x7D0E DUP2 PUSH2 0x7CD5 JUMP JUMPDEST SWAP1 POP SWAP2 SWAP1 POP JUMP JUMPDEST PUSH32 0x4465736372697074696F6E207265717569726564000000000000000000000000 PUSH0 DUP3 ADD MSTORE POP JUMP JUMPDEST PUSH0 PUSH2 0x7D49 PUSH1 0x14 DUP4 PUSH2 0x61EF JUMP JUMPDEST SWAP2 POP PUSH2 0x7D54 DUP3 PUSH2 0x7D15 JUMP JUMPDEST PUSH1 0x20 DUP3 ADD SWAP1 POP SWAP2 SWAP1 POP JUMP JUMPDEST PUSH0 PUSH1 0x20 DUP3 ADD SWAP1 POP DUP2 DUP2 SUB PUSH0 DUP4 ADD MSTORE PUSH2 0x7D76 DUP2 PUSH2 0x7D3D JUMP JUMPDEST SWAP1 POP SWAP2 SWAP1 POP JUMP JUMPDEST PUSH32 0x636F6E737469747574696F6E5465787420726571756972656400000000000000 PUSH0 DUP3 ADD MSTORE POP JUMP JUMPDEST PUSH0 PUSH2 0x7DB1 PUSH1 0x19 DUP4 PUSH2 0x61EF JUMP JUMPDEST SWAP2 POP PUSH2 0x7DBC DUP3 PUSH2 0x7D7D JUMP JUMPDEST PUSH1 0x20 DUP3 ADD SWAP1 POP SWAP2 SWAP1 POP JUMP JUMPDEST PUSH0 PUSH1 0x20 DUP3 ADD SWAP1 POP DUP2 DUP2 SUB PUSH0 DUP4 ADD MSTORE PUSH2 0x7DDE DUP2 PUSH2 0x7DA5 JUMP JUMPDEST SWAP1 POP SWAP2 SWAP1 POP JUMP JUMPDEST PUSH32 0x50726F706F736572206E616D6520726571756972656400000000000000000000 PUSH0 DUP3 ADD MSTORE POP JUMP JUMPDEST PUSH0 PUSH2 0x7E19 PUSH1 0x16 DUP4 PUSH2 0x61EF JUMP JUMPDEST SWAP2 POP PUSH2 0x7E24 DUP3 PUSH2 0x7DE5 JUMP JUMPDEST PUSH1 0x20 DUP3 ADD SWAP1 POP SWAP2 SWAP1 POP JUMP JUMPDEST PUSH0 PUSH1 0x20 DUP3 ADD SWAP1 POP DUP2 DUP2 SUB PUSH0 DUP4 ADD MSTORE PUSH2 0x7E46 DUP2 PUSH2 0x7E0D JUMP JUMPDEST SWAP1 POP SWAP2 SWAP1 POP JUMP JUMPDEST PUSH32 0x496E73756666696369656E74207375626D697373696F6E206665650000000000 PUSH0 DUP3 ADD MSTORE POP JUMP JUMPDEST PUSH0 PUSH2 0x7E81 PUSH1 0x1B DUP4 PUSH2 0x61EF JUMP JUMPDEST SWAP2 POP PUSH2 0x7E8C DUP3 PUSH2 0x7E4D JUMP JUMPDEST PUSH1 0x20 DUP3 ADD SWAP1 POP SWAP2 SWAP1 POP JUMP JUMPDEST PUSH0 PUSH1 0x20 DUP3 ADD SWAP1 POP DUP2 DUP2 SUB PUSH0 DUP4 ADD MSTORE PUSH2 0x7EAE DUP2 PUSH2 0x7E75 JUMP JUMPDEST SWAP1 POP SWAP2 SWAP1 POP JUMP JUMPDEST PUSH0 DUP2 SWAP1 POP SWAP3 SWAP2 POP POP JUMP JUMPDEST PUSH0 PUSH2 0x7EC9 DUP3 PUSH2 0x61E5 JUMP JUMPDEST PUSH2 0x7ED3 DUP2 DUP6 PUSH2 0x7EB5 JUMP JUMPDEST SWAP4 POP PUSH2 0x7EE3 DUP2 DUP6 PUSH1 0x20 DUP7 ADD PUSH2 0x61FF JUMP JUMPDEST DUP1 DUP5 ADD SWAP2 POP POP SWAP3 SWAP2 POP POP JUMP JUMPDEST PUSH0 PUSH2 0x7EFA DUP3 DUP8 PUSH2 0x7EBF JUMP JUMPDEST SWAP2 POP PUSH2 0x7F06 DUP3 DUP7 PUSH2 0x7EBF JUMP JUMPDEST SWAP2 POP PUSH2 0x7F12 DUP3 DUP6 PUSH2 0x7EBF JUMP JUMPDEST SWAP2 POP PUSH2 0x7F1E DUP3 DUP5 PUSH2 0x7EBF JUMP JUMPDEST SWAP2 POP DUP2 SWAP1 POP SWAP6 SWAP5 POP POP POP POP POP JUMP JUMPDEST PUSH32 0x496E636F72726563742048617368210000000000000000000000000000000000 PUSH0 DUP3 ADD MSTORE POP JUMP JUMPDEST PUSH0 PUSH2 0x7F60 PUSH1 0xF DUP4 PUSH2 0x61EF JUMP JUMPDEST SWAP2 POP PUSH2 0x7F6B DUP3 PUSH2 0x7F2C JUMP JUMPDEST PUSH1 0x20 DUP3 ADD SWAP1 POP SWAP2 SWAP1 POP JUMP JUMPDEST PUSH0 PUSH1 0x20 DUP3 ADD SWAP1 POP DUP2 DUP2 SUB PUSH0 DUP4 ADD MSTORE PUSH2 0x7F8D DUP2 PUSH2 0x7F54 JUMP JUMPDEST SWAP1 POP SWAP2 SWAP1 POP JUMP JUMPDEST PUSH0 PUSH2 0x7F9E DUP3 PUSH2 0x60BD JUMP JUMPDEST SWAP2 POP PUSH2 0x7FA9 DUP4 PUSH2 0x60BD JUMP JUMPDEST SWAP3 POP DUP3 DUP3 SUB SWAP1 POP DUP2 DUP2 GT ISZERO PUSH2 0x7FC1 JUMPI PUSH2 0x7FC0 PUSH2 0x7780 JUMP JUMPDEST JUMPDEST SWAP3 SWAP2 POP POP JUMP JUMPDEST PUSH32 0x496E76616C69642043616E646964617465204944000000000000000000000000 PUSH0 DUP3 ADD MSTORE POP JUMP JUMPDEST PUSH0 PUSH2 0x7FFB PUSH1 0x14 DUP4 PUSH2 0x61EF JUMP JUMPDEST SWAP2 POP PUSH2 0x8006 DUP3 PUSH2 0x7FC7 JUMP JUMPDEST PUSH1 0x20 DUP3 ADD SWAP1 POP SWAP2 SWAP1 POP JUMP JUMPDEST PUSH0 PUSH1 0x20 DUP3 ADD SWAP1 POP DUP2 DUP2 SUB PUSH0 DUP4 ADD MSTORE PUSH2 0x8028 DUP2 PUSH2 0x7FEF JUMP JUMPDEST SWAP1 POP SWAP2 SWAP1 POP JUMP JUMPDEST PUSH32 0x4E6F742061204D656D6265720000000000000000000000000000000000000000 PUSH0 DUP3 ADD MSTORE POP JUMP JUMPDEST PUSH0 PUSH2 0x8063 PUSH1 0xC DUP4 PUSH2 0x61EF JUMP JUMPDEST SWAP2 POP PUSH2 0x806E DUP3 PUSH2 0x802F JUMP JUMPDEST PUSH1 0x20 DUP3 ADD SWAP1 POP SWAP2 SWAP1 POP JUMP JUMPDEST PUSH0 PUSH1 0x20 DUP3 ADD SWAP1 POP DUP2 DUP2 SUB PUSH0 DUP4 ADD MSTORE PUSH2 0x8090 DUP2 PUSH2 0x8057 JUMP JUMPDEST SWAP1 POP SWAP2 SWAP1 POP JUMP JUMPDEST PUSH0 PUSH1 0x20 DUP3 ADD SWAP1 POP PUSH2 0x80AA PUSH0 DUP4 ADD DUP5 PUSH2 0x6981 JUMP JUMPDEST SWAP3 SWAP2 POP POP JUMP JUMPDEST PUSH32 0x4E6F7420617574686F72697A6564207265676973747261720000000000000000 PUSH0 DUP3 ADD MSTORE POP JUMP JUMPDEST PUSH0 PUSH2 0x80E4 PUSH1 0x18 DUP4 PUSH2 0x61EF JUMP JUMPDEST SWAP2 POP PUSH2 0x80EF DUP3 PUSH2 0x80B0 JUMP JUMPDEST PUSH1 0x20 DUP3 ADD SWAP1 POP SWAP2 SWAP1 POP JUMP JUMPDEST PUSH0 PUSH1 0x20 DUP3 ADD SWAP1 POP DUP2 DUP2 SUB PUSH0 DUP4 ADD MSTORE PUSH2 0x8111 DUP2 PUSH2 0x80D8 JUMP JUMPDEST SWAP1 POP SWAP2 SWAP1 POP JUMP JUMPDEST PUSH32 0x496E636F72726563742062617463682073697A65000000000000000000000000 PUSH0 DUP3 ADD MSTORE POP JUMP JUMPDEST PUSH0 PUSH2 0x814C PUSH1 0x14 DUP4 PUSH2 0x61EF JUMP JUMPDEST SWAP2 POP PUSH2 0x8157 DUP3 PUSH2 0x8118 JUMP JUMPDEST PUSH1 0x20 DUP3 ADD SWAP1 POP SWAP2 SWAP1 POP JUMP JUMPDEST PUSH0 PUSH1 0x20 DUP3 ADD SWAP1 POP DUP2 DUP2 SUB PUSH0 DUP4 ADD MSTORE PUSH2 0x8179 DUP2 PUSH2 0x8140 JUMP JUMPDEST SWAP1 POP SWAP2 SWAP1 POP JUMP JUMPDEST PUSH32 0x566F746572206861736820616C726561647920726567697374657265642E0000 PUSH0 DUP3 ADD MSTORE POP JUMP JUMPDEST PUSH0 PUSH2 0x81B4 PUSH1 0x1E DUP4 PUSH2 0x61EF JUMP JUMPDEST SWAP2 POP PUSH2 0x81BF DUP3 PUSH2 0x8180 JUMP JUMPDEST PUSH1 0x20 DUP3 ADD SWAP1 POP SWAP2 SWAP1 POP JUMP JUMPDEST PUSH0 PUSH1 0x20 DUP3 ADD SWAP1 POP DUP2 DUP2 SUB PUSH0 DUP4 ADD MSTORE PUSH2 0x81E1 DUP2 PUSH2 0x81A8 JUMP JUMPDEST SWAP1 POP SWAP2 SWAP1 POP JUMP JUMPDEST PUSH32 0x496E76616C696420766F74657220616464726573730000000000000000000000 PUSH0 DUP3 ADD MSTORE POP JUMP JUMPDEST PUSH0 PUSH2 0x821C PUSH1 0x15 DUP4 PUSH2 0x61EF JUMP JUMPDEST SWAP2 POP PUSH2 0x8227 DUP3 PUSH2 0x81E8 JUMP JUMPDEST PUSH1 0x20 DUP3 ADD SWAP1 POP SWAP2 SWAP1 POP JUMP JUMPDEST PUSH0 PUSH1 0x20 DUP3 ADD SWAP1 POP DUP2 DUP2 SUB PUSH0 DUP4 ADD MSTORE PUSH2 0x8249 DUP2 PUSH2 0x8210 JUMP JUMPDEST SWAP1 POP SWAP2 SWAP1 POP JUMP JUMPDEST PUSH32 0x416464726573737320616C726561647920726567697374657265642E20526567 PUSH0 DUP3 ADD MSTORE PUSH32 0x697374726172204552524F522100000000000000000000000000000000000000 PUSH1 0x20 DUP3 ADD MSTORE POP JUMP JUMPDEST PUSH0 PUSH2 0x82AA PUSH1 0x2D DUP4 PUSH2 0x61EF JUMP JUMPDEST SWAP2 POP PUSH2 0x82B5 DUP3 PUSH2 0x8250 JUMP JUMPDEST PUSH1 0x40 DUP3 ADD SWAP1 POP SWAP2 SWAP1 POP JUMP JUMPDEST PUSH0 PUSH1 0x20 DUP3 ADD SWAP1 POP DUP2 DUP2 SUB PUSH0 DUP4 ADD MSTORE PUSH2 0x82D7 DUP2 PUSH2 0x829E JUMP JUMPDEST SWAP1 POP SWAP2 SWAP1 POP JUMP JUMPDEST PUSH0 PUSH2 0x82E8 DUP3 PUSH2 0x60BD JUMP JUMPDEST SWAP2 POP PUSH32 0xFFFFFFFFFFFFFFFFFFFFFFFFFFFFFFFFFFFFFFFFFFFFFFFFFFFFFFFFFFFFFFFF DUP3 SUB PUSH2 0x831A JUMPI PUSH2 0x8319 PUSH2 0x7780 JUMP JUMPDEST JUMPDEST PUSH1 0x1 DUP3 ADD SWAP1 POP SWAP2 SWAP1 POP JUMP JUMPDEST PUSH0 PUSH2 0x832F DUP3 PUSH2 0x5D16 JUMP JUMPDEST SWAP2 POP PUSH2 0x833A DUP4 PUSH2 0x5D16 JUMP JUMPDEST SWAP3 POP DUP3 DUP3 ADD SWAP1 POP PUSH4 0xFFFFFFFF DUP2 GT ISZERO PUSH2 0x8356 JUMPI PUSH2 0x8355 PUSH2 0x7780 JUMP JUMPDEST JUMPDEST SWAP3 SWAP2 POP POP JUMP JUMPDEST PUSH0 PUSH1 0xA SWAP1 POP SWAP2 SWAP1 POP JUMP JUMPDEST PUSH0 DUP2 SWAP1 POP SWAP3 SWAP2 POP POP JUMP JUMPDEST PUSH0 DUP2 SWAP1 POP SWAP2 SWAP1 POP JUMP JUMPDEST PUSH2 0x8382 DUP2 PUSH2 0x600B JUMP JUMPDEST DUP3 MSTORE POP POP JUMP JUMPDEST PUSH0 PUSH2 0x8393 DUP4 DUP4 PUSH2 0x8379 JUMP JUMPDEST PUSH1 0x20 DUP4 ADD SWAP1 POP SWAP3 SWAP2 POP POP JUMP JUMPDEST PUSH0 PUSH2 0x83AD PUSH1 0x20 DUP5 ADD DUP5 PUSH2 0x6104 JUMP JUMPDEST SWAP1 POP SWAP3 SWAP2 POP POP JUMP JUMPDEST PUSH0 PUSH1 0x20 DUP3 ADD SWAP1 POP SWAP2 SWAP1 POP JUMP JUMPDEST PUSH2 0x83CA DUP2 PUSH2 0x835C JUMP JUMPDEST PUSH2 0x83D4 DUP2 DUP5 PUSH2 0x8366 JUMP JUMPDEST SWAP3 POP PUSH2 0x83DF DUP3 PUSH2 0x8370 JUMP JUMPDEST DUP1 PUSH0 JUMPDEST DUP4 DUP2 LT ISZERO PUSH2 0x8417 JUMPI PUSH2 0x83F4 DUP3 DUP5 PUSH2 0x839F JUMP JUMPDEST PUSH2 0x83FE DUP8 DUP3 PUSH2 0x8388 JUMP JUMPDEST SWAP7 POP PUSH2 0x8409 DUP4 PUSH2 0x83B5 JUMP JUMPDEST SWAP3 POP POP PUSH1 0x1 DUP2 ADD SWAP1 POP PUSH2 0x83E2 JUMP JUMPDEST POP POP POP POP POP POP JUMP JUMPDEST PUSH0 PUSH2 0x842A DUP3 DUP5 PUSH2 0x83C1 JUMP JUMPDEST PUSH2 0x140 DUP3 ADD SWAP2 POP DUP2 SWAP1 POP SWAP3 SWAP2 POP POP JUMP JUMPDEST PUSH0 PUSH2 0x8454 PUSH2 0x844F PUSH2 0x844A DUP5 PUSH2 0x5D16 JUMP JUMPDEST PUSH2 0x71DB JUMP JUMPDEST PUSH2 0x60BD JUMP JUMPDEST SWAP1 POP SWAP2 SWAP1 POP JUMP JUMPDEST PUSH2 0x8464 DUP2 PUSH2 0x843A JUMP JUMPDEST DUP3 MSTORE POP POP JUMP JUMPDEST PUSH0 PUSH1 0x40 DUP3 ADD SWAP1 POP PUSH2 0x847D PUSH0 DUP4 ADD DUP6 PUSH2 0x61D6 JUMP JUMPDEST PUSH2 0x848A PUSH1 0x20 DUP4 ADD DUP5 PUSH2 0x845B JUMP JUMPDEST SWAP4 SWAP3 POP POP POP JUMP JUMPDEST PUSH0 PUSH2 0x849B DUP3 PUSH2 0x5CE2 JUMP JUMPDEST SWAP2 POP PUSH2 0x84A6 DUP4 PUSH2 0x5CE2 JUMP JUMPDEST SWAP3 POP DUP3 DUP3 MUL PUSH2 0x84B4 DUP2 PUSH2 0x5CE2 JUMP JUMPDEST SWAP2 POP DUP1 DUP3 EQ PUSH2 0x84C6 JUMPI PUSH2 0x84C5 PUSH2 0x7780 JUMP JUMPDEST JUMPDEST POP SWAP3 SWAP2 POP POP JUMP JUMPDEST PUSH0 PUSH2 0x84D7 DUP3 PUSH2 0x60BD JUMP JUMPDEST SWAP2 POP PUSH2 0x84E2 DUP4 PUSH2 0x60BD JUMP JUMPDEST SWAP3 POP DUP3 DUP3 ADD SWAP1 POP DUP1 DUP3 GT ISZERO PUSH2 0x84FA JUMPI PUSH2 0x84F9 PUSH2 0x7780 JUMP JUMPDEST JUMPDEST SWAP3 SWAP2 POP POP JUMP JUMPDEST PUSH32 0x43757272656E74206C65616465722773207465726D206E6F742066696E697368 PUSH0 DUP3 ADD MSTORE PUSH32 0x6564000000000000000000000000000000000000000000000000000000000000 PUSH1 0x20 DUP3 ADD MSTORE POP JUMP JUMPDEST PUSH0 PUSH2 0x855A PUSH1 0x22 DUP4 PUSH2 0x61EF JUMP JUMPDEST SWAP2 POP PUSH2 0x8565 DUP3 PUSH2 0x8500 JUMP JUMPDEST PUSH1 0x40 DUP3 ADD SWAP1 POP SWAP2 SWAP1 POP JUMP JUMPDEST PUSH0 PUSH1 0x20 DUP3 ADD SWAP1 POP DUP2 DUP2 SUB PUSH0 DUP4 ADD MSTORE PUSH2 0x8587 DUP2 PUSH2 0x854E JUMP JUMPDEST SWAP1 POP SWAP2 SWAP1 POP JUMP JUMPDEST PUSH32 0x4E6F7420696E20456C656374696F6E2070686173650000000000000000000000 PUSH0 DUP3 ADD MSTORE POP JUMP JUMPDEST PUSH0 PUSH2 0x85C2 PUSH1 0x15 DUP4 PUSH2 0x61EF JUMP JUMPDEST SWAP2 POP PUSH2 0x85CD DUP3 PUSH2 0x858E JUMP JUMPDEST PUSH1 0x20 DUP3 ADD SWAP1 POP SWAP2 SWAP1 POP JUMP JUMPDEST PUSH0 PUSH1 0x20 DUP3 ADD SWAP1 POP DUP2 DUP2 SUB PUSH0 DUP4 ADD MSTORE PUSH2 0x85EF DUP2 PUSH2 0x85B6 JUMP JUMPDEST SWAP1 POP SWAP2 SWAP1 POP JUMP JUMPDEST PUSH32 0x496E76616C696420766F746520636F756E740000000000000000000000000000 PUSH0 DUP3 ADD MSTORE POP JUMP JUMPDEST PUSH0 PUSH2 0x862A PUSH1 0x12 DUP4 PUSH2 0x61EF JUMP JUMPDEST SWAP2 POP PUSH2 0x8635 DUP3 PUSH2 0x85F6 JUMP JUMPDEST PUSH1 0x20 DUP3 ADD SWAP1 POP SWAP2 SWAP1 POP JUMP JUMPDEST PUSH0 PUSH1 0x20 DUP3 ADD SWAP1 POP DUP2 DUP2 SUB PUSH0 DUP4 ADD MSTORE PUSH2 0x8657 DUP2 PUSH2 0x861E JUMP JUMPDEST SWAP1 POP SWAP2 SWAP1 POP JUMP JUMPDEST PUSH32 0x416C726561647920766F74656420283E3129206F72206E6F7420726567697374 PUSH0 DUP3 ADD MSTORE PUSH32 0x6572656420283029000000000000000000000000000000000000000000000000 PUSH1 0x20 DUP3 ADD MSTORE POP JUMP JUMPDEST PUSH0 PUSH2 0x86B8 PUSH1 0x28 DUP4 PUSH2 0x61EF JUMP JUMPDEST SWAP2 POP PUSH2 0x86C3 DUP3 PUSH2 0x865E JUMP JUMPDEST PUSH1 0x40 DUP3 ADD SWAP1 POP SWAP2 SWAP1 POP JUMP JUMPDEST PUSH0 PUSH1 0x20 DUP3 ADD SWAP1 POP DUP2 DUP2 SUB PUSH0 DUP4 ADD MSTORE PUSH2 0x86E5 DUP2 PUSH2 0x86AC JUMP JUMPDEST SWAP1 POP SWAP2 SWAP1 POP JUMP JUMPDEST PUSH32 0x57726F6E672063616E64696461746520696E6465780000000000000000000000 PUSH0 DUP3 ADD MSTORE POP JUMP JUMPDEST PUSH0 PUSH2 0x8720 PUSH1 0x15 DUP4 PUSH2 0x61EF JUMP JUMPDEST SWAP2 POP PUSH2 0x872B DUP3 PUSH2 0x86EC JUMP JUMPDEST PUSH1 0x20 DUP3 ADD SWAP1 POP SWAP2 SWAP1 POP JUMP JUMPDEST PUSH0 PUSH1 0x20 DUP3 ADD SWAP1 POP DUP2 DUP2 SUB PUSH0 DUP4 ADD MSTORE PUSH2 0x874D DUP2 PUSH2 0x8714 JUMP JUMPDEST SWAP1 POP SWAP2 SWAP1 POP JUMP JUMPDEST PUSH32 0x526570657469746976652063616E64696461746520696E646578000000000000 PUSH0 DUP3 ADD MSTORE POP JUMP JUMPDEST PUSH0 PUSH2 0x8788 PUSH1 0x1A DUP4 PUSH2 0x61EF JUMP JUMPDEST SWAP2 POP PUSH2 0x8793 DUP3 PUSH2 0x8754 JUMP JUMPDEST PUSH1 0x20 DUP3 ADD SWAP1 POP SWAP2 SWAP1 POP JUMP JUMPDEST PUSH0 PUSH1 0x20 DUP3 ADD SWAP1 POP DUP2 DUP2 SUB PUSH0 DUP4 ADD MSTORE PUSH2 0x87B5 DUP2 PUSH2 0x877C JUMP JUMPDEST SWAP1 POP SWAP2 SWAP1 POP JUMP JUMPDEST PUSH32 0x4F6E6C79206D656D626572732063616E2070726F706F73650000000000000000 PUSH0 DUP3 ADD MSTORE POP JUMP JUMPDEST PUSH0 PUSH2 0x87F0 PUSH1 0x18 DUP4 PUSH2 0x61EF JUMP JUMPDEST SWAP2 POP PUSH2 0x87FB DUP3 PUSH2 0x87BC JUMP JUMPDEST PUSH1 0x20 DUP3 ADD SWAP1 POP SWAP2 SWAP1 POP JUMP JUMPDEST PUSH0 PUSH1 0x20 DUP3 ADD SWAP1 POP DUP2 DUP2 SUB PUSH0 DUP4 ADD MSTORE PUSH2 0x881D DUP2 PUSH2 0x87E4 JUMP JUMPDEST SWAP1 POP SWAP2 SWAP1 POP JUMP JUMPDEST PUSH32 0x526174652063616E6E6F74206578636565642035302500000000000000000000 PUSH0 DUP3 ADD MSTORE POP JUMP JUMPDEST PUSH0 PUSH2 0x8858 PUSH1 0x16 DUP4 PUSH2 0x61EF JUMP JUMPDEST SWAP2 POP PUSH2 0x8863 DUP3 PUSH2 0x8824 JUMP JUMPDEST PUSH1 0x20 DUP3 ADD SWAP1 POP SWAP2 SWAP1 POP JUMP JUMPDEST PUSH0 PUSH1 0x20 DUP3 ADD SWAP1 POP DUP2 DUP2 SUB PUSH0 DUP4 ADD MSTORE PUSH2 0x8885 DUP2 PUSH2 0x884C JUMP JUMPDEST SWAP1 POP SWAP2 SWAP1 POP JUMP JUMPDEST PUSH0 PUSH2 0x8896 DUP3 PUSH2 0x5CE2 JUMP JUMPDEST SWAP2 POP PUSH2 0x88A1 DUP4 PUSH2 0x5CE2 JUMP JUMPDEST SWAP3 POP DUP3 DUP3 SUB SWAP1 POP PUSH1 0xFF DUP2 GT ISZERO PUSH2 0x88BA JUMPI PUSH2 0x88B9 PUSH2 0x7780 JUMP JUMPDEST JUMPDEST SWAP3 SWAP2 POP POP JUMP JUMPDEST PUSH0 PUSH2 0x88CA DUP3 PUSH2 0x5CE2 JUMP JUMPDEST SWAP2 POP PUSH2 0x88D5 DUP4 PUSH2 0x5CE2 JUMP JUMPDEST SWAP3 POP DUP3 DUP3 ADD SWAP1 POP PUSH1 0xFF DUP2 GT ISZERO PUSH2 0x88EE JUMPI PUSH2 0x88ED PUSH2 0x7780 JUMP JUMPDEST JUMPDEST SWAP3 SWAP2 POP POP JUMP JUMPDEST PUSH0 PUSH2 0x88FE DUP3 PUSH2 0x5CE2 JUMP JUMPDEST SWAP2 POP PUSH0 DUP3 SUB PUSH2 0x8910 JUMPI PUSH2 0x890F PUSH2 0x7780 JUMP JUMPDEST JUMPDEST PUSH1 0x1 DUP3 SUB SWAP1 POP SWAP2 SWAP1 POP JUMP JUMPDEST PUSH0 PUSH1 0x80 DUP3 ADD SWAP1 POP PUSH2 0x892E PUSH0 DUP4 ADD DUP8 PUSH2 0x60C6 JUMP JUMPDEST PUSH2 0x893B PUSH1 0x20 DUP4 ADD DUP7 PUSH2 0x5CEE JUMP JUMPDEST PUSH2 0x8948 PUSH1 0x40 DUP4 ADD DUP6 PUSH2 0x60C6 JUMP JUMPDEST PUSH2 0x8955 PUSH1 0x60 DUP4 ADD DUP5 PUSH2 0x5CEE JUMP JUMPDEST SWAP6 SWAP5 POP POP POP POP POP JUMP JUMPDEST PUSH32 0x4E487B7100000000000000000000000000000000000000000000000000000000 PUSH0 MSTORE PUSH1 0x12 PUSH1 0x4 MSTORE PUSH1 0x24 PUSH0 REVERT JUMPDEST PUSH0 PUSH2 0x8995 DUP3 PUSH2 0x5CE2 JUMP JUMPDEST SWAP2 POP PUSH2 0x89A0 DUP4 PUSH2 0x5CE2 JUMP JUMPDEST SWAP3 POP DUP3 PUSH2 0x89B0 JUMPI PUSH2 0x89AF PUSH2 0x895E JUMP JUMPDEST JUMPDEST DUP3 DUP3 DIV SWAP1 POP SWAP3 SWAP2 POP POP JUMP JUMPDEST PUSH32 0x43616E6E6F74207374617274207265666572656E64756D207965740000000000 PUSH0 DUP3 ADD MSTORE POP JUMP JUMPDEST PUSH0 PUSH2 0x89EF PUSH1 0x1B DUP4 PUSH2 0x61EF JUMP JUMPDEST SWAP2 POP PUSH2 0x89FA DUP3 PUSH2 0x89BB JUMP JUMPDEST PUSH1 0x20 DUP3 ADD SWAP1 POP SWAP2 SWAP1 POP JUMP JUMPDEST PUSH0 PUSH1 0x20 DUP3 ADD SWAP1 POP DUP2 DUP2 SUB PUSH0 DUP4 ADD MSTORE PUSH2 0x8A1C DUP2 PUSH2 0x89E3 JUMP JUMPDEST SWAP1 POP SWAP2 SWAP1 POP JUMP JUMPDEST PUSH32 0x416C7265616479207261746966696564206120636F6E737469747574696F6E00 PUSH0 DUP3 ADD MSTORE POP JUMP JUMPDEST PUSH0 PUSH2 0x8A57 PUSH1 0x1F DUP4 PUSH2 0x61EF JUMP JUMPDEST SWAP2 POP PUSH2 0x8A62 DUP3 PUSH2 0x8A23 JUMP JUMPDEST PUSH1 0x20 DUP3 ADD SWAP1 POP SWAP2 SWAP1 POP JUMP JUMPDEST PUSH0 PUSH1 0x20 DUP3 ADD SWAP1 POP DUP2 DUP2 SUB PUSH0 DUP4 ADD MSTORE PUSH2 0x8A84 DUP2 PUSH2 0x8A4B JUMP JUMPDEST SWAP1 POP SWAP2 SWAP1 POP JUMP JUMPDEST PUSH32 0x4E6F7420656E6F7567682070726F706F73616C73000000000000000000000000 PUSH0 DUP3 ADD MSTORE POP JUMP JUMPDEST PUSH0 PUSH2 0x8ABF PUSH1 0x14 DUP4 PUSH2 0x61EF JUMP JUMPDEST SWAP2 POP PUSH2 0x8ACA DUP3 PUSH2 0x8A8B JUMP JUMPDEST PUSH1 0x20 DUP3 ADD SWAP1 POP SWAP2 SWAP1 POP JUMP JUMPDEST PUSH0 PUSH1 0x20 DUP3 ADD SWAP1 POP DUP2 DUP2 SUB PUSH0 DUP4 ADD MSTORE PUSH2 0x8AEC DUP2 PUSH2 0x8AB3 JUMP JUMPDEST SWAP1 POP SWAP2 SWAP1 POP JUMP JUMPDEST PUSH32 0x4E6F7420656E6F75676820766F74657273000000000000000000000000000000 PUSH0 DUP3 ADD MSTORE POP JUMP JUMPDEST PUSH0 PUSH2 0x8B27 PUSH1 0x11 DUP4 PUSH2 0x61EF JUMP JUMPDEST SWAP2 POP PUSH2 0x8B32 DUP3 PUSH2 0x8AF3 JUMP JUMPDEST PUSH1 0x20 DUP3 ADD SWAP1 POP SWAP2 SWAP1 POP JUMP JUMPDEST PUSH0 PUSH1 0x20 DUP3 ADD SWAP1 POP DUP2 DUP2 SUB PUSH0 DUP4 ADD MSTORE PUSH2 0x8B54 DUP2 PUSH2 0x8B1B JUMP JUMPDEST SWAP1 POP SWAP2 SWAP1 POP JUMP JUMPDEST PUSH32 0x4E6F7420696E205265666572656E64756D2074696D6500000000000000000000 PUSH0 DUP3 ADD MSTORE POP JUMP JUMPDEST PUSH0 PUSH2 0x8B8F PUSH1 0x16 DUP4 PUSH2 0x61EF JUMP JUMPDEST SWAP2 POP PUSH2 0x8B9A DUP3 PUSH2 0x8B5B JUMP JUMPDEST PUSH1 0x20 DUP3 ADD SWAP1 POP SWAP2 SWAP1 POP JUMP JUMPDEST PUSH0 PUSH1 0x20 DUP3 ADD SWAP1 POP DUP2 DUP2 SUB PUSH0 DUP4 ADD MSTORE PUSH2 0x8BBC DUP2 PUSH2 0x8B83 JUMP JUMPDEST SWAP1 POP SWAP2 SWAP1 POP JUMP JUMPDEST PUSH32 0x496E76616C69642070726F706F73616C206C6973740000000000000000000000 PUSH0 DUP3 ADD MSTORE POP JUMP JUMPDEST PUSH0 PUSH2 0x8BF7 PUSH1 0x15 DUP4 PUSH2 0x61EF JUMP JUMPDEST SWAP2 POP PUSH2 0x8C02 DUP3 PUSH2 0x8BC3 JUMP JUMPDEST PUSH1 0x20 DUP3 ADD SWAP1 POP SWAP2 SWAP1 POP JUMP JUMPDEST PUSH0 PUSH1 0x20 DUP3 ADD SWAP1 POP DUP2 DUP2 SUB PUSH0 DUP4 ADD MSTORE PUSH2 0x8C24 DUP2 PUSH2 0x8BEB JUMP JUMPDEST SWAP1 POP SWAP2 SWAP1 POP JUMP JUMPDEST PUSH32 0x566F746564206F72204E6F74207265676973746572656420656E6F7567682074 PUSH0 DUP3 ADD MSTORE PUSH32 0x696D657300000000000000000000000000000000000000000000000000000000 PUSH1 0x20 DUP3 ADD MSTORE POP JUMP JUMPDEST PUSH0 PUSH2 0x8C85 PUSH1 0x24 DUP4 PUSH2 0x61EF JUMP JUMPDEST SWAP2 POP PUSH2 0x8C90 DUP3 PUSH2 0x8C2B JUMP JUMPDEST PUSH1 0x40 DUP3 ADD SWAP1 POP SWAP2 SWAP1 POP JUMP JUMPDEST PUSH0 PUSH1 0x20 DUP3 ADD SWAP1 POP DUP2 DUP2 SUB PUSH0 DUP4 ADD MSTORE PUSH2 0x8CB2 DUP2 PUSH2 0x8C79 JUMP JUMPDEST SWAP1 POP SWAP2 SWAP1 POP JUMP JUMPDEST PUSH32 0x496E76616C69642070726F706F73616C00000000000000000000000000000000 PUSH0 DUP3 ADD MSTORE POP JUMP JUMPDEST PUSH0 PUSH2 0x8CED PUSH1 0x10 DUP4 PUSH2 0x61EF JUMP JUMPDEST SWAP2 POP PUSH2 0x8CF8 DUP3 PUSH2 0x8CB9 JUMP JUMPDEST PUSH1 0x20 DUP3 ADD SWAP1 POP SWAP2 SWAP1 POP JUMP JUMPDEST PUSH0 PUSH1 0x20 DUP3 ADD SWAP1 POP DUP2 DUP2 SUB PUSH0 DUP4 ADD MSTORE PUSH2 0x8D1A DUP2 PUSH2 0x8CE1 JUMP JUMPDEST SWAP1 POP SWAP2 SWAP1 POP JUMP JUMPDEST PUSH32 0x526570657469746976652070726F706F73616C49640000000000000000000000 PUSH0 DUP3 ADD MSTORE POP JUMP JUMPDEST PUSH0 PUSH2 0x8D55 PUSH1 0x15 DUP4 PUSH2 0x61EF JUMP JUMPDEST SWAP2 POP PUSH2 0x8D60 DUP3 PUSH2 0x8D21 JUMP JUMPDEST PUSH1 0x20 DUP3 ADD SWAP1 POP SWAP2 SWAP1 POP JUMP JUMPDEST PUSH0 PUSH1 0x20 DUP3 ADD SWAP1 POP DUP2 DUP2 SUB PUSH0 DUP4 ADD MSTORE PUSH2 0x8D82 DUP2 PUSH2 0x8D49 JUMP JUMPDEST SWAP1 POP SWAP2 SWAP1 POP JUMP JUMPDEST PUSH32 0x43616C6C20616674657220656C656374696F6E00000000000000000000000000 PUSH0 DUP3 ADD MSTORE POP JUMP JUMPDEST PUSH0 PUSH2 0x8DBD PUSH1 0x13 DUP4 PUSH2 0x61EF JUMP JUMPDEST SWAP2 POP PUSH2 0x8DC8 DUP3 PUSH2 0x8D89 JUMP JUMPDEST PUSH1 0x20 DUP3 ADD SWAP1 POP SWAP2 SWAP1 POP JUMP JUMPDEST PUSH0 PUSH1 0x20 DUP3 ADD SWAP1 POP DUP2 DUP2 SUB PUSH0 DUP4 ADD MSTORE PUSH2 0x8DEA DUP2 PUSH2 0x8DB1 JUMP JUMPDEST SWAP1 POP SWAP2 SWAP1 POP JUMP JUMPDEST PUSH0 PUSH1 0x32 SWAP1 POP SWAP2 SWAP1 POP JUMP JUMPDEST PUSH0 DUP2 SWAP1 POP SWAP3 SWAP2 POP POP JUMP JUMPDEST PUSH0 DUP2 SWAP1 POP SWAP2 SWAP1 POP JUMP JUMPDEST PUSH0 DUP2 PUSH0 SHR SWAP1 POP SWAP2 SWAP1 POP JUMP JUMPDEST PUSH0 PUSH20 0xFFFFFFFFFFFFFFFFFFFFFFFFFFFFFFFFFFFFFFFF DUP3 AND SWAP1 POP SWAP2 SWAP1 POP JUMP JUMPDEST PUSH0 PUSH2 0x8E4A PUSH2 0x8E45 DUP4 PUSH2 0x8E0E JUMP JUMPDEST PUSH2 0x8E19 JUMP JUMPDEST SWAP1 POP SWAP2 SWAP1 POP JUMP JUMPDEST PUSH0 PUSH2 0x8E5C DUP3 SLOAD PUSH2 0x8E38 JUMP JUMPDEST SWAP1 POP SWAP2 SWAP1 POP JUMP JUMPDEST PUSH0 PUSH1 0x1 DUP3 ADD SWAP1 POP SWAP2 SWAP1 POP JUMP JUMPDEST PUSH2 0x8E78 DUP2 PUSH2 0x8DF1 JUMP JUMPDEST PUSH2 0x8E82 DUP2 DUP5 PUSH2 0x8DFB JUMP JUMPDEST SWAP3 POP PUSH2 0x8E8D DUP3 PUSH2 0x8E05 JUMP JUMPDEST DUP1 PUSH0 JUMPDEST DUP4 DUP2 LT ISZERO PUSH2 0x8EC4 JUMPI PUSH2 0x8EA1 DUP3 PUSH2 0x8E51 JUMP JUMPDEST PUSH2 0x8EAB DUP8 DUP3 PUSH2 0x8388 JUMP JUMPDEST SWAP7 POP PUSH2 0x8EB6 DUP4 PUSH2 0x8E63 JUMP JUMPDEST SWAP3 POP POP PUSH1 0x1 DUP2 ADD SWAP1 POP PUSH2 0x8E90 JUMP JUMPDEST POP POP POP POP POP POP JUMP JUMPDEST PUSH0 PUSH2 0x8ED7 DUP3 DUP5 PUSH2 0x8E6F JUMP JUMPDEST PUSH2 0x640 DUP3 ADD SWAP2 POP DUP2 SWAP1 POP SWAP3 SWAP2 POP POP JUMP JUMPDEST PUSH32 0x496E76616C696420636F6E737469747574696F6E2070726F706F73616C204944 PUSH0 DUP3 ADD MSTORE POP JUMP JUMPDEST PUSH0 PUSH2 0x8F1B PUSH1 0x20 DUP4 PUSH2 0x61EF JUMP JUMPDEST SWAP2 POP PUSH2 0x8F26 DUP3 PUSH2 0x8EE7 JUMP JUMPDEST PUSH1 0x20 DUP3 ADD SWAP1 POP SWAP2 SWAP1 POP JUMP JUMPDEST PUSH0 PUSH1 0x20 DUP3 ADD SWAP1 POP DUP2 DUP2 SUB PUSH0 DUP4 ADD MSTORE PUSH2 0x8F48 DUP2 PUSH2 0x8F0F JUMP JUMPDEST SWAP1 POP SWAP2 SWAP1 POP JUMP JUMPDEST PUSH32 0x4E6F7420617574686F72697A65642072616E646F6D697A657200000000000000 PUSH0 DUP3 ADD MSTORE POP JUMP JUMPDEST PUSH0 PUSH2 0x8F83 PUSH1 0x19 DUP4 PUSH2 0x61EF JUMP JUMPDEST SWAP2 POP PUSH2 0x8F8E DUP3 PUSH2 0x8F4F JUMP JUMPDEST PUSH1 0x20 DUP3 ADD SWAP1 POP SWAP2 SWAP1 POP JUMP JUMPDEST PUSH0 PUSH1 0x20 DUP3 ADD SWAP1 POP DUP2 DUP2 SUB PUSH0 DUP4 ADD MSTORE PUSH2 0x8FB0 DUP2 PUSH2 0x8F77 JUMP JUMPDEST SWAP1 POP SWAP2 SWAP1 POP JUMP JUMPDEST PUSH32 0x566F74657220616464696E6720706572696F642068617320656E6465642E0000 PUSH0 DUP3 ADD MSTORE POP JUMP JUMPDEST PUSH0 PUSH2 0x8FEB PUSH1 0x1E DUP4 PUSH2 0x61EF JUMP JUMPDEST SWAP2 POP PUSH2 0x8FF6 DUP3 PUSH2 0x8FB7 JUMP JUMPDEST PUSH1 0x20 DUP3 ADD SWAP1 POP SWAP2 SWAP1 POP JUMP JUMPDEST PUSH0 PUSH1 0x20 DUP3 ADD SWAP1 POP DUP2 DUP2 SUB PUSH0 DUP4 ADD MSTORE PUSH2 0x9018 DUP2 PUSH2 0x8FDF JUMP JUMPDEST SWAP1 POP SWAP2 SWAP1 POP JUMP JUMPDEST PUSH0 PUSH2 0x9029 DUP3 PUSH2 0x5D16 JUMP JUMPDEST SWAP2 POP PUSH2 0x9034 DUP4 PUSH2 0x5D16 JUMP JUMPDEST SWAP3 POP DUP3 DUP3 MUL PUSH2 0x9042 DUP2 PUSH2 0x5D16 JUMP JUMPDEST SWAP2 POP DUP1 DUP3 EQ PUSH2 0x9054 JUMPI PUSH2 0x9053 PUSH2 0x7780 JUMP JUMPDEST JUMPDEST POP SWAP3 SWAP2 POP POP JUMP JUMPDEST PUSH32 0x4D6178696D756D206E756D626572206F6620766F746572732072656163686564 PUSH0 DUP3 ADD MSTORE PUSH32 0x2E00000000000000000000000000000000000000000000000000000000000000 PUSH1 0x20 DUP3 ADD MSTORE POP JUMP JUMPDEST PUSH0 PUSH2 0x90B5 PUSH1 0x21 DUP4 PUSH2 0x61EF JUMP JUMPDEST SWAP2 POP PUSH2 0x90C0 DUP3 PUSH2 0x905B JUMP JUMPDEST PUSH1 0x40 DUP3 ADD SWAP1 POP SWAP2 SWAP1 POP JUMP JUMPDEST PUSH0 PUSH1 0x20 DUP3 ADD SWAP1 POP DUP2 DUP2 SUB PUSH0 DUP4 ADD MSTORE PUSH2 0x90E2 DUP2 PUSH2 0x90A9 JUMP JUMPDEST SWAP1 POP SWAP2 SWAP1 POP JUMP JUMPDEST PUSH32 0x4164647265737320697320616C7265616479206164646564206173206120766F PUSH0 DUP3 ADD MSTORE PUSH32 0x7465720000000000000000000000000000000000000000000000000000000000 PUSH1 0x20 DUP3 ADD MSTORE POP JUMP JUMPDEST PUSH0 PUSH2 0x9143 PUSH1 0x23 DUP4 PUSH2 0x61EF JUMP JUMPDEST SWAP2 POP PUSH2 0x914E DUP3 PUSH2 0x90E9 JUMP JUMPDEST PUSH1 0x40 DUP3 ADD SWAP1 POP SWAP2 SWAP1 POP JUMP JUMPDEST PUSH0 PUSH1 0x20 DUP3 ADD SWAP1 POP DUP2 DUP2 SUB PUSH0 DUP4 ADD MSTORE PUSH2 0x9170 DUP2 PUSH2 0x9137 JUMP JUMPDEST SWAP1 POP SWAP2 SWAP1 POP JUMP JUMPDEST PUSH0 PUSH2 0xFFFF DUP3 AND SWAP1 POP SWAP2 SWAP1 POP JUMP JUMPDEST PUSH0 PUSH2 0x918E DUP3 PUSH2 0x9177 JUMP JUMPDEST SWAP2 POP PUSH2 0xFFFF DUP3 SUB PUSH2 0x91A2 JUMPI PUSH2 0x91A1 PUSH2 0x7780 JUMP JUMPDEST JUMPDEST PUSH1 0x1 DUP3 ADD SWAP1 POP SWAP2 SWAP1 POP JUMP JUMPDEST PUSH0 PUSH2 0x91C7 PUSH2 0x91C2 PUSH2 0x91BD DUP5 PUSH2 0x9177 JUMP JUMPDEST PUSH2 0x71DB JUMP JUMPDEST PUSH2 0x60BD JUMP JUMPDEST SWAP1 POP SWAP2 SWAP1 POP JUMP JUMPDEST PUSH2 0x91D7 DUP2 PUSH2 0x91AD JUMP JUMPDEST DUP3 MSTORE POP POP JUMP JUMPDEST PUSH0 PUSH1 0x20 DUP3 ADD SWAP1 POP PUSH2 0x91F0 PUSH0 DUP4 ADD DUP5 PUSH2 0x91CE JUMP JUMPDEST SWAP3 SWAP2 POP POP JUMP INVALID LOG2 PUSH5 0x6970667358 0x22 SLT KECCAK256 0xEA SWAP12 0xD2 0xB5 0xB3 0xD6 0xBD LOG2 DUP4 0xB5 TIMESTAMP CODESIZE SWAP14 MULMOD CODECOPY 0xE8 0xC3 RETURN 0xC1 0xB5 EXTCODECOPY SWAP1 0xB6 PUSH2 0xC836 EXTCODEHASH 0xBC 0xC PUSH7 0x279B64736F6C63 NUMBER STOP ADDMOD BYTE STOP CALLER "
		},
		"gasEstimates": {
			"creation": {
				"codeDepositCost": "7484000",
				"executionCost": "infinite",
				"totalCost": "infinite"
			},
			"external": {
				"GOVERNANCE_LENGTH()": "416",
				"LEADER_PERIOD()": "459",
				"MINIMUM_PROPOSALS()": "419",
				"MINIMUM_VOTERS()": "421",
				"MIN_VOTES()": "423",
				"RANDOM_VOTERS()": "399",
				"REGISTRATION_DURATION()": "394",
				"REGISTRATION_FEE()": "393",
				"SUBMISSION_FEE()": "436",
				"SUPER_MAJORITY()": "420",
				"TOTAL_MEMBERS()": "401",
				"VOTER_BATCH()": "398",
				"activeBillByMember(address)": "2937",
				"addVoter(address)": "infinite",
				"bills(uint256)": "infinite",
				"candidateInfo(address)": "infinite",
				"candidateList(uint256)": "5056",
				"changeLeader()": "infinite",
				"constitutionProposals(uint256)": "infinite",
				"currentLeaderAddress()": "2692",
				"currentLeaderNumber()": "2538",
				"currentRate()": "2557",
				"electionEnd()": "2537",
				"getBillInfo(uint256)": "infinite",
				"getCandidateInfo(uint256)": "infinite",
				"getConstitution(uint256)": "infinite",
				"getCurrentPhase()": "infinite",
				"getElectionResults()": "infinite",
				"getMemberActiveBill(address)": "5144",
				"getReferendumResults()": "infinite",
				"getRegistrarsOfHash(bytes32)": "infinite",
				"getVoterStatus(address)": "2896",
				"getVotingTimeBill(uint256,address)": "infinite",
				"interestPeriods(uint256)": "infinite",
				"lend()": "70527",
				"loansByLender(address,uint256)": "infinite",
				"memberRank(address)": "2900",
				"memberVotedAt(address,uint256)": "infinite",
				"membersElected()": "2535",
				"numberOfRates()": "2557",
				"proposalCount()": "2514",
				"proposeBill(string,(uint256,address,string)[])": "infinite",
				"proposeConstitution((string,string,string,string,bytes32,string,uint256,uint256))": "infinite",
				"proposeRate(uint256)": "infinite",
				"randomizerAddress()": "2595",
				"ratifiedConstitutionId()": "2536",
				"referendumEndTime()": "2515",
				"referendumVoterCount()": "2577",
				"registerAsCandidate(string,string,string)": "infinite",
				"registerVoterBatch(bytes32[10],address[10])": "infinite",
				"sortedRates(uint256)": "infinite",
				"startReferendum()": "infinite",
				"startTime()": "infinite",
				"treasuryReserve()": "402",
				"voteCandidates(uint256[])": "infinite",
				"voteForBill(uint256)": "infinite",
				"voteInReferendum(uint256[])": "infinite",
				"withdrawBill(uint256)": "39650"
			},
			"internal": {
				"_executeBill(uint256)": "infinite"
			}
		},
		"methodIdentifiers": {
			"GOVERNANCE_LENGTH()": "247d0818",
			"LEADER_PERIOD()": "485be9cf",
			"MINIMUM_PROPOSALS()": "f3d82fde",
			"MINIMUM_VOTERS()": "caa1d811",
			"MIN_VOTES()": "06736946",
			"RANDOM_VOTERS()": "3def77b7",
			"REGISTRATION_DURATION()": "4c1342df",
			"REGISTRATION_FEE()": "64b4f751",
			"SUBMISSION_FEE()": "7d48536d",
			"SUPER_MAJORITY()": "b85c2292",
			"TOTAL_MEMBERS()": "033acf47",
			"VOTER_BATCH()": "b5ba9795",
			"activeBillByMember(address)": "198ccd2c",
			"addVoter(address)": "f4ab9adf",
			"bills(uint256)": "28bdcde8",
			"candidateInfo(address)": "e965b7c9",
			"candidateList(uint256)": "b13c744b",
			"changeLeader()": "a5f5b1bf",
			"constitutionProposals(uint256)": "428027ac",
			"currentLeaderAddress()": "7da4ce83",
			"currentLeaderNumber()": "16392372",
			"currentRate()": "f9f8bdb7",
			"electionEnd()": "ce7ea161",
			"getBillInfo(uint256)": "52f61b05",
			"getCandidateInfo(uint256)": "70f67cfe",
			"getConstitution(uint256)": "f3a4aba9",
			"getCurrentPhase()": "a3a40ea5",
			"getElectionResults()": "eccf1f10",
			"getMemberActiveBill(address)": "8e0ca5ad",
			"getReferendumResults()": "452d32bb",
			"getRegistrarsOfHash(bytes32)": "08ec6a19",
			"getVoterStatus(address)": "78e3ef20",
			"getVotingTimeBill(uint256,address)": "d9688f03",
			"interestPeriods(uint256)": "f33e9573",
			"lend()": "97dffc61",
			"loansByLender(address,uint256)": "6becc9f3",
			"memberRank(address)": "eab536fc",
			"memberVotedAt(address,uint256)": "2190bee8",
			"membersElected()": "089e35b8",
			"numberOfRates()": "8f3218df",
			"proposalCount()": "da35c664",
			"proposeBill(string,(uint256,address,string)[])": "5e8523a9",
			"proposeConstitution((string,string,string,string,bytes32,string,uint256,uint256))": "5f02b56d",
			"proposeRate(uint256)": "bdc8e7b3",
			"randomizerAddress()": "69b5c8f9",
			"ratifiedConstitutionId()": "eedb2d28",
			"referendumEndTime()": "b0feb260",
			"referendumVoterCount()": "e42a54c4",
			"registerAsCandidate(string,string,string)": "079ddd11",
			"registerVoterBatch(bytes32[10],address[10])": "99b0d39c",
			"sortedRates(uint256)": "9dc99455",
			"startReferendum()": "be003ee6",
			"startTime()": "78e97925",
			"treasuryReserve()": "59297dbf",
			"voteCandidates(uint256[])": "a6a5ad12",
			"voteForBill(uint256)": "5bd03e9d",
			"voteInReferendum(uint256[])": "c1b13157",
			"withdrawBill(uint256)": "58e1cbee"
		}
	},
	"abi": [
		{
			"inputs": [
				{
					"internalType": "address",
					"name": "_randomizerAddress",
					"type": "address"
				},
				{
					"internalType": "string",
					"name": "_provisions",
					"type": "string"
				}
			],
			"stateMutability": "nonpayable",
			"type": "constructor"
		},
		{
			"anonymous": false,
			"inputs": [
				{
					"indexed": true,
					"internalType": "uint256",
					"name": "billId",
					"type": "uint256"
				}
			],
			"name": "BillPassed",
			"type": "event"
		},
		{
			"anonymous": false,
			"inputs": [
				{
					"indexed": true,
					"internalType": "uint256",
					"name": "billId",
					"type": "uint256"
				},
				{
					"indexed": true,
					"internalType": "address",
					"name": "proposer",
					"type": "address"
				},
				{
					"indexed": false,
					"internalType": "string",
					"name": "provisions",
					"type": "string"
				}
			],
			"name": "BillProposed",
			"type": "event"
		},
		{
			"anonymous": false,
			"inputs": [
				{
					"indexed": true,
					"internalType": "uint256",
					"name": "billId",
					"type": "uint256"
				},
				{
					"indexed": true,
					"internalType": "address",
					"name": "voter",
					"type": "address"
				}
			],
			"name": "BillVoted",
			"type": "event"
		},
		{
			"anonymous": false,
			"inputs": [
				{
					"indexed": true,
					"internalType": "uint256",
					"name": "billId",
					"type": "uint256"
				}
			],
			"name": "BillWithdrawn",
			"type": "event"
		},
		{
			"anonymous": false,
			"inputs": [
				{
					"indexed": true,
					"internalType": "address",
					"name": "candidate",
					"type": "address"
				},
				{
					"indexed": false,
					"internalType": "string",
					"name": "fullName",
					"type": "string"
				},
				{
					"indexed": false,
					"internalType": "string",
					"name": "bio",
					"type": "string"
				},
				{
					"indexed": false,
					"internalType": "string",
					"name": "website",
					"type": "string"
				}
			],
			"name": "CandidateRegistered",
			"type": "event"
		},
		{
			"anonymous": false,
			"inputs": [
				{
					"indexed": true,
					"internalType": "uint256",
					"name": "proposalId",
					"type": "uint256"
				},
				{
					"components": [
						{
							"internalType": "string",
							"name": "description",
							"type": "string"
						},
						{
							"internalType": "string",
							"name": "constitutionText",
							"type": "string"
						},
						{
							"internalType": "string",
							"name": "implementationCode",
							"type": "string"
						},
						{
							"internalType": "string",
							"name": "proposerIdentity",
							"type": "string"
						},
						{
							"internalType": "bytes32",
							"name": "hashedOffChain",
							"type": "bytes32"
						},
						{
							"internalType": "string",
							"name": "supportingMaterials",
							"type": "string"
						},
						{
							"internalType": "uint256",
							"name": "submittedAt",
							"type": "uint256"
						},
						{
							"internalType": "uint256",
							"name": "voteCount",
							"type": "uint256"
						}
					],
					"indexed": false,
					"internalType": "struct SmartConstitution.ConstitutionProposal",
					"name": "proposal",
					"type": "tuple"
				}
			],
			"name": "ConstitutionProposalSubmitted",
			"type": "event"
		},
		{
			"anonymous": false,
			"inputs": [
				{
					"indexed": true,
					"internalType": "uint256",
					"name": "winningProposalId",
					"type": "uint256"
				},
				{
					"components": [
						{
							"internalType": "string",
							"name": "description",
							"type": "string"
						},
						{
							"internalType": "string",
							"name": "constitutionText",
							"type": "string"
						},
						{
							"internalType": "string",
							"name": "implementationCode",
							"type": "string"
						},
						{
							"internalType": "string",
							"name": "proposerIdentity",
							"type": "string"
						},
						{
							"internalType": "bytes32",
							"name": "hashedOffChain",
							"type": "bytes32"
						},
						{
							"internalType": "string",
							"name": "supportingMaterials",
							"type": "string"
						},
						{
							"internalType": "uint256",
							"name": "submittedAt",
							"type": "uint256"
						},
						{
							"internalType": "uint256",
							"name": "voteCount",
							"type": "uint256"
						}
					],
					"indexed": false,
					"internalType": "struct SmartConstitution.ConstitutionProposal",
					"name": "ratifiedConstitution",
					"type": "tuple"
				}
			],
			"name": "ConstitutionRatified",
			"type": "event"
		},
		{
			"anonymous": false,
			"inputs": [
				{
					"indexed": true,
					"internalType": "address[50]",
					"name": "electedMembers",
					"type": "address[50]"
				},
				{
					"indexed": false,
					"internalType": "address",
					"name": "firstLeader",
					"type": "address"
				}
			],
			"name": "ElectionResults",
			"type": "event"
		},
		{
			"anonymous": false,
			"inputs": [
				{
					"indexed": false,
					"internalType": "uint256",
					"name": "newMedianRate",
					"type": "uint256"
				}
			],
			"name": "InterestRateUpdated",
			"type": "event"
		},
		{
			"anonymous": false,
			"inputs": [
				{
					"indexed": true,
					"internalType": "address",
					"name": "newLeader",
					"type": "address"
				}
			],
			"name": "LeadershipChanged",
			"type": "event"
		},
		{
			"anonymous": false,
			"inputs": [
				{
					"indexed": true,
					"internalType": "address",
					"name": "lender",
					"type": "address"
				},
				{
					"indexed": false,
					"internalType": "int256",
					"name": "amount",
					"type": "int256"
				}
			],
			"name": "LoanReceived",
			"type": "event"
		},
		{
			"anonymous": false,
			"inputs": [
				{
					"indexed": true,
					"internalType": "address",
					"name": "member",
					"type": "address"
				},
				{
					"indexed": false,
					"internalType": "uint256",
					"name": "oldRate",
					"type": "uint256"
				},
				{
					"indexed": false,
					"internalType": "uint8",
					"name": "oldRank",
					"type": "uint8"
				},
				{
					"indexed": false,
					"internalType": "uint256",
					"name": "newRate",
					"type": "uint256"
				},
				{
					"indexed": false,
					"internalType": "uint8",
					"name": "newRank",
					"type": "uint8"
				}
			],
			"name": "MemberRateChanged",
			"type": "event"
		},
		{
			"anonymous": false,
			"inputs": [],
			"name": "ReferendumStarted",
			"type": "event"
		},
		{
			"anonymous": false,
			"inputs": [
				{
					"indexed": true,
					"internalType": "address",
					"name": "voter",
					"type": "address"
				}
			],
			"name": "ReferendumVoteCast",
			"type": "event"
		},
		{
			"anonymous": false,
			"inputs": [
				{
					"indexed": true,
					"internalType": "address",
					"name": "voter",
					"type": "address"
				}
			],
			"name": "VoteCast",
			"type": "event"
		},
		{
			"anonymous": false,
			"inputs": [
				{
					"indexed": true,
					"internalType": "address",
					"name": "voter",
					"type": "address"
				},
				{
					"indexed": false,
					"internalType": "uint256",
					"name": "addedVoterCount",
					"type": "uint256"
				}
			],
			"name": "VoterAdded",
			"type": "event"
		},
		{
			"anonymous": false,
			"inputs": [
				{
					"indexed": true,
					"internalType": "address[10]",
					"name": "voter",
					"type": "address[10]"
				},
				{
					"indexed": false,
					"internalType": "address",
					"name": "registrar",
					"type": "address"
				},
				{
					"indexed": false,
					"internalType": "uint256",
					"name": "referendumVoterCount",
					"type": "uint256"
				}
			],
			"name": "VoterRegistered",
			"type": "event"
		},
		{
			"inputs": [],
			"name": "GOVERNANCE_LENGTH",
			"outputs": [
				{
					"internalType": "uint256",
					"name": "",
					"type": "uint256"
				}
			],
			"stateMutability": "view",
			"type": "function"
		},
		{
			"inputs": [],
			"name": "LEADER_PERIOD",
			"outputs": [
				{
					"internalType": "uint256",
					"name": "",
					"type": "uint256"
				}
			],
			"stateMutability": "view",
			"type": "function"
		},
		{
			"inputs": [],
			"name": "MINIMUM_PROPOSALS",
			"outputs": [
				{
					"internalType": "uint8",
					"name": "",
					"type": "uint8"
				}
			],
			"stateMutability": "view",
			"type": "function"
		},
		{
			"inputs": [],
			"name": "MINIMUM_VOTERS",
			"outputs": [
				{
					"internalType": "uint32",
					"name": "",
					"type": "uint32"
				}
			],
			"stateMutability": "view",
			"type": "function"
		},
		{
			"inputs": [],
			"name": "MIN_VOTES",
			"outputs": [
				{
					"internalType": "uint32",
					"name": "",
					"type": "uint32"
				}
			],
			"stateMutability": "view",
			"type": "function"
		},
		{
			"inputs": [],
			"name": "RANDOM_VOTERS",
			"outputs": [
				{
					"internalType": "uint32",
					"name": "",
					"type": "uint32"
				}
			],
			"stateMutability": "view",
			"type": "function"
		},
		{
			"inputs": [],
			"name": "REGISTRATION_DURATION",
			"outputs": [
				{
					"internalType": "uint256",
					"name": "",
					"type": "uint256"
				}
			],
			"stateMutability": "view",
			"type": "function"
		},
		{
			"inputs": [],
			"name": "REGISTRATION_FEE",
			"outputs": [
				{
					"internalType": "uint256",
					"name": "",
					"type": "uint256"
				}
			],
			"stateMutability": "view",
			"type": "function"
		},
		{
			"inputs": [],
			"name": "SUBMISSION_FEE",
			"outputs": [
				{
					"internalType": "uint256",
					"name": "",
					"type": "uint256"
				}
			],
			"stateMutability": "view",
			"type": "function"
		},
		{
			"inputs": [],
			"name": "SUPER_MAJORITY",
			"outputs": [
				{
					"internalType": "uint8",
					"name": "",
					"type": "uint8"
				}
			],
			"stateMutability": "view",
			"type": "function"
		},
		{
			"inputs": [],
			"name": "TOTAL_MEMBERS",
			"outputs": [
				{
					"internalType": "uint8",
					"name": "",
					"type": "uint8"
				}
			],
			"stateMutability": "view",
			"type": "function"
		},
		{
			"inputs": [],
			"name": "VOTER_BATCH",
			"outputs": [
				{
					"internalType": "uint32",
					"name": "",
					"type": "uint32"
				}
			],
			"stateMutability": "view",
			"type": "function"
		},
		{
			"inputs": [
				{
					"internalType": "address",
					"name": "",
					"type": "address"
				}
			],
			"name": "activeBillByMember",
			"outputs": [
				{
					"internalType": "uint256",
					"name": "",
					"type": "uint256"
				}
			],
			"stateMutability": "view",
			"type": "function"
		},
		{
			"inputs": [
				{
					"internalType": "address",
					"name": "voter",
					"type": "address"
				}
			],
			"name": "addVoter",
			"outputs": [],
			"stateMutability": "nonpayable",
			"type": "function"
		},
		{
			"inputs": [
				{
					"internalType": "uint256",
					"name": "",
					"type": "uint256"
				}
			],
			"name": "bills",
			"outputs": [
				{
					"internalType": "address",
					"name": "proposer",
					"type": "address"
				},
				{
					"internalType": "string",
					"name": "provisions",
					"type": "string"
				},
				{
					"internalType": "uint256",
					"name": "proposedAt",
					"type": "uint256"
				},
				{
					"internalType": "uint256",
					"name": "executedAt",
					"type": "uint256"
				},
				{
					"internalType": "uint256",
					"name": "withdrawnAt",
					"type": "uint256"
				},
				{
					"internalType": "uint8",
					"name": "yesVotes",
					"type": "uint8"
				}
			],
			"stateMutability": "view",
			"type": "function"
		},
		{
			"inputs": [
				{
					"internalType": "address",
					"name": "",
					"type": "address"
				}
			],
			"name": "candidateInfo",
			"outputs": [
				{
					"internalType": "string",
					"name": "fullName",
					"type": "string"
				},
				{
					"internalType": "string",
					"name": "bio",
					"type": "string"
				},
				{
					"internalType": "string",
					"name": "website",
					"type": "string"
				},
				{
					"internalType": "uint256",
					"name": "registeredAt",
					"type": "uint256"
				},
				{
					"internalType": "uint256",
					"name": "voteCount",
					"type": "uint256"
				},
				{
					"internalType": "bool",
					"name": "electedMember",
					"type": "bool"
				},
				{
					"internalType": "uint256",
					"name": "leaderAt",
					"type": "uint256"
				}
			],
			"stateMutability": "view",
			"type": "function"
		},
		{
			"inputs": [
				{
					"internalType": "uint256",
					"name": "",
					"type": "uint256"
				}
			],
			"name": "candidateList",
			"outputs": [
				{
					"internalType": "address",
					"name": "",
					"type": "address"
				}
			],
			"stateMutability": "view",
			"type": "function"
		},
		{
			"inputs": [],
			"name": "changeLeader",
			"outputs": [],
			"stateMutability": "nonpayable",
			"type": "function"
		},
		{
			"inputs": [
				{
					"internalType": "uint256",
					"name": "",
					"type": "uint256"
				}
			],
			"name": "constitutionProposals",
			"outputs": [
				{
					"internalType": "string",
					"name": "description",
					"type": "string"
				},
				{
					"internalType": "string",
					"name": "constitutionText",
					"type": "string"
				},
				{
					"internalType": "string",
					"name": "implementationCode",
					"type": "string"
				},
				{
					"internalType": "string",
					"name": "proposerIdentity",
					"type": "string"
				},
				{
					"internalType": "bytes32",
					"name": "hashedOffChain",
					"type": "bytes32"
				},
				{
					"internalType": "string",
					"name": "supportingMaterials",
					"type": "string"
				},
				{
					"internalType": "uint256",
					"name": "submittedAt",
					"type": "uint256"
				},
				{
					"internalType": "uint256",
					"name": "voteCount",
					"type": "uint256"
				}
			],
			"stateMutability": "view",
			"type": "function"
		},
		{
			"inputs": [],
			"name": "currentLeaderAddress",
			"outputs": [
				{
					"internalType": "address",
					"name": "",
					"type": "address"
				}
			],
			"stateMutability": "view",
			"type": "function"
		},
		{
			"inputs": [],
			"name": "currentLeaderNumber",
			"outputs": [
				{
					"internalType": "uint256",
					"name": "",
					"type": "uint256"
				}
			],
			"stateMutability": "view",
			"type": "function"
		},
		{
			"inputs": [],
			"name": "currentRate",
			"outputs": [
				{
					"internalType": "uint256",
					"name": "",
					"type": "uint256"
				}
			],
			"stateMutability": "view",
			"type": "function"
		},
		{
			"inputs": [],
			"name": "electionEnd",
			"outputs": [
				{
					"internalType": "uint256",
					"name": "",
					"type": "uint256"
				}
			],
			"stateMutability": "view",
			"type": "function"
		},
		{
			"inputs": [
				{
					"internalType": "uint256",
					"name": "billId",
					"type": "uint256"
				}
			],
			"name": "getBillInfo",
			"outputs": [
				{
					"components": [
						{
							"internalType": "address",
							"name": "proposer",
							"type": "address"
						},
						{
							"internalType": "string",
							"name": "provisions",
							"type": "string"
						},
						{
							"internalType": "uint256",
							"name": "proposedAt",
							"type": "uint256"
						},
						{
							"internalType": "uint256",
							"name": "executedAt",
							"type": "uint256"
						},
						{
							"internalType": "uint256",
							"name": "withdrawnAt",
							"type": "uint256"
						},
						{
							"internalType": "uint8",
							"name": "yesVotes",
							"type": "uint8"
						},
						{
							"components": [
								{
									"internalType": "uint256",
									"name": "amount",
									"type": "uint256"
								},
								{
									"internalType": "address",
									"name": "recipient",
									"type": "address"
								},
								{
									"internalType": "string",
									"name": "reason",
									"type": "string"
								}
							],
							"internalType": "struct SmartConstitution.Payment[]",
							"name": "payments",
							"type": "tuple[]"
						}
					],
					"internalType": "struct SmartConstitution.Bill",
					"name": "",
					"type": "tuple"
				}
			],
			"stateMutability": "view",
			"type": "function"
		},
		{
			"inputs": [
				{
					"internalType": "uint256",
					"name": "candidateID",
					"type": "uint256"
				}
			],
			"name": "getCandidateInfo",
			"outputs": [
				{
					"components": [
						{
							"internalType": "string",
							"name": "fullName",
							"type": "string"
						},
						{
							"internalType": "string",
							"name": "bio",
							"type": "string"
						},
						{
							"internalType": "string",
							"name": "website",
							"type": "string"
						},
						{
							"internalType": "uint256",
							"name": "registeredAt",
							"type": "uint256"
						},
						{
							"internalType": "uint256",
							"name": "voteCount",
							"type": "uint256"
						},
						{
							"internalType": "bool",
							"name": "electedMember",
							"type": "bool"
						},
						{
							"internalType": "uint256",
							"name": "leaderAt",
							"type": "uint256"
						}
					],
					"internalType": "struct SmartConstitution.Candidate",
					"name": "",
					"type": "tuple"
				}
			],
			"stateMutability": "view",
			"type": "function"
		},
		{
			"inputs": [
				{
					"internalType": "uint256",
					"name": "proposalId",
					"type": "uint256"
				}
			],
			"name": "getConstitution",
			"outputs": [
				{
					"components": [
						{
							"internalType": "string",
							"name": "description",
							"type": "string"
						},
						{
							"internalType": "string",
							"name": "constitutionText",
							"type": "string"
						},
						{
							"internalType": "string",
							"name": "implementationCode",
							"type": "string"
						},
						{
							"internalType": "string",
							"name": "proposerIdentity",
							"type": "string"
						},
						{
							"internalType": "bytes32",
							"name": "hashedOffChain",
							"type": "bytes32"
						},
						{
							"internalType": "string",
							"name": "supportingMaterials",
							"type": "string"
						},
						{
							"internalType": "uint256",
							"name": "submittedAt",
							"type": "uint256"
						},
						{
							"internalType": "uint256",
							"name": "voteCount",
							"type": "uint256"
						}
					],
					"internalType": "struct SmartConstitution.ConstitutionProposal",
					"name": "",
					"type": "tuple"
				}
			],
			"stateMutability": "view",
			"type": "function"
		},
		{
			"inputs": [],
			"name": "getCurrentPhase",
			"outputs": [
				{
					"internalType": "enum SmartConstitution.Phase",
					"name": "",
					"type": "uint8"
				}
			],
			"stateMutability": "nonpayable",
			"type": "function"
		},
		{
			"inputs": [],
			"name": "getElectionResults",
			"outputs": [
				{
					"internalType": "address[50]",
					"name": "",
					"type": "address[50]"
				}
			],
			"stateMutability": "nonpayable",
			"type": "function"
		},
		{
			"inputs": [
				{
					"internalType": "address",
					"name": "memberAddress",
					"type": "address"
				}
			],
			"name": "getMemberActiveBill",
			"outputs": [
				{
					"internalType": "uint256",
					"name": "",
					"type": "uint256"
				}
			],
			"stateMutability": "view",
			"type": "function"
		},
		{
			"inputs": [],
			"name": "getReferendumResults",
			"outputs": [
				{
					"internalType": "uint256",
					"name": "",
					"type": "uint256"
				},
				{
					"components": [
						{
							"internalType": "string",
							"name": "description",
							"type": "string"
						},
						{
							"internalType": "string",
							"name": "constitutionText",
							"type": "string"
						},
						{
							"internalType": "string",
							"name": "implementationCode",
							"type": "string"
						},
						{
							"internalType": "string",
							"name": "proposerIdentity",
							"type": "string"
						},
						{
							"internalType": "bytes32",
							"name": "hashedOffChain",
							"type": "bytes32"
						},
						{
							"internalType": "string",
							"name": "supportingMaterials",
							"type": "string"
						},
						{
							"internalType": "uint256",
							"name": "submittedAt",
							"type": "uint256"
						},
						{
							"internalType": "uint256",
							"name": "voteCount",
							"type": "uint256"
						}
					],
					"internalType": "struct SmartConstitution.ConstitutionProposal",
					"name": "",
					"type": "tuple"
				}
			],
			"stateMutability": "nonpayable",
			"type": "function"
		},
		{
			"inputs": [
				{
					"internalType": "bytes32",
					"name": "voterHash",
					"type": "bytes32"
				}
			],
			"name": "getRegistrarsOfHash",
			"outputs": [
				{
					"internalType": "address[2]",
					"name": "",
					"type": "address[2]"
				}
			],
			"stateMutability": "view",
			"type": "function"
		},
		{
			"inputs": [
				{
					"internalType": "address",
					"name": "voterAddress",
					"type": "address"
				}
			],
			"name": "getVoterStatus",
			"outputs": [
				{
					"internalType": "uint256",
					"name": "",
					"type": "uint256"
				}
			],
			"stateMutability": "view",
			"type": "function"
		},
		{
			"inputs": [
				{
					"internalType": "uint256",
					"name": "billId",
					"type": "uint256"
				},
				{
					"internalType": "address",
					"name": "memberAddress",
					"type": "address"
				}
			],
			"name": "getVotingTimeBill",
			"outputs": [
				{
					"internalType": "uint256",
					"name": "",
					"type": "uint256"
				}
			],
			"stateMutability": "view",
			"type": "function"
		},
		{
			"inputs": [
				{
					"internalType": "uint256",
					"name": "",
					"type": "uint256"
				}
			],
			"name": "interestPeriods",
			"outputs": [
				{
					"internalType": "uint256",
					"name": "rate",
					"type": "uint256"
				},
				{
					"internalType": "uint256",
					"name": "startedAt",
					"type": "uint256"
				}
			],
			"stateMutability": "view",
			"type": "function"
		},
		{
			"inputs": [],
			"name": "lend",
			"outputs": [],
			"stateMutability": "payable",
			"type": "function"
		},
		{
			"inputs": [
				{
					"internalType": "address",
					"name": "",
					"type": "address"
				},
				{
					"internalType": "uint256",
					"name": "",
					"type": "uint256"
				}
			],
			"name": "loansByLender",
			"outputs": [
				{
					"internalType": "int256",
					"name": "amount",
					"type": "int256"
				},
				{
					"internalType": "uint256",
					"name": "timestamp",
					"type": "uint256"
				}
			],
			"stateMutability": "view",
			"type": "function"
		},
		{
			"inputs": [
				{
					"internalType": "address",
					"name": "",
					"type": "address"
				}
			],
			"name": "memberRank",
			"outputs": [
				{
					"internalType": "uint8",
					"name": "",
					"type": "uint8"
				}
			],
			"stateMutability": "view",
			"type": "function"
		},
		{
			"inputs": [
				{
					"internalType": "address",
					"name": "",
					"type": "address"
				},
				{
					"internalType": "uint256",
					"name": "",
					"type": "uint256"
				}
			],
			"name": "memberVotedAt",
			"outputs": [
				{
					"internalType": "uint256",
					"name": "",
					"type": "uint256"
				}
			],
			"stateMutability": "view",
			"type": "function"
		},
		{
			"inputs": [],
			"name": "membersElected",
			"outputs": [
				{
					"internalType": "bool",
					"name": "",
					"type": "bool"
				}
			],
			"stateMutability": "view",
			"type": "function"
		},
		{
			"inputs": [],
			"name": "numberOfRates",
			"outputs": [
				{
					"internalType": "uint8",
					"name": "",
					"type": "uint8"
				}
			],
			"stateMutability": "view",
			"type": "function"
		},
		{
			"inputs": [],
			"name": "proposalCount",
			"outputs": [
				{
					"internalType": "uint256",
					"name": "",
					"type": "uint256"
				}
			],
			"stateMutability": "view",
			"type": "function"
		},
		{
			"inputs": [
				{
					"internalType": "string",
					"name": "_provisions",
					"type": "string"
				},
				{
					"components": [
						{
							"internalType": "uint256",
							"name": "amount",
							"type": "uint256"
						},
						{
							"internalType": "address",
							"name": "recipient",
							"type": "address"
						},
						{
							"internalType": "string",
							"name": "reason",
							"type": "string"
						}
					],
					"internalType": "struct SmartConstitution.Payment[]",
					"name": "_payments",
					"type": "tuple[]"
				}
			],
			"name": "proposeBill",
			"outputs": [
				{
					"internalType": "uint256",
					"name": "",
					"type": "uint256"
				}
			],
			"stateMutability": "nonpayable",
			"type": "function"
		},
		{
			"inputs": [
				{
					"components": [
						{
							"internalType": "string",
							"name": "description",
							"type": "string"
						},
						{
							"internalType": "string",
							"name": "constitutionText",
							"type": "string"
						},
						{
							"internalType": "string",
							"name": "implementationCode",
							"type": "string"
						},
						{
							"internalType": "string",
							"name": "proposerIdentity",
							"type": "string"
						},
						{
							"internalType": "bytes32",
							"name": "hashedOffChain",
							"type": "bytes32"
						},
						{
							"internalType": "string",
							"name": "supportingMaterials",
							"type": "string"
						},
						{
							"internalType": "uint256",
							"name": "submittedAt",
							"type": "uint256"
						},
						{
							"internalType": "uint256",
							"name": "voteCount",
							"type": "uint256"
						}
					],
					"internalType": "struct SmartConstitution.ConstitutionProposal",
					"name": "_proposal",
					"type": "tuple"
				}
			],
			"name": "proposeConstitution",
			"outputs": [],
			"stateMutability": "payable",
			"type": "function"
		},
		{
			"inputs": [
				{
					"internalType": "uint256",
					"name": "newRate",
					"type": "uint256"
				}
			],
			"name": "proposeRate",
			"outputs": [],
			"stateMutability": "nonpayable",
			"type": "function"
		},
		{
			"inputs": [],
			"name": "randomizerAddress",
			"outputs": [
				{
					"internalType": "address",
					"name": "",
					"type": "address"
				}
			],
			"stateMutability": "view",
			"type": "function"
		},
		{
			"inputs": [],
			"name": "ratifiedConstitutionId",
			"outputs": [
				{
					"internalType": "uint256",
					"name": "",
					"type": "uint256"
				}
			],
			"stateMutability": "view",
			"type": "function"
		},
		{
			"inputs": [],
			"name": "referendumEndTime",
			"outputs": [
				{
					"internalType": "uint256",
					"name": "",
					"type": "uint256"
				}
			],
			"stateMutability": "view",
			"type": "function"
		},
		{
			"inputs": [],
			"name": "referendumVoterCount",
			"outputs": [
				{
					"internalType": "uint32",
					"name": "",
					"type": "uint32"
				}
			],
			"stateMutability": "view",
			"type": "function"
		},
		{
			"inputs": [
				{
					"internalType": "string",
					"name": "_fullName",
					"type": "string"
				},
				{
					"internalType": "string",
					"name": "_bio",
					"type": "string"
				},
				{
					"internalType": "string",
					"name": "_website",
					"type": "string"
				}
			],
			"name": "registerAsCandidate",
			"outputs": [],
			"stateMutability": "payable",
			"type": "function"
		},
		{
			"inputs": [
				{
					"internalType": "bytes32[10]",
					"name": "voterHashes",
					"type": "bytes32[10]"
				},
				{
					"internalType": "address[10]",
					"name": "voterAddresses",
					"type": "address[10]"
				}
			],
			"name": "registerVoterBatch",
			"outputs": [],
			"stateMutability": "nonpayable",
			"type": "function"
		},
		{
			"inputs": [
				{
					"internalType": "uint256",
					"name": "",
					"type": "uint256"
				}
			],
			"name": "sortedRates",
			"outputs": [
				{
					"internalType": "address",
					"name": "member",
					"type": "address"
				},
				{
					"internalType": "uint256",
					"name": "rate",
					"type": "uint256"
				}
			],
			"stateMutability": "view",
			"type": "function"
		},
		{
			"inputs": [],
			"name": "startReferendum",
			"outputs": [],
			"stateMutability": "nonpayable",
			"type": "function"
		},
		{
			"inputs": [],
			"name": "startTime",
			"outputs": [
				{
					"internalType": "uint256",
					"name": "",
					"type": "uint256"
				}
			],
			"stateMutability": "view",
			"type": "function"
		},
		{
			"inputs": [],
			"name": "treasuryReserve",
			"outputs": [
				{
					"internalType": "uint256",
					"name": "",
					"type": "uint256"
				}
			],
			"stateMutability": "view",
			"type": "function"
		},
		{
			"inputs": [
				{
					"internalType": "uint256[]",
					"name": "_candidatesIds",
					"type": "uint256[]"
				}
			],
			"name": "voteCandidates",
			"outputs": [],
			"stateMutability": "nonpayable",
			"type": "function"
		},
		{
			"inputs": [
				{
					"internalType": "uint256",
					"name": "billId",
					"type": "uint256"
				}
			],
			"name": "voteForBill",
			"outputs": [
				{
					"internalType": "uint8",
					"name": "",
					"type": "uint8"
				}
			],
			"stateMutability": "nonpayable",
			"type": "function"
		},
		{
			"inputs": [
				{
					"internalType": "uint256[]",
					"name": "_proposals",
					"type": "uint256[]"
				}
			],
			"name": "voteInReferendum",
			"outputs": [],
			"stateMutability": "nonpayable",
			"type": "function"
		},
		{
			"inputs": [
				{
					"internalType": "uint256",
					"name": "billId",
					"type": "uint256"
				}
			],
			"name": "withdrawBill",
			"outputs": [],
			"stateMutability": "nonpayable",
			"type": "function"
		}
	]
}